{
  "address": "0x842c3839F7E0D26fAc482064D38b5487bd078f11",
  "abi": [
    {
      "inputs": [],
      "name": "NotExists",
      "type": "error"
    },
    {
      "inputs": [],
      "name": "NotLPAirdropDistributor",
      "type": "error"
    },
    {
      "inputs": [],
      "name": "NotPoolToken",
      "type": "error"
    },
    {
      "inputs": [],
      "name": "NotYet",
      "type": "error"
    },
    {
      "inputs": [],
      "name": "Overflow",
      "type": "error"
    },
    {
      "anonymous": false,
      "inputs": [
        {
          "indexed": true,
          "internalType": "address",
          "name": "pool",
          "type": "address"
        },
        {
          "indexed": false,
          "internalType": "address",
          "name": "token0",
          "type": "address"
        },
        {
          "indexed": false,
          "internalType": "address",
          "name": "token1",
          "type": "address"
        },
        {
          "indexed": false,
          "internalType": "uint128",
          "name": "amount0",
          "type": "uint128"
        },
        {
          "indexed": false,
          "internalType": "uint128",
          "name": "amount1",
          "type": "uint128"
        },
        {
          "indexed": false,
          "internalType": "uint256",
          "name": "startTime",
          "type": "uint256"
        },
        {
          "indexed": false,
          "internalType": "uint256",
          "name": "period",
          "type": "uint256"
        }
      ],
      "name": "Airdrop",
      "type": "event"
    },
    {
      "anonymous": false,
      "inputs": [
        {
          "indexed": true,
          "internalType": "address",
          "name": "pool",
          "type": "address"
        },
        {
          "indexed": false,
          "internalType": "address",
          "name": "token",
          "type": "address"
        },
        {
          "indexed": false,
          "internalType": "uint256",
          "name": "amount",
          "type": "uint256"
        },
        {
          "indexed": false,
          "internalType": "address",
          "name": "depositor",
          "type": "address"
        }
      ],
      "name": "Deposit",
      "type": "event"
    },
    {
      "inputs": [],
      "name": "PERIOD",
      "outputs": [
        {
          "internalType": "uint256",
          "name": "",
          "type": "uint256"
        }
      ],
      "stateMutability": "view",
      "type": "function"
    },
    {
      "inputs": [
        {
          "internalType": "address",
          "name": "pool",
          "type": "address"
        }
      ],
      "name": "airdrop",
      "outputs": [],
      "stateMutability": "nonpayable",
      "type": "function"
    },
    {
      "inputs": [],
      "name": "airdropAll",
      "outputs": [],
      "stateMutability": "nonpayable",
      "type": "function"
    },
    {
      "inputs": [
        {
          "internalType": "address[]",
          "name": "pools",
          "type": "address[]"
        }
      ],
      "name": "airdropList",
      "outputs": [],
      "stateMutability": "nonpayable",
      "type": "function"
    },
    {
      "inputs": [
        {
          "internalType": "uint256",
          "name": "",
          "type": "uint256"
        }
      ],
      "name": "airdropPool",
      "outputs": [
        {
          "internalType": "address",
          "name": "",
          "type": "address"
        }
      ],
      "stateMutability": "view",
      "type": "function"
    },
    {
      "inputs": [],
      "name": "airdropPoolLength",
      "outputs": [
        {
          "internalType": "uint256",
          "name": "",
          "type": "uint256"
        }
      ],
      "stateMutability": "view",
      "type": "function"
    },
    {
      "inputs": [
        {
          "internalType": "address",
          "name": "pool",
          "type": "address"
        },
        {
          "internalType": "uint256",
          "name": "idx",
          "type": "uint256"
        }
      ],
      "name": "airdropSnapshot",
      "outputs": [
        {
          "components": [
            {
              "internalType": "uint256",
              "name": "amount0",
              "type": "uint256"
            },
            {
              "internalType": "uint256",
              "name": "amount1",
              "type": "uint256"
            },
            {
              "internalType": "uint256",
              "name": "startTime",
              "type": "uint256"
            }
          ],
          "internalType": "struct IAirdropDistributorStruct.AirdropInfo",
          "name": "snapshot",
          "type": "tuple"
        }
      ],
      "stateMutability": "view",
      "type": "function"
    },
    {
      "inputs": [
        {
          "internalType": "address",
          "name": "pool",
          "type": "address"
        }
      ],
      "name": "airdropSnapshotLength",
      "outputs": [
        {
          "internalType": "uint256",
          "name": "length",
          "type": "uint256"
        }
      ],
      "stateMutability": "view",
      "type": "function"
    },
    {
      "inputs": [
        {
          "internalType": "address",
          "name": "pool",
          "type": "address"
        }
      ],
      "name": "depositKlay",
      "outputs": [],
      "stateMutability": "payable",
      "type": "function"
    },
    {
      "inputs": [
        {
          "internalType": "address",
          "name": "pool",
          "type": "address"
        },
        {
          "internalType": "address",
          "name": "token",
          "type": "address"
        },
        {
          "internalType": "uint128",
          "name": "amount",
          "type": "uint128"
        }
      ],
      "name": "depositToken",
      "outputs": [],
      "stateMutability": "nonpayable",
      "type": "function"
    },
    {
      "inputs": [
        {
          "internalType": "address",
          "name": "pool",
          "type": "address"
        }
      ],
      "name": "depositedAirdrop",
      "outputs": [
        {
          "components": [
            {
              "internalType": "uint256",
              "name": "amount0",
              "type": "uint256"
            },
            {
              "internalType": "uint256",
              "name": "amount1",
              "type": "uint256"
            },
            {
              "internalType": "uint256",
              "name": "startTime",
              "type": "uint256"
            }
          ],
          "internalType": "struct IAirdropDistributorStruct.AirdropInfo",
          "name": "",
          "type": "tuple"
        }
      ],
      "stateMutability": "view",
      "type": "function"
    },
    {
      "inputs": [],
      "name": "epochStartTime",
      "outputs": [
        {
          "internalType": "uint256",
          "name": "",
          "type": "uint256"
        }
      ],
      "stateMutability": "view",
      "type": "function"
    },
    {
      "inputs": [
        {
          "internalType": "address",
          "name": "_masterDeployer",
          "type": "address"
        },
        {
          "internalType": "address",
          "name": "_WKLAY",
          "type": "address"
        }
      ],
      "name": "initialize",
      "outputs": [],
      "stateMutability": "nonpayable",
      "type": "function"
    },
    {
      "inputs": [],
      "name": "masterDeployer",
      "outputs": [
        {
          "internalType": "contract IMasterDeployer",
          "name": "",
          "type": "address"
        }
      ],
      "stateMutability": "view",
      "type": "function"
    },
    {
      "inputs": [],
      "name": "nextEpochStartTime",
      "outputs": [
        {
          "internalType": "uint256",
          "name": "",
          "type": "uint256"
        }
      ],
      "stateMutability": "view",
      "type": "function"
    }
  ],
  "transactionHash": "0xea49313a8398b16ef48cfaa25aa350f64ae22fe27feb5b3910a9eea5cb66934a",
  "args": [],
  "numDeployments": 3,
  "solcInputHash": "a884ade2120675d2bd462078627092f3",
  "bytecode": "0x608060405234801561001057600080fd5b506124ca806100206000396000f3fe6080604052600436106100e85760003560e01c80639be3476d1161008a578063c0dcb4d211610059578063c0dcb4d214610272578063cf58879a146102b5578063f5006563146102e2578063f60ca6411461030257600080fd5b80639be3476d146101e1578063b15e44c2146101f6578063b4d1d7951461023b578063b9fc53fd1461025257600080fd5b806327938bb4116100c657806327938bb41461014a578063485cc9551461016a57806349cee5d51461018a578063660c5075146101cc57600080fd5b806301d5c7b9146100ed57806306ea45921461010257806321860a051461012a575b600080fd5b6101006100fb36600461203b565b610317565b005b34801561010e57600080fd5b506101176104e0565b6040519081526020015b60405180910390f35b34801561013657600080fd5b5061010061014536600461203b565b6104fd565b34801561015657600080fd5b50610100610165366004612087565b610690565b34801561017657600080fd5b5061010061018536600461216a565b610968565b34801561019657600080fd5b506101aa6101a536600461203b565b610b01565b6040805182518152602080840151908201529181015190820152606001610121565b3480156101d857600080fd5b50610100610d74565b3480156101ed57600080fd5b50600254610117565b34801561020257600080fd5b506102166102113660046121a3565b610f50565b60405173ffffffffffffffffffffffffffffffffffffffff9091168152602001610121565b34801561024757600080fd5b5061011762093a8081565b34801561025e57600080fd5b506101aa61026d3660046121bc565b610f87565b34801561027e57600080fd5b5061011761028d36600461203b565b73ffffffffffffffffffffffffffffffffffffffff1660009081526006602052604090205490565b3480156102c157600080fd5b506001546102169073ffffffffffffffffffffffffffffffffffffffff1681565b3480156102ee57600080fd5b506101006102fd3660046121e8565b611021565b34801561030e57600080fd5b50610117611181565b600154604080517fd0a931730000000000000000000000000000000000000000000000000000000081529051309273ffffffffffffffffffffffffffffffffffffffff169163d0a931739160048083019260209291908290030181600087803b15801561038357600080fd5b505af1158015610397573d6000803e3d6000fd5b505050506040513d601f19601f820116820180604052508101906103bb9190612248565b73ffffffffffffffffffffffffffffffffffffffff161461043d576040517f08c379a000000000000000000000000000000000000000000000000000000000815260206004820152601c60248201527f41697264726f704469737472696275746f72206973207068617365640000000060448201526064015b60405180910390fd5b60008054604080517fd0e30db000000000000000000000000000000000000000000000000000000000815290516201000090920473ffffffffffffffffffffffffffffffffffffffff16923492849263d0e30db092859260048084019382900301818588803b1580156104af57600080fd5b505af11580156104c3573d6000803e3d6000fd5b50505050506104db83836104d68461119b565b6111bf565b505050565b600062093a806104ee611181565b6104f89190612294565b905090565b600154604080517fd0a931730000000000000000000000000000000000000000000000000000000081529051309273ffffffffffffffffffffffffffffffffffffffff169163d0a931739160048083019260209291908290030181600087803b15801561056957600080fd5b505af115801561057d573d6000803e3d6000fd5b505050506040513d601f19601f820116820180604052508101906105a19190612248565b73ffffffffffffffffffffffffffffffffffffffff161461061e576040517f08c379a000000000000000000000000000000000000000000000000000000000815260206004820152601c60248201527f41697264726f704469737472696275746f7220697320706861736564000000006044820152606401610434565b610626611181565b73ffffffffffffffffffffffffffffffffffffffff82166000908152600560205260409020541115610684576040517f0d3f777600000000000000000000000000000000000000000000000000000000815260040160405180910390fd5b61068d8161168e565b50565b600154604080517fd0a931730000000000000000000000000000000000000000000000000000000081529051309273ffffffffffffffffffffffffffffffffffffffff169163d0a931739160048083019260209291908290030181600087803b1580156106fc57600080fd5b505af1158015610710573d6000803e3d6000fd5b505050506040513d601f19601f820116820180604052508101906107349190612248565b73ffffffffffffffffffffffffffffffffffffffff16146107b1576040517f08c379a000000000000000000000000000000000000000000000000000000000815260206004820152601c60248201527f41697264726f704469737472696275746f7220697320706861736564000000006044820152606401610434565b60006107bb611181565b905060005b82518110156104db5760008382815181106107dd576107dd6122ac565b6020026020010151905082600560008373ffffffffffffffffffffffffffffffffffffffff1673ffffffffffffffffffffffffffffffffffffffff1681526020019081526020016000205411156108345750610956565b828173ffffffffffffffffffffffffffffffffffffffff1663956afe456040518163ffffffff1660e01b8152600401602060405180830381600087803b15801561087d57600080fd5b505af1158015610891573d6000803e3d6000fd5b505050506040513d601f19601f820116820180604052508101906108b591906122db565b8273ffffffffffffffffffffffffffffffffffffffff166340306fb66040518163ffffffff1660e01b8152600401602060405180830381600087803b1580156108fd57600080fd5b505af1158015610911573d6000803e3d6000fd5b505050506040513d601f19601f8201168201806040525081019061093591906122db565b61093f9190612294565b111561094b5750610956565b6109548161168e565b505b80610960816122f4565b9150506107c0565b600054610100900460ff166109835760005460ff1615610987565b303b155b610a13576040517f08c379a000000000000000000000000000000000000000000000000000000000815260206004820152602e60248201527f496e697469616c697a61626c653a20636f6e747261637420697320616c72656160448201527f647920696e697469616c697a65640000000000000000000000000000000000006064820152608401610434565b600054610100900460ff16158015610a5257600080547fffffffffffffffffffffffffffffffffffffffffffffffffffffffffffff0000166101011790555b600180547fffffffffffffffffffffffff00000000000000000000000000000000000000001673ffffffffffffffffffffffffffffffffffffffff85811691909117909155600080547fffffffffffffffffffff0000000000000000000000000000000000000000ffff16620100009285169290920291909117905580156104db57600080547fffffffffffffffffffffffffffffffffffffffffffffffffffffffffffff00ff169055505050565b610b2560405180606001604052806000815260200160008152602001600081525090565b6040518060600160405280600460008573ffffffffffffffffffffffffffffffffffffffff1673ffffffffffffffffffffffffffffffffffffffff16815260200190815260200160002060008573ffffffffffffffffffffffffffffffffffffffff16630dfe16816040518163ffffffff1660e01b815260040160206040518083038186803b158015610bb757600080fd5b505afa158015610bcb573d6000803e3d6000fd5b505050506040513d601f19601f82011682018060405250810190610bef9190612248565b73ffffffffffffffffffffffffffffffffffffffff1673ffffffffffffffffffffffffffffffffffffffff16815260200190815260200160002060009054906101000a90046fffffffffffffffffffffffffffffffff166fffffffffffffffffffffffffffffffff168152602001600460008573ffffffffffffffffffffffffffffffffffffffff1673ffffffffffffffffffffffffffffffffffffffff16815260200190815260200160002060008573ffffffffffffffffffffffffffffffffffffffff1663d21220a76040518163ffffffff1660e01b815260040160206040518083038186803b158015610ce457600080fd5b505afa158015610cf8573d6000803e3d6000fd5b505050506040513d601f19601f82011682018060405250810190610d1c9190612248565b73ffffffffffffffffffffffffffffffffffffffff908116825260208083019390935260409182016000908120546fffffffffffffffffffffffffffffffff1685529616865260058252909420549301929092525090565b600154604080517fd0a931730000000000000000000000000000000000000000000000000000000081529051309273ffffffffffffffffffffffffffffffffffffffff169163d0a931739160048083019260209291908290030181600087803b158015610de057600080fd5b505af1158015610df4573d6000803e3d6000fd5b505050506040513d601f19601f82011682018060405250810190610e189190612248565b73ffffffffffffffffffffffffffffffffffffffff1614610e95576040517f08c379a000000000000000000000000000000000000000000000000000000000815260206004820152601c60248201527f41697264726f704469737472696275746f7220697320706861736564000000006044820152606401610434565b6000610e9f611181565b905060005b600254811015610f4c57600060028281548110610ec357610ec36122ac565b600091825260208083209091015473ffffffffffffffffffffffffffffffffffffffff16808352600590915260409091205490915015801590610f2b575073ffffffffffffffffffffffffffffffffffffffff81166000908152600560205260409020548310155b15610f3957610f398161168e565b5080610f44816122f4565b915050610ea4565b5050565b60028181548110610f6057600080fd5b60009182526020909120015473ffffffffffffffffffffffffffffffffffffffff16905081565b610fab60405180606001604052806000815260200160008152602001600081525090565b73ffffffffffffffffffffffffffffffffffffffff83166000908152600660205260409020805483908110610fe257610fe26122ac565b90600052602060002090600302016040518060600160405290816000820154815260200160018201548152602001600282015481525050905092915050565b600154604080517fd0a931730000000000000000000000000000000000000000000000000000000081529051309273ffffffffffffffffffffffffffffffffffffffff169163d0a931739160048083019260209291908290030181600087803b15801561108d57600080fd5b505af11580156110a1573d6000803e3d6000fd5b505050506040513d601f19601f820116820180604052508101906110c59190612248565b73ffffffffffffffffffffffffffffffffffffffff1614611142576040517f08c379a000000000000000000000000000000000000000000000000000000000815260206004820152601c60248201527f41697264726f704469737472696275746f7220697320706861736564000000006044820152606401610434565b61117673ffffffffffffffffffffffffffffffffffffffff831633306fffffffffffffffffffffffffffffffff8516611c65565b6104db8383836111bf565b600062093a80611191814261232d565b6104f89190612368565b806fffffffffffffffffffffffffffffffff811681146111ba57600080fd5b919050565b6001546040517fa4063dbc00000000000000000000000000000000000000000000000000000000815273ffffffffffffffffffffffffffffffffffffffff85811660048301529091169063a4063dbc9060240160206040518083038186803b15801561122a57600080fd5b505afa15801561123e573d6000803e3d6000fd5b505050506040513d601f19601f8201168201806040525081019061126291906123a5565b611298576040517f5861b41d00000000000000000000000000000000000000000000000000000000815260040160405180910390fd5b8173ffffffffffffffffffffffffffffffffffffffff168373ffffffffffffffffffffffffffffffffffffffff16630dfe16816040518163ffffffff1660e01b815260040160206040518083038186803b1580156112f557600080fd5b505afa158015611309573d6000803e3d6000fd5b505050506040513d601f19601f8201168201806040525081019061132d9190612248565b73ffffffffffffffffffffffffffffffffffffffff16141580156113fa57508173ffffffffffffffffffffffffffffffffffffffff168373ffffffffffffffffffffffffffffffffffffffff1663d21220a76040518163ffffffff1660e01b815260040160206040518083038186803b1580156113a957600080fd5b505afa1580156113bd573d6000803e3d6000fd5b505050506040513d601f19601f820116820180604052508101906113e19190612248565b73ffffffffffffffffffffffffffffffffffffffff1614155b15611431576040517f15fa6e7100000000000000000000000000000000000000000000000000000000815260040160405180910390fd5b73ffffffffffffffffffffffffffffffffffffffff8316600090815260056020526040902054158015906114915750611468611181565b73ffffffffffffffffffffffffffffffffffffffff841660009081526005602052604090205411155b1561149f5761149f8361168e565b73ffffffffffffffffffffffffffffffffffffffff831660009081526003602052604090205460ff166115755773ffffffffffffffffffffffffffffffffffffffff8316600081815260036020526040812080547fffffffffffffffffffffffffffffffffffffffffffffffffffffffffffffff001660019081179091556002805491820181559091527f405787fa12a823e0f2b7631cc41b3ba8828b3321ca811111fa75cd3aa3bb5ace0180547fffffffffffffffffffffffff00000000000000000000000000000000000000001690911790555b73ffffffffffffffffffffffffffffffffffffffff8084166000908152600460209081526040808320938616835292905290812080548392906115cb9084906fffffffffffffffffffffffffffffffff166123c7565b92506101000a8154816fffffffffffffffffffffffffffffffff02191690836fffffffffffffffffffffffffffffffff1602179055506116096104e0565b73ffffffffffffffffffffffffffffffffffffffff84811660008181526005602090815260409182902094909455805192861683526fffffffffffffffffffffffffffffffff851693830193909352338284015291517f364bb76a44233df8584c690de6da7810626a5e77192f3ebc942c35bcb1add24f9181900360600190a2505050565b60008173ffffffffffffffffffffffffffffffffffffffff16630dfe16816040518163ffffffff1660e01b815260040160206040518083038186803b1580156116d657600080fd5b505afa1580156116ea573d6000803e3d6000fd5b505050506040513d601f19601f8201168201806040525081019061170e9190612248565b905060008273ffffffffffffffffffffffffffffffffffffffff1663d21220a76040518163ffffffff1660e01b815260040160206040518083038186803b15801561175857600080fd5b505afa15801561176c573d6000803e3d6000fd5b505050506040513d601f19601f820116820180604052508101906117909190612248565b73ffffffffffffffffffffffffffffffffffffffff84811660008181526004602081815260408084208987168086529083528185208054978916865282862080547fffffffffffffffffffffffffffffffff00000000000000000000000000000000808b1690935581549092169055868652600590935281852094909455517f095ea7b3000000000000000000000000000000000000000000000000000000008152918201939093526fffffffffffffffffffffffffffffffff93841660248201819052949550929091169163095ea7b390604401602060405180830381600087803b15801561187f57600080fd5b505af1158015611893573d6000803e3d6000fd5b505050506040513d601f19601f820116820180604052508101906118b791906123a5565b506040517f095ea7b300000000000000000000000000000000000000000000000000000000815273ffffffffffffffffffffffffffffffffffffffff86811660048301526fffffffffffffffffffffffffffffffff8316602483015284169063095ea7b390604401602060405180830381600087803b15801561193957600080fd5b505af115801561194d573d6000803e3d6000fd5b505050506040513d601f19601f8201168201806040525081019061197191906123a5565b50600061197c611181565b6040517f9a2f9ccc0000000000000000000000000000000000000000000000000000000081526fffffffffffffffffffffffffffffffff8086166004830152841660248201526044810182905262093a806064820181905291925073ffffffffffffffffffffffffffffffffffffffff881690639a2f9ccc90608401600060405180830381600087803b158015611a1257600080fd5b505af1158015611a26573d6000803e3d6000fd5b50506040517f095ea7b300000000000000000000000000000000000000000000000000000000815273ffffffffffffffffffffffffffffffffffffffff8a81166004830152600060248301528916925063095ea7b39150604401602060405180830381600087803b158015611a9a57600080fd5b505af1158015611aae573d6000803e3d6000fd5b505050506040513d601f19601f82011682018060405250810190611ad291906123a5565b506040517f095ea7b300000000000000000000000000000000000000000000000000000000815273ffffffffffffffffffffffffffffffffffffffff88811660048301526000602483015286169063095ea7b390604401602060405180830381600087803b158015611b4357600080fd5b505af1158015611b57573d6000803e3d6000fd5b505050506040513d601f19601f82011682018060405250810190611b7b91906123a5565b5073ffffffffffffffffffffffffffffffffffffffff87811660008181526006602090815260408083208151606080820184526fffffffffffffffffffffffffffffffff8c8116808452908c168387018181528487018d8152865460018082018955978b529989902095516003909a029095019889555194880194909455915160029096019590955582518d88168152968c169387019390935290850191909152908301526080820184905260a08201839052907f8738b64144cfd564b556d900f7fc56ab5643476957aeb6f2879bf3371d89f3079060c00160405180910390a250505050505050565b6040805173ffffffffffffffffffffffffffffffffffffffff85811660248301528416604482015260648082018490528251808303909101815260849091019091526020810180517bffffffffffffffffffffffffffffffffffffffffffffffffffffffff167f23b872dd00000000000000000000000000000000000000000000000000000000179052611cfa908590611d00565b50505050565b6000611d62826040518060400160405280602081526020017f5361666545524332303a206c6f772d6c6576656c2063616c6c206661696c65648152508573ffffffffffffffffffffffffffffffffffffffff16611e0c9092919063ffffffff16565b8051909150156104db5780806020019051810190611d8091906123a5565b6104db576040517f08c379a000000000000000000000000000000000000000000000000000000000815260206004820152602a60248201527f5361666545524332303a204552433230206f7065726174696f6e20646964206e60448201527f6f742073756363656564000000000000000000000000000000000000000000006064820152608401610434565b6060611e1b8484600085611e25565b90505b9392505050565b606082471015611eb7576040517f08c379a000000000000000000000000000000000000000000000000000000000815260206004820152602660248201527f416464726573733a20696e73756666696369656e742062616c616e636520666f60448201527f722063616c6c00000000000000000000000000000000000000000000000000006064820152608401610434565b73ffffffffffffffffffffffffffffffffffffffff85163b611f35576040517f08c379a000000000000000000000000000000000000000000000000000000000815260206004820152601d60248201527f416464726573733a2063616c6c20746f206e6f6e2d636f6e74726163740000006044820152606401610434565b6000808673ffffffffffffffffffffffffffffffffffffffff168587604051611f5e9190612427565b60006040518083038185875af1925050503d8060008114611f9b576040519150601f19603f3d011682016040523d82523d6000602084013e611fa0565b606091505b5091509150611fb0828286611fbb565b979650505050505050565b60608315611fca575081611e1e565b825115611fda5782518084602001fd5b816040517f08c379a00000000000000000000000000000000000000000000000000000000081526004016104349190612443565b73ffffffffffffffffffffffffffffffffffffffff8116811461068d57600080fd5b80356111ba8161200e565b60006020828403121561204d57600080fd5b8135611e1e8161200e565b7f4e487b7100000000000000000000000000000000000000000000000000000000600052604160045260246000fd5b6000602080838503121561209a57600080fd5b823567ffffffffffffffff808211156120b257600080fd5b818501915085601f8301126120c657600080fd5b8135818111156120d8576120d8612058565b8060051b6040517fffffffffffffffffffffffffffffffffffffffffffffffffffffffffffffffe0603f8301168101818110858211171561211b5761211b612058565b60405291825284820192508381018501918883111561213957600080fd5b938501935b8285101561215e5761214f85612030565b8452938501939285019261213e565b98975050505050505050565b6000806040838503121561217d57600080fd5b82356121888161200e565b915060208301356121988161200e565b809150509250929050565b6000602082840312156121b557600080fd5b5035919050565b600080604083850312156121cf57600080fd5b82356121da8161200e565b946020939093013593505050565b6000806000606084860312156121fd57600080fd5b83356122088161200e565b925060208401356122188161200e565b915060408401356fffffffffffffffffffffffffffffffff8116811461223d57600080fd5b809150509250925092565b60006020828403121561225a57600080fd5b8151611e1e8161200e565b7f4e487b7100000000000000000000000000000000000000000000000000000000600052601160045260246000fd5b600082198211156122a7576122a7612265565b500190565b7f4e487b7100000000000000000000000000000000000000000000000000000000600052603260045260246000fd5b6000602082840312156122ed57600080fd5b5051919050565b60007fffffffffffffffffffffffffffffffffffffffffffffffffffffffffffffffff82141561232657612326612265565b5060010190565b600082612363577f4e487b7100000000000000000000000000000000000000000000000000000000600052601260045260246000fd5b500490565b6000817fffffffffffffffffffffffffffffffffffffffffffffffffffffffffffffffff04831182151516156123a0576123a0612265565b500290565b6000602082840312156123b757600080fd5b81518015158114611e1e57600080fd5b60006fffffffffffffffffffffffffffffffff8083168185168083038211156123f2576123f2612265565b01949350505050565b60005b838110156124165781810151838201526020016123fe565b83811115611cfa5750506000910152565b600082516124398184602087016123fb565b9190910192915050565b60208152600082518060208401526124628160408501602087016123fb565b601f017fffffffffffffffffffffffffffffffffffffffffffffffffffffffffffffffe016919091016040019291505056fea2646970667358221220b25e0dcd387b06f112ebef8fe357e4ccecfe02731e9256bbb48432ecdb5f2be464736f6c63430008090033",
  "devdoc": {
    "kind": "dev",
    "methods": {
      "airdrop(address)": {
        "params": {
          "pool": "the address of pangea pool"
        }
      },
      "airdropList(address[])": {
        "params": {
          "pools": "list of the addresses of pangea pool"
        }
      },
      "depositKlay(address)": {
        "details": "transaction will revert if the asset in the pool is not WKLAY",
        "params": {
          "pool": "the address of pangea pool to deposit"
        }
      },
      "depositToken(address,address,uint128)": {
        "details": "Approval (token.approve(airdropDistributor, amount)) must be performed before transaction",
        "params": {
          "amount": "amount of token to deposit",
          "pool": "the address of pangea pool to deposit",
          "token": "token address to deposit. it must be one of the pools' tokens."
        }
      }
    },
    "version": 1
  },
  "userdoc": {
    "kind": "user",
    "methods": {
      "airdrop(address)": {
        "notice": "airdrop the deposited assets of pool"
      },
      "airdropAll()": {
        "notice": "airdrop the deposited assets all on this epoch"
      },
      "airdropList(address[])": {
        "notice": "airdrop Batch Call"
      },
      "airdropPool(uint256)": {
        "notice": "the address of airdrop pool"
      },
      "airdropPoolLength()": {
        "notice": "Number of pools that have ever been deposited"
      },
      "airdropSnapshot(address,uint256)": {
        "notice": "record of past airdrop information distributed"
      },
      "airdropSnapshotLength(address)": {
        "notice": "Number of airdrop action distributed to the pool"
      },
      "depositKlay(address)": {
        "notice": "deposit klay to the pool. this klay will be distributed to the next epoch"
      },
      "depositToken(address,address,uint128)": {
        "notice": "deposit Token to the pool. this token will be distributed to the next epoch"
      },
      "depositedAirdrop(address)": {
        "notice": "airdrop information deposited in the pool. amount0 & amount1 will be zero after airdrop allocation"
      }
    },
    "version": 1
  },
  "storageLayout": {
    "storage": [
      {
        "astId": 130,
        "contract": "contracts/distribution/AirdropDistributor.sol:AirdropDistributor",
        "label": "_initialized",
        "offset": 0,
        "slot": "0",
        "type": "t_bool"
      },
      {
        "astId": 133,
        "contract": "contracts/distribution/AirdropDistributor.sol:AirdropDistributor",
        "label": "_initializing",
        "offset": 1,
        "slot": "0",
        "type": "t_bool"
      },
      {
        "astId": 10063,
        "contract": "contracts/distribution/AirdropDistributor.sol:AirdropDistributor",
        "label": "wKLAY",
        "offset": 2,
        "slot": "0",
        "type": "t_address"
      },
      {
        "astId": 10066,
        "contract": "contracts/distribution/AirdropDistributor.sol:AirdropDistributor",
        "label": "masterDeployer",
        "offset": 0,
        "slot": "1",
        "type": "t_contract(IMasterDeployer)12434"
      },
      {
        "astId": 10069,
        "contract": "contracts/distribution/AirdropDistributor.sol:AirdropDistributor",
        "label": "airdropPool",
        "offset": 0,
        "slot": "2",
        "type": "t_array(t_address)dyn_storage"
      },
      {
        "astId": 10073,
        "contract": "contracts/distribution/AirdropDistributor.sol:AirdropDistributor",
        "label": "isAirdropPool",
        "offset": 0,
        "slot": "3",
        "type": "t_mapping(t_address,t_bool)"
      },
      {
        "astId": 10079,
        "contract": "contracts/distribution/AirdropDistributor.sol:AirdropDistributor",
        "label": "depositAmount",
        "offset": 0,
        "slot": "4",
        "type": "t_mapping(t_address,t_mapping(t_address,t_uint128))"
      },
      {
        "astId": 10083,
        "contract": "contracts/distribution/AirdropDistributor.sol:AirdropDistributor",
        "label": "airdropStartTimePerPool",
        "offset": 0,
        "slot": "5",
        "type": "t_mapping(t_address,t_uint256)"
      },
      {
        "astId": 10089,
        "contract": "contracts/distribution/AirdropDistributor.sol:AirdropDistributor",
        "label": "_airdropSnapshot",
        "offset": 0,
        "slot": "6",
        "type": "t_mapping(t_address,t_array(t_struct(AirdropInfo)11562_storage)dyn_storage)"
      }
    ],
    "types": {
      "t_address": {
        "encoding": "inplace",
        "label": "address",
        "numberOfBytes": "20"
      },
      "t_array(t_address)dyn_storage": {
        "base": "t_address",
        "encoding": "dynamic_array",
        "label": "address[]",
        "numberOfBytes": "32"
      },
      "t_array(t_struct(AirdropInfo)11562_storage)dyn_storage": {
        "base": "t_struct(AirdropInfo)11562_storage",
        "encoding": "dynamic_array",
        "label": "struct IAirdropDistributorStruct.AirdropInfo[]",
        "numberOfBytes": "32"
      },
      "t_bool": {
        "encoding": "inplace",
        "label": "bool",
        "numberOfBytes": "1"
      },
      "t_contract(IMasterDeployer)12434": {
        "encoding": "inplace",
        "label": "contract IMasterDeployer",
        "numberOfBytes": "20"
      },
      "t_mapping(t_address,t_array(t_struct(AirdropInfo)11562_storage)dyn_storage)": {
        "encoding": "mapping",
        "key": "t_address",
        "label": "mapping(address => struct IAirdropDistributorStruct.AirdropInfo[])",
        "numberOfBytes": "32",
        "value": "t_array(t_struct(AirdropInfo)11562_storage)dyn_storage"
      },
      "t_mapping(t_address,t_bool)": {
        "encoding": "mapping",
        "key": "t_address",
        "label": "mapping(address => bool)",
        "numberOfBytes": "32",
        "value": "t_bool"
      },
      "t_mapping(t_address,t_mapping(t_address,t_uint128))": {
        "encoding": "mapping",
        "key": "t_address",
        "label": "mapping(address => mapping(address => uint128))",
        "numberOfBytes": "32",
        "value": "t_mapping(t_address,t_uint128)"
      },
      "t_mapping(t_address,t_uint128)": {
        "encoding": "mapping",
        "key": "t_address",
        "label": "mapping(address => uint128)",
        "numberOfBytes": "32",
        "value": "t_uint128"
      },
      "t_mapping(t_address,t_uint256)": {
        "encoding": "mapping",
        "key": "t_address",
        "label": "mapping(address => uint256)",
        "numberOfBytes": "32",
        "value": "t_uint256"
      },
      "t_struct(AirdropInfo)11562_storage": {
        "encoding": "inplace",
        "label": "struct IAirdropDistributorStruct.AirdropInfo",
        "members": [
          {
            "astId": 11555,
            "contract": "contracts/distribution/AirdropDistributor.sol:AirdropDistributor",
            "label": "amount0",
            "offset": 0,
            "slot": "0",
            "type": "t_uint256"
          },
          {
            "astId": 11558,
            "contract": "contracts/distribution/AirdropDistributor.sol:AirdropDistributor",
            "label": "amount1",
            "offset": 0,
            "slot": "1",
            "type": "t_uint256"
          },
          {
            "astId": 11561,
            "contract": "contracts/distribution/AirdropDistributor.sol:AirdropDistributor",
            "label": "startTime",
            "offset": 0,
            "slot": "2",
            "type": "t_uint256"
          }
        ],
        "numberOfBytes": "96"
      },
      "t_uint128": {
        "encoding": "inplace",
        "label": "uint128",
        "numberOfBytes": "16"
      },
      "t_uint256": {
        "encoding": "inplace",
        "label": "uint256",
        "numberOfBytes": "32"
      }
    }
  }
}