{
  "address": "0x74Ff411329C2979176B005A3E3eb2C0602918da7",
  "abi": [
    {
      "inputs": [],
      "name": "NotAllowedToken",
      "type": "error"
    },
    {
      "inputs": [],
      "name": "NotExists",
      "type": "error"
    },
    {
      "inputs": [],
      "name": "NotYet",
      "type": "error"
    },
    {
      "anonymous": false,
      "inputs": [
        {
          "indexed": true,
          "internalType": "address",
          "name": "pool",
          "type": "address"
        },
        {
          "indexed": false,
          "internalType": "address",
          "name": "token",
          "type": "address"
        },
        {
          "indexed": false,
          "internalType": "uint128",
          "name": "amount",
          "type": "uint128"
        },
        {
          "indexed": false,
          "internalType": "uint256",
          "name": "startTime",
          "type": "uint256"
        },
        {
          "indexed": false,
          "internalType": "uint256",
          "name": "period",
          "type": "uint256"
        }
      ],
      "name": "Airdrop",
      "type": "event"
    },
    {
      "anonymous": false,
      "inputs": [
        {
          "indexed": true,
          "internalType": "address",
          "name": "pool",
          "type": "address"
        },
        {
          "indexed": false,
          "internalType": "address",
          "name": "token",
          "type": "address"
        },
        {
          "indexed": false,
          "internalType": "uint256",
          "name": "amount",
          "type": "uint256"
        },
        {
          "indexed": false,
          "internalType": "address",
          "name": "depositor",
          "type": "address"
        }
      ],
      "name": "Deposit",
      "type": "event"
    },
    {
      "anonymous": false,
      "inputs": [
        {
          "indexed": true,
          "internalType": "address",
          "name": "previousOwner",
          "type": "address"
        },
        {
          "indexed": true,
          "internalType": "address",
          "name": "newOwner",
          "type": "address"
        }
      ],
      "name": "OwnershipTransferred",
      "type": "event"
    },
    {
      "inputs": [],
      "name": "PERIOD",
      "outputs": [
        {
          "internalType": "uint256",
          "name": "",
          "type": "uint256"
        }
      ],
      "stateMutability": "view",
      "type": "function"
    },
    {
      "inputs": [
        {
          "internalType": "address",
          "name": "pool",
          "type": "address"
        }
      ],
      "name": "airdrop",
      "outputs": [],
      "stateMutability": "nonpayable",
      "type": "function"
    },
    {
      "inputs": [],
      "name": "airdropAll",
      "outputs": [],
      "stateMutability": "nonpayable",
      "type": "function"
    },
    {
      "inputs": [
        {
          "internalType": "address[]",
          "name": "pools",
          "type": "address[]"
        }
      ],
      "name": "airdropList",
      "outputs": [],
      "stateMutability": "nonpayable",
      "type": "function"
    },
    {
      "inputs": [
        {
          "internalType": "uint256",
          "name": "",
          "type": "uint256"
        }
      ],
      "name": "airdropPool",
      "outputs": [
        {
          "internalType": "address",
          "name": "",
          "type": "address"
        }
      ],
      "stateMutability": "view",
      "type": "function"
    },
    {
      "inputs": [],
      "name": "airdropPoolLength",
      "outputs": [
        {
          "internalType": "uint256",
          "name": "",
          "type": "uint256"
        }
      ],
      "stateMutability": "view",
      "type": "function"
    },
    {
      "inputs": [
        {
          "internalType": "address",
          "name": "pool",
          "type": "address"
        }
      ],
      "name": "airdropTokens",
      "outputs": [
        {
          "internalType": "address[]",
          "name": "tokens",
          "type": "address[]"
        }
      ],
      "stateMutability": "view",
      "type": "function"
    },
    {
      "inputs": [
        {
          "internalType": "address",
          "name": "pool",
          "type": "address"
        }
      ],
      "name": "depositKlay",
      "outputs": [],
      "stateMutability": "payable",
      "type": "function"
    },
    {
      "inputs": [
        {
          "internalType": "address",
          "name": "pool",
          "type": "address"
        },
        {
          "internalType": "address",
          "name": "token",
          "type": "address"
        },
        {
          "internalType": "uint128",
          "name": "amount",
          "type": "uint128"
        }
      ],
      "name": "depositToken",
      "outputs": [],
      "stateMutability": "nonpayable",
      "type": "function"
    },
    {
      "inputs": [
        {
          "internalType": "address",
          "name": "pool",
          "type": "address"
        }
      ],
      "name": "depositedAirdrop",
      "outputs": [
        {
          "internalType": "address[]",
          "name": "tokens",
          "type": "address[]"
        },
        {
          "internalType": "uint256[]",
          "name": "amounts",
          "type": "uint256[]"
        },
        {
          "internalType": "uint256",
          "name": "startTime",
          "type": "uint256"
        }
      ],
      "stateMutability": "view",
      "type": "function"
    },
    {
      "inputs": [],
      "name": "epochStartTime",
      "outputs": [
        {
          "internalType": "uint256",
          "name": "",
          "type": "uint256"
        }
      ],
      "stateMutability": "view",
      "type": "function"
    },
    {
      "inputs": [
        {
          "internalType": "address",
          "name": "_masterDeployer",
          "type": "address"
        },
        {
          "internalType": "address",
          "name": "_WKLAY",
          "type": "address"
        }
      ],
      "name": "initialize",
      "outputs": [],
      "stateMutability": "nonpayable",
      "type": "function"
    },
    {
      "inputs": [],
      "name": "masterDeployer",
      "outputs": [
        {
          "internalType": "contract IMasterDeployer",
          "name": "",
          "type": "address"
        }
      ],
      "stateMutability": "view",
      "type": "function"
    },
    {
      "inputs": [],
      "name": "nextEpochStartTime",
      "outputs": [
        {
          "internalType": "uint256",
          "name": "",
          "type": "uint256"
        }
      ],
      "stateMutability": "view",
      "type": "function"
    },
    {
      "inputs": [],
      "name": "owner",
      "outputs": [
        {
          "internalType": "address",
          "name": "",
          "type": "address"
        }
      ],
      "stateMutability": "view",
      "type": "function"
    },
    {
      "inputs": [],
      "name": "renounceOwnership",
      "outputs": [],
      "stateMutability": "nonpayable",
      "type": "function"
    },
    {
      "inputs": [
        {
          "internalType": "address",
          "name": "newOwner",
          "type": "address"
        }
      ],
      "name": "transferOwnership",
      "outputs": [],
      "stateMutability": "nonpayable",
      "type": "function"
    }
  ],
  "transactionHash": "0x81d6173c5b3d2fe861d2a8370304f4c0ac8e2f11fbe3e07969daa69bc77875b4",
  "args": [],
  "numDeployments": 3,
  "solcInputHash": "d1ead588b6a95c1cfc045b4ed989707d",
  "bytecode": "0x608060405234801561001057600080fd5b50612d77806100206000396000f3fe60806040526004361061010e5760003560e01c8063715018a6116100a5578063b4d1d79511610074578063f2fde38b11610059578063f2fde38b146102fb578063f50065631461031b578063f60ca6411461033b57600080fd5b8063b4d1d795146102b7578063cf58879a146102ce57600080fd5b8063715018a6146102215780638da5cb5b146102365780639be3476d14610282578063b15e44c21461029757600080fd5b806327938bb4116100e157806327938bb41461019d578063485cc955146101bd57806349cee5d5146101dd578063660c50751461020c57600080fd5b806301d5c7b91461011357806306ea459214610128578063136d835d1461015057806321860a051461017d575b600080fd5b610126610121366004612850565b610350565b005b34801561013457600080fd5b5061013d610517565b6040519081526020015b60405180910390f35b34801561015c57600080fd5b5061017061016b366004612850565b610534565b60405161014791906128be565b34801561018957600080fd5b50610126610198366004612850565b610899565b3480156101a957600080fd5b506101266101b8366004612900565b610a2c565b3480156101c957600080fd5b506101266101d83660046129e3565b610d04565b3480156101e957600080fd5b506101fd6101f8366004612850565b610e7e565b60405161014793929190612a1c565b34801561021857600080fd5b50610126610fe9565b34801561022d57600080fd5b506101266112c9565b34801561024257600080fd5b5060335473ffffffffffffffffffffffffffffffffffffffff165b60405173ffffffffffffffffffffffffffffffffffffffff9091168152602001610147565b34801561028e57600080fd5b5060675461013d565b3480156102a357600080fd5b5061025d6102b2366004612a7c565b611356565b3480156102c357600080fd5b5061013d62093a8081565b3480156102da57600080fd5b5060665461025d9073ffffffffffffffffffffffffffffffffffffffff1681565b34801561030757600080fd5b50610126610316366004612850565b61138d565b34801561032757600080fd5b50610126610336366004612a95565b6114ba565b34801561034757600080fd5b5061013d611624565b606654604080517fd0a931730000000000000000000000000000000000000000000000000000000081529051309273ffffffffffffffffffffffffffffffffffffffff169163d0a931739160048083019260209291908290030181600087803b1580156103bc57600080fd5b505af11580156103d0573d6000803e3d6000fd5b505050506040513d601f19601f820116820180604052508101906103f49190612af5565b73ffffffffffffffffffffffffffffffffffffffff1614610476576040517f08c379a000000000000000000000000000000000000000000000000000000000815260206004820152601c60248201527f41697264726f704469737472696275746f72206973207068617365640000000060448201526064015b60405180910390fd5b60655473ffffffffffffffffffffffffffffffffffffffff16610499828261163e565b60003490508173ffffffffffffffffffffffffffffffffffffffff1663d0e30db0826040518263ffffffff1660e01b81526004016000604051808303818588803b1580156104e657600080fd5b505af11580156104fa573d6000803e3d6000fd5b5050505050610512838361050d84611927565b61194b565b505050565b600062093a80610525611624565b61052f9190612b41565b905090565b606060008273ffffffffffffffffffffffffffffffffffffffff16630dfe16816040518163ffffffff1660e01b815260040160206040518083038186803b15801561057e57600080fd5b505afa158015610592573d6000803e3d6000fd5b505050506040513d601f19601f820116820180604052508101906105b69190612af5565b905060008373ffffffffffffffffffffffffffffffffffffffff1663d21220a76040518163ffffffff1660e01b815260040160206040518083038186803b15801561060057600080fd5b505afa158015610614573d6000803e3d6000fd5b505050506040513d601f19601f820116820180604052508101906106389190612af5565b905061064384611ba8565b156107d557604080516003808252608082019092529060208201606080368337019050509250818360008151811061067d5761067d612b59565b602002602001019073ffffffffffffffffffffffffffffffffffffffff16908173ffffffffffffffffffffffffffffffffffffffff168152505080836001815181106106cb576106cb612b59565b602002602001019073ffffffffffffffffffffffffffffffffffffffff16908173ffffffffffffffffffffffffffffffffffffffff16815250508373ffffffffffffffffffffffffffffffffffffffff1663f7c618c16040518163ffffffff1660e01b815260040160206040518083038186803b15801561074b57600080fd5b505afa15801561075f573d6000803e3d6000fd5b505050506040513d601f19601f820116820180604052508101906107839190612af5565b8360028151811061079657610796612b59565b602002602001019073ffffffffffffffffffffffffffffffffffffffff16908173ffffffffffffffffffffffffffffffffffffffff1681525050610892565b6040805160028082526060820183529091602083019080368337019050509250818360008151811061080957610809612b59565b602002602001019073ffffffffffffffffffffffffffffffffffffffff16908173ffffffffffffffffffffffffffffffffffffffff1681525050808360018151811061085757610857612b59565b602002602001019073ffffffffffffffffffffffffffffffffffffffff16908173ffffffffffffffffffffffffffffffffffffffff16815250505b5050919050565b606654604080517fd0a931730000000000000000000000000000000000000000000000000000000081529051309273ffffffffffffffffffffffffffffffffffffffff169163d0a931739160048083019260209291908290030181600087803b15801561090557600080fd5b505af1158015610919573d6000803e3d6000fd5b505050506040513d601f19601f8201168201806040525081019061093d9190612af5565b73ffffffffffffffffffffffffffffffffffffffff16146109ba576040517f08c379a000000000000000000000000000000000000000000000000000000000815260206004820152601c60248201527f41697264726f704469737472696275746f722069732070686173656400000000604482015260640161046d565b6109c2611624565b73ffffffffffffffffffffffffffffffffffffffff82166000908152606a60205260409020541115610a20576040517f0d3f777600000000000000000000000000000000000000000000000000000000815260040160405180910390fd5b610a2981611c53565b50565b606654604080517fd0a931730000000000000000000000000000000000000000000000000000000081529051309273ffffffffffffffffffffffffffffffffffffffff169163d0a931739160048083019260209291908290030181600087803b158015610a9857600080fd5b505af1158015610aac573d6000803e3d6000fd5b505050506040513d601f19601f82011682018060405250810190610ad09190612af5565b73ffffffffffffffffffffffffffffffffffffffff1614610b4d576040517f08c379a000000000000000000000000000000000000000000000000000000000815260206004820152601c60248201527f41697264726f704469737472696275746f722069732070686173656400000000604482015260640161046d565b6000610b57611624565b905060005b8251811015610512576000838281518110610b7957610b79612b59565b6020026020010151905082606a60008373ffffffffffffffffffffffffffffffffffffffff1673ffffffffffffffffffffffffffffffffffffffff168152602001908152602001600020541115610bd05750610cf2565b828173ffffffffffffffffffffffffffffffffffffffff1663956afe456040518163ffffffff1660e01b8152600401602060405180830381600087803b158015610c1957600080fd5b505af1158015610c2d573d6000803e3d6000fd5b505050506040513d601f19601f82011682018060405250810190610c519190612b88565b8273ffffffffffffffffffffffffffffffffffffffff166340306fb66040518163ffffffff1660e01b8152600401602060405180830381600087803b158015610c9957600080fd5b505af1158015610cad573d6000803e3d6000fd5b505050506040513d601f19601f82011682018060405250810190610cd19190612b88565b610cdb9190612b41565b1115610ce75750610cf2565b610cf081611c53565b505b80610cfc81612ba1565b915050610b5c565b600054610100900460ff16610d1f5760005460ff1615610d23565b303b155b610daf576040517f08c379a000000000000000000000000000000000000000000000000000000000815260206004820152602e60248201527f496e697469616c697a61626c653a20636f6e747261637420697320616c72656160448201527f647920696e697469616c697a6564000000000000000000000000000000000000606482015260840161046d565b600054610100900460ff16158015610dee57600080547fffffffffffffffffffffffffffffffffffffffffffffffffffffffffffff0000166101011790555b6066805473ffffffffffffffffffffffffffffffffffffffff8086167fffffffffffffffffffffffff0000000000000000000000000000000000000000928316179092556065805492851692909116919091179055610e4b611c73565b801561051257600080547fffffffffffffffffffffffffffffffffffffffffffffffffffffffffffff00ff169055505050565b6060806000610e8c84610534565b9250825167ffffffffffffffff811115610ea857610ea86128d1565b604051908082528060200260200182016040528015610ed1578160200160208202803683370190505b50915060005b8251811015610fbc5773ffffffffffffffffffffffffffffffffffffffff851660009081526069602052604081208551909190869084908110610f1c57610f1c612b59565b602002602001015173ffffffffffffffffffffffffffffffffffffffff1673ffffffffffffffffffffffffffffffffffffffff16815260200190815260200160002060009054906101000a90046fffffffffffffffffffffffffffffffff166fffffffffffffffffffffffffffffffff16838281518110610f9f57610f9f612b59565b602090810291909101015280610fb481612ba1565b915050610ed7565b505073ffffffffffffffffffffffffffffffffffffffff9092166000908152606a60205260409020549092565b606654604080517fd0a931730000000000000000000000000000000000000000000000000000000081529051309273ffffffffffffffffffffffffffffffffffffffff169163d0a931739160048083019260209291908290030181600087803b15801561105557600080fd5b505af1158015611069573d6000803e3d6000fd5b505050506040513d601f19601f8201168201806040525081019061108d9190612af5565b73ffffffffffffffffffffffffffffffffffffffff161461110a576040517f08c379a000000000000000000000000000000000000000000000000000000000815260206004820152601c60248201527f41697264726f704469737472696275746f722069732070686173656400000000604482015260640161046d565b6000611114611624565b905060005b6067548110156112c55760006067828154811061113857611138612b59565b9060005260206000200160009054906101000a900473ffffffffffffffffffffffffffffffffffffffff169050828173ffffffffffffffffffffffffffffffffffffffff1663956afe456040518163ffffffff1660e01b8152600401602060405180830381600087803b1580156111ae57600080fd5b505af11580156111c2573d6000803e3d6000fd5b505050506040513d601f19601f820116820180604052508101906111e69190612b88565b8273ffffffffffffffffffffffffffffffffffffffff166340306fb66040518163ffffffff1660e01b8152600401602060405180830381600087803b15801561122e57600080fd5b505af1158015611242573d6000803e3d6000fd5b505050506040513d601f19601f820116820180604052508101906112669190612b88565b6112709190612b41565b111561127c57506112b3565b73ffffffffffffffffffffffffffffffffffffffff81166000908152606a602052604090205483106112b1576112b181611c53565b505b806112bd81612ba1565b915050611119565b5050565b60335473ffffffffffffffffffffffffffffffffffffffff16331461134a576040517f08c379a000000000000000000000000000000000000000000000000000000000815260206004820181905260248201527f4f776e61626c653a2063616c6c6572206973206e6f7420746865206f776e6572604482015260640161046d565b6113546000611d12565b565b6067818154811061136657600080fd5b60009182526020909120015473ffffffffffffffffffffffffffffffffffffffff16905081565b60335473ffffffffffffffffffffffffffffffffffffffff16331461140e576040517f08c379a000000000000000000000000000000000000000000000000000000000815260206004820181905260248201527f4f776e61626c653a2063616c6c6572206973206e6f7420746865206f776e6572604482015260640161046d565b73ffffffffffffffffffffffffffffffffffffffff81166114b1576040517f08c379a000000000000000000000000000000000000000000000000000000000815260206004820152602660248201527f4f776e61626c653a206e6577206f776e657220697320746865207a65726f206160448201527f6464726573730000000000000000000000000000000000000000000000000000606482015260840161046d565b610a2981611d12565b606654604080517fd0a931730000000000000000000000000000000000000000000000000000000081529051309273ffffffffffffffffffffffffffffffffffffffff169163d0a931739160048083019260209291908290030181600087803b15801561152657600080fd5b505af115801561153a573d6000803e3d6000fd5b505050506040513d601f19601f8201168201806040525081019061155e9190612af5565b73ffffffffffffffffffffffffffffffffffffffff16146115db576040517f08c379a000000000000000000000000000000000000000000000000000000000815260206004820152601c60248201527f41697264726f704469737472696275746f722069732070686173656400000000604482015260640161046d565b6115e5838361163e565b61161973ffffffffffffffffffffffffffffffffffffffff831633306fffffffffffffffffffffffffffffffff8516611d89565b61051283838361194b565b600062093a806116348142612bda565b61052f9190612c15565b6066546040517fa4063dbc00000000000000000000000000000000000000000000000000000000815273ffffffffffffffffffffffffffffffffffffffff84811660048301529091169063a4063dbc9060240160206040518083038186803b1580156116a957600080fd5b505afa1580156116bd573d6000803e3d6000fd5b505050506040513d601f19601f820116820180604052508101906116e19190612c52565b80156118405750606660009054906101000a900473ffffffffffffffffffffffffffffffffffffffff1673ffffffffffffffffffffffffffffffffffffffff16636f50f2f48373ffffffffffffffffffffffffffffffffffffffff1663c45a01556040518163ffffffff1660e01b815260040160206040518083038186803b15801561176c57600080fd5b505afa158015611780573d6000803e3d6000fd5b505050506040513d601f19601f820116820180604052508101906117a49190612af5565b6040517fffffffff0000000000000000000000000000000000000000000000000000000060e084901b16815273ffffffffffffffffffffffffffffffffffffffff909116600482015260240160206040518083038186803b15801561180857600080fd5b505afa15801561181c573d6000803e3d6000fd5b505050506040513d601f19601f820116820180604052508101906118409190612c52565b611876576040517f5861b41d00000000000000000000000000000000000000000000000000000000815260040160405180910390fd5b600061188183610534565b905060005b81518110156118f4578181815181106118a1576118a1612b59565b602002602001015173ffffffffffffffffffffffffffffffffffffffff168373ffffffffffffffffffffffffffffffffffffffff1614156118e25750505050565b806118ec81612ba1565b915050611886565b506040517fe1478bb000000000000000000000000000000000000000000000000000000000815260040160405180910390fd5b806fffffffffffffffffffffffffffffffff8116811461194657600080fd5b919050565b73ffffffffffffffffffffffffffffffffffffffff83166000908152606a6020526040902054158015906119ab5750611982611624565b73ffffffffffffffffffffffffffffffffffffffff84166000908152606a602052604090205411155b156119b9576119b983611c53565b73ffffffffffffffffffffffffffffffffffffffff831660009081526068602052604090205460ff16611a8f5773ffffffffffffffffffffffffffffffffffffffff8316600081815260686020526040812080547fffffffffffffffffffffffffffffffffffffffffffffffffffffffffffffff001660019081179091556067805491820181559091527f9787eeb91fe3101235e4a76063c7023ecb40f923f97916639c598592fa30d6ae0180547fffffffffffffffffffffffff00000000000000000000000000000000000000001690911790555b73ffffffffffffffffffffffffffffffffffffffff808416600090815260696020908152604080832093861683529290529081208054839290611ae59084906fffffffffffffffffffffffffffffffff16612c74565b92506101000a8154816fffffffffffffffffffffffffffffffff02191690836fffffffffffffffffffffffffffffffff160217905550611b23610517565b73ffffffffffffffffffffffffffffffffffffffff8481166000818152606a602090815260409182902094909455805192861683526fffffffffffffffffffffffffffffffff851693830193909352338284015291517f364bb76a44233df8584c690de6da7810626a5e77192f3ebc942c35bcb1add24f9181900360600190a2505050565b60008173ffffffffffffffffffffffffffffffffffffffff1663f7c618c16040518163ffffffff1660e01b815260040160206040518083038186803b158015611bf057600080fd5b505afa925050508015611c3e575060408051601f3d9081017fffffffffffffffffffffffffffffffffffffffffffffffffffffffffffffffe0168201909252611c3b91810190612af5565b60015b611c4a57506000919050565b50600192915050565b611c5c81611ba8565b15611c6a57610a2981611e24565b610a29816120b6565b600054610100900460ff16611d0a576040517f08c379a000000000000000000000000000000000000000000000000000000000815260206004820152602b60248201527f496e697469616c697a61626c653a20636f6e7472616374206973206e6f74206960448201527f6e697469616c697a696e67000000000000000000000000000000000000000000606482015260840161046d565b6113546122ac565b6033805473ffffffffffffffffffffffffffffffffffffffff8381167fffffffffffffffffffffffff0000000000000000000000000000000000000000831681179093556040519116919082907f8be0079c531659141344cd1fd0a4f28419497f9722a3daafe3b4186f6b6457e090600090a35050565b6040805173ffffffffffffffffffffffffffffffffffffffff85811660248301528416604482015260648082018490528251808303909101815260849091019091526020810180517bffffffffffffffffffffffffffffffffffffffffffffffffffffffff167f23b872dd00000000000000000000000000000000000000000000000000000000179052611e1e90859061234c565b50505050565b60008173ffffffffffffffffffffffffffffffffffffffff16630dfe16816040518163ffffffff1660e01b815260040160206040518083038186803b158015611e6c57600080fd5b505afa158015611e80573d6000803e3d6000fd5b505050506040513d601f19601f82011682018060405250810190611ea49190612af5565b905060008273ffffffffffffffffffffffffffffffffffffffff1663d21220a76040518163ffffffff1660e01b815260040160206040518083038186803b158015611eee57600080fd5b505afa158015611f02573d6000803e3d6000fd5b505050506040513d601f19601f82011682018060405250810190611f269190612af5565b905060008373ffffffffffffffffffffffffffffffffffffffff1663f7c618c16040518163ffffffff1660e01b815260040160206040518083038186803b158015611f7057600080fd5b505afa158015611f84573d6000803e3d6000fd5b505050506040513d601f19601f82011682018060405250810190611fa89190612af5565b90506000611fb4611624565b905062093a806000611fc887878585612458565b90506000611fd888878686612458565b90506000611fe889878787612458565b73ffffffffffffffffffffffffffffffffffffffff8a166000818152606a602052604080822091909155517fcf5431530000000000000000000000000000000000000000000000000000000081526fffffffffffffffffffffffffffffffff808716600483015280861660248301528316604482015260648101889052608481018790529192509063cf5431539060a401600060405180830381600087803b15801561209357600080fd5b505af11580156120a7573d6000803e3d6000fd5b50505050505050505050505050565b60008173ffffffffffffffffffffffffffffffffffffffff16630dfe16816040518163ffffffff1660e01b815260040160206040518083038186803b1580156120fe57600080fd5b505afa158015612112573d6000803e3d6000fd5b505050506040513d601f19601f820116820180604052508101906121369190612af5565b905060008273ffffffffffffffffffffffffffffffffffffffff1663d21220a76040518163ffffffff1660e01b815260040160206040518083038186803b15801561218057600080fd5b505afa158015612194573d6000803e3d6000fd5b505050506040513d601f19601f820116820180604052508101906121b89190612af5565b905060006121c4611624565b905062093a8060006121d886868585612458565b905060006121e887868686612458565b73ffffffffffffffffffffffffffffffffffffffff88166000818152606a602052604080822091909155517f9a2f9ccc0000000000000000000000000000000000000000000000000000000081526fffffffffffffffffffffffffffffffff808616600483015283166024820152604481018790526064810186905291925090639a2f9ccc90608401600060405180830381600087803b15801561228b57600080fd5b505af115801561229f573d6000803e3d6000fd5b5050505050505050505050565b600054610100900460ff16612343576040517f08c379a000000000000000000000000000000000000000000000000000000000815260206004820152602b60248201527f496e697469616c697a61626c653a20636f6e7472616374206973206e6f74206960448201527f6e697469616c697a696e67000000000000000000000000000000000000000000606482015260840161046d565b61135433611d12565b60006123ae826040518060400160405280602081526020017f5361666545524332303a206c6f772d6c6576656c2063616c6c206661696c65648152508573ffffffffffffffffffffffffffffffffffffffff166126219092919063ffffffff16565b80519091501561051257808060200190518101906123cc9190612c52565b610512576040517f08c379a000000000000000000000000000000000000000000000000000000000815260206004820152602a60248201527f5361666545524332303a204552433230206f7065726174696f6e20646964206e60448201527f6f74207375636365656400000000000000000000000000000000000000000000606482015260840161046d565b73ffffffffffffffffffffffffffffffffffffffff8085166000908152606960209081526040808320938716835292905220546fffffffffffffffffffffffffffffffff16806124a757612619565b73ffffffffffffffffffffffffffffffffffffffff8581166000818152606960209081526040808320948916808452949091529081902080547fffffffffffffffffffffffffffffffff00000000000000000000000000000000169055517f095ea7b300000000000000000000000000000000000000000000000000000000815260048101919091526fffffffffffffffffffffffffffffffff8316602482015263095ea7b390604401602060405180830381600087803b15801561256b57600080fd5b505af115801561257f573d6000803e3d6000fd5b505050506040513d601f19601f820116820180604052508101906125a39190612c52565b506040805173ffffffffffffffffffffffffffffffffffffffff86811682526fffffffffffffffffffffffffffffffff8416602083015291810185905260608101849052908616907fe58f5d1b481275eaa5671ecc0c4d371a6be6e01731a7ebdad8c6a5f7c8a815a99060800160405180910390a25b949350505050565b6060612630848460008561263a565b90505b9392505050565b6060824710156126cc576040517f08c379a000000000000000000000000000000000000000000000000000000000815260206004820152602660248201527f416464726573733a20696e73756666696369656e742062616c616e636520666f60448201527f722063616c6c0000000000000000000000000000000000000000000000000000606482015260840161046d565b73ffffffffffffffffffffffffffffffffffffffff85163b61274a576040517f08c379a000000000000000000000000000000000000000000000000000000000815260206004820152601d60248201527f416464726573733a2063616c6c20746f206e6f6e2d636f6e7472616374000000604482015260640161046d565b6000808673ffffffffffffffffffffffffffffffffffffffff1685876040516127739190612cd4565b60006040518083038185875af1925050503d80600081146127b0576040519150601f19603f3d011682016040523d82523d6000602084013e6127b5565b606091505b50915091506127c58282866127d0565b979650505050505050565b606083156127df575081612633565b8251156127ef5782518084602001fd5b816040517f08c379a000000000000000000000000000000000000000000000000000000000815260040161046d9190612cf0565b73ffffffffffffffffffffffffffffffffffffffff81168114610a2957600080fd5b803561194681612823565b60006020828403121561286257600080fd5b813561263381612823565b600081518084526020808501945080840160005b838110156128b357815173ffffffffffffffffffffffffffffffffffffffff1687529582019590820190600101612881565b509495945050505050565b602081526000612633602083018461286d565b7f4e487b7100000000000000000000000000000000000000000000000000000000600052604160045260246000fd5b6000602080838503121561291357600080fd5b823567ffffffffffffffff8082111561292b57600080fd5b818501915085601f83011261293f57600080fd5b813581811115612951576129516128d1565b8060051b6040517fffffffffffffffffffffffffffffffffffffffffffffffffffffffffffffffe0603f83011681018181108582111715612994576129946128d1565b6040529182528482019250838101850191888311156129b257600080fd5b938501935b828510156129d7576129c885612845565b845293850193928501926129b7565b98975050505050505050565b600080604083850312156129f657600080fd5b8235612a0181612823565b91506020830135612a1181612823565b809150509250929050565b606081526000612a2f606083018661286d565b82810360208481019190915285518083528682019282019060005b81811015612a6657845183529383019391830191600101612a4a565b5050809350505050826040830152949350505050565b600060208284031215612a8e57600080fd5b5035919050565b600080600060608486031215612aaa57600080fd5b8335612ab581612823565b92506020840135612ac581612823565b915060408401356fffffffffffffffffffffffffffffffff81168114612aea57600080fd5b809150509250925092565b600060208284031215612b0757600080fd5b815161263381612823565b7f4e487b7100000000000000000000000000000000000000000000000000000000600052601160045260246000fd5b60008219821115612b5457612b54612b12565b500190565b7f4e487b7100000000000000000000000000000000000000000000000000000000600052603260045260246000fd5b600060208284031215612b9a57600080fd5b5051919050565b60007fffffffffffffffffffffffffffffffffffffffffffffffffffffffffffffffff821415612bd357612bd3612b12565b5060010190565b600082612c10577f4e487b7100000000000000000000000000000000000000000000000000000000600052601260045260246000fd5b500490565b6000817fffffffffffffffffffffffffffffffffffffffffffffffffffffffffffffffff0483118215151615612c4d57612c4d612b12565b500290565b600060208284031215612c6457600080fd5b8151801515811461263357600080fd5b60006fffffffffffffffffffffffffffffffff808316818516808303821115612c9f57612c9f612b12565b01949350505050565b60005b83811015612cc3578181015183820152602001612cab565b83811115611e1e5750506000910152565b60008251612ce6818460208701612ca8565b9190910192915050565b6020815260008251806020840152612d0f816040850160208701612ca8565b601f017fffffffffffffffffffffffffffffffffffffffffffffffffffffffffffffffe016919091016040019291505056fea2646970667358221220b3e4d2ff6b22c400d1f596309083fedd72602bb62e9f5eea35da7d8e128af42b64736f6c63430008090033",
  "devdoc": {
    "kind": "dev",
    "methods": {
      "airdrop(address)": {
        "params": {
          "pool": "the address of pangea pool"
        }
      },
      "airdropList(address[])": {
        "params": {
          "pools": "list of the addresses of pangea pool"
        }
      },
      "depositKlay(address)": {
        "details": "transaction will revert if the asset in the pool is not WKLAY",
        "params": {
          "pool": "the address of pangea pool to deposit"
        }
      },
      "depositToken(address,address,uint128)": {
        "details": "Approval (token.approve(airdropDistributor, amount)) must be performed before transaction",
        "params": {
          "amount": "amount of token to deposit",
          "pool": "the address of pangea pool to deposit",
          "token": "token address to deposit. it must be one of the pools' tokens."
        }
      },
      "owner()": {
        "details": "Returns the address of the current owner."
      },
      "renounceOwnership()": {
        "details": "Leaves the contract without owner. It will not be possible to call `onlyOwner` functions anymore. Can only be called by the current owner. NOTE: Renouncing ownership will leave the contract without an owner, thereby removing any functionality that is only available to the owner."
      },
      "transferOwnership(address)": {
        "details": "Transfers ownership of the contract to a new account (`newOwner`). Can only be called by the current owner."
      }
    },
    "version": 1
  },
  "userdoc": {
    "kind": "user",
    "methods": {
      "airdrop(address)": {
        "notice": "airdrop the deposited assets of pool"
      },
      "airdropAll()": {
        "notice": "airdrop the deposited assets all on this epoch"
      },
      "airdropList(address[])": {
        "notice": "airdrop Batch Call"
      },
      "airdropPool(uint256)": {
        "notice": "the address of airdrop pool"
      },
      "airdropPoolLength()": {
        "notice": "Number of pools that have ever been deposited"
      },
      "airdropTokens(address)": {
        "notice": "list of tokens that can be airdropped to the given pool"
      },
      "depositKlay(address)": {
        "notice": "deposit klay to the pool. this klay will be distributed to the next epoch"
      },
      "depositToken(address,address,uint128)": {
        "notice": "deposit Token to the pool. this token will be distributed to the next epoch"
      },
      "depositedAirdrop(address)": {
        "notice": "airdrop information deposited in the pool"
      }
    },
    "version": 1
  },
  "storageLayout": {
    "storage": [
      {
        "astId": 130,
        "contract": "contracts/distribution/AirdropDistributorV2.sol:AirdropDistributorV2",
        "label": "_initialized",
        "offset": 0,
        "slot": "0",
        "type": "t_bool"
      },
      {
        "astId": 133,
        "contract": "contracts/distribution/AirdropDistributorV2.sol:AirdropDistributorV2",
        "label": "_initializing",
        "offset": 1,
        "slot": "0",
        "type": "t_bool"
      },
      {
        "astId": 1981,
        "contract": "contracts/distribution/AirdropDistributorV2.sol:AirdropDistributorV2",
        "label": "__gap",
        "offset": 0,
        "slot": "1",
        "type": "t_array(t_uint256)50_storage"
      },
      {
        "astId": 10,
        "contract": "contracts/distribution/AirdropDistributorV2.sol:AirdropDistributorV2",
        "label": "_owner",
        "offset": 0,
        "slot": "51",
        "type": "t_address"
      },
      {
        "astId": 122,
        "contract": "contracts/distribution/AirdropDistributorV2.sol:AirdropDistributorV2",
        "label": "__gap",
        "offset": 0,
        "slot": "52",
        "type": "t_array(t_uint256)49_storage"
      },
      {
        "astId": 11176,
        "contract": "contracts/distribution/AirdropDistributorV2.sol:AirdropDistributorV2",
        "label": "wKLAY",
        "offset": 0,
        "slot": "101",
        "type": "t_address"
      },
      {
        "astId": 11179,
        "contract": "contracts/distribution/AirdropDistributorV2.sol:AirdropDistributorV2",
        "label": "masterDeployer",
        "offset": 0,
        "slot": "102",
        "type": "t_contract(IMasterDeployer)13285"
      },
      {
        "astId": 11182,
        "contract": "contracts/distribution/AirdropDistributorV2.sol:AirdropDistributorV2",
        "label": "airdropPool",
        "offset": 0,
        "slot": "103",
        "type": "t_array(t_address)dyn_storage"
      },
      {
        "astId": 11186,
        "contract": "contracts/distribution/AirdropDistributorV2.sol:AirdropDistributorV2",
        "label": "isAirdropPool",
        "offset": 0,
        "slot": "104",
        "type": "t_mapping(t_address,t_bool)"
      },
      {
        "astId": 11192,
        "contract": "contracts/distribution/AirdropDistributorV2.sol:AirdropDistributorV2",
        "label": "depositAmount",
        "offset": 0,
        "slot": "105",
        "type": "t_mapping(t_address,t_mapping(t_address,t_uint128))"
      },
      {
        "astId": 11196,
        "contract": "contracts/distribution/AirdropDistributorV2.sol:AirdropDistributorV2",
        "label": "airdropStartTimePerPool",
        "offset": 0,
        "slot": "106",
        "type": "t_mapping(t_address,t_uint256)"
      }
    ],
    "types": {
      "t_address": {
        "encoding": "inplace",
        "label": "address",
        "numberOfBytes": "20"
      },
      "t_array(t_address)dyn_storage": {
        "base": "t_address",
        "encoding": "dynamic_array",
        "label": "address[]",
        "numberOfBytes": "32"
      },
      "t_array(t_uint256)49_storage": {
        "base": "t_uint256",
        "encoding": "inplace",
        "label": "uint256[49]",
        "numberOfBytes": "1568"
      },
      "t_array(t_uint256)50_storage": {
        "base": "t_uint256",
        "encoding": "inplace",
        "label": "uint256[50]",
        "numberOfBytes": "1600"
      },
      "t_bool": {
        "encoding": "inplace",
        "label": "bool",
        "numberOfBytes": "1"
      },
      "t_contract(IMasterDeployer)13285": {
        "encoding": "inplace",
        "label": "contract IMasterDeployer",
        "numberOfBytes": "20"
      },
      "t_mapping(t_address,t_bool)": {
        "encoding": "mapping",
        "key": "t_address",
        "label": "mapping(address => bool)",
        "numberOfBytes": "32",
        "value": "t_bool"
      },
      "t_mapping(t_address,t_mapping(t_address,t_uint128))": {
        "encoding": "mapping",
        "key": "t_address",
        "label": "mapping(address => mapping(address => uint128))",
        "numberOfBytes": "32",
        "value": "t_mapping(t_address,t_uint128)"
      },
      "t_mapping(t_address,t_uint128)": {
        "encoding": "mapping",
        "key": "t_address",
        "label": "mapping(address => uint128)",
        "numberOfBytes": "32",
        "value": "t_uint128"
      },
      "t_mapping(t_address,t_uint256)": {
        "encoding": "mapping",
        "key": "t_address",
        "label": "mapping(address => uint256)",
        "numberOfBytes": "32",
        "value": "t_uint256"
      },
      "t_uint128": {
        "encoding": "inplace",
        "label": "uint128",
        "numberOfBytes": "16"
      },
      "t_uint256": {
        "encoding": "inplace",
        "label": "uint256",
        "numberOfBytes": "32"
      }
    }
  }
}