{
  "address": "0x29F80E9152cC0e5058574D48f371c0B46A6A4C5d",
  "abi": [
    {
      "inputs": [],
      "name": "IMAGE",
      "outputs": [
        {
          "internalType": "string",
          "name": "",
          "type": "string"
        }
      ],
      "stateMutability": "pure",
      "type": "function"
    }
  ],
  "transactionHash": "0xfbffa54b30347611d3a68b3c55573e8620c8633a82b218b2100e4b0045ecba52",
  "args": [],
  "numDeployments": 1,
  "solcInputHash": "52ba71685b8bf58d29115d47983e0297",
  "bytecode": "0x61053c61003a600b82828239805160001a60731461002d57634e487b7160e01b600052600060045260246000fd5b30600052607381538281f3fe73000000000000000000000000000000000000000030146080604052600436106100355760003560e01c80630506eb401461003a575b600080fd5b610042610058565b60405161004f919061007b565b60405180910390f35b606060405180610440016040528061041881526020016100ef6104189139905090565b600060208083528351808285015260005b818110156100a85785810183015185820160400152820161008c565b818111156100ba576000604083870101525b50601f017fffffffffffffffffffffffffffffffffffffffffffffffffffffffffffffffe01692909201604001939250505056fe3c73766720783d223133302220793d22323434222077696474683d22313522206865696768743d2238223e203c7061746820643d224d342e353933303920372e323733313343342e373731343620372e303934373620342e373533363220362e3832373220342e353933303920362e36343838334c322e343334373820342e353937353548372e353731393143372e383033373920342e3539373535203820342e3431393137203820342e313639343556332e3539383636433820332e333636373820372e383033373920332e313730353720372e353731393120332e313730353748322e34333437384c342e353933303920312e313337313243342e373533363220302e39353837353120342e373731343620302e36393131393320342e353933303920302e35313238324c342e323030363720302e31323034303143342e3034303133202d302e3034303133333820332e3735343734202d302e3034303133333820332e3539343220302e3132303430314c302e31333337373920332e3539383636432d302e3034343539333120332e37353932202d302e3034343539333120342e303236373620302e31333337373920342e31383732394c332e3539343220372e363635353543332e373534373420372e383236303920342e3032323320372e383236303920342e323030363720372e36363535354c342e353933303920372e32373331335a222066696c6c3d227768697465222f3e203c7061746820643d224d31302e3430363920302e3531334331302e3232383520302e3639313337322031302e3234363420302e3935383933312031302e3430363920312e313337334c31322e3536353220332e31383835394c372e343238303920332e313838353843372e313936323120332e3138383538203720332e3336363936203720332e36313636384c3720342e3138373437433720342e343139333520372e313936323120342e363135353620372e343238303920342e36313535364c31322e3536353220342e36313535364c31302e3430363920362e36343930314331302e3234363420362e38323733382031302e3232383520372e30393439342031302e3430363920372e32373333314c31302e3739393320372e36363537334331302e3935393920372e38323632372031312e3234353320372e38323632372031312e3430353820372e36363537334c31342e3836363220342e31383734374331352e3034343620342e30323639342031352e3034343620332e37353933382031342e3836363220332e35393838344c31312e3430353820302e3132303538314331312e32343533202d302e303339393534332031302e39373737202d302e303339393534332031302e3739393320302e3132303538314c31302e3430363920302e3531335a222066696c6c3d227768697465222f3e203c2f7376673ea26469706673582212204a06d5c0933fcff246448f4ff211c029282642c926a5aad5d9bec15424f3f53464736f6c63430008090033",
  "devdoc": {
    "kind": "dev",
    "methods": {},
    "version": 1
  },
  "userdoc": {
    "kind": "user",
    "methods": {},
    "version": 1
  },
  "storageLayout": {
    "storage": [],
    "types": null
  }
}