{
  "address": "0x76009890780Bf8345f5847614684C5fFa2AAA067",
  "abi": [
    {
      "inputs": [],
      "name": "PriceOutOfBounds",
      "type": "error"
    },
    {
      "inputs": [],
      "name": "TickOutOfBounds",
      "type": "error"
    },
    {
      "inputs": [
        {
          "internalType": "address",
          "name": "pool",
          "type": "address"
        },
        {
          "internalType": "int24",
          "name": "lower",
          "type": "int24"
        },
        {
          "internalType": "int24",
          "name": "upper",
          "type": "int24"
        },
        {
          "internalType": "uint256",
          "name": "liquidityAmount",
          "type": "uint256"
        }
      ],
      "name": "getAmountsForLiquidity",
      "outputs": [
        {
          "internalType": "uint128",
          "name": "token0amount",
          "type": "uint128"
        },
        {
          "internalType": "uint128",
          "name": "token1amount",
          "type": "uint128"
        }
      ],
      "stateMutability": "view",
      "type": "function"
    },
    {
      "inputs": [
        {
          "internalType": "address",
          "name": "pool",
          "type": "address"
        },
        {
          "internalType": "int24",
          "name": "lower",
          "type": "int24"
        },
        {
          "internalType": "int24",
          "name": "upper",
          "type": "int24"
        },
        {
          "internalType": "uint256",
          "name": "amount0",
          "type": "uint256"
        },
        {
          "internalType": "uint256",
          "name": "amount1",
          "type": "uint256"
        }
      ],
      "name": "getLiquidityForAmounts",
      "outputs": [
        {
          "internalType": "uint256",
          "name": "liquidity",
          "type": "uint256"
        }
      ],
      "stateMutability": "view",
      "type": "function"
    },
    {
      "inputs": [
        {
          "internalType": "int24",
          "name": "tick",
          "type": "int24"
        }
      ],
      "name": "getPriceAtTick",
      "outputs": [
        {
          "internalType": "uint160",
          "name": "",
          "type": "uint160"
        }
      ],
      "stateMutability": "view",
      "type": "function"
    },
    {
      "inputs": [
        {
          "internalType": "uint160",
          "name": "price",
          "type": "uint160"
        }
      ],
      "name": "getTickAtSqrtRatio",
      "outputs": [
        {
          "internalType": "int24",
          "name": "",
          "type": "int24"
        }
      ],
      "stateMutability": "view",
      "type": "function"
    }
  ],
  "transactionHash": "0xc5ddf702f93000c6c2176f5618ed74b8dfb10509916103aebe3801eba4c8f744",
  "args": [],
  "numDeployments": 3,
  "solcInputHash": "4d12a4a0de85f59d5eac3a66805d3602",
  "bytecode": "0x608060405234801561001057600080fd5b50610f7e806100206000396000f3fe608060405234801561001057600080fd5b506004361061004c5760003560e01c80634f76c058146100515780637fb054731461007c5780639ca2f8c6146100b8578063a162ed91146100f0575b600080fd5b61006461005f366004610d67565b610111565b60405160029190910b81526020015b60405180910390f35b61008f61008a366004610d96565b610122565b604080516fffffffffffffffffffffffffffffffff938416815292909116602083015201610073565b6100cb6100c6366004610de3565b61020f565b60405173ffffffffffffffffffffffffffffffffffffffff9091168152602001610073565b6101036100fe366004610dfe565b61021a565b604051908152602001610073565b600061011c82610304565b92915050565b6000806102026101318661069a565b73ffffffffffffffffffffffffffffffffffffffff166101508661069a565b73ffffffffffffffffffffffffffffffffffffffff168873ffffffffffffffffffffffffffffffffffffffff1663a035b1fe6040518163ffffffff1660e01b815260040160206040518083038186803b1580156101ac57600080fd5b505afa1580156101c0573d6000803e3d6000fd5b505050506040513d601f19601f820116820180604052508101906101e49190610e55565b73ffffffffffffffffffffffffffffffffffffffff16866001610a2d565b9150915094509492505050565b600061011c8261069a565b60006102f86102288661069a565b73ffffffffffffffffffffffffffffffffffffffff166102478661069a565b73ffffffffffffffffffffffffffffffffffffffff168873ffffffffffffffffffffffffffffffffffffffff1663a035b1fe6040518163ffffffff1660e01b815260040160206040518083038186803b1580156102a357600080fd5b505afa1580156102b7573d6000803e3d6000fd5b505050506040513d601f19601f820116820180604052508101906102db9190610e55565b73ffffffffffffffffffffffffffffffffffffffff168587610a9c565b90505b95945050505050565b60006401000276a373ffffffffffffffffffffffffffffffffffffffff83161080610359575073fffd8963efd1fc6a506488495d951d5263988d2673ffffffffffffffffffffffffffffffffffffffff831610155b15610390576040517f6e4ba61d00000000000000000000000000000000000000000000000000000000815260040160405180910390fd5b77ffffffffffffffffffffffffffffffffffffffff00000000602083901b166fffffffffffffffffffffffffffffffff811160071b81811c67ffffffffffffffff811160061b90811c63ffffffff811160051b90811c61ffff811160041b90811c60ff8111600390811b91821c600f811160021b90811c918211600190811b92831c9790881196179094179092171790911717176080811061043a57607f810383901c9150610444565b80607f0383901b91505b908002607f81811c60ff83811c9190911c800280831c81831c1c800280841c81841c1c800280851c81851c1c800280861c81861c1c800280871c81871c1c800280881c81881c1c800280891c81891c1c8002808a1c818a1c1c8002808b1c818b1c1c8002808c1c818c1c1c8002808d1c818d1c1c8002808e1c9c81901c9c909c1c80029c8d901c9e9d7fffffffffffffffffffffffffffffffffffffffffffffffffffffffffffffff808f0160401b60c09190911c678000000000000000161760c19b909b1c674000000000000000169a909a1760c29990991c672000000000000000169890981760c39790971c671000000000000000169690961760c49590951c670800000000000000169490941760c59390931c670400000000000000169290921760c69190911c670200000000000000161760c79190911c670100000000000000161760c89190911c6680000000000000161760c99190911c6640000000000000161760ca9190911c6620000000000000161760cb9190911c6610000000000000161760cc9190911c6608000000000000161760cd9190911c66040000000000001617693627a301d71055774c8581027ffffffffffffffffffffffffffffffffffd709b7e5480fba5a50fed5e62ffc5568101608090811d906fdb2df09e81959a81455e260799a0632f8301901d600281810b9083900b1461068b578873ffffffffffffffffffffffffffffffffffffffff166106638261069a565b73ffffffffffffffffffffffffffffffffffffffff161115610685578161068d565b8061068d565b815b9998505050505050505050565b60008060008360020b126106b1578260020b6106be565b8260020b6106be90610ea1565b90506106e97ffffffffffffffffffffffffffffffffffffffffffffffffffffffffffff27618610eda565b62ffffff16811115610727576040517ff87dc40c00000000000000000000000000000000000000000000000000000000815260040160405180910390fd5b6000600182166107485770010000000000000000000000000000000061075a565b6ffffcb933bd6fad37aa2d162d1a5940015b70ffffffffffffffffffffffffffffffffff169050600282161561078e576ffff97272373d413259a46990580e213a0260801c5b60048216156107ad576ffff2e50f5f656932ef12357cf3c7fdcc0260801c5b60088216156107cc576fffe5caca7e10e4e61c3624eaa0941cd00260801c5b60108216156107eb576fffcb9843d60f6159c9db58835c9266440260801c5b602082161561080a576fff973b41fa98c081472e6896dfb254c00260801c5b6040821615610829576fff2ea16466c96a3843ec78b326b528610260801c5b6080821615610848576ffe5dee046a99a2a811c461f1969c30530260801c5b610100821615610868576ffcbe86c7900a88aedcffc83b479aa3a40260801c5b610200821615610888576ff987a7253ac413176f2b074cf7815e540260801c5b6104008216156108a8576ff3392b0822b70005940c7a398e4b70f30260801c5b6108008216156108c8576fe7159475a2c29b7443b29c7fa6e889d90260801c5b6110008216156108e8576fd097f3bdfd2022b8845ad8f792aa58250260801c5b612000821615610908576fa9f746462d870fdf8a65dc1f90e061e50260801c5b614000821615610928576f70d869a156d2a1b890bb3df62baf32f70260801c5b618000821615610948576f31be135f97d08fd981231505542fcfa60260801c5b62010000821615610969576f09aa508b5b7a84e1c677de54f3e99bc90260801c5b62020000821615610989576e5d6af8dedb81196699c329225ee6040260801c5b620400008216156109a8576d2216e584f5fa1ea926041bedfe980260801c5b620800008216156109c5576b048a170391f7dc42444e8fa20260801c5b60008460020b1315610a0457807fffffffffffffffffffffffffffffffffffffffffffffffffffffffffffffffff81610a0057610a00610f19565b0490505b640100000000810615610a18576001610a1b565b60005b60ff16602082901c0192505050919050565b600080848611610a5257610a4b610a4685898987610b52565b610ba0565b9050610a92565b868511610a6f57610a68610a4685898987610bc4565b9150610a92565b610a7e610a4685878987610bc4565b9150610a8f610a4685898887610b52565b90505b9550959350505050565b6000838511610ac657610abf836c01000000000000000000000000888803610c15565b90506102fb565b858411610af157610abf82610ae988886c01000000000000000000000000610c15565b888803610c15565b6000610b1783610b0f88886c01000000000000000000000000610c15565b878903610c15565b90506000610b35856c010000000000000000000000008a8903610c15565b9050808210610b445780610b46565b815b98975050505050505050565b60008115610b7b57610b74858585036c01000000000000000000000000610ce7565b9050610b98565b610b95858585036c01000000000000000000000000610c15565b90505b949350505050565b806fffffffffffffffffffffffffffffffff81168114610bbf57600080fd5b919050565b60008115610bec57610b74610be0606087901b86860386610ce7565b85808204910615150190565b83610bfe606087901b82860386610c15565b81610c0b57610c0b610f19565b0495945050505050565b600080807fffffffffffffffffffffffffffffffffffffffffffffffffffffffffffffffff8587098587029250828110838203039150508060001415610c6d5760008411610c6257600080fd5b508290049050610ce0565b808411610c7957600080fd5b6000848688096000868103871696879004966002600389028118808a02820302808a02820302808a02820302808a02820302808a02820302808a02909103029181900381900460010186841190950394909402919094039290920491909117919091029150505b9392505050565b6000610cf4848484610c15565b90508180610d0457610d04610f19565b83850915610ce0577fffffffffffffffffffffffffffffffffffffffffffffffffffffffffffffffff8110610d3857600080fd5b6001019392505050565b73ffffffffffffffffffffffffffffffffffffffff81168114610d6457600080fd5b50565b600060208284031215610d7957600080fd5b8135610ce081610d42565b8035600281900b8114610bbf57600080fd5b60008060008060808587031215610dac57600080fd5b8435610db781610d42565b9350610dc560208601610d84565b9250610dd360408601610d84565b9396929550929360600135925050565b600060208284031215610df557600080fd5b610ce082610d84565b600080600080600060a08688031215610e1657600080fd5b8535610e2181610d42565b9450610e2f60208701610d84565b9350610e3d60408701610d84565b94979396509394606081013594506080013592915050565b600060208284031215610e6757600080fd5b8151610ce081610d42565b7f4e487b7100000000000000000000000000000000000000000000000000000000600052601160045260246000fd5b60007f8000000000000000000000000000000000000000000000000000000000000000821415610ed357610ed3610e72565b5060000390565b60008160020b7fffffffffffffffffffffffffffffffffffffffffffffffffffffffffff800000811415610f1057610f10610e72565b60000392915050565b7f4e487b7100000000000000000000000000000000000000000000000000000000600052601260045260246000fdfea26469706673582212203f31fc6e1df24bf4c830a417f2b09f1277547d852d8bf8851136cf90a32b60c664736f6c63430008090033",
  "devdoc": {
    "kind": "dev",
    "methods": {
      "getTickAtSqrtRatio(uint160)": {
        "params": {
          "price": "Sqrt of price aka. (token1/token0), multiplied by 2 ^ 96."
        }
      }
    },
    "version": 1
  },
  "userdoc": {
    "kind": "user",
    "methods": {
      "getPriceAtTick(int24)": {
        "notice": "Calculates sqrt(1.0001^tick) * 2^96."
      },
      "getTickAtSqrtRatio(uint160)": {
        "notice": "Calculates the greatest tick value such that getRatioAtTick(tick) <= ratio."
      }
    },
    "version": 1
  },
  "storageLayout": {
    "storage": [],
    "types": null
  }
}