{
  "address": "0xbC2C322ad20d16993E635d68cDAAEc4eA24d382c",
  "abi": [
    {
      "inputs": [],
      "name": "InvalidFeeAndTickSpacing",
      "type": "error"
    },
    {
      "inputs": [],
      "name": "UnauthorisedDeployer",
      "type": "error"
    },
    {
      "inputs": [],
      "name": "WrongTokenOrder",
      "type": "error"
    },
    {
      "inputs": [],
      "name": "ZeroAddress",
      "type": "error"
    },
    {
      "anonymous": false,
      "inputs": [
        {
          "indexed": true,
          "internalType": "address",
          "name": "previousOwner",
          "type": "address"
        },
        {
          "indexed": true,
          "internalType": "address",
          "name": "newOwner",
          "type": "address"
        }
      ],
      "name": "OwnershipTransferred",
      "type": "event"
    },
    {
      "inputs": [
        {
          "internalType": "uint24",
          "name": "",
          "type": "uint24"
        },
        {
          "internalType": "uint24",
          "name": "",
          "type": "uint24"
        }
      ],
      "name": "availableFeeAndTickSpacing",
      "outputs": [
        {
          "internalType": "bool",
          "name": "",
          "type": "bool"
        }
      ],
      "stateMutability": "view",
      "type": "function"
    },
    {
      "inputs": [
        {
          "internalType": "bytes32",
          "name": "",
          "type": "bytes32"
        }
      ],
      "name": "configAddress",
      "outputs": [
        {
          "internalType": "address",
          "name": "",
          "type": "address"
        }
      ],
      "stateMutability": "view",
      "type": "function"
    },
    {
      "inputs": [
        {
          "internalType": "bytes",
          "name": "_deployData",
          "type": "bytes"
        }
      ],
      "name": "deployPool",
      "outputs": [
        {
          "internalType": "address",
          "name": "pool",
          "type": "address"
        }
      ],
      "stateMutability": "nonpayable",
      "type": "function"
    },
    {
      "inputs": [
        {
          "internalType": "uint256",
          "name": "idx",
          "type": "uint256"
        }
      ],
      "name": "getPoolAddress",
      "outputs": [
        {
          "internalType": "address",
          "name": "pool",
          "type": "address"
        }
      ],
      "stateMutability": "view",
      "type": "function"
    },
    {
      "inputs": [
        {
          "internalType": "address",
          "name": "token0",
          "type": "address"
        },
        {
          "internalType": "address",
          "name": "token1",
          "type": "address"
        },
        {
          "internalType": "uint256",
          "name": "startIndex",
          "type": "uint256"
        },
        {
          "internalType": "uint256",
          "name": "count",
          "type": "uint256"
        }
      ],
      "name": "getPools",
      "outputs": [
        {
          "internalType": "address[]",
          "name": "pairPools",
          "type": "address[]"
        }
      ],
      "stateMutability": "view",
      "type": "function"
    },
    {
      "inputs": [
        {
          "internalType": "address",
          "name": "_masterDeployer",
          "type": "address"
        },
        {
          "internalType": "address",
          "name": "_poolLogger",
          "type": "address"
        }
      ],
      "name": "initialize",
      "outputs": [],
      "stateMutability": "nonpayable",
      "type": "function"
    },
    {
      "inputs": [
        {
          "internalType": "address",
          "name": "",
          "type": "address"
        }
      ],
      "name": "isPool",
      "outputs": [
        {
          "internalType": "bool",
          "name": "",
          "type": "bool"
        }
      ],
      "stateMutability": "view",
      "type": "function"
    },
    {
      "inputs": [],
      "name": "masterDeployer",
      "outputs": [
        {
          "internalType": "address",
          "name": "",
          "type": "address"
        }
      ],
      "stateMutability": "view",
      "type": "function"
    },
    {
      "inputs": [],
      "name": "owner",
      "outputs": [
        {
          "internalType": "address",
          "name": "",
          "type": "address"
        }
      ],
      "stateMutability": "view",
      "type": "function"
    },
    {
      "inputs": [],
      "name": "poolLogger",
      "outputs": [
        {
          "internalType": "address",
          "name": "",
          "type": "address"
        }
      ],
      "stateMutability": "view",
      "type": "function"
    },
    {
      "inputs": [
        {
          "internalType": "address",
          "name": "",
          "type": "address"
        },
        {
          "internalType": "address",
          "name": "",
          "type": "address"
        },
        {
          "internalType": "uint256",
          "name": "",
          "type": "uint256"
        }
      ],
      "name": "pools",
      "outputs": [
        {
          "internalType": "address",
          "name": "",
          "type": "address"
        }
      ],
      "stateMutability": "view",
      "type": "function"
    },
    {
      "inputs": [
        {
          "internalType": "address",
          "name": "token0",
          "type": "address"
        },
        {
          "internalType": "address",
          "name": "token1",
          "type": "address"
        }
      ],
      "name": "poolsCount",
      "outputs": [
        {
          "internalType": "uint256",
          "name": "count",
          "type": "uint256"
        }
      ],
      "stateMutability": "view",
      "type": "function"
    },
    {
      "inputs": [],
      "name": "renounceOwnership",
      "outputs": [],
      "stateMutability": "nonpayable",
      "type": "function"
    },
    {
      "inputs": [
        {
          "internalType": "uint24",
          "name": "fee",
          "type": "uint24"
        },
        {
          "internalType": "uint24",
          "name": "tickSpacing",
          "type": "uint24"
        },
        {
          "internalType": "bool",
          "name": "ok",
          "type": "bool"
        }
      ],
      "name": "setAvailableFeeAndTickSpacing",
      "outputs": [],
      "stateMutability": "nonpayable",
      "type": "function"
    },
    {
      "inputs": [],
      "name": "totalPoolsCount",
      "outputs": [
        {
          "internalType": "uint256",
          "name": "total",
          "type": "uint256"
        }
      ],
      "stateMutability": "view",
      "type": "function"
    },
    {
      "inputs": [
        {
          "internalType": "address",
          "name": "newOwner",
          "type": "address"
        }
      ],
      "name": "transferOwnership",
      "outputs": [],
      "stateMutability": "nonpayable",
      "type": "function"
    }
  ],
  "transactionHash": "0xbeea250eb4ec58d5cfc668ebbfdddd3f4d338de3ffb076cac20231baf285c180",
  "args": [],
  "numDeployments": 1,
  "solcInputHash": "7b141dad0ae9dd0a2ec46a2e595f9ebb",
  "bytecode": "0x608060405234801561001057600080fd5b506115a9806100206000396000f3fe608060405234801561001057600080fd5b50600436106100ff5760003560e01c80635bc93d6c116100975780639ee6465b116100665780639ee6465b14610280578063cf58879a146102ae578063f2fde38b146102ce578063f6ab6d99146102e157600080fd5b80635bc93d6c146101f4578063715018a61461023a57806371a25812146102425780638da5cb5b1461026257600080fd5b80635159d73c116100d35780635159d73c1461017c57806356088ff11461018f578063566a89af146101af5780635b16ebb7146101c157600080fd5b8062a5ae2114610104578063169c4cef1461014157806327c3cae114610154578063485cc95514610167575b600080fd5b61011761011236600461109b565b610317565b60405173ffffffffffffffffffffffffffffffffffffffff90911681526020015b60405180910390f35b61011761014f3660046110d6565b610354565b610117610162366004611146565b6103a6565b61017a610175366004611215565b610829565b005b61017a61018a36600461125f565b610b38565b6066546101179073ffffffffffffffffffffffffffffffffffffffff1681565b606b545b604051908152602001610138565b6101e46101cf3660046112af565b60696020526000908152604090205460ff1681565b6040519015158152602001610138565b6101b3610202366004611215565b73ffffffffffffffffffffffffffffffffffffffff918216600090815260676020908152604080832093909416825291909152205490565b61017a610c0d565b6102556102503660046112d3565b610c9a565b6040516101389190611319565b60335473ffffffffffffffffffffffffffffffffffffffff16610117565b6101e461028e366004611373565b606a60209081526000928352604080842090915290825290205460ff1681565b6065546101179073ffffffffffffffffffffffffffffffffffffffff1681565b61017a6102dc3660046112af565b610db5565b6101176102ef36600461109b565b60686020526000908152604090205473ffffffffffffffffffffffffffffffffffffffff1681565b6000606b828154811061032c5761032c6113a1565b60009182526020909120015473ffffffffffffffffffffffffffffffffffffffff1692915050565b6067602052826000526040600020602052816000526040600020818154811061037c57600080fd5b60009182526020909120015473ffffffffffffffffffffffffffffffffffffffff16925083915050565b60655460009073ffffffffffffffffffffffffffffffffffffffff1633146103fa576040517f03781a5300000000000000000000000000000000000000000000000000000000815260040160405180910390fd5b60008060008060008680602001905181019061041691906113d0565b945094509450945094508373ffffffffffffffffffffffffffffffffffffffff168573ffffffffffffffffffffffffffffffffffffffff161115610486576040517f30082a1600000000000000000000000000000000000000000000000000000000815260040160405180910390fd5b62ffffff8084166000908152606a602090815260408083209385168352929052205460ff166104e1576040517fb87686b800000000000000000000000000000000000000000000000000000000815260040160405180910390fd5b6040805173ffffffffffffffffffffffffffffffffffffffff808816602083015286169181019190915262ffffff80851660608301528216608082015260a001604080517fffffffffffffffffffffffffffffffffffffffffffffffffffffffffffffffe081840301815290829052805160208201206065547fb3fa34ae00000000000000000000000000000000000000000000000000000000845291995091737Ee422bb110C136578ef34842f2213fa5Ae5f9a89163b3fa34ae916105c4918c9173ffffffffffffffffffffffffffffffffffffffff90911690600401611445565b60206040518083038186803b1580156105dc57600080fd5b505af41580156105f0573d6000803e3d6000fd5b505050506040513d601f19601f8201168201806040525081019061061491906114d6565b6000828152606860209081526040808320805473ffffffffffffffffffffffffffffffffffffffff8681167fffffffffffffffffffffffff000000000000000000000000000000000000000092831681179093558c811680875260678087528588208e8416808a52908852868920805460018181018355918b52898b2001805487168817905590895290875285882091885290865284872080548083018255908852868820018054841685179055838752606990955283862080547fffffffffffffffffffffffffffffffffffffffffffffffffffffffffffffff001686179055606b805495860181559095527fbd43cb8ece8cd1863bcd6082d65c5b0d25665b1ce17980f0da43c0ed545f98b490930180549093168117909255517fd90bda4e000000000000000000000000000000000000000000000000000000008152918616600483015291985063d90bda4e90602401600060405180830381600087803b15801561078157600080fd5b505af1158015610795573d6000803e3d6000fd5b50506066546040517fbd7d1eea00000000000000000000000000000000000000000000000000000000815273ffffffffffffffffffffffffffffffffffffffff9182166004820152908a16925063bd7d1eea9150602401600060405180830381600087803b15801561080657600080fd5b505af115801561081a573d6000803e3d6000fd5b50505050505050505050919050565b600054610100900460ff166108445760005460ff1615610848565b303b155b6108d9576040517f08c379a000000000000000000000000000000000000000000000000000000000815260206004820152602e60248201527f496e697469616c697a61626c653a20636f6e747261637420697320616c72656160448201527f647920696e697469616c697a656400000000000000000000000000000000000060648201526084015b60405180910390fd5b600054610100900460ff1615801561091857600080547fffffffffffffffffffffffffffffffffffffffffffffffffffffffffffff0000166101011790555b73ffffffffffffffffffffffffffffffffffffffff8316610965576040517fd92e233d00000000000000000000000000000000000000000000000000000000815260040160405180910390fd5b73ffffffffffffffffffffffffffffffffffffffff82166109b2576040517fd92e233d00000000000000000000000000000000000000000000000000000000815260040160405180910390fd5b6065805473ffffffffffffffffffffffffffffffffffffffff8086167fffffffffffffffffffffffff00000000000000000000000000000000000000009283161790925560668054928516929091169190911790557fc714f2dd66168dd73a29e986fb55ced94ca972bc1b50fba080a30cd2181ee46180547fffffffffffffffffffffffffffffffffffffffffffffffffffffffffffffff0090811660019081179092557f2b883f690d77611dc5b41697da3a6d594aa0f341ca97ec610373f8acb41cd82e80548216831790557fb4c39d8f35323a7236928a191047e8e590183539305f30f3125ad48275693c6f805482168317905560008290527fcd6a478cde0daf30ff37adc42daba04d5778c598dbf4183faa56b8a367a7a2fa6020527f4b36f0357877a40c82357bd8a2a008c963de23de2cbbc2a838194b639b2b4da180549091169091179055610b04610ee5565b8015610b3357600080547fffffffffffffffffffffffffffffffffffffffffffffffffffffffffffff00ff1690555b505050565b60335473ffffffffffffffffffffffffffffffffffffffff163314610bb9576040517f08c379a000000000000000000000000000000000000000000000000000000000815260206004820181905260248201527f4f776e61626c653a2063616c6c6572206973206e6f7420746865206f776e657260448201526064016108d0565b62ffffff9283166000908152606a602090815260408083209490951682529290925291902080547fffffffffffffffffffffffffffffffffffffffffffffffffffffffffffffff0016911515919091179055565b60335473ffffffffffffffffffffffffffffffffffffffff163314610c8e576040517f08c379a000000000000000000000000000000000000000000000000000000000815260206004820181905260248201527f4f776e61626c653a2063616c6c6572206973206e6f7420746865206f776e657260448201526064016108d0565b610c986000610f84565b565b60608167ffffffffffffffff811115610cb557610cb5611117565b604051908082528060200260200182016040528015610cde578160200160208202803683370190505b50905060005b82811015610dac5773ffffffffffffffffffffffffffffffffffffffff8087166000908152606760209081526040808320938916835292905220610d288286611522565b81548110610d3857610d386113a1565b9060005260206000200160009054906101000a900473ffffffffffffffffffffffffffffffffffffffff16828281518110610d7557610d756113a1565b73ffffffffffffffffffffffffffffffffffffffff9092166020928302919091019091015280610da48161153a565b915050610ce4565b50949350505050565b60335473ffffffffffffffffffffffffffffffffffffffff163314610e36576040517f08c379a000000000000000000000000000000000000000000000000000000000815260206004820181905260248201527f4f776e61626c653a2063616c6c6572206973206e6f7420746865206f776e657260448201526064016108d0565b73ffffffffffffffffffffffffffffffffffffffff8116610ed9576040517f08c379a000000000000000000000000000000000000000000000000000000000815260206004820152602660248201527f4f776e61626c653a206e6577206f776e657220697320746865207a65726f206160448201527f646472657373000000000000000000000000000000000000000000000000000060648201526084016108d0565b610ee281610f84565b50565b600054610100900460ff16610f7c576040517f08c379a000000000000000000000000000000000000000000000000000000000815260206004820152602b60248201527f496e697469616c697a61626c653a20636f6e7472616374206973206e6f74206960448201527f6e697469616c697a696e6700000000000000000000000000000000000000000060648201526084016108d0565b610c98610ffb565b6033805473ffffffffffffffffffffffffffffffffffffffff8381167fffffffffffffffffffffffff0000000000000000000000000000000000000000831681179093556040519116919082907f8be0079c531659141344cd1fd0a4f28419497f9722a3daafe3b4186f6b6457e090600090a35050565b600054610100900460ff16611092576040517f08c379a000000000000000000000000000000000000000000000000000000000815260206004820152602b60248201527f496e697469616c697a61626c653a20636f6e7472616374206973206e6f74206960448201527f6e697469616c697a696e6700000000000000000000000000000000000000000060648201526084016108d0565b610c9833610f84565b6000602082840312156110ad57600080fd5b5035919050565b73ffffffffffffffffffffffffffffffffffffffff81168114610ee257600080fd5b6000806000606084860312156110eb57600080fd5b83356110f6816110b4565b92506020840135611106816110b4565b929592945050506040919091013590565b7f4e487b7100000000000000000000000000000000000000000000000000000000600052604160045260246000fd5b60006020828403121561115857600080fd5b813567ffffffffffffffff8082111561117057600080fd5b818401915084601f83011261118457600080fd5b81358181111561119657611196611117565b604051601f82017fffffffffffffffffffffffffffffffffffffffffffffffffffffffffffffffe0908116603f011681019083821181831017156111dc576111dc611117565b816040528281528760208487010111156111f557600080fd5b826020860160208301376000928101602001929092525095945050505050565b6000806040838503121561122857600080fd5b8235611233816110b4565b91506020830135611243816110b4565b809150509250929050565b62ffffff81168114610ee257600080fd5b60008060006060848603121561127457600080fd5b833561127f8161124e565b9250602084013561128f8161124e565b9150604084013580151581146112a457600080fd5b809150509250925092565b6000602082840312156112c157600080fd5b81356112cc816110b4565b9392505050565b600080600080608085870312156112e957600080fd5b84356112f4816110b4565b93506020850135611304816110b4565b93969395505050506040820135916060013590565b6020808252825182820181905260009190848201906040850190845b8181101561136757835173ffffffffffffffffffffffffffffffffffffffff1683529284019291840191600101611335565b50909695505050505050565b6000806040838503121561138657600080fd5b82356113918161124e565b915060208301356112438161124e565b7f4e487b7100000000000000000000000000000000000000000000000000000000600052603260045260246000fd5b600080600080600060a086880312156113e857600080fd5b85516113f3816110b4565b6020870151909550611404816110b4565b60408701519094506114158161124e565b6060870151909350611426816110b4565b60808701519092506114378161124e565b809150509295509295909350565b604081526000835180604084015260005b818110156114735760208187018101516060868401015201611456565b81811115611485576000606083860101525b5073ffffffffffffffffffffffffffffffffffffffff93909316602083015250601f919091017fffffffffffffffffffffffffffffffffffffffffffffffffffffffffffffffe01601606001919050565b6000602082840312156114e857600080fd5b81516112cc816110b4565b7f4e487b7100000000000000000000000000000000000000000000000000000000600052601160045260246000fd5b60008219821115611535576115356114f3565b500190565b60007fffffffffffffffffffffffffffffffffffffffffffffffffffffffffffffffff82141561156c5761156c6114f3565b506001019056fea2646970667358221220501655aba72504ec3fe4070183e3a038ec1797a3b419316a6338ed333e18200964736f6c63430008090033",
  "deployedBytecode": "0x608060405234801561001057600080fd5b50600436106100ff5760003560e01c80635bc93d6c116100975780639ee6465b116100665780639ee6465b14610280578063cf58879a146102ae578063f2fde38b146102ce578063f6ab6d99146102e157600080fd5b80635bc93d6c146101f4578063715018a61461023a57806371a25812146102425780638da5cb5b1461026257600080fd5b80635159d73c116100d35780635159d73c1461017c57806356088ff11461018f578063566a89af146101af5780635b16ebb7146101c157600080fd5b8062a5ae2114610104578063169c4cef1461014157806327c3cae114610154578063485cc95514610167575b600080fd5b61011761011236600461109b565b610317565b60405173ffffffffffffffffffffffffffffffffffffffff90911681526020015b60405180910390f35b61011761014f3660046110d6565b610354565b610117610162366004611146565b6103a6565b61017a610175366004611215565b610829565b005b61017a61018a36600461125f565b610b38565b6066546101179073ffffffffffffffffffffffffffffffffffffffff1681565b606b545b604051908152602001610138565b6101e46101cf3660046112af565b60696020526000908152604090205460ff1681565b6040519015158152602001610138565b6101b3610202366004611215565b73ffffffffffffffffffffffffffffffffffffffff918216600090815260676020908152604080832093909416825291909152205490565b61017a610c0d565b6102556102503660046112d3565b610c9a565b6040516101389190611319565b60335473ffffffffffffffffffffffffffffffffffffffff16610117565b6101e461028e366004611373565b606a60209081526000928352604080842090915290825290205460ff1681565b6065546101179073ffffffffffffffffffffffffffffffffffffffff1681565b61017a6102dc3660046112af565b610db5565b6101176102ef36600461109b565b60686020526000908152604090205473ffffffffffffffffffffffffffffffffffffffff1681565b6000606b828154811061032c5761032c6113a1565b60009182526020909120015473ffffffffffffffffffffffffffffffffffffffff1692915050565b6067602052826000526040600020602052816000526040600020818154811061037c57600080fd5b60009182526020909120015473ffffffffffffffffffffffffffffffffffffffff16925083915050565b60655460009073ffffffffffffffffffffffffffffffffffffffff1633146103fa576040517f03781a5300000000000000000000000000000000000000000000000000000000815260040160405180910390fd5b60008060008060008680602001905181019061041691906113d0565b945094509450945094508373ffffffffffffffffffffffffffffffffffffffff168573ffffffffffffffffffffffffffffffffffffffff161115610486576040517f30082a1600000000000000000000000000000000000000000000000000000000815260040160405180910390fd5b62ffffff8084166000908152606a602090815260408083209385168352929052205460ff166104e1576040517fb87686b800000000000000000000000000000000000000000000000000000000815260040160405180910390fd5b6040805173ffffffffffffffffffffffffffffffffffffffff808816602083015286169181019190915262ffffff80851660608301528216608082015260a001604080517fffffffffffffffffffffffffffffffffffffffffffffffffffffffffffffffe081840301815290829052805160208201206065547fb3fa34ae0000000000000000000000000000000000000000000000000000000084529199509173__$65be32de914435d9328d178fb214e9d46f$__9163b3fa34ae916105c4918c9173ffffffffffffffffffffffffffffffffffffffff90911690600401611445565b60206040518083038186803b1580156105dc57600080fd5b505af41580156105f0573d6000803e3d6000fd5b505050506040513d601f19601f8201168201806040525081019061061491906114d6565b6000828152606860209081526040808320805473ffffffffffffffffffffffffffffffffffffffff8681167fffffffffffffffffffffffff000000000000000000000000000000000000000092831681179093558c811680875260678087528588208e8416808a52908852868920805460018181018355918b52898b2001805487168817905590895290875285882091885290865284872080548083018255908852868820018054841685179055838752606990955283862080547fffffffffffffffffffffffffffffffffffffffffffffffffffffffffffffff001686179055606b805495860181559095527fbd43cb8ece8cd1863bcd6082d65c5b0d25665b1ce17980f0da43c0ed545f98b490930180549093168117909255517fd90bda4e000000000000000000000000000000000000000000000000000000008152918616600483015291985063d90bda4e90602401600060405180830381600087803b15801561078157600080fd5b505af1158015610795573d6000803e3d6000fd5b50506066546040517fbd7d1eea00000000000000000000000000000000000000000000000000000000815273ffffffffffffffffffffffffffffffffffffffff9182166004820152908a16925063bd7d1eea9150602401600060405180830381600087803b15801561080657600080fd5b505af115801561081a573d6000803e3d6000fd5b50505050505050505050919050565b600054610100900460ff166108445760005460ff1615610848565b303b155b6108d9576040517f08c379a000000000000000000000000000000000000000000000000000000000815260206004820152602e60248201527f496e697469616c697a61626c653a20636f6e747261637420697320616c72656160448201527f647920696e697469616c697a656400000000000000000000000000000000000060648201526084015b60405180910390fd5b600054610100900460ff1615801561091857600080547fffffffffffffffffffffffffffffffffffffffffffffffffffffffffffff0000166101011790555b73ffffffffffffffffffffffffffffffffffffffff8316610965576040517fd92e233d00000000000000000000000000000000000000000000000000000000815260040160405180910390fd5b73ffffffffffffffffffffffffffffffffffffffff82166109b2576040517fd92e233d00000000000000000000000000000000000000000000000000000000815260040160405180910390fd5b6065805473ffffffffffffffffffffffffffffffffffffffff8086167fffffffffffffffffffffffff00000000000000000000000000000000000000009283161790925560668054928516929091169190911790557fc714f2dd66168dd73a29e986fb55ced94ca972bc1b50fba080a30cd2181ee46180547fffffffffffffffffffffffffffffffffffffffffffffffffffffffffffffff0090811660019081179092557f2b883f690d77611dc5b41697da3a6d594aa0f341ca97ec610373f8acb41cd82e80548216831790557fb4c39d8f35323a7236928a191047e8e590183539305f30f3125ad48275693c6f805482168317905560008290527fcd6a478cde0daf30ff37adc42daba04d5778c598dbf4183faa56b8a367a7a2fa6020527f4b36f0357877a40c82357bd8a2a008c963de23de2cbbc2a838194b639b2b4da180549091169091179055610b04610ee5565b8015610b3357600080547fffffffffffffffffffffffffffffffffffffffffffffffffffffffffffff00ff1690555b505050565b60335473ffffffffffffffffffffffffffffffffffffffff163314610bb9576040517f08c379a000000000000000000000000000000000000000000000000000000000815260206004820181905260248201527f4f776e61626c653a2063616c6c6572206973206e6f7420746865206f776e657260448201526064016108d0565b62ffffff9283166000908152606a602090815260408083209490951682529290925291902080547fffffffffffffffffffffffffffffffffffffffffffffffffffffffffffffff0016911515919091179055565b60335473ffffffffffffffffffffffffffffffffffffffff163314610c8e576040517f08c379a000000000000000000000000000000000000000000000000000000000815260206004820181905260248201527f4f776e61626c653a2063616c6c6572206973206e6f7420746865206f776e657260448201526064016108d0565b610c986000610f84565b565b60608167ffffffffffffffff811115610cb557610cb5611117565b604051908082528060200260200182016040528015610cde578160200160208202803683370190505b50905060005b82811015610dac5773ffffffffffffffffffffffffffffffffffffffff8087166000908152606760209081526040808320938916835292905220610d288286611522565b81548110610d3857610d386113a1565b9060005260206000200160009054906101000a900473ffffffffffffffffffffffffffffffffffffffff16828281518110610d7557610d756113a1565b73ffffffffffffffffffffffffffffffffffffffff9092166020928302919091019091015280610da48161153a565b915050610ce4565b50949350505050565b60335473ffffffffffffffffffffffffffffffffffffffff163314610e36576040517f08c379a000000000000000000000000000000000000000000000000000000000815260206004820181905260248201527f4f776e61626c653a2063616c6c6572206973206e6f7420746865206f776e657260448201526064016108d0565b73ffffffffffffffffffffffffffffffffffffffff8116610ed9576040517f08c379a000000000000000000000000000000000000000000000000000000000815260206004820152602660248201527f4f776e61626c653a206e6577206f776e657220697320746865207a65726f206160448201527f646472657373000000000000000000000000000000000000000000000000000060648201526084016108d0565b610ee281610f84565b50565b600054610100900460ff16610f7c576040517f08c379a000000000000000000000000000000000000000000000000000000000815260206004820152602b60248201527f496e697469616c697a61626c653a20636f6e7472616374206973206e6f74206960448201527f6e697469616c697a696e6700000000000000000000000000000000000000000060648201526084016108d0565b610c98610ffb565b6033805473ffffffffffffffffffffffffffffffffffffffff8381167fffffffffffffffffffffffff0000000000000000000000000000000000000000831681179093556040519116919082907f8be0079c531659141344cd1fd0a4f28419497f9722a3daafe3b4186f6b6457e090600090a35050565b600054610100900460ff16611092576040517f08c379a000000000000000000000000000000000000000000000000000000000815260206004820152602b60248201527f496e697469616c697a61626c653a20636f6e7472616374206973206e6f74206960448201527f6e697469616c697a696e6700000000000000000000000000000000000000000060648201526084016108d0565b610c9833610f84565b6000602082840312156110ad57600080fd5b5035919050565b73ffffffffffffffffffffffffffffffffffffffff81168114610ee257600080fd5b6000806000606084860312156110eb57600080fd5b83356110f6816110b4565b92506020840135611106816110b4565b929592945050506040919091013590565b7f4e487b7100000000000000000000000000000000000000000000000000000000600052604160045260246000fd5b60006020828403121561115857600080fd5b813567ffffffffffffffff8082111561117057600080fd5b818401915084601f83011261118457600080fd5b81358181111561119657611196611117565b604051601f82017fffffffffffffffffffffffffffffffffffffffffffffffffffffffffffffffe0908116603f011681019083821181831017156111dc576111dc611117565b816040528281528760208487010111156111f557600080fd5b826020860160208301376000928101602001929092525095945050505050565b6000806040838503121561122857600080fd5b8235611233816110b4565b91506020830135611243816110b4565b809150509250929050565b62ffffff81168114610ee257600080fd5b60008060006060848603121561127457600080fd5b833561127f8161124e565b9250602084013561128f8161124e565b9150604084013580151581146112a457600080fd5b809150509250925092565b6000602082840312156112c157600080fd5b81356112cc816110b4565b9392505050565b600080600080608085870312156112e957600080fd5b84356112f4816110b4565b93506020850135611304816110b4565b93969395505050506040820135916060013590565b6020808252825182820181905260009190848201906040850190845b8181101561136757835173ffffffffffffffffffffffffffffffffffffffff1683529284019291840191600101611335565b50909695505050505050565b6000806040838503121561138657600080fd5b82356113918161124e565b915060208301356112438161124e565b7f4e487b7100000000000000000000000000000000000000000000000000000000600052603260045260246000fd5b600080600080600060a086880312156113e857600080fd5b85516113f3816110b4565b6020870151909550611404816110b4565b60408701519094506114158161124e565b6060870151909350611426816110b4565b60808701519092506114378161124e565b809150509295509295909350565b604081526000835180604084015260005b818110156114735760208187018101516060868401015201611456565b81811115611485576000606083860101525b5073ffffffffffffffffffffffffffffffffffffffff93909316602083015250601f919091017fffffffffffffffffffffffffffffffffffffffffffffffffffffffffffffffe01601606001919050565b6000602082840312156114e857600080fd5b81516112cc816110b4565b7f4e487b7100000000000000000000000000000000000000000000000000000000600052601160045260246000fd5b60008219821115611535576115356114f3565b500190565b60007fffffffffffffffffffffffffffffffffffffffffffffffffffffffffffffffff82141561156c5761156c6114f3565b506001019056fea2646970667358221220501655aba72504ec3fe4070183e3a038ec1797a3b419316a6338ed333e18200964736f6c63430008090033",
  "libraries": {
    "PoolFactoryLib": "0x7Ee422bb110C136578ef34842f2213fa5Ae5f9a8"
  },
  "devdoc": {
    "kind": "dev",
    "methods": {
      "owner()": {
        "details": "Returns the address of the current owner."
      },
      "renounceOwnership()": {
        "details": "Leaves the contract without owner. It will not be possible to call `onlyOwner` functions anymore. Can only be called by the current owner. NOTE: Renouncing ownership will leave the contract without an owner, thereby removing any functionality that is only available to the owner."
      },
      "transferOwnership(address)": {
        "details": "Transfers ownership of the contract to a new account (`newOwner`). Can only be called by the current owner."
      }
    },
    "stateVariables": {
      "configAddress": {
        "params": {
          "data": "abi.encode(address tokenA, address tokenB, uint24 swapFee, uint24 tickSpacing);"
        }
      }
    },
    "version": 1
  },
  "userdoc": {
    "kind": "user",
    "methods": {
      "configAddress(bytes32)": {
        "notice": "Return the address of the pool created with the given config data"
      },
      "getPoolAddress(uint256)": {
        "notice": "Return the address of pool by index"
      },
      "getPools(address,address,uint256,uint256)": {
        "notice": "Return the list of pools composed of two tokens"
      },
      "isPool(address)": {
        "notice": "Return whether the pool is created by the factory"
      },
      "poolsCount(address,address)": {
        "notice": "Return the number of pools composed of two tokens"
      },
      "totalPoolsCount()": {
        "notice": "Return the number of pools deployed from factory"
      }
    },
    "notice": "Contract for deploying Concentrated Liquidity Pool",
    "version": 1
  },
  "storageLayout": {
    "storage": [
      {
        "astId": 130,
        "contract": "contracts/pool/ConcentratedLiquidityPoolFactory.sol:ConcentratedLiquidityPoolFactory",
        "label": "_initialized",
        "offset": 0,
        "slot": "0",
        "type": "t_bool"
      },
      {
        "astId": 133,
        "contract": "contracts/pool/ConcentratedLiquidityPoolFactory.sol:ConcentratedLiquidityPoolFactory",
        "label": "_initializing",
        "offset": 1,
        "slot": "0",
        "type": "t_bool"
      },
      {
        "astId": 1981,
        "contract": "contracts/pool/ConcentratedLiquidityPoolFactory.sol:ConcentratedLiquidityPoolFactory",
        "label": "__gap",
        "offset": 0,
        "slot": "1",
        "type": "t_array(t_uint256)50_storage"
      },
      {
        "astId": 10,
        "contract": "contracts/pool/ConcentratedLiquidityPoolFactory.sol:ConcentratedLiquidityPoolFactory",
        "label": "_owner",
        "offset": 0,
        "slot": "51",
        "type": "t_address"
      },
      {
        "astId": 122,
        "contract": "contracts/pool/ConcentratedLiquidityPoolFactory.sol:ConcentratedLiquidityPoolFactory",
        "label": "__gap",
        "offset": 0,
        "slot": "52",
        "type": "t_array(t_uint256)49_storage"
      },
      {
        "astId": 15534,
        "contract": "contracts/pool/ConcentratedLiquidityPoolFactory.sol:ConcentratedLiquidityPoolFactory",
        "label": "masterDeployer",
        "offset": 0,
        "slot": "101",
        "type": "t_address"
      },
      {
        "astId": 15536,
        "contract": "contracts/pool/ConcentratedLiquidityPoolFactory.sol:ConcentratedLiquidityPoolFactory",
        "label": "poolLogger",
        "offset": 0,
        "slot": "102",
        "type": "t_address"
      },
      {
        "astId": 15543,
        "contract": "contracts/pool/ConcentratedLiquidityPoolFactory.sol:ConcentratedLiquidityPoolFactory",
        "label": "pools",
        "offset": 0,
        "slot": "103",
        "type": "t_mapping(t_address,t_mapping(t_address,t_array(t_address)dyn_storage))"
      },
      {
        "astId": 15547,
        "contract": "contracts/pool/ConcentratedLiquidityPoolFactory.sol:ConcentratedLiquidityPoolFactory",
        "label": "configAddress",
        "offset": 0,
        "slot": "104",
        "type": "t_mapping(t_bytes32,t_address)"
      },
      {
        "astId": 15551,
        "contract": "contracts/pool/ConcentratedLiquidityPoolFactory.sol:ConcentratedLiquidityPoolFactory",
        "label": "isPool",
        "offset": 0,
        "slot": "105",
        "type": "t_mapping(t_address,t_bool)"
      },
      {
        "astId": 15557,
        "contract": "contracts/pool/ConcentratedLiquidityPoolFactory.sol:ConcentratedLiquidityPoolFactory",
        "label": "availableFeeAndTickSpacing",
        "offset": 0,
        "slot": "106",
        "type": "t_mapping(t_uint24,t_mapping(t_uint24,t_bool))"
      },
      {
        "astId": 15560,
        "contract": "contracts/pool/ConcentratedLiquidityPoolFactory.sol:ConcentratedLiquidityPoolFactory",
        "label": "poolArray",
        "offset": 0,
        "slot": "107",
        "type": "t_array(t_address)dyn_storage"
      }
    ],
    "types": {
      "t_address": {
        "encoding": "inplace",
        "label": "address",
        "numberOfBytes": "20"
      },
      "t_array(t_address)dyn_storage": {
        "base": "t_address",
        "encoding": "dynamic_array",
        "label": "address[]",
        "numberOfBytes": "32"
      },
      "t_array(t_uint256)49_storage": {
        "base": "t_uint256",
        "encoding": "inplace",
        "label": "uint256[49]",
        "numberOfBytes": "1568"
      },
      "t_array(t_uint256)50_storage": {
        "base": "t_uint256",
        "encoding": "inplace",
        "label": "uint256[50]",
        "numberOfBytes": "1600"
      },
      "t_bool": {
        "encoding": "inplace",
        "label": "bool",
        "numberOfBytes": "1"
      },
      "t_bytes32": {
        "encoding": "inplace",
        "label": "bytes32",
        "numberOfBytes": "32"
      },
      "t_mapping(t_address,t_array(t_address)dyn_storage)": {
        "encoding": "mapping",
        "key": "t_address",
        "label": "mapping(address => address[])",
        "numberOfBytes": "32",
        "value": "t_array(t_address)dyn_storage"
      },
      "t_mapping(t_address,t_bool)": {
        "encoding": "mapping",
        "key": "t_address",
        "label": "mapping(address => bool)",
        "numberOfBytes": "32",
        "value": "t_bool"
      },
      "t_mapping(t_address,t_mapping(t_address,t_array(t_address)dyn_storage))": {
        "encoding": "mapping",
        "key": "t_address",
        "label": "mapping(address => mapping(address => address[]))",
        "numberOfBytes": "32",
        "value": "t_mapping(t_address,t_array(t_address)dyn_storage)"
      },
      "t_mapping(t_bytes32,t_address)": {
        "encoding": "mapping",
        "key": "t_bytes32",
        "label": "mapping(bytes32 => address)",
        "numberOfBytes": "32",
        "value": "t_address"
      },
      "t_mapping(t_uint24,t_bool)": {
        "encoding": "mapping",
        "key": "t_uint24",
        "label": "mapping(uint24 => bool)",
        "numberOfBytes": "32",
        "value": "t_bool"
      },
      "t_mapping(t_uint24,t_mapping(t_uint24,t_bool))": {
        "encoding": "mapping",
        "key": "t_uint24",
        "label": "mapping(uint24 => mapping(uint24 => bool))",
        "numberOfBytes": "32",
        "value": "t_mapping(t_uint24,t_bool)"
      },
      "t_uint24": {
        "encoding": "inplace",
        "label": "uint24",
        "numberOfBytes": "3"
      },
      "t_uint256": {
        "encoding": "inplace",
        "label": "uint256",
        "numberOfBytes": "32"
      }
    }
  }
}