{
  "address": "0x69Fc449fa25696359058c19D209faC455b5B4bb0",
  "abi": [
    {
      "inputs": [],
      "name": "InvalidPool",
      "type": "error"
    },
    {
      "inputs": [],
      "name": "NotAllowed",
      "type": "error"
    },
    {
      "inputs": [],
      "name": "NotNativePool",
      "type": "error"
    },
    {
      "inputs": [],
      "name": "PoolMisMatch",
      "type": "error"
    },
    {
      "inputs": [],
      "name": "RangeMisMatch",
      "type": "error"
    },
    {
      "inputs": [],
      "name": "TickOutOfBounds",
      "type": "error"
    },
    {
      "inputs": [],
      "name": "TooLittleReceived",
      "type": "error"
    },
    {
      "inputs": [],
      "name": "UnAuthorizedCallback",
      "type": "error"
    },
    {
      "anonymous": false,
      "inputs": [
        {
          "indexed": true,
          "internalType": "address",
          "name": "owner",
          "type": "address"
        },
        {
          "indexed": true,
          "internalType": "address",
          "name": "approved",
          "type": "address"
        },
        {
          "indexed": true,
          "internalType": "uint256",
          "name": "tokenId",
          "type": "uint256"
        }
      ],
      "name": "Approval",
      "type": "event"
    },
    {
      "anonymous": false,
      "inputs": [
        {
          "indexed": true,
          "internalType": "address",
          "name": "owner",
          "type": "address"
        },
        {
          "indexed": true,
          "internalType": "address",
          "name": "operator",
          "type": "address"
        },
        {
          "indexed": false,
          "internalType": "bool",
          "name": "approved",
          "type": "bool"
        }
      ],
      "name": "ApprovalForAll",
      "type": "event"
    },
    {
      "anonymous": false,
      "inputs": [
        {
          "indexed": true,
          "internalType": "address",
          "name": "pool",
          "type": "address"
        },
        {
          "indexed": true,
          "internalType": "address",
          "name": "recipient",
          "type": "address"
        },
        {
          "indexed": true,
          "internalType": "uint256",
          "name": "positionId",
          "type": "uint256"
        },
        {
          "indexed": false,
          "internalType": "uint256",
          "name": "amount0",
          "type": "uint256"
        },
        {
          "indexed": false,
          "internalType": "uint256",
          "name": "amount1",
          "type": "uint256"
        }
      ],
      "name": "CollectFee",
      "type": "event"
    },
    {
      "anonymous": false,
      "inputs": [
        {
          "indexed": true,
          "internalType": "address",
          "name": "pool",
          "type": "address"
        },
        {
          "indexed": true,
          "internalType": "address",
          "name": "owner",
          "type": "address"
        },
        {
          "indexed": true,
          "internalType": "uint256",
          "name": "positionId",
          "type": "uint256"
        },
        {
          "indexed": false,
          "internalType": "uint256",
          "name": "amount0",
          "type": "uint256"
        },
        {
          "indexed": false,
          "internalType": "uint256",
          "name": "amount1",
          "type": "uint256"
        },
        {
          "indexed": false,
          "internalType": "uint128",
          "name": "liquidity",
          "type": "uint128"
        }
      ],
      "name": "DecreaseLiquidity",
      "type": "event"
    },
    {
      "anonymous": false,
      "inputs": [
        {
          "indexed": true,
          "internalType": "address",
          "name": "pool",
          "type": "address"
        },
        {
          "indexed": true,
          "internalType": "address",
          "name": "owner",
          "type": "address"
        },
        {
          "indexed": true,
          "internalType": "uint256",
          "name": "positionId",
          "type": "uint256"
        },
        {
          "indexed": false,
          "internalType": "uint256",
          "name": "amount0",
          "type": "uint256"
        },
        {
          "indexed": false,
          "internalType": "uint256",
          "name": "amount1",
          "type": "uint256"
        },
        {
          "indexed": false,
          "internalType": "uint128",
          "name": "liquidity",
          "type": "uint128"
        }
      ],
      "name": "IncreaseLiquidity",
      "type": "event"
    },
    {
      "anonymous": false,
      "inputs": [
        {
          "indexed": true,
          "internalType": "address",
          "name": "from",
          "type": "address"
        },
        {
          "indexed": true,
          "internalType": "address",
          "name": "to",
          "type": "address"
        },
        {
          "indexed": true,
          "internalType": "uint256",
          "name": "tokenId",
          "type": "uint256"
        }
      ],
      "name": "Transfer",
      "type": "event"
    },
    {
      "inputs": [],
      "name": "DOMAIN_SEPARATOR",
      "outputs": [
        {
          "internalType": "bytes32",
          "name": "domainSeperator",
          "type": "bytes32"
        }
      ],
      "stateMutability": "view",
      "type": "function"
    },
    {
      "inputs": [],
      "name": "PERMIT_ALL_TYPEHASH",
      "outputs": [
        {
          "internalType": "bytes32",
          "name": "",
          "type": "bytes32"
        }
      ],
      "stateMutability": "view",
      "type": "function"
    },
    {
      "inputs": [],
      "name": "PERMIT_TYPEHASH",
      "outputs": [
        {
          "internalType": "bytes32",
          "name": "",
          "type": "bytes32"
        }
      ],
      "stateMutability": "view",
      "type": "function"
    },
    {
      "inputs": [
        {
          "internalType": "address",
          "name": "to",
          "type": "address"
        },
        {
          "internalType": "uint256",
          "name": "tokenId",
          "type": "uint256"
        }
      ],
      "name": "approve",
      "outputs": [],
      "stateMutability": "nonpayable",
      "type": "function"
    },
    {
      "inputs": [
        {
          "internalType": "address",
          "name": "owner",
          "type": "address"
        }
      ],
      "name": "balanceOf",
      "outputs": [
        {
          "internalType": "uint256",
          "name": "",
          "type": "uint256"
        }
      ],
      "stateMutability": "view",
      "type": "function"
    },
    {
      "inputs": [
        {
          "internalType": "uint256",
          "name": "positionId",
          "type": "uint256"
        },
        {
          "internalType": "uint128",
          "name": "amount",
          "type": "uint128"
        },
        {
          "internalType": "address",
          "name": "recipient",
          "type": "address"
        },
        {
          "internalType": "uint256",
          "name": "minimumOut0",
          "type": "uint256"
        },
        {
          "internalType": "uint256",
          "name": "minimumOut1",
          "type": "uint256"
        },
        {
          "internalType": "bool",
          "name": "unwrap",
          "type": "bool"
        }
      ],
      "name": "burn",
      "outputs": [
        {
          "internalType": "uint256",
          "name": "token0Amount",
          "type": "uint256"
        },
        {
          "internalType": "uint256",
          "name": "token1Amount",
          "type": "uint256"
        }
      ],
      "stateMutability": "nonpayable",
      "type": "function"
    },
    {
      "inputs": [
        {
          "internalType": "uint256",
          "name": "positionId",
          "type": "uint256"
        },
        {
          "internalType": "address",
          "name": "recipient",
          "type": "address"
        },
        {
          "internalType": "bool",
          "name": "unwrap",
          "type": "bool"
        }
      ],
      "name": "collect",
      "outputs": [
        {
          "internalType": "uint256",
          "name": "token0amount",
          "type": "uint256"
        },
        {
          "internalType": "uint256",
          "name": "token1amount",
          "type": "uint256"
        }
      ],
      "stateMutability": "nonpayable",
      "type": "function"
    },
    {
      "inputs": [
        {
          "internalType": "uint256",
          "name": "tokenId",
          "type": "uint256"
        }
      ],
      "name": "exists",
      "outputs": [
        {
          "internalType": "bool",
          "name": "",
          "type": "bool"
        }
      ],
      "stateMutability": "view",
      "type": "function"
    },
    {
      "inputs": [
        {
          "internalType": "uint256",
          "name": "tokenId",
          "type": "uint256"
        }
      ],
      "name": "getApproved",
      "outputs": [
        {
          "internalType": "address",
          "name": "",
          "type": "address"
        }
      ],
      "stateMutability": "view",
      "type": "function"
    },
    {
      "inputs": [
        {
          "internalType": "address",
          "name": "_masterDeployer",
          "type": "address"
        },
        {
          "internalType": "address",
          "name": "_wETH",
          "type": "address"
        }
      ],
      "name": "initialize",
      "outputs": [],
      "stateMutability": "nonpayable",
      "type": "function"
    },
    {
      "inputs": [
        {
          "internalType": "address",
          "name": "owner",
          "type": "address"
        },
        {
          "internalType": "address",
          "name": "operator",
          "type": "address"
        }
      ],
      "name": "isApprovedForAll",
      "outputs": [
        {
          "internalType": "bool",
          "name": "",
          "type": "bool"
        }
      ],
      "stateMutability": "view",
      "type": "function"
    },
    {
      "inputs": [],
      "name": "masterDeployer",
      "outputs": [
        {
          "internalType": "contract IMasterDeployer",
          "name": "",
          "type": "address"
        }
      ],
      "stateMutability": "view",
      "type": "function"
    },
    {
      "inputs": [
        {
          "internalType": "address",
          "name": "pool",
          "type": "address"
        },
        {
          "internalType": "int24",
          "name": "lowerOld",
          "type": "int24"
        },
        {
          "internalType": "int24",
          "name": "lower",
          "type": "int24"
        },
        {
          "internalType": "int24",
          "name": "upperOld",
          "type": "int24"
        },
        {
          "internalType": "int24",
          "name": "upper",
          "type": "int24"
        },
        {
          "internalType": "uint128",
          "name": "amount0Desired",
          "type": "uint128"
        },
        {
          "internalType": "uint128",
          "name": "amount1Desired",
          "type": "uint128"
        },
        {
          "internalType": "uint256",
          "name": "minLiquidity",
          "type": "uint256"
        },
        {
          "internalType": "uint256",
          "name": "positionId",
          "type": "uint256"
        }
      ],
      "name": "mint",
      "outputs": [
        {
          "internalType": "uint256",
          "name": "_positionId",
          "type": "uint256"
        }
      ],
      "stateMutability": "nonpayable",
      "type": "function"
    },
    {
      "inputs": [
        {
          "internalType": "address",
          "name": "token0",
          "type": "address"
        },
        {
          "internalType": "address",
          "name": "token1",
          "type": "address"
        },
        {
          "internalType": "uint256",
          "name": "amount0",
          "type": "uint256"
        },
        {
          "internalType": "uint256",
          "name": "amount1",
          "type": "uint256"
        }
      ],
      "name": "mintCallback",
      "outputs": [],
      "stateMutability": "nonpayable",
      "type": "function"
    },
    {
      "inputs": [
        {
          "internalType": "address",
          "name": "pool",
          "type": "address"
        },
        {
          "internalType": "int24",
          "name": "lowerOld",
          "type": "int24"
        },
        {
          "internalType": "int24",
          "name": "lower",
          "type": "int24"
        },
        {
          "internalType": "int24",
          "name": "upperOld",
          "type": "int24"
        },
        {
          "internalType": "int24",
          "name": "upper",
          "type": "int24"
        },
        {
          "internalType": "uint128",
          "name": "amountDesired",
          "type": "uint128"
        },
        {
          "internalType": "uint256",
          "name": "minLiquidity",
          "type": "uint256"
        },
        {
          "internalType": "uint256",
          "name": "positionId",
          "type": "uint256"
        }
      ],
      "name": "mintNative",
      "outputs": [
        {
          "internalType": "uint256",
          "name": "_positionId",
          "type": "uint256"
        }
      ],
      "stateMutability": "payable",
      "type": "function"
    },
    {
      "inputs": [
        {
          "internalType": "bytes[]",
          "name": "data",
          "type": "bytes[]"
        }
      ],
      "name": "multicall",
      "outputs": [
        {
          "internalType": "bytes[]",
          "name": "results",
          "type": "bytes[]"
        }
      ],
      "stateMutability": "payable",
      "type": "function"
    },
    {
      "inputs": [],
      "name": "name",
      "outputs": [
        {
          "internalType": "string",
          "name": "",
          "type": "string"
        }
      ],
      "stateMutability": "view",
      "type": "function"
    },
    {
      "inputs": [],
      "name": "nftCount",
      "outputs": [
        {
          "internalType": "uint128",
          "name": "minted",
          "type": "uint128"
        },
        {
          "internalType": "uint128",
          "name": "burned",
          "type": "uint128"
        }
      ],
      "stateMutability": "view",
      "type": "function"
    },
    {
      "inputs": [
        {
          "internalType": "uint256",
          "name": "",
          "type": "uint256"
        }
      ],
      "name": "nonces",
      "outputs": [
        {
          "internalType": "uint256",
          "name": "",
          "type": "uint256"
        }
      ],
      "stateMutability": "view",
      "type": "function"
    },
    {
      "inputs": [
        {
          "internalType": "address",
          "name": "",
          "type": "address"
        }
      ],
      "name": "noncesForAll",
      "outputs": [
        {
          "internalType": "uint256",
          "name": "",
          "type": "uint256"
        }
      ],
      "stateMutability": "view",
      "type": "function"
    },
    {
      "inputs": [
        {
          "internalType": "uint256",
          "name": "tokenId",
          "type": "uint256"
        }
      ],
      "name": "ownerOf",
      "outputs": [
        {
          "internalType": "address",
          "name": "",
          "type": "address"
        }
      ],
      "stateMutability": "view",
      "type": "function"
    },
    {
      "inputs": [
        {
          "internalType": "address",
          "name": "spender",
          "type": "address"
        },
        {
          "internalType": "uint256",
          "name": "tokenId",
          "type": "uint256"
        },
        {
          "internalType": "uint256",
          "name": "deadline",
          "type": "uint256"
        },
        {
          "internalType": "uint8",
          "name": "v",
          "type": "uint8"
        },
        {
          "internalType": "bytes32",
          "name": "r",
          "type": "bytes32"
        },
        {
          "internalType": "bytes32",
          "name": "s",
          "type": "bytes32"
        }
      ],
      "name": "permit",
      "outputs": [],
      "stateMutability": "nonpayable",
      "type": "function"
    },
    {
      "inputs": [
        {
          "internalType": "address",
          "name": "owner",
          "type": "address"
        },
        {
          "internalType": "address",
          "name": "operator",
          "type": "address"
        },
        {
          "internalType": "uint256",
          "name": "deadline",
          "type": "uint256"
        },
        {
          "internalType": "uint8",
          "name": "v",
          "type": "uint8"
        },
        {
          "internalType": "bytes32",
          "name": "r",
          "type": "bytes32"
        },
        {
          "internalType": "bytes32",
          "name": "s",
          "type": "bytes32"
        }
      ],
      "name": "permitAll",
      "outputs": [],
      "stateMutability": "nonpayable",
      "type": "function"
    },
    {
      "inputs": [
        {
          "internalType": "uint256",
          "name": "positionId",
          "type": "uint256"
        }
      ],
      "name": "positionFees",
      "outputs": [
        {
          "internalType": "uint256",
          "name": "token0amount",
          "type": "uint256"
        },
        {
          "internalType": "uint256",
          "name": "token1amount",
          "type": "uint256"
        },
        {
          "internalType": "uint256",
          "name": "feeGrowthInside0",
          "type": "uint256"
        },
        {
          "internalType": "uint256",
          "name": "feeGrowthInside1",
          "type": "uint256"
        }
      ],
      "stateMutability": "view",
      "type": "function"
    },
    {
      "inputs": [
        {
          "internalType": "uint256",
          "name": "",
          "type": "uint256"
        }
      ],
      "name": "positions",
      "outputs": [
        {
          "internalType": "address",
          "name": "pool",
          "type": "address"
        },
        {
          "internalType": "uint128",
          "name": "liquidity",
          "type": "uint128"
        },
        {
          "internalType": "int24",
          "name": "lower",
          "type": "int24"
        },
        {
          "internalType": "int24",
          "name": "upper",
          "type": "int24"
        },
        {
          "internalType": "uint32",
          "name": "latestAddition",
          "type": "uint32"
        },
        {
          "internalType": "uint256",
          "name": "feeGrowthInside0",
          "type": "uint256"
        },
        {
          "internalType": "uint256",
          "name": "feeGrowthInside1",
          "type": "uint256"
        },
        {
          "internalType": "uint256",
          "name": "feeOwed0",
          "type": "uint256"
        },
        {
          "internalType": "uint256",
          "name": "feeOwed1",
          "type": "uint256"
        }
      ],
      "stateMutability": "view",
      "type": "function"
    },
    {
      "inputs": [
        {
          "internalType": "address",
          "name": "from",
          "type": "address"
        },
        {
          "internalType": "address",
          "name": "to",
          "type": "address"
        },
        {
          "internalType": "uint256",
          "name": "tokenId",
          "type": "uint256"
        }
      ],
      "name": "safeTransferFrom",
      "outputs": [],
      "stateMutability": "nonpayable",
      "type": "function"
    },
    {
      "inputs": [
        {
          "internalType": "address",
          "name": "from",
          "type": "address"
        },
        {
          "internalType": "address",
          "name": "to",
          "type": "address"
        },
        {
          "internalType": "uint256",
          "name": "tokenId",
          "type": "uint256"
        },
        {
          "internalType": "bytes",
          "name": "_data",
          "type": "bytes"
        }
      ],
      "name": "safeTransferFrom",
      "outputs": [],
      "stateMutability": "nonpayable",
      "type": "function"
    },
    {
      "inputs": [
        {
          "internalType": "address",
          "name": "operator",
          "type": "address"
        },
        {
          "internalType": "bool",
          "name": "approved",
          "type": "bool"
        }
      ],
      "name": "setApprovalForAll",
      "outputs": [],
      "stateMutability": "nonpayable",
      "type": "function"
    },
    {
      "inputs": [
        {
          "internalType": "address",
          "name": "_descriptor",
          "type": "address"
        }
      ],
      "name": "setDescriptor",
      "outputs": [],
      "stateMutability": "nonpayable",
      "type": "function"
    },
    {
      "inputs": [
        {
          "internalType": "bytes4",
          "name": "interfaceId",
          "type": "bytes4"
        }
      ],
      "name": "supportsInterface",
      "outputs": [
        {
          "internalType": "bool",
          "name": "",
          "type": "bool"
        }
      ],
      "stateMutability": "view",
      "type": "function"
    },
    {
      "inputs": [],
      "name": "symbol",
      "outputs": [
        {
          "internalType": "string",
          "name": "",
          "type": "string"
        }
      ],
      "stateMutability": "view",
      "type": "function"
    },
    {
      "inputs": [
        {
          "internalType": "uint256",
          "name": "index",
          "type": "uint256"
        }
      ],
      "name": "tokenByIndex",
      "outputs": [
        {
          "internalType": "uint256",
          "name": "",
          "type": "uint256"
        }
      ],
      "stateMutability": "view",
      "type": "function"
    },
    {
      "inputs": [
        {
          "internalType": "address",
          "name": "owner",
          "type": "address"
        },
        {
          "internalType": "uint256",
          "name": "index",
          "type": "uint256"
        }
      ],
      "name": "tokenOfOwnerByIndex",
      "outputs": [
        {
          "internalType": "uint256",
          "name": "",
          "type": "uint256"
        }
      ],
      "stateMutability": "view",
      "type": "function"
    },
    {
      "inputs": [
        {
          "internalType": "uint256",
          "name": "tokenId",
          "type": "uint256"
        }
      ],
      "name": "tokenURI",
      "outputs": [
        {
          "internalType": "string",
          "name": "",
          "type": "string"
        }
      ],
      "stateMutability": "view",
      "type": "function"
    },
    {
      "inputs": [],
      "name": "totalSupply",
      "outputs": [
        {
          "internalType": "uint256",
          "name": "",
          "type": "uint256"
        }
      ],
      "stateMutability": "view",
      "type": "function"
    },
    {
      "inputs": [
        {
          "internalType": "address",
          "name": "from",
          "type": "address"
        },
        {
          "internalType": "address",
          "name": "to",
          "type": "address"
        },
        {
          "internalType": "uint256",
          "name": "tokenId",
          "type": "uint256"
        }
      ],
      "name": "transferFrom",
      "outputs": [],
      "stateMutability": "nonpayable",
      "type": "function"
    }
  ],
  "transactionHash": "0x9ae0ade01e61a966b5bb6377e12367b86a5f56823630b6aadba0e2883ce0bd44",
  "args": [],
  "numDeployments": 3,
  "solcInputHash": "bea6fd0fa288386a78ee9cb30dd22d61",
  "bytecode": "0x6080604052610101805460016001600160a01b0319918216811790925561010280549091169091179055600061010381905561010455610105805460ff1916905534801561004c57600080fd5b506158cf806200005d6000396000f3fe60806040526004361061024f5760003560e01c80636352211e11610138578063aba07847116100b0578063b88d4fde1161007f578063cf58879a11610064578063cf58879a146107d2578063e985e9c5146107f3578063ed7bba9a1461083c57600080fd5b8063b88d4fde14610792578063c87b56dd146107b257600080fd5b8063aba07847146106fe578063ac9650d81461071e578063b4e13c8d1461073e578063b70d2ea61461077257600080fd5b8063904dfb8e1161010757806399fbab88116100ec57806399fbab88146105d3578063a214fa6b146106be578063a22cb465146106de57600080fd5b8063904dfb8e1461059157806395d89b41146105be57600080fd5b80636352211e146104fc57806370a082311461051c5780637ac2ff7b1461053c5780638c6ab0131461055c57600080fd5b806323b872dd116101cb57806342842e0e1161019a5780634f558e791161017f5780634f558e791461049c5780634f6ccce7146104bc5780635f16529a146104dc57600080fd5b806342842e0e1461045c578063485cc9551461047c57600080fd5b806323b872dd146103d35780632f745c59146103f357806330adf81f146104135780633644e5151461044757600080fd5b8063095ea7b311610222578063141a468c11610207578063141a468c1461037057806318160ddd146103ab5780631816ec77146103c057600080fd5b8063095ea7b3146103055780630af2c6ca1461032557600080fd5b806301b9a3971461025457806301ffc9a71461027657806306fdde03146102ab578063081812fc146102cd575b600080fd5b34801561026057600080fd5b5061027461026f366004614dd8565b61087c565b005b34801561028257600080fd5b50610296610291366004614e0b565b6108c9565b60405190151581526020015b60405180910390f35b3480156102b757600080fd5b506102c061090d565b6040516102a29190614e80565b3480156102d957600080fd5b506102ed6102e8366004614e93565b61099f565b6040516001600160a01b0390911681526020016102a2565b34801561031157600080fd5b50610274610320366004614eac565b610a4a565b34801561033157600080fd5b5060cc54610350906001600160801b0380821691600160801b90041682565b604080516001600160801b039384168152929091166020830152016102a2565b34801561037c57600080fd5b5061039d61038b366004614e93565b60cd6020526000908152604090205481565b6040519081526020016102a2565b3480156103b757600080fd5b5061039d610b7c565b61039d6103ce366004614efe565b610bac565b3480156103df57600080fd5b506102746103ee366004614f91565b611031565b3480156103ff57600080fd5b5061039d61040e366004614eac565b6110b8565b34801561041f57600080fd5b5061039d7f49ecf333e5b8c95c40fdafc95c1ad136e8914a8fb55e9dc8bb01eaa83a2df9ad81565b34801561045357600080fd5b5061039d611160565b34801561046857600080fd5b50610274610477366004614f91565b611273565b34801561048857600080fd5b50610274610497366004614fd2565b61128e565b3480156104a857600080fd5b506102966104b7366004614e93565b61140b565b3480156104c857600080fd5b5061039d6104d7366004614e93565b61142a565b3480156104e857600080fd5b506102746104f736600461500b565b6114ce565b34801561050857600080fd5b506102ed610517366004614e93565b611645565b34801561052857600080fd5b5061039d610537366004614dd8565b6116d0565b34801561054857600080fd5b50610274610557366004615062565b61176a565b34801561056857600080fd5b5061057c6105773660046150ca565b611a02565b604080519283526020830191909152016102a2565b34801561059d57600080fd5b5061039d6105ac366004614dd8565b60ce6020526000908152604090205481565b3480156105ca57600080fd5b506102c0611aa9565b3480156105df57600080fd5b5061065a6105ee366004614e93565b61010760205260009081526040902080546001820154600280840154600385015460048601546005909601546001600160a01b03909516956001600160801b03851695600160801b8604850b95600160981b810490950b94600160b01b900463ffffffff169392919089565b604080516001600160a01b03909a168a526001600160801b0390981660208a0152600296870b978901979097529390940b606087015263ffffffff909116608086015260a085015260c084019190915260e0830152610100820152610120016102a2565b3480156106ca57600080fd5b5061057c6106d936600461510c565b611ab8565b3480156106ea57600080fd5b506102746106f9366004615171565b611f0a565b34801561070a57600080fd5b5061027461071936600461519f565b611f19565b61073161072c3660046151e8565b612166565b6040516102a2919061525d565b34801561074a57600080fd5b5061039d7fdaab21af31ece73a508939fedd476a5ee5129a5ed4bb091f3236ffb45394df6281565b34801561077e57600080fd5b5061039d61078d3660046152dd565b6122be565b34801561079e57600080fd5b506102746107ad3660046153f0565b612569565b3480156107be57600080fd5b506102c06107cd366004614e93565b6125f1565b3480156107de57600080fd5b50610106546102ed906001600160a01b031681565b3480156107ff57600080fd5b5061029661080e366004614fd2565b6001600160a01b039182166000908152606a6020908152604080832093909416825291909152205460ff1690565b34801561084857600080fd5b5061085c610857366004614e93565b61268b565b6040805194855260208501939093529183015260608201526080016102a2565b60cb546001600160a01b031633146108a757604051631eb49d6d60e11b815260040160405180910390fd5b60cb80546001600160a01b0319166001600160a01b0392909216919091179055565b60006001600160e01b031982167f780e9d63000000000000000000000000000000000000000000000000000000001480610907575061090782612820565b92915050565b60606065805461091c9061549f565b80601f01602080910402602001604051908101604052809291908181526020018280546109489061549f565b80156109955780601f1061096a57610100808354040283529160200191610995565b820191906000526020600020905b81548152906001019060200180831161097857829003601f168201915b5050505050905090565b6000818152606760205260408120546001600160a01b0316610a2e5760405162461bcd60e51b815260206004820152602c60248201527f4552433732313a20617070726f76656420717565727920666f72206e6f6e657860448201527f697374656e7420746f6b656e000000000000000000000000000000000000000060648201526084015b60405180910390fd5b506000908152606960205260409020546001600160a01b031690565b6000610a5582611645565b9050806001600160a01b0316836001600160a01b03161415610adf5760405162461bcd60e51b815260206004820152602160248201527f4552433732313a20617070726f76616c20746f2063757272656e74206f776e6560448201527f72000000000000000000000000000000000000000000000000000000000000006064820152608401610a25565b336001600160a01b0382161480610afb5750610afb813361080e565b610b6d5760405162461bcd60e51b815260206004820152603860248201527f4552433732313a20617070726f76652063616c6c6572206973206e6f74206f7760448201527f6e6572206e6f7220617070726f76656420666f7220616c6c00000000000000006064820152608401610a25565b610b7783836128bb565b505050565b60cc54600090610b9e906001600160801b03600160801b8204811691166154f0565b6001600160801b0316905090565b6000600260cf541415610c015760405162461bcd60e51b815260206004820152601f60248201527f5265656e7472616e637947756172643a207265656e7472616e742063616c6c006044820152606401610a25565b600260cf55610106546040517fa4063dbc0000000000000000000000000000000000000000000000000000000081526001600160a01b03808c1660048301528b92169063a4063dbc9060240160206040518083038186803b158015610c6557600080fd5b505afa158015610c79573d6000803e3d6000fd5b505050506040513d601f19601f82011682018060405250810190610c9d9190615518565b8015610db1575061010660009054906101000a90046001600160a01b03166001600160a01b0316636f50f2f4826001600160a01b031663c45a01556040518163ffffffff1660e01b815260040160206040518083038186803b158015610d0257600080fd5b505afa158015610d16573d6000803e3d6000fd5b505050506040513d601f19601f82011682018060405250810190610d3a9190615535565b6040516001600160e01b031960e084901b1681526001600160a01b03909116600482015260240160206040518083038186803b158015610d7957600080fd5b505afa158015610d8d573d6000803e3d6000fd5b505050506040513d601f19601f82011682018060405250810190610db19190615518565b610de7576040517f2083cd4000000000000000000000000000000000000000000000000000000000815260040160405180910390fd5b60008a905061010560019054906101000a90046001600160a01b03166001600160a01b0316816001600160a01b0316630dfe16816040518163ffffffff1660e01b815260040160206040518083038186803b158015610e4557600080fd5b505afa158015610e59573d6000803e3d6000fd5b505050506040513d601f19601f82011682018060405250810190610e7d9190615535565b6001600160a01b03161415610ef1576101018054336001600160a01b03199182161790915561010280549091166001600160a01b038d1617905534610103556001600160801b03861661010455610105805460ff19166001179055610ee9818b8b8b8b348c8c8c612929565b92505061101f565b61010560019054906101000a90046001600160a01b03166001600160a01b0316816001600160a01b031663d21220a76040518163ffffffff1660e01b815260040160206040518083038186803b158015610f4a57600080fd5b505afa158015610f5e573d6000803e3d6000fd5b505050506040513d601f19601f82011682018060405250810190610f829190615535565b6001600160a01b031614610fc2576040517f425c65bb00000000000000000000000000000000000000000000000000000000815260040160405180910390fd5b6101018054336001600160a01b03199182161790915561010280549091166001600160a01b038d161790556001600160801b038616610103553461010455610105805460ff19166001179055610ee9818b8b8b8b8b348c8c612929565b50600160cf5598975050505050505050565b61103b33826130d2565b6110ad5760405162461bcd60e51b815260206004820152603160248201527f4552433732313a207472616e736665722063616c6c6572206973206e6f74206f60448201527f776e6572206e6f7220617070726f7665640000000000000000000000000000006064820152608401610a25565b610b778383836131da565b60006110c3836116d0565b82106111375760405162461bcd60e51b815260206004820152602b60248201527f455243373231456e756d657261626c653a206f776e657220696e646578206f7560448201527f74206f6620626f756e64730000000000000000000000000000000000000000006064820152608401610a25565b506001600160a01b03919091166000908152609760209081526040808320938352929052205490565b600060ca54461461126c5750604080518082018252600a81527f50414e4745412d504f530000000000000000000000000000000000000000000060209182015281518083018352600181527f31000000000000000000000000000000000000000000000000000000000000009082015281517f8b73c3c69bb8fe3d512ecc4cf759cc79239f7b179b0ffacaa9a75d522b39400f818301527f16d34b8f23ef02572737473f7ba87ffe21ee45c6bbade7dae4039edd04580f63818401527fc89efdaa54c0f20c7adf612882df0950f5a951637e0307cdcb4c672f298b8bc660608201524660808201523060a0808301919091528351808303909101815260c0909101909252815191012090565b5060c95490565b610b7783838360405180602001604052806000815250612569565b600054610100900460ff166112a95760005460ff16156112ad565b303b155b61131f5760405162461bcd60e51b815260206004820152602e60248201527f496e697469616c697a61626c653a20636f6e747261637420697320616c72656160448201527f647920696e697469616c697a65640000000000000000000000000000000000006064820152608401610a25565b600054610100900460ff1615801561135e57600080547fffffffffffffffffffffffffffffffffffffffffffffffffffffffffffff0000166101011790555b6113666133b2565b61136e61353a565b61010680546001600160a01b038086166001600160a01b03199283161790925560cb8054909116331790556101058054918416610100027fffffffffffffffffffffff0000000000000000000000000000000000000000ff9092169190911790556113d8306135ad565b8015610b7757600080547fffffffffffffffffffffffffffffffffffffffffffffffffffffffffffff00ff169055505050565b6000818152606760205260408120546001600160a01b03161515610907565b600061143560995490565b82106114a95760405162461bcd60e51b815260206004820152602c60248201527f455243373231456e756d657261626c653a20676c6f62616c20696e646578206f60448201527f7574206f6620626f756e647300000000000000000000000000000000000000006064820152608401610a25565b609982815481106114bc576114bc615552565b90600052602060002001549050919050565b610102546001600160a01b03163314611513576040517f2ddb0d4000000000000000000000000000000000000000000000000000000000815260040160405180910390fd5b6101055460ff1680156115395750610105546001600160a01b0385811661010090920416145b15611573576115483383613601565b610101546101035461156e916001600160a01b031690611569908590615568565b613686565b61158d565b6101015461158d9085906001600160a01b03163385613729565b6101055460ff1680156115b35750610105546001600160a01b0384811661010090920416145b156115e8576115c23382613601565b61010154610104546115e3916001600160a01b031690611569908490615568565b611602565b610101546116029084906001600160a01b03163384613729565b610101805460016001600160a01b0319918216811790925561010280549091169091179055600061010381905561010455610105805460ff191690555b50505050565b6000818152606760205260408120546001600160a01b0316806109075760405162461bcd60e51b815260206004820152602960248201527f4552433732313a206f776e657220717565727920666f72206e6f6e657869737460448201527f656e7420746f6b656e00000000000000000000000000000000000000000000006064820152608401610a25565b60006001600160a01b03821661174e5760405162461bcd60e51b815260206004820152602a60248201527f4552433732313a2062616c616e636520717565727920666f7220746865207a6560448201527f726f2061646472657373000000000000000000000000000000000000000000006064820152608401610a25565b506001600160a01b031660009081526068602052604090205490565b428410156117ba5760405162461bcd60e51b815260206004820152601760248201527f5045524d49545f444541444c494e455f455850495245440000000000000000006044820152606401610a25565b60006117c586611645565b905060006117d1611160565b600088815260cd602090815260409182902080546001810190915582517f49ecf333e5b8c95c40fdafc95c1ad136e8914a8fb55e9dc8bb01eaa83a2df9ad818401526001600160a01b038d1681850152606081018c9052608081019190915260a08082018b90528351808303909101815260c08201909352825192909101919091207f190100000000000000000000000000000000000000000000000000000000000060e083015260e28201929092526101028101919091526101220160408051601f198184030181528282528051602091820120600080855291840180845281905260ff89169284019290925260608301879052608083018690529092509060019060a0016020604051602081039080840390855afa1580156118f9573d6000803e3d6000fd5b5050604051601f1901519150506001600160a01b03811661195c5760405162461bcd60e51b815260206004820152601860248201527f494e56414c49445f5045524d49545f5349474e415455524500000000000000006044820152606401610a25565b826001600160a01b0316816001600160a01b031614806119a157506001600160a01b038084166000908152606a602090815260408083209385168352929052205460ff165b6119ed5760405162461bcd60e51b815260206004820152600e60248201527f494e56414c49445f5349474e45520000000000000000000000000000000000006044820152606401610a25565b50506119f987876128bb565b50505050505050565b600080600260cf541415611a585760405162461bcd60e51b815260206004820152601f60248201527f5265656e7472616e637947756172643a207265656e7472616e742063616c6c006044820152606401610a25565b600260cf55611a6733866130d2565b611a8457604051631eb49d6d60e11b815260040160405180910390fd5b611a8d8561373e565b611a9885858561377f565b600160cf5590969095509350505050565b60606066805461091c9061549f565b600080600260cf541415611b0e5760405162461bcd60e51b815260206004820152601f60248201527f5265656e7472616e637947756172643a207265656e7472616e742063616c6c006044820152606401610a25565b600260cf55611b1d33896130d2565b611b3a57604051631eb49d6d60e11b815260040160405180910390fd5b6000888152610107602090815260409182902082516101208101845281546001600160a01b0316815260018201546001600160801b03811693820193909352600160801b8304600290810b94820194909452600160981b8304840b6060820152600160b01b90920463ffffffff1660808301529182015460a0820152600382015460c0820152600482015460e0820152600590910154610100820152611bdf8961373e565b80602001516001600160801b0316886001600160801b03161015611d0f578051604080830151606084015191517fa34123a7000000000000000000000000000000000000000000000000000000008152600291820b600482015291900b60248201526001600160801b038a1660448201526001600160a01b039091169063a34123a7906064016040805180830381600087803b158015611c7e57600080fd5b505af1158015611c92573d6000803e3d6000fd5b505050506040513d601f19601f82011682018060405250810190611cb6919061557f565b60008b81526101076020526040812060010180549396509194508a92611ce69084906001600160801b03166154f0565b92506101000a8154816001600160801b0302191690836001600160801b03160217905550611e4a565b60208101518151604080840151606085015191517fa34123a7000000000000000000000000000000000000000000000000000000008152600291820b600482015291900b60248201526001600160801b03831660448201529199506001600160a01b03169063a34123a7906064016040805180830381600087803b158015611d9657600080fd5b505af1158015611daa573d6000803e3d6000fd5b505050506040513d601f19601f82011682018060405250810190611dce919061557f565b9093509150611dde89888661377f565b5050611de9896138de565b60008981526101076020526040812080546001600160a01b03191681556001810180547fffffffffffff0000000000000000000000000000000000000000000000000000169055600281018290556003810182905560048101829055600501555b85831080611e5757508482105b15611e8e576040517fc9f52c7100000000000000000000000000000000000000000000000000000000815260040160405180910390fd5b8051611e9d908885858861392c565b805160408051858152602081018590526001600160801b038b168183015290518b9233926001600160a01b03909116917f7a7cc3d6e9116c317f33888a57dd914fae984c233de0802abd7ea1f7eda6bb629181900360600190a450600160cf559097909650945050505050565b611f15338383613a96565b5050565b42841015611f695760405162461bcd60e51b815260206004820152601760248201527f5045524d49545f444541444c494e455f455850495245440000000000000000006044820152606401610a25565b6000611f73611160565b6001600160a01b03888116600081815260ce602090815260409182902080546001810190915582517fdaab21af31ece73a508939fedd476a5ee5129a5ed4bb091f3236ffb45394df628184015280840194909452938b166060840152608083019390935260a08083018a90528151808403909101815260c0830190915280519201919091207f190100000000000000000000000000000000000000000000000000000000000060e083015260e28201929092526101028101919091526101220160408051601f198184030181528282528051602091820120600080855291840180845281905260ff88169284019290925260608301869052608083018590529092509060019060a0016020604051602081039080840390855afa15801561209e573d6000803e3d6000fd5b5050604051601f1901519150506001600160a01b038116158015906120d45750876001600160a01b0316816001600160a01b0316145b8061210457506001600160a01b038089166000908152606a602090815260408083209385168352929052205460ff165b6121505760405162461bcd60e51b815260206004820152601860248201527f494e56414c49445f5045524d49545f5349474e415455524500000000000000006044820152606401610a25565b505061215e86866001613a96565b505050505050565b60608167ffffffffffffffff81111561218157612181615381565b6040519080825280602002602001820160405280156121b457816020015b606081526020019060019003908161219f5790505b50905060005b828110156122b757600080308686858181106121d8576121d8615552565b90506020028101906121ea91906155a3565b6040516121f892919061560f565b600060405180830381855af49150503d8060008114612233576040519150601f19603f3d011682016040523d82523d6000602084013e612238565b606091505b5091509150816122845760448151101561225157600080fd5b6004810190508080602001905181019061226b919061561f565b60405162461bcd60e51b8152600401610a259190614e80565b8084848151811061229757612297615552565b6020026020010181905250505080806122af9061568d565b9150506121ba565b5092915050565b6000600260cf5414156123135760405162461bcd60e51b815260206004820152601f60248201527f5265656e7472616e637947756172643a207265656e7472616e742063616c6c006044820152606401610a25565b600260cf55610106546040517fa4063dbc0000000000000000000000000000000000000000000000000000000081526001600160a01b03808d1660048301528c92169063a4063dbc9060240160206040518083038186803b15801561237757600080fd5b505afa15801561238b573d6000803e3d6000fd5b505050506040513d601f19601f820116820180604052508101906123af9190615518565b80156124c3575061010660009054906101000a90046001600160a01b03166001600160a01b0316636f50f2f4826001600160a01b031663c45a01556040518163ffffffff1660e01b815260040160206040518083038186803b15801561241457600080fd5b505afa158015612428573d6000803e3d6000fd5b505050506040513d601f19601f8201168201806040525081019061244c9190615535565b6040516001600160e01b031960e084901b1681526001600160a01b03909116600482015260240160206040518083038186803b15801561248b57600080fd5b505afa15801561249f573d6000803e3d6000fd5b505050506040513d601f19601f820116820180604052508101906124c39190615518565b6124f9576040517f2083cd4000000000000000000000000000000000000000000000000000000000815260040160405180910390fd5b6101018054336001600160a01b03199182161790915561010280549091166001600160a01b038d161790556001600160801b0380871661010355851661010455610105805460ff191690556125558b8b8b8b8b8b8b8b8b612929565b600160cf559b9a5050505050505050505050565b61257333836130d2565b6125e55760405162461bcd60e51b815260206004820152603160248201527f4552433732313a207472616e736665722063616c6c6572206973206e6f74206f60448201527f776e6572206e6f7220617070726f7665640000000000000000000000000000006064820152608401610a25565b61163f84848484613b65565b60cb546040517fc87b56dd000000000000000000000000000000000000000000000000000000008152600481018390526060916001600160a01b03169063c87b56dd9060240160006040518083038186803b15801561264f57600080fd5b505afa158015612663573d6000803e3d6000fd5b505050506040513d6000823e601f3d908101601f19168201604052610907919081019061561f565b60008181526101076020908152604080832081516101208101835281546001600160a01b031680825260018301546001600160801b03811695830195909552600160801b8504600290810b838601819052600160981b8704820b60608501819052600160b01b90970463ffffffff1660808501529084015460a0840152600384015460c084015260048085015460e085015260059094015461010084015293517facfe88f800000000000000000000000000000000000000000000000000000000815292830193909352602482019390935283928392839263acfe88f890604401604080518083038186803b15801561278357600080fd5b505afa158015612797573d6000803e3d6000fd5b505050506040513d601f19601f820116820180604052508101906127bb919061557f565b80935081945050508060e001516127ea8260a00151850383602001516001600160801b0316600160801b613bee565b0194508061010001516128158260c00151840383602001516001600160801b0316600160801b613bee565b019350509193509193565b60006001600160e01b031982167f80ac58cd00000000000000000000000000000000000000000000000000000000148061288357506001600160e01b031982167f5b5e139f00000000000000000000000000000000000000000000000000000000145b8061090757507f01ffc9a7000000000000000000000000000000000000000000000000000000006001600160e01b0319831614610907565b600081815260696020526040902080546001600160a01b0319166001600160a01b03841690811790915581906128f082611645565b6001600160a01b03167f8c5be1e5ebec7d5bd14f71427d1e84f3dd0314c0f7b2291e5b200ac8c7c3b92560405160405180910390a45050565b6040517faf605c880000000000000000000000000000000000000000000000000000000081526001600160a01b038a166004820152600289810b602483015288810b604483015287810b606483015286900b6084820152600090732aA606944FbC53eBDF8C603E8ab88D2577eB4fa89063af605c889060a40160806040518083038186803b1580156129ba57600080fd5b505af41580156129ce573d6000803e3d6000fd5b505050506040513d601f19601f820116820180604052508101906129f291906156a8565b6040805160c081018252600286810b825285810b6020830190815285820b83850190815285830b606085019081526001600160801b038f8116608087019081528f821660a0880190815297517f0ae9ba8a0000000000000000000000000000000000000000000000000000000081529651860b60048801529351850b60248701529151840b60448601525190920b60648401525181166084830152915190911660a4820152939c50919a50985096506000906001600160a01b038c1690630ae9ba8a9060c401602060405180830381600087803b158015612ad257600080fd5b505af1158015612ae6573d6000803e3d6000fd5b505050506040513d601f19601f82011682018060405250810190612b0a9190615707565b905083816001600160801b03161015612b4f576040517fc9f52c7100000000000000000000000000000000000000000000000000000000815260040160405180910390fd5b82612d895760cc546040517facfe88f800000000000000000000000000000000000000000000000000000000815260028b810b600483015289900b60248201526001600160801b03909116925060009081906001600160a01b038e169063acfe88f890604401604080518083038186803b158015612bcc57600080fd5b505afa158015612be0573d6000803e3d6000fd5b505050506040513d601f19601f82011682018060405250810190612c04919061557f565b915091506040518061012001604052808e6001600160a01b03168152602001846001600160801b031681526020018c60020b81526020018a60020b81526020014263ffffffff168152602001838152602001828152602001600081526020016000815250610107600086815260200190815260200160002060008201518160000160006101000a8154816001600160a01b0302191690836001600160a01b0316021790555060208201518160010160006101000a8154816001600160801b0302191690836001600160801b0316021790555060408201518160010160106101000a81548162ffffff021916908360020b62ffffff16021790555060608201518160010160136101000a81548162ffffff021916908360020b62ffffff16021790555060808201518160010160166101000a81548163ffffffff021916908363ffffffff16021790555060a0820151816002015560c0820151816003015560e082015181600401556101008201518160050155905050612d82336135ad565b5050612ef7565b60008381526101076020526040902080548493506001600160a01b038d8116911614612de1576040517f9840420600000000000000000000000000000000000000000000000000000000815260040160405180910390fd5b600181015460028b810b600160801b909204900b141580612e1457506001810154600289810b600160981b909204900b14155b15612e4b576040517f2baa8efe00000000000000000000000000000000000000000000000000000000815260040160405180910390fd5b612e5533846130d2565b612e7257604051631eb49d6d60e11b815260040160405180910390fd5b612e7b8361373e565b600181018054839190600090612e9b9084906001600160801b0316615720565b82546101009290920a6001600160801b038181021990931691909216919091021790555060010180547fffffffffffff00000000ffffffffffffffffffffffffffffffffffffffffffff16600160b01b4263ffffffff16021790555b60008281526101076020908152604080832081516101208101835281546001600160a01b0316815260018201546001600160801b03811694820194909452600160801b8404600290810b938201849052600160981b8504810b6060830152600160b01b90940463ffffffff1660808201529281015460a0840152600381015460c0840152600481015460e084015260050154610100830152909190819061304f90612fa190613ca2565b6001600160a01b0316612fb78560600151613ca2565b6001600160a01b031685600001516001600160a01b031663a035b1fe6040518163ffffffff1660e01b815260040160206040518083038186803b158015612ffd57600080fd5b505afa158015613011573d6000803e3d6000fd5b505050506040513d601f19601f820116820180604052508101906130359190615535565b6001600160a01b0316876001600160801b0316600161400a565b9150915084336001600160a01b03168f6001600160a01b03167fa0cbbe2e0e524c30e7105f393c94244cbc448c9a309724650d8ca7bb465f53958585896040516130b9939291906001600160801b0393841681529183166020830152909116604082015260600190565b60405180910390a4505050509998505050505050505050565b6000818152606760205260408120546001600160a01b031661315c5760405162461bcd60e51b815260206004820152602c60248201527f4552433732313a206f70657261746f7220717565727920666f72206e6f6e657860448201527f697374656e7420746f6b656e00000000000000000000000000000000000000006064820152608401610a25565b600061316783611645565b9050806001600160a01b0316846001600160a01b031614806131a25750836001600160a01b03166131978461099f565b6001600160a01b0316145b806131d257506001600160a01b038082166000908152606a602090815260408083209388168352929052205460ff165b949350505050565b826001600160a01b03166131ed82611645565b6001600160a01b0316146132695760405162461bcd60e51b815260206004820152602560248201527f4552433732313a207472616e736665722066726f6d20696e636f72726563742060448201527f6f776e65720000000000000000000000000000000000000000000000000000006064820152608401610a25565b6001600160a01b0382166132e45760405162461bcd60e51b8152602060048201526024808201527f4552433732313a207472616e7366657220746f20746865207a65726f2061646460448201527f72657373000000000000000000000000000000000000000000000000000000006064820152608401610a25565b6132ef838383614079565b6132fa6000826128bb565b6001600160a01b0383166000908152606860205260408120805460019290613323908490615568565b90915550506001600160a01b038216600090815260686020526040812080546001929061335190849061574b565b909155505060008181526067602052604080822080546001600160a01b0319166001600160a01b0386811691821790925591518493918716917fddf252ad1be2c89b69c2b068fc378daa952ba7f163c4a11628f55a4df523b3ef91a4505050565b6134266040518060400160405280600f81526020017f50616e67656120506f736974696f6e00000000000000000000000000000000008152506040518060400160405280600a81526020017f50414e4745412d504f5300000000000000000000000000000000000000000000815250614105565b4660ca5561352d604080518082018252600a81527f50414e4745412d504f530000000000000000000000000000000000000000000060209182015281518083018352600181527f31000000000000000000000000000000000000000000000000000000000000009082015281517f8b73c3c69bb8fe3d512ecc4cf759cc79239f7b179b0ffacaa9a75d522b39400f818301527f16d34b8f23ef02572737473f7ba87ffe21ee45c6bbade7dae4039edd04580f63818401527fc89efdaa54c0f20c7adf612882df0950f5a951637e0307cdcb4c672f298b8bc660608201524660808201523060a0808301919091528351808303909101815260c0909101909252815191012090565b60c95561353861417a565b565b600054610100900460ff166135a55760405162461bcd60e51b815260206004820152602b60248201527f496e697469616c697a61626c653a20636f6e7472616374206973206e6f74206960448201526a6e697469616c697a696e6760a81b6064820152608401610a25565b6135386141e5565b60cc80546135fe9183916001600160801b03169060006135cc83615763565b91906101000a8154816001600160801b0302191690836001600160801b031602179055506001600160801b0316614257565b50565b8061360a575050565b610105546040517fb760faf90000000000000000000000000000000000000000000000000000000081526001600160a01b0384811660048301526101009092049091169063b760faf99083906024016000604051808303818588803b15801561367257600080fd5b505af11580156119f9573d6000803e3d6000fd5b6000826001600160a01b03168260405160006040518083038185875af1925050503d80600081146136d3576040519150601f19603f3d011682016040523d82523d6000602084013e6136d8565b606091505b5050905080610b775760405162461bcd60e51b815260206004820152601360248201527f4554485f5452414e534645525f4641494c4544000000000000000000000000006044820152606401610a25565b61163f6001600160a01b0385168484846143a5565b60008060008061374d8561268b565b600098895261010760205260409098206004810193909355600583019190915560028201556003019490945550505050565b6000838152610107602052604080822080546001820154600480840154600585015495517f2df94b0f000000000000000000000000000000000000000000000000000000008152600160801b8404600290810b93820193909352600160981b90930490910b60248301526044820152606481019390935283926001600160a01b0390911690632df94b0f906084016040805180830381600087803b15801561382657600080fd5b505af115801561383a573d6000803e3d6000fd5b505050506040513d601f19601f8201168201806040525081019061385e919061557f565b600060048401819055600584015582549194509250613889906001600160a01b03168685858861392c565b8054604080518581526020810185905288926001600160a01b03898116939116917f31135c84c98c756a9a84c21b514d356a17967948475c29a83db0e94f6ea5d073910160405180910390a450935093915050565b60cc8054600160801b90046001600160801b03169060106138fe83615763565b91906101000a8154816001600160801b0302191690836001600160801b03160217905550506135fe8161443e565b6000856001600160a01b0316630dfe16816040518163ffffffff1660e01b815260040160206040518083038186803b15801561396757600080fd5b505afa15801561397b573d6000803e3d6000fd5b505050506040513d601f19601f8201168201806040525081019061399f9190615535565b610105549091506001600160a01b03808316610100909204161480156139c25750815b156139d6576139d185856144e5565b6139e1565b6139e1818686614570565b6000866001600160a01b031663d21220a76040518163ffffffff1660e01b815260040160206040518083038186803b158015613a1c57600080fd5b505afa158015613a30573d6000803e3d6000fd5b505050506040513d601f19601f82011682018060405250810190613a549190615535565b610105549091506001600160a01b0380831661010090920416148015613a775750825b15613a8b57613a8686856144e5565b6119f9565b6119f9818786614570565b816001600160a01b0316836001600160a01b03161415613af85760405162461bcd60e51b815260206004820152601960248201527f4552433732313a20617070726f766520746f2063616c6c6572000000000000006044820152606401610a25565b6001600160a01b038381166000818152606a6020908152604080832094871680845294825291829020805460ff191686151590811790915591519182527f17307eab39ab6107e8899845ad3d59bd9653f200f220920489ca2b5937696c31910160405180910390a3505050565b613b708484846131da565b613b7c84848484614584565b61163f5760405162461bcd60e51b815260206004820152603260248201527f4552433732313a207472616e7366657220746f206e6f6e20455243373231526560448201527f63656976657220696d706c656d656e74657200000000000000000000000000006064820152608401610a25565b600080806000198587098587029250828110838203039150508060001415613c285760008411613c1d57600080fd5b508290049050613c9b565b808411613c3457600080fd5b6000848688096000868103871696879004966002600389028118808a02820302808a02820302808a02820302808a02820302808a02820302808a02909103029181900381900460010186841190950394909402919094039290920491909117919091029150505b9392505050565b60008060008360020b12613cb9578260020b613cc6565b8260020b613cc690615780565b9050613cf17ffffffffffffffffffffffffffffffffffffffffffffffffffffffffffff276186157b9565b62ffffff16811115613d2f576040517ff87dc40c00000000000000000000000000000000000000000000000000000000815260040160405180910390fd5b600060018216613d4357600160801b613d55565b6ffffcb933bd6fad37aa2d162d1a5940015b70ffffffffffffffffffffffffffffffffff1690506002821615613d89576ffff97272373d413259a46990580e213a0260801c5b6004821615613da8576ffff2e50f5f656932ef12357cf3c7fdcc0260801c5b6008821615613dc7576fffe5caca7e10e4e61c3624eaa0941cd00260801c5b6010821615613de6576fffcb9843d60f6159c9db58835c9266440260801c5b6020821615613e05576fff973b41fa98c081472e6896dfb254c00260801c5b6040821615613e24576fff2ea16466c96a3843ec78b326b528610260801c5b6080821615613e43576ffe5dee046a99a2a811c461f1969c30530260801c5b610100821615613e63576ffcbe86c7900a88aedcffc83b479aa3a40260801c5b610200821615613e83576ff987a7253ac413176f2b074cf7815e540260801c5b610400821615613ea3576ff3392b0822b70005940c7a398e4b70f30260801c5b610800821615613ec3576fe7159475a2c29b7443b29c7fa6e889d90260801c5b611000821615613ee3576fd097f3bdfd2022b8845ad8f792aa58250260801c5b612000821615613f03576fa9f746462d870fdf8a65dc1f90e061e50260801c5b614000821615613f23576f70d869a156d2a1b890bb3df62baf32f70260801c5b618000821615613f43576f31be135f97d08fd981231505542fcfa60260801c5b62010000821615613f64576f09aa508b5b7a84e1c677de54f3e99bc90260801c5b62020000821615613f84576e5d6af8dedb81196699c329225ee6040260801c5b62040000821615613fa3576d2216e584f5fa1ea926041bedfe980260801c5b62080000821615613fc0576b048a170391f7dc42444e8fa20260801c5b60008460020b1315613fe1578060001981613fdd57613fdd6157f8565b0490505b640100000000810615613ff5576001613ff8565b60005b60ff16602082901c0192505050919050565b60008084861161402f5761402861402385898987614719565b614765565b905061406f565b86851161404c5761404561402385898987614780565b915061406f565b61405b61402385878987614780565b915061406c61402385898887614719565b90505b9550959350505050565b61dead6001600160a01b03831614156140fa5760405162461bcd60e51b815260206004820152602960248201527f4552433732313a207472616e7366657220746f20746865206b6c69702044454160448201527f44206164647265737300000000000000000000000000000000000000000000006064820152608401610a25565b610b778383836147d1565b600054610100900460ff166141705760405162461bcd60e51b815260206004820152602b60248201527f496e697469616c697a61626c653a20636f6e7472616374206973206e6f74206960448201526a6e697469616c697a696e6760a81b6064820152608401610a25565b611f158282614889565b600054610100900460ff166135385760405162461bcd60e51b815260206004820152602b60248201527f496e697469616c697a61626c653a20636f6e7472616374206973206e6f74206960448201526a6e697469616c697a696e6760a81b6064820152608401610a25565b600054610100900460ff166142505760405162461bcd60e51b815260206004820152602b60248201527f496e697469616c697a61626c653a20636f6e7472616374206973206e6f74206960448201526a6e697469616c697a696e6760a81b6064820152608401610a25565b600160cf55565b6001600160a01b0382166142ad5760405162461bcd60e51b815260206004820181905260248201527f4552433732313a206d696e7420746f20746865207a65726f20616464726573736044820152606401610a25565b6000818152606760205260409020546001600160a01b0316156143125760405162461bcd60e51b815260206004820152601c60248201527f4552433732313a20746f6b656e20616c7265616479206d696e746564000000006044820152606401610a25565b61431e60008383614079565b6001600160a01b038216600090815260686020526040812080546001929061434790849061574b565b909155505060008181526067602052604080822080546001600160a01b0319166001600160a01b03861690811790915590518392907fddf252ad1be2c89b69c2b068fc378daa952ba7f163c4a11628f55a4df523b3ef908290a45050565b6040516001600160a01b038085166024830152831660448201526064810182905261163f9085907f23b872dd00000000000000000000000000000000000000000000000000000000906084015b60408051601f198184030181529190526020810180517bffffffffffffffffffffffffffffffffffffffffffffffffffffffff166001600160e01b03199093169290921790915261491b565b600061444982611645565b905061445781600084614079565b6144626000836128bb565b6001600160a01b038116600090815260686020526040812080546001929061448b908490615568565b909155505060008281526067602052604080822080546001600160a01b0319169055518391906001600160a01b038416907fddf252ad1be2c89b69c2b068fc378daa952ba7f163c4a11628f55a4df523b3ef908390a45050565b806144ee575050565b610105546040517f205c28780000000000000000000000000000000000000000000000000000000081526001600160a01b038481166004830152602482018490526101009092049091169063205c287890604401600060405180830381600087803b15801561455c57600080fd5b505af115801561215e573d6000803e3d6000fd5b610b776001600160a01b0384168383614a00565b60006001600160a01b0384163b1561470e576040517f150b7a020000000000000000000000000000000000000000000000000000000081526001600160a01b0385169063150b7a02906145e190339089908890889060040161580e565b602060405180830381600087803b1580156145fb57600080fd5b505af192505050801561462b575060408051601f3d908101601f191682019092526146289181019061584a565b60015b6146db573d808015614659576040519150601f19603f3d011682016040523d82523d6000602084013e61465e565b606091505b5080516146d35760405162461bcd60e51b815260206004820152603260248201527f4552433732313a207472616e7366657220746f206e6f6e20455243373231526560448201527f63656976657220696d706c656d656e74657200000000000000000000000000006064820152608401610a25565b805181602001fd5b6001600160e01b0319167f150b7a02000000000000000000000000000000000000000000000000000000001490506131d2565b506001949350505050565b600081156147425761473b858585036c01000000000000000000000000614a49565b90506131d2565b61475c858585036c01000000000000000000000000613bee565b95945050505050565b806001600160801b038116811461477b57600080fd5b919050565b600081156147a85761473b61479c606087901b86860386614a49565b85808204910615150190565b836147ba606087901b82860386613bee565b816147c7576147c76157f8565b0495945050505050565b6001600160a01b03831661482c5761482781609980546000838152609a60205260408120829055600182018355919091527f72a152ddfb8e864297c917af52ea6c1c68aead0fee1a62673fcc7e0c94979d000155565b61484f565b816001600160a01b0316836001600160a01b03161461484f5761484f8382614a86565b6001600160a01b03821661486657610b7781614b23565b826001600160a01b0316826001600160a01b031614610b7757610b778282614bd2565b600054610100900460ff166148f45760405162461bcd60e51b815260206004820152602b60248201527f496e697469616c697a61626c653a20636f6e7472616374206973206e6f74206960448201526a6e697469616c697a696e6760a81b6064820152608401610a25565b8151614907906065906020850190614d2a565b508051610b77906066906020840190614d2a565b6000614970826040518060400160405280602081526020017f5361666545524332303a206c6f772d6c6576656c2063616c6c206661696c6564815250856001600160a01b0316614c169092919063ffffffff16565b805190915015610b77578080602001905181019061498e9190615518565b610b775760405162461bcd60e51b815260206004820152602a60248201527f5361666545524332303a204552433230206f7065726174696f6e20646964206e60448201527f6f742073756363656564000000000000000000000000000000000000000000006064820152608401610a25565b6040516001600160a01b038316602482015260448101829052610b779084907fa9059cbb00000000000000000000000000000000000000000000000000000000906064016143f2565b6000614a56848484613bee565b90508180614a6657614a666157f8565b83850915613c9b576000198110614a7c57600080fd5b6001019392505050565b60006001614a93846116d0565b614a9d9190615568565b600083815260986020526040902054909150808214614af0576001600160a01b03841660009081526097602090815260408083208584528252808320548484528184208190558352609890915290208190555b5060009182526098602090815260408084208490556001600160a01b039094168352609781528383209183525290812055565b609954600090614b3590600190615568565b6000838152609a602052604081205460998054939450909284908110614b5d57614b5d615552565b906000526020600020015490508060998381548110614b7e57614b7e615552565b6000918252602080832090910192909255828152609a90915260408082208490558582528120556099805480614bb657614bb6615867565b6001900381819060005260206000200160009055905550505050565b6000614bdd836116d0565b6001600160a01b039093166000908152609760209081526040808320868452825280832085905593825260989052919091209190915550565b60606131d28484600085856001600160a01b0385163b614c785760405162461bcd60e51b815260206004820152601d60248201527f416464726573733a2063616c6c20746f206e6f6e2d636f6e74726163740000006044820152606401610a25565b600080866001600160a01b03168587604051614c94919061587d565b60006040518083038185875af1925050503d8060008114614cd1576040519150601f19603f3d011682016040523d82523d6000602084013e614cd6565b606091505b5091509150614ce6828286614cf1565b979650505050505050565b60608315614d00575081613c9b565b825115614d105782518084602001fd5b8160405162461bcd60e51b8152600401610a259190614e80565b828054614d369061549f565b90600052602060002090601f016020900481019282614d585760008555614d9e565b82601f10614d7157805160ff1916838001178555614d9e565b82800160010185558215614d9e579182015b82811115614d9e578251825591602001919060010190614d83565b50614daa929150614dae565b5090565b5b80821115614daa5760008155600101614daf565b6001600160a01b03811681146135fe57600080fd5b600060208284031215614dea57600080fd5b8135613c9b81614dc3565b6001600160e01b0319811681146135fe57600080fd5b600060208284031215614e1d57600080fd5b8135613c9b81614df5565b60005b83811015614e43578181015183820152602001614e2b565b8381111561163f5750506000910152565b60008151808452614e6c816020860160208601614e28565b601f01601f19169290920160200192915050565b602081526000613c9b6020830184614e54565b600060208284031215614ea557600080fd5b5035919050565b60008060408385031215614ebf57600080fd5b8235614eca81614dc3565b946020939093013593505050565b8060020b81146135fe57600080fd5b80356001600160801b038116811461477b57600080fd5b600080600080600080600080610100898b031215614f1b57600080fd5b8835614f2681614dc3565b97506020890135614f3681614ed8565b96506040890135614f4681614ed8565b95506060890135614f5681614ed8565b94506080890135614f6681614ed8565b9350614f7460a08a01614ee7565b925060c0890135915060e089013590509295985092959890939650565b600080600060608486031215614fa657600080fd5b8335614fb181614dc3565b92506020840135614fc181614dc3565b929592945050506040919091013590565b60008060408385031215614fe557600080fd5b8235614ff081614dc3565b9150602083013561500081614dc3565b809150509250929050565b6000806000806080858703121561502157600080fd5b843561502c81614dc3565b9350602085013561503c81614dc3565b93969395505050506040820135916060013590565b803560ff8116811461477b57600080fd5b60008060008060008060c0878903121561507b57600080fd5b863561508681614dc3565b955060208701359450604087013593506150a260608801615051565b92506080870135915060a087013590509295509295509295565b80151581146135fe57600080fd5b6000806000606084860312156150df57600080fd5b8335925060208401356150f181614dc3565b91506040840135615101816150bc565b809150509250925092565b60008060008060008060c0878903121561512557600080fd5b8635955061513560208801614ee7565b9450604087013561514581614dc3565b9350606087013592506080870135915060a0870135615163816150bc565b809150509295509295509295565b6000806040838503121561518457600080fd5b823561518f81614dc3565b91506020830135615000816150bc565b60008060008060008060c087890312156151b857600080fd5b86356151c381614dc3565b955060208701356151d381614dc3565b9450604087013593506150a260608801615051565b600080602083850312156151fb57600080fd5b823567ffffffffffffffff8082111561521357600080fd5b818501915085601f83011261522757600080fd5b81358181111561523657600080fd5b8660208260051b850101111561524b57600080fd5b60209290920196919550909350505050565b6000602080830181845280855180835260408601915060408160051b870101925083870160005b828110156152d0577fffffffffffffffffffffffffffffffffffffffffffffffffffffffffffffffc08886030184526152be858351614e54565b94509285019290850190600101615284565b5092979650505050505050565b60008060008060008060008060006101208a8c0312156152fc57600080fd5b893561530781614dc3565b985060208a013561531781614ed8565b975060408a013561532781614ed8565b965060608a013561533781614ed8565b955060808a013561534781614ed8565b945061535560a08b01614ee7565b935061536360c08b01614ee7565b925060e08a013591506101008a013590509295985092959850929598565b634e487b7160e01b600052604160045260246000fd5b604051601f8201601f1916810167ffffffffffffffff811182821017156153c0576153c0615381565b604052919050565b600067ffffffffffffffff8211156153e2576153e2615381565b50601f01601f191660200190565b6000806000806080858703121561540657600080fd5b843561541181614dc3565b9350602085013561542181614dc3565b925060408501359150606085013567ffffffffffffffff81111561544457600080fd5b8501601f8101871361545557600080fd5b8035615468615463826153c8565b615397565b81815288602083850101111561547d57600080fd5b8160208401602083013760006020838301015280935050505092959194509250565b600181811c908216806154b357607f821691505b602082108114156154d457634e487b7160e01b600052602260045260246000fd5b50919050565b634e487b7160e01b600052601160045260246000fd5b60006001600160801b0383811690831681811015615510576155106154da565b039392505050565b60006020828403121561552a57600080fd5b8151613c9b816150bc565b60006020828403121561554757600080fd5b8151613c9b81614dc3565b634e487b7160e01b600052603260045260246000fd5b60008282101561557a5761557a6154da565b500390565b6000806040838503121561559257600080fd5b505080516020909101519092909150565b60008083357fffffffffffffffffffffffffffffffffffffffffffffffffffffffffffffffe18436030181126155d857600080fd5b83018035915067ffffffffffffffff8211156155f357600080fd5b60200191503681900382131561560857600080fd5b9250929050565b8183823760009101908152919050565b60006020828403121561563157600080fd5b815167ffffffffffffffff81111561564857600080fd5b8201601f8101841361565957600080fd5b8051615667615463826153c8565b81815285602083850101111561567c57600080fd5b61475c826020830160208601614e28565b60006000198214156156a1576156a16154da565b5060010190565b600080600080608085870312156156be57600080fd5b84516156c981614ed8565b60208601519094506156da81614ed8565b60408601519093506156eb81614ed8565b60608601519092506156fc81614ed8565b939692955090935050565b60006020828403121561571957600080fd5b5051919050565b60006001600160801b03808316818516808303821115615742576157426154da565b01949350505050565b6000821982111561575e5761575e6154da565b500190565b60006001600160801b0380831681811415614a7c57614a7c6154da565b60007f80000000000000000000000000000000000000000000000000000000000000008214156157b2576157b26154da565b5060000390565b60008160020b7fffffffffffffffffffffffffffffffffffffffffffffffffffffffffff8000008114156157ef576157ef6154da565b60000392915050565b634e487b7160e01b600052601260045260246000fd5b60006001600160a01b038087168352808616602084015250836040830152608060608301526158406080830184614e54565b9695505050505050565b60006020828403121561585c57600080fd5b8151613c9b81614df5565b634e487b7160e01b600052603160045260246000fd5b6000825161588f818460208701614e28565b919091019291505056fea2646970667358221220d357d6eb79e2dadcb1e382957bfdc667f32315e3f2223cc46ffc661d5324d4ee64736f6c63430008090033",
  "deployedBytecode": "0x60806040526004361061024f5760003560e01c80636352211e11610138578063aba07847116100b0578063b88d4fde1161007f578063cf58879a11610064578063cf58879a146107d2578063e985e9c5146107f3578063ed7bba9a1461083c57600080fd5b8063b88d4fde14610792578063c87b56dd146107b257600080fd5b8063aba07847146106fe578063ac9650d81461071e578063b4e13c8d1461073e578063b70d2ea61461077257600080fd5b8063904dfb8e1161010757806399fbab88116100ec57806399fbab88146105d3578063a214fa6b146106be578063a22cb465146106de57600080fd5b8063904dfb8e1461059157806395d89b41146105be57600080fd5b80636352211e146104fc57806370a082311461051c5780637ac2ff7b1461053c5780638c6ab0131461055c57600080fd5b806323b872dd116101cb57806342842e0e1161019a5780634f558e791161017f5780634f558e791461049c5780634f6ccce7146104bc5780635f16529a146104dc57600080fd5b806342842e0e1461045c578063485cc9551461047c57600080fd5b806323b872dd146103d35780632f745c59146103f357806330adf81f146104135780633644e5151461044757600080fd5b8063095ea7b311610222578063141a468c11610207578063141a468c1461037057806318160ddd146103ab5780631816ec77146103c057600080fd5b8063095ea7b3146103055780630af2c6ca1461032557600080fd5b806301b9a3971461025457806301ffc9a71461027657806306fdde03146102ab578063081812fc146102cd575b600080fd5b34801561026057600080fd5b5061027461026f366004614dd8565b61087c565b005b34801561028257600080fd5b50610296610291366004614e0b565b6108c9565b60405190151581526020015b60405180910390f35b3480156102b757600080fd5b506102c061090d565b6040516102a29190614e80565b3480156102d957600080fd5b506102ed6102e8366004614e93565b61099f565b6040516001600160a01b0390911681526020016102a2565b34801561031157600080fd5b50610274610320366004614eac565b610a4a565b34801561033157600080fd5b5060cc54610350906001600160801b0380821691600160801b90041682565b604080516001600160801b039384168152929091166020830152016102a2565b34801561037c57600080fd5b5061039d61038b366004614e93565b60cd6020526000908152604090205481565b6040519081526020016102a2565b3480156103b757600080fd5b5061039d610b7c565b61039d6103ce366004614efe565b610bac565b3480156103df57600080fd5b506102746103ee366004614f91565b611031565b3480156103ff57600080fd5b5061039d61040e366004614eac565b6110b8565b34801561041f57600080fd5b5061039d7f49ecf333e5b8c95c40fdafc95c1ad136e8914a8fb55e9dc8bb01eaa83a2df9ad81565b34801561045357600080fd5b5061039d611160565b34801561046857600080fd5b50610274610477366004614f91565b611273565b34801561048857600080fd5b50610274610497366004614fd2565b61128e565b3480156104a857600080fd5b506102966104b7366004614e93565b61140b565b3480156104c857600080fd5b5061039d6104d7366004614e93565b61142a565b3480156104e857600080fd5b506102746104f736600461500b565b6114ce565b34801561050857600080fd5b506102ed610517366004614e93565b611645565b34801561052857600080fd5b5061039d610537366004614dd8565b6116d0565b34801561054857600080fd5b50610274610557366004615062565b61176a565b34801561056857600080fd5b5061057c6105773660046150ca565b611a02565b604080519283526020830191909152016102a2565b34801561059d57600080fd5b5061039d6105ac366004614dd8565b60ce6020526000908152604090205481565b3480156105ca57600080fd5b506102c0611aa9565b3480156105df57600080fd5b5061065a6105ee366004614e93565b61010760205260009081526040902080546001820154600280840154600385015460048601546005909601546001600160a01b03909516956001600160801b03851695600160801b8604850b95600160981b810490950b94600160b01b900463ffffffff169392919089565b604080516001600160a01b03909a168a526001600160801b0390981660208a0152600296870b978901979097529390940b606087015263ffffffff909116608086015260a085015260c084019190915260e0830152610100820152610120016102a2565b3480156106ca57600080fd5b5061057c6106d936600461510c565b611ab8565b3480156106ea57600080fd5b506102746106f9366004615171565b611f0a565b34801561070a57600080fd5b5061027461071936600461519f565b611f19565b61073161072c3660046151e8565b612166565b6040516102a2919061525d565b34801561074a57600080fd5b5061039d7fdaab21af31ece73a508939fedd476a5ee5129a5ed4bb091f3236ffb45394df6281565b34801561077e57600080fd5b5061039d61078d3660046152dd565b6122be565b34801561079e57600080fd5b506102746107ad3660046153f0565b612569565b3480156107be57600080fd5b506102c06107cd366004614e93565b6125f1565b3480156107de57600080fd5b50610106546102ed906001600160a01b031681565b3480156107ff57600080fd5b5061029661080e366004614fd2565b6001600160a01b039182166000908152606a6020908152604080832093909416825291909152205460ff1690565b34801561084857600080fd5b5061085c610857366004614e93565b61268b565b6040805194855260208501939093529183015260608201526080016102a2565b60cb546001600160a01b031633146108a757604051631eb49d6d60e11b815260040160405180910390fd5b60cb80546001600160a01b0319166001600160a01b0392909216919091179055565b60006001600160e01b031982167f780e9d63000000000000000000000000000000000000000000000000000000001480610907575061090782612820565b92915050565b60606065805461091c9061549f565b80601f01602080910402602001604051908101604052809291908181526020018280546109489061549f565b80156109955780601f1061096a57610100808354040283529160200191610995565b820191906000526020600020905b81548152906001019060200180831161097857829003601f168201915b5050505050905090565b6000818152606760205260408120546001600160a01b0316610a2e5760405162461bcd60e51b815260206004820152602c60248201527f4552433732313a20617070726f76656420717565727920666f72206e6f6e657860448201527f697374656e7420746f6b656e000000000000000000000000000000000000000060648201526084015b60405180910390fd5b506000908152606960205260409020546001600160a01b031690565b6000610a5582611645565b9050806001600160a01b0316836001600160a01b03161415610adf5760405162461bcd60e51b815260206004820152602160248201527f4552433732313a20617070726f76616c20746f2063757272656e74206f776e6560448201527f72000000000000000000000000000000000000000000000000000000000000006064820152608401610a25565b336001600160a01b0382161480610afb5750610afb813361080e565b610b6d5760405162461bcd60e51b815260206004820152603860248201527f4552433732313a20617070726f76652063616c6c6572206973206e6f74206f7760448201527f6e6572206e6f7220617070726f76656420666f7220616c6c00000000000000006064820152608401610a25565b610b7783836128bb565b505050565b60cc54600090610b9e906001600160801b03600160801b8204811691166154f0565b6001600160801b0316905090565b6000600260cf541415610c015760405162461bcd60e51b815260206004820152601f60248201527f5265656e7472616e637947756172643a207265656e7472616e742063616c6c006044820152606401610a25565b600260cf55610106546040517fa4063dbc0000000000000000000000000000000000000000000000000000000081526001600160a01b03808c1660048301528b92169063a4063dbc9060240160206040518083038186803b158015610c6557600080fd5b505afa158015610c79573d6000803e3d6000fd5b505050506040513d601f19601f82011682018060405250810190610c9d9190615518565b8015610db1575061010660009054906101000a90046001600160a01b03166001600160a01b0316636f50f2f4826001600160a01b031663c45a01556040518163ffffffff1660e01b815260040160206040518083038186803b158015610d0257600080fd5b505afa158015610d16573d6000803e3d6000fd5b505050506040513d601f19601f82011682018060405250810190610d3a9190615535565b6040516001600160e01b031960e084901b1681526001600160a01b03909116600482015260240160206040518083038186803b158015610d7957600080fd5b505afa158015610d8d573d6000803e3d6000fd5b505050506040513d601f19601f82011682018060405250810190610db19190615518565b610de7576040517f2083cd4000000000000000000000000000000000000000000000000000000000815260040160405180910390fd5b60008a905061010560019054906101000a90046001600160a01b03166001600160a01b0316816001600160a01b0316630dfe16816040518163ffffffff1660e01b815260040160206040518083038186803b158015610e4557600080fd5b505afa158015610e59573d6000803e3d6000fd5b505050506040513d601f19601f82011682018060405250810190610e7d9190615535565b6001600160a01b03161415610ef1576101018054336001600160a01b03199182161790915561010280549091166001600160a01b038d1617905534610103556001600160801b03861661010455610105805460ff19166001179055610ee9818b8b8b8b348c8c8c612929565b92505061101f565b61010560019054906101000a90046001600160a01b03166001600160a01b0316816001600160a01b031663d21220a76040518163ffffffff1660e01b815260040160206040518083038186803b158015610f4a57600080fd5b505afa158015610f5e573d6000803e3d6000fd5b505050506040513d601f19601f82011682018060405250810190610f829190615535565b6001600160a01b031614610fc2576040517f425c65bb00000000000000000000000000000000000000000000000000000000815260040160405180910390fd5b6101018054336001600160a01b03199182161790915561010280549091166001600160a01b038d161790556001600160801b038616610103553461010455610105805460ff19166001179055610ee9818b8b8b8b8b348c8c612929565b50600160cf5598975050505050505050565b61103b33826130d2565b6110ad5760405162461bcd60e51b815260206004820152603160248201527f4552433732313a207472616e736665722063616c6c6572206973206e6f74206f60448201527f776e6572206e6f7220617070726f7665640000000000000000000000000000006064820152608401610a25565b610b778383836131da565b60006110c3836116d0565b82106111375760405162461bcd60e51b815260206004820152602b60248201527f455243373231456e756d657261626c653a206f776e657220696e646578206f7560448201527f74206f6620626f756e64730000000000000000000000000000000000000000006064820152608401610a25565b506001600160a01b03919091166000908152609760209081526040808320938352929052205490565b600060ca54461461126c5750604080518082018252600a81527f50414e4745412d504f530000000000000000000000000000000000000000000060209182015281518083018352600181527f31000000000000000000000000000000000000000000000000000000000000009082015281517f8b73c3c69bb8fe3d512ecc4cf759cc79239f7b179b0ffacaa9a75d522b39400f818301527f16d34b8f23ef02572737473f7ba87ffe21ee45c6bbade7dae4039edd04580f63818401527fc89efdaa54c0f20c7adf612882df0950f5a951637e0307cdcb4c672f298b8bc660608201524660808201523060a0808301919091528351808303909101815260c0909101909252815191012090565b5060c95490565b610b7783838360405180602001604052806000815250612569565b600054610100900460ff166112a95760005460ff16156112ad565b303b155b61131f5760405162461bcd60e51b815260206004820152602e60248201527f496e697469616c697a61626c653a20636f6e747261637420697320616c72656160448201527f647920696e697469616c697a65640000000000000000000000000000000000006064820152608401610a25565b600054610100900460ff1615801561135e57600080547fffffffffffffffffffffffffffffffffffffffffffffffffffffffffffff0000166101011790555b6113666133b2565b61136e61353a565b61010680546001600160a01b038086166001600160a01b03199283161790925560cb8054909116331790556101058054918416610100027fffffffffffffffffffffff0000000000000000000000000000000000000000ff9092169190911790556113d8306135ad565b8015610b7757600080547fffffffffffffffffffffffffffffffffffffffffffffffffffffffffffff00ff169055505050565b6000818152606760205260408120546001600160a01b03161515610907565b600061143560995490565b82106114a95760405162461bcd60e51b815260206004820152602c60248201527f455243373231456e756d657261626c653a20676c6f62616c20696e646578206f60448201527f7574206f6620626f756e647300000000000000000000000000000000000000006064820152608401610a25565b609982815481106114bc576114bc615552565b90600052602060002001549050919050565b610102546001600160a01b03163314611513576040517f2ddb0d4000000000000000000000000000000000000000000000000000000000815260040160405180910390fd5b6101055460ff1680156115395750610105546001600160a01b0385811661010090920416145b15611573576115483383613601565b610101546101035461156e916001600160a01b031690611569908590615568565b613686565b61158d565b6101015461158d9085906001600160a01b03163385613729565b6101055460ff1680156115b35750610105546001600160a01b0384811661010090920416145b156115e8576115c23382613601565b61010154610104546115e3916001600160a01b031690611569908490615568565b611602565b610101546116029084906001600160a01b03163384613729565b610101805460016001600160a01b0319918216811790925561010280549091169091179055600061010381905561010455610105805460ff191690555b50505050565b6000818152606760205260408120546001600160a01b0316806109075760405162461bcd60e51b815260206004820152602960248201527f4552433732313a206f776e657220717565727920666f72206e6f6e657869737460448201527f656e7420746f6b656e00000000000000000000000000000000000000000000006064820152608401610a25565b60006001600160a01b03821661174e5760405162461bcd60e51b815260206004820152602a60248201527f4552433732313a2062616c616e636520717565727920666f7220746865207a6560448201527f726f2061646472657373000000000000000000000000000000000000000000006064820152608401610a25565b506001600160a01b031660009081526068602052604090205490565b428410156117ba5760405162461bcd60e51b815260206004820152601760248201527f5045524d49545f444541444c494e455f455850495245440000000000000000006044820152606401610a25565b60006117c586611645565b905060006117d1611160565b600088815260cd602090815260409182902080546001810190915582517f49ecf333e5b8c95c40fdafc95c1ad136e8914a8fb55e9dc8bb01eaa83a2df9ad818401526001600160a01b038d1681850152606081018c9052608081019190915260a08082018b90528351808303909101815260c08201909352825192909101919091207f190100000000000000000000000000000000000000000000000000000000000060e083015260e28201929092526101028101919091526101220160408051601f198184030181528282528051602091820120600080855291840180845281905260ff89169284019290925260608301879052608083018690529092509060019060a0016020604051602081039080840390855afa1580156118f9573d6000803e3d6000fd5b5050604051601f1901519150506001600160a01b03811661195c5760405162461bcd60e51b815260206004820152601860248201527f494e56414c49445f5045524d49545f5349474e415455524500000000000000006044820152606401610a25565b826001600160a01b0316816001600160a01b031614806119a157506001600160a01b038084166000908152606a602090815260408083209385168352929052205460ff165b6119ed5760405162461bcd60e51b815260206004820152600e60248201527f494e56414c49445f5349474e45520000000000000000000000000000000000006044820152606401610a25565b50506119f987876128bb565b50505050505050565b600080600260cf541415611a585760405162461bcd60e51b815260206004820152601f60248201527f5265656e7472616e637947756172643a207265656e7472616e742063616c6c006044820152606401610a25565b600260cf55611a6733866130d2565b611a8457604051631eb49d6d60e11b815260040160405180910390fd5b611a8d8561373e565b611a9885858561377f565b600160cf5590969095509350505050565b60606066805461091c9061549f565b600080600260cf541415611b0e5760405162461bcd60e51b815260206004820152601f60248201527f5265656e7472616e637947756172643a207265656e7472616e742063616c6c006044820152606401610a25565b600260cf55611b1d33896130d2565b611b3a57604051631eb49d6d60e11b815260040160405180910390fd5b6000888152610107602090815260409182902082516101208101845281546001600160a01b0316815260018201546001600160801b03811693820193909352600160801b8304600290810b94820194909452600160981b8304840b6060820152600160b01b90920463ffffffff1660808301529182015460a0820152600382015460c0820152600482015460e0820152600590910154610100820152611bdf8961373e565b80602001516001600160801b0316886001600160801b03161015611d0f578051604080830151606084015191517fa34123a7000000000000000000000000000000000000000000000000000000008152600291820b600482015291900b60248201526001600160801b038a1660448201526001600160a01b039091169063a34123a7906064016040805180830381600087803b158015611c7e57600080fd5b505af1158015611c92573d6000803e3d6000fd5b505050506040513d601f19601f82011682018060405250810190611cb6919061557f565b60008b81526101076020526040812060010180549396509194508a92611ce69084906001600160801b03166154f0565b92506101000a8154816001600160801b0302191690836001600160801b03160217905550611e4a565b60208101518151604080840151606085015191517fa34123a7000000000000000000000000000000000000000000000000000000008152600291820b600482015291900b60248201526001600160801b03831660448201529199506001600160a01b03169063a34123a7906064016040805180830381600087803b158015611d9657600080fd5b505af1158015611daa573d6000803e3d6000fd5b505050506040513d601f19601f82011682018060405250810190611dce919061557f565b9093509150611dde89888661377f565b5050611de9896138de565b60008981526101076020526040812080546001600160a01b03191681556001810180547fffffffffffff0000000000000000000000000000000000000000000000000000169055600281018290556003810182905560048101829055600501555b85831080611e5757508482105b15611e8e576040517fc9f52c7100000000000000000000000000000000000000000000000000000000815260040160405180910390fd5b8051611e9d908885858861392c565b805160408051858152602081018590526001600160801b038b168183015290518b9233926001600160a01b03909116917f7a7cc3d6e9116c317f33888a57dd914fae984c233de0802abd7ea1f7eda6bb629181900360600190a450600160cf559097909650945050505050565b611f15338383613a96565b5050565b42841015611f695760405162461bcd60e51b815260206004820152601760248201527f5045524d49545f444541444c494e455f455850495245440000000000000000006044820152606401610a25565b6000611f73611160565b6001600160a01b03888116600081815260ce602090815260409182902080546001810190915582517fdaab21af31ece73a508939fedd476a5ee5129a5ed4bb091f3236ffb45394df628184015280840194909452938b166060840152608083019390935260a08083018a90528151808403909101815260c0830190915280519201919091207f190100000000000000000000000000000000000000000000000000000000000060e083015260e28201929092526101028101919091526101220160408051601f198184030181528282528051602091820120600080855291840180845281905260ff88169284019290925260608301869052608083018590529092509060019060a0016020604051602081039080840390855afa15801561209e573d6000803e3d6000fd5b5050604051601f1901519150506001600160a01b038116158015906120d45750876001600160a01b0316816001600160a01b0316145b8061210457506001600160a01b038089166000908152606a602090815260408083209385168352929052205460ff165b6121505760405162461bcd60e51b815260206004820152601860248201527f494e56414c49445f5045524d49545f5349474e415455524500000000000000006044820152606401610a25565b505061215e86866001613a96565b505050505050565b60608167ffffffffffffffff81111561218157612181615381565b6040519080825280602002602001820160405280156121b457816020015b606081526020019060019003908161219f5790505b50905060005b828110156122b757600080308686858181106121d8576121d8615552565b90506020028101906121ea91906155a3565b6040516121f892919061560f565b600060405180830381855af49150503d8060008114612233576040519150601f19603f3d011682016040523d82523d6000602084013e612238565b606091505b5091509150816122845760448151101561225157600080fd5b6004810190508080602001905181019061226b919061561f565b60405162461bcd60e51b8152600401610a259190614e80565b8084848151811061229757612297615552565b6020026020010181905250505080806122af9061568d565b9150506121ba565b5092915050565b6000600260cf5414156123135760405162461bcd60e51b815260206004820152601f60248201527f5265656e7472616e637947756172643a207265656e7472616e742063616c6c006044820152606401610a25565b600260cf55610106546040517fa4063dbc0000000000000000000000000000000000000000000000000000000081526001600160a01b03808d1660048301528c92169063a4063dbc9060240160206040518083038186803b15801561237757600080fd5b505afa15801561238b573d6000803e3d6000fd5b505050506040513d601f19601f820116820180604052508101906123af9190615518565b80156124c3575061010660009054906101000a90046001600160a01b03166001600160a01b0316636f50f2f4826001600160a01b031663c45a01556040518163ffffffff1660e01b815260040160206040518083038186803b15801561241457600080fd5b505afa158015612428573d6000803e3d6000fd5b505050506040513d601f19601f8201168201806040525081019061244c9190615535565b6040516001600160e01b031960e084901b1681526001600160a01b03909116600482015260240160206040518083038186803b15801561248b57600080fd5b505afa15801561249f573d6000803e3d6000fd5b505050506040513d601f19601f820116820180604052508101906124c39190615518565b6124f9576040517f2083cd4000000000000000000000000000000000000000000000000000000000815260040160405180910390fd5b6101018054336001600160a01b03199182161790915561010280549091166001600160a01b038d161790556001600160801b0380871661010355851661010455610105805460ff191690556125558b8b8b8b8b8b8b8b8b612929565b600160cf559b9a5050505050505050505050565b61257333836130d2565b6125e55760405162461bcd60e51b815260206004820152603160248201527f4552433732313a207472616e736665722063616c6c6572206973206e6f74206f60448201527f776e6572206e6f7220617070726f7665640000000000000000000000000000006064820152608401610a25565b61163f84848484613b65565b60cb546040517fc87b56dd000000000000000000000000000000000000000000000000000000008152600481018390526060916001600160a01b03169063c87b56dd9060240160006040518083038186803b15801561264f57600080fd5b505afa158015612663573d6000803e3d6000fd5b505050506040513d6000823e601f3d908101601f19168201604052610907919081019061561f565b60008181526101076020908152604080832081516101208101835281546001600160a01b031680825260018301546001600160801b03811695830195909552600160801b8504600290810b838601819052600160981b8704820b60608501819052600160b01b90970463ffffffff1660808501529084015460a0840152600384015460c084015260048085015460e085015260059094015461010084015293517facfe88f800000000000000000000000000000000000000000000000000000000815292830193909352602482019390935283928392839263acfe88f890604401604080518083038186803b15801561278357600080fd5b505afa158015612797573d6000803e3d6000fd5b505050506040513d601f19601f820116820180604052508101906127bb919061557f565b80935081945050508060e001516127ea8260a00151850383602001516001600160801b0316600160801b613bee565b0194508061010001516128158260c00151840383602001516001600160801b0316600160801b613bee565b019350509193509193565b60006001600160e01b031982167f80ac58cd00000000000000000000000000000000000000000000000000000000148061288357506001600160e01b031982167f5b5e139f00000000000000000000000000000000000000000000000000000000145b8061090757507f01ffc9a7000000000000000000000000000000000000000000000000000000006001600160e01b0319831614610907565b600081815260696020526040902080546001600160a01b0319166001600160a01b03841690811790915581906128f082611645565b6001600160a01b03167f8c5be1e5ebec7d5bd14f71427d1e84f3dd0314c0f7b2291e5b200ac8c7c3b92560405160405180910390a45050565b6040517faf605c880000000000000000000000000000000000000000000000000000000081526001600160a01b038a166004820152600289810b602483015288810b604483015287810b606483015286900b608482015260009073__$bcc72c71f8b76091ef44cf265824b83400$__9063af605c889060a40160806040518083038186803b1580156129ba57600080fd5b505af41580156129ce573d6000803e3d6000fd5b505050506040513d601f19601f820116820180604052508101906129f291906156a8565b6040805160c081018252600286810b825285810b6020830190815285820b83850190815285830b606085019081526001600160801b038f8116608087019081528f821660a0880190815297517f0ae9ba8a0000000000000000000000000000000000000000000000000000000081529651860b60048801529351850b60248701529151840b60448601525190920b60648401525181166084830152915190911660a4820152939c50919a50985096506000906001600160a01b038c1690630ae9ba8a9060c401602060405180830381600087803b158015612ad257600080fd5b505af1158015612ae6573d6000803e3d6000fd5b505050506040513d601f19601f82011682018060405250810190612b0a9190615707565b905083816001600160801b03161015612b4f576040517fc9f52c7100000000000000000000000000000000000000000000000000000000815260040160405180910390fd5b82612d895760cc546040517facfe88f800000000000000000000000000000000000000000000000000000000815260028b810b600483015289900b60248201526001600160801b03909116925060009081906001600160a01b038e169063acfe88f890604401604080518083038186803b158015612bcc57600080fd5b505afa158015612be0573d6000803e3d6000fd5b505050506040513d601f19601f82011682018060405250810190612c04919061557f565b915091506040518061012001604052808e6001600160a01b03168152602001846001600160801b031681526020018c60020b81526020018a60020b81526020014263ffffffff168152602001838152602001828152602001600081526020016000815250610107600086815260200190815260200160002060008201518160000160006101000a8154816001600160a01b0302191690836001600160a01b0316021790555060208201518160010160006101000a8154816001600160801b0302191690836001600160801b0316021790555060408201518160010160106101000a81548162ffffff021916908360020b62ffffff16021790555060608201518160010160136101000a81548162ffffff021916908360020b62ffffff16021790555060808201518160010160166101000a81548163ffffffff021916908363ffffffff16021790555060a0820151816002015560c0820151816003015560e082015181600401556101008201518160050155905050612d82336135ad565b5050612ef7565b60008381526101076020526040902080548493506001600160a01b038d8116911614612de1576040517f9840420600000000000000000000000000000000000000000000000000000000815260040160405180910390fd5b600181015460028b810b600160801b909204900b141580612e1457506001810154600289810b600160981b909204900b14155b15612e4b576040517f2baa8efe00000000000000000000000000000000000000000000000000000000815260040160405180910390fd5b612e5533846130d2565b612e7257604051631eb49d6d60e11b815260040160405180910390fd5b612e7b8361373e565b600181018054839190600090612e9b9084906001600160801b0316615720565b82546101009290920a6001600160801b038181021990931691909216919091021790555060010180547fffffffffffff00000000ffffffffffffffffffffffffffffffffffffffffffff16600160b01b4263ffffffff16021790555b60008281526101076020908152604080832081516101208101835281546001600160a01b0316815260018201546001600160801b03811694820194909452600160801b8404600290810b938201849052600160981b8504810b6060830152600160b01b90940463ffffffff1660808201529281015460a0840152600381015460c0840152600481015460e084015260050154610100830152909190819061304f90612fa190613ca2565b6001600160a01b0316612fb78560600151613ca2565b6001600160a01b031685600001516001600160a01b031663a035b1fe6040518163ffffffff1660e01b815260040160206040518083038186803b158015612ffd57600080fd5b505afa158015613011573d6000803e3d6000fd5b505050506040513d601f19601f820116820180604052508101906130359190615535565b6001600160a01b0316876001600160801b0316600161400a565b9150915084336001600160a01b03168f6001600160a01b03167fa0cbbe2e0e524c30e7105f393c94244cbc448c9a309724650d8ca7bb465f53958585896040516130b9939291906001600160801b0393841681529183166020830152909116604082015260600190565b60405180910390a4505050509998505050505050505050565b6000818152606760205260408120546001600160a01b031661315c5760405162461bcd60e51b815260206004820152602c60248201527f4552433732313a206f70657261746f7220717565727920666f72206e6f6e657860448201527f697374656e7420746f6b656e00000000000000000000000000000000000000006064820152608401610a25565b600061316783611645565b9050806001600160a01b0316846001600160a01b031614806131a25750836001600160a01b03166131978461099f565b6001600160a01b0316145b806131d257506001600160a01b038082166000908152606a602090815260408083209388168352929052205460ff165b949350505050565b826001600160a01b03166131ed82611645565b6001600160a01b0316146132695760405162461bcd60e51b815260206004820152602560248201527f4552433732313a207472616e736665722066726f6d20696e636f72726563742060448201527f6f776e65720000000000000000000000000000000000000000000000000000006064820152608401610a25565b6001600160a01b0382166132e45760405162461bcd60e51b8152602060048201526024808201527f4552433732313a207472616e7366657220746f20746865207a65726f2061646460448201527f72657373000000000000000000000000000000000000000000000000000000006064820152608401610a25565b6132ef838383614079565b6132fa6000826128bb565b6001600160a01b0383166000908152606860205260408120805460019290613323908490615568565b90915550506001600160a01b038216600090815260686020526040812080546001929061335190849061574b565b909155505060008181526067602052604080822080546001600160a01b0319166001600160a01b0386811691821790925591518493918716917fddf252ad1be2c89b69c2b068fc378daa952ba7f163c4a11628f55a4df523b3ef91a4505050565b6134266040518060400160405280600f81526020017f50616e67656120506f736974696f6e00000000000000000000000000000000008152506040518060400160405280600a81526020017f50414e4745412d504f5300000000000000000000000000000000000000000000815250614105565b4660ca5561352d604080518082018252600a81527f50414e4745412d504f530000000000000000000000000000000000000000000060209182015281518083018352600181527f31000000000000000000000000000000000000000000000000000000000000009082015281517f8b73c3c69bb8fe3d512ecc4cf759cc79239f7b179b0ffacaa9a75d522b39400f818301527f16d34b8f23ef02572737473f7ba87ffe21ee45c6bbade7dae4039edd04580f63818401527fc89efdaa54c0f20c7adf612882df0950f5a951637e0307cdcb4c672f298b8bc660608201524660808201523060a0808301919091528351808303909101815260c0909101909252815191012090565b60c95561353861417a565b565b600054610100900460ff166135a55760405162461bcd60e51b815260206004820152602b60248201527f496e697469616c697a61626c653a20636f6e7472616374206973206e6f74206960448201526a6e697469616c697a696e6760a81b6064820152608401610a25565b6135386141e5565b60cc80546135fe9183916001600160801b03169060006135cc83615763565b91906101000a8154816001600160801b0302191690836001600160801b031602179055506001600160801b0316614257565b50565b8061360a575050565b610105546040517fb760faf90000000000000000000000000000000000000000000000000000000081526001600160a01b0384811660048301526101009092049091169063b760faf99083906024016000604051808303818588803b15801561367257600080fd5b505af11580156119f9573d6000803e3d6000fd5b6000826001600160a01b03168260405160006040518083038185875af1925050503d80600081146136d3576040519150601f19603f3d011682016040523d82523d6000602084013e6136d8565b606091505b5050905080610b775760405162461bcd60e51b815260206004820152601360248201527f4554485f5452414e534645525f4641494c4544000000000000000000000000006044820152606401610a25565b61163f6001600160a01b0385168484846143a5565b60008060008061374d8561268b565b600098895261010760205260409098206004810193909355600583019190915560028201556003019490945550505050565b6000838152610107602052604080822080546001820154600480840154600585015495517f2df94b0f000000000000000000000000000000000000000000000000000000008152600160801b8404600290810b93820193909352600160981b90930490910b60248301526044820152606481019390935283926001600160a01b0390911690632df94b0f906084016040805180830381600087803b15801561382657600080fd5b505af115801561383a573d6000803e3d6000fd5b505050506040513d601f19601f8201168201806040525081019061385e919061557f565b600060048401819055600584015582549194509250613889906001600160a01b03168685858861392c565b8054604080518581526020810185905288926001600160a01b03898116939116917f31135c84c98c756a9a84c21b514d356a17967948475c29a83db0e94f6ea5d073910160405180910390a450935093915050565b60cc8054600160801b90046001600160801b03169060106138fe83615763565b91906101000a8154816001600160801b0302191690836001600160801b03160217905550506135fe8161443e565b6000856001600160a01b0316630dfe16816040518163ffffffff1660e01b815260040160206040518083038186803b15801561396757600080fd5b505afa15801561397b573d6000803e3d6000fd5b505050506040513d601f19601f8201168201806040525081019061399f9190615535565b610105549091506001600160a01b03808316610100909204161480156139c25750815b156139d6576139d185856144e5565b6139e1565b6139e1818686614570565b6000866001600160a01b031663d21220a76040518163ffffffff1660e01b815260040160206040518083038186803b158015613a1c57600080fd5b505afa158015613a30573d6000803e3d6000fd5b505050506040513d601f19601f82011682018060405250810190613a549190615535565b610105549091506001600160a01b0380831661010090920416148015613a775750825b15613a8b57613a8686856144e5565b6119f9565b6119f9818786614570565b816001600160a01b0316836001600160a01b03161415613af85760405162461bcd60e51b815260206004820152601960248201527f4552433732313a20617070726f766520746f2063616c6c6572000000000000006044820152606401610a25565b6001600160a01b038381166000818152606a6020908152604080832094871680845294825291829020805460ff191686151590811790915591519182527f17307eab39ab6107e8899845ad3d59bd9653f200f220920489ca2b5937696c31910160405180910390a3505050565b613b708484846131da565b613b7c84848484614584565b61163f5760405162461bcd60e51b815260206004820152603260248201527f4552433732313a207472616e7366657220746f206e6f6e20455243373231526560448201527f63656976657220696d706c656d656e74657200000000000000000000000000006064820152608401610a25565b600080806000198587098587029250828110838203039150508060001415613c285760008411613c1d57600080fd5b508290049050613c9b565b808411613c3457600080fd5b6000848688096000868103871696879004966002600389028118808a02820302808a02820302808a02820302808a02820302808a02820302808a02909103029181900381900460010186841190950394909402919094039290920491909117919091029150505b9392505050565b60008060008360020b12613cb9578260020b613cc6565b8260020b613cc690615780565b9050613cf17ffffffffffffffffffffffffffffffffffffffffffffffffffffffffffff276186157b9565b62ffffff16811115613d2f576040517ff87dc40c00000000000000000000000000000000000000000000000000000000815260040160405180910390fd5b600060018216613d4357600160801b613d55565b6ffffcb933bd6fad37aa2d162d1a5940015b70ffffffffffffffffffffffffffffffffff1690506002821615613d89576ffff97272373d413259a46990580e213a0260801c5b6004821615613da8576ffff2e50f5f656932ef12357cf3c7fdcc0260801c5b6008821615613dc7576fffe5caca7e10e4e61c3624eaa0941cd00260801c5b6010821615613de6576fffcb9843d60f6159c9db58835c9266440260801c5b6020821615613e05576fff973b41fa98c081472e6896dfb254c00260801c5b6040821615613e24576fff2ea16466c96a3843ec78b326b528610260801c5b6080821615613e43576ffe5dee046a99a2a811c461f1969c30530260801c5b610100821615613e63576ffcbe86c7900a88aedcffc83b479aa3a40260801c5b610200821615613e83576ff987a7253ac413176f2b074cf7815e540260801c5b610400821615613ea3576ff3392b0822b70005940c7a398e4b70f30260801c5b610800821615613ec3576fe7159475a2c29b7443b29c7fa6e889d90260801c5b611000821615613ee3576fd097f3bdfd2022b8845ad8f792aa58250260801c5b612000821615613f03576fa9f746462d870fdf8a65dc1f90e061e50260801c5b614000821615613f23576f70d869a156d2a1b890bb3df62baf32f70260801c5b618000821615613f43576f31be135f97d08fd981231505542fcfa60260801c5b62010000821615613f64576f09aa508b5b7a84e1c677de54f3e99bc90260801c5b62020000821615613f84576e5d6af8dedb81196699c329225ee6040260801c5b62040000821615613fa3576d2216e584f5fa1ea926041bedfe980260801c5b62080000821615613fc0576b048a170391f7dc42444e8fa20260801c5b60008460020b1315613fe1578060001981613fdd57613fdd6157f8565b0490505b640100000000810615613ff5576001613ff8565b60005b60ff16602082901c0192505050919050565b60008084861161402f5761402861402385898987614719565b614765565b905061406f565b86851161404c5761404561402385898987614780565b915061406f565b61405b61402385878987614780565b915061406c61402385898887614719565b90505b9550959350505050565b61dead6001600160a01b03831614156140fa5760405162461bcd60e51b815260206004820152602960248201527f4552433732313a207472616e7366657220746f20746865206b6c69702044454160448201527f44206164647265737300000000000000000000000000000000000000000000006064820152608401610a25565b610b778383836147d1565b600054610100900460ff166141705760405162461bcd60e51b815260206004820152602b60248201527f496e697469616c697a61626c653a20636f6e7472616374206973206e6f74206960448201526a6e697469616c697a696e6760a81b6064820152608401610a25565b611f158282614889565b600054610100900460ff166135385760405162461bcd60e51b815260206004820152602b60248201527f496e697469616c697a61626c653a20636f6e7472616374206973206e6f74206960448201526a6e697469616c697a696e6760a81b6064820152608401610a25565b600054610100900460ff166142505760405162461bcd60e51b815260206004820152602b60248201527f496e697469616c697a61626c653a20636f6e7472616374206973206e6f74206960448201526a6e697469616c697a696e6760a81b6064820152608401610a25565b600160cf55565b6001600160a01b0382166142ad5760405162461bcd60e51b815260206004820181905260248201527f4552433732313a206d696e7420746f20746865207a65726f20616464726573736044820152606401610a25565b6000818152606760205260409020546001600160a01b0316156143125760405162461bcd60e51b815260206004820152601c60248201527f4552433732313a20746f6b656e20616c7265616479206d696e746564000000006044820152606401610a25565b61431e60008383614079565b6001600160a01b038216600090815260686020526040812080546001929061434790849061574b565b909155505060008181526067602052604080822080546001600160a01b0319166001600160a01b03861690811790915590518392907fddf252ad1be2c89b69c2b068fc378daa952ba7f163c4a11628f55a4df523b3ef908290a45050565b6040516001600160a01b038085166024830152831660448201526064810182905261163f9085907f23b872dd00000000000000000000000000000000000000000000000000000000906084015b60408051601f198184030181529190526020810180517bffffffffffffffffffffffffffffffffffffffffffffffffffffffff166001600160e01b03199093169290921790915261491b565b600061444982611645565b905061445781600084614079565b6144626000836128bb565b6001600160a01b038116600090815260686020526040812080546001929061448b908490615568565b909155505060008281526067602052604080822080546001600160a01b0319169055518391906001600160a01b038416907fddf252ad1be2c89b69c2b068fc378daa952ba7f163c4a11628f55a4df523b3ef908390a45050565b806144ee575050565b610105546040517f205c28780000000000000000000000000000000000000000000000000000000081526001600160a01b038481166004830152602482018490526101009092049091169063205c287890604401600060405180830381600087803b15801561455c57600080fd5b505af115801561215e573d6000803e3d6000fd5b610b776001600160a01b0384168383614a00565b60006001600160a01b0384163b1561470e576040517f150b7a020000000000000000000000000000000000000000000000000000000081526001600160a01b0385169063150b7a02906145e190339089908890889060040161580e565b602060405180830381600087803b1580156145fb57600080fd5b505af192505050801561462b575060408051601f3d908101601f191682019092526146289181019061584a565b60015b6146db573d808015614659576040519150601f19603f3d011682016040523d82523d6000602084013e61465e565b606091505b5080516146d35760405162461bcd60e51b815260206004820152603260248201527f4552433732313a207472616e7366657220746f206e6f6e20455243373231526560448201527f63656976657220696d706c656d656e74657200000000000000000000000000006064820152608401610a25565b805181602001fd5b6001600160e01b0319167f150b7a02000000000000000000000000000000000000000000000000000000001490506131d2565b506001949350505050565b600081156147425761473b858585036c01000000000000000000000000614a49565b90506131d2565b61475c858585036c01000000000000000000000000613bee565b95945050505050565b806001600160801b038116811461477b57600080fd5b919050565b600081156147a85761473b61479c606087901b86860386614a49565b85808204910615150190565b836147ba606087901b82860386613bee565b816147c7576147c76157f8565b0495945050505050565b6001600160a01b03831661482c5761482781609980546000838152609a60205260408120829055600182018355919091527f72a152ddfb8e864297c917af52ea6c1c68aead0fee1a62673fcc7e0c94979d000155565b61484f565b816001600160a01b0316836001600160a01b03161461484f5761484f8382614a86565b6001600160a01b03821661486657610b7781614b23565b826001600160a01b0316826001600160a01b031614610b7757610b778282614bd2565b600054610100900460ff166148f45760405162461bcd60e51b815260206004820152602b60248201527f496e697469616c697a61626c653a20636f6e7472616374206973206e6f74206960448201526a6e697469616c697a696e6760a81b6064820152608401610a25565b8151614907906065906020850190614d2a565b508051610b77906066906020840190614d2a565b6000614970826040518060400160405280602081526020017f5361666545524332303a206c6f772d6c6576656c2063616c6c206661696c6564815250856001600160a01b0316614c169092919063ffffffff16565b805190915015610b77578080602001905181019061498e9190615518565b610b775760405162461bcd60e51b815260206004820152602a60248201527f5361666545524332303a204552433230206f7065726174696f6e20646964206e60448201527f6f742073756363656564000000000000000000000000000000000000000000006064820152608401610a25565b6040516001600160a01b038316602482015260448101829052610b779084907fa9059cbb00000000000000000000000000000000000000000000000000000000906064016143f2565b6000614a56848484613bee565b90508180614a6657614a666157f8565b83850915613c9b576000198110614a7c57600080fd5b6001019392505050565b60006001614a93846116d0565b614a9d9190615568565b600083815260986020526040902054909150808214614af0576001600160a01b03841660009081526097602090815260408083208584528252808320548484528184208190558352609890915290208190555b5060009182526098602090815260408084208490556001600160a01b039094168352609781528383209183525290812055565b609954600090614b3590600190615568565b6000838152609a602052604081205460998054939450909284908110614b5d57614b5d615552565b906000526020600020015490508060998381548110614b7e57614b7e615552565b6000918252602080832090910192909255828152609a90915260408082208490558582528120556099805480614bb657614bb6615867565b6001900381819060005260206000200160009055905550505050565b6000614bdd836116d0565b6001600160a01b039093166000908152609760209081526040808320868452825280832085905593825260989052919091209190915550565b60606131d28484600085856001600160a01b0385163b614c785760405162461bcd60e51b815260206004820152601d60248201527f416464726573733a2063616c6c20746f206e6f6e2d636f6e74726163740000006044820152606401610a25565b600080866001600160a01b03168587604051614c94919061587d565b60006040518083038185875af1925050503d8060008114614cd1576040519150601f19603f3d011682016040523d82523d6000602084013e614cd6565b606091505b5091509150614ce6828286614cf1565b979650505050505050565b60608315614d00575081613c9b565b825115614d105782518084602001fd5b8160405162461bcd60e51b8152600401610a259190614e80565b828054614d369061549f565b90600052602060002090601f016020900481019282614d585760008555614d9e565b82601f10614d7157805160ff1916838001178555614d9e565b82800160010185558215614d9e579182015b82811115614d9e578251825591602001919060010190614d83565b50614daa929150614dae565b5090565b5b80821115614daa5760008155600101614daf565b6001600160a01b03811681146135fe57600080fd5b600060208284031215614dea57600080fd5b8135613c9b81614dc3565b6001600160e01b0319811681146135fe57600080fd5b600060208284031215614e1d57600080fd5b8135613c9b81614df5565b60005b83811015614e43578181015183820152602001614e2b565b8381111561163f5750506000910152565b60008151808452614e6c816020860160208601614e28565b601f01601f19169290920160200192915050565b602081526000613c9b6020830184614e54565b600060208284031215614ea557600080fd5b5035919050565b60008060408385031215614ebf57600080fd5b8235614eca81614dc3565b946020939093013593505050565b8060020b81146135fe57600080fd5b80356001600160801b038116811461477b57600080fd5b600080600080600080600080610100898b031215614f1b57600080fd5b8835614f2681614dc3565b97506020890135614f3681614ed8565b96506040890135614f4681614ed8565b95506060890135614f5681614ed8565b94506080890135614f6681614ed8565b9350614f7460a08a01614ee7565b925060c0890135915060e089013590509295985092959890939650565b600080600060608486031215614fa657600080fd5b8335614fb181614dc3565b92506020840135614fc181614dc3565b929592945050506040919091013590565b60008060408385031215614fe557600080fd5b8235614ff081614dc3565b9150602083013561500081614dc3565b809150509250929050565b6000806000806080858703121561502157600080fd5b843561502c81614dc3565b9350602085013561503c81614dc3565b93969395505050506040820135916060013590565b803560ff8116811461477b57600080fd5b60008060008060008060c0878903121561507b57600080fd5b863561508681614dc3565b955060208701359450604087013593506150a260608801615051565b92506080870135915060a087013590509295509295509295565b80151581146135fe57600080fd5b6000806000606084860312156150df57600080fd5b8335925060208401356150f181614dc3565b91506040840135615101816150bc565b809150509250925092565b60008060008060008060c0878903121561512557600080fd5b8635955061513560208801614ee7565b9450604087013561514581614dc3565b9350606087013592506080870135915060a0870135615163816150bc565b809150509295509295509295565b6000806040838503121561518457600080fd5b823561518f81614dc3565b91506020830135615000816150bc565b60008060008060008060c087890312156151b857600080fd5b86356151c381614dc3565b955060208701356151d381614dc3565b9450604087013593506150a260608801615051565b600080602083850312156151fb57600080fd5b823567ffffffffffffffff8082111561521357600080fd5b818501915085601f83011261522757600080fd5b81358181111561523657600080fd5b8660208260051b850101111561524b57600080fd5b60209290920196919550909350505050565b6000602080830181845280855180835260408601915060408160051b870101925083870160005b828110156152d0577fffffffffffffffffffffffffffffffffffffffffffffffffffffffffffffffc08886030184526152be858351614e54565b94509285019290850190600101615284565b5092979650505050505050565b60008060008060008060008060006101208a8c0312156152fc57600080fd5b893561530781614dc3565b985060208a013561531781614ed8565b975060408a013561532781614ed8565b965060608a013561533781614ed8565b955060808a013561534781614ed8565b945061535560a08b01614ee7565b935061536360c08b01614ee7565b925060e08a013591506101008a013590509295985092959850929598565b634e487b7160e01b600052604160045260246000fd5b604051601f8201601f1916810167ffffffffffffffff811182821017156153c0576153c0615381565b604052919050565b600067ffffffffffffffff8211156153e2576153e2615381565b50601f01601f191660200190565b6000806000806080858703121561540657600080fd5b843561541181614dc3565b9350602085013561542181614dc3565b925060408501359150606085013567ffffffffffffffff81111561544457600080fd5b8501601f8101871361545557600080fd5b8035615468615463826153c8565b615397565b81815288602083850101111561547d57600080fd5b8160208401602083013760006020838301015280935050505092959194509250565b600181811c908216806154b357607f821691505b602082108114156154d457634e487b7160e01b600052602260045260246000fd5b50919050565b634e487b7160e01b600052601160045260246000fd5b60006001600160801b0383811690831681811015615510576155106154da565b039392505050565b60006020828403121561552a57600080fd5b8151613c9b816150bc565b60006020828403121561554757600080fd5b8151613c9b81614dc3565b634e487b7160e01b600052603260045260246000fd5b60008282101561557a5761557a6154da565b500390565b6000806040838503121561559257600080fd5b505080516020909101519092909150565b60008083357fffffffffffffffffffffffffffffffffffffffffffffffffffffffffffffffe18436030181126155d857600080fd5b83018035915067ffffffffffffffff8211156155f357600080fd5b60200191503681900382131561560857600080fd5b9250929050565b8183823760009101908152919050565b60006020828403121561563157600080fd5b815167ffffffffffffffff81111561564857600080fd5b8201601f8101841361565957600080fd5b8051615667615463826153c8565b81815285602083850101111561567c57600080fd5b61475c826020830160208601614e28565b60006000198214156156a1576156a16154da565b5060010190565b600080600080608085870312156156be57600080fd5b84516156c981614ed8565b60208601519094506156da81614ed8565b60408601519093506156eb81614ed8565b60608601519092506156fc81614ed8565b939692955090935050565b60006020828403121561571957600080fd5b5051919050565b60006001600160801b03808316818516808303821115615742576157426154da565b01949350505050565b6000821982111561575e5761575e6154da565b500190565b60006001600160801b0380831681811415614a7c57614a7c6154da565b60007f80000000000000000000000000000000000000000000000000000000000000008214156157b2576157b26154da565b5060000390565b60008160020b7fffffffffffffffffffffffffffffffffffffffffffffffffffffffffff8000008114156157ef576157ef6154da565b60000392915050565b634e487b7160e01b600052601260045260246000fd5b60006001600160a01b038087168352808616602084015250836040830152608060608301526158406080830184614e54565b9695505050505050565b60006020828403121561585c57600080fd5b8151613c9b81614df5565b634e487b7160e01b600052603160045260246000fd5b6000825161588f818460208701614e28565b919091019291505056fea2646970667358221220d357d6eb79e2dadcb1e382957bfdc667f32315e3f2223cc46ffc661d5324d4ee64736f6c63430008090033",
  "libraries": {
    "TickIndex": "0x2aA606944FbC53eBDF8C603E8ab88D2577eB4fa8"
  }
}