{
  "address": "0x1c982F073979b4C0d5Be2458De33C4f0C20a095D",
  "abi": [
    {
      "inputs": [],
      "name": "InvalidPool",
      "type": "error"
    },
    {
      "inputs": [],
      "name": "NotAllowed",
      "type": "error"
    },
    {
      "inputs": [],
      "name": "NotNativePool",
      "type": "error"
    },
    {
      "inputs": [],
      "name": "PoolMisMatch",
      "type": "error"
    },
    {
      "inputs": [],
      "name": "RangeMisMatch",
      "type": "error"
    },
    {
      "inputs": [],
      "name": "TickOutOfBounds",
      "type": "error"
    },
    {
      "inputs": [],
      "name": "TooLittleReceived",
      "type": "error"
    },
    {
      "inputs": [],
      "name": "UnAuthorizedCallback",
      "type": "error"
    },
    {
      "anonymous": false,
      "inputs": [
        {
          "indexed": true,
          "internalType": "address",
          "name": "owner",
          "type": "address"
        },
        {
          "indexed": true,
          "internalType": "address",
          "name": "approved",
          "type": "address"
        },
        {
          "indexed": true,
          "internalType": "uint256",
          "name": "tokenId",
          "type": "uint256"
        }
      ],
      "name": "Approval",
      "type": "event"
    },
    {
      "anonymous": false,
      "inputs": [
        {
          "indexed": true,
          "internalType": "address",
          "name": "owner",
          "type": "address"
        },
        {
          "indexed": true,
          "internalType": "address",
          "name": "operator",
          "type": "address"
        },
        {
          "indexed": false,
          "internalType": "bool",
          "name": "approved",
          "type": "bool"
        }
      ],
      "name": "ApprovalForAll",
      "type": "event"
    },
    {
      "anonymous": false,
      "inputs": [
        {
          "indexed": true,
          "internalType": "address",
          "name": "pool",
          "type": "address"
        },
        {
          "indexed": true,
          "internalType": "address",
          "name": "recipient",
          "type": "address"
        },
        {
          "indexed": true,
          "internalType": "uint256",
          "name": "positionId",
          "type": "uint256"
        },
        {
          "indexed": false,
          "internalType": "uint256",
          "name": "amount0",
          "type": "uint256"
        },
        {
          "indexed": false,
          "internalType": "uint256",
          "name": "amount1",
          "type": "uint256"
        }
      ],
      "name": "CollectFee",
      "type": "event"
    },
    {
      "anonymous": false,
      "inputs": [
        {
          "indexed": true,
          "internalType": "address",
          "name": "pool",
          "type": "address"
        },
        {
          "indexed": true,
          "internalType": "address",
          "name": "owner",
          "type": "address"
        },
        {
          "indexed": true,
          "internalType": "uint256",
          "name": "positionId",
          "type": "uint256"
        },
        {
          "indexed": false,
          "internalType": "uint256",
          "name": "amount0",
          "type": "uint256"
        },
        {
          "indexed": false,
          "internalType": "uint256",
          "name": "amount1",
          "type": "uint256"
        },
        {
          "indexed": false,
          "internalType": "uint128",
          "name": "liquidity",
          "type": "uint128"
        }
      ],
      "name": "DecreaseLiquidity",
      "type": "event"
    },
    {
      "anonymous": false,
      "inputs": [
        {
          "indexed": true,
          "internalType": "address",
          "name": "pool",
          "type": "address"
        },
        {
          "indexed": true,
          "internalType": "address",
          "name": "owner",
          "type": "address"
        },
        {
          "indexed": true,
          "internalType": "uint256",
          "name": "positionId",
          "type": "uint256"
        },
        {
          "indexed": false,
          "internalType": "uint256",
          "name": "amount0",
          "type": "uint256"
        },
        {
          "indexed": false,
          "internalType": "uint256",
          "name": "amount1",
          "type": "uint256"
        },
        {
          "indexed": false,
          "internalType": "uint128",
          "name": "liquidity",
          "type": "uint128"
        }
      ],
      "name": "IncreaseLiquidity",
      "type": "event"
    },
    {
      "anonymous": false,
      "inputs": [
        {
          "indexed": true,
          "internalType": "address",
          "name": "from",
          "type": "address"
        },
        {
          "indexed": true,
          "internalType": "address",
          "name": "to",
          "type": "address"
        },
        {
          "indexed": true,
          "internalType": "uint256",
          "name": "tokenId",
          "type": "uint256"
        }
      ],
      "name": "Transfer",
      "type": "event"
    },
    {
      "inputs": [],
      "name": "DOMAIN_SEPARATOR",
      "outputs": [
        {
          "internalType": "bytes32",
          "name": "domainSeperator",
          "type": "bytes32"
        }
      ],
      "stateMutability": "view",
      "type": "function"
    },
    {
      "inputs": [],
      "name": "PERMIT_ALL_TYPEHASH",
      "outputs": [
        {
          "internalType": "bytes32",
          "name": "",
          "type": "bytes32"
        }
      ],
      "stateMutability": "view",
      "type": "function"
    },
    {
      "inputs": [],
      "name": "PERMIT_TYPEHASH",
      "outputs": [
        {
          "internalType": "bytes32",
          "name": "",
          "type": "bytes32"
        }
      ],
      "stateMutability": "view",
      "type": "function"
    },
    {
      "inputs": [
        {
          "internalType": "address",
          "name": "to",
          "type": "address"
        },
        {
          "internalType": "uint256",
          "name": "tokenId",
          "type": "uint256"
        }
      ],
      "name": "approve",
      "outputs": [],
      "stateMutability": "nonpayable",
      "type": "function"
    },
    {
      "inputs": [
        {
          "internalType": "address",
          "name": "owner",
          "type": "address"
        }
      ],
      "name": "balanceOf",
      "outputs": [
        {
          "internalType": "uint256",
          "name": "",
          "type": "uint256"
        }
      ],
      "stateMutability": "view",
      "type": "function"
    },
    {
      "inputs": [
        {
          "internalType": "uint256",
          "name": "positionId",
          "type": "uint256"
        },
        {
          "internalType": "uint128",
          "name": "amount",
          "type": "uint128"
        },
        {
          "internalType": "address",
          "name": "recipient",
          "type": "address"
        },
        {
          "internalType": "uint256",
          "name": "minimumOut0",
          "type": "uint256"
        },
        {
          "internalType": "uint256",
          "name": "minimumOut1",
          "type": "uint256"
        },
        {
          "internalType": "bool",
          "name": "unwrap",
          "type": "bool"
        }
      ],
      "name": "burn",
      "outputs": [
        {
          "internalType": "uint256",
          "name": "token0Amount",
          "type": "uint256"
        },
        {
          "internalType": "uint256",
          "name": "token1Amount",
          "type": "uint256"
        }
      ],
      "stateMutability": "nonpayable",
      "type": "function"
    },
    {
      "inputs": [
        {
          "internalType": "uint256",
          "name": "positionId",
          "type": "uint256"
        },
        {
          "internalType": "address",
          "name": "recipient",
          "type": "address"
        },
        {
          "internalType": "bool",
          "name": "unwrap",
          "type": "bool"
        }
      ],
      "name": "collect",
      "outputs": [
        {
          "internalType": "uint256",
          "name": "token0amount",
          "type": "uint256"
        },
        {
          "internalType": "uint256",
          "name": "token1amount",
          "type": "uint256"
        }
      ],
      "stateMutability": "nonpayable",
      "type": "function"
    },
    {
      "inputs": [
        {
          "internalType": "uint256",
          "name": "tokenId",
          "type": "uint256"
        }
      ],
      "name": "exists",
      "outputs": [
        {
          "internalType": "bool",
          "name": "",
          "type": "bool"
        }
      ],
      "stateMutability": "view",
      "type": "function"
    },
    {
      "inputs": [
        {
          "internalType": "uint256",
          "name": "tokenId",
          "type": "uint256"
        }
      ],
      "name": "getApproved",
      "outputs": [
        {
          "internalType": "address",
          "name": "",
          "type": "address"
        }
      ],
      "stateMutability": "view",
      "type": "function"
    },
    {
      "inputs": [
        {
          "internalType": "address",
          "name": "_masterDeployer",
          "type": "address"
        },
        {
          "internalType": "address",
          "name": "_wETH",
          "type": "address"
        }
      ],
      "name": "initialize",
      "outputs": [],
      "stateMutability": "nonpayable",
      "type": "function"
    },
    {
      "inputs": [
        {
          "internalType": "address",
          "name": "owner",
          "type": "address"
        },
        {
          "internalType": "address",
          "name": "operator",
          "type": "address"
        }
      ],
      "name": "isApprovedForAll",
      "outputs": [
        {
          "internalType": "bool",
          "name": "",
          "type": "bool"
        }
      ],
      "stateMutability": "view",
      "type": "function"
    },
    {
      "inputs": [],
      "name": "masterDeployer",
      "outputs": [
        {
          "internalType": "contract IMasterDeployer",
          "name": "",
          "type": "address"
        }
      ],
      "stateMutability": "view",
      "type": "function"
    },
    {
      "inputs": [
        {
          "internalType": "address",
          "name": "pool",
          "type": "address"
        },
        {
          "internalType": "int24",
          "name": "lowerOld",
          "type": "int24"
        },
        {
          "internalType": "int24",
          "name": "lower",
          "type": "int24"
        },
        {
          "internalType": "int24",
          "name": "upperOld",
          "type": "int24"
        },
        {
          "internalType": "int24",
          "name": "upper",
          "type": "int24"
        },
        {
          "internalType": "uint128",
          "name": "amount0Desired",
          "type": "uint128"
        },
        {
          "internalType": "uint128",
          "name": "amount1Desired",
          "type": "uint128"
        },
        {
          "internalType": "uint256",
          "name": "minLiquidity",
          "type": "uint256"
        },
        {
          "internalType": "uint256",
          "name": "positionId",
          "type": "uint256"
        }
      ],
      "name": "mint",
      "outputs": [
        {
          "internalType": "uint256",
          "name": "_positionId",
          "type": "uint256"
        }
      ],
      "stateMutability": "nonpayable",
      "type": "function"
    },
    {
      "inputs": [
        {
          "internalType": "address",
          "name": "token0",
          "type": "address"
        },
        {
          "internalType": "address",
          "name": "token1",
          "type": "address"
        },
        {
          "internalType": "uint256",
          "name": "amount0",
          "type": "uint256"
        },
        {
          "internalType": "uint256",
          "name": "amount1",
          "type": "uint256"
        }
      ],
      "name": "mintCallback",
      "outputs": [],
      "stateMutability": "nonpayable",
      "type": "function"
    },
    {
      "inputs": [
        {
          "internalType": "address",
          "name": "pool",
          "type": "address"
        },
        {
          "internalType": "int24",
          "name": "lowerOld",
          "type": "int24"
        },
        {
          "internalType": "int24",
          "name": "lower",
          "type": "int24"
        },
        {
          "internalType": "int24",
          "name": "upperOld",
          "type": "int24"
        },
        {
          "internalType": "int24",
          "name": "upper",
          "type": "int24"
        },
        {
          "internalType": "uint128",
          "name": "amountDesired",
          "type": "uint128"
        },
        {
          "internalType": "uint256",
          "name": "minLiquidity",
          "type": "uint256"
        },
        {
          "internalType": "uint256",
          "name": "positionId",
          "type": "uint256"
        }
      ],
      "name": "mintNative",
      "outputs": [
        {
          "internalType": "uint256",
          "name": "_positionId",
          "type": "uint256"
        }
      ],
      "stateMutability": "payable",
      "type": "function"
    },
    {
      "inputs": [
        {
          "internalType": "bytes[]",
          "name": "data",
          "type": "bytes[]"
        }
      ],
      "name": "multicall",
      "outputs": [
        {
          "internalType": "bytes[]",
          "name": "results",
          "type": "bytes[]"
        }
      ],
      "stateMutability": "payable",
      "type": "function"
    },
    {
      "inputs": [],
      "name": "name",
      "outputs": [
        {
          "internalType": "string",
          "name": "",
          "type": "string"
        }
      ],
      "stateMutability": "view",
      "type": "function"
    },
    {
      "inputs": [],
      "name": "nftCount",
      "outputs": [
        {
          "internalType": "uint128",
          "name": "minted",
          "type": "uint128"
        },
        {
          "internalType": "uint128",
          "name": "burned",
          "type": "uint128"
        }
      ],
      "stateMutability": "view",
      "type": "function"
    },
    {
      "inputs": [
        {
          "internalType": "uint256",
          "name": "",
          "type": "uint256"
        }
      ],
      "name": "nonces",
      "outputs": [
        {
          "internalType": "uint256",
          "name": "",
          "type": "uint256"
        }
      ],
      "stateMutability": "view",
      "type": "function"
    },
    {
      "inputs": [
        {
          "internalType": "address",
          "name": "",
          "type": "address"
        }
      ],
      "name": "noncesForAll",
      "outputs": [
        {
          "internalType": "uint256",
          "name": "",
          "type": "uint256"
        }
      ],
      "stateMutability": "view",
      "type": "function"
    },
    {
      "inputs": [
        {
          "internalType": "uint256",
          "name": "tokenId",
          "type": "uint256"
        }
      ],
      "name": "ownerOf",
      "outputs": [
        {
          "internalType": "address",
          "name": "",
          "type": "address"
        }
      ],
      "stateMutability": "view",
      "type": "function"
    },
    {
      "inputs": [
        {
          "internalType": "address",
          "name": "spender",
          "type": "address"
        },
        {
          "internalType": "uint256",
          "name": "tokenId",
          "type": "uint256"
        },
        {
          "internalType": "uint256",
          "name": "deadline",
          "type": "uint256"
        },
        {
          "internalType": "uint8",
          "name": "v",
          "type": "uint8"
        },
        {
          "internalType": "bytes32",
          "name": "r",
          "type": "bytes32"
        },
        {
          "internalType": "bytes32",
          "name": "s",
          "type": "bytes32"
        }
      ],
      "name": "permit",
      "outputs": [],
      "stateMutability": "nonpayable",
      "type": "function"
    },
    {
      "inputs": [
        {
          "internalType": "address",
          "name": "owner",
          "type": "address"
        },
        {
          "internalType": "address",
          "name": "operator",
          "type": "address"
        },
        {
          "internalType": "uint256",
          "name": "deadline",
          "type": "uint256"
        },
        {
          "internalType": "uint8",
          "name": "v",
          "type": "uint8"
        },
        {
          "internalType": "bytes32",
          "name": "r",
          "type": "bytes32"
        },
        {
          "internalType": "bytes32",
          "name": "s",
          "type": "bytes32"
        }
      ],
      "name": "permitAll",
      "outputs": [],
      "stateMutability": "nonpayable",
      "type": "function"
    },
    {
      "inputs": [
        {
          "internalType": "uint256",
          "name": "positionId",
          "type": "uint256"
        }
      ],
      "name": "positionFees",
      "outputs": [
        {
          "internalType": "uint256",
          "name": "token0amount",
          "type": "uint256"
        },
        {
          "internalType": "uint256",
          "name": "token1amount",
          "type": "uint256"
        },
        {
          "internalType": "uint256",
          "name": "feeGrowthInside0",
          "type": "uint256"
        },
        {
          "internalType": "uint256",
          "name": "feeGrowthInside1",
          "type": "uint256"
        }
      ],
      "stateMutability": "view",
      "type": "function"
    },
    {
      "inputs": [
        {
          "internalType": "uint256",
          "name": "",
          "type": "uint256"
        }
      ],
      "name": "positions",
      "outputs": [
        {
          "internalType": "address",
          "name": "pool",
          "type": "address"
        },
        {
          "internalType": "uint128",
          "name": "liquidity",
          "type": "uint128"
        },
        {
          "internalType": "int24",
          "name": "lower",
          "type": "int24"
        },
        {
          "internalType": "int24",
          "name": "upper",
          "type": "int24"
        },
        {
          "internalType": "uint32",
          "name": "latestAddition",
          "type": "uint32"
        },
        {
          "internalType": "uint256",
          "name": "feeGrowthInside0",
          "type": "uint256"
        },
        {
          "internalType": "uint256",
          "name": "feeGrowthInside1",
          "type": "uint256"
        },
        {
          "internalType": "uint256",
          "name": "feeOwed0",
          "type": "uint256"
        },
        {
          "internalType": "uint256",
          "name": "feeOwed1",
          "type": "uint256"
        }
      ],
      "stateMutability": "view",
      "type": "function"
    },
    {
      "inputs": [
        {
          "internalType": "address",
          "name": "from",
          "type": "address"
        },
        {
          "internalType": "address",
          "name": "to",
          "type": "address"
        },
        {
          "internalType": "uint256",
          "name": "tokenId",
          "type": "uint256"
        }
      ],
      "name": "safeTransferFrom",
      "outputs": [],
      "stateMutability": "nonpayable",
      "type": "function"
    },
    {
      "inputs": [
        {
          "internalType": "address",
          "name": "from",
          "type": "address"
        },
        {
          "internalType": "address",
          "name": "to",
          "type": "address"
        },
        {
          "internalType": "uint256",
          "name": "tokenId",
          "type": "uint256"
        },
        {
          "internalType": "bytes",
          "name": "_data",
          "type": "bytes"
        }
      ],
      "name": "safeTransferFrom",
      "outputs": [],
      "stateMutability": "nonpayable",
      "type": "function"
    },
    {
      "inputs": [
        {
          "internalType": "address",
          "name": "operator",
          "type": "address"
        },
        {
          "internalType": "bool",
          "name": "approved",
          "type": "bool"
        }
      ],
      "name": "setApprovalForAll",
      "outputs": [],
      "stateMutability": "nonpayable",
      "type": "function"
    },
    {
      "inputs": [
        {
          "internalType": "address",
          "name": "_descriptor",
          "type": "address"
        }
      ],
      "name": "setDescriptor",
      "outputs": [],
      "stateMutability": "nonpayable",
      "type": "function"
    },
    {
      "inputs": [
        {
          "internalType": "bytes4",
          "name": "interfaceId",
          "type": "bytes4"
        }
      ],
      "name": "supportsInterface",
      "outputs": [
        {
          "internalType": "bool",
          "name": "",
          "type": "bool"
        }
      ],
      "stateMutability": "view",
      "type": "function"
    },
    {
      "inputs": [],
      "name": "symbol",
      "outputs": [
        {
          "internalType": "string",
          "name": "",
          "type": "string"
        }
      ],
      "stateMutability": "view",
      "type": "function"
    },
    {
      "inputs": [
        {
          "internalType": "uint256",
          "name": "index",
          "type": "uint256"
        }
      ],
      "name": "tokenByIndex",
      "outputs": [
        {
          "internalType": "uint256",
          "name": "",
          "type": "uint256"
        }
      ],
      "stateMutability": "view",
      "type": "function"
    },
    {
      "inputs": [
        {
          "internalType": "address",
          "name": "owner",
          "type": "address"
        },
        {
          "internalType": "uint256",
          "name": "index",
          "type": "uint256"
        }
      ],
      "name": "tokenOfOwnerByIndex",
      "outputs": [
        {
          "internalType": "uint256",
          "name": "",
          "type": "uint256"
        }
      ],
      "stateMutability": "view",
      "type": "function"
    },
    {
      "inputs": [
        {
          "internalType": "uint256",
          "name": "tokenId",
          "type": "uint256"
        }
      ],
      "name": "tokenURI",
      "outputs": [
        {
          "internalType": "string",
          "name": "",
          "type": "string"
        }
      ],
      "stateMutability": "view",
      "type": "function"
    },
    {
      "inputs": [],
      "name": "totalSupply",
      "outputs": [
        {
          "internalType": "uint256",
          "name": "",
          "type": "uint256"
        }
      ],
      "stateMutability": "view",
      "type": "function"
    },
    {
      "inputs": [
        {
          "internalType": "address",
          "name": "from",
          "type": "address"
        },
        {
          "internalType": "address",
          "name": "to",
          "type": "address"
        },
        {
          "internalType": "uint256",
          "name": "tokenId",
          "type": "uint256"
        }
      ],
      "name": "transferFrom",
      "outputs": [],
      "stateMutability": "nonpayable",
      "type": "function"
    }
  ],
  "transactionHash": "0xce128fe7d7d013aa19facd09239e3fef662d2ecf97302e43a482d75acb397df3",
  "args": [],
  "numDeployments": 2,
  "solcInputHash": "3f62671f1479ad851d4ad5eda45dbc92",
  "bytecode": "0x6080604052610101805460016001600160a01b0319918216811790925561010280549091169091179055600061010381905561010455610105805460ff1916905534801561004c57600080fd5b506156a7806200005d6000396000f3fe60806040526004361061024f5760003560e01c80636352211e11610138578063aba07847116100b0578063b88d4fde1161007f578063cf58879a11610064578063cf58879a146107d2578063e985e9c5146107f3578063ed7bba9a1461083c57600080fd5b8063b88d4fde14610792578063c87b56dd146107b257600080fd5b8063aba07847146106fe578063ac9650d81461071e578063b4e13c8d1461073e578063b70d2ea61461077257600080fd5b8063904dfb8e1161010757806399fbab88116100ec57806399fbab88146105d3578063a214fa6b146106be578063a22cb465146106de57600080fd5b8063904dfb8e1461059157806395d89b41146105be57600080fd5b80636352211e146104fc57806370a082311461051c5780637ac2ff7b1461053c5780638c6ab0131461055c57600080fd5b806323b872dd116101cb57806342842e0e1161019a5780634f558e791161017f5780634f558e791461049c5780634f6ccce7146104bc5780635f16529a146104dc57600080fd5b806342842e0e1461045c578063485cc9551461047c57600080fd5b806323b872dd146103d35780632f745c59146103f357806330adf81f146104135780633644e5151461044757600080fd5b8063095ea7b311610222578063141a468c11610207578063141a468c1461037057806318160ddd146103ab5780631816ec77146103c057600080fd5b8063095ea7b3146103055780630af2c6ca1461032557600080fd5b806301b9a3971461025457806301ffc9a71461027657806306fdde03146102ab578063081812fc146102cd575b600080fd5b34801561026057600080fd5b5061027461026f366004614bb0565b61087c565b005b34801561028257600080fd5b50610296610291366004614be3565b6108c9565b60405190151581526020015b60405180910390f35b3480156102b757600080fd5b506102c061090d565b6040516102a29190614c58565b3480156102d957600080fd5b506102ed6102e8366004614c6b565b61099f565b6040516001600160a01b0390911681526020016102a2565b34801561031157600080fd5b50610274610320366004614c84565b610a4a565b34801561033157600080fd5b5060cc54610350906001600160801b0380821691600160801b90041682565b604080516001600160801b039384168152929091166020830152016102a2565b34801561037c57600080fd5b5061039d61038b366004614c6b565b60cd6020526000908152604090205481565b6040519081526020016102a2565b3480156103b757600080fd5b5061039d610b7c565b61039d6103ce366004614cd6565b610bac565b3480156103df57600080fd5b506102746103ee366004614d69565b610f1d565b3480156103ff57600080fd5b5061039d61040e366004614c84565b610fa4565b34801561041f57600080fd5b5061039d7f49ecf333e5b8c95c40fdafc95c1ad136e8914a8fb55e9dc8bb01eaa83a2df9ad81565b34801561045357600080fd5b5061039d61104c565b34801561046857600080fd5b50610274610477366004614d69565b61115f565b34801561048857600080fd5b50610274610497366004614daa565b61117a565b3480156104a857600080fd5b506102966104b7366004614c6b565b6112f7565b3480156104c857600080fd5b5061039d6104d7366004614c6b565b611316565b3480156104e857600080fd5b506102746104f7366004614de3565b6113ba565b34801561050857600080fd5b506102ed610517366004614c6b565b611531565b34801561052857600080fd5b5061039d610537366004614bb0565b6115bc565b34801561054857600080fd5b50610274610557366004614e3a565b611656565b34801561056857600080fd5b5061057c610577366004614ea2565b6118ee565b604080519283526020830191909152016102a2565b34801561059d57600080fd5b5061039d6105ac366004614bb0565b60ce6020526000908152604090205481565b3480156105ca57600080fd5b506102c0611995565b3480156105df57600080fd5b5061065a6105ee366004614c6b565b61010760205260009081526040902080546001820154600280840154600385015460048601546005909601546001600160a01b03909516956001600160801b03851695600160801b8604850b95600160981b810490950b94600160b01b900463ffffffff169392919089565b604080516001600160a01b03909a168a526001600160801b0390981660208a0152600296870b978901979097529390940b606087015263ffffffff909116608086015260a085015260c084019190915260e0830152610100820152610120016102a2565b3480156106ca57600080fd5b5061057c6106d9366004614ee4565b6119a4565b3480156106ea57600080fd5b506102746106f9366004614f49565b611df6565b34801561070a57600080fd5b50610274610719366004614f77565b611e05565b61073161072c366004614fc0565b612052565b6040516102a29190615035565b34801561074a57600080fd5b5061039d7fdaab21af31ece73a508939fedd476a5ee5129a5ed4bb091f3236ffb45394df6281565b34801561077e57600080fd5b5061039d61078d3660046150b5565b6121aa565b34801561079e57600080fd5b506102746107ad3660046151c8565b612341565b3480156107be57600080fd5b506102c06107cd366004614c6b565b6123c9565b3480156107de57600080fd5b50610106546102ed906001600160a01b031681565b3480156107ff57600080fd5b5061029661080e366004614daa565b6001600160a01b039182166000908152606a6020908152604080832093909416825291909152205460ff1690565b34801561084857600080fd5b5061085c610857366004614c6b565b612463565b6040805194855260208501939093529183015260608201526080016102a2565b60cb546001600160a01b031633146108a757604051631eb49d6d60e11b815260040160405180910390fd5b60cb80546001600160a01b0319166001600160a01b0392909216919091179055565b60006001600160e01b031982167f780e9d630000000000000000000000000000000000000000000000000000000014806109075750610907826125f8565b92915050565b60606065805461091c90615277565b80601f016020809104026020016040519081016040528092919081815260200182805461094890615277565b80156109955780601f1061096a57610100808354040283529160200191610995565b820191906000526020600020905b81548152906001019060200180831161097857829003601f168201915b5050505050905090565b6000818152606760205260408120546001600160a01b0316610a2e5760405162461bcd60e51b815260206004820152602c60248201527f4552433732313a20617070726f76656420717565727920666f72206e6f6e657860448201527f697374656e7420746f6b656e000000000000000000000000000000000000000060648201526084015b60405180910390fd5b506000908152606960205260409020546001600160a01b031690565b6000610a5582611531565b9050806001600160a01b0316836001600160a01b03161415610adf5760405162461bcd60e51b815260206004820152602160248201527f4552433732313a20617070726f76616c20746f2063757272656e74206f776e6560448201527f72000000000000000000000000000000000000000000000000000000000000006064820152608401610a25565b336001600160a01b0382161480610afb5750610afb813361080e565b610b6d5760405162461bcd60e51b815260206004820152603860248201527f4552433732313a20617070726f76652063616c6c6572206973206e6f74206f7760448201527f6e6572206e6f7220617070726f76656420666f7220616c6c00000000000000006064820152608401610a25565b610b778383612693565b505050565b60cc54600090610b9e906001600160801b03600160801b8204811691166152c8565b6001600160801b0316905090565b6000600260cf541415610c015760405162461bcd60e51b815260206004820152601f60248201527f5265656e7472616e637947756172643a207265656e7472616e742063616c6c006044820152606401610a25565b600260cf55610106546040517fa4063dbc0000000000000000000000000000000000000000000000000000000081526001600160a01b03808c1660048301528b92169063a4063dbc9060240160206040518083038186803b158015610c6557600080fd5b505afa158015610c79573d6000803e3d6000fd5b505050506040513d601f19601f82011682018060405250810190610c9d91906152f0565b610cd3576040517f2083cd4000000000000000000000000000000000000000000000000000000000815260040160405180910390fd5b60008a905061010560019054906101000a90046001600160a01b03166001600160a01b0316816001600160a01b0316630dfe16816040518163ffffffff1660e01b815260040160206040518083038186803b158015610d3157600080fd5b505afa158015610d45573d6000803e3d6000fd5b505050506040513d601f19601f82011682018060405250810190610d69919061530d565b6001600160a01b03161415610ddd576101018054336001600160a01b03199182161790915561010280549091166001600160a01b038d1617905534610103556001600160801b03861661010455610105805460ff19166001179055610dd5818b8b8b8b348c8c8c612701565b925050610f0b565b61010560019054906101000a90046001600160a01b03166001600160a01b0316816001600160a01b031663d21220a76040518163ffffffff1660e01b815260040160206040518083038186803b158015610e3657600080fd5b505afa158015610e4a573d6000803e3d6000fd5b505050506040513d601f19601f82011682018060405250810190610e6e919061530d565b6001600160a01b031614610eae576040517f425c65bb00000000000000000000000000000000000000000000000000000000815260040160405180910390fd5b6101018054336001600160a01b03199182161790915561010280549091166001600160a01b038d161790556001600160801b038616610103553461010455610105805460ff19166001179055610dd5818b8b8b8b8b348c8c612701565b50600160cf5598975050505050505050565b610f273382612eaa565b610f995760405162461bcd60e51b815260206004820152603160248201527f4552433732313a207472616e736665722063616c6c6572206973206e6f74206f60448201527f776e6572206e6f7220617070726f7665640000000000000000000000000000006064820152608401610a25565b610b77838383612fb2565b6000610faf836115bc565b82106110235760405162461bcd60e51b815260206004820152602b60248201527f455243373231456e756d657261626c653a206f776e657220696e646578206f7560448201527f74206f6620626f756e64730000000000000000000000000000000000000000006064820152608401610a25565b506001600160a01b03919091166000908152609760209081526040808320938352929052205490565b600060ca5446146111585750604080518082018252600a81527f50414e4745412d504f530000000000000000000000000000000000000000000060209182015281518083018352600181527f31000000000000000000000000000000000000000000000000000000000000009082015281517f8b73c3c69bb8fe3d512ecc4cf759cc79239f7b179b0ffacaa9a75d522b39400f818301527f16d34b8f23ef02572737473f7ba87ffe21ee45c6bbade7dae4039edd04580f63818401527fc89efdaa54c0f20c7adf612882df0950f5a951637e0307cdcb4c672f298b8bc660608201524660808201523060a0808301919091528351808303909101815260c0909101909252815191012090565b5060c95490565b610b7783838360405180602001604052806000815250612341565b600054610100900460ff166111955760005460ff1615611199565b303b155b61120b5760405162461bcd60e51b815260206004820152602e60248201527f496e697469616c697a61626c653a20636f6e747261637420697320616c72656160448201527f647920696e697469616c697a65640000000000000000000000000000000000006064820152608401610a25565b600054610100900460ff1615801561124a57600080547fffffffffffffffffffffffffffffffffffffffffffffffffffffffffffff0000166101011790555b61125261318a565b61125a613312565b61010680546001600160a01b038086166001600160a01b03199283161790925560cb8054909116331790556101058054918416610100027fffffffffffffffffffffff0000000000000000000000000000000000000000ff9092169190911790556112c430613385565b8015610b7757600080547fffffffffffffffffffffffffffffffffffffffffffffffffffffffffffff00ff169055505050565b6000818152606760205260408120546001600160a01b03161515610907565b600061132160995490565b82106113955760405162461bcd60e51b815260206004820152602c60248201527f455243373231456e756d657261626c653a20676c6f62616c20696e646578206f60448201527f7574206f6620626f756e647300000000000000000000000000000000000000006064820152608401610a25565b609982815481106113a8576113a861532a565b90600052602060002001549050919050565b610102546001600160a01b031633146113ff576040517f2ddb0d4000000000000000000000000000000000000000000000000000000000815260040160405180910390fd5b6101055460ff1680156114255750610105546001600160a01b0385811661010090920416145b1561145f5761143433836133d9565b610101546101035461145a916001600160a01b031690611455908590615340565b61345e565b611479565b610101546114799085906001600160a01b03163385613501565b6101055460ff16801561149f5750610105546001600160a01b0384811661010090920416145b156114d4576114ae33826133d9565b61010154610104546114cf916001600160a01b031690611455908490615340565b6114ee565b610101546114ee9084906001600160a01b03163384613501565b610101805460016001600160a01b0319918216811790925561010280549091169091179055600061010381905561010455610105805460ff191690555b50505050565b6000818152606760205260408120546001600160a01b0316806109075760405162461bcd60e51b815260206004820152602960248201527f4552433732313a206f776e657220717565727920666f72206e6f6e657869737460448201527f656e7420746f6b656e00000000000000000000000000000000000000000000006064820152608401610a25565b60006001600160a01b03821661163a5760405162461bcd60e51b815260206004820152602a60248201527f4552433732313a2062616c616e636520717565727920666f7220746865207a6560448201527f726f2061646472657373000000000000000000000000000000000000000000006064820152608401610a25565b506001600160a01b031660009081526068602052604090205490565b428410156116a65760405162461bcd60e51b815260206004820152601760248201527f5045524d49545f444541444c494e455f455850495245440000000000000000006044820152606401610a25565b60006116b186611531565b905060006116bd61104c565b600088815260cd602090815260409182902080546001810190915582517f49ecf333e5b8c95c40fdafc95c1ad136e8914a8fb55e9dc8bb01eaa83a2df9ad818401526001600160a01b038d1681850152606081018c9052608081019190915260a08082018b90528351808303909101815260c08201909352825192909101919091207f190100000000000000000000000000000000000000000000000000000000000060e083015260e28201929092526101028101919091526101220160408051601f198184030181528282528051602091820120600080855291840180845281905260ff89169284019290925260608301879052608083018690529092509060019060a0016020604051602081039080840390855afa1580156117e5573d6000803e3d6000fd5b5050604051601f1901519150506001600160a01b0381166118485760405162461bcd60e51b815260206004820152601860248201527f494e56414c49445f5045524d49545f5349474e415455524500000000000000006044820152606401610a25565b826001600160a01b0316816001600160a01b0316148061188d57506001600160a01b038084166000908152606a602090815260408083209385168352929052205460ff165b6118d95760405162461bcd60e51b815260206004820152600e60248201527f494e56414c49445f5349474e45520000000000000000000000000000000000006044820152606401610a25565b50506118e58787612693565b50505050505050565b600080600260cf5414156119445760405162461bcd60e51b815260206004820152601f60248201527f5265656e7472616e637947756172643a207265656e7472616e742063616c6c006044820152606401610a25565b600260cf556119533386612eaa565b61197057604051631eb49d6d60e11b815260040160405180910390fd5b61197985613516565b611984858585613557565b600160cf5590969095509350505050565b60606066805461091c90615277565b600080600260cf5414156119fa5760405162461bcd60e51b815260206004820152601f60248201527f5265656e7472616e637947756172643a207265656e7472616e742063616c6c006044820152606401610a25565b600260cf55611a093389612eaa565b611a2657604051631eb49d6d60e11b815260040160405180910390fd5b6000888152610107602090815260409182902082516101208101845281546001600160a01b0316815260018201546001600160801b03811693820193909352600160801b8304600290810b94820194909452600160981b8304840b6060820152600160b01b90920463ffffffff1660808301529182015460a0820152600382015460c0820152600482015460e0820152600590910154610100820152611acb89613516565b80602001516001600160801b0316886001600160801b03161015611bfb578051604080830151606084015191517fa34123a7000000000000000000000000000000000000000000000000000000008152600291820b600482015291900b60248201526001600160801b038a1660448201526001600160a01b039091169063a34123a7906064016040805180830381600087803b158015611b6a57600080fd5b505af1158015611b7e573d6000803e3d6000fd5b505050506040513d601f19601f82011682018060405250810190611ba29190615357565b60008b81526101076020526040812060010180549396509194508a92611bd29084906001600160801b03166152c8565b92506101000a8154816001600160801b0302191690836001600160801b03160217905550611d36565b60208101518151604080840151606085015191517fa34123a7000000000000000000000000000000000000000000000000000000008152600291820b600482015291900b60248201526001600160801b03831660448201529199506001600160a01b03169063a34123a7906064016040805180830381600087803b158015611c8257600080fd5b505af1158015611c96573d6000803e3d6000fd5b505050506040513d601f19601f82011682018060405250810190611cba9190615357565b9093509150611cca898886613557565b5050611cd5896136b6565b60008981526101076020526040812080546001600160a01b03191681556001810180547fffffffffffff0000000000000000000000000000000000000000000000000000169055600281018290556003810182905560048101829055600501555b85831080611d4357508482105b15611d7a576040517fc9f52c7100000000000000000000000000000000000000000000000000000000815260040160405180910390fd5b8051611d899088858588613704565b805160408051858152602081018590526001600160801b038b168183015290518b9233926001600160a01b03909116917f7a7cc3d6e9116c317f33888a57dd914fae984c233de0802abd7ea1f7eda6bb629181900360600190a450600160cf559097909650945050505050565b611e0133838361386e565b5050565b42841015611e555760405162461bcd60e51b815260206004820152601760248201527f5045524d49545f444541444c494e455f455850495245440000000000000000006044820152606401610a25565b6000611e5f61104c565b6001600160a01b03888116600081815260ce602090815260409182902080546001810190915582517fdaab21af31ece73a508939fedd476a5ee5129a5ed4bb091f3236ffb45394df628184015280840194909452938b166060840152608083019390935260a08083018a90528151808403909101815260c0830190915280519201919091207f190100000000000000000000000000000000000000000000000000000000000060e083015260e28201929092526101028101919091526101220160408051601f198184030181528282528051602091820120600080855291840180845281905260ff88169284019290925260608301869052608083018590529092509060019060a0016020604051602081039080840390855afa158015611f8a573d6000803e3d6000fd5b5050604051601f1901519150506001600160a01b03811615801590611fc05750876001600160a01b0316816001600160a01b0316145b80611ff057506001600160a01b038089166000908152606a602090815260408083209385168352929052205460ff165b61203c5760405162461bcd60e51b815260206004820152601860248201527f494e56414c49445f5045524d49545f5349474e415455524500000000000000006044820152606401610a25565b505061204a8686600161386e565b505050505050565b60608167ffffffffffffffff81111561206d5761206d615159565b6040519080825280602002602001820160405280156120a057816020015b606081526020019060019003908161208b5790505b50905060005b828110156121a357600080308686858181106120c4576120c461532a565b90506020028101906120d6919061537b565b6040516120e49291906153e7565b600060405180830381855af49150503d806000811461211f576040519150601f19603f3d011682016040523d82523d6000602084013e612124565b606091505b5091509150816121705760448151101561213d57600080fd5b6004810190508080602001905181019061215791906153f7565b60405162461bcd60e51b8152600401610a259190614c58565b808484815181106121835761218361532a565b60200260200101819052505050808061219b90615465565b9150506120a6565b5092915050565b6000600260cf5414156121ff5760405162461bcd60e51b815260206004820152601f60248201527f5265656e7472616e637947756172643a207265656e7472616e742063616c6c006044820152606401610a25565b600260cf55610106546040517fa4063dbc0000000000000000000000000000000000000000000000000000000081526001600160a01b03808d1660048301528c92169063a4063dbc9060240160206040518083038186803b15801561226357600080fd5b505afa158015612277573d6000803e3d6000fd5b505050506040513d601f19601f8201168201806040525081019061229b91906152f0565b6122d1576040517f2083cd4000000000000000000000000000000000000000000000000000000000815260040160405180910390fd5b6101018054336001600160a01b03199182161790915561010280549091166001600160a01b038d161790556001600160801b0380871661010355851661010455610105805460ff1916905561232d8b8b8b8b8b8b8b8b8b612701565b600160cf559b9a5050505050505050505050565b61234b3383612eaa565b6123bd5760405162461bcd60e51b815260206004820152603160248201527f4552433732313a207472616e736665722063616c6c6572206973206e6f74206f60448201527f776e6572206e6f7220617070726f7665640000000000000000000000000000006064820152608401610a25565b61152b8484848461393d565b60cb546040517fc87b56dd000000000000000000000000000000000000000000000000000000008152600481018390526060916001600160a01b03169063c87b56dd9060240160006040518083038186803b15801561242757600080fd5b505afa15801561243b573d6000803e3d6000fd5b505050506040513d6000823e601f3d908101601f1916820160405261090791908101906153f7565b60008181526101076020908152604080832081516101208101835281546001600160a01b031680825260018301546001600160801b03811695830195909552600160801b8504600290810b838601819052600160981b8704820b60608501819052600160b01b90970463ffffffff1660808501529084015460a0840152600384015460c084015260048085015460e085015260059094015461010084015293517facfe88f800000000000000000000000000000000000000000000000000000000815292830193909352602482019390935283928392839263acfe88f890604401604080518083038186803b15801561255b57600080fd5b505afa15801561256f573d6000803e3d6000fd5b505050506040513d601f19601f820116820180604052508101906125939190615357565b80935081945050508060e001516125c28260a00151850383602001516001600160801b0316600160801b6139c6565b0194508061010001516125ed8260c00151840383602001516001600160801b0316600160801b6139c6565b019350509193509193565b60006001600160e01b031982167f80ac58cd00000000000000000000000000000000000000000000000000000000148061265b57506001600160e01b031982167f5b5e139f00000000000000000000000000000000000000000000000000000000145b8061090757507f01ffc9a7000000000000000000000000000000000000000000000000000000006001600160e01b0319831614610907565b600081815260696020526040902080546001600160a01b0319166001600160a01b03841690811790915581906126c882611531565b6001600160a01b03167f8c5be1e5ebec7d5bd14f71427d1e84f3dd0314c0f7b2291e5b200ac8c7c3b92560405160405180910390a45050565b6040517faf605c880000000000000000000000000000000000000000000000000000000081526001600160a01b038a166004820152600289810b602483015288810b604483015287810b606483015286900b608482015260009073888b075cd92692761aCb649Da39988cd739667329063af605c889060a40160806040518083038186803b15801561279257600080fd5b505af41580156127a6573d6000803e3d6000fd5b505050506040513d601f19601f820116820180604052508101906127ca9190615480565b6040805160c081018252600286810b825285810b6020830190815285820b83850190815285830b606085019081526001600160801b038f8116608087019081528f821660a0880190815297517f0ae9ba8a0000000000000000000000000000000000000000000000000000000081529651860b60048801529351850b60248701529151840b60448601525190920b60648401525181166084830152915190911660a4820152939c50919a50985096506000906001600160a01b038c1690630ae9ba8a9060c401602060405180830381600087803b1580156128aa57600080fd5b505af11580156128be573d6000803e3d6000fd5b505050506040513d601f19601f820116820180604052508101906128e291906154df565b905083816001600160801b03161015612927576040517fc9f52c7100000000000000000000000000000000000000000000000000000000815260040160405180910390fd5b82612b615760cc546040517facfe88f800000000000000000000000000000000000000000000000000000000815260028b810b600483015289900b60248201526001600160801b03909116925060009081906001600160a01b038e169063acfe88f890604401604080518083038186803b1580156129a457600080fd5b505afa1580156129b8573d6000803e3d6000fd5b505050506040513d601f19601f820116820180604052508101906129dc9190615357565b915091506040518061012001604052808e6001600160a01b03168152602001846001600160801b031681526020018c60020b81526020018a60020b81526020014263ffffffff168152602001838152602001828152602001600081526020016000815250610107600086815260200190815260200160002060008201518160000160006101000a8154816001600160a01b0302191690836001600160a01b0316021790555060208201518160010160006101000a8154816001600160801b0302191690836001600160801b0316021790555060408201518160010160106101000a81548162ffffff021916908360020b62ffffff16021790555060608201518160010160136101000a81548162ffffff021916908360020b62ffffff16021790555060808201518160010160166101000a81548163ffffffff021916908363ffffffff16021790555060a0820151816002015560c0820151816003015560e082015181600401556101008201518160050155905050612b5a33613385565b5050612ccf565b60008381526101076020526040902080548493506001600160a01b038d8116911614612bb9576040517f9840420600000000000000000000000000000000000000000000000000000000815260040160405180910390fd5b600181015460028b810b600160801b909204900b141580612bec57506001810154600289810b600160981b909204900b14155b15612c23576040517f2baa8efe00000000000000000000000000000000000000000000000000000000815260040160405180910390fd5b612c2d3384612eaa565b612c4a57604051631eb49d6d60e11b815260040160405180910390fd5b612c5383613516565b600181018054839190600090612c739084906001600160801b03166154f8565b82546101009290920a6001600160801b038181021990931691909216919091021790555060010180547fffffffffffff00000000ffffffffffffffffffffffffffffffffffffffffffff16600160b01b4263ffffffff16021790555b60008281526101076020908152604080832081516101208101835281546001600160a01b0316815260018201546001600160801b03811694820194909452600160801b8404600290810b938201849052600160981b8504810b6060830152600160b01b90940463ffffffff1660808201529281015460a0840152600381015460c0840152600481015460e0840152600501546101008301529091908190612e2790612d7990613a7a565b6001600160a01b0316612d8f8560600151613a7a565b6001600160a01b031685600001516001600160a01b031663a035b1fe6040518163ffffffff1660e01b815260040160206040518083038186803b158015612dd557600080fd5b505afa158015612de9573d6000803e3d6000fd5b505050506040513d601f19601f82011682018060405250810190612e0d919061530d565b6001600160a01b0316876001600160801b03166001613de2565b9150915084336001600160a01b03168f6001600160a01b03167fa0cbbe2e0e524c30e7105f393c94244cbc448c9a309724650d8ca7bb465f5395858589604051612e91939291906001600160801b0393841681529183166020830152909116604082015260600190565b60405180910390a4505050509998505050505050505050565b6000818152606760205260408120546001600160a01b0316612f345760405162461bcd60e51b815260206004820152602c60248201527f4552433732313a206f70657261746f7220717565727920666f72206e6f6e657860448201527f697374656e7420746f6b656e00000000000000000000000000000000000000006064820152608401610a25565b6000612f3f83611531565b9050806001600160a01b0316846001600160a01b03161480612f7a5750836001600160a01b0316612f6f8461099f565b6001600160a01b0316145b80612faa57506001600160a01b038082166000908152606a602090815260408083209388168352929052205460ff165b949350505050565b826001600160a01b0316612fc582611531565b6001600160a01b0316146130415760405162461bcd60e51b815260206004820152602560248201527f4552433732313a207472616e736665722066726f6d20696e636f72726563742060448201527f6f776e65720000000000000000000000000000000000000000000000000000006064820152608401610a25565b6001600160a01b0382166130bc5760405162461bcd60e51b8152602060048201526024808201527f4552433732313a207472616e7366657220746f20746865207a65726f2061646460448201527f72657373000000000000000000000000000000000000000000000000000000006064820152608401610a25565b6130c7838383613e51565b6130d2600082612693565b6001600160a01b03831660009081526068602052604081208054600192906130fb908490615340565b90915550506001600160a01b0382166000908152606860205260408120805460019290613129908490615523565b909155505060008181526067602052604080822080546001600160a01b0319166001600160a01b0386811691821790925591518493918716917fddf252ad1be2c89b69c2b068fc378daa952ba7f163c4a11628f55a4df523b3ef91a4505050565b6131fe6040518060400160405280600f81526020017f50616e67656120506f736974696f6e00000000000000000000000000000000008152506040518060400160405280600a81526020017f50414e4745412d504f5300000000000000000000000000000000000000000000815250613edd565b4660ca55613305604080518082018252600a81527f50414e4745412d504f530000000000000000000000000000000000000000000060209182015281518083018352600181527f31000000000000000000000000000000000000000000000000000000000000009082015281517f8b73c3c69bb8fe3d512ecc4cf759cc79239f7b179b0ffacaa9a75d522b39400f818301527f16d34b8f23ef02572737473f7ba87ffe21ee45c6bbade7dae4039edd04580f63818401527fc89efdaa54c0f20c7adf612882df0950f5a951637e0307cdcb4c672f298b8bc660608201524660808201523060a0808301919091528351808303909101815260c0909101909252815191012090565b60c955613310613f52565b565b600054610100900460ff1661337d5760405162461bcd60e51b815260206004820152602b60248201527f496e697469616c697a61626c653a20636f6e7472616374206973206e6f74206960448201526a6e697469616c697a696e6760a81b6064820152608401610a25565b613310613fbd565b60cc80546133d69183916001600160801b03169060006133a48361553b565b91906101000a8154816001600160801b0302191690836001600160801b031602179055506001600160801b031661402f565b50565b806133e2575050565b610105546040517fb760faf90000000000000000000000000000000000000000000000000000000081526001600160a01b0384811660048301526101009092049091169063b760faf99083906024016000604051808303818588803b15801561344a57600080fd5b505af11580156118e5573d6000803e3d6000fd5b6000826001600160a01b03168260405160006040518083038185875af1925050503d80600081146134ab576040519150601f19603f3d011682016040523d82523d6000602084013e6134b0565b606091505b5050905080610b775760405162461bcd60e51b815260206004820152601360248201527f4554485f5452414e534645525f4641494c4544000000000000000000000000006044820152606401610a25565b61152b6001600160a01b03851684848461417d565b60008060008061352585612463565b600098895261010760205260409098206004810193909355600583019190915560028201556003019490945550505050565b6000838152610107602052604080822080546001820154600480840154600585015495517f2df94b0f000000000000000000000000000000000000000000000000000000008152600160801b8404600290810b93820193909352600160981b90930490910b60248301526044820152606481019390935283926001600160a01b0390911690632df94b0f906084016040805180830381600087803b1580156135fe57600080fd5b505af1158015613612573d6000803e3d6000fd5b505050506040513d601f19601f820116820180604052508101906136369190615357565b600060048401819055600584015582549194509250613661906001600160a01b031686858588613704565b8054604080518581526020810185905288926001600160a01b03898116939116917f31135c84c98c756a9a84c21b514d356a17967948475c29a83db0e94f6ea5d073910160405180910390a450935093915050565b60cc8054600160801b90046001600160801b03169060106136d68361553b565b91906101000a8154816001600160801b0302191690836001600160801b03160217905550506133d681614216565b6000856001600160a01b0316630dfe16816040518163ffffffff1660e01b815260040160206040518083038186803b15801561373f57600080fd5b505afa158015613753573d6000803e3d6000fd5b505050506040513d601f19601f82011682018060405250810190613777919061530d565b610105549091506001600160a01b038083166101009092041614801561379a5750815b156137ae576137a985856142bd565b6137b9565b6137b9818686614348565b6000866001600160a01b031663d21220a76040518163ffffffff1660e01b815260040160206040518083038186803b1580156137f457600080fd5b505afa158015613808573d6000803e3d6000fd5b505050506040513d601f19601f8201168201806040525081019061382c919061530d565b610105549091506001600160a01b038083166101009092041614801561384f5750825b156138635761385e86856142bd565b6118e5565b6118e5818786614348565b816001600160a01b0316836001600160a01b031614156138d05760405162461bcd60e51b815260206004820152601960248201527f4552433732313a20617070726f766520746f2063616c6c6572000000000000006044820152606401610a25565b6001600160a01b038381166000818152606a6020908152604080832094871680845294825291829020805460ff191686151590811790915591519182527f17307eab39ab6107e8899845ad3d59bd9653f200f220920489ca2b5937696c31910160405180910390a3505050565b613948848484612fb2565b6139548484848461435c565b61152b5760405162461bcd60e51b815260206004820152603260248201527f4552433732313a207472616e7366657220746f206e6f6e20455243373231526560448201527f63656976657220696d706c656d656e74657200000000000000000000000000006064820152608401610a25565b600080806000198587098587029250828110838203039150508060001415613a0057600084116139f557600080fd5b508290049050613a73565b808411613a0c57600080fd5b6000848688096000868103871696879004966002600389028118808a02820302808a02820302808a02820302808a02820302808a02820302808a02909103029181900381900460010186841190950394909402919094039290920491909117919091029150505b9392505050565b60008060008360020b12613a91578260020b613a9e565b8260020b613a9e90615558565b9050613ac97ffffffffffffffffffffffffffffffffffffffffffffffffffffffffffff27618615591565b62ffffff16811115613b07576040517ff87dc40c00000000000000000000000000000000000000000000000000000000815260040160405180910390fd5b600060018216613b1b57600160801b613b2d565b6ffffcb933bd6fad37aa2d162d1a5940015b70ffffffffffffffffffffffffffffffffff1690506002821615613b61576ffff97272373d413259a46990580e213a0260801c5b6004821615613b80576ffff2e50f5f656932ef12357cf3c7fdcc0260801c5b6008821615613b9f576fffe5caca7e10e4e61c3624eaa0941cd00260801c5b6010821615613bbe576fffcb9843d60f6159c9db58835c9266440260801c5b6020821615613bdd576fff973b41fa98c081472e6896dfb254c00260801c5b6040821615613bfc576fff2ea16466c96a3843ec78b326b528610260801c5b6080821615613c1b576ffe5dee046a99a2a811c461f1969c30530260801c5b610100821615613c3b576ffcbe86c7900a88aedcffc83b479aa3a40260801c5b610200821615613c5b576ff987a7253ac413176f2b074cf7815e540260801c5b610400821615613c7b576ff3392b0822b70005940c7a398e4b70f30260801c5b610800821615613c9b576fe7159475a2c29b7443b29c7fa6e889d90260801c5b611000821615613cbb576fd097f3bdfd2022b8845ad8f792aa58250260801c5b612000821615613cdb576fa9f746462d870fdf8a65dc1f90e061e50260801c5b614000821615613cfb576f70d869a156d2a1b890bb3df62baf32f70260801c5b618000821615613d1b576f31be135f97d08fd981231505542fcfa60260801c5b62010000821615613d3c576f09aa508b5b7a84e1c677de54f3e99bc90260801c5b62020000821615613d5c576e5d6af8dedb81196699c329225ee6040260801c5b62040000821615613d7b576d2216e584f5fa1ea926041bedfe980260801c5b62080000821615613d98576b048a170391f7dc42444e8fa20260801c5b60008460020b1315613db9578060001981613db557613db56155d0565b0490505b640100000000810615613dcd576001613dd0565b60005b60ff16602082901c0192505050919050565b600080848611613e0757613e00613dfb858989876144f1565b61453d565b9050613e47565b868511613e2457613e1d613dfb85898987614558565b9150613e47565b613e33613dfb85878987614558565b9150613e44613dfb858988876144f1565b90505b9550959350505050565b61dead6001600160a01b0383161415613ed25760405162461bcd60e51b815260206004820152602960248201527f4552433732313a207472616e7366657220746f20746865206b6c69702044454160448201527f44206164647265737300000000000000000000000000000000000000000000006064820152608401610a25565b610b778383836145a9565b600054610100900460ff16613f485760405162461bcd60e51b815260206004820152602b60248201527f496e697469616c697a61626c653a20636f6e7472616374206973206e6f74206960448201526a6e697469616c697a696e6760a81b6064820152608401610a25565b611e018282614661565b600054610100900460ff166133105760405162461bcd60e51b815260206004820152602b60248201527f496e697469616c697a61626c653a20636f6e7472616374206973206e6f74206960448201526a6e697469616c697a696e6760a81b6064820152608401610a25565b600054610100900460ff166140285760405162461bcd60e51b815260206004820152602b60248201527f496e697469616c697a61626c653a20636f6e7472616374206973206e6f74206960448201526a6e697469616c697a696e6760a81b6064820152608401610a25565b600160cf55565b6001600160a01b0382166140855760405162461bcd60e51b815260206004820181905260248201527f4552433732313a206d696e7420746f20746865207a65726f20616464726573736044820152606401610a25565b6000818152606760205260409020546001600160a01b0316156140ea5760405162461bcd60e51b815260206004820152601c60248201527f4552433732313a20746f6b656e20616c7265616479206d696e746564000000006044820152606401610a25565b6140f660008383613e51565b6001600160a01b038216600090815260686020526040812080546001929061411f908490615523565b909155505060008181526067602052604080822080546001600160a01b0319166001600160a01b03861690811790915590518392907fddf252ad1be2c89b69c2b068fc378daa952ba7f163c4a11628f55a4df523b3ef908290a45050565b6040516001600160a01b038085166024830152831660448201526064810182905261152b9085907f23b872dd00000000000000000000000000000000000000000000000000000000906084015b60408051601f198184030181529190526020810180517bffffffffffffffffffffffffffffffffffffffffffffffffffffffff166001600160e01b0319909316929092179091526146f3565b600061422182611531565b905061422f81600084613e51565b61423a600083612693565b6001600160a01b0381166000908152606860205260408120805460019290614263908490615340565b909155505060008281526067602052604080822080546001600160a01b0319169055518391906001600160a01b038416907fddf252ad1be2c89b69c2b068fc378daa952ba7f163c4a11628f55a4df523b3ef908390a45050565b806142c6575050565b610105546040517f205c28780000000000000000000000000000000000000000000000000000000081526001600160a01b038481166004830152602482018490526101009092049091169063205c287890604401600060405180830381600087803b15801561433457600080fd5b505af115801561204a573d6000803e3d6000fd5b610b776001600160a01b03841683836147d8565b60006001600160a01b0384163b156144e6576040517f150b7a020000000000000000000000000000000000000000000000000000000081526001600160a01b0385169063150b7a02906143b99033908990889088906004016155e6565b602060405180830381600087803b1580156143d357600080fd5b505af1925050508015614403575060408051601f3d908101601f1916820190925261440091810190615622565b60015b6144b3573d808015614431576040519150601f19603f3d011682016040523d82523d6000602084013e614436565b606091505b5080516144ab5760405162461bcd60e51b815260206004820152603260248201527f4552433732313a207472616e7366657220746f206e6f6e20455243373231526560448201527f63656976657220696d706c656d656e74657200000000000000000000000000006064820152608401610a25565b805181602001fd5b6001600160e01b0319167f150b7a0200000000000000000000000000000000000000000000000000000000149050612faa565b506001949350505050565b6000811561451a57614513858585036c01000000000000000000000000614821565b9050612faa565b614534858585036c010000000000000000000000006139c6565b95945050505050565b806001600160801b038116811461455357600080fd5b919050565b6000811561458057614513614574606087901b86860386614821565b85808204910615150190565b83614592606087901b828603866139c6565b8161459f5761459f6155d0565b0495945050505050565b6001600160a01b038316614604576145ff81609980546000838152609a60205260408120829055600182018355919091527f72a152ddfb8e864297c917af52ea6c1c68aead0fee1a62673fcc7e0c94979d000155565b614627565b816001600160a01b0316836001600160a01b03161461462757614627838261485e565b6001600160a01b03821661463e57610b77816148fb565b826001600160a01b0316826001600160a01b031614610b7757610b7782826149aa565b600054610100900460ff166146cc5760405162461bcd60e51b815260206004820152602b60248201527f496e697469616c697a61626c653a20636f6e7472616374206973206e6f74206960448201526a6e697469616c697a696e6760a81b6064820152608401610a25565b81516146df906065906020850190614b02565b508051610b77906066906020840190614b02565b6000614748826040518060400160405280602081526020017f5361666545524332303a206c6f772d6c6576656c2063616c6c206661696c6564815250856001600160a01b03166149ee9092919063ffffffff16565b805190915015610b77578080602001905181019061476691906152f0565b610b775760405162461bcd60e51b815260206004820152602a60248201527f5361666545524332303a204552433230206f7065726174696f6e20646964206e60448201527f6f742073756363656564000000000000000000000000000000000000000000006064820152608401610a25565b6040516001600160a01b038316602482015260448101829052610b779084907fa9059cbb00000000000000000000000000000000000000000000000000000000906064016141ca565b600061482e8484846139c6565b9050818061483e5761483e6155d0565b83850915613a7357600019811061485457600080fd5b6001019392505050565b6000600161486b846115bc565b6148759190615340565b6000838152609860205260409020549091508082146148c8576001600160a01b03841660009081526097602090815260408083208584528252808320548484528184208190558352609890915290208190555b5060009182526098602090815260408084208490556001600160a01b039094168352609781528383209183525290812055565b60995460009061490d90600190615340565b6000838152609a6020526040812054609980549394509092849081106149355761493561532a565b9060005260206000200154905080609983815481106149565761495661532a565b6000918252602080832090910192909255828152609a9091526040808220849055858252812055609980548061498e5761498e61563f565b6001900381819060005260206000200160009055905550505050565b60006149b5836115bc565b6001600160a01b039093166000908152609760209081526040808320868452825280832085905593825260989052919091209190915550565b6060612faa8484600085856001600160a01b0385163b614a505760405162461bcd60e51b815260206004820152601d60248201527f416464726573733a2063616c6c20746f206e6f6e2d636f6e74726163740000006044820152606401610a25565b600080866001600160a01b03168587604051614a6c9190615655565b60006040518083038185875af1925050503d8060008114614aa9576040519150601f19603f3d011682016040523d82523d6000602084013e614aae565b606091505b5091509150614abe828286614ac9565b979650505050505050565b60608315614ad8575081613a73565b825115614ae85782518084602001fd5b8160405162461bcd60e51b8152600401610a259190614c58565b828054614b0e90615277565b90600052602060002090601f016020900481019282614b305760008555614b76565b82601f10614b4957805160ff1916838001178555614b76565b82800160010185558215614b76579182015b82811115614b76578251825591602001919060010190614b5b565b50614b82929150614b86565b5090565b5b80821115614b825760008155600101614b87565b6001600160a01b03811681146133d657600080fd5b600060208284031215614bc257600080fd5b8135613a7381614b9b565b6001600160e01b0319811681146133d657600080fd5b600060208284031215614bf557600080fd5b8135613a7381614bcd565b60005b83811015614c1b578181015183820152602001614c03565b8381111561152b5750506000910152565b60008151808452614c44816020860160208601614c00565b601f01601f19169290920160200192915050565b602081526000613a736020830184614c2c565b600060208284031215614c7d57600080fd5b5035919050565b60008060408385031215614c9757600080fd5b8235614ca281614b9b565b946020939093013593505050565b8060020b81146133d657600080fd5b80356001600160801b038116811461455357600080fd5b600080600080600080600080610100898b031215614cf357600080fd5b8835614cfe81614b9b565b97506020890135614d0e81614cb0565b96506040890135614d1e81614cb0565b95506060890135614d2e81614cb0565b94506080890135614d3e81614cb0565b9350614d4c60a08a01614cbf565b925060c0890135915060e089013590509295985092959890939650565b600080600060608486031215614d7e57600080fd5b8335614d8981614b9b565b92506020840135614d9981614b9b565b929592945050506040919091013590565b60008060408385031215614dbd57600080fd5b8235614dc881614b9b565b91506020830135614dd881614b9b565b809150509250929050565b60008060008060808587031215614df957600080fd5b8435614e0481614b9b565b93506020850135614e1481614b9b565b93969395505050506040820135916060013590565b803560ff8116811461455357600080fd5b60008060008060008060c08789031215614e5357600080fd5b8635614e5e81614b9b565b95506020870135945060408701359350614e7a60608801614e29565b92506080870135915060a087013590509295509295509295565b80151581146133d657600080fd5b600080600060608486031215614eb757600080fd5b833592506020840135614ec981614b9b565b91506040840135614ed981614e94565b809150509250925092565b60008060008060008060c08789031215614efd57600080fd5b86359550614f0d60208801614cbf565b94506040870135614f1d81614b9b565b9350606087013592506080870135915060a0870135614f3b81614e94565b809150509295509295509295565b60008060408385031215614f5c57600080fd5b8235614f6781614b9b565b91506020830135614dd881614e94565b60008060008060008060c08789031215614f9057600080fd5b8635614f9b81614b9b565b95506020870135614fab81614b9b565b945060408701359350614e7a60608801614e29565b60008060208385031215614fd357600080fd5b823567ffffffffffffffff80821115614feb57600080fd5b818501915085601f830112614fff57600080fd5b81358181111561500e57600080fd5b8660208260051b850101111561502357600080fd5b60209290920196919550909350505050565b6000602080830181845280855180835260408601915060408160051b870101925083870160005b828110156150a8577fffffffffffffffffffffffffffffffffffffffffffffffffffffffffffffffc0888603018452615096858351614c2c565b9450928501929085019060010161505c565b5092979650505050505050565b60008060008060008060008060006101208a8c0312156150d457600080fd5b89356150df81614b9b565b985060208a01356150ef81614cb0565b975060408a01356150ff81614cb0565b965060608a013561510f81614cb0565b955060808a013561511f81614cb0565b945061512d60a08b01614cbf565b935061513b60c08b01614cbf565b925060e08a013591506101008a013590509295985092959850929598565b634e487b7160e01b600052604160045260246000fd5b604051601f8201601f1916810167ffffffffffffffff8111828210171561519857615198615159565b604052919050565b600067ffffffffffffffff8211156151ba576151ba615159565b50601f01601f191660200190565b600080600080608085870312156151de57600080fd5b84356151e981614b9b565b935060208501356151f981614b9b565b925060408501359150606085013567ffffffffffffffff81111561521c57600080fd5b8501601f8101871361522d57600080fd5b803561524061523b826151a0565b61516f565b81815288602083850101111561525557600080fd5b8160208401602083013760006020838301015280935050505092959194509250565b600181811c9082168061528b57607f821691505b602082108114156152ac57634e487b7160e01b600052602260045260246000fd5b50919050565b634e487b7160e01b600052601160045260246000fd5b60006001600160801b03838116908316818110156152e8576152e86152b2565b039392505050565b60006020828403121561530257600080fd5b8151613a7381614e94565b60006020828403121561531f57600080fd5b8151613a7381614b9b565b634e487b7160e01b600052603260045260246000fd5b600082821015615352576153526152b2565b500390565b6000806040838503121561536a57600080fd5b505080516020909101519092909150565b60008083357fffffffffffffffffffffffffffffffffffffffffffffffffffffffffffffffe18436030181126153b057600080fd5b83018035915067ffffffffffffffff8211156153cb57600080fd5b6020019150368190038213156153e057600080fd5b9250929050565b8183823760009101908152919050565b60006020828403121561540957600080fd5b815167ffffffffffffffff81111561542057600080fd5b8201601f8101841361543157600080fd5b805161543f61523b826151a0565b81815285602083850101111561545457600080fd5b614534826020830160208601614c00565b6000600019821415615479576154796152b2565b5060010190565b6000806000806080858703121561549657600080fd5b84516154a181614cb0565b60208601519094506154b281614cb0565b60408601519093506154c381614cb0565b60608601519092506154d481614cb0565b939692955090935050565b6000602082840312156154f157600080fd5b5051919050565b60006001600160801b0380831681851680830382111561551a5761551a6152b2565b01949350505050565b60008219821115615536576155366152b2565b500190565b60006001600160801b0380831681811415614854576148546152b2565b60007f800000000000000000000000000000000000000000000000000000000000000082141561558a5761558a6152b2565b5060000390565b60008160020b7fffffffffffffffffffffffffffffffffffffffffffffffffffffffffff8000008114156155c7576155c76152b2565b60000392915050565b634e487b7160e01b600052601260045260246000fd5b60006001600160a01b038087168352808616602084015250836040830152608060608301526156186080830184614c2c565b9695505050505050565b60006020828403121561563457600080fd5b8151613a7381614bcd565b634e487b7160e01b600052603160045260246000fd5b60008251615667818460208701614c00565b919091019291505056fea26469706673582212209b43d41b45dfefec0c7a8a6e6e2133b766e0165cb584cc5910f8d1f0957e74c764736f6c63430008090033",
  "deployedBytecode": "0x60806040526004361061024f5760003560e01c80636352211e11610138578063aba07847116100b0578063b88d4fde1161007f578063cf58879a11610064578063cf58879a146107d2578063e985e9c5146107f3578063ed7bba9a1461083c57600080fd5b8063b88d4fde14610792578063c87b56dd146107b257600080fd5b8063aba07847146106fe578063ac9650d81461071e578063b4e13c8d1461073e578063b70d2ea61461077257600080fd5b8063904dfb8e1161010757806399fbab88116100ec57806399fbab88146105d3578063a214fa6b146106be578063a22cb465146106de57600080fd5b8063904dfb8e1461059157806395d89b41146105be57600080fd5b80636352211e146104fc57806370a082311461051c5780637ac2ff7b1461053c5780638c6ab0131461055c57600080fd5b806323b872dd116101cb57806342842e0e1161019a5780634f558e791161017f5780634f558e791461049c5780634f6ccce7146104bc5780635f16529a146104dc57600080fd5b806342842e0e1461045c578063485cc9551461047c57600080fd5b806323b872dd146103d35780632f745c59146103f357806330adf81f146104135780633644e5151461044757600080fd5b8063095ea7b311610222578063141a468c11610207578063141a468c1461037057806318160ddd146103ab5780631816ec77146103c057600080fd5b8063095ea7b3146103055780630af2c6ca1461032557600080fd5b806301b9a3971461025457806301ffc9a71461027657806306fdde03146102ab578063081812fc146102cd575b600080fd5b34801561026057600080fd5b5061027461026f366004614bb0565b61087c565b005b34801561028257600080fd5b50610296610291366004614be3565b6108c9565b60405190151581526020015b60405180910390f35b3480156102b757600080fd5b506102c061090d565b6040516102a29190614c58565b3480156102d957600080fd5b506102ed6102e8366004614c6b565b61099f565b6040516001600160a01b0390911681526020016102a2565b34801561031157600080fd5b50610274610320366004614c84565b610a4a565b34801561033157600080fd5b5060cc54610350906001600160801b0380821691600160801b90041682565b604080516001600160801b039384168152929091166020830152016102a2565b34801561037c57600080fd5b5061039d61038b366004614c6b565b60cd6020526000908152604090205481565b6040519081526020016102a2565b3480156103b757600080fd5b5061039d610b7c565b61039d6103ce366004614cd6565b610bac565b3480156103df57600080fd5b506102746103ee366004614d69565b610f1d565b3480156103ff57600080fd5b5061039d61040e366004614c84565b610fa4565b34801561041f57600080fd5b5061039d7f49ecf333e5b8c95c40fdafc95c1ad136e8914a8fb55e9dc8bb01eaa83a2df9ad81565b34801561045357600080fd5b5061039d61104c565b34801561046857600080fd5b50610274610477366004614d69565b61115f565b34801561048857600080fd5b50610274610497366004614daa565b61117a565b3480156104a857600080fd5b506102966104b7366004614c6b565b6112f7565b3480156104c857600080fd5b5061039d6104d7366004614c6b565b611316565b3480156104e857600080fd5b506102746104f7366004614de3565b6113ba565b34801561050857600080fd5b506102ed610517366004614c6b565b611531565b34801561052857600080fd5b5061039d610537366004614bb0565b6115bc565b34801561054857600080fd5b50610274610557366004614e3a565b611656565b34801561056857600080fd5b5061057c610577366004614ea2565b6118ee565b604080519283526020830191909152016102a2565b34801561059d57600080fd5b5061039d6105ac366004614bb0565b60ce6020526000908152604090205481565b3480156105ca57600080fd5b506102c0611995565b3480156105df57600080fd5b5061065a6105ee366004614c6b565b61010760205260009081526040902080546001820154600280840154600385015460048601546005909601546001600160a01b03909516956001600160801b03851695600160801b8604850b95600160981b810490950b94600160b01b900463ffffffff169392919089565b604080516001600160a01b03909a168a526001600160801b0390981660208a0152600296870b978901979097529390940b606087015263ffffffff909116608086015260a085015260c084019190915260e0830152610100820152610120016102a2565b3480156106ca57600080fd5b5061057c6106d9366004614ee4565b6119a4565b3480156106ea57600080fd5b506102746106f9366004614f49565b611df6565b34801561070a57600080fd5b50610274610719366004614f77565b611e05565b61073161072c366004614fc0565b612052565b6040516102a29190615035565b34801561074a57600080fd5b5061039d7fdaab21af31ece73a508939fedd476a5ee5129a5ed4bb091f3236ffb45394df6281565b34801561077e57600080fd5b5061039d61078d3660046150b5565b6121aa565b34801561079e57600080fd5b506102746107ad3660046151c8565b612341565b3480156107be57600080fd5b506102c06107cd366004614c6b565b6123c9565b3480156107de57600080fd5b50610106546102ed906001600160a01b031681565b3480156107ff57600080fd5b5061029661080e366004614daa565b6001600160a01b039182166000908152606a6020908152604080832093909416825291909152205460ff1690565b34801561084857600080fd5b5061085c610857366004614c6b565b612463565b6040805194855260208501939093529183015260608201526080016102a2565b60cb546001600160a01b031633146108a757604051631eb49d6d60e11b815260040160405180910390fd5b60cb80546001600160a01b0319166001600160a01b0392909216919091179055565b60006001600160e01b031982167f780e9d630000000000000000000000000000000000000000000000000000000014806109075750610907826125f8565b92915050565b60606065805461091c90615277565b80601f016020809104026020016040519081016040528092919081815260200182805461094890615277565b80156109955780601f1061096a57610100808354040283529160200191610995565b820191906000526020600020905b81548152906001019060200180831161097857829003601f168201915b5050505050905090565b6000818152606760205260408120546001600160a01b0316610a2e5760405162461bcd60e51b815260206004820152602c60248201527f4552433732313a20617070726f76656420717565727920666f72206e6f6e657860448201527f697374656e7420746f6b656e000000000000000000000000000000000000000060648201526084015b60405180910390fd5b506000908152606960205260409020546001600160a01b031690565b6000610a5582611531565b9050806001600160a01b0316836001600160a01b03161415610adf5760405162461bcd60e51b815260206004820152602160248201527f4552433732313a20617070726f76616c20746f2063757272656e74206f776e6560448201527f72000000000000000000000000000000000000000000000000000000000000006064820152608401610a25565b336001600160a01b0382161480610afb5750610afb813361080e565b610b6d5760405162461bcd60e51b815260206004820152603860248201527f4552433732313a20617070726f76652063616c6c6572206973206e6f74206f7760448201527f6e6572206e6f7220617070726f76656420666f7220616c6c00000000000000006064820152608401610a25565b610b778383612693565b505050565b60cc54600090610b9e906001600160801b03600160801b8204811691166152c8565b6001600160801b0316905090565b6000600260cf541415610c015760405162461bcd60e51b815260206004820152601f60248201527f5265656e7472616e637947756172643a207265656e7472616e742063616c6c006044820152606401610a25565b600260cf55610106546040517fa4063dbc0000000000000000000000000000000000000000000000000000000081526001600160a01b03808c1660048301528b92169063a4063dbc9060240160206040518083038186803b158015610c6557600080fd5b505afa158015610c79573d6000803e3d6000fd5b505050506040513d601f19601f82011682018060405250810190610c9d91906152f0565b610cd3576040517f2083cd4000000000000000000000000000000000000000000000000000000000815260040160405180910390fd5b60008a905061010560019054906101000a90046001600160a01b03166001600160a01b0316816001600160a01b0316630dfe16816040518163ffffffff1660e01b815260040160206040518083038186803b158015610d3157600080fd5b505afa158015610d45573d6000803e3d6000fd5b505050506040513d601f19601f82011682018060405250810190610d69919061530d565b6001600160a01b03161415610ddd576101018054336001600160a01b03199182161790915561010280549091166001600160a01b038d1617905534610103556001600160801b03861661010455610105805460ff19166001179055610dd5818b8b8b8b348c8c8c612701565b925050610f0b565b61010560019054906101000a90046001600160a01b03166001600160a01b0316816001600160a01b031663d21220a76040518163ffffffff1660e01b815260040160206040518083038186803b158015610e3657600080fd5b505afa158015610e4a573d6000803e3d6000fd5b505050506040513d601f19601f82011682018060405250810190610e6e919061530d565b6001600160a01b031614610eae576040517f425c65bb00000000000000000000000000000000000000000000000000000000815260040160405180910390fd5b6101018054336001600160a01b03199182161790915561010280549091166001600160a01b038d161790556001600160801b038616610103553461010455610105805460ff19166001179055610dd5818b8b8b8b8b348c8c612701565b50600160cf5598975050505050505050565b610f273382612eaa565b610f995760405162461bcd60e51b815260206004820152603160248201527f4552433732313a207472616e736665722063616c6c6572206973206e6f74206f60448201527f776e6572206e6f7220617070726f7665640000000000000000000000000000006064820152608401610a25565b610b77838383612fb2565b6000610faf836115bc565b82106110235760405162461bcd60e51b815260206004820152602b60248201527f455243373231456e756d657261626c653a206f776e657220696e646578206f7560448201527f74206f6620626f756e64730000000000000000000000000000000000000000006064820152608401610a25565b506001600160a01b03919091166000908152609760209081526040808320938352929052205490565b600060ca5446146111585750604080518082018252600a81527f50414e4745412d504f530000000000000000000000000000000000000000000060209182015281518083018352600181527f31000000000000000000000000000000000000000000000000000000000000009082015281517f8b73c3c69bb8fe3d512ecc4cf759cc79239f7b179b0ffacaa9a75d522b39400f818301527f16d34b8f23ef02572737473f7ba87ffe21ee45c6bbade7dae4039edd04580f63818401527fc89efdaa54c0f20c7adf612882df0950f5a951637e0307cdcb4c672f298b8bc660608201524660808201523060a0808301919091528351808303909101815260c0909101909252815191012090565b5060c95490565b610b7783838360405180602001604052806000815250612341565b600054610100900460ff166111955760005460ff1615611199565b303b155b61120b5760405162461bcd60e51b815260206004820152602e60248201527f496e697469616c697a61626c653a20636f6e747261637420697320616c72656160448201527f647920696e697469616c697a65640000000000000000000000000000000000006064820152608401610a25565b600054610100900460ff1615801561124a57600080547fffffffffffffffffffffffffffffffffffffffffffffffffffffffffffff0000166101011790555b61125261318a565b61125a613312565b61010680546001600160a01b038086166001600160a01b03199283161790925560cb8054909116331790556101058054918416610100027fffffffffffffffffffffff0000000000000000000000000000000000000000ff9092169190911790556112c430613385565b8015610b7757600080547fffffffffffffffffffffffffffffffffffffffffffffffffffffffffffff00ff169055505050565b6000818152606760205260408120546001600160a01b03161515610907565b600061132160995490565b82106113955760405162461bcd60e51b815260206004820152602c60248201527f455243373231456e756d657261626c653a20676c6f62616c20696e646578206f60448201527f7574206f6620626f756e647300000000000000000000000000000000000000006064820152608401610a25565b609982815481106113a8576113a861532a565b90600052602060002001549050919050565b610102546001600160a01b031633146113ff576040517f2ddb0d4000000000000000000000000000000000000000000000000000000000815260040160405180910390fd5b6101055460ff1680156114255750610105546001600160a01b0385811661010090920416145b1561145f5761143433836133d9565b610101546101035461145a916001600160a01b031690611455908590615340565b61345e565b611479565b610101546114799085906001600160a01b03163385613501565b6101055460ff16801561149f5750610105546001600160a01b0384811661010090920416145b156114d4576114ae33826133d9565b61010154610104546114cf916001600160a01b031690611455908490615340565b6114ee565b610101546114ee9084906001600160a01b03163384613501565b610101805460016001600160a01b0319918216811790925561010280549091169091179055600061010381905561010455610105805460ff191690555b50505050565b6000818152606760205260408120546001600160a01b0316806109075760405162461bcd60e51b815260206004820152602960248201527f4552433732313a206f776e657220717565727920666f72206e6f6e657869737460448201527f656e7420746f6b656e00000000000000000000000000000000000000000000006064820152608401610a25565b60006001600160a01b03821661163a5760405162461bcd60e51b815260206004820152602a60248201527f4552433732313a2062616c616e636520717565727920666f7220746865207a6560448201527f726f2061646472657373000000000000000000000000000000000000000000006064820152608401610a25565b506001600160a01b031660009081526068602052604090205490565b428410156116a65760405162461bcd60e51b815260206004820152601760248201527f5045524d49545f444541444c494e455f455850495245440000000000000000006044820152606401610a25565b60006116b186611531565b905060006116bd61104c565b600088815260cd602090815260409182902080546001810190915582517f49ecf333e5b8c95c40fdafc95c1ad136e8914a8fb55e9dc8bb01eaa83a2df9ad818401526001600160a01b038d1681850152606081018c9052608081019190915260a08082018b90528351808303909101815260c08201909352825192909101919091207f190100000000000000000000000000000000000000000000000000000000000060e083015260e28201929092526101028101919091526101220160408051601f198184030181528282528051602091820120600080855291840180845281905260ff89169284019290925260608301879052608083018690529092509060019060a0016020604051602081039080840390855afa1580156117e5573d6000803e3d6000fd5b5050604051601f1901519150506001600160a01b0381166118485760405162461bcd60e51b815260206004820152601860248201527f494e56414c49445f5045524d49545f5349474e415455524500000000000000006044820152606401610a25565b826001600160a01b0316816001600160a01b0316148061188d57506001600160a01b038084166000908152606a602090815260408083209385168352929052205460ff165b6118d95760405162461bcd60e51b815260206004820152600e60248201527f494e56414c49445f5349474e45520000000000000000000000000000000000006044820152606401610a25565b50506118e58787612693565b50505050505050565b600080600260cf5414156119445760405162461bcd60e51b815260206004820152601f60248201527f5265656e7472616e637947756172643a207265656e7472616e742063616c6c006044820152606401610a25565b600260cf556119533386612eaa565b61197057604051631eb49d6d60e11b815260040160405180910390fd5b61197985613516565b611984858585613557565b600160cf5590969095509350505050565b60606066805461091c90615277565b600080600260cf5414156119fa5760405162461bcd60e51b815260206004820152601f60248201527f5265656e7472616e637947756172643a207265656e7472616e742063616c6c006044820152606401610a25565b600260cf55611a093389612eaa565b611a2657604051631eb49d6d60e11b815260040160405180910390fd5b6000888152610107602090815260409182902082516101208101845281546001600160a01b0316815260018201546001600160801b03811693820193909352600160801b8304600290810b94820194909452600160981b8304840b6060820152600160b01b90920463ffffffff1660808301529182015460a0820152600382015460c0820152600482015460e0820152600590910154610100820152611acb89613516565b80602001516001600160801b0316886001600160801b03161015611bfb578051604080830151606084015191517fa34123a7000000000000000000000000000000000000000000000000000000008152600291820b600482015291900b60248201526001600160801b038a1660448201526001600160a01b039091169063a34123a7906064016040805180830381600087803b158015611b6a57600080fd5b505af1158015611b7e573d6000803e3d6000fd5b505050506040513d601f19601f82011682018060405250810190611ba29190615357565b60008b81526101076020526040812060010180549396509194508a92611bd29084906001600160801b03166152c8565b92506101000a8154816001600160801b0302191690836001600160801b03160217905550611d36565b60208101518151604080840151606085015191517fa34123a7000000000000000000000000000000000000000000000000000000008152600291820b600482015291900b60248201526001600160801b03831660448201529199506001600160a01b03169063a34123a7906064016040805180830381600087803b158015611c8257600080fd5b505af1158015611c96573d6000803e3d6000fd5b505050506040513d601f19601f82011682018060405250810190611cba9190615357565b9093509150611cca898886613557565b5050611cd5896136b6565b60008981526101076020526040812080546001600160a01b03191681556001810180547fffffffffffff0000000000000000000000000000000000000000000000000000169055600281018290556003810182905560048101829055600501555b85831080611d4357508482105b15611d7a576040517fc9f52c7100000000000000000000000000000000000000000000000000000000815260040160405180910390fd5b8051611d899088858588613704565b805160408051858152602081018590526001600160801b038b168183015290518b9233926001600160a01b03909116917f7a7cc3d6e9116c317f33888a57dd914fae984c233de0802abd7ea1f7eda6bb629181900360600190a450600160cf559097909650945050505050565b611e0133838361386e565b5050565b42841015611e555760405162461bcd60e51b815260206004820152601760248201527f5045524d49545f444541444c494e455f455850495245440000000000000000006044820152606401610a25565b6000611e5f61104c565b6001600160a01b03888116600081815260ce602090815260409182902080546001810190915582517fdaab21af31ece73a508939fedd476a5ee5129a5ed4bb091f3236ffb45394df628184015280840194909452938b166060840152608083019390935260a08083018a90528151808403909101815260c0830190915280519201919091207f190100000000000000000000000000000000000000000000000000000000000060e083015260e28201929092526101028101919091526101220160408051601f198184030181528282528051602091820120600080855291840180845281905260ff88169284019290925260608301869052608083018590529092509060019060a0016020604051602081039080840390855afa158015611f8a573d6000803e3d6000fd5b5050604051601f1901519150506001600160a01b03811615801590611fc05750876001600160a01b0316816001600160a01b0316145b80611ff057506001600160a01b038089166000908152606a602090815260408083209385168352929052205460ff165b61203c5760405162461bcd60e51b815260206004820152601860248201527f494e56414c49445f5045524d49545f5349474e415455524500000000000000006044820152606401610a25565b505061204a8686600161386e565b505050505050565b60608167ffffffffffffffff81111561206d5761206d615159565b6040519080825280602002602001820160405280156120a057816020015b606081526020019060019003908161208b5790505b50905060005b828110156121a357600080308686858181106120c4576120c461532a565b90506020028101906120d6919061537b565b6040516120e49291906153e7565b600060405180830381855af49150503d806000811461211f576040519150601f19603f3d011682016040523d82523d6000602084013e612124565b606091505b5091509150816121705760448151101561213d57600080fd5b6004810190508080602001905181019061215791906153f7565b60405162461bcd60e51b8152600401610a259190614c58565b808484815181106121835761218361532a565b60200260200101819052505050808061219b90615465565b9150506120a6565b5092915050565b6000600260cf5414156121ff5760405162461bcd60e51b815260206004820152601f60248201527f5265656e7472616e637947756172643a207265656e7472616e742063616c6c006044820152606401610a25565b600260cf55610106546040517fa4063dbc0000000000000000000000000000000000000000000000000000000081526001600160a01b03808d1660048301528c92169063a4063dbc9060240160206040518083038186803b15801561226357600080fd5b505afa158015612277573d6000803e3d6000fd5b505050506040513d601f19601f8201168201806040525081019061229b91906152f0565b6122d1576040517f2083cd4000000000000000000000000000000000000000000000000000000000815260040160405180910390fd5b6101018054336001600160a01b03199182161790915561010280549091166001600160a01b038d161790556001600160801b0380871661010355851661010455610105805460ff1916905561232d8b8b8b8b8b8b8b8b8b612701565b600160cf559b9a5050505050505050505050565b61234b3383612eaa565b6123bd5760405162461bcd60e51b815260206004820152603160248201527f4552433732313a207472616e736665722063616c6c6572206973206e6f74206f60448201527f776e6572206e6f7220617070726f7665640000000000000000000000000000006064820152608401610a25565b61152b8484848461393d565b60cb546040517fc87b56dd000000000000000000000000000000000000000000000000000000008152600481018390526060916001600160a01b03169063c87b56dd9060240160006040518083038186803b15801561242757600080fd5b505afa15801561243b573d6000803e3d6000fd5b505050506040513d6000823e601f3d908101601f1916820160405261090791908101906153f7565b60008181526101076020908152604080832081516101208101835281546001600160a01b031680825260018301546001600160801b03811695830195909552600160801b8504600290810b838601819052600160981b8704820b60608501819052600160b01b90970463ffffffff1660808501529084015460a0840152600384015460c084015260048085015460e085015260059094015461010084015293517facfe88f800000000000000000000000000000000000000000000000000000000815292830193909352602482019390935283928392839263acfe88f890604401604080518083038186803b15801561255b57600080fd5b505afa15801561256f573d6000803e3d6000fd5b505050506040513d601f19601f820116820180604052508101906125939190615357565b80935081945050508060e001516125c28260a00151850383602001516001600160801b0316600160801b6139c6565b0194508061010001516125ed8260c00151840383602001516001600160801b0316600160801b6139c6565b019350509193509193565b60006001600160e01b031982167f80ac58cd00000000000000000000000000000000000000000000000000000000148061265b57506001600160e01b031982167f5b5e139f00000000000000000000000000000000000000000000000000000000145b8061090757507f01ffc9a7000000000000000000000000000000000000000000000000000000006001600160e01b0319831614610907565b600081815260696020526040902080546001600160a01b0319166001600160a01b03841690811790915581906126c882611531565b6001600160a01b03167f8c5be1e5ebec7d5bd14f71427d1e84f3dd0314c0f7b2291e5b200ac8c7c3b92560405160405180910390a45050565b6040517faf605c880000000000000000000000000000000000000000000000000000000081526001600160a01b038a166004820152600289810b602483015288810b604483015287810b606483015286900b608482015260009073__$bcc72c71f8b76091ef44cf265824b83400$__9063af605c889060a40160806040518083038186803b15801561279257600080fd5b505af41580156127a6573d6000803e3d6000fd5b505050506040513d601f19601f820116820180604052508101906127ca9190615480565b6040805160c081018252600286810b825285810b6020830190815285820b83850190815285830b606085019081526001600160801b038f8116608087019081528f821660a0880190815297517f0ae9ba8a0000000000000000000000000000000000000000000000000000000081529651860b60048801529351850b60248701529151840b60448601525190920b60648401525181166084830152915190911660a4820152939c50919a50985096506000906001600160a01b038c1690630ae9ba8a9060c401602060405180830381600087803b1580156128aa57600080fd5b505af11580156128be573d6000803e3d6000fd5b505050506040513d601f19601f820116820180604052508101906128e291906154df565b905083816001600160801b03161015612927576040517fc9f52c7100000000000000000000000000000000000000000000000000000000815260040160405180910390fd5b82612b615760cc546040517facfe88f800000000000000000000000000000000000000000000000000000000815260028b810b600483015289900b60248201526001600160801b03909116925060009081906001600160a01b038e169063acfe88f890604401604080518083038186803b1580156129a457600080fd5b505afa1580156129b8573d6000803e3d6000fd5b505050506040513d601f19601f820116820180604052508101906129dc9190615357565b915091506040518061012001604052808e6001600160a01b03168152602001846001600160801b031681526020018c60020b81526020018a60020b81526020014263ffffffff168152602001838152602001828152602001600081526020016000815250610107600086815260200190815260200160002060008201518160000160006101000a8154816001600160a01b0302191690836001600160a01b0316021790555060208201518160010160006101000a8154816001600160801b0302191690836001600160801b0316021790555060408201518160010160106101000a81548162ffffff021916908360020b62ffffff16021790555060608201518160010160136101000a81548162ffffff021916908360020b62ffffff16021790555060808201518160010160166101000a81548163ffffffff021916908363ffffffff16021790555060a0820151816002015560c0820151816003015560e082015181600401556101008201518160050155905050612b5a33613385565b5050612ccf565b60008381526101076020526040902080548493506001600160a01b038d8116911614612bb9576040517f9840420600000000000000000000000000000000000000000000000000000000815260040160405180910390fd5b600181015460028b810b600160801b909204900b141580612bec57506001810154600289810b600160981b909204900b14155b15612c23576040517f2baa8efe00000000000000000000000000000000000000000000000000000000815260040160405180910390fd5b612c2d3384612eaa565b612c4a57604051631eb49d6d60e11b815260040160405180910390fd5b612c5383613516565b600181018054839190600090612c739084906001600160801b03166154f8565b82546101009290920a6001600160801b038181021990931691909216919091021790555060010180547fffffffffffff00000000ffffffffffffffffffffffffffffffffffffffffffff16600160b01b4263ffffffff16021790555b60008281526101076020908152604080832081516101208101835281546001600160a01b0316815260018201546001600160801b03811694820194909452600160801b8404600290810b938201849052600160981b8504810b6060830152600160b01b90940463ffffffff1660808201529281015460a0840152600381015460c0840152600481015460e0840152600501546101008301529091908190612e2790612d7990613a7a565b6001600160a01b0316612d8f8560600151613a7a565b6001600160a01b031685600001516001600160a01b031663a035b1fe6040518163ffffffff1660e01b815260040160206040518083038186803b158015612dd557600080fd5b505afa158015612de9573d6000803e3d6000fd5b505050506040513d601f19601f82011682018060405250810190612e0d919061530d565b6001600160a01b0316876001600160801b03166001613de2565b9150915084336001600160a01b03168f6001600160a01b03167fa0cbbe2e0e524c30e7105f393c94244cbc448c9a309724650d8ca7bb465f5395858589604051612e91939291906001600160801b0393841681529183166020830152909116604082015260600190565b60405180910390a4505050509998505050505050505050565b6000818152606760205260408120546001600160a01b0316612f345760405162461bcd60e51b815260206004820152602c60248201527f4552433732313a206f70657261746f7220717565727920666f72206e6f6e657860448201527f697374656e7420746f6b656e00000000000000000000000000000000000000006064820152608401610a25565b6000612f3f83611531565b9050806001600160a01b0316846001600160a01b03161480612f7a5750836001600160a01b0316612f6f8461099f565b6001600160a01b0316145b80612faa57506001600160a01b038082166000908152606a602090815260408083209388168352929052205460ff165b949350505050565b826001600160a01b0316612fc582611531565b6001600160a01b0316146130415760405162461bcd60e51b815260206004820152602560248201527f4552433732313a207472616e736665722066726f6d20696e636f72726563742060448201527f6f776e65720000000000000000000000000000000000000000000000000000006064820152608401610a25565b6001600160a01b0382166130bc5760405162461bcd60e51b8152602060048201526024808201527f4552433732313a207472616e7366657220746f20746865207a65726f2061646460448201527f72657373000000000000000000000000000000000000000000000000000000006064820152608401610a25565b6130c7838383613e51565b6130d2600082612693565b6001600160a01b03831660009081526068602052604081208054600192906130fb908490615340565b90915550506001600160a01b0382166000908152606860205260408120805460019290613129908490615523565b909155505060008181526067602052604080822080546001600160a01b0319166001600160a01b0386811691821790925591518493918716917fddf252ad1be2c89b69c2b068fc378daa952ba7f163c4a11628f55a4df523b3ef91a4505050565b6131fe6040518060400160405280600f81526020017f50616e67656120506f736974696f6e00000000000000000000000000000000008152506040518060400160405280600a81526020017f50414e4745412d504f5300000000000000000000000000000000000000000000815250613edd565b4660ca55613305604080518082018252600a81527f50414e4745412d504f530000000000000000000000000000000000000000000060209182015281518083018352600181527f31000000000000000000000000000000000000000000000000000000000000009082015281517f8b73c3c69bb8fe3d512ecc4cf759cc79239f7b179b0ffacaa9a75d522b39400f818301527f16d34b8f23ef02572737473f7ba87ffe21ee45c6bbade7dae4039edd04580f63818401527fc89efdaa54c0f20c7adf612882df0950f5a951637e0307cdcb4c672f298b8bc660608201524660808201523060a0808301919091528351808303909101815260c0909101909252815191012090565b60c955613310613f52565b565b600054610100900460ff1661337d5760405162461bcd60e51b815260206004820152602b60248201527f496e697469616c697a61626c653a20636f6e7472616374206973206e6f74206960448201526a6e697469616c697a696e6760a81b6064820152608401610a25565b613310613fbd565b60cc80546133d69183916001600160801b03169060006133a48361553b565b91906101000a8154816001600160801b0302191690836001600160801b031602179055506001600160801b031661402f565b50565b806133e2575050565b610105546040517fb760faf90000000000000000000000000000000000000000000000000000000081526001600160a01b0384811660048301526101009092049091169063b760faf99083906024016000604051808303818588803b15801561344a57600080fd5b505af11580156118e5573d6000803e3d6000fd5b6000826001600160a01b03168260405160006040518083038185875af1925050503d80600081146134ab576040519150601f19603f3d011682016040523d82523d6000602084013e6134b0565b606091505b5050905080610b775760405162461bcd60e51b815260206004820152601360248201527f4554485f5452414e534645525f4641494c4544000000000000000000000000006044820152606401610a25565b61152b6001600160a01b03851684848461417d565b60008060008061352585612463565b600098895261010760205260409098206004810193909355600583019190915560028201556003019490945550505050565b6000838152610107602052604080822080546001820154600480840154600585015495517f2df94b0f000000000000000000000000000000000000000000000000000000008152600160801b8404600290810b93820193909352600160981b90930490910b60248301526044820152606481019390935283926001600160a01b0390911690632df94b0f906084016040805180830381600087803b1580156135fe57600080fd5b505af1158015613612573d6000803e3d6000fd5b505050506040513d601f19601f820116820180604052508101906136369190615357565b600060048401819055600584015582549194509250613661906001600160a01b031686858588613704565b8054604080518581526020810185905288926001600160a01b03898116939116917f31135c84c98c756a9a84c21b514d356a17967948475c29a83db0e94f6ea5d073910160405180910390a450935093915050565b60cc8054600160801b90046001600160801b03169060106136d68361553b565b91906101000a8154816001600160801b0302191690836001600160801b03160217905550506133d681614216565b6000856001600160a01b0316630dfe16816040518163ffffffff1660e01b815260040160206040518083038186803b15801561373f57600080fd5b505afa158015613753573d6000803e3d6000fd5b505050506040513d601f19601f82011682018060405250810190613777919061530d565b610105549091506001600160a01b038083166101009092041614801561379a5750815b156137ae576137a985856142bd565b6137b9565b6137b9818686614348565b6000866001600160a01b031663d21220a76040518163ffffffff1660e01b815260040160206040518083038186803b1580156137f457600080fd5b505afa158015613808573d6000803e3d6000fd5b505050506040513d601f19601f8201168201806040525081019061382c919061530d565b610105549091506001600160a01b038083166101009092041614801561384f5750825b156138635761385e86856142bd565b6118e5565b6118e5818786614348565b816001600160a01b0316836001600160a01b031614156138d05760405162461bcd60e51b815260206004820152601960248201527f4552433732313a20617070726f766520746f2063616c6c6572000000000000006044820152606401610a25565b6001600160a01b038381166000818152606a6020908152604080832094871680845294825291829020805460ff191686151590811790915591519182527f17307eab39ab6107e8899845ad3d59bd9653f200f220920489ca2b5937696c31910160405180910390a3505050565b613948848484612fb2565b6139548484848461435c565b61152b5760405162461bcd60e51b815260206004820152603260248201527f4552433732313a207472616e7366657220746f206e6f6e20455243373231526560448201527f63656976657220696d706c656d656e74657200000000000000000000000000006064820152608401610a25565b600080806000198587098587029250828110838203039150508060001415613a0057600084116139f557600080fd5b508290049050613a73565b808411613a0c57600080fd5b6000848688096000868103871696879004966002600389028118808a02820302808a02820302808a02820302808a02820302808a02820302808a02909103029181900381900460010186841190950394909402919094039290920491909117919091029150505b9392505050565b60008060008360020b12613a91578260020b613a9e565b8260020b613a9e90615558565b9050613ac97ffffffffffffffffffffffffffffffffffffffffffffffffffffffffffff27618615591565b62ffffff16811115613b07576040517ff87dc40c00000000000000000000000000000000000000000000000000000000815260040160405180910390fd5b600060018216613b1b57600160801b613b2d565b6ffffcb933bd6fad37aa2d162d1a5940015b70ffffffffffffffffffffffffffffffffff1690506002821615613b61576ffff97272373d413259a46990580e213a0260801c5b6004821615613b80576ffff2e50f5f656932ef12357cf3c7fdcc0260801c5b6008821615613b9f576fffe5caca7e10e4e61c3624eaa0941cd00260801c5b6010821615613bbe576fffcb9843d60f6159c9db58835c9266440260801c5b6020821615613bdd576fff973b41fa98c081472e6896dfb254c00260801c5b6040821615613bfc576fff2ea16466c96a3843ec78b326b528610260801c5b6080821615613c1b576ffe5dee046a99a2a811c461f1969c30530260801c5b610100821615613c3b576ffcbe86c7900a88aedcffc83b479aa3a40260801c5b610200821615613c5b576ff987a7253ac413176f2b074cf7815e540260801c5b610400821615613c7b576ff3392b0822b70005940c7a398e4b70f30260801c5b610800821615613c9b576fe7159475a2c29b7443b29c7fa6e889d90260801c5b611000821615613cbb576fd097f3bdfd2022b8845ad8f792aa58250260801c5b612000821615613cdb576fa9f746462d870fdf8a65dc1f90e061e50260801c5b614000821615613cfb576f70d869a156d2a1b890bb3df62baf32f70260801c5b618000821615613d1b576f31be135f97d08fd981231505542fcfa60260801c5b62010000821615613d3c576f09aa508b5b7a84e1c677de54f3e99bc90260801c5b62020000821615613d5c576e5d6af8dedb81196699c329225ee6040260801c5b62040000821615613d7b576d2216e584f5fa1ea926041bedfe980260801c5b62080000821615613d98576b048a170391f7dc42444e8fa20260801c5b60008460020b1315613db9578060001981613db557613db56155d0565b0490505b640100000000810615613dcd576001613dd0565b60005b60ff16602082901c0192505050919050565b600080848611613e0757613e00613dfb858989876144f1565b61453d565b9050613e47565b868511613e2457613e1d613dfb85898987614558565b9150613e47565b613e33613dfb85878987614558565b9150613e44613dfb858988876144f1565b90505b9550959350505050565b61dead6001600160a01b0383161415613ed25760405162461bcd60e51b815260206004820152602960248201527f4552433732313a207472616e7366657220746f20746865206b6c69702044454160448201527f44206164647265737300000000000000000000000000000000000000000000006064820152608401610a25565b610b778383836145a9565b600054610100900460ff16613f485760405162461bcd60e51b815260206004820152602b60248201527f496e697469616c697a61626c653a20636f6e7472616374206973206e6f74206960448201526a6e697469616c697a696e6760a81b6064820152608401610a25565b611e018282614661565b600054610100900460ff166133105760405162461bcd60e51b815260206004820152602b60248201527f496e697469616c697a61626c653a20636f6e7472616374206973206e6f74206960448201526a6e697469616c697a696e6760a81b6064820152608401610a25565b600054610100900460ff166140285760405162461bcd60e51b815260206004820152602b60248201527f496e697469616c697a61626c653a20636f6e7472616374206973206e6f74206960448201526a6e697469616c697a696e6760a81b6064820152608401610a25565b600160cf55565b6001600160a01b0382166140855760405162461bcd60e51b815260206004820181905260248201527f4552433732313a206d696e7420746f20746865207a65726f20616464726573736044820152606401610a25565b6000818152606760205260409020546001600160a01b0316156140ea5760405162461bcd60e51b815260206004820152601c60248201527f4552433732313a20746f6b656e20616c7265616479206d696e746564000000006044820152606401610a25565b6140f660008383613e51565b6001600160a01b038216600090815260686020526040812080546001929061411f908490615523565b909155505060008181526067602052604080822080546001600160a01b0319166001600160a01b03861690811790915590518392907fddf252ad1be2c89b69c2b068fc378daa952ba7f163c4a11628f55a4df523b3ef908290a45050565b6040516001600160a01b038085166024830152831660448201526064810182905261152b9085907f23b872dd00000000000000000000000000000000000000000000000000000000906084015b60408051601f198184030181529190526020810180517bffffffffffffffffffffffffffffffffffffffffffffffffffffffff166001600160e01b0319909316929092179091526146f3565b600061422182611531565b905061422f81600084613e51565b61423a600083612693565b6001600160a01b0381166000908152606860205260408120805460019290614263908490615340565b909155505060008281526067602052604080822080546001600160a01b0319169055518391906001600160a01b038416907fddf252ad1be2c89b69c2b068fc378daa952ba7f163c4a11628f55a4df523b3ef908390a45050565b806142c6575050565b610105546040517f205c28780000000000000000000000000000000000000000000000000000000081526001600160a01b038481166004830152602482018490526101009092049091169063205c287890604401600060405180830381600087803b15801561433457600080fd5b505af115801561204a573d6000803e3d6000fd5b610b776001600160a01b03841683836147d8565b60006001600160a01b0384163b156144e6576040517f150b7a020000000000000000000000000000000000000000000000000000000081526001600160a01b0385169063150b7a02906143b99033908990889088906004016155e6565b602060405180830381600087803b1580156143d357600080fd5b505af1925050508015614403575060408051601f3d908101601f1916820190925261440091810190615622565b60015b6144b3573d808015614431576040519150601f19603f3d011682016040523d82523d6000602084013e614436565b606091505b5080516144ab5760405162461bcd60e51b815260206004820152603260248201527f4552433732313a207472616e7366657220746f206e6f6e20455243373231526560448201527f63656976657220696d706c656d656e74657200000000000000000000000000006064820152608401610a25565b805181602001fd5b6001600160e01b0319167f150b7a0200000000000000000000000000000000000000000000000000000000149050612faa565b506001949350505050565b6000811561451a57614513858585036c01000000000000000000000000614821565b9050612faa565b614534858585036c010000000000000000000000006139c6565b95945050505050565b806001600160801b038116811461455357600080fd5b919050565b6000811561458057614513614574606087901b86860386614821565b85808204910615150190565b83614592606087901b828603866139c6565b8161459f5761459f6155d0565b0495945050505050565b6001600160a01b038316614604576145ff81609980546000838152609a60205260408120829055600182018355919091527f72a152ddfb8e864297c917af52ea6c1c68aead0fee1a62673fcc7e0c94979d000155565b614627565b816001600160a01b0316836001600160a01b03161461462757614627838261485e565b6001600160a01b03821661463e57610b77816148fb565b826001600160a01b0316826001600160a01b031614610b7757610b7782826149aa565b600054610100900460ff166146cc5760405162461bcd60e51b815260206004820152602b60248201527f496e697469616c697a61626c653a20636f6e7472616374206973206e6f74206960448201526a6e697469616c697a696e6760a81b6064820152608401610a25565b81516146df906065906020850190614b02565b508051610b77906066906020840190614b02565b6000614748826040518060400160405280602081526020017f5361666545524332303a206c6f772d6c6576656c2063616c6c206661696c6564815250856001600160a01b03166149ee9092919063ffffffff16565b805190915015610b77578080602001905181019061476691906152f0565b610b775760405162461bcd60e51b815260206004820152602a60248201527f5361666545524332303a204552433230206f7065726174696f6e20646964206e60448201527f6f742073756363656564000000000000000000000000000000000000000000006064820152608401610a25565b6040516001600160a01b038316602482015260448101829052610b779084907fa9059cbb00000000000000000000000000000000000000000000000000000000906064016141ca565b600061482e8484846139c6565b9050818061483e5761483e6155d0565b83850915613a7357600019811061485457600080fd5b6001019392505050565b6000600161486b846115bc565b6148759190615340565b6000838152609860205260409020549091508082146148c8576001600160a01b03841660009081526097602090815260408083208584528252808320548484528184208190558352609890915290208190555b5060009182526098602090815260408084208490556001600160a01b039094168352609781528383209183525290812055565b60995460009061490d90600190615340565b6000838152609a6020526040812054609980549394509092849081106149355761493561532a565b9060005260206000200154905080609983815481106149565761495661532a565b6000918252602080832090910192909255828152609a9091526040808220849055858252812055609980548061498e5761498e61563f565b6001900381819060005260206000200160009055905550505050565b60006149b5836115bc565b6001600160a01b039093166000908152609760209081526040808320868452825280832085905593825260989052919091209190915550565b6060612faa8484600085856001600160a01b0385163b614a505760405162461bcd60e51b815260206004820152601d60248201527f416464726573733a2063616c6c20746f206e6f6e2d636f6e74726163740000006044820152606401610a25565b600080866001600160a01b03168587604051614a6c9190615655565b60006040518083038185875af1925050503d8060008114614aa9576040519150601f19603f3d011682016040523d82523d6000602084013e614aae565b606091505b5091509150614abe828286614ac9565b979650505050505050565b60608315614ad8575081613a73565b825115614ae85782518084602001fd5b8160405162461bcd60e51b8152600401610a259190614c58565b828054614b0e90615277565b90600052602060002090601f016020900481019282614b305760008555614b76565b82601f10614b4957805160ff1916838001178555614b76565b82800160010185558215614b76579182015b82811115614b76578251825591602001919060010190614b5b565b50614b82929150614b86565b5090565b5b80821115614b825760008155600101614b87565b6001600160a01b03811681146133d657600080fd5b600060208284031215614bc257600080fd5b8135613a7381614b9b565b6001600160e01b0319811681146133d657600080fd5b600060208284031215614bf557600080fd5b8135613a7381614bcd565b60005b83811015614c1b578181015183820152602001614c03565b8381111561152b5750506000910152565b60008151808452614c44816020860160208601614c00565b601f01601f19169290920160200192915050565b602081526000613a736020830184614c2c565b600060208284031215614c7d57600080fd5b5035919050565b60008060408385031215614c9757600080fd5b8235614ca281614b9b565b946020939093013593505050565b8060020b81146133d657600080fd5b80356001600160801b038116811461455357600080fd5b600080600080600080600080610100898b031215614cf357600080fd5b8835614cfe81614b9b565b97506020890135614d0e81614cb0565b96506040890135614d1e81614cb0565b95506060890135614d2e81614cb0565b94506080890135614d3e81614cb0565b9350614d4c60a08a01614cbf565b925060c0890135915060e089013590509295985092959890939650565b600080600060608486031215614d7e57600080fd5b8335614d8981614b9b565b92506020840135614d9981614b9b565b929592945050506040919091013590565b60008060408385031215614dbd57600080fd5b8235614dc881614b9b565b91506020830135614dd881614b9b565b809150509250929050565b60008060008060808587031215614df957600080fd5b8435614e0481614b9b565b93506020850135614e1481614b9b565b93969395505050506040820135916060013590565b803560ff8116811461455357600080fd5b60008060008060008060c08789031215614e5357600080fd5b8635614e5e81614b9b565b95506020870135945060408701359350614e7a60608801614e29565b92506080870135915060a087013590509295509295509295565b80151581146133d657600080fd5b600080600060608486031215614eb757600080fd5b833592506020840135614ec981614b9b565b91506040840135614ed981614e94565b809150509250925092565b60008060008060008060c08789031215614efd57600080fd5b86359550614f0d60208801614cbf565b94506040870135614f1d81614b9b565b9350606087013592506080870135915060a0870135614f3b81614e94565b809150509295509295509295565b60008060408385031215614f5c57600080fd5b8235614f6781614b9b565b91506020830135614dd881614e94565b60008060008060008060c08789031215614f9057600080fd5b8635614f9b81614b9b565b95506020870135614fab81614b9b565b945060408701359350614e7a60608801614e29565b60008060208385031215614fd357600080fd5b823567ffffffffffffffff80821115614feb57600080fd5b818501915085601f830112614fff57600080fd5b81358181111561500e57600080fd5b8660208260051b850101111561502357600080fd5b60209290920196919550909350505050565b6000602080830181845280855180835260408601915060408160051b870101925083870160005b828110156150a8577fffffffffffffffffffffffffffffffffffffffffffffffffffffffffffffffc0888603018452615096858351614c2c565b9450928501929085019060010161505c565b5092979650505050505050565b60008060008060008060008060006101208a8c0312156150d457600080fd5b89356150df81614b9b565b985060208a01356150ef81614cb0565b975060408a01356150ff81614cb0565b965060608a013561510f81614cb0565b955060808a013561511f81614cb0565b945061512d60a08b01614cbf565b935061513b60c08b01614cbf565b925060e08a013591506101008a013590509295985092959850929598565b634e487b7160e01b600052604160045260246000fd5b604051601f8201601f1916810167ffffffffffffffff8111828210171561519857615198615159565b604052919050565b600067ffffffffffffffff8211156151ba576151ba615159565b50601f01601f191660200190565b600080600080608085870312156151de57600080fd5b84356151e981614b9b565b935060208501356151f981614b9b565b925060408501359150606085013567ffffffffffffffff81111561521c57600080fd5b8501601f8101871361522d57600080fd5b803561524061523b826151a0565b61516f565b81815288602083850101111561525557600080fd5b8160208401602083013760006020838301015280935050505092959194509250565b600181811c9082168061528b57607f821691505b602082108114156152ac57634e487b7160e01b600052602260045260246000fd5b50919050565b634e487b7160e01b600052601160045260246000fd5b60006001600160801b03838116908316818110156152e8576152e86152b2565b039392505050565b60006020828403121561530257600080fd5b8151613a7381614e94565b60006020828403121561531f57600080fd5b8151613a7381614b9b565b634e487b7160e01b600052603260045260246000fd5b600082821015615352576153526152b2565b500390565b6000806040838503121561536a57600080fd5b505080516020909101519092909150565b60008083357fffffffffffffffffffffffffffffffffffffffffffffffffffffffffffffffe18436030181126153b057600080fd5b83018035915067ffffffffffffffff8211156153cb57600080fd5b6020019150368190038213156153e057600080fd5b9250929050565b8183823760009101908152919050565b60006020828403121561540957600080fd5b815167ffffffffffffffff81111561542057600080fd5b8201601f8101841361543157600080fd5b805161543f61523b826151a0565b81815285602083850101111561545457600080fd5b614534826020830160208601614c00565b6000600019821415615479576154796152b2565b5060010190565b6000806000806080858703121561549657600080fd5b84516154a181614cb0565b60208601519094506154b281614cb0565b60408601519093506154c381614cb0565b60608601519092506154d481614cb0565b939692955090935050565b6000602082840312156154f157600080fd5b5051919050565b60006001600160801b0380831681851680830382111561551a5761551a6152b2565b01949350505050565b60008219821115615536576155366152b2565b500190565b60006001600160801b0380831681811415614854576148546152b2565b60007f800000000000000000000000000000000000000000000000000000000000000082141561558a5761558a6152b2565b5060000390565b60008160020b7fffffffffffffffffffffffffffffffffffffffffffffffffffffffffff8000008114156155c7576155c76152b2565b60000392915050565b634e487b7160e01b600052601260045260246000fd5b60006001600160a01b038087168352808616602084015250836040830152608060608301526156186080830184614c2c565b9695505050505050565b60006020828403121561563457600080fd5b8151613a7381614bcd565b634e487b7160e01b600052603160045260246000fd5b60008251615667818460208701614c00565b919091019291505056fea26469706673582212209b43d41b45dfefec0c7a8a6e6e2133b766e0165cb584cc5910f8d1f0957e74c764736f6c63430008090033",
  "libraries": {
    "TickIndex": "0x888b075cd92692761aCb649Da39988cd73966732"
  }
}