{
  "address": "0x514b7A31f51c4171C40c5b3a183d466db593a4b8",
  "abi": [
    {
      "inputs": [
        {
          "internalType": "contract IConcentratedLiquidityPool",
          "name": "pool",
          "type": "address"
        }
      ],
      "name": "getTickState",
      "outputs": [
        {
          "components": [
            {
              "internalType": "int24",
              "name": "index",
              "type": "int24"
            },
            {
              "internalType": "uint128",
              "name": "liquidity",
              "type": "uint128"
            }
          ],
          "internalType": "struct ConcentratedLiquidityPoolHelper.SimpleTick[]",
          "name": "",
          "type": "tuple[]"
        }
      ],
      "stateMutability": "view",
      "type": "function"
    },
    {
      "inputs": [
        {
          "internalType": "contract IConcentratedLiquidityPool",
          "name": "pool",
          "type": "address"
        }
      ],
      "name": "getTickStateDetail",
      "outputs": [
        {
          "components": [
            {
              "internalType": "int24",
              "name": "index",
              "type": "int24"
            },
            {
              "internalType": "uint128",
              "name": "liquidity",
              "type": "uint128"
            },
            {
              "internalType": "uint256",
              "name": "feeGrowthOutside0",
              "type": "uint256"
            },
            {
              "internalType": "uint256",
              "name": "feeGrowthOutside1",
              "type": "uint256"
            },
            {
              "internalType": "uint160",
              "name": "secondsGrowthOutside",
              "type": "uint160"
            }
          ],
          "internalType": "struct ConcentratedLiquidityPoolHelper.DetailTick[]",
          "name": "",
          "type": "tuple[]"
        }
      ],
      "stateMutability": "view",
      "type": "function"
    }
  ],
  "transactionHash": "0x2a15fb9639ad75ca642dca913a341c4f588eec091183c72f7d5cc086d896f897",
  "args": [],
  "numDeployments": 1,
  "solcInputHash": "7b141dad0ae9dd0a2ec46a2e595f9ebb",
  "bytecode": "0x608060405234801561001057600080fd5b50610b89806100206000396000f3fe608060405234801561001057600080fd5b50600436106100365760003560e01c806370b5e1111461003b5780639d0cd48c14610064575b600080fd5b61004e61004936600461083d565b610084565b60405161005b9190610861565b60405180910390f35b61007761007236600461083d565b610491565b60405161005b91906108fa565b606060008273ffffffffffffffffffffffffffffffffffffffff1663735541d16040518163ffffffff1660e01b815260040160206040518083038186803b1580156100ce57600080fd5b505afa1580156100e2573d6000803e3d6000fd5b505050506040513d601f19601f820116820180604052508101906101069190610951565b67ffffffffffffffff81111561011e5761011e61096a565b60405190808252806020026020018201604052801561019557816020015b6040805160a0810182526000808252602080830182905292820181905260608201819052608082015282527fffffffffffffffffffffffffffffffffffffffffffffffffffffffffffffffff90920191018161013c5790505b506040805160c081018252600080825260208201819052918101829052606081018290526080810182905260a081018290529192507ffffffffffffffffffffffffffffffffffffffffffffffffffffffffffff276185b6102157ffffffffffffffffffffffffffffffffffffffffffffffffffffffffffff276186109c8565b60020b8160020b14610360576040517ff30dba93000000000000000000000000000000000000000000000000000000008152600282900b600482015273ffffffffffffffffffffffffffffffffffffffff87169063f30dba939060240160c06040518083038186803b15801561028a57600080fd5b505afa15801561029e573d6000803e3d6000fd5b505050506040513d601f19601f820116820180604052508101906102c29190610a49565b92506040518060a001604052808260020b815260200184604001516fffffffffffffffffffffffffffffffff16815260200184606001518152602001846080015181526020018460a0015173ffffffffffffffffffffffffffffffffffffffff1681525084838061033290610b01565b945062ffffff168151811061034957610349610b24565b6020026020010181905250826020015190506101ec565b6040517ff30dba93000000000000000000000000000000000000000000000000000000008152600282900b600482015273ffffffffffffffffffffffffffffffffffffffff87169063f30dba939060240160c06040518083038186803b1580156103c957600080fd5b505afa1580156103dd573d6000803e3d6000fd5b505050506040513d601f19601f820116820180604052508101906104019190610a49565b92506040518060a001604052808260020b815260200184604001516fffffffffffffffffffffffffffffffff16815260200184606001518152602001846080015181526020018460a0015173ffffffffffffffffffffffffffffffffffffffff16815250848362ffffff168151811061047c5761047c610b24565b60209081029190910101525091949350505050565b606060008273ffffffffffffffffffffffffffffffffffffffff1663735541d16040518163ffffffff1660e01b815260040160206040518083038186803b1580156104db57600080fd5b505afa1580156104ef573d6000803e3d6000fd5b505050506040513d601f19601f820116820180604052508101906105139190610951565b67ffffffffffffffff81111561052b5761052b61096a565b60405190808252806020026020018201604052801561057057816020015b60408051808201909152600080825260208201528152602001906001900390816105495790505b506040805160c081018252600080825260208201819052918101829052606081018290526080810182905260a081018290529192507ffffffffffffffffffffffffffffffffffffffffffffffffffffffffffff276185b6105f07ffffffffffffffffffffffffffffffffffffffffffffffffffffffffffff276186109c8565b60020b8160020b14610707576040517ff30dba93000000000000000000000000000000000000000000000000000000008152600282900b600482015273ffffffffffffffffffffffffffffffffffffffff87169063f30dba939060240160c06040518083038186803b15801561066557600080fd5b505afa158015610679573d6000803e3d6000fd5b505050506040513d601f19601f8201168201806040525081019061069d9190610a49565b925060405180604001604052808260020b815260200184604001516fffffffffffffffffffffffffffffffff168152508483806106d990610b01565b945062ffffff16815181106106f0576106f0610b24565b6020026020010181905250826020015190506105c7565b6040517ff30dba93000000000000000000000000000000000000000000000000000000008152600282900b600482015273ffffffffffffffffffffffffffffffffffffffff87169063f30dba939060240160c06040518083038186803b15801561077057600080fd5b505afa158015610784573d6000803e3d6000fd5b505050506040513d601f19601f820116820180604052508101906107a89190610a49565b925060405180604001604052807ffffffffffffffffffffffffffffffffffffffffffffffffffffffffffff276186107df906109c8565b60020b815260200184604001516fffffffffffffffffffffffffffffffff16815250848362ffffff168151811061047c5761047c610b24565b73ffffffffffffffffffffffffffffffffffffffff8116811461083a57600080fd5b50565b60006020828403121561084f57600080fd5b813561085a81610818565b9392505050565b602080825282518282018190526000919060409081850190868401855b828110156108ed578151805160020b8552868101516fffffffffffffffffffffffffffffffff168786015285810151868601526060808201519086015260809081015173ffffffffffffffffffffffffffffffffffffffff169085015260a0909301929085019060010161087e565b5091979650505050505050565b602080825282518282018190526000919060409081850190868401855b828110156108ed578151805160020b85528601516fffffffffffffffffffffffffffffffff16868501529284019290850190600101610917565b60006020828403121561096357600080fd5b5051919050565b7f4e487b7100000000000000000000000000000000000000000000000000000000600052604160045260246000fd5b7f4e487b7100000000000000000000000000000000000000000000000000000000600052601160045260246000fd5b60008160020b7fffffffffffffffffffffffffffffffffffffffffffffffffffffffffff8000008114156109fe576109fe610999565b60000392915050565b8051600281900b8114610a1957600080fd5b919050565b80516fffffffffffffffffffffffffffffffff81168114610a1957600080fd5b8051610a1981610818565b600060c08284031215610a5b57600080fd5b60405160c0810181811067ffffffffffffffff82111715610aa5577f4e487b7100000000000000000000000000000000000000000000000000000000600052604160045260246000fd5b604052610ab183610a07565b8152610abf60208401610a07565b6020820152610ad060408401610a1e565b60408201526060830151606082015260808301516080820152610af560a08401610a3e565b60a08201529392505050565b600062ffffff80831681811415610b1a57610b1a610999565b6001019392505050565b7f4e487b7100000000000000000000000000000000000000000000000000000000600052603260045260246000fdfea2646970667358221220433c8e7d924e0ce04b5bb50c726dc442fb2e70846e1e880db922188cb750922964736f6c63430008090033",
  "devdoc": {
    "kind": "dev",
    "methods": {},
    "version": 1
  },
  "userdoc": {
    "kind": "user",
    "methods": {},
    "notice": "Concentrated Liquidity Pool periphery contract to read state.",
    "version": 1
  },
  "storageLayout": {
    "storage": [],
    "types": null
  }
}