{
  "address": "0xba63e82c2c29190C96998Ad40B4DB580a56E52Bf",
  "abi": [
    {
      "inputs": [],
      "name": "RESOURCE",
      "outputs": [
        {
          "internalType": "string",
          "name": "",
          "type": "string"
        }
      ],
      "stateMutability": "pure",
      "type": "function"
    }
  ],
  "transactionHash": "0x1c100763b7e06d028c88c6bc376130320c4ddbfa21d9bbbf19ca9b3f79a4dd29",
  "args": [],
  "numDeployments": 1,
  "solcInputHash": "52ba71685b8bf58d29115d47983e0297",
  "bytecode": "0x61582e61003a600b82828239805160001a60731461002d57634e487b7160e01b600052600060045260246000fd5b30600052607381538281f3fe73000000000000000000000000000000000000000030146080604052600436106100355760003560e01c80632b3ed84e1461003a575b600080fd5b610042610058565b60405161004f919061007b565b60405180910390f35b606060405180615740016040528061570a81526020016100ef61570a9139905090565b600060208083528351808285015260005b818110156100a85785810183015185820160400152820161008c565b818111156100ba576000604083870101525b50601f017fffffffffffffffffffffffffffffffffffffffffffffffffffffffffffffffe01692909201604001939250505056fe3c646566733e3c7374796c6520747970653d22746578742f637373223e2040666f6e742d66616365207b666f6e742d66616d696c793a2022766f6c63616e6f223b666f6e742d7374796c653a206e6f726d616c3b666f6e742d7765696768743a203430303b7372633a2075726c28646174613a6170706c69636174696f6e2f6170706c69636174696f6e2f782d666f6e742d7474663b636861727365743d7574662d383b6261736536342c41414541414141504149414141774277526b5a55545a666b35705541414543634141414148456445525559416b67414941414134304141414143524855453954386c5542635141414f5351414141643452314e5651726a2f7550344141446a30414141414d4539544c7a4a5558506e78414141426541414141465a6a62574677595844677767414141314141414149305a32467a63502f2f41414d4141446a494141414143476473655759794e374b6f41414147534141414c32686f5a57466b48376d634d77414141507741414141326147686c595161624173594141414530414141414a476874644869706c77675641414142304141414159427362324e684669594c436741414259514141414443625746346341436f414749414141465941414141494735686257586e5365483641414131734141414168397762334e30716769797a7741414e394141414144324141454141414142414144615353682b587738383951414c412b6741414141413371347370414141414144657269796b2f38372f42674e774177414141414149414149414141414141414141415141414177442f426742614132662f7a762f34413341414151414141414141414141414141414141414141414741414151414141474141587741474141414141414143414141414151414241414141514141414141414141414142416241426b4141464141674369674b38414141416a414b4b417277414141486741444542416741414141414141414141414141414149414141414d41414141414141414141414141414142515a6b566b414541414143415a4179442f4f414261417741412b67414141414541414141414141414344774179414141414141464e41414143447741794141414141414141414141414141414141546f4141414c55414263413877415641504d414651447a414255424667416841524941427745594142554257774156415049414551455441425141386741574155454149514930414349424e674151416a3441486749334143414351514151416a5141486749344143454237674150416a594148774934414341412f4141544150774147414666414230426867415a415638414851495741416f4332774167416c2f2f396749374143494343514166416c59414977494741434d42354141694169594148774a51414349424251416a4165344142514a4f414349434151416a41784941496749334143494359674165416a414149774a69414234435841416941675541467749354141494355774168416a332f39774e6e2f2f63434c762f354167372f3951482b4141554254514169415545414951464f41434d423141414d4167344149774832414251434251416641645141476749464142734237414162415555414867494241426f4341414166415051414867447a2f383843416741664150514148674d494142344341414166416741414767494141426f4342514165416755414767484e414234427551415a41543441485148394142774277762f2b4173622f2f6748502f2f3442364141614163514142514536414141414141414441414141417741414142774141514141414141424c674144414145414141416341415142456741414142594145414144414159414141414b414130414941416c41463841656743674150676747662f2f414141414141414b414130414941416c41436341595143674150676747502f2f4141542f2b2f2f352f2b662f347741414141442f762f39624141414141514141414141414141414141414141444142384141414141414371414141414351414d4141304144674150414241414551415341424d4146414156414259414677415941426b414767416241427741485141654142384149414168414349414977416b414355414a67416e414367414b514171414373414c414174414334414c774177414445414d67417a414451414e514132414463414f41413541446f414f774138414430415067412f414541415151424341454d4152414246414559415277424941456b415367424c414577415451424f41453841554142524146494156414256414659415677425941466b415767426241467741585142654141734143674141415159414141454141414141414141414151494641414147414141414141414141414141414141414141414141514141427741414141414941416b4d4451345045424553457851564668635947526f62484230654879416849694d6b4a53596e4b436b714b7977744c6938774d54497a4e4455324e7a67354f6a73385054342f514546435177424552555a4853456c4b5330784e546b395155564a5556565a5857466c615731786458674141414141414141414141414141414141414141414141414141414141414141414141414141414141414141414141414141414141414141414141414141414141414141414141414141414141414141414141414141414141415577414141414141414141414141426641414141414141414141414143776f4141414141414141414141414141414141414141414141414141414141414141414141414141414141414141414141414141414141414141414141416f414367414b41425141464141554142514146414175674477415359425841474b4162344354674b534172674331674c6f417749444c674e634137414546675275424c344644415536426167462b415963426c6f47694161674273774846416436423867494941686f434b594a42416c554361414a36676e36436a594b6e6772574379674c6367756d432f594d514179654450414e514131754461774f4c67366944764150516739794435675079412f2b454134515942436f454f34524f4247494564345356684b534573515442424e6b453459543142514d4645495565425336465141564c6857574664775746685a55467341584a6864734637515874414141414155414d6741414164304376414144414159414351414d4141384141424d68455345624167734245524d4449514d5445544942712f3556484c6d367872544275514679726255437650314541716a2b797745312f7259424c50326e41526a2b7a41464a2f74454358514141425141794141414233514b3841414d414267414a414177414477414145794552495273434377455245774d6841784d524d6747722f6c556375627247744d473541584b7474514b382f5551437150374c4154582b746745732f6163424750374d41556e2b30514a64414141464142662f2b674b384173634144674163414367414f77424b414141424641597241534939415451324f774579466855484e54516d496759644152516541544d794e675579485145554b774569505145304d784d314e43596a496734434851455548674d7a4d6a59444d685948415134424b7745694a6a63424e6a4d4253793072684667744b3451724c584d4f4d6734454568455a4467474c574669455746687044686b4e45416743415155494467735a446a454a4351542b756749494242634a435151425267514b4162306f4b4643354b43676f4b4c577747785957473741524567305755314335554643355550373873426f57426734504462414c4451304942425943697738482f563845425138494171414a414141414141454146514631414e774367514167414141544e685958486745554267384342697342496963304a6a5132507745324a793442497934434e7a344263787378446763484277634252514d474e416345415145424877494241514942466945504177517a416e38434768634d47686f61444146754267594341774d4441533844417749434279417246794d77414141414141454146514631414e774367514167414141544e685958486745554267384342697342496963304a6a5132507745324a793442497934434e7a344263787378446763484277634252514d474e416345415145424877494241514942466945504177517a416e38434768634d47686f61444146754267594341774d4441533844417749434279417246794d77414141414141454146514631414e774367514167414141544e685958486745554267384342697342496963304a6a5132507745324a793442497934434e7a344263787378446763484277634252514d474e416345415145424877494241514942466945504177517a416e38434768634d47686f61444146754267594341774d4441533844417749434279417246794d77414141414141454149662b2f41516f4441414163414141544268555246423842466830424641344242775976415359314554512f4154595748514555422b554c4378734b4167514443516d694b7975694352494b4172594644663136444159504251735941775946416759465252512f4167632f4645594544416f5544415541415141482f37384138414d4141434541414463324e5245304a6938424c674539415451324877456541525552464159504151596e4c674d39415451334c517347425273464252454b6f68515846785369436767434241494243676b4644514b4742516f4444674d4a4252674b4377524643696b672f6667664b676c4742415942424151454178514c426741474142554232674543417341414477416941445541524142534146344141424d6e4a6a632b415473424d68595041513442497949484c67456e4a6a38425067497a4d6838424668514842694d584e686365415159504151596a49695976415359305067457a48774557464163474b77456d4a79592f415459794e7a495846685150415134424c77456d4e6863314969592f4154597948774557426765434941494441515544514159474179414242514d485a414d4541674d4449414544424145474243514241514d484151594441514542415351454267494641694142417751446443414241514d475141594442414d674177316b42674d424153414444414d6c41775948427759444a514d4d4179414442675943637a304642514d434367553941674d55415149444251553441514d4242546f4342674d464677454741515145416a6f4641774d334177554641786b3841775544425145454251593842684d46417755444e77554242546f4743774558437755364251553442516f4241414142414255412b51464641696b414d4141414154495848674564415251474b7745564641597241534975416a30424979497541536375415430424e4434434f7745314e4459374154495848674964415145314267554341676b4757676b4850414d4742414e5a4167514541514d434167554642466b4a427a7748424149434151472f42514947417a774843566b48435149464251525a415149434167594450414d4742414e5a42776b4641515145416c6b4141414141415141522f3634413277433841425541414463554477494f415373424969592f4154596d4a7934425067456541646f4f4155554242514d3142775945487749434179516d4544314b4d6c59634677467641674d4d426938444267454d51556b734344634141414541464146674150344277674151414141544269734249693442505145304e6a73424668635642766b4542386b464277514a42386b4e417745425a5155454341524342776b4444554948414141414141454146762f38414e73417741414841414157496959304e6a4957464b46524f546c524f51513555546b35555141414141454149662f63415238433941414e414141584269734249695933457a59374154495742324543435367464277473941676b6e4267634247676b4a42514d41434167474141414341434c2f2b7749534173494144414161414141424d68595645525172415349314554517a457845304a69494746524555466a4d794e7a59426845564a6a74534f6a716757554263584b44494a41774c435155482b5059474241634f432f63494274696f6b4a43722b53696f6c4a41384141414141415141514141454245774c424142304141424d324d68595846685552464134444b7745694a6a55524e4334424b7745694a6a30424e4466304241634841776f434241554741343449444159554651554b44684143767745434167594d2f57734442675545416777494164675646416f50436838514267414141414142414234414151496841734941505141414a5449584867496441525147497945694a6a30424e44636c50674d394154517541794d6944674964415251474b7745694a6a30424e445937415449644152514744774547467834434d77494e434159424177454c4350346b4341734f4152414a437777464167674f4742495647773045437769544341744952746d4f48434c6c42674d42417751436f415943424155446477674d44416878457733354277735246513556454255574441634b46786b556467674c437768385155474354436f31486355464277494441674141414141424143442f2b77495741734941554141414153494f41525165415473424d683444485145554b77456950514530506745374154496541683042464259794e6a30424e4359724153496d505145304e6a73424d6a59394154517541694d6942683042464159724153496d505145304f7745794851455542694d426b41594741774d47426a554c47425551435937616a67554a425a4d4542775544475649594a6877664351304e435277674a51514e47785570475173496b77674c6a74714f4b53674268774d464351554442773855476736666759474142516b464177554842486b704a6959706d78636544516b614351306b484741554752634b4a536c584341734c43463243676d4d6d4d41414141414143414241414151497041726f414c51412f414141424d6859644152514f4179734249675964415251474b7745694a6a30424e4334424b7745694a6a30424e4463544e6a73424d685956455251574d7963314e4334444a795950415159574f774579506745434651674c41674d4642674d564367384c434934494441674e434f6f4c447754754378537943417350437334424167494541676f486e67634d44597349445167425051774961514d4742514d434477702f4341774d43486f4944676750436d38494267466c455173492f72414c44683375416751444177494241776e7a43785949445141414141454148762f374168554375774139414141424d68304246437342496a30424e4459374154495748514555466a4d7950674939415451754169734249695931455451324d794579486745644152514f41794d684967344348514555466a4d426834364f326f344c434a4d4943786b704652734e4241514e4778585443416f4c4341476842516b4641674d464267502b6d51594c434155524451477a67625742675959494377734966796b6d43785961464b51564752634b436767424867674c42516b4668415147424151434251634c4269454d456741434143482f2b774959417349414b414137414141424d68304246437342496a30424d445131455451324f774579485145554269734249693444505145304a69494748514555466a4d544e54517541694d6942683042464234434d6a34434159714f6a74714f5355584e6a6773496b774d4742514d4347456359464135684241306246536b5a425130624b68734e4241477a67725342676251424151454e515547434a51674d416751454267516f4a6838664a6d384f452f37527068555a46776f6c4b7159554768594c4378596141414142414138414151485941727341477741414154495748514548417759724153496d4e7745324a793442497945694c674539415451324d774846434173426e67514f3241774c42674546426759444377622b3877554a4251734941726f4c434955442f66414f46416b427a77734d42515946435161454341734141414d41482f2f3741685943777741744145494155674141415449654152304246437342496a30424e4459334d7a49324e43596a4a69636d505145304e6a73424d683042464134434279494746525165416a4d6e465251574d7a492b424451394154517541694d6942684d314e43596a49673442485145554867457a4d6a59426d697730484937616a6a744241776748427768554677354a5263364f446838724951674841674d47424c6f574b41775444676b4641774d4d4768556f466e38614a78736543516b6547796361415730554d536d43675947435054414242673046415367594b6c46425149465248796b594367454642774d4541774c4e56436f6b4241594c44424950444651574678674b4a50346667436b6d465238626742736646536341414141434143442f2b774957417349414a774138414141424851455246437342496a30424e4434434f774579466830424642597a4d6a3443505145304a697342496a30424e4473424d674d314e4334444979494f416830424642597a4d6a34434168614f7a593444425163456b77674c47434d54467730454577364e6a6f37616a726f4343413459455255624451555a4b52556244515143514c51422f764b4267535945427755444377676f4a6941494578675462773055676253432f74476e454255574441634b46786b5570796b6c4368596141414141416741542f2f51413641483741416341456741414e6734424c67452b4152596e4269496d4e4459794678344242756366536b73664830744b425231524f546c524852494f446c354c4878394c537838667178303555546b63457a497a41414141416741592f3630413477487a41416f414a514141457759694a6a51324d686365415159484e683442467859554477494f415373424969592f4154596d4a7934424e7a3443777831524f546c524852494f446c34534968304a4467344252514546417a554842675166416749444969554541686b6f415577644f56453548424d794d365942437859504744635841573843417777474c774d47415173374978636d4677414141414541485141584155454348514162414141334a6a55524e4459334a545957467859644152515041526365416830424641634f4153636c4341514541516f4442674d46434f44674167514342514d4741344d4443414559424159426177454241674d486d776b4454303842424155436d77634441674542414141414167415a415263426251494c4141554143774141415345314d7945564a7945314d7945564156332b764241425242442b7642414252414559573175585731734141514164414259425167496441426b414141455746524555427755474a79596e4e54512f41536375415430424e44632b4154495841546b49435037324267554641516a6834514d46426745454241494273674d4a2f756b4a41326f44424155476d676b44543141424277536142775142415145414141494143762f38416745433041414841445941414151694a6a51324d685955457a49644152514f41794d6942683042464159724153496d505145304e6a4d79505145304a694d6944674964415251474b7745694a6a30424e444d424c6c41364f6c41364334344744524d624543676c444169534341776e4d4563594b5255624451554c434a4d49433434454f5645354f5645436d6f466d44786b5745416b6b4a5573494377734952796f73506d38704a676f58475256574341734c4346324241414941495039384172734352514137414573414141457946524555497945694a6a30424e4434424f7745584d68595645525165415263574e7a59394154516d4979456944675156455251574d7a497a4d68596441525147497945694e5245304d784d524e4334424b7745694268304246425937415449434f594b432f7367714e686771473970474377384241674947427934734c50366344785157446777464c4379746567775245517a2b76344742395151474242305745424157485134435249372b374934774a2b73614a7859454541762b2f774d454241454541677739794330684151594a454267512f7073744952454d4c4177526a6747726a76344a4153634742674959474f4d594741414141414c2f39514141416d63437577416b41444d4141435557426763474b7745694c77456d4b77456942685555466a73424d68596441525147497945694a6a63424e6a73424d6863444d6a59764153596a496759504151596541544d435a4149424177594c705245475041635a656851595054384c42676b4a4276377a4377304541514d46446c6350425767574477596f4278514a4377517042515152446830464367514a454b77584768593052676b484351634a45676f436b41304f2f6c3457464863534351683344524d4c4141414141414d4149762f3741695143776741654143344150774141415449644152516a49536375415455524e44592f415345794851455544674972415349564642597a41785555466a73424d6a59394154516d4b77456942684d314e4359724153494f415230424642593741544932416264736a7637534c776b4d444167794152365144686f6c4752305042776979456777464c694d684c51674d456e306a4c673449446767534442457549414669635853424177454e43514b51434130424259466a477959574367304742674547767730534b4370544c4377532f68647a4b69674944776a664452497341414141415141662f2f734239514c4341444d4141435579467859644152514f41694d4849794931455451324f7745584d685964415251474b7745694a793444497949564552516541544d795067453350674d7a4164344a4277594442676745624d614f535557396241674e44516f464551554a48435979476a38514878596e5179634b415151474277546e4277634a7551554942675145675148445155414744516d3543513051487a737a486b442b4768556444545a4b4b67514742414d41414141414167416a2f2f73434e774c43414259414b41414141544957465245554979456e4c6745314554512b426a4d33415245304c6745724153494f415255524642593741544932416168475349372b7679384a4441454241674d44424151434d67454b444351664a41674f4342494d4a433468417346415166343967514d4244516b436b41494542414d44417749424266334d41614d644a42634944776a39367730534c41414141414541497741424165344375774247414141424d6834434851455542694d6849695931455451324d79457946783442485145554269734249696375425373424967344248514555466a73424d685964415251474b77456942683042464259374154492b416a63324d77485842416b474177304a2f6d494a4451304a415a514b42674d4544516f464567514644685561486959554741674f4342515057516b4e44516c5a44785153444345664e53595a43415153415177454267674633676b4e44516b436a516b4e42675149424e494a445245554b53776c4868454944676d624478514e4368494a4452554f2b7730534a6a35434978494141414141415141694141454234514b3741447341414145794668635748514555446749724153496e4c6751724153494f41523042464259374154496542423042464159724153494f41685552464159724153496d4e5245304e6a4d427967554941776345426767464252494542684963496977594651674f4342515057514d47425151444151304a5751634e4367554f435a494a4451304a41726f444177634a3067514a42674d524754457a4a786b4944676d5944685543417751464251515243673046436730482f736b4a4451304a416f304a4451414141414541482f2f374167384377674135414141424d683443485145554b7745694e5245304f7745584d6859644152514f424373424969637541534d69465245554867457a4d6a5939415451754169734249695939415451324d77483442516747413437546a6f374b5a516b4d4167494642515544426845464531517a51676b624679495a41676b524477734b4451304b41583845426767463634474241634f424267304a75514d4742415544415242446145442b4b5273674579596f6d4130514467594e4367344b4451414141514169414141434c514b3741445541414145794678344346524555446749724153496d4e5245304c67457241534947465245554269734249695931455451324f774579466830424642593741544932505145304e6a4d4346676b4841674d4342415949425a494a4451634d436c49514451344a6b676b4e44516d534351344e454649504467304a41726f4841675546412f317a424167474241304a41536b4b4441514c442f37584351304e43514b4e4351304e4366455143676f5138516b4e414141414141454149774142414f49437577414641414133497845374152484c7142617041514b352f55634141414141415141462f2f73427a514b3741436f41414145794867515645525172415349394154512b416a73424d68595846683042464234444d7a492b415455524e4434434d7747324177594642414d436a71794f42415949424a494643414d484167514a44516b50454159454267674641726f434167554642515039325947426c775549426751454177634a737777524451674443785955416b4d454341594541414141415141694141414354514b37414645414143555748514555426973424c6745394154516d4b77456942685552464159724153496d4e5245304e6a73424d685964415251574d7a4932505145304e6a73424d68595848674d644152514742773443485145554269734249673443465251574f774579466830424641492b44676f4979413864494273444578634e4359384a4451304a6a776b4e4668516447446777664151474177454341514549427738524353387a467751474241494843426335504373444477594943676b2b4d70676e4c424d522f74594a4451304a416f304a4451304a325249524a536c654f69774441674544417751434251634b41514d4c484264614e4363424241514442775978505a524d4141454149774142416630437577416c41414142466863574851455542694d6849695931455451324f77457946685552464234424f774579506759334e6a4d4235676f474277304b2f6c514b4451304b6b516b4f427730484e424566476863544477774a41774d53415159424267634a31776f4e44516f4369776f4e445172397167674d43416f53474230674969415145674141414141424143494141414c76417273414f414141415449574652455542697342496934434e5245304a67634449774d6d426830424642595848674564415251474b7745694a6a55524e44632b416a73424d686354466a4933457a34424d774c594367304f435a4945434159454a41615054615949496b45334277674c434a554a4451634342515544756859496277636543475544454173437567304a2f584d4a44515147434151426f784d49465035414163385543524e466c724d4c415173474351674c44516b436a516b4841674d424666362b4652594251416f4d4141454149674141416851437577417a414141424d685956455251474b7745694a774d6d426830424642595846683042464134424b7745694a6a55524e4459334e6a73424d686354466a59394154516d4a7959394154517a4166304b4451304b6b686b4b785163695154635042516b466c516b4e41775147435a495a43735948496b4d3244684d437567304a2f584d4a44525942705241494554435773677744454167464351554e43514b4e424167454268622b5952414945556c347351774544776754414141434142372f2b774a44417349414377416a414141424d68555246434d68496a55524e444d544554516d4979494f417855524642597a4d6a34484162574f6a7637346a6f3753495330544842454b424345744378494f4441674842414d42417347422f6a3242675148446766334d41614d734c416b4f46786b522f6c30734c414d4543416b4c445138514141494149774141416955437767415a4144734141414579485145554b77456944674564415251474b7745694c6745314554512b41544d33457a5538415359304c67516e4c6745724153496a446745564d42304246444557467a4937415449334e6747576a6f36514368454a44676d5342676f4742516f464d7663424167494341675143434238594451454245424542494145424455454b41774c4267624f424368454b30416b4e42676f47416f3846436763462f74795442416b4942776748426759474177734e415245514176774249514531447741434142372f64514a44417349414a7741314141416c4641637141534d4f4151636341525565415473424d685964415251474b7745694a6a30424e435972415349314554517a49544956417845304a694d6944674556455251574d6a594351336b424177494b4377454243416c6d4351304e4358676447424d4e7249364f4151694f784345744879514c49566f686658634b4151304b415145424277674e4354414a445345664a673054675148446759482b5451476a4c4377584a42332b585377734c414141416741694141414357414c4341445941526741414a525964415251474b774575417a30424e435972415349474652455542697342496959314554512b41544d33495449644152514f415163474b774569464473424d685964415251444e54516d4b774569426830424642593741544932416b6b4f43776a414267344f4368306b4568495244676d5343513046436755314154534f46435563476877564477385550554331487977614568455245686f744869734544774d4a43774d554879386169436b664568482b36676b4e44516b436a77554b427757424d69497a4951674847446f2f636c414279696f744d5249536d5245534b774141414141424142662f2b7748304173494150414141415259644152517241536375415430424e445937415449584867493741544932505145304c774575415430424e44734246783443485145554269734249696375415373424967596441525166415441426e31534f2b54514a4441734a44784544435368484c53734b44694f7a4b69754f317a67474351594d43416b52416774484e79344d44694f7a41596775594832424177454e43646349437841305554594f436d3075456c3457507a5a646751554242676f466f41674d45454e444477744e4a784a67414141414141454141674142416a594375774133414141424d685964415251474b7745694a6963754153636d42773443465245554269734249695931455451754153636d42773444427759724153496d505145304e7a34444d6a4d4348776b4f4441674a42777343436a636b4441774542514d4f435a494a44514d464241774d456949614577554445416b4a4377634241774d44424145437567304a3277674c435163375a785948427749484341543972676b4e44516b4355675149427749484277736f4d5467634541734932776b474167494241674141414141424143482f2b7749794172734148674141415449654152555246437342496a55524e4459374154496541525552464259794e6a55524e4434424d77496342676f476a76574f44516d584267734749456b6742676f4841726f4743676239325947424169634a4451594b427633614b5341674b51496d42676f474141482f39674141416b63437577416d414141424d6859584667634442697342496963444a6a593741544958457834425077452b415334434b7745694a6a30424e4434424d77497542516f444267543043687362477772764241304d73424146666755664254494a416734654d69454642776f4643415143756755454367763966686b5a416f4d4b45772f2b6851344244346f614f54677448416f484367554942414141414141422f2f594141514e774172734157774141415449574678594841775972415349764153596a49675950415159724153496e41795933506745374154496541686354464234444d6a34444e7a34464e7a5976415359335067453741544958457834424d7a492f415434424c674972415349754153636d505145304e6a63324d774e5842676b44427754784352735347776c544268454844514a584352735347777231424163444367576b417763464241474741775146425159464241514441514945424151444241494a436c304542774d4b42615150426f4943437763504269384a417738644d79414741675145416751434167554841726f4642416f4c2f58345a477559514341666f47526b436767734b42415543424155452f6f67444241514341514543424151444251774b43776f4b42426b5a2b51734b424155502f6f6b4843412b47476a6b344c5277424167454642777744426749464141482f2b414141416a414375774253414141424d68344342774d54486745474277597241534975424338424c67455041513442486749374154495748514555446749724153496d4e784d444a6a51334e6a73424d683842466a4d7950674d2f4154412b415445324c6745724153496d505145304e6a4d434741594c42674544705a4142415149434267796a4167514542414d43415763494a416b5744517746464363634341634b41775147424e494f446765306a6749444277796944675a694342494442775946424149634151494c4253346d4177634b436763437567594c4451582b7a5036394241634841776f4241514d4342414c69455145514b4273764a7877514351634c424159454178674d415477424f67554c42516f4e3178454241675146417a4945424238354b416b484377634b414141422f2f514141414961417273414e6741414154495742774d56464134474b7745694a6a3042417959324f77457946784d65415449325077457750674978506745754169734249695939415451335067457a4167454d445157774151454441774d4542514b53435132754251304d6e41384762415152466849464741454341676f474342596e475134484367554442674d437568514c2f6e6e394167514542414d434167454e436659426a677355447637334367774c436a5545425151584d43776946516f484367634641674d41414141424141554141514831417273414f51414141514d47467834454f7745795067493350674537415449574851455544674d6a4953496d4e784d324a694d69427734424b7745694a6a30424e4459335067497a4954495741652f3343416f434251554742774d464944516a46776343437763504351734342415948412f3553446738462b416355456e38614151734943416b4c41775143425155444161634e45414b572f63735244774d464241494349446c424a77634a43776a5941776347424149584451493145522b7542776b4c434d554543415143417745584141454149762f554153734337414168414141544e44593741544957485145554269734249685552464234424f774579466830424641597241534975416a556a43776a684341734c43444553425167464d51674c43776a684241634641774c594341734c4341774943784c396377554a424177494441674c41775548424141414141454149662f634152384339414155414141544d68344246784d55426763474b7745694a774d6d4e7a34434d31594342514d42765145424241556f43514b3941514d424177514341764d4342414c39414149474167514a417638474241454341514141414141424143502f315145724175774149514141457a51324f77457948674956455251474b7745694a6a30424e445937415449324e5245304a69734249695931497773493451514842514d4c434f4549437773494d51634c43776378434173433241674c41775548425030524351734c4341304844416f49416f30484377734941414142414177426f6748494173414149674141415259474b7745694c77457541534d6944674d50415159724153496d4a79592f415434434f774579466863427677674f446a6b4e42324d4443515543424151444177466a434177364267774442776962416763484245304743774d4279417761433549454251454341674d426b6773484267304d3741514641675946414141424143502f754148722f2b494142514141425345314d7945564164372b52513042753067704b5141414141494146502f3741646b427951416f41446f414141457948674556455251474477456849695939415451324f7745794e6a30424e43596942683042464134424b7745694c6745314e44597a457a55304a69734249673442485145554867453741544932415841654d426f4b4345622b2f5338364f692b50437777534a6849464341614d42516b464d69656a4451675645525148427851524651674e41636b594c52372b7267674c415151324c4841734e67774c4f6845544578455342516746425167464b54482b654b6f4a44413457456d67534667344e41414141416741662f2f734236674c42414341414d6741414154495746524555426973424a7934424e524530506745374154496542523042464234434d784d524e4334434b774569426855524642593741544932415945754f6a7776376c34494377554a425a454342415145416749424241674e436a63454368454e47676b4e44516b6147524d42795459742f7667734e675142437767436d51554a4267454341774d4542514c48435173484176365a4151454e4577344944516e2b7667674e47774141415141612f2f73427667484a414445414143557946683042464134424977636a49695931455451324f7745584d68344248514555426973424969637541694d6944674956455251574d7a49324e7a34424d77477442776f4643515670766938364f692b306141554942516f484451304442794d3348517354445163674753394b4377454b4271304b43496346435155464e697742434330324251554a42596748436730624f4363494468514d2f7651614845597942676741414141434142762f2b77486d4173454148674179414141424d683442465245554467495041534d694a6a55524e4459374154492b416a30424e4434424d774d524e4334424b7745694467455645525165416a73424d6a59423067554a42514d4642675266375338394f69364a4367774a4177554a42524547435159624552514842416f524452734a44414c4242676b462f57634542775544415151324c4145494c5459434277734a7877554a42763241415549474367594f4678482b2f7730544477634e41414141416741622f2f73423167484a414330414f7741414154495748514555426973424967344548514555466a4d794e7a59374154495748514555426738424979496d4e52453050675137415255314e43596a496830424642593741544932415777764f67734a33514d4641774d42415355686142554344773048437773484f506b764f67634e45686363454b6b574669304e43533449445148494e6978764341734241674d4442414a734878357044676f496667634c415151324c41454944787356456773486c7a6361484459334351304e414141414141454148674142415573437651424141414154496934434a79593941545175416963694d53494f41683042464234434f774579486749644152514f4169734249675956455251474b7745694a6a55524e44593741544965416830424641596a6f51494441774d4242514545435163424341734641514d47434153384241674742415147434152494351304c43493849437a63755a52596c4751344b42774952415145434151554845776f4b446759424277304e43467746434155454177594942524d454341594544416e2b7067674d444167435269773244686f6b466a6b4843674141414141434142722f4267487041694d415367425a414141464d68596441525147427734444b7745694a69637541534d68496a30424e4459334e69636d4e52453050674937415455305067453741544965415230424641634f41537342496830424d7a496541685552464134424b774569426855554d784d52464234434d7a49324e5245304a694947415949744f51494441514d444177494a42516b43424267522f755a5a456863484379675048436358704173624657344743515547416767455a5249694679636344786f77482f414b4479553842416f5244526b54457a49544e69636e5a514d47417745434151454842513451545259634b694d4c42787331415167574a526f4f497845594467554a4268344942674d444541514f476955572f7667644c52674f43686f426d66372f44524d5042787362415145624778734141414142414238414151486a417345414b6741414154496541785552464159724153496d4e5245304a69734249675956455251474b7745694a6a55524e445937415449654152304246444d42656849674768494b43776950434173544752634a445173496a77674c4377695042516b464541484a4352455948784c2b7277674d444167425468736244516e2b6b67674d444167436d41674d42676b4631513841414141434142344141514456416d494144774168414141544d685956455251474b7745694a6a55524e44597a4e7a49574851455542697342496959394154512b416a50424341734c43493849437773496a77674c43776950434173444251674441634d4c4350356c4341774d4341476243417565437768574341734c43465945427755444141414141762f4f2f31494131414a69414267414c414141457a495746785956455251474b7745694a6a30424e44593741544931455451324d7a637946683042464159724151596e4c6749394154512b4154504142416344426b383461516b4d44416b4a4d5177496a67674d4441694f43415943416749474351554277774d4342676a2b47444e4344416b5243513078416641494335344c434659494377454741675146413159464351554141414142414238414151482b41734541526741414a5259474b7745694a6938424a694d474278555542697342496959314554512b425473424d68344546524555466a4d32507745324f774579486745584667384244674d7241534956467834424f774579466863422b67514d4371734743674a4542416747415173496a77674c4151494441775145416f38434251554441774543424155445341554d6c674d47426745474254514b42784d594544344d41774545416b49684b777362435245494273734a41516e454341774d43414b594177514541774d434151494342415146412f3645427755424349734b4167514443676c6745516f5642776b48415149584667414241423441415144564173454145774141457a49574652455542697342496959314554512b4154632b415450424341734c43493849437745444167494941774c4244416a396141674d444167436d414d46424149444177414141414541486741424175734279514135414141424d685956455251474b7745694a6a55524e4334434b77456944675156455251474b7745694a6a55524e4334424b774569426855524641597241534975416a55524e44597a4e774b424c7a6f4c434938494377514b4551305641675946424149434377695043417348464245554351304c43493844434155444377683441636b324c6636764341774d4341464f44524d4f4341494442415147412f36534341774d4341464f4552634f44516e2b6b67674d417759484241476342777746414145414877414241654d427951416c414141424d6859564552514f41537342496959314554516d4b77456944674d56455251474b7745694a6a55524e4434424d7a63426569343642516b466a77674c45786b58424159474241494c434938494377554a42586742795459742f7138464351594d4341464f4778734442415547425036534341774d434147634251674742514141414141434142722f2b77486c41636b414577416a414141424d685956455251474b7745694a6a55524e4434454d784d524e43344249794947465245554867457a4d6a5942664338364f692f344c7a6f48445249584842436f4278515247524d484642455a4577484a4e69332b2b4377324e697742434138624652494c422f365a4151455246773462472f372f4568594f477741434142722f2b77486c41636b414577416a414141424d685956455251474b7745694a6a55524e4434454d784d524e43344249794947465245554867457a4d6a5942664338364f692f344c7a6f48445249584842436f4278515247524d484642455a4577484a4e69332b2b4377324e697742434138624652494c422f365a4151455246773462472f372f4568594f477741434142372f5567487141636b4147674174414141424d6834424652455542697342496759644152514f4153734249695931455451324d7a63544554516d4b7745694467455645525165416a73424d6a59426668347848446f756942515042516b466b51674c437768656f424d5a4767594b42674d474341516247524d4279526774487637344c44594d45586b464351594d43414a4c427777462f706b424152736242676f472f72344543415944477741434142722f5567486d41636b4147774176414141424d685956455251474b7745694a6a30424e43636d4b7745694a6a55524e4434434f77454445545175415373424967344246524555486745374154492b4151485443416f4c434a454943784d48434967764f6841644b4266745241594a42687352464163484642456242676f464163514d422f32314341774d43486b59424145324c4145494669556144763534415549474367594f4678482b2f7849574467594a41414141414145414867414241634d4279514165414141424d685964415251474b7745694a6a30424e434d6942685552464159724153496d4e5245304e6a4d3341566f754f6773496b67674c4841774f437769504341734c43486742795459746167674c437768794d51774a2f6f734944417749415a774844415541414141414151415a2f2f73426f67484a41453841414145654352304246415972415363694a6a30424e4434424f774579467834424f7745794e6a30424e4334424c774575416a30424e4459374152637948674564415251474b7745694a6963754169734249683042464234454678594255514551426738484451594a424151364c364e6e434173464351554b4467514b51436f4d457738454377703246426f584f692b666141554942516f494367634b415159674d68774f486745424177514742465142427745484167674743776f514542594d4f697732425173496777554a42513873535130524b5134534441513043524d6b466a38744e675546435156364341734942687378495277784177554642415144416951414141454148662f3741546f43555141784141416c4d68344348514555426738424979496d4e5245304e6a73424d6834424678596441525165415473424d683442485145554467457241534947465245554867457a41535944434155444351632f634334754377695041675546416755474351552f42516b4642516b465077674d427851524d41494742774d4d42776f42424377744165674943774543416759495a67554a42675549425259464341554d435037744568594f41414141415141632f2f7342336748454143594141414579466855524641596a42794d694a6a55524e44593741544965415263574652455548674537415449324e5245305067497a41636f4943777349654d77764f6773496a77494642514946427851524651674e417755484241484443776a2b5a41674c425459734156494943774544415159492f7249534667344e434146764241634641774141414141422f2f304141514845416351414a7741414154495742774d4f416973424969596e417959334e6a73424d683842466a492f415459754153734249693443505145304e6a4d4273516b4b41356f43426767455977634c41707344425159496d417745576751534179414a4253516241774d46417749484267484444676e2b5977514742416747415a304a4277634c2f7767495753412b4c67494542414d4d425163414141414141662f39414145437941484541456f41414145794667634444674572415349764153344249794950415134424b7745694a6963444a6a632b415473424d683444487745574d6a38424e6a6376415359324e7a59374154496541523842466a492f4154596d4b7745694c674939415451324d774b3143516f446d674d4c426c5150425541424277514a4130414343776454427773436d774d46416767456c51494542414d4341566f4445774d6741514578425149424177554a6c41514742514a61417849444942496a4b51514342514d43427755427777344a2f6d4d47434136734241514972415949434159426e516b484177514241674d444176384943466b4542494d504241674542774d46412f384943466b755867494542414d4d4251634141662f39414141427a41484441456b414141457946785955447745584667597241534976415334434a79495041513446465251374154495748514555446745724153496d5077456e4a6a593741544965415238424867457a4d6a3842506745314e43596a49695939415451324d77473643675544416e466342416f4a6f7773455441454442414d4842413045424159454177493241775948417759456c51734b426f4a6542416f4a6f774d4742514a4c415159454341514a43416762476759484277594277776b454351545575776b514370774342414542427855474277774a437777474c676746437751474178494a304c344a4541494641357744424163524469415246786f484267734643414141415141612f31494279514845414449414141457946685552464159724153496d4a795939415451324f7745795067493941534d694a6a55524e445937415449574652455548674537415449324e5245305067457a416255494331592b784151484167554b4347555146784148616a39504377695043417348464245434351774643515942777773492f69513453674d444251634e42776f47446867544f30773841537749437773492f7249534667344e4341467642516b46414141424141554141514732416351414d4141414a5449574851455542694d6849695933457a596e4c67457241534947427759724153496d505145304e6a4d684d68594841775958466a73424d6a59334e4434424d77476942676f4c4350353643676f4679775145416759444279704243514d4e4467634a4377674262776b4b4263734441775547477970454367554841366f4b42345548444245494158494742674d455179734e43676437434173514366365042775947537977454251514141414141414177416c6741424141414141414142414259414c6741424141414141414143414163415651414241414141414141444143384176514142414141414141414541424d424651414241414141414141464141734251514142414141414141414741424d4264514144414145454351414241437741414141444141454543514143414134415251414441414545435141444146344158514144414145454351414541435941375141444141454543514146414259424b51414441414545435141474143594254514243414534414941425341476b415a7742704147514162414235414341415151427341485141494142534147384164514275414751415a51426b4141424354694253615764705a4778354945467364434253623356755a47566b41414253414755415a7742314147774159514279414142535a576431624746794141424741473841626742304145594162774279414763415a514167414449414c674177414341414f674167414549415467425341476b415a774270414751416241423541454541624142304146494162774231414734415a41426c4147514149414136414341414d674178414330414e514174414449414d4141794144494141455a76626e524762334a6e5a5341794c6a41674f694243546c4a705a326c6b62486c4262485253623356755a47566b49446f674d6a45744e5330794d444979414142434145344155674270414763416151426b414777416551424241477741644142534147384164514275414751415a51426b41414243546c4a705a326c6b62486c4262485253623356755a47566b41414257414755416367427a41476b4162774275414341414d5141754144414141465a6c636e4e70623234674d533477414142434145344155674270414763416151426b414777416551424241477741644142534147384164514275414751415a51426b41414243546c4a705a326c6b62486c4262485253623356755a47566b41414141416741414141414141502b4441444941414141414141414141414141414141414141414141414141414142674141414141514143414141414151454341514d414177414941416f414367414b414173414441414e414134414477415141424541456741544142514146514157414263414741415a41426f41477741634142304148674166414341414951416941434d414a41416c414359414a77416f41436b414b674172414377414c514175414338414d414178414449414d774130414455414e674133414467414f5141364144734150414139414434415077424141454541516742454145554152674248414567415351424b414573415441424e4145344154774251414645415567425341464d4156414256414659415677425941466b4157674262414677415851437343574e76626e52796232784d52676c6a62323530636d397351314941414141414141482f2f774143414145414141414d41414141484141414141494141674142414145414151414541463841415141454141414141674141414145414141414b414377414c67414352455a4d5641414f624746306267415941415141414141412f2f3841414141454141414141502f2f4141414141414141414145414141414b414441415367414352455a4d5641414f624746306267416141415141414141412f2f38414151414141415141414141412f2f38414151414241414a725a584a75414135725a584a75414251414141414241414541414141424141414141674147414134414167414141414541454141434141414141515a79414145474e674145414141414c67426d414a41416f674338414e6f41374145754155774259674741416134425441464d414c77423341433841676f435a414b614157494332414c59417a59446c415079424241454c67524d4155774561675349424b49457641547142526746474155324254594656415636425a674673675851426441463967596341416f4143662f574141372f3141416a2f3959414f502b2f4144722f764141372f37774150662b384145442f7a7742612f394141572f2f514141514144662f724142502f327742412f39594151662f594141594144662f304142502f374142412f39304151662f714146722f387742622f2f4d414277414e2f2b6f41452f2f6241447a2f2b6742412f39594151662f5a41467a2f394142652f2f73414241414e2f2b3841452f2f6e4145442f325142422f2b5541454141512f39414145762f514142502f3077416c2f3767414c762b324145442f2b4142422f2f634152502f6a4145622f356742482f2b594153502f6d4145722f355142532f2b594156662f6c4146662f364142632f2f6f414277414a2f2f414144662f734141372f386741542f397341492f2f314145442f315142422f3967414251414e2f2b6b41452f2f634145442f317742422f396f41522f2f374141634144662f704142502f327741382f2f6b4151502f5a4145482f325142632f2f494158762f344141734143662f654141372f3941416a2f2f6b414a2f2f324143762f3967417a2f2f59414e662f3241446e2f2b4142412f2b494157762f554146762f3141414c41416e2f7a77414f2f383441492f2f5441446a2f754141362f3759414f2f2b324144332f754142412f38344151662f364146722f365142622f2b6b414377414e2f2f4d4145502f5441424c2f307741542f3959414a662f434143372f2b5141382f2b734151502f644145482f316742452f2f634158502f364142594143662f3141417a2f2b67414f2f2f594146502f364142722f2b67416a2f2f67414a2f2f324143762f3967417a2f2f59414e662f3241446e2f395141362f2f4d414f2f2f7a4144332f395142412f39514151662f374145662f2b67424b2f2f734157662f374146722f375142622f2b304158662f374141304143662f6e4141332f3767414f2f2b7341452f2f644143502f375141342f2f63414f762f344144762f2b4141392f2f6f4151502f564145482f324142612f2f4541572f2f784141384145502f5541424c2f314141542f3955414a662b384143372f757742412f2f674151662f334145542f356742472f2b7741522f2f7341456a2f3741424b2f2b774155762f734146582f367742582f2b3441467741512f394d4145762f544142502f307741652f396b41482f2f594143582f755141752f376b4152502f474145622f787742482f38514153502f484145722f7941424e2f2f674155762f484146582f787742582f38634157502f7941466e2f787742612f393841572f2f6641467a2f775142642f38634158762f464142634143662f7a4142502f374141652f2f4d41482f2f314143662f2b7741722f2f73414d2f2f374144582f2b7742422f2f734152502f304145622f376742482f2b774153502f754145722f3751424e2f2f674155762f754146582f376742582f2f6f4157502f7641466e2f374142612f386f41572f2f4b4146332f374141584142442f316741532f395941452f2f554142372f325141662f396b414a662b374143372f755142452f38594152762f484145662f784142492f38634153762f494145332f396742532f38634156662f484146662f787742592f2f414157662f484146722f314142622f39514158502f434146332f787742652f3855414277414a2f2b774144662f354142502f366742412f2b344151662f734146722f326742622f396f414277414a2f2b454144662f714142502f3477416a2f396b4151502f544145482f3441424e2f2f67414277414a2f396f4144662f694141372f314141542f396b41492f2f594145442f307742422f3959414277414a2f2b4d4144662f774142502f3651416a2f39774151502f544145482f3567424e2f2f6b414277414a2f2b554144662f704142502f3377416a2f396b4151502f544145482f3277424e2f2f67414267414e2f2f734145502f4a41424c2f795141542f396b4151502f774145482f346741474141332f365141542f39344151502f564145482f325142632f2f6b4158762f374141734143662f6141417a2f2b67414e2f2b6b4144762f554142502f345141552f2f6f4147762f364143502f324142412f394d4151662f664145662f2b77414c41416e2f3341414d2f2f594144762f564142502f2b4141552f2f594147762f324143502f364142412f39494151662f324145662f3977424b2f2f73414277414a2f2b454144662f704142502f3477416a2f396b4151502f544145482f3377424e2f2f67414277414a2f2b494144662f6f4142502f3377416a2f396b4151502f544145482f3251424e2f2f6b414351414a2f2f454144662f744142442f315141532f395541452f2f5a4143502f316742412f39454151662f5641467a2f3651414841416e2f3551414e2f2b6741452f2f674143502f344142412f394d4151662f5a4145332f2b51414741416e2f3941414f2f2b4141452f2f374143502f2b5142412f394d4151662f354141634143662f6a4141332f364141542f2b4941492f2f614145442f307742422f39304154662f3341416b4143662f374141332f386741512f39774145762f634142502f3267416a2f2f734151502f524145482f315142452f2f59414351414a2f2f634144662f794142442f2b7741532f2f7341452f2f6e4143502f397742412f39494151662f6e4145542f2b41414741416e2f3667414e2f2f5541452f2f734143502f367742412f39494151662f72414149414341416c41437741414141754144344143414245414573414751424f41453441495142514146494149674255414651414a514257414677414a674265414634414c514142414b5141424141414141634147414179414541415867423041496f414d6741474142582f2b5141582f2f6f4147502f6b41426e2f396741632f2f674148662f3341414d4146662f374142622f2b6741642f2f7341427741562f39774146762f684142662f2b41415a2f2f6b41472f2f6141427a2f2b7741642f2b5541425141562f2b594146762f314142662f2b7741622f2b304148662f784141554146662f764142622f394141582f2f6f41472f2f794142332f387741474142622f395141582f2f6f4147502f5a41426e2f374141632f2f554148662f36414149414151415741427741414141414141454141414141326f694e54414141414144657269796b41414141414e36754c4b513d293b7d7d3c2f7374796c653e3c2f646566733ea264697066735822122096d8d9e67088bc1cc3c75bdc7d96ffdcaf0c14faeb6676e15c3468fd011ae16564736f6c63430008090033",
  "devdoc": {
    "kind": "dev",
    "methods": {},
    "version": 1
  },
  "userdoc": {
    "kind": "user",
    "methods": {},
    "version": 1
  },
  "storageLayout": {
    "storage": [],
    "types": null
  }
}