{
  "address": "0x872a654FeDeD8B4d27511577b4B48684C25aFa8D",
  "abi": [
    {
      "inputs": [],
      "name": "InvalidPool",
      "type": "error"
    },
    {
      "inputs": [],
      "name": "PermitFailed",
      "type": "error"
    },
    {
      "inputs": [],
      "name": "TickOutOfBounds",
      "type": "error"
    },
    {
      "inputs": [],
      "name": "TooLittleAmountIn",
      "type": "error"
    },
    {
      "inputs": [],
      "name": "TooLittleReceived",
      "type": "error"
    },
    {
      "inputs": [
        {
          "components": [
            {
              "internalType": "address",
              "name": "tokenIn",
              "type": "address"
            },
            {
              "internalType": "uint256",
              "name": "amountIn",
              "type": "uint256"
            },
            {
              "internalType": "uint256",
              "name": "amountOutMinimum",
              "type": "uint256"
            },
            {
              "internalType": "address[]",
              "name": "path",
              "type": "address[]"
            },
            {
              "internalType": "address",
              "name": "to",
              "type": "address"
            },
            {
              "internalType": "bool",
              "name": "unwrap",
              "type": "bool"
            }
          ],
          "internalType": "struct IPoolRouter.ExactInputParams",
          "name": "params",
          "type": "tuple"
        }
      ],
      "name": "exactInput",
      "outputs": [
        {
          "internalType": "uint256",
          "name": "amountOut",
          "type": "uint256"
        }
      ],
      "stateMutability": "payable",
      "type": "function"
    },
    {
      "inputs": [
        {
          "components": [
            {
              "internalType": "address",
              "name": "tokenIn",
              "type": "address"
            },
            {
              "internalType": "uint256",
              "name": "amountIn",
              "type": "uint256"
            },
            {
              "internalType": "uint256",
              "name": "amountOutMinimum",
              "type": "uint256"
            },
            {
              "internalType": "address",
              "name": "pool",
              "type": "address"
            },
            {
              "internalType": "address",
              "name": "to",
              "type": "address"
            },
            {
              "internalType": "bool",
              "name": "unwrap",
              "type": "bool"
            }
          ],
          "internalType": "struct IPoolRouter.ExactInputSingleParams",
          "name": "params",
          "type": "tuple"
        }
      ],
      "name": "exactInputSingle",
      "outputs": [
        {
          "internalType": "uint256",
          "name": "amountOut",
          "type": "uint256"
        }
      ],
      "stateMutability": "payable",
      "type": "function"
    },
    {
      "inputs": [
        {
          "internalType": "address",
          "name": "tokenIn",
          "type": "address"
        },
        {
          "internalType": "uint256",
          "name": "amountIn",
          "type": "uint256"
        },
        {
          "internalType": "uint256",
          "name": "amountOutMinimum",
          "type": "uint256"
        },
        {
          "internalType": "address",
          "name": "pool",
          "type": "address"
        },
        {
          "internalType": "address",
          "name": "to",
          "type": "address"
        },
        {
          "internalType": "bool",
          "name": "unwrap",
          "type": "bool"
        }
      ],
      "name": "exactInputSingleWithoutStruct",
      "outputs": [
        {
          "internalType": "uint256",
          "name": "amountOut",
          "type": "uint256"
        }
      ],
      "stateMutability": "payable",
      "type": "function"
    },
    {
      "inputs": [
        {
          "internalType": "address",
          "name": "tokenIn",
          "type": "address"
        },
        {
          "internalType": "uint256",
          "name": "amountIn",
          "type": "uint256"
        },
        {
          "internalType": "uint256",
          "name": "amountOutMinimum",
          "type": "uint256"
        },
        {
          "internalType": "address[]",
          "name": "path",
          "type": "address[]"
        },
        {
          "internalType": "address",
          "name": "to",
          "type": "address"
        },
        {
          "internalType": "bool",
          "name": "unwrap",
          "type": "bool"
        }
      ],
      "name": "exactInputWithoutStruct",
      "outputs": [
        {
          "internalType": "uint256",
          "name": "",
          "type": "uint256"
        }
      ],
      "stateMutability": "payable",
      "type": "function"
    },
    {
      "inputs": [
        {
          "components": [
            {
              "internalType": "address",
              "name": "tokenIn",
              "type": "address"
            },
            {
              "internalType": "uint256",
              "name": "amountOut",
              "type": "uint256"
            },
            {
              "internalType": "uint256",
              "name": "amountInMaximum",
              "type": "uint256"
            },
            {
              "internalType": "address[]",
              "name": "path",
              "type": "address[]"
            },
            {
              "internalType": "address",
              "name": "to",
              "type": "address"
            },
            {
              "internalType": "bool",
              "name": "unwrap",
              "type": "bool"
            }
          ],
          "internalType": "struct IPoolRouter.ExactOutputParams",
          "name": "params",
          "type": "tuple"
        }
      ],
      "name": "exactOutput",
      "outputs": [
        {
          "internalType": "uint256",
          "name": "amountIn",
          "type": "uint256"
        }
      ],
      "stateMutability": "payable",
      "type": "function"
    },
    {
      "inputs": [
        {
          "components": [
            {
              "internalType": "address",
              "name": "tokenIn",
              "type": "address"
            },
            {
              "internalType": "uint256",
              "name": "amountOut",
              "type": "uint256"
            },
            {
              "internalType": "uint256",
              "name": "amountInMaximum",
              "type": "uint256"
            },
            {
              "internalType": "address",
              "name": "pool",
              "type": "address"
            },
            {
              "internalType": "address",
              "name": "to",
              "type": "address"
            },
            {
              "internalType": "bool",
              "name": "unwrap",
              "type": "bool"
            }
          ],
          "internalType": "struct IPoolRouter.ExactOutputSingleParams",
          "name": "params",
          "type": "tuple"
        }
      ],
      "name": "exactOutputSingle",
      "outputs": [
        {
          "internalType": "uint256",
          "name": "amountIn",
          "type": "uint256"
        }
      ],
      "stateMutability": "payable",
      "type": "function"
    },
    {
      "inputs": [
        {
          "internalType": "address",
          "name": "tokenIn",
          "type": "address"
        },
        {
          "internalType": "uint256",
          "name": "amountOut",
          "type": "uint256"
        },
        {
          "internalType": "uint256",
          "name": "amountInMaximum",
          "type": "uint256"
        },
        {
          "internalType": "address",
          "name": "pool",
          "type": "address"
        },
        {
          "internalType": "address",
          "name": "to",
          "type": "address"
        },
        {
          "internalType": "bool",
          "name": "unwrap",
          "type": "bool"
        }
      ],
      "name": "exactOutputSingleWithoutStruct",
      "outputs": [
        {
          "internalType": "uint256",
          "name": "",
          "type": "uint256"
        }
      ],
      "stateMutability": "payable",
      "type": "function"
    },
    {
      "inputs": [
        {
          "internalType": "address",
          "name": "tokenIn",
          "type": "address"
        },
        {
          "internalType": "uint256",
          "name": "amountOut",
          "type": "uint256"
        },
        {
          "internalType": "uint256",
          "name": "amountInMaximum",
          "type": "uint256"
        },
        {
          "internalType": "address[]",
          "name": "path",
          "type": "address[]"
        },
        {
          "internalType": "address",
          "name": "to",
          "type": "address"
        },
        {
          "internalType": "bool",
          "name": "unwrap",
          "type": "bool"
        }
      ],
      "name": "exactOutputWithoutStruct",
      "outputs": [
        {
          "internalType": "uint256",
          "name": "",
          "type": "uint256"
        }
      ],
      "stateMutability": "payable",
      "type": "function"
    },
    {
      "inputs": [
        {
          "internalType": "address",
          "name": "_masterDeployer",
          "type": "address"
        },
        {
          "internalType": "address",
          "name": "_wETH",
          "type": "address"
        }
      ],
      "name": "initialize",
      "outputs": [],
      "stateMutability": "nonpayable",
      "type": "function"
    },
    {
      "inputs": [],
      "name": "masterDeployer",
      "outputs": [
        {
          "internalType": "contract IMasterDeployer",
          "name": "",
          "type": "address"
        }
      ],
      "stateMutability": "view",
      "type": "function"
    },
    {
      "inputs": [
        {
          "internalType": "bytes[]",
          "name": "data",
          "type": "bytes[]"
        }
      ],
      "name": "multicall",
      "outputs": [
        {
          "internalType": "bytes[]",
          "name": "results",
          "type": "bytes[]"
        }
      ],
      "stateMutability": "payable",
      "type": "function"
    },
    {
      "inputs": [
        {
          "internalType": "address",
          "name": "token",
          "type": "address"
        },
        {
          "internalType": "uint256",
          "name": "amount",
          "type": "uint256"
        },
        {
          "internalType": "uint256",
          "name": "deadline",
          "type": "uint256"
        },
        {
          "internalType": "uint8",
          "name": "v",
          "type": "uint8"
        },
        {
          "internalType": "bytes32",
          "name": "r",
          "type": "bytes32"
        },
        {
          "internalType": "bytes32",
          "name": "s",
          "type": "bytes32"
        }
      ],
      "name": "permitThis",
      "outputs": [],
      "stateMutability": "nonpayable",
      "type": "function"
    },
    {
      "inputs": [
        {
          "internalType": "address",
          "name": "token",
          "type": "address"
        },
        {
          "internalType": "uint256",
          "name": "nonce",
          "type": "uint256"
        },
        {
          "internalType": "uint256",
          "name": "expiry",
          "type": "uint256"
        },
        {
          "internalType": "uint8",
          "name": "v",
          "type": "uint8"
        },
        {
          "internalType": "bytes32",
          "name": "r",
          "type": "bytes32"
        },
        {
          "internalType": "bytes32",
          "name": "s",
          "type": "bytes32"
        }
      ],
      "name": "permitThisAllowed",
      "outputs": [],
      "stateMutability": "nonpayable",
      "type": "function"
    },
    {
      "inputs": [
        {
          "internalType": "address",
          "name": "token",
          "type": "address"
        },
        {
          "internalType": "uint256",
          "name": "amount",
          "type": "uint256"
        },
        {
          "internalType": "address",
          "name": "recipient",
          "type": "address"
        }
      ],
      "name": "sweep",
      "outputs": [],
      "stateMutability": "payable",
      "type": "function"
    }
  ],
  "transactionHash": "0x57abfe19e8de2d6eee36d5adfc35b13ff2407671e8333d01541d9f84683fb456",
  "args": [],
  "numDeployments": 1,
  "solcInputHash": "b23dde1d9941cf16bf4ff7610267016b",
  "bytecode": "0x608060405234801561001057600080fd5b5061497f806100206000396000f3fe6080604052600436106100dd5760003560e01c8063bee20e051161007f578063cf58879a11610059578063cf58879a146101e9578063da54d3da14610241578063dc2c256f14610254578063e20926ef1461026757600080fd5b8063bee20e05146101b0578063bf0affa8146101c3578063c07f5c32146101d657600080fd5b806354c1b650116100bb57806354c1b6501461013d5780637763198114610150578063a9b62c2314610170578063ac9650d81461019057600080fd5b80633223c657146100e2578063363a9dba14610108578063485cc9551461011b575b600080fd5b6100f56100f0366004613fa0565b61027a565b6040519081526020015b60405180910390f35b6100f56101163660046140c0565b6102ea565b34801561012757600080fd5b5061013b6101363660046140f5565b6109bf565b005b6100f561014b36600461418e565b610b5e565b34801561015c57600080fd5b5061013b61016b3660046141aa565b610fac565b34801561017c57600080fd5b5061013b61018b3660046141aa565b6110e2565b6101a361019e36600461420c565b611140565b6040516100ff91906142f7565b6100f56101be3660046140c0565b6112b2565b6100f56101d1366004614377565b611a2b565b6100f56101e436600461418e565b611aa6565b3480156101f557600080fd5b5060005461021c9062010000900473ffffffffffffffffffffffffffffffffffffffff1681565b60405173ffffffffffffffffffffffffffffffffffffffff90911681526020016100ff565b6100f561024f366004613fa0565b611e3f565b61013b6102623660046143c9565b611ea4565b6100f5610275366004614377565b611f6c565b60006102df6040518060c001604052808973ffffffffffffffffffffffffffffffffffffffff1681526020018881526020018781526020018681526020018573ffffffffffffffffffffffffffffffffffffffff1681526020018415158152506112b2565b979650505050505050565b600061031e826000015133846060015160008151811061030c5761030c61440b565b60200260200101518560200151611fe7565b815160009073ffffffffffffffffffffffffffffffffffffffff161561034557825161035f565b60015473ffffffffffffffffffffffffffffffffffffffff165b606084015151909150600080805b610378600185614469565b81101561065e57866060015181815181106103955761039561440b565b602002602001015192506103a8836120b6565b8473ffffffffffffffffffffffffffffffffffffffff168373ffffffffffffffffffffffffffffffffffffffff16630dfe16816040518163ffffffff1660e01b815260040160206040518083038186803b15801561040557600080fd5b505afa158015610419573d6000803e3d6000fd5b505050506040513d601f19601f8201168201806040525081019061043d9190614480565b73ffffffffffffffffffffffffffffffffffffffff161491508273ffffffffffffffffffffffffffffffffffffffff1663627dd56a838960600151846001610485919061449d565b815181106104955761049561440b565b60200260200101516040516020016104cf929190911515825273ffffffffffffffffffffffffffffffffffffffff16602082015260400190565b6040516020818303038152906040526040518263ffffffff1660e01b81526004016104fa91906144b5565b602060405180830381600087803b15801561051457600080fd5b505af1158015610528573d6000803e3d6000fd5b505050506040513d601f19601f8201168201806040525081019061054c91906144c8565b9550816105d6578273ffffffffffffffffffffffffffffffffffffffff16630dfe16816040518163ffffffff1660e01b815260040160206040518083038186803b15801561059957600080fd5b505afa1580156105ad573d6000803e3d6000fd5b505050506040513d601f19601f820116820180604052508101906105d19190614480565b610654565b8273ffffffffffffffffffffffffffffffffffffffff1663d21220a76040518163ffffffff1660e01b815260040160206040518083038186803b15801561061c57600080fd5b505afa158015610630573d6000803e3d6000fd5b505050506040513d601f19601f820116820180604052508101906106549190614480565b945060010161036d565b50606086015161066f600185614469565b8151811061067f5761067f61440b565b60200260200101519150610692826120b6565b8373ffffffffffffffffffffffffffffffffffffffff168273ffffffffffffffffffffffffffffffffffffffff16630dfe16816040518163ffffffff1660e01b815260040160206040518083038186803b1580156106ef57600080fd5b505afa158015610703573d6000803e3d6000fd5b505050506040513d601f19601f820116820180604052508101906107279190614480565b73ffffffffffffffffffffffffffffffffffffffff161490508560a00151156108a457604080518215156020820152308183015281518082038301815260608201928390527f627dd56a0000000000000000000000000000000000000000000000000000000090925273ffffffffffffffffffffffffffffffffffffffff84169163627dd56a916107bb91906064016144b5565b602060405180830381600087803b1580156107d557600080fd5b505af11580156107e9573d6000803e3d6000fd5b505050506040513d601f19601f8201168201806040525081019061080d91906144c8565b60015460808801516040517f205c287800000000000000000000000000000000000000000000000000000000815273ffffffffffffffffffffffffffffffffffffffff918216600482015260248101849052929750169063205c287890604401600060405180830381600087803b15801561088757600080fd5b505af115801561089b573d6000803e3d6000fd5b50505050610978565b8173ffffffffffffffffffffffffffffffffffffffff1663627dd56a8288608001516040516020016108f8929190911515825273ffffffffffffffffffffffffffffffffffffffff16602082015260400190565b6040516020818303038152906040526040518263ffffffff1660e01b815260040161092391906144b5565b602060405180830381600087803b15801561093d57600080fd5b505af1158015610951573d6000803e3d6000fd5b505050506040513d601f19601f8201168201806040525081019061097591906144c8565b94505b85604001518510156109b6576040517fc9f52c7100000000000000000000000000000000000000000000000000000000815260040160405180910390fd5b50505050919050565b600054610100900460ff166109da5760005460ff16156109de565b303b155b610a6f576040517f08c379a000000000000000000000000000000000000000000000000000000000815260206004820152602e60248201527f496e697469616c697a61626c653a20636f6e747261637420697320616c72656160448201527f647920696e697469616c697a656400000000000000000000000000000000000060648201526084015b60405180910390fd5b600054610100900460ff16158015610aae57600080547fffffffffffffffffffffffffffffffffffffffffffffffffffffffffffff0000166101011790555b600080547fffffffffffffffffffff0000000000000000000000000000000000000000ffff166201000073ffffffffffffffffffffffffffffffffffffffff8681169190910291909117909155600180547fffffffffffffffffffffffff0000000000000000000000000000000000000000169184169190911790558015610b5957600080547fffffffffffffffffffffffffffffffffffffffffffffffffffffffffffff00ff1690555b505050565b8051600090819073ffffffffffffffffffffffffffffffffffffffff1615610b87578251610ba1565b60015473ffffffffffffffffffffffffffffffffffffffff165b9050610bb68360600151828560200151612215565b50809250508183604001511015610bf9576040517f197464f400000000000000000000000000000000000000000000000000000000815260040160405180910390fd5b825173ffffffffffffffffffffffffffffffffffffffff16610c625781341015610c4f576040517f197464f400000000000000000000000000000000000000000000000000000000815260040160405180910390fd5b610c6233610c5d8434614469565b6129ac565b610c76836000015133856060015185611fe7565b6060830151610c84816120b6565b60008273ffffffffffffffffffffffffffffffffffffffff168273ffffffffffffffffffffffffffffffffffffffff16630dfe16816040518163ffffffff1660e01b815260040160206040518083038186803b158015610ce357600080fd5b505afa158015610cf7573d6000803e3d6000fd5b505050506040513d601f19601f82011682018060405250810190610d1b9190614480565b73ffffffffffffffffffffffffffffffffffffffff1614905060008560a0015115610e9a57604080518315156020820152308183015281518082038301815260608201928390527f627dd56a0000000000000000000000000000000000000000000000000000000090925273ffffffffffffffffffffffffffffffffffffffff85169163627dd56a91610db191906064016144b5565b602060405180830381600087803b158015610dcb57600080fd5b505af1158015610ddf573d6000803e3d6000fd5b505050506040513d601f19601f82011682018060405250810190610e0391906144c8565b60015460808801516040517f205c287800000000000000000000000000000000000000000000000000000000815273ffffffffffffffffffffffffffffffffffffffff918216600482015260248101849052929350169063205c287890604401600060405180830381600087803b158015610e7d57600080fd5b505af1158015610e91573d6000803e3d6000fd5b50505050610f6e565b8273ffffffffffffffffffffffffffffffffffffffff1663627dd56a838860800151604051602001610eee929190911515825273ffffffffffffffffffffffffffffffffffffffff16602082015260400190565b6040516020818303038152906040526040518263ffffffff1660e01b8152600401610f1991906144b5565b602060405180830381600087803b158015610f3357600080fd5b505af1158015610f47573d6000803e3d6000fd5b505050506040513d601f19601f82011682018060405250810190610f6b91906144c8565b90505b85602001518110156109b6576040517fc9f52c7100000000000000000000000000000000000000000000000000000000815260040160405180910390fd5b6040513360248201523060448201526064810186905260848101859052600160a482015260ff841660c482015260e48101839052610104810182905260009073ffffffffffffffffffffffffffffffffffffffff881690638fcbaf0c90610124015b6040516020818303038152906040529060e01b6020820180517bffffffffffffffffffffffffffffffffffffffffffffffffffffffff838183161783525050505060405161105c91906144e1565b6000604051808303816000865af19150503d8060008114611099576040519150601f19603f3d011682016040523d82523d6000602084013e61109e565b606091505b50509050806110d9576040517fb78cb0dd00000000000000000000000000000000000000000000000000000000815260040160405180910390fd5b50505050505050565b604051336024820152306044820152606481018690526084810185905260ff841660a482015260c4810183905260e4810182905260009073ffffffffffffffffffffffffffffffffffffffff88169063d505accf906101040161100e565b60608167ffffffffffffffff81111561115b5761115b613e6d565b60405190808252806020026020018201604052801561118e57816020015b60608152602001906001900390816111795790505b50905060005b828110156112ab57600080308686858181106111b2576111b261440b565b90506020028101906111c491906144fd565b6040516111d2929190614569565b600060405180830381855af49150503d806000811461120d576040519150601f19603f3d011682016040523d82523d6000602084013e611212565b606091505b5091509150816112785760448151101561122b57600080fd5b600481019050808060200190518101906112459190614579565b6040517f08c379a0000000000000000000000000000000000000000000000000000000008152600401610a6691906144b5565b8084848151811061128b5761128b61440b565b6020026020010181905250505080806112a39061462b565b915050611194565b5092915050565b60006112cb826060015183600001518460200151612a7f565b9050808260400151101561130b576040517f197464f400000000000000000000000000000000000000000000000000000000815260040160405180910390fd5b815173ffffffffffffffffffffffffffffffffffffffff161580156113725781341015611364576040517f197464f400000000000000000000000000000000000000000000000000000000815260040160405180910390fd5b61137233610c5d8434614469565b6113a083600001513385606001516000815181106113925761139261440b565b602002602001015185611fe7565b6000816113ae5783516113c8565b60015473ffffffffffffffffffffffffffffffffffffffff165b60608501515190915060008080805b6113e2600186614469565b8110156116c857886060015181815181106113ff576113ff61440b565b60200260200101519150611412826120b6565b8573ffffffffffffffffffffffffffffffffffffffff168273ffffffffffffffffffffffffffffffffffffffff16630dfe16816040518163ffffffff1660e01b815260040160206040518083038186803b15801561146f57600080fd5b505afa158015611483573d6000803e3d6000fd5b505050506040513d601f19601f820116820180604052508101906114a79190614480565b73ffffffffffffffffffffffffffffffffffffffff161492508173ffffffffffffffffffffffffffffffffffffffff1663627dd56a848b606001518460016114ef919061449d565b815181106114ff576114ff61440b565b6020026020010151604051602001611539929190911515825273ffffffffffffffffffffffffffffffffffffffff16602082015260400190565b6040516020818303038152906040526040518263ffffffff1660e01b815260040161156491906144b5565b602060405180830381600087803b15801561157e57600080fd5b505af1158015611592573d6000803e3d6000fd5b505050506040513d601f19601f820116820180604052508101906115b691906144c8565b935082611640578173ffffffffffffffffffffffffffffffffffffffff16630dfe16816040518163ffffffff1660e01b815260040160206040518083038186803b15801561160357600080fd5b505afa158015611617573d6000803e3d6000fd5b505050506040513d601f19601f8201168201806040525081019061163b9190614480565b6116be565b8173ffffffffffffffffffffffffffffffffffffffff1663d21220a76040518163ffffffff1660e01b815260040160206040518083038186803b15801561168657600080fd5b505afa15801561169a573d6000803e3d6000fd5b505050506040513d601f19601f820116820180604052508101906116be9190614480565b95506001016113d7565b5060608801516116d9600186614469565b815181106116e9576116e961440b565b602002602001015190506116fc816120b6565b8473ffffffffffffffffffffffffffffffffffffffff168173ffffffffffffffffffffffffffffffffffffffff16630dfe16816040518163ffffffff1660e01b815260040160206040518083038186803b15801561175957600080fd5b505afa15801561176d573d6000803e3d6000fd5b505050506040513d601f19601f820116820180604052508101906117919190614480565b73ffffffffffffffffffffffffffffffffffffffff161491508760a001511561190e57604080518315156020820152308183015281518082038301815260608201928390527f627dd56a0000000000000000000000000000000000000000000000000000000090925273ffffffffffffffffffffffffffffffffffffffff83169163627dd56a9161182591906064016144b5565b602060405180830381600087803b15801561183f57600080fd5b505af1158015611853573d6000803e3d6000fd5b505050506040513d601f19601f8201168201806040525081019061187791906144c8565b60015460808a01516040517f205c287800000000000000000000000000000000000000000000000000000000815273ffffffffffffffffffffffffffffffffffffffff918216600482015260248101849052929550169063205c287890604401600060405180830381600087803b1580156118f157600080fd5b505af1158015611905573d6000803e3d6000fd5b505050506119e2565b8073ffffffffffffffffffffffffffffffffffffffff1663627dd56a838a60800151604051602001611962929190911515825273ffffffffffffffffffffffffffffffffffffffff16602082015260400190565b6040516020818303038152906040526040518263ffffffff1660e01b815260040161198d91906144b5565b602060405180830381600087803b1580156119a757600080fd5b505af11580156119bb573d6000803e3d6000fd5b505050506040513d601f19601f820116820180604052508101906119df91906144c8565b92505b8760200151831015611a20576040517fc9f52c7100000000000000000000000000000000000000000000000000000000815260040160405180910390fd5b505050505050919050565b60006102df6040518060c001604052808973ffffffffffffffffffffffffffffffffffffffff1681526020018881526020018781526020018673ffffffffffffffffffffffffffffffffffffffff1681526020018573ffffffffffffffffffffffffffffffffffffffff168152602001841515815250610b5e565b6000611ac082600001513384606001518560200151611fe7565b6060820151611ace816120b6565b825160009073ffffffffffffffffffffffffffffffffffffffff1615611af5578351611b0f565b60015473ffffffffffffffffffffffffffffffffffffffff165b905060008173ffffffffffffffffffffffffffffffffffffffff168373ffffffffffffffffffffffffffffffffffffffff16630dfe16816040518163ffffffff1660e01b815260040160206040518083038186803b158015611b7057600080fd5b505afa158015611b84573d6000803e3d6000fd5b505050506040513d601f19601f82011682018060405250810190611ba89190614480565b73ffffffffffffffffffffffffffffffffffffffff161490508460a0015115611d2557604080518215156020820152308183015281518082038301815260608201928390527f627dd56a0000000000000000000000000000000000000000000000000000000090925273ffffffffffffffffffffffffffffffffffffffff85169163627dd56a91611c3c91906064016144b5565b602060405180830381600087803b158015611c5657600080fd5b505af1158015611c6a573d6000803e3d6000fd5b505050506040513d601f19601f82011682018060405250810190611c8e91906144c8565b60015460808701516040517f205c287800000000000000000000000000000000000000000000000000000000815273ffffffffffffffffffffffffffffffffffffffff918216600482015260248101849052929650169063205c287890604401600060405180830381600087803b158015611d0857600080fd5b505af1158015611d1c573d6000803e3d6000fd5b50505050611df9565b8273ffffffffffffffffffffffffffffffffffffffff1663627dd56a828760800151604051602001611d79929190911515825273ffffffffffffffffffffffffffffffffffffffff16602082015260400190565b6040516020818303038152906040526040518263ffffffff1660e01b8152600401611da491906144b5565b602060405180830381600087803b158015611dbe57600080fd5b505af1158015611dd2573d6000803e3d6000fd5b505050506040513d601f19601f82011682018060405250810190611df691906144c8565b93505b8460400151841015611e37576040517fc9f52c7100000000000000000000000000000000000000000000000000000000815260040160405180910390fd5b505050919050565b60006102df6040518060c001604052808973ffffffffffffffffffffffffffffffffffffffff1681526020018881526020018781526020018681526020018573ffffffffffffffffffffffffffffffffffffffff1681526020018415158152506102ea565b73ffffffffffffffffffffffffffffffffffffffff8316611f4b576001546040517fb760faf900000000000000000000000000000000000000000000000000000000815273ffffffffffffffffffffffffffffffffffffffff83811660048301529091169063b760faf99084906024016000604051808303818588803b158015611f2d57600080fd5b505af1158015611f41573d6000803e3d6000fd5b5050505050505050565b610b5973ffffffffffffffffffffffffffffffffffffffff84168284612c9f565b60006102df6040518060c001604052808973ffffffffffffffffffffffffffffffffffffffff1681526020018881526020018781526020018673ffffffffffffffffffffffffffffffffffffffff1681526020018573ffffffffffffffffffffffffffffffffffffffff168152602001841515815250611aa6565b73ffffffffffffffffffffffffffffffffffffffff841661208e576001546040517fb760faf900000000000000000000000000000000000000000000000000000000815273ffffffffffffffffffffffffffffffffffffffff84811660048301529091169063b760faf99083906024016000604051808303818588803b15801561207057600080fd5b505af1158015612084573d6000803e3d6000fd5b50505050506120b0565b6120b073ffffffffffffffffffffffffffffffffffffffff8516848484612d73565b50505050565b73ffffffffffffffffffffffffffffffffffffffff811660009081526002602052604090205460ff16612212576000546040517fa4063dbc00000000000000000000000000000000000000000000000000000000815273ffffffffffffffffffffffffffffffffffffffff8381166004830152620100009092049091169063a4063dbc9060240160206040518083038186803b15801561215557600080fd5b505afa158015612169573d6000803e3d6000fd5b505050506040513d601f19601f8201168201806040525081019061218d9190614664565b6121c3576040517f2083cd4000000000000000000000000000000000000000000000000000000000815260040160405180910390fd5b73ffffffffffffffffffffffffffffffffffffffff8116600090815260026020526040902080547fffffffffffffffffffffffffffffffffffffffffffffffffffffffffffffff001660011790555b50565b60008060006122248686612dd1565b905060008673ffffffffffffffffffffffffffffffffffffffff166354cf2aeb6040518163ffffffff1660e01b815260040160206040518083038186803b15801561226e57600080fd5b505afa158015612282573d6000803e3d6000fd5b505050506040513d601f19601f820116820180604052508101906122a69190614681565b905060008773ffffffffffffffffffffffffffffffffffffffff1663d0c93a7c6040518163ffffffff1660e01b815260040160206040518083038186803b1580156122f057600080fd5b505afa158015612304573d6000803e3d6000fd5b505050506040513d601f19601f820116820180604052508101906123289190614681565b905061235f6040518060a0016040528060008152602001600081526020016000815260200160008152602001600060020b81525090565b6000808a73ffffffffffffffffffffffffffffffffffffffff16638c347f9b6040518163ffffffff1660e01b8152600401604080518083038186803b1580156123a757600080fd5b505afa1580156123bb573d6000803e3d6000fd5b505050506040513d601f19601f820116820180604052508101906123df91906146bd565b915091506040518060a001604052808373ffffffffffffffffffffffffffffffffffffffff1681526020018c73ffffffffffffffffffffffffffffffffffffffff16631a6865026040518163ffffffff1660e01b815260040160206040518083038186803b15801561245057600080fd5b505afa158015612464573d6000803e3d6000fd5b505050506040513d601f19601f820116820180604052508101906124889190614712565b6fffffffffffffffffffffffffffffffff168152602001600081526020018a81526020018761255b576040517ff30dba93000000000000000000000000000000000000000000000000000000008152600284900b600482015273ffffffffffffffffffffffffffffffffffffffff8e169063f30dba939060240160c06040518083038186803b15801561251a57600080fd5b505afa15801561252e573d6000803e3d6000fd5b505050506040513d601f19601f82011682018060405250810190612552919061472d565b6020015161255d565b825b60020b8152509250505061257081612e86565b1561258557516000955093506129a492505050565b60608101511561292e57600061259e8260800151612f07565b73ffffffffffffffffffffffffffffffffffffffff16905060008086156126915760006125e46125d98660200151868860000151600061329a565b8862ffffff166132e8565b90508085606001511161265557600061262161260987606001518a62ffffff16613309565b6c01000000000000000000000000886020015161331d565b865161262d9190614469565b905061264486602001518288600001516001613378565b90865260006060870152925061268b565b61266a85602001518587600001516000613378565b8486526060860180519194508291612683908390614469565b905250600191505b506127cb565b60006126ab6125d986602001518760000151876000613378565b905080856060015111612793576000606060ff168660200151901b905060006127018288600001516126e68a606001518d62ffffff16613309565b8a516126f291906147c0565b6126fc9086614469565b61331d565b90508087600001511115801561271657508581105b61276b576127528261273189606001518c62ffffff16613309565b895161273d908661482c565b6127479190614469565b808204910615150190565b73ffffffffffffffffffffffffffffffffffffffff1690505b6127808760200151886000015183600161329a565b9087526000606088015293506127c99050565b6127a88560200151866000015186600061329a565b84865260608601805191945082916127c1908390614469565b905250600191505b505b6127d5828a61449d565b98508015612926576127e98c85878a6133c9565b60020b608086015260208501819052612926576128257ffffffffffffffffffffffffffffffffffffffffffffffffffffffffffff27618614867565b60020b846080015160020b14806128625750608084015160020b7ffffffffffffffffffffffffffffffffffffffffffffffffffffffffffff27618145b156128e757861561289157835161288a9061287f90600190614469565b6401000276a36138c0565b84526128df565b83516128dc906128a290600161449d565b6128c1600173fffd8963efd1fc6a506488495d951d5263988d266148a6565b73ffffffffffffffffffffffffffffffffffffffff166138d7565b84525b50505061292e565b6128f48460800151612f07565b73ffffffffffffffffffffffffffffffffffffffff1684526129188c85878a6133c9565b60020b608086015260208501525b505050612585565b805160608201519095501561299f576040517f08c379a000000000000000000000000000000000000000000000000000000000815260206004820152601360248201527f494e53554646494349454e54204f5554505554000000000000000000000000006044820152606401610a66565b505050505b935093915050565b806129b5575050565b60008273ffffffffffffffffffffffffffffffffffffffff168260405160006040518083038185875af1925050503d8060008114612a0f576040519150601f19603f3d011682016040523d82523d6000602084013e612a14565b606091505b5050905080610b59576040517f08c379a000000000000000000000000000000000000000000000000000000000815260206004820152601360248201527f4554485f5452414e534645525f4641494c4544000000000000000000000000006044820152606401610a66565b600080612a8c85856138e6565b85519091506000905b8015612c945786612aa7600183614469565b81518110612ab757612ab761440b565b602002602001015191508273ffffffffffffffffffffffffffffffffffffffff168273ffffffffffffffffffffffffffffffffffffffff16630dfe16816040518163ffffffff1660e01b815260040160206040518083038186803b158015612b1e57600080fd5b505afa158015612b32573d6000803e3d6000fd5b505050506040513d601f19601f82011682018060405250810190612b569190614480565b73ffffffffffffffffffffffffffffffffffffffff1614612bf4578173ffffffffffffffffffffffffffffffffffffffff16630dfe16816040518163ffffffff1660e01b815260040160206040518083038186803b158015612bb757600080fd5b505afa158015612bcb573d6000803e3d6000fd5b505050506040513d601f19601f82011682018060405250810190612bef9190614480565b612c72565b8173ffffffffffffffffffffffffffffffffffffffff1663d21220a76040518163ffffffff1660e01b815260040160206040518083038186803b158015612c3a57600080fd5b505afa158015612c4e573d6000803e3d6000fd5b505050506040513d601f19601f82011682018060405250810190612c729190614480565b9250612c7f828487612215565b50945080612c8c816148db565b915050612a95565b509295945050505050565b60405173ffffffffffffffffffffffffffffffffffffffff8316602482015260448101829052610b599084907fa9059cbb00000000000000000000000000000000000000000000000000000000906064015b604080517fffffffffffffffffffffffffffffffffffffffffffffffffffffffffffffffe08184030181529190526020810180517bffffffffffffffffffffffffffffffffffffffffffffffffffffffff167fffffffff0000000000000000000000000000000000000000000000000000000090931692909217909152613b1c565b60405173ffffffffffffffffffffffffffffffffffffffff808516602483015283166044820152606481018290526120b09085907f23b872dd0000000000000000000000000000000000000000000000000000000090608401612cf1565b60008173ffffffffffffffffffffffffffffffffffffffff168373ffffffffffffffffffffffffffffffffffffffff16630dfe16816040518163ffffffff1660e01b815260040160206040518083038186803b158015612e3057600080fd5b505afa158015612e44573d6000803e3d6000fd5b505050506040513d601f19601f82011682018060405250810190612e689190614480565b73ffffffffffffffffffffffffffffffffffffffff16149392505050565b602081015160009015612e9b57506000919050565b608082015160020b7ffffffffffffffffffffffffffffffffffffffffffffffffffffffffffff276181480612f015750612ef47ffffffffffffffffffffffffffffffffffffffffffffffffffffffffffff27618614867565b60020b826080015160020b145b92915050565b60008060008360020b12612f1e578260020b612f2b565b8260020b612f2b90614910565b9050612f567ffffffffffffffffffffffffffffffffffffffffffffffffffffffffffff27618614867565b62ffffff16811115612f94576040517ff87dc40c00000000000000000000000000000000000000000000000000000000815260040160405180910390fd5b600060018216612fb557700100000000000000000000000000000000612fc7565b6ffffcb933bd6fad37aa2d162d1a5940015b70ffffffffffffffffffffffffffffffffff1690506002821615612ffb576ffff97272373d413259a46990580e213a0260801c5b600482161561301a576ffff2e50f5f656932ef12357cf3c7fdcc0260801c5b6008821615613039576fffe5caca7e10e4e61c3624eaa0941cd00260801c5b6010821615613058576fffcb9843d60f6159c9db58835c9266440260801c5b6020821615613077576fff973b41fa98c081472e6896dfb254c00260801c5b6040821615613096576fff2ea16466c96a3843ec78b326b528610260801c5b60808216156130b5576ffe5dee046a99a2a811c461f1969c30530260801c5b6101008216156130d5576ffcbe86c7900a88aedcffc83b479aa3a40260801c5b6102008216156130f5576ff987a7253ac413176f2b074cf7815e540260801c5b610400821615613115576ff3392b0822b70005940c7a398e4b70f30260801c5b610800821615613135576fe7159475a2c29b7443b29c7fa6e889d90260801c5b611000821615613155576fd097f3bdfd2022b8845ad8f792aa58250260801c5b612000821615613175576fa9f746462d870fdf8a65dc1f90e061e50260801c5b614000821615613195576f70d869a156d2a1b890bb3df62baf32f70260801c5b6180008216156131b5576f31be135f97d08fd981231505542fcfa60260801c5b620100008216156131d6576f09aa508b5b7a84e1c677de54f3e99bc90260801c5b620200008216156131f6576e5d6af8dedb81196699c329225ee6040260801c5b62040000821615613215576d2216e584f5fa1ea926041bedfe980260801c5b62080000821615613232576b048a170391f7dc42444e8fa20260801c5b60008460020b131561327157807fffffffffffffffffffffffffffffffffffffffffffffffffffffffffffffffff8161326d5761326d6147fd565b0490505b640100000000810615613285576001613288565b60005b60ff16602082901c0192505050919050565b600081156132c3576132bc858585036c0100000000000000000000000061331d565b90506132e0565b6132dd858585036c01000000000000000000000000613c28565b90505b949350505050565b60006132f88383620f424061331d565b6133029084614469565b9392505050565b600061330283620f42406126fc8582614469565b600061332a848484613c28565b9050818061333a5761333a6147fd565b83850915613302577fffffffffffffffffffffffffffffffffffffffffffffffffffffffffffffffff811061336e57600080fd5b6001019392505050565b600081156133a0576132bc613394606087901b8686038661331d565b85808204910615150190565b836133b2606087901b82860386613c28565b816133bf576133bf6147fd565b0495945050505050565b60008082156136455760028460020b866080015160020b816133ed576133ed6147fd565b0560020b816133fe576133fe6147fd565b0760020b6134d05760808501516040517ff30dba9300000000000000000000000000000000000000000000000000000000815260029190910b600482015273ffffffffffffffffffffffffffffffffffffffff87169063f30dba939060240160c06040518083038186803b15801561347557600080fd5b505afa158015613489573d6000803e3d6000fd5b505050506040513d601f19601f820116820180604052508101906134ad919061472d565b604001516fffffffffffffffffffffffffffffffff168560200151039150613596565b60808501516040517ff30dba9300000000000000000000000000000000000000000000000000000000815260029190910b600482015273ffffffffffffffffffffffffffffffffffffffff87169063f30dba939060240160c06040518083038186803b15801561353f57600080fd5b505afa158015613553573d6000803e3d6000fd5b505050506040513d601f19601f82011682018060405250810190613577919061472d565b604001516fffffffffffffffffffffffffffffffff1685602001510191505b60808501516040517ff30dba9300000000000000000000000000000000000000000000000000000000815260029190910b600482015273ffffffffffffffffffffffffffffffffffffffff87169063f30dba939060240160c06040518083038186803b15801561360557600080fd5b505afa158015613619573d6000803e3d6000fd5b505050506040513d601f19601f8201168201806040525081019061363d919061472d565b5190506138b7565b60028460020b866080015160020b81613660576136606147fd565b0560020b81613671576136716147fd565b0760020b6137435760808501516040517ff30dba9300000000000000000000000000000000000000000000000000000000815260029190910b600482015273ffffffffffffffffffffffffffffffffffffffff87169063f30dba939060240160c06040518083038186803b1580156136e857600080fd5b505afa1580156136fc573d6000803e3d6000fd5b505050506040513d601f19601f82011682018060405250810190613720919061472d565b604001516fffffffffffffffffffffffffffffffff168560200151019150613809565b60808501516040517ff30dba9300000000000000000000000000000000000000000000000000000000815260029190910b600482015273ffffffffffffffffffffffffffffffffffffffff87169063f30dba939060240160c06040518083038186803b1580156137b257600080fd5b505afa1580156137c6573d6000803e3d6000fd5b505050506040513d601f19601f820116820180604052508101906137ea919061472d565b604001516fffffffffffffffffffffffffffffffff1685602001510391505b60808501516040517ff30dba9300000000000000000000000000000000000000000000000000000000815260029190910b600482015273ffffffffffffffffffffffffffffffffffffffff87169063f30dba939060240160c06040518083038186803b15801561387857600080fd5b505afa15801561388c573d6000803e3d6000fd5b505050506040513d601f19601f820116820180604052508101906138b0919061472d565b6020015190505b94509492505050565b6000818310156138d05781613302565b5090919050565b60008183106138d05781613302565b600073ffffffffffffffffffffffffffffffffffffffff82161561390a5781613924565b60015473ffffffffffffffffffffffffffffffffffffffff165b90506000805b8451811015613b14578481815181106139455761394561440b565b602002602001015191508273ffffffffffffffffffffffffffffffffffffffff168273ffffffffffffffffffffffffffffffffffffffff16630dfe16816040518163ffffffff1660e01b815260040160206040518083038186803b1580156139ac57600080fd5b505afa1580156139c0573d6000803e3d6000fd5b505050506040513d601f19601f820116820180604052508101906139e49190614480565b73ffffffffffffffffffffffffffffffffffffffff1614613a82578173ffffffffffffffffffffffffffffffffffffffff16630dfe16816040518163ffffffff1660e01b815260040160206040518083038186803b158015613a4557600080fd5b505afa158015613a59573d6000803e3d6000fd5b505050506040513d601f19601f82011682018060405250810190613a7d9190614480565b613b00565b8173ffffffffffffffffffffffffffffffffffffffff1663d21220a76040518163ffffffff1660e01b815260040160206040518083038186803b158015613ac857600080fd5b505afa158015613adc573d6000803e3d6000fd5b505050506040513d601f19601f82011682018060405250810190613b009190614480565b925080613b0c8161462b565b91505061392a565b505092915050565b6000613b7e826040518060400160405280602081526020017f5361666545524332303a206c6f772d6c6576656c2063616c6c206661696c65648152508573ffffffffffffffffffffffffffffffffffffffff16613cf99092919063ffffffff16565b805190915015610b595780806020019051810190613b9c9190614664565b610b59576040517f08c379a000000000000000000000000000000000000000000000000000000000815260206004820152602a60248201527f5361666545524332303a204552433230206f7065726174696f6e20646964206e60448201527f6f742073756363656564000000000000000000000000000000000000000000006064820152608401610a66565b600080807fffffffffffffffffffffffffffffffffffffffffffffffffffffffffffffffff8587098587029250828110838203039150508060001415613c805760008411613c7557600080fd5b508290049050613302565b808411613c8c57600080fd5b6000848688096000868103871696879004966002600389028118808a02820302808a02820302808a02820302808a02820302808a02820302808a02909103029181900381900460010186841190950394909402919094039290920491909117919091029150509392505050565b60606132e084846000858573ffffffffffffffffffffffffffffffffffffffff85163b613d82576040517f08c379a000000000000000000000000000000000000000000000000000000000815260206004820152601d60248201527f416464726573733a2063616c6c20746f206e6f6e2d636f6e74726163740000006044820152606401610a66565b6000808673ffffffffffffffffffffffffffffffffffffffff168587604051613dab91906144e1565b60006040518083038185875af1925050503d8060008114613de8576040519150601f19603f3d011682016040523d82523d6000602084013e613ded565b606091505b50915091506102df82828660608315613e07575081613302565b825115613e175782518084602001fd5b816040517f08c379a0000000000000000000000000000000000000000000000000000000008152600401610a6691906144b5565b73ffffffffffffffffffffffffffffffffffffffff8116811461221257600080fd5b7f4e487b7100000000000000000000000000000000000000000000000000000000600052604160045260246000fd5b60405160c0810167ffffffffffffffff81118282101715613ebf57613ebf613e6d565b60405290565b604051601f82017fffffffffffffffffffffffffffffffffffffffffffffffffffffffffffffffe016810167ffffffffffffffff81118282101715613f0c57613f0c613e6d565b604052919050565b600082601f830112613f2557600080fd5b8135602067ffffffffffffffff821115613f4157613f41613e6d565b8160051b613f50828201613ec5565b9283528481018201928281019087851115613f6a57600080fd5b83870192505b848310156102df578235613f8381613e4b565b82529183019190830190613f70565b801515811461221257600080fd5b60008060008060008060c08789031215613fb957600080fd5b8635613fc481613e4b565b95506020870135945060408701359350606087013567ffffffffffffffff811115613fee57600080fd5b613ffa89828a01613f14565b935050608087013561400b81613e4b565b915060a087013561401b81613f92565b809150509295509295509295565b600060c0828403121561403b57600080fd5b614043613e9c565b9050813561405081613e4b565b808252506020820135602082015260408201356040820152606082013567ffffffffffffffff81111561408257600080fd5b61408e84828501613f14565b60608301525060808201356140a281613e4b565b608082015260a08201356140b581613f92565b60a082015292915050565b6000602082840312156140d257600080fd5b813567ffffffffffffffff8111156140e957600080fd5b6132e084828501614029565b6000806040838503121561410857600080fd5b823561411381613e4b565b9150602083013561412381613e4b565b809150509250929050565b600060c0828403121561414057600080fd5b614148613e9c565b9050813561415581613e4b565b808252506020820135602082015260408201356040820152606082013561417b81613e4b565b606082015260808201356140a281613e4b565b600060c082840312156141a057600080fd5b613302838361412e565b60008060008060008060c087890312156141c357600080fd5b86356141ce81613e4b565b95506020870135945060408701359350606087013560ff811681146141f257600080fd5b9598949750929560808101359460a0909101359350915050565b6000806020838503121561421f57600080fd5b823567ffffffffffffffff8082111561423757600080fd5b818501915085601f83011261424b57600080fd5b81358181111561425a57600080fd5b8660208260051b850101111561426f57600080fd5b60209290920196919550909350505050565b60005b8381101561429c578181015183820152602001614284565b838111156120b05750506000910152565b600081518084526142c5816020860160208601614281565b601f017fffffffffffffffffffffffffffffffffffffffffffffffffffffffffffffffe0169290920160200192915050565b6000602080830181845280855180835260408601915060408160051b870101925083870160005b8281101561436a577fffffffffffffffffffffffffffffffffffffffffffffffffffffffffffffffc08886030184526143588583516142ad565b9450928501929085019060010161431e565b5092979650505050505050565b60008060008060008060c0878903121561439057600080fd5b863561439b81613e4b565b9550602087013594506040870135935060608701356143b981613e4b565b9250608087013561400b81613e4b565b6000806000606084860312156143de57600080fd5b83356143e981613e4b565b925060208401359150604084013561440081613e4b565b809150509250925092565b7f4e487b7100000000000000000000000000000000000000000000000000000000600052603260045260246000fd5b7f4e487b7100000000000000000000000000000000000000000000000000000000600052601160045260246000fd5b60008282101561447b5761447b61443a565b500390565b60006020828403121561449257600080fd5b815161330281613e4b565b600082198211156144b0576144b061443a565b500190565b60208152600061330260208301846142ad565b6000602082840312156144da57600080fd5b5051919050565b600082516144f3818460208701614281565b9190910192915050565b60008083357fffffffffffffffffffffffffffffffffffffffffffffffffffffffffffffffe184360301811261453257600080fd5b83018035915067ffffffffffffffff82111561454d57600080fd5b60200191503681900382131561456257600080fd5b9250929050565b8183823760009101908152919050565b60006020828403121561458b57600080fd5b815167ffffffffffffffff808211156145a357600080fd5b818401915084601f8301126145b757600080fd5b8151818111156145c9576145c9613e6d565b6145fa60207fffffffffffffffffffffffffffffffffffffffffffffffffffffffffffffffe0601f84011601613ec5565b915080825285602082850101111561461157600080fd5b614622816020840160208601614281565b50949350505050565b60007fffffffffffffffffffffffffffffffffffffffffffffffffffffffffffffffff82141561465d5761465d61443a565b5060010190565b60006020828403121561467657600080fd5b815161330281613f92565b60006020828403121561469357600080fd5b815162ffffff8116811461330257600080fd5b8051600281900b81146146b857600080fd5b919050565b600080604083850312156146d057600080fd5b82516146db81613e4b565b91506146e9602084016146a6565b90509250929050565b80516fffffffffffffffffffffffffffffffff811681146146b857600080fd5b60006020828403121561472457600080fd5b613302826146f2565b600060c0828403121561473f57600080fd5b60405160c0810181811067ffffffffffffffff8211171561476257614762613e6d565b60405261476e836146a6565b815261477c602084016146a6565b602082015261478d604084016146f2565b6040820152606083015160608201526080830151608082015260a08301516147b481613e4b565b60a08201529392505050565b6000817fffffffffffffffffffffffffffffffffffffffffffffffffffffffffffffffff04831182151516156147f8576147f861443a565b500290565b7f4e487b7100000000000000000000000000000000000000000000000000000000600052601260045260246000fd5b600082614862577f4e487b7100000000000000000000000000000000000000000000000000000000600052601260045260246000fd5b500490565b60008160020b7fffffffffffffffffffffffffffffffffffffffffffffffffffffffffff80000081141561489d5761489d61443a565b60000392915050565b600073ffffffffffffffffffffffffffffffffffffffff838116908316818110156148d3576148d361443a565b039392505050565b6000816148ea576148ea61443a565b507fffffffffffffffffffffffffffffffffffffffffffffffffffffffffffffffff0190565b60007f80000000000000000000000000000000000000000000000000000000000000008214156149425761494261443a565b506000039056fea2646970667358221220fc53f127dd049ef44e36725c4b32507cf3758a20985028aa32738688e1dcfd5764736f6c63430008090033",
  "devdoc": {
    "kind": "dev",
    "methods": {
      "exactInput((address,uint256,uint256,address[],address,bool))": {
        "params": {
          "params": "(uint256 amountIn,uint256 amountOutMinimum, address[] path, address tokenIn, address to, bool unwrap)"
        }
      },
      "exactInputSingle((address,uint256,uint256,address,address,bool))": {
        "params": {
          "params": "(uint256 amountIn,uint256 amountOutMinimum, address pool, address tokenIn, address to, bool unwrap)"
        }
      },
      "exactOutput((address,uint256,uint256,address[],address,bool))": {
        "params": {
          "params": "The parameters necessary for the swap, encoded as ExactOutputSingleParams in calldata"
        }
      },
      "exactOutputSingle((address,uint256,uint256,address,address,bool))": {
        "params": {
          "params": "The parameters necessary for the swap, encoded as ExactOutputSingleParams in calldata"
        }
      },
      "multicall(bytes[])": {
        "details": "The `msg.value` should not be trusted for any method callable from this function.",
        "params": {
          "data": "ABI-encoded params for each of the calls to make to this contract."
        },
        "returns": {
          "results": "The results from each of the calls passed in via `data`."
        }
      },
      "permitThis(address,uint256,uint256,uint8,bytes32,bytes32)": {
        "params": {
          "amount": "Token amount to grant spending right over.",
          "deadline": "Termination for signed approval (UTC timestamp in seconds).",
          "r": "Half of the ECDSA signature pair.",
          "s": "Half of the ECDSA signature pair.",
          "token": "Address of ERC-20 token.",
          "v": "The recovery byte of the signature."
        }
      },
      "permitThisAllowed(address,uint256,uint256,uint8,bytes32,bytes32)": {
        "params": {
          "expiry": "Termination for signed approval - UTC timestamp in seconds.",
          "nonce": "Token owner's nonce - increases at each call to {permit}.",
          "r": "Half of the ECDSA signature pair.",
          "s": "Half of the ECDSA signature pair.",
          "token": "Address of ERC-20 token.",
          "v": "The recovery byte of the signature."
        }
      }
    },
    "version": 1
  },
  "userdoc": {
    "kind": "user",
    "methods": {
      "exactInput((address,uint256,uint256,address[],address,bool))": {
        "notice": "Swaps token A to token B indirectly by using multiple hops."
      },
      "exactInputSingle((address,uint256,uint256,address,address,bool))": {
        "notice": "Swaps amountIn of one token for as much as possible of another token"
      },
      "exactInputSingleWithoutStruct(address,uint256,uint256,address,address,bool)": {
        "notice": "same as exactInputSingle"
      },
      "exactInputWithoutStruct(address,uint256,uint256,address[],address,bool)": {
        "notice": "same as exactInput"
      },
      "exactOutput((address,uint256,uint256,address[],address,bool))": {
        "notice": "Swaps as little as possible of one token for `amountOut` of another token"
      },
      "exactOutputSingle((address,uint256,uint256,address,address,bool))": {
        "notice": "Swaps as little as possible of one token for `amountOut` of another token"
      },
      "exactOutputSingleWithoutStruct(address,uint256,uint256,address,address,bool)": {
        "notice": "same as exactOutputSingle"
      },
      "exactOutputWithoutStruct(address,uint256,uint256,address[],address,bool)": {
        "notice": "same as exactOutput"
      },
      "masterDeployer()": {
        "notice": "master deployer contract."
      },
      "multicall(bytes[])": {
        "notice": "Provides batch function calls for this contract and returns the data from all of them if they all succeed. Adapted from https://github.com/Uniswap/uniswap-v3-periphery/blob/main/contracts/base/Multicall.sol, License-Identifier: GPL-2.0-or-later."
      },
      "permitThis(address,uint256,uint256,uint8,bytes32,bytes32)": {
        "notice": "Provides EIP-2612 signed approval for this contract to spend user tokens."
      },
      "permitThisAllowed(address,uint256,uint256,uint8,bytes32,bytes32)": {
        "notice": "Provides DAI-derived signed approval for this contract to spend user tokens."
      },
      "sweep(address,uint256,address)": {
        "notice": "Recover mistakenly sent tokens."
      }
    },
    "notice": "Router contract that helps in swapping across pools.",
    "version": 1
  },
  "storageLayout": {
    "storage": [
      {
        "astId": 130,
        "contract": "contracts/pool/PoolRouter.sol:PoolRouter",
        "label": "_initialized",
        "offset": 0,
        "slot": "0",
        "type": "t_bool"
      },
      {
        "astId": 133,
        "contract": "contracts/pool/PoolRouter.sol:PoolRouter",
        "label": "_initializing",
        "offset": 1,
        "slot": "0",
        "type": "t_bool"
      },
      {
        "astId": 22657,
        "contract": "contracts/pool/PoolRouter.sol:PoolRouter",
        "label": "masterDeployer",
        "offset": 2,
        "slot": "0",
        "type": "t_contract(IMasterDeployer)12581"
      },
      {
        "astId": 22660,
        "contract": "contracts/pool/PoolRouter.sol:PoolRouter",
        "label": "wETH",
        "offset": 0,
        "slot": "1",
        "type": "t_address_payable"
      },
      {
        "astId": 22671,
        "contract": "contracts/pool/PoolRouter.sol:PoolRouter",
        "label": "whitelistedPools",
        "offset": 0,
        "slot": "2",
        "type": "t_mapping(t_address,t_bool)"
      }
    ],
    "types": {
      "t_address": {
        "encoding": "inplace",
        "label": "address",
        "numberOfBytes": "20"
      },
      "t_address_payable": {
        "encoding": "inplace",
        "label": "address payable",
        "numberOfBytes": "20"
      },
      "t_bool": {
        "encoding": "inplace",
        "label": "bool",
        "numberOfBytes": "1"
      },
      "t_contract(IMasterDeployer)12581": {
        "encoding": "inplace",
        "label": "contract IMasterDeployer",
        "numberOfBytes": "20"
      },
      "t_mapping(t_address,t_bool)": {
        "encoding": "mapping",
        "key": "t_address",
        "label": "mapping(address => bool)",
        "numberOfBytes": "32",
        "value": "t_bool"
      }
    }
  }
}