{
  "address": "0x5C74BAfA8CFd8cB120123D5803B74a2C02c41cf4",
  "abi": [
    {
      "inputs": [],
      "name": "IMAGE",
      "outputs": [
        {
          "internalType": "string",
          "name": "",
          "type": "string"
        }
      ],
      "stateMutability": "pure",
      "type": "function"
    }
  ],
  "transactionHash": "0x1a47738d2e1f8cf0268d06cb177ea18c2bc40f364828a08a53d60a22e9879ca1",
  "args": [],
  "numDeployments": 1,
  "solcInputHash": "52ba71685b8bf58d29115d47983e0297",
  "bytecode": "0x61130761003a600b82828239805160001a60731461002d57634e487b7160e01b600052600060045260246000fd5b30600052607381538281f3fe73000000000000000000000000000000000000000030146080604052600436106100355760003560e01c80630506eb401461003a575b600080fd5b610042610058565b60405161004f919061007b565b60405180910390f35b60606040518061122001604052806111e381526020016100ef6111e39139905090565b600060208083528351808285015260005b818110156100a85785810183015185820160400152820161008c565b818111156100ba576000604083870101525b50601f017fffffffffffffffffffffffffffffffffffffffffffffffffffffffffffffffe01692909201604001939250505056fe3c696d61676520783d2231362220793d223935222077696474683d2231382220687265663d22646174613a696d6167652f706e673b6261736536342c6956424f5277304b47676f414141414e53556845556741414144594141414478434159414141434171455452414141414358424957584d4141434534414141684f4146466c6a46674141414141584e535230494172733463365141414141526e51553142414143786a7776385951554141417a515355524256486742375a33726464733445345a66352f6a2f6569745970494c507157435a4375785538476b7253464b426c5172695647436c416a7356694675426b777249564f436b676c6d4d414a6f677841734776496b2b664d3568596c4c6742515177474d774d7744504d4242466436503875494f547337437a484b614d7a747145344d7232707275752f77764a51657474334a5670697868696c53793170533744556a4447713763647a7a45657174333843307247412b6179334433723772626445622f2f48306e47456a484b4f7351445a744a303357346e5a42377644534379706a6632534a46354b786e4c644d62735a7939475230546d465279696367586675415a334a7431306e7a5a6d7858472b376a6a512f4f63334a71314575576e6863366d317264636132644e775a6237455536735234517a724f47454849456f54484a6638546f766936544e72477547504673537155525252494a3076574656745a4d7a597a7556546b543932506664506248354442477630745667786e6d4167742b613568786c564d436c4e366e305050313158784e51524d5752565a77314432622b587444383471465a66476c46575268782b702f667548743738537975685355557644477777674a4c5255444c466f5459664f324a344741454957497a796b77355a564b6f37454c34535a315253576771356174397a2b41744b7045424f437a3578566b5573717850456e646734796331664653327375794e765349494a544d4a67716a4e434756747639434b5343744c37747670504a42707031574666536537514c694678762f797a4b7a44306d55356f4745705175566836326649664135587079536e414256654d363969534d38344351315453774e4b59324465544f332b372b5369697a39574e614872414f65423261586b76464c5a62414b685574314f4772396c6d535648797847524d78702f4149445a31564d4947587279574b384777445454734d3652794b534e7457775a7a5262346e2b3779596736654a4d41776f6d71484955566956345a6b342b6173416c56416e6d41656c4872426a6d374d6353394976472f7171725a3972303439785363594e342f6d3337635537686f544169713768664359524d504c444550795a53726559754d596c2f544753375077582f574665704c64592f6c6d414556716b3441716b677256674a6e74732f7474582f58614862502f5a525a2b7737566c622f574839572f39684172426c6247724f4b65353832362f43697779486142417157444a6359647774363235475a785030794d755a69783248334c79356a426262506535455a753336704862526f35467977476e4e6973524b754e784379716c524c5977305336384561444c617973724b794d685a7a6d376a5a76734675497555636670444f597a6b7072426b677139463346515a675470574b41353056526d494e683167616337747163373139386f344e496a684f595236307a33586467466c4c79683257414a6b346a395530494758754364366a3857497a4e7664797570307257386179684a6a675a554772637a324f463775305446416249374e753235567a364e4f702b3453664d325948665531446962395244622f376976344e503456736b5845355a4a613266524b3035515154515a464c7978516c646f2f494a56786973512b614243514e535850457557302f43744f54594f545630784f385144686a2f385070493434773559784a3268617251522f624a73754d414e2f7a6b2f536b4d3561474b445048462b4141795875372f38375a7637513365544e45483062687332702f7864675a7a37324c70366a32543070663945452f4247637773326d357766665779766c6872517259746435416a7067464a72332b6966754d4332662f7a6b6d3364343733376872737654494b493254326251566656377a77696a31782f7637702f4e33316c6b4e49454e374e644b364c372b4e6e544e6e2f38324c667565424654626f2b4b4d67515a797833396d2b7352754357326e7572516932685733694768596562435a5a384735687156307957325749386370675a733231536a36763965776a686a48454d76442f6a5a796f33446e65384432304a644733685a346e4b57463167663165772f3144544d52497265582b3270506b6245584447646a6765373351396549726832474145586c6e78586c465a724d71554e707a7a61564565527a4a576f37336550746839467657505469663556507732305032754b5a774d5130476c466e4a425064796e5a4a77506d34626662674d79395551646e2b514b65596945717172546e6b72373378314671464a55426d4a6d396c724b2b2f3377346c7132667571627673424e7a647661553957772b51676856423968656b63444f644762654756767a6b726d4e6944393458744769494d467a6f5064457067503058414745347a41755333716a65416337742b326b4a4872376130376a72507468712f4674594b376c79396f365562455930427174364876473335586775747a566278742b5a326c5936667044304b344b73594d51524a42326877314854345a5163555a5a73326a392f6a4f687a57507637786a4b597a75574e7a737533303435615252434d52645a632b70396d7775547a416d586a5734733865796f6972612f63537247534a37594645364a4c4d323936714b7673336a573130695672456f6374344d47536b614d72526e71546d55636e336b62576e54415850456a5a7856782b393854356149743050716f483747636b784843714e5170786742332b5a78325a4a5759526934672b592b37653259686c664f6d4676385633574a714b3853576c707a2f39535a6554654a4a5a6d4f62587366584b6c6f4a5a71665a6975345070382f6544385663754d486b6850547155384b563855556367595479364e42705373306c44325741736b2b38334f4a70554468446f49746c6f624e334b346851344d6163716267614549426d624657526273666137306157363033714836433868416351393749577472336e646d5375424b6377796278744d73303359563967577844386673346469726d4d4937475a2f54395a4c4d364b483436623062397a484966477136624f476b32564135314641543043524a544d50594b6854673674524562756630464566534e666c506f4834537973397444792b3969686f67775a5633774d6c4c41664375575a62496c5836657152656d5a5134584f4a6f6854732f36796b704731663257504b61393678793367537359576b54554942353948716b637349556b346f554173504852565948472f6334376c4d4575773830647658364d36717635716a2f6b5a4f54332f4e423150554c7630666e637456453955656d4171466963496f575a783334537372564856307676556b435a7a306954325747556342794855504f4f766a6c766835512f43493348326d7752416a724a78732b524b30644d4262304f4f33747272745a5847397867747038345333495830302b4b31554c6c36333863327378755a734e343736577039334545725a313831704b744c49333068646466636f4c7566346b78767047334d3738653444306c63545a714d6d46567549697048414f374e4f3647717950374475576662615957436667464a39613970774c7a506b6c4252765956715438636a376942504a34554c697a6f5542506768523479432b5a7849457a6d4f71327862414d6f73634276374954756c4e6e324b3852464a59633659564d6437434477324a4f4c5054525968522b7a6d435a4536443362593768376243667a4458794458316a6c444f38524159564579576447414865475255593952394354597a47554e6d6471374753436a6d59764457577675795547655156354f434b6d7a5572474b552f525242792f6a474e34526535393777536c2f5374725a7558657a424656527a69575330484751696152644e58457054432f716f41385a7331574b625266586765656c4f50474a6f2b3430717754546b36507341784f392f5961784e627277537739393453556b69787373534e415438734c39794e6733747a5870436d2b51676741754d666e62474934622b38413775332b6c39314d766a63524b2f51786e6245353768594a52446c4b377a774a6c45502b62644a7256596d69794b374b486634646d65706b464771375265733259734c374d457778625441535638565548617a4931617946624347453330673556612b75624b6237665950764f43793834553648716d3250794b4d32486a674d74465362417565383939512b5171623242622f796352507a58764e434d686f3452707170565668797048586e50496d4e504e6b5033564c62336a4770433253576332354f355461557761673033596e61543871437753564b6c5a384d736f73416a687a6675415674694731692f6d2b32777634715862364934562b30475053456a436139726a7431516a5853456b466a2f574f392b724a42305a4b516a7a77394c4d4b4169506c7647794868316548705867684759637a45677a6c6a536b595a664950766b78466177552f6a2b57423070544f44314c6a5a4f2b4a51796c734f557a6942427a35797857386a74646b4f70584d39566257694430586d49586b6a486977486c36433941556868663978416a6853507146674f7134387237546277596b4f3337696d43583146376a4c72534c6b735a5346566171597554365967616452636a52354973426a6330726d6d38786f4648786f7762474a456370665839362b384e44736b446e6767513949574d7637485361462b6b5163594e48515959476977326d636a796d4f744964444b5951346f6444734858716e625050662f767856474b3972536548457155495337426246564c554c7762454554533946774d694d786c4277586c676d436a5674745069704c565831626a595231734d6943594d687a674b6e665655484e65484e665269514b50534e444575392f595a74355155706b57385242713373527a6c673936516d55582b5847705743715959786e6e7841334b4859593649534f36517859446956714f7351622f3179617277624973425566576a76416563694f344e764c423371586266464a6e544e5559625971437059476f486231795376353366754b2f6b544f6149785250767a4a614f5a3672373942344a55426e4676572b37487058646a494b41596a476753754f636344476758472f764f713733455830675937392f704f7069514a6c54536b4d764273516c466a52394a4b624551693671614969316134367675375576556e576b65782b544d5438795a774d6a71567a6e3233653773594938744c546b2b3343747743685941624b6e647267714474595030646854514f7a2f742b676553584d4a73672f7245734d674c58315a656a4a4f62516d447847475161626568433564496f75514f7845546d634239333056666b323068566476717870473262704d4361305135534b4d376d736345456b476e376d356861346f2b6743334b594472724a4f717777496c54716b64666f4d594c4f764e4c59657238726d69444968546f574449495537364762706c6c646a3545782b394a754b4d426b4143482b654b784a617839436d7a39414536314e3154516536304b5555536f394f64787545736a67462f38414b5253777a4341643933554b67564231396e6b6f5256424c517245364b68324848463030504678424a727a2b6a73496f6e69476c41525475757648595a2b2f42464b6f7267583343734b51776f2b585839752f4d372f7770516c6756333552773378435854674c6a7457654e77503264623668716273527230743832334950624238384f544a786a4f637a4c7245514655493377733655587572426c3563545171744a475a2f576b63694755724469486a4b685854706f3965594e5073733041556d69696a4e5538374e34352f39456565365279786342436e587061544d616365334d702b6b73435046464e687730706332624d6577375762753662626741684a2f4d314b335a58386270774d4e4b786e3030524a2f695a4c68366e6364436c586353422f58426638564b68434e506266386948433947754f6b36334141414141456c46546b5375516d4343222f3ea264697066735822122005ce1b78b176f1875b1abbe9ebd3901a780e248554556745388822eb73013a9f64736f6c63430008090033",
  "devdoc": {
    "kind": "dev",
    "methods": {},
    "version": 1
  },
  "userdoc": {
    "kind": "user",
    "methods": {},
    "version": 1
  },
  "storageLayout": {
    "storage": [],
    "types": null
  }
}