{
  "address": "0xc0A7E0a2371f439A580B9b42abf428E8cCa7D3E4",
  "abi": [
    {
      "inputs": [],
      "name": "AlreadyPriceInitialized",
      "type": "error"
    },
    {
      "inputs": [],
      "name": "InvalidParam",
      "type": "error"
    },
    {
      "inputs": [],
      "name": "InvalidSwapFee",
      "type": "error"
    },
    {
      "inputs": [],
      "name": "InvalidTick",
      "type": "error"
    },
    {
      "inputs": [],
      "name": "LiquidityInsufficient",
      "type": "error"
    },
    {
      "inputs": [],
      "name": "LiquidityOverflow",
      "type": "error"
    },
    {
      "inputs": [],
      "name": "LiquidityZero",
      "type": "error"
    },
    {
      "inputs": [],
      "name": "Locked",
      "type": "error"
    },
    {
      "inputs": [],
      "name": "LowerEven",
      "type": "error"
    },
    {
      "inputs": [],
      "name": "NotAuthorized",
      "type": "error"
    },
    {
      "inputs": [],
      "name": "Overflow",
      "type": "error"
    },
    {
      "inputs": [],
      "name": "PriceOutOfBounds",
      "type": "error"
    },
    {
      "inputs": [],
      "name": "TickOutOfBounds",
      "type": "error"
    },
    {
      "inputs": [],
      "name": "Token0Missing",
      "type": "error"
    },
    {
      "inputs": [],
      "name": "Token1Missing",
      "type": "error"
    },
    {
      "inputs": [],
      "name": "UpperOdd",
      "type": "error"
    },
    {
      "inputs": [],
      "name": "ZeroAddress",
      "type": "error"
    },
    {
      "anonymous": false,
      "inputs": [
        {
          "indexed": false,
          "internalType": "address",
          "name": "token",
          "type": "address"
        },
        {
          "indexed": false,
          "internalType": "uint256",
          "name": "amount",
          "type": "uint256"
        },
        {
          "indexed": false,
          "internalType": "uint256",
          "name": "startTime",
          "type": "uint256"
        },
        {
          "indexed": false,
          "internalType": "uint256",
          "name": "period",
          "type": "uint256"
        }
      ],
      "name": "DistributeReward",
      "type": "event"
    },
    {
      "inputs": [],
      "name": "airdrop0PerSecond",
      "outputs": [
        {
          "internalType": "uint256",
          "name": "",
          "type": "uint256"
        }
      ],
      "stateMutability": "view",
      "type": "function"
    },
    {
      "inputs": [],
      "name": "airdrop1PerSecond",
      "outputs": [
        {
          "internalType": "uint256",
          "name": "",
          "type": "uint256"
        }
      ],
      "stateMutability": "view",
      "type": "function"
    },
    {
      "inputs": [],
      "name": "airdropPeriod",
      "outputs": [
        {
          "internalType": "uint256",
          "name": "",
          "type": "uint256"
        }
      ],
      "stateMutability": "view",
      "type": "function"
    },
    {
      "inputs": [],
      "name": "airdropStartTime",
      "outputs": [
        {
          "internalType": "uint256",
          "name": "",
          "type": "uint256"
        }
      ],
      "stateMutability": "view",
      "type": "function"
    },
    {
      "inputs": [
        {
          "internalType": "int24",
          "name": "lower",
          "type": "int24"
        },
        {
          "internalType": "int24",
          "name": "upper",
          "type": "int24"
        },
        {
          "internalType": "uint128",
          "name": "amount",
          "type": "uint128"
        }
      ],
      "name": "burn",
      "outputs": [
        {
          "internalType": "uint256",
          "name": "token0Amount",
          "type": "uint256"
        },
        {
          "internalType": "uint256",
          "name": "token1Amount",
          "type": "uint256"
        }
      ],
      "stateMutability": "nonpayable",
      "type": "function"
    },
    {
      "inputs": [
        {
          "internalType": "int24",
          "name": "lower",
          "type": "int24"
        },
        {
          "internalType": "int24",
          "name": "upper",
          "type": "int24"
        },
        {
          "internalType": "uint256",
          "name": "desiredToken0Fees",
          "type": "uint256"
        },
        {
          "internalType": "uint256",
          "name": "desiredToken1Fees",
          "type": "uint256"
        }
      ],
      "name": "collect",
      "outputs": [
        {
          "internalType": "uint256",
          "name": "token0Fees",
          "type": "uint256"
        },
        {
          "internalType": "uint256",
          "name": "token1Fees",
          "type": "uint256"
        }
      ],
      "stateMutability": "nonpayable",
      "type": "function"
    },
    {
      "inputs": [],
      "name": "collectProtocolFee",
      "outputs": [
        {
          "internalType": "uint128",
          "name": "amount0",
          "type": "uint128"
        },
        {
          "internalType": "uint128",
          "name": "amount1",
          "type": "uint128"
        }
      ],
      "stateMutability": "nonpayable",
      "type": "function"
    },
    {
      "inputs": [
        {
          "internalType": "int24",
          "name": "lower",
          "type": "int24"
        },
        {
          "internalType": "int24",
          "name": "upper",
          "type": "int24"
        },
        {
          "internalType": "uint256",
          "name": "desiredReward",
          "type": "uint256"
        }
      ],
      "name": "collectReward",
      "outputs": [
        {
          "internalType": "uint256",
          "name": "rewardAmount",
          "type": "uint256"
        }
      ],
      "stateMutability": "nonpayable",
      "type": "function"
    },
    {
      "inputs": [],
      "name": "createdBlockNumber",
      "outputs": [
        {
          "internalType": "uint256",
          "name": "",
          "type": "uint256"
        }
      ],
      "stateMutability": "view",
      "type": "function"
    },
    {
      "inputs": [],
      "name": "createdTime",
      "outputs": [
        {
          "internalType": "uint256",
          "name": "",
          "type": "uint256"
        }
      ],
      "stateMutability": "view",
      "type": "function"
    },
    {
      "inputs": [
        {
          "internalType": "uint128",
          "name": "airdrop0",
          "type": "uint128"
        },
        {
          "internalType": "uint128",
          "name": "airdrop1",
          "type": "uint128"
        },
        {
          "internalType": "uint128",
          "name": "reward",
          "type": "uint128"
        },
        {
          "internalType": "uint256",
          "name": "startTime",
          "type": "uint256"
        },
        {
          "internalType": "uint256",
          "name": "period",
          "type": "uint256"
        }
      ],
      "name": "depositAirdropAndReward",
      "outputs": [],
      "stateMutability": "nonpayable",
      "type": "function"
    },
    {
      "inputs": [],
      "name": "depositedReward",
      "outputs": [
        {
          "internalType": "uint128",
          "name": "",
          "type": "uint128"
        }
      ],
      "stateMutability": "view",
      "type": "function"
    },
    {
      "inputs": [],
      "name": "factory",
      "outputs": [
        {
          "internalType": "address",
          "name": "",
          "type": "address"
        }
      ],
      "stateMutability": "view",
      "type": "function"
    },
    {
      "inputs": [],
      "name": "feeGrowthGlobal0",
      "outputs": [
        {
          "internalType": "uint256",
          "name": "",
          "type": "uint256"
        }
      ],
      "stateMutability": "view",
      "type": "function"
    },
    {
      "inputs": [],
      "name": "feeGrowthGlobal1",
      "outputs": [
        {
          "internalType": "uint256",
          "name": "",
          "type": "uint256"
        }
      ],
      "stateMutability": "view",
      "type": "function"
    },
    {
      "inputs": [
        {
          "internalType": "address",
          "name": "recipient",
          "type": "address"
        },
        {
          "internalType": "uint256",
          "name": "amount0",
          "type": "uint256"
        },
        {
          "internalType": "uint256",
          "name": "amount1",
          "type": "uint256"
        },
        {
          "internalType": "bytes",
          "name": "data",
          "type": "bytes"
        }
      ],
      "name": "flash",
      "outputs": [],
      "stateMutability": "nonpayable",
      "type": "function"
    },
    {
      "inputs": [],
      "name": "getAssets",
      "outputs": [
        {
          "internalType": "address[]",
          "name": "assets",
          "type": "address[]"
        }
      ],
      "stateMutability": "view",
      "type": "function"
    },
    {
      "inputs": [],
      "name": "getImmutables",
      "outputs": [
        {
          "internalType": "uint128",
          "name": "_MAX_TICK_LIQUIDITY",
          "type": "uint128"
        },
        {
          "internalType": "uint24",
          "name": "_tickSpacing",
          "type": "uint24"
        },
        {
          "internalType": "uint24",
          "name": "_swapFee",
          "type": "uint24"
        },
        {
          "internalType": "address",
          "name": "_factory",
          "type": "address"
        },
        {
          "internalType": "address",
          "name": "_masterDeployer",
          "type": "address"
        },
        {
          "internalType": "address",
          "name": "_token0",
          "type": "address"
        },
        {
          "internalType": "address",
          "name": "_token1",
          "type": "address"
        }
      ],
      "stateMutability": "view",
      "type": "function"
    },
    {
      "inputs": [],
      "name": "getPriceAndNearestTicks",
      "outputs": [
        {
          "internalType": "uint160",
          "name": "_price",
          "type": "uint160"
        },
        {
          "internalType": "int24",
          "name": "_nearestTick",
          "type": "int24"
        }
      ],
      "stateMutability": "view",
      "type": "function"
    },
    {
      "inputs": [],
      "name": "getReserves",
      "outputs": [
        {
          "internalType": "uint128",
          "name": "_reserve0",
          "type": "uint128"
        },
        {
          "internalType": "uint128",
          "name": "_reserve1",
          "type": "uint128"
        }
      ],
      "stateMutability": "view",
      "type": "function"
    },
    {
      "inputs": [],
      "name": "getSecondsGrowthAndLastObservation",
      "outputs": [
        {
          "internalType": "uint160",
          "name": "_secondsGrowthGlobal",
          "type": "uint160"
        },
        {
          "internalType": "uint32",
          "name": "_lastObservation",
          "type": "uint32"
        }
      ],
      "stateMutability": "view",
      "type": "function"
    },
    {
      "inputs": [],
      "name": "getTokenProtocolFees",
      "outputs": [
        {
          "internalType": "uint128",
          "name": "_token0ProtocolFee",
          "type": "uint128"
        },
        {
          "internalType": "uint128",
          "name": "_token1ProtocolFee",
          "type": "uint128"
        }
      ],
      "stateMutability": "view",
      "type": "function"
    },
    {
      "inputs": [
        {
          "internalType": "bytes",
          "name": "_deployData",
          "type": "bytes"
        },
        {
          "internalType": "address",
          "name": "_masterDeployer",
          "type": "address"
        }
      ],
      "name": "initialize",
      "outputs": [],
      "stateMutability": "nonpayable",
      "type": "function"
    },
    {
      "inputs": [],
      "name": "liquidity",
      "outputs": [
        {
          "internalType": "uint128",
          "name": "",
          "type": "uint128"
        }
      ],
      "stateMutability": "view",
      "type": "function"
    },
    {
      "inputs": [
        {
          "components": [
            {
              "internalType": "int24",
              "name": "lowerOld",
              "type": "int24"
            },
            {
              "internalType": "int24",
              "name": "lower",
              "type": "int24"
            },
            {
              "internalType": "int24",
              "name": "upperOld",
              "type": "int24"
            },
            {
              "internalType": "int24",
              "name": "upper",
              "type": "int24"
            },
            {
              "internalType": "uint128",
              "name": "amount0Desired",
              "type": "uint128"
            },
            {
              "internalType": "uint128",
              "name": "amount1Desired",
              "type": "uint128"
            }
          ],
          "internalType": "struct IConcentratedLiquidityPoolStruct.MintParams",
          "name": "mintParams",
          "type": "tuple"
        }
      ],
      "name": "mint",
      "outputs": [
        {
          "internalType": "uint256",
          "name": "liquidityMinted",
          "type": "uint256"
        }
      ],
      "stateMutability": "nonpayable",
      "type": "function"
    },
    {
      "inputs": [],
      "name": "nearestTick",
      "outputs": [
        {
          "internalType": "int24",
          "name": "",
          "type": "int24"
        }
      ],
      "stateMutability": "view",
      "type": "function"
    },
    {
      "inputs": [
        {
          "internalType": "address",
          "name": "",
          "type": "address"
        },
        {
          "internalType": "int24",
          "name": "",
          "type": "int24"
        },
        {
          "internalType": "int24",
          "name": "",
          "type": "int24"
        }
      ],
      "name": "positionRewards",
      "outputs": [
        {
          "internalType": "uint256",
          "name": "rewardGrowthInsideLast",
          "type": "uint256"
        },
        {
          "internalType": "uint128",
          "name": "rewardOwed",
          "type": "uint128"
        }
      ],
      "stateMutability": "view",
      "type": "function"
    },
    {
      "inputs": [
        {
          "internalType": "address",
          "name": "",
          "type": "address"
        },
        {
          "internalType": "int24",
          "name": "",
          "type": "int24"
        },
        {
          "internalType": "int24",
          "name": "",
          "type": "int24"
        }
      ],
      "name": "positions",
      "outputs": [
        {
          "internalType": "uint128",
          "name": "liquidity",
          "type": "uint128"
        },
        {
          "internalType": "uint256",
          "name": "feeGrowthInside0Last",
          "type": "uint256"
        },
        {
          "internalType": "uint256",
          "name": "feeGrowthInside1Last",
          "type": "uint256"
        },
        {
          "internalType": "uint128",
          "name": "feeOwed0",
          "type": "uint128"
        },
        {
          "internalType": "uint128",
          "name": "feeOwed1",
          "type": "uint128"
        }
      ],
      "stateMutability": "view",
      "type": "function"
    },
    {
      "inputs": [],
      "name": "price",
      "outputs": [
        {
          "internalType": "uint160",
          "name": "",
          "type": "uint160"
        }
      ],
      "stateMutability": "view",
      "type": "function"
    },
    {
      "inputs": [],
      "name": "protocolFee",
      "outputs": [
        {
          "internalType": "uint256",
          "name": "",
          "type": "uint256"
        }
      ],
      "stateMutability": "view",
      "type": "function"
    },
    {
      "inputs": [
        {
          "internalType": "int24",
          "name": "lowerTick",
          "type": "int24"
        },
        {
          "internalType": "int24",
          "name": "upperTick",
          "type": "int24"
        }
      ],
      "name": "rangeFeeGrowth",
      "outputs": [
        {
          "internalType": "uint256",
          "name": "feeGrowthInside0",
          "type": "uint256"
        },
        {
          "internalType": "uint256",
          "name": "feeGrowthInside1",
          "type": "uint256"
        }
      ],
      "stateMutability": "view",
      "type": "function"
    },
    {
      "inputs": [
        {
          "internalType": "int24",
          "name": "lowerTick",
          "type": "int24"
        },
        {
          "internalType": "int24",
          "name": "upperTick",
          "type": "int24"
        }
      ],
      "name": "rangeRewardGrowth",
      "outputs": [
        {
          "internalType": "uint256",
          "name": "rewardGrowthInside",
          "type": "uint256"
        }
      ],
      "stateMutability": "view",
      "type": "function"
    },
    {
      "inputs": [
        {
          "internalType": "address",
          "name": "_logger",
          "type": "address"
        }
      ],
      "name": "registerLogger",
      "outputs": [],
      "stateMutability": "nonpayable",
      "type": "function"
    },
    {
      "inputs": [
        {
          "internalType": "address",
          "name": "_token",
          "type": "address"
        }
      ],
      "name": "registerRewardToken",
      "outputs": [],
      "stateMutability": "nonpayable",
      "type": "function"
    },
    {
      "inputs": [],
      "name": "rewardGrowthGlobal",
      "outputs": [
        {
          "internalType": "uint256",
          "name": "",
          "type": "uint256"
        }
      ],
      "stateMutability": "view",
      "type": "function"
    },
    {
      "inputs": [
        {
          "internalType": "int24",
          "name": "",
          "type": "int24"
        }
      ],
      "name": "rewardGrowthOutsidePerTicks",
      "outputs": [
        {
          "internalType": "uint256",
          "name": "",
          "type": "uint256"
        }
      ],
      "stateMutability": "view",
      "type": "function"
    },
    {
      "inputs": [],
      "name": "rewardPerSecond",
      "outputs": [
        {
          "internalType": "uint256",
          "name": "",
          "type": "uint256"
        }
      ],
      "stateMutability": "view",
      "type": "function"
    },
    {
      "inputs": [],
      "name": "rewardToken",
      "outputs": [
        {
          "internalType": "address",
          "name": "",
          "type": "address"
        }
      ],
      "stateMutability": "view",
      "type": "function"
    },
    {
      "inputs": [
        {
          "internalType": "uint160",
          "name": "_price",
          "type": "uint160"
        }
      ],
      "name": "setPrice",
      "outputs": [],
      "stateMutability": "nonpayable",
      "type": "function"
    },
    {
      "inputs": [
        {
          "internalType": "uint256",
          "name": "_protocolFee",
          "type": "uint256"
        }
      ],
      "name": "setProtocolFee",
      "outputs": [],
      "stateMutability": "nonpayable",
      "type": "function"
    },
    {
      "inputs": [
        {
          "internalType": "bytes",
          "name": "data",
          "type": "bytes"
        }
      ],
      "name": "swap",
      "outputs": [
        {
          "internalType": "uint256",
          "name": "amountOut",
          "type": "uint256"
        }
      ],
      "stateMutability": "nonpayable",
      "type": "function"
    },
    {
      "inputs": [],
      "name": "swapFee",
      "outputs": [
        {
          "internalType": "uint24",
          "name": "",
          "type": "uint24"
        }
      ],
      "stateMutability": "view",
      "type": "function"
    },
    {
      "inputs": [],
      "name": "swapFeeGrowthGlobal0",
      "outputs": [
        {
          "internalType": "uint256",
          "name": "",
          "type": "uint256"
        }
      ],
      "stateMutability": "view",
      "type": "function"
    },
    {
      "inputs": [],
      "name": "swapFeeGrowthGlobal1",
      "outputs": [
        {
          "internalType": "uint256",
          "name": "",
          "type": "uint256"
        }
      ],
      "stateMutability": "view",
      "type": "function"
    },
    {
      "inputs": [],
      "name": "tickSpacing",
      "outputs": [
        {
          "internalType": "uint24",
          "name": "",
          "type": "uint24"
        }
      ],
      "stateMutability": "view",
      "type": "function"
    },
    {
      "inputs": [
        {
          "internalType": "int24",
          "name": "",
          "type": "int24"
        }
      ],
      "name": "ticks",
      "outputs": [
        {
          "internalType": "int24",
          "name": "previousTick",
          "type": "int24"
        },
        {
          "internalType": "int24",
          "name": "nextTick",
          "type": "int24"
        },
        {
          "internalType": "uint128",
          "name": "liquidity",
          "type": "uint128"
        },
        {
          "internalType": "uint256",
          "name": "feeGrowthOutside0",
          "type": "uint256"
        },
        {
          "internalType": "uint256",
          "name": "feeGrowthOutside1",
          "type": "uint256"
        },
        {
          "internalType": "uint160",
          "name": "secondsGrowthOutside",
          "type": "uint160"
        }
      ],
      "stateMutability": "view",
      "type": "function"
    },
    {
      "inputs": [],
      "name": "token0",
      "outputs": [
        {
          "internalType": "address",
          "name": "",
          "type": "address"
        }
      ],
      "stateMutability": "view",
      "type": "function"
    },
    {
      "inputs": [],
      "name": "token1",
      "outputs": [
        {
          "internalType": "address",
          "name": "",
          "type": "address"
        }
      ],
      "stateMutability": "view",
      "type": "function"
    },
    {
      "inputs": [],
      "name": "totalTicks",
      "outputs": [
        {
          "internalType": "uint256",
          "name": "",
          "type": "uint256"
        }
      ],
      "stateMutability": "view",
      "type": "function"
    }
  ],
  "transactionHash": "0xbace0d9b219743321bfc744659eb193500af4f66e1fa54f2e41faad4f4068da7",
  "args": [],
  "numDeployments": 4,
  "solcInputHash": "1dffc199d198eab89fe552e0be3aa621",
  "bytecode": "0x608060405234801561001057600080fd5b50615d5b80620000216000396000f3fe608060405234801561001057600080fd5b506004361061032b5760003560e01c8063a34123a7116101b2578063cf78756b116100f9578063e5ff7f46116100a2578063f7c618c11161007c578063f7c618c1146108e8578063f949e8b7146108fb578063fa1a169c14610903578063fb5d80b31461090c57600080fd5b8063e5ff7f46146107cc578063f30dba93146107df578063f719dac61461088a57600080fd5b8063d5514792116100d3578063d551479214610786578063d90bda4e146107a6578063e46dbc98146107b957600080fd5b8063cf78756b14610756578063d0c93a7c1461075e578063d21220a71461077357600080fd5b8063bd7d1eea1161015b578063caa4b46a11610135578063caa4b46a14610728578063cce2df0314610730578063cf5431531461074357600080fd5b8063bd7d1eea146106ef578063c03c251414610702578063c45a01551461071557600080fd5b8063b0e21e8a1161018c578063b0e21e8a14610632578063b2f4bdb01461063b578063bcdb4dad1461064457600080fd5b8063a34123a71461057a578063aaca1b4d1461058d578063acfe88f81461061f57600080fd5b806367e4ac2c116102765780638c347f9b1161021f5780639da12096116101f95780639da1209614610538578063a00e8f2914610540578063a035b1fe1461056757600080fd5b80638c347f9b146104fe5780638f10369a14610527578063956afe451461052f57600080fd5b8063735541d111610250578063735541d1146104da578063787dce3d146104e357806384e02017146104f657600080fd5b806367e4ac2c146104905780636d59d802146104a557806370ed1b86146104d157600080fd5b80632df94b0f116102d857806354cf2aeb116102b257806354cf2aeb14610449578063627dd56a1461047557806366f657c51461048857600080fd5b80632df94b0f1461040357806340306fb61461042b578063490e6cbc1461043457600080fd5b80630dfe1681116103095780630dfe1681146103a4578063111ba27d146103cf5780631a686502146103d857600080fd5b806306f912f3146103305780630902f1ac146103565780630ae9ba8a14610391575b600080fd5b61034361033e3660046152d9565b61092b565b6040519081526020015b60405180910390f35b6014546015546001600160801b03600160801b909204821691165b604080516001600160801b0393841681529290911660208301520161034d565b61034361039f366004615347565b6109a8565b6003546103b7906001600160a01b031681565b6040516001600160a01b03909116815260200161034d565b610343601e5481565b6006546103eb906001600160801b031681565b6040516001600160801b03909116815260200161034d565b6104166104113660046153ee565b610f74565b6040805192835260208301919091520161034d565b610343600e5481565b610447610442366004615449565b6110f3565b005b6000546104619065010000000000900462ffffff1681565b60405162ffffff909116815260200161034d565b61034361048336600461556c565b61150c565b610343611d21565b610498611d3e565b60405161034d91906155e5565b600754604080516001600160a01b0383168152600160a01b90920463ffffffff1660208301520161034d565b61034360095481565b61034360185481565b6104476104f13660046155f8565b611dd2565b610343611e25565b601654604080516001600160a01b0383168152600160a01b90920460020b60208301520161034d565b610343611e40565b610343600f5481565b610343611e5b565b60165461055490600160a01b900460020b81565b60405160029190910b815260200161034d565b6016546103b7906001600160a01b031681565b610416610588366004615611565b611e6e565b6105e961059b366004615658565b601b60209081526000938452604080852082529284528284209052825290208054600182015460028301546003909301546001600160801b0392831693919281811691600160801b90041685565b604080516001600160801b039687168152602081019590955284019290925283166060830152909116608082015260a00161034d565b61041661062d3660046156a3565b612232565b610343601f5481565b610343601d5481565b61069a6000546005546001546003546004546001600160801b03680100000000000000008604169562ffffff62010000870481169665010000000000900416946001600160a01b03908116948116938116921690565b604080516001600160801b03909816885262ffffff968716602089015295909416948601949094526001600160a01b0391821660608601528116608085015291821660a08401521660c082015260e00161034d565b6104476106fd3660046156dc565b612554565b6103436107103660046156a3565b6125ae565b6005546103b7906001600160a01b031681565b6103716126b9565b61044761073e3660046156f9565b612a6e565b610447610751366004615740565b613046565b6103436133aa565b6000546104619062010000900462ffffff1681565b6004546103b7906001600160a01b031681565b610343610794366004615795565b601a6020526000908152604090205481565b6104476107b43660046156dc565b6133bd565b6104476107c73660046156dc565b613463565b6013546103eb906001600160801b031681565b61083f6107ed366004615795565b60196020526000908152604090208054600182015460028084015460039094015483820b946301000000850490920b93660100000000000090046001600160801b03169291906001600160a01b031686565b60408051600297880b81529590960b60208601526001600160801b0390931694840194909452606083015260808201929092526001600160a01b0390911660a082015260c00161034d565b6108cb610898366004615658565b601c602090815260009384526040808520825292845282842090528252902080546001909101546001600160801b031682565b604080519283526001600160801b0390911660208301520161034d565b6010546103b7906001600160a01b031681565b6103436134e7565b61034360085481565b6013546014546001600160801b03600160801b90920482169116610371565b600060175460021415610951576040516303cb96db60e21b815260040160405180910390fd5b60026017556109613385856134f9565b61096d338585856135d7565b6010549091506001600160a01b03166109855761099c565b60105461099c906001600160a01b03168233613671565b60016017559392505050565b6000601754600214156109ce576040516303cb96db60e21b815260040160405180910390fd5b6002601755602082015160608301516109e79190613685565b60006109f683602001516137ea565b6001600160a01b031690506000610a1084606001516137ea565b60165460a086015160808701516001600160a01b0393841694509190921691610a4b918591859185916001600160801b039081169116613b36565b93506f7fffffffffffffffffffffffffffffff841115610a97576040517f35278d1200000000000000000000000000000000000000000000000000000000815260040160405180910390fd5b83610ace576040517f83ecd22400000000000000000000000000000000000000000000000000000000815260040160405180910390fd5b610ad6613bca565b6000601973e685F095200F7D1DB02Ffa14D767B345d95C36fc63825c72999091601a6040518060800160405280600a54600854610b1391906157c8565b8152602001600b54600954610b2891906157c8565b81526020016011548152602001600760009054906101000a90046001600160a01b03166001600160a01b03168152508a600001518b602001518c604001518d606001518d601660149054906101000a900460020b8c6040518b63ffffffff1660e01b8152600401610ba29a999897969594939291906157e0565b604080518083038186803b158015610bb957600080fd5b505af4158015610bcd573d6000803e3d6000fd5b505050506040513d601f19601f82011682018060405250810190610bf1919061589d565b6016805462ffffff909316600160a01b0262ffffff60a01b1990931692909217909155601880549192508291600090610c2b9084906157c8565b9250508190555050610c47338660200151876060015187613d04565b808311158015610c5657508181105b15610c9e5760068054859190600090610c799084906001600160801b03166158cb565b92506101000a8154816001600160801b0302191690836001600160801b031602179055505b600080610caf858585896001613d2c565b600354600480546040517f5f16529a0000000000000000000000000000000000000000000000000000000081526001600160a01b03938416928101929092529190911660248201526001600160801b0380841660448301528216606482015291935091503390635f16529a90608401600060405180830381600087803b158015610d3857600080fd5b505af1158015610d4c573d6000803e3d6000fd5b50505050816001600160801b0316600014610df95781601460108282829054906101000a90046001600160801b0316610d8591906158cb565b92506101000a8154816001600160801b0302191690836001600160801b03160217905550610dc7600360009054906101000a90046001600160a01b0316613d96565b601454600160801b90046001600160801b03161115610df95760405163420231d560e11b815260040160405180910390fd5b6001600160801b03811615610e935760158054829190600090610e269084906001600160801b03166158cb565b92506101000a8154816001600160801b0302191690836001600160801b03160217905550610e68600460009054906101000a90046001600160a01b0316613d96565b6015546001600160801b03161115610e9357604051637218102160e11b815260040160405180910390fd5b600280546040805160a08101825260208b810151850b82526060808d0151860b9183019182526001600160801b03888116848601908152908816918401918252608084018d815294517ffbad73910000000000000000000000000000000000000000000000000000000081529351870b6004850152915190950b6024830152516044820152925160648401525160848301526001600160a01b03169063fbad73919060a401600060405180830381600087803b158015610f5257600080fd5b505af1925050508015610f63575060015b505050600160175550919392505050565b60008060175460021415610f9b576040516303cb96db60e21b815260040160405180910390fd5b6002601755610fab338787613e94565b610fb83387878787613fc3565b601480549294509092508391601090610fe2908490600160801b90046001600160801b03166158f6565b92506101000a8154816001600160801b0302191690836001600160801b0316021790555080601560008282829054906101000a90046001600160801b031661102a91906158f6565b92506101000a8154816001600160801b0302191690836001600160801b031602179055506110593383836140ce565b6002546040805180820182528481526020810184815291517f1228c47f00000000000000000000000000000000000000000000000000000000815290516004820152905160248201526001600160a01b0390911690631228c47f90604401600060405180830381600087803b1580156110d157600080fd5b505af19250505080156110e2575060015b506001601755909590945092505050565b60175460021415611117576040516303cb96db60e21b815260040160405180910390fd5b60026017556006546001600160801b03168061115f576040517f83ecd22400000000000000000000000000000000000000000000000000000000815260040160405180910390fd5b6014546015546001600160801b03600160801b909204821691166111848888886140ce565b6000806111a38989600060059054906101000a900462ffffff166140fc565b6040517fc3924ed60000000000000000000000000000000000000000000000000000000081529193509150339063c3924ed6906111ea90859085908c908c9060040161591e565b600060405180830381600087803b15801561120457600080fd5b505af1158015611218573d6000803e3d6000fd5b5050600354600092508291508190611238906001600160a01b0316613d96565b600454909150600090611253906001600160a01b0316613d96565b905081611260878a6157c8565b111561127f5760405163420231d560e11b815260040160405180910390fd5b8061128a86896157c8565b11156112a957604051637218102160e11b815260040160405180910390fd5b6112b282614131565b601480546001600160801b03928316600160801b0292169190911790556112d881614131565b601580546fffffffffffffffffffffffffffffffff19166001600160801b039290921691909117905561130b888361595b565b9350611317878261595b565b601f5490935091505082156113ba576000611335848361271061414c565b905080601360108282829054906101000a90046001600160801b031661135b91906158cb565b92506101000a8154816001600160801b0302191690836001600160801b031602179055506113a2816001600160801b031685611397919061595b565b600160801b8b61418a565b600860008282546113b391906157c8565b9091555050505b81156114435760006113cf838361271061414c565b6014805491925082916000906113ef9084906001600160801b03166158cb565b92506101000a8154816001600160801b0302191690836001600160801b0316021790555061142b816001600160801b031684611397919061595b565b6009600082825461143c91906157c8565b9091555050505b6002546040805160a081018252338152602081018f81528183018f8152606083018881526080840188815294517f2987fbcc00000000000000000000000000000000000000000000000000000000815293516001600160a01b039081166004860152925160248501529051604484015251606483015291516084820152911690632987fbcc9060a401600060405180830381600087803b1580156114e657600080fd5b505af19250505080156114f7575060015b50505060016017555050505050505050505050565b600060175460021415611532576040516303cb96db60e21b815260040160405180910390fd5b6002601781905550600080838060200190518101906115519190615982565b9150915060008261156d576015546001600160801b0316611581565b601454600160801b90046001600160801b03165b6001600160801b03166115b4846115a3576004546001600160a01b0316613d96565b6003546001600160a01b0316613d96565b6115be919061595b565b90506000604051806101200160405280600081526020016000815260200160008152602001856115f0576008546115f4565b6009545b8152602001856116065760095461160a565b6008545b81526016546001600160a01b031660208201526006546001600160801b03166040820152606081018490526080018561166957601654600160a01b9004600290810b60009081526019602052604090205463010000009004900b611677565b601654600160a01b900460020b5b60020b90529050611686613bca565b6011546116928261423d565b60e082015115611a255760006116ac8361010001516137ea565b6001600160a01b0316905060008087156117dd5760006116d78660c00151858860a0015160006142b4565b9050808660e001511161179d5760c086015160a087015160e088015160609290921b9160009161171d9184919061170e90826159ae565b61171890866157c8565b61414c565b905080861115801561173257508760a0015181105b61177057611764828960e001518a60a001518561174f91906159e3565b61175991906157c8565b808204910615150190565b6001600160a01b031690505b6117858860c00151828a60a00151600061430c565b60a0890191909152600060e089015293506117d79050565b6117b28660c00151858860a00151600061430c565b60a0870185905260e0870180519194506001935082916117d390839061595b565b9052505b50611892565b60006117f48660c001518760a0015186600061430c565b9050808660e001511161185657600061181a8760e00151600160601b8960c0015161418a565b8760a0015161182991906157c8565b90506118408760c001518860a001518360006142b4565b60a0880191909152600060e08801529250611890565b61186b8660c001518760a001518660006142b4565b60a0870185905260e08701805191945060019350829161188c90839061595b565b9052505b505b60c0850151156118e4576118cf82600060059054906101000a900462ffffff16601f548860c0015189602001518e8b604001518c60600151614336565b60608901526040880152602087019190915298505b8015611a1d576118f585858a6143ce565b60c0850151611a1d5761010085015160020b620d89e719148061192e5750611920620d89e7196159f7565b60020b85610100015160020b145b156119f65787156119815761195860018660a0015161194d919061595b565b6401000276a3614486565b60a086015261010085018051600290810b600090815260196020526040902054900b90526119ee565b6119c28560a00151600161199591906157c8565b6119b4600173fffd8963efd1fc6a506488495d951d5263988d26615a1a565b6001600160a01b031661449d565b60a086015261010085018051600290810b60009081526019602052604090205463010000009004900b90525b505050611a25565b611a048561010001516137ea565b6001600160a01b031660a0860152611a1d85858a6143ce565b505050611692565b60a08201516016805473ffffffffffffffffffffffffffffffffffffffff19166001600160a01b03909216919091179055600085611a7e57610100830151600290810b600090815260196020526040902054900b611a85565b8261010001515b601654909150600282810b600160a01b909204900b14611ae9576016805462ffffff60a01b1916600160a01b62ffffff84160217905560c0830151600680546fffffffffffffffffffffffffffffffff19166001600160801b039092169190911790555b611af48685896144ac565b611b07868460600151856040015161460e565b60e083015115611c3c57600086611b5b57601960008181611b2b620d89e7196159f7565b600290810b8252602080830193909352604091820160009081205490910b84529183019390935291019020611b96565b60196020527f8b687876df6025befed93a16f72cd2848615619f141fc2441f1db80badfc7d3e546301000000900460020b6000908152604090205b60e08501518154919250600091611bc69190600160801b90660100000000000090046001600160801b031661418a565b90508715611c065780826001016000828254611be291906157c8565b925050819055508060086000828254611bfb91906157c8565b90915550611c399050565b80826002016000828254611c1a91906157c8565b925050819055508060096000828254611c3391906157c8565b90915550505b50505b8515611c5e57600454611c59906001600160a01b03168887613671565b611c75565b600354611c75906001600160a01b03168887613671565b600254604080516060810182528815158152602081018781528183018b815292517f91accd5f000000000000000000000000000000000000000000000000000000008152915115156004830152516024820152905160448201526001600160a01b03909116906391accd5f90606401600060405180830381600087803b158015611cfe57600080fd5b505af1925050508015611d0f575060015b50505060016017555092949350505050565b6000611d2b61468a565b611d355750600090565b600c545b905090565b6040805160028082526060808301845292602083019080368337505060035482519293506001600160a01b031691839150600090611d7e57611d7e615a3a565b6001600160a01b039283166020918202929092010152600454825191169082906001908110611daf57611daf615a3a565b60200260200101906001600160a01b031690816001600160a01b03168152505090565b6005546001600160a01b03163314611dfd5760405163ea8e4eb560e01b815260040160405180910390fd5b612710811115611e2057604051633494a40d60e21b815260040160405180910390fd5b601f55565b6000611e2f61468a565b611e395750600090565b50600d5490565b6000611e4a61468a565b611e545750600090565b5060125490565b6000611d39600854600a54600c546146a4565b60008060175460021415611e95576040516303cb96db60e21b815260040160405180910390fd5b60026017556000611ea5866137ea565b90506000611eb2866137ea565b6016549091506001600160a01b0316611ec9613bca565b806001600160a01b0316836001600160a01b031611158015611efc5750816001600160a01b0316816001600160a01b0316105b15611f445760068054879190600090611f1f9084906001600160801b03166158f6565b92506101000a8154816001600160801b0302191690836001600160801b031602179055505b611f76836001600160a01b0316836001600160a01b0316836001600160a01b0316896001600160801b03166000613d2c565b6001600160801b039182169650811694506f7fffffffffffffffffffffffffffffff9087161115611fd3576040517f35278d1200000000000000000000000000000000000000000000000000000000815260040160405180910390fd5b611fe7338989611fe28a615a50565b613d04565b601480546001600160801b03600160801b808304821689900382160291811691909117909155601580548083168790039092166fffffffffffffffffffffffffffffffff19929092169190911790556120413386866140ce565b6016546040517f7c91cb9800000000000000000000000000000000000000000000000000000000815260196004820152601a602482015260028a810b604483015289810b60648301526001600160801b0389166084830152600160a01b90920490910b60a482015260009073e685F095200F7D1DB02Ffa14D767B345d95C36fc90637c91cb989060c401604080518083038186803b1580156120e257600080fd5b505af41580156120f6573d6000803e3d6000fd5b505050506040513d601f19601f8201168201806040525081019061211a919061589d565b6016805462ffffff909316600160a01b0262ffffff60a01b199093169290921790915560188054919250829160009061215490849061595b565b9091555050600280546040805160a0810182528c840b81528b840b602082019081528183018b8152606083018b81526001600160801b038e166080850190815294517ffc9482d20000000000000000000000000000000000000000000000000000000081529351870b6004850152915190950b602483015293516044820152925160648401525160848301526001600160a01b0316915063fc9482d29060a401600060405180830381600087803b15801561220e57600080fd5b505af192505050801561221f575060015b5050506001601755509094909350915050565b6016546000908190819061224e906001600160a01b0316614704565b90506000601960008760020b60020b81526020019081526020016000206040518060c00160405290816000820160009054906101000a900460020b60020b60020b81526020016000820160039054906101000a900460020b60020b60020b81526020016000820160069054906101000a90046001600160801b03166001600160801b03166001600160801b0316815260200160018201548152602001600282015481526020016003820160009054906101000a90046001600160a01b03166001600160a01b03166001600160a01b03168152505090506000601960008760020b60020b81526020019081526020016000206040518060c00160405290816000820160009054906101000a900460020b60020b60020b81526020016000820160039054906101000a900460020b60020b60020b81526020016000820160069054906101000a90046001600160801b03166001600160801b03166001600160801b0316815260200160018201548152602001600282015481526020016003820160009054906101000a90046001600160a01b03166001600160a01b03166001600160a01b0316815250509050600080600080612425600660009054906101000a90046001600160801b03166001600160801b0316614a5d565b9150915081600a5460085461243a91906157c8565b61244491906157c8565b935080600b5460095461245791906157c8565b61246191906157c8565b925050506000808660020b8b60020b1361249d57606086015161248490836157c8565b915085608001518161249691906157c8565b90506124d5565b60608601516124ac908561595b565b6124b690836157c8565b91508560800151836124c8919061595b565b6124d290826157c8565b90505b8960020b8760020b121561250b5760608501516124f290836157c8565b915084608001518161250491906157c8565b9050612543565b606085015161251a908561595b565b61252490836157c8565b9150846080015183612536919061595b565b61254090826157c8565b90505b920399919003975095505050505050565b6005546001600160a01b0316331461257f5760405163ea8e4eb560e01b815260040160405180910390fd5b6002805473ffffffffffffffffffffffffffffffffffffffff19166001600160a01b0392909216919091179055565b60165460009081906125c8906001600160a01b0316614704565b6006549091506000906125e3906001600160801b0316614aa0565b6011546125f091906157c8565b905060008260020b8660020b1361262657600286900b6000908152601a602052604090205461261f90826157c8565b9050612651565b600286900b6000908152601a6020526040902054612644908361595b565b61264e90826157c8565b90505b8460020b8360020b121561268457600285900b6000908152601a602052604090205461267d90826157c8565b90506126af565b600285900b6000908152601a60205260409020546126a2908361595b565b6126ac90826157c8565b90505b9003949350505050565b600080601754600214156126e0576040516303cb96db60e21b815260040160405180910390fd5b6002601755600154604080517fef36925200000000000000000000000000000000000000000000000000000000815290516000926001600160a01b03169163ef369252916004808301926020929190829003018186803b15801561274357600080fd5b505afa158015612757573d6000803e3d6000fd5b505050506040513d601f19601f8201168201806040525081019061277b9190615a86565b604080516002808252606082018352929350600092909160208301908036833750506040805160028082526060820183529394506000939092509060208301908036833701905050601354909150600160801b90046001600160801b0316156128cf57601380546001600160801b0380821690925560148054600160801b9283900484169850889391926010926128169286929004166158f6565b92506101000a8154816001600160801b0302191690836001600160801b03160217905550612863600360009054906101000a90046001600160a01b0316866001600160801b031685613671565b60035482516001600160a01b0390911690839060009061288557612885615a3a565b60200260200101906001600160a01b031690816001600160a01b031681525050846001600160801b0316816000815181106128c2576128c2615a3a565b6020026020010181815250505b6014546001600160801b0316156129d857601480546fffffffffffffffffffffffffffffffff198116909155601580546001600160801b039283169650869260009161291d918591166158f6565b92506101000a8154816001600160801b0302191690836001600160801b0316021790555061296a600460009054906101000a90046001600160a01b0316856001600160801b031685613671565b60045482516001600160a01b03909116908390600190811061298e5761298e615a3a565b60200260200101906001600160a01b031690816001600160a01b031681525050836001600160801b0316816001815181106129cb576129cb615a3a565b6020026020010181815250505b6001600160a01b0383163b15612a62576040517ff03328300000000000000000000000000000000000000000000000000000000081526001600160a01b0384169063f033283090612a2f9085908590600401615aa3565b600060405180830381600087803b158015612a4957600080fd5b505af1158015612a5d573d6000803e3d6000fd5b505050505b50505060016017559091565b600054610100900460ff16612a895760005460ff1615612a8d565b303b155b612b045760405162461bcd60e51b815260206004820152602e60248201527f496e697469616c697a61626c653a20636f6e747261637420697320616c72656160448201527f647920696e697469616c697a656400000000000000000000000000000000000060648201526084015b60405180910390fd5b600054610100900460ff16158015612b4357600080547fffffffffffffffffffffffffffffffffffffffffffffffffffffffffffff0000166101011790555b600080600080600087806020019051810190612b5f9190615b0d565b9398509196509450925090506001600160a01b038516612bab576040517fd92e233d00000000000000000000000000000000000000000000000000000000815260040160405180910390fd5b836001600160a01b0316856001600160a01b03161415612bde57604051633494a40d60e21b815260040160405180910390fd5b600380546001600160a01b0380881673ffffffffffffffffffffffffffffffffffffffff199283161790925560048054878416908316179055601080548684169083161790556000805462ffffff85811662010000027fffffffffffffffffffffffffffffffffffffffffffffffffffffff000000ffff9188166501000000000002919091167fffffffffffffffffffffffffffffffffffffffffffffffff000000000000ffff909216919091171790556005805482163317905560018054928a1692909116919091179055612cb381614ac8565b600060086101000a8154816001600160801b0302191690836001600160801b031602179055506040518060c00160405280620d89e71960020b8152602001620d89e719612cff906159f7565b60020b815260006020808301829052604080840183905260608085018490526080948501849052620d89e719938490526019835285517f8b687876df6025befed93a16f72cd2848615619f141fc2441f1db80badfc7d3e805488860151898601516001600160801b03166601000000000000027fffffffffffffffffffff00000000000000000000000000000000ffffffffffff62ffffff92831663010000000265ffffffffffff19909416929095169190911791909117929092169190911790558501517f8b687876df6025befed93a16f72cd2848615619f141fc2441f1db80badfc7d3f55928401517f8b687876df6025befed93a16f72cd2848615619f141fc2441f1db80badfc7d405560a0909301517f8b687876df6025befed93a16f72cd2848615619f141fc2441f1db80badfc7d4180546001600160a01b039290921673ffffffffffffffffffffffffffffffffffffffff19909216919091179055815160c081019092528082529091820190612e7a906159f7565b60020b815260200160006001600160801b03168152602001600081526020016000815260200160006001600160a01b031681525060196000620d89e719612ec0906159f7565b600290810b8252602080830193909352604091820160002084518154948601519386015162ffffff91821665ffffffffffff199096169590951763010000009190941602929092177fffffffffffffffffffff00000000000000000000000000000000ffffffffffff1666010000000000006001600160801b0390941693909302929092178155606083015160018083019190915560808401518284015560a0909301516003909101805473ffffffffffffffffffffffffffffffffffffffff19166001600160a01b039092169190911790556016805462ffffff60a01b191676f276180000000000000000000000000000000000000000179055601791909155600780547fffffffffffffffff00000000ffffffffffffffffffffffffffffffffffffffff16600160a01b4263ffffffff81169190910291909117909155601891909155601d55505043601e5550508115905061304157600080547fffffffffffffffffffffffffffffffffffffffffffffffffffffffffffff00ff1690555b505050565b6017546002141561306a576040516303cb96db60e21b815260040160405180910390fd5b6002601755600154604080517fd0a93173000000000000000000000000000000000000000000000000000000008152905133926001600160a01b03169163d0a931739160048083019260209291908290030181600087803b1580156130ce57600080fd5b505af11580156130e2573d6000803e3d6000fd5b505050506040513d601f19601f820116820180604052508101906131069190615a86565b6001600160a01b03161461312d5760405163ea8e4eb560e01b815260040160405180910390fd5b4261313882846157c8565b1161315657604051633494a40d60e21b815260040160405180910390fd5b600e54600f5460009061316990836157c8565b90508381111561318c57604051633494a40d60e21b815260040160405180910390fd5b6001600160801b03871615613203576003546131ba906001600160a01b03166001600160801b038916614b08565b86601460108282829054906101000a90046001600160801b03166131de91906158cb565b92506101000a8154816001600160801b0302191690836001600160801b031602179055505b6001600160801b0386161561327457600454613231906001600160a01b03166001600160801b038816614b08565b6015805487919060009061324f9084906001600160801b03166158cb565b92506101000a8154816001600160801b0302191690836001600160801b031602179055505b6001600160801b038516156132a2576010546132a2906001600160a01b03166001600160801b038716614b08565b60006132ac614b1d565b1115613344576132ba613bca565b600754600160a01b900463ffffffff16818110156133425760006132de8285614486565b6132e8908461595b565b90506132fe6132f9600c5483614b8d565b614131565b613308908a6158cb565b98506133196132f9600d5483614b8d565b61332390896158cb565b97506133346132f960125483614b8d565b61333e90886158cb565b9650505b505b61335c876001600160801b0316600160801b8561418a565b600c556133776001600160801b038716600160801b8561418a565b600d556133926001600160801b038616600160801b8561418a565b6012555050600e91909155600f555050600160175550565b6000611d39600954600b54600d546146a4565b6005546001600160a01b031633146133e85760405163ea8e4eb560e01b815260040160405180910390fd5b6016546001600160a01b03161561342b576040517f2f282c6c00000000000000000000000000000000000000000000000000000000815260040160405180910390fd5b61343481614b9e565b6016805473ffffffffffffffffffffffffffffffffffffffff19166001600160a01b0392909216919091179055565b6005546001600160a01b0316331461348e5760405163ea8e4eb560e01b815260040160405180910390fd5b6010546001600160a01b0316156134b85760405163ea8e4eb560e01b815260040160405180910390fd5b6010805473ffffffffffffffffffffffffffffffffffffffff19166001600160a01b0392909216919091179055565b6000611d3960006011546012546146a4565b6001600160a01b0383166000908152601c60209081526040808320600286810b85529083528184209085900b845290915281209061353784846125ae565b82546001600160a01b0387166000908152601b6020908152604080832060028a810b85529083528184209089900b845290915281205492935091613586918403906001600160801b0316614b8d565b82845560018401805491925082916000906135ab9084906001600160801b03166158cb565b92506101000a8154816001600160801b0302191690836001600160801b03160217905550505050505050565b6001600160a01b0384166000908152601c60209081526040808320600287810b85529083528184209086900b845290915281206001810154613622906001600160801b03168461449d565b60018201805491935083916000906136449084906001600160801b03166158f6565b92506101000a8154816001600160801b0302191690836001600160801b0316021790555050949350505050565b6130416001600160a01b0384168284614c0e565b60005461369d9062010000900462ffffff1683615b7a565b60020b156136d7576040517fce8ef7fc00000000000000000000000000000000000000000000000000000000815260040160405180910390fd5b6000546002906136f29062010000900462ffffff1684615b9c565b6136fc9190615b7a565b60020b15613736576040517ffdf1420200000000000000000000000000000000000000000000000000000000815260040160405180910390fd5b60005461374e9062010000900462ffffff1682615b7a565b60020b15613788576040517fce8ef7fc00000000000000000000000000000000000000000000000000000000815260040160405180910390fd5b6000546002906137a39062010000900462ffffff1683615b9c565b6137ad9190615b7a565b60020b6137e6576040517fa9778c6300000000000000000000000000000000000000000000000000000000815260040160405180910390fd5b5050565b60008060008360020b12613801578260020b61380e565b8260020b61380e90615bd6565b905061381d620d89e7196159f7565b62ffffff1681111561385b576040517ff87dc40c00000000000000000000000000000000000000000000000000000000815260040160405180910390fd5b60006001821661386f57600160801b613881565b6ffffcb933bd6fad37aa2d162d1a5940015b70ffffffffffffffffffffffffffffffffff16905060028216156138b5576ffff97272373d413259a46990580e213a0260801c5b60048216156138d4576ffff2e50f5f656932ef12357cf3c7fdcc0260801c5b60088216156138f3576fffe5caca7e10e4e61c3624eaa0941cd00260801c5b6010821615613912576fffcb9843d60f6159c9db58835c9266440260801c5b6020821615613931576fff973b41fa98c081472e6896dfb254c00260801c5b6040821615613950576fff2ea16466c96a3843ec78b326b528610260801c5b608082161561396f576ffe5dee046a99a2a811c461f1969c30530260801c5b61010082161561398f576ffcbe86c7900a88aedcffc83b479aa3a40260801c5b6102008216156139af576ff987a7253ac413176f2b074cf7815e540260801c5b6104008216156139cf576ff3392b0822b70005940c7a398e4b70f30260801c5b6108008216156139ef576fe7159475a2c29b7443b29c7fa6e889d90260801c5b611000821615613a0f576fd097f3bdfd2022b8845ad8f792aa58250260801c5b612000821615613a2f576fa9f746462d870fdf8a65dc1f90e061e50260801c5b614000821615613a4f576f70d869a156d2a1b890bb3df62baf32f70260801c5b618000821615613a6f576f31be135f97d08fd981231505542fcfa60260801c5b62010000821615613a90576f09aa508b5b7a84e1c677de54f3e99bc90260801c5b62020000821615613ab0576e5d6af8dedb81196699c329225ee6040260801c5b62040000821615613acf576d2216e584f5fa1ea926041bedfe980260801c5b62080000821615613aec576b048a170391f7dc42444e8fa20260801c5b60008460020b1315613b0d578060001981613b0957613b096159cd565b0490505b640100000000810615613b21576001613b24565b60005b60ff16602082901c0192505050919050565b6000838511613b5757613b5083600160601b88880361418a565b9050613bc1565b858411613b7957613b5082613b718888600160601b61418a565b88880361418a565b6000613b9683613b8e8888600160601b61418a565b87890361418a565b90506000613bab85600160601b8a890361418a565b9050808210613bba5780613bbc565b815b925050505b95945050505050565b6006546001600160801b031680613bde5750565b600754600160a01b900463ffffffff16428110613bf9575050565b6000613c03614b1d565b90508015613c7757613c18600c54828561418a565b600a6000828254613c2991906157c8565b9091555050600d54613c3c90828561418a565b600b6000828254613c4d91906157c8565b9091555050601254613c6090828561418a565b60116000828254613c7191906157c8565b90915550505b6007805463ffffffff42908116600160a01b027fffffffffffffffff00000000ffffffffffffffffffffffffffffffffffffffff90921691909117909155839083900360801b81613cca57613cca6159cd565b6007805473ffffffffffffffffffffffffffffffffffffffff198116939092046001600160a01b0392831601909116919091179055505050565b613d0f848484613e94565b613d1a8484846134f9565b613d2684848484614cb7565b50505050565b600080848611613d4c57613d456132f98589898761430c565b9050613d8c565b868511613d6957613d626132f9858989876142b4565b9150613d8c565b613d786132f9858789876142b4565b9150613d896132f98589888761430c565b90505b9550959350505050565b604080513060248083019190915282518083039091018152604490910182526020810180517bffffffffffffffffffffffffffffffffffffffffffffffffffffffff167f70a08231000000000000000000000000000000000000000000000000000000001790529051600091829182916001600160a01b03861691613e1b9190615c3b565b600060405180830381855afa9150503d8060008114613e56576040519150601f19603f3d011682016040523d82523d6000602084013e613e5b565b606091505b5091509150818015613e6f57506020815110155b613e7857600080fd5b80806020019051810190613e8c9190615c57565b949350505050565b6001600160a01b0383166000908152601b60209081526040808320600286810b85529083528184209085900b845290915281209080613ed38585612232565b600185015485549294509092506000918291613efb91908603906001600160801b0316614b8d565b60028601548654919350613f1b91908503906001600160801b0316614b8d565b60018601859055600286018490556003860180549192508391600090613f4b9084906001600160801b03166158cb565b92506101000a8154816001600160801b0302191690836001600160801b03160217905550808560030160108282829054906101000a90046001600160801b0316613f9591906158cb565b92506101000a8154816001600160801b0302191690836001600160801b031602179055505050505050505050565b6001600160a01b0385166000908152601b60209081526040808320600288810b85529083528184209087900b845290915281206003810154829190614011906001600160801b03168661449d565b600382015490935061403390600160801b90046001600160801b03168561449d565b60038201805491935084916000906140559084906001600160801b03166158f6565b92506101000a8154816001600160801b0302191690836001600160801b03160217905550818160030160108282829054906101000a90046001600160801b031661409f91906158f6565b92506101000a8154816001600160801b0302191690836001600160801b03160217905550509550959350505050565b6003546140e5906001600160a01b03168385613671565b600454613041906001600160a01b03168285613671565b600080614112858462ffffff16620f424061414c565b9150614127848462ffffff16620f424061414c565b9050935093915050565b806001600160801b038116811461414757600080fd5b919050565b600061415984848461418a565b90508180614169576141696159cd565b8385091561418357600019811061417f57600080fd5b6001015b9392505050565b6000808060001985870985870292508281108382030391505080600014156141c457600084116141b957600080fd5b508290049050614183565b8084116141d057600080fd5b6000848688096000868103871696879004966002600389028118808a02820302808a02820302808a02820302808a02820302808a02820302808a02909103029181900381900460010186841190950394909402919094039290920491909117919091029150509392505050565b60c08101511561424a5750565b61010081015160020b620d89e719148061427a575061426c620d89e7196159f7565b60020b81610100015160020b145b156142b1576040517f6ba599a000000000000000000000000000000000000000000000000000000000815260040160405180910390fd5b50565b600081156142e3576142dc6142d0606087901b8686038661414c565b85808204910615150190565b9050613e8c565b836142f5606087901b8286038661418a565b81614302576143026159cd565b0495945050505050565b60008115614325576142dc85858503600160601b61414c565b613bc185858503600160601b61418a565b60008060008060006143518d8d62ffffff16620f424061414c565b905061435d818a6157c8565b9850614369818e61595b565b61437390896157c8565b97506000614384828d61271061414c565b905061439081896157c8565b975061439c818361595b565b91506143ad82600160801b8d61418a565b6143b790886157c8565b999e989d50969b5097995095975050505050505050565b614470601a846101000151600760009054906101000a90046001600160a01b03168660c001518561441057600a54886060015161440b91906157c8565b614422565b600b54886060015161442291906157c8565b8661443e57600b54896080015161443991906157c8565b614450565b600a54896080015161445091906157c8565b6000546019969594939291908a908a9062010000900462ffffff16614de9565b60020b61010085015260c0909301929092525050565b6000818310156144965781614183565b5090919050565b60008183106144965781614183565b8215614564576003546000906144ca906001600160a01b0316613d96565b6014549091506000906144ee908590600160801b90046001600160801b03166158cb565b905081816001600160801b0316111561451a5760405163420231d560e11b815260040160405180910390fd5b601480546001600160801b03928316600160801b02908316179055601580548083168590039092166fffffffffffffffffffffffffffffffff199290921691909117905550505050565b60045460009061457c906001600160a01b0316613d96565b6015549091506000906145999085906001600160801b03166158cb565b905081816001600160801b031611156145c557604051637218102160e11b815260040160405180910390fd5b601580546001600160801b039283166fffffffffffffffffffffffffffffffff1990911617905560148054600160801b8082048416869003841602921691909117905550505050565b8215614660576009829055601480548291906000906146379084906001600160801b03166158cb565b92506101000a8154816001600160801b0302191690836001600160801b03160217905550505050565b600882905560138054829190601090614637908490600160801b90046001600160801b03166158cb565b6000600f54600e5461469c91906157c8565b421115905090565b6000806146af614b1d565b6006549091506001600160801b031681158015906146cd5750600081115b156146fa576146dd84838361418a565b6146e786886157c8565b6146f191906157c8565b92505050614183565b6146f185876157c8565b60006401000276a36001600160a01b038316108061473f575073fffd8963efd1fc6a506488495d951d5263988d266001600160a01b03831610155b15614776576040517f6e4ba61d00000000000000000000000000000000000000000000000000000000815260040160405180910390fd5b77ffffffffffffffffffffffffffffffffffffffff00000000602083901b166001600160801b03811160071b81811c67ffffffffffffffff811160061b90811c63ffffffff811160051b90811c61ffff811160041b90811c60ff8111600390811b91821c600f811160021b90811c918211600190811b92831c9790881196179094179092171790911717176080811061481757607f810383901c9150614821565b80607f0383901b91505b908002607f81811c60ff83811c9190911c800280831c81831c1c800280841c81841c1c800280851c81851c1c800280861c81861c1c800280871c81871c1c800280881c81881c1c800280891c81891c1c8002808a1c818a1c1c8002808b1c818b1c1c8002808c1c818c1c1c8002808d1c818d1c1c8002808e1c9c81901c9c909c1c80029c8d901c9e9d7fffffffffffffffffffffffffffffffffffffffffffffffffffffffffffffff808f0160401b60c09190911c678000000000000000161760c19b909b1c674000000000000000169a909a1760c29990991c672000000000000000169890981760c39790971c671000000000000000169690961760c49590951c670800000000000000169490941760c59390931c670400000000000000169290921760c69190911c670200000000000000161760c79190911c670100000000000000161760c89190911c6680000000000000161760c99190911c6640000000000000161760ca9190911c6620000000000000161760cb9190911c6610000000000000161760cc9190911c6608000000000000161760cd9190911c66040000000000001617693627a301d71055774c8581027ffffffffffffffffffffffffffffffffffd709b7e5480fba5a50fed5e62ffc5568101608090811d906fdb2df09e81959a81455e260799a0632f8301901d600281810b9083900b14614a4e57886001600160a01b0316614a33826137ea565b6001600160a01b03161115614a485781614a50565b80614a50565b815b9998505050505050505050565b60008082614a7057506000928392509050565b6000614a7a614b1d565b9050614a89600c54828661418a565b9250614a98600d54828661418a565b915050915091565b600081614aaf57506000919050565b6000614ab9614b1d565b9050614183601254828561418a565b6000614ad5826002615c70565b614ae2620d89e7196159f7565b614aec9190615c9b565b614b029062ffffff166001600160801b03615cbd565b92915050565b6137e66001600160a01b038316333084615080565b600e54600090428110614b3257600091505090565b600754600f54600160a01b90910463ffffffff1690600090614b5490846157c8565b9050818111614b67576000935050505090565b614b718284614486565b614b7b428361449d565b614b85919061595b565b935050505090565b60006141838383600160801b61418a565b6401000276a36001600160a01b0382161080614bd7575073fffd8963efd1fc6a506488495d951d5263988d266001600160a01b03821610155b156142b1576040517f6e4ba61d00000000000000000000000000000000000000000000000000000000815260040160405180910390fd5b6040516001600160a01b0383166024820152604481018290526130419084907fa9059cbb00000000000000000000000000000000000000000000000000000000906064015b60408051601f198184030181529190526020810180517bffffffffffffffffffffffffffffffffffffffffffffffffffffffff167fffffffff00000000000000000000000000000000000000000000000000000000909316929092179091526150d1565b80600f0b60001415614cc857613d26565b6001600160a01b0384166000908152601b60209081526040808320600287810b85529083528184209086900b8452909152812090600f83900b1315614d9957805482908290600090614d249084906001600160801b03166158cb565b82546101009290920a6001600160801b038181021990931691831602179091556000548354680100000000000000009091048216911611159050614d94576040517fb03425ae00000000000000000000000000000000000000000000000000000000815260040160405180910390fd5b614de2565b614da282615a50565b81548290600090614dbd9084906001600160801b03166158f6565b92506101000a8154816001600160801b0302191690836001600160801b031602179055505b5050505050565b600288900b600090815260208b905260408120600301548190614e15906001600160a01b03168a615a1a565b60028b900b600090815260208e81526040808320600301805473ffffffffffffffffffffffffffffffffffffffff19166001600160a01b0395909516949094179093558d90522054614e67908661595b565b60028b900b600090815260208d905260409020558315614f76576002614e8d848c615b9c565b614e979190615b7a565b60020b614ed65760028a900b600090815260208d90526040902054614ecf90660100000000000090046001600160801b03168961595b565b9750614f0a565b60028a900b600090815260208d90526040902054614f0790660100000000000090046001600160801b0316896157c8565b97505b60028a900b600090815260208d90526040902060010154614f2b908761595b565b60028b810b600090815260208f90526040902060018101929092550154614f52908861595b565b60029a8b0b600090815260208e905260409020808c01919091555490990b9861506e565b6002614f82848c615b9c565b614f8c9190615b7a565b60020b614fcb5760028a900b600090815260208d90526040902054614fc490660100000000000090046001600160801b0316896157c8565b9750614fff565b60028a900b600090815260208d90526040902054614ffc90660100000000000090046001600160801b03168961595b565b97505b60028a810b600090815260208e905260409020015461501e908761595b565b60028b810b600090815260208f9052604090209081019190915560010154615046908861595b565b60029a8b0b600090815260208e9052604090206001810191909155546301000000900490990b985b50959a97995096975050505050505050565b6040516001600160a01b0380851660248301528316604482015260648101829052613d269085907f23b872dd0000000000000000000000000000000000000000000000000000000090608401614c53565b6000615126826040518060400160405280602081526020017f5361666545524332303a206c6f772d6c6576656c2063616c6c206661696c6564815250856001600160a01b03166151b69092919063ffffffff16565b80519091501561304157808060200190518101906151449190615cd7565b6130415760405162461bcd60e51b815260206004820152602a60248201527f5361666545524332303a204552433230206f7065726174696f6e20646964206e60448201527f6f742073756363656564000000000000000000000000000000000000000000006064820152608401612afb565b6060613e8c8484600085856001600160a01b0385163b6152185760405162461bcd60e51b815260206004820152601d60248201527f416464726573733a2063616c6c20746f206e6f6e2d636f6e74726163740000006044820152606401612afb565b600080866001600160a01b031685876040516152349190615c3b565b60006040518083038185875af1925050503d8060008114615271576040519150601f19603f3d011682016040523d82523d6000602084013e615276565b606091505b5091509150615286828286615291565b979650505050505050565b606083156152a0575081614183565b8251156152b05782518084602001fd5b8160405162461bcd60e51b8152600401612afb9190615cf2565b8060020b81146142b157600080fd5b6000806000606084860312156152ee57600080fd5b83356152f9816152ca565b92506020840135615309816152ca565b929592945050506040919091013590565b634e487b7160e01b600052604160045260246000fd5b80356001600160801b038116811461414757600080fd5b600060c0828403121561535957600080fd5b60405160c0810181811067ffffffffffffffff8211171561537c5761537c61531a565b604052823561538a816152ca565b8152602083013561539a816152ca565b602082015260408301356153ad816152ca565b604082015260608301356153c0816152ca565b60608201526153d160808401615330565b60808201526153e260a08401615330565b60a08201529392505050565b6000806000806080858703121561540457600080fd5b843561540f816152ca565b9350602085013561541f816152ca565b93969395505050506040820135916060013590565b6001600160a01b03811681146142b157600080fd5b60008060008060006080868803121561546157600080fd5b853561546c81615434565b94506020860135935060408601359250606086013567ffffffffffffffff8082111561549757600080fd5b818801915088601f8301126154ab57600080fd5b8135818111156154ba57600080fd5b8960208285010111156154cc57600080fd5b9699959850939650602001949392505050565b600082601f8301126154f057600080fd5b813567ffffffffffffffff8082111561550b5761550b61531a565b604051601f8301601f19908116603f011681019082821181831017156155335761553361531a565b8160405283815286602085880101111561554c57600080fd5b836020870160208301376000602085830101528094505050505092915050565b60006020828403121561557e57600080fd5b813567ffffffffffffffff81111561559557600080fd5b613e8c848285016154df565b600081518084526020808501945080840160005b838110156155da5781516001600160a01b0316875295820195908201906001016155b5565b509495945050505050565b60208152600061418360208301846155a1565b60006020828403121561560a57600080fd5b5035919050565b60008060006060848603121561562657600080fd5b8335615631816152ca565b92506020840135615641816152ca565b915061564f60408501615330565b90509250925092565b60008060006060848603121561566d57600080fd5b833561567881615434565b92506020840135615688816152ca565b91506040840135615698816152ca565b809150509250925092565b600080604083850312156156b657600080fd5b82356156c1816152ca565b915060208301356156d1816152ca565b809150509250929050565b6000602082840312156156ee57600080fd5b813561418381615434565b6000806040838503121561570c57600080fd5b823567ffffffffffffffff81111561572357600080fd5b61572f858286016154df565b92505060208301356156d181615434565b600080600080600060a0868803121561575857600080fd5b61576186615330565b945061576f60208701615330565b935061577d60408701615330565b94979396509394606081013594506080013592915050565b6000602082840312156157a757600080fd5b8135614183816152ca565b634e487b7160e01b600052601160045260246000fd5b600082198211156157db576157db6157b2565b500190565b60006101a0820190508b82528a60208301528951604083015260208a0151606083015260408a015160808301526001600160a01b0360608b01511660a083015261582f60c083018a60020b9052565b61583e60e083018960020b9052565b61584e61010083018860020b9052565b61585e61012083018760020b9052565b6001600160801b03851661014083015261587e61016083018560020b9052565b6001600160a01b0383166101808301529b9a5050505050505050505050565b600080604083850312156158b057600080fd5b82516158bb816152ca565b6020939093015192949293505050565b60006001600160801b038083168185168083038211156158ed576158ed6157b2565b01949350505050565b60006001600160801b0383811690831681811015615916576159166157b2565b039392505050565b84815283602082015260606040820152816060820152818360808301376000818301608090810191909152601f909201601f191601019392505050565b60008282101561596d5761596d6157b2565b500390565b8051801515811461414757600080fd5b6000806040838503121561599557600080fd5b61599e83615972565b915060208301516156d181615434565b60008160001904831182151516156159c8576159c86157b2565b500290565b634e487b7160e01b600052601260045260246000fd5b6000826159f2576159f26159cd565b500490565b60008160020b627fffff19811415615a1157615a116157b2565b60000392915050565b60006001600160a01b0383811690831681811015615916576159166157b2565b634e487b7160e01b600052603260045260246000fd5b600081600f0b7fffffffffffffffffffffffffffffffff80000000000000000000000000000000811415615a1157615a116157b2565b600060208284031215615a9857600080fd5b815161418381615434565b604081526000615ab660408301856155a1565b82810360208481019190915284518083528582019282019060005b81811015615aed57845183529383019391830191600101615ad1565b5090979650505050505050565b805162ffffff8116811461414757600080fd5b600080600080600060a08688031215615b2557600080fd5b8551615b3081615434565b6020870151909550615b4181615434565b6040870151909450615b5281615434565b9250615b6060608701615afa565b9150615b6e60808701615afa565b90509295509295909350565b60008260020b80615b8d57615b8d6159cd565b808360020b0791505092915050565b60008160020b8360020b80615bb357615bb36159cd565b6000198114627fffff1983141615615bcd57615bcd6157b2565b90059392505050565b60007f8000000000000000000000000000000000000000000000000000000000000000821415615c0857615c086157b2565b5060000390565b60005b83811015615c2a578181015183820152602001615c12565b83811115613d265750506000910152565b60008251615c4d818460208701615c0f565b9190910192915050565b600060208284031215615c6957600080fd5b5051919050565b600062ffffff80831681851681830481118215151615615c9257615c926157b2565b02949350505050565b600062ffffff80841680615cb157615cb16159cd565b92169190910492915050565b60006001600160801b0380841680615cb157615cb16159cd565b600060208284031215615ce957600080fd5b61418382615972565b6020815260008251806020840152615d11816040850160208701615c0f565b601f01601f1916919091016040019291505056fea26469706673582212201c1744c0af677289a1dd5fef731138186622c691086a74f1321fb7215304f37e64736f6c63430008090033",
  "deployedBytecode": "0x608060405234801561001057600080fd5b506004361061032b5760003560e01c8063a34123a7116101b2578063cf78756b116100f9578063e5ff7f46116100a2578063f7c618c11161007c578063f7c618c1146108e8578063f949e8b7146108fb578063fa1a169c14610903578063fb5d80b31461090c57600080fd5b8063e5ff7f46146107cc578063f30dba93146107df578063f719dac61461088a57600080fd5b8063d5514792116100d3578063d551479214610786578063d90bda4e146107a6578063e46dbc98146107b957600080fd5b8063cf78756b14610756578063d0c93a7c1461075e578063d21220a71461077357600080fd5b8063bd7d1eea1161015b578063caa4b46a11610135578063caa4b46a14610728578063cce2df0314610730578063cf5431531461074357600080fd5b8063bd7d1eea146106ef578063c03c251414610702578063c45a01551461071557600080fd5b8063b0e21e8a1161018c578063b0e21e8a14610632578063b2f4bdb01461063b578063bcdb4dad1461064457600080fd5b8063a34123a71461057a578063aaca1b4d1461058d578063acfe88f81461061f57600080fd5b806367e4ac2c116102765780638c347f9b1161021f5780639da12096116101f95780639da1209614610538578063a00e8f2914610540578063a035b1fe1461056757600080fd5b80638c347f9b146104fe5780638f10369a14610527578063956afe451461052f57600080fd5b8063735541d111610250578063735541d1146104da578063787dce3d146104e357806384e02017146104f657600080fd5b806367e4ac2c146104905780636d59d802146104a557806370ed1b86146104d157600080fd5b80632df94b0f116102d857806354cf2aeb116102b257806354cf2aeb14610449578063627dd56a1461047557806366f657c51461048857600080fd5b80632df94b0f1461040357806340306fb61461042b578063490e6cbc1461043457600080fd5b80630dfe1681116103095780630dfe1681146103a4578063111ba27d146103cf5780631a686502146103d857600080fd5b806306f912f3146103305780630902f1ac146103565780630ae9ba8a14610391575b600080fd5b61034361033e3660046152d9565b61092b565b6040519081526020015b60405180910390f35b6014546015546001600160801b03600160801b909204821691165b604080516001600160801b0393841681529290911660208301520161034d565b61034361039f366004615347565b6109a8565b6003546103b7906001600160a01b031681565b6040516001600160a01b03909116815260200161034d565b610343601e5481565b6006546103eb906001600160801b031681565b6040516001600160801b03909116815260200161034d565b6104166104113660046153ee565b610f74565b6040805192835260208301919091520161034d565b610343600e5481565b610447610442366004615449565b6110f3565b005b6000546104619065010000000000900462ffffff1681565b60405162ffffff909116815260200161034d565b61034361048336600461556c565b61150c565b610343611d21565b610498611d3e565b60405161034d91906155e5565b600754604080516001600160a01b0383168152600160a01b90920463ffffffff1660208301520161034d565b61034360095481565b61034360185481565b6104476104f13660046155f8565b611dd2565b610343611e25565b601654604080516001600160a01b0383168152600160a01b90920460020b60208301520161034d565b610343611e40565b610343600f5481565b610343611e5b565b60165461055490600160a01b900460020b81565b60405160029190910b815260200161034d565b6016546103b7906001600160a01b031681565b610416610588366004615611565b611e6e565b6105e961059b366004615658565b601b60209081526000938452604080852082529284528284209052825290208054600182015460028301546003909301546001600160801b0392831693919281811691600160801b90041685565b604080516001600160801b039687168152602081019590955284019290925283166060830152909116608082015260a00161034d565b61041661062d3660046156a3565b612232565b610343601f5481565b610343601d5481565b61069a6000546005546001546003546004546001600160801b03680100000000000000008604169562ffffff62010000870481169665010000000000900416946001600160a01b03908116948116938116921690565b604080516001600160801b03909816885262ffffff968716602089015295909416948601949094526001600160a01b0391821660608601528116608085015291821660a08401521660c082015260e00161034d565b6104476106fd3660046156dc565b612554565b6103436107103660046156a3565b6125ae565b6005546103b7906001600160a01b031681565b6103716126b9565b61044761073e3660046156f9565b612a6e565b610447610751366004615740565b613046565b6103436133aa565b6000546104619062010000900462ffffff1681565b6004546103b7906001600160a01b031681565b610343610794366004615795565b601a6020526000908152604090205481565b6104476107b43660046156dc565b6133bd565b6104476107c73660046156dc565b613463565b6013546103eb906001600160801b031681565b61083f6107ed366004615795565b60196020526000908152604090208054600182015460028084015460039094015483820b946301000000850490920b93660100000000000090046001600160801b03169291906001600160a01b031686565b60408051600297880b81529590960b60208601526001600160801b0390931694840194909452606083015260808201929092526001600160a01b0390911660a082015260c00161034d565b6108cb610898366004615658565b601c602090815260009384526040808520825292845282842090528252902080546001909101546001600160801b031682565b604080519283526001600160801b0390911660208301520161034d565b6010546103b7906001600160a01b031681565b6103436134e7565b61034360085481565b6013546014546001600160801b03600160801b90920482169116610371565b600060175460021415610951576040516303cb96db60e21b815260040160405180910390fd5b60026017556109613385856134f9565b61096d338585856135d7565b6010549091506001600160a01b03166109855761099c565b60105461099c906001600160a01b03168233613671565b60016017559392505050565b6000601754600214156109ce576040516303cb96db60e21b815260040160405180910390fd5b6002601755602082015160608301516109e79190613685565b60006109f683602001516137ea565b6001600160a01b031690506000610a1084606001516137ea565b60165460a086015160808701516001600160a01b0393841694509190921691610a4b918591859185916001600160801b039081169116613b36565b93506f7fffffffffffffffffffffffffffffff841115610a97576040517f35278d1200000000000000000000000000000000000000000000000000000000815260040160405180910390fd5b83610ace576040517f83ecd22400000000000000000000000000000000000000000000000000000000815260040160405180910390fd5b610ad6613bca565b6000601973__$5c5207d55745a34649a0c7f595c6a505bf$__63825c72999091601a6040518060800160405280600a54600854610b1391906157c8565b8152602001600b54600954610b2891906157c8565b81526020016011548152602001600760009054906101000a90046001600160a01b03166001600160a01b03168152508a600001518b602001518c604001518d606001518d601660149054906101000a900460020b8c6040518b63ffffffff1660e01b8152600401610ba29a999897969594939291906157e0565b604080518083038186803b158015610bb957600080fd5b505af4158015610bcd573d6000803e3d6000fd5b505050506040513d601f19601f82011682018060405250810190610bf1919061589d565b6016805462ffffff909316600160a01b0262ffffff60a01b1990931692909217909155601880549192508291600090610c2b9084906157c8565b9250508190555050610c47338660200151876060015187613d04565b808311158015610c5657508181105b15610c9e5760068054859190600090610c799084906001600160801b03166158cb565b92506101000a8154816001600160801b0302191690836001600160801b031602179055505b600080610caf858585896001613d2c565b600354600480546040517f5f16529a0000000000000000000000000000000000000000000000000000000081526001600160a01b03938416928101929092529190911660248201526001600160801b0380841660448301528216606482015291935091503390635f16529a90608401600060405180830381600087803b158015610d3857600080fd5b505af1158015610d4c573d6000803e3d6000fd5b50505050816001600160801b0316600014610df95781601460108282829054906101000a90046001600160801b0316610d8591906158cb565b92506101000a8154816001600160801b0302191690836001600160801b03160217905550610dc7600360009054906101000a90046001600160a01b0316613d96565b601454600160801b90046001600160801b03161115610df95760405163420231d560e11b815260040160405180910390fd5b6001600160801b03811615610e935760158054829190600090610e269084906001600160801b03166158cb565b92506101000a8154816001600160801b0302191690836001600160801b03160217905550610e68600460009054906101000a90046001600160a01b0316613d96565b6015546001600160801b03161115610e9357604051637218102160e11b815260040160405180910390fd5b600280546040805160a08101825260208b810151850b82526060808d0151860b9183019182526001600160801b03888116848601908152908816918401918252608084018d815294517ffbad73910000000000000000000000000000000000000000000000000000000081529351870b6004850152915190950b6024830152516044820152925160648401525160848301526001600160a01b03169063fbad73919060a401600060405180830381600087803b158015610f5257600080fd5b505af1925050508015610f63575060015b505050600160175550919392505050565b60008060175460021415610f9b576040516303cb96db60e21b815260040160405180910390fd5b6002601755610fab338787613e94565b610fb83387878787613fc3565b601480549294509092508391601090610fe2908490600160801b90046001600160801b03166158f6565b92506101000a8154816001600160801b0302191690836001600160801b0316021790555080601560008282829054906101000a90046001600160801b031661102a91906158f6565b92506101000a8154816001600160801b0302191690836001600160801b031602179055506110593383836140ce565b6002546040805180820182528481526020810184815291517f1228c47f00000000000000000000000000000000000000000000000000000000815290516004820152905160248201526001600160a01b0390911690631228c47f90604401600060405180830381600087803b1580156110d157600080fd5b505af19250505080156110e2575060015b506001601755909590945092505050565b60175460021415611117576040516303cb96db60e21b815260040160405180910390fd5b60026017556006546001600160801b03168061115f576040517f83ecd22400000000000000000000000000000000000000000000000000000000815260040160405180910390fd5b6014546015546001600160801b03600160801b909204821691166111848888886140ce565b6000806111a38989600060059054906101000a900462ffffff166140fc565b6040517fc3924ed60000000000000000000000000000000000000000000000000000000081529193509150339063c3924ed6906111ea90859085908c908c9060040161591e565b600060405180830381600087803b15801561120457600080fd5b505af1158015611218573d6000803e3d6000fd5b5050600354600092508291508190611238906001600160a01b0316613d96565b600454909150600090611253906001600160a01b0316613d96565b905081611260878a6157c8565b111561127f5760405163420231d560e11b815260040160405180910390fd5b8061128a86896157c8565b11156112a957604051637218102160e11b815260040160405180910390fd5b6112b282614131565b601480546001600160801b03928316600160801b0292169190911790556112d881614131565b601580546fffffffffffffffffffffffffffffffff19166001600160801b039290921691909117905561130b888361595b565b9350611317878261595b565b601f5490935091505082156113ba576000611335848361271061414c565b905080601360108282829054906101000a90046001600160801b031661135b91906158cb565b92506101000a8154816001600160801b0302191690836001600160801b031602179055506113a2816001600160801b031685611397919061595b565b600160801b8b61418a565b600860008282546113b391906157c8565b9091555050505b81156114435760006113cf838361271061414c565b6014805491925082916000906113ef9084906001600160801b03166158cb565b92506101000a8154816001600160801b0302191690836001600160801b0316021790555061142b816001600160801b031684611397919061595b565b6009600082825461143c91906157c8565b9091555050505b6002546040805160a081018252338152602081018f81528183018f8152606083018881526080840188815294517f2987fbcc00000000000000000000000000000000000000000000000000000000815293516001600160a01b039081166004860152925160248501529051604484015251606483015291516084820152911690632987fbcc9060a401600060405180830381600087803b1580156114e657600080fd5b505af19250505080156114f7575060015b50505060016017555050505050505050505050565b600060175460021415611532576040516303cb96db60e21b815260040160405180910390fd5b6002601781905550600080838060200190518101906115519190615982565b9150915060008261156d576015546001600160801b0316611581565b601454600160801b90046001600160801b03165b6001600160801b03166115b4846115a3576004546001600160a01b0316613d96565b6003546001600160a01b0316613d96565b6115be919061595b565b90506000604051806101200160405280600081526020016000815260200160008152602001856115f0576008546115f4565b6009545b8152602001856116065760095461160a565b6008545b81526016546001600160a01b031660208201526006546001600160801b03166040820152606081018490526080018561166957601654600160a01b9004600290810b60009081526019602052604090205463010000009004900b611677565b601654600160a01b900460020b5b60020b90529050611686613bca565b6011546116928261423d565b60e082015115611a255760006116ac8361010001516137ea565b6001600160a01b0316905060008087156117dd5760006116d78660c00151858860a0015160006142b4565b9050808660e001511161179d5760c086015160a087015160e088015160609290921b9160009161171d9184919061170e90826159ae565b61171890866157c8565b61414c565b905080861115801561173257508760a0015181105b61177057611764828960e001518a60a001518561174f91906159e3565b61175991906157c8565b808204910615150190565b6001600160a01b031690505b6117858860c00151828a60a00151600061430c565b60a0890191909152600060e089015293506117d79050565b6117b28660c00151858860a00151600061430c565b60a0870185905260e0870180519194506001935082916117d390839061595b565b9052505b50611892565b60006117f48660c001518760a0015186600061430c565b9050808660e001511161185657600061181a8760e00151600160601b8960c0015161418a565b8760a0015161182991906157c8565b90506118408760c001518860a001518360006142b4565b60a0880191909152600060e08801529250611890565b61186b8660c001518760a001518660006142b4565b60a0870185905260e08701805191945060019350829161188c90839061595b565b9052505b505b60c0850151156118e4576118cf82600060059054906101000a900462ffffff16601f548860c0015189602001518e8b604001518c60600151614336565b60608901526040880152602087019190915298505b8015611a1d576118f585858a6143ce565b60c0850151611a1d5761010085015160020b620d89e719148061192e5750611920620d89e7196159f7565b60020b85610100015160020b145b156119f65787156119815761195860018660a0015161194d919061595b565b6401000276a3614486565b60a086015261010085018051600290810b600090815260196020526040902054900b90526119ee565b6119c28560a00151600161199591906157c8565b6119b4600173fffd8963efd1fc6a506488495d951d5263988d26615a1a565b6001600160a01b031661449d565b60a086015261010085018051600290810b60009081526019602052604090205463010000009004900b90525b505050611a25565b611a048561010001516137ea565b6001600160a01b031660a0860152611a1d85858a6143ce565b505050611692565b60a08201516016805473ffffffffffffffffffffffffffffffffffffffff19166001600160a01b03909216919091179055600085611a7e57610100830151600290810b600090815260196020526040902054900b611a85565b8261010001515b601654909150600282810b600160a01b909204900b14611ae9576016805462ffffff60a01b1916600160a01b62ffffff84160217905560c0830151600680546fffffffffffffffffffffffffffffffff19166001600160801b039092169190911790555b611af48685896144ac565b611b07868460600151856040015161460e565b60e083015115611c3c57600086611b5b57601960008181611b2b620d89e7196159f7565b600290810b8252602080830193909352604091820160009081205490910b84529183019390935291019020611b96565b60196020527f8b687876df6025befed93a16f72cd2848615619f141fc2441f1db80badfc7d3e546301000000900460020b6000908152604090205b60e08501518154919250600091611bc69190600160801b90660100000000000090046001600160801b031661418a565b90508715611c065780826001016000828254611be291906157c8565b925050819055508060086000828254611bfb91906157c8565b90915550611c399050565b80826002016000828254611c1a91906157c8565b925050819055508060096000828254611c3391906157c8565b90915550505b50505b8515611c5e57600454611c59906001600160a01b03168887613671565b611c75565b600354611c75906001600160a01b03168887613671565b600254604080516060810182528815158152602081018781528183018b815292517f91accd5f000000000000000000000000000000000000000000000000000000008152915115156004830152516024820152905160448201526001600160a01b03909116906391accd5f90606401600060405180830381600087803b158015611cfe57600080fd5b505af1925050508015611d0f575060015b50505060016017555092949350505050565b6000611d2b61468a565b611d355750600090565b600c545b905090565b6040805160028082526060808301845292602083019080368337505060035482519293506001600160a01b031691839150600090611d7e57611d7e615a3a565b6001600160a01b039283166020918202929092010152600454825191169082906001908110611daf57611daf615a3a565b60200260200101906001600160a01b031690816001600160a01b03168152505090565b6005546001600160a01b03163314611dfd5760405163ea8e4eb560e01b815260040160405180910390fd5b612710811115611e2057604051633494a40d60e21b815260040160405180910390fd5b601f55565b6000611e2f61468a565b611e395750600090565b50600d5490565b6000611e4a61468a565b611e545750600090565b5060125490565b6000611d39600854600a54600c546146a4565b60008060175460021415611e95576040516303cb96db60e21b815260040160405180910390fd5b60026017556000611ea5866137ea565b90506000611eb2866137ea565b6016549091506001600160a01b0316611ec9613bca565b806001600160a01b0316836001600160a01b031611158015611efc5750816001600160a01b0316816001600160a01b0316105b15611f445760068054879190600090611f1f9084906001600160801b03166158f6565b92506101000a8154816001600160801b0302191690836001600160801b031602179055505b611f76836001600160a01b0316836001600160a01b0316836001600160a01b0316896001600160801b03166000613d2c565b6001600160801b039182169650811694506f7fffffffffffffffffffffffffffffff9087161115611fd3576040517f35278d1200000000000000000000000000000000000000000000000000000000815260040160405180910390fd5b611fe7338989611fe28a615a50565b613d04565b601480546001600160801b03600160801b808304821689900382160291811691909117909155601580548083168790039092166fffffffffffffffffffffffffffffffff19929092169190911790556120413386866140ce565b6016546040517f7c91cb9800000000000000000000000000000000000000000000000000000000815260196004820152601a602482015260028a810b604483015289810b60648301526001600160801b0389166084830152600160a01b90920490910b60a482015260009073__$5c5207d55745a34649a0c7f595c6a505bf$__90637c91cb989060c401604080518083038186803b1580156120e257600080fd5b505af41580156120f6573d6000803e3d6000fd5b505050506040513d601f19601f8201168201806040525081019061211a919061589d565b6016805462ffffff909316600160a01b0262ffffff60a01b199093169290921790915560188054919250829160009061215490849061595b565b9091555050600280546040805160a0810182528c840b81528b840b602082019081528183018b8152606083018b81526001600160801b038e166080850190815294517ffc9482d20000000000000000000000000000000000000000000000000000000081529351870b6004850152915190950b602483015293516044820152925160648401525160848301526001600160a01b0316915063fc9482d29060a401600060405180830381600087803b15801561220e57600080fd5b505af192505050801561221f575060015b5050506001601755509094909350915050565b6016546000908190819061224e906001600160a01b0316614704565b90506000601960008760020b60020b81526020019081526020016000206040518060c00160405290816000820160009054906101000a900460020b60020b60020b81526020016000820160039054906101000a900460020b60020b60020b81526020016000820160069054906101000a90046001600160801b03166001600160801b03166001600160801b0316815260200160018201548152602001600282015481526020016003820160009054906101000a90046001600160a01b03166001600160a01b03166001600160a01b03168152505090506000601960008760020b60020b81526020019081526020016000206040518060c00160405290816000820160009054906101000a900460020b60020b60020b81526020016000820160039054906101000a900460020b60020b60020b81526020016000820160069054906101000a90046001600160801b03166001600160801b03166001600160801b0316815260200160018201548152602001600282015481526020016003820160009054906101000a90046001600160a01b03166001600160a01b03166001600160a01b0316815250509050600080600080612425600660009054906101000a90046001600160801b03166001600160801b0316614a5d565b9150915081600a5460085461243a91906157c8565b61244491906157c8565b935080600b5460095461245791906157c8565b61246191906157c8565b925050506000808660020b8b60020b1361249d57606086015161248490836157c8565b915085608001518161249691906157c8565b90506124d5565b60608601516124ac908561595b565b6124b690836157c8565b91508560800151836124c8919061595b565b6124d290826157c8565b90505b8960020b8760020b121561250b5760608501516124f290836157c8565b915084608001518161250491906157c8565b9050612543565b606085015161251a908561595b565b61252490836157c8565b9150846080015183612536919061595b565b61254090826157c8565b90505b920399919003975095505050505050565b6005546001600160a01b0316331461257f5760405163ea8e4eb560e01b815260040160405180910390fd5b6002805473ffffffffffffffffffffffffffffffffffffffff19166001600160a01b0392909216919091179055565b60165460009081906125c8906001600160a01b0316614704565b6006549091506000906125e3906001600160801b0316614aa0565b6011546125f091906157c8565b905060008260020b8660020b1361262657600286900b6000908152601a602052604090205461261f90826157c8565b9050612651565b600286900b6000908152601a6020526040902054612644908361595b565b61264e90826157c8565b90505b8460020b8360020b121561268457600285900b6000908152601a602052604090205461267d90826157c8565b90506126af565b600285900b6000908152601a60205260409020546126a2908361595b565b6126ac90826157c8565b90505b9003949350505050565b600080601754600214156126e0576040516303cb96db60e21b815260040160405180910390fd5b6002601755600154604080517fef36925200000000000000000000000000000000000000000000000000000000815290516000926001600160a01b03169163ef369252916004808301926020929190829003018186803b15801561274357600080fd5b505afa158015612757573d6000803e3d6000fd5b505050506040513d601f19601f8201168201806040525081019061277b9190615a86565b604080516002808252606082018352929350600092909160208301908036833750506040805160028082526060820183529394506000939092509060208301908036833701905050601354909150600160801b90046001600160801b0316156128cf57601380546001600160801b0380821690925560148054600160801b9283900484169850889391926010926128169286929004166158f6565b92506101000a8154816001600160801b0302191690836001600160801b03160217905550612863600360009054906101000a90046001600160a01b0316866001600160801b031685613671565b60035482516001600160a01b0390911690839060009061288557612885615a3a565b60200260200101906001600160a01b031690816001600160a01b031681525050846001600160801b0316816000815181106128c2576128c2615a3a565b6020026020010181815250505b6014546001600160801b0316156129d857601480546fffffffffffffffffffffffffffffffff198116909155601580546001600160801b039283169650869260009161291d918591166158f6565b92506101000a8154816001600160801b0302191690836001600160801b0316021790555061296a600460009054906101000a90046001600160a01b0316856001600160801b031685613671565b60045482516001600160a01b03909116908390600190811061298e5761298e615a3a565b60200260200101906001600160a01b031690816001600160a01b031681525050836001600160801b0316816001815181106129cb576129cb615a3a565b6020026020010181815250505b6001600160a01b0383163b15612a62576040517ff03328300000000000000000000000000000000000000000000000000000000081526001600160a01b0384169063f033283090612a2f9085908590600401615aa3565b600060405180830381600087803b158015612a4957600080fd5b505af1158015612a5d573d6000803e3d6000fd5b505050505b50505060016017559091565b600054610100900460ff16612a895760005460ff1615612a8d565b303b155b612b045760405162461bcd60e51b815260206004820152602e60248201527f496e697469616c697a61626c653a20636f6e747261637420697320616c72656160448201527f647920696e697469616c697a656400000000000000000000000000000000000060648201526084015b60405180910390fd5b600054610100900460ff16158015612b4357600080547fffffffffffffffffffffffffffffffffffffffffffffffffffffffffffff0000166101011790555b600080600080600087806020019051810190612b5f9190615b0d565b9398509196509450925090506001600160a01b038516612bab576040517fd92e233d00000000000000000000000000000000000000000000000000000000815260040160405180910390fd5b836001600160a01b0316856001600160a01b03161415612bde57604051633494a40d60e21b815260040160405180910390fd5b600380546001600160a01b0380881673ffffffffffffffffffffffffffffffffffffffff199283161790925560048054878416908316179055601080548684169083161790556000805462ffffff85811662010000027fffffffffffffffffffffffffffffffffffffffffffffffffffffff000000ffff9188166501000000000002919091167fffffffffffffffffffffffffffffffffffffffffffffffff000000000000ffff909216919091171790556005805482163317905560018054928a1692909116919091179055612cb381614ac8565b600060086101000a8154816001600160801b0302191690836001600160801b031602179055506040518060c00160405280620d89e71960020b8152602001620d89e719612cff906159f7565b60020b815260006020808301829052604080840183905260608085018490526080948501849052620d89e719938490526019835285517f8b687876df6025befed93a16f72cd2848615619f141fc2441f1db80badfc7d3e805488860151898601516001600160801b03166601000000000000027fffffffffffffffffffff00000000000000000000000000000000ffffffffffff62ffffff92831663010000000265ffffffffffff19909416929095169190911791909117929092169190911790558501517f8b687876df6025befed93a16f72cd2848615619f141fc2441f1db80badfc7d3f55928401517f8b687876df6025befed93a16f72cd2848615619f141fc2441f1db80badfc7d405560a0909301517f8b687876df6025befed93a16f72cd2848615619f141fc2441f1db80badfc7d4180546001600160a01b039290921673ffffffffffffffffffffffffffffffffffffffff19909216919091179055815160c081019092528082529091820190612e7a906159f7565b60020b815260200160006001600160801b03168152602001600081526020016000815260200160006001600160a01b031681525060196000620d89e719612ec0906159f7565b600290810b8252602080830193909352604091820160002084518154948601519386015162ffffff91821665ffffffffffff199096169590951763010000009190941602929092177fffffffffffffffffffff00000000000000000000000000000000ffffffffffff1666010000000000006001600160801b0390941693909302929092178155606083015160018083019190915560808401518284015560a0909301516003909101805473ffffffffffffffffffffffffffffffffffffffff19166001600160a01b039092169190911790556016805462ffffff60a01b191676f276180000000000000000000000000000000000000000179055601791909155600780547fffffffffffffffff00000000ffffffffffffffffffffffffffffffffffffffff16600160a01b4263ffffffff81169190910291909117909155601891909155601d55505043601e5550508115905061304157600080547fffffffffffffffffffffffffffffffffffffffffffffffffffffffffffff00ff1690555b505050565b6017546002141561306a576040516303cb96db60e21b815260040160405180910390fd5b6002601755600154604080517fd0a93173000000000000000000000000000000000000000000000000000000008152905133926001600160a01b03169163d0a931739160048083019260209291908290030181600087803b1580156130ce57600080fd5b505af11580156130e2573d6000803e3d6000fd5b505050506040513d601f19601f820116820180604052508101906131069190615a86565b6001600160a01b03161461312d5760405163ea8e4eb560e01b815260040160405180910390fd5b4261313882846157c8565b1161315657604051633494a40d60e21b815260040160405180910390fd5b600e54600f5460009061316990836157c8565b90508381111561318c57604051633494a40d60e21b815260040160405180910390fd5b6001600160801b03871615613203576003546131ba906001600160a01b03166001600160801b038916614b08565b86601460108282829054906101000a90046001600160801b03166131de91906158cb565b92506101000a8154816001600160801b0302191690836001600160801b031602179055505b6001600160801b0386161561327457600454613231906001600160a01b03166001600160801b038816614b08565b6015805487919060009061324f9084906001600160801b03166158cb565b92506101000a8154816001600160801b0302191690836001600160801b031602179055505b6001600160801b038516156132a2576010546132a2906001600160a01b03166001600160801b038716614b08565b60006132ac614b1d565b1115613344576132ba613bca565b600754600160a01b900463ffffffff16818110156133425760006132de8285614486565b6132e8908461595b565b90506132fe6132f9600c5483614b8d565b614131565b613308908a6158cb565b98506133196132f9600d5483614b8d565b61332390896158cb565b97506133346132f960125483614b8d565b61333e90886158cb565b9650505b505b61335c876001600160801b0316600160801b8561418a565b600c556133776001600160801b038716600160801b8561418a565b600d556133926001600160801b038616600160801b8561418a565b6012555050600e91909155600f555050600160175550565b6000611d39600954600b54600d546146a4565b6005546001600160a01b031633146133e85760405163ea8e4eb560e01b815260040160405180910390fd5b6016546001600160a01b03161561342b576040517f2f282c6c00000000000000000000000000000000000000000000000000000000815260040160405180910390fd5b61343481614b9e565b6016805473ffffffffffffffffffffffffffffffffffffffff19166001600160a01b0392909216919091179055565b6005546001600160a01b0316331461348e5760405163ea8e4eb560e01b815260040160405180910390fd5b6010546001600160a01b0316156134b85760405163ea8e4eb560e01b815260040160405180910390fd5b6010805473ffffffffffffffffffffffffffffffffffffffff19166001600160a01b0392909216919091179055565b6000611d3960006011546012546146a4565b6001600160a01b0383166000908152601c60209081526040808320600286810b85529083528184209085900b845290915281209061353784846125ae565b82546001600160a01b0387166000908152601b6020908152604080832060028a810b85529083528184209089900b845290915281205492935091613586918403906001600160801b0316614b8d565b82845560018401805491925082916000906135ab9084906001600160801b03166158cb565b92506101000a8154816001600160801b0302191690836001600160801b03160217905550505050505050565b6001600160a01b0384166000908152601c60209081526040808320600287810b85529083528184209086900b845290915281206001810154613622906001600160801b03168461449d565b60018201805491935083916000906136449084906001600160801b03166158f6565b92506101000a8154816001600160801b0302191690836001600160801b0316021790555050949350505050565b6130416001600160a01b0384168284614c0e565b60005461369d9062010000900462ffffff1683615b7a565b60020b156136d7576040517fce8ef7fc00000000000000000000000000000000000000000000000000000000815260040160405180910390fd5b6000546002906136f29062010000900462ffffff1684615b9c565b6136fc9190615b7a565b60020b15613736576040517ffdf1420200000000000000000000000000000000000000000000000000000000815260040160405180910390fd5b60005461374e9062010000900462ffffff1682615b7a565b60020b15613788576040517fce8ef7fc00000000000000000000000000000000000000000000000000000000815260040160405180910390fd5b6000546002906137a39062010000900462ffffff1683615b9c565b6137ad9190615b7a565b60020b6137e6576040517fa9778c6300000000000000000000000000000000000000000000000000000000815260040160405180910390fd5b5050565b60008060008360020b12613801578260020b61380e565b8260020b61380e90615bd6565b905061381d620d89e7196159f7565b62ffffff1681111561385b576040517ff87dc40c00000000000000000000000000000000000000000000000000000000815260040160405180910390fd5b60006001821661386f57600160801b613881565b6ffffcb933bd6fad37aa2d162d1a5940015b70ffffffffffffffffffffffffffffffffff16905060028216156138b5576ffff97272373d413259a46990580e213a0260801c5b60048216156138d4576ffff2e50f5f656932ef12357cf3c7fdcc0260801c5b60088216156138f3576fffe5caca7e10e4e61c3624eaa0941cd00260801c5b6010821615613912576fffcb9843d60f6159c9db58835c9266440260801c5b6020821615613931576fff973b41fa98c081472e6896dfb254c00260801c5b6040821615613950576fff2ea16466c96a3843ec78b326b528610260801c5b608082161561396f576ffe5dee046a99a2a811c461f1969c30530260801c5b61010082161561398f576ffcbe86c7900a88aedcffc83b479aa3a40260801c5b6102008216156139af576ff987a7253ac413176f2b074cf7815e540260801c5b6104008216156139cf576ff3392b0822b70005940c7a398e4b70f30260801c5b6108008216156139ef576fe7159475a2c29b7443b29c7fa6e889d90260801c5b611000821615613a0f576fd097f3bdfd2022b8845ad8f792aa58250260801c5b612000821615613a2f576fa9f746462d870fdf8a65dc1f90e061e50260801c5b614000821615613a4f576f70d869a156d2a1b890bb3df62baf32f70260801c5b618000821615613a6f576f31be135f97d08fd981231505542fcfa60260801c5b62010000821615613a90576f09aa508b5b7a84e1c677de54f3e99bc90260801c5b62020000821615613ab0576e5d6af8dedb81196699c329225ee6040260801c5b62040000821615613acf576d2216e584f5fa1ea926041bedfe980260801c5b62080000821615613aec576b048a170391f7dc42444e8fa20260801c5b60008460020b1315613b0d578060001981613b0957613b096159cd565b0490505b640100000000810615613b21576001613b24565b60005b60ff16602082901c0192505050919050565b6000838511613b5757613b5083600160601b88880361418a565b9050613bc1565b858411613b7957613b5082613b718888600160601b61418a565b88880361418a565b6000613b9683613b8e8888600160601b61418a565b87890361418a565b90506000613bab85600160601b8a890361418a565b9050808210613bba5780613bbc565b815b925050505b95945050505050565b6006546001600160801b031680613bde5750565b600754600160a01b900463ffffffff16428110613bf9575050565b6000613c03614b1d565b90508015613c7757613c18600c54828561418a565b600a6000828254613c2991906157c8565b9091555050600d54613c3c90828561418a565b600b6000828254613c4d91906157c8565b9091555050601254613c6090828561418a565b60116000828254613c7191906157c8565b90915550505b6007805463ffffffff42908116600160a01b027fffffffffffffffff00000000ffffffffffffffffffffffffffffffffffffffff90921691909117909155839083900360801b81613cca57613cca6159cd565b6007805473ffffffffffffffffffffffffffffffffffffffff198116939092046001600160a01b0392831601909116919091179055505050565b613d0f848484613e94565b613d1a8484846134f9565b613d2684848484614cb7565b50505050565b600080848611613d4c57613d456132f98589898761430c565b9050613d8c565b868511613d6957613d626132f9858989876142b4565b9150613d8c565b613d786132f9858789876142b4565b9150613d896132f98589888761430c565b90505b9550959350505050565b604080513060248083019190915282518083039091018152604490910182526020810180517bffffffffffffffffffffffffffffffffffffffffffffffffffffffff167f70a08231000000000000000000000000000000000000000000000000000000001790529051600091829182916001600160a01b03861691613e1b9190615c3b565b600060405180830381855afa9150503d8060008114613e56576040519150601f19603f3d011682016040523d82523d6000602084013e613e5b565b606091505b5091509150818015613e6f57506020815110155b613e7857600080fd5b80806020019051810190613e8c9190615c57565b949350505050565b6001600160a01b0383166000908152601b60209081526040808320600286810b85529083528184209085900b845290915281209080613ed38585612232565b600185015485549294509092506000918291613efb91908603906001600160801b0316614b8d565b60028601548654919350613f1b91908503906001600160801b0316614b8d565b60018601859055600286018490556003860180549192508391600090613f4b9084906001600160801b03166158cb565b92506101000a8154816001600160801b0302191690836001600160801b03160217905550808560030160108282829054906101000a90046001600160801b0316613f9591906158cb565b92506101000a8154816001600160801b0302191690836001600160801b031602179055505050505050505050565b6001600160a01b0385166000908152601b60209081526040808320600288810b85529083528184209087900b845290915281206003810154829190614011906001600160801b03168661449d565b600382015490935061403390600160801b90046001600160801b03168561449d565b60038201805491935084916000906140559084906001600160801b03166158f6565b92506101000a8154816001600160801b0302191690836001600160801b03160217905550818160030160108282829054906101000a90046001600160801b031661409f91906158f6565b92506101000a8154816001600160801b0302191690836001600160801b03160217905550509550959350505050565b6003546140e5906001600160a01b03168385613671565b600454613041906001600160a01b03168285613671565b600080614112858462ffffff16620f424061414c565b9150614127848462ffffff16620f424061414c565b9050935093915050565b806001600160801b038116811461414757600080fd5b919050565b600061415984848461418a565b90508180614169576141696159cd565b8385091561418357600019811061417f57600080fd5b6001015b9392505050565b6000808060001985870985870292508281108382030391505080600014156141c457600084116141b957600080fd5b508290049050614183565b8084116141d057600080fd5b6000848688096000868103871696879004966002600389028118808a02820302808a02820302808a02820302808a02820302808a02820302808a02909103029181900381900460010186841190950394909402919094039290920491909117919091029150509392505050565b60c08101511561424a5750565b61010081015160020b620d89e719148061427a575061426c620d89e7196159f7565b60020b81610100015160020b145b156142b1576040517f6ba599a000000000000000000000000000000000000000000000000000000000815260040160405180910390fd5b50565b600081156142e3576142dc6142d0606087901b8686038661414c565b85808204910615150190565b9050613e8c565b836142f5606087901b8286038661418a565b81614302576143026159cd565b0495945050505050565b60008115614325576142dc85858503600160601b61414c565b613bc185858503600160601b61418a565b60008060008060006143518d8d62ffffff16620f424061414c565b905061435d818a6157c8565b9850614369818e61595b565b61437390896157c8565b97506000614384828d61271061414c565b905061439081896157c8565b975061439c818361595b565b91506143ad82600160801b8d61418a565b6143b790886157c8565b999e989d50969b5097995095975050505050505050565b614470601a846101000151600760009054906101000a90046001600160a01b03168660c001518561441057600a54886060015161440b91906157c8565b614422565b600b54886060015161442291906157c8565b8661443e57600b54896080015161443991906157c8565b614450565b600a54896080015161445091906157c8565b6000546019969594939291908a908a9062010000900462ffffff16614de9565b60020b61010085015260c0909301929092525050565b6000818310156144965781614183565b5090919050565b60008183106144965781614183565b8215614564576003546000906144ca906001600160a01b0316613d96565b6014549091506000906144ee908590600160801b90046001600160801b03166158cb565b905081816001600160801b0316111561451a5760405163420231d560e11b815260040160405180910390fd5b601480546001600160801b03928316600160801b02908316179055601580548083168590039092166fffffffffffffffffffffffffffffffff199290921691909117905550505050565b60045460009061457c906001600160a01b0316613d96565b6015549091506000906145999085906001600160801b03166158cb565b905081816001600160801b031611156145c557604051637218102160e11b815260040160405180910390fd5b601580546001600160801b039283166fffffffffffffffffffffffffffffffff1990911617905560148054600160801b8082048416869003841602921691909117905550505050565b8215614660576009829055601480548291906000906146379084906001600160801b03166158cb565b92506101000a8154816001600160801b0302191690836001600160801b03160217905550505050565b600882905560138054829190601090614637908490600160801b90046001600160801b03166158cb565b6000600f54600e5461469c91906157c8565b421115905090565b6000806146af614b1d565b6006549091506001600160801b031681158015906146cd5750600081115b156146fa576146dd84838361418a565b6146e786886157c8565b6146f191906157c8565b92505050614183565b6146f185876157c8565b60006401000276a36001600160a01b038316108061473f575073fffd8963efd1fc6a506488495d951d5263988d266001600160a01b03831610155b15614776576040517f6e4ba61d00000000000000000000000000000000000000000000000000000000815260040160405180910390fd5b77ffffffffffffffffffffffffffffffffffffffff00000000602083901b166001600160801b03811160071b81811c67ffffffffffffffff811160061b90811c63ffffffff811160051b90811c61ffff811160041b90811c60ff8111600390811b91821c600f811160021b90811c918211600190811b92831c9790881196179094179092171790911717176080811061481757607f810383901c9150614821565b80607f0383901b91505b908002607f81811c60ff83811c9190911c800280831c81831c1c800280841c81841c1c800280851c81851c1c800280861c81861c1c800280871c81871c1c800280881c81881c1c800280891c81891c1c8002808a1c818a1c1c8002808b1c818b1c1c8002808c1c818c1c1c8002808d1c818d1c1c8002808e1c9c81901c9c909c1c80029c8d901c9e9d7fffffffffffffffffffffffffffffffffffffffffffffffffffffffffffffff808f0160401b60c09190911c678000000000000000161760c19b909b1c674000000000000000169a909a1760c29990991c672000000000000000169890981760c39790971c671000000000000000169690961760c49590951c670800000000000000169490941760c59390931c670400000000000000169290921760c69190911c670200000000000000161760c79190911c670100000000000000161760c89190911c6680000000000000161760c99190911c6640000000000000161760ca9190911c6620000000000000161760cb9190911c6610000000000000161760cc9190911c6608000000000000161760cd9190911c66040000000000001617693627a301d71055774c8581027ffffffffffffffffffffffffffffffffffd709b7e5480fba5a50fed5e62ffc5568101608090811d906fdb2df09e81959a81455e260799a0632f8301901d600281810b9083900b14614a4e57886001600160a01b0316614a33826137ea565b6001600160a01b03161115614a485781614a50565b80614a50565b815b9998505050505050505050565b60008082614a7057506000928392509050565b6000614a7a614b1d565b9050614a89600c54828661418a565b9250614a98600d54828661418a565b915050915091565b600081614aaf57506000919050565b6000614ab9614b1d565b9050614183601254828561418a565b6000614ad5826002615c70565b614ae2620d89e7196159f7565b614aec9190615c9b565b614b029062ffffff166001600160801b03615cbd565b92915050565b6137e66001600160a01b038316333084615080565b600e54600090428110614b3257600091505090565b600754600f54600160a01b90910463ffffffff1690600090614b5490846157c8565b9050818111614b67576000935050505090565b614b718284614486565b614b7b428361449d565b614b85919061595b565b935050505090565b60006141838383600160801b61418a565b6401000276a36001600160a01b0382161080614bd7575073fffd8963efd1fc6a506488495d951d5263988d266001600160a01b03821610155b156142b1576040517f6e4ba61d00000000000000000000000000000000000000000000000000000000815260040160405180910390fd5b6040516001600160a01b0383166024820152604481018290526130419084907fa9059cbb00000000000000000000000000000000000000000000000000000000906064015b60408051601f198184030181529190526020810180517bffffffffffffffffffffffffffffffffffffffffffffffffffffffff167fffffffff00000000000000000000000000000000000000000000000000000000909316929092179091526150d1565b80600f0b60001415614cc857613d26565b6001600160a01b0384166000908152601b60209081526040808320600287810b85529083528184209086900b8452909152812090600f83900b1315614d9957805482908290600090614d249084906001600160801b03166158cb565b82546101009290920a6001600160801b038181021990931691831602179091556000548354680100000000000000009091048216911611159050614d94576040517fb03425ae00000000000000000000000000000000000000000000000000000000815260040160405180910390fd5b614de2565b614da282615a50565b81548290600090614dbd9084906001600160801b03166158f6565b92506101000a8154816001600160801b0302191690836001600160801b031602179055505b5050505050565b600288900b600090815260208b905260408120600301548190614e15906001600160a01b03168a615a1a565b60028b900b600090815260208e81526040808320600301805473ffffffffffffffffffffffffffffffffffffffff19166001600160a01b0395909516949094179093558d90522054614e67908661595b565b60028b900b600090815260208d905260409020558315614f76576002614e8d848c615b9c565b614e979190615b7a565b60020b614ed65760028a900b600090815260208d90526040902054614ecf90660100000000000090046001600160801b03168961595b565b9750614f0a565b60028a900b600090815260208d90526040902054614f0790660100000000000090046001600160801b0316896157c8565b97505b60028a900b600090815260208d90526040902060010154614f2b908761595b565b60028b810b600090815260208f90526040902060018101929092550154614f52908861595b565b60029a8b0b600090815260208e905260409020808c01919091555490990b9861506e565b6002614f82848c615b9c565b614f8c9190615b7a565b60020b614fcb5760028a900b600090815260208d90526040902054614fc490660100000000000090046001600160801b0316896157c8565b9750614fff565b60028a900b600090815260208d90526040902054614ffc90660100000000000090046001600160801b03168961595b565b97505b60028a810b600090815260208e905260409020015461501e908761595b565b60028b810b600090815260208f9052604090209081019190915560010154615046908861595b565b60029a8b0b600090815260208e9052604090206001810191909155546301000000900490990b985b50959a97995096975050505050505050565b6040516001600160a01b0380851660248301528316604482015260648101829052613d269085907f23b872dd0000000000000000000000000000000000000000000000000000000090608401614c53565b6000615126826040518060400160405280602081526020017f5361666545524332303a206c6f772d6c6576656c2063616c6c206661696c6564815250856001600160a01b03166151b69092919063ffffffff16565b80519091501561304157808060200190518101906151449190615cd7565b6130415760405162461bcd60e51b815260206004820152602a60248201527f5361666545524332303a204552433230206f7065726174696f6e20646964206e60448201527f6f742073756363656564000000000000000000000000000000000000000000006064820152608401612afb565b6060613e8c8484600085856001600160a01b0385163b6152185760405162461bcd60e51b815260206004820152601d60248201527f416464726573733a2063616c6c20746f206e6f6e2d636f6e74726163740000006044820152606401612afb565b600080866001600160a01b031685876040516152349190615c3b565b60006040518083038185875af1925050503d8060008114615271576040519150601f19603f3d011682016040523d82523d6000602084013e615276565b606091505b5091509150615286828286615291565b979650505050505050565b606083156152a0575081614183565b8251156152b05782518084602001fd5b8160405162461bcd60e51b8152600401612afb9190615cf2565b8060020b81146142b157600080fd5b6000806000606084860312156152ee57600080fd5b83356152f9816152ca565b92506020840135615309816152ca565b929592945050506040919091013590565b634e487b7160e01b600052604160045260246000fd5b80356001600160801b038116811461414757600080fd5b600060c0828403121561535957600080fd5b60405160c0810181811067ffffffffffffffff8211171561537c5761537c61531a565b604052823561538a816152ca565b8152602083013561539a816152ca565b602082015260408301356153ad816152ca565b604082015260608301356153c0816152ca565b60608201526153d160808401615330565b60808201526153e260a08401615330565b60a08201529392505050565b6000806000806080858703121561540457600080fd5b843561540f816152ca565b9350602085013561541f816152ca565b93969395505050506040820135916060013590565b6001600160a01b03811681146142b157600080fd5b60008060008060006080868803121561546157600080fd5b853561546c81615434565b94506020860135935060408601359250606086013567ffffffffffffffff8082111561549757600080fd5b818801915088601f8301126154ab57600080fd5b8135818111156154ba57600080fd5b8960208285010111156154cc57600080fd5b9699959850939650602001949392505050565b600082601f8301126154f057600080fd5b813567ffffffffffffffff8082111561550b5761550b61531a565b604051601f8301601f19908116603f011681019082821181831017156155335761553361531a565b8160405283815286602085880101111561554c57600080fd5b836020870160208301376000602085830101528094505050505092915050565b60006020828403121561557e57600080fd5b813567ffffffffffffffff81111561559557600080fd5b613e8c848285016154df565b600081518084526020808501945080840160005b838110156155da5781516001600160a01b0316875295820195908201906001016155b5565b509495945050505050565b60208152600061418360208301846155a1565b60006020828403121561560a57600080fd5b5035919050565b60008060006060848603121561562657600080fd5b8335615631816152ca565b92506020840135615641816152ca565b915061564f60408501615330565b90509250925092565b60008060006060848603121561566d57600080fd5b833561567881615434565b92506020840135615688816152ca565b91506040840135615698816152ca565b809150509250925092565b600080604083850312156156b657600080fd5b82356156c1816152ca565b915060208301356156d1816152ca565b809150509250929050565b6000602082840312156156ee57600080fd5b813561418381615434565b6000806040838503121561570c57600080fd5b823567ffffffffffffffff81111561572357600080fd5b61572f858286016154df565b92505060208301356156d181615434565b600080600080600060a0868803121561575857600080fd5b61576186615330565b945061576f60208701615330565b935061577d60408701615330565b94979396509394606081013594506080013592915050565b6000602082840312156157a757600080fd5b8135614183816152ca565b634e487b7160e01b600052601160045260246000fd5b600082198211156157db576157db6157b2565b500190565b60006101a0820190508b82528a60208301528951604083015260208a0151606083015260408a015160808301526001600160a01b0360608b01511660a083015261582f60c083018a60020b9052565b61583e60e083018960020b9052565b61584e61010083018860020b9052565b61585e61012083018760020b9052565b6001600160801b03851661014083015261587e61016083018560020b9052565b6001600160a01b0383166101808301529b9a5050505050505050505050565b600080604083850312156158b057600080fd5b82516158bb816152ca565b6020939093015192949293505050565b60006001600160801b038083168185168083038211156158ed576158ed6157b2565b01949350505050565b60006001600160801b0383811690831681811015615916576159166157b2565b039392505050565b84815283602082015260606040820152816060820152818360808301376000818301608090810191909152601f909201601f191601019392505050565b60008282101561596d5761596d6157b2565b500390565b8051801515811461414757600080fd5b6000806040838503121561599557600080fd5b61599e83615972565b915060208301516156d181615434565b60008160001904831182151516156159c8576159c86157b2565b500290565b634e487b7160e01b600052601260045260246000fd5b6000826159f2576159f26159cd565b500490565b60008160020b627fffff19811415615a1157615a116157b2565b60000392915050565b60006001600160a01b0383811690831681811015615916576159166157b2565b634e487b7160e01b600052603260045260246000fd5b600081600f0b7fffffffffffffffffffffffffffffffff80000000000000000000000000000000811415615a1157615a116157b2565b600060208284031215615a9857600080fd5b815161418381615434565b604081526000615ab660408301856155a1565b82810360208481019190915284518083528582019282019060005b81811015615aed57845183529383019391830191600101615ad1565b5090979650505050505050565b805162ffffff8116811461414757600080fd5b600080600080600060a08688031215615b2557600080fd5b8551615b3081615434565b6020870151909550615b4181615434565b6040870151909450615b5281615434565b9250615b6060608701615afa565b9150615b6e60808701615afa565b90509295509295909350565b60008260020b80615b8d57615b8d6159cd565b808360020b0791505092915050565b60008160020b8360020b80615bb357615bb36159cd565b6000198114627fffff1983141615615bcd57615bcd6157b2565b90059392505050565b60007f8000000000000000000000000000000000000000000000000000000000000000821415615c0857615c086157b2565b5060000390565b60005b83811015615c2a578181015183820152602001615c12565b83811115613d265750506000910152565b60008251615c4d818460208701615c0f565b9190910192915050565b600060208284031215615c6957600080fd5b5051919050565b600062ffffff80831681851681830481118215151615615c9257615c926157b2565b02949350505050565b600062ffffff80841680615cb157615cb16159cd565b92169190910492915050565b60006001600160801b0380841680615cb157615cb16159cd565b600060208284031215615ce957600080fd5b61418382615972565b6020815260008251806020840152615d11816040850160208701615c0f565b601f01601f1916919091016040019291505056fea26469706673582212201c1744c0af677289a1dd5fef731138186622c691086a74f1321fb7215304f37e64736f6c63430008090033",
  "libraries": {
    "RewardTicks": "0xe685F095200F7D1DB02Ffa14D767B345d95C36fc"
  }
}