{
  "address": "0x512C39895d306652872eB0392680361D27D42D92",
  "abi": [
    {
      "inputs": [],
      "name": "AlreadyPriceInitialized",
      "type": "error"
    },
    {
      "inputs": [],
      "name": "InvalidParam",
      "type": "error"
    },
    {
      "inputs": [],
      "name": "InvalidSwapFee",
      "type": "error"
    },
    {
      "inputs": [],
      "name": "InvalidTick",
      "type": "error"
    },
    {
      "inputs": [],
      "name": "LiquidityInsufficient",
      "type": "error"
    },
    {
      "inputs": [],
      "name": "LiquidityOverflow",
      "type": "error"
    },
    {
      "inputs": [],
      "name": "LiquidityZero",
      "type": "error"
    },
    {
      "inputs": [],
      "name": "Locked",
      "type": "error"
    },
    {
      "inputs": [],
      "name": "LowerEven",
      "type": "error"
    },
    {
      "inputs": [],
      "name": "NotAuthorized",
      "type": "error"
    },
    {
      "inputs": [],
      "name": "Overflow",
      "type": "error"
    },
    {
      "inputs": [],
      "name": "PriceOutOfBounds",
      "type": "error"
    },
    {
      "inputs": [],
      "name": "TickOutOfBounds",
      "type": "error"
    },
    {
      "inputs": [],
      "name": "Token0Missing",
      "type": "error"
    },
    {
      "inputs": [],
      "name": "Token1Missing",
      "type": "error"
    },
    {
      "inputs": [],
      "name": "UpperOdd",
      "type": "error"
    },
    {
      "inputs": [],
      "name": "ZeroAddress",
      "type": "error"
    },
    {
      "anonymous": false,
      "inputs": [
        {
          "indexed": false,
          "internalType": "address",
          "name": "token",
          "type": "address"
        },
        {
          "indexed": false,
          "internalType": "uint256",
          "name": "amount",
          "type": "uint256"
        },
        {
          "indexed": false,
          "internalType": "uint256",
          "name": "startTime",
          "type": "uint256"
        },
        {
          "indexed": false,
          "internalType": "uint256",
          "name": "period",
          "type": "uint256"
        }
      ],
      "name": "DistributeReward",
      "type": "event"
    },
    {
      "inputs": [],
      "name": "airdrop0PerSecond",
      "outputs": [
        {
          "internalType": "uint256",
          "name": "",
          "type": "uint256"
        }
      ],
      "stateMutability": "view",
      "type": "function"
    },
    {
      "inputs": [],
      "name": "airdrop1PerSecond",
      "outputs": [
        {
          "internalType": "uint256",
          "name": "",
          "type": "uint256"
        }
      ],
      "stateMutability": "view",
      "type": "function"
    },
    {
      "inputs": [],
      "name": "airdropPeriod",
      "outputs": [
        {
          "internalType": "uint256",
          "name": "",
          "type": "uint256"
        }
      ],
      "stateMutability": "view",
      "type": "function"
    },
    {
      "inputs": [],
      "name": "airdropStartTime",
      "outputs": [
        {
          "internalType": "uint256",
          "name": "",
          "type": "uint256"
        }
      ],
      "stateMutability": "view",
      "type": "function"
    },
    {
      "inputs": [
        {
          "internalType": "int24",
          "name": "lower",
          "type": "int24"
        },
        {
          "internalType": "int24",
          "name": "upper",
          "type": "int24"
        },
        {
          "internalType": "uint128",
          "name": "amount",
          "type": "uint128"
        }
      ],
      "name": "burn",
      "outputs": [
        {
          "internalType": "uint256",
          "name": "token0Amount",
          "type": "uint256"
        },
        {
          "internalType": "uint256",
          "name": "token1Amount",
          "type": "uint256"
        }
      ],
      "stateMutability": "nonpayable",
      "type": "function"
    },
    {
      "inputs": [
        {
          "internalType": "int24",
          "name": "lower",
          "type": "int24"
        },
        {
          "internalType": "int24",
          "name": "upper",
          "type": "int24"
        },
        {
          "internalType": "uint256",
          "name": "desiredToken0Fees",
          "type": "uint256"
        },
        {
          "internalType": "uint256",
          "name": "desiredToken1Fees",
          "type": "uint256"
        }
      ],
      "name": "collect",
      "outputs": [
        {
          "internalType": "uint256",
          "name": "token0Fees",
          "type": "uint256"
        },
        {
          "internalType": "uint256",
          "name": "token1Fees",
          "type": "uint256"
        }
      ],
      "stateMutability": "nonpayable",
      "type": "function"
    },
    {
      "inputs": [],
      "name": "collectProtocolFee",
      "outputs": [
        {
          "internalType": "uint128",
          "name": "amount0",
          "type": "uint128"
        },
        {
          "internalType": "uint128",
          "name": "amount1",
          "type": "uint128"
        }
      ],
      "stateMutability": "nonpayable",
      "type": "function"
    },
    {
      "inputs": [
        {
          "internalType": "int24",
          "name": "lower",
          "type": "int24"
        },
        {
          "internalType": "int24",
          "name": "upper",
          "type": "int24"
        },
        {
          "internalType": "uint256",
          "name": "desiredReward",
          "type": "uint256"
        }
      ],
      "name": "collectReward",
      "outputs": [
        {
          "internalType": "uint256",
          "name": "rewardAmount",
          "type": "uint256"
        }
      ],
      "stateMutability": "nonpayable",
      "type": "function"
    },
    {
      "inputs": [],
      "name": "createdBlockNumber",
      "outputs": [
        {
          "internalType": "uint256",
          "name": "",
          "type": "uint256"
        }
      ],
      "stateMutability": "view",
      "type": "function"
    },
    {
      "inputs": [],
      "name": "createdTime",
      "outputs": [
        {
          "internalType": "uint256",
          "name": "",
          "type": "uint256"
        }
      ],
      "stateMutability": "view",
      "type": "function"
    },
    {
      "inputs": [
        {
          "internalType": "uint128",
          "name": "airdrop0",
          "type": "uint128"
        },
        {
          "internalType": "uint128",
          "name": "airdrop1",
          "type": "uint128"
        },
        {
          "internalType": "uint128",
          "name": "reward",
          "type": "uint128"
        },
        {
          "internalType": "uint256",
          "name": "startTime",
          "type": "uint256"
        },
        {
          "internalType": "uint256",
          "name": "period",
          "type": "uint256"
        }
      ],
      "name": "depositAirdropAndReward",
      "outputs": [],
      "stateMutability": "nonpayable",
      "type": "function"
    },
    {
      "inputs": [],
      "name": "depositedReward",
      "outputs": [
        {
          "internalType": "uint128",
          "name": "",
          "type": "uint128"
        }
      ],
      "stateMutability": "view",
      "type": "function"
    },
    {
      "inputs": [],
      "name": "factory",
      "outputs": [
        {
          "internalType": "address",
          "name": "",
          "type": "address"
        }
      ],
      "stateMutability": "view",
      "type": "function"
    },
    {
      "inputs": [],
      "name": "feeGrowthGlobal0",
      "outputs": [
        {
          "internalType": "uint256",
          "name": "",
          "type": "uint256"
        }
      ],
      "stateMutability": "view",
      "type": "function"
    },
    {
      "inputs": [],
      "name": "feeGrowthGlobal1",
      "outputs": [
        {
          "internalType": "uint256",
          "name": "",
          "type": "uint256"
        }
      ],
      "stateMutability": "view",
      "type": "function"
    },
    {
      "inputs": [
        {
          "internalType": "address",
          "name": "recipient",
          "type": "address"
        },
        {
          "internalType": "uint256",
          "name": "amount0",
          "type": "uint256"
        },
        {
          "internalType": "uint256",
          "name": "amount1",
          "type": "uint256"
        },
        {
          "internalType": "bytes",
          "name": "data",
          "type": "bytes"
        }
      ],
      "name": "flash",
      "outputs": [],
      "stateMutability": "nonpayable",
      "type": "function"
    },
    {
      "inputs": [],
      "name": "getAssets",
      "outputs": [
        {
          "internalType": "address[]",
          "name": "assets",
          "type": "address[]"
        }
      ],
      "stateMutability": "view",
      "type": "function"
    },
    {
      "inputs": [],
      "name": "getImmutables",
      "outputs": [
        {
          "internalType": "uint128",
          "name": "_MAX_TICK_LIQUIDITY",
          "type": "uint128"
        },
        {
          "internalType": "uint24",
          "name": "_tickSpacing",
          "type": "uint24"
        },
        {
          "internalType": "uint24",
          "name": "_swapFee",
          "type": "uint24"
        },
        {
          "internalType": "address",
          "name": "_factory",
          "type": "address"
        },
        {
          "internalType": "address",
          "name": "_masterDeployer",
          "type": "address"
        },
        {
          "internalType": "address",
          "name": "_token0",
          "type": "address"
        },
        {
          "internalType": "address",
          "name": "_token1",
          "type": "address"
        }
      ],
      "stateMutability": "view",
      "type": "function"
    },
    {
      "inputs": [],
      "name": "getPriceAndNearestTicks",
      "outputs": [
        {
          "internalType": "uint160",
          "name": "_price",
          "type": "uint160"
        },
        {
          "internalType": "int24",
          "name": "_nearestTick",
          "type": "int24"
        }
      ],
      "stateMutability": "view",
      "type": "function"
    },
    {
      "inputs": [],
      "name": "getReserves",
      "outputs": [
        {
          "internalType": "uint128",
          "name": "_reserve0",
          "type": "uint128"
        },
        {
          "internalType": "uint128",
          "name": "_reserve1",
          "type": "uint128"
        }
      ],
      "stateMutability": "view",
      "type": "function"
    },
    {
      "inputs": [],
      "name": "getSecondsGrowthAndLastObservation",
      "outputs": [
        {
          "internalType": "uint160",
          "name": "_secondsGrowthGlobal",
          "type": "uint160"
        },
        {
          "internalType": "uint32",
          "name": "_lastObservation",
          "type": "uint32"
        }
      ],
      "stateMutability": "view",
      "type": "function"
    },
    {
      "inputs": [],
      "name": "getTokenProtocolFees",
      "outputs": [
        {
          "internalType": "uint128",
          "name": "_token0ProtocolFee",
          "type": "uint128"
        },
        {
          "internalType": "uint128",
          "name": "_token1ProtocolFee",
          "type": "uint128"
        }
      ],
      "stateMutability": "view",
      "type": "function"
    },
    {
      "inputs": [
        {
          "internalType": "bytes",
          "name": "_deployData",
          "type": "bytes"
        },
        {
          "internalType": "address",
          "name": "_masterDeployer",
          "type": "address"
        }
      ],
      "name": "initialize",
      "outputs": [],
      "stateMutability": "nonpayable",
      "type": "function"
    },
    {
      "inputs": [],
      "name": "liquidity",
      "outputs": [
        {
          "internalType": "uint128",
          "name": "",
          "type": "uint128"
        }
      ],
      "stateMutability": "view",
      "type": "function"
    },
    {
      "inputs": [
        {
          "components": [
            {
              "internalType": "int24",
              "name": "lowerOld",
              "type": "int24"
            },
            {
              "internalType": "int24",
              "name": "lower",
              "type": "int24"
            },
            {
              "internalType": "int24",
              "name": "upperOld",
              "type": "int24"
            },
            {
              "internalType": "int24",
              "name": "upper",
              "type": "int24"
            },
            {
              "internalType": "uint128",
              "name": "amount0Desired",
              "type": "uint128"
            },
            {
              "internalType": "uint128",
              "name": "amount1Desired",
              "type": "uint128"
            }
          ],
          "internalType": "struct IConcentratedLiquidityPoolStruct.MintParams",
          "name": "mintParams",
          "type": "tuple"
        }
      ],
      "name": "mint",
      "outputs": [
        {
          "internalType": "uint256",
          "name": "liquidityMinted",
          "type": "uint256"
        }
      ],
      "stateMutability": "nonpayable",
      "type": "function"
    },
    {
      "inputs": [],
      "name": "nearestTick",
      "outputs": [
        {
          "internalType": "int24",
          "name": "",
          "type": "int24"
        }
      ],
      "stateMutability": "view",
      "type": "function"
    },
    {
      "inputs": [
        {
          "internalType": "address",
          "name": "",
          "type": "address"
        },
        {
          "internalType": "int24",
          "name": "",
          "type": "int24"
        },
        {
          "internalType": "int24",
          "name": "",
          "type": "int24"
        }
      ],
      "name": "positionRewards",
      "outputs": [
        {
          "internalType": "uint256",
          "name": "rewardGrowthInsideLast",
          "type": "uint256"
        },
        {
          "internalType": "uint128",
          "name": "rewardOwed",
          "type": "uint128"
        }
      ],
      "stateMutability": "view",
      "type": "function"
    },
    {
      "inputs": [
        {
          "internalType": "address",
          "name": "",
          "type": "address"
        },
        {
          "internalType": "int24",
          "name": "",
          "type": "int24"
        },
        {
          "internalType": "int24",
          "name": "",
          "type": "int24"
        }
      ],
      "name": "positions",
      "outputs": [
        {
          "internalType": "uint128",
          "name": "liquidity",
          "type": "uint128"
        },
        {
          "internalType": "uint256",
          "name": "feeGrowthInside0Last",
          "type": "uint256"
        },
        {
          "internalType": "uint256",
          "name": "feeGrowthInside1Last",
          "type": "uint256"
        },
        {
          "internalType": "uint128",
          "name": "feeOwed0",
          "type": "uint128"
        },
        {
          "internalType": "uint128",
          "name": "feeOwed1",
          "type": "uint128"
        }
      ],
      "stateMutability": "view",
      "type": "function"
    },
    {
      "inputs": [],
      "name": "price",
      "outputs": [
        {
          "internalType": "uint160",
          "name": "",
          "type": "uint160"
        }
      ],
      "stateMutability": "view",
      "type": "function"
    },
    {
      "inputs": [],
      "name": "protocolFee",
      "outputs": [
        {
          "internalType": "uint256",
          "name": "",
          "type": "uint256"
        }
      ],
      "stateMutability": "view",
      "type": "function"
    },
    {
      "inputs": [
        {
          "internalType": "int24",
          "name": "lowerTick",
          "type": "int24"
        },
        {
          "internalType": "int24",
          "name": "upperTick",
          "type": "int24"
        }
      ],
      "name": "rangeFeeGrowth",
      "outputs": [
        {
          "internalType": "uint256",
          "name": "feeGrowthInside0",
          "type": "uint256"
        },
        {
          "internalType": "uint256",
          "name": "feeGrowthInside1",
          "type": "uint256"
        }
      ],
      "stateMutability": "view",
      "type": "function"
    },
    {
      "inputs": [
        {
          "internalType": "int24",
          "name": "lowerTick",
          "type": "int24"
        },
        {
          "internalType": "int24",
          "name": "upperTick",
          "type": "int24"
        }
      ],
      "name": "rangeRewardGrowth",
      "outputs": [
        {
          "internalType": "uint256",
          "name": "rewardGrowthInside",
          "type": "uint256"
        }
      ],
      "stateMutability": "view",
      "type": "function"
    },
    {
      "inputs": [
        {
          "internalType": "address",
          "name": "_logger",
          "type": "address"
        }
      ],
      "name": "registerLogger",
      "outputs": [],
      "stateMutability": "nonpayable",
      "type": "function"
    },
    {
      "inputs": [],
      "name": "rewardGrowthGlobal",
      "outputs": [
        {
          "internalType": "uint256",
          "name": "",
          "type": "uint256"
        }
      ],
      "stateMutability": "view",
      "type": "function"
    },
    {
      "inputs": [
        {
          "internalType": "int24",
          "name": "",
          "type": "int24"
        }
      ],
      "name": "rewardGrowthOutsidePerTicks",
      "outputs": [
        {
          "internalType": "uint256",
          "name": "",
          "type": "uint256"
        }
      ],
      "stateMutability": "view",
      "type": "function"
    },
    {
      "inputs": [],
      "name": "rewardPerSecond",
      "outputs": [
        {
          "internalType": "uint256",
          "name": "",
          "type": "uint256"
        }
      ],
      "stateMutability": "view",
      "type": "function"
    },
    {
      "inputs": [],
      "name": "rewardToken",
      "outputs": [
        {
          "internalType": "address",
          "name": "",
          "type": "address"
        }
      ],
      "stateMutability": "view",
      "type": "function"
    },
    {
      "inputs": [
        {
          "internalType": "uint160",
          "name": "_price",
          "type": "uint160"
        }
      ],
      "name": "setPrice",
      "outputs": [],
      "stateMutability": "nonpayable",
      "type": "function"
    },
    {
      "inputs": [
        {
          "internalType": "uint256",
          "name": "_protocolFee",
          "type": "uint256"
        }
      ],
      "name": "setProtocolFee",
      "outputs": [],
      "stateMutability": "nonpayable",
      "type": "function"
    },
    {
      "inputs": [
        {
          "internalType": "bytes",
          "name": "data",
          "type": "bytes"
        }
      ],
      "name": "swap",
      "outputs": [
        {
          "internalType": "uint256",
          "name": "amountOut",
          "type": "uint256"
        }
      ],
      "stateMutability": "nonpayable",
      "type": "function"
    },
    {
      "inputs": [],
      "name": "swapFee",
      "outputs": [
        {
          "internalType": "uint24",
          "name": "",
          "type": "uint24"
        }
      ],
      "stateMutability": "view",
      "type": "function"
    },
    {
      "inputs": [],
      "name": "swapFeeGrowthGlobal0",
      "outputs": [
        {
          "internalType": "uint256",
          "name": "",
          "type": "uint256"
        }
      ],
      "stateMutability": "view",
      "type": "function"
    },
    {
      "inputs": [],
      "name": "swapFeeGrowthGlobal1",
      "outputs": [
        {
          "internalType": "uint256",
          "name": "",
          "type": "uint256"
        }
      ],
      "stateMutability": "view",
      "type": "function"
    },
    {
      "inputs": [],
      "name": "tickSpacing",
      "outputs": [
        {
          "internalType": "uint24",
          "name": "",
          "type": "uint24"
        }
      ],
      "stateMutability": "view",
      "type": "function"
    },
    {
      "inputs": [
        {
          "internalType": "int24",
          "name": "",
          "type": "int24"
        }
      ],
      "name": "ticks",
      "outputs": [
        {
          "internalType": "int24",
          "name": "previousTick",
          "type": "int24"
        },
        {
          "internalType": "int24",
          "name": "nextTick",
          "type": "int24"
        },
        {
          "internalType": "uint128",
          "name": "liquidity",
          "type": "uint128"
        },
        {
          "internalType": "uint256",
          "name": "feeGrowthOutside0",
          "type": "uint256"
        },
        {
          "internalType": "uint256",
          "name": "feeGrowthOutside1",
          "type": "uint256"
        },
        {
          "internalType": "uint160",
          "name": "secondsGrowthOutside",
          "type": "uint160"
        }
      ],
      "stateMutability": "view",
      "type": "function"
    },
    {
      "inputs": [],
      "name": "token0",
      "outputs": [
        {
          "internalType": "address",
          "name": "",
          "type": "address"
        }
      ],
      "stateMutability": "view",
      "type": "function"
    },
    {
      "inputs": [],
      "name": "token1",
      "outputs": [
        {
          "internalType": "address",
          "name": "",
          "type": "address"
        }
      ],
      "stateMutability": "view",
      "type": "function"
    },
    {
      "inputs": [],
      "name": "totalTicks",
      "outputs": [
        {
          "internalType": "uint256",
          "name": "",
          "type": "uint256"
        }
      ],
      "stateMutability": "view",
      "type": "function"
    }
  ],
  "transactionHash": "0xd81ee0f1fa82c96e65ae28448df98b51d19876a16dedea0a12f4785caecb35de",
  "args": [],
  "numDeployments": 1,
  "solcInputHash": "890788fd4e19151a65994ee809311d27",
  "bytecode": "0x608060405234801561001057600080fd5b50615a7080620000216000396000f3fe608060405234801561001057600080fd5b50600436106103205760003560e01c8063a34123a7116101a7578063cf78756b116100ee578063f30dba9311610097578063f949e8b711610071578063f949e8b7146108e0578063fa1a169c146108e8578063fb5d80b3146108f157600080fd5b8063f30dba93146107c4578063f719dac61461086f578063f7c618c1146108cd57600080fd5b8063d5514792116100c8578063d55147921461077e578063d90bda4e1461079e578063e5ff7f46146107b157600080fd5b8063cf78756b1461074e578063d0c93a7c14610756578063d21220a71461076b57600080fd5b8063bd7d1eea11610150578063caa4b46a1161012a578063caa4b46a14610720578063cce2df0314610728578063cf5431531461073b57600080fd5b8063bd7d1eea146106e7578063c03c2514146106fa578063c45a01551461070d57600080fd5b8063b0e21e8a11610181578063b0e21e8a1461062a578063b2f4bdb014610633578063bcdb4dad1461063c57600080fd5b8063a34123a714610572578063aaca1b4d14610585578063acfe88f81461061757600080fd5b806367e4ac2c1161026b5780638c347f9b116102145780639da12096116101ee5780639da1209614610530578063a00e8f2914610538578063a035b1fe1461055f57600080fd5b80638c347f9b146104f55780638f10369a1461051e578063956afe451461052757600080fd5b8063735541d111610245578063735541d1146104d0578063787dce3d146104d957806384e02017146104ec57600080fd5b806367e4ac2c146104865780636d59d8021461049b57806370ed1b86146104c757600080fd5b80632df94b0f116102cd57806354cf2aeb116102a757806354cf2aeb1461043e578063627dd56a1461046a57806366f657c51461047d57600080fd5b80632df94b0f146103f857806340306fb614610420578063490e6cbc1461042957600080fd5b80630dfe1681116102fe5780630dfe168114610399578063111ba27d146103c45780631a686502146103cd57600080fd5b806306f912f3146103255780630902f1ac1461034b5780630ae9ba8a14610386575b600080fd5b610338610333366004614fee565b610910565b6040519081526020015b60405180910390f35b6014546015546001600160801b03600160801b909204821691165b604080516001600160801b03938416815292909116602083015201610342565b61033861039436600461505c565b610978565b6003546103ac906001600160a01b031681565b6040516001600160a01b039091168152602001610342565b610338601e5481565b6006546103e0906001600160801b031681565b6040516001600160801b039091168152602001610342565b61040b610406366004615103565b610f2c565b60408051928352602083019190915201610342565b610338600e5481565b61043c61043736600461515e565b6110ab565b005b6000546104569065010000000000900462ffffff1681565b60405162ffffff9091168152602001610342565b610338610478366004615281565b6114c4565b610338600c5481565b61048e611ba4565b60405161034291906152fa565b600754604080516001600160a01b0383168152600160a01b90920463ffffffff16602083015201610342565b61033860095481565b61033860185481565b61043c6104e736600461530d565b611c38565b610338600d5481565b601654604080516001600160a01b0383168152600160a01b90920460020b602083015201610342565b61033860125481565b610338600f5481565b610338611c8b565b60165461054c90600160a01b900460020b81565b60405160029190910b8152602001610342565b6016546103ac906001600160a01b031681565b61040b610580366004615326565b611ca3565b6105e161059336600461536d565b601b60209081526000938452604080852082529284528284209052825290208054600182015460028301546003909301546001600160801b0392831693919281811691600160801b90041685565b604080516001600160801b039687168152602081019590955284019290925283166060830152909116608082015260a001610342565b61040b6106253660046153b8565b612050565b610338601f5481565b610338601d5481565b6106926000546005546001546003546004546001600160801b03680100000000000000008604169562ffffff62010000870481169665010000000000900416946001600160a01b03908116948116938116921690565b604080516001600160801b03909816885262ffffff968716602089015295909416948601949094526001600160a01b0391821660608601528116608085015291821660a08401521660c082015260e001610342565b61043c6106f53660046153f1565b612372565b6103386107083660046153b8565b6123cc565b6005546103ac906001600160a01b031681565b6103666124d7565b61043c61073636600461540e565b61288c565b61043c610749366004615455565b612df1565b610338613155565b6000546104569062010000900462ffffff1681565b6004546103ac906001600160a01b031681565b61033861078c3660046154aa565b601a6020526000908152604090205481565b61043c6107ac3660046153f1565b613168565b6013546103e0906001600160801b031681565b6108246107d23660046154aa565b60196020526000908152604090208054600182015460028084015460039094015483820b946301000000850490920b93660100000000000090046001600160801b03169291906001600160a01b031686565b60408051600297880b81529590960b60208601526001600160801b0390931694840194909452606083015260808201929092526001600160a01b0390911660a082015260c001610342565b6108b061087d36600461536d565b601c602090815260009384526040808520825292845282842090528252902080546001909101546001600160801b031682565b604080519283526001600160801b03909116602083015201610342565b6010546103ac906001600160a01b031681565b61033861320e565b61033860085481565b6013546014546001600160801b03600160801b90920482169116610366565b600060175460021415610936576040516303cb96db60e21b815260040160405180910390fd5b6002601755610946338585613220565b610952338585856132fe565b60105490915061096c906001600160a01b03168233613398565b60016017559392505050565b60006017546002141561099e576040516303cb96db60e21b815260040160405180910390fd5b6002601755602082015160608301516109b791906133ac565b60006109c68360200151613511565b6001600160a01b0316905060006109e08460600151613511565b60165460a086015160808701516001600160a01b0393841694509190921691610a1b918591859185916001600160801b03908116911661385d565b93506f7fffffffffffffffffffffffffffffff841115610a67576040517f35278d1200000000000000000000000000000000000000000000000000000000815260040160405180910390fd5b83610a9e576040517f83ecd22400000000000000000000000000000000000000000000000000000000815260040160405180910390fd5b610aa66138f1565b6000601973aCc9af149D4E4B75304eb865B3120aF152B3652C63825c72999091601a6040518060800160405280600a54600854610ae391906154dd565b8152602001600b54600954610af891906154dd565b81526020016011548152602001600760009054906101000a90046001600160a01b03166001600160a01b03168152508a600001518b602001518c604001518d606001518d601660149054906101000a900460020b8c6040518b63ffffffff1660e01b8152600401610b729a999897969594939291906154f5565b604080518083038186803b158015610b8957600080fd5b505af4158015610b9d573d6000803e3d6000fd5b505050506040513d601f19601f82011682018060405250810190610bc191906155b2565b6016805462ffffff909316600160a01b0262ffffff60a01b1990931692909217909155601880549192508291600090610bfb9084906154dd565b9250508190555050610c17338660200151876060015187613a2b565b808311158015610c2657508181105b15610c5657600680546001600160801b038082168701166fffffffffffffffffffffffffffffffff199091161790555b600080610c67858585896001613a53565b600354600480546040517f5f16529a0000000000000000000000000000000000000000000000000000000081526001600160a01b03938416928101929092529190911660248201526001600160801b0380841660448301528216606482015291935091503390635f16529a90608401600060405180830381600087803b158015610cf057600080fd5b505af1158015610d04573d6000803e3d6000fd5b50505050816001600160801b0316600014610db15781601460108282829054906101000a90046001600160801b0316610d3d91906155e0565b92506101000a8154816001600160801b0302191690836001600160801b03160217905550610d7f600360009054906101000a90046001600160a01b0316613abd565b601454600160801b90046001600160801b03161115610db15760405163420231d560e11b815260040160405180910390fd5b6001600160801b03811615610e4b5760158054829190600090610dde9084906001600160801b03166155e0565b92506101000a8154816001600160801b0302191690836001600160801b03160217905550610e20600460009054906101000a90046001600160a01b0316613abd565b6015546001600160801b03161115610e4b57604051637218102160e11b815260040160405180910390fd5b600280546040805160a08101825260208b810151850b82526060808d0151860b9183019182526001600160801b03888116848601908152908816918401918252608084018d815294517ffbad73910000000000000000000000000000000000000000000000000000000081529351870b6004850152915190950b6024830152516044820152925160648401525160848301526001600160a01b03169063fbad73919060a401600060405180830381600087803b158015610f0a57600080fd5b505af1925050508015610f1b575060015b505050600160175550919392505050565b60008060175460021415610f53576040516303cb96db60e21b815260040160405180910390fd5b6002601755610f63338787613bbb565b610f703387878787613cea565b601480549294509092508391601090610f9a908490600160801b90046001600160801b031661560b565b92506101000a8154816001600160801b0302191690836001600160801b0316021790555080601560008282829054906101000a90046001600160801b0316610fe2919061560b565b92506101000a8154816001600160801b0302191690836001600160801b03160217905550611011338383613df5565b6002546040805180820182528481526020810184815291517f1228c47f00000000000000000000000000000000000000000000000000000000815290516004820152905160248201526001600160a01b0390911690631228c47f90604401600060405180830381600087803b15801561108957600080fd5b505af192505050801561109a575060015b506001601755909590945092505050565b601754600214156110cf576040516303cb96db60e21b815260040160405180910390fd5b60026017556006546001600160801b031680611117576040517f83ecd22400000000000000000000000000000000000000000000000000000000815260040160405180910390fd5b6014546015546001600160801b03600160801b9092048216911661113c888888613df5565b60008061115b8989600060059054906101000a900462ffffff16613e23565b6040517fc3924ed60000000000000000000000000000000000000000000000000000000081529193509150339063c3924ed6906111a290859085908c908c90600401615633565b600060405180830381600087803b1580156111bc57600080fd5b505af11580156111d0573d6000803e3d6000fd5b50506003546000925082915081906111f0906001600160a01b0316613abd565b60045490915060009061120b906001600160a01b0316613abd565b905081611218878a6154dd565b11156112375760405163420231d560e11b815260040160405180910390fd5b8061124286896154dd565b111561126157604051637218102160e11b815260040160405180910390fd5b61126a82613e58565b601480546001600160801b03928316600160801b02921691909117905561129081613e58565b601580546fffffffffffffffffffffffffffffffff19166001600160801b03929092169190911790556112c38883615670565b93506112cf8782615670565b601f5490935091505082156113725760006112ed8483612710613e73565b905080601360108282829054906101000a90046001600160801b031661131391906155e0565b92506101000a8154816001600160801b0302191690836001600160801b0316021790555061135a816001600160801b03168561134f9190615670565b600160801b8b613eb1565b6008600082825461136b91906154dd565b9091555050505b81156113fb5760006113878383612710613e73565b6014805491925082916000906113a79084906001600160801b03166155e0565b92506101000a8154816001600160801b0302191690836001600160801b031602179055506113e3816001600160801b03168461134f9190615670565b600960008282546113f491906154dd565b9091555050505b6002546040805160a081018252338152602081018f81528183018f8152606083018881526080840188815294517f2987fbcc00000000000000000000000000000000000000000000000000000000815293516001600160a01b039081166004860152925160248501529051604484015251606483015291516084820152911690632987fbcc9060a401600060405180830381600087803b15801561149e57600080fd5b505af19250505080156114af575060015b50505060016017555050505050505050505050565b6000601754600214156114ea576040516303cb96db60e21b815260040160405180910390fd5b6002601781905550600080838060200190518101906115099190615697565b91509150600082611525576015546001600160801b0316611539565b601454600160801b90046001600160801b03165b6001600160801b031661156c8461155b576004546001600160a01b0316613abd565b6003546001600160a01b0316613abd565b6115769190615670565b90506000604051806101200160405280600081526020016000815260200160008152602001856115a8576008546115ac565b6009545b8152602001856115be576009546115c2565b6008545b81526016546001600160a01b031660208201526006546001600160801b03166040820152606081018490526080018561162157601654600160a01b9004600290810b60009081526019602052604090205463010000009004900b61162f565b601654600160a01b900460020b5b60020b9052905061163e6138f1565b60115461164a82613f64565b60e0820151156119dd576000611664836101000151613511565b6001600160a01b03169050600080871561179557600061168f8660c00151858860a001516000613fdb565b9050808660e00151116117555760c086015160a087015160e088015160609290921b916000916116d5918491906116c690826156c3565b6116d090866154dd565b613e73565b90508086111580156116ea57508760a0015181105b6117285761171c828960e001518a60a001518561170791906156f8565b61171191906154dd565b808204910615150190565b6001600160a01b031690505b61173d8860c00151828a60a001516000614033565b60a0890191909152600060e0890152935061178f9050565b61176a8660c00151858860a001516000614033565b60a0870185905260e08701805191945060019350829161178b908390615670565b9052505b5061184a565b60006117ac8660c001518760a00151866000614033565b9050808660e001511161180e5760006117d28760e00151600160601b8960c00151613eb1565b8760a001516117e191906154dd565b90506117f88760c001518860a00151836000613fdb565b60a0880191909152600060e08801529250611848565b6118238660c001518760a00151866000613fdb565b60a0870185905260e087018051919450600193508291611844908390615670565b9052505b505b60c08501511561189c5761188782600060059054906101000a900462ffffff16601f548860c0015189602001518e8b604001518c6060015161405d565b60608901526040880152602087019190915298505b80156119d5576118ad85858a6140f5565b60c08501516119d55761010085015160020b620d89e71914806118e657506118d8620d89e71961570c565b60020b85610100015160020b145b156119ae5787156119395761191060018660a001516119059190615670565b6401000276a36141ad565b60a086015261010085018051600290810b600090815260196020526040902054900b90526119a6565b61197a8560a00151600161194d91906154dd565b61196c600173fffd8963efd1fc6a506488495d951d5263988d2661572f565b6001600160a01b03166141c4565b60a086015261010085018051600290810b60009081526019602052604090205463010000009004900b90525b5050506119dd565b6119bc856101000151613511565b6001600160a01b031660a08601526119d585858a6140f5565b50505061164a565b60a08201516016805473ffffffffffffffffffffffffffffffffffffffff19166001600160a01b03909216919091179055600085611a3657610100830151600290810b600090815260196020526040902054900b611a3d565b8261010001515b601654909150600282810b600160a01b909204900b14611aa1576016805462ffffff60a01b1916600160a01b62ffffff84160217905560c0830151600680546fffffffffffffffffffffffffffffffff19166001600160801b039092169190911790555b611aac8685896141d3565b611abf8684606001518560400151614335565b8515611ae157600454611adc906001600160a01b03168887613398565b611af8565b600354611af8906001600160a01b03168887613398565b600254604080516060810182528815158152602081018781528183018b815292517f91accd5f000000000000000000000000000000000000000000000000000000008152915115156004830152516024820152905160448201526001600160a01b03909116906391accd5f90606401600060405180830381600087803b158015611b8157600080fd5b505af1925050508015611b92575060015b50505060016017555092949350505050565b6040805160028082526060808301845292602083019080368337505060035482519293506001600160a01b031691839150600090611be457611be461574f565b6001600160a01b039283166020918202929092010152600454825191169082906001908110611c1557611c1561574f565b60200260200101906001600160a01b031690816001600160a01b03168152505090565b6005546001600160a01b03163314611c635760405163ea8e4eb560e01b815260040160405180910390fd5b612710811115611c8657604051633494a40d60e21b815260040160405180910390fd5b601f55565b6000611c9e600854600a54600c546143b1565b905090565b60008060175460021415611cca576040516303cb96db60e21b815260040160405180910390fd5b60026017556000611cda86613511565b90506000611ce786613511565b6016549091506001600160a01b0316611cfe6138f1565b806001600160a01b0316836001600160a01b031611158015611d315750816001600160a01b0316816001600160a01b0316105b15611d6257600680546001600160801b03808216899003166fffffffffffffffffffffffffffffffff199091161790555b611d94836001600160a01b0316836001600160a01b0316836001600160a01b0316896001600160801b03166000613a53565b6001600160801b039182169650811694506f7fffffffffffffffffffffffffffffff9087161115611df1576040517f35278d1200000000000000000000000000000000000000000000000000000000815260040160405180910390fd5b611e05338989611e008a615765565b613a2b565b601480546001600160801b03600160801b808304821689900382160291811691909117909155601580548083168790039092166fffffffffffffffffffffffffffffffff1992909216919091179055611e5f338686613df5565b6016546040517f7c91cb9800000000000000000000000000000000000000000000000000000000815260196004820152601a602482015260028a810b604483015289810b60648301526001600160801b0389166084830152600160a01b90920490910b60a482015260009073aCc9af149D4E4B75304eb865B3120aF152B3652C90637c91cb989060c401604080518083038186803b158015611f0057600080fd5b505af4158015611f14573d6000803e3d6000fd5b505050506040513d601f19601f82011682018060405250810190611f3891906155b2565b6016805462ffffff909316600160a01b0262ffffff60a01b1990931692909217909155601880549192508291600090611f72908490615670565b9091555050600280546040805160a0810182528c840b81528b840b602082019081528183018b8152606083018b81526001600160801b038e166080850190815294517ffc9482d20000000000000000000000000000000000000000000000000000000081529351870b6004850152915190950b602483015293516044820152925160648401525160848301526001600160a01b0316915063fc9482d29060a401600060405180830381600087803b15801561202c57600080fd5b505af192505050801561203d575060015b5050506001601755509094909350915050565b6016546000908190819061206c906001600160a01b0316614411565b90506000601960008760020b60020b81526020019081526020016000206040518060c00160405290816000820160009054906101000a900460020b60020b60020b81526020016000820160039054906101000a900460020b60020b60020b81526020016000820160069054906101000a90046001600160801b03166001600160801b03166001600160801b0316815260200160018201548152602001600282015481526020016003820160009054906101000a90046001600160a01b03166001600160a01b03166001600160a01b03168152505090506000601960008760020b60020b81526020019081526020016000206040518060c00160405290816000820160009054906101000a900460020b60020b60020b81526020016000820160039054906101000a900460020b60020b60020b81526020016000820160069054906101000a90046001600160801b03166001600160801b03166001600160801b0316815260200160018201548152602001600282015481526020016003820160009054906101000a90046001600160a01b03166001600160a01b03166001600160a01b0316815250509050600080600080612243600660009054906101000a90046001600160801b03166001600160801b031661476a565b9150915081600a5460085461225891906154dd565b61226291906154dd565b935080600b5460095461227591906154dd565b61227f91906154dd565b925050506000808660020b8b60020b136122bb5760608601516122a290836154dd565b91508560800151816122b491906154dd565b90506122f3565b60608601516122ca9085615670565b6122d490836154dd565b91508560800151836122e69190615670565b6122f090826154dd565b90505b8960020b8760020b121561232957606085015161231090836154dd565b915084608001518161232291906154dd565b9050612361565b60608501516123389085615670565b61234290836154dd565b91508460800151836123549190615670565b61235e90826154dd565b90505b920399919003975095505050505050565b6005546001600160a01b0316331461239d5760405163ea8e4eb560e01b815260040160405180910390fd5b6002805473ffffffffffffffffffffffffffffffffffffffff19166001600160a01b0392909216919091179055565b60165460009081906123e6906001600160a01b0316614411565b600654909150600090612401906001600160801b03166147ad565b60115461240e91906154dd565b905060008260020b8660020b1361244457600286900b6000908152601a602052604090205461243d90826154dd565b905061246f565b600286900b6000908152601a60205260409020546124629083615670565b61246c90826154dd565b90505b8460020b8360020b12156124a257600285900b6000908152601a602052604090205461249b90826154dd565b90506124cd565b600285900b6000908152601a60205260409020546124c09083615670565b6124ca90826154dd565b90505b9003949350505050565b600080601754600214156124fe576040516303cb96db60e21b815260040160405180910390fd5b6002601755600154604080517fef36925200000000000000000000000000000000000000000000000000000000815290516000926001600160a01b03169163ef369252916004808301926020929190829003018186803b15801561256157600080fd5b505afa158015612575573d6000803e3d6000fd5b505050506040513d601f19601f82011682018060405250810190612599919061579b565b604080516002808252606082018352929350600092909160208301908036833750506040805160028082526060820183529394506000939092509060208301908036833701905050601354909150600160801b90046001600160801b0316156126ed57601380546001600160801b0380821690925560148054600160801b92839004841698508893919260109261263492869290041661560b565b92506101000a8154816001600160801b0302191690836001600160801b03160217905550612681600360009054906101000a90046001600160a01b0316866001600160801b031685613398565b60035482516001600160a01b039091169083906000906126a3576126a361574f565b60200260200101906001600160a01b031690816001600160a01b031681525050846001600160801b0316816000815181106126e0576126e061574f565b6020026020010181815250505b6014546001600160801b0316156127f657601480546fffffffffffffffffffffffffffffffff198116909155601580546001600160801b039283169650869260009161273b9185911661560b565b92506101000a8154816001600160801b0302191690836001600160801b03160217905550612788600460009054906101000a90046001600160a01b0316856001600160801b031685613398565b60045482516001600160a01b0390911690839060019081106127ac576127ac61574f565b60200260200101906001600160a01b031690816001600160a01b031681525050836001600160801b0316816001815181106127e9576127e961574f565b6020026020010181815250505b6001600160a01b0383163b15612880576040517ff03328300000000000000000000000000000000000000000000000000000000081526001600160a01b0384169063f03328309061284d90859085906004016157b8565b600060405180830381600087803b15801561286757600080fd5b505af115801561287b573d6000803e3d6000fd5b505050505b50505060016017559091565b600054610100900460ff166128a75760005460ff16156128ab565b303b155b6129225760405162461bcd60e51b815260206004820152602e60248201527f496e697469616c697a61626c653a20636f6e747261637420697320616c72656160448201527f647920696e697469616c697a656400000000000000000000000000000000000060648201526084015b60405180910390fd5b600054610100900460ff1615801561296157600080547fffffffffffffffffffffffffffffffffffffffffffffffffffffffffffff0000166101011790555b60008060008060008780602001905181019061297d9190615822565b600380546001600160a01b0380881673ffffffffffffffffffffffffffffffffffffffff199283161790925560048054838816908316179055601080548387169083161790556000805462ffffff80861662010000027fffffffffffffffffffffffffffffffffffffffffffffffffffffff000000ffff9188166501000000000002919091167fffffffffffffffffffffffffffffffffffffffffffffffff000000000000ffff909216919091171790556005805482163317905560018054928f1692909116919091179055939850919650945092509050612a5e816147d5565b600060086101000a8154816001600160801b0302191690836001600160801b031602179055506040518060c00160405280620d89e71960020b8152602001620d89e719612aaa9061570c565b60020b815260006020808301829052604080840183905260608085018490526080948501849052620d89e719938490526019835285517f8b687876df6025befed93a16f72cd2848615619f141fc2441f1db80badfc7d3e805488860151898601516001600160801b03166601000000000000027fffffffffffffffffffff00000000000000000000000000000000ffffffffffff62ffffff92831663010000000265ffffffffffff19909416929095169190911791909117929092169190911790558501517f8b687876df6025befed93a16f72cd2848615619f141fc2441f1db80badfc7d3f55928401517f8b687876df6025befed93a16f72cd2848615619f141fc2441f1db80badfc7d405560a0909301517f8b687876df6025befed93a16f72cd2848615619f141fc2441f1db80badfc7d4180546001600160a01b039290921673ffffffffffffffffffffffffffffffffffffffff19909216919091179055815160c081019092528082529091820190612c259061570c565b60020b815260200160006001600160801b03168152602001600081526020016000815260200160006001600160a01b031681525060196000620d89e719612c6b9061570c565b600290810b8252602080830193909352604091820160002084518154948601519386015162ffffff91821665ffffffffffff199096169590951763010000009190941602929092177fffffffffffffffffffff00000000000000000000000000000000ffffffffffff1666010000000000006001600160801b0390941693909302929092178155606083015160018083019190915560808401518284015560a0909301516003909101805473ffffffffffffffffffffffffffffffffffffffff19166001600160a01b039092169190911790556016805462ffffff60a01b191676f276180000000000000000000000000000000000000000179055601791909155600780547fffffffffffffffff00000000ffffffffffffffffffffffffffffffffffffffff16600160a01b4263ffffffff81169190910291909117909155601891909155601d55505043601e55505081159050612dec57600080547fffffffffffffffffffffffffffffffffffffffffffffffffffffffffffff00ff1690555b505050565b60175460021415612e15576040516303cb96db60e21b815260040160405180910390fd5b6002601755600154604080517fd0a93173000000000000000000000000000000000000000000000000000000008152905133926001600160a01b03169163d0a931739160048083019260209291908290030181600087803b158015612e7957600080fd5b505af1158015612e8d573d6000803e3d6000fd5b505050506040513d601f19601f82011682018060405250810190612eb1919061579b565b6001600160a01b031614612ed85760405163ea8e4eb560e01b815260040160405180910390fd5b42612ee382846154dd565b11612f0157604051633494a40d60e21b815260040160405180910390fd5b600e54600f54600090612f1490836154dd565b905083811115612f3757604051633494a40d60e21b815260040160405180910390fd5b6001600160801b03871615612fae57600354612f65906001600160a01b03166001600160801b038916614815565b86601460108282829054906101000a90046001600160801b0316612f8991906155e0565b92506101000a8154816001600160801b0302191690836001600160801b031602179055505b6001600160801b0386161561301f57600454612fdc906001600160a01b03166001600160801b038816614815565b60158054879190600090612ffa9084906001600160801b03166155e0565b92506101000a8154816001600160801b0302191690836001600160801b031602179055505b6001600160801b0385161561304d5760105461304d906001600160a01b03166001600160801b038716614815565b600061305761482a565b11156130ef576130656138f1565b600754600160a01b900463ffffffff16818110156130ed57600061308982856141ad565b6130939084615670565b90506130a96130a4600c548361489a565b613e58565b6130b3908a6155e0565b98506130c46130a4600d548361489a565b6130ce90896155e0565b97506130df6130a46012548361489a565b6130e990886155e0565b9650505b505b613107876001600160801b0316600160801b85613eb1565b600c556131226001600160801b038716600160801b85613eb1565b600d5561313d6001600160801b038616600160801b85613eb1565b6012555050600e91909155600f555050600160175550565b6000611c9e600954600b54600d546143b1565b6005546001600160a01b031633146131935760405163ea8e4eb560e01b815260040160405180910390fd5b6016546001600160a01b0316156131d6576040517f2f282c6c00000000000000000000000000000000000000000000000000000000815260040160405180910390fd5b6131df816148ab565b6016805473ffffffffffffffffffffffffffffffffffffffff19166001600160a01b0392909216919091179055565b6000611c9e60006011546012546143b1565b6001600160a01b0383166000908152601c60209081526040808320600286810b85529083528184209085900b845290915281209061325e84846123cc565b82546001600160a01b0387166000908152601b6020908152604080832060028a810b85529083528184209089900b8452909152812054929350916132ad918403906001600160801b031661489a565b82845560018401805491925082916000906132d29084906001600160801b03166155e0565b92506101000a8154816001600160801b0302191690836001600160801b03160217905550505050505050565b6001600160a01b0384166000908152601c60209081526040808320600287810b85529083528184209086900b845290915281206001810154613349906001600160801b0316846141c4565b600182018054919350839160009061336b9084906001600160801b031661560b565b92506101000a8154816001600160801b0302191690836001600160801b0316021790555050949350505050565b612dec6001600160a01b038416828461491b565b6000546133c49062010000900462ffffff168361588f565b60020b156133fe576040517fce8ef7fc00000000000000000000000000000000000000000000000000000000815260040160405180910390fd5b6000546002906134199062010000900462ffffff16846158b1565b613423919061588f565b60020b1561345d576040517ffdf1420200000000000000000000000000000000000000000000000000000000815260040160405180910390fd5b6000546134759062010000900462ffffff168261588f565b60020b156134af576040517fce8ef7fc00000000000000000000000000000000000000000000000000000000815260040160405180910390fd5b6000546002906134ca9062010000900462ffffff16836158b1565b6134d4919061588f565b60020b61350d576040517fa9778c6300000000000000000000000000000000000000000000000000000000815260040160405180910390fd5b5050565b60008060008360020b12613528578260020b613535565b8260020b613535906158eb565b9050613544620d89e71961570c565b62ffffff16811115613582576040517ff87dc40c00000000000000000000000000000000000000000000000000000000815260040160405180910390fd5b60006001821661359657600160801b6135a8565b6ffffcb933bd6fad37aa2d162d1a5940015b70ffffffffffffffffffffffffffffffffff16905060028216156135dc576ffff97272373d413259a46990580e213a0260801c5b60048216156135fb576ffff2e50f5f656932ef12357cf3c7fdcc0260801c5b600882161561361a576fffe5caca7e10e4e61c3624eaa0941cd00260801c5b6010821615613639576fffcb9843d60f6159c9db58835c9266440260801c5b6020821615613658576fff973b41fa98c081472e6896dfb254c00260801c5b6040821615613677576fff2ea16466c96a3843ec78b326b528610260801c5b6080821615613696576ffe5dee046a99a2a811c461f1969c30530260801c5b6101008216156136b6576ffcbe86c7900a88aedcffc83b479aa3a40260801c5b6102008216156136d6576ff987a7253ac413176f2b074cf7815e540260801c5b6104008216156136f6576ff3392b0822b70005940c7a398e4b70f30260801c5b610800821615613716576fe7159475a2c29b7443b29c7fa6e889d90260801c5b611000821615613736576fd097f3bdfd2022b8845ad8f792aa58250260801c5b612000821615613756576fa9f746462d870fdf8a65dc1f90e061e50260801c5b614000821615613776576f70d869a156d2a1b890bb3df62baf32f70260801c5b618000821615613796576f31be135f97d08fd981231505542fcfa60260801c5b620100008216156137b7576f09aa508b5b7a84e1c677de54f3e99bc90260801c5b620200008216156137d7576e5d6af8dedb81196699c329225ee6040260801c5b620400008216156137f6576d2216e584f5fa1ea926041bedfe980260801c5b62080000821615613813576b048a170391f7dc42444e8fa20260801c5b60008460020b1315613834578060001981613830576138306156e2565b0490505b64010000000081061561384857600161384b565b60005b60ff16602082901c0192505050919050565b600083851161387e5761387783600160601b888803613eb1565b90506138e8565b8584116138a057613877826138988888600160601b613eb1565b888803613eb1565b60006138bd836138b58888600160601b613eb1565b878903613eb1565b905060006138d285600160601b8a8903613eb1565b90508082106138e157806138e3565b815b925050505b95945050505050565b6006546001600160801b0316806139055750565b600754600160a01b900463ffffffff16428110613920575050565b600061392a61482a565b9050801561399e5761393f600c548285613eb1565b600a600082825461395091906154dd565b9091555050600d54613963908285613eb1565b600b600082825461397491906154dd565b9091555050601254613987908285613eb1565b6011600082825461399891906154dd565b90915550505b6007805463ffffffff42908116600160a01b027fffffffffffffffff00000000ffffffffffffffffffffffffffffffffffffffff90921691909117909155839083900360801b816139f1576139f16156e2565b6007805473ffffffffffffffffffffffffffffffffffffffff198116939092046001600160a01b0392831601909116919091179055505050565b613a36848484613bbb565b613a41848484613220565b613a4d848484846149c4565b50505050565b600080848611613a7357613a6c6130a485898987614033565b9050613ab3565b868511613a9057613a896130a485898987613fdb565b9150613ab3565b613a9f6130a485878987613fdb565b9150613ab06130a485898887614033565b90505b9550959350505050565b604080513060248083019190915282518083039091018152604490910182526020810180517bffffffffffffffffffffffffffffffffffffffffffffffffffffffff167f70a08231000000000000000000000000000000000000000000000000000000001790529051600091829182916001600160a01b03861691613b429190615950565b600060405180830381855afa9150503d8060008114613b7d576040519150601f19603f3d011682016040523d82523d6000602084013e613b82565b606091505b5091509150818015613b9657506020815110155b613b9f57600080fd5b80806020019051810190613bb3919061596c565b949350505050565b6001600160a01b0383166000908152601b60209081526040808320600286810b85529083528184209085900b845290915281209080613bfa8585612050565b600185015485549294509092506000918291613c2291908603906001600160801b031661489a565b60028601548654919350613c4291908503906001600160801b031661489a565b60018601859055600286018490556003860180549192508391600090613c729084906001600160801b03166155e0565b92506101000a8154816001600160801b0302191690836001600160801b03160217905550808560030160108282829054906101000a90046001600160801b0316613cbc91906155e0565b92506101000a8154816001600160801b0302191690836001600160801b031602179055505050505050505050565b6001600160a01b0385166000908152601b60209081526040808320600288810b85529083528184209087900b845290915281206003810154829190613d38906001600160801b0316866141c4565b6003820154909350613d5a90600160801b90046001600160801b0316856141c4565b6003820180549193508491600090613d7c9084906001600160801b031661560b565b92506101000a8154816001600160801b0302191690836001600160801b03160217905550818160030160108282829054906101000a90046001600160801b0316613dc6919061560b565b92506101000a8154816001600160801b0302191690836001600160801b03160217905550509550959350505050565b600354613e0c906001600160a01b03168385613398565b600454612dec906001600160a01b03168285613398565b600080613e39858462ffffff16620f4240613e73565b9150613e4e848462ffffff16620f4240613e73565b9050935093915050565b806001600160801b0381168114613e6e57600080fd5b919050565b6000613e80848484613eb1565b90508180613e9057613e906156e2565b83850915613eaa576000198110613ea657600080fd5b6001015b9392505050565b600080806000198587098587029250828110838203039150508060001415613eeb5760008411613ee057600080fd5b508290049050613eaa565b808411613ef757600080fd5b6000848688096000868103871696879004966002600389028118808a02820302808a02820302808a02820302808a02820302808a02820302808a02909103029181900381900460010186841190950394909402919094039290920491909117919091029150509392505050565b60c081015115613f715750565b61010081015160020b620d89e7191480613fa15750613f93620d89e71961570c565b60020b81610100015160020b145b15613fd8576040517f6ba599a000000000000000000000000000000000000000000000000000000000815260040160405180910390fd5b50565b6000811561400a57614003613ff7606087901b86860386613e73565b85808204910615150190565b9050613bb3565b8361401c606087901b82860386613eb1565b81614029576140296156e2565b0495945050505050565b6000811561404c5761400385858503600160601b613e73565b6138e885858503600160601b613eb1565b60008060008060006140788d8d62ffffff16620f4240613e73565b9050614084818a6154dd565b9850614090818e615670565b61409a90896154dd565b975060006140ab828d612710613e73565b90506140b781896154dd565b97506140c38183615670565b91506140d482600160801b8d613eb1565b6140de90886154dd565b999e989d50969b5097995095975050505050505050565b614197601a846101000151600760009054906101000a90046001600160a01b03168660c001518561413757600a54886060015161413291906154dd565b614149565b600b54886060015161414991906154dd565b8661416557600b54896080015161416091906154dd565b614177565b600a54896080015161417791906154dd565b6000546019969594939291908a908a9062010000900462ffffff16614af6565b60020b61010085015260c0909301929092525050565b6000818310156141bd5781613eaa565b5090919050565b60008183106141bd5781613eaa565b821561428b576003546000906141f1906001600160a01b0316613abd565b601454909150600090614215908590600160801b90046001600160801b03166155e0565b905081816001600160801b031611156142415760405163420231d560e11b815260040160405180910390fd5b601480546001600160801b03928316600160801b02908316179055601580548083168590039092166fffffffffffffffffffffffffffffffff199290921691909117905550505050565b6004546000906142a3906001600160a01b0316613abd565b6015549091506000906142c09085906001600160801b03166155e0565b905081816001600160801b031611156142ec57604051637218102160e11b815260040160405180910390fd5b601580546001600160801b039283166fffffffffffffffffffffffffffffffff1990911617905560148054600160801b8082048416869003841602921691909117905550505050565b82156143875760098290556014805482919060009061435e9084906001600160801b03166155e0565b92506101000a8154816001600160801b0302191690836001600160801b03160217905550505050565b60088290556013805482919060109061435e908490600160801b90046001600160801b03166155e0565b6000806143bc61482a565b6006549091506001600160801b031681158015906143da5750600081115b15614407576143ea848383613eb1565b6143f486886154dd565b6143fe91906154dd565b92505050613eaa565b6143fe85876154dd565b60006401000276a36001600160a01b038316108061444c575073fffd8963efd1fc6a506488495d951d5263988d266001600160a01b03831610155b15614483576040517f6e4ba61d00000000000000000000000000000000000000000000000000000000815260040160405180910390fd5b77ffffffffffffffffffffffffffffffffffffffff00000000602083901b166001600160801b03811160071b81811c67ffffffffffffffff811160061b90811c63ffffffff811160051b90811c61ffff811160041b90811c60ff8111600390811b91821c600f811160021b90811c918211600190811b92831c9790881196179094179092171790911717176080811061452457607f810383901c915061452e565b80607f0383901b91505b908002607f81811c60ff83811c9190911c800280831c81831c1c800280841c81841c1c800280851c81851c1c800280861c81861c1c800280871c81871c1c800280881c81881c1c800280891c81891c1c8002808a1c818a1c1c8002808b1c818b1c1c8002808c1c818c1c1c8002808d1c818d1c1c8002808e1c9c81901c9c909c1c80029c8d901c9e9d7fffffffffffffffffffffffffffffffffffffffffffffffffffffffffffffff808f0160401b60c09190911c678000000000000000161760c19b909b1c674000000000000000169a909a1760c29990991c672000000000000000169890981760c39790971c671000000000000000169690961760c49590951c670800000000000000169490941760c59390931c670400000000000000169290921760c69190911c670200000000000000161760c79190911c670100000000000000161760c89190911c6680000000000000161760c99190911c6640000000000000161760ca9190911c6620000000000000161760cb9190911c6610000000000000161760cc9190911c6608000000000000161760cd9190911c66040000000000001617693627a301d71055774c8581027ffffffffffffffffffffffffffffffffffd709b7e5480fba5a50fed5e62ffc5568101608090811d906fdb2df09e81959a81455e260799a0632f8301901d600281810b9083900b1461475b57886001600160a01b031661474082613511565b6001600160a01b03161115614755578161475d565b8061475d565b815b9998505050505050505050565b6000808261477d57506000928392509050565b600061478761482a565b9050614796600c548286613eb1565b92506147a5600d548286613eb1565b915050915091565b6000816147bc57506000919050565b60006147c661482a565b9050613eaa6012548285613eb1565b60006147e2826002615985565b6147ef620d89e71961570c565b6147f991906159b0565b61480f9062ffffff166001600160801b036159d2565b92915050565b61350d6001600160a01b038316333084614d95565b600e5460009042811061483f57600091505090565b600754600f54600160a01b90910463ffffffff169060009061486190846154dd565b9050818111614874576000935050505090565b61487e82846141ad565b61488842836141c4565b6148929190615670565b935050505090565b6000613eaa8383600160801b613eb1565b6401000276a36001600160a01b03821610806148e4575073fffd8963efd1fc6a506488495d951d5263988d266001600160a01b03821610155b15613fd8576040517f6e4ba61d00000000000000000000000000000000000000000000000000000000815260040160405180910390fd5b6040516001600160a01b038316602482015260448101829052612dec9084907fa9059cbb00000000000000000000000000000000000000000000000000000000906064015b60408051601f198184030181529190526020810180517bffffffffffffffffffffffffffffffffffffffffffffffffffffffff167fffffffff0000000000000000000000000000000000000000000000000000000090931692909217909152614de6565b80600f0b600014156149d557613a4d565b6001600160a01b0384166000908152601b60209081526040808320600287810b85529083528184209086900b8452909152812090600f83900b1315614aa657805482908290600090614a319084906001600160801b03166155e0565b82546101009290920a6001600160801b038181021990931691831602179091556000548354680100000000000000009091048216911611159050614aa1576040517fb03425ae00000000000000000000000000000000000000000000000000000000815260040160405180910390fd5b614aef565b614aaf82615765565b81548290600090614aca9084906001600160801b031661560b565b92506101000a8154816001600160801b0302191690836001600160801b031602179055505b5050505050565b600288900b600090815260208b905260408120600301548190614b22906001600160a01b03168a61572f565b60028b900b600090815260208e81526040808320600301805473ffffffffffffffffffffffffffffffffffffffff19166001600160a01b0395909516949094179093558d90522054614b749086615670565b60028b900b600090815260208d905260409020558315614c875760028360020b8b60020b81614ba557614ba56156e2565b0560020b81614bb657614bb66156e2565b0760020b614bee5760028a900b600090815260208d90526040902054660100000000000090046001600160801b031690970396614c1b565b60028a900b600090815260208d90526040902054660100000000000090046001600160801b031697909701965b60028a900b600090815260208d90526040902060010154614c3c9087615670565b60028b810b600090815260208f90526040902060018101929092550154614c639088615670565b60029a8b0b600090815260208e905260409020808c01919091555490990b98614d83565b60028360020b8b60020b81614c9e57614c9e6156e2565b0560020b81614caf57614caf6156e2565b0760020b614ce85760028a900b600090815260208d90526040902054660100000000000090046001600160801b03169790970196614d14565b60028a900b600090815260208d90526040902054660100000000000090046001600160801b0316909703965b60028a810b600090815260208e9052604090200154614d339087615670565b60028b810b600090815260208f9052604090209081019190915560010154614d5b9088615670565b60029a8b0b600090815260208e9052604090206001810191909155546301000000900490990b985b50959a97995096975050505050505050565b6040516001600160a01b0380851660248301528316604482015260648101829052613a4d9085907f23b872dd0000000000000000000000000000000000000000000000000000000090608401614960565b6000614e3b826040518060400160405280602081526020017f5361666545524332303a206c6f772d6c6576656c2063616c6c206661696c6564815250856001600160a01b0316614ecb9092919063ffffffff16565b805190915015612dec5780806020019051810190614e5991906159ec565b612dec5760405162461bcd60e51b815260206004820152602a60248201527f5361666545524332303a204552433230206f7065726174696f6e20646964206e60448201527f6f742073756363656564000000000000000000000000000000000000000000006064820152608401612919565b6060613bb38484600085856001600160a01b0385163b614f2d5760405162461bcd60e51b815260206004820152601d60248201527f416464726573733a2063616c6c20746f206e6f6e2d636f6e74726163740000006044820152606401612919565b600080866001600160a01b03168587604051614f499190615950565b60006040518083038185875af1925050503d8060008114614f86576040519150601f19603f3d011682016040523d82523d6000602084013e614f8b565b606091505b5091509150614f9b828286614fa6565b979650505050505050565b60608315614fb5575081613eaa565b825115614fc55782518084602001fd5b8160405162461bcd60e51b81526004016129199190615a07565b8060020b8114613fd857600080fd5b60008060006060848603121561500357600080fd5b833561500e81614fdf565b9250602084013561501e81614fdf565b929592945050506040919091013590565b634e487b7160e01b600052604160045260246000fd5b80356001600160801b0381168114613e6e57600080fd5b600060c0828403121561506e57600080fd5b60405160c0810181811067ffffffffffffffff821117156150915761509161502f565b604052823561509f81614fdf565b815260208301356150af81614fdf565b602082015260408301356150c281614fdf565b604082015260608301356150d581614fdf565b60608201526150e660808401615045565b60808201526150f760a08401615045565b60a08201529392505050565b6000806000806080858703121561511957600080fd5b843561512481614fdf565b9350602085013561513481614fdf565b93969395505050506040820135916060013590565b6001600160a01b0381168114613fd857600080fd5b60008060008060006080868803121561517657600080fd5b853561518181615149565b94506020860135935060408601359250606086013567ffffffffffffffff808211156151ac57600080fd5b818801915088601f8301126151c057600080fd5b8135818111156151cf57600080fd5b8960208285010111156151e157600080fd5b9699959850939650602001949392505050565b600082601f83011261520557600080fd5b813567ffffffffffffffff808211156152205761522061502f565b604051601f8301601f19908116603f011681019082821181831017156152485761524861502f565b8160405283815286602085880101111561526157600080fd5b836020870160208301376000602085830101528094505050505092915050565b60006020828403121561529357600080fd5b813567ffffffffffffffff8111156152aa57600080fd5b613bb3848285016151f4565b600081518084526020808501945080840160005b838110156152ef5781516001600160a01b0316875295820195908201906001016152ca565b509495945050505050565b602081526000613eaa60208301846152b6565b60006020828403121561531f57600080fd5b5035919050565b60008060006060848603121561533b57600080fd5b833561534681614fdf565b9250602084013561535681614fdf565b915061536460408501615045565b90509250925092565b60008060006060848603121561538257600080fd5b833561538d81615149565b9250602084013561539d81614fdf565b915060408401356153ad81614fdf565b809150509250925092565b600080604083850312156153cb57600080fd5b82356153d681614fdf565b915060208301356153e681614fdf565b809150509250929050565b60006020828403121561540357600080fd5b8135613eaa81615149565b6000806040838503121561542157600080fd5b823567ffffffffffffffff81111561543857600080fd5b615444858286016151f4565b92505060208301356153e681615149565b600080600080600060a0868803121561546d57600080fd5b61547686615045565b945061548460208701615045565b935061549260408701615045565b94979396509394606081013594506080013592915050565b6000602082840312156154bc57600080fd5b8135613eaa81614fdf565b634e487b7160e01b600052601160045260246000fd5b600082198211156154f0576154f06154c7565b500190565b60006101a0820190508b82528a60208301528951604083015260208a0151606083015260408a015160808301526001600160a01b0360608b01511660a083015261554460c083018a60020b9052565b61555360e083018960020b9052565b61556361010083018860020b9052565b61557361012083018760020b9052565b6001600160801b03851661014083015261559361016083018560020b9052565b6001600160a01b0383166101808301529b9a5050505050505050505050565b600080604083850312156155c557600080fd5b82516155d081614fdf565b6020939093015192949293505050565b60006001600160801b03808316818516808303821115615602576156026154c7565b01949350505050565b60006001600160801b038381169083168181101561562b5761562b6154c7565b039392505050565b84815283602082015260606040820152816060820152818360808301376000818301608090810191909152601f909201601f191601019392505050565b600082821015615682576156826154c7565b500390565b80518015158114613e6e57600080fd5b600080604083850312156156aa57600080fd5b6156b383615687565b915060208301516153e681615149565b60008160001904831182151516156156dd576156dd6154c7565b500290565b634e487b7160e01b600052601260045260246000fd5b600082615707576157076156e2565b500490565b60008160020b627fffff19811415615726576157266154c7565b60000392915050565b60006001600160a01b038381169083168181101561562b5761562b6154c7565b634e487b7160e01b600052603260045260246000fd5b600081600f0b7fffffffffffffffffffffffffffffffff80000000000000000000000000000000811415615726576157266154c7565b6000602082840312156157ad57600080fd5b8151613eaa81615149565b6040815260006157cb60408301856152b6565b82810360208481019190915284518083528582019282019060005b81811015615802578451835293830193918301916001016157e6565b5090979650505050505050565b805162ffffff81168114613e6e57600080fd5b600080600080600060a0868803121561583a57600080fd5b855161584581615149565b602087015190955061585681615149565b604087015190945061586781615149565b92506158756060870161580f565b91506158836080870161580f565b90509295509295909350565b60008260020b806158a2576158a26156e2565b808360020b0791505092915050565b60008160020b8360020b806158c8576158c86156e2565b6000198114627fffff19831416156158e2576158e26154c7565b90059392505050565b60007f800000000000000000000000000000000000000000000000000000000000000082141561591d5761591d6154c7565b5060000390565b60005b8381101561593f578181015183820152602001615927565b83811115613a4d5750506000910152565b60008251615962818460208701615924565b9190910192915050565b60006020828403121561597e57600080fd5b5051919050565b600062ffffff808316818516818304811182151516156159a7576159a76154c7565b02949350505050565b600062ffffff808416806159c6576159c66156e2565b92169190910492915050565b60006001600160801b03808416806159c6576159c66156e2565b6000602082840312156159fe57600080fd5b613eaa82615687565b6020815260008251806020840152615a26816040850160208701615924565b601f01601f1916919091016040019291505056fea2646970667358221220140506653f5c2727e5372f106b2c06b42fa13723519f66314b9e12d6fe5beee064736f6c63430008090033",
  "deployedBytecode": "0x608060405234801561001057600080fd5b50600436106103205760003560e01c8063a34123a7116101a7578063cf78756b116100ee578063f30dba9311610097578063f949e8b711610071578063f949e8b7146108e0578063fa1a169c146108e8578063fb5d80b3146108f157600080fd5b8063f30dba93146107c4578063f719dac61461086f578063f7c618c1146108cd57600080fd5b8063d5514792116100c8578063d55147921461077e578063d90bda4e1461079e578063e5ff7f46146107b157600080fd5b8063cf78756b1461074e578063d0c93a7c14610756578063d21220a71461076b57600080fd5b8063bd7d1eea11610150578063caa4b46a1161012a578063caa4b46a14610720578063cce2df0314610728578063cf5431531461073b57600080fd5b8063bd7d1eea146106e7578063c03c2514146106fa578063c45a01551461070d57600080fd5b8063b0e21e8a11610181578063b0e21e8a1461062a578063b2f4bdb014610633578063bcdb4dad1461063c57600080fd5b8063a34123a714610572578063aaca1b4d14610585578063acfe88f81461061757600080fd5b806367e4ac2c1161026b5780638c347f9b116102145780639da12096116101ee5780639da1209614610530578063a00e8f2914610538578063a035b1fe1461055f57600080fd5b80638c347f9b146104f55780638f10369a1461051e578063956afe451461052757600080fd5b8063735541d111610245578063735541d1146104d0578063787dce3d146104d957806384e02017146104ec57600080fd5b806367e4ac2c146104865780636d59d8021461049b57806370ed1b86146104c757600080fd5b80632df94b0f116102cd57806354cf2aeb116102a757806354cf2aeb1461043e578063627dd56a1461046a57806366f657c51461047d57600080fd5b80632df94b0f146103f857806340306fb614610420578063490e6cbc1461042957600080fd5b80630dfe1681116102fe5780630dfe168114610399578063111ba27d146103c45780631a686502146103cd57600080fd5b806306f912f3146103255780630902f1ac1461034b5780630ae9ba8a14610386575b600080fd5b610338610333366004614fee565b610910565b6040519081526020015b60405180910390f35b6014546015546001600160801b03600160801b909204821691165b604080516001600160801b03938416815292909116602083015201610342565b61033861039436600461505c565b610978565b6003546103ac906001600160a01b031681565b6040516001600160a01b039091168152602001610342565b610338601e5481565b6006546103e0906001600160801b031681565b6040516001600160801b039091168152602001610342565b61040b610406366004615103565b610f2c565b60408051928352602083019190915201610342565b610338600e5481565b61043c61043736600461515e565b6110ab565b005b6000546104569065010000000000900462ffffff1681565b60405162ffffff9091168152602001610342565b610338610478366004615281565b6114c4565b610338600c5481565b61048e611ba4565b60405161034291906152fa565b600754604080516001600160a01b0383168152600160a01b90920463ffffffff16602083015201610342565b61033860095481565b61033860185481565b61043c6104e736600461530d565b611c38565b610338600d5481565b601654604080516001600160a01b0383168152600160a01b90920460020b602083015201610342565b61033860125481565b610338600f5481565b610338611c8b565b60165461054c90600160a01b900460020b81565b60405160029190910b8152602001610342565b6016546103ac906001600160a01b031681565b61040b610580366004615326565b611ca3565b6105e161059336600461536d565b601b60209081526000938452604080852082529284528284209052825290208054600182015460028301546003909301546001600160801b0392831693919281811691600160801b90041685565b604080516001600160801b039687168152602081019590955284019290925283166060830152909116608082015260a001610342565b61040b6106253660046153b8565b612050565b610338601f5481565b610338601d5481565b6106926000546005546001546003546004546001600160801b03680100000000000000008604169562ffffff62010000870481169665010000000000900416946001600160a01b03908116948116938116921690565b604080516001600160801b03909816885262ffffff968716602089015295909416948601949094526001600160a01b0391821660608601528116608085015291821660a08401521660c082015260e001610342565b61043c6106f53660046153f1565b612372565b6103386107083660046153b8565b6123cc565b6005546103ac906001600160a01b031681565b6103666124d7565b61043c61073636600461540e565b61288c565b61043c610749366004615455565b612df1565b610338613155565b6000546104569062010000900462ffffff1681565b6004546103ac906001600160a01b031681565b61033861078c3660046154aa565b601a6020526000908152604090205481565b61043c6107ac3660046153f1565b613168565b6013546103e0906001600160801b031681565b6108246107d23660046154aa565b60196020526000908152604090208054600182015460028084015460039094015483820b946301000000850490920b93660100000000000090046001600160801b03169291906001600160a01b031686565b60408051600297880b81529590960b60208601526001600160801b0390931694840194909452606083015260808201929092526001600160a01b0390911660a082015260c001610342565b6108b061087d36600461536d565b601c602090815260009384526040808520825292845282842090528252902080546001909101546001600160801b031682565b604080519283526001600160801b03909116602083015201610342565b6010546103ac906001600160a01b031681565b61033861320e565b61033860085481565b6013546014546001600160801b03600160801b90920482169116610366565b600060175460021415610936576040516303cb96db60e21b815260040160405180910390fd5b6002601755610946338585613220565b610952338585856132fe565b60105490915061096c906001600160a01b03168233613398565b60016017559392505050565b60006017546002141561099e576040516303cb96db60e21b815260040160405180910390fd5b6002601755602082015160608301516109b791906133ac565b60006109c68360200151613511565b6001600160a01b0316905060006109e08460600151613511565b60165460a086015160808701516001600160a01b0393841694509190921691610a1b918591859185916001600160801b03908116911661385d565b93506f7fffffffffffffffffffffffffffffff841115610a67576040517f35278d1200000000000000000000000000000000000000000000000000000000815260040160405180910390fd5b83610a9e576040517f83ecd22400000000000000000000000000000000000000000000000000000000815260040160405180910390fd5b610aa66138f1565b6000601973__$5c5207d55745a34649a0c7f595c6a505bf$__63825c72999091601a6040518060800160405280600a54600854610ae391906154dd565b8152602001600b54600954610af891906154dd565b81526020016011548152602001600760009054906101000a90046001600160a01b03166001600160a01b03168152508a600001518b602001518c604001518d606001518d601660149054906101000a900460020b8c6040518b63ffffffff1660e01b8152600401610b729a999897969594939291906154f5565b604080518083038186803b158015610b8957600080fd5b505af4158015610b9d573d6000803e3d6000fd5b505050506040513d601f19601f82011682018060405250810190610bc191906155b2565b6016805462ffffff909316600160a01b0262ffffff60a01b1990931692909217909155601880549192508291600090610bfb9084906154dd565b9250508190555050610c17338660200151876060015187613a2b565b808311158015610c2657508181105b15610c5657600680546001600160801b038082168701166fffffffffffffffffffffffffffffffff199091161790555b600080610c67858585896001613a53565b600354600480546040517f5f16529a0000000000000000000000000000000000000000000000000000000081526001600160a01b03938416928101929092529190911660248201526001600160801b0380841660448301528216606482015291935091503390635f16529a90608401600060405180830381600087803b158015610cf057600080fd5b505af1158015610d04573d6000803e3d6000fd5b50505050816001600160801b0316600014610db15781601460108282829054906101000a90046001600160801b0316610d3d91906155e0565b92506101000a8154816001600160801b0302191690836001600160801b03160217905550610d7f600360009054906101000a90046001600160a01b0316613abd565b601454600160801b90046001600160801b03161115610db15760405163420231d560e11b815260040160405180910390fd5b6001600160801b03811615610e4b5760158054829190600090610dde9084906001600160801b03166155e0565b92506101000a8154816001600160801b0302191690836001600160801b03160217905550610e20600460009054906101000a90046001600160a01b0316613abd565b6015546001600160801b03161115610e4b57604051637218102160e11b815260040160405180910390fd5b600280546040805160a08101825260208b810151850b82526060808d0151860b9183019182526001600160801b03888116848601908152908816918401918252608084018d815294517ffbad73910000000000000000000000000000000000000000000000000000000081529351870b6004850152915190950b6024830152516044820152925160648401525160848301526001600160a01b03169063fbad73919060a401600060405180830381600087803b158015610f0a57600080fd5b505af1925050508015610f1b575060015b505050600160175550919392505050565b60008060175460021415610f53576040516303cb96db60e21b815260040160405180910390fd5b6002601755610f63338787613bbb565b610f703387878787613cea565b601480549294509092508391601090610f9a908490600160801b90046001600160801b031661560b565b92506101000a8154816001600160801b0302191690836001600160801b0316021790555080601560008282829054906101000a90046001600160801b0316610fe2919061560b565b92506101000a8154816001600160801b0302191690836001600160801b03160217905550611011338383613df5565b6002546040805180820182528481526020810184815291517f1228c47f00000000000000000000000000000000000000000000000000000000815290516004820152905160248201526001600160a01b0390911690631228c47f90604401600060405180830381600087803b15801561108957600080fd5b505af192505050801561109a575060015b506001601755909590945092505050565b601754600214156110cf576040516303cb96db60e21b815260040160405180910390fd5b60026017556006546001600160801b031680611117576040517f83ecd22400000000000000000000000000000000000000000000000000000000815260040160405180910390fd5b6014546015546001600160801b03600160801b9092048216911661113c888888613df5565b60008061115b8989600060059054906101000a900462ffffff16613e23565b6040517fc3924ed60000000000000000000000000000000000000000000000000000000081529193509150339063c3924ed6906111a290859085908c908c90600401615633565b600060405180830381600087803b1580156111bc57600080fd5b505af11580156111d0573d6000803e3d6000fd5b50506003546000925082915081906111f0906001600160a01b0316613abd565b60045490915060009061120b906001600160a01b0316613abd565b905081611218878a6154dd565b11156112375760405163420231d560e11b815260040160405180910390fd5b8061124286896154dd565b111561126157604051637218102160e11b815260040160405180910390fd5b61126a82613e58565b601480546001600160801b03928316600160801b02921691909117905561129081613e58565b601580546fffffffffffffffffffffffffffffffff19166001600160801b03929092169190911790556112c38883615670565b93506112cf8782615670565b601f5490935091505082156113725760006112ed8483612710613e73565b905080601360108282829054906101000a90046001600160801b031661131391906155e0565b92506101000a8154816001600160801b0302191690836001600160801b0316021790555061135a816001600160801b03168561134f9190615670565b600160801b8b613eb1565b6008600082825461136b91906154dd565b9091555050505b81156113fb5760006113878383612710613e73565b6014805491925082916000906113a79084906001600160801b03166155e0565b92506101000a8154816001600160801b0302191690836001600160801b031602179055506113e3816001600160801b03168461134f9190615670565b600960008282546113f491906154dd565b9091555050505b6002546040805160a081018252338152602081018f81528183018f8152606083018881526080840188815294517f2987fbcc00000000000000000000000000000000000000000000000000000000815293516001600160a01b039081166004860152925160248501529051604484015251606483015291516084820152911690632987fbcc9060a401600060405180830381600087803b15801561149e57600080fd5b505af19250505080156114af575060015b50505060016017555050505050505050505050565b6000601754600214156114ea576040516303cb96db60e21b815260040160405180910390fd5b6002601781905550600080838060200190518101906115099190615697565b91509150600082611525576015546001600160801b0316611539565b601454600160801b90046001600160801b03165b6001600160801b031661156c8461155b576004546001600160a01b0316613abd565b6003546001600160a01b0316613abd565b6115769190615670565b90506000604051806101200160405280600081526020016000815260200160008152602001856115a8576008546115ac565b6009545b8152602001856115be576009546115c2565b6008545b81526016546001600160a01b031660208201526006546001600160801b03166040820152606081018490526080018561162157601654600160a01b9004600290810b60009081526019602052604090205463010000009004900b61162f565b601654600160a01b900460020b5b60020b9052905061163e6138f1565b60115461164a82613f64565b60e0820151156119dd576000611664836101000151613511565b6001600160a01b03169050600080871561179557600061168f8660c00151858860a001516000613fdb565b9050808660e00151116117555760c086015160a087015160e088015160609290921b916000916116d5918491906116c690826156c3565b6116d090866154dd565b613e73565b90508086111580156116ea57508760a0015181105b6117285761171c828960e001518a60a001518561170791906156f8565b61171191906154dd565b808204910615150190565b6001600160a01b031690505b61173d8860c00151828a60a001516000614033565b60a0890191909152600060e0890152935061178f9050565b61176a8660c00151858860a001516000614033565b60a0870185905260e08701805191945060019350829161178b908390615670565b9052505b5061184a565b60006117ac8660c001518760a00151866000614033565b9050808660e001511161180e5760006117d28760e00151600160601b8960c00151613eb1565b8760a001516117e191906154dd565b90506117f88760c001518860a00151836000613fdb565b60a0880191909152600060e08801529250611848565b6118238660c001518760a00151866000613fdb565b60a0870185905260e087018051919450600193508291611844908390615670565b9052505b505b60c08501511561189c5761188782600060059054906101000a900462ffffff16601f548860c0015189602001518e8b604001518c6060015161405d565b60608901526040880152602087019190915298505b80156119d5576118ad85858a6140f5565b60c08501516119d55761010085015160020b620d89e71914806118e657506118d8620d89e71961570c565b60020b85610100015160020b145b156119ae5787156119395761191060018660a001516119059190615670565b6401000276a36141ad565b60a086015261010085018051600290810b600090815260196020526040902054900b90526119a6565b61197a8560a00151600161194d91906154dd565b61196c600173fffd8963efd1fc6a506488495d951d5263988d2661572f565b6001600160a01b03166141c4565b60a086015261010085018051600290810b60009081526019602052604090205463010000009004900b90525b5050506119dd565b6119bc856101000151613511565b6001600160a01b031660a08601526119d585858a6140f5565b50505061164a565b60a08201516016805473ffffffffffffffffffffffffffffffffffffffff19166001600160a01b03909216919091179055600085611a3657610100830151600290810b600090815260196020526040902054900b611a3d565b8261010001515b601654909150600282810b600160a01b909204900b14611aa1576016805462ffffff60a01b1916600160a01b62ffffff84160217905560c0830151600680546fffffffffffffffffffffffffffffffff19166001600160801b039092169190911790555b611aac8685896141d3565b611abf8684606001518560400151614335565b8515611ae157600454611adc906001600160a01b03168887613398565b611af8565b600354611af8906001600160a01b03168887613398565b600254604080516060810182528815158152602081018781528183018b815292517f91accd5f000000000000000000000000000000000000000000000000000000008152915115156004830152516024820152905160448201526001600160a01b03909116906391accd5f90606401600060405180830381600087803b158015611b8157600080fd5b505af1925050508015611b92575060015b50505060016017555092949350505050565b6040805160028082526060808301845292602083019080368337505060035482519293506001600160a01b031691839150600090611be457611be461574f565b6001600160a01b039283166020918202929092010152600454825191169082906001908110611c1557611c1561574f565b60200260200101906001600160a01b031690816001600160a01b03168152505090565b6005546001600160a01b03163314611c635760405163ea8e4eb560e01b815260040160405180910390fd5b612710811115611c8657604051633494a40d60e21b815260040160405180910390fd5b601f55565b6000611c9e600854600a54600c546143b1565b905090565b60008060175460021415611cca576040516303cb96db60e21b815260040160405180910390fd5b60026017556000611cda86613511565b90506000611ce786613511565b6016549091506001600160a01b0316611cfe6138f1565b806001600160a01b0316836001600160a01b031611158015611d315750816001600160a01b0316816001600160a01b0316105b15611d6257600680546001600160801b03808216899003166fffffffffffffffffffffffffffffffff199091161790555b611d94836001600160a01b0316836001600160a01b0316836001600160a01b0316896001600160801b03166000613a53565b6001600160801b039182169650811694506f7fffffffffffffffffffffffffffffff9087161115611df1576040517f35278d1200000000000000000000000000000000000000000000000000000000815260040160405180910390fd5b611e05338989611e008a615765565b613a2b565b601480546001600160801b03600160801b808304821689900382160291811691909117909155601580548083168790039092166fffffffffffffffffffffffffffffffff1992909216919091179055611e5f338686613df5565b6016546040517f7c91cb9800000000000000000000000000000000000000000000000000000000815260196004820152601a602482015260028a810b604483015289810b60648301526001600160801b0389166084830152600160a01b90920490910b60a482015260009073__$5c5207d55745a34649a0c7f595c6a505bf$__90637c91cb989060c401604080518083038186803b158015611f0057600080fd5b505af4158015611f14573d6000803e3d6000fd5b505050506040513d601f19601f82011682018060405250810190611f3891906155b2565b6016805462ffffff909316600160a01b0262ffffff60a01b1990931692909217909155601880549192508291600090611f72908490615670565b9091555050600280546040805160a0810182528c840b81528b840b602082019081528183018b8152606083018b81526001600160801b038e166080850190815294517ffc9482d20000000000000000000000000000000000000000000000000000000081529351870b6004850152915190950b602483015293516044820152925160648401525160848301526001600160a01b0316915063fc9482d29060a401600060405180830381600087803b15801561202c57600080fd5b505af192505050801561203d575060015b5050506001601755509094909350915050565b6016546000908190819061206c906001600160a01b0316614411565b90506000601960008760020b60020b81526020019081526020016000206040518060c00160405290816000820160009054906101000a900460020b60020b60020b81526020016000820160039054906101000a900460020b60020b60020b81526020016000820160069054906101000a90046001600160801b03166001600160801b03166001600160801b0316815260200160018201548152602001600282015481526020016003820160009054906101000a90046001600160a01b03166001600160a01b03166001600160a01b03168152505090506000601960008760020b60020b81526020019081526020016000206040518060c00160405290816000820160009054906101000a900460020b60020b60020b81526020016000820160039054906101000a900460020b60020b60020b81526020016000820160069054906101000a90046001600160801b03166001600160801b03166001600160801b0316815260200160018201548152602001600282015481526020016003820160009054906101000a90046001600160a01b03166001600160a01b03166001600160a01b0316815250509050600080600080612243600660009054906101000a90046001600160801b03166001600160801b031661476a565b9150915081600a5460085461225891906154dd565b61226291906154dd565b935080600b5460095461227591906154dd565b61227f91906154dd565b925050506000808660020b8b60020b136122bb5760608601516122a290836154dd565b91508560800151816122b491906154dd565b90506122f3565b60608601516122ca9085615670565b6122d490836154dd565b91508560800151836122e69190615670565b6122f090826154dd565b90505b8960020b8760020b121561232957606085015161231090836154dd565b915084608001518161232291906154dd565b9050612361565b60608501516123389085615670565b61234290836154dd565b91508460800151836123549190615670565b61235e90826154dd565b90505b920399919003975095505050505050565b6005546001600160a01b0316331461239d5760405163ea8e4eb560e01b815260040160405180910390fd5b6002805473ffffffffffffffffffffffffffffffffffffffff19166001600160a01b0392909216919091179055565b60165460009081906123e6906001600160a01b0316614411565b600654909150600090612401906001600160801b03166147ad565b60115461240e91906154dd565b905060008260020b8660020b1361244457600286900b6000908152601a602052604090205461243d90826154dd565b905061246f565b600286900b6000908152601a60205260409020546124629083615670565b61246c90826154dd565b90505b8460020b8360020b12156124a257600285900b6000908152601a602052604090205461249b90826154dd565b90506124cd565b600285900b6000908152601a60205260409020546124c09083615670565b6124ca90826154dd565b90505b9003949350505050565b600080601754600214156124fe576040516303cb96db60e21b815260040160405180910390fd5b6002601755600154604080517fef36925200000000000000000000000000000000000000000000000000000000815290516000926001600160a01b03169163ef369252916004808301926020929190829003018186803b15801561256157600080fd5b505afa158015612575573d6000803e3d6000fd5b505050506040513d601f19601f82011682018060405250810190612599919061579b565b604080516002808252606082018352929350600092909160208301908036833750506040805160028082526060820183529394506000939092509060208301908036833701905050601354909150600160801b90046001600160801b0316156126ed57601380546001600160801b0380821690925560148054600160801b92839004841698508893919260109261263492869290041661560b565b92506101000a8154816001600160801b0302191690836001600160801b03160217905550612681600360009054906101000a90046001600160a01b0316866001600160801b031685613398565b60035482516001600160a01b039091169083906000906126a3576126a361574f565b60200260200101906001600160a01b031690816001600160a01b031681525050846001600160801b0316816000815181106126e0576126e061574f565b6020026020010181815250505b6014546001600160801b0316156127f657601480546fffffffffffffffffffffffffffffffff198116909155601580546001600160801b039283169650869260009161273b9185911661560b565b92506101000a8154816001600160801b0302191690836001600160801b03160217905550612788600460009054906101000a90046001600160a01b0316856001600160801b031685613398565b60045482516001600160a01b0390911690839060019081106127ac576127ac61574f565b60200260200101906001600160a01b031690816001600160a01b031681525050836001600160801b0316816001815181106127e9576127e961574f565b6020026020010181815250505b6001600160a01b0383163b15612880576040517ff03328300000000000000000000000000000000000000000000000000000000081526001600160a01b0384169063f03328309061284d90859085906004016157b8565b600060405180830381600087803b15801561286757600080fd5b505af115801561287b573d6000803e3d6000fd5b505050505b50505060016017559091565b600054610100900460ff166128a75760005460ff16156128ab565b303b155b6129225760405162461bcd60e51b815260206004820152602e60248201527f496e697469616c697a61626c653a20636f6e747261637420697320616c72656160448201527f647920696e697469616c697a656400000000000000000000000000000000000060648201526084015b60405180910390fd5b600054610100900460ff1615801561296157600080547fffffffffffffffffffffffffffffffffffffffffffffffffffffffffffff0000166101011790555b60008060008060008780602001905181019061297d9190615822565b600380546001600160a01b0380881673ffffffffffffffffffffffffffffffffffffffff199283161790925560048054838816908316179055601080548387169083161790556000805462ffffff80861662010000027fffffffffffffffffffffffffffffffffffffffffffffffffffffff000000ffff9188166501000000000002919091167fffffffffffffffffffffffffffffffffffffffffffffffff000000000000ffff909216919091171790556005805482163317905560018054928f1692909116919091179055939850919650945092509050612a5e816147d5565b600060086101000a8154816001600160801b0302191690836001600160801b031602179055506040518060c00160405280620d89e71960020b8152602001620d89e719612aaa9061570c565b60020b815260006020808301829052604080840183905260608085018490526080948501849052620d89e719938490526019835285517f8b687876df6025befed93a16f72cd2848615619f141fc2441f1db80badfc7d3e805488860151898601516001600160801b03166601000000000000027fffffffffffffffffffff00000000000000000000000000000000ffffffffffff62ffffff92831663010000000265ffffffffffff19909416929095169190911791909117929092169190911790558501517f8b687876df6025befed93a16f72cd2848615619f141fc2441f1db80badfc7d3f55928401517f8b687876df6025befed93a16f72cd2848615619f141fc2441f1db80badfc7d405560a0909301517f8b687876df6025befed93a16f72cd2848615619f141fc2441f1db80badfc7d4180546001600160a01b039290921673ffffffffffffffffffffffffffffffffffffffff19909216919091179055815160c081019092528082529091820190612c259061570c565b60020b815260200160006001600160801b03168152602001600081526020016000815260200160006001600160a01b031681525060196000620d89e719612c6b9061570c565b600290810b8252602080830193909352604091820160002084518154948601519386015162ffffff91821665ffffffffffff199096169590951763010000009190941602929092177fffffffffffffffffffff00000000000000000000000000000000ffffffffffff1666010000000000006001600160801b0390941693909302929092178155606083015160018083019190915560808401518284015560a0909301516003909101805473ffffffffffffffffffffffffffffffffffffffff19166001600160a01b039092169190911790556016805462ffffff60a01b191676f276180000000000000000000000000000000000000000179055601791909155600780547fffffffffffffffff00000000ffffffffffffffffffffffffffffffffffffffff16600160a01b4263ffffffff81169190910291909117909155601891909155601d55505043601e55505081159050612dec57600080547fffffffffffffffffffffffffffffffffffffffffffffffffffffffffffff00ff1690555b505050565b60175460021415612e15576040516303cb96db60e21b815260040160405180910390fd5b6002601755600154604080517fd0a93173000000000000000000000000000000000000000000000000000000008152905133926001600160a01b03169163d0a931739160048083019260209291908290030181600087803b158015612e7957600080fd5b505af1158015612e8d573d6000803e3d6000fd5b505050506040513d601f19601f82011682018060405250810190612eb1919061579b565b6001600160a01b031614612ed85760405163ea8e4eb560e01b815260040160405180910390fd5b42612ee382846154dd565b11612f0157604051633494a40d60e21b815260040160405180910390fd5b600e54600f54600090612f1490836154dd565b905083811115612f3757604051633494a40d60e21b815260040160405180910390fd5b6001600160801b03871615612fae57600354612f65906001600160a01b03166001600160801b038916614815565b86601460108282829054906101000a90046001600160801b0316612f8991906155e0565b92506101000a8154816001600160801b0302191690836001600160801b031602179055505b6001600160801b0386161561301f57600454612fdc906001600160a01b03166001600160801b038816614815565b60158054879190600090612ffa9084906001600160801b03166155e0565b92506101000a8154816001600160801b0302191690836001600160801b031602179055505b6001600160801b0385161561304d5760105461304d906001600160a01b03166001600160801b038716614815565b600061305761482a565b11156130ef576130656138f1565b600754600160a01b900463ffffffff16818110156130ed57600061308982856141ad565b6130939084615670565b90506130a96130a4600c548361489a565b613e58565b6130b3908a6155e0565b98506130c46130a4600d548361489a565b6130ce90896155e0565b97506130df6130a46012548361489a565b6130e990886155e0565b9650505b505b613107876001600160801b0316600160801b85613eb1565b600c556131226001600160801b038716600160801b85613eb1565b600d5561313d6001600160801b038616600160801b85613eb1565b6012555050600e91909155600f555050600160175550565b6000611c9e600954600b54600d546143b1565b6005546001600160a01b031633146131935760405163ea8e4eb560e01b815260040160405180910390fd5b6016546001600160a01b0316156131d6576040517f2f282c6c00000000000000000000000000000000000000000000000000000000815260040160405180910390fd5b6131df816148ab565b6016805473ffffffffffffffffffffffffffffffffffffffff19166001600160a01b0392909216919091179055565b6000611c9e60006011546012546143b1565b6001600160a01b0383166000908152601c60209081526040808320600286810b85529083528184209085900b845290915281209061325e84846123cc565b82546001600160a01b0387166000908152601b6020908152604080832060028a810b85529083528184209089900b8452909152812054929350916132ad918403906001600160801b031661489a565b82845560018401805491925082916000906132d29084906001600160801b03166155e0565b92506101000a8154816001600160801b0302191690836001600160801b03160217905550505050505050565b6001600160a01b0384166000908152601c60209081526040808320600287810b85529083528184209086900b845290915281206001810154613349906001600160801b0316846141c4565b600182018054919350839160009061336b9084906001600160801b031661560b565b92506101000a8154816001600160801b0302191690836001600160801b0316021790555050949350505050565b612dec6001600160a01b038416828461491b565b6000546133c49062010000900462ffffff168361588f565b60020b156133fe576040517fce8ef7fc00000000000000000000000000000000000000000000000000000000815260040160405180910390fd5b6000546002906134199062010000900462ffffff16846158b1565b613423919061588f565b60020b1561345d576040517ffdf1420200000000000000000000000000000000000000000000000000000000815260040160405180910390fd5b6000546134759062010000900462ffffff168261588f565b60020b156134af576040517fce8ef7fc00000000000000000000000000000000000000000000000000000000815260040160405180910390fd5b6000546002906134ca9062010000900462ffffff16836158b1565b6134d4919061588f565b60020b61350d576040517fa9778c6300000000000000000000000000000000000000000000000000000000815260040160405180910390fd5b5050565b60008060008360020b12613528578260020b613535565b8260020b613535906158eb565b9050613544620d89e71961570c565b62ffffff16811115613582576040517ff87dc40c00000000000000000000000000000000000000000000000000000000815260040160405180910390fd5b60006001821661359657600160801b6135a8565b6ffffcb933bd6fad37aa2d162d1a5940015b70ffffffffffffffffffffffffffffffffff16905060028216156135dc576ffff97272373d413259a46990580e213a0260801c5b60048216156135fb576ffff2e50f5f656932ef12357cf3c7fdcc0260801c5b600882161561361a576fffe5caca7e10e4e61c3624eaa0941cd00260801c5b6010821615613639576fffcb9843d60f6159c9db58835c9266440260801c5b6020821615613658576fff973b41fa98c081472e6896dfb254c00260801c5b6040821615613677576fff2ea16466c96a3843ec78b326b528610260801c5b6080821615613696576ffe5dee046a99a2a811c461f1969c30530260801c5b6101008216156136b6576ffcbe86c7900a88aedcffc83b479aa3a40260801c5b6102008216156136d6576ff987a7253ac413176f2b074cf7815e540260801c5b6104008216156136f6576ff3392b0822b70005940c7a398e4b70f30260801c5b610800821615613716576fe7159475a2c29b7443b29c7fa6e889d90260801c5b611000821615613736576fd097f3bdfd2022b8845ad8f792aa58250260801c5b612000821615613756576fa9f746462d870fdf8a65dc1f90e061e50260801c5b614000821615613776576f70d869a156d2a1b890bb3df62baf32f70260801c5b618000821615613796576f31be135f97d08fd981231505542fcfa60260801c5b620100008216156137b7576f09aa508b5b7a84e1c677de54f3e99bc90260801c5b620200008216156137d7576e5d6af8dedb81196699c329225ee6040260801c5b620400008216156137f6576d2216e584f5fa1ea926041bedfe980260801c5b62080000821615613813576b048a170391f7dc42444e8fa20260801c5b60008460020b1315613834578060001981613830576138306156e2565b0490505b64010000000081061561384857600161384b565b60005b60ff16602082901c0192505050919050565b600083851161387e5761387783600160601b888803613eb1565b90506138e8565b8584116138a057613877826138988888600160601b613eb1565b888803613eb1565b60006138bd836138b58888600160601b613eb1565b878903613eb1565b905060006138d285600160601b8a8903613eb1565b90508082106138e157806138e3565b815b925050505b95945050505050565b6006546001600160801b0316806139055750565b600754600160a01b900463ffffffff16428110613920575050565b600061392a61482a565b9050801561399e5761393f600c548285613eb1565b600a600082825461395091906154dd565b9091555050600d54613963908285613eb1565b600b600082825461397491906154dd565b9091555050601254613987908285613eb1565b6011600082825461399891906154dd565b90915550505b6007805463ffffffff42908116600160a01b027fffffffffffffffff00000000ffffffffffffffffffffffffffffffffffffffff90921691909117909155839083900360801b816139f1576139f16156e2565b6007805473ffffffffffffffffffffffffffffffffffffffff198116939092046001600160a01b0392831601909116919091179055505050565b613a36848484613bbb565b613a41848484613220565b613a4d848484846149c4565b50505050565b600080848611613a7357613a6c6130a485898987614033565b9050613ab3565b868511613a9057613a896130a485898987613fdb565b9150613ab3565b613a9f6130a485878987613fdb565b9150613ab06130a485898887614033565b90505b9550959350505050565b604080513060248083019190915282518083039091018152604490910182526020810180517bffffffffffffffffffffffffffffffffffffffffffffffffffffffff167f70a08231000000000000000000000000000000000000000000000000000000001790529051600091829182916001600160a01b03861691613b429190615950565b600060405180830381855afa9150503d8060008114613b7d576040519150601f19603f3d011682016040523d82523d6000602084013e613b82565b606091505b5091509150818015613b9657506020815110155b613b9f57600080fd5b80806020019051810190613bb3919061596c565b949350505050565b6001600160a01b0383166000908152601b60209081526040808320600286810b85529083528184209085900b845290915281209080613bfa8585612050565b600185015485549294509092506000918291613c2291908603906001600160801b031661489a565b60028601548654919350613c4291908503906001600160801b031661489a565b60018601859055600286018490556003860180549192508391600090613c729084906001600160801b03166155e0565b92506101000a8154816001600160801b0302191690836001600160801b03160217905550808560030160108282829054906101000a90046001600160801b0316613cbc91906155e0565b92506101000a8154816001600160801b0302191690836001600160801b031602179055505050505050505050565b6001600160a01b0385166000908152601b60209081526040808320600288810b85529083528184209087900b845290915281206003810154829190613d38906001600160801b0316866141c4565b6003820154909350613d5a90600160801b90046001600160801b0316856141c4565b6003820180549193508491600090613d7c9084906001600160801b031661560b565b92506101000a8154816001600160801b0302191690836001600160801b03160217905550818160030160108282829054906101000a90046001600160801b0316613dc6919061560b565b92506101000a8154816001600160801b0302191690836001600160801b03160217905550509550959350505050565b600354613e0c906001600160a01b03168385613398565b600454612dec906001600160a01b03168285613398565b600080613e39858462ffffff16620f4240613e73565b9150613e4e848462ffffff16620f4240613e73565b9050935093915050565b806001600160801b0381168114613e6e57600080fd5b919050565b6000613e80848484613eb1565b90508180613e9057613e906156e2565b83850915613eaa576000198110613ea657600080fd5b6001015b9392505050565b600080806000198587098587029250828110838203039150508060001415613eeb5760008411613ee057600080fd5b508290049050613eaa565b808411613ef757600080fd5b6000848688096000868103871696879004966002600389028118808a02820302808a02820302808a02820302808a02820302808a02820302808a02909103029181900381900460010186841190950394909402919094039290920491909117919091029150509392505050565b60c081015115613f715750565b61010081015160020b620d89e7191480613fa15750613f93620d89e71961570c565b60020b81610100015160020b145b15613fd8576040517f6ba599a000000000000000000000000000000000000000000000000000000000815260040160405180910390fd5b50565b6000811561400a57614003613ff7606087901b86860386613e73565b85808204910615150190565b9050613bb3565b8361401c606087901b82860386613eb1565b81614029576140296156e2565b0495945050505050565b6000811561404c5761400385858503600160601b613e73565b6138e885858503600160601b613eb1565b60008060008060006140788d8d62ffffff16620f4240613e73565b9050614084818a6154dd565b9850614090818e615670565b61409a90896154dd565b975060006140ab828d612710613e73565b90506140b781896154dd565b97506140c38183615670565b91506140d482600160801b8d613eb1565b6140de90886154dd565b999e989d50969b5097995095975050505050505050565b614197601a846101000151600760009054906101000a90046001600160a01b03168660c001518561413757600a54886060015161413291906154dd565b614149565b600b54886060015161414991906154dd565b8661416557600b54896080015161416091906154dd565b614177565b600a54896080015161417791906154dd565b6000546019969594939291908a908a9062010000900462ffffff16614af6565b60020b61010085015260c0909301929092525050565b6000818310156141bd5781613eaa565b5090919050565b60008183106141bd5781613eaa565b821561428b576003546000906141f1906001600160a01b0316613abd565b601454909150600090614215908590600160801b90046001600160801b03166155e0565b905081816001600160801b031611156142415760405163420231d560e11b815260040160405180910390fd5b601480546001600160801b03928316600160801b02908316179055601580548083168590039092166fffffffffffffffffffffffffffffffff199290921691909117905550505050565b6004546000906142a3906001600160a01b0316613abd565b6015549091506000906142c09085906001600160801b03166155e0565b905081816001600160801b031611156142ec57604051637218102160e11b815260040160405180910390fd5b601580546001600160801b039283166fffffffffffffffffffffffffffffffff1990911617905560148054600160801b8082048416869003841602921691909117905550505050565b82156143875760098290556014805482919060009061435e9084906001600160801b03166155e0565b92506101000a8154816001600160801b0302191690836001600160801b03160217905550505050565b60088290556013805482919060109061435e908490600160801b90046001600160801b03166155e0565b6000806143bc61482a565b6006549091506001600160801b031681158015906143da5750600081115b15614407576143ea848383613eb1565b6143f486886154dd565b6143fe91906154dd565b92505050613eaa565b6143fe85876154dd565b60006401000276a36001600160a01b038316108061444c575073fffd8963efd1fc6a506488495d951d5263988d266001600160a01b03831610155b15614483576040517f6e4ba61d00000000000000000000000000000000000000000000000000000000815260040160405180910390fd5b77ffffffffffffffffffffffffffffffffffffffff00000000602083901b166001600160801b03811160071b81811c67ffffffffffffffff811160061b90811c63ffffffff811160051b90811c61ffff811160041b90811c60ff8111600390811b91821c600f811160021b90811c918211600190811b92831c9790881196179094179092171790911717176080811061452457607f810383901c915061452e565b80607f0383901b91505b908002607f81811c60ff83811c9190911c800280831c81831c1c800280841c81841c1c800280851c81851c1c800280861c81861c1c800280871c81871c1c800280881c81881c1c800280891c81891c1c8002808a1c818a1c1c8002808b1c818b1c1c8002808c1c818c1c1c8002808d1c818d1c1c8002808e1c9c81901c9c909c1c80029c8d901c9e9d7fffffffffffffffffffffffffffffffffffffffffffffffffffffffffffffff808f0160401b60c09190911c678000000000000000161760c19b909b1c674000000000000000169a909a1760c29990991c672000000000000000169890981760c39790971c671000000000000000169690961760c49590951c670800000000000000169490941760c59390931c670400000000000000169290921760c69190911c670200000000000000161760c79190911c670100000000000000161760c89190911c6680000000000000161760c99190911c6640000000000000161760ca9190911c6620000000000000161760cb9190911c6610000000000000161760cc9190911c6608000000000000161760cd9190911c66040000000000001617693627a301d71055774c8581027ffffffffffffffffffffffffffffffffffd709b7e5480fba5a50fed5e62ffc5568101608090811d906fdb2df09e81959a81455e260799a0632f8301901d600281810b9083900b1461475b57886001600160a01b031661474082613511565b6001600160a01b03161115614755578161475d565b8061475d565b815b9998505050505050505050565b6000808261477d57506000928392509050565b600061478761482a565b9050614796600c548286613eb1565b92506147a5600d548286613eb1565b915050915091565b6000816147bc57506000919050565b60006147c661482a565b9050613eaa6012548285613eb1565b60006147e2826002615985565b6147ef620d89e71961570c565b6147f991906159b0565b61480f9062ffffff166001600160801b036159d2565b92915050565b61350d6001600160a01b038316333084614d95565b600e5460009042811061483f57600091505090565b600754600f54600160a01b90910463ffffffff169060009061486190846154dd565b9050818111614874576000935050505090565b61487e82846141ad565b61488842836141c4565b6148929190615670565b935050505090565b6000613eaa8383600160801b613eb1565b6401000276a36001600160a01b03821610806148e4575073fffd8963efd1fc6a506488495d951d5263988d266001600160a01b03821610155b15613fd8576040517f6e4ba61d00000000000000000000000000000000000000000000000000000000815260040160405180910390fd5b6040516001600160a01b038316602482015260448101829052612dec9084907fa9059cbb00000000000000000000000000000000000000000000000000000000906064015b60408051601f198184030181529190526020810180517bffffffffffffffffffffffffffffffffffffffffffffffffffffffff167fffffffff0000000000000000000000000000000000000000000000000000000090931692909217909152614de6565b80600f0b600014156149d557613a4d565b6001600160a01b0384166000908152601b60209081526040808320600287810b85529083528184209086900b8452909152812090600f83900b1315614aa657805482908290600090614a319084906001600160801b03166155e0565b82546101009290920a6001600160801b038181021990931691831602179091556000548354680100000000000000009091048216911611159050614aa1576040517fb03425ae00000000000000000000000000000000000000000000000000000000815260040160405180910390fd5b614aef565b614aaf82615765565b81548290600090614aca9084906001600160801b031661560b565b92506101000a8154816001600160801b0302191690836001600160801b031602179055505b5050505050565b600288900b600090815260208b905260408120600301548190614b22906001600160a01b03168a61572f565b60028b900b600090815260208e81526040808320600301805473ffffffffffffffffffffffffffffffffffffffff19166001600160a01b0395909516949094179093558d90522054614b749086615670565b60028b900b600090815260208d905260409020558315614c875760028360020b8b60020b81614ba557614ba56156e2565b0560020b81614bb657614bb66156e2565b0760020b614bee5760028a900b600090815260208d90526040902054660100000000000090046001600160801b031690970396614c1b565b60028a900b600090815260208d90526040902054660100000000000090046001600160801b031697909701965b60028a900b600090815260208d90526040902060010154614c3c9087615670565b60028b810b600090815260208f90526040902060018101929092550154614c639088615670565b60029a8b0b600090815260208e905260409020808c01919091555490990b98614d83565b60028360020b8b60020b81614c9e57614c9e6156e2565b0560020b81614caf57614caf6156e2565b0760020b614ce85760028a900b600090815260208d90526040902054660100000000000090046001600160801b03169790970196614d14565b60028a900b600090815260208d90526040902054660100000000000090046001600160801b0316909703965b60028a810b600090815260208e9052604090200154614d339087615670565b60028b810b600090815260208f9052604090209081019190915560010154614d5b9088615670565b60029a8b0b600090815260208e9052604090206001810191909155546301000000900490990b985b50959a97995096975050505050505050565b6040516001600160a01b0380851660248301528316604482015260648101829052613a4d9085907f23b872dd0000000000000000000000000000000000000000000000000000000090608401614960565b6000614e3b826040518060400160405280602081526020017f5361666545524332303a206c6f772d6c6576656c2063616c6c206661696c6564815250856001600160a01b0316614ecb9092919063ffffffff16565b805190915015612dec5780806020019051810190614e5991906159ec565b612dec5760405162461bcd60e51b815260206004820152602a60248201527f5361666545524332303a204552433230206f7065726174696f6e20646964206e60448201527f6f742073756363656564000000000000000000000000000000000000000000006064820152608401612919565b6060613bb38484600085856001600160a01b0385163b614f2d5760405162461bcd60e51b815260206004820152601d60248201527f416464726573733a2063616c6c20746f206e6f6e2d636f6e74726163740000006044820152606401612919565b600080866001600160a01b03168587604051614f499190615950565b60006040518083038185875af1925050503d8060008114614f86576040519150601f19603f3d011682016040523d82523d6000602084013e614f8b565b606091505b5091509150614f9b828286614fa6565b979650505050505050565b60608315614fb5575081613eaa565b825115614fc55782518084602001fd5b8160405162461bcd60e51b81526004016129199190615a07565b8060020b8114613fd857600080fd5b60008060006060848603121561500357600080fd5b833561500e81614fdf565b9250602084013561501e81614fdf565b929592945050506040919091013590565b634e487b7160e01b600052604160045260246000fd5b80356001600160801b0381168114613e6e57600080fd5b600060c0828403121561506e57600080fd5b60405160c0810181811067ffffffffffffffff821117156150915761509161502f565b604052823561509f81614fdf565b815260208301356150af81614fdf565b602082015260408301356150c281614fdf565b604082015260608301356150d581614fdf565b60608201526150e660808401615045565b60808201526150f760a08401615045565b60a08201529392505050565b6000806000806080858703121561511957600080fd5b843561512481614fdf565b9350602085013561513481614fdf565b93969395505050506040820135916060013590565b6001600160a01b0381168114613fd857600080fd5b60008060008060006080868803121561517657600080fd5b853561518181615149565b94506020860135935060408601359250606086013567ffffffffffffffff808211156151ac57600080fd5b818801915088601f8301126151c057600080fd5b8135818111156151cf57600080fd5b8960208285010111156151e157600080fd5b9699959850939650602001949392505050565b600082601f83011261520557600080fd5b813567ffffffffffffffff808211156152205761522061502f565b604051601f8301601f19908116603f011681019082821181831017156152485761524861502f565b8160405283815286602085880101111561526157600080fd5b836020870160208301376000602085830101528094505050505092915050565b60006020828403121561529357600080fd5b813567ffffffffffffffff8111156152aa57600080fd5b613bb3848285016151f4565b600081518084526020808501945080840160005b838110156152ef5781516001600160a01b0316875295820195908201906001016152ca565b509495945050505050565b602081526000613eaa60208301846152b6565b60006020828403121561531f57600080fd5b5035919050565b60008060006060848603121561533b57600080fd5b833561534681614fdf565b9250602084013561535681614fdf565b915061536460408501615045565b90509250925092565b60008060006060848603121561538257600080fd5b833561538d81615149565b9250602084013561539d81614fdf565b915060408401356153ad81614fdf565b809150509250925092565b600080604083850312156153cb57600080fd5b82356153d681614fdf565b915060208301356153e681614fdf565b809150509250929050565b60006020828403121561540357600080fd5b8135613eaa81615149565b6000806040838503121561542157600080fd5b823567ffffffffffffffff81111561543857600080fd5b615444858286016151f4565b92505060208301356153e681615149565b600080600080600060a0868803121561546d57600080fd5b61547686615045565b945061548460208701615045565b935061549260408701615045565b94979396509394606081013594506080013592915050565b6000602082840312156154bc57600080fd5b8135613eaa81614fdf565b634e487b7160e01b600052601160045260246000fd5b600082198211156154f0576154f06154c7565b500190565b60006101a0820190508b82528a60208301528951604083015260208a0151606083015260408a015160808301526001600160a01b0360608b01511660a083015261554460c083018a60020b9052565b61555360e083018960020b9052565b61556361010083018860020b9052565b61557361012083018760020b9052565b6001600160801b03851661014083015261559361016083018560020b9052565b6001600160a01b0383166101808301529b9a5050505050505050505050565b600080604083850312156155c557600080fd5b82516155d081614fdf565b6020939093015192949293505050565b60006001600160801b03808316818516808303821115615602576156026154c7565b01949350505050565b60006001600160801b038381169083168181101561562b5761562b6154c7565b039392505050565b84815283602082015260606040820152816060820152818360808301376000818301608090810191909152601f909201601f191601019392505050565b600082821015615682576156826154c7565b500390565b80518015158114613e6e57600080fd5b600080604083850312156156aa57600080fd5b6156b383615687565b915060208301516153e681615149565b60008160001904831182151516156156dd576156dd6154c7565b500290565b634e487b7160e01b600052601260045260246000fd5b600082615707576157076156e2565b500490565b60008160020b627fffff19811415615726576157266154c7565b60000392915050565b60006001600160a01b038381169083168181101561562b5761562b6154c7565b634e487b7160e01b600052603260045260246000fd5b600081600f0b7fffffffffffffffffffffffffffffffff80000000000000000000000000000000811415615726576157266154c7565b6000602082840312156157ad57600080fd5b8151613eaa81615149565b6040815260006157cb60408301856152b6565b82810360208481019190915284518083528582019282019060005b81811015615802578451835293830193918301916001016157e6565b5090979650505050505050565b805162ffffff81168114613e6e57600080fd5b600080600080600060a0868803121561583a57600080fd5b855161584581615149565b602087015190955061585681615149565b604087015190945061586781615149565b92506158756060870161580f565b91506158836080870161580f565b90509295509295909350565b60008260020b806158a2576158a26156e2565b808360020b0791505092915050565b60008160020b8360020b806158c8576158c86156e2565b6000198114627fffff19831416156158e2576158e26154c7565b90059392505050565b60007f800000000000000000000000000000000000000000000000000000000000000082141561591d5761591d6154c7565b5060000390565b60005b8381101561593f578181015183820152602001615927565b83811115613a4d5750506000910152565b60008251615962818460208701615924565b9190910192915050565b60006020828403121561597e57600080fd5b5051919050565b600062ffffff808316818516818304811182151516156159a7576159a76154c7565b02949350505050565b600062ffffff808416806159c6576159c66156e2565b92169190910492915050565b60006001600160801b03808416806159c6576159c66156e2565b6000602082840312156159fe57600080fd5b613eaa82615687565b6020815260008251806020840152615a26816040850160208701615924565b601f01601f1916919091016040019291505056fea2646970667358221220140506653f5c2727e5372f106b2c06b42fa13723519f66314b9e12d6fe5beee064736f6c63430008090033",
  "libraries": {
    "RewardTicks": "0xaCc9af149D4E4B75304eb865B3120aF152B3652C"
  }
}