{
  "address": "0xeBa3761C793310E9F814AFcF5d4E7d83FbDc5F14",
  "abi": [
    {
      "inputs": [],
      "name": "InvalidConfig",
      "type": "error"
    },
    {
      "inputs": [],
      "name": "InvalidFeeAndTickSpacing",
      "type": "error"
    },
    {
      "inputs": [],
      "name": "InvalidPool",
      "type": "error"
    },
    {
      "inputs": [],
      "name": "InvalidToken",
      "type": "error"
    },
    {
      "inputs": [],
      "name": "UnauthorisedDeployer",
      "type": "error"
    },
    {
      "inputs": [],
      "name": "UnauthorisedManager",
      "type": "error"
    },
    {
      "inputs": [],
      "name": "WrongTokenOrder",
      "type": "error"
    },
    {
      "inputs": [],
      "name": "ZeroAddress",
      "type": "error"
    },
    {
      "anonymous": false,
      "inputs": [
        {
          "indexed": true,
          "internalType": "address",
          "name": "previousOwner",
          "type": "address"
        },
        {
          "indexed": true,
          "internalType": "address",
          "name": "newOwner",
          "type": "address"
        }
      ],
      "name": "OwnershipTransferred",
      "type": "event"
    },
    {
      "anonymous": false,
      "inputs": [
        {
          "indexed": false,
          "internalType": "uint24",
          "name": "fee",
          "type": "uint24"
        },
        {
          "indexed": false,
          "internalType": "uint24",
          "name": "tickSpacing",
          "type": "uint24"
        },
        {
          "indexed": false,
          "internalType": "bool",
          "name": "ok",
          "type": "bool"
        }
      ],
      "name": "UpdateAvailableFeeAndTickSpacing",
      "type": "event"
    },
    {
      "anonymous": false,
      "inputs": [
        {
          "indexed": false,
          "internalType": "uint256",
          "name": "protocolFee",
          "type": "uint256"
        }
      ],
      "name": "UpdateDefaultProtocolFee",
      "type": "event"
    },
    {
      "anonymous": false,
      "inputs": [
        {
          "indexed": false,
          "internalType": "address",
          "name": "previousImplementation",
          "type": "address"
        },
        {
          "indexed": false,
          "internalType": "address",
          "name": "newImplementation",
          "type": "address"
        }
      ],
      "name": "UpdatePoolImplementation",
      "type": "event"
    },
    {
      "anonymous": false,
      "inputs": [
        {
          "indexed": false,
          "internalType": "address",
          "name": "pool",
          "type": "address"
        },
        {
          "indexed": false,
          "internalType": "uint256",
          "name": "protocolFee",
          "type": "uint256"
        }
      ],
      "name": "UpdateProtocolFee",
      "type": "event"
    },
    {
      "anonymous": false,
      "inputs": [
        {
          "indexed": false,
          "internalType": "address",
          "name": "pool",
          "type": "address"
        },
        {
          "indexed": false,
          "internalType": "address",
          "name": "token",
          "type": "address"
        }
      ],
      "name": "UpdateRewardToken",
      "type": "event"
    },
    {
      "inputs": [
        {
          "internalType": "uint24",
          "name": "",
          "type": "uint24"
        },
        {
          "internalType": "uint24",
          "name": "",
          "type": "uint24"
        }
      ],
      "name": "availableFeeAndTickSpacing",
      "outputs": [
        {
          "internalType": "bool",
          "name": "",
          "type": "bool"
        }
      ],
      "stateMutability": "view",
      "type": "function"
    },
    {
      "inputs": [
        {
          "internalType": "bytes32",
          "name": "",
          "type": "bytes32"
        }
      ],
      "name": "configAddress",
      "outputs": [
        {
          "internalType": "address",
          "name": "",
          "type": "address"
        }
      ],
      "stateMutability": "view",
      "type": "function"
    },
    {
      "inputs": [],
      "name": "defaultProtocolFee",
      "outputs": [
        {
          "internalType": "uint256",
          "name": "",
          "type": "uint256"
        }
      ],
      "stateMutability": "view",
      "type": "function"
    },
    {
      "inputs": [
        {
          "internalType": "bytes",
          "name": "_deployData",
          "type": "bytes"
        }
      ],
      "name": "deployPool",
      "outputs": [
        {
          "internalType": "address",
          "name": "pool",
          "type": "address"
        }
      ],
      "stateMutability": "nonpayable",
      "type": "function"
    },
    {
      "inputs": [
        {
          "internalType": "uint256",
          "name": "idx",
          "type": "uint256"
        }
      ],
      "name": "getPoolAddress",
      "outputs": [
        {
          "internalType": "address",
          "name": "pool",
          "type": "address"
        }
      ],
      "stateMutability": "view",
      "type": "function"
    },
    {
      "inputs": [
        {
          "internalType": "address",
          "name": "token0",
          "type": "address"
        },
        {
          "internalType": "address",
          "name": "token1",
          "type": "address"
        },
        {
          "internalType": "uint256",
          "name": "startIndex",
          "type": "uint256"
        },
        {
          "internalType": "uint256",
          "name": "count",
          "type": "uint256"
        }
      ],
      "name": "getPools",
      "outputs": [
        {
          "internalType": "address[]",
          "name": "pairPools",
          "type": "address[]"
        }
      ],
      "stateMutability": "view",
      "type": "function"
    },
    {
      "inputs": [
        {
          "internalType": "address",
          "name": "_implementation",
          "type": "address"
        },
        {
          "internalType": "address",
          "name": "_masterDeployer",
          "type": "address"
        },
        {
          "internalType": "address",
          "name": "_poolLogger",
          "type": "address"
        }
      ],
      "name": "initialize",
      "outputs": [],
      "stateMutability": "nonpayable",
      "type": "function"
    },
    {
      "inputs": [
        {
          "internalType": "address",
          "name": "",
          "type": "address"
        }
      ],
      "name": "isPool",
      "outputs": [
        {
          "internalType": "bool",
          "name": "",
          "type": "bool"
        }
      ],
      "stateMutability": "view",
      "type": "function"
    },
    {
      "inputs": [],
      "name": "manager",
      "outputs": [
        {
          "internalType": "address",
          "name": "",
          "type": "address"
        }
      ],
      "stateMutability": "view",
      "type": "function"
    },
    {
      "inputs": [],
      "name": "masterDeployer",
      "outputs": [
        {
          "internalType": "address",
          "name": "",
          "type": "address"
        }
      ],
      "stateMutability": "view",
      "type": "function"
    },
    {
      "inputs": [],
      "name": "owner",
      "outputs": [
        {
          "internalType": "address",
          "name": "",
          "type": "address"
        }
      ],
      "stateMutability": "view",
      "type": "function"
    },
    {
      "inputs": [],
      "name": "poolLogger",
      "outputs": [
        {
          "internalType": "address",
          "name": "",
          "type": "address"
        }
      ],
      "stateMutability": "view",
      "type": "function"
    },
    {
      "inputs": [
        {
          "internalType": "address",
          "name": "",
          "type": "address"
        },
        {
          "internalType": "address",
          "name": "",
          "type": "address"
        },
        {
          "internalType": "uint256",
          "name": "",
          "type": "uint256"
        }
      ],
      "name": "pools",
      "outputs": [
        {
          "internalType": "address",
          "name": "",
          "type": "address"
        }
      ],
      "stateMutability": "view",
      "type": "function"
    },
    {
      "inputs": [
        {
          "internalType": "address",
          "name": "token0",
          "type": "address"
        },
        {
          "internalType": "address",
          "name": "token1",
          "type": "address"
        }
      ],
      "name": "poolsCount",
      "outputs": [
        {
          "internalType": "uint256",
          "name": "count",
          "type": "uint256"
        }
      ],
      "stateMutability": "view",
      "type": "function"
    },
    {
      "inputs": [],
      "name": "renounceOwnership",
      "outputs": [],
      "stateMutability": "nonpayable",
      "type": "function"
    },
    {
      "inputs": [
        {
          "internalType": "uint24",
          "name": "fee",
          "type": "uint24"
        },
        {
          "internalType": "uint24",
          "name": "tickSpacing",
          "type": "uint24"
        },
        {
          "internalType": "bool",
          "name": "ok",
          "type": "bool"
        }
      ],
      "name": "setAvailableFeeAndTickSpacing",
      "outputs": [],
      "stateMutability": "nonpayable",
      "type": "function"
    },
    {
      "inputs": [
        {
          "internalType": "uint256",
          "name": "protocolFee",
          "type": "uint256"
        }
      ],
      "name": "setDefaultProtocolFee",
      "outputs": [],
      "stateMutability": "nonpayable",
      "type": "function"
    },
    {
      "inputs": [
        {
          "internalType": "address",
          "name": "_manager",
          "type": "address"
        }
      ],
      "name": "setManager",
      "outputs": [],
      "stateMutability": "nonpayable",
      "type": "function"
    },
    {
      "inputs": [
        {
          "internalType": "address",
          "name": "nextImplementation",
          "type": "address"
        }
      ],
      "name": "setPoolImplementation",
      "outputs": [],
      "stateMutability": "nonpayable",
      "type": "function"
    },
    {
      "inputs": [
        {
          "internalType": "address",
          "name": "pool",
          "type": "address"
        },
        {
          "internalType": "uint256",
          "name": "protocolFee",
          "type": "uint256"
        }
      ],
      "name": "setProtocolFee",
      "outputs": [],
      "stateMutability": "nonpayable",
      "type": "function"
    },
    {
      "inputs": [
        {
          "internalType": "address",
          "name": "pool",
          "type": "address"
        },
        {
          "internalType": "address",
          "name": "token",
          "type": "address"
        }
      ],
      "name": "setRewardToken",
      "outputs": [],
      "stateMutability": "nonpayable",
      "type": "function"
    },
    {
      "inputs": [],
      "name": "totalPoolsCount",
      "outputs": [
        {
          "internalType": "uint256",
          "name": "total",
          "type": "uint256"
        }
      ],
      "stateMutability": "view",
      "type": "function"
    },
    {
      "inputs": [
        {
          "internalType": "address",
          "name": "newOwner",
          "type": "address"
        }
      ],
      "name": "transferOwnership",
      "outputs": [],
      "stateMutability": "nonpayable",
      "type": "function"
    },
    {
      "inputs": [
        {
          "internalType": "address[]",
          "name": "_pools",
          "type": "address[]"
        }
      ],
      "name": "upgradePools",
      "outputs": [],
      "stateMutability": "nonpayable",
      "type": "function"
    },
    {
      "inputs": [
        {
          "internalType": "address[]",
          "name": "_pools",
          "type": "address[]"
        },
        {
          "internalType": "bytes[]",
          "name": "datas",
          "type": "bytes[]"
        }
      ],
      "name": "upgradePoolsAndCall",
      "outputs": [],
      "stateMutability": "nonpayable",
      "type": "function"
    }
  ],
  "transactionHash": "0x34d721a425c718314ea62a855fdeb4a3171c20874465027c11593f1fe0eb4a97",
  "args": [],
  "numDeployments": 3,
  "solcInputHash": "c1064afc934590b178375e1b163afdd3",
  "bytecode": "0x608060405234801561001057600080fd5b5061334d806100206000396000f3fe60806040523480156200001157600080fd5b5060043610620001c45760003560e01c80636034b5101162000101578063c0c53b8b11620000a3578063d6f74898116200007a578063d6f748981462000460578063e5c8c5721462000477578063f2fde38b146200048e578063f6ab6d9914620004a557600080fd5b8063c0c53b8b1462000411578063cf58879a1462000428578063d0ebdbe7146200044957600080fd5b80638da5cb5b11620000d85780638da5cb5b14620003aa5780639ee6465b14620003c9578063b5b3ca2c14620003fa57600080fd5b80636034b5101462000363578063715018a6146200037a57806371a25812146200038457600080fd5b8063481c6a75116200016b578063566a89af1162000142578063566a89af14620002da5780635b16ebb714620002e35780635bc93d6c146200031a57600080fd5b8063481c6a7514620002815780635159d73c14620002a257806356088ff114620002b957600080fd5b806327c3cae111620001a057806327c3cae1146200023a57806340aee0411462000251578063421bcbdf146200026857600080fd5b8062a5ae2114620001c95780630dfc574b146200020a578063169c4cef1462000223575b600080fd5b620001e0620001da36600462001e26565b620004de565b60405173ffffffffffffffffffffffffffffffffffffffff90911681526020015b60405180910390f35b620002216200021b36600462001f78565b6200051e565b005b620001e0620002343660046200201a565b620006dc565b620001e06200024b36600462002060565b6200072f565b62000221620002623660046200211c565b62000eef565b62000272606e5481565b60405190815260200162000201565b606754620001e09073ffffffffffffffffffffffffffffffffffffffff1681565b62000221620002b33660046200216f565b62001026565b606654620001e09073ffffffffffffffffffffffffffffffffffffffff1681565b606d5462000272565b62000309620002f4366004620021c5565b606c6020526000908152604090205460ff1681565b604051901515815260200162000201565b620002726200032b366004620021ec565b73ffffffffffffffffffffffffffffffffffffffff918216600090815260696020908152604080832093909416825291909152205490565b620002216200037436600462001e26565b6200110e565b620002216200119b565b6200039b620003953660046200222a565b6200122c565b60405162000201919062002275565b60335473ffffffffffffffffffffffffffffffffffffffff16620001e0565b62000309620003da366004620022d1565b606f60209081526000928352604080842090915290825290205460ff1681565b620002216200040b36600462002304565b62001357565b620002216200042236600462002333565b62001480565b606554620001e09073ffffffffffffffffffffffffffffffffffffffff1681565b620002216200045a366004620021c5565b62001820565b6200022162000471366004620021c5565b620018b9565b6200022162000488366004620021ec565b620019a6565b620002216200049f366004620021c5565b62001b2a565b620001e0620004b636600462001e26565b606a6020526000908152604090205473ffffffffffffffffffffffffffffffffffffffff1681565b6000606d8281548110620004f657620004f66200237a565b60009182526020909120015473ffffffffffffffffffffffffffffffffffffffff1692915050565b60675473ffffffffffffffffffffffffffffffffffffffff16331462000570576040517f3d83907a00000000000000000000000000000000000000000000000000000000815260040160405180910390fd5b606854835173ffffffffffffffffffffffffffffffffffffffff909116908214620005fc576040517f08c379a000000000000000000000000000000000000000000000000000000000815260206004820152601860248201527f6d69736d61746368696e67206172726179206c656e677468000000000000000060448201526064015b60405180910390fd5b60005b8451811015620006d5578481815181106200061e576200061e6200237a565b602002602001015173ffffffffffffffffffffffffffffffffffffffff16634f1ef286838686858181106200065757620006576200237a565b90506020028101906200066b9190620023a9565b6040518463ffffffff1660e01b81526004016200068b9392919062002418565b600060405180830381600087803b158015620006a657600080fd5b505af1158015620006bb573d6000803e3d6000fd5b505050508080620006cc90620024b1565b915050620005ff565b5050505050565b606960205282600052604060002060205281600052604060002081815481106200070557600080fd5b60009182526020909120015473ffffffffffffffffffffffffffffffffffffffff16925083915050565b60655460009073ffffffffffffffffffffffffffffffffffffffff16331462000784576040517f03781a5300000000000000000000000000000000000000000000000000000000815260040160405180910390fd5b600080600080600086806020019051810190620007a29190620024ed565b945094509450945094508373ffffffffffffffffffffffffffffffffffffffff168573ffffffffffffffffffffffffffffffffffffffff16111562000813576040517f30082a1600000000000000000000000000000000000000000000000000000000815260040160405180910390fd5b62ffffff8084166000908152606f602090815260408083209385168352929052205460ff166200086f576040517fb87686b800000000000000000000000000000000000000000000000000000000815260040160405180910390fd5b73ffffffffffffffffffffffffffffffffffffffff80861660009081526069602090815260408083209388168352928152828220805484518184028101840190955280855292939290918301828280156200090157602002820191906000526020600020905b815473ffffffffffffffffffffffffffffffffffffffff168152600190910190602001808311620008d5575b5050505050905060005b815181101562000abf578262ffffff168282815181106200093057620009306200237a565b602002602001015173ffffffffffffffffffffffffffffffffffffffff1663d0c93a7c6040518163ffffffff1660e01b815260040160206040518083038186803b1580156200097e57600080fd5b505afa15801562000993573d6000803e3d6000fd5b505050506040513d601f19601f82011682018060405250810190620009b991906200256d565b62ffffff1614801562000a7257508462ffffff16828281518110620009e257620009e26200237a565b602002602001015173ffffffffffffffffffffffffffffffffffffffff166354cf2aeb6040518163ffffffff1660e01b815260040160206040518083038186803b15801562000a3057600080fd5b505afa15801562000a45573d6000803e3d6000fd5b505050506040513d601f19601f8201168201806040525081019062000a6b91906200256d565b62ffffff16145b1562000aaa576040517f35be3ac800000000000000000000000000000000000000000000000000000000815260040160405180910390fd5b8062000ab681620024b1565b9150506200090b565b506040805173ffffffffffffffffffffffffffffffffffffffff80891660208301528716918101919091526000606082015262ffffff8086166080830152831660a082015260c001604080517fffffffffffffffffffffffffffffffffffffffffffffffffffffffffffffffe08184030181529082905280516020820120606854919a5091829173ffffffffffffffffffffffffffffffffffffffff1690309062000b6a9062001e18565b73ffffffffffffffffffffffffffffffffffffffff9283168152911660208201526060604082018190526000908201526080018190604051809103906000f590508015801562000bbe573d6000803e3d6000fd5b506065546040517fcce2df0300000000000000000000000000000000000000000000000000000000815291995073ffffffffffffffffffffffffffffffffffffffff808b169263cce2df039262000c1d928e929116906004016200258d565b600060405180830381600087803b15801562000c3857600080fd5b505af115801562000c4d573d6000803e3d6000fd5b5050506000828152606a60209081526040808320805473ffffffffffffffffffffffffffffffffffffffff8e81167fffffffffffffffffffffffff000000000000000000000000000000000000000092831681179093558d811680875260698087528588208f8416808a52908852868920805460018181018355918b52898b2001805487168817905590895290875285882091885290865284872080548083018255908852868820018054841685179055838752606c90955283862080547fffffffffffffffffffffffffffffffffffffffffffffffffffffffffffffff001686179055606d805495860181559095527f5006b838207c6a9ae9b84d68f467dd4bb5c305fbfb6b04eab8faaabeec1e18d890930180549093168117909255517fd90bda4e0000000000000000000000000000000000000000000000000000000081529187166004830152915063d90bda4e90602401600060405180830381600087803b15801562000dbd57600080fd5b505af115801562000dd2573d6000803e3d6000fd5b50506066546040517fbd7d1eea00000000000000000000000000000000000000000000000000000000815273ffffffffffffffffffffffffffffffffffffffff9182166004820152908b16925063bd7d1eea9150602401600060405180830381600087803b15801562000e4457600080fd5b505af115801562000e59573d6000803e3d6000fd5b5050606e546040517f787dce3d000000000000000000000000000000000000000000000000000000008152600481019190915273ffffffffffffffffffffffffffffffffffffffff8b16925063787dce3d9150602401600060405180830381600087803b15801562000eca57600080fd5b505af115801562000edf573d6000803e3d6000fd5b5050505050505050505050919050565b60675473ffffffffffffffffffffffffffffffffffffffff16331462000f41576040517f3d83907a00000000000000000000000000000000000000000000000000000000815260040160405180910390fd5b60685473ffffffffffffffffffffffffffffffffffffffff1660005b8251811015620010215782818151811062000f7c5762000f7c6200237a565b60209081029190910101516040517f3659cfe600000000000000000000000000000000000000000000000000000000815273ffffffffffffffffffffffffffffffffffffffff848116600483015290911690633659cfe690602401600060405180830381600087803b15801562000ff257600080fd5b505af115801562001007573d6000803e3d6000fd5b5050505080806200101890620024b1565b91505062000f5d565b505050565b60675473ffffffffffffffffffffffffffffffffffffffff16331462001078576040517f3d83907a00000000000000000000000000000000000000000000000000000000815260040160405180910390fd5b62ffffff8381166000818152606f602090815260408083209487168084529482529182902080547fffffffffffffffffffffffffffffffffffffffffffffffffffffffffffffff00168615159081179091558251938452908301939093528101919091527f7a6c71f96c8aa946c5483648392f4440e50d64b7a351ea262129c024a068465f9060600160405180910390a1505050565b60675473ffffffffffffffffffffffffffffffffffffffff16331462001160576040517f3d83907a00000000000000000000000000000000000000000000000000000000815260040160405180910390fd5b606e8190556040518181527f2d63886767aff97f7e87aa7061069ccb0a28bc5a34d22985057e40917f31373c9060200160405180910390a150565b60335473ffffffffffffffffffffffffffffffffffffffff1633146200121e576040517f08c379a000000000000000000000000000000000000000000000000000000000815260206004820181905260248201527f4f776e61626c653a2063616c6c6572206973206e6f7420746865206f776e65726044820152606401620005f3565b6200122a600062001c60565b565b60608167ffffffffffffffff8111156200124a576200124a62001e40565b60405190808252806020026020018201604052801562001274578160200160208202803683370190505b50905060005b828110156200134e5773ffffffffffffffffffffffffffffffffffffffff8087166000908152606960209081526040808320938916835292905220620012c1828662002621565b81548110620012d457620012d46200237a565b9060005260206000200160009054906101000a900473ffffffffffffffffffffffffffffffffffffffff168282815181106200131457620013146200237a565b73ffffffffffffffffffffffffffffffffffffffff90921660209283029190910190910152806200134581620024b1565b9150506200127a565b50949350505050565b60675473ffffffffffffffffffffffffffffffffffffffff163314620013a9576040517f3d83907a00000000000000000000000000000000000000000000000000000000815260040160405180910390fd5b6040517f787dce3d0000000000000000000000000000000000000000000000000000000081526004810182905273ffffffffffffffffffffffffffffffffffffffff83169063787dce3d90602401600060405180830381600087803b1580156200141257600080fd5b505af115801562001427573d6000803e3d6000fd5b50506040805173ffffffffffffffffffffffffffffffffffffffff86168152602081018590527f5f1fbcc409cd21ef4459e87d22bd635e32979279e8aefe917fc2d34567c7795a93500190505b60405180910390a15050565b600054610100900460ff166200149d5760005460ff1615620014a1565b303b155b6200152f576040517f08c379a000000000000000000000000000000000000000000000000000000000815260206004820152602e60248201527f496e697469616c697a61626c653a20636f6e747261637420697320616c72656160448201527f647920696e697469616c697a65640000000000000000000000000000000000006064820152608401620005f3565b600054610100900460ff161580156200156f57600080547fffffffffffffffffffffffffffffffffffffffffffffffffffffffffffff0000166101011790555b73ffffffffffffffffffffffffffffffffffffffff8416620015bd576040517fd92e233d00000000000000000000000000000000000000000000000000000000815260040160405180910390fd5b73ffffffffffffffffffffffffffffffffffffffff83166200160b576040517fd92e233d00000000000000000000000000000000000000000000000000000000815260040160405180910390fd5b73ffffffffffffffffffffffffffffffffffffffff821662001659576040517fd92e233d00000000000000000000000000000000000000000000000000000000815260040160405180910390fd5b6068805473ffffffffffffffffffffffffffffffffffffffff8087167fffffffffffffffffffffffff0000000000000000000000000000000000000000928316179092556065805486841690831617905560668054928516929091169190911790556103e8606e557fb76ee0f27ddb32fa9a2030cb52797673872e15ab3461e4045f604fa66863d60a80547fffffffffffffffffffffffffffffffffffffffffffffffffffffffffffffff0090811660019081179092557f341ace2ca8af05318cc8a4b96e4e3a7492e53fec3a5cbdafc6874b38633e788080548216831790557fd29274335c99d39d761c7010f07e14fba3d6202112deb81c4632ddf308b91e70805482168317905560026000527fe0d3e439b4a04265b4f24fa629f59c5433e12f15565196b06fa74f22397180866020527f1997a1aa8844bbadce0d5df367e8ccf8854782822d76567847c45104dc52656680549091169091179055620017c062001cd7565b606780547fffffffffffffffffffffffff0000000000000000000000000000000000000000163317905580156200181a57600080547fffffffffffffffffffffffffffffffffffffffffffffffffffffffffffff00ff1690555b50505050565b60675473ffffffffffffffffffffffffffffffffffffffff16331462001872576040517f3d83907a00000000000000000000000000000000000000000000000000000000815260040160405180910390fd5b606780547fffffffffffffffffffffffff00000000000000000000000000000000000000001673ffffffffffffffffffffffffffffffffffffffff92909216919091179055565b60675473ffffffffffffffffffffffffffffffffffffffff1633146200190b576040517f3d83907a00000000000000000000000000000000000000000000000000000000815260040160405180910390fd5b6068546040805173ffffffffffffffffffffffffffffffffffffffff928316815291831660208301527f0617fd31aa5ab95ec80eefc1eb61a2c477aa419d1d761b4e46f5f077e47852aa910160405180910390a1606880547fffffffffffffffffffffffff00000000000000000000000000000000000000001673ffffffffffffffffffffffffffffffffffffffff92909216919091179055565b60675473ffffffffffffffffffffffffffffffffffffffff163314620019f8576040517f3d83907a00000000000000000000000000000000000000000000000000000000815260040160405180910390fd5b73ffffffffffffffffffffffffffffffffffffffff82166000908152606c602052604090205460ff1662001a58576040517f2083cd4000000000000000000000000000000000000000000000000000000000815260040160405180910390fd5b6040517fe46dbc9800000000000000000000000000000000000000000000000000000000815273ffffffffffffffffffffffffffffffffffffffff828116600483015283169063e46dbc9890602401600060405180830381600087803b15801562001ac257600080fd5b505af115801562001ad7573d6000803e3d6000fd5b50506040805173ffffffffffffffffffffffffffffffffffffffff8087168252851660208201527fc30eb506689648404822be5551d0b5c732da6df0983ad57dd760118e9e0bab98935001905062001474565b60335473ffffffffffffffffffffffffffffffffffffffff16331462001bad576040517f08c379a000000000000000000000000000000000000000000000000000000000815260206004820181905260248201527f4f776e61626c653a2063616c6c6572206973206e6f7420746865206f776e65726044820152606401620005f3565b73ffffffffffffffffffffffffffffffffffffffff811662001c52576040517f08c379a000000000000000000000000000000000000000000000000000000000815260206004820152602660248201527f4f776e61626c653a206e6577206f776e657220697320746865207a65726f206160448201527f64647265737300000000000000000000000000000000000000000000000000006064820152608401620005f3565b62001c5d8162001c60565b50565b6033805473ffffffffffffffffffffffffffffffffffffffff8381167fffffffffffffffffffffffff0000000000000000000000000000000000000000831681179093556040519116919082907f8be0079c531659141344cd1fd0a4f28419497f9722a3daafe3b4186f6b6457e090600090a35050565b600054610100900460ff1662001d70576040517f08c379a000000000000000000000000000000000000000000000000000000000815260206004820152602b60248201527f496e697469616c697a61626c653a20636f6e7472616374206973206e6f74206960448201527f6e697469616c697a696e670000000000000000000000000000000000000000006064820152608401620005f3565b6200122a600054610100900460ff1662001e0d576040517f08c379a000000000000000000000000000000000000000000000000000000000815260206004820152602b60248201527f496e697469616c697a61626c653a20636f6e7472616374206973206e6f74206960448201527f6e697469616c697a696e670000000000000000000000000000000000000000006064820152608401620005f3565b6200122a3362001c60565b610cdb806200263d83390190565b60006020828403121562001e3957600080fd5b5035919050565b7f4e487b7100000000000000000000000000000000000000000000000000000000600052604160045260246000fd5b604051601f82017fffffffffffffffffffffffffffffffffffffffffffffffffffffffffffffffe016810167ffffffffffffffff8111828210171562001eb95762001eb962001e40565b604052919050565b73ffffffffffffffffffffffffffffffffffffffff8116811462001c5d57600080fd5b600082601f83011262001ef657600080fd5b8135602067ffffffffffffffff82111562001f155762001f1562001e40565b8160051b62001f2682820162001e6f565b928352848101820192828101908785111562001f4157600080fd5b83870192505b8483101562001f6d57823562001f5d8162001ec1565b8252918301919083019062001f47565b979650505050505050565b60008060006040848603121562001f8e57600080fd5b833567ffffffffffffffff8082111562001fa757600080fd5b62001fb58783880162001ee4565b9450602086013591508082111562001fcc57600080fd5b818601915086601f83011262001fe157600080fd5b81358181111562001ff157600080fd5b8760208260051b85010111156200200757600080fd5b6020830194508093505050509250925092565b6000806000606084860312156200203057600080fd5b83356200203d8162001ec1565b925060208401356200204f8162001ec1565b929592945050506040919091013590565b600060208083850312156200207457600080fd5b823567ffffffffffffffff808211156200208d57600080fd5b818501915085601f830112620020a257600080fd5b813581811115620020b757620020b762001e40565b620020e9847fffffffffffffffffffffffffffffffffffffffffffffffffffffffffffffffe0601f8401160162001e6f565b915080825286848285010111156200210057600080fd5b8084840185840137600090820190930192909252509392505050565b6000602082840312156200212f57600080fd5b813567ffffffffffffffff8111156200214757600080fd5b620021558482850162001ee4565b949350505050565b62ffffff8116811462001c5d57600080fd5b6000806000606084860312156200218557600080fd5b833562002192816200215d565b92506020840135620021a4816200215d565b915060408401358015158114620021ba57600080fd5b809150509250925092565b600060208284031215620021d857600080fd5b8135620021e58162001ec1565b9392505050565b600080604083850312156200220057600080fd5b82356200220d8162001ec1565b915060208301356200221f8162001ec1565b809150509250929050565b600080600080608085870312156200224157600080fd5b84356200224e8162001ec1565b93506020850135620022608162001ec1565b93969395505050506040820135916060013590565b6020808252825182820181905260009190848201906040850190845b81811015620022c557835173ffffffffffffffffffffffffffffffffffffffff168352928401929184019160010162002291565b50909695505050505050565b60008060408385031215620022e557600080fd5b8235620022f2816200215d565b915060208301356200221f816200215d565b600080604083850312156200231857600080fd5b8235620023258162001ec1565b946020939093013593505050565b6000806000606084860312156200234957600080fd5b8335620023568162001ec1565b92506020840135620023688162001ec1565b91506040840135620021ba8162001ec1565b7f4e487b7100000000000000000000000000000000000000000000000000000000600052603260045260246000fd5b60008083357fffffffffffffffffffffffffffffffffffffffffffffffffffffffffffffffe1843603018112620023df57600080fd5b83018035915067ffffffffffffffff821115620023fb57600080fd5b6020019150368190038213156200241157600080fd5b9250929050565b73ffffffffffffffffffffffffffffffffffffffff8416815260406020820152816040820152818360608301376000818301606090810191909152601f9092017fffffffffffffffffffffffffffffffffffffffffffffffffffffffffffffffe016010192915050565b7f4e487b7100000000000000000000000000000000000000000000000000000000600052601160045260246000fd5b60007fffffffffffffffffffffffffffffffffffffffffffffffffffffffffffffffff821415620024e657620024e662002482565b5060010190565b600080600080600060a086880312156200250657600080fd5b8551620025138162001ec1565b6020870151909550620025268162001ec1565b604087015190945062002539816200215d565b60608701519093506200254c8162001ec1565b60808701519092506200255f816200215d565b809150509295509295909350565b6000602082840312156200258057600080fd5b8151620021e5816200215d565b604081526000835180604084015260005b81811015620025bd57602081870181015160608684010152016200259e565b81811115620025d0576000606083860101525b5073ffffffffffffffffffffffffffffffffffffffff93909316602083015250601f919091017fffffffffffffffffffffffffffffffffffffffffffffffffffffffffffffffe01601606001919050565b6000821982111562002637576200263762002482565b50019056fe608060405260405162000cdb38038062000cdb8339810160408190526200002691620001fc565b62000032838262000046565b6200003d8262000128565b505050620002fa565b7f360894a13ba1a3210667c828492db98dca3e2076cc3735a920a3ca505d382bbc8054908390556040516001600160a01b0380851691908316907f5570d70a002632a7b0b3c9304cc89efb62d8da9eca0dbd7752c83b737906829690600090a381511562000123576000836001600160a01b031683604051620000ca9190620002dc565b600060405180830381855af49150503d806000811462000107576040519150601f19603f3d011682016040523d82523d6000602084013e6200010c565b606091505b505090508062000121573d806000803e806000fd5b505b505050565b60006200014260008051602062000cbb8339815191525490565b90508160008051602062000cbb83398151915255816001600160a01b0316816001600160a01b03167fdf435d422321da6b195902d70fc417c06a32f88379c20dd8f2a8da07088cec2960405160405180910390a35050565b80516001600160a01b0381168114620001b257600080fd5b919050565b634e487b7160e01b600052604160045260246000fd5b60005b83811015620001ea578181015183820152602001620001d0565b83811115620001215750506000910152565b6000806000606084860312156200021257600080fd5b6200021d846200019a565b92506200022d602085016200019a565b60408501519092506001600160401b03808211156200024b57600080fd5b818601915086601f8301126200026057600080fd5b815181811115620002755762000275620001b7565b604051601f8201601f19908116603f01168101908382118183101715620002a057620002a0620001b7565b81604052828152896020848701011115620002ba57600080fd5b620002cd836020830160208801620001cd565b80955050505050509250925092565b60008251620002f0818460208701620001cd565b9190910192915050565b6109b1806200030a6000396000f3fe60806040526004361061005e5760003560e01c80633e47158c116100435780633e47158c146101295780634f1ef286146101635780638356ca4f14610176576100ca565b806301ffc9a7146100d45780633659cfe614610109576100ca565b366100ca576040517f08c379a000000000000000000000000000000000000000000000000000000000815260206004820152600e60248201527f45544845525f52454a454354454400000000000000000000000000000000000060448201526064015b60405180910390fd5b6100d2610196565b005b3480156100e057600080fd5b506100f46100ef366004610815565b6101e1565b60405190151581526020015b60405180910390f35b34801561011557600080fd5b506100d2610124366004610880565b6103be565b34801561013557600080fd5b5061013e610490565b60405173ffffffffffffffffffffffffffffffffffffffff9091168152602001610100565b6100d261017136600461089b565b6104bf565b34801561018257600080fd5b506100d2610191366004610880565b6105ba565b7f360894a13ba1a3210667c828492db98dca3e2076cc3735a920a3ca505d382bbc5460003681823780813683855af491503d8082833e8280156101d7578183f35b8183fd5b50505050565b60007f01ffc9a7000000000000000000000000000000000000000000000000000000007fffffffff000000000000000000000000000000000000000000000000000000008316148061027457507f7f5828d0000000000000000000000000000000000000000000000000000000007fffffffff000000000000000000000000000000000000000000000000000000008316145b1561028157506001919050565b7fffffffff0000000000000000000000000000000000000000000000000000000080831614156102b357506000919050565b7f360894a13ba1a3210667c828492db98dca3e2076cc3735a920a3ca505d382bbc546040517f01ffc9a70000000000000000000000000000000000000000000000000000000081527fffffffff000000000000000000000000000000000000000000000000000000008416600482015273ffffffffffffffffffffffffffffffffffffffff8216906301ffc9a79060240160206040518083038186803b15801561035c57600080fd5b505afa9250505080156103aa575060408051601f3d9081017fffffffffffffffffffffffffffffffffffffffffffffffffffffffffffffffe01682019092526103a79181019061091e565b60015b6103b75750600092915050565b9392505050565b7fb53127684a568b3173ae13b9f8a6016e243e63b6e8ee1178d6a717850b5d61035473ffffffffffffffffffffffffffffffffffffffff163373ffffffffffffffffffffffffffffffffffffffff1614610474576040517f08c379a000000000000000000000000000000000000000000000000000000000815260206004820152600e60248201527f4e4f545f415554484f52495a454400000000000000000000000000000000000060448201526064016100c1565b61048d8160405180602001604052806000815250610679565b50565b60006104ba7fb53127684a568b3173ae13b9f8a6016e243e63b6e8ee1178d6a717850b5d61035490565b905090565b7fb53127684a568b3173ae13b9f8a6016e243e63b6e8ee1178d6a717850b5d61035473ffffffffffffffffffffffffffffffffffffffff163373ffffffffffffffffffffffffffffffffffffffff1614610575576040517f08c379a000000000000000000000000000000000000000000000000000000000815260206004820152600e60248201527f4e4f545f415554484f52495a454400000000000000000000000000000000000060448201526064016100c1565b6105b58383838080601f01602080910402602001604051908101604052809392919081815260200183838082843760009201919091525061067992505050565b505050565b7fb53127684a568b3173ae13b9f8a6016e243e63b6e8ee1178d6a717850b5d61035473ffffffffffffffffffffffffffffffffffffffff163373ffffffffffffffffffffffffffffffffffffffff1614610670576040517f08c379a000000000000000000000000000000000000000000000000000000000815260206004820152600e60248201527f4e4f545f415554484f52495a454400000000000000000000000000000000000060448201526064016100c1565b61048d81610768565b7f360894a13ba1a3210667c828492db98dca3e2076cc3735a920a3ca505d382bbc80549083905560405173ffffffffffffffffffffffffffffffffffffffff80851691908316907f5570d70a002632a7b0b3c9304cc89efb62d8da9eca0dbd7752c83b737906829690600090a38151156105b55760008373ffffffffffffffffffffffffffffffffffffffff16836040516107149190610940565b600060405180830381855af49150503d806000811461074f576040519150601f19603f3d011682016040523d82523d6000602084013e610754565b606091505b50509050806101db573d806000803e806000fd5b60006107927fb53127684a568b3173ae13b9f8a6016e243e63b6e8ee1178d6a717850b5d61035490565b9050817fb53127684a568b3173ae13b9f8a6016e243e63b6e8ee1178d6a717850b5d6103558173ffffffffffffffffffffffffffffffffffffffff168173ffffffffffffffffffffffffffffffffffffffff167fdf435d422321da6b195902d70fc417c06a32f88379c20dd8f2a8da07088cec2960405160405180910390a35050565b60006020828403121561082757600080fd5b81357fffffffff00000000000000000000000000000000000000000000000000000000811681146103b757600080fd5b803573ffffffffffffffffffffffffffffffffffffffff8116811461087b57600080fd5b919050565b60006020828403121561089257600080fd5b6103b782610857565b6000806000604084860312156108b057600080fd5b6108b984610857565b9250602084013567ffffffffffffffff808211156108d657600080fd5b818601915086601f8301126108ea57600080fd5b8135818111156108f957600080fd5b87602082850101111561090b57600080fd5b6020830194508093505050509250925092565b60006020828403121561093057600080fd5b815180151581146103b757600080fd5b6000825160005b818110156109615760208186018101518583015201610947565b81811115610970576000828501525b50919091019291505056fea2646970667358221220f941c4782a0ee12b1d02c6008db8836a2dee954b83ea1ed7172f702965941e0a64736f6c63430008090033b53127684a568b3173ae13b9f8a6016e243e63b6e8ee1178d6a717850b5d6103a2646970667358221220426959070b93151a1646e53d43a07b98ef93683041f1aef3e64e7e5bb221358364736f6c63430008090033",
  "devdoc": {
    "kind": "dev",
    "methods": {
      "owner()": {
        "details": "Returns the address of the current owner."
      },
      "renounceOwnership()": {
        "details": "Leaves the contract without owner. It will not be possible to call `onlyOwner` functions anymore. Can only be called by the current owner. NOTE: Renouncing ownership will leave the contract without an owner, thereby removing any functionality that is only available to the owner."
      },
      "transferOwnership(address)": {
        "details": "Transfers ownership of the contract to a new account (`newOwner`). Can only be called by the current owner."
      }
    },
    "stateVariables": {
      "configAddress": {
        "params": {
          "data": "abi.encode(address tokenA, address tokenB, uint24 swapFee, uint24 tickSpacing);"
        }
      }
    },
    "version": 1
  },
  "userdoc": {
    "kind": "user",
    "methods": {
      "configAddress(bytes32)": {
        "notice": "Return the address of the pool created with the given config data"
      },
      "getPoolAddress(uint256)": {
        "notice": "Return the address of pool by index"
      },
      "getPools(address,address,uint256,uint256)": {
        "notice": "Return the list of pools composed of two tokens"
      },
      "isPool(address)": {
        "notice": "Return whether the pool is created by the factory"
      },
      "poolsCount(address,address)": {
        "notice": "Return the number of pools composed of two tokens"
      },
      "totalPoolsCount()": {
        "notice": "Return the number of pools deployed from factory"
      }
    },
    "notice": "Contract for deploying Reward Liquidity Pool",
    "version": 1
  },
  "storageLayout": {
    "storage": [
      {
        "astId": 130,
        "contract": "contracts/custom/miningPool/MiningPoolFactory.sol:MiningPoolFactory",
        "label": "_initialized",
        "offset": 0,
        "slot": "0",
        "type": "t_bool"
      },
      {
        "astId": 133,
        "contract": "contracts/custom/miningPool/MiningPoolFactory.sol:MiningPoolFactory",
        "label": "_initializing",
        "offset": 1,
        "slot": "0",
        "type": "t_bool"
      },
      {
        "astId": 1981,
        "contract": "contracts/custom/miningPool/MiningPoolFactory.sol:MiningPoolFactory",
        "label": "__gap",
        "offset": 0,
        "slot": "1",
        "type": "t_array(t_uint256)50_storage"
      },
      {
        "astId": 10,
        "contract": "contracts/custom/miningPool/MiningPoolFactory.sol:MiningPoolFactory",
        "label": "_owner",
        "offset": 0,
        "slot": "51",
        "type": "t_address"
      },
      {
        "astId": 122,
        "contract": "contracts/custom/miningPool/MiningPoolFactory.sol:MiningPoolFactory",
        "label": "__gap",
        "offset": 0,
        "slot": "52",
        "type": "t_array(t_uint256)49_storage"
      },
      {
        "astId": 5765,
        "contract": "contracts/custom/miningPool/MiningPoolFactory.sol:MiningPoolFactory",
        "label": "masterDeployer",
        "offset": 0,
        "slot": "101",
        "type": "t_address"
      },
      {
        "astId": 5767,
        "contract": "contracts/custom/miningPool/MiningPoolFactory.sol:MiningPoolFactory",
        "label": "poolLogger",
        "offset": 0,
        "slot": "102",
        "type": "t_address"
      },
      {
        "astId": 5769,
        "contract": "contracts/custom/miningPool/MiningPoolFactory.sol:MiningPoolFactory",
        "label": "manager",
        "offset": 0,
        "slot": "103",
        "type": "t_address"
      },
      {
        "astId": 5771,
        "contract": "contracts/custom/miningPool/MiningPoolFactory.sol:MiningPoolFactory",
        "label": "poolImplementation",
        "offset": 0,
        "slot": "104",
        "type": "t_address"
      },
      {
        "astId": 5778,
        "contract": "contracts/custom/miningPool/MiningPoolFactory.sol:MiningPoolFactory",
        "label": "pools",
        "offset": 0,
        "slot": "105",
        "type": "t_mapping(t_address,t_mapping(t_address,t_array(t_address)dyn_storage))"
      },
      {
        "astId": 5782,
        "contract": "contracts/custom/miningPool/MiningPoolFactory.sol:MiningPoolFactory",
        "label": "configAddress",
        "offset": 0,
        "slot": "106",
        "type": "t_mapping(t_bytes32,t_address)"
      },
      {
        "astId": 5786,
        "contract": "contracts/custom/miningPool/MiningPoolFactory.sol:MiningPoolFactory",
        "label": "availableConfigs",
        "offset": 0,
        "slot": "107",
        "type": "t_mapping(t_bytes32,t_bool)"
      },
      {
        "astId": 5790,
        "contract": "contracts/custom/miningPool/MiningPoolFactory.sol:MiningPoolFactory",
        "label": "isPool",
        "offset": 0,
        "slot": "108",
        "type": "t_mapping(t_address,t_bool)"
      },
      {
        "astId": 5793,
        "contract": "contracts/custom/miningPool/MiningPoolFactory.sol:MiningPoolFactory",
        "label": "poolArray",
        "offset": 0,
        "slot": "109",
        "type": "t_array(t_address)dyn_storage"
      },
      {
        "astId": 5795,
        "contract": "contracts/custom/miningPool/MiningPoolFactory.sol:MiningPoolFactory",
        "label": "defaultProtocolFee",
        "offset": 0,
        "slot": "110",
        "type": "t_uint256"
      },
      {
        "astId": 5801,
        "contract": "contracts/custom/miningPool/MiningPoolFactory.sol:MiningPoolFactory",
        "label": "availableFeeAndTickSpacing",
        "offset": 0,
        "slot": "111",
        "type": "t_mapping(t_uint24,t_mapping(t_uint24,t_bool))"
      }
    ],
    "types": {
      "t_address": {
        "encoding": "inplace",
        "label": "address",
        "numberOfBytes": "20"
      },
      "t_array(t_address)dyn_storage": {
        "base": "t_address",
        "encoding": "dynamic_array",
        "label": "address[]",
        "numberOfBytes": "32"
      },
      "t_array(t_uint256)49_storage": {
        "base": "t_uint256",
        "encoding": "inplace",
        "label": "uint256[49]",
        "numberOfBytes": "1568"
      },
      "t_array(t_uint256)50_storage": {
        "base": "t_uint256",
        "encoding": "inplace",
        "label": "uint256[50]",
        "numberOfBytes": "1600"
      },
      "t_bool": {
        "encoding": "inplace",
        "label": "bool",
        "numberOfBytes": "1"
      },
      "t_bytes32": {
        "encoding": "inplace",
        "label": "bytes32",
        "numberOfBytes": "32"
      },
      "t_mapping(t_address,t_array(t_address)dyn_storage)": {
        "encoding": "mapping",
        "key": "t_address",
        "label": "mapping(address => address[])",
        "numberOfBytes": "32",
        "value": "t_array(t_address)dyn_storage"
      },
      "t_mapping(t_address,t_bool)": {
        "encoding": "mapping",
        "key": "t_address",
        "label": "mapping(address => bool)",
        "numberOfBytes": "32",
        "value": "t_bool"
      },
      "t_mapping(t_address,t_mapping(t_address,t_array(t_address)dyn_storage))": {
        "encoding": "mapping",
        "key": "t_address",
        "label": "mapping(address => mapping(address => address[]))",
        "numberOfBytes": "32",
        "value": "t_mapping(t_address,t_array(t_address)dyn_storage)"
      },
      "t_mapping(t_bytes32,t_address)": {
        "encoding": "mapping",
        "key": "t_bytes32",
        "label": "mapping(bytes32 => address)",
        "numberOfBytes": "32",
        "value": "t_address"
      },
      "t_mapping(t_bytes32,t_bool)": {
        "encoding": "mapping",
        "key": "t_bytes32",
        "label": "mapping(bytes32 => bool)",
        "numberOfBytes": "32",
        "value": "t_bool"
      },
      "t_mapping(t_uint24,t_bool)": {
        "encoding": "mapping",
        "key": "t_uint24",
        "label": "mapping(uint24 => bool)",
        "numberOfBytes": "32",
        "value": "t_bool"
      },
      "t_mapping(t_uint24,t_mapping(t_uint24,t_bool))": {
        "encoding": "mapping",
        "key": "t_uint24",
        "label": "mapping(uint24 => mapping(uint24 => bool))",
        "numberOfBytes": "32",
        "value": "t_mapping(t_uint24,t_bool)"
      },
      "t_uint24": {
        "encoding": "inplace",
        "label": "uint24",
        "numberOfBytes": "3"
      },
      "t_uint256": {
        "encoding": "inplace",
        "label": "uint256",
        "numberOfBytes": "32"
      }
    }
  }
}