{
  "address": "0x435F8997DB921AF9Ca7c4Ef054E2E64e3EE8617D",
  "abi": [
    {
      "inputs": [],
      "name": "AlreadyPriceInitialized",
      "type": "error"
    },
    {
      "inputs": [],
      "name": "InvalidParam",
      "type": "error"
    },
    {
      "inputs": [],
      "name": "InvalidSwapFee",
      "type": "error"
    },
    {
      "inputs": [],
      "name": "InvalidTick",
      "type": "error"
    },
    {
      "inputs": [],
      "name": "LiquidityInsufficient",
      "type": "error"
    },
    {
      "inputs": [],
      "name": "LiquidityOverflow",
      "type": "error"
    },
    {
      "inputs": [],
      "name": "LiquidityZero",
      "type": "error"
    },
    {
      "inputs": [],
      "name": "Locked",
      "type": "error"
    },
    {
      "inputs": [],
      "name": "LowerEven",
      "type": "error"
    },
    {
      "inputs": [],
      "name": "NotAuthorized",
      "type": "error"
    },
    {
      "inputs": [],
      "name": "Overflow",
      "type": "error"
    },
    {
      "inputs": [],
      "name": "PriceOutOfBounds",
      "type": "error"
    },
    {
      "inputs": [],
      "name": "TickOutOfBounds",
      "type": "error"
    },
    {
      "inputs": [],
      "name": "Token0Missing",
      "type": "error"
    },
    {
      "inputs": [],
      "name": "Token1Missing",
      "type": "error"
    },
    {
      "inputs": [],
      "name": "UpperOdd",
      "type": "error"
    },
    {
      "inputs": [],
      "name": "ZeroAddress",
      "type": "error"
    },
    {
      "anonymous": false,
      "inputs": [
        {
          "indexed": false,
          "internalType": "address",
          "name": "token",
          "type": "address"
        },
        {
          "indexed": false,
          "internalType": "uint256",
          "name": "amount",
          "type": "uint256"
        },
        {
          "indexed": false,
          "internalType": "uint256",
          "name": "startTime",
          "type": "uint256"
        },
        {
          "indexed": false,
          "internalType": "uint256",
          "name": "period",
          "type": "uint256"
        }
      ],
      "name": "DistributeReward",
      "type": "event"
    },
    {
      "inputs": [],
      "name": "airdrop0PerSecond",
      "outputs": [
        {
          "internalType": "uint256",
          "name": "",
          "type": "uint256"
        }
      ],
      "stateMutability": "view",
      "type": "function"
    },
    {
      "inputs": [],
      "name": "airdrop1PerSecond",
      "outputs": [
        {
          "internalType": "uint256",
          "name": "",
          "type": "uint256"
        }
      ],
      "stateMutability": "view",
      "type": "function"
    },
    {
      "inputs": [],
      "name": "airdropPeriod",
      "outputs": [
        {
          "internalType": "uint256",
          "name": "",
          "type": "uint256"
        }
      ],
      "stateMutability": "view",
      "type": "function"
    },
    {
      "inputs": [],
      "name": "airdropStartTime",
      "outputs": [
        {
          "internalType": "uint256",
          "name": "",
          "type": "uint256"
        }
      ],
      "stateMutability": "view",
      "type": "function"
    },
    {
      "inputs": [
        {
          "internalType": "int24",
          "name": "lower",
          "type": "int24"
        },
        {
          "internalType": "int24",
          "name": "upper",
          "type": "int24"
        },
        {
          "internalType": "uint128",
          "name": "amount",
          "type": "uint128"
        }
      ],
      "name": "burn",
      "outputs": [
        {
          "internalType": "uint256",
          "name": "token0Amount",
          "type": "uint256"
        },
        {
          "internalType": "uint256",
          "name": "token1Amount",
          "type": "uint256"
        }
      ],
      "stateMutability": "nonpayable",
      "type": "function"
    },
    {
      "inputs": [
        {
          "internalType": "int24",
          "name": "lower",
          "type": "int24"
        },
        {
          "internalType": "int24",
          "name": "upper",
          "type": "int24"
        },
        {
          "internalType": "uint256",
          "name": "desiredToken0Fees",
          "type": "uint256"
        },
        {
          "internalType": "uint256",
          "name": "desiredToken1Fees",
          "type": "uint256"
        }
      ],
      "name": "collect",
      "outputs": [
        {
          "internalType": "uint256",
          "name": "token0Fees",
          "type": "uint256"
        },
        {
          "internalType": "uint256",
          "name": "token1Fees",
          "type": "uint256"
        }
      ],
      "stateMutability": "nonpayable",
      "type": "function"
    },
    {
      "inputs": [],
      "name": "collectProtocolFee",
      "outputs": [
        {
          "internalType": "uint128",
          "name": "amount0",
          "type": "uint128"
        },
        {
          "internalType": "uint128",
          "name": "amount1",
          "type": "uint128"
        }
      ],
      "stateMutability": "nonpayable",
      "type": "function"
    },
    {
      "inputs": [
        {
          "internalType": "int24",
          "name": "lower",
          "type": "int24"
        },
        {
          "internalType": "int24",
          "name": "upper",
          "type": "int24"
        },
        {
          "internalType": "uint256",
          "name": "desiredReward",
          "type": "uint256"
        }
      ],
      "name": "collectReward",
      "outputs": [
        {
          "internalType": "uint256",
          "name": "rewardAmount",
          "type": "uint256"
        }
      ],
      "stateMutability": "nonpayable",
      "type": "function"
    },
    {
      "inputs": [],
      "name": "createdBlockNumber",
      "outputs": [
        {
          "internalType": "uint256",
          "name": "",
          "type": "uint256"
        }
      ],
      "stateMutability": "view",
      "type": "function"
    },
    {
      "inputs": [],
      "name": "createdTime",
      "outputs": [
        {
          "internalType": "uint256",
          "name": "",
          "type": "uint256"
        }
      ],
      "stateMutability": "view",
      "type": "function"
    },
    {
      "inputs": [
        {
          "internalType": "uint128",
          "name": "airdrop0",
          "type": "uint128"
        },
        {
          "internalType": "uint128",
          "name": "airdrop1",
          "type": "uint128"
        },
        {
          "internalType": "uint128",
          "name": "reward",
          "type": "uint128"
        },
        {
          "internalType": "uint256",
          "name": "startTime",
          "type": "uint256"
        },
        {
          "internalType": "uint256",
          "name": "period",
          "type": "uint256"
        }
      ],
      "name": "depositAirdropAndReward",
      "outputs": [],
      "stateMutability": "nonpayable",
      "type": "function"
    },
    {
      "inputs": [],
      "name": "depositedReward",
      "outputs": [
        {
          "internalType": "uint128",
          "name": "",
          "type": "uint128"
        }
      ],
      "stateMutability": "view",
      "type": "function"
    },
    {
      "inputs": [],
      "name": "factory",
      "outputs": [
        {
          "internalType": "address",
          "name": "",
          "type": "address"
        }
      ],
      "stateMutability": "view",
      "type": "function"
    },
    {
      "inputs": [],
      "name": "feeGrowthGlobal0",
      "outputs": [
        {
          "internalType": "uint256",
          "name": "",
          "type": "uint256"
        }
      ],
      "stateMutability": "view",
      "type": "function"
    },
    {
      "inputs": [],
      "name": "feeGrowthGlobal1",
      "outputs": [
        {
          "internalType": "uint256",
          "name": "",
          "type": "uint256"
        }
      ],
      "stateMutability": "view",
      "type": "function"
    },
    {
      "inputs": [
        {
          "internalType": "address",
          "name": "recipient",
          "type": "address"
        },
        {
          "internalType": "uint256",
          "name": "amount0",
          "type": "uint256"
        },
        {
          "internalType": "uint256",
          "name": "amount1",
          "type": "uint256"
        },
        {
          "internalType": "bytes",
          "name": "data",
          "type": "bytes"
        }
      ],
      "name": "flash",
      "outputs": [],
      "stateMutability": "nonpayable",
      "type": "function"
    },
    {
      "inputs": [],
      "name": "getAssets",
      "outputs": [
        {
          "internalType": "address[]",
          "name": "assets",
          "type": "address[]"
        }
      ],
      "stateMutability": "view",
      "type": "function"
    },
    {
      "inputs": [],
      "name": "getImmutables",
      "outputs": [
        {
          "internalType": "uint128",
          "name": "_MAX_TICK_LIQUIDITY",
          "type": "uint128"
        },
        {
          "internalType": "uint24",
          "name": "_tickSpacing",
          "type": "uint24"
        },
        {
          "internalType": "uint24",
          "name": "_swapFee",
          "type": "uint24"
        },
        {
          "internalType": "address",
          "name": "_factory",
          "type": "address"
        },
        {
          "internalType": "address",
          "name": "_masterDeployer",
          "type": "address"
        },
        {
          "internalType": "address",
          "name": "_token0",
          "type": "address"
        },
        {
          "internalType": "address",
          "name": "_token1",
          "type": "address"
        }
      ],
      "stateMutability": "view",
      "type": "function"
    },
    {
      "inputs": [],
      "name": "getPriceAndNearestTicks",
      "outputs": [
        {
          "internalType": "uint160",
          "name": "_price",
          "type": "uint160"
        },
        {
          "internalType": "int24",
          "name": "_nearestTick",
          "type": "int24"
        }
      ],
      "stateMutability": "view",
      "type": "function"
    },
    {
      "inputs": [],
      "name": "getReserves",
      "outputs": [
        {
          "internalType": "uint128",
          "name": "_reserve0",
          "type": "uint128"
        },
        {
          "internalType": "uint128",
          "name": "_reserve1",
          "type": "uint128"
        }
      ],
      "stateMutability": "view",
      "type": "function"
    },
    {
      "inputs": [],
      "name": "getSecondsGrowthAndLastObservation",
      "outputs": [
        {
          "internalType": "uint160",
          "name": "_secondsGrowthGlobal",
          "type": "uint160"
        },
        {
          "internalType": "uint32",
          "name": "_lastObservation",
          "type": "uint32"
        }
      ],
      "stateMutability": "view",
      "type": "function"
    },
    {
      "inputs": [],
      "name": "getTokenProtocolFees",
      "outputs": [
        {
          "internalType": "uint128",
          "name": "_token0ProtocolFee",
          "type": "uint128"
        },
        {
          "internalType": "uint128",
          "name": "_token1ProtocolFee",
          "type": "uint128"
        }
      ],
      "stateMutability": "view",
      "type": "function"
    },
    {
      "inputs": [
        {
          "internalType": "bytes",
          "name": "_deployData",
          "type": "bytes"
        },
        {
          "internalType": "address",
          "name": "_masterDeployer",
          "type": "address"
        }
      ],
      "name": "initialize",
      "outputs": [],
      "stateMutability": "nonpayable",
      "type": "function"
    },
    {
      "inputs": [],
      "name": "liquidity",
      "outputs": [
        {
          "internalType": "uint128",
          "name": "",
          "type": "uint128"
        }
      ],
      "stateMutability": "view",
      "type": "function"
    },
    {
      "inputs": [
        {
          "components": [
            {
              "internalType": "int24",
              "name": "lowerOld",
              "type": "int24"
            },
            {
              "internalType": "int24",
              "name": "lower",
              "type": "int24"
            },
            {
              "internalType": "int24",
              "name": "upperOld",
              "type": "int24"
            },
            {
              "internalType": "int24",
              "name": "upper",
              "type": "int24"
            },
            {
              "internalType": "uint128",
              "name": "amount0Desired",
              "type": "uint128"
            },
            {
              "internalType": "uint128",
              "name": "amount1Desired",
              "type": "uint128"
            }
          ],
          "internalType": "struct IConcentratedLiquidityPoolStruct.MintParams",
          "name": "mintParams",
          "type": "tuple"
        }
      ],
      "name": "mint",
      "outputs": [
        {
          "internalType": "uint256",
          "name": "liquidityMinted",
          "type": "uint256"
        }
      ],
      "stateMutability": "nonpayable",
      "type": "function"
    },
    {
      "inputs": [],
      "name": "nearestTick",
      "outputs": [
        {
          "internalType": "int24",
          "name": "",
          "type": "int24"
        }
      ],
      "stateMutability": "view",
      "type": "function"
    },
    {
      "inputs": [
        {
          "internalType": "address",
          "name": "",
          "type": "address"
        },
        {
          "internalType": "int24",
          "name": "",
          "type": "int24"
        },
        {
          "internalType": "int24",
          "name": "",
          "type": "int24"
        }
      ],
      "name": "positionRewards",
      "outputs": [
        {
          "internalType": "uint256",
          "name": "rewardGrowthInsideLast",
          "type": "uint256"
        },
        {
          "internalType": "uint128",
          "name": "rewardOwed",
          "type": "uint128"
        }
      ],
      "stateMutability": "view",
      "type": "function"
    },
    {
      "inputs": [
        {
          "internalType": "address",
          "name": "",
          "type": "address"
        },
        {
          "internalType": "int24",
          "name": "",
          "type": "int24"
        },
        {
          "internalType": "int24",
          "name": "",
          "type": "int24"
        }
      ],
      "name": "positions",
      "outputs": [
        {
          "internalType": "uint128",
          "name": "liquidity",
          "type": "uint128"
        },
        {
          "internalType": "uint256",
          "name": "feeGrowthInside0Last",
          "type": "uint256"
        },
        {
          "internalType": "uint256",
          "name": "feeGrowthInside1Last",
          "type": "uint256"
        },
        {
          "internalType": "uint128",
          "name": "feeOwed0",
          "type": "uint128"
        },
        {
          "internalType": "uint128",
          "name": "feeOwed1",
          "type": "uint128"
        }
      ],
      "stateMutability": "view",
      "type": "function"
    },
    {
      "inputs": [],
      "name": "price",
      "outputs": [
        {
          "internalType": "uint160",
          "name": "",
          "type": "uint160"
        }
      ],
      "stateMutability": "view",
      "type": "function"
    },
    {
      "inputs": [],
      "name": "protocolFee",
      "outputs": [
        {
          "internalType": "uint256",
          "name": "",
          "type": "uint256"
        }
      ],
      "stateMutability": "view",
      "type": "function"
    },
    {
      "inputs": [
        {
          "internalType": "int24",
          "name": "lowerTick",
          "type": "int24"
        },
        {
          "internalType": "int24",
          "name": "upperTick",
          "type": "int24"
        }
      ],
      "name": "rangeFeeGrowth",
      "outputs": [
        {
          "internalType": "uint256",
          "name": "feeGrowthInside0",
          "type": "uint256"
        },
        {
          "internalType": "uint256",
          "name": "feeGrowthInside1",
          "type": "uint256"
        }
      ],
      "stateMutability": "view",
      "type": "function"
    },
    {
      "inputs": [
        {
          "internalType": "int24",
          "name": "lowerTick",
          "type": "int24"
        },
        {
          "internalType": "int24",
          "name": "upperTick",
          "type": "int24"
        }
      ],
      "name": "rangeRewardGrowth",
      "outputs": [
        {
          "internalType": "uint256",
          "name": "rewardGrowthInside",
          "type": "uint256"
        }
      ],
      "stateMutability": "view",
      "type": "function"
    },
    {
      "inputs": [
        {
          "internalType": "address",
          "name": "_logger",
          "type": "address"
        }
      ],
      "name": "registerLogger",
      "outputs": [],
      "stateMutability": "nonpayable",
      "type": "function"
    },
    {
      "inputs": [],
      "name": "rewardGrowthGlobal",
      "outputs": [
        {
          "internalType": "uint256",
          "name": "",
          "type": "uint256"
        }
      ],
      "stateMutability": "view",
      "type": "function"
    },
    {
      "inputs": [
        {
          "internalType": "int24",
          "name": "",
          "type": "int24"
        }
      ],
      "name": "rewardGrowthOutsidePerTicks",
      "outputs": [
        {
          "internalType": "uint256",
          "name": "",
          "type": "uint256"
        }
      ],
      "stateMutability": "view",
      "type": "function"
    },
    {
      "inputs": [],
      "name": "rewardPerSecond",
      "outputs": [
        {
          "internalType": "uint256",
          "name": "",
          "type": "uint256"
        }
      ],
      "stateMutability": "view",
      "type": "function"
    },
    {
      "inputs": [],
      "name": "rewardToken",
      "outputs": [
        {
          "internalType": "address",
          "name": "",
          "type": "address"
        }
      ],
      "stateMutability": "view",
      "type": "function"
    },
    {
      "inputs": [
        {
          "internalType": "uint160",
          "name": "_price",
          "type": "uint160"
        }
      ],
      "name": "setPrice",
      "outputs": [],
      "stateMutability": "nonpayable",
      "type": "function"
    },
    {
      "inputs": [
        {
          "internalType": "bytes",
          "name": "data",
          "type": "bytes"
        }
      ],
      "name": "swap",
      "outputs": [
        {
          "internalType": "uint256",
          "name": "amountOut",
          "type": "uint256"
        }
      ],
      "stateMutability": "nonpayable",
      "type": "function"
    },
    {
      "inputs": [],
      "name": "swapFee",
      "outputs": [
        {
          "internalType": "uint24",
          "name": "",
          "type": "uint24"
        }
      ],
      "stateMutability": "view",
      "type": "function"
    },
    {
      "inputs": [],
      "name": "swapFeeGrowthGlobal0",
      "outputs": [
        {
          "internalType": "uint256",
          "name": "",
          "type": "uint256"
        }
      ],
      "stateMutability": "view",
      "type": "function"
    },
    {
      "inputs": [],
      "name": "swapFeeGrowthGlobal1",
      "outputs": [
        {
          "internalType": "uint256",
          "name": "",
          "type": "uint256"
        }
      ],
      "stateMutability": "view",
      "type": "function"
    },
    {
      "inputs": [],
      "name": "tickSpacing",
      "outputs": [
        {
          "internalType": "uint24",
          "name": "",
          "type": "uint24"
        }
      ],
      "stateMutability": "view",
      "type": "function"
    },
    {
      "inputs": [
        {
          "internalType": "int24",
          "name": "",
          "type": "int24"
        }
      ],
      "name": "ticks",
      "outputs": [
        {
          "internalType": "int24",
          "name": "previousTick",
          "type": "int24"
        },
        {
          "internalType": "int24",
          "name": "nextTick",
          "type": "int24"
        },
        {
          "internalType": "uint128",
          "name": "liquidity",
          "type": "uint128"
        },
        {
          "internalType": "uint256",
          "name": "feeGrowthOutside0",
          "type": "uint256"
        },
        {
          "internalType": "uint256",
          "name": "feeGrowthOutside1",
          "type": "uint256"
        },
        {
          "internalType": "uint160",
          "name": "secondsGrowthOutside",
          "type": "uint160"
        }
      ],
      "stateMutability": "view",
      "type": "function"
    },
    {
      "inputs": [],
      "name": "token0",
      "outputs": [
        {
          "internalType": "address",
          "name": "",
          "type": "address"
        }
      ],
      "stateMutability": "view",
      "type": "function"
    },
    {
      "inputs": [],
      "name": "token1",
      "outputs": [
        {
          "internalType": "address",
          "name": "",
          "type": "address"
        }
      ],
      "stateMutability": "view",
      "type": "function"
    },
    {
      "inputs": [],
      "name": "totalTicks",
      "outputs": [
        {
          "internalType": "uint256",
          "name": "",
          "type": "uint256"
        }
      ],
      "stateMutability": "view",
      "type": "function"
    }
  ],
  "transactionHash": "0x2688820810e8068d4caa712e1b7f17bf13c62366ae1024d650222fa3024ad126",
  "args": [],
  "numDeployments": 1,
  "solcInputHash": "4cce99357de516d6f47fd2d20cd238c2",
  "bytecode": "0x608060405234801561001057600080fd5b50615a1780620000216000396000f3fe608060405234801561001057600080fd5b50600436106103155760003560e01c8063a34123a7116101a7578063cf78756b116100ee578063f30dba9311610097578063f949e8b711610071578063f949e8b7146108c2578063fa1a169c146108ca578063fb5d80b3146108d357600080fd5b8063f30dba93146107a6578063f719dac614610851578063f7c618c1146108af57600080fd5b8063d5514792116100c8578063d551479214610760578063d90bda4e14610780578063e5ff7f461461079357600080fd5b8063cf78756b14610730578063d0c93a7c14610738578063d21220a71461074d57600080fd5b8063bd7d1eea11610150578063caa4b46a1161012a578063caa4b46a14610702578063cce2df031461070a578063cf5431531461071d57600080fd5b8063bd7d1eea146106c9578063c03c2514146106dc578063c45a0155146106ef57600080fd5b8063b0e21e8a11610181578063b0e21e8a1461060c578063b2f4bdb014610615578063bcdb4dad1461061e57600080fd5b8063a34123a714610554578063aaca1b4d14610567578063acfe88f8146105f957600080fd5b806366f657c51161026b5780638c347f9b116102145780639da12096116101ee5780639da1209614610512578063a00e8f291461051a578063a035b1fe1461054157600080fd5b80638c347f9b146104d75780638f10369a14610500578063956afe451461050957600080fd5b806370ed1b861161024557806370ed1b86146104bc578063735541d1146104c557806384e02017146104ce57600080fd5b806366f657c51461047257806367e4ac2c1461047b5780636d59d8021461049057600080fd5b80631a686502116102cd578063490e6cbc116102a7578063490e6cbc1461041e57806354cf2aeb14610433578063627dd56a1461045f57600080fd5b80631a686502146103c25780632df94b0f146103ed57806340306fb61461041557600080fd5b80630ae9ba8a116102fe5780630ae9ba8a1461037b5780630dfe16811461038e578063111ba27d146103b957600080fd5b806306f912f31461031a5780630902f1ac14610340575b600080fd5b61032d610328366004614fae565b6108f2565b6040519081526020015b60405180910390f35b6014546015546001600160801b03600160801b909204821691165b604080516001600160801b03938416815292909116602083015201610337565b61032d61038936600461501c565b61095a565b6003546103a1906001600160a01b031681565b6040516001600160a01b039091168152602001610337565b61032d601e5481565b6006546103d5906001600160801b031681565b6040516001600160801b039091168152602001610337565b6104006103fb3660046150c3565b610f0e565b60408051928352602083019190915201610337565b61032d600e5481565b61043161042c36600461511e565b61108d565b005b60005461044b9065010000000000900462ffffff1681565b60405162ffffff9091168152602001610337565b61032d61046d366004615241565b6114a5565b61032d600c5481565b610483611b85565b60405161033791906152ba565b600754604080516001600160a01b0383168152600160a01b90920463ffffffff16602083015201610337565b61032d60095481565b61032d60185481565b61032d600d5481565b601654604080516001600160a01b0383168152600160a01b90920460020b602083015201610337565b61032d60125481565b61032d600f5481565b61032d611c19565b60165461052e90600160a01b900460020b81565b60405160029190910b8152602001610337565b6016546103a1906001600160a01b031681565b6104006105623660046152cd565b611c31565b6105c3610575366004615314565b601b60209081526000938452604080852082529284528284209052825290208054600182015460028301546003909301546001600160801b0392831693919281811691600160801b90041685565b604080516001600160801b039687168152602081019590955284019290925283166060830152909116608082015260a001610337565b61040061060736600461535f565b611fde565b61032d6103e881565b61032d601d5481565b6106746000546005546001546003546004546001600160801b03680100000000000000008604169562ffffff62010000870481169665010000000000900416946001600160a01b03908116948116938116921690565b604080516001600160801b03909816885262ffffff968716602089015295909416948601949094526001600160a01b0391821660608601528116608085015291821660a08401521660c082015260e001610337565b6104316106d7366004615398565b612300565b61032d6106ea36600461535f565b61235a565b6005546103a1906001600160a01b031681565b61035b612465565b6104316107183660046153b5565b61281a565b61043161072b3660046153fc565b612d7f565b61032d613115565b60005461044b9062010000900462ffffff1681565b6004546103a1906001600160a01b031681565b61032d61076e366004615451565b601a6020526000908152604090205481565b61043161078e366004615398565b613128565b6013546103d5906001600160801b031681565b6108066107b4366004615451565b60196020526000908152604090208054600182015460028084015460039094015483820b946301000000850490920b93660100000000000090046001600160801b03169291906001600160a01b031686565b60408051600297880b81529590960b60208601526001600160801b0390931694840194909452606083015260808201929092526001600160a01b0390911660a082015260c001610337565b61089261085f366004615314565b601c602090815260009384526040808520825292845282842090528252902080546001909101546001600160801b031682565b604080519283526001600160801b03909116602083015201610337565b6010546103a1906001600160a01b031681565b61032d6131ce565b61032d60085481565b6013546014546001600160801b03600160801b9092048216911661035b565b600060175460021415610918576040516303cb96db60e21b815260040160405180910390fd5b60026017556109283385856131e0565b610934338585856132be565b60105490915061094e906001600160a01b03168233613358565b60016017559392505050565b600060175460021415610980576040516303cb96db60e21b815260040160405180910390fd5b600260175560208201516060830151610999919061336c565b60006109a883602001516134d1565b6001600160a01b0316905060006109c284606001516134d1565b60165460a086015160808701516001600160a01b03938416945091909216916109fd918591859185916001600160801b03908116911661381d565b93506f7fffffffffffffffffffffffffffffff841115610a49576040517f35278d1200000000000000000000000000000000000000000000000000000000815260040160405180910390fd5b83610a80576040517f83ecd22400000000000000000000000000000000000000000000000000000000815260040160405180910390fd5b610a886138b1565b6000601973aCc9af149D4E4B75304eb865B3120aF152B3652C63825c72999091601a6040518060800160405280600a54600854610ac59190615484565b8152602001600b54600954610ada9190615484565b81526020016011548152602001600760009054906101000a90046001600160a01b03166001600160a01b03168152508a600001518b602001518c604001518d606001518d601660149054906101000a900460020b8c6040518b63ffffffff1660e01b8152600401610b549a9998979695949392919061549c565b604080518083038186803b158015610b6b57600080fd5b505af4158015610b7f573d6000803e3d6000fd5b505050506040513d601f19601f82011682018060405250810190610ba39190615559565b6016805462ffffff909316600160a01b0262ffffff60a01b1990931692909217909155601880549192508291600090610bdd908490615484565b9250508190555050610bf93386602001518760600151876139eb565b808311158015610c0857508181105b15610c3857600680546001600160801b038082168701166fffffffffffffffffffffffffffffffff199091161790555b600080610c49858585896001613a13565b600354600480546040517f5f16529a0000000000000000000000000000000000000000000000000000000081526001600160a01b03938416928101929092529190911660248201526001600160801b0380841660448301528216606482015291935091503390635f16529a90608401600060405180830381600087803b158015610cd257600080fd5b505af1158015610ce6573d6000803e3d6000fd5b50505050816001600160801b0316600014610d935781601460108282829054906101000a90046001600160801b0316610d1f9190615587565b92506101000a8154816001600160801b0302191690836001600160801b03160217905550610d61600360009054906101000a90046001600160a01b0316613a7d565b601454600160801b90046001600160801b03161115610d935760405163420231d560e11b815260040160405180910390fd5b6001600160801b03811615610e2d5760158054829190600090610dc09084906001600160801b0316615587565b92506101000a8154816001600160801b0302191690836001600160801b03160217905550610e02600460009054906101000a90046001600160a01b0316613a7d565b6015546001600160801b03161115610e2d57604051637218102160e11b815260040160405180910390fd5b600280546040805160a08101825260208b810151850b82526060808d0151860b9183019182526001600160801b03888116848601908152908816918401918252608084018d815294517ffbad73910000000000000000000000000000000000000000000000000000000081529351870b6004850152915190950b6024830152516044820152925160648401525160848301526001600160a01b03169063fbad73919060a401600060405180830381600087803b158015610eec57600080fd5b505af1925050508015610efd575060015b505050600160175550919392505050565b60008060175460021415610f35576040516303cb96db60e21b815260040160405180910390fd5b6002601755610f45338787613b7b565b610f523387878787613caa565b601480549294509092508391601090610f7c908490600160801b90046001600160801b03166155b2565b92506101000a8154816001600160801b0302191690836001600160801b0316021790555080601560008282829054906101000a90046001600160801b0316610fc491906155b2565b92506101000a8154816001600160801b0302191690836001600160801b03160217905550610ff3338383613db5565b6002546040805180820182528481526020810184815291517f1228c47f00000000000000000000000000000000000000000000000000000000815290516004820152905160248201526001600160a01b0390911690631228c47f90604401600060405180830381600087803b15801561106b57600080fd5b505af192505050801561107c575060015b506001601755909590945092505050565b601754600214156110b1576040516303cb96db60e21b815260040160405180910390fd5b60026017556006546001600160801b0316806110f9576040517f83ecd22400000000000000000000000000000000000000000000000000000000815260040160405180910390fd5b6014546015546001600160801b03600160801b9092048216911661111e888888613db5565b60008061113d8989600060059054906101000a900462ffffff16613de3565b6040517fc3924ed60000000000000000000000000000000000000000000000000000000081529193509150339063c3924ed69061118490859085908c908c906004016155da565b600060405180830381600087803b15801561119e57600080fd5b505af11580156111b2573d6000803e3d6000fd5b50506003546000925082915081906111d2906001600160a01b0316613a7d565b6004549091506000906111ed906001600160a01b0316613a7d565b9050816111fa878a615484565b11156112195760405163420231d560e11b815260040160405180910390fd5b806112248689615484565b111561124357604051637218102160e11b815260040160405180910390fd5b61124c82613e18565b601480546001600160801b03928316600160801b02921691909117905561127281613e18565b601580546fffffffffffffffffffffffffffffffff19166001600160801b03929092169190911790556112a58883615617565b93506112b18782615617565b92506103e891505082156113535760006112ce8483612710613e33565b905080601360108282829054906101000a90046001600160801b03166112f49190615587565b92506101000a8154816001600160801b0302191690836001600160801b0316021790555061133b816001600160801b0316856113309190615617565b600160801b8b613e71565b6008600082825461134c9190615484565b9091555050505b81156113dc5760006113688383612710613e33565b6014805491925082916000906113889084906001600160801b0316615587565b92506101000a8154816001600160801b0302191690836001600160801b031602179055506113c4816001600160801b0316846113309190615617565b600960008282546113d59190615484565b9091555050505b6002546040805160a081018252338152602081018f81528183018f8152606083018881526080840188815294517f2987fbcc00000000000000000000000000000000000000000000000000000000815293516001600160a01b039081166004860152925160248501529051604484015251606483015291516084820152911690632987fbcc9060a401600060405180830381600087803b15801561147f57600080fd5b505af1925050508015611490575060015b50505060016017555050505050505050505050565b6000601754600214156114cb576040516303cb96db60e21b815260040160405180910390fd5b6002601781905550600080838060200190518101906114ea919061563e565b91509150600082611506576015546001600160801b031661151a565b601454600160801b90046001600160801b03165b6001600160801b031661154d8461153c576004546001600160a01b0316613a7d565b6003546001600160a01b0316613a7d565b6115579190615617565b90506000604051806101200160405280600081526020016000815260200160008152602001856115895760085461158d565b6009545b81526020018561159f576009546115a3565b6008545b81526016546001600160a01b031660208201526006546001600160801b03166040820152606081018490526080018561160257601654600160a01b9004600290810b60009081526019602052604090205463010000009004900b611610565b601654600160a01b900460020b5b60020b9052905061161f6138b1565b60115461162b82613f24565b60e0820151156119be5760006116458361010001516134d1565b6001600160a01b0316905060008087156117765760006116708660c00151858860a001516000613f9b565b9050808660e00151116117365760c086015160a087015160e088015160609290921b916000916116b6918491906116a7908261566a565b6116b19086615484565b613e33565b90508086111580156116cb57508760a0015181105b611709576116fd828960e001518a60a00151856116e8919061569f565b6116f29190615484565b808204910615150190565b6001600160a01b031690505b61171e8860c00151828a60a001516000613ff3565b60a0890191909152600060e089015293506117709050565b61174b8660c00151858860a001516000613ff3565b60a0870185905260e08701805191945060019350829161176c908390615617565b9052505b5061182b565b600061178d8660c001518760a00151866000613ff3565b9050808660e00151116117ef5760006117b38760e00151600160601b8960c00151613e71565b8760a001516117c29190615484565b90506117d98760c001518860a00151836000613f9b565b60a0880191909152600060e08801529250611829565b6118048660c001518760a00151866000613f9b565b60a0870185905260e087018051919450600193508291611825908390615617565b9052505b505b60c08501511561187d5761186882600060059054906101000a900462ffffff166103e88860c0015189602001518e8b604001518c6060015161401d565b60608901526040880152602087019190915298505b80156119b65761188e85858a6140b5565b60c08501516119b65761010085015160020b620d89e71914806118c757506118b9620d89e7196156b3565b60020b85610100015160020b145b1561198f57871561191a576118f160018660a001516118e69190615617565b6401000276a361416d565b60a086015261010085018051600290810b600090815260196020526040902054900b9052611987565b61195b8560a00151600161192e9190615484565b61194d600173fffd8963efd1fc6a506488495d951d5263988d266156d6565b6001600160a01b0316614184565b60a086015261010085018051600290810b60009081526019602052604090205463010000009004900b90525b5050506119be565b61199d8561010001516134d1565b6001600160a01b031660a08601526119b685858a6140b5565b50505061162b565b60a08201516016805473ffffffffffffffffffffffffffffffffffffffff19166001600160a01b03909216919091179055600085611a1757610100830151600290810b600090815260196020526040902054900b611a1e565b8261010001515b601654909150600282810b600160a01b909204900b14611a82576016805462ffffff60a01b1916600160a01b62ffffff84160217905560c0830151600680546fffffffffffffffffffffffffffffffff19166001600160801b039092169190911790555b611a8d868589614193565b611aa086846060015185604001516142f5565b8515611ac257600454611abd906001600160a01b03168887613358565b611ad9565b600354611ad9906001600160a01b03168887613358565b600254604080516060810182528815158152602081018781528183018b815292517f91accd5f000000000000000000000000000000000000000000000000000000008152915115156004830152516024820152905160448201526001600160a01b03909116906391accd5f90606401600060405180830381600087803b158015611b6257600080fd5b505af1925050508015611b73575060015b50505060016017555092949350505050565b6040805160028082526060808301845292602083019080368337505060035482519293506001600160a01b031691839150600090611bc557611bc56156f6565b6001600160a01b039283166020918202929092010152600454825191169082906001908110611bf657611bf66156f6565b60200260200101906001600160a01b031690816001600160a01b03168152505090565b6000611c2c600854600a54600c54614371565b905090565b60008060175460021415611c58576040516303cb96db60e21b815260040160405180910390fd5b60026017556000611c68866134d1565b90506000611c75866134d1565b6016549091506001600160a01b0316611c8c6138b1565b806001600160a01b0316836001600160a01b031611158015611cbf5750816001600160a01b0316816001600160a01b0316105b15611cf057600680546001600160801b03808216899003166fffffffffffffffffffffffffffffffff199091161790555b611d22836001600160a01b0316836001600160a01b0316836001600160a01b0316896001600160801b03166000613a13565b6001600160801b039182169650811694506f7fffffffffffffffffffffffffffffff9087161115611d7f576040517f35278d1200000000000000000000000000000000000000000000000000000000815260040160405180910390fd5b611d93338989611d8e8a61570c565b6139eb565b601480546001600160801b03600160801b808304821689900382160291811691909117909155601580548083168790039092166fffffffffffffffffffffffffffffffff1992909216919091179055611ded338686613db5565b6016546040517f7c91cb9800000000000000000000000000000000000000000000000000000000815260196004820152601a602482015260028a810b604483015289810b60648301526001600160801b0389166084830152600160a01b90920490910b60a482015260009073aCc9af149D4E4B75304eb865B3120aF152B3652C90637c91cb989060c401604080518083038186803b158015611e8e57600080fd5b505af4158015611ea2573d6000803e3d6000fd5b505050506040513d601f19601f82011682018060405250810190611ec69190615559565b6016805462ffffff909316600160a01b0262ffffff60a01b1990931692909217909155601880549192508291600090611f00908490615617565b9091555050600280546040805160a0810182528c840b81528b840b602082019081528183018b8152606083018b81526001600160801b038e166080850190815294517ffc9482d20000000000000000000000000000000000000000000000000000000081529351870b6004850152915190950b602483015293516044820152925160648401525160848301526001600160a01b0316915063fc9482d29060a401600060405180830381600087803b158015611fba57600080fd5b505af1925050508015611fcb575060015b5050506001601755509094909350915050565b60165460009081908190611ffa906001600160a01b03166143d1565b90506000601960008760020b60020b81526020019081526020016000206040518060c00160405290816000820160009054906101000a900460020b60020b60020b81526020016000820160039054906101000a900460020b60020b60020b81526020016000820160069054906101000a90046001600160801b03166001600160801b03166001600160801b0316815260200160018201548152602001600282015481526020016003820160009054906101000a90046001600160a01b03166001600160a01b03166001600160a01b03168152505090506000601960008760020b60020b81526020019081526020016000206040518060c00160405290816000820160009054906101000a900460020b60020b60020b81526020016000820160039054906101000a900460020b60020b60020b81526020016000820160069054906101000a90046001600160801b03166001600160801b03166001600160801b0316815260200160018201548152602001600282015481526020016003820160009054906101000a90046001600160a01b03166001600160a01b03166001600160a01b03168152505090506000806000806121d1600660009054906101000a90046001600160801b03166001600160801b031661472a565b9150915081600a546008546121e69190615484565b6121f09190615484565b935080600b546009546122039190615484565b61220d9190615484565b925050506000808660020b8b60020b136122495760608601516122309083615484565b91508560800151816122429190615484565b9050612281565b60608601516122589085615617565b6122629083615484565b91508560800151836122749190615617565b61227e9082615484565b90505b8960020b8760020b12156122b757606085015161229e9083615484565b91508460800151816122b09190615484565b90506122ef565b60608501516122c69085615617565b6122d09083615484565b91508460800151836122e29190615617565b6122ec9082615484565b90505b920399919003975095505050505050565b6005546001600160a01b0316331461232b5760405163ea8e4eb560e01b815260040160405180910390fd5b6002805473ffffffffffffffffffffffffffffffffffffffff19166001600160a01b0392909216919091179055565b6016546000908190612374906001600160a01b03166143d1565b60065490915060009061238f906001600160801b031661476d565b60115461239c9190615484565b905060008260020b8660020b136123d257600286900b6000908152601a60205260409020546123cb9082615484565b90506123fd565b600286900b6000908152601a60205260409020546123f09083615617565b6123fa9082615484565b90505b8460020b8360020b121561243057600285900b6000908152601a60205260409020546124299082615484565b905061245b565b600285900b6000908152601a602052604090205461244e9083615617565b6124589082615484565b90505b9003949350505050565b6000806017546002141561248c576040516303cb96db60e21b815260040160405180910390fd5b6002601755600154604080517fef36925200000000000000000000000000000000000000000000000000000000815290516000926001600160a01b03169163ef369252916004808301926020929190829003018186803b1580156124ef57600080fd5b505afa158015612503573d6000803e3d6000fd5b505050506040513d601f19601f820116820180604052508101906125279190615742565b604080516002808252606082018352929350600092909160208301908036833750506040805160028082526060820183529394506000939092509060208301908036833701905050601354909150600160801b90046001600160801b03161561267b57601380546001600160801b0380821690925560148054600160801b9283900484169850889391926010926125c29286929004166155b2565b92506101000a8154816001600160801b0302191690836001600160801b0316021790555061260f600360009054906101000a90046001600160a01b0316866001600160801b031685613358565b60035482516001600160a01b03909116908390600090612631576126316156f6565b60200260200101906001600160a01b031690816001600160a01b031681525050846001600160801b03168160008151811061266e5761266e6156f6565b6020026020010181815250505b6014546001600160801b03161561278457601480546fffffffffffffffffffffffffffffffff198116909155601580546001600160801b03928316965086926000916126c9918591166155b2565b92506101000a8154816001600160801b0302191690836001600160801b03160217905550612716600460009054906101000a90046001600160a01b0316856001600160801b031685613358565b60045482516001600160a01b03909116908390600190811061273a5761273a6156f6565b60200260200101906001600160a01b031690816001600160a01b031681525050836001600160801b031681600181518110612777576127776156f6565b6020026020010181815250505b6001600160a01b0383163b1561280e576040517ff03328300000000000000000000000000000000000000000000000000000000081526001600160a01b0384169063f0332830906127db908590859060040161575f565b600060405180830381600087803b1580156127f557600080fd5b505af1158015612809573d6000803e3d6000fd5b505050505b50505060016017559091565b600054610100900460ff166128355760005460ff1615612839565b303b155b6128b05760405162461bcd60e51b815260206004820152602e60248201527f496e697469616c697a61626c653a20636f6e747261637420697320616c72656160448201527f647920696e697469616c697a656400000000000000000000000000000000000060648201526084015b60405180910390fd5b600054610100900460ff161580156128ef57600080547fffffffffffffffffffffffffffffffffffffffffffffffffffffffffffff0000166101011790555b60008060008060008780602001905181019061290b91906157c9565b600380546001600160a01b0380881673ffffffffffffffffffffffffffffffffffffffff199283161790925560048054838816908316179055601080548387169083161790556000805462ffffff80861662010000027fffffffffffffffffffffffffffffffffffffffffffffffffffffff000000ffff9188166501000000000002919091167fffffffffffffffffffffffffffffffffffffffffffffffff000000000000ffff909216919091171790556005805482163317905560018054928f16929091169190911790559398509196509450925090506129ec81614795565b600060086101000a8154816001600160801b0302191690836001600160801b031602179055506040518060c00160405280620d89e71960020b8152602001620d89e719612a38906156b3565b60020b815260006020808301829052604080840183905260608085018490526080948501849052620d89e719938490526019835285517f8b687876df6025befed93a16f72cd2848615619f141fc2441f1db80badfc7d3e805488860151898601516001600160801b03166601000000000000027fffffffffffffffffffff00000000000000000000000000000000ffffffffffff62ffffff92831663010000000265ffffffffffff19909416929095169190911791909117929092169190911790558501517f8b687876df6025befed93a16f72cd2848615619f141fc2441f1db80badfc7d3f55928401517f8b687876df6025befed93a16f72cd2848615619f141fc2441f1db80badfc7d405560a0909301517f8b687876df6025befed93a16f72cd2848615619f141fc2441f1db80badfc7d4180546001600160a01b039290921673ffffffffffffffffffffffffffffffffffffffff19909216919091179055815160c081019092528082529091820190612bb3906156b3565b60020b815260200160006001600160801b03168152602001600081526020016000815260200160006001600160a01b031681525060196000620d89e719612bf9906156b3565b600290810b8252602080830193909352604091820160002084518154948601519386015162ffffff91821665ffffffffffff199096169590951763010000009190941602929092177fffffffffffffffffffff00000000000000000000000000000000ffffffffffff1666010000000000006001600160801b0390941693909302929092178155606083015160018083019190915560808401518284015560a0909301516003909101805473ffffffffffffffffffffffffffffffffffffffff19166001600160a01b039092169190911790556016805462ffffff60a01b191676f276180000000000000000000000000000000000000000179055601791909155600780547fffffffffffffffff00000000ffffffffffffffffffffffffffffffffffffffff16600160a01b4263ffffffff81169190910291909117909155601891909155601d55505043601e55505081159050612d7a57600080547fffffffffffffffffffffffffffffffffffffffffffffffffffffffffffff00ff1690555b505050565b60175460021415612da3576040516303cb96db60e21b815260040160405180910390fd5b6002601755600154604080517fd0a93173000000000000000000000000000000000000000000000000000000008152905133926001600160a01b03169163d0a931739160048083019260209291908290030181600087803b158015612e0757600080fd5b505af1158015612e1b573d6000803e3d6000fd5b505050506040513d601f19601f82011682018060405250810190612e3f9190615742565b6001600160a01b031614612e665760405163ea8e4eb560e01b815260040160405180910390fd5b42612e718284615484565b11612ea8576040517fd252903400000000000000000000000000000000000000000000000000000000815260040160405180910390fd5b600e54600f54600090612ebb9083615484565b905083811115612ef7576040517fd252903400000000000000000000000000000000000000000000000000000000815260040160405180910390fd5b6001600160801b03871615612f6e57600354612f25906001600160a01b03166001600160801b0389166147d5565b86601460108282829054906101000a90046001600160801b0316612f499190615587565b92506101000a8154816001600160801b0302191690836001600160801b031602179055505b6001600160801b03861615612fdf57600454612f9c906001600160a01b03166001600160801b0388166147d5565b60158054879190600090612fba9084906001600160801b0316615587565b92506101000a8154816001600160801b0302191690836001600160801b031602179055505b6001600160801b0385161561300d5760105461300d906001600160a01b03166001600160801b0387166147d5565b60006130176147ea565b11156130af576130256138b1565b600754600160a01b900463ffffffff16818110156130ad576000613049828561416d565b6130539084615617565b9050613069613064600c548361485a565b613e18565b613073908a615587565b9850613084613064600d548361485a565b61308e9089615587565b975061309f6130646012548361485a565b6130a99088615587565b9650505b505b6130c7876001600160801b0316600160801b85613e71565b600c556130e26001600160801b038716600160801b85613e71565b600d556130fd6001600160801b038616600160801b85613e71565b6012555050600e91909155600f555050600160175550565b6000611c2c600954600b54600d54614371565b6005546001600160a01b031633146131535760405163ea8e4eb560e01b815260040160405180910390fd5b6016546001600160a01b031615613196576040517f2f282c6c00000000000000000000000000000000000000000000000000000000815260040160405180910390fd5b61319f8161486b565b6016805473ffffffffffffffffffffffffffffffffffffffff19166001600160a01b0392909216919091179055565b6000611c2c6000601154601254614371565b6001600160a01b0383166000908152601c60209081526040808320600286810b85529083528184209085900b845290915281209061321e848461235a565b82546001600160a01b0387166000908152601b6020908152604080832060028a810b85529083528184209089900b84529091528120549293509161326d918403906001600160801b031661485a565b82845560018401805491925082916000906132929084906001600160801b0316615587565b92506101000a8154816001600160801b0302191690836001600160801b03160217905550505050505050565b6001600160a01b0384166000908152601c60209081526040808320600287810b85529083528184209086900b845290915281206001810154613309906001600160801b031684614184565b600182018054919350839160009061332b9084906001600160801b03166155b2565b92506101000a8154816001600160801b0302191690836001600160801b0316021790555050949350505050565b612d7a6001600160a01b03841682846148db565b6000546133849062010000900462ffffff1683615836565b60020b156133be576040517fce8ef7fc00000000000000000000000000000000000000000000000000000000815260040160405180910390fd5b6000546002906133d99062010000900462ffffff1684615858565b6133e39190615836565b60020b1561341d576040517ffdf1420200000000000000000000000000000000000000000000000000000000815260040160405180910390fd5b6000546134359062010000900462ffffff1682615836565b60020b1561346f576040517fce8ef7fc00000000000000000000000000000000000000000000000000000000815260040160405180910390fd5b60005460029061348a9062010000900462ffffff1683615858565b6134949190615836565b60020b6134cd576040517fa9778c6300000000000000000000000000000000000000000000000000000000815260040160405180910390fd5b5050565b60008060008360020b126134e8578260020b6134f5565b8260020b6134f590615892565b9050613504620d89e7196156b3565b62ffffff16811115613542576040517ff87dc40c00000000000000000000000000000000000000000000000000000000815260040160405180910390fd5b60006001821661355657600160801b613568565b6ffffcb933bd6fad37aa2d162d1a5940015b70ffffffffffffffffffffffffffffffffff169050600282161561359c576ffff97272373d413259a46990580e213a0260801c5b60048216156135bb576ffff2e50f5f656932ef12357cf3c7fdcc0260801c5b60088216156135da576fffe5caca7e10e4e61c3624eaa0941cd00260801c5b60108216156135f9576fffcb9843d60f6159c9db58835c9266440260801c5b6020821615613618576fff973b41fa98c081472e6896dfb254c00260801c5b6040821615613637576fff2ea16466c96a3843ec78b326b528610260801c5b6080821615613656576ffe5dee046a99a2a811c461f1969c30530260801c5b610100821615613676576ffcbe86c7900a88aedcffc83b479aa3a40260801c5b610200821615613696576ff987a7253ac413176f2b074cf7815e540260801c5b6104008216156136b6576ff3392b0822b70005940c7a398e4b70f30260801c5b6108008216156136d6576fe7159475a2c29b7443b29c7fa6e889d90260801c5b6110008216156136f6576fd097f3bdfd2022b8845ad8f792aa58250260801c5b612000821615613716576fa9f746462d870fdf8a65dc1f90e061e50260801c5b614000821615613736576f70d869a156d2a1b890bb3df62baf32f70260801c5b618000821615613756576f31be135f97d08fd981231505542fcfa60260801c5b62010000821615613777576f09aa508b5b7a84e1c677de54f3e99bc90260801c5b62020000821615613797576e5d6af8dedb81196699c329225ee6040260801c5b620400008216156137b6576d2216e584f5fa1ea926041bedfe980260801c5b620800008216156137d3576b048a170391f7dc42444e8fa20260801c5b60008460020b13156137f45780600019816137f0576137f0615689565b0490505b64010000000081061561380857600161380b565b60005b60ff16602082901c0192505050919050565b600083851161383e5761383783600160601b888803613e71565b90506138a8565b85841161386057613837826138588888600160601b613e71565b888803613e71565b600061387d836138758888600160601b613e71565b878903613e71565b9050600061389285600160601b8a8903613e71565b90508082106138a157806138a3565b815b925050505b95945050505050565b6006546001600160801b0316806138c55750565b600754600160a01b900463ffffffff164281106138e0575050565b60006138ea6147ea565b9050801561395e576138ff600c548285613e71565b600a60008282546139109190615484565b9091555050600d54613923908285613e71565b600b60008282546139349190615484565b9091555050601254613947908285613e71565b601160008282546139589190615484565b90915550505b6007805463ffffffff42908116600160a01b027fffffffffffffffff00000000ffffffffffffffffffffffffffffffffffffffff90921691909117909155839083900360801b816139b1576139b1615689565b6007805473ffffffffffffffffffffffffffffffffffffffff198116939092046001600160a01b0392831601909116919091179055505050565b6139f6848484613b7b565b613a018484846131e0565b613a0d84848484614984565b50505050565b600080848611613a3357613a2c61306485898987613ff3565b9050613a73565b868511613a5057613a4961306485898987613f9b565b9150613a73565b613a5f61306485878987613f9b565b9150613a7061306485898887613ff3565b90505b9550959350505050565b604080513060248083019190915282518083039091018152604490910182526020810180517bffffffffffffffffffffffffffffffffffffffffffffffffffffffff167f70a08231000000000000000000000000000000000000000000000000000000001790529051600091829182916001600160a01b03861691613b0291906158f7565b600060405180830381855afa9150503d8060008114613b3d576040519150601f19603f3d011682016040523d82523d6000602084013e613b42565b606091505b5091509150818015613b5657506020815110155b613b5f57600080fd5b80806020019051810190613b739190615913565b949350505050565b6001600160a01b0383166000908152601b60209081526040808320600286810b85529083528184209085900b845290915281209080613bba8585611fde565b600185015485549294509092506000918291613be291908603906001600160801b031661485a565b60028601548654919350613c0291908503906001600160801b031661485a565b60018601859055600286018490556003860180549192508391600090613c329084906001600160801b0316615587565b92506101000a8154816001600160801b0302191690836001600160801b03160217905550808560030160108282829054906101000a90046001600160801b0316613c7c9190615587565b92506101000a8154816001600160801b0302191690836001600160801b031602179055505050505050505050565b6001600160a01b0385166000908152601b60209081526040808320600288810b85529083528184209087900b845290915281206003810154829190613cf8906001600160801b031686614184565b6003820154909350613d1a90600160801b90046001600160801b031685614184565b6003820180549193508491600090613d3c9084906001600160801b03166155b2565b92506101000a8154816001600160801b0302191690836001600160801b03160217905550818160030160108282829054906101000a90046001600160801b0316613d8691906155b2565b92506101000a8154816001600160801b0302191690836001600160801b03160217905550509550959350505050565b600354613dcc906001600160a01b03168385613358565b600454612d7a906001600160a01b03168285613358565b600080613df9858462ffffff16620f4240613e33565b9150613e0e848462ffffff16620f4240613e33565b9050935093915050565b806001600160801b0381168114613e2e57600080fd5b919050565b6000613e40848484613e71565b90508180613e5057613e50615689565b83850915613e6a576000198110613e6657600080fd5b6001015b9392505050565b600080806000198587098587029250828110838203039150508060001415613eab5760008411613ea057600080fd5b508290049050613e6a565b808411613eb757600080fd5b6000848688096000868103871696879004966002600389028118808a02820302808a02820302808a02820302808a02820302808a02820302808a02909103029181900381900460010186841190950394909402919094039290920491909117919091029150509392505050565b60c081015115613f315750565b61010081015160020b620d89e7191480613f615750613f53620d89e7196156b3565b60020b81610100015160020b145b15613f98576040517f6ba599a000000000000000000000000000000000000000000000000000000000815260040160405180910390fd5b50565b60008115613fca57613fc3613fb7606087901b86860386613e33565b85808204910615150190565b9050613b73565b83613fdc606087901b82860386613e71565b81613fe957613fe9615689565b0495945050505050565b6000811561400c57613fc385858503600160601b613e33565b6138a885858503600160601b613e71565b60008060008060006140388d8d62ffffff16620f4240613e33565b9050614044818a615484565b9850614050818e615617565b61405a9089615484565b9750600061406b828d612710613e33565b90506140778189615484565b97506140838183615617565b915061409482600160801b8d613e71565b61409e9088615484565b999e989d50969b5097995095975050505050505050565b614157601a846101000151600760009054906101000a90046001600160a01b03168660c00151856140f757600a5488606001516140f29190615484565b614109565b600b5488606001516141099190615484565b8661412557600b5489608001516141209190615484565b614137565b600a5489608001516141379190615484565b6000546019969594939291908a908a9062010000900462ffffff16614ab6565b60020b61010085015260c0909301929092525050565b60008183101561417d5781613e6a565b5090919050565b600081831061417d5781613e6a565b821561424b576003546000906141b1906001600160a01b0316613a7d565b6014549091506000906141d5908590600160801b90046001600160801b0316615587565b905081816001600160801b031611156142015760405163420231d560e11b815260040160405180910390fd5b601480546001600160801b03928316600160801b02908316179055601580548083168590039092166fffffffffffffffffffffffffffffffff199290921691909117905550505050565b600454600090614263906001600160a01b0316613a7d565b6015549091506000906142809085906001600160801b0316615587565b905081816001600160801b031611156142ac57604051637218102160e11b815260040160405180910390fd5b601580546001600160801b039283166fffffffffffffffffffffffffffffffff1990911617905560148054600160801b8082048416869003841602921691909117905550505050565b82156143475760098290556014805482919060009061431e9084906001600160801b0316615587565b92506101000a8154816001600160801b0302191690836001600160801b03160217905550505050565b60088290556013805482919060109061431e908490600160801b90046001600160801b0316615587565b60008061437c6147ea565b6006549091506001600160801b0316811580159061439a5750600081115b156143c7576143aa848383613e71565b6143b48688615484565b6143be9190615484565b92505050613e6a565b6143be8587615484565b60006401000276a36001600160a01b038316108061440c575073fffd8963efd1fc6a506488495d951d5263988d266001600160a01b03831610155b15614443576040517f6e4ba61d00000000000000000000000000000000000000000000000000000000815260040160405180910390fd5b77ffffffffffffffffffffffffffffffffffffffff00000000602083901b166001600160801b03811160071b81811c67ffffffffffffffff811160061b90811c63ffffffff811160051b90811c61ffff811160041b90811c60ff8111600390811b91821c600f811160021b90811c918211600190811b92831c979088119617909417909217179091171717608081106144e457607f810383901c91506144ee565b80607f0383901b91505b908002607f81811c60ff83811c9190911c800280831c81831c1c800280841c81841c1c800280851c81851c1c800280861c81861c1c800280871c81871c1c800280881c81881c1c800280891c81891c1c8002808a1c818a1c1c8002808b1c818b1c1c8002808c1c818c1c1c8002808d1c818d1c1c8002808e1c9c81901c9c909c1c80029c8d901c9e9d7fffffffffffffffffffffffffffffffffffffffffffffffffffffffffffffff808f0160401b60c09190911c678000000000000000161760c19b909b1c674000000000000000169a909a1760c29990991c672000000000000000169890981760c39790971c671000000000000000169690961760c49590951c670800000000000000169490941760c59390931c670400000000000000169290921760c69190911c670200000000000000161760c79190911c670100000000000000161760c89190911c6680000000000000161760c99190911c6640000000000000161760ca9190911c6620000000000000161760cb9190911c6610000000000000161760cc9190911c6608000000000000161760cd9190911c66040000000000001617693627a301d71055774c8581027ffffffffffffffffffffffffffffffffffd709b7e5480fba5a50fed5e62ffc5568101608090811d906fdb2df09e81959a81455e260799a0632f8301901d600281810b9083900b1461471b57886001600160a01b0316614700826134d1565b6001600160a01b03161115614715578161471d565b8061471d565b815b9998505050505050505050565b6000808261473d57506000928392509050565b60006147476147ea565b9050614756600c548286613e71565b9250614765600d548286613e71565b915050915091565b60008161477c57506000919050565b60006147866147ea565b9050613e6a6012548285613e71565b60006147a282600261592c565b6147af620d89e7196156b3565b6147b99190615957565b6147cf9062ffffff166001600160801b03615979565b92915050565b6134cd6001600160a01b038316333084614d55565b600e546000904281106147ff57600091505090565b600754600f54600160a01b90910463ffffffff16906000906148219084615484565b9050818111614834576000935050505090565b61483e828461416d565b6148484283614184565b6148529190615617565b935050505090565b6000613e6a8383600160801b613e71565b6401000276a36001600160a01b03821610806148a4575073fffd8963efd1fc6a506488495d951d5263988d266001600160a01b03821610155b15613f98576040517f6e4ba61d00000000000000000000000000000000000000000000000000000000815260040160405180910390fd5b6040516001600160a01b038316602482015260448101829052612d7a9084907fa9059cbb00000000000000000000000000000000000000000000000000000000906064015b60408051601f198184030181529190526020810180517bffffffffffffffffffffffffffffffffffffffffffffffffffffffff167fffffffff0000000000000000000000000000000000000000000000000000000090931692909217909152614da6565b80600f0b6000141561499557613a0d565b6001600160a01b0384166000908152601b60209081526040808320600287810b85529083528184209086900b8452909152812090600f83900b1315614a66578054829082906000906149f19084906001600160801b0316615587565b82546101009290920a6001600160801b038181021990931691831602179091556000548354680100000000000000009091048216911611159050614a61576040517fb03425ae00000000000000000000000000000000000000000000000000000000815260040160405180910390fd5b614aaf565b614a6f8261570c565b81548290600090614a8a9084906001600160801b03166155b2565b92506101000a8154816001600160801b0302191690836001600160801b031602179055505b5050505050565b600288900b600090815260208b905260408120600301548190614ae2906001600160a01b03168a6156d6565b60028b900b600090815260208e81526040808320600301805473ffffffffffffffffffffffffffffffffffffffff19166001600160a01b0395909516949094179093558d90522054614b349086615617565b60028b900b600090815260208d905260409020558315614c475760028360020b8b60020b81614b6557614b65615689565b0560020b81614b7657614b76615689565b0760020b614bae5760028a900b600090815260208d90526040902054660100000000000090046001600160801b031690970396614bdb565b60028a900b600090815260208d90526040902054660100000000000090046001600160801b031697909701965b60028a900b600090815260208d90526040902060010154614bfc9087615617565b60028b810b600090815260208f90526040902060018101929092550154614c239088615617565b60029a8b0b600090815260208e905260409020808c01919091555490990b98614d43565b60028360020b8b60020b81614c5e57614c5e615689565b0560020b81614c6f57614c6f615689565b0760020b614ca85760028a900b600090815260208d90526040902054660100000000000090046001600160801b03169790970196614cd4565b60028a900b600090815260208d90526040902054660100000000000090046001600160801b0316909703965b60028a810b600090815260208e9052604090200154614cf39087615617565b60028b810b600090815260208f9052604090209081019190915560010154614d1b9088615617565b60029a8b0b600090815260208e9052604090206001810191909155546301000000900490990b985b50959a97995096975050505050505050565b6040516001600160a01b0380851660248301528316604482015260648101829052613a0d9085907f23b872dd0000000000000000000000000000000000000000000000000000000090608401614920565b6000614dfb826040518060400160405280602081526020017f5361666545524332303a206c6f772d6c6576656c2063616c6c206661696c6564815250856001600160a01b0316614e8b9092919063ffffffff16565b805190915015612d7a5780806020019051810190614e199190615993565b612d7a5760405162461bcd60e51b815260206004820152602a60248201527f5361666545524332303a204552433230206f7065726174696f6e20646964206e60448201527f6f7420737563636565640000000000000000000000000000000000000000000060648201526084016128a7565b6060613b738484600085856001600160a01b0385163b614eed5760405162461bcd60e51b815260206004820152601d60248201527f416464726573733a2063616c6c20746f206e6f6e2d636f6e747261637400000060448201526064016128a7565b600080866001600160a01b03168587604051614f0991906158f7565b60006040518083038185875af1925050503d8060008114614f46576040519150601f19603f3d011682016040523d82523d6000602084013e614f4b565b606091505b5091509150614f5b828286614f66565b979650505050505050565b60608315614f75575081613e6a565b825115614f855782518084602001fd5b8160405162461bcd60e51b81526004016128a791906159ae565b8060020b8114613f9857600080fd5b600080600060608486031215614fc357600080fd5b8335614fce81614f9f565b92506020840135614fde81614f9f565b929592945050506040919091013590565b634e487b7160e01b600052604160045260246000fd5b80356001600160801b0381168114613e2e57600080fd5b600060c0828403121561502e57600080fd5b60405160c0810181811067ffffffffffffffff8211171561505157615051614fef565b604052823561505f81614f9f565b8152602083013561506f81614f9f565b6020820152604083013561508281614f9f565b6040820152606083013561509581614f9f565b60608201526150a660808401615005565b60808201526150b760a08401615005565b60a08201529392505050565b600080600080608085870312156150d957600080fd5b84356150e481614f9f565b935060208501356150f481614f9f565b93969395505050506040820135916060013590565b6001600160a01b0381168114613f9857600080fd5b60008060008060006080868803121561513657600080fd5b853561514181615109565b94506020860135935060408601359250606086013567ffffffffffffffff8082111561516c57600080fd5b818801915088601f83011261518057600080fd5b81358181111561518f57600080fd5b8960208285010111156151a157600080fd5b9699959850939650602001949392505050565b600082601f8301126151c557600080fd5b813567ffffffffffffffff808211156151e0576151e0614fef565b604051601f8301601f19908116603f0116810190828211818310171561520857615208614fef565b8160405283815286602085880101111561522157600080fd5b836020870160208301376000602085830101528094505050505092915050565b60006020828403121561525357600080fd5b813567ffffffffffffffff81111561526a57600080fd5b613b73848285016151b4565b600081518084526020808501945080840160005b838110156152af5781516001600160a01b03168752958201959082019060010161528a565b509495945050505050565b602081526000613e6a6020830184615276565b6000806000606084860312156152e257600080fd5b83356152ed81614f9f565b925060208401356152fd81614f9f565b915061530b60408501615005565b90509250925092565b60008060006060848603121561532957600080fd5b833561533481615109565b9250602084013561534481614f9f565b9150604084013561535481614f9f565b809150509250925092565b6000806040838503121561537257600080fd5b823561537d81614f9f565b9150602083013561538d81614f9f565b809150509250929050565b6000602082840312156153aa57600080fd5b8135613e6a81615109565b600080604083850312156153c857600080fd5b823567ffffffffffffffff8111156153df57600080fd5b6153eb858286016151b4565b925050602083013561538d81615109565b600080600080600060a0868803121561541457600080fd5b61541d86615005565b945061542b60208701615005565b935061543960408701615005565b94979396509394606081013594506080013592915050565b60006020828403121561546357600080fd5b8135613e6a81614f9f565b634e487b7160e01b600052601160045260246000fd5b600082198211156154975761549761546e565b500190565b60006101a0820190508b82528a60208301528951604083015260208a0151606083015260408a015160808301526001600160a01b0360608b01511660a08301526154eb60c083018a60020b9052565b6154fa60e083018960020b9052565b61550a61010083018860020b9052565b61551a61012083018760020b9052565b6001600160801b03851661014083015261553a61016083018560020b9052565b6001600160a01b0383166101808301529b9a5050505050505050505050565b6000806040838503121561556c57600080fd5b825161557781614f9f565b6020939093015192949293505050565b60006001600160801b038083168185168083038211156155a9576155a961546e565b01949350505050565b60006001600160801b03838116908316818110156155d2576155d261546e565b039392505050565b84815283602082015260606040820152816060820152818360808301376000818301608090810191909152601f909201601f191601019392505050565b6000828210156156295761562961546e565b500390565b80518015158114613e2e57600080fd5b6000806040838503121561565157600080fd5b61565a8361562e565b9150602083015161538d81615109565b60008160001904831182151516156156845761568461546e565b500290565b634e487b7160e01b600052601260045260246000fd5b6000826156ae576156ae615689565b500490565b60008160020b627fffff198114156156cd576156cd61546e565b60000392915050565b60006001600160a01b03838116908316818110156155d2576155d261546e565b634e487b7160e01b600052603260045260246000fd5b600081600f0b7fffffffffffffffffffffffffffffffff800000000000000000000000000000008114156156cd576156cd61546e565b60006020828403121561575457600080fd5b8151613e6a81615109565b6040815260006157726040830185615276565b82810360208481019190915284518083528582019282019060005b818110156157a95784518352938301939183019160010161578d565b5090979650505050505050565b805162ffffff81168114613e2e57600080fd5b600080600080600060a086880312156157e157600080fd5b85516157ec81615109565b60208701519095506157fd81615109565b604087015190945061580e81615109565b925061581c606087016157b6565b915061582a608087016157b6565b90509295509295909350565b60008260020b8061584957615849615689565b808360020b0791505092915050565b60008160020b8360020b8061586f5761586f615689565b6000198114627fffff19831416156158895761588961546e565b90059392505050565b60007f80000000000000000000000000000000000000000000000000000000000000008214156158c4576158c461546e565b5060000390565b60005b838110156158e65781810151838201526020016158ce565b83811115613a0d5750506000910152565b600082516159098184602087016158cb565b9190910192915050565b60006020828403121561592557600080fd5b5051919050565b600062ffffff8083168185168183048111821515161561594e5761594e61546e565b02949350505050565b600062ffffff8084168061596d5761596d615689565b92169190910492915050565b60006001600160801b038084168061596d5761596d615689565b6000602082840312156159a557600080fd5b613e6a8261562e565b60208152600082518060208401526159cd8160408501602087016158cb565b601f01601f1916919091016040019291505056fea26469706673582212203a802430cb71e1c42ac1d56028608c54ecc93851cf4518b9e9f226c6e06edd5b64736f6c63430008090033",
  "deployedBytecode": "0x608060405234801561001057600080fd5b50600436106103155760003560e01c8063a34123a7116101a7578063cf78756b116100ee578063f30dba9311610097578063f949e8b711610071578063f949e8b7146108c2578063fa1a169c146108ca578063fb5d80b3146108d357600080fd5b8063f30dba93146107a6578063f719dac614610851578063f7c618c1146108af57600080fd5b8063d5514792116100c8578063d551479214610760578063d90bda4e14610780578063e5ff7f461461079357600080fd5b8063cf78756b14610730578063d0c93a7c14610738578063d21220a71461074d57600080fd5b8063bd7d1eea11610150578063caa4b46a1161012a578063caa4b46a14610702578063cce2df031461070a578063cf5431531461071d57600080fd5b8063bd7d1eea146106c9578063c03c2514146106dc578063c45a0155146106ef57600080fd5b8063b0e21e8a11610181578063b0e21e8a1461060c578063b2f4bdb014610615578063bcdb4dad1461061e57600080fd5b8063a34123a714610554578063aaca1b4d14610567578063acfe88f8146105f957600080fd5b806366f657c51161026b5780638c347f9b116102145780639da12096116101ee5780639da1209614610512578063a00e8f291461051a578063a035b1fe1461054157600080fd5b80638c347f9b146104d75780638f10369a14610500578063956afe451461050957600080fd5b806370ed1b861161024557806370ed1b86146104bc578063735541d1146104c557806384e02017146104ce57600080fd5b806366f657c51461047257806367e4ac2c1461047b5780636d59d8021461049057600080fd5b80631a686502116102cd578063490e6cbc116102a7578063490e6cbc1461041e57806354cf2aeb14610433578063627dd56a1461045f57600080fd5b80631a686502146103c25780632df94b0f146103ed57806340306fb61461041557600080fd5b80630ae9ba8a116102fe5780630ae9ba8a1461037b5780630dfe16811461038e578063111ba27d146103b957600080fd5b806306f912f31461031a5780630902f1ac14610340575b600080fd5b61032d610328366004614fae565b6108f2565b6040519081526020015b60405180910390f35b6014546015546001600160801b03600160801b909204821691165b604080516001600160801b03938416815292909116602083015201610337565b61032d61038936600461501c565b61095a565b6003546103a1906001600160a01b031681565b6040516001600160a01b039091168152602001610337565b61032d601e5481565b6006546103d5906001600160801b031681565b6040516001600160801b039091168152602001610337565b6104006103fb3660046150c3565b610f0e565b60408051928352602083019190915201610337565b61032d600e5481565b61043161042c36600461511e565b61108d565b005b60005461044b9065010000000000900462ffffff1681565b60405162ffffff9091168152602001610337565b61032d61046d366004615241565b6114a5565b61032d600c5481565b610483611b85565b60405161033791906152ba565b600754604080516001600160a01b0383168152600160a01b90920463ffffffff16602083015201610337565b61032d60095481565b61032d60185481565b61032d600d5481565b601654604080516001600160a01b0383168152600160a01b90920460020b602083015201610337565b61032d60125481565b61032d600f5481565b61032d611c19565b60165461052e90600160a01b900460020b81565b60405160029190910b8152602001610337565b6016546103a1906001600160a01b031681565b6104006105623660046152cd565b611c31565b6105c3610575366004615314565b601b60209081526000938452604080852082529284528284209052825290208054600182015460028301546003909301546001600160801b0392831693919281811691600160801b90041685565b604080516001600160801b039687168152602081019590955284019290925283166060830152909116608082015260a001610337565b61040061060736600461535f565b611fde565b61032d6103e881565b61032d601d5481565b6106746000546005546001546003546004546001600160801b03680100000000000000008604169562ffffff62010000870481169665010000000000900416946001600160a01b03908116948116938116921690565b604080516001600160801b03909816885262ffffff968716602089015295909416948601949094526001600160a01b0391821660608601528116608085015291821660a08401521660c082015260e001610337565b6104316106d7366004615398565b612300565b61032d6106ea36600461535f565b61235a565b6005546103a1906001600160a01b031681565b61035b612465565b6104316107183660046153b5565b61281a565b61043161072b3660046153fc565b612d7f565b61032d613115565b60005461044b9062010000900462ffffff1681565b6004546103a1906001600160a01b031681565b61032d61076e366004615451565b601a6020526000908152604090205481565b61043161078e366004615398565b613128565b6013546103d5906001600160801b031681565b6108066107b4366004615451565b60196020526000908152604090208054600182015460028084015460039094015483820b946301000000850490920b93660100000000000090046001600160801b03169291906001600160a01b031686565b60408051600297880b81529590960b60208601526001600160801b0390931694840194909452606083015260808201929092526001600160a01b0390911660a082015260c001610337565b61089261085f366004615314565b601c602090815260009384526040808520825292845282842090528252902080546001909101546001600160801b031682565b604080519283526001600160801b03909116602083015201610337565b6010546103a1906001600160a01b031681565b61032d6131ce565b61032d60085481565b6013546014546001600160801b03600160801b9092048216911661035b565b600060175460021415610918576040516303cb96db60e21b815260040160405180910390fd5b60026017556109283385856131e0565b610934338585856132be565b60105490915061094e906001600160a01b03168233613358565b60016017559392505050565b600060175460021415610980576040516303cb96db60e21b815260040160405180910390fd5b600260175560208201516060830151610999919061336c565b60006109a883602001516134d1565b6001600160a01b0316905060006109c284606001516134d1565b60165460a086015160808701516001600160a01b03938416945091909216916109fd918591859185916001600160801b03908116911661381d565b93506f7fffffffffffffffffffffffffffffff841115610a49576040517f35278d1200000000000000000000000000000000000000000000000000000000815260040160405180910390fd5b83610a80576040517f83ecd22400000000000000000000000000000000000000000000000000000000815260040160405180910390fd5b610a886138b1565b6000601973__$5c5207d55745a34649a0c7f595c6a505bf$__63825c72999091601a6040518060800160405280600a54600854610ac59190615484565b8152602001600b54600954610ada9190615484565b81526020016011548152602001600760009054906101000a90046001600160a01b03166001600160a01b03168152508a600001518b602001518c604001518d606001518d601660149054906101000a900460020b8c6040518b63ffffffff1660e01b8152600401610b549a9998979695949392919061549c565b604080518083038186803b158015610b6b57600080fd5b505af4158015610b7f573d6000803e3d6000fd5b505050506040513d601f19601f82011682018060405250810190610ba39190615559565b6016805462ffffff909316600160a01b0262ffffff60a01b1990931692909217909155601880549192508291600090610bdd908490615484565b9250508190555050610bf93386602001518760600151876139eb565b808311158015610c0857508181105b15610c3857600680546001600160801b038082168701166fffffffffffffffffffffffffffffffff199091161790555b600080610c49858585896001613a13565b600354600480546040517f5f16529a0000000000000000000000000000000000000000000000000000000081526001600160a01b03938416928101929092529190911660248201526001600160801b0380841660448301528216606482015291935091503390635f16529a90608401600060405180830381600087803b158015610cd257600080fd5b505af1158015610ce6573d6000803e3d6000fd5b50505050816001600160801b0316600014610d935781601460108282829054906101000a90046001600160801b0316610d1f9190615587565b92506101000a8154816001600160801b0302191690836001600160801b03160217905550610d61600360009054906101000a90046001600160a01b0316613a7d565b601454600160801b90046001600160801b03161115610d935760405163420231d560e11b815260040160405180910390fd5b6001600160801b03811615610e2d5760158054829190600090610dc09084906001600160801b0316615587565b92506101000a8154816001600160801b0302191690836001600160801b03160217905550610e02600460009054906101000a90046001600160a01b0316613a7d565b6015546001600160801b03161115610e2d57604051637218102160e11b815260040160405180910390fd5b600280546040805160a08101825260208b810151850b82526060808d0151860b9183019182526001600160801b03888116848601908152908816918401918252608084018d815294517ffbad73910000000000000000000000000000000000000000000000000000000081529351870b6004850152915190950b6024830152516044820152925160648401525160848301526001600160a01b03169063fbad73919060a401600060405180830381600087803b158015610eec57600080fd5b505af1925050508015610efd575060015b505050600160175550919392505050565b60008060175460021415610f35576040516303cb96db60e21b815260040160405180910390fd5b6002601755610f45338787613b7b565b610f523387878787613caa565b601480549294509092508391601090610f7c908490600160801b90046001600160801b03166155b2565b92506101000a8154816001600160801b0302191690836001600160801b0316021790555080601560008282829054906101000a90046001600160801b0316610fc491906155b2565b92506101000a8154816001600160801b0302191690836001600160801b03160217905550610ff3338383613db5565b6002546040805180820182528481526020810184815291517f1228c47f00000000000000000000000000000000000000000000000000000000815290516004820152905160248201526001600160a01b0390911690631228c47f90604401600060405180830381600087803b15801561106b57600080fd5b505af192505050801561107c575060015b506001601755909590945092505050565b601754600214156110b1576040516303cb96db60e21b815260040160405180910390fd5b60026017556006546001600160801b0316806110f9576040517f83ecd22400000000000000000000000000000000000000000000000000000000815260040160405180910390fd5b6014546015546001600160801b03600160801b9092048216911661111e888888613db5565b60008061113d8989600060059054906101000a900462ffffff16613de3565b6040517fc3924ed60000000000000000000000000000000000000000000000000000000081529193509150339063c3924ed69061118490859085908c908c906004016155da565b600060405180830381600087803b15801561119e57600080fd5b505af11580156111b2573d6000803e3d6000fd5b50506003546000925082915081906111d2906001600160a01b0316613a7d565b6004549091506000906111ed906001600160a01b0316613a7d565b9050816111fa878a615484565b11156112195760405163420231d560e11b815260040160405180910390fd5b806112248689615484565b111561124357604051637218102160e11b815260040160405180910390fd5b61124c82613e18565b601480546001600160801b03928316600160801b02921691909117905561127281613e18565b601580546fffffffffffffffffffffffffffffffff19166001600160801b03929092169190911790556112a58883615617565b93506112b18782615617565b92506103e891505082156113535760006112ce8483612710613e33565b905080601360108282829054906101000a90046001600160801b03166112f49190615587565b92506101000a8154816001600160801b0302191690836001600160801b0316021790555061133b816001600160801b0316856113309190615617565b600160801b8b613e71565b6008600082825461134c9190615484565b9091555050505b81156113dc5760006113688383612710613e33565b6014805491925082916000906113889084906001600160801b0316615587565b92506101000a8154816001600160801b0302191690836001600160801b031602179055506113c4816001600160801b0316846113309190615617565b600960008282546113d59190615484565b9091555050505b6002546040805160a081018252338152602081018f81528183018f8152606083018881526080840188815294517f2987fbcc00000000000000000000000000000000000000000000000000000000815293516001600160a01b039081166004860152925160248501529051604484015251606483015291516084820152911690632987fbcc9060a401600060405180830381600087803b15801561147f57600080fd5b505af1925050508015611490575060015b50505060016017555050505050505050505050565b6000601754600214156114cb576040516303cb96db60e21b815260040160405180910390fd5b6002601781905550600080838060200190518101906114ea919061563e565b91509150600082611506576015546001600160801b031661151a565b601454600160801b90046001600160801b03165b6001600160801b031661154d8461153c576004546001600160a01b0316613a7d565b6003546001600160a01b0316613a7d565b6115579190615617565b90506000604051806101200160405280600081526020016000815260200160008152602001856115895760085461158d565b6009545b81526020018561159f576009546115a3565b6008545b81526016546001600160a01b031660208201526006546001600160801b03166040820152606081018490526080018561160257601654600160a01b9004600290810b60009081526019602052604090205463010000009004900b611610565b601654600160a01b900460020b5b60020b9052905061161f6138b1565b60115461162b82613f24565b60e0820151156119be5760006116458361010001516134d1565b6001600160a01b0316905060008087156117765760006116708660c00151858860a001516000613f9b565b9050808660e00151116117365760c086015160a087015160e088015160609290921b916000916116b6918491906116a7908261566a565b6116b19086615484565b613e33565b90508086111580156116cb57508760a0015181105b611709576116fd828960e001518a60a00151856116e8919061569f565b6116f29190615484565b808204910615150190565b6001600160a01b031690505b61171e8860c00151828a60a001516000613ff3565b60a0890191909152600060e089015293506117709050565b61174b8660c00151858860a001516000613ff3565b60a0870185905260e08701805191945060019350829161176c908390615617565b9052505b5061182b565b600061178d8660c001518760a00151866000613ff3565b9050808660e00151116117ef5760006117b38760e00151600160601b8960c00151613e71565b8760a001516117c29190615484565b90506117d98760c001518860a00151836000613f9b565b60a0880191909152600060e08801529250611829565b6118048660c001518760a00151866000613f9b565b60a0870185905260e087018051919450600193508291611825908390615617565b9052505b505b60c08501511561187d5761186882600060059054906101000a900462ffffff166103e88860c0015189602001518e8b604001518c6060015161401d565b60608901526040880152602087019190915298505b80156119b65761188e85858a6140b5565b60c08501516119b65761010085015160020b620d89e71914806118c757506118b9620d89e7196156b3565b60020b85610100015160020b145b1561198f57871561191a576118f160018660a001516118e69190615617565b6401000276a361416d565b60a086015261010085018051600290810b600090815260196020526040902054900b9052611987565b61195b8560a00151600161192e9190615484565b61194d600173fffd8963efd1fc6a506488495d951d5263988d266156d6565b6001600160a01b0316614184565b60a086015261010085018051600290810b60009081526019602052604090205463010000009004900b90525b5050506119be565b61199d8561010001516134d1565b6001600160a01b031660a08601526119b685858a6140b5565b50505061162b565b60a08201516016805473ffffffffffffffffffffffffffffffffffffffff19166001600160a01b03909216919091179055600085611a1757610100830151600290810b600090815260196020526040902054900b611a1e565b8261010001515b601654909150600282810b600160a01b909204900b14611a82576016805462ffffff60a01b1916600160a01b62ffffff84160217905560c0830151600680546fffffffffffffffffffffffffffffffff19166001600160801b039092169190911790555b611a8d868589614193565b611aa086846060015185604001516142f5565b8515611ac257600454611abd906001600160a01b03168887613358565b611ad9565b600354611ad9906001600160a01b03168887613358565b600254604080516060810182528815158152602081018781528183018b815292517f91accd5f000000000000000000000000000000000000000000000000000000008152915115156004830152516024820152905160448201526001600160a01b03909116906391accd5f90606401600060405180830381600087803b158015611b6257600080fd5b505af1925050508015611b73575060015b50505060016017555092949350505050565b6040805160028082526060808301845292602083019080368337505060035482519293506001600160a01b031691839150600090611bc557611bc56156f6565b6001600160a01b039283166020918202929092010152600454825191169082906001908110611bf657611bf66156f6565b60200260200101906001600160a01b031690816001600160a01b03168152505090565b6000611c2c600854600a54600c54614371565b905090565b60008060175460021415611c58576040516303cb96db60e21b815260040160405180910390fd5b60026017556000611c68866134d1565b90506000611c75866134d1565b6016549091506001600160a01b0316611c8c6138b1565b806001600160a01b0316836001600160a01b031611158015611cbf5750816001600160a01b0316816001600160a01b0316105b15611cf057600680546001600160801b03808216899003166fffffffffffffffffffffffffffffffff199091161790555b611d22836001600160a01b0316836001600160a01b0316836001600160a01b0316896001600160801b03166000613a13565b6001600160801b039182169650811694506f7fffffffffffffffffffffffffffffff9087161115611d7f576040517f35278d1200000000000000000000000000000000000000000000000000000000815260040160405180910390fd5b611d93338989611d8e8a61570c565b6139eb565b601480546001600160801b03600160801b808304821689900382160291811691909117909155601580548083168790039092166fffffffffffffffffffffffffffffffff1992909216919091179055611ded338686613db5565b6016546040517f7c91cb9800000000000000000000000000000000000000000000000000000000815260196004820152601a602482015260028a810b604483015289810b60648301526001600160801b0389166084830152600160a01b90920490910b60a482015260009073__$5c5207d55745a34649a0c7f595c6a505bf$__90637c91cb989060c401604080518083038186803b158015611e8e57600080fd5b505af4158015611ea2573d6000803e3d6000fd5b505050506040513d601f19601f82011682018060405250810190611ec69190615559565b6016805462ffffff909316600160a01b0262ffffff60a01b1990931692909217909155601880549192508291600090611f00908490615617565b9091555050600280546040805160a0810182528c840b81528b840b602082019081528183018b8152606083018b81526001600160801b038e166080850190815294517ffc9482d20000000000000000000000000000000000000000000000000000000081529351870b6004850152915190950b602483015293516044820152925160648401525160848301526001600160a01b0316915063fc9482d29060a401600060405180830381600087803b158015611fba57600080fd5b505af1925050508015611fcb575060015b5050506001601755509094909350915050565b60165460009081908190611ffa906001600160a01b03166143d1565b90506000601960008760020b60020b81526020019081526020016000206040518060c00160405290816000820160009054906101000a900460020b60020b60020b81526020016000820160039054906101000a900460020b60020b60020b81526020016000820160069054906101000a90046001600160801b03166001600160801b03166001600160801b0316815260200160018201548152602001600282015481526020016003820160009054906101000a90046001600160a01b03166001600160a01b03166001600160a01b03168152505090506000601960008760020b60020b81526020019081526020016000206040518060c00160405290816000820160009054906101000a900460020b60020b60020b81526020016000820160039054906101000a900460020b60020b60020b81526020016000820160069054906101000a90046001600160801b03166001600160801b03166001600160801b0316815260200160018201548152602001600282015481526020016003820160009054906101000a90046001600160a01b03166001600160a01b03166001600160a01b03168152505090506000806000806121d1600660009054906101000a90046001600160801b03166001600160801b031661472a565b9150915081600a546008546121e69190615484565b6121f09190615484565b935080600b546009546122039190615484565b61220d9190615484565b925050506000808660020b8b60020b136122495760608601516122309083615484565b91508560800151816122429190615484565b9050612281565b60608601516122589085615617565b6122629083615484565b91508560800151836122749190615617565b61227e9082615484565b90505b8960020b8760020b12156122b757606085015161229e9083615484565b91508460800151816122b09190615484565b90506122ef565b60608501516122c69085615617565b6122d09083615484565b91508460800151836122e29190615617565b6122ec9082615484565b90505b920399919003975095505050505050565b6005546001600160a01b0316331461232b5760405163ea8e4eb560e01b815260040160405180910390fd5b6002805473ffffffffffffffffffffffffffffffffffffffff19166001600160a01b0392909216919091179055565b6016546000908190612374906001600160a01b03166143d1565b60065490915060009061238f906001600160801b031661476d565b60115461239c9190615484565b905060008260020b8660020b136123d257600286900b6000908152601a60205260409020546123cb9082615484565b90506123fd565b600286900b6000908152601a60205260409020546123f09083615617565b6123fa9082615484565b90505b8460020b8360020b121561243057600285900b6000908152601a60205260409020546124299082615484565b905061245b565b600285900b6000908152601a602052604090205461244e9083615617565b6124589082615484565b90505b9003949350505050565b6000806017546002141561248c576040516303cb96db60e21b815260040160405180910390fd5b6002601755600154604080517fef36925200000000000000000000000000000000000000000000000000000000815290516000926001600160a01b03169163ef369252916004808301926020929190829003018186803b1580156124ef57600080fd5b505afa158015612503573d6000803e3d6000fd5b505050506040513d601f19601f820116820180604052508101906125279190615742565b604080516002808252606082018352929350600092909160208301908036833750506040805160028082526060820183529394506000939092509060208301908036833701905050601354909150600160801b90046001600160801b03161561267b57601380546001600160801b0380821690925560148054600160801b9283900484169850889391926010926125c29286929004166155b2565b92506101000a8154816001600160801b0302191690836001600160801b0316021790555061260f600360009054906101000a90046001600160a01b0316866001600160801b031685613358565b60035482516001600160a01b03909116908390600090612631576126316156f6565b60200260200101906001600160a01b031690816001600160a01b031681525050846001600160801b03168160008151811061266e5761266e6156f6565b6020026020010181815250505b6014546001600160801b03161561278457601480546fffffffffffffffffffffffffffffffff198116909155601580546001600160801b03928316965086926000916126c9918591166155b2565b92506101000a8154816001600160801b0302191690836001600160801b03160217905550612716600460009054906101000a90046001600160a01b0316856001600160801b031685613358565b60045482516001600160a01b03909116908390600190811061273a5761273a6156f6565b60200260200101906001600160a01b031690816001600160a01b031681525050836001600160801b031681600181518110612777576127776156f6565b6020026020010181815250505b6001600160a01b0383163b1561280e576040517ff03328300000000000000000000000000000000000000000000000000000000081526001600160a01b0384169063f0332830906127db908590859060040161575f565b600060405180830381600087803b1580156127f557600080fd5b505af1158015612809573d6000803e3d6000fd5b505050505b50505060016017559091565b600054610100900460ff166128355760005460ff1615612839565b303b155b6128b05760405162461bcd60e51b815260206004820152602e60248201527f496e697469616c697a61626c653a20636f6e747261637420697320616c72656160448201527f647920696e697469616c697a656400000000000000000000000000000000000060648201526084015b60405180910390fd5b600054610100900460ff161580156128ef57600080547fffffffffffffffffffffffffffffffffffffffffffffffffffffffffffff0000166101011790555b60008060008060008780602001905181019061290b91906157c9565b600380546001600160a01b0380881673ffffffffffffffffffffffffffffffffffffffff199283161790925560048054838816908316179055601080548387169083161790556000805462ffffff80861662010000027fffffffffffffffffffffffffffffffffffffffffffffffffffffff000000ffff9188166501000000000002919091167fffffffffffffffffffffffffffffffffffffffffffffffff000000000000ffff909216919091171790556005805482163317905560018054928f16929091169190911790559398509196509450925090506129ec81614795565b600060086101000a8154816001600160801b0302191690836001600160801b031602179055506040518060c00160405280620d89e71960020b8152602001620d89e719612a38906156b3565b60020b815260006020808301829052604080840183905260608085018490526080948501849052620d89e719938490526019835285517f8b687876df6025befed93a16f72cd2848615619f141fc2441f1db80badfc7d3e805488860151898601516001600160801b03166601000000000000027fffffffffffffffffffff00000000000000000000000000000000ffffffffffff62ffffff92831663010000000265ffffffffffff19909416929095169190911791909117929092169190911790558501517f8b687876df6025befed93a16f72cd2848615619f141fc2441f1db80badfc7d3f55928401517f8b687876df6025befed93a16f72cd2848615619f141fc2441f1db80badfc7d405560a0909301517f8b687876df6025befed93a16f72cd2848615619f141fc2441f1db80badfc7d4180546001600160a01b039290921673ffffffffffffffffffffffffffffffffffffffff19909216919091179055815160c081019092528082529091820190612bb3906156b3565b60020b815260200160006001600160801b03168152602001600081526020016000815260200160006001600160a01b031681525060196000620d89e719612bf9906156b3565b600290810b8252602080830193909352604091820160002084518154948601519386015162ffffff91821665ffffffffffff199096169590951763010000009190941602929092177fffffffffffffffffffff00000000000000000000000000000000ffffffffffff1666010000000000006001600160801b0390941693909302929092178155606083015160018083019190915560808401518284015560a0909301516003909101805473ffffffffffffffffffffffffffffffffffffffff19166001600160a01b039092169190911790556016805462ffffff60a01b191676f276180000000000000000000000000000000000000000179055601791909155600780547fffffffffffffffff00000000ffffffffffffffffffffffffffffffffffffffff16600160a01b4263ffffffff81169190910291909117909155601891909155601d55505043601e55505081159050612d7a57600080547fffffffffffffffffffffffffffffffffffffffffffffffffffffffffffff00ff1690555b505050565b60175460021415612da3576040516303cb96db60e21b815260040160405180910390fd5b6002601755600154604080517fd0a93173000000000000000000000000000000000000000000000000000000008152905133926001600160a01b03169163d0a931739160048083019260209291908290030181600087803b158015612e0757600080fd5b505af1158015612e1b573d6000803e3d6000fd5b505050506040513d601f19601f82011682018060405250810190612e3f9190615742565b6001600160a01b031614612e665760405163ea8e4eb560e01b815260040160405180910390fd5b42612e718284615484565b11612ea8576040517fd252903400000000000000000000000000000000000000000000000000000000815260040160405180910390fd5b600e54600f54600090612ebb9083615484565b905083811115612ef7576040517fd252903400000000000000000000000000000000000000000000000000000000815260040160405180910390fd5b6001600160801b03871615612f6e57600354612f25906001600160a01b03166001600160801b0389166147d5565b86601460108282829054906101000a90046001600160801b0316612f499190615587565b92506101000a8154816001600160801b0302191690836001600160801b031602179055505b6001600160801b03861615612fdf57600454612f9c906001600160a01b03166001600160801b0388166147d5565b60158054879190600090612fba9084906001600160801b0316615587565b92506101000a8154816001600160801b0302191690836001600160801b031602179055505b6001600160801b0385161561300d5760105461300d906001600160a01b03166001600160801b0387166147d5565b60006130176147ea565b11156130af576130256138b1565b600754600160a01b900463ffffffff16818110156130ad576000613049828561416d565b6130539084615617565b9050613069613064600c548361485a565b613e18565b613073908a615587565b9850613084613064600d548361485a565b61308e9089615587565b975061309f6130646012548361485a565b6130a99088615587565b9650505b505b6130c7876001600160801b0316600160801b85613e71565b600c556130e26001600160801b038716600160801b85613e71565b600d556130fd6001600160801b038616600160801b85613e71565b6012555050600e91909155600f555050600160175550565b6000611c2c600954600b54600d54614371565b6005546001600160a01b031633146131535760405163ea8e4eb560e01b815260040160405180910390fd5b6016546001600160a01b031615613196576040517f2f282c6c00000000000000000000000000000000000000000000000000000000815260040160405180910390fd5b61319f8161486b565b6016805473ffffffffffffffffffffffffffffffffffffffff19166001600160a01b0392909216919091179055565b6000611c2c6000601154601254614371565b6001600160a01b0383166000908152601c60209081526040808320600286810b85529083528184209085900b845290915281209061321e848461235a565b82546001600160a01b0387166000908152601b6020908152604080832060028a810b85529083528184209089900b84529091528120549293509161326d918403906001600160801b031661485a565b82845560018401805491925082916000906132929084906001600160801b0316615587565b92506101000a8154816001600160801b0302191690836001600160801b03160217905550505050505050565b6001600160a01b0384166000908152601c60209081526040808320600287810b85529083528184209086900b845290915281206001810154613309906001600160801b031684614184565b600182018054919350839160009061332b9084906001600160801b03166155b2565b92506101000a8154816001600160801b0302191690836001600160801b0316021790555050949350505050565b612d7a6001600160a01b03841682846148db565b6000546133849062010000900462ffffff1683615836565b60020b156133be576040517fce8ef7fc00000000000000000000000000000000000000000000000000000000815260040160405180910390fd5b6000546002906133d99062010000900462ffffff1684615858565b6133e39190615836565b60020b1561341d576040517ffdf1420200000000000000000000000000000000000000000000000000000000815260040160405180910390fd5b6000546134359062010000900462ffffff1682615836565b60020b1561346f576040517fce8ef7fc00000000000000000000000000000000000000000000000000000000815260040160405180910390fd5b60005460029061348a9062010000900462ffffff1683615858565b6134949190615836565b60020b6134cd576040517fa9778c6300000000000000000000000000000000000000000000000000000000815260040160405180910390fd5b5050565b60008060008360020b126134e8578260020b6134f5565b8260020b6134f590615892565b9050613504620d89e7196156b3565b62ffffff16811115613542576040517ff87dc40c00000000000000000000000000000000000000000000000000000000815260040160405180910390fd5b60006001821661355657600160801b613568565b6ffffcb933bd6fad37aa2d162d1a5940015b70ffffffffffffffffffffffffffffffffff169050600282161561359c576ffff97272373d413259a46990580e213a0260801c5b60048216156135bb576ffff2e50f5f656932ef12357cf3c7fdcc0260801c5b60088216156135da576fffe5caca7e10e4e61c3624eaa0941cd00260801c5b60108216156135f9576fffcb9843d60f6159c9db58835c9266440260801c5b6020821615613618576fff973b41fa98c081472e6896dfb254c00260801c5b6040821615613637576fff2ea16466c96a3843ec78b326b528610260801c5b6080821615613656576ffe5dee046a99a2a811c461f1969c30530260801c5b610100821615613676576ffcbe86c7900a88aedcffc83b479aa3a40260801c5b610200821615613696576ff987a7253ac413176f2b074cf7815e540260801c5b6104008216156136b6576ff3392b0822b70005940c7a398e4b70f30260801c5b6108008216156136d6576fe7159475a2c29b7443b29c7fa6e889d90260801c5b6110008216156136f6576fd097f3bdfd2022b8845ad8f792aa58250260801c5b612000821615613716576fa9f746462d870fdf8a65dc1f90e061e50260801c5b614000821615613736576f70d869a156d2a1b890bb3df62baf32f70260801c5b618000821615613756576f31be135f97d08fd981231505542fcfa60260801c5b62010000821615613777576f09aa508b5b7a84e1c677de54f3e99bc90260801c5b62020000821615613797576e5d6af8dedb81196699c329225ee6040260801c5b620400008216156137b6576d2216e584f5fa1ea926041bedfe980260801c5b620800008216156137d3576b048a170391f7dc42444e8fa20260801c5b60008460020b13156137f45780600019816137f0576137f0615689565b0490505b64010000000081061561380857600161380b565b60005b60ff16602082901c0192505050919050565b600083851161383e5761383783600160601b888803613e71565b90506138a8565b85841161386057613837826138588888600160601b613e71565b888803613e71565b600061387d836138758888600160601b613e71565b878903613e71565b9050600061389285600160601b8a8903613e71565b90508082106138a157806138a3565b815b925050505b95945050505050565b6006546001600160801b0316806138c55750565b600754600160a01b900463ffffffff164281106138e0575050565b60006138ea6147ea565b9050801561395e576138ff600c548285613e71565b600a60008282546139109190615484565b9091555050600d54613923908285613e71565b600b60008282546139349190615484565b9091555050601254613947908285613e71565b601160008282546139589190615484565b90915550505b6007805463ffffffff42908116600160a01b027fffffffffffffffff00000000ffffffffffffffffffffffffffffffffffffffff90921691909117909155839083900360801b816139b1576139b1615689565b6007805473ffffffffffffffffffffffffffffffffffffffff198116939092046001600160a01b0392831601909116919091179055505050565b6139f6848484613b7b565b613a018484846131e0565b613a0d84848484614984565b50505050565b600080848611613a3357613a2c61306485898987613ff3565b9050613a73565b868511613a5057613a4961306485898987613f9b565b9150613a73565b613a5f61306485878987613f9b565b9150613a7061306485898887613ff3565b90505b9550959350505050565b604080513060248083019190915282518083039091018152604490910182526020810180517bffffffffffffffffffffffffffffffffffffffffffffffffffffffff167f70a08231000000000000000000000000000000000000000000000000000000001790529051600091829182916001600160a01b03861691613b0291906158f7565b600060405180830381855afa9150503d8060008114613b3d576040519150601f19603f3d011682016040523d82523d6000602084013e613b42565b606091505b5091509150818015613b5657506020815110155b613b5f57600080fd5b80806020019051810190613b739190615913565b949350505050565b6001600160a01b0383166000908152601b60209081526040808320600286810b85529083528184209085900b845290915281209080613bba8585611fde565b600185015485549294509092506000918291613be291908603906001600160801b031661485a565b60028601548654919350613c0291908503906001600160801b031661485a565b60018601859055600286018490556003860180549192508391600090613c329084906001600160801b0316615587565b92506101000a8154816001600160801b0302191690836001600160801b03160217905550808560030160108282829054906101000a90046001600160801b0316613c7c9190615587565b92506101000a8154816001600160801b0302191690836001600160801b031602179055505050505050505050565b6001600160a01b0385166000908152601b60209081526040808320600288810b85529083528184209087900b845290915281206003810154829190613cf8906001600160801b031686614184565b6003820154909350613d1a90600160801b90046001600160801b031685614184565b6003820180549193508491600090613d3c9084906001600160801b03166155b2565b92506101000a8154816001600160801b0302191690836001600160801b03160217905550818160030160108282829054906101000a90046001600160801b0316613d8691906155b2565b92506101000a8154816001600160801b0302191690836001600160801b03160217905550509550959350505050565b600354613dcc906001600160a01b03168385613358565b600454612d7a906001600160a01b03168285613358565b600080613df9858462ffffff16620f4240613e33565b9150613e0e848462ffffff16620f4240613e33565b9050935093915050565b806001600160801b0381168114613e2e57600080fd5b919050565b6000613e40848484613e71565b90508180613e5057613e50615689565b83850915613e6a576000198110613e6657600080fd5b6001015b9392505050565b600080806000198587098587029250828110838203039150508060001415613eab5760008411613ea057600080fd5b508290049050613e6a565b808411613eb757600080fd5b6000848688096000868103871696879004966002600389028118808a02820302808a02820302808a02820302808a02820302808a02820302808a02909103029181900381900460010186841190950394909402919094039290920491909117919091029150509392505050565b60c081015115613f315750565b61010081015160020b620d89e7191480613f615750613f53620d89e7196156b3565b60020b81610100015160020b145b15613f98576040517f6ba599a000000000000000000000000000000000000000000000000000000000815260040160405180910390fd5b50565b60008115613fca57613fc3613fb7606087901b86860386613e33565b85808204910615150190565b9050613b73565b83613fdc606087901b82860386613e71565b81613fe957613fe9615689565b0495945050505050565b6000811561400c57613fc385858503600160601b613e33565b6138a885858503600160601b613e71565b60008060008060006140388d8d62ffffff16620f4240613e33565b9050614044818a615484565b9850614050818e615617565b61405a9089615484565b9750600061406b828d612710613e33565b90506140778189615484565b97506140838183615617565b915061409482600160801b8d613e71565b61409e9088615484565b999e989d50969b5097995095975050505050505050565b614157601a846101000151600760009054906101000a90046001600160a01b03168660c00151856140f757600a5488606001516140f29190615484565b614109565b600b5488606001516141099190615484565b8661412557600b5489608001516141209190615484565b614137565b600a5489608001516141379190615484565b6000546019969594939291908a908a9062010000900462ffffff16614ab6565b60020b61010085015260c0909301929092525050565b60008183101561417d5781613e6a565b5090919050565b600081831061417d5781613e6a565b821561424b576003546000906141b1906001600160a01b0316613a7d565b6014549091506000906141d5908590600160801b90046001600160801b0316615587565b905081816001600160801b031611156142015760405163420231d560e11b815260040160405180910390fd5b601480546001600160801b03928316600160801b02908316179055601580548083168590039092166fffffffffffffffffffffffffffffffff199290921691909117905550505050565b600454600090614263906001600160a01b0316613a7d565b6015549091506000906142809085906001600160801b0316615587565b905081816001600160801b031611156142ac57604051637218102160e11b815260040160405180910390fd5b601580546001600160801b039283166fffffffffffffffffffffffffffffffff1990911617905560148054600160801b8082048416869003841602921691909117905550505050565b82156143475760098290556014805482919060009061431e9084906001600160801b0316615587565b92506101000a8154816001600160801b0302191690836001600160801b03160217905550505050565b60088290556013805482919060109061431e908490600160801b90046001600160801b0316615587565b60008061437c6147ea565b6006549091506001600160801b0316811580159061439a5750600081115b156143c7576143aa848383613e71565b6143b48688615484565b6143be9190615484565b92505050613e6a565b6143be8587615484565b60006401000276a36001600160a01b038316108061440c575073fffd8963efd1fc6a506488495d951d5263988d266001600160a01b03831610155b15614443576040517f6e4ba61d00000000000000000000000000000000000000000000000000000000815260040160405180910390fd5b77ffffffffffffffffffffffffffffffffffffffff00000000602083901b166001600160801b03811160071b81811c67ffffffffffffffff811160061b90811c63ffffffff811160051b90811c61ffff811160041b90811c60ff8111600390811b91821c600f811160021b90811c918211600190811b92831c979088119617909417909217179091171717608081106144e457607f810383901c91506144ee565b80607f0383901b91505b908002607f81811c60ff83811c9190911c800280831c81831c1c800280841c81841c1c800280851c81851c1c800280861c81861c1c800280871c81871c1c800280881c81881c1c800280891c81891c1c8002808a1c818a1c1c8002808b1c818b1c1c8002808c1c818c1c1c8002808d1c818d1c1c8002808e1c9c81901c9c909c1c80029c8d901c9e9d7fffffffffffffffffffffffffffffffffffffffffffffffffffffffffffffff808f0160401b60c09190911c678000000000000000161760c19b909b1c674000000000000000169a909a1760c29990991c672000000000000000169890981760c39790971c671000000000000000169690961760c49590951c670800000000000000169490941760c59390931c670400000000000000169290921760c69190911c670200000000000000161760c79190911c670100000000000000161760c89190911c6680000000000000161760c99190911c6640000000000000161760ca9190911c6620000000000000161760cb9190911c6610000000000000161760cc9190911c6608000000000000161760cd9190911c66040000000000001617693627a301d71055774c8581027ffffffffffffffffffffffffffffffffffd709b7e5480fba5a50fed5e62ffc5568101608090811d906fdb2df09e81959a81455e260799a0632f8301901d600281810b9083900b1461471b57886001600160a01b0316614700826134d1565b6001600160a01b03161115614715578161471d565b8061471d565b815b9998505050505050505050565b6000808261473d57506000928392509050565b60006147476147ea565b9050614756600c548286613e71565b9250614765600d548286613e71565b915050915091565b60008161477c57506000919050565b60006147866147ea565b9050613e6a6012548285613e71565b60006147a282600261592c565b6147af620d89e7196156b3565b6147b99190615957565b6147cf9062ffffff166001600160801b03615979565b92915050565b6134cd6001600160a01b038316333084614d55565b600e546000904281106147ff57600091505090565b600754600f54600160a01b90910463ffffffff16906000906148219084615484565b9050818111614834576000935050505090565b61483e828461416d565b6148484283614184565b6148529190615617565b935050505090565b6000613e6a8383600160801b613e71565b6401000276a36001600160a01b03821610806148a4575073fffd8963efd1fc6a506488495d951d5263988d266001600160a01b03821610155b15613f98576040517f6e4ba61d00000000000000000000000000000000000000000000000000000000815260040160405180910390fd5b6040516001600160a01b038316602482015260448101829052612d7a9084907fa9059cbb00000000000000000000000000000000000000000000000000000000906064015b60408051601f198184030181529190526020810180517bffffffffffffffffffffffffffffffffffffffffffffffffffffffff167fffffffff0000000000000000000000000000000000000000000000000000000090931692909217909152614da6565b80600f0b6000141561499557613a0d565b6001600160a01b0384166000908152601b60209081526040808320600287810b85529083528184209086900b8452909152812090600f83900b1315614a66578054829082906000906149f19084906001600160801b0316615587565b82546101009290920a6001600160801b038181021990931691831602179091556000548354680100000000000000009091048216911611159050614a61576040517fb03425ae00000000000000000000000000000000000000000000000000000000815260040160405180910390fd5b614aaf565b614a6f8261570c565b81548290600090614a8a9084906001600160801b03166155b2565b92506101000a8154816001600160801b0302191690836001600160801b031602179055505b5050505050565b600288900b600090815260208b905260408120600301548190614ae2906001600160a01b03168a6156d6565b60028b900b600090815260208e81526040808320600301805473ffffffffffffffffffffffffffffffffffffffff19166001600160a01b0395909516949094179093558d90522054614b349086615617565b60028b900b600090815260208d905260409020558315614c475760028360020b8b60020b81614b6557614b65615689565b0560020b81614b7657614b76615689565b0760020b614bae5760028a900b600090815260208d90526040902054660100000000000090046001600160801b031690970396614bdb565b60028a900b600090815260208d90526040902054660100000000000090046001600160801b031697909701965b60028a900b600090815260208d90526040902060010154614bfc9087615617565b60028b810b600090815260208f90526040902060018101929092550154614c239088615617565b60029a8b0b600090815260208e905260409020808c01919091555490990b98614d43565b60028360020b8b60020b81614c5e57614c5e615689565b0560020b81614c6f57614c6f615689565b0760020b614ca85760028a900b600090815260208d90526040902054660100000000000090046001600160801b03169790970196614cd4565b60028a900b600090815260208d90526040902054660100000000000090046001600160801b0316909703965b60028a810b600090815260208e9052604090200154614cf39087615617565b60028b810b600090815260208f9052604090209081019190915560010154614d1b9088615617565b60029a8b0b600090815260208e9052604090206001810191909155546301000000900490990b985b50959a97995096975050505050505050565b6040516001600160a01b0380851660248301528316604482015260648101829052613a0d9085907f23b872dd0000000000000000000000000000000000000000000000000000000090608401614920565b6000614dfb826040518060400160405280602081526020017f5361666545524332303a206c6f772d6c6576656c2063616c6c206661696c6564815250856001600160a01b0316614e8b9092919063ffffffff16565b805190915015612d7a5780806020019051810190614e199190615993565b612d7a5760405162461bcd60e51b815260206004820152602a60248201527f5361666545524332303a204552433230206f7065726174696f6e20646964206e60448201527f6f7420737563636565640000000000000000000000000000000000000000000060648201526084016128a7565b6060613b738484600085856001600160a01b0385163b614eed5760405162461bcd60e51b815260206004820152601d60248201527f416464726573733a2063616c6c20746f206e6f6e2d636f6e747261637400000060448201526064016128a7565b600080866001600160a01b03168587604051614f0991906158f7565b60006040518083038185875af1925050503d8060008114614f46576040519150601f19603f3d011682016040523d82523d6000602084013e614f4b565b606091505b5091509150614f5b828286614f66565b979650505050505050565b60608315614f75575081613e6a565b825115614f855782518084602001fd5b8160405162461bcd60e51b81526004016128a791906159ae565b8060020b8114613f9857600080fd5b600080600060608486031215614fc357600080fd5b8335614fce81614f9f565b92506020840135614fde81614f9f565b929592945050506040919091013590565b634e487b7160e01b600052604160045260246000fd5b80356001600160801b0381168114613e2e57600080fd5b600060c0828403121561502e57600080fd5b60405160c0810181811067ffffffffffffffff8211171561505157615051614fef565b604052823561505f81614f9f565b8152602083013561506f81614f9f565b6020820152604083013561508281614f9f565b6040820152606083013561509581614f9f565b60608201526150a660808401615005565b60808201526150b760a08401615005565b60a08201529392505050565b600080600080608085870312156150d957600080fd5b84356150e481614f9f565b935060208501356150f481614f9f565b93969395505050506040820135916060013590565b6001600160a01b0381168114613f9857600080fd5b60008060008060006080868803121561513657600080fd5b853561514181615109565b94506020860135935060408601359250606086013567ffffffffffffffff8082111561516c57600080fd5b818801915088601f83011261518057600080fd5b81358181111561518f57600080fd5b8960208285010111156151a157600080fd5b9699959850939650602001949392505050565b600082601f8301126151c557600080fd5b813567ffffffffffffffff808211156151e0576151e0614fef565b604051601f8301601f19908116603f0116810190828211818310171561520857615208614fef565b8160405283815286602085880101111561522157600080fd5b836020870160208301376000602085830101528094505050505092915050565b60006020828403121561525357600080fd5b813567ffffffffffffffff81111561526a57600080fd5b613b73848285016151b4565b600081518084526020808501945080840160005b838110156152af5781516001600160a01b03168752958201959082019060010161528a565b509495945050505050565b602081526000613e6a6020830184615276565b6000806000606084860312156152e257600080fd5b83356152ed81614f9f565b925060208401356152fd81614f9f565b915061530b60408501615005565b90509250925092565b60008060006060848603121561532957600080fd5b833561533481615109565b9250602084013561534481614f9f565b9150604084013561535481614f9f565b809150509250925092565b6000806040838503121561537257600080fd5b823561537d81614f9f565b9150602083013561538d81614f9f565b809150509250929050565b6000602082840312156153aa57600080fd5b8135613e6a81615109565b600080604083850312156153c857600080fd5b823567ffffffffffffffff8111156153df57600080fd5b6153eb858286016151b4565b925050602083013561538d81615109565b600080600080600060a0868803121561541457600080fd5b61541d86615005565b945061542b60208701615005565b935061543960408701615005565b94979396509394606081013594506080013592915050565b60006020828403121561546357600080fd5b8135613e6a81614f9f565b634e487b7160e01b600052601160045260246000fd5b600082198211156154975761549761546e565b500190565b60006101a0820190508b82528a60208301528951604083015260208a0151606083015260408a015160808301526001600160a01b0360608b01511660a08301526154eb60c083018a60020b9052565b6154fa60e083018960020b9052565b61550a61010083018860020b9052565b61551a61012083018760020b9052565b6001600160801b03851661014083015261553a61016083018560020b9052565b6001600160a01b0383166101808301529b9a5050505050505050505050565b6000806040838503121561556c57600080fd5b825161557781614f9f565b6020939093015192949293505050565b60006001600160801b038083168185168083038211156155a9576155a961546e565b01949350505050565b60006001600160801b03838116908316818110156155d2576155d261546e565b039392505050565b84815283602082015260606040820152816060820152818360808301376000818301608090810191909152601f909201601f191601019392505050565b6000828210156156295761562961546e565b500390565b80518015158114613e2e57600080fd5b6000806040838503121561565157600080fd5b61565a8361562e565b9150602083015161538d81615109565b60008160001904831182151516156156845761568461546e565b500290565b634e487b7160e01b600052601260045260246000fd5b6000826156ae576156ae615689565b500490565b60008160020b627fffff198114156156cd576156cd61546e565b60000392915050565b60006001600160a01b03838116908316818110156155d2576155d261546e565b634e487b7160e01b600052603260045260246000fd5b600081600f0b7fffffffffffffffffffffffffffffffff800000000000000000000000000000008114156156cd576156cd61546e565b60006020828403121561575457600080fd5b8151613e6a81615109565b6040815260006157726040830185615276565b82810360208481019190915284518083528582019282019060005b818110156157a95784518352938301939183019160010161578d565b5090979650505050505050565b805162ffffff81168114613e2e57600080fd5b600080600080600060a086880312156157e157600080fd5b85516157ec81615109565b60208701519095506157fd81615109565b604087015190945061580e81615109565b925061581c606087016157b6565b915061582a608087016157b6565b90509295509295909350565b60008260020b8061584957615849615689565b808360020b0791505092915050565b60008160020b8360020b8061586f5761586f615689565b6000198114627fffff19831416156158895761588961546e565b90059392505050565b60007f80000000000000000000000000000000000000000000000000000000000000008214156158c4576158c461546e565b5060000390565b60005b838110156158e65781810151838201526020016158ce565b83811115613a0d5750506000910152565b600082516159098184602087016158cb565b9190910192915050565b60006020828403121561592557600080fd5b5051919050565b600062ffffff8083168185168183048111821515161561594e5761594e61546e565b02949350505050565b600062ffffff8084168061596d5761596d615689565b92169190910492915050565b60006001600160801b038084168061596d5761596d615689565b6000602082840312156159a557600080fd5b613e6a8261562e565b60208152600082518060208401526159cd8160408501602087016158cb565b601f01601f1916919091016040019291505056fea26469706673582212203a802430cb71e1c42ac1d56028608c54ecc93851cf4518b9e9f226c6e06edd5b64736f6c63430008090033",
  "libraries": {
    "RewardTicks": "0xaCc9af149D4E4B75304eb865B3120aF152B3652C"
  }
}