{
  "address": "0x85D15e1653ce74A9FEd04CE6e70F89371112DB66",
  "abi": [
    {
      "inputs": [],
      "name": "InvalidPool",
      "type": "error"
    },
    {
      "inputs": [],
      "name": "NotAllowed",
      "type": "error"
    },
    {
      "inputs": [],
      "name": "NotNativePool",
      "type": "error"
    },
    {
      "inputs": [],
      "name": "PoolMisMatch",
      "type": "error"
    },
    {
      "inputs": [],
      "name": "RangeMisMatch",
      "type": "error"
    },
    {
      "inputs": [],
      "name": "TickOutOfBounds",
      "type": "error"
    },
    {
      "inputs": [],
      "name": "TooLittleReceived",
      "type": "error"
    },
    {
      "inputs": [],
      "name": "UnAuthorizedCallback",
      "type": "error"
    },
    {
      "anonymous": false,
      "inputs": [
        {
          "indexed": true,
          "internalType": "address",
          "name": "owner",
          "type": "address"
        },
        {
          "indexed": true,
          "internalType": "address",
          "name": "approved",
          "type": "address"
        },
        {
          "indexed": true,
          "internalType": "uint256",
          "name": "tokenId",
          "type": "uint256"
        }
      ],
      "name": "Approval",
      "type": "event"
    },
    {
      "anonymous": false,
      "inputs": [
        {
          "indexed": true,
          "internalType": "address",
          "name": "owner",
          "type": "address"
        },
        {
          "indexed": true,
          "internalType": "address",
          "name": "operator",
          "type": "address"
        },
        {
          "indexed": false,
          "internalType": "bool",
          "name": "approved",
          "type": "bool"
        }
      ],
      "name": "ApprovalForAll",
      "type": "event"
    },
    {
      "anonymous": false,
      "inputs": [
        {
          "indexed": true,
          "internalType": "address",
          "name": "pool",
          "type": "address"
        },
        {
          "indexed": true,
          "internalType": "address",
          "name": "recipient",
          "type": "address"
        },
        {
          "indexed": true,
          "internalType": "uint256",
          "name": "positionId",
          "type": "uint256"
        },
        {
          "indexed": false,
          "internalType": "uint256",
          "name": "amount0",
          "type": "uint256"
        },
        {
          "indexed": false,
          "internalType": "uint256",
          "name": "amount1",
          "type": "uint256"
        }
      ],
      "name": "CollectFee",
      "type": "event"
    },
    {
      "anonymous": false,
      "inputs": [
        {
          "indexed": true,
          "internalType": "address",
          "name": "pool",
          "type": "address"
        },
        {
          "indexed": true,
          "internalType": "address",
          "name": "recipient",
          "type": "address"
        },
        {
          "indexed": true,
          "internalType": "uint256",
          "name": "positionId",
          "type": "uint256"
        },
        {
          "indexed": false,
          "internalType": "uint256",
          "name": "amount",
          "type": "uint256"
        }
      ],
      "name": "CollectReward",
      "type": "event"
    },
    {
      "anonymous": false,
      "inputs": [
        {
          "indexed": true,
          "internalType": "address",
          "name": "pool",
          "type": "address"
        },
        {
          "indexed": true,
          "internalType": "address",
          "name": "owner",
          "type": "address"
        },
        {
          "indexed": true,
          "internalType": "uint256",
          "name": "positionId",
          "type": "uint256"
        },
        {
          "indexed": false,
          "internalType": "uint256",
          "name": "amount0",
          "type": "uint256"
        },
        {
          "indexed": false,
          "internalType": "uint256",
          "name": "amount1",
          "type": "uint256"
        },
        {
          "indexed": false,
          "internalType": "uint128",
          "name": "liquidity",
          "type": "uint128"
        }
      ],
      "name": "DecreaseLiquidity",
      "type": "event"
    },
    {
      "anonymous": false,
      "inputs": [
        {
          "indexed": true,
          "internalType": "address",
          "name": "pool",
          "type": "address"
        },
        {
          "indexed": true,
          "internalType": "address",
          "name": "owner",
          "type": "address"
        },
        {
          "indexed": true,
          "internalType": "uint256",
          "name": "positionId",
          "type": "uint256"
        },
        {
          "indexed": false,
          "internalType": "uint256",
          "name": "amount0",
          "type": "uint256"
        },
        {
          "indexed": false,
          "internalType": "uint256",
          "name": "amount1",
          "type": "uint256"
        },
        {
          "indexed": false,
          "internalType": "uint128",
          "name": "liquidity",
          "type": "uint128"
        }
      ],
      "name": "IncreaseLiquidity",
      "type": "event"
    },
    {
      "anonymous": false,
      "inputs": [
        {
          "indexed": true,
          "internalType": "address",
          "name": "from",
          "type": "address"
        },
        {
          "indexed": true,
          "internalType": "address",
          "name": "to",
          "type": "address"
        },
        {
          "indexed": true,
          "internalType": "uint256",
          "name": "tokenId",
          "type": "uint256"
        }
      ],
      "name": "Transfer",
      "type": "event"
    },
    {
      "inputs": [],
      "name": "DOMAIN_SEPARATOR",
      "outputs": [
        {
          "internalType": "bytes32",
          "name": "domainSeperator",
          "type": "bytes32"
        }
      ],
      "stateMutability": "view",
      "type": "function"
    },
    {
      "inputs": [],
      "name": "PERMIT_ALL_TYPEHASH",
      "outputs": [
        {
          "internalType": "bytes32",
          "name": "",
          "type": "bytes32"
        }
      ],
      "stateMutability": "view",
      "type": "function"
    },
    {
      "inputs": [],
      "name": "PERMIT_TYPEHASH",
      "outputs": [
        {
          "internalType": "bytes32",
          "name": "",
          "type": "bytes32"
        }
      ],
      "stateMutability": "view",
      "type": "function"
    },
    {
      "inputs": [
        {
          "internalType": "address",
          "name": "to",
          "type": "address"
        },
        {
          "internalType": "uint256",
          "name": "tokenId",
          "type": "uint256"
        }
      ],
      "name": "approve",
      "outputs": [],
      "stateMutability": "nonpayable",
      "type": "function"
    },
    {
      "inputs": [
        {
          "internalType": "address",
          "name": "owner",
          "type": "address"
        }
      ],
      "name": "balanceOf",
      "outputs": [
        {
          "internalType": "uint256",
          "name": "",
          "type": "uint256"
        }
      ],
      "stateMutability": "view",
      "type": "function"
    },
    {
      "inputs": [
        {
          "internalType": "uint256",
          "name": "positionId",
          "type": "uint256"
        },
        {
          "internalType": "uint128",
          "name": "amount",
          "type": "uint128"
        },
        {
          "internalType": "address",
          "name": "recipient",
          "type": "address"
        },
        {
          "internalType": "uint256",
          "name": "minimumOut0",
          "type": "uint256"
        },
        {
          "internalType": "uint256",
          "name": "minimumOut1",
          "type": "uint256"
        },
        {
          "internalType": "bool",
          "name": "unwrap",
          "type": "bool"
        }
      ],
      "name": "burn",
      "outputs": [
        {
          "internalType": "uint256",
          "name": "token0Amount",
          "type": "uint256"
        },
        {
          "internalType": "uint256",
          "name": "token1Amount",
          "type": "uint256"
        }
      ],
      "stateMutability": "nonpayable",
      "type": "function"
    },
    {
      "inputs": [
        {
          "internalType": "uint256",
          "name": "positionId",
          "type": "uint256"
        },
        {
          "internalType": "address",
          "name": "recipient",
          "type": "address"
        },
        {
          "internalType": "bool",
          "name": "unwrap",
          "type": "bool"
        }
      ],
      "name": "collect",
      "outputs": [
        {
          "internalType": "uint256",
          "name": "token0Amount",
          "type": "uint256"
        },
        {
          "internalType": "uint256",
          "name": "token1Amount",
          "type": "uint256"
        }
      ],
      "stateMutability": "nonpayable",
      "type": "function"
    },
    {
      "inputs": [
        {
          "internalType": "uint256",
          "name": "positionId",
          "type": "uint256"
        },
        {
          "internalType": "address",
          "name": "recipient",
          "type": "address"
        },
        {
          "internalType": "bool",
          "name": "unwrap",
          "type": "bool"
        }
      ],
      "name": "collectReward",
      "outputs": [
        {
          "internalType": "uint256",
          "name": "rewardAmount",
          "type": "uint256"
        }
      ],
      "stateMutability": "nonpayable",
      "type": "function"
    },
    {
      "inputs": [
        {
          "internalType": "uint256",
          "name": "tokenId",
          "type": "uint256"
        }
      ],
      "name": "exists",
      "outputs": [
        {
          "internalType": "bool",
          "name": "",
          "type": "bool"
        }
      ],
      "stateMutability": "view",
      "type": "function"
    },
    {
      "inputs": [
        {
          "internalType": "uint256",
          "name": "tokenId",
          "type": "uint256"
        }
      ],
      "name": "getApproved",
      "outputs": [
        {
          "internalType": "address",
          "name": "",
          "type": "address"
        }
      ],
      "stateMutability": "view",
      "type": "function"
    },
    {
      "inputs": [
        {
          "internalType": "address",
          "name": "_masterDeployer",
          "type": "address"
        },
        {
          "internalType": "address",
          "name": "_wETH",
          "type": "address"
        }
      ],
      "name": "initialize",
      "outputs": [],
      "stateMutability": "nonpayable",
      "type": "function"
    },
    {
      "inputs": [
        {
          "internalType": "address",
          "name": "owner",
          "type": "address"
        },
        {
          "internalType": "address",
          "name": "operator",
          "type": "address"
        }
      ],
      "name": "isApprovedForAll",
      "outputs": [
        {
          "internalType": "bool",
          "name": "",
          "type": "bool"
        }
      ],
      "stateMutability": "view",
      "type": "function"
    },
    {
      "inputs": [],
      "name": "masterDeployer",
      "outputs": [
        {
          "internalType": "contract IMasterDeployer",
          "name": "",
          "type": "address"
        }
      ],
      "stateMutability": "view",
      "type": "function"
    },
    {
      "inputs": [
        {
          "internalType": "address",
          "name": "pool",
          "type": "address"
        },
        {
          "internalType": "int24",
          "name": "lowerOld",
          "type": "int24"
        },
        {
          "internalType": "int24",
          "name": "lower",
          "type": "int24"
        },
        {
          "internalType": "int24",
          "name": "upperOld",
          "type": "int24"
        },
        {
          "internalType": "int24",
          "name": "upper",
          "type": "int24"
        },
        {
          "internalType": "uint128",
          "name": "amount0Desired",
          "type": "uint128"
        },
        {
          "internalType": "uint128",
          "name": "amount1Desired",
          "type": "uint128"
        },
        {
          "internalType": "uint256",
          "name": "minLiquidity",
          "type": "uint256"
        },
        {
          "internalType": "uint256",
          "name": "positionId",
          "type": "uint256"
        }
      ],
      "name": "mint",
      "outputs": [
        {
          "internalType": "uint256",
          "name": "_positionId",
          "type": "uint256"
        }
      ],
      "stateMutability": "nonpayable",
      "type": "function"
    },
    {
      "inputs": [
        {
          "internalType": "address",
          "name": "token0",
          "type": "address"
        },
        {
          "internalType": "address",
          "name": "token1",
          "type": "address"
        },
        {
          "internalType": "uint256",
          "name": "amount0",
          "type": "uint256"
        },
        {
          "internalType": "uint256",
          "name": "amount1",
          "type": "uint256"
        }
      ],
      "name": "mintCallback",
      "outputs": [],
      "stateMutability": "nonpayable",
      "type": "function"
    },
    {
      "inputs": [
        {
          "internalType": "address",
          "name": "pool",
          "type": "address"
        },
        {
          "internalType": "int24",
          "name": "lowerOld",
          "type": "int24"
        },
        {
          "internalType": "int24",
          "name": "lower",
          "type": "int24"
        },
        {
          "internalType": "int24",
          "name": "upperOld",
          "type": "int24"
        },
        {
          "internalType": "int24",
          "name": "upper",
          "type": "int24"
        },
        {
          "internalType": "uint128",
          "name": "amountDesired",
          "type": "uint128"
        },
        {
          "internalType": "uint256",
          "name": "minLiquidity",
          "type": "uint256"
        },
        {
          "internalType": "uint256",
          "name": "positionId",
          "type": "uint256"
        }
      ],
      "name": "mintNative",
      "outputs": [
        {
          "internalType": "uint256",
          "name": "_positionId",
          "type": "uint256"
        }
      ],
      "stateMutability": "payable",
      "type": "function"
    },
    {
      "inputs": [
        {
          "internalType": "bytes[]",
          "name": "data",
          "type": "bytes[]"
        }
      ],
      "name": "multicall",
      "outputs": [
        {
          "internalType": "bytes[]",
          "name": "results",
          "type": "bytes[]"
        }
      ],
      "stateMutability": "payable",
      "type": "function"
    },
    {
      "inputs": [],
      "name": "name",
      "outputs": [
        {
          "internalType": "string",
          "name": "",
          "type": "string"
        }
      ],
      "stateMutability": "view",
      "type": "function"
    },
    {
      "inputs": [],
      "name": "nftCount",
      "outputs": [
        {
          "internalType": "uint128",
          "name": "minted",
          "type": "uint128"
        },
        {
          "internalType": "uint128",
          "name": "burned",
          "type": "uint128"
        }
      ],
      "stateMutability": "view",
      "type": "function"
    },
    {
      "inputs": [
        {
          "internalType": "uint256",
          "name": "",
          "type": "uint256"
        }
      ],
      "name": "nonces",
      "outputs": [
        {
          "internalType": "uint256",
          "name": "",
          "type": "uint256"
        }
      ],
      "stateMutability": "view",
      "type": "function"
    },
    {
      "inputs": [
        {
          "internalType": "address",
          "name": "",
          "type": "address"
        }
      ],
      "name": "noncesForAll",
      "outputs": [
        {
          "internalType": "uint256",
          "name": "",
          "type": "uint256"
        }
      ],
      "stateMutability": "view",
      "type": "function"
    },
    {
      "inputs": [
        {
          "internalType": "uint256",
          "name": "tokenId",
          "type": "uint256"
        }
      ],
      "name": "ownerOf",
      "outputs": [
        {
          "internalType": "address",
          "name": "",
          "type": "address"
        }
      ],
      "stateMutability": "view",
      "type": "function"
    },
    {
      "inputs": [
        {
          "internalType": "address",
          "name": "spender",
          "type": "address"
        },
        {
          "internalType": "uint256",
          "name": "tokenId",
          "type": "uint256"
        },
        {
          "internalType": "uint256",
          "name": "deadline",
          "type": "uint256"
        },
        {
          "internalType": "uint8",
          "name": "v",
          "type": "uint8"
        },
        {
          "internalType": "bytes32",
          "name": "r",
          "type": "bytes32"
        },
        {
          "internalType": "bytes32",
          "name": "s",
          "type": "bytes32"
        }
      ],
      "name": "permit",
      "outputs": [],
      "stateMutability": "nonpayable",
      "type": "function"
    },
    {
      "inputs": [
        {
          "internalType": "address",
          "name": "owner",
          "type": "address"
        },
        {
          "internalType": "address",
          "name": "operator",
          "type": "address"
        },
        {
          "internalType": "uint256",
          "name": "deadline",
          "type": "uint256"
        },
        {
          "internalType": "uint8",
          "name": "v",
          "type": "uint8"
        },
        {
          "internalType": "bytes32",
          "name": "r",
          "type": "bytes32"
        },
        {
          "internalType": "bytes32",
          "name": "s",
          "type": "bytes32"
        }
      ],
      "name": "permitAll",
      "outputs": [],
      "stateMutability": "nonpayable",
      "type": "function"
    },
    {
      "inputs": [
        {
          "internalType": "uint256",
          "name": "positionId",
          "type": "uint256"
        }
      ],
      "name": "positionFees",
      "outputs": [
        {
          "internalType": "uint256",
          "name": "token0amount",
          "type": "uint256"
        },
        {
          "internalType": "uint256",
          "name": "token1amount",
          "type": "uint256"
        },
        {
          "internalType": "uint256",
          "name": "feeGrowthInside0",
          "type": "uint256"
        },
        {
          "internalType": "uint256",
          "name": "feeGrowthInside1",
          "type": "uint256"
        }
      ],
      "stateMutability": "view",
      "type": "function"
    },
    {
      "inputs": [
        {
          "internalType": "uint256",
          "name": "positionId",
          "type": "uint256"
        }
      ],
      "name": "positionRewardAmount",
      "outputs": [
        {
          "internalType": "uint256",
          "name": "rewardAmount",
          "type": "uint256"
        },
        {
          "internalType": "uint256",
          "name": "rewardGrowthInside",
          "type": "uint256"
        }
      ],
      "stateMutability": "view",
      "type": "function"
    },
    {
      "inputs": [
        {
          "internalType": "uint256",
          "name": "",
          "type": "uint256"
        }
      ],
      "name": "positionRewards",
      "outputs": [
        {
          "internalType": "uint256",
          "name": "rewardGrowthInside",
          "type": "uint256"
        },
        {
          "internalType": "uint256",
          "name": "rewardOwed",
          "type": "uint256"
        }
      ],
      "stateMutability": "view",
      "type": "function"
    },
    {
      "inputs": [
        {
          "internalType": "uint256",
          "name": "",
          "type": "uint256"
        }
      ],
      "name": "positions",
      "outputs": [
        {
          "internalType": "address",
          "name": "pool",
          "type": "address"
        },
        {
          "internalType": "uint128",
          "name": "liquidity",
          "type": "uint128"
        },
        {
          "internalType": "int24",
          "name": "lower",
          "type": "int24"
        },
        {
          "internalType": "int24",
          "name": "upper",
          "type": "int24"
        },
        {
          "internalType": "uint32",
          "name": "latestAddition",
          "type": "uint32"
        },
        {
          "internalType": "uint256",
          "name": "feeGrowthInside0",
          "type": "uint256"
        },
        {
          "internalType": "uint256",
          "name": "feeGrowthInside1",
          "type": "uint256"
        },
        {
          "internalType": "uint256",
          "name": "feeOwed0",
          "type": "uint256"
        },
        {
          "internalType": "uint256",
          "name": "feeOwed1",
          "type": "uint256"
        }
      ],
      "stateMutability": "view",
      "type": "function"
    },
    {
      "inputs": [
        {
          "internalType": "address",
          "name": "from",
          "type": "address"
        },
        {
          "internalType": "address",
          "name": "to",
          "type": "address"
        },
        {
          "internalType": "uint256",
          "name": "tokenId",
          "type": "uint256"
        }
      ],
      "name": "safeTransferFrom",
      "outputs": [],
      "stateMutability": "nonpayable",
      "type": "function"
    },
    {
      "inputs": [
        {
          "internalType": "address",
          "name": "from",
          "type": "address"
        },
        {
          "internalType": "address",
          "name": "to",
          "type": "address"
        },
        {
          "internalType": "uint256",
          "name": "tokenId",
          "type": "uint256"
        },
        {
          "internalType": "bytes",
          "name": "_data",
          "type": "bytes"
        }
      ],
      "name": "safeTransferFrom",
      "outputs": [],
      "stateMutability": "nonpayable",
      "type": "function"
    },
    {
      "inputs": [
        {
          "internalType": "address",
          "name": "operator",
          "type": "address"
        },
        {
          "internalType": "bool",
          "name": "approved",
          "type": "bool"
        }
      ],
      "name": "setApprovalForAll",
      "outputs": [],
      "stateMutability": "nonpayable",
      "type": "function"
    },
    {
      "inputs": [
        {
          "internalType": "address",
          "name": "_descriptor",
          "type": "address"
        }
      ],
      "name": "setDescriptor",
      "outputs": [],
      "stateMutability": "nonpayable",
      "type": "function"
    },
    {
      "inputs": [
        {
          "internalType": "bytes4",
          "name": "interfaceId",
          "type": "bytes4"
        }
      ],
      "name": "supportsInterface",
      "outputs": [
        {
          "internalType": "bool",
          "name": "",
          "type": "bool"
        }
      ],
      "stateMutability": "view",
      "type": "function"
    },
    {
      "inputs": [],
      "name": "symbol",
      "outputs": [
        {
          "internalType": "string",
          "name": "",
          "type": "string"
        }
      ],
      "stateMutability": "view",
      "type": "function"
    },
    {
      "inputs": [
        {
          "internalType": "uint256",
          "name": "index",
          "type": "uint256"
        }
      ],
      "name": "tokenByIndex",
      "outputs": [
        {
          "internalType": "uint256",
          "name": "",
          "type": "uint256"
        }
      ],
      "stateMutability": "view",
      "type": "function"
    },
    {
      "inputs": [
        {
          "internalType": "address",
          "name": "owner",
          "type": "address"
        },
        {
          "internalType": "uint256",
          "name": "index",
          "type": "uint256"
        }
      ],
      "name": "tokenOfOwnerByIndex",
      "outputs": [
        {
          "internalType": "uint256",
          "name": "",
          "type": "uint256"
        }
      ],
      "stateMutability": "view",
      "type": "function"
    },
    {
      "inputs": [
        {
          "internalType": "uint256",
          "name": "tokenId",
          "type": "uint256"
        }
      ],
      "name": "tokenURI",
      "outputs": [
        {
          "internalType": "string",
          "name": "",
          "type": "string"
        }
      ],
      "stateMutability": "view",
      "type": "function"
    },
    {
      "inputs": [],
      "name": "totalSupply",
      "outputs": [
        {
          "internalType": "uint256",
          "name": "",
          "type": "uint256"
        }
      ],
      "stateMutability": "view",
      "type": "function"
    },
    {
      "inputs": [
        {
          "internalType": "address",
          "name": "from",
          "type": "address"
        },
        {
          "internalType": "address",
          "name": "to",
          "type": "address"
        },
        {
          "internalType": "uint256",
          "name": "tokenId",
          "type": "uint256"
        }
      ],
      "name": "transferFrom",
      "outputs": [],
      "stateMutability": "nonpayable",
      "type": "function"
    }
  ],
  "transactionHash": "0x6502ff91362453381228050c1f9fb386c2cd3e9c352bc9ef2e3f8dcf45958f99",
  "args": [],
  "numDeployments": 4,
  "solcInputHash": "cb7d22423f65f6e496a9ce45dcdea130",
  "bytecode": "0x6080604052610101805460016001600160a01b0319918216811790925561010280549091169091179055600061010381905561010455610105805460ff1916905534801561004c57600080fd5b506159c0806200005d6000396000f3fe6080604052600436106102a05760003560e01c80636352211e1161016e578063aba07847116100cb578063c87b56dd1161007f578063d53cfc0611610064578063d53cfc0614610899578063e985e9c5146108b9578063ed7bba9a1461090257600080fd5b8063c87b56dd14610858578063cf58879a1461087857600080fd5b8063b4e13c8d116100b0578063b4e13c8d146107e4578063b70d2ea614610818578063b88d4fde1461083857600080fd5b8063aba07847146107a4578063ac9650d8146107c457600080fd5b80639399cc891161012257806399fbab881161010757806399fbab8814610679578063a214fa6b14610764578063a22cb4651461078457600080fd5b80639399cc891461064457806395d89b411461066457600080fd5b80637ac2ff7b116101535780637ac2ff7b146105d75780638c6ab013146105f7578063904dfb8e1461061757600080fd5b80636352211e1461059757806370a08231146105b757600080fd5b806323b872dd1161021c57806342842e0e116101d05780634f558e79116101b55780634f558e79146105375780634f6ccce7146105575780635f16529a1461057757600080fd5b806342842e0e146104f7578063485cc9551461051757600080fd5b806330adf81f1161020157806330adf81f1461046457806335c62e33146104985780633644e515146104e257600080fd5b806323b872dd146104245780632f745c591461044457600080fd5b8063095ea7b311610273578063141a468c11610258578063141a468c146103c157806318160ddd146103fc5780631816ec771461041157600080fd5b8063095ea7b3146103565780630af2c6ca1461037657600080fd5b806301b9a397146102a557806301ffc9a7146102c757806306fdde03146102fc578063081812fc1461031e575b600080fd5b3480156102b157600080fd5b506102c56102c0366004614f21565b610942565b005b3480156102d357600080fd5b506102e76102e2366004614f54565b61098f565b60405190151581526020015b60405180910390f35b34801561030857600080fd5b506103116109d3565b6040516102f39190614fc9565b34801561032a57600080fd5b5061033e610339366004614fdc565b610a65565b6040516001600160a01b0390911681526020016102f3565b34801561036257600080fd5b506102c5610371366004614ff5565b610b10565b34801561038257600080fd5b5060cc546103a1906001600160801b0380821691600160801b90041682565b604080516001600160801b039384168152929091166020830152016102f3565b3480156103cd57600080fd5b506103ee6103dc366004614fdc565b60cd6020526000908152604090205481565b6040519081526020016102f3565b34801561040857600080fd5b506103ee610c42565b6103ee61041f366004615047565b610c72565b34801561043057600080fd5b506102c561043f3660046150da565b610fb0565b34801561045057600080fd5b506103ee61045f366004614ff5565b611037565b34801561047057600080fd5b506103ee7f49ecf333e5b8c95c40fdafc95c1ad136e8914a8fb55e9dc8bb01eaa83a2df9ad81565b3480156104a457600080fd5b506104cd6104b3366004614fdc565b610108602052600090815260409020805460019091015482565b604080519283526020830191909152016102f3565b3480156104ee57600080fd5b506103ee6110df565b34801561050357600080fd5b506102c56105123660046150da565b6111c3565b34801561052357600080fd5b506102c561053236600461511b565b6111de565b34801561054357600080fd5b506102e7610552366004614fdc565b611321565b34801561056357600080fd5b506103ee610572366004614fdc565b611340565b34801561058357600080fd5b506102c5610592366004615154565b6113e4565b3480156105a357600080fd5b5061033e6105b2366004614fdc565b61155b565b3480156105c357600080fd5b506103ee6105d2366004614f21565b6115e6565b3480156105e357600080fd5b506102c56105f23660046151ab565b611680565b34801561060357600080fd5b506104cd610612366004615213565b6118fd565b34801561062357600080fd5b506103ee610632366004614f21565b60ce6020526000908152604090205481565b34801561065057600080fd5b506103ee61065f366004615213565b6119a4565b34801561067057600080fd5b50610311611a46565b34801561068557600080fd5b50610700610694366004614fdc565b61010760205260009081526040902080546001820154600280840154600385015460048601546005909601546001600160a01b03909516956001600160801b03851695600160801b8604850b95600160981b810490950b94600160b01b900463ffffffff169392919089565b604080516001600160a01b03909a168a526001600160801b0390981660208a0152600296870b978901979097529390940b606087015263ffffffff909116608086015260a085015260c084019190915260e0830152610100820152610120016102f3565b34801561077057600080fd5b506104cd61077f366004615255565b611a55565b34801561079057600080fd5b506102c561079f3660046152ba565b611e71565b3480156107b057600080fd5b506102c56107bf3660046152e8565b611e80565b6107d76107d2366004615331565b6120b2565b6040516102f391906153a6565b3480156107f057600080fd5b506103ee7fdaab21af31ece73a508939fedd476a5ee5129a5ed4bb091f3236ffb45394df6281565b34801561082457600080fd5b506103ee610833366004615408565b61220a565b34801561084457600080fd5b506102c561085336600461551b565b61236e565b34801561086457600080fd5b50610311610873366004614fdc565b6123f6565b34801561088457600080fd5b506101065461033e906001600160a01b031681565b3480156108a557600080fd5b506104cd6108b4366004614fdc565b612490565b3480156108c557600080fd5b506102e76108d436600461511b565b6001600160a01b039182166000908152606a6020908152604080832093909416825291909152205460ff1690565b34801561090e57600080fd5b5061092261091d366004614fdc565b61261e565b6040805194855260208501939093529183015260608201526080016102f3565b60cb546001600160a01b0316331461096d57604051631eb49d6d60e11b815260040160405180910390fd5b60cb80546001600160a01b0319166001600160a01b0392909216919091179055565b60006001600160e01b031982167f780e9d630000000000000000000000000000000000000000000000000000000014806109cd57506109cd8261279a565b92915050565b6060606580546109e2906155ca565b80601f0160208091040260200160405190810160405280929190818152602001828054610a0e906155ca565b8015610a5b5780601f10610a3057610100808354040283529160200191610a5b565b820191906000526020600020905b815481529060010190602001808311610a3e57829003601f168201915b5050505050905090565b6000818152606760205260408120546001600160a01b0316610af45760405162461bcd60e51b815260206004820152602c60248201527f4552433732313a20617070726f76656420717565727920666f72206e6f6e657860448201527f697374656e7420746f6b656e000000000000000000000000000000000000000060648201526084015b60405180910390fd5b506000908152606960205260409020546001600160a01b031690565b6000610b1b8261155b565b9050806001600160a01b0316836001600160a01b03161415610ba55760405162461bcd60e51b815260206004820152602160248201527f4552433732313a20617070726f76616c20746f2063757272656e74206f776e6560448201527f72000000000000000000000000000000000000000000000000000000000000006064820152608401610aeb565b336001600160a01b0382161480610bc15750610bc181336108d4565b610c335760405162461bcd60e51b815260206004820152603860248201527f4552433732313a20617070726f76652063616c6c6572206973206e6f74206f7760448201527f6e6572206e6f7220617070726f76656420666f7220616c6c00000000000000006064820152608401610aeb565b610c3d8383612835565b505050565b60cc54600090610c64906001600160801b03600160801b82048116911661561b565b6001600160801b0316905090565b6000600260cf541415610cc75760405162461bcd60e51b815260206004820152601f60248201527f5265656e7472616e637947756172643a207265656e7472616e742063616c6c006044820152606401610aeb565b600260cf55610106546040516329018f6f60e21b81526001600160a01b03808c1660048301528b92169063a4063dbc9060240160206040518083038186803b158015610d1257600080fd5b505afa158015610d26573d6000803e3d6000fd5b505050506040513d601f19601f82011682018060405250810190610d4a9190615643565b610d665760405162820f3560e61b815260040160405180910390fd5b60008a905061010560019054906101000a90046001600160a01b03166001600160a01b0316816001600160a01b0316630dfe16816040518163ffffffff1660e01b815260040160206040518083038186803b158015610dc457600080fd5b505afa158015610dd8573d6000803e3d6000fd5b505050506040513d601f19601f82011682018060405250810190610dfc9190615660565b6001600160a01b03161415610e70576101018054336001600160a01b03199182161790915561010280549091166001600160a01b038d1617905534610103556001600160801b03861661010455610105805460ff19166001179055610e68818b8b8b8b348c8c8c6128a3565b925050610f9e565b61010560019054906101000a90046001600160a01b03166001600160a01b0316816001600160a01b031663d21220a76040518163ffffffff1660e01b815260040160206040518083038186803b158015610ec957600080fd5b505afa158015610edd573d6000803e3d6000fd5b505050506040513d601f19601f82011682018060405250810190610f019190615660565b6001600160a01b031614610f41576040517f425c65bb00000000000000000000000000000000000000000000000000000000815260040160405180910390fd5b6101018054336001600160a01b03199182161790915561010280549091166001600160a01b038d161790556001600160801b038616610103553461010455610105805460ff19166001179055610e68818b8b8b8b8b348c8c6128a3565b50600160cf5598975050505050505050565b610fba33826130e0565b61102c5760405162461bcd60e51b815260206004820152603160248201527f4552433732313a207472616e736665722063616c6c6572206973206e6f74206f60448201527f776e6572206e6f7220617070726f7665640000000000000000000000000000006064820152608401610aeb565b610c3d8383836131e8565b6000611042836115e6565b82106110b65760405162461bcd60e51b815260206004820152602b60248201527f455243373231456e756d657261626c653a206f776e657220696e646578206f7560448201527f74206f6620626f756e64730000000000000000000000000000000000000000006064820152608401610aeb565b506001600160a01b03919091166000908152609760209081526040808320938352929052205490565b600060ca5446146111bc5750604080518082018252600a81526950414e4745412d504f5360b01b6020918201528151808301835260018152603160f81b9082015281517f8b73c3c69bb8fe3d512ecc4cf759cc79239f7b179b0ffacaa9a75d522b39400f818301527f16d34b8f23ef02572737473f7ba87ffe21ee45c6bbade7dae4039edd04580f63818401527fc89efdaa54c0f20c7adf612882df0950f5a951637e0307cdcb4c672f298b8bc660608201524660808201523060a0808301919091528351808303909101815260c0909101909252815191012090565b5060c95490565b610c3d8383836040518060200160405280600081525061236e565b600054610100900460ff166111f95760005460ff16156111fd565b303b155b61126f5760405162461bcd60e51b815260206004820152602e60248201527f496e697469616c697a61626c653a20636f6e747261637420697320616c72656160448201527f647920696e697469616c697a65640000000000000000000000000000000000006064820152608401610aeb565b600054610100900460ff16158015611291576000805461ffff19166101011790555b6112996133c0565b6112a1613506565b61010680546001600160a01b038086166001600160a01b03199283161790925560cb8054909116331790556101058054918416610100027fffffffffffffffffffffff0000000000000000000000000000000000000000ff90921691909117905561130b30613579565b8015610c3d576000805461ff0019169055505050565b6000818152606760205260408120546001600160a01b031615156109cd565b600061134b60995490565b82106113bf5760405162461bcd60e51b815260206004820152602c60248201527f455243373231456e756d657261626c653a20676c6f62616c20696e646578206f60448201527f7574206f6620626f756e647300000000000000000000000000000000000000006064820152608401610aeb565b609982815481106113d2576113d261567d565b90600052602060002001549050919050565b610102546001600160a01b03163314611429576040517f2ddb0d4000000000000000000000000000000000000000000000000000000000815260040160405180910390fd5b6101055460ff16801561144f5750610105546001600160a01b0385811661010090920416145b156114895761145e33836135cd565b6101015461010354611484916001600160a01b03169061147f908590615693565b613652565b6114a3565b610101546114a39085906001600160a01b031633856136f5565b6101055460ff1680156114c95750610105546001600160a01b0384811661010090920416145b156114fe576114d833826135cd565b61010154610104546114f9916001600160a01b03169061147f908490615693565b611518565b610101546115189084906001600160a01b031633846136f5565b610101805460016001600160a01b0319918216811790925561010280549091169091179055600061010381905561010455610105805460ff191690555b50505050565b6000818152606760205260408120546001600160a01b0316806109cd5760405162461bcd60e51b815260206004820152602960248201527f4552433732313a206f776e657220717565727920666f72206e6f6e657869737460448201527f656e7420746f6b656e00000000000000000000000000000000000000000000006064820152608401610aeb565b60006001600160a01b0382166116645760405162461bcd60e51b815260206004820152602a60248201527f4552433732313a2062616c616e636520717565727920666f7220746865207a6560448201527f726f2061646472657373000000000000000000000000000000000000000000006064820152608401610aeb565b506001600160a01b031660009081526068602052604090205490565b428410156116d05760405162461bcd60e51b815260206004820152601760248201527f5045524d49545f444541444c494e455f455850495245440000000000000000006044820152606401610aeb565b60006116db8661155b565b905060006116e76110df565b600088815260cd602090815260409182902080546001810190915582517f49ecf333e5b8c95c40fdafc95c1ad136e8914a8fb55e9dc8bb01eaa83a2df9ad818401526001600160a01b038d1681850152606081018c9052608081019190915260a08082018b90528351808303909101815260c082019093528251929091019190912061190160f01b60e083015260e28201929092526101028101919091526101220160408051601f198184030181528282528051602091820120600080855291840180845281905260ff89169284019290925260608301879052608083018690529092509060019060a0016020604051602081039080840390855afa1580156117f4573d6000803e3d6000fd5b5050604051601f1901519150506001600160a01b0381166118575760405162461bcd60e51b815260206004820152601860248201527f494e56414c49445f5045524d49545f5349474e415455524500000000000000006044820152606401610aeb565b826001600160a01b0316816001600160a01b0316148061189c57506001600160a01b038084166000908152606a602090815260408083209385168352929052205460ff165b6118e85760405162461bcd60e51b815260206004820152600e60248201527f494e56414c49445f5349474e45520000000000000000000000000000000000006044820152606401610aeb565b50506118f48787612835565b50505050505050565b600080600260cf5414156119535760405162461bcd60e51b815260206004820152601f60248201527f5265656e7472616e637947756172643a207265656e7472616e742063616c6c006044820152606401610aeb565b600260cf5561196233866130e0565b61197f57604051631eb49d6d60e11b815260040160405180910390fd5b6119888561370a565b61199385858561374b565b600160cf5590969095509350505050565b6000600260cf5414156119f95760405162461bcd60e51b815260206004820152601f60248201527f5265656e7472616e637947756172643a207265656e7472616e742063616c6c006044820152606401610aeb565b600260cf55611a0833856130e0565b611a2557604051631eb49d6d60e11b815260040160405180910390fd5b611a2e846138aa565b611a398484846138d6565b600160cf55949350505050565b6060606680546109e2906155ca565b600080600260cf541415611aab5760405162461bcd60e51b815260206004820152601f60248201527f5265656e7472616e637947756172643a207265656e7472616e742063616c6c006044820152606401610aeb565b600260cf55611aba33896130e0565b611ad757604051631eb49d6d60e11b815260040160405180910390fd5b6000888152610107602090815260409182902082516101208101845281546001600160a01b0316815260018201546001600160801b03811693820193909352600160801b8304600290810b94820194909452600160981b8304840b6060820152600160b01b90920463ffffffff1660808301529182015460a0820152600382015460c0820152600482015460e0820152600590910154610100820152611b7c8961370a565b611b85896138aa565b80602001516001600160801b0316886001600160801b03161015611c9c5780516040808301516060840151915163a34123a760e01b8152600291820b600482015291900b60248201526001600160801b038a1660448201526001600160a01b039091169063a34123a7906064016040805180830381600087803b158015611c0b57600080fd5b505af1158015611c1f573d6000803e3d6000fd5b505050506040513d601f19601f82011682018060405250810190611c4391906156aa565b60008b81526101076020526040812060010180549396509194508a92611c739084906001600160801b031661561b565b92506101000a8154816001600160801b0302191690836001600160801b03160217905550611dca565b602081015181516040808401516060850151915163a34123a760e01b8152600291820b600482015291900b60248201526001600160801b03831660448201529199506001600160a01b03169063a34123a7906064016040805180830381600087803b158015611d0a57600080fd5b505af1158015611d1e573d6000803e3d6000fd5b505050506040513d601f19601f82011682018060405250810190611d4291906156aa565b9093509150611d5289888661374b565b5050611d5f8988866138d6565b50611d6989613b01565b60008981526101076020526040812080546001600160a01b03191681556001810180547fffffffffffff0000000000000000000000000000000000000000000000000000169055600281018290556003810182905560048101829055600501555b85831080611dd757508482105b15611df55760405163c9f52c7160e01b815260040160405180910390fd5b8051611e049088858588613b4f565b805160408051858152602081018590526001600160801b038b168183015290518b9233926001600160a01b03909116917f7a7cc3d6e9116c317f33888a57dd914fae984c233de0802abd7ea1f7eda6bb629181900360600190a450600160cf559097909650945050505050565b611e7c338383613cb9565b5050565b42841015611ed05760405162461bcd60e51b815260206004820152601760248201527f5045524d49545f444541444c494e455f455850495245440000000000000000006044820152606401610aeb565b6000611eda6110df565b6001600160a01b03888116600081815260ce602090815260409182902080546001810190915582517fdaab21af31ece73a508939fedd476a5ee5129a5ed4bb091f3236ffb45394df628184015280840194909452938b166060840152608083019390935260a08083018a90528151808403909101815260c08301909152805192019190912061190160f01b60e083015260e28201929092526101028101919091526101220160408051601f198184030181528282528051602091820120600080855291840180845281905260ff88169284019290925260608301869052608083018590529092509060019060a0016020604051602081039080840390855afa158015611fea573d6000803e3d6000fd5b5050604051601f1901519150506001600160a01b038116158015906120205750876001600160a01b0316816001600160a01b0316145b8061205057506001600160a01b038089166000908152606a602090815260408083209385168352929052205460ff165b61209c5760405162461bcd60e51b815260206004820152601860248201527f494e56414c49445f5045524d49545f5349474e415455524500000000000000006044820152606401610aeb565b50506120aa86866001613cb9565b505050505050565b60608167ffffffffffffffff8111156120cd576120cd6154ac565b60405190808252806020026020018201604052801561210057816020015b60608152602001906001900390816120eb5790505b50905060005b8281101561220357600080308686858181106121245761212461567d565b905060200281019061213691906156ce565b60405161214492919061571c565b600060405180830381855af49150503d806000811461217f576040519150601f19603f3d011682016040523d82523d6000602084013e612184565b606091505b5091509150816121d05760448151101561219d57600080fd5b600481019050808060200190518101906121b7919061572c565b60405162461bcd60e51b8152600401610aeb9190614fc9565b808484815181106121e3576121e361567d565b6020026020010181905250505080806121fb9061579a565b915050612106565b5092915050565b6000600260cf54141561225f5760405162461bcd60e51b815260206004820152601f60248201527f5265656e7472616e637947756172643a207265656e7472616e742063616c6c006044820152606401610aeb565b600260cf55610106546040516329018f6f60e21b81526001600160a01b03808d1660048301528c92169063a4063dbc9060240160206040518083038186803b1580156122aa57600080fd5b505afa1580156122be573d6000803e3d6000fd5b505050506040513d601f19601f820116820180604052508101906122e29190615643565b6122fe5760405162820f3560e61b815260040160405180910390fd5b6101018054336001600160a01b03199182161790915561010280549091166001600160a01b038d161790556001600160801b0380871661010355851661010455610105805460ff1916905561235a8b8b8b8b8b8b8b8b8b6128a3565b600160cf559b9a5050505050505050505050565b61237833836130e0565b6123ea5760405162461bcd60e51b815260206004820152603160248201527f4552433732313a207472616e736665722063616c6c6572206973206e6f74206f60448201527f776e6572206e6f7220617070726f7665640000000000000000000000000000006064820152608401610aeb565b61155584848484613d88565b60cb546040517fc87b56dd000000000000000000000000000000000000000000000000000000008152600481018390526060916001600160a01b03169063c87b56dd9060240160006040518083038186803b15801561245457600080fd5b505afa158015612468573d6000803e3d6000fd5b505050506040513d6000823e601f3d908101601f191682016040526109cd919081019061572c565b60008181526101076020908152604080832081516101208101835281546001600160a01b0390811682526001808401546001600160801b03811684880152600160801b8104600290810b858801908152600160981b8304820b60608701908152600160b01b90930463ffffffff1660808701528187015460a0870152600387015460c087015260048088015460e08801526005909701546101008701528a8a526101088952878a208851808a018a52815481529401549884019890985284519751915196517fc03c251400000000000000000000000000000000000000000000000000000000815291810b958201959095529490930b60248501528594919391169063c03c25149060440160206040518083038186803b1580156125b357600080fd5b505afa1580156125c7573d6000803e3d6000fd5b505050506040513d601f19601f820116820180604052508101906125eb91906157b5565b925080602001516126148260000151850384602001516001600160801b0316600160801b613e11565b0193505050915091565b60008181526101076020908152604080832081516101208101835281546001600160a01b031680825260018301546001600160801b03811695830195909552600160801b8504600290810b838601819052600160981b8704820b60608501819052600160b01b90970463ffffffff1660808501529084015460a0840152600384015460c084015260048085015460e0850152600590940154610100840152935163159fd11f60e31b815292830193909352602482019390935283928392839263acfe88f890604401604080518083038186803b1580156126fd57600080fd5b505afa158015612711573d6000803e3d6000fd5b505050506040513d601f19601f8201168201806040525081019061273591906156aa565b80935081945050508060e001516127648260a00151850383602001516001600160801b0316600160801b613e11565b01945080610100015161278f8260c00151840383602001516001600160801b0316600160801b613e11565b019350509193509193565b60006001600160e01b031982167f80ac58cd0000000000000000000000000000000000000000000000000000000014806127fd57506001600160e01b031982167f5b5e139f00000000000000000000000000000000000000000000000000000000145b806109cd57507f01ffc9a7000000000000000000000000000000000000000000000000000000006001600160e01b03198316146109cd565b600081815260696020526040902080546001600160a01b0319166001600160a01b038416908117909155819061286a8261155b565b6001600160a01b03167f8c5be1e5ebec7d5bd14f71427d1e84f3dd0314c0f7b2291e5b200ac8c7c3b92560405160405180910390a45050565b6040517faf605c880000000000000000000000000000000000000000000000000000000081526001600160a01b038a166004820152600289810b602483015288810b604483015287810b606483015286900b608482015260009073888b075cd92692761aCb649Da39988cd739667329063af605c889060a40160806040518083038186803b15801561293457600080fd5b505af4158015612948573d6000803e3d6000fd5b505050506040513d601f19601f8201168201806040525081019061296c91906157ce565b6040805160c081018252600286810b825285810b6020830190815285820b83850190815285830b606085019081526001600160801b038f8116608087019081528f821660a0880190815297517f0ae9ba8a0000000000000000000000000000000000000000000000000000000081529651860b60048801529351850b60248701529151840b60448601525190920b60648401525181166084830152915190911660a4820152939c50919a50985096506000906001600160a01b038c1690630ae9ba8a9060c401602060405180830381600087803b158015612a4c57600080fd5b505af1158015612a60573d6000803e3d6000fd5b505050506040513d601f19601f82011682018060405250810190612a8491906157b5565b905083816001600160801b03161015612ab05760405163c9f52c7160e01b815260040160405180910390fd5b82612d8e5760cc5460405163159fd11f60e31b815260028b810b600483015289900b60248201526001600160801b03909116925060009081906001600160a01b038e169063acfe88f890604401604080518083038186803b158015612b1457600080fd5b505afa158015612b28573d6000803e3d6000fd5b505050506040513d601f19601f82011682018060405250810190612b4c91906156aa565b915091506040518061012001604052808e6001600160a01b03168152602001846001600160801b031681526020018c60020b81526020018a60020b81526020014263ffffffff168152602001838152602001828152602001600081526020016000815250610107600086815260200190815260200160002060008201518160000160006101000a8154816001600160a01b0302191690836001600160a01b0316021790555060208201518160010160006101000a8154816001600160801b0302191690836001600160801b0316021790555060408201518160010160106101000a81548162ffffff021916908360020b62ffffff16021790555060608201518160010160136101000a81548162ffffff021916908360020b62ffffff16021790555060808201518160010160166101000a81548163ffffffff021916908363ffffffff16021790555060a0820151816002015560c0820151816003015560e08201518160040155610100820151816005015590505060405180604001604052808e6001600160a01b031663c03c25148e8d6040518363ffffffff1660e01b8152600401612d09929190600292830b8152910b602082015260400190565b60206040518083038186803b158015612d2157600080fd5b505afa158015612d35573d6000803e3d6000fd5b505050506040513d601f19601f82011682018060405250810190612d5991906157b5565b81526000602091820181905286815261010882526040902082518155910151600190910155612d8733613579565b5050612f05565b60008381526101076020526040902080548493506001600160a01b038d8116911614612de6576040517f9840420600000000000000000000000000000000000000000000000000000000815260040160405180910390fd5b600181015460028b810b600160801b909204900b141580612e1957506001810154600289810b600160981b909204900b14155b15612e50576040517f2baa8efe00000000000000000000000000000000000000000000000000000000815260040160405180910390fd5b612e5a33846130e0565b612e7757604051631eb49d6d60e11b815260040160405180910390fd5b612e808361370a565b612e89836138aa565b600181018054839190600090612ea99084906001600160801b031661582d565b82546101009290920a6001600160801b038181021990931691909216919091021790555060010180547fffffffffffff00000000ffffffffffffffffffffffffffffffffffffffffffff16600160b01b4263ffffffff16021790555b60008281526101076020908152604080832081516101208101835281546001600160a01b0316815260018201546001600160801b03811694820194909452600160801b8404600290810b938201849052600160981b8504810b6060830152600160b01b90940463ffffffff1660808201529281015460a0840152600381015460c0840152600481015460e084015260050154610100830152909190819061305d90612faf90613ec5565b6001600160a01b0316612fc58560600151613ec5565b6001600160a01b031685600001516001600160a01b031663a035b1fe6040518163ffffffff1660e01b815260040160206040518083038186803b15801561300b57600080fd5b505afa15801561301f573d6000803e3d6000fd5b505050506040513d601f19601f820116820180604052508101906130439190615660565b6001600160a01b0316876001600160801b03166001614211565b9150915084336001600160a01b03168f6001600160a01b03167fa0cbbe2e0e524c30e7105f393c94244cbc448c9a309724650d8ca7bb465f53958585896040516130c7939291906001600160801b0393841681529183166020830152909116604082015260600190565b60405180910390a4505050509998505050505050505050565b6000818152606760205260408120546001600160a01b031661316a5760405162461bcd60e51b815260206004820152602c60248201527f4552433732313a206f70657261746f7220717565727920666f72206e6f6e657860448201527f697374656e7420746f6b656e00000000000000000000000000000000000000006064820152608401610aeb565b60006131758361155b565b9050806001600160a01b0316846001600160a01b031614806131b05750836001600160a01b03166131a584610a65565b6001600160a01b0316145b806131e057506001600160a01b038082166000908152606a602090815260408083209388168352929052205460ff165b949350505050565b826001600160a01b03166131fb8261155b565b6001600160a01b0316146132775760405162461bcd60e51b815260206004820152602560248201527f4552433732313a207472616e736665722066726f6d20696e636f72726563742060448201527f6f776e65720000000000000000000000000000000000000000000000000000006064820152608401610aeb565b6001600160a01b0382166132f25760405162461bcd60e51b8152602060048201526024808201527f4552433732313a207472616e7366657220746f20746865207a65726f2061646460448201527f72657373000000000000000000000000000000000000000000000000000000006064820152608401610aeb565b6132fd838383614280565b613308600082612835565b6001600160a01b0383166000908152606860205260408120805460019290613331908490615693565b90915550506001600160a01b038216600090815260686020526040812080546001929061335f908490615858565b909155505060008181526067602052604080822080546001600160a01b0319166001600160a01b0386811691821790925591518493918716917fddf252ad1be2c89b69c2b068fc378daa952ba7f163c4a11628f55a4df523b3ef91a4505050565b6134216040518060400160405280600f81526020017f50616e67656120506f736974696f6e00000000000000000000000000000000008152506040518060400160405280600a81526020016950414e4745412d504f5360b01b815250614338565b4660ca556134f9604080518082018252600a81526950414e4745412d504f5360b01b6020918201528151808301835260018152603160f81b9082015281517f8b73c3c69bb8fe3d512ecc4cf759cc79239f7b179b0ffacaa9a75d522b39400f818301527f16d34b8f23ef02572737473f7ba87ffe21ee45c6bbade7dae4039edd04580f63818401527fc89efdaa54c0f20c7adf612882df0950f5a951637e0307cdcb4c672f298b8bc660608201524660808201523060a0808301919091528351808303909101815260c0909101909252815191012090565b60c9556135046143ad565b565b600054610100900460ff166135715760405162461bcd60e51b815260206004820152602b60248201527f496e697469616c697a61626c653a20636f6e7472616374206973206e6f74206960448201526a6e697469616c697a696e6760a81b6064820152608401610aeb565b613504614418565b60cc80546135ca9183916001600160801b031690600061359883615870565b91906101000a8154816001600160801b0302191690836001600160801b031602179055506001600160801b031661448a565b50565b806135d6575050565b610105546040517fb760faf90000000000000000000000000000000000000000000000000000000081526001600160a01b0384811660048301526101009092049091169063b760faf99083906024016000604051808303818588803b15801561363e57600080fd5b505af11580156118f4573d6000803e3d6000fd5b6000826001600160a01b03168260405160006040518083038185875af1925050503d806000811461369f576040519150601f19603f3d011682016040523d82523d6000602084013e6136a4565b606091505b5050905080610c3d5760405162461bcd60e51b815260206004820152601360248201527f4554485f5452414e534645525f4641494c4544000000000000000000000000006044820152606401610aeb565b6115556001600160a01b0385168484846145d8565b6000806000806137198561261e565b600098895261010760205260409098206004810193909355600583019190915560028201556003019490945550505050565b6000838152610107602052604080822080546001820154600480840154600585015495517f2df94b0f000000000000000000000000000000000000000000000000000000008152600160801b8404600290810b93820193909352600160981b90930490910b60248301526044820152606481019390935283926001600160a01b0390911690632df94b0f906084016040805180830381600087803b1580156137f257600080fd5b505af1158015613806573d6000803e3d6000fd5b505050506040513d601f19601f8201168201806040525081019061382a91906156aa565b600060048401819055600584015582549194509250613855906001600160a01b031686858588613b4f565b8054604080518581526020810185905288926001600160a01b03898116939116917f31135c84c98c756a9a84c21b514d356a17967948475c29a83db0e94f6ea5d073910160405180910390a450935093915050565b6000806138b683612490565b600094855261010860205260409094206001810191909155929092555050565b6000838152610107602090815260408083208054600180830154610108909552838620015492517f06f912f3000000000000000000000000000000000000000000000000000000008152600160801b8504600290810b6004830152600160981b90950490940b60248501526044840192909252916001600160a01b03909116906306f912f390606401602060405180830381600087803b15801561397957600080fd5b505af115801561398d573d6000803e3d6000fd5b505050506040513d601f19601f820116820180604052508101906139b191906157b5565b600086815261010860209081526040808320600101839055845481517ff7c618c1000000000000000000000000000000000000000000000000000000008152915194965092936001600160a01b039093169263f7c618c192600480840193919291829003018186803b158015613a2657600080fd5b505afa158015613a3a573d6000803e3d6000fd5b505050506040513d601f19601f82011682018060405250810190613a5e9190615660565b9050838015613a805750610105546001600160a01b0382811661010090920416145b15613a9457613a8f8584614671565b613ab2565b6001600160a01b038116613aa757613ab2565b613ab28186856146fc565b815460405184815287916001600160a01b03888116929116907f12b3409f4b5d248c86c1cfe84389e9973e1e40e144de2f43aac95d1d97fe12989060200160405180910390a450509392505050565b60cc8054600160801b90046001600160801b0316906010613b2183615870565b91906101000a8154816001600160801b0302191690836001600160801b03160217905550506135ca81614710565b6000856001600160a01b0316630dfe16816040518163ffffffff1660e01b815260040160206040518083038186803b158015613b8a57600080fd5b505afa158015613b9e573d6000803e3d6000fd5b505050506040513d601f19601f82011682018060405250810190613bc29190615660565b610105549091506001600160a01b0380831661010090920416148015613be55750815b15613bf957613bf48585614671565b613c04565b613c048186866146fc565b6000866001600160a01b031663d21220a76040518163ffffffff1660e01b815260040160206040518083038186803b158015613c3f57600080fd5b505afa158015613c53573d6000803e3d6000fd5b505050506040513d601f19601f82011682018060405250810190613c779190615660565b610105549091506001600160a01b0380831661010090920416148015613c9a5750825b15613cae57613ca98685614671565b6118f4565b6118f48187866146fc565b816001600160a01b0316836001600160a01b03161415613d1b5760405162461bcd60e51b815260206004820152601960248201527f4552433732313a20617070726f766520746f2063616c6c6572000000000000006044820152606401610aeb565b6001600160a01b038381166000818152606a6020908152604080832094871680845294825291829020805460ff191686151590811790915591519182527f17307eab39ab6107e8899845ad3d59bd9653f200f220920489ca2b5937696c31910160405180910390a3505050565b613d938484846131e8565b613d9f848484846147b7565b6115555760405162461bcd60e51b815260206004820152603260248201527f4552433732313a207472616e7366657220746f206e6f6e20455243373231526560448201527f63656976657220696d706c656d656e74657200000000000000000000000000006064820152608401610aeb565b600080806000198587098587029250828110838203039150508060001415613e4b5760008411613e4057600080fd5b508290049050613ebe565b808411613e5757600080fd5b6000848688096000868103871696879004966002600389028118808a02820302808a02820302808a02820302808a02820302808a02820302808a02909103029181900381900460010186841190950394909402919094039290920491909117919091029150505b9392505050565b60008060008360020b12613edc578260020b613ee9565b8260020b613ee99061588d565b9050613ef8620d89e7196158c6565b62ffffff16811115613f36576040517ff87dc40c00000000000000000000000000000000000000000000000000000000815260040160405180910390fd5b600060018216613f4a57600160801b613f5c565b6ffffcb933bd6fad37aa2d162d1a5940015b70ffffffffffffffffffffffffffffffffff1690506002821615613f90576ffff97272373d413259a46990580e213a0260801c5b6004821615613faf576ffff2e50f5f656932ef12357cf3c7fdcc0260801c5b6008821615613fce576fffe5caca7e10e4e61c3624eaa0941cd00260801c5b6010821615613fed576fffcb9843d60f6159c9db58835c9266440260801c5b602082161561400c576fff973b41fa98c081472e6896dfb254c00260801c5b604082161561402b576fff2ea16466c96a3843ec78b326b528610260801c5b608082161561404a576ffe5dee046a99a2a811c461f1969c30530260801c5b61010082161561406a576ffcbe86c7900a88aedcffc83b479aa3a40260801c5b61020082161561408a576ff987a7253ac413176f2b074cf7815e540260801c5b6104008216156140aa576ff3392b0822b70005940c7a398e4b70f30260801c5b6108008216156140ca576fe7159475a2c29b7443b29c7fa6e889d90260801c5b6110008216156140ea576fd097f3bdfd2022b8845ad8f792aa58250260801c5b61200082161561410a576fa9f746462d870fdf8a65dc1f90e061e50260801c5b61400082161561412a576f70d869a156d2a1b890bb3df62baf32f70260801c5b61800082161561414a576f31be135f97d08fd981231505542fcfa60260801c5b6201000082161561416b576f09aa508b5b7a84e1c677de54f3e99bc90260801c5b6202000082161561418b576e5d6af8dedb81196699c329225ee6040260801c5b620400008216156141aa576d2216e584f5fa1ea926041bedfe980260801c5b620800008216156141c7576b048a170391f7dc42444e8fa20260801c5b60008460020b13156141e85780600019816141e4576141e46158e9565b0490505b6401000000008106156141fc5760016141ff565b60005b60ff16602082901c0192505050919050565b6000808486116142365761422f61422a8589898761491a565b614966565b9050614276565b8685116142535761424c61422a85898987614981565b9150614276565b61426261422a85878987614981565b915061427361422a8589888761491a565b90505b9550959350505050565b6001600160a01b0383166142db576142d681609980546000838152609a60205260408120829055600182018355919091527f72a152ddfb8e864297c917af52ea6c1c68aead0fee1a62673fcc7e0c94979d000155565b6142fe565b816001600160a01b0316836001600160a01b0316146142fe576142fe83826149d2565b6001600160a01b03821661431557610c3d81614a6f565b826001600160a01b0316826001600160a01b031614610c3d57610c3d8282614b1e565b600054610100900460ff166143a35760405162461bcd60e51b815260206004820152602b60248201527f496e697469616c697a61626c653a20636f6e7472616374206973206e6f74206960448201526a6e697469616c697a696e6760a81b6064820152608401610aeb565b611e7c8282614b62565b600054610100900460ff166135045760405162461bcd60e51b815260206004820152602b60248201527f496e697469616c697a61626c653a20636f6e7472616374206973206e6f74206960448201526a6e697469616c697a696e6760a81b6064820152608401610aeb565b600054610100900460ff166144835760405162461bcd60e51b815260206004820152602b60248201527f496e697469616c697a61626c653a20636f6e7472616374206973206e6f74206960448201526a6e697469616c697a696e6760a81b6064820152608401610aeb565b600160cf55565b6001600160a01b0382166144e05760405162461bcd60e51b815260206004820181905260248201527f4552433732313a206d696e7420746f20746865207a65726f20616464726573736044820152606401610aeb565b6000818152606760205260409020546001600160a01b0316156145455760405162461bcd60e51b815260206004820152601c60248201527f4552433732313a20746f6b656e20616c7265616479206d696e746564000000006044820152606401610aeb565b61455160008383614280565b6001600160a01b038216600090815260686020526040812080546001929061457a908490615858565b909155505060008181526067602052604080822080546001600160a01b0319166001600160a01b03861690811790915590518392907fddf252ad1be2c89b69c2b068fc378daa952ba7f163c4a11628f55a4df523b3ef908290a45050565b6040516001600160a01b03808516602483015283166044820152606481018290526115559085907f23b872dd00000000000000000000000000000000000000000000000000000000906084015b60408051601f198184030181529190526020810180517bffffffffffffffffffffffffffffffffffffffffffffffffffffffff166001600160e01b031990931692909217909152614bf4565b8061467a575050565b610105546040517f205c28780000000000000000000000000000000000000000000000000000000081526001600160a01b038481166004830152602482018490526101009092049091169063205c287890604401600060405180830381600087803b1580156146e857600080fd5b505af11580156120aa573d6000803e3d6000fd5b610c3d6001600160a01b0384168383614cd9565b600061471b8261155b565b905061472981600084614280565b614734600083612835565b6001600160a01b038116600090815260686020526040812080546001929061475d908490615693565b909155505060008281526067602052604080822080546001600160a01b0319169055518391906001600160a01b038416907fddf252ad1be2c89b69c2b068fc378daa952ba7f163c4a11628f55a4df523b3ef908390a45050565b60006001600160a01b0384163b1561490f57604051630a85bd0160e11b81526001600160a01b0385169063150b7a02906147fb9033908990889088906004016158ff565b602060405180830381600087803b15801561481557600080fd5b505af1925050508015614845575060408051601f3d908101601f191682019092526148429181019061593b565b60015b6148f5573d808015614873576040519150601f19603f3d011682016040523d82523d6000602084013e614878565b606091505b5080516148ed5760405162461bcd60e51b815260206004820152603260248201527f4552433732313a207472616e7366657220746f206e6f6e20455243373231526560448201527f63656976657220696d706c656d656e74657200000000000000000000000000006064820152608401610aeb565b805181602001fd5b6001600160e01b031916630a85bd0160e11b1490506131e0565b506001949350505050565b600081156149435761493c858585036c01000000000000000000000000614d22565b90506131e0565b61495d858585036c01000000000000000000000000613e11565b95945050505050565b806001600160801b038116811461497c57600080fd5b919050565b600081156149a95761493c61499d606087901b86860386614d22565b85808204910615150190565b836149bb606087901b82860386613e11565b816149c8576149c86158e9565b0495945050505050565b600060016149df846115e6565b6149e99190615693565b600083815260986020526040902054909150808214614a3c576001600160a01b03841660009081526097602090815260408083208584528252808320548484528184208190558352609890915290208190555b5060009182526098602090815260408084208490556001600160a01b039094168352609781528383209183525290812055565b609954600090614a8190600190615693565b6000838152609a602052604081205460998054939450909284908110614aa957614aa961567d565b906000526020600020015490508060998381548110614aca57614aca61567d565b6000918252602080832090910192909255828152609a90915260408082208490558582528120556099805480614b0257614b02615958565b6001900381819060005260206000200160009055905550505050565b6000614b29836115e6565b6001600160a01b039093166000908152609760209081526040808320868452825280832085905593825260989052919091209190915550565b600054610100900460ff16614bcd5760405162461bcd60e51b815260206004820152602b60248201527f496e697469616c697a61626c653a20636f6e7472616374206973206e6f74206960448201526a6e697469616c697a696e6760a81b6064820152608401610aeb565b8151614be0906065906020850190614e73565b508051610c3d906066906020840190614e73565b6000614c49826040518060400160405280602081526020017f5361666545524332303a206c6f772d6c6576656c2063616c6c206661696c6564815250856001600160a01b0316614d5f9092919063ffffffff16565b805190915015610c3d5780806020019051810190614c679190615643565b610c3d5760405162461bcd60e51b815260206004820152602a60248201527f5361666545524332303a204552433230206f7065726174696f6e20646964206e60448201527f6f742073756363656564000000000000000000000000000000000000000000006064820152608401610aeb565b6040516001600160a01b038316602482015260448101829052610c3d9084907fa9059cbb0000000000000000000000000000000000000000000000000000000090606401614625565b6000614d2f848484613e11565b90508180614d3f57614d3f6158e9565b83850915613ebe576000198110614d5557600080fd5b6001019392505050565b60606131e08484600085856001600160a01b0385163b614dc15760405162461bcd60e51b815260206004820152601d60248201527f416464726573733a2063616c6c20746f206e6f6e2d636f6e74726163740000006044820152606401610aeb565b600080866001600160a01b03168587604051614ddd919061596e565b60006040518083038185875af1925050503d8060008114614e1a576040519150601f19603f3d011682016040523d82523d6000602084013e614e1f565b606091505b5091509150614e2f828286614e3a565b979650505050505050565b60608315614e49575081613ebe565b825115614e595782518084602001fd5b8160405162461bcd60e51b8152600401610aeb9190614fc9565b828054614e7f906155ca565b90600052602060002090601f016020900481019282614ea15760008555614ee7565b82601f10614eba57805160ff1916838001178555614ee7565b82800160010185558215614ee7579182015b82811115614ee7578251825591602001919060010190614ecc565b50614ef3929150614ef7565b5090565b5b80821115614ef35760008155600101614ef8565b6001600160a01b03811681146135ca57600080fd5b600060208284031215614f3357600080fd5b8135613ebe81614f0c565b6001600160e01b0319811681146135ca57600080fd5b600060208284031215614f6657600080fd5b8135613ebe81614f3e565b60005b83811015614f8c578181015183820152602001614f74565b838111156115555750506000910152565b60008151808452614fb5816020860160208601614f71565b601f01601f19169290920160200192915050565b602081526000613ebe6020830184614f9d565b600060208284031215614fee57600080fd5b5035919050565b6000806040838503121561500857600080fd5b823561501381614f0c565b946020939093013593505050565b8060020b81146135ca57600080fd5b80356001600160801b038116811461497c57600080fd5b600080600080600080600080610100898b03121561506457600080fd5b883561506f81614f0c565b9750602089013561507f81615021565b9650604089013561508f81615021565b9550606089013561509f81615021565b945060808901356150af81615021565b93506150bd60a08a01615030565b925060c0890135915060e089013590509295985092959890939650565b6000806000606084860312156150ef57600080fd5b83356150fa81614f0c565b9250602084013561510a81614f0c565b929592945050506040919091013590565b6000806040838503121561512e57600080fd5b823561513981614f0c565b9150602083013561514981614f0c565b809150509250929050565b6000806000806080858703121561516a57600080fd5b843561517581614f0c565b9350602085013561518581614f0c565b93969395505050506040820135916060013590565b803560ff8116811461497c57600080fd5b60008060008060008060c087890312156151c457600080fd5b86356151cf81614f0c565b955060208701359450604087013593506151eb6060880161519a565b92506080870135915060a087013590509295509295509295565b80151581146135ca57600080fd5b60008060006060848603121561522857600080fd5b83359250602084013561523a81614f0c565b9150604084013561524a81615205565b809150509250925092565b60008060008060008060c0878903121561526e57600080fd5b8635955061527e60208801615030565b9450604087013561528e81614f0c565b9350606087013592506080870135915060a08701356152ac81615205565b809150509295509295509295565b600080604083850312156152cd57600080fd5b82356152d881614f0c565b9150602083013561514981615205565b60008060008060008060c0878903121561530157600080fd5b863561530c81614f0c565b9550602087013561531c81614f0c565b9450604087013593506151eb6060880161519a565b6000806020838503121561534457600080fd5b823567ffffffffffffffff8082111561535c57600080fd5b818501915085601f83011261537057600080fd5b81358181111561537f57600080fd5b8660208260051b850101111561539457600080fd5b60209290920196919550909350505050565b6000602080830181845280855180835260408601915060408160051b870101925083870160005b828110156153fb57603f198886030184526153e9858351614f9d565b945092850192908501906001016153cd565b5092979650505050505050565b60008060008060008060008060006101208a8c03121561542757600080fd5b893561543281614f0c565b985060208a013561544281615021565b975060408a013561545281615021565b965060608a013561546281615021565b955060808a013561547281615021565b945061548060a08b01615030565b935061548e60c08b01615030565b925060e08a013591506101008a013590509295985092959850929598565b634e487b7160e01b600052604160045260246000fd5b604051601f8201601f1916810167ffffffffffffffff811182821017156154eb576154eb6154ac565b604052919050565b600067ffffffffffffffff82111561550d5761550d6154ac565b50601f01601f191660200190565b6000806000806080858703121561553157600080fd5b843561553c81614f0c565b9350602085013561554c81614f0c565b925060408501359150606085013567ffffffffffffffff81111561556f57600080fd5b8501601f8101871361558057600080fd5b803561559361558e826154f3565b6154c2565b8181528860208385010111156155a857600080fd5b8160208401602083013760006020838301015280935050505092959194509250565b600181811c908216806155de57607f821691505b602082108114156155ff57634e487b7160e01b600052602260045260246000fd5b50919050565b634e487b7160e01b600052601160045260246000fd5b60006001600160801b038381169083168181101561563b5761563b615605565b039392505050565b60006020828403121561565557600080fd5b8151613ebe81615205565b60006020828403121561567257600080fd5b8151613ebe81614f0c565b634e487b7160e01b600052603260045260246000fd5b6000828210156156a5576156a5615605565b500390565b600080604083850312156156bd57600080fd5b505080516020909101519092909150565b6000808335601e198436030181126156e557600080fd5b83018035915067ffffffffffffffff82111561570057600080fd5b60200191503681900382131561571557600080fd5b9250929050565b8183823760009101908152919050565b60006020828403121561573e57600080fd5b815167ffffffffffffffff81111561575557600080fd5b8201601f8101841361576657600080fd5b805161577461558e826154f3565b81815285602083850101111561578957600080fd5b61495d826020830160208601614f71565b60006000198214156157ae576157ae615605565b5060010190565b6000602082840312156157c757600080fd5b5051919050565b600080600080608085870312156157e457600080fd5b84516157ef81615021565b602086015190945061580081615021565b604086015190935061581181615021565b606086015190925061582281615021565b939692955090935050565b60006001600160801b0380831681851680830382111561584f5761584f615605565b01949350505050565b6000821982111561586b5761586b615605565b500190565b60006001600160801b0380831681811415614d5557614d55615605565b60007f80000000000000000000000000000000000000000000000000000000000000008214156158bf576158bf615605565b5060000390565b60008160020b627fffff198114156158e0576158e0615605565b60000392915050565b634e487b7160e01b600052601260045260246000fd5b60006001600160a01b038087168352808616602084015250836040830152608060608301526159316080830184614f9d565b9695505050505050565b60006020828403121561594d57600080fd5b8151613ebe81614f3e565b634e487b7160e01b600052603160045260246000fd5b60008251615980818460208701614f71565b919091019291505056fea2646970667358221220596755e814637cb91d4b8c8f444ad7fc66383a0878b4c254b4af01305031411864736f6c63430008090033",
  "deployedBytecode": "0x6080604052600436106102a05760003560e01c80636352211e1161016e578063aba07847116100cb578063c87b56dd1161007f578063d53cfc0611610064578063d53cfc0614610899578063e985e9c5146108b9578063ed7bba9a1461090257600080fd5b8063c87b56dd14610858578063cf58879a1461087857600080fd5b8063b4e13c8d116100b0578063b4e13c8d146107e4578063b70d2ea614610818578063b88d4fde1461083857600080fd5b8063aba07847146107a4578063ac9650d8146107c457600080fd5b80639399cc891161012257806399fbab881161010757806399fbab8814610679578063a214fa6b14610764578063a22cb4651461078457600080fd5b80639399cc891461064457806395d89b411461066457600080fd5b80637ac2ff7b116101535780637ac2ff7b146105d75780638c6ab013146105f7578063904dfb8e1461061757600080fd5b80636352211e1461059757806370a08231146105b757600080fd5b806323b872dd1161021c57806342842e0e116101d05780634f558e79116101b55780634f558e79146105375780634f6ccce7146105575780635f16529a1461057757600080fd5b806342842e0e146104f7578063485cc9551461051757600080fd5b806330adf81f1161020157806330adf81f1461046457806335c62e33146104985780633644e515146104e257600080fd5b806323b872dd146104245780632f745c591461044457600080fd5b8063095ea7b311610273578063141a468c11610258578063141a468c146103c157806318160ddd146103fc5780631816ec771461041157600080fd5b8063095ea7b3146103565780630af2c6ca1461037657600080fd5b806301b9a397146102a557806301ffc9a7146102c757806306fdde03146102fc578063081812fc1461031e575b600080fd5b3480156102b157600080fd5b506102c56102c0366004614f21565b610942565b005b3480156102d357600080fd5b506102e76102e2366004614f54565b61098f565b60405190151581526020015b60405180910390f35b34801561030857600080fd5b506103116109d3565b6040516102f39190614fc9565b34801561032a57600080fd5b5061033e610339366004614fdc565b610a65565b6040516001600160a01b0390911681526020016102f3565b34801561036257600080fd5b506102c5610371366004614ff5565b610b10565b34801561038257600080fd5b5060cc546103a1906001600160801b0380821691600160801b90041682565b604080516001600160801b039384168152929091166020830152016102f3565b3480156103cd57600080fd5b506103ee6103dc366004614fdc565b60cd6020526000908152604090205481565b6040519081526020016102f3565b34801561040857600080fd5b506103ee610c42565b6103ee61041f366004615047565b610c72565b34801561043057600080fd5b506102c561043f3660046150da565b610fb0565b34801561045057600080fd5b506103ee61045f366004614ff5565b611037565b34801561047057600080fd5b506103ee7f49ecf333e5b8c95c40fdafc95c1ad136e8914a8fb55e9dc8bb01eaa83a2df9ad81565b3480156104a457600080fd5b506104cd6104b3366004614fdc565b610108602052600090815260409020805460019091015482565b604080519283526020830191909152016102f3565b3480156104ee57600080fd5b506103ee6110df565b34801561050357600080fd5b506102c56105123660046150da565b6111c3565b34801561052357600080fd5b506102c561053236600461511b565b6111de565b34801561054357600080fd5b506102e7610552366004614fdc565b611321565b34801561056357600080fd5b506103ee610572366004614fdc565b611340565b34801561058357600080fd5b506102c5610592366004615154565b6113e4565b3480156105a357600080fd5b5061033e6105b2366004614fdc565b61155b565b3480156105c357600080fd5b506103ee6105d2366004614f21565b6115e6565b3480156105e357600080fd5b506102c56105f23660046151ab565b611680565b34801561060357600080fd5b506104cd610612366004615213565b6118fd565b34801561062357600080fd5b506103ee610632366004614f21565b60ce6020526000908152604090205481565b34801561065057600080fd5b506103ee61065f366004615213565b6119a4565b34801561067057600080fd5b50610311611a46565b34801561068557600080fd5b50610700610694366004614fdc565b61010760205260009081526040902080546001820154600280840154600385015460048601546005909601546001600160a01b03909516956001600160801b03851695600160801b8604850b95600160981b810490950b94600160b01b900463ffffffff169392919089565b604080516001600160a01b03909a168a526001600160801b0390981660208a0152600296870b978901979097529390940b606087015263ffffffff909116608086015260a085015260c084019190915260e0830152610100820152610120016102f3565b34801561077057600080fd5b506104cd61077f366004615255565b611a55565b34801561079057600080fd5b506102c561079f3660046152ba565b611e71565b3480156107b057600080fd5b506102c56107bf3660046152e8565b611e80565b6107d76107d2366004615331565b6120b2565b6040516102f391906153a6565b3480156107f057600080fd5b506103ee7fdaab21af31ece73a508939fedd476a5ee5129a5ed4bb091f3236ffb45394df6281565b34801561082457600080fd5b506103ee610833366004615408565b61220a565b34801561084457600080fd5b506102c561085336600461551b565b61236e565b34801561086457600080fd5b50610311610873366004614fdc565b6123f6565b34801561088457600080fd5b506101065461033e906001600160a01b031681565b3480156108a557600080fd5b506104cd6108b4366004614fdc565b612490565b3480156108c557600080fd5b506102e76108d436600461511b565b6001600160a01b039182166000908152606a6020908152604080832093909416825291909152205460ff1690565b34801561090e57600080fd5b5061092261091d366004614fdc565b61261e565b6040805194855260208501939093529183015260608201526080016102f3565b60cb546001600160a01b0316331461096d57604051631eb49d6d60e11b815260040160405180910390fd5b60cb80546001600160a01b0319166001600160a01b0392909216919091179055565b60006001600160e01b031982167f780e9d630000000000000000000000000000000000000000000000000000000014806109cd57506109cd8261279a565b92915050565b6060606580546109e2906155ca565b80601f0160208091040260200160405190810160405280929190818152602001828054610a0e906155ca565b8015610a5b5780601f10610a3057610100808354040283529160200191610a5b565b820191906000526020600020905b815481529060010190602001808311610a3e57829003601f168201915b5050505050905090565b6000818152606760205260408120546001600160a01b0316610af45760405162461bcd60e51b815260206004820152602c60248201527f4552433732313a20617070726f76656420717565727920666f72206e6f6e657860448201527f697374656e7420746f6b656e000000000000000000000000000000000000000060648201526084015b60405180910390fd5b506000908152606960205260409020546001600160a01b031690565b6000610b1b8261155b565b9050806001600160a01b0316836001600160a01b03161415610ba55760405162461bcd60e51b815260206004820152602160248201527f4552433732313a20617070726f76616c20746f2063757272656e74206f776e6560448201527f72000000000000000000000000000000000000000000000000000000000000006064820152608401610aeb565b336001600160a01b0382161480610bc15750610bc181336108d4565b610c335760405162461bcd60e51b815260206004820152603860248201527f4552433732313a20617070726f76652063616c6c6572206973206e6f74206f7760448201527f6e6572206e6f7220617070726f76656420666f7220616c6c00000000000000006064820152608401610aeb565b610c3d8383612835565b505050565b60cc54600090610c64906001600160801b03600160801b82048116911661561b565b6001600160801b0316905090565b6000600260cf541415610cc75760405162461bcd60e51b815260206004820152601f60248201527f5265656e7472616e637947756172643a207265656e7472616e742063616c6c006044820152606401610aeb565b600260cf55610106546040516329018f6f60e21b81526001600160a01b03808c1660048301528b92169063a4063dbc9060240160206040518083038186803b158015610d1257600080fd5b505afa158015610d26573d6000803e3d6000fd5b505050506040513d601f19601f82011682018060405250810190610d4a9190615643565b610d665760405162820f3560e61b815260040160405180910390fd5b60008a905061010560019054906101000a90046001600160a01b03166001600160a01b0316816001600160a01b0316630dfe16816040518163ffffffff1660e01b815260040160206040518083038186803b158015610dc457600080fd5b505afa158015610dd8573d6000803e3d6000fd5b505050506040513d601f19601f82011682018060405250810190610dfc9190615660565b6001600160a01b03161415610e70576101018054336001600160a01b03199182161790915561010280549091166001600160a01b038d1617905534610103556001600160801b03861661010455610105805460ff19166001179055610e68818b8b8b8b348c8c8c6128a3565b925050610f9e565b61010560019054906101000a90046001600160a01b03166001600160a01b0316816001600160a01b031663d21220a76040518163ffffffff1660e01b815260040160206040518083038186803b158015610ec957600080fd5b505afa158015610edd573d6000803e3d6000fd5b505050506040513d601f19601f82011682018060405250810190610f019190615660565b6001600160a01b031614610f41576040517f425c65bb00000000000000000000000000000000000000000000000000000000815260040160405180910390fd5b6101018054336001600160a01b03199182161790915561010280549091166001600160a01b038d161790556001600160801b038616610103553461010455610105805460ff19166001179055610e68818b8b8b8b8b348c8c6128a3565b50600160cf5598975050505050505050565b610fba33826130e0565b61102c5760405162461bcd60e51b815260206004820152603160248201527f4552433732313a207472616e736665722063616c6c6572206973206e6f74206f60448201527f776e6572206e6f7220617070726f7665640000000000000000000000000000006064820152608401610aeb565b610c3d8383836131e8565b6000611042836115e6565b82106110b65760405162461bcd60e51b815260206004820152602b60248201527f455243373231456e756d657261626c653a206f776e657220696e646578206f7560448201527f74206f6620626f756e64730000000000000000000000000000000000000000006064820152608401610aeb565b506001600160a01b03919091166000908152609760209081526040808320938352929052205490565b600060ca5446146111bc5750604080518082018252600a81526950414e4745412d504f5360b01b6020918201528151808301835260018152603160f81b9082015281517f8b73c3c69bb8fe3d512ecc4cf759cc79239f7b179b0ffacaa9a75d522b39400f818301527f16d34b8f23ef02572737473f7ba87ffe21ee45c6bbade7dae4039edd04580f63818401527fc89efdaa54c0f20c7adf612882df0950f5a951637e0307cdcb4c672f298b8bc660608201524660808201523060a0808301919091528351808303909101815260c0909101909252815191012090565b5060c95490565b610c3d8383836040518060200160405280600081525061236e565b600054610100900460ff166111f95760005460ff16156111fd565b303b155b61126f5760405162461bcd60e51b815260206004820152602e60248201527f496e697469616c697a61626c653a20636f6e747261637420697320616c72656160448201527f647920696e697469616c697a65640000000000000000000000000000000000006064820152608401610aeb565b600054610100900460ff16158015611291576000805461ffff19166101011790555b6112996133c0565b6112a1613506565b61010680546001600160a01b038086166001600160a01b03199283161790925560cb8054909116331790556101058054918416610100027fffffffffffffffffffffff0000000000000000000000000000000000000000ff90921691909117905561130b30613579565b8015610c3d576000805461ff0019169055505050565b6000818152606760205260408120546001600160a01b031615156109cd565b600061134b60995490565b82106113bf5760405162461bcd60e51b815260206004820152602c60248201527f455243373231456e756d657261626c653a20676c6f62616c20696e646578206f60448201527f7574206f6620626f756e647300000000000000000000000000000000000000006064820152608401610aeb565b609982815481106113d2576113d261567d565b90600052602060002001549050919050565b610102546001600160a01b03163314611429576040517f2ddb0d4000000000000000000000000000000000000000000000000000000000815260040160405180910390fd5b6101055460ff16801561144f5750610105546001600160a01b0385811661010090920416145b156114895761145e33836135cd565b6101015461010354611484916001600160a01b03169061147f908590615693565b613652565b6114a3565b610101546114a39085906001600160a01b031633856136f5565b6101055460ff1680156114c95750610105546001600160a01b0384811661010090920416145b156114fe576114d833826135cd565b61010154610104546114f9916001600160a01b03169061147f908490615693565b611518565b610101546115189084906001600160a01b031633846136f5565b610101805460016001600160a01b0319918216811790925561010280549091169091179055600061010381905561010455610105805460ff191690555b50505050565b6000818152606760205260408120546001600160a01b0316806109cd5760405162461bcd60e51b815260206004820152602960248201527f4552433732313a206f776e657220717565727920666f72206e6f6e657869737460448201527f656e7420746f6b656e00000000000000000000000000000000000000000000006064820152608401610aeb565b60006001600160a01b0382166116645760405162461bcd60e51b815260206004820152602a60248201527f4552433732313a2062616c616e636520717565727920666f7220746865207a6560448201527f726f2061646472657373000000000000000000000000000000000000000000006064820152608401610aeb565b506001600160a01b031660009081526068602052604090205490565b428410156116d05760405162461bcd60e51b815260206004820152601760248201527f5045524d49545f444541444c494e455f455850495245440000000000000000006044820152606401610aeb565b60006116db8661155b565b905060006116e76110df565b600088815260cd602090815260409182902080546001810190915582517f49ecf333e5b8c95c40fdafc95c1ad136e8914a8fb55e9dc8bb01eaa83a2df9ad818401526001600160a01b038d1681850152606081018c9052608081019190915260a08082018b90528351808303909101815260c082019093528251929091019190912061190160f01b60e083015260e28201929092526101028101919091526101220160408051601f198184030181528282528051602091820120600080855291840180845281905260ff89169284019290925260608301879052608083018690529092509060019060a0016020604051602081039080840390855afa1580156117f4573d6000803e3d6000fd5b5050604051601f1901519150506001600160a01b0381166118575760405162461bcd60e51b815260206004820152601860248201527f494e56414c49445f5045524d49545f5349474e415455524500000000000000006044820152606401610aeb565b826001600160a01b0316816001600160a01b0316148061189c57506001600160a01b038084166000908152606a602090815260408083209385168352929052205460ff165b6118e85760405162461bcd60e51b815260206004820152600e60248201527f494e56414c49445f5349474e45520000000000000000000000000000000000006044820152606401610aeb565b50506118f48787612835565b50505050505050565b600080600260cf5414156119535760405162461bcd60e51b815260206004820152601f60248201527f5265656e7472616e637947756172643a207265656e7472616e742063616c6c006044820152606401610aeb565b600260cf5561196233866130e0565b61197f57604051631eb49d6d60e11b815260040160405180910390fd5b6119888561370a565b61199385858561374b565b600160cf5590969095509350505050565b6000600260cf5414156119f95760405162461bcd60e51b815260206004820152601f60248201527f5265656e7472616e637947756172643a207265656e7472616e742063616c6c006044820152606401610aeb565b600260cf55611a0833856130e0565b611a2557604051631eb49d6d60e11b815260040160405180910390fd5b611a2e846138aa565b611a398484846138d6565b600160cf55949350505050565b6060606680546109e2906155ca565b600080600260cf541415611aab5760405162461bcd60e51b815260206004820152601f60248201527f5265656e7472616e637947756172643a207265656e7472616e742063616c6c006044820152606401610aeb565b600260cf55611aba33896130e0565b611ad757604051631eb49d6d60e11b815260040160405180910390fd5b6000888152610107602090815260409182902082516101208101845281546001600160a01b0316815260018201546001600160801b03811693820193909352600160801b8304600290810b94820194909452600160981b8304840b6060820152600160b01b90920463ffffffff1660808301529182015460a0820152600382015460c0820152600482015460e0820152600590910154610100820152611b7c8961370a565b611b85896138aa565b80602001516001600160801b0316886001600160801b03161015611c9c5780516040808301516060840151915163a34123a760e01b8152600291820b600482015291900b60248201526001600160801b038a1660448201526001600160a01b039091169063a34123a7906064016040805180830381600087803b158015611c0b57600080fd5b505af1158015611c1f573d6000803e3d6000fd5b505050506040513d601f19601f82011682018060405250810190611c4391906156aa565b60008b81526101076020526040812060010180549396509194508a92611c739084906001600160801b031661561b565b92506101000a8154816001600160801b0302191690836001600160801b03160217905550611dca565b602081015181516040808401516060850151915163a34123a760e01b8152600291820b600482015291900b60248201526001600160801b03831660448201529199506001600160a01b03169063a34123a7906064016040805180830381600087803b158015611d0a57600080fd5b505af1158015611d1e573d6000803e3d6000fd5b505050506040513d601f19601f82011682018060405250810190611d4291906156aa565b9093509150611d5289888661374b565b5050611d5f8988866138d6565b50611d6989613b01565b60008981526101076020526040812080546001600160a01b03191681556001810180547fffffffffffff0000000000000000000000000000000000000000000000000000169055600281018290556003810182905560048101829055600501555b85831080611dd757508482105b15611df55760405163c9f52c7160e01b815260040160405180910390fd5b8051611e049088858588613b4f565b805160408051858152602081018590526001600160801b038b168183015290518b9233926001600160a01b03909116917f7a7cc3d6e9116c317f33888a57dd914fae984c233de0802abd7ea1f7eda6bb629181900360600190a450600160cf559097909650945050505050565b611e7c338383613cb9565b5050565b42841015611ed05760405162461bcd60e51b815260206004820152601760248201527f5045524d49545f444541444c494e455f455850495245440000000000000000006044820152606401610aeb565b6000611eda6110df565b6001600160a01b03888116600081815260ce602090815260409182902080546001810190915582517fdaab21af31ece73a508939fedd476a5ee5129a5ed4bb091f3236ffb45394df628184015280840194909452938b166060840152608083019390935260a08083018a90528151808403909101815260c08301909152805192019190912061190160f01b60e083015260e28201929092526101028101919091526101220160408051601f198184030181528282528051602091820120600080855291840180845281905260ff88169284019290925260608301869052608083018590529092509060019060a0016020604051602081039080840390855afa158015611fea573d6000803e3d6000fd5b5050604051601f1901519150506001600160a01b038116158015906120205750876001600160a01b0316816001600160a01b0316145b8061205057506001600160a01b038089166000908152606a602090815260408083209385168352929052205460ff165b61209c5760405162461bcd60e51b815260206004820152601860248201527f494e56414c49445f5045524d49545f5349474e415455524500000000000000006044820152606401610aeb565b50506120aa86866001613cb9565b505050505050565b60608167ffffffffffffffff8111156120cd576120cd6154ac565b60405190808252806020026020018201604052801561210057816020015b60608152602001906001900390816120eb5790505b50905060005b8281101561220357600080308686858181106121245761212461567d565b905060200281019061213691906156ce565b60405161214492919061571c565b600060405180830381855af49150503d806000811461217f576040519150601f19603f3d011682016040523d82523d6000602084013e612184565b606091505b5091509150816121d05760448151101561219d57600080fd5b600481019050808060200190518101906121b7919061572c565b60405162461bcd60e51b8152600401610aeb9190614fc9565b808484815181106121e3576121e361567d565b6020026020010181905250505080806121fb9061579a565b915050612106565b5092915050565b6000600260cf54141561225f5760405162461bcd60e51b815260206004820152601f60248201527f5265656e7472616e637947756172643a207265656e7472616e742063616c6c006044820152606401610aeb565b600260cf55610106546040516329018f6f60e21b81526001600160a01b03808d1660048301528c92169063a4063dbc9060240160206040518083038186803b1580156122aa57600080fd5b505afa1580156122be573d6000803e3d6000fd5b505050506040513d601f19601f820116820180604052508101906122e29190615643565b6122fe5760405162820f3560e61b815260040160405180910390fd5b6101018054336001600160a01b03199182161790915561010280549091166001600160a01b038d161790556001600160801b0380871661010355851661010455610105805460ff1916905561235a8b8b8b8b8b8b8b8b8b6128a3565b600160cf559b9a5050505050505050505050565b61237833836130e0565b6123ea5760405162461bcd60e51b815260206004820152603160248201527f4552433732313a207472616e736665722063616c6c6572206973206e6f74206f60448201527f776e6572206e6f7220617070726f7665640000000000000000000000000000006064820152608401610aeb565b61155584848484613d88565b60cb546040517fc87b56dd000000000000000000000000000000000000000000000000000000008152600481018390526060916001600160a01b03169063c87b56dd9060240160006040518083038186803b15801561245457600080fd5b505afa158015612468573d6000803e3d6000fd5b505050506040513d6000823e601f3d908101601f191682016040526109cd919081019061572c565b60008181526101076020908152604080832081516101208101835281546001600160a01b0390811682526001808401546001600160801b03811684880152600160801b8104600290810b858801908152600160981b8304820b60608701908152600160b01b90930463ffffffff1660808701528187015460a0870152600387015460c087015260048088015460e08801526005909701546101008701528a8a526101088952878a208851808a018a52815481529401549884019890985284519751915196517fc03c251400000000000000000000000000000000000000000000000000000000815291810b958201959095529490930b60248501528594919391169063c03c25149060440160206040518083038186803b1580156125b357600080fd5b505afa1580156125c7573d6000803e3d6000fd5b505050506040513d601f19601f820116820180604052508101906125eb91906157b5565b925080602001516126148260000151850384602001516001600160801b0316600160801b613e11565b0193505050915091565b60008181526101076020908152604080832081516101208101835281546001600160a01b031680825260018301546001600160801b03811695830195909552600160801b8504600290810b838601819052600160981b8704820b60608501819052600160b01b90970463ffffffff1660808501529084015460a0840152600384015460c084015260048085015460e0850152600590940154610100840152935163159fd11f60e31b815292830193909352602482019390935283928392839263acfe88f890604401604080518083038186803b1580156126fd57600080fd5b505afa158015612711573d6000803e3d6000fd5b505050506040513d601f19601f8201168201806040525081019061273591906156aa565b80935081945050508060e001516127648260a00151850383602001516001600160801b0316600160801b613e11565b01945080610100015161278f8260c00151840383602001516001600160801b0316600160801b613e11565b019350509193509193565b60006001600160e01b031982167f80ac58cd0000000000000000000000000000000000000000000000000000000014806127fd57506001600160e01b031982167f5b5e139f00000000000000000000000000000000000000000000000000000000145b806109cd57507f01ffc9a7000000000000000000000000000000000000000000000000000000006001600160e01b03198316146109cd565b600081815260696020526040902080546001600160a01b0319166001600160a01b038416908117909155819061286a8261155b565b6001600160a01b03167f8c5be1e5ebec7d5bd14f71427d1e84f3dd0314c0f7b2291e5b200ac8c7c3b92560405160405180910390a45050565b6040517faf605c880000000000000000000000000000000000000000000000000000000081526001600160a01b038a166004820152600289810b602483015288810b604483015287810b606483015286900b608482015260009073__$bcc72c71f8b76091ef44cf265824b83400$__9063af605c889060a40160806040518083038186803b15801561293457600080fd5b505af4158015612948573d6000803e3d6000fd5b505050506040513d601f19601f8201168201806040525081019061296c91906157ce565b6040805160c081018252600286810b825285810b6020830190815285820b83850190815285830b606085019081526001600160801b038f8116608087019081528f821660a0880190815297517f0ae9ba8a0000000000000000000000000000000000000000000000000000000081529651860b60048801529351850b60248701529151840b60448601525190920b60648401525181166084830152915190911660a4820152939c50919a50985096506000906001600160a01b038c1690630ae9ba8a9060c401602060405180830381600087803b158015612a4c57600080fd5b505af1158015612a60573d6000803e3d6000fd5b505050506040513d601f19601f82011682018060405250810190612a8491906157b5565b905083816001600160801b03161015612ab05760405163c9f52c7160e01b815260040160405180910390fd5b82612d8e5760cc5460405163159fd11f60e31b815260028b810b600483015289900b60248201526001600160801b03909116925060009081906001600160a01b038e169063acfe88f890604401604080518083038186803b158015612b1457600080fd5b505afa158015612b28573d6000803e3d6000fd5b505050506040513d601f19601f82011682018060405250810190612b4c91906156aa565b915091506040518061012001604052808e6001600160a01b03168152602001846001600160801b031681526020018c60020b81526020018a60020b81526020014263ffffffff168152602001838152602001828152602001600081526020016000815250610107600086815260200190815260200160002060008201518160000160006101000a8154816001600160a01b0302191690836001600160a01b0316021790555060208201518160010160006101000a8154816001600160801b0302191690836001600160801b0316021790555060408201518160010160106101000a81548162ffffff021916908360020b62ffffff16021790555060608201518160010160136101000a81548162ffffff021916908360020b62ffffff16021790555060808201518160010160166101000a81548163ffffffff021916908363ffffffff16021790555060a0820151816002015560c0820151816003015560e08201518160040155610100820151816005015590505060405180604001604052808e6001600160a01b031663c03c25148e8d6040518363ffffffff1660e01b8152600401612d09929190600292830b8152910b602082015260400190565b60206040518083038186803b158015612d2157600080fd5b505afa158015612d35573d6000803e3d6000fd5b505050506040513d601f19601f82011682018060405250810190612d5991906157b5565b81526000602091820181905286815261010882526040902082518155910151600190910155612d8733613579565b5050612f05565b60008381526101076020526040902080548493506001600160a01b038d8116911614612de6576040517f9840420600000000000000000000000000000000000000000000000000000000815260040160405180910390fd5b600181015460028b810b600160801b909204900b141580612e1957506001810154600289810b600160981b909204900b14155b15612e50576040517f2baa8efe00000000000000000000000000000000000000000000000000000000815260040160405180910390fd5b612e5a33846130e0565b612e7757604051631eb49d6d60e11b815260040160405180910390fd5b612e808361370a565b612e89836138aa565b600181018054839190600090612ea99084906001600160801b031661582d565b82546101009290920a6001600160801b038181021990931691909216919091021790555060010180547fffffffffffff00000000ffffffffffffffffffffffffffffffffffffffffffff16600160b01b4263ffffffff16021790555b60008281526101076020908152604080832081516101208101835281546001600160a01b0316815260018201546001600160801b03811694820194909452600160801b8404600290810b938201849052600160981b8504810b6060830152600160b01b90940463ffffffff1660808201529281015460a0840152600381015460c0840152600481015460e084015260050154610100830152909190819061305d90612faf90613ec5565b6001600160a01b0316612fc58560600151613ec5565b6001600160a01b031685600001516001600160a01b031663a035b1fe6040518163ffffffff1660e01b815260040160206040518083038186803b15801561300b57600080fd5b505afa15801561301f573d6000803e3d6000fd5b505050506040513d601f19601f820116820180604052508101906130439190615660565b6001600160a01b0316876001600160801b03166001614211565b9150915084336001600160a01b03168f6001600160a01b03167fa0cbbe2e0e524c30e7105f393c94244cbc448c9a309724650d8ca7bb465f53958585896040516130c7939291906001600160801b0393841681529183166020830152909116604082015260600190565b60405180910390a4505050509998505050505050505050565b6000818152606760205260408120546001600160a01b031661316a5760405162461bcd60e51b815260206004820152602c60248201527f4552433732313a206f70657261746f7220717565727920666f72206e6f6e657860448201527f697374656e7420746f6b656e00000000000000000000000000000000000000006064820152608401610aeb565b60006131758361155b565b9050806001600160a01b0316846001600160a01b031614806131b05750836001600160a01b03166131a584610a65565b6001600160a01b0316145b806131e057506001600160a01b038082166000908152606a602090815260408083209388168352929052205460ff165b949350505050565b826001600160a01b03166131fb8261155b565b6001600160a01b0316146132775760405162461bcd60e51b815260206004820152602560248201527f4552433732313a207472616e736665722066726f6d20696e636f72726563742060448201527f6f776e65720000000000000000000000000000000000000000000000000000006064820152608401610aeb565b6001600160a01b0382166132f25760405162461bcd60e51b8152602060048201526024808201527f4552433732313a207472616e7366657220746f20746865207a65726f2061646460448201527f72657373000000000000000000000000000000000000000000000000000000006064820152608401610aeb565b6132fd838383614280565b613308600082612835565b6001600160a01b0383166000908152606860205260408120805460019290613331908490615693565b90915550506001600160a01b038216600090815260686020526040812080546001929061335f908490615858565b909155505060008181526067602052604080822080546001600160a01b0319166001600160a01b0386811691821790925591518493918716917fddf252ad1be2c89b69c2b068fc378daa952ba7f163c4a11628f55a4df523b3ef91a4505050565b6134216040518060400160405280600f81526020017f50616e67656120506f736974696f6e00000000000000000000000000000000008152506040518060400160405280600a81526020016950414e4745412d504f5360b01b815250614338565b4660ca556134f9604080518082018252600a81526950414e4745412d504f5360b01b6020918201528151808301835260018152603160f81b9082015281517f8b73c3c69bb8fe3d512ecc4cf759cc79239f7b179b0ffacaa9a75d522b39400f818301527f16d34b8f23ef02572737473f7ba87ffe21ee45c6bbade7dae4039edd04580f63818401527fc89efdaa54c0f20c7adf612882df0950f5a951637e0307cdcb4c672f298b8bc660608201524660808201523060a0808301919091528351808303909101815260c0909101909252815191012090565b60c9556135046143ad565b565b600054610100900460ff166135715760405162461bcd60e51b815260206004820152602b60248201527f496e697469616c697a61626c653a20636f6e7472616374206973206e6f74206960448201526a6e697469616c697a696e6760a81b6064820152608401610aeb565b613504614418565b60cc80546135ca9183916001600160801b031690600061359883615870565b91906101000a8154816001600160801b0302191690836001600160801b031602179055506001600160801b031661448a565b50565b806135d6575050565b610105546040517fb760faf90000000000000000000000000000000000000000000000000000000081526001600160a01b0384811660048301526101009092049091169063b760faf99083906024016000604051808303818588803b15801561363e57600080fd5b505af11580156118f4573d6000803e3d6000fd5b6000826001600160a01b03168260405160006040518083038185875af1925050503d806000811461369f576040519150601f19603f3d011682016040523d82523d6000602084013e6136a4565b606091505b5050905080610c3d5760405162461bcd60e51b815260206004820152601360248201527f4554485f5452414e534645525f4641494c4544000000000000000000000000006044820152606401610aeb565b6115556001600160a01b0385168484846145d8565b6000806000806137198561261e565b600098895261010760205260409098206004810193909355600583019190915560028201556003019490945550505050565b6000838152610107602052604080822080546001820154600480840154600585015495517f2df94b0f000000000000000000000000000000000000000000000000000000008152600160801b8404600290810b93820193909352600160981b90930490910b60248301526044820152606481019390935283926001600160a01b0390911690632df94b0f906084016040805180830381600087803b1580156137f257600080fd5b505af1158015613806573d6000803e3d6000fd5b505050506040513d601f19601f8201168201806040525081019061382a91906156aa565b600060048401819055600584015582549194509250613855906001600160a01b031686858588613b4f565b8054604080518581526020810185905288926001600160a01b03898116939116917f31135c84c98c756a9a84c21b514d356a17967948475c29a83db0e94f6ea5d073910160405180910390a450935093915050565b6000806138b683612490565b600094855261010860205260409094206001810191909155929092555050565b6000838152610107602090815260408083208054600180830154610108909552838620015492517f06f912f3000000000000000000000000000000000000000000000000000000008152600160801b8504600290810b6004830152600160981b90950490940b60248501526044840192909252916001600160a01b03909116906306f912f390606401602060405180830381600087803b15801561397957600080fd5b505af115801561398d573d6000803e3d6000fd5b505050506040513d601f19601f820116820180604052508101906139b191906157b5565b600086815261010860209081526040808320600101839055845481517ff7c618c1000000000000000000000000000000000000000000000000000000008152915194965092936001600160a01b039093169263f7c618c192600480840193919291829003018186803b158015613a2657600080fd5b505afa158015613a3a573d6000803e3d6000fd5b505050506040513d601f19601f82011682018060405250810190613a5e9190615660565b9050838015613a805750610105546001600160a01b0382811661010090920416145b15613a9457613a8f8584614671565b613ab2565b6001600160a01b038116613aa757613ab2565b613ab28186856146fc565b815460405184815287916001600160a01b03888116929116907f12b3409f4b5d248c86c1cfe84389e9973e1e40e144de2f43aac95d1d97fe12989060200160405180910390a450509392505050565b60cc8054600160801b90046001600160801b0316906010613b2183615870565b91906101000a8154816001600160801b0302191690836001600160801b03160217905550506135ca81614710565b6000856001600160a01b0316630dfe16816040518163ffffffff1660e01b815260040160206040518083038186803b158015613b8a57600080fd5b505afa158015613b9e573d6000803e3d6000fd5b505050506040513d601f19601f82011682018060405250810190613bc29190615660565b610105549091506001600160a01b0380831661010090920416148015613be55750815b15613bf957613bf48585614671565b613c04565b613c048186866146fc565b6000866001600160a01b031663d21220a76040518163ffffffff1660e01b815260040160206040518083038186803b158015613c3f57600080fd5b505afa158015613c53573d6000803e3d6000fd5b505050506040513d601f19601f82011682018060405250810190613c779190615660565b610105549091506001600160a01b0380831661010090920416148015613c9a5750825b15613cae57613ca98685614671565b6118f4565b6118f48187866146fc565b816001600160a01b0316836001600160a01b03161415613d1b5760405162461bcd60e51b815260206004820152601960248201527f4552433732313a20617070726f766520746f2063616c6c6572000000000000006044820152606401610aeb565b6001600160a01b038381166000818152606a6020908152604080832094871680845294825291829020805460ff191686151590811790915591519182527f17307eab39ab6107e8899845ad3d59bd9653f200f220920489ca2b5937696c31910160405180910390a3505050565b613d938484846131e8565b613d9f848484846147b7565b6115555760405162461bcd60e51b815260206004820152603260248201527f4552433732313a207472616e7366657220746f206e6f6e20455243373231526560448201527f63656976657220696d706c656d656e74657200000000000000000000000000006064820152608401610aeb565b600080806000198587098587029250828110838203039150508060001415613e4b5760008411613e4057600080fd5b508290049050613ebe565b808411613e5757600080fd5b6000848688096000868103871696879004966002600389028118808a02820302808a02820302808a02820302808a02820302808a02820302808a02909103029181900381900460010186841190950394909402919094039290920491909117919091029150505b9392505050565b60008060008360020b12613edc578260020b613ee9565b8260020b613ee99061588d565b9050613ef8620d89e7196158c6565b62ffffff16811115613f36576040517ff87dc40c00000000000000000000000000000000000000000000000000000000815260040160405180910390fd5b600060018216613f4a57600160801b613f5c565b6ffffcb933bd6fad37aa2d162d1a5940015b70ffffffffffffffffffffffffffffffffff1690506002821615613f90576ffff97272373d413259a46990580e213a0260801c5b6004821615613faf576ffff2e50f5f656932ef12357cf3c7fdcc0260801c5b6008821615613fce576fffe5caca7e10e4e61c3624eaa0941cd00260801c5b6010821615613fed576fffcb9843d60f6159c9db58835c9266440260801c5b602082161561400c576fff973b41fa98c081472e6896dfb254c00260801c5b604082161561402b576fff2ea16466c96a3843ec78b326b528610260801c5b608082161561404a576ffe5dee046a99a2a811c461f1969c30530260801c5b61010082161561406a576ffcbe86c7900a88aedcffc83b479aa3a40260801c5b61020082161561408a576ff987a7253ac413176f2b074cf7815e540260801c5b6104008216156140aa576ff3392b0822b70005940c7a398e4b70f30260801c5b6108008216156140ca576fe7159475a2c29b7443b29c7fa6e889d90260801c5b6110008216156140ea576fd097f3bdfd2022b8845ad8f792aa58250260801c5b61200082161561410a576fa9f746462d870fdf8a65dc1f90e061e50260801c5b61400082161561412a576f70d869a156d2a1b890bb3df62baf32f70260801c5b61800082161561414a576f31be135f97d08fd981231505542fcfa60260801c5b6201000082161561416b576f09aa508b5b7a84e1c677de54f3e99bc90260801c5b6202000082161561418b576e5d6af8dedb81196699c329225ee6040260801c5b620400008216156141aa576d2216e584f5fa1ea926041bedfe980260801c5b620800008216156141c7576b048a170391f7dc42444e8fa20260801c5b60008460020b13156141e85780600019816141e4576141e46158e9565b0490505b6401000000008106156141fc5760016141ff565b60005b60ff16602082901c0192505050919050565b6000808486116142365761422f61422a8589898761491a565b614966565b9050614276565b8685116142535761424c61422a85898987614981565b9150614276565b61426261422a85878987614981565b915061427361422a8589888761491a565b90505b9550959350505050565b6001600160a01b0383166142db576142d681609980546000838152609a60205260408120829055600182018355919091527f72a152ddfb8e864297c917af52ea6c1c68aead0fee1a62673fcc7e0c94979d000155565b6142fe565b816001600160a01b0316836001600160a01b0316146142fe576142fe83826149d2565b6001600160a01b03821661431557610c3d81614a6f565b826001600160a01b0316826001600160a01b031614610c3d57610c3d8282614b1e565b600054610100900460ff166143a35760405162461bcd60e51b815260206004820152602b60248201527f496e697469616c697a61626c653a20636f6e7472616374206973206e6f74206960448201526a6e697469616c697a696e6760a81b6064820152608401610aeb565b611e7c8282614b62565b600054610100900460ff166135045760405162461bcd60e51b815260206004820152602b60248201527f496e697469616c697a61626c653a20636f6e7472616374206973206e6f74206960448201526a6e697469616c697a696e6760a81b6064820152608401610aeb565b600054610100900460ff166144835760405162461bcd60e51b815260206004820152602b60248201527f496e697469616c697a61626c653a20636f6e7472616374206973206e6f74206960448201526a6e697469616c697a696e6760a81b6064820152608401610aeb565b600160cf55565b6001600160a01b0382166144e05760405162461bcd60e51b815260206004820181905260248201527f4552433732313a206d696e7420746f20746865207a65726f20616464726573736044820152606401610aeb565b6000818152606760205260409020546001600160a01b0316156145455760405162461bcd60e51b815260206004820152601c60248201527f4552433732313a20746f6b656e20616c7265616479206d696e746564000000006044820152606401610aeb565b61455160008383614280565b6001600160a01b038216600090815260686020526040812080546001929061457a908490615858565b909155505060008181526067602052604080822080546001600160a01b0319166001600160a01b03861690811790915590518392907fddf252ad1be2c89b69c2b068fc378daa952ba7f163c4a11628f55a4df523b3ef908290a45050565b6040516001600160a01b03808516602483015283166044820152606481018290526115559085907f23b872dd00000000000000000000000000000000000000000000000000000000906084015b60408051601f198184030181529190526020810180517bffffffffffffffffffffffffffffffffffffffffffffffffffffffff166001600160e01b031990931692909217909152614bf4565b8061467a575050565b610105546040517f205c28780000000000000000000000000000000000000000000000000000000081526001600160a01b038481166004830152602482018490526101009092049091169063205c287890604401600060405180830381600087803b1580156146e857600080fd5b505af11580156120aa573d6000803e3d6000fd5b610c3d6001600160a01b0384168383614cd9565b600061471b8261155b565b905061472981600084614280565b614734600083612835565b6001600160a01b038116600090815260686020526040812080546001929061475d908490615693565b909155505060008281526067602052604080822080546001600160a01b0319169055518391906001600160a01b038416907fddf252ad1be2c89b69c2b068fc378daa952ba7f163c4a11628f55a4df523b3ef908390a45050565b60006001600160a01b0384163b1561490f57604051630a85bd0160e11b81526001600160a01b0385169063150b7a02906147fb9033908990889088906004016158ff565b602060405180830381600087803b15801561481557600080fd5b505af1925050508015614845575060408051601f3d908101601f191682019092526148429181019061593b565b60015b6148f5573d808015614873576040519150601f19603f3d011682016040523d82523d6000602084013e614878565b606091505b5080516148ed5760405162461bcd60e51b815260206004820152603260248201527f4552433732313a207472616e7366657220746f206e6f6e20455243373231526560448201527f63656976657220696d706c656d656e74657200000000000000000000000000006064820152608401610aeb565b805181602001fd5b6001600160e01b031916630a85bd0160e11b1490506131e0565b506001949350505050565b600081156149435761493c858585036c01000000000000000000000000614d22565b90506131e0565b61495d858585036c01000000000000000000000000613e11565b95945050505050565b806001600160801b038116811461497c57600080fd5b919050565b600081156149a95761493c61499d606087901b86860386614d22565b85808204910615150190565b836149bb606087901b82860386613e11565b816149c8576149c86158e9565b0495945050505050565b600060016149df846115e6565b6149e99190615693565b600083815260986020526040902054909150808214614a3c576001600160a01b03841660009081526097602090815260408083208584528252808320548484528184208190558352609890915290208190555b5060009182526098602090815260408084208490556001600160a01b039094168352609781528383209183525290812055565b609954600090614a8190600190615693565b6000838152609a602052604081205460998054939450909284908110614aa957614aa961567d565b906000526020600020015490508060998381548110614aca57614aca61567d565b6000918252602080832090910192909255828152609a90915260408082208490558582528120556099805480614b0257614b02615958565b6001900381819060005260206000200160009055905550505050565b6000614b29836115e6565b6001600160a01b039093166000908152609760209081526040808320868452825280832085905593825260989052919091209190915550565b600054610100900460ff16614bcd5760405162461bcd60e51b815260206004820152602b60248201527f496e697469616c697a61626c653a20636f6e7472616374206973206e6f74206960448201526a6e697469616c697a696e6760a81b6064820152608401610aeb565b8151614be0906065906020850190614e73565b508051610c3d906066906020840190614e73565b6000614c49826040518060400160405280602081526020017f5361666545524332303a206c6f772d6c6576656c2063616c6c206661696c6564815250856001600160a01b0316614d5f9092919063ffffffff16565b805190915015610c3d5780806020019051810190614c679190615643565b610c3d5760405162461bcd60e51b815260206004820152602a60248201527f5361666545524332303a204552433230206f7065726174696f6e20646964206e60448201527f6f742073756363656564000000000000000000000000000000000000000000006064820152608401610aeb565b6040516001600160a01b038316602482015260448101829052610c3d9084907fa9059cbb0000000000000000000000000000000000000000000000000000000090606401614625565b6000614d2f848484613e11565b90508180614d3f57614d3f6158e9565b83850915613ebe576000198110614d5557600080fd5b6001019392505050565b60606131e08484600085856001600160a01b0385163b614dc15760405162461bcd60e51b815260206004820152601d60248201527f416464726573733a2063616c6c20746f206e6f6e2d636f6e74726163740000006044820152606401610aeb565b600080866001600160a01b03168587604051614ddd919061596e565b60006040518083038185875af1925050503d8060008114614e1a576040519150601f19603f3d011682016040523d82523d6000602084013e614e1f565b606091505b5091509150614e2f828286614e3a565b979650505050505050565b60608315614e49575081613ebe565b825115614e595782518084602001fd5b8160405162461bcd60e51b8152600401610aeb9190614fc9565b828054614e7f906155ca565b90600052602060002090601f016020900481019282614ea15760008555614ee7565b82601f10614eba57805160ff1916838001178555614ee7565b82800160010185558215614ee7579182015b82811115614ee7578251825591602001919060010190614ecc565b50614ef3929150614ef7565b5090565b5b80821115614ef35760008155600101614ef8565b6001600160a01b03811681146135ca57600080fd5b600060208284031215614f3357600080fd5b8135613ebe81614f0c565b6001600160e01b0319811681146135ca57600080fd5b600060208284031215614f6657600080fd5b8135613ebe81614f3e565b60005b83811015614f8c578181015183820152602001614f74565b838111156115555750506000910152565b60008151808452614fb5816020860160208601614f71565b601f01601f19169290920160200192915050565b602081526000613ebe6020830184614f9d565b600060208284031215614fee57600080fd5b5035919050565b6000806040838503121561500857600080fd5b823561501381614f0c565b946020939093013593505050565b8060020b81146135ca57600080fd5b80356001600160801b038116811461497c57600080fd5b600080600080600080600080610100898b03121561506457600080fd5b883561506f81614f0c565b9750602089013561507f81615021565b9650604089013561508f81615021565b9550606089013561509f81615021565b945060808901356150af81615021565b93506150bd60a08a01615030565b925060c0890135915060e089013590509295985092959890939650565b6000806000606084860312156150ef57600080fd5b83356150fa81614f0c565b9250602084013561510a81614f0c565b929592945050506040919091013590565b6000806040838503121561512e57600080fd5b823561513981614f0c565b9150602083013561514981614f0c565b809150509250929050565b6000806000806080858703121561516a57600080fd5b843561517581614f0c565b9350602085013561518581614f0c565b93969395505050506040820135916060013590565b803560ff8116811461497c57600080fd5b60008060008060008060c087890312156151c457600080fd5b86356151cf81614f0c565b955060208701359450604087013593506151eb6060880161519a565b92506080870135915060a087013590509295509295509295565b80151581146135ca57600080fd5b60008060006060848603121561522857600080fd5b83359250602084013561523a81614f0c565b9150604084013561524a81615205565b809150509250925092565b60008060008060008060c0878903121561526e57600080fd5b8635955061527e60208801615030565b9450604087013561528e81614f0c565b9350606087013592506080870135915060a08701356152ac81615205565b809150509295509295509295565b600080604083850312156152cd57600080fd5b82356152d881614f0c565b9150602083013561514981615205565b60008060008060008060c0878903121561530157600080fd5b863561530c81614f0c565b9550602087013561531c81614f0c565b9450604087013593506151eb6060880161519a565b6000806020838503121561534457600080fd5b823567ffffffffffffffff8082111561535c57600080fd5b818501915085601f83011261537057600080fd5b81358181111561537f57600080fd5b8660208260051b850101111561539457600080fd5b60209290920196919550909350505050565b6000602080830181845280855180835260408601915060408160051b870101925083870160005b828110156153fb57603f198886030184526153e9858351614f9d565b945092850192908501906001016153cd565b5092979650505050505050565b60008060008060008060008060006101208a8c03121561542757600080fd5b893561543281614f0c565b985060208a013561544281615021565b975060408a013561545281615021565b965060608a013561546281615021565b955060808a013561547281615021565b945061548060a08b01615030565b935061548e60c08b01615030565b925060e08a013591506101008a013590509295985092959850929598565b634e487b7160e01b600052604160045260246000fd5b604051601f8201601f1916810167ffffffffffffffff811182821017156154eb576154eb6154ac565b604052919050565b600067ffffffffffffffff82111561550d5761550d6154ac565b50601f01601f191660200190565b6000806000806080858703121561553157600080fd5b843561553c81614f0c565b9350602085013561554c81614f0c565b925060408501359150606085013567ffffffffffffffff81111561556f57600080fd5b8501601f8101871361558057600080fd5b803561559361558e826154f3565b6154c2565b8181528860208385010111156155a857600080fd5b8160208401602083013760006020838301015280935050505092959194509250565b600181811c908216806155de57607f821691505b602082108114156155ff57634e487b7160e01b600052602260045260246000fd5b50919050565b634e487b7160e01b600052601160045260246000fd5b60006001600160801b038381169083168181101561563b5761563b615605565b039392505050565b60006020828403121561565557600080fd5b8151613ebe81615205565b60006020828403121561567257600080fd5b8151613ebe81614f0c565b634e487b7160e01b600052603260045260246000fd5b6000828210156156a5576156a5615605565b500390565b600080604083850312156156bd57600080fd5b505080516020909101519092909150565b6000808335601e198436030181126156e557600080fd5b83018035915067ffffffffffffffff82111561570057600080fd5b60200191503681900382131561571557600080fd5b9250929050565b8183823760009101908152919050565b60006020828403121561573e57600080fd5b815167ffffffffffffffff81111561575557600080fd5b8201601f8101841361576657600080fd5b805161577461558e826154f3565b81815285602083850101111561578957600080fd5b61495d826020830160208601614f71565b60006000198214156157ae576157ae615605565b5060010190565b6000602082840312156157c757600080fd5b5051919050565b600080600080608085870312156157e457600080fd5b84516157ef81615021565b602086015190945061580081615021565b604086015190935061581181615021565b606086015190925061582281615021565b939692955090935050565b60006001600160801b0380831681851680830382111561584f5761584f615605565b01949350505050565b6000821982111561586b5761586b615605565b500190565b60006001600160801b0380831681811415614d5557614d55615605565b60007f80000000000000000000000000000000000000000000000000000000000000008214156158bf576158bf615605565b5060000390565b60008160020b627fffff198114156158e0576158e0615605565b60000392915050565b634e487b7160e01b600052601260045260246000fd5b60006001600160a01b038087168352808616602084015250836040830152608060608301526159316080830184614f9d565b9695505050505050565b60006020828403121561594d57600080fd5b8151613ebe81614f3e565b634e487b7160e01b600052603160045260246000fd5b60008251615980818460208701614f71565b919091019291505056fea2646970667358221220596755e814637cb91d4b8c8f444ad7fc66383a0878b4c254b4af01305031411864736f6c63430008090033",
  "libraries": {
    "TickIndex": "0x888b075cd92692761aCb649Da39988cd73966732"
  }
}