{
  "address": "0xa88b52655C2Ce3F3f0cCD75AcAE8883225a51Ce0",
  "abi": [
    {
      "inputs": [],
      "name": "AlreadyPriceInitialized",
      "type": "error"
    },
    {
      "inputs": [],
      "name": "InvalidParam",
      "type": "error"
    },
    {
      "inputs": [],
      "name": "InvalidSwapFee",
      "type": "error"
    },
    {
      "inputs": [],
      "name": "InvalidTick",
      "type": "error"
    },
    {
      "inputs": [],
      "name": "LiquidityInsufficient",
      "type": "error"
    },
    {
      "inputs": [],
      "name": "LiquidityOverflow",
      "type": "error"
    },
    {
      "inputs": [],
      "name": "LiquidityZero",
      "type": "error"
    },
    {
      "inputs": [],
      "name": "Locked",
      "type": "error"
    },
    {
      "inputs": [],
      "name": "LowerEven",
      "type": "error"
    },
    {
      "inputs": [],
      "name": "NotAuthorized",
      "type": "error"
    },
    {
      "inputs": [],
      "name": "Overflow",
      "type": "error"
    },
    {
      "inputs": [],
      "name": "PriceOutOfBounds",
      "type": "error"
    },
    {
      "inputs": [],
      "name": "TickOutOfBounds",
      "type": "error"
    },
    {
      "inputs": [],
      "name": "Token0Missing",
      "type": "error"
    },
    {
      "inputs": [],
      "name": "Token1Missing",
      "type": "error"
    },
    {
      "inputs": [],
      "name": "UpperOdd",
      "type": "error"
    },
    {
      "inputs": [],
      "name": "ZeroAddress",
      "type": "error"
    },
    {
      "anonymous": false,
      "inputs": [
        {
          "indexed": false,
          "internalType": "address",
          "name": "token",
          "type": "address"
        },
        {
          "indexed": false,
          "internalType": "uint256",
          "name": "amount",
          "type": "uint256"
        },
        {
          "indexed": false,
          "internalType": "uint256",
          "name": "startTime",
          "type": "uint256"
        },
        {
          "indexed": false,
          "internalType": "uint256",
          "name": "period",
          "type": "uint256"
        }
      ],
      "name": "DistributeReward",
      "type": "event"
    },
    {
      "inputs": [],
      "name": "airdrop0PerSecond",
      "outputs": [
        {
          "internalType": "uint256",
          "name": "",
          "type": "uint256"
        }
      ],
      "stateMutability": "view",
      "type": "function"
    },
    {
      "inputs": [],
      "name": "airdrop1PerSecond",
      "outputs": [
        {
          "internalType": "uint256",
          "name": "",
          "type": "uint256"
        }
      ],
      "stateMutability": "view",
      "type": "function"
    },
    {
      "inputs": [],
      "name": "airdropPeriod",
      "outputs": [
        {
          "internalType": "uint256",
          "name": "",
          "type": "uint256"
        }
      ],
      "stateMutability": "view",
      "type": "function"
    },
    {
      "inputs": [],
      "name": "airdropStartTime",
      "outputs": [
        {
          "internalType": "uint256",
          "name": "",
          "type": "uint256"
        }
      ],
      "stateMutability": "view",
      "type": "function"
    },
    {
      "inputs": [
        {
          "internalType": "int24",
          "name": "lower",
          "type": "int24"
        },
        {
          "internalType": "int24",
          "name": "upper",
          "type": "int24"
        },
        {
          "internalType": "uint128",
          "name": "amount",
          "type": "uint128"
        }
      ],
      "name": "burn",
      "outputs": [
        {
          "internalType": "uint256",
          "name": "token0Amount",
          "type": "uint256"
        },
        {
          "internalType": "uint256",
          "name": "token1Amount",
          "type": "uint256"
        }
      ],
      "stateMutability": "nonpayable",
      "type": "function"
    },
    {
      "inputs": [
        {
          "internalType": "int24",
          "name": "lower",
          "type": "int24"
        },
        {
          "internalType": "int24",
          "name": "upper",
          "type": "int24"
        },
        {
          "internalType": "uint256",
          "name": "desiredToken0Fees",
          "type": "uint256"
        },
        {
          "internalType": "uint256",
          "name": "desiredToken1Fees",
          "type": "uint256"
        }
      ],
      "name": "collect",
      "outputs": [
        {
          "internalType": "uint256",
          "name": "token0Fees",
          "type": "uint256"
        },
        {
          "internalType": "uint256",
          "name": "token1Fees",
          "type": "uint256"
        }
      ],
      "stateMutability": "nonpayable",
      "type": "function"
    },
    {
      "inputs": [],
      "name": "collectProtocolFee",
      "outputs": [
        {
          "internalType": "uint128",
          "name": "amount0",
          "type": "uint128"
        },
        {
          "internalType": "uint128",
          "name": "amount1",
          "type": "uint128"
        }
      ],
      "stateMutability": "nonpayable",
      "type": "function"
    },
    {
      "inputs": [
        {
          "internalType": "int24",
          "name": "lower",
          "type": "int24"
        },
        {
          "internalType": "int24",
          "name": "upper",
          "type": "int24"
        },
        {
          "internalType": "uint256",
          "name": "desiredReward",
          "type": "uint256"
        }
      ],
      "name": "collectReward",
      "outputs": [
        {
          "internalType": "uint256",
          "name": "rewardAmount",
          "type": "uint256"
        }
      ],
      "stateMutability": "nonpayable",
      "type": "function"
    },
    {
      "inputs": [],
      "name": "createdBlockNumber",
      "outputs": [
        {
          "internalType": "uint256",
          "name": "",
          "type": "uint256"
        }
      ],
      "stateMutability": "view",
      "type": "function"
    },
    {
      "inputs": [],
      "name": "createdTime",
      "outputs": [
        {
          "internalType": "uint256",
          "name": "",
          "type": "uint256"
        }
      ],
      "stateMutability": "view",
      "type": "function"
    },
    {
      "inputs": [
        {
          "internalType": "uint128",
          "name": "airdrop0",
          "type": "uint128"
        },
        {
          "internalType": "uint128",
          "name": "airdrop1",
          "type": "uint128"
        },
        {
          "internalType": "uint128",
          "name": "reward",
          "type": "uint128"
        },
        {
          "internalType": "uint256",
          "name": "startTime",
          "type": "uint256"
        },
        {
          "internalType": "uint256",
          "name": "period",
          "type": "uint256"
        }
      ],
      "name": "depositAirdropAndReward",
      "outputs": [],
      "stateMutability": "nonpayable",
      "type": "function"
    },
    {
      "inputs": [],
      "name": "depositedReward",
      "outputs": [
        {
          "internalType": "uint128",
          "name": "",
          "type": "uint128"
        }
      ],
      "stateMutability": "view",
      "type": "function"
    },
    {
      "inputs": [],
      "name": "factory",
      "outputs": [
        {
          "internalType": "address",
          "name": "",
          "type": "address"
        }
      ],
      "stateMutability": "view",
      "type": "function"
    },
    {
      "inputs": [],
      "name": "feeGrowthGlobal0",
      "outputs": [
        {
          "internalType": "uint256",
          "name": "",
          "type": "uint256"
        }
      ],
      "stateMutability": "view",
      "type": "function"
    },
    {
      "inputs": [],
      "name": "feeGrowthGlobal1",
      "outputs": [
        {
          "internalType": "uint256",
          "name": "",
          "type": "uint256"
        }
      ],
      "stateMutability": "view",
      "type": "function"
    },
    {
      "inputs": [
        {
          "internalType": "address",
          "name": "recipient",
          "type": "address"
        },
        {
          "internalType": "uint256",
          "name": "amount0",
          "type": "uint256"
        },
        {
          "internalType": "uint256",
          "name": "amount1",
          "type": "uint256"
        },
        {
          "internalType": "bytes",
          "name": "data",
          "type": "bytes"
        }
      ],
      "name": "flash",
      "outputs": [],
      "stateMutability": "nonpayable",
      "type": "function"
    },
    {
      "inputs": [],
      "name": "getAssets",
      "outputs": [
        {
          "internalType": "address[]",
          "name": "assets",
          "type": "address[]"
        }
      ],
      "stateMutability": "view",
      "type": "function"
    },
    {
      "inputs": [],
      "name": "getImmutables",
      "outputs": [
        {
          "internalType": "uint128",
          "name": "_MAX_TICK_LIQUIDITY",
          "type": "uint128"
        },
        {
          "internalType": "uint24",
          "name": "_tickSpacing",
          "type": "uint24"
        },
        {
          "internalType": "uint24",
          "name": "_swapFee",
          "type": "uint24"
        },
        {
          "internalType": "address",
          "name": "_factory",
          "type": "address"
        },
        {
          "internalType": "address",
          "name": "_masterDeployer",
          "type": "address"
        },
        {
          "internalType": "address",
          "name": "_token0",
          "type": "address"
        },
        {
          "internalType": "address",
          "name": "_token1",
          "type": "address"
        }
      ],
      "stateMutability": "view",
      "type": "function"
    },
    {
      "inputs": [],
      "name": "getPriceAndNearestTicks",
      "outputs": [
        {
          "internalType": "uint160",
          "name": "_price",
          "type": "uint160"
        },
        {
          "internalType": "int24",
          "name": "_nearestTick",
          "type": "int24"
        }
      ],
      "stateMutability": "view",
      "type": "function"
    },
    {
      "inputs": [],
      "name": "getReserves",
      "outputs": [
        {
          "internalType": "uint128",
          "name": "_reserve0",
          "type": "uint128"
        },
        {
          "internalType": "uint128",
          "name": "_reserve1",
          "type": "uint128"
        }
      ],
      "stateMutability": "view",
      "type": "function"
    },
    {
      "inputs": [],
      "name": "getSecondsGrowthAndLastObservation",
      "outputs": [
        {
          "internalType": "uint160",
          "name": "_secondsGrowthGlobal",
          "type": "uint160"
        },
        {
          "internalType": "uint32",
          "name": "_lastObservation",
          "type": "uint32"
        }
      ],
      "stateMutability": "view",
      "type": "function"
    },
    {
      "inputs": [],
      "name": "getTokenProtocolFees",
      "outputs": [
        {
          "internalType": "uint128",
          "name": "_token0ProtocolFee",
          "type": "uint128"
        },
        {
          "internalType": "uint128",
          "name": "_token1ProtocolFee",
          "type": "uint128"
        }
      ],
      "stateMutability": "view",
      "type": "function"
    },
    {
      "inputs": [
        {
          "internalType": "bytes",
          "name": "_deployData",
          "type": "bytes"
        },
        {
          "internalType": "address",
          "name": "_masterDeployer",
          "type": "address"
        }
      ],
      "name": "initialize",
      "outputs": [],
      "stateMutability": "nonpayable",
      "type": "function"
    },
    {
      "inputs": [],
      "name": "liquidity",
      "outputs": [
        {
          "internalType": "uint128",
          "name": "",
          "type": "uint128"
        }
      ],
      "stateMutability": "view",
      "type": "function"
    },
    {
      "inputs": [
        {
          "components": [
            {
              "internalType": "int24",
              "name": "lowerOld",
              "type": "int24"
            },
            {
              "internalType": "int24",
              "name": "lower",
              "type": "int24"
            },
            {
              "internalType": "int24",
              "name": "upperOld",
              "type": "int24"
            },
            {
              "internalType": "int24",
              "name": "upper",
              "type": "int24"
            },
            {
              "internalType": "uint128",
              "name": "amount0Desired",
              "type": "uint128"
            },
            {
              "internalType": "uint128",
              "name": "amount1Desired",
              "type": "uint128"
            }
          ],
          "internalType": "struct IConcentratedLiquidityPoolStruct.MintParams",
          "name": "mintParams",
          "type": "tuple"
        }
      ],
      "name": "mint",
      "outputs": [
        {
          "internalType": "uint256",
          "name": "liquidityMinted",
          "type": "uint256"
        }
      ],
      "stateMutability": "nonpayable",
      "type": "function"
    },
    {
      "inputs": [],
      "name": "nearestTick",
      "outputs": [
        {
          "internalType": "int24",
          "name": "",
          "type": "int24"
        }
      ],
      "stateMutability": "view",
      "type": "function"
    },
    {
      "inputs": [
        {
          "internalType": "address",
          "name": "",
          "type": "address"
        },
        {
          "internalType": "int24",
          "name": "",
          "type": "int24"
        },
        {
          "internalType": "int24",
          "name": "",
          "type": "int24"
        }
      ],
      "name": "positionRewards",
      "outputs": [
        {
          "internalType": "uint256",
          "name": "rewardGrowthInsideLast",
          "type": "uint256"
        },
        {
          "internalType": "uint128",
          "name": "rewardOwed",
          "type": "uint128"
        }
      ],
      "stateMutability": "view",
      "type": "function"
    },
    {
      "inputs": [
        {
          "internalType": "address",
          "name": "",
          "type": "address"
        },
        {
          "internalType": "int24",
          "name": "",
          "type": "int24"
        },
        {
          "internalType": "int24",
          "name": "",
          "type": "int24"
        }
      ],
      "name": "positions",
      "outputs": [
        {
          "internalType": "uint128",
          "name": "liquidity",
          "type": "uint128"
        },
        {
          "internalType": "uint256",
          "name": "feeGrowthInside0Last",
          "type": "uint256"
        },
        {
          "internalType": "uint256",
          "name": "feeGrowthInside1Last",
          "type": "uint256"
        },
        {
          "internalType": "uint128",
          "name": "feeOwed0",
          "type": "uint128"
        },
        {
          "internalType": "uint128",
          "name": "feeOwed1",
          "type": "uint128"
        }
      ],
      "stateMutability": "view",
      "type": "function"
    },
    {
      "inputs": [],
      "name": "price",
      "outputs": [
        {
          "internalType": "uint160",
          "name": "",
          "type": "uint160"
        }
      ],
      "stateMutability": "view",
      "type": "function"
    },
    {
      "inputs": [],
      "name": "protocolFee",
      "outputs": [
        {
          "internalType": "uint256",
          "name": "",
          "type": "uint256"
        }
      ],
      "stateMutability": "view",
      "type": "function"
    },
    {
      "inputs": [
        {
          "internalType": "int24",
          "name": "lowerTick",
          "type": "int24"
        },
        {
          "internalType": "int24",
          "name": "upperTick",
          "type": "int24"
        }
      ],
      "name": "rangeFeeGrowth",
      "outputs": [
        {
          "internalType": "uint256",
          "name": "feeGrowthInside0",
          "type": "uint256"
        },
        {
          "internalType": "uint256",
          "name": "feeGrowthInside1",
          "type": "uint256"
        }
      ],
      "stateMutability": "view",
      "type": "function"
    },
    {
      "inputs": [
        {
          "internalType": "int24",
          "name": "lowerTick",
          "type": "int24"
        },
        {
          "internalType": "int24",
          "name": "upperTick",
          "type": "int24"
        }
      ],
      "name": "rangeRewardGrowth",
      "outputs": [
        {
          "internalType": "uint256",
          "name": "rewardGrowthInside",
          "type": "uint256"
        }
      ],
      "stateMutability": "view",
      "type": "function"
    },
    {
      "inputs": [
        {
          "internalType": "address",
          "name": "_logger",
          "type": "address"
        }
      ],
      "name": "registerLogger",
      "outputs": [],
      "stateMutability": "nonpayable",
      "type": "function"
    },
    {
      "inputs": [],
      "name": "rewardGrowthGlobal",
      "outputs": [
        {
          "internalType": "uint256",
          "name": "",
          "type": "uint256"
        }
      ],
      "stateMutability": "view",
      "type": "function"
    },
    {
      "inputs": [
        {
          "internalType": "int24",
          "name": "",
          "type": "int24"
        }
      ],
      "name": "rewardGrowthOutsidePerTicks",
      "outputs": [
        {
          "internalType": "uint256",
          "name": "",
          "type": "uint256"
        }
      ],
      "stateMutability": "view",
      "type": "function"
    },
    {
      "inputs": [],
      "name": "rewardPerSecond",
      "outputs": [
        {
          "internalType": "uint256",
          "name": "",
          "type": "uint256"
        }
      ],
      "stateMutability": "view",
      "type": "function"
    },
    {
      "inputs": [],
      "name": "rewardToken",
      "outputs": [
        {
          "internalType": "address",
          "name": "",
          "type": "address"
        }
      ],
      "stateMutability": "view",
      "type": "function"
    },
    {
      "inputs": [
        {
          "internalType": "uint160",
          "name": "_price",
          "type": "uint160"
        }
      ],
      "name": "setPrice",
      "outputs": [],
      "stateMutability": "nonpayable",
      "type": "function"
    },
    {
      "inputs": [
        {
          "internalType": "uint256",
          "name": "_protocolFee",
          "type": "uint256"
        }
      ],
      "name": "setProtocolFee",
      "outputs": [],
      "stateMutability": "nonpayable",
      "type": "function"
    },
    {
      "inputs": [
        {
          "internalType": "bytes",
          "name": "data",
          "type": "bytes"
        }
      ],
      "name": "swap",
      "outputs": [
        {
          "internalType": "uint256",
          "name": "amountOut",
          "type": "uint256"
        }
      ],
      "stateMutability": "nonpayable",
      "type": "function"
    },
    {
      "inputs": [],
      "name": "swapFee",
      "outputs": [
        {
          "internalType": "uint24",
          "name": "",
          "type": "uint24"
        }
      ],
      "stateMutability": "view",
      "type": "function"
    },
    {
      "inputs": [],
      "name": "swapFeeGrowthGlobal0",
      "outputs": [
        {
          "internalType": "uint256",
          "name": "",
          "type": "uint256"
        }
      ],
      "stateMutability": "view",
      "type": "function"
    },
    {
      "inputs": [],
      "name": "swapFeeGrowthGlobal1",
      "outputs": [
        {
          "internalType": "uint256",
          "name": "",
          "type": "uint256"
        }
      ],
      "stateMutability": "view",
      "type": "function"
    },
    {
      "inputs": [],
      "name": "tickSpacing",
      "outputs": [
        {
          "internalType": "uint24",
          "name": "",
          "type": "uint24"
        }
      ],
      "stateMutability": "view",
      "type": "function"
    },
    {
      "inputs": [
        {
          "internalType": "int24",
          "name": "",
          "type": "int24"
        }
      ],
      "name": "ticks",
      "outputs": [
        {
          "internalType": "int24",
          "name": "previousTick",
          "type": "int24"
        },
        {
          "internalType": "int24",
          "name": "nextTick",
          "type": "int24"
        },
        {
          "internalType": "uint128",
          "name": "liquidity",
          "type": "uint128"
        },
        {
          "internalType": "uint256",
          "name": "feeGrowthOutside0",
          "type": "uint256"
        },
        {
          "internalType": "uint256",
          "name": "feeGrowthOutside1",
          "type": "uint256"
        },
        {
          "internalType": "uint160",
          "name": "secondsGrowthOutside",
          "type": "uint160"
        }
      ],
      "stateMutability": "view",
      "type": "function"
    },
    {
      "inputs": [],
      "name": "token0",
      "outputs": [
        {
          "internalType": "address",
          "name": "",
          "type": "address"
        }
      ],
      "stateMutability": "view",
      "type": "function"
    },
    {
      "inputs": [],
      "name": "token1",
      "outputs": [
        {
          "internalType": "address",
          "name": "",
          "type": "address"
        }
      ],
      "stateMutability": "view",
      "type": "function"
    },
    {
      "inputs": [],
      "name": "totalTicks",
      "outputs": [
        {
          "internalType": "uint256",
          "name": "",
          "type": "uint256"
        }
      ],
      "stateMutability": "view",
      "type": "function"
    }
  ],
  "transactionHash": "0x0545bf144c45402e99624e9ccf8041ff99e40dbe629428539f46d5ebc93840da",
  "args": [],
  "numDeployments": 2,
  "solcInputHash": "289d91a609d0c0b85e89e1d5b1dcec10",
  "bytecode": "0x608060405234801561001057600080fd5b50615a8580620000216000396000f3fe608060405234801561001057600080fd5b50600436106103205760003560e01c8063a34123a7116101a7578063cf78756b116100ee578063f30dba9311610097578063f949e8b711610071578063f949e8b7146108e0578063fa1a169c146108e8578063fb5d80b3146108f157600080fd5b8063f30dba93146107c4578063f719dac61461086f578063f7c618c1146108cd57600080fd5b8063d5514792116100c8578063d55147921461077e578063d90bda4e1461079e578063e5ff7f46146107b157600080fd5b8063cf78756b1461074e578063d0c93a7c14610756578063d21220a71461076b57600080fd5b8063bd7d1eea11610150578063caa4b46a1161012a578063caa4b46a14610720578063cce2df0314610728578063cf5431531461073b57600080fd5b8063bd7d1eea146106e7578063c03c2514146106fa578063c45a01551461070d57600080fd5b8063b0e21e8a11610181578063b0e21e8a1461062a578063b2f4bdb014610633578063bcdb4dad1461063c57600080fd5b8063a34123a714610572578063aaca1b4d14610585578063acfe88f81461061757600080fd5b806367e4ac2c1161026b5780638c347f9b116102145780639da12096116101ee5780639da1209614610530578063a00e8f2914610538578063a035b1fe1461055f57600080fd5b80638c347f9b146104f55780638f10369a1461051e578063956afe451461052757600080fd5b8063735541d111610245578063735541d1146104d0578063787dce3d146104d957806384e02017146104ec57600080fd5b806367e4ac2c146104865780636d59d8021461049b57806370ed1b86146104c757600080fd5b80632df94b0f116102cd57806354cf2aeb116102a757806354cf2aeb1461043e578063627dd56a1461046a57806366f657c51461047d57600080fd5b80632df94b0f146103f857806340306fb614610420578063490e6cbc1461042957600080fd5b80630dfe1681116102fe5780630dfe168114610399578063111ba27d146103c45780631a686502146103cd57600080fd5b806306f912f3146103255780630902f1ac1461034b5780630ae9ba8a14610386575b600080fd5b610338610333366004615003565b610910565b6040519081526020015b60405180910390f35b6014546015546001600160801b03600160801b909204821691165b604080516001600160801b03938416815292909116602083015201610342565b610338610394366004615071565b61098d565b6003546103ac906001600160a01b031681565b6040516001600160a01b039091168152602001610342565b610338601e5481565b6006546103e0906001600160801b031681565b6040516001600160801b039091168152602001610342565b61040b610406366004615118565b610f41565b60408051928352602083019190915201610342565b610338600e5481565b61043c610437366004615173565b6110c0565b005b6000546104569065010000000000900462ffffff1681565b60405162ffffff9091168152602001610342565b610338610478366004615296565b6114d9565b610338600c5481565b61048e611bb9565b604051610342919061530f565b600754604080516001600160a01b0383168152600160a01b90920463ffffffff16602083015201610342565b61033860095481565b61033860185481565b61043c6104e7366004615322565b611c4d565b610338600d5481565b601654604080516001600160a01b0383168152600160a01b90920460020b602083015201610342565b61033860125481565b610338600f5481565b610338611ca0565b60165461054c90600160a01b900460020b81565b60405160029190910b8152602001610342565b6016546103ac906001600160a01b031681565b61040b61058036600461533b565b611cb8565b6105e1610593366004615382565b601b60209081526000938452604080852082529284528284209052825290208054600182015460028301546003909301546001600160801b0392831693919281811691600160801b90041685565b604080516001600160801b039687168152602081019590955284019290925283166060830152909116608082015260a001610342565b61040b6106253660046153cd565b612065565b610338601f5481565b610338601d5481565b6106926000546005546001546003546004546001600160801b03680100000000000000008604169562ffffff62010000870481169665010000000000900416946001600160a01b03908116948116938116921690565b604080516001600160801b03909816885262ffffff968716602089015295909416948601949094526001600160a01b0391821660608601528116608085015291821660a08401521660c082015260e001610342565b61043c6106f5366004615406565b612387565b6103386107083660046153cd565b6123e1565b6005546103ac906001600160a01b031681565b6103666124ec565b61043c610736366004615423565b6128a1565b61043c61074936600461546a565b612e06565b61033861316a565b6000546104569062010000900462ffffff1681565b6004546103ac906001600160a01b031681565b61033861078c3660046154bf565b601a6020526000908152604090205481565b61043c6107ac366004615406565b61317d565b6013546103e0906001600160801b031681565b6108246107d23660046154bf565b60196020526000908152604090208054600182015460028084015460039094015483820b946301000000850490920b93660100000000000090046001600160801b03169291906001600160a01b031686565b60408051600297880b81529590960b60208601526001600160801b0390931694840194909452606083015260808201929092526001600160a01b0390911660a082015260c001610342565b6108b061087d366004615382565b601c602090815260009384526040808520825292845282842090528252902080546001909101546001600160801b031682565b604080519283526001600160801b03909116602083015201610342565b6010546103ac906001600160a01b031681565b610338613223565b61033860085481565b6013546014546001600160801b03600160801b90920482169116610366565b600060175460021415610936576040516303cb96db60e21b815260040160405180910390fd5b6002601755610946338585613235565b61095233858585613313565b6010549091506001600160a01b031661096a57610981565b601054610981906001600160a01b031682336133ad565b60016017559392505050565b6000601754600214156109b3576040516303cb96db60e21b815260040160405180910390fd5b6002601755602082015160608301516109cc91906133c1565b60006109db8360200151613526565b6001600160a01b0316905060006109f58460600151613526565b60165460a086015160808701516001600160a01b0393841694509190921691610a30918591859185916001600160801b039081169116613872565b93506f7fffffffffffffffffffffffffffffff841115610a7c576040517f35278d1200000000000000000000000000000000000000000000000000000000815260040160405180910390fd5b83610ab3576040517f83ecd22400000000000000000000000000000000000000000000000000000000815260040160405180910390fd5b610abb613906565b6000601973aCc9af149D4E4B75304eb865B3120aF152B3652C63825c72999091601a6040518060800160405280600a54600854610af891906154f2565b8152602001600b54600954610b0d91906154f2565b81526020016011548152602001600760009054906101000a90046001600160a01b03166001600160a01b03168152508a600001518b602001518c604001518d606001518d601660149054906101000a900460020b8c6040518b63ffffffff1660e01b8152600401610b879a9998979695949392919061550a565b604080518083038186803b158015610b9e57600080fd5b505af4158015610bb2573d6000803e3d6000fd5b505050506040513d601f19601f82011682018060405250810190610bd691906155c7565b6016805462ffffff909316600160a01b0262ffffff60a01b1990931692909217909155601880549192508291600090610c109084906154f2565b9250508190555050610c2c338660200151876060015187613a40565b808311158015610c3b57508181105b15610c6b57600680546001600160801b038082168701166fffffffffffffffffffffffffffffffff199091161790555b600080610c7c858585896001613a68565b600354600480546040517f5f16529a0000000000000000000000000000000000000000000000000000000081526001600160a01b03938416928101929092529190911660248201526001600160801b0380841660448301528216606482015291935091503390635f16529a90608401600060405180830381600087803b158015610d0557600080fd5b505af1158015610d19573d6000803e3d6000fd5b50505050816001600160801b0316600014610dc65781601460108282829054906101000a90046001600160801b0316610d5291906155f5565b92506101000a8154816001600160801b0302191690836001600160801b03160217905550610d94600360009054906101000a90046001600160a01b0316613ad2565b601454600160801b90046001600160801b03161115610dc65760405163420231d560e11b815260040160405180910390fd5b6001600160801b03811615610e605760158054829190600090610df39084906001600160801b03166155f5565b92506101000a8154816001600160801b0302191690836001600160801b03160217905550610e35600460009054906101000a90046001600160a01b0316613ad2565b6015546001600160801b03161115610e6057604051637218102160e11b815260040160405180910390fd5b600280546040805160a08101825260208b810151850b82526060808d0151860b9183019182526001600160801b03888116848601908152908816918401918252608084018d815294517ffbad73910000000000000000000000000000000000000000000000000000000081529351870b6004850152915190950b6024830152516044820152925160648401525160848301526001600160a01b03169063fbad73919060a401600060405180830381600087803b158015610f1f57600080fd5b505af1925050508015610f30575060015b505050600160175550919392505050565b60008060175460021415610f68576040516303cb96db60e21b815260040160405180910390fd5b6002601755610f78338787613bd0565b610f853387878787613cff565b601480549294509092508391601090610faf908490600160801b90046001600160801b0316615620565b92506101000a8154816001600160801b0302191690836001600160801b0316021790555080601560008282829054906101000a90046001600160801b0316610ff79190615620565b92506101000a8154816001600160801b0302191690836001600160801b03160217905550611026338383613e0a565b6002546040805180820182528481526020810184815291517f1228c47f00000000000000000000000000000000000000000000000000000000815290516004820152905160248201526001600160a01b0390911690631228c47f90604401600060405180830381600087803b15801561109e57600080fd5b505af19250505080156110af575060015b506001601755909590945092505050565b601754600214156110e4576040516303cb96db60e21b815260040160405180910390fd5b60026017556006546001600160801b03168061112c576040517f83ecd22400000000000000000000000000000000000000000000000000000000815260040160405180910390fd5b6014546015546001600160801b03600160801b90920482169116611151888888613e0a565b6000806111708989600060059054906101000a900462ffffff16613e38565b6040517fc3924ed60000000000000000000000000000000000000000000000000000000081529193509150339063c3924ed6906111b790859085908c908c90600401615648565b600060405180830381600087803b1580156111d157600080fd5b505af11580156111e5573d6000803e3d6000fd5b5050600354600092508291508190611205906001600160a01b0316613ad2565b600454909150600090611220906001600160a01b0316613ad2565b90508161122d878a6154f2565b111561124c5760405163420231d560e11b815260040160405180910390fd5b8061125786896154f2565b111561127657604051637218102160e11b815260040160405180910390fd5b61127f82613e6d565b601480546001600160801b03928316600160801b0292169190911790556112a581613e6d565b601580546fffffffffffffffffffffffffffffffff19166001600160801b03929092169190911790556112d88883615685565b93506112e48782615685565b601f5490935091505082156113875760006113028483612710613e88565b905080601360108282829054906101000a90046001600160801b031661132891906155f5565b92506101000a8154816001600160801b0302191690836001600160801b0316021790555061136f816001600160801b0316856113649190615685565b600160801b8b613ec6565b6008600082825461138091906154f2565b9091555050505b811561141057600061139c8383612710613e88565b6014805491925082916000906113bc9084906001600160801b03166155f5565b92506101000a8154816001600160801b0302191690836001600160801b031602179055506113f8816001600160801b0316846113649190615685565b6009600082825461140991906154f2565b9091555050505b6002546040805160a081018252338152602081018f81528183018f8152606083018881526080840188815294517f2987fbcc00000000000000000000000000000000000000000000000000000000815293516001600160a01b039081166004860152925160248501529051604484015251606483015291516084820152911690632987fbcc9060a401600060405180830381600087803b1580156114b357600080fd5b505af19250505080156114c4575060015b50505060016017555050505050505050505050565b6000601754600214156114ff576040516303cb96db60e21b815260040160405180910390fd5b60026017819055506000808380602001905181019061151e91906156ac565b9150915060008261153a576015546001600160801b031661154e565b601454600160801b90046001600160801b03165b6001600160801b031661158184611570576004546001600160a01b0316613ad2565b6003546001600160a01b0316613ad2565b61158b9190615685565b90506000604051806101200160405280600081526020016000815260200160008152602001856115bd576008546115c1565b6009545b8152602001856115d3576009546115d7565b6008545b81526016546001600160a01b031660208201526006546001600160801b03166040820152606081018490526080018561163657601654600160a01b9004600290810b60009081526019602052604090205463010000009004900b611644565b601654600160a01b900460020b5b60020b90529050611653613906565b60115461165f82613f79565b60e0820151156119f2576000611679836101000151613526565b6001600160a01b0316905060008087156117aa5760006116a48660c00151858860a001516000613ff0565b9050808660e001511161176a5760c086015160a087015160e088015160609290921b916000916116ea918491906116db90826156d8565b6116e590866154f2565b613e88565b90508086111580156116ff57508760a0015181105b61173d57611731828960e001518a60a001518561171c919061570d565b61172691906154f2565b808204910615150190565b6001600160a01b031690505b6117528860c00151828a60a001516000614048565b60a0890191909152600060e089015293506117a49050565b61177f8660c00151858860a001516000614048565b60a0870185905260e0870180519194506001935082916117a0908390615685565b9052505b5061185f565b60006117c18660c001518760a00151866000614048565b9050808660e00151116118235760006117e78760e00151600160601b8960c00151613ec6565b8760a001516117f691906154f2565b905061180d8760c001518860a00151836000613ff0565b60a0880191909152600060e0880152925061185d565b6118388660c001518760a00151866000613ff0565b60a0870185905260e087018051919450600193508291611859908390615685565b9052505b505b60c0850151156118b15761189c82600060059054906101000a900462ffffff16601f548860c0015189602001518e8b604001518c60600151614072565b60608901526040880152602087019190915298505b80156119ea576118c285858a61410a565b60c08501516119ea5761010085015160020b620d89e71914806118fb57506118ed620d89e719615721565b60020b85610100015160020b145b156119c357871561194e5761192560018660a0015161191a9190615685565b6401000276a36141c2565b60a086015261010085018051600290810b600090815260196020526040902054900b90526119bb565b61198f8560a00151600161196291906154f2565b611981600173fffd8963efd1fc6a506488495d951d5263988d26615744565b6001600160a01b03166141d9565b60a086015261010085018051600290810b60009081526019602052604090205463010000009004900b90525b5050506119f2565b6119d1856101000151613526565b6001600160a01b031660a08601526119ea85858a61410a565b50505061165f565b60a08201516016805473ffffffffffffffffffffffffffffffffffffffff19166001600160a01b03909216919091179055600085611a4b57610100830151600290810b600090815260196020526040902054900b611a52565b8261010001515b601654909150600282810b600160a01b909204900b14611ab6576016805462ffffff60a01b1916600160a01b62ffffff84160217905560c0830151600680546fffffffffffffffffffffffffffffffff19166001600160801b039092169190911790555b611ac18685896141e8565b611ad4868460600151856040015161434a565b8515611af657600454611af1906001600160a01b031688876133ad565b611b0d565b600354611b0d906001600160a01b031688876133ad565b600254604080516060810182528815158152602081018781528183018b815292517f91accd5f000000000000000000000000000000000000000000000000000000008152915115156004830152516024820152905160448201526001600160a01b03909116906391accd5f90606401600060405180830381600087803b158015611b9657600080fd5b505af1925050508015611ba7575060015b50505060016017555092949350505050565b6040805160028082526060808301845292602083019080368337505060035482519293506001600160a01b031691839150600090611bf957611bf9615764565b6001600160a01b039283166020918202929092010152600454825191169082906001908110611c2a57611c2a615764565b60200260200101906001600160a01b031690816001600160a01b03168152505090565b6005546001600160a01b03163314611c785760405163ea8e4eb560e01b815260040160405180910390fd5b612710811115611c9b57604051633494a40d60e21b815260040160405180910390fd5b601f55565b6000611cb3600854600a54600c546143c6565b905090565b60008060175460021415611cdf576040516303cb96db60e21b815260040160405180910390fd5b60026017556000611cef86613526565b90506000611cfc86613526565b6016549091506001600160a01b0316611d13613906565b806001600160a01b0316836001600160a01b031611158015611d465750816001600160a01b0316816001600160a01b0316105b15611d7757600680546001600160801b03808216899003166fffffffffffffffffffffffffffffffff199091161790555b611da9836001600160a01b0316836001600160a01b0316836001600160a01b0316896001600160801b03166000613a68565b6001600160801b039182169650811694506f7fffffffffffffffffffffffffffffff9087161115611e06576040517f35278d1200000000000000000000000000000000000000000000000000000000815260040160405180910390fd5b611e1a338989611e158a61577a565b613a40565b601480546001600160801b03600160801b808304821689900382160291811691909117909155601580548083168790039092166fffffffffffffffffffffffffffffffff1992909216919091179055611e74338686613e0a565b6016546040517f7c91cb9800000000000000000000000000000000000000000000000000000000815260196004820152601a602482015260028a810b604483015289810b60648301526001600160801b0389166084830152600160a01b90920490910b60a482015260009073aCc9af149D4E4B75304eb865B3120aF152B3652C90637c91cb989060c401604080518083038186803b158015611f1557600080fd5b505af4158015611f29573d6000803e3d6000fd5b505050506040513d601f19601f82011682018060405250810190611f4d91906155c7565b6016805462ffffff909316600160a01b0262ffffff60a01b1990931692909217909155601880549192508291600090611f87908490615685565b9091555050600280546040805160a0810182528c840b81528b840b602082019081528183018b8152606083018b81526001600160801b038e166080850190815294517ffc9482d20000000000000000000000000000000000000000000000000000000081529351870b6004850152915190950b602483015293516044820152925160648401525160848301526001600160a01b0316915063fc9482d29060a401600060405180830381600087803b15801561204157600080fd5b505af1925050508015612052575060015b5050506001601755509094909350915050565b60165460009081908190612081906001600160a01b0316614426565b90506000601960008760020b60020b81526020019081526020016000206040518060c00160405290816000820160009054906101000a900460020b60020b60020b81526020016000820160039054906101000a900460020b60020b60020b81526020016000820160069054906101000a90046001600160801b03166001600160801b03166001600160801b0316815260200160018201548152602001600282015481526020016003820160009054906101000a90046001600160a01b03166001600160a01b03166001600160a01b03168152505090506000601960008760020b60020b81526020019081526020016000206040518060c00160405290816000820160009054906101000a900460020b60020b60020b81526020016000820160039054906101000a900460020b60020b60020b81526020016000820160069054906101000a90046001600160801b03166001600160801b03166001600160801b0316815260200160018201548152602001600282015481526020016003820160009054906101000a90046001600160a01b03166001600160a01b03166001600160a01b0316815250509050600080600080612258600660009054906101000a90046001600160801b03166001600160801b031661477f565b9150915081600a5460085461226d91906154f2565b61227791906154f2565b935080600b5460095461228a91906154f2565b61229491906154f2565b925050506000808660020b8b60020b136122d05760608601516122b790836154f2565b91508560800151816122c991906154f2565b9050612308565b60608601516122df9085615685565b6122e990836154f2565b91508560800151836122fb9190615685565b61230590826154f2565b90505b8960020b8760020b121561233e57606085015161232590836154f2565b915084608001518161233791906154f2565b9050612376565b606085015161234d9085615685565b61235790836154f2565b91508460800151836123699190615685565b61237390826154f2565b90505b920399919003975095505050505050565b6005546001600160a01b031633146123b25760405163ea8e4eb560e01b815260040160405180910390fd5b6002805473ffffffffffffffffffffffffffffffffffffffff19166001600160a01b0392909216919091179055565b60165460009081906123fb906001600160a01b0316614426565b600654909150600090612416906001600160801b03166147c2565b60115461242391906154f2565b905060008260020b8660020b1361245957600286900b6000908152601a602052604090205461245290826154f2565b9050612484565b600286900b6000908152601a60205260409020546124779083615685565b61248190826154f2565b90505b8460020b8360020b12156124b757600285900b6000908152601a60205260409020546124b090826154f2565b90506124e2565b600285900b6000908152601a60205260409020546124d59083615685565b6124df90826154f2565b90505b9003949350505050565b60008060175460021415612513576040516303cb96db60e21b815260040160405180910390fd5b6002601755600154604080517fef36925200000000000000000000000000000000000000000000000000000000815290516000926001600160a01b03169163ef369252916004808301926020929190829003018186803b15801561257657600080fd5b505afa15801561258a573d6000803e3d6000fd5b505050506040513d601f19601f820116820180604052508101906125ae91906157b0565b604080516002808252606082018352929350600092909160208301908036833750506040805160028082526060820183529394506000939092509060208301908036833701905050601354909150600160801b90046001600160801b03161561270257601380546001600160801b0380821690925560148054600160801b928390048416985088939192601092612649928692900416615620565b92506101000a8154816001600160801b0302191690836001600160801b03160217905550612696600360009054906101000a90046001600160a01b0316866001600160801b0316856133ad565b60035482516001600160a01b039091169083906000906126b8576126b8615764565b60200260200101906001600160a01b031690816001600160a01b031681525050846001600160801b0316816000815181106126f5576126f5615764565b6020026020010181815250505b6014546001600160801b03161561280b57601480546fffffffffffffffffffffffffffffffff198116909155601580546001600160801b039283169650869260009161275091859116615620565b92506101000a8154816001600160801b0302191690836001600160801b0316021790555061279d600460009054906101000a90046001600160a01b0316856001600160801b0316856133ad565b60045482516001600160a01b0390911690839060019081106127c1576127c1615764565b60200260200101906001600160a01b031690816001600160a01b031681525050836001600160801b0316816001815181106127fe576127fe615764565b6020026020010181815250505b6001600160a01b0383163b15612895576040517ff03328300000000000000000000000000000000000000000000000000000000081526001600160a01b0384169063f03328309061286290859085906004016157cd565b600060405180830381600087803b15801561287c57600080fd5b505af1158015612890573d6000803e3d6000fd5b505050505b50505060016017559091565b600054610100900460ff166128bc5760005460ff16156128c0565b303b155b6129375760405162461bcd60e51b815260206004820152602e60248201527f496e697469616c697a61626c653a20636f6e747261637420697320616c72656160448201527f647920696e697469616c697a656400000000000000000000000000000000000060648201526084015b60405180910390fd5b600054610100900460ff1615801561297657600080547fffffffffffffffffffffffffffffffffffffffffffffffffffffffffffff0000166101011790555b6000806000806000878060200190518101906129929190615837565b600380546001600160a01b0380881673ffffffffffffffffffffffffffffffffffffffff199283161790925560048054838816908316179055601080548387169083161790556000805462ffffff80861662010000027fffffffffffffffffffffffffffffffffffffffffffffffffffffff000000ffff9188166501000000000002919091167fffffffffffffffffffffffffffffffffffffffffffffffff000000000000ffff909216919091171790556005805482163317905560018054928f1692909116919091179055939850919650945092509050612a73816147ea565b600060086101000a8154816001600160801b0302191690836001600160801b031602179055506040518060c00160405280620d89e71960020b8152602001620d89e719612abf90615721565b60020b815260006020808301829052604080840183905260608085018490526080948501849052620d89e719938490526019835285517f8b687876df6025befed93a16f72cd2848615619f141fc2441f1db80badfc7d3e805488860151898601516001600160801b03166601000000000000027fffffffffffffffffffff00000000000000000000000000000000ffffffffffff62ffffff92831663010000000265ffffffffffff19909416929095169190911791909117929092169190911790558501517f8b687876df6025befed93a16f72cd2848615619f141fc2441f1db80badfc7d3f55928401517f8b687876df6025befed93a16f72cd2848615619f141fc2441f1db80badfc7d405560a0909301517f8b687876df6025befed93a16f72cd2848615619f141fc2441f1db80badfc7d4180546001600160a01b039290921673ffffffffffffffffffffffffffffffffffffffff19909216919091179055815160c081019092528082529091820190612c3a90615721565b60020b815260200160006001600160801b03168152602001600081526020016000815260200160006001600160a01b031681525060196000620d89e719612c8090615721565b600290810b8252602080830193909352604091820160002084518154948601519386015162ffffff91821665ffffffffffff199096169590951763010000009190941602929092177fffffffffffffffffffff00000000000000000000000000000000ffffffffffff1666010000000000006001600160801b0390941693909302929092178155606083015160018083019190915560808401518284015560a0909301516003909101805473ffffffffffffffffffffffffffffffffffffffff19166001600160a01b039092169190911790556016805462ffffff60a01b191676f276180000000000000000000000000000000000000000179055601791909155600780547fffffffffffffffff00000000ffffffffffffffffffffffffffffffffffffffff16600160a01b4263ffffffff81169190910291909117909155601891909155601d55505043601e55505081159050612e0157600080547fffffffffffffffffffffffffffffffffffffffffffffffffffffffffffff00ff1690555b505050565b60175460021415612e2a576040516303cb96db60e21b815260040160405180910390fd5b6002601755600154604080517fd0a93173000000000000000000000000000000000000000000000000000000008152905133926001600160a01b03169163d0a931739160048083019260209291908290030181600087803b158015612e8e57600080fd5b505af1158015612ea2573d6000803e3d6000fd5b505050506040513d601f19601f82011682018060405250810190612ec691906157b0565b6001600160a01b031614612eed5760405163ea8e4eb560e01b815260040160405180910390fd5b42612ef882846154f2565b11612f1657604051633494a40d60e21b815260040160405180910390fd5b600e54600f54600090612f2990836154f2565b905083811115612f4c57604051633494a40d60e21b815260040160405180910390fd5b6001600160801b03871615612fc357600354612f7a906001600160a01b03166001600160801b03891661482a565b86601460108282829054906101000a90046001600160801b0316612f9e91906155f5565b92506101000a8154816001600160801b0302191690836001600160801b031602179055505b6001600160801b0386161561303457600454612ff1906001600160a01b03166001600160801b03881661482a565b6015805487919060009061300f9084906001600160801b03166155f5565b92506101000a8154816001600160801b0302191690836001600160801b031602179055505b6001600160801b0385161561306257601054613062906001600160a01b03166001600160801b03871661482a565b600061306c61483f565b11156131045761307a613906565b600754600160a01b900463ffffffff168181101561310257600061309e82856141c2565b6130a89084615685565b90506130be6130b9600c54836148af565b613e6d565b6130c8908a6155f5565b98506130d96130b9600d54836148af565b6130e390896155f5565b97506130f46130b9601254836148af565b6130fe90886155f5565b9650505b505b61311c876001600160801b0316600160801b85613ec6565b600c556131376001600160801b038716600160801b85613ec6565b600d556131526001600160801b038616600160801b85613ec6565b6012555050600e91909155600f555050600160175550565b6000611cb3600954600b54600d546143c6565b6005546001600160a01b031633146131a85760405163ea8e4eb560e01b815260040160405180910390fd5b6016546001600160a01b0316156131eb576040517f2f282c6c00000000000000000000000000000000000000000000000000000000815260040160405180910390fd5b6131f4816148c0565b6016805473ffffffffffffffffffffffffffffffffffffffff19166001600160a01b0392909216919091179055565b6000611cb360006011546012546143c6565b6001600160a01b0383166000908152601c60209081526040808320600286810b85529083528184209085900b845290915281209061327384846123e1565b82546001600160a01b0387166000908152601b6020908152604080832060028a810b85529083528184209089900b8452909152812054929350916132c2918403906001600160801b03166148af565b82845560018401805491925082916000906132e79084906001600160801b03166155f5565b92506101000a8154816001600160801b0302191690836001600160801b03160217905550505050505050565b6001600160a01b0384166000908152601c60209081526040808320600287810b85529083528184209086900b84529091528120600181015461335e906001600160801b0316846141d9565b60018201805491935083916000906133809084906001600160801b0316615620565b92506101000a8154816001600160801b0302191690836001600160801b0316021790555050949350505050565b612e016001600160a01b0384168284614930565b6000546133d99062010000900462ffffff16836158a4565b60020b15613413576040517fce8ef7fc00000000000000000000000000000000000000000000000000000000815260040160405180910390fd5b60005460029061342e9062010000900462ffffff16846158c6565b61343891906158a4565b60020b15613472576040517ffdf1420200000000000000000000000000000000000000000000000000000000815260040160405180910390fd5b60005461348a9062010000900462ffffff16826158a4565b60020b156134c4576040517fce8ef7fc00000000000000000000000000000000000000000000000000000000815260040160405180910390fd5b6000546002906134df9062010000900462ffffff16836158c6565b6134e991906158a4565b60020b613522576040517fa9778c6300000000000000000000000000000000000000000000000000000000815260040160405180910390fd5b5050565b60008060008360020b1261353d578260020b61354a565b8260020b61354a90615900565b9050613559620d89e719615721565b62ffffff16811115613597576040517ff87dc40c00000000000000000000000000000000000000000000000000000000815260040160405180910390fd5b6000600182166135ab57600160801b6135bd565b6ffffcb933bd6fad37aa2d162d1a5940015b70ffffffffffffffffffffffffffffffffff16905060028216156135f1576ffff97272373d413259a46990580e213a0260801c5b6004821615613610576ffff2e50f5f656932ef12357cf3c7fdcc0260801c5b600882161561362f576fffe5caca7e10e4e61c3624eaa0941cd00260801c5b601082161561364e576fffcb9843d60f6159c9db58835c9266440260801c5b602082161561366d576fff973b41fa98c081472e6896dfb254c00260801c5b604082161561368c576fff2ea16466c96a3843ec78b326b528610260801c5b60808216156136ab576ffe5dee046a99a2a811c461f1969c30530260801c5b6101008216156136cb576ffcbe86c7900a88aedcffc83b479aa3a40260801c5b6102008216156136eb576ff987a7253ac413176f2b074cf7815e540260801c5b61040082161561370b576ff3392b0822b70005940c7a398e4b70f30260801c5b61080082161561372b576fe7159475a2c29b7443b29c7fa6e889d90260801c5b61100082161561374b576fd097f3bdfd2022b8845ad8f792aa58250260801c5b61200082161561376b576fa9f746462d870fdf8a65dc1f90e061e50260801c5b61400082161561378b576f70d869a156d2a1b890bb3df62baf32f70260801c5b6180008216156137ab576f31be135f97d08fd981231505542fcfa60260801c5b620100008216156137cc576f09aa508b5b7a84e1c677de54f3e99bc90260801c5b620200008216156137ec576e5d6af8dedb81196699c329225ee6040260801c5b6204000082161561380b576d2216e584f5fa1ea926041bedfe980260801c5b62080000821615613828576b048a170391f7dc42444e8fa20260801c5b60008460020b1315613849578060001981613845576138456156f7565b0490505b64010000000081061561385d576001613860565b60005b60ff16602082901c0192505050919050565b60008385116138935761388c83600160601b888803613ec6565b90506138fd565b8584116138b55761388c826138ad8888600160601b613ec6565b888803613ec6565b60006138d2836138ca8888600160601b613ec6565b878903613ec6565b905060006138e785600160601b8a8903613ec6565b90508082106138f657806138f8565b815b925050505b95945050505050565b6006546001600160801b03168061391a5750565b600754600160a01b900463ffffffff16428110613935575050565b600061393f61483f565b905080156139b357613954600c548285613ec6565b600a600082825461396591906154f2565b9091555050600d54613978908285613ec6565b600b600082825461398991906154f2565b909155505060125461399c908285613ec6565b601160008282546139ad91906154f2565b90915550505b6007805463ffffffff42908116600160a01b027fffffffffffffffff00000000ffffffffffffffffffffffffffffffffffffffff90921691909117909155839083900360801b81613a0657613a066156f7565b6007805473ffffffffffffffffffffffffffffffffffffffff198116939092046001600160a01b0392831601909116919091179055505050565b613a4b848484613bd0565b613a56848484613235565b613a62848484846149d9565b50505050565b600080848611613a8857613a816130b985898987614048565b9050613ac8565b868511613aa557613a9e6130b985898987613ff0565b9150613ac8565b613ab46130b985878987613ff0565b9150613ac56130b985898887614048565b90505b9550959350505050565b604080513060248083019190915282518083039091018152604490910182526020810180517bffffffffffffffffffffffffffffffffffffffffffffffffffffffff167f70a08231000000000000000000000000000000000000000000000000000000001790529051600091829182916001600160a01b03861691613b579190615965565b600060405180830381855afa9150503d8060008114613b92576040519150601f19603f3d011682016040523d82523d6000602084013e613b97565b606091505b5091509150818015613bab57506020815110155b613bb457600080fd5b80806020019051810190613bc89190615981565b949350505050565b6001600160a01b0383166000908152601b60209081526040808320600286810b85529083528184209085900b845290915281209080613c0f8585612065565b600185015485549294509092506000918291613c3791908603906001600160801b03166148af565b60028601548654919350613c5791908503906001600160801b03166148af565b60018601859055600286018490556003860180549192508391600090613c879084906001600160801b03166155f5565b92506101000a8154816001600160801b0302191690836001600160801b03160217905550808560030160108282829054906101000a90046001600160801b0316613cd191906155f5565b92506101000a8154816001600160801b0302191690836001600160801b031602179055505050505050505050565b6001600160a01b0385166000908152601b60209081526040808320600288810b85529083528184209087900b845290915281206003810154829190613d4d906001600160801b0316866141d9565b6003820154909350613d6f90600160801b90046001600160801b0316856141d9565b6003820180549193508491600090613d919084906001600160801b0316615620565b92506101000a8154816001600160801b0302191690836001600160801b03160217905550818160030160108282829054906101000a90046001600160801b0316613ddb9190615620565b92506101000a8154816001600160801b0302191690836001600160801b03160217905550509550959350505050565b600354613e21906001600160a01b031683856133ad565b600454612e01906001600160a01b031682856133ad565b600080613e4e858462ffffff16620f4240613e88565b9150613e63848462ffffff16620f4240613e88565b9050935093915050565b806001600160801b0381168114613e8357600080fd5b919050565b6000613e95848484613ec6565b90508180613ea557613ea56156f7565b83850915613ebf576000198110613ebb57600080fd5b6001015b9392505050565b600080806000198587098587029250828110838203039150508060001415613f005760008411613ef557600080fd5b508290049050613ebf565b808411613f0c57600080fd5b6000848688096000868103871696879004966002600389028118808a02820302808a02820302808a02820302808a02820302808a02820302808a02909103029181900381900460010186841190950394909402919094039290920491909117919091029150509392505050565b60c081015115613f865750565b61010081015160020b620d89e7191480613fb65750613fa8620d89e719615721565b60020b81610100015160020b145b15613fed576040517f6ba599a000000000000000000000000000000000000000000000000000000000815260040160405180910390fd5b50565b6000811561401f5761401861400c606087901b86860386613e88565b85808204910615150190565b9050613bc8565b83614031606087901b82860386613ec6565b8161403e5761403e6156f7565b0495945050505050565b600081156140615761401885858503600160601b613e88565b6138fd85858503600160601b613ec6565b600080600080600061408d8d8d62ffffff16620f4240613e88565b9050614099818a6154f2565b98506140a5818e615685565b6140af90896154f2565b975060006140c0828d612710613e88565b90506140cc81896154f2565b97506140d88183615685565b91506140e982600160801b8d613ec6565b6140f390886154f2565b999e989d50969b5097995095975050505050505050565b6141ac601a846101000151600760009054906101000a90046001600160a01b03168660c001518561414c57600a54886060015161414791906154f2565b61415e565b600b54886060015161415e91906154f2565b8661417a57600b54896080015161417591906154f2565b61418c565b600a54896080015161418c91906154f2565b6000546019969594939291908a908a9062010000900462ffffff16614b0b565b60020b61010085015260c0909301929092525050565b6000818310156141d25781613ebf565b5090919050565b60008183106141d25781613ebf565b82156142a057600354600090614206906001600160a01b0316613ad2565b60145490915060009061422a908590600160801b90046001600160801b03166155f5565b905081816001600160801b031611156142565760405163420231d560e11b815260040160405180910390fd5b601480546001600160801b03928316600160801b02908316179055601580548083168590039092166fffffffffffffffffffffffffffffffff199290921691909117905550505050565b6004546000906142b8906001600160a01b0316613ad2565b6015549091506000906142d59085906001600160801b03166155f5565b905081816001600160801b0316111561430157604051637218102160e11b815260040160405180910390fd5b601580546001600160801b039283166fffffffffffffffffffffffffffffffff1990911617905560148054600160801b8082048416869003841602921691909117905550505050565b821561439c576009829055601480548291906000906143739084906001600160801b03166155f5565b92506101000a8154816001600160801b0302191690836001600160801b03160217905550505050565b600882905560138054829190601090614373908490600160801b90046001600160801b03166155f5565b6000806143d161483f565b6006549091506001600160801b031681158015906143ef5750600081115b1561441c576143ff848383613ec6565b61440986886154f2565b61441391906154f2565b92505050613ebf565b61441385876154f2565b60006401000276a36001600160a01b0383161080614461575073fffd8963efd1fc6a506488495d951d5263988d266001600160a01b03831610155b15614498576040517f6e4ba61d00000000000000000000000000000000000000000000000000000000815260040160405180910390fd5b77ffffffffffffffffffffffffffffffffffffffff00000000602083901b166001600160801b03811160071b81811c67ffffffffffffffff811160061b90811c63ffffffff811160051b90811c61ffff811160041b90811c60ff8111600390811b91821c600f811160021b90811c918211600190811b92831c9790881196179094179092171790911717176080811061453957607f810383901c9150614543565b80607f0383901b91505b908002607f81811c60ff83811c9190911c800280831c81831c1c800280841c81841c1c800280851c81851c1c800280861c81861c1c800280871c81871c1c800280881c81881c1c800280891c81891c1c8002808a1c818a1c1c8002808b1c818b1c1c8002808c1c818c1c1c8002808d1c818d1c1c8002808e1c9c81901c9c909c1c80029c8d901c9e9d7fffffffffffffffffffffffffffffffffffffffffffffffffffffffffffffff808f0160401b60c09190911c678000000000000000161760c19b909b1c674000000000000000169a909a1760c29990991c672000000000000000169890981760c39790971c671000000000000000169690961760c49590951c670800000000000000169490941760c59390931c670400000000000000169290921760c69190911c670200000000000000161760c79190911c670100000000000000161760c89190911c6680000000000000161760c99190911c6640000000000000161760ca9190911c6620000000000000161760cb9190911c6610000000000000161760cc9190911c6608000000000000161760cd9190911c66040000000000001617693627a301d71055774c8581027ffffffffffffffffffffffffffffffffffd709b7e5480fba5a50fed5e62ffc5568101608090811d906fdb2df09e81959a81455e260799a0632f8301901d600281810b9083900b1461477057886001600160a01b031661475582613526565b6001600160a01b0316111561476a5781614772565b80614772565b815b9998505050505050505050565b6000808261479257506000928392509050565b600061479c61483f565b90506147ab600c548286613ec6565b92506147ba600d548286613ec6565b915050915091565b6000816147d157506000919050565b60006147db61483f565b9050613ebf6012548285613ec6565b60006147f782600261599a565b614804620d89e719615721565b61480e91906159c5565b6148249062ffffff166001600160801b036159e7565b92915050565b6135226001600160a01b038316333084614daa565b600e5460009042811061485457600091505090565b600754600f54600160a01b90910463ffffffff169060009061487690846154f2565b9050818111614889576000935050505090565b61489382846141c2565b61489d42836141d9565b6148a79190615685565b935050505090565b6000613ebf8383600160801b613ec6565b6401000276a36001600160a01b03821610806148f9575073fffd8963efd1fc6a506488495d951d5263988d266001600160a01b03821610155b15613fed576040517f6e4ba61d00000000000000000000000000000000000000000000000000000000815260040160405180910390fd5b6040516001600160a01b038316602482015260448101829052612e019084907fa9059cbb00000000000000000000000000000000000000000000000000000000906064015b60408051601f198184030181529190526020810180517bffffffffffffffffffffffffffffffffffffffffffffffffffffffff167fffffffff0000000000000000000000000000000000000000000000000000000090931692909217909152614dfb565b80600f0b600014156149ea57613a62565b6001600160a01b0384166000908152601b60209081526040808320600287810b85529083528184209086900b8452909152812090600f83900b1315614abb57805482908290600090614a469084906001600160801b03166155f5565b82546101009290920a6001600160801b038181021990931691831602179091556000548354680100000000000000009091048216911611159050614ab6576040517fb03425ae00000000000000000000000000000000000000000000000000000000815260040160405180910390fd5b614b04565b614ac48261577a565b81548290600090614adf9084906001600160801b0316615620565b92506101000a8154816001600160801b0302191690836001600160801b031602179055505b5050505050565b600288900b600090815260208b905260408120600301548190614b37906001600160a01b03168a615744565b60028b900b600090815260208e81526040808320600301805473ffffffffffffffffffffffffffffffffffffffff19166001600160a01b0395909516949094179093558d90522054614b899086615685565b60028b900b600090815260208d905260409020558315614c9c5760028360020b8b60020b81614bba57614bba6156f7565b0560020b81614bcb57614bcb6156f7565b0760020b614c035760028a900b600090815260208d90526040902054660100000000000090046001600160801b031690970396614c30565b60028a900b600090815260208d90526040902054660100000000000090046001600160801b031697909701965b60028a900b600090815260208d90526040902060010154614c519087615685565b60028b810b600090815260208f90526040902060018101929092550154614c789088615685565b60029a8b0b600090815260208e905260409020808c01919091555490990b98614d98565b60028360020b8b60020b81614cb357614cb36156f7565b0560020b81614cc457614cc46156f7565b0760020b614cfd5760028a900b600090815260208d90526040902054660100000000000090046001600160801b03169790970196614d29565b60028a900b600090815260208d90526040902054660100000000000090046001600160801b0316909703965b60028a810b600090815260208e9052604090200154614d489087615685565b60028b810b600090815260208f9052604090209081019190915560010154614d709088615685565b60029a8b0b600090815260208e9052604090206001810191909155546301000000900490990b985b50959a97995096975050505050505050565b6040516001600160a01b0380851660248301528316604482015260648101829052613a629085907f23b872dd0000000000000000000000000000000000000000000000000000000090608401614975565b6000614e50826040518060400160405280602081526020017f5361666545524332303a206c6f772d6c6576656c2063616c6c206661696c6564815250856001600160a01b0316614ee09092919063ffffffff16565b805190915015612e015780806020019051810190614e6e9190615a01565b612e015760405162461bcd60e51b815260206004820152602a60248201527f5361666545524332303a204552433230206f7065726174696f6e20646964206e60448201527f6f74207375636365656400000000000000000000000000000000000000000000606482015260840161292e565b6060613bc88484600085856001600160a01b0385163b614f425760405162461bcd60e51b815260206004820152601d60248201527f416464726573733a2063616c6c20746f206e6f6e2d636f6e7472616374000000604482015260640161292e565b600080866001600160a01b03168587604051614f5e9190615965565b60006040518083038185875af1925050503d8060008114614f9b576040519150601f19603f3d011682016040523d82523d6000602084013e614fa0565b606091505b5091509150614fb0828286614fbb565b979650505050505050565b60608315614fca575081613ebf565b825115614fda5782518084602001fd5b8160405162461bcd60e51b815260040161292e9190615a1c565b8060020b8114613fed57600080fd5b60008060006060848603121561501857600080fd5b833561502381614ff4565b9250602084013561503381614ff4565b929592945050506040919091013590565b634e487b7160e01b600052604160045260246000fd5b80356001600160801b0381168114613e8357600080fd5b600060c0828403121561508357600080fd5b60405160c0810181811067ffffffffffffffff821117156150a6576150a6615044565b60405282356150b481614ff4565b815260208301356150c481614ff4565b602082015260408301356150d781614ff4565b604082015260608301356150ea81614ff4565b60608201526150fb6080840161505a565b608082015261510c60a0840161505a565b60a08201529392505050565b6000806000806080858703121561512e57600080fd5b843561513981614ff4565b9350602085013561514981614ff4565b93969395505050506040820135916060013590565b6001600160a01b0381168114613fed57600080fd5b60008060008060006080868803121561518b57600080fd5b85356151968161515e565b94506020860135935060408601359250606086013567ffffffffffffffff808211156151c157600080fd5b818801915088601f8301126151d557600080fd5b8135818111156151e457600080fd5b8960208285010111156151f657600080fd5b9699959850939650602001949392505050565b600082601f83011261521a57600080fd5b813567ffffffffffffffff8082111561523557615235615044565b604051601f8301601f19908116603f0116810190828211818310171561525d5761525d615044565b8160405283815286602085880101111561527657600080fd5b836020870160208301376000602085830101528094505050505092915050565b6000602082840312156152a857600080fd5b813567ffffffffffffffff8111156152bf57600080fd5b613bc884828501615209565b600081518084526020808501945080840160005b838110156153045781516001600160a01b0316875295820195908201906001016152df565b509495945050505050565b602081526000613ebf60208301846152cb565b60006020828403121561533457600080fd5b5035919050565b60008060006060848603121561535057600080fd5b833561535b81614ff4565b9250602084013561536b81614ff4565b91506153796040850161505a565b90509250925092565b60008060006060848603121561539757600080fd5b83356153a28161515e565b925060208401356153b281614ff4565b915060408401356153c281614ff4565b809150509250925092565b600080604083850312156153e057600080fd5b82356153eb81614ff4565b915060208301356153fb81614ff4565b809150509250929050565b60006020828403121561541857600080fd5b8135613ebf8161515e565b6000806040838503121561543657600080fd5b823567ffffffffffffffff81111561544d57600080fd5b61545985828601615209565b92505060208301356153fb8161515e565b600080600080600060a0868803121561548257600080fd5b61548b8661505a565b94506154996020870161505a565b93506154a76040870161505a565b94979396509394606081013594506080013592915050565b6000602082840312156154d157600080fd5b8135613ebf81614ff4565b634e487b7160e01b600052601160045260246000fd5b60008219821115615505576155056154dc565b500190565b60006101a0820190508b82528a60208301528951604083015260208a0151606083015260408a015160808301526001600160a01b0360608b01511660a083015261555960c083018a60020b9052565b61556860e083018960020b9052565b61557861010083018860020b9052565b61558861012083018760020b9052565b6001600160801b0385166101408301526155a861016083018560020b9052565b6001600160a01b0383166101808301529b9a5050505050505050505050565b600080604083850312156155da57600080fd5b82516155e581614ff4565b6020939093015192949293505050565b60006001600160801b03808316818516808303821115615617576156176154dc565b01949350505050565b60006001600160801b0383811690831681811015615640576156406154dc565b039392505050565b84815283602082015260606040820152816060820152818360808301376000818301608090810191909152601f909201601f191601019392505050565b600082821015615697576156976154dc565b500390565b80518015158114613e8357600080fd5b600080604083850312156156bf57600080fd5b6156c88361569c565b915060208301516153fb8161515e565b60008160001904831182151516156156f2576156f26154dc565b500290565b634e487b7160e01b600052601260045260246000fd5b60008261571c5761571c6156f7565b500490565b60008160020b627fffff1981141561573b5761573b6154dc565b60000392915050565b60006001600160a01b0383811690831681811015615640576156406154dc565b634e487b7160e01b600052603260045260246000fd5b600081600f0b7fffffffffffffffffffffffffffffffff8000000000000000000000000000000081141561573b5761573b6154dc565b6000602082840312156157c257600080fd5b8151613ebf8161515e565b6040815260006157e060408301856152cb565b82810360208481019190915284518083528582019282019060005b81811015615817578451835293830193918301916001016157fb565b5090979650505050505050565b805162ffffff81168114613e8357600080fd5b600080600080600060a0868803121561584f57600080fd5b855161585a8161515e565b602087015190955061586b8161515e565b604087015190945061587c8161515e565b925061588a60608701615824565b915061589860808701615824565b90509295509295909350565b60008260020b806158b7576158b76156f7565b808360020b0791505092915050565b60008160020b8360020b806158dd576158dd6156f7565b6000198114627fffff19831416156158f7576158f76154dc565b90059392505050565b60007f8000000000000000000000000000000000000000000000000000000000000000821415615932576159326154dc565b5060000390565b60005b8381101561595457818101518382015260200161593c565b83811115613a625750506000910152565b60008251615977818460208701615939565b9190910192915050565b60006020828403121561599357600080fd5b5051919050565b600062ffffff808316818516818304811182151516156159bc576159bc6154dc565b02949350505050565b600062ffffff808416806159db576159db6156f7565b92169190910492915050565b60006001600160801b03808416806159db576159db6156f7565b600060208284031215615a1357600080fd5b613ebf8261569c565b6020815260008251806020840152615a3b816040850160208701615939565b601f01601f1916919091016040019291505056fea2646970667358221220777d809c5c2c08dd629f70025a8c1545e33d49b9e5ec1879c5db59960e99e8c164736f6c63430008090033",
  "deployedBytecode": "0x608060405234801561001057600080fd5b50600436106103205760003560e01c8063a34123a7116101a7578063cf78756b116100ee578063f30dba9311610097578063f949e8b711610071578063f949e8b7146108e0578063fa1a169c146108e8578063fb5d80b3146108f157600080fd5b8063f30dba93146107c4578063f719dac61461086f578063f7c618c1146108cd57600080fd5b8063d5514792116100c8578063d55147921461077e578063d90bda4e1461079e578063e5ff7f46146107b157600080fd5b8063cf78756b1461074e578063d0c93a7c14610756578063d21220a71461076b57600080fd5b8063bd7d1eea11610150578063caa4b46a1161012a578063caa4b46a14610720578063cce2df0314610728578063cf5431531461073b57600080fd5b8063bd7d1eea146106e7578063c03c2514146106fa578063c45a01551461070d57600080fd5b8063b0e21e8a11610181578063b0e21e8a1461062a578063b2f4bdb014610633578063bcdb4dad1461063c57600080fd5b8063a34123a714610572578063aaca1b4d14610585578063acfe88f81461061757600080fd5b806367e4ac2c1161026b5780638c347f9b116102145780639da12096116101ee5780639da1209614610530578063a00e8f2914610538578063a035b1fe1461055f57600080fd5b80638c347f9b146104f55780638f10369a1461051e578063956afe451461052757600080fd5b8063735541d111610245578063735541d1146104d0578063787dce3d146104d957806384e02017146104ec57600080fd5b806367e4ac2c146104865780636d59d8021461049b57806370ed1b86146104c757600080fd5b80632df94b0f116102cd57806354cf2aeb116102a757806354cf2aeb1461043e578063627dd56a1461046a57806366f657c51461047d57600080fd5b80632df94b0f146103f857806340306fb614610420578063490e6cbc1461042957600080fd5b80630dfe1681116102fe5780630dfe168114610399578063111ba27d146103c45780631a686502146103cd57600080fd5b806306f912f3146103255780630902f1ac1461034b5780630ae9ba8a14610386575b600080fd5b610338610333366004615003565b610910565b6040519081526020015b60405180910390f35b6014546015546001600160801b03600160801b909204821691165b604080516001600160801b03938416815292909116602083015201610342565b610338610394366004615071565b61098d565b6003546103ac906001600160a01b031681565b6040516001600160a01b039091168152602001610342565b610338601e5481565b6006546103e0906001600160801b031681565b6040516001600160801b039091168152602001610342565b61040b610406366004615118565b610f41565b60408051928352602083019190915201610342565b610338600e5481565b61043c610437366004615173565b6110c0565b005b6000546104569065010000000000900462ffffff1681565b60405162ffffff9091168152602001610342565b610338610478366004615296565b6114d9565b610338600c5481565b61048e611bb9565b604051610342919061530f565b600754604080516001600160a01b0383168152600160a01b90920463ffffffff16602083015201610342565b61033860095481565b61033860185481565b61043c6104e7366004615322565b611c4d565b610338600d5481565b601654604080516001600160a01b0383168152600160a01b90920460020b602083015201610342565b61033860125481565b610338600f5481565b610338611ca0565b60165461054c90600160a01b900460020b81565b60405160029190910b8152602001610342565b6016546103ac906001600160a01b031681565b61040b61058036600461533b565b611cb8565b6105e1610593366004615382565b601b60209081526000938452604080852082529284528284209052825290208054600182015460028301546003909301546001600160801b0392831693919281811691600160801b90041685565b604080516001600160801b039687168152602081019590955284019290925283166060830152909116608082015260a001610342565b61040b6106253660046153cd565b612065565b610338601f5481565b610338601d5481565b6106926000546005546001546003546004546001600160801b03680100000000000000008604169562ffffff62010000870481169665010000000000900416946001600160a01b03908116948116938116921690565b604080516001600160801b03909816885262ffffff968716602089015295909416948601949094526001600160a01b0391821660608601528116608085015291821660a08401521660c082015260e001610342565b61043c6106f5366004615406565b612387565b6103386107083660046153cd565b6123e1565b6005546103ac906001600160a01b031681565b6103666124ec565b61043c610736366004615423565b6128a1565b61043c61074936600461546a565b612e06565b61033861316a565b6000546104569062010000900462ffffff1681565b6004546103ac906001600160a01b031681565b61033861078c3660046154bf565b601a6020526000908152604090205481565b61043c6107ac366004615406565b61317d565b6013546103e0906001600160801b031681565b6108246107d23660046154bf565b60196020526000908152604090208054600182015460028084015460039094015483820b946301000000850490920b93660100000000000090046001600160801b03169291906001600160a01b031686565b60408051600297880b81529590960b60208601526001600160801b0390931694840194909452606083015260808201929092526001600160a01b0390911660a082015260c001610342565b6108b061087d366004615382565b601c602090815260009384526040808520825292845282842090528252902080546001909101546001600160801b031682565b604080519283526001600160801b03909116602083015201610342565b6010546103ac906001600160a01b031681565b610338613223565b61033860085481565b6013546014546001600160801b03600160801b90920482169116610366565b600060175460021415610936576040516303cb96db60e21b815260040160405180910390fd5b6002601755610946338585613235565b61095233858585613313565b6010549091506001600160a01b031661096a57610981565b601054610981906001600160a01b031682336133ad565b60016017559392505050565b6000601754600214156109b3576040516303cb96db60e21b815260040160405180910390fd5b6002601755602082015160608301516109cc91906133c1565b60006109db8360200151613526565b6001600160a01b0316905060006109f58460600151613526565b60165460a086015160808701516001600160a01b0393841694509190921691610a30918591859185916001600160801b039081169116613872565b93506f7fffffffffffffffffffffffffffffff841115610a7c576040517f35278d1200000000000000000000000000000000000000000000000000000000815260040160405180910390fd5b83610ab3576040517f83ecd22400000000000000000000000000000000000000000000000000000000815260040160405180910390fd5b610abb613906565b6000601973__$5c5207d55745a34649a0c7f595c6a505bf$__63825c72999091601a6040518060800160405280600a54600854610af891906154f2565b8152602001600b54600954610b0d91906154f2565b81526020016011548152602001600760009054906101000a90046001600160a01b03166001600160a01b03168152508a600001518b602001518c604001518d606001518d601660149054906101000a900460020b8c6040518b63ffffffff1660e01b8152600401610b879a9998979695949392919061550a565b604080518083038186803b158015610b9e57600080fd5b505af4158015610bb2573d6000803e3d6000fd5b505050506040513d601f19601f82011682018060405250810190610bd691906155c7565b6016805462ffffff909316600160a01b0262ffffff60a01b1990931692909217909155601880549192508291600090610c109084906154f2565b9250508190555050610c2c338660200151876060015187613a40565b808311158015610c3b57508181105b15610c6b57600680546001600160801b038082168701166fffffffffffffffffffffffffffffffff199091161790555b600080610c7c858585896001613a68565b600354600480546040517f5f16529a0000000000000000000000000000000000000000000000000000000081526001600160a01b03938416928101929092529190911660248201526001600160801b0380841660448301528216606482015291935091503390635f16529a90608401600060405180830381600087803b158015610d0557600080fd5b505af1158015610d19573d6000803e3d6000fd5b50505050816001600160801b0316600014610dc65781601460108282829054906101000a90046001600160801b0316610d5291906155f5565b92506101000a8154816001600160801b0302191690836001600160801b03160217905550610d94600360009054906101000a90046001600160a01b0316613ad2565b601454600160801b90046001600160801b03161115610dc65760405163420231d560e11b815260040160405180910390fd5b6001600160801b03811615610e605760158054829190600090610df39084906001600160801b03166155f5565b92506101000a8154816001600160801b0302191690836001600160801b03160217905550610e35600460009054906101000a90046001600160a01b0316613ad2565b6015546001600160801b03161115610e6057604051637218102160e11b815260040160405180910390fd5b600280546040805160a08101825260208b810151850b82526060808d0151860b9183019182526001600160801b03888116848601908152908816918401918252608084018d815294517ffbad73910000000000000000000000000000000000000000000000000000000081529351870b6004850152915190950b6024830152516044820152925160648401525160848301526001600160a01b03169063fbad73919060a401600060405180830381600087803b158015610f1f57600080fd5b505af1925050508015610f30575060015b505050600160175550919392505050565b60008060175460021415610f68576040516303cb96db60e21b815260040160405180910390fd5b6002601755610f78338787613bd0565b610f853387878787613cff565b601480549294509092508391601090610faf908490600160801b90046001600160801b0316615620565b92506101000a8154816001600160801b0302191690836001600160801b0316021790555080601560008282829054906101000a90046001600160801b0316610ff79190615620565b92506101000a8154816001600160801b0302191690836001600160801b03160217905550611026338383613e0a565b6002546040805180820182528481526020810184815291517f1228c47f00000000000000000000000000000000000000000000000000000000815290516004820152905160248201526001600160a01b0390911690631228c47f90604401600060405180830381600087803b15801561109e57600080fd5b505af19250505080156110af575060015b506001601755909590945092505050565b601754600214156110e4576040516303cb96db60e21b815260040160405180910390fd5b60026017556006546001600160801b03168061112c576040517f83ecd22400000000000000000000000000000000000000000000000000000000815260040160405180910390fd5b6014546015546001600160801b03600160801b90920482169116611151888888613e0a565b6000806111708989600060059054906101000a900462ffffff16613e38565b6040517fc3924ed60000000000000000000000000000000000000000000000000000000081529193509150339063c3924ed6906111b790859085908c908c90600401615648565b600060405180830381600087803b1580156111d157600080fd5b505af11580156111e5573d6000803e3d6000fd5b5050600354600092508291508190611205906001600160a01b0316613ad2565b600454909150600090611220906001600160a01b0316613ad2565b90508161122d878a6154f2565b111561124c5760405163420231d560e11b815260040160405180910390fd5b8061125786896154f2565b111561127657604051637218102160e11b815260040160405180910390fd5b61127f82613e6d565b601480546001600160801b03928316600160801b0292169190911790556112a581613e6d565b601580546fffffffffffffffffffffffffffffffff19166001600160801b03929092169190911790556112d88883615685565b93506112e48782615685565b601f5490935091505082156113875760006113028483612710613e88565b905080601360108282829054906101000a90046001600160801b031661132891906155f5565b92506101000a8154816001600160801b0302191690836001600160801b0316021790555061136f816001600160801b0316856113649190615685565b600160801b8b613ec6565b6008600082825461138091906154f2565b9091555050505b811561141057600061139c8383612710613e88565b6014805491925082916000906113bc9084906001600160801b03166155f5565b92506101000a8154816001600160801b0302191690836001600160801b031602179055506113f8816001600160801b0316846113649190615685565b6009600082825461140991906154f2565b9091555050505b6002546040805160a081018252338152602081018f81528183018f8152606083018881526080840188815294517f2987fbcc00000000000000000000000000000000000000000000000000000000815293516001600160a01b039081166004860152925160248501529051604484015251606483015291516084820152911690632987fbcc9060a401600060405180830381600087803b1580156114b357600080fd5b505af19250505080156114c4575060015b50505060016017555050505050505050505050565b6000601754600214156114ff576040516303cb96db60e21b815260040160405180910390fd5b60026017819055506000808380602001905181019061151e91906156ac565b9150915060008261153a576015546001600160801b031661154e565b601454600160801b90046001600160801b03165b6001600160801b031661158184611570576004546001600160a01b0316613ad2565b6003546001600160a01b0316613ad2565b61158b9190615685565b90506000604051806101200160405280600081526020016000815260200160008152602001856115bd576008546115c1565b6009545b8152602001856115d3576009546115d7565b6008545b81526016546001600160a01b031660208201526006546001600160801b03166040820152606081018490526080018561163657601654600160a01b9004600290810b60009081526019602052604090205463010000009004900b611644565b601654600160a01b900460020b5b60020b90529050611653613906565b60115461165f82613f79565b60e0820151156119f2576000611679836101000151613526565b6001600160a01b0316905060008087156117aa5760006116a48660c00151858860a001516000613ff0565b9050808660e001511161176a5760c086015160a087015160e088015160609290921b916000916116ea918491906116db90826156d8565b6116e590866154f2565b613e88565b90508086111580156116ff57508760a0015181105b61173d57611731828960e001518a60a001518561171c919061570d565b61172691906154f2565b808204910615150190565b6001600160a01b031690505b6117528860c00151828a60a001516000614048565b60a0890191909152600060e089015293506117a49050565b61177f8660c00151858860a001516000614048565b60a0870185905260e0870180519194506001935082916117a0908390615685565b9052505b5061185f565b60006117c18660c001518760a00151866000614048565b9050808660e00151116118235760006117e78760e00151600160601b8960c00151613ec6565b8760a001516117f691906154f2565b905061180d8760c001518860a00151836000613ff0565b60a0880191909152600060e0880152925061185d565b6118388660c001518760a00151866000613ff0565b60a0870185905260e087018051919450600193508291611859908390615685565b9052505b505b60c0850151156118b15761189c82600060059054906101000a900462ffffff16601f548860c0015189602001518e8b604001518c60600151614072565b60608901526040880152602087019190915298505b80156119ea576118c285858a61410a565b60c08501516119ea5761010085015160020b620d89e71914806118fb57506118ed620d89e719615721565b60020b85610100015160020b145b156119c357871561194e5761192560018660a0015161191a9190615685565b6401000276a36141c2565b60a086015261010085018051600290810b600090815260196020526040902054900b90526119bb565b61198f8560a00151600161196291906154f2565b611981600173fffd8963efd1fc6a506488495d951d5263988d26615744565b6001600160a01b03166141d9565b60a086015261010085018051600290810b60009081526019602052604090205463010000009004900b90525b5050506119f2565b6119d1856101000151613526565b6001600160a01b031660a08601526119ea85858a61410a565b50505061165f565b60a08201516016805473ffffffffffffffffffffffffffffffffffffffff19166001600160a01b03909216919091179055600085611a4b57610100830151600290810b600090815260196020526040902054900b611a52565b8261010001515b601654909150600282810b600160a01b909204900b14611ab6576016805462ffffff60a01b1916600160a01b62ffffff84160217905560c0830151600680546fffffffffffffffffffffffffffffffff19166001600160801b039092169190911790555b611ac18685896141e8565b611ad4868460600151856040015161434a565b8515611af657600454611af1906001600160a01b031688876133ad565b611b0d565b600354611b0d906001600160a01b031688876133ad565b600254604080516060810182528815158152602081018781528183018b815292517f91accd5f000000000000000000000000000000000000000000000000000000008152915115156004830152516024820152905160448201526001600160a01b03909116906391accd5f90606401600060405180830381600087803b158015611b9657600080fd5b505af1925050508015611ba7575060015b50505060016017555092949350505050565b6040805160028082526060808301845292602083019080368337505060035482519293506001600160a01b031691839150600090611bf957611bf9615764565b6001600160a01b039283166020918202929092010152600454825191169082906001908110611c2a57611c2a615764565b60200260200101906001600160a01b031690816001600160a01b03168152505090565b6005546001600160a01b03163314611c785760405163ea8e4eb560e01b815260040160405180910390fd5b612710811115611c9b57604051633494a40d60e21b815260040160405180910390fd5b601f55565b6000611cb3600854600a54600c546143c6565b905090565b60008060175460021415611cdf576040516303cb96db60e21b815260040160405180910390fd5b60026017556000611cef86613526565b90506000611cfc86613526565b6016549091506001600160a01b0316611d13613906565b806001600160a01b0316836001600160a01b031611158015611d465750816001600160a01b0316816001600160a01b0316105b15611d7757600680546001600160801b03808216899003166fffffffffffffffffffffffffffffffff199091161790555b611da9836001600160a01b0316836001600160a01b0316836001600160a01b0316896001600160801b03166000613a68565b6001600160801b039182169650811694506f7fffffffffffffffffffffffffffffff9087161115611e06576040517f35278d1200000000000000000000000000000000000000000000000000000000815260040160405180910390fd5b611e1a338989611e158a61577a565b613a40565b601480546001600160801b03600160801b808304821689900382160291811691909117909155601580548083168790039092166fffffffffffffffffffffffffffffffff1992909216919091179055611e74338686613e0a565b6016546040517f7c91cb9800000000000000000000000000000000000000000000000000000000815260196004820152601a602482015260028a810b604483015289810b60648301526001600160801b0389166084830152600160a01b90920490910b60a482015260009073__$5c5207d55745a34649a0c7f595c6a505bf$__90637c91cb989060c401604080518083038186803b158015611f1557600080fd5b505af4158015611f29573d6000803e3d6000fd5b505050506040513d601f19601f82011682018060405250810190611f4d91906155c7565b6016805462ffffff909316600160a01b0262ffffff60a01b1990931692909217909155601880549192508291600090611f87908490615685565b9091555050600280546040805160a0810182528c840b81528b840b602082019081528183018b8152606083018b81526001600160801b038e166080850190815294517ffc9482d20000000000000000000000000000000000000000000000000000000081529351870b6004850152915190950b602483015293516044820152925160648401525160848301526001600160a01b0316915063fc9482d29060a401600060405180830381600087803b15801561204157600080fd5b505af1925050508015612052575060015b5050506001601755509094909350915050565b60165460009081908190612081906001600160a01b0316614426565b90506000601960008760020b60020b81526020019081526020016000206040518060c00160405290816000820160009054906101000a900460020b60020b60020b81526020016000820160039054906101000a900460020b60020b60020b81526020016000820160069054906101000a90046001600160801b03166001600160801b03166001600160801b0316815260200160018201548152602001600282015481526020016003820160009054906101000a90046001600160a01b03166001600160a01b03166001600160a01b03168152505090506000601960008760020b60020b81526020019081526020016000206040518060c00160405290816000820160009054906101000a900460020b60020b60020b81526020016000820160039054906101000a900460020b60020b60020b81526020016000820160069054906101000a90046001600160801b03166001600160801b03166001600160801b0316815260200160018201548152602001600282015481526020016003820160009054906101000a90046001600160a01b03166001600160a01b03166001600160a01b0316815250509050600080600080612258600660009054906101000a90046001600160801b03166001600160801b031661477f565b9150915081600a5460085461226d91906154f2565b61227791906154f2565b935080600b5460095461228a91906154f2565b61229491906154f2565b925050506000808660020b8b60020b136122d05760608601516122b790836154f2565b91508560800151816122c991906154f2565b9050612308565b60608601516122df9085615685565b6122e990836154f2565b91508560800151836122fb9190615685565b61230590826154f2565b90505b8960020b8760020b121561233e57606085015161232590836154f2565b915084608001518161233791906154f2565b9050612376565b606085015161234d9085615685565b61235790836154f2565b91508460800151836123699190615685565b61237390826154f2565b90505b920399919003975095505050505050565b6005546001600160a01b031633146123b25760405163ea8e4eb560e01b815260040160405180910390fd5b6002805473ffffffffffffffffffffffffffffffffffffffff19166001600160a01b0392909216919091179055565b60165460009081906123fb906001600160a01b0316614426565b600654909150600090612416906001600160801b03166147c2565b60115461242391906154f2565b905060008260020b8660020b1361245957600286900b6000908152601a602052604090205461245290826154f2565b9050612484565b600286900b6000908152601a60205260409020546124779083615685565b61248190826154f2565b90505b8460020b8360020b12156124b757600285900b6000908152601a60205260409020546124b090826154f2565b90506124e2565b600285900b6000908152601a60205260409020546124d59083615685565b6124df90826154f2565b90505b9003949350505050565b60008060175460021415612513576040516303cb96db60e21b815260040160405180910390fd5b6002601755600154604080517fef36925200000000000000000000000000000000000000000000000000000000815290516000926001600160a01b03169163ef369252916004808301926020929190829003018186803b15801561257657600080fd5b505afa15801561258a573d6000803e3d6000fd5b505050506040513d601f19601f820116820180604052508101906125ae91906157b0565b604080516002808252606082018352929350600092909160208301908036833750506040805160028082526060820183529394506000939092509060208301908036833701905050601354909150600160801b90046001600160801b03161561270257601380546001600160801b0380821690925560148054600160801b928390048416985088939192601092612649928692900416615620565b92506101000a8154816001600160801b0302191690836001600160801b03160217905550612696600360009054906101000a90046001600160a01b0316866001600160801b0316856133ad565b60035482516001600160a01b039091169083906000906126b8576126b8615764565b60200260200101906001600160a01b031690816001600160a01b031681525050846001600160801b0316816000815181106126f5576126f5615764565b6020026020010181815250505b6014546001600160801b03161561280b57601480546fffffffffffffffffffffffffffffffff198116909155601580546001600160801b039283169650869260009161275091859116615620565b92506101000a8154816001600160801b0302191690836001600160801b0316021790555061279d600460009054906101000a90046001600160a01b0316856001600160801b0316856133ad565b60045482516001600160a01b0390911690839060019081106127c1576127c1615764565b60200260200101906001600160a01b031690816001600160a01b031681525050836001600160801b0316816001815181106127fe576127fe615764565b6020026020010181815250505b6001600160a01b0383163b15612895576040517ff03328300000000000000000000000000000000000000000000000000000000081526001600160a01b0384169063f03328309061286290859085906004016157cd565b600060405180830381600087803b15801561287c57600080fd5b505af1158015612890573d6000803e3d6000fd5b505050505b50505060016017559091565b600054610100900460ff166128bc5760005460ff16156128c0565b303b155b6129375760405162461bcd60e51b815260206004820152602e60248201527f496e697469616c697a61626c653a20636f6e747261637420697320616c72656160448201527f647920696e697469616c697a656400000000000000000000000000000000000060648201526084015b60405180910390fd5b600054610100900460ff1615801561297657600080547fffffffffffffffffffffffffffffffffffffffffffffffffffffffffffff0000166101011790555b6000806000806000878060200190518101906129929190615837565b600380546001600160a01b0380881673ffffffffffffffffffffffffffffffffffffffff199283161790925560048054838816908316179055601080548387169083161790556000805462ffffff80861662010000027fffffffffffffffffffffffffffffffffffffffffffffffffffffff000000ffff9188166501000000000002919091167fffffffffffffffffffffffffffffffffffffffffffffffff000000000000ffff909216919091171790556005805482163317905560018054928f1692909116919091179055939850919650945092509050612a73816147ea565b600060086101000a8154816001600160801b0302191690836001600160801b031602179055506040518060c00160405280620d89e71960020b8152602001620d89e719612abf90615721565b60020b815260006020808301829052604080840183905260608085018490526080948501849052620d89e719938490526019835285517f8b687876df6025befed93a16f72cd2848615619f141fc2441f1db80badfc7d3e805488860151898601516001600160801b03166601000000000000027fffffffffffffffffffff00000000000000000000000000000000ffffffffffff62ffffff92831663010000000265ffffffffffff19909416929095169190911791909117929092169190911790558501517f8b687876df6025befed93a16f72cd2848615619f141fc2441f1db80badfc7d3f55928401517f8b687876df6025befed93a16f72cd2848615619f141fc2441f1db80badfc7d405560a0909301517f8b687876df6025befed93a16f72cd2848615619f141fc2441f1db80badfc7d4180546001600160a01b039290921673ffffffffffffffffffffffffffffffffffffffff19909216919091179055815160c081019092528082529091820190612c3a90615721565b60020b815260200160006001600160801b03168152602001600081526020016000815260200160006001600160a01b031681525060196000620d89e719612c8090615721565b600290810b8252602080830193909352604091820160002084518154948601519386015162ffffff91821665ffffffffffff199096169590951763010000009190941602929092177fffffffffffffffffffff00000000000000000000000000000000ffffffffffff1666010000000000006001600160801b0390941693909302929092178155606083015160018083019190915560808401518284015560a0909301516003909101805473ffffffffffffffffffffffffffffffffffffffff19166001600160a01b039092169190911790556016805462ffffff60a01b191676f276180000000000000000000000000000000000000000179055601791909155600780547fffffffffffffffff00000000ffffffffffffffffffffffffffffffffffffffff16600160a01b4263ffffffff81169190910291909117909155601891909155601d55505043601e55505081159050612e0157600080547fffffffffffffffffffffffffffffffffffffffffffffffffffffffffffff00ff1690555b505050565b60175460021415612e2a576040516303cb96db60e21b815260040160405180910390fd5b6002601755600154604080517fd0a93173000000000000000000000000000000000000000000000000000000008152905133926001600160a01b03169163d0a931739160048083019260209291908290030181600087803b158015612e8e57600080fd5b505af1158015612ea2573d6000803e3d6000fd5b505050506040513d601f19601f82011682018060405250810190612ec691906157b0565b6001600160a01b031614612eed5760405163ea8e4eb560e01b815260040160405180910390fd5b42612ef882846154f2565b11612f1657604051633494a40d60e21b815260040160405180910390fd5b600e54600f54600090612f2990836154f2565b905083811115612f4c57604051633494a40d60e21b815260040160405180910390fd5b6001600160801b03871615612fc357600354612f7a906001600160a01b03166001600160801b03891661482a565b86601460108282829054906101000a90046001600160801b0316612f9e91906155f5565b92506101000a8154816001600160801b0302191690836001600160801b031602179055505b6001600160801b0386161561303457600454612ff1906001600160a01b03166001600160801b03881661482a565b6015805487919060009061300f9084906001600160801b03166155f5565b92506101000a8154816001600160801b0302191690836001600160801b031602179055505b6001600160801b0385161561306257601054613062906001600160a01b03166001600160801b03871661482a565b600061306c61483f565b11156131045761307a613906565b600754600160a01b900463ffffffff168181101561310257600061309e82856141c2565b6130a89084615685565b90506130be6130b9600c54836148af565b613e6d565b6130c8908a6155f5565b98506130d96130b9600d54836148af565b6130e390896155f5565b97506130f46130b9601254836148af565b6130fe90886155f5565b9650505b505b61311c876001600160801b0316600160801b85613ec6565b600c556131376001600160801b038716600160801b85613ec6565b600d556131526001600160801b038616600160801b85613ec6565b6012555050600e91909155600f555050600160175550565b6000611cb3600954600b54600d546143c6565b6005546001600160a01b031633146131a85760405163ea8e4eb560e01b815260040160405180910390fd5b6016546001600160a01b0316156131eb576040517f2f282c6c00000000000000000000000000000000000000000000000000000000815260040160405180910390fd5b6131f4816148c0565b6016805473ffffffffffffffffffffffffffffffffffffffff19166001600160a01b0392909216919091179055565b6000611cb360006011546012546143c6565b6001600160a01b0383166000908152601c60209081526040808320600286810b85529083528184209085900b845290915281209061327384846123e1565b82546001600160a01b0387166000908152601b6020908152604080832060028a810b85529083528184209089900b8452909152812054929350916132c2918403906001600160801b03166148af565b82845560018401805491925082916000906132e79084906001600160801b03166155f5565b92506101000a8154816001600160801b0302191690836001600160801b03160217905550505050505050565b6001600160a01b0384166000908152601c60209081526040808320600287810b85529083528184209086900b84529091528120600181015461335e906001600160801b0316846141d9565b60018201805491935083916000906133809084906001600160801b0316615620565b92506101000a8154816001600160801b0302191690836001600160801b0316021790555050949350505050565b612e016001600160a01b0384168284614930565b6000546133d99062010000900462ffffff16836158a4565b60020b15613413576040517fce8ef7fc00000000000000000000000000000000000000000000000000000000815260040160405180910390fd5b60005460029061342e9062010000900462ffffff16846158c6565b61343891906158a4565b60020b15613472576040517ffdf1420200000000000000000000000000000000000000000000000000000000815260040160405180910390fd5b60005461348a9062010000900462ffffff16826158a4565b60020b156134c4576040517fce8ef7fc00000000000000000000000000000000000000000000000000000000815260040160405180910390fd5b6000546002906134df9062010000900462ffffff16836158c6565b6134e991906158a4565b60020b613522576040517fa9778c6300000000000000000000000000000000000000000000000000000000815260040160405180910390fd5b5050565b60008060008360020b1261353d578260020b61354a565b8260020b61354a90615900565b9050613559620d89e719615721565b62ffffff16811115613597576040517ff87dc40c00000000000000000000000000000000000000000000000000000000815260040160405180910390fd5b6000600182166135ab57600160801b6135bd565b6ffffcb933bd6fad37aa2d162d1a5940015b70ffffffffffffffffffffffffffffffffff16905060028216156135f1576ffff97272373d413259a46990580e213a0260801c5b6004821615613610576ffff2e50f5f656932ef12357cf3c7fdcc0260801c5b600882161561362f576fffe5caca7e10e4e61c3624eaa0941cd00260801c5b601082161561364e576fffcb9843d60f6159c9db58835c9266440260801c5b602082161561366d576fff973b41fa98c081472e6896dfb254c00260801c5b604082161561368c576fff2ea16466c96a3843ec78b326b528610260801c5b60808216156136ab576ffe5dee046a99a2a811c461f1969c30530260801c5b6101008216156136cb576ffcbe86c7900a88aedcffc83b479aa3a40260801c5b6102008216156136eb576ff987a7253ac413176f2b074cf7815e540260801c5b61040082161561370b576ff3392b0822b70005940c7a398e4b70f30260801c5b61080082161561372b576fe7159475a2c29b7443b29c7fa6e889d90260801c5b61100082161561374b576fd097f3bdfd2022b8845ad8f792aa58250260801c5b61200082161561376b576fa9f746462d870fdf8a65dc1f90e061e50260801c5b61400082161561378b576f70d869a156d2a1b890bb3df62baf32f70260801c5b6180008216156137ab576f31be135f97d08fd981231505542fcfa60260801c5b620100008216156137cc576f09aa508b5b7a84e1c677de54f3e99bc90260801c5b620200008216156137ec576e5d6af8dedb81196699c329225ee6040260801c5b6204000082161561380b576d2216e584f5fa1ea926041bedfe980260801c5b62080000821615613828576b048a170391f7dc42444e8fa20260801c5b60008460020b1315613849578060001981613845576138456156f7565b0490505b64010000000081061561385d576001613860565b60005b60ff16602082901c0192505050919050565b60008385116138935761388c83600160601b888803613ec6565b90506138fd565b8584116138b55761388c826138ad8888600160601b613ec6565b888803613ec6565b60006138d2836138ca8888600160601b613ec6565b878903613ec6565b905060006138e785600160601b8a8903613ec6565b90508082106138f657806138f8565b815b925050505b95945050505050565b6006546001600160801b03168061391a5750565b600754600160a01b900463ffffffff16428110613935575050565b600061393f61483f565b905080156139b357613954600c548285613ec6565b600a600082825461396591906154f2565b9091555050600d54613978908285613ec6565b600b600082825461398991906154f2565b909155505060125461399c908285613ec6565b601160008282546139ad91906154f2565b90915550505b6007805463ffffffff42908116600160a01b027fffffffffffffffff00000000ffffffffffffffffffffffffffffffffffffffff90921691909117909155839083900360801b81613a0657613a066156f7565b6007805473ffffffffffffffffffffffffffffffffffffffff198116939092046001600160a01b0392831601909116919091179055505050565b613a4b848484613bd0565b613a56848484613235565b613a62848484846149d9565b50505050565b600080848611613a8857613a816130b985898987614048565b9050613ac8565b868511613aa557613a9e6130b985898987613ff0565b9150613ac8565b613ab46130b985878987613ff0565b9150613ac56130b985898887614048565b90505b9550959350505050565b604080513060248083019190915282518083039091018152604490910182526020810180517bffffffffffffffffffffffffffffffffffffffffffffffffffffffff167f70a08231000000000000000000000000000000000000000000000000000000001790529051600091829182916001600160a01b03861691613b579190615965565b600060405180830381855afa9150503d8060008114613b92576040519150601f19603f3d011682016040523d82523d6000602084013e613b97565b606091505b5091509150818015613bab57506020815110155b613bb457600080fd5b80806020019051810190613bc89190615981565b949350505050565b6001600160a01b0383166000908152601b60209081526040808320600286810b85529083528184209085900b845290915281209080613c0f8585612065565b600185015485549294509092506000918291613c3791908603906001600160801b03166148af565b60028601548654919350613c5791908503906001600160801b03166148af565b60018601859055600286018490556003860180549192508391600090613c879084906001600160801b03166155f5565b92506101000a8154816001600160801b0302191690836001600160801b03160217905550808560030160108282829054906101000a90046001600160801b0316613cd191906155f5565b92506101000a8154816001600160801b0302191690836001600160801b031602179055505050505050505050565b6001600160a01b0385166000908152601b60209081526040808320600288810b85529083528184209087900b845290915281206003810154829190613d4d906001600160801b0316866141d9565b6003820154909350613d6f90600160801b90046001600160801b0316856141d9565b6003820180549193508491600090613d919084906001600160801b0316615620565b92506101000a8154816001600160801b0302191690836001600160801b03160217905550818160030160108282829054906101000a90046001600160801b0316613ddb9190615620565b92506101000a8154816001600160801b0302191690836001600160801b03160217905550509550959350505050565b600354613e21906001600160a01b031683856133ad565b600454612e01906001600160a01b031682856133ad565b600080613e4e858462ffffff16620f4240613e88565b9150613e63848462ffffff16620f4240613e88565b9050935093915050565b806001600160801b0381168114613e8357600080fd5b919050565b6000613e95848484613ec6565b90508180613ea557613ea56156f7565b83850915613ebf576000198110613ebb57600080fd5b6001015b9392505050565b600080806000198587098587029250828110838203039150508060001415613f005760008411613ef557600080fd5b508290049050613ebf565b808411613f0c57600080fd5b6000848688096000868103871696879004966002600389028118808a02820302808a02820302808a02820302808a02820302808a02820302808a02909103029181900381900460010186841190950394909402919094039290920491909117919091029150509392505050565b60c081015115613f865750565b61010081015160020b620d89e7191480613fb65750613fa8620d89e719615721565b60020b81610100015160020b145b15613fed576040517f6ba599a000000000000000000000000000000000000000000000000000000000815260040160405180910390fd5b50565b6000811561401f5761401861400c606087901b86860386613e88565b85808204910615150190565b9050613bc8565b83614031606087901b82860386613ec6565b8161403e5761403e6156f7565b0495945050505050565b600081156140615761401885858503600160601b613e88565b6138fd85858503600160601b613ec6565b600080600080600061408d8d8d62ffffff16620f4240613e88565b9050614099818a6154f2565b98506140a5818e615685565b6140af90896154f2565b975060006140c0828d612710613e88565b90506140cc81896154f2565b97506140d88183615685565b91506140e982600160801b8d613ec6565b6140f390886154f2565b999e989d50969b5097995095975050505050505050565b6141ac601a846101000151600760009054906101000a90046001600160a01b03168660c001518561414c57600a54886060015161414791906154f2565b61415e565b600b54886060015161415e91906154f2565b8661417a57600b54896080015161417591906154f2565b61418c565b600a54896080015161418c91906154f2565b6000546019969594939291908a908a9062010000900462ffffff16614b0b565b60020b61010085015260c0909301929092525050565b6000818310156141d25781613ebf565b5090919050565b60008183106141d25781613ebf565b82156142a057600354600090614206906001600160a01b0316613ad2565b60145490915060009061422a908590600160801b90046001600160801b03166155f5565b905081816001600160801b031611156142565760405163420231d560e11b815260040160405180910390fd5b601480546001600160801b03928316600160801b02908316179055601580548083168590039092166fffffffffffffffffffffffffffffffff199290921691909117905550505050565b6004546000906142b8906001600160a01b0316613ad2565b6015549091506000906142d59085906001600160801b03166155f5565b905081816001600160801b0316111561430157604051637218102160e11b815260040160405180910390fd5b601580546001600160801b039283166fffffffffffffffffffffffffffffffff1990911617905560148054600160801b8082048416869003841602921691909117905550505050565b821561439c576009829055601480548291906000906143739084906001600160801b03166155f5565b92506101000a8154816001600160801b0302191690836001600160801b03160217905550505050565b600882905560138054829190601090614373908490600160801b90046001600160801b03166155f5565b6000806143d161483f565b6006549091506001600160801b031681158015906143ef5750600081115b1561441c576143ff848383613ec6565b61440986886154f2565b61441391906154f2565b92505050613ebf565b61441385876154f2565b60006401000276a36001600160a01b0383161080614461575073fffd8963efd1fc6a506488495d951d5263988d266001600160a01b03831610155b15614498576040517f6e4ba61d00000000000000000000000000000000000000000000000000000000815260040160405180910390fd5b77ffffffffffffffffffffffffffffffffffffffff00000000602083901b166001600160801b03811160071b81811c67ffffffffffffffff811160061b90811c63ffffffff811160051b90811c61ffff811160041b90811c60ff8111600390811b91821c600f811160021b90811c918211600190811b92831c9790881196179094179092171790911717176080811061453957607f810383901c9150614543565b80607f0383901b91505b908002607f81811c60ff83811c9190911c800280831c81831c1c800280841c81841c1c800280851c81851c1c800280861c81861c1c800280871c81871c1c800280881c81881c1c800280891c81891c1c8002808a1c818a1c1c8002808b1c818b1c1c8002808c1c818c1c1c8002808d1c818d1c1c8002808e1c9c81901c9c909c1c80029c8d901c9e9d7fffffffffffffffffffffffffffffffffffffffffffffffffffffffffffffff808f0160401b60c09190911c678000000000000000161760c19b909b1c674000000000000000169a909a1760c29990991c672000000000000000169890981760c39790971c671000000000000000169690961760c49590951c670800000000000000169490941760c59390931c670400000000000000169290921760c69190911c670200000000000000161760c79190911c670100000000000000161760c89190911c6680000000000000161760c99190911c6640000000000000161760ca9190911c6620000000000000161760cb9190911c6610000000000000161760cc9190911c6608000000000000161760cd9190911c66040000000000001617693627a301d71055774c8581027ffffffffffffffffffffffffffffffffffd709b7e5480fba5a50fed5e62ffc5568101608090811d906fdb2df09e81959a81455e260799a0632f8301901d600281810b9083900b1461477057886001600160a01b031661475582613526565b6001600160a01b0316111561476a5781614772565b80614772565b815b9998505050505050505050565b6000808261479257506000928392509050565b600061479c61483f565b90506147ab600c548286613ec6565b92506147ba600d548286613ec6565b915050915091565b6000816147d157506000919050565b60006147db61483f565b9050613ebf6012548285613ec6565b60006147f782600261599a565b614804620d89e719615721565b61480e91906159c5565b6148249062ffffff166001600160801b036159e7565b92915050565b6135226001600160a01b038316333084614daa565b600e5460009042811061485457600091505090565b600754600f54600160a01b90910463ffffffff169060009061487690846154f2565b9050818111614889576000935050505090565b61489382846141c2565b61489d42836141d9565b6148a79190615685565b935050505090565b6000613ebf8383600160801b613ec6565b6401000276a36001600160a01b03821610806148f9575073fffd8963efd1fc6a506488495d951d5263988d266001600160a01b03821610155b15613fed576040517f6e4ba61d00000000000000000000000000000000000000000000000000000000815260040160405180910390fd5b6040516001600160a01b038316602482015260448101829052612e019084907fa9059cbb00000000000000000000000000000000000000000000000000000000906064015b60408051601f198184030181529190526020810180517bffffffffffffffffffffffffffffffffffffffffffffffffffffffff167fffffffff0000000000000000000000000000000000000000000000000000000090931692909217909152614dfb565b80600f0b600014156149ea57613a62565b6001600160a01b0384166000908152601b60209081526040808320600287810b85529083528184209086900b8452909152812090600f83900b1315614abb57805482908290600090614a469084906001600160801b03166155f5565b82546101009290920a6001600160801b038181021990931691831602179091556000548354680100000000000000009091048216911611159050614ab6576040517fb03425ae00000000000000000000000000000000000000000000000000000000815260040160405180910390fd5b614b04565b614ac48261577a565b81548290600090614adf9084906001600160801b0316615620565b92506101000a8154816001600160801b0302191690836001600160801b031602179055505b5050505050565b600288900b600090815260208b905260408120600301548190614b37906001600160a01b03168a615744565b60028b900b600090815260208e81526040808320600301805473ffffffffffffffffffffffffffffffffffffffff19166001600160a01b0395909516949094179093558d90522054614b899086615685565b60028b900b600090815260208d905260409020558315614c9c5760028360020b8b60020b81614bba57614bba6156f7565b0560020b81614bcb57614bcb6156f7565b0760020b614c035760028a900b600090815260208d90526040902054660100000000000090046001600160801b031690970396614c30565b60028a900b600090815260208d90526040902054660100000000000090046001600160801b031697909701965b60028a900b600090815260208d90526040902060010154614c519087615685565b60028b810b600090815260208f90526040902060018101929092550154614c789088615685565b60029a8b0b600090815260208e905260409020808c01919091555490990b98614d98565b60028360020b8b60020b81614cb357614cb36156f7565b0560020b81614cc457614cc46156f7565b0760020b614cfd5760028a900b600090815260208d90526040902054660100000000000090046001600160801b03169790970196614d29565b60028a900b600090815260208d90526040902054660100000000000090046001600160801b0316909703965b60028a810b600090815260208e9052604090200154614d489087615685565b60028b810b600090815260208f9052604090209081019190915560010154614d709088615685565b60029a8b0b600090815260208e9052604090206001810191909155546301000000900490990b985b50959a97995096975050505050505050565b6040516001600160a01b0380851660248301528316604482015260648101829052613a629085907f23b872dd0000000000000000000000000000000000000000000000000000000090608401614975565b6000614e50826040518060400160405280602081526020017f5361666545524332303a206c6f772d6c6576656c2063616c6c206661696c6564815250856001600160a01b0316614ee09092919063ffffffff16565b805190915015612e015780806020019051810190614e6e9190615a01565b612e015760405162461bcd60e51b815260206004820152602a60248201527f5361666545524332303a204552433230206f7065726174696f6e20646964206e60448201527f6f74207375636365656400000000000000000000000000000000000000000000606482015260840161292e565b6060613bc88484600085856001600160a01b0385163b614f425760405162461bcd60e51b815260206004820152601d60248201527f416464726573733a2063616c6c20746f206e6f6e2d636f6e7472616374000000604482015260640161292e565b600080866001600160a01b03168587604051614f5e9190615965565b60006040518083038185875af1925050503d8060008114614f9b576040519150601f19603f3d011682016040523d82523d6000602084013e614fa0565b606091505b5091509150614fb0828286614fbb565b979650505050505050565b60608315614fca575081613ebf565b825115614fda5782518084602001fd5b8160405162461bcd60e51b815260040161292e9190615a1c565b8060020b8114613fed57600080fd5b60008060006060848603121561501857600080fd5b833561502381614ff4565b9250602084013561503381614ff4565b929592945050506040919091013590565b634e487b7160e01b600052604160045260246000fd5b80356001600160801b0381168114613e8357600080fd5b600060c0828403121561508357600080fd5b60405160c0810181811067ffffffffffffffff821117156150a6576150a6615044565b60405282356150b481614ff4565b815260208301356150c481614ff4565b602082015260408301356150d781614ff4565b604082015260608301356150ea81614ff4565b60608201526150fb6080840161505a565b608082015261510c60a0840161505a565b60a08201529392505050565b6000806000806080858703121561512e57600080fd5b843561513981614ff4565b9350602085013561514981614ff4565b93969395505050506040820135916060013590565b6001600160a01b0381168114613fed57600080fd5b60008060008060006080868803121561518b57600080fd5b85356151968161515e565b94506020860135935060408601359250606086013567ffffffffffffffff808211156151c157600080fd5b818801915088601f8301126151d557600080fd5b8135818111156151e457600080fd5b8960208285010111156151f657600080fd5b9699959850939650602001949392505050565b600082601f83011261521a57600080fd5b813567ffffffffffffffff8082111561523557615235615044565b604051601f8301601f19908116603f0116810190828211818310171561525d5761525d615044565b8160405283815286602085880101111561527657600080fd5b836020870160208301376000602085830101528094505050505092915050565b6000602082840312156152a857600080fd5b813567ffffffffffffffff8111156152bf57600080fd5b613bc884828501615209565b600081518084526020808501945080840160005b838110156153045781516001600160a01b0316875295820195908201906001016152df565b509495945050505050565b602081526000613ebf60208301846152cb565b60006020828403121561533457600080fd5b5035919050565b60008060006060848603121561535057600080fd5b833561535b81614ff4565b9250602084013561536b81614ff4565b91506153796040850161505a565b90509250925092565b60008060006060848603121561539757600080fd5b83356153a28161515e565b925060208401356153b281614ff4565b915060408401356153c281614ff4565b809150509250925092565b600080604083850312156153e057600080fd5b82356153eb81614ff4565b915060208301356153fb81614ff4565b809150509250929050565b60006020828403121561541857600080fd5b8135613ebf8161515e565b6000806040838503121561543657600080fd5b823567ffffffffffffffff81111561544d57600080fd5b61545985828601615209565b92505060208301356153fb8161515e565b600080600080600060a0868803121561548257600080fd5b61548b8661505a565b94506154996020870161505a565b93506154a76040870161505a565b94979396509394606081013594506080013592915050565b6000602082840312156154d157600080fd5b8135613ebf81614ff4565b634e487b7160e01b600052601160045260246000fd5b60008219821115615505576155056154dc565b500190565b60006101a0820190508b82528a60208301528951604083015260208a0151606083015260408a015160808301526001600160a01b0360608b01511660a083015261555960c083018a60020b9052565b61556860e083018960020b9052565b61557861010083018860020b9052565b61558861012083018760020b9052565b6001600160801b0385166101408301526155a861016083018560020b9052565b6001600160a01b0383166101808301529b9a5050505050505050505050565b600080604083850312156155da57600080fd5b82516155e581614ff4565b6020939093015192949293505050565b60006001600160801b03808316818516808303821115615617576156176154dc565b01949350505050565b60006001600160801b0383811690831681811015615640576156406154dc565b039392505050565b84815283602082015260606040820152816060820152818360808301376000818301608090810191909152601f909201601f191601019392505050565b600082821015615697576156976154dc565b500390565b80518015158114613e8357600080fd5b600080604083850312156156bf57600080fd5b6156c88361569c565b915060208301516153fb8161515e565b60008160001904831182151516156156f2576156f26154dc565b500290565b634e487b7160e01b600052601260045260246000fd5b60008261571c5761571c6156f7565b500490565b60008160020b627fffff1981141561573b5761573b6154dc565b60000392915050565b60006001600160a01b0383811690831681811015615640576156406154dc565b634e487b7160e01b600052603260045260246000fd5b600081600f0b7fffffffffffffffffffffffffffffffff8000000000000000000000000000000081141561573b5761573b6154dc565b6000602082840312156157c257600080fd5b8151613ebf8161515e565b6040815260006157e060408301856152cb565b82810360208481019190915284518083528582019282019060005b81811015615817578451835293830193918301916001016157fb565b5090979650505050505050565b805162ffffff81168114613e8357600080fd5b600080600080600060a0868803121561584f57600080fd5b855161585a8161515e565b602087015190955061586b8161515e565b604087015190945061587c8161515e565b925061588a60608701615824565b915061589860808701615824565b90509295509295909350565b60008260020b806158b7576158b76156f7565b808360020b0791505092915050565b60008160020b8360020b806158dd576158dd6156f7565b6000198114627fffff19831416156158f7576158f76154dc565b90059392505050565b60007f8000000000000000000000000000000000000000000000000000000000000000821415615932576159326154dc565b5060000390565b60005b8381101561595457818101518382015260200161593c565b83811115613a625750506000910152565b60008251615977818460208701615939565b9190910192915050565b60006020828403121561599357600080fd5b5051919050565b600062ffffff808316818516818304811182151516156159bc576159bc6154dc565b02949350505050565b600062ffffff808416806159db576159db6156f7565b92169190910492915050565b60006001600160801b03808416806159db576159db6156f7565b600060208284031215615a1357600080fd5b613ebf8261569c565b6020815260008251806020840152615a3b816040850160208701615939565b601f01601f1916919091016040019291505056fea2646970667358221220777d809c5c2c08dd629f70025a8c1545e33d49b9e5ec1879c5db59960e99e8c164736f6c63430008090033",
  "libraries": {
    "RewardTicks": "0xaCc9af149D4E4B75304eb865B3120aF152B3652C"
  }
}