{
  "address": "0x7A6F82431Af2Fb13F30a3194980cA5b395497Ff4",
  "abi": [
    {
      "inputs": [],
      "name": "TickOutOfBounds",
      "type": "error"
    },
    {
      "inputs": [
        {
          "internalType": "address",
          "name": "_positionManager",
          "type": "address"
        }
      ],
      "name": "initialize",
      "outputs": [],
      "stateMutability": "nonpayable",
      "type": "function"
    },
    {
      "inputs": [],
      "name": "positionManager",
      "outputs": [
        {
          "internalType": "contract IConcentratedLiquidityPoolManager",
          "name": "",
          "type": "address"
        }
      ],
      "stateMutability": "view",
      "type": "function"
    },
    {
      "inputs": [
        {
          "internalType": "uint256",
          "name": "positionId",
          "type": "uint256"
        }
      ],
      "name": "tokenURI",
      "outputs": [
        {
          "internalType": "string",
          "name": "",
          "type": "string"
        }
      ],
      "stateMutability": "view",
      "type": "function"
    }
  ],
  "transactionHash": "0x1622262f5bc853541e21eb419e4208d04c749fa486d783c7cf4b9407f098affa",
  "args": [],
  "numDeployments": 1,
  "solcInputHash": "52ba71685b8bf58d29115d47983e0297",
  "bytecode": "0x608060405234801561001057600080fd5b50612f9f806100206000396000f3fe608060405234801561001057600080fd5b50600436106100415760003560e01c8063791b98bc14610046578063c4d66de814610096578063c87b56dd146100ab575b600080fd5b60005461006c9062010000900473ffffffffffffffffffffffffffffffffffffffff1681565b60405173ffffffffffffffffffffffffffffffffffffffff90911681526020015b60405180910390f35b6100a96100a436600461215d565b6100cb565b005b6100be6100b936600461217a565b610231565b60405161008d91906121c3565b600054610100900460ff166100e65760005460ff16156100ea565b303b155b61017a576040517f08c379a000000000000000000000000000000000000000000000000000000000815260206004820152602e60248201527f496e697469616c697a61626c653a20636f6e747261637420697320616c72656160448201527f647920696e697469616c697a6564000000000000000000000000000000000000606482015260840160405180910390fd5b600054610100900460ff161580156101b957600080547fffffffffffffffffffffffffffffffffffffffffffffffffffffffffffff0000166101011790555b600080547fffffffffffffffffffff0000000000000000000000000000000000000000ffff166201000073ffffffffffffffffffffffffffffffffffffffff851602179055801561022d57600080547fffffffffffffffffffffffffffffffffffffffffffffffffffffffffffff00ff1690555b5050565b6060610245826102408461024b565b610588565b92915050565b600080546040517f99fbab88000000000000000000000000000000000000000000000000000000008152600481018490526060929162010000900473ffffffffffffffffffffffffffffffffffffffff16906399fbab88906024016101206040518083038186803b1580156102bf57600080fd5b505afa1580156102d3573d6000803e3d6000fd5b505050506040513d601f19601f820116820180604052508101906102f791906122c3565b90506000816000015190506105806040518060c001604052808373ffffffffffffffffffffffffffffffffffffffff16630dfe16816040518163ffffffff1660e01b815260040160206040518083038186803b15801561035657600080fd5b505afa15801561036a573d6000803e3d6000fd5b505050506040513d601f19601f8201168201806040525081019061038e9190612361565b73ffffffffffffffffffffffffffffffffffffffff1681526020018373ffffffffffffffffffffffffffffffffffffffff1663d21220a76040518163ffffffff1660e01b815260040160206040518083038186803b1580156103ef57600080fd5b505afa158015610403573d6000803e3d6000fd5b505050506040513d601f19601f820116820180604052508101906104279190612361565b73ffffffffffffffffffffffffffffffffffffffff1681526020018373ffffffffffffffffffffffffffffffffffffffff166354cf2aeb6040518163ffffffff1660e01b815260040160206040518083038186803b15801561048857600080fd5b505afa15801561049c573d6000803e3d6000fd5b505050506040513d601f19601f820116820180604052508101906104c0919061237e565b62ffffff1681526020018373ffffffffffffffffffffffffffffffffffffffff1663a035b1fe6040518163ffffffff1660e01b815260040160206040518083038186803b15801561051057600080fd5b505afa158015610524573d6000803e3d6000fd5b505050506040513d601f19601f820116820180604052508101906105489190612361565b73ffffffffffffffffffffffffffffffffffffffff168152602001846040015160020b8152602001846060015160020b8152506105f1565b949350505050565b606060006105c66105988561080c565b6105a18561093e565b6040516020016105b29291906123a3565b60405160208183030381529060405261093e565b9050806040516020016105d991906124e6565b60405160208183030381529060405291505092915050565b606060006106028360000151610a92565b905060006106138460200151610ac3565b905060006106248560400151610ade565b9050600061063186610af9565b9050600061064c876060015188608001518960a00151610ce9565b90506000816106f857739DB74C5E5b0237037940e395E8E71E4DeC2c07CA630506eb406040518163ffffffff1660e01b815260040160006040518083038186803b15801561069957600080fd5b505af41580156106ad573d6000803e3d6000fd5b505050506040513d6000823e601f3d9081017fffffffffffffffffffffffffffffffffffffffffffffffffffffffffffffffe01682016040526106f3919081019061252b565b610796565b732AdD2B886Ba688D1D49b4D641fbfA97648b15566630506eb406040518163ffffffff1660e01b815260040160006040518083038186803b15801561073c57600080fd5b505af4158015610750573d6000803e3d6000fd5b505050506040513d6000823e601f3d9081017fffffffffffffffffffffffffffffffffffffffffffffffffffffffffffffffe0168201604052610796919081019061252b565b90506107a181610d6c565b868686866040518060400160405280600681526020017f3c2f7376673e00000000000000000000000000000000000000000000000000008152506040516020016107f0969594939291906125eb565b6040516020818303038152906040529650505050505050919050565b60608161084c57505060408051808201909152600181527f3000000000000000000000000000000000000000000000000000000000000000602082015290565b8160005b8115610876578061086081612699565b915061086f9050600a83612701565b9150610850565b60008167ffffffffffffffff81111561089157610891612214565b6040519080825280601f01601f1916602001820160405280156108bb576020820181803683370190505b5090505b8415610580576108d0600183612715565b91506108dd600a8661272c565b6108e8906030612740565b60f81b8183815181106108fd576108fd612758565b60200101907effffffffffffffffffffffffffffffffffffffffffffffffffffffffffffff1916908160001a905350610937600a86612701565b94506108bf565b606081516000141561095e57505060408051602081019091526000815290565b6000604051806060016040528060408152602001612eed604091399050600060038451600261098d9190612740565b6109979190612701565b6109a2906004612787565b67ffffffffffffffff8111156109ba576109ba612214565b6040519080825280601f01601f1916602001820160405280156109e4576020820181803683370190505b509050600182016020820185865187015b80821015610a50576003820191508151603f8160121c168501518453600184019350603f81600c1c168501518453600184019350603f8160061c168501518453600184019350603f81168501518453506001830192506109f5565b5050600386510660018114610a6c5760028114610a7f57610a87565b603d6001830353603d6002830353610a87565b603d60018303535b509195945050505050565b6060610a9d82610ef1565b604051602001610aad91906127c4565b6040516020818303038152906040529050919050565b6060610ace82610ef1565b604051602001610aad9190612856565b6060610ae9826110c3565b604051602001610aad91906128e8565b608081015160a08201516060917ffffffffffffffffffffffffffffffffffffffffffffffffffffffffffff27a00600291820b1291620d8600910b13818015610b3f5750805b15610b65576040518060800160405280604d8152602001612ea0604d9139949350505050565b600082610b8857610b83856080015186600001518760200151611392565b610bbf565b6040518060400160405280600381526020017f4d696e00000000000000000000000000000000000000000000000000000000008152505b9050600082610be457610bdf8660a0015187600001518860200151611392565b610c1b565b6040518060400160405280600381526020017f4d617800000000000000000000000000000000000000000000000000000000008152505b9050817329F80E9152cC0e5058574D48f371c0B46A6A4C5d630506eb406040518163ffffffff1660e01b815260040160006040518083038186803b158015610c6257600080fd5b505af4158015610c76573d6000803e3d6000fd5b505050506040513d6000823e601f3d9081017fffffffffffffffffffffffffffffffffffffffffffffffffffffffffffffffe0168201604052610cbc919081019061252b565b82604051602001610ccf9392919061297a565b604051602081830303815290604052945050505050919050565b60008373ffffffffffffffffffffffffffffffffffffffff16610d0b846114ad565b73ffffffffffffffffffffffffffffffffffffffff1611158015610d625750610d33826114ad565b73ffffffffffffffffffffffffffffffffffffffff168473ffffffffffffffffffffffffffffffffffffffff16105b90505b9392505050565b60606040518060a0016040528060748152602001612e2c607491398273ba63e82c2c29190C96998Ad40B4DB580a56E52Bf632b3ed84e6040518163ffffffff1660e01b815260040160006040518083038186803b158015610dcc57600080fd5b505af4158015610de0573d6000803e3d6000fd5b505050506040513d6000823e601f3d9081017fffffffffffffffffffffffffffffffffffffffffffffffffffffffffffffffe0168201604052610e26919081019061252b565b6040518060600160405280603d8152602001612f2d603d9139735C74BAfA8CFd8cB120123D5803B74a2C02c41cf4630506eb406040518163ffffffff1660e01b815260040160006040518083038186803b158015610e8357600080fd5b505af4158015610e97573d6000803e3d6000fd5b505050506040513d6000823e601f3d9081017fffffffffffffffffffffffffffffffffffffffffffffffffffffffffffffffe0168201604052610edd919081019061252b565b604051602001610aad959493929190612a8f565b606060008273ffffffffffffffffffffffffffffffffffffffff166395d89b416040518163ffffffff1660e01b815260040160006040518083038186803b158015610f3b57600080fd5b505afa158015610f4f573d6000803e3d6000fd5b505050506040513d6000823e601f3d9081017fffffffffffffffffffffffffffffffffffffffffffffffffffffffffffffffe0168201604052610f95919081019061252b565b9050600081604051602001610faa91906121c3565b6040516020818303038152906040528051906020012090506040516020016110039060208082526007908201527f574b4c4159313000000000000000000000000000000000000000000000000000604082015260600190565b6040516020818303038152906040528051906020012081148061107b57506040516020016110629060208082526005908201527f574b4c4159000000000000000000000000000000000000000000000000000000604082015260600190565b6040516020818303038152906040528051906020012081145b156110bc57505060408051808201909152600481527f4b4c415900000000000000000000000000000000000000000000000000000000602082015292915050565b5092915050565b606062ffffff821661110857505060408051808201909152600281527f3025000000000000000000000000000000000000000000000000000000000000602082015290565b816000805b62ffffff8316156111765760ff811615611133578061112b81612afa565b915050611156565b61113e600a84612b1a565b62ffffff1615611156578061115281612afa565b9150505b8161116081612699565b925061116f9050600a84612b3c565b925061110d565b6040805161010081018252600080825260208201819052918101829052606081018290526080810182905260a0810182905260c0810182905260e0810182905290600584106112b757600060046111d060ff861687612715565b10156111dd5760016111e0565b60005b60ff1690506111f0600185612b5e565b60ff166111fe600587612715565b1061122b5761120e600185612b5e565b60ff1661121c600587612715565b6112269190612715565b61122e565b60005b60ff85166080850181905290925060019061124a908490612740565b6112549190612715565b60ff1660a08401526080830151819061126f90600190612b5e565b60ff1661127c9190612740565b60ff9081166040850152819061129490861684612740565b61129f906001612740565b6112a99190612740565b60ff1660208401525061132c565b6112c2846005612715565b6002608084018190529091506001906112db9083612740565b6112e59190612715565b60ff90811660a08401526112fb90841682612740565b611306906002612740565b60ff166020830181905261131c90600290612b5e565b60ff166040830152600160c08301525b61133960ff841685612715565b61134490600a612ca1565b6113539062ffffff8916612701565b8252600160e08301526004841161136b576000611376565b611376600485612715565b60ff16606083015261138782611840565b979650505050505050565b606060008373ffffffffffffffffffffffffffffffffffffffff1663313ce5676040518163ffffffff1660e01b815260040160206040518083038186803b1580156113dc57600080fd5b505afa1580156113f0573d6000803e3d6000fd5b505050506040513d601f19601f820116820180604052508101906114149190612cad565b905060008373ffffffffffffffffffffffffffffffffffffffff1663313ce5676040518163ffffffff1660e01b815260040160206040518083038186803b15801561145e57600080fd5b505afa158015611472573d6000803e3d6000fd5b505050506040513d601f19601f820116820180604052508101906114969190612cad565b90506114a3868383611c0d565b9695505050505050565b60008060008360020b126114c4578260020b6114d1565b8260020b6114d190612cd0565b90506114fc7ffffffffffffffffffffffffffffffffffffffffffffffffffffffffffff27618612d09565b62ffffff1681111561153a576040517ff87dc40c00000000000000000000000000000000000000000000000000000000815260040160405180910390fd5b60006001821661155b5770010000000000000000000000000000000061156d565b6ffffcb933bd6fad37aa2d162d1a5940015b70ffffffffffffffffffffffffffffffffff16905060028216156115a1576ffff97272373d413259a46990580e213a0260801c5b60048216156115c0576ffff2e50f5f656932ef12357cf3c7fdcc0260801c5b60088216156115df576fffe5caca7e10e4e61c3624eaa0941cd00260801c5b60108216156115fe576fffcb9843d60f6159c9db58835c9266440260801c5b602082161561161d576fff973b41fa98c081472e6896dfb254c00260801c5b604082161561163c576fff2ea16466c96a3843ec78b326b528610260801c5b608082161561165b576ffe5dee046a99a2a811c461f1969c30530260801c5b61010082161561167b576ffcbe86c7900a88aedcffc83b479aa3a40260801c5b61020082161561169b576ff987a7253ac413176f2b074cf7815e540260801c5b6104008216156116bb576ff3392b0822b70005940c7a398e4b70f30260801c5b6108008216156116db576fe7159475a2c29b7443b29c7fa6e889d90260801c5b6110008216156116fb576fd097f3bdfd2022b8845ad8f792aa58250260801c5b61200082161561171b576fa9f746462d870fdf8a65dc1f90e061e50260801c5b61400082161561173b576f70d869a156d2a1b890bb3df62baf32f70260801c5b61800082161561175b576f31be135f97d08fd981231505542fcfa60260801c5b6201000082161561177c576f09aa508b5b7a84e1c677de54f3e99bc90260801c5b6202000082161561179c576e5d6af8dedb81196699c329225ee6040260801c5b620400008216156117bb576d2216e584f5fa1ea926041bedfe980260801c5b620800008216156117d8576b048a170391f7dc42444e8fa20260801c5b60008460020b131561181757807fffffffffffffffffffffffffffffffffffffffffffffffffffffffffffffffff81611813576118136126d2565b0490505b64010000000081061561182b57600161182e565b60005b60ff16602082901c0192505050919050565b60606000826020015160ff1667ffffffffffffffff81111561186457611864612214565b6040519080825280601f01601f19166020018201604052801561188e576020820181803683370190505b5090508260e001511561190b577f250000000000000000000000000000000000000000000000000000000000000081600183516118cb9190612715565b815181106118db576118db612758565b60200101907effffffffffffffffffffffffffffffffffffffffffffffffffffffffffffff1916908160001a9053505b8260c00151156119dc577f30000000000000000000000000000000000000000000000000000000000000008160008151811061194957611949612758565b60200101907effffffffffffffffffffffffffffffffffffffffffffffffffffffffffffff1916908160001a9053507f2e00000000000000000000000000000000000000000000000000000000000000816001815181106119ac576119ac612758565b60200101907effffffffffffffffffffffffffffffffffffffffffffffffffffffffffffff1916908160001a9053505b608083015160ff165b60a08401516119f5906001612d48565b60ff16811015611a5757603060f81b828281518110611a1657611a16612758565b60200101907effffffffffffffffffffffffffffffffffffffffffffffffffffffffffffff1916908160001a90535080611a4f81612699565b9150506119e5565b505b825115610245576000836060015160ff16118015611a845750826060015160ff16836040015160ff16145b15611b09577f2e0000000000000000000000000000000000000000000000000000000000000081846040018051809190611abd90612d6d565b60ff1660ff1681525060ff1681518110611ad957611ad9612758565b60200101907effffffffffffffffffffffffffffffffffffffffffffffffffffffffffffff1916908160001a9053505b604083015160ff16611b78578251611b2390600a9061272c565b611b2e906030612740565b60f81b81600081518110611b4457611b44612758565b60200101907effffffffffffffffffffffffffffffffffffffffffffffffffffffffffffff1916908160001a905350610245565b8251611b8690600a9061272c565b611b91906030612740565b60f81b81846040018051809190611ba790612d6d565b60ff1660ff1681525060ff1681518110611bc357611bc3612758565b60200101907effffffffffffffffffffffffffffffffffffffffffffffffffffffffffffff1916908160001a905350600a83600001818151611c059190612701565b905250611a59565b60606000611c1a856114ad565b9050611c27818585611c30565b95945050505050565b60606000611c3f858585611e63565b90506000611c57828368010000000000000000611fbe565b90506c0100000000000000000000000082108015611ca557611c9e8272047bf19673df52e37f2410011d100000000000700100000000000000000000000000000000611fbe565b9150611cc7565b611cc482620186a0700100000000000000000000000000000000611fbe565b91505b8160005b8115611cf15780611cdb81612afa565b9150611cea9050600a83612701565b9150611ccb565b611cfc600182612b5e565b9050600080611d0b868461208f565b915091508015611d235782611d1f81612afa565b9350505b6040805161010081018252600080825260208201819052918101829052606081018290526080810182905260a0810182905260c0810182905260e08101919091528515611dcf57611d7584602b612b5e565b611d80906007612d48565b60ff908116602083015260026080830152611d9e908516602b612715565b611da9906001612740565b60ff1660a08201526020810151611dc290600190612b5e565b60ff166040820152611e38565b60098460ff1610611e1657611de5600485612b5e565b60ff166020820181905260056080830152611e0290600190612b5e565b60ff1660a082015260046040820152611e38565b6006602082015260056040820152611e2f600485612b5e565b60ff1660608201525b82815285151560c0820152600060e0820152611e5381611840565b9c9b505050505050505050505050565b600080611e7e611e7960ff808616908716612da8565b61211c565b9050600081118015611e91575060128111155b15611f9c578260ff168460ff161115611f2457611eaf600282612701565b611eba90600a612ca1565b611eda9073ffffffffffffffffffffffffffffffffffffffff8716612787565b9150611ee760028261272c565b60011415611f1f57611f1c827003298b075b4b6a5240945790619b37fd4a700100000000000000000000000000000000611fbe565b91505b611fb6565b611f2f600282612701565b611f3a90600a612ca1565b611f5a9073ffffffffffffffffffffffffffffffffffffffff8716612701565b9150611f6760028261272c565b60011415611f1f57611f1c827001000000000000000000000000000000007003298b075b4b6a5240945790619b37fd4a611fbe565b8473ffffffffffffffffffffffffffffffffffffffff1691505b509392505050565b600080807fffffffffffffffffffffffffffffffffffffffffffffffffffffffffffffffff8587098587029250828110838203039150508060001415612016576000841161200b57600080fd5b508290049050610d65565b80841161202257600080fd5b6000848688096000868103871696879004966002600389028118808a02820302808a02820302808a02820302808a02820302808a02820302808a02909103029181900381900460010186841190950394909402919094039290920491909117919091029150509392505050565b600080600060058460ff1611156120c3576120ab600585612b5e565b6120b690600a612e1c565b6120c09086612701565b94505b600060046120d2600a8861272c565b1190506120e0600a87612701565b955080156120f6576120f3866001612740565b95505b85620186a014156121135761210c600a87612701565b9550600191505b50939492505050565b6000808212156121345761212f82612cd0565b610245565b5090565b73ffffffffffffffffffffffffffffffffffffffff8116811461215a57600080fd5b50565b60006020828403121561216f57600080fd5b8135610d6581612138565b60006020828403121561218c57600080fd5b5035919050565b60005b838110156121ae578181015183820152602001612196565b838111156121bd576000848401525b50505050565b60208152600082518060208401526121e2816040850160208701612193565b601f017fffffffffffffffffffffffffffffffffffffffffffffffffffffffffffffffe0169190910160400192915050565b7f4e487b7100000000000000000000000000000000000000000000000000000000600052604160045260246000fd5b604051610120810167ffffffffffffffff8111828210171561226757612267612214565b60405290565b805161227881612138565b919050565b80516fffffffffffffffffffffffffffffffff8116811461227857600080fd5b8051600281900b811461227857600080fd5b805163ffffffff8116811461227857600080fd5b600061012082840312156122d657600080fd5b6122de612243565b6122e78361226d565b81526122f56020840161227d565b60208201526123066040840161229d565b60408201526123176060840161229d565b6060820152612328608084016122af565b608082015260a083015160a082015260c083015160c082015260e083015160e08201526101008084015181830152508091505092915050565b60006020828403121561237357600080fd5b8151610d6581612138565b60006020828403121561239057600080fd5b815162ffffff81168114610d6557600080fd5b7f7b226e616d65223a2022506f736974696f6e20230000000000000000000000008152600083516123db816014850160208801612193565b7f222c20226465736372697074696f6e223a202250414e47454120506f736974696014918401918201527f6f6e204e46542c2074686973204e465420726570726573656e74732061206c6960348201527f7175696469747920706f736974696f6e20696e2050414e474541222c2022696d60548201527f616765223a2022646174613a696d6167652f7376672b786d6c3b62617365363460748201527f2c00000000000000000000000000000000000000000000000000000000000000609482015283516124b0816095840160208801612193565b7f227d00000000000000000000000000000000000000000000000000000000000060959290910191820152609701949350505050565b7f646174613a6170706c69636174696f6e2f6a736f6e3b6261736536342c00000081526000825161251e81601d850160208701612193565b91909101601d0192915050565b60006020828403121561253d57600080fd5b815167ffffffffffffffff8082111561255557600080fd5b818401915084601f83011261256957600080fd5b81518181111561257b5761257b612214565b604051601f82017fffffffffffffffffffffffffffffffffffffffffffffffffffffffffffffffe0908116603f011681019083821181831017156125c1576125c1612214565b816040528281528760208487010111156125da57600080fd5b611387836020830160208801612193565b6000875160206125fe8285838d01612193565b8851918401916126118184848d01612193565b88519201916126238184848c01612193565b87519201916126358184848b01612193565b86519201916126478184848a01612193565b85519201916126598184848901612193565b919091019998505050505050505050565b7f4e487b7100000000000000000000000000000000000000000000000000000000600052601160045260246000fd5b60007fffffffffffffffffffffffffffffffffffffffffffffffffffffffffffffffff8214156126cb576126cb61266a565b5060010190565b7f4e487b7100000000000000000000000000000000000000000000000000000000600052601260045260246000fd5b600082612710576127106126d2565b500490565b6000828210156127275761272761266a565b500390565b60008261273b5761273b6126d2565b500690565b600082198211156127535761275361266a565b500190565b7f4e487b7100000000000000000000000000000000000000000000000000000000600052603260045260246000fd5b6000817fffffffffffffffffffffffffffffffffffffffffffffffffffffffffffffffff04831182151516156127bf576127bf61266a565b500290565b7f3c7465787420783d2231362220793d2233312220666f6e742d73697a653d223281527f307078223e000000000000000000000000000000000000000000000000000000602082015260008251612822816025850160208701612193565b7f3c2f746578743e000000000000000000000000000000000000000000000000006025939091019283015250602c01919050565b7f3c7465787420783d223234382220793d2233312220746578742d616e63686f7281527f3d22656e642220666f6e742d73697a653d2232307078223e00000000000000006020820152600082516128b4816038850160208701612193565b7f3c2f746578743e000000000000000000000000000000000000000000000000006038939091019283015250603f01919050565b7f3c7465787420783d2232392220793d223235322220746578742d616e63686f7281527f3d226d6964646c652220666f6e742d73697a653d2231317078223e000000000060208201526000825161294681603b850160208701612193565b7f3c2f746578743e00000000000000000000000000000000000000000000000000603b939091019283015250604201919050565b7f3c7465787420783d223132352220793d223235322220746578742d616e63686f81527f723d22656e642220666f6e742d73697a653d2231317078223e000000000000006020820152600084516129d8816039850160208901612193565b80830190507f3c2f746578743e000000000000000000000000000000000000000000000000008060398301528551612a17816040850160208a01612193565b7f3c7465787420783d223135302220793d223235322220746578742d616e63686f604093909101928301527f723d2273746172742220666f6e742d73697a653d2231317078223e000000000060608301528451612a7b81607b850160208901612193565b607b92019182015260820195945050505050565b60008651612aa1818460208b01612193565b865190830190612ab5818360208b01612193565b8651910190612ac8818360208a01612193565b8551910190612adb818360208901612193565b8451910190612aee818360208801612193565b01979650505050505050565b600060ff821660ff811415612b1157612b1161266a565b60010192915050565b600062ffffff80841680612b3057612b306126d2565b92169190910692915050565b600062ffffff80841680612b5257612b526126d2565b92169190910492915050565b600060ff821660ff841680821015612b7857612b7861266a565b90039392505050565b600181815b80851115612bda57817fffffffffffffffffffffffffffffffffffffffffffffffffffffffffffffffff04821115612bc057612bc061266a565b80851615612bcd57918102915b93841c9390800290612b86565b509250929050565b600082612bf157506001610245565b81612bfe57506000610245565b8160018114612c145760028114612c1e57612c3a565b6001915050610245565b60ff841115612c2f57612c2f61266a565b50506001821b610245565b5060208310610133831016604e8410600b8410161715612c5d575081810a610245565b612c678383612b81565b807fffffffffffffffffffffffffffffffffffffffffffffffffffffffffffffffff04821115612c9957612c9961266a565b029392505050565b6000610d658383612be2565b600060208284031215612cbf57600080fd5b815160ff81168114610d6557600080fd5b60007f8000000000000000000000000000000000000000000000000000000000000000821415612d0257612d0261266a565b5060000390565b60008160020b7fffffffffffffffffffffffffffffffffffffffffffffffffffffffffff800000811415612d3f57612d3f61266a565b60000392915050565b600060ff821660ff84168060ff03821115612d6557612d6561266a565b019392505050565b600060ff821680612d8057612d8061266a565b7fffffffffffffffffffffffffffffffffffffffffffffffffffffffffffffffff0192915050565b6000808312837f800000000000000000000000000000000000000000000000000000000000000001831281151615612de257612de261266a565b837f7fffffffffffffffffffffffffffffffffffffffffffffffffffffffffffffff018313811615612e1657612e1661266a565b50500390565b6000610d6560ff841683612be256fe3c73766720786d6c6e733d22687474703a2f2f7777772e77332e6f72672f323030302f737667222077696474683d2232363422206865696768743d22323634222076657273696f6e3d22312e312220666f6e742d66616d696c793d22766f6c63616e6f222066696c6c3d2223666666666666223e3c7465787420783d223133322220793d223235322220746578742d616e63686f723d226d6964646c652220666f6e742d73697a653d2231317078223e46756c6c2052616e67653c2f746578743e4142434445464748494a4b4c4d4e4f505152535455565758595a6162636465666768696a6b6c6d6e6f707172737475767778797a303132333435363738392b2f3c7265637420783d22302220793d22323332222077696474683d2232363422206865696768743d22333222202066696c6c3d2223303030303030222f3ea26469706673582212207e1de6f4883991cb152af76a9759c124b971e0d2695e60dfbbe7d2a522676a7164736f6c63430008090033",
  "deployedBytecode": "0x608060405234801561001057600080fd5b50600436106100415760003560e01c8063791b98bc14610046578063c4d66de814610096578063c87b56dd146100ab575b600080fd5b60005461006c9062010000900473ffffffffffffffffffffffffffffffffffffffff1681565b60405173ffffffffffffffffffffffffffffffffffffffff90911681526020015b60405180910390f35b6100a96100a436600461215d565b6100cb565b005b6100be6100b936600461217a565b610231565b60405161008d91906121c3565b600054610100900460ff166100e65760005460ff16156100ea565b303b155b61017a576040517f08c379a000000000000000000000000000000000000000000000000000000000815260206004820152602e60248201527f496e697469616c697a61626c653a20636f6e747261637420697320616c72656160448201527f647920696e697469616c697a6564000000000000000000000000000000000000606482015260840160405180910390fd5b600054610100900460ff161580156101b957600080547fffffffffffffffffffffffffffffffffffffffffffffffffffffffffffff0000166101011790555b600080547fffffffffffffffffffff0000000000000000000000000000000000000000ffff166201000073ffffffffffffffffffffffffffffffffffffffff851602179055801561022d57600080547fffffffffffffffffffffffffffffffffffffffffffffffffffffffffffff00ff1690555b5050565b6060610245826102408461024b565b610588565b92915050565b600080546040517f99fbab88000000000000000000000000000000000000000000000000000000008152600481018490526060929162010000900473ffffffffffffffffffffffffffffffffffffffff16906399fbab88906024016101206040518083038186803b1580156102bf57600080fd5b505afa1580156102d3573d6000803e3d6000fd5b505050506040513d601f19601f820116820180604052508101906102f791906122c3565b90506000816000015190506105806040518060c001604052808373ffffffffffffffffffffffffffffffffffffffff16630dfe16816040518163ffffffff1660e01b815260040160206040518083038186803b15801561035657600080fd5b505afa15801561036a573d6000803e3d6000fd5b505050506040513d601f19601f8201168201806040525081019061038e9190612361565b73ffffffffffffffffffffffffffffffffffffffff1681526020018373ffffffffffffffffffffffffffffffffffffffff1663d21220a76040518163ffffffff1660e01b815260040160206040518083038186803b1580156103ef57600080fd5b505afa158015610403573d6000803e3d6000fd5b505050506040513d601f19601f820116820180604052508101906104279190612361565b73ffffffffffffffffffffffffffffffffffffffff1681526020018373ffffffffffffffffffffffffffffffffffffffff166354cf2aeb6040518163ffffffff1660e01b815260040160206040518083038186803b15801561048857600080fd5b505afa15801561049c573d6000803e3d6000fd5b505050506040513d601f19601f820116820180604052508101906104c0919061237e565b62ffffff1681526020018373ffffffffffffffffffffffffffffffffffffffff1663a035b1fe6040518163ffffffff1660e01b815260040160206040518083038186803b15801561051057600080fd5b505afa158015610524573d6000803e3d6000fd5b505050506040513d601f19601f820116820180604052508101906105489190612361565b73ffffffffffffffffffffffffffffffffffffffff168152602001846040015160020b8152602001846060015160020b8152506105f1565b949350505050565b606060006105c66105988561080c565b6105a18561093e565b6040516020016105b29291906123a3565b60405160208183030381529060405261093e565b9050806040516020016105d991906124e6565b60405160208183030381529060405291505092915050565b606060006106028360000151610a92565b905060006106138460200151610ac3565b905060006106248560400151610ade565b9050600061063186610af9565b9050600061064c876060015188608001518960a00151610ce9565b90506000816106f85773__$7ca0199d3ca4f1c108ef525fb423da3d0a$__630506eb406040518163ffffffff1660e01b815260040160006040518083038186803b15801561069957600080fd5b505af41580156106ad573d6000803e3d6000fd5b505050506040513d6000823e601f3d9081017fffffffffffffffffffffffffffffffffffffffffffffffffffffffffffffffe01682016040526106f3919081019061252b565b610796565b73__$c1aff4d61ab98d2f75c4b419118cc9771d$__630506eb406040518163ffffffff1660e01b815260040160006040518083038186803b15801561073c57600080fd5b505af4158015610750573d6000803e3d6000fd5b505050506040513d6000823e601f3d9081017fffffffffffffffffffffffffffffffffffffffffffffffffffffffffffffffe0168201604052610796919081019061252b565b90506107a181610d6c565b868686866040518060400160405280600681526020017f3c2f7376673e00000000000000000000000000000000000000000000000000008152506040516020016107f0969594939291906125eb565b6040516020818303038152906040529650505050505050919050565b60608161084c57505060408051808201909152600181527f3000000000000000000000000000000000000000000000000000000000000000602082015290565b8160005b8115610876578061086081612699565b915061086f9050600a83612701565b9150610850565b60008167ffffffffffffffff81111561089157610891612214565b6040519080825280601f01601f1916602001820160405280156108bb576020820181803683370190505b5090505b8415610580576108d0600183612715565b91506108dd600a8661272c565b6108e8906030612740565b60f81b8183815181106108fd576108fd612758565b60200101907effffffffffffffffffffffffffffffffffffffffffffffffffffffffffffff1916908160001a905350610937600a86612701565b94506108bf565b606081516000141561095e57505060408051602081019091526000815290565b6000604051806060016040528060408152602001612eed604091399050600060038451600261098d9190612740565b6109979190612701565b6109a2906004612787565b67ffffffffffffffff8111156109ba576109ba612214565b6040519080825280601f01601f1916602001820160405280156109e4576020820181803683370190505b509050600182016020820185865187015b80821015610a50576003820191508151603f8160121c168501518453600184019350603f81600c1c168501518453600184019350603f8160061c168501518453600184019350603f81168501518453506001830192506109f5565b5050600386510660018114610a6c5760028114610a7f57610a87565b603d6001830353603d6002830353610a87565b603d60018303535b509195945050505050565b6060610a9d82610ef1565b604051602001610aad91906127c4565b6040516020818303038152906040529050919050565b6060610ace82610ef1565b604051602001610aad9190612856565b6060610ae9826110c3565b604051602001610aad91906128e8565b608081015160a08201516060917ffffffffffffffffffffffffffffffffffffffffffffffffffffffffffff27a00600291820b1291620d8600910b13818015610b3f5750805b15610b65576040518060800160405280604d8152602001612ea0604d9139949350505050565b600082610b8857610b83856080015186600001518760200151611392565b610bbf565b6040518060400160405280600381526020017f4d696e00000000000000000000000000000000000000000000000000000000008152505b9050600082610be457610bdf8660a0015187600001518860200151611392565b610c1b565b6040518060400160405280600381526020017f4d617800000000000000000000000000000000000000000000000000000000008152505b90508173__$b7830c43f5ac1507f3eb83b4c1c947d397$__630506eb406040518163ffffffff1660e01b815260040160006040518083038186803b158015610c6257600080fd5b505af4158015610c76573d6000803e3d6000fd5b505050506040513d6000823e601f3d9081017fffffffffffffffffffffffffffffffffffffffffffffffffffffffffffffffe0168201604052610cbc919081019061252b565b82604051602001610ccf9392919061297a565b604051602081830303815290604052945050505050919050565b60008373ffffffffffffffffffffffffffffffffffffffff16610d0b846114ad565b73ffffffffffffffffffffffffffffffffffffffff1611158015610d625750610d33826114ad565b73ffffffffffffffffffffffffffffffffffffffff168473ffffffffffffffffffffffffffffffffffffffff16105b90505b9392505050565b60606040518060a0016040528060748152602001612e2c607491398273__$ad68130af8f6624b1ed57377b80264e12e$__632b3ed84e6040518163ffffffff1660e01b815260040160006040518083038186803b158015610dcc57600080fd5b505af4158015610de0573d6000803e3d6000fd5b505050506040513d6000823e601f3d9081017fffffffffffffffffffffffffffffffffffffffffffffffffffffffffffffffe0168201604052610e26919081019061252b565b6040518060600160405280603d8152602001612f2d603d913973__$cfbbb80f5382ea97e13fe988cf9ca0c5d9$__630506eb406040518163ffffffff1660e01b815260040160006040518083038186803b158015610e8357600080fd5b505af4158015610e97573d6000803e3d6000fd5b505050506040513d6000823e601f3d9081017fffffffffffffffffffffffffffffffffffffffffffffffffffffffffffffffe0168201604052610edd919081019061252b565b604051602001610aad959493929190612a8f565b606060008273ffffffffffffffffffffffffffffffffffffffff166395d89b416040518163ffffffff1660e01b815260040160006040518083038186803b158015610f3b57600080fd5b505afa158015610f4f573d6000803e3d6000fd5b505050506040513d6000823e601f3d9081017fffffffffffffffffffffffffffffffffffffffffffffffffffffffffffffffe0168201604052610f95919081019061252b565b9050600081604051602001610faa91906121c3565b6040516020818303038152906040528051906020012090506040516020016110039060208082526007908201527f574b4c4159313000000000000000000000000000000000000000000000000000604082015260600190565b6040516020818303038152906040528051906020012081148061107b57506040516020016110629060208082526005908201527f574b4c4159000000000000000000000000000000000000000000000000000000604082015260600190565b6040516020818303038152906040528051906020012081145b156110bc57505060408051808201909152600481527f4b4c415900000000000000000000000000000000000000000000000000000000602082015292915050565b5092915050565b606062ffffff821661110857505060408051808201909152600281527f3025000000000000000000000000000000000000000000000000000000000000602082015290565b816000805b62ffffff8316156111765760ff811615611133578061112b81612afa565b915050611156565b61113e600a84612b1a565b62ffffff1615611156578061115281612afa565b9150505b8161116081612699565b925061116f9050600a84612b3c565b925061110d565b6040805161010081018252600080825260208201819052918101829052606081018290526080810182905260a0810182905260c0810182905260e0810182905290600584106112b757600060046111d060ff861687612715565b10156111dd5760016111e0565b60005b60ff1690506111f0600185612b5e565b60ff166111fe600587612715565b1061122b5761120e600185612b5e565b60ff1661121c600587612715565b6112269190612715565b61122e565b60005b60ff85166080850181905290925060019061124a908490612740565b6112549190612715565b60ff1660a08401526080830151819061126f90600190612b5e565b60ff1661127c9190612740565b60ff9081166040850152819061129490861684612740565b61129f906001612740565b6112a99190612740565b60ff1660208401525061132c565b6112c2846005612715565b6002608084018190529091506001906112db9083612740565b6112e59190612715565b60ff90811660a08401526112fb90841682612740565b611306906002612740565b60ff166020830181905261131c90600290612b5e565b60ff166040830152600160c08301525b61133960ff841685612715565b61134490600a612ca1565b6113539062ffffff8916612701565b8252600160e08301526004841161136b576000611376565b611376600485612715565b60ff16606083015261138782611840565b979650505050505050565b606060008373ffffffffffffffffffffffffffffffffffffffff1663313ce5676040518163ffffffff1660e01b815260040160206040518083038186803b1580156113dc57600080fd5b505afa1580156113f0573d6000803e3d6000fd5b505050506040513d601f19601f820116820180604052508101906114149190612cad565b905060008373ffffffffffffffffffffffffffffffffffffffff1663313ce5676040518163ffffffff1660e01b815260040160206040518083038186803b15801561145e57600080fd5b505afa158015611472573d6000803e3d6000fd5b505050506040513d601f19601f820116820180604052508101906114969190612cad565b90506114a3868383611c0d565b9695505050505050565b60008060008360020b126114c4578260020b6114d1565b8260020b6114d190612cd0565b90506114fc7ffffffffffffffffffffffffffffffffffffffffffffffffffffffffffff27618612d09565b62ffffff1681111561153a576040517ff87dc40c00000000000000000000000000000000000000000000000000000000815260040160405180910390fd5b60006001821661155b5770010000000000000000000000000000000061156d565b6ffffcb933bd6fad37aa2d162d1a5940015b70ffffffffffffffffffffffffffffffffff16905060028216156115a1576ffff97272373d413259a46990580e213a0260801c5b60048216156115c0576ffff2e50f5f656932ef12357cf3c7fdcc0260801c5b60088216156115df576fffe5caca7e10e4e61c3624eaa0941cd00260801c5b60108216156115fe576fffcb9843d60f6159c9db58835c9266440260801c5b602082161561161d576fff973b41fa98c081472e6896dfb254c00260801c5b604082161561163c576fff2ea16466c96a3843ec78b326b528610260801c5b608082161561165b576ffe5dee046a99a2a811c461f1969c30530260801c5b61010082161561167b576ffcbe86c7900a88aedcffc83b479aa3a40260801c5b61020082161561169b576ff987a7253ac413176f2b074cf7815e540260801c5b6104008216156116bb576ff3392b0822b70005940c7a398e4b70f30260801c5b6108008216156116db576fe7159475a2c29b7443b29c7fa6e889d90260801c5b6110008216156116fb576fd097f3bdfd2022b8845ad8f792aa58250260801c5b61200082161561171b576fa9f746462d870fdf8a65dc1f90e061e50260801c5b61400082161561173b576f70d869a156d2a1b890bb3df62baf32f70260801c5b61800082161561175b576f31be135f97d08fd981231505542fcfa60260801c5b6201000082161561177c576f09aa508b5b7a84e1c677de54f3e99bc90260801c5b6202000082161561179c576e5d6af8dedb81196699c329225ee6040260801c5b620400008216156117bb576d2216e584f5fa1ea926041bedfe980260801c5b620800008216156117d8576b048a170391f7dc42444e8fa20260801c5b60008460020b131561181757807fffffffffffffffffffffffffffffffffffffffffffffffffffffffffffffffff81611813576118136126d2565b0490505b64010000000081061561182b57600161182e565b60005b60ff16602082901c0192505050919050565b60606000826020015160ff1667ffffffffffffffff81111561186457611864612214565b6040519080825280601f01601f19166020018201604052801561188e576020820181803683370190505b5090508260e001511561190b577f250000000000000000000000000000000000000000000000000000000000000081600183516118cb9190612715565b815181106118db576118db612758565b60200101907effffffffffffffffffffffffffffffffffffffffffffffffffffffffffffff1916908160001a9053505b8260c00151156119dc577f30000000000000000000000000000000000000000000000000000000000000008160008151811061194957611949612758565b60200101907effffffffffffffffffffffffffffffffffffffffffffffffffffffffffffff1916908160001a9053507f2e00000000000000000000000000000000000000000000000000000000000000816001815181106119ac576119ac612758565b60200101907effffffffffffffffffffffffffffffffffffffffffffffffffffffffffffff1916908160001a9053505b608083015160ff165b60a08401516119f5906001612d48565b60ff16811015611a5757603060f81b828281518110611a1657611a16612758565b60200101907effffffffffffffffffffffffffffffffffffffffffffffffffffffffffffff1916908160001a90535080611a4f81612699565b9150506119e5565b505b825115610245576000836060015160ff16118015611a845750826060015160ff16836040015160ff16145b15611b09577f2e0000000000000000000000000000000000000000000000000000000000000081846040018051809190611abd90612d6d565b60ff1660ff1681525060ff1681518110611ad957611ad9612758565b60200101907effffffffffffffffffffffffffffffffffffffffffffffffffffffffffffff1916908160001a9053505b604083015160ff16611b78578251611b2390600a9061272c565b611b2e906030612740565b60f81b81600081518110611b4457611b44612758565b60200101907effffffffffffffffffffffffffffffffffffffffffffffffffffffffffffff1916908160001a905350610245565b8251611b8690600a9061272c565b611b91906030612740565b60f81b81846040018051809190611ba790612d6d565b60ff1660ff1681525060ff1681518110611bc357611bc3612758565b60200101907effffffffffffffffffffffffffffffffffffffffffffffffffffffffffffff1916908160001a905350600a83600001818151611c059190612701565b905250611a59565b60606000611c1a856114ad565b9050611c27818585611c30565b95945050505050565b60606000611c3f858585611e63565b90506000611c57828368010000000000000000611fbe565b90506c0100000000000000000000000082108015611ca557611c9e8272047bf19673df52e37f2410011d100000000000700100000000000000000000000000000000611fbe565b9150611cc7565b611cc482620186a0700100000000000000000000000000000000611fbe565b91505b8160005b8115611cf15780611cdb81612afa565b9150611cea9050600a83612701565b9150611ccb565b611cfc600182612b5e565b9050600080611d0b868461208f565b915091508015611d235782611d1f81612afa565b9350505b6040805161010081018252600080825260208201819052918101829052606081018290526080810182905260a0810182905260c0810182905260e08101919091528515611dcf57611d7584602b612b5e565b611d80906007612d48565b60ff908116602083015260026080830152611d9e908516602b612715565b611da9906001612740565b60ff1660a08201526020810151611dc290600190612b5e565b60ff166040820152611e38565b60098460ff1610611e1657611de5600485612b5e565b60ff166020820181905260056080830152611e0290600190612b5e565b60ff1660a082015260046040820152611e38565b6006602082015260056040820152611e2f600485612b5e565b60ff1660608201525b82815285151560c0820152600060e0820152611e5381611840565b9c9b505050505050505050505050565b600080611e7e611e7960ff808616908716612da8565b61211c565b9050600081118015611e91575060128111155b15611f9c578260ff168460ff161115611f2457611eaf600282612701565b611eba90600a612ca1565b611eda9073ffffffffffffffffffffffffffffffffffffffff8716612787565b9150611ee760028261272c565b60011415611f1f57611f1c827003298b075b4b6a5240945790619b37fd4a700100000000000000000000000000000000611fbe565b91505b611fb6565b611f2f600282612701565b611f3a90600a612ca1565b611f5a9073ffffffffffffffffffffffffffffffffffffffff8716612701565b9150611f6760028261272c565b60011415611f1f57611f1c827001000000000000000000000000000000007003298b075b4b6a5240945790619b37fd4a611fbe565b8473ffffffffffffffffffffffffffffffffffffffff1691505b509392505050565b600080807fffffffffffffffffffffffffffffffffffffffffffffffffffffffffffffffff8587098587029250828110838203039150508060001415612016576000841161200b57600080fd5b508290049050610d65565b80841161202257600080fd5b6000848688096000868103871696879004966002600389028118808a02820302808a02820302808a02820302808a02820302808a02820302808a02909103029181900381900460010186841190950394909402919094039290920491909117919091029150509392505050565b600080600060058460ff1611156120c3576120ab600585612b5e565b6120b690600a612e1c565b6120c09086612701565b94505b600060046120d2600a8861272c565b1190506120e0600a87612701565b955080156120f6576120f3866001612740565b95505b85620186a014156121135761210c600a87612701565b9550600191505b50939492505050565b6000808212156121345761212f82612cd0565b610245565b5090565b73ffffffffffffffffffffffffffffffffffffffff8116811461215a57600080fd5b50565b60006020828403121561216f57600080fd5b8135610d6581612138565b60006020828403121561218c57600080fd5b5035919050565b60005b838110156121ae578181015183820152602001612196565b838111156121bd576000848401525b50505050565b60208152600082518060208401526121e2816040850160208701612193565b601f017fffffffffffffffffffffffffffffffffffffffffffffffffffffffffffffffe0169190910160400192915050565b7f4e487b7100000000000000000000000000000000000000000000000000000000600052604160045260246000fd5b604051610120810167ffffffffffffffff8111828210171561226757612267612214565b60405290565b805161227881612138565b919050565b80516fffffffffffffffffffffffffffffffff8116811461227857600080fd5b8051600281900b811461227857600080fd5b805163ffffffff8116811461227857600080fd5b600061012082840312156122d657600080fd5b6122de612243565b6122e78361226d565b81526122f56020840161227d565b60208201526123066040840161229d565b60408201526123176060840161229d565b6060820152612328608084016122af565b608082015260a083015160a082015260c083015160c082015260e083015160e08201526101008084015181830152508091505092915050565b60006020828403121561237357600080fd5b8151610d6581612138565b60006020828403121561239057600080fd5b815162ffffff81168114610d6557600080fd5b7f7b226e616d65223a2022506f736974696f6e20230000000000000000000000008152600083516123db816014850160208801612193565b7f222c20226465736372697074696f6e223a202250414e47454120506f736974696014918401918201527f6f6e204e46542c2074686973204e465420726570726573656e74732061206c6960348201527f7175696469747920706f736974696f6e20696e2050414e474541222c2022696d60548201527f616765223a2022646174613a696d6167652f7376672b786d6c3b62617365363460748201527f2c00000000000000000000000000000000000000000000000000000000000000609482015283516124b0816095840160208801612193565b7f227d00000000000000000000000000000000000000000000000000000000000060959290910191820152609701949350505050565b7f646174613a6170706c69636174696f6e2f6a736f6e3b6261736536342c00000081526000825161251e81601d850160208701612193565b91909101601d0192915050565b60006020828403121561253d57600080fd5b815167ffffffffffffffff8082111561255557600080fd5b818401915084601f83011261256957600080fd5b81518181111561257b5761257b612214565b604051601f82017fffffffffffffffffffffffffffffffffffffffffffffffffffffffffffffffe0908116603f011681019083821181831017156125c1576125c1612214565b816040528281528760208487010111156125da57600080fd5b611387836020830160208801612193565b6000875160206125fe8285838d01612193565b8851918401916126118184848d01612193565b88519201916126238184848c01612193565b87519201916126358184848b01612193565b86519201916126478184848a01612193565b85519201916126598184848901612193565b919091019998505050505050505050565b7f4e487b7100000000000000000000000000000000000000000000000000000000600052601160045260246000fd5b60007fffffffffffffffffffffffffffffffffffffffffffffffffffffffffffffffff8214156126cb576126cb61266a565b5060010190565b7f4e487b7100000000000000000000000000000000000000000000000000000000600052601260045260246000fd5b600082612710576127106126d2565b500490565b6000828210156127275761272761266a565b500390565b60008261273b5761273b6126d2565b500690565b600082198211156127535761275361266a565b500190565b7f4e487b7100000000000000000000000000000000000000000000000000000000600052603260045260246000fd5b6000817fffffffffffffffffffffffffffffffffffffffffffffffffffffffffffffffff04831182151516156127bf576127bf61266a565b500290565b7f3c7465787420783d2231362220793d2233312220666f6e742d73697a653d223281527f307078223e000000000000000000000000000000000000000000000000000000602082015260008251612822816025850160208701612193565b7f3c2f746578743e000000000000000000000000000000000000000000000000006025939091019283015250602c01919050565b7f3c7465787420783d223234382220793d2233312220746578742d616e63686f7281527f3d22656e642220666f6e742d73697a653d2232307078223e00000000000000006020820152600082516128b4816038850160208701612193565b7f3c2f746578743e000000000000000000000000000000000000000000000000006038939091019283015250603f01919050565b7f3c7465787420783d2232392220793d223235322220746578742d616e63686f7281527f3d226d6964646c652220666f6e742d73697a653d2231317078223e000000000060208201526000825161294681603b850160208701612193565b7f3c2f746578743e00000000000000000000000000000000000000000000000000603b939091019283015250604201919050565b7f3c7465787420783d223132352220793d223235322220746578742d616e63686f81527f723d22656e642220666f6e742d73697a653d2231317078223e000000000000006020820152600084516129d8816039850160208901612193565b80830190507f3c2f746578743e000000000000000000000000000000000000000000000000008060398301528551612a17816040850160208a01612193565b7f3c7465787420783d223135302220793d223235322220746578742d616e63686f604093909101928301527f723d2273746172742220666f6e742d73697a653d2231317078223e000000000060608301528451612a7b81607b850160208901612193565b607b92019182015260820195945050505050565b60008651612aa1818460208b01612193565b865190830190612ab5818360208b01612193565b8651910190612ac8818360208a01612193565b8551910190612adb818360208901612193565b8451910190612aee818360208801612193565b01979650505050505050565b600060ff821660ff811415612b1157612b1161266a565b60010192915050565b600062ffffff80841680612b3057612b306126d2565b92169190910692915050565b600062ffffff80841680612b5257612b526126d2565b92169190910492915050565b600060ff821660ff841680821015612b7857612b7861266a565b90039392505050565b600181815b80851115612bda57817fffffffffffffffffffffffffffffffffffffffffffffffffffffffffffffffff04821115612bc057612bc061266a565b80851615612bcd57918102915b93841c9390800290612b86565b509250929050565b600082612bf157506001610245565b81612bfe57506000610245565b8160018114612c145760028114612c1e57612c3a565b6001915050610245565b60ff841115612c2f57612c2f61266a565b50506001821b610245565b5060208310610133831016604e8410600b8410161715612c5d575081810a610245565b612c678383612b81565b807fffffffffffffffffffffffffffffffffffffffffffffffffffffffffffffffff04821115612c9957612c9961266a565b029392505050565b6000610d658383612be2565b600060208284031215612cbf57600080fd5b815160ff81168114610d6557600080fd5b60007f8000000000000000000000000000000000000000000000000000000000000000821415612d0257612d0261266a565b5060000390565b60008160020b7fffffffffffffffffffffffffffffffffffffffffffffffffffffffffff800000811415612d3f57612d3f61266a565b60000392915050565b600060ff821660ff84168060ff03821115612d6557612d6561266a565b019392505050565b600060ff821680612d8057612d8061266a565b7fffffffffffffffffffffffffffffffffffffffffffffffffffffffffffffffff0192915050565b6000808312837f800000000000000000000000000000000000000000000000000000000000000001831281151615612de257612de261266a565b837f7fffffffffffffffffffffffffffffffffffffffffffffffffffffffffffffff018313811615612e1657612e1661266a565b50500390565b6000610d6560ff841683612be256fe3c73766720786d6c6e733d22687474703a2f2f7777772e77332e6f72672f323030302f737667222077696474683d2232363422206865696768743d22323634222076657273696f6e3d22312e312220666f6e742d66616d696c793d22766f6c63616e6f222066696c6c3d2223666666666666223e3c7465787420783d223133322220793d223235322220746578742d616e63686f723d226d6964646c652220666f6e742d73697a653d2231317078223e46756c6c2052616e67653c2f746578743e4142434445464748494a4b4c4d4e4f505152535455565758595a6162636465666768696a6b6c6d6e6f707172737475767778797a303132333435363738392b2f3c7265637420783d22302220793d22323332222077696474683d2232363422206865696768743d22333222202066696c6c3d2223303030303030222f3ea26469706673582212207e1de6f4883991cb152af76a9759c124b971e0d2695e60dfbbe7d2a522676a7164736f6c63430008090033",
  "libraries": {
    "BiArrow": "0x29F80E9152cC0e5058574D48f371c0B46A6A4C5d",
    "Font": "0xba63e82c2c29190C96998Ad40B4DB580a56E52Bf",
    "Message": "0x5C74BAfA8CFd8cB120123D5803B74a2C02c41cf4",
    "OffPosition": "0x9DB74C5E5b0237037940e395E8E71E4DeC2c07CA",
    "OnPosition": "0x2AdD2B886Ba688D1D49b4D641fbfA97648b15566"
  },
  "devdoc": {
    "kind": "dev",
    "methods": {},
    "version": 1
  },
  "userdoc": {
    "kind": "user",
    "methods": {},
    "notice": "generate tokenURI for given Position NFT",
    "version": 1
  },
  "storageLayout": {
    "storage": [
      {
        "astId": 130,
        "contract": "contracts/description/PositionDescription.sol:PositionDescription",
        "label": "_initialized",
        "offset": 0,
        "slot": "0",
        "type": "t_bool"
      },
      {
        "astId": 133,
        "contract": "contracts/description/PositionDescription.sol:PositionDescription",
        "label": "_initializing",
        "offset": 1,
        "slot": "0",
        "type": "t_bool"
      },
      {
        "astId": 5500,
        "contract": "contracts/description/PositionDescription.sol:PositionDescription",
        "label": "positionManager",
        "offset": 2,
        "slot": "0",
        "type": "t_contract(IConcentratedLiquidityPoolManager)8430"
      }
    ],
    "types": {
      "t_bool": {
        "encoding": "inplace",
        "label": "bool",
        "numberOfBytes": "1"
      },
      "t_contract(IConcentratedLiquidityPoolManager)8430": {
        "encoding": "inplace",
        "label": "contract IConcentratedLiquidityPoolManager",
        "numberOfBytes": "20"
      }
    }
  }
}