{
  "address": "0xaA9a87b6ccDcC521D582b3df92C106B179734344",
  "abi": [
    {
      "inputs": [],
      "name": "TickOutOfBounds",
      "type": "error"
    },
    {
      "inputs": [
        {
          "internalType": "address",
          "name": "poolManager",
          "type": "address"
        },
        {
          "internalType": "uint256",
          "name": "positionId",
          "type": "uint256"
        }
      ],
      "name": "getFees",
      "outputs": [
        {
          "internalType": "uint256",
          "name": "fee0",
          "type": "uint256"
        },
        {
          "internalType": "uint256",
          "name": "fee1",
          "type": "uint256"
        }
      ],
      "stateMutability": "view",
      "type": "function"
    },
    {
      "inputs": [
        {
          "internalType": "address",
          "name": "poolManager",
          "type": "address"
        },
        {
          "internalType": "uint256",
          "name": "positionId",
          "type": "uint256"
        }
      ],
      "name": "getPrincipal",
      "outputs": [
        {
          "internalType": "uint256",
          "name": "amount0",
          "type": "uint256"
        },
        {
          "internalType": "uint256",
          "name": "amount1",
          "type": "uint256"
        }
      ],
      "stateMutability": "view",
      "type": "function"
    },
    {
      "inputs": [
        {
          "internalType": "address",
          "name": "poolManager",
          "type": "address"
        },
        {
          "internalType": "uint256",
          "name": "positionId",
          "type": "uint256"
        }
      ],
      "name": "getRewards",
      "outputs": [
        {
          "internalType": "address",
          "name": "rewardToken",
          "type": "address"
        },
        {
          "internalType": "uint256",
          "name": "rewardAmount",
          "type": "uint256"
        }
      ],
      "stateMutability": "view",
      "type": "function"
    },
    {
      "inputs": [
        {
          "internalType": "address",
          "name": "poolManager",
          "type": "address"
        },
        {
          "internalType": "uint256",
          "name": "positionId",
          "type": "uint256"
        }
      ],
      "name": "getTotal",
      "outputs": [
        {
          "internalType": "uint256",
          "name": "amount0",
          "type": "uint256"
        },
        {
          "internalType": "uint256",
          "name": "amount1",
          "type": "uint256"
        }
      ],
      "stateMutability": "view",
      "type": "function"
    }
  ],
  "transactionHash": "0xcb763672b20cc06862fbcf6548b1b7ad9fdbd641f82ad4441ce56770543a5b69",
  "args": [],
  "numDeployments": 2,
  "solcInputHash": "6916dbc1023f78dcc0da82f137387cb0",
  "bytecode": "0x608060405234801561001057600080fd5b50610e7c806100206000396000f3fe608060405234801561001057600080fd5b506004361061004c5760003560e01c80636c99832a146100515780637387f44d1461007e57806381b5d291146100bd578063efb36c14146100d0575b600080fd5b61006461005f366004610b75565b6100e3565b604080519283526020830191909152015b60405180910390f35b61009161008c366004610b75565b610128565b6040805173ffffffffffffffffffffffffffffffffffffffff9093168352602083019190915201610075565b6100646100cb366004610b75565b6102ea565b6100646100de366004610b75565b6104ae565b6000806100f084846102ea565b909250905060008061010286866104ae565b90925090506101118285610bd0565b935061011d8184610bd0565b925050509250929050565b60008060008473ffffffffffffffffffffffffffffffffffffffff166399fbab88856040518263ffffffff1660e01b815260040161016891815260200190565b6101206040518083038186803b15801561018157600080fd5b505afa158015610195573d6000803e3d6000fd5b505050506040513d601f19601f820116820180604052508101906101b99190610c8a565b9050806000015173ffffffffffffffffffffffffffffffffffffffff1663f7c618c16040518163ffffffff1660e01b815260040160206040518083038186803b15801561020557600080fd5b505afa158015610219573d6000803e3d6000fd5b505050506040513d601f19601f8201168201806040525081019061023d9190610d28565b6040517fd53cfc060000000000000000000000000000000000000000000000000000000081526004810186905290935073ffffffffffffffffffffffffffffffffffffffff86169063d53cfc0690602401604080518083038186803b1580156102a557600080fd5b505afa1580156102b9573d6000803e3d6000fd5b505050506040513d601f19601f820116820180604052508101906102dd9190610d45565b5080925050509250929050565b60008060008473ffffffffffffffffffffffffffffffffffffffff166399fbab88856040518263ffffffff1660e01b815260040161032a91815260200190565b6101206040518083038186803b15801561034357600080fd5b505afa158015610357573d6000803e3d6000fd5b505050506040513d601f19601f8201168201806040525081019061037b9190610c8a565b9050600061038c826040015161055e565b73ffffffffffffffffffffffffffffffffffffffff16905060006103b3836060015161055e565b73ffffffffffffffffffffffffffffffffffffffff1690506000836000015173ffffffffffffffffffffffffffffffffffffffff1663a035b1fe6040518163ffffffff1660e01b815260040160206040518083038186803b15801561041757600080fd5b505afa15801561042b573d6000803e3d6000fd5b505050506040513d601f19601f8201168201806040525081019061044f9190610d28565b73ffffffffffffffffffffffffffffffffffffffff16905061048b83838387602001516fffffffffffffffffffffffffffffffff1660006108f1565b6fffffffffffffffffffffffffffffffff9182169a911698509650505050505050565b6040517fed7bba9a00000000000000000000000000000000000000000000000000000000815260048101829052600090819073ffffffffffffffffffffffffffffffffffffffff85169063ed7bba9a9060240160806040518083038186803b15801561051957600080fd5b505afa15801561052d573d6000803e3d6000fd5b505050506040513d601f19601f820116820180604052508101906105519190610d69565b5091969095509350505050565b60008060008360020b12610575578260020b610582565b8260020b61058290610d9f565b90506105ad7ffffffffffffffffffffffffffffffffffffffffffffffffffffffffffff27618610dd8565b62ffffff168111156105eb576040517ff87dc40c00000000000000000000000000000000000000000000000000000000815260040160405180910390fd5b60006001821661060c5770010000000000000000000000000000000061061e565b6ffffcb933bd6fad37aa2d162d1a5940015b70ffffffffffffffffffffffffffffffffff1690506002821615610652576ffff97272373d413259a46990580e213a0260801c5b6004821615610671576ffff2e50f5f656932ef12357cf3c7fdcc0260801c5b6008821615610690576fffe5caca7e10e4e61c3624eaa0941cd00260801c5b60108216156106af576fffcb9843d60f6159c9db58835c9266440260801c5b60208216156106ce576fff973b41fa98c081472e6896dfb254c00260801c5b60408216156106ed576fff2ea16466c96a3843ec78b326b528610260801c5b608082161561070c576ffe5dee046a99a2a811c461f1969c30530260801c5b61010082161561072c576ffcbe86c7900a88aedcffc83b479aa3a40260801c5b61020082161561074c576ff987a7253ac413176f2b074cf7815e540260801c5b61040082161561076c576ff3392b0822b70005940c7a398e4b70f30260801c5b61080082161561078c576fe7159475a2c29b7443b29c7fa6e889d90260801c5b6110008216156107ac576fd097f3bdfd2022b8845ad8f792aa58250260801c5b6120008216156107cc576fa9f746462d870fdf8a65dc1f90e061e50260801c5b6140008216156107ec576f70d869a156d2a1b890bb3df62baf32f70260801c5b61800082161561080c576f31be135f97d08fd981231505542fcfa60260801c5b6201000082161561082d576f09aa508b5b7a84e1c677de54f3e99bc90260801c5b6202000082161561084d576e5d6af8dedb81196699c329225ee6040260801c5b6204000082161561086c576d2216e584f5fa1ea926041bedfe980260801c5b62080000821615610889576b048a170391f7dc42444e8fa20260801c5b60008460020b13156108c857807fffffffffffffffffffffffffffffffffffffffffffffffffffffffffffffffff816108c4576108c4610e17565b0490505b6401000000008106156108dc5760016108df565b60005b60ff16602082901c0192505050919050565b6000808486116109165761090f61090a85898987610960565b6109ae565b9050610956565b8685116109335761092c61090a858989876109d2565b9150610956565b61094261090a858789876109d2565b915061095361090a85898887610960565b90505b9550959350505050565b6000811561098957610982858585036c01000000000000000000000000610a23565b90506109a6565b6109a3858585036c01000000000000000000000000610a7f565b90505b949350505050565b806fffffffffffffffffffffffffffffffff811681146109cd57600080fd5b919050565b600081156109fa576109826109ee606087901b86860386610a23565b85808204910615150190565b83610a0c606087901b82860386610a7f565b81610a1957610a19610e17565b0495945050505050565b6000610a30848484610a7f565b90508180610a4057610a40610e17565b83850915610a78577fffffffffffffffffffffffffffffffffffffffffffffffffffffffffffffffff8110610a7457600080fd5b6001015b9392505050565b600080807fffffffffffffffffffffffffffffffffffffffffffffffffffffffffffffffff8587098587029250828110838203039150508060001415610ad75760008411610acc57600080fd5b508290049050610a78565b808411610ae357600080fd5b6000848688096000868103871696879004966002600389028118808a02820302808a02820302808a02820302808a02820302808a02820302808a02909103029181900381900460010186841190950394909402919094039290920491909117919091029150509392505050565b73ffffffffffffffffffffffffffffffffffffffff81168114610b7257600080fd5b50565b60008060408385031215610b8857600080fd5b8235610b9381610b50565b946020939093013593505050565b7f4e487b7100000000000000000000000000000000000000000000000000000000600052601160045260246000fd5b60008219821115610be357610be3610ba1565b500190565b604051610120810167ffffffffffffffff81118282101715610c33577f4e487b7100000000000000000000000000000000000000000000000000000000600052604160045260246000fd5b60405290565b80516109cd81610b50565b80516fffffffffffffffffffffffffffffffff811681146109cd57600080fd5b8051600281900b81146109cd57600080fd5b805163ffffffff811681146109cd57600080fd5b60006101208284031215610c9d57600080fd5b610ca5610be8565b610cae83610c39565b8152610cbc60208401610c44565b6020820152610ccd60408401610c64565b6040820152610cde60608401610c64565b6060820152610cef60808401610c76565b608082015260a083015160a082015260c083015160c082015260e083015160e08201526101008084015181830152508091505092915050565b600060208284031215610d3a57600080fd5b8151610a7881610b50565b60008060408385031215610d5857600080fd5b505080516020909101519092909150565b60008060008060808587031215610d7f57600080fd5b505082516020840151604085015160609095015191969095509092509050565b60007f8000000000000000000000000000000000000000000000000000000000000000821415610dd157610dd1610ba1565b5060000390565b60008160020b7fffffffffffffffffffffffffffffffffffffffffffffffffffffffffff800000811415610e0e57610e0e610ba1565b60000392915050565b7f4e487b7100000000000000000000000000000000000000000000000000000000600052601260045260246000fdfea2646970667358221220ab1d646c73db202a4e725b4ce7c9fe7bb2566e983440ac8aa8c3c1034102c70d64736f6c63430008090033",
  "devdoc": {
    "kind": "dev",
    "methods": {},
    "version": 1
  },
  "userdoc": {
    "kind": "user",
    "methods": {},
    "version": 1
  },
  "storageLayout": {
    "storage": [],
    "types": null
  }
}