{
  "address": "0xBa106B86574Dd76BadddB81299FD3D45fF86faD4",
  "abi": [
    {
      "inputs": [],
      "name": "TickOutOfBounds",
      "type": "error"
    },
    {
      "inputs": [
        {
          "internalType": "address[]",
          "name": "path",
          "type": "address[]"
        },
        {
          "internalType": "address",
          "name": "tokenIn",
          "type": "address"
        },
        {
          "internalType": "uint256",
          "name": "exactAmountIn",
          "type": "uint256"
        }
      ],
      "name": "calculateExactInput",
      "outputs": [
        {
          "internalType": "uint256",
          "name": "amountOut",
          "type": "uint256"
        },
        {
          "internalType": "uint256",
          "name": "price",
          "type": "uint256"
        },
        {
          "internalType": "bool",
          "name": "overInput",
          "type": "bool"
        },
        {
          "internalType": "uint256",
          "name": "maximumAmountIn",
          "type": "uint256"
        }
      ],
      "stateMutability": "view",
      "type": "function"
    },
    {
      "inputs": [
        {
          "internalType": "address",
          "name": "pool",
          "type": "address"
        },
        {
          "internalType": "address",
          "name": "tokenIn",
          "type": "address"
        },
        {
          "internalType": "uint256",
          "name": "exactAmountIn",
          "type": "uint256"
        }
      ],
      "name": "calculateExactInputSingle",
      "outputs": [
        {
          "internalType": "uint256",
          "name": "amountOut",
          "type": "uint256"
        },
        {
          "internalType": "uint256",
          "name": "price",
          "type": "uint256"
        },
        {
          "internalType": "bool",
          "name": "overInput",
          "type": "bool"
        },
        {
          "internalType": "uint256",
          "name": "maximumAmountIn",
          "type": "uint256"
        }
      ],
      "stateMutability": "view",
      "type": "function"
    },
    {
      "inputs": [
        {
          "internalType": "address[]",
          "name": "path",
          "type": "address[]"
        },
        {
          "internalType": "address",
          "name": "tokenIn",
          "type": "address"
        },
        {
          "internalType": "uint256",
          "name": "exactAmountOut",
          "type": "uint256"
        }
      ],
      "name": "calculateExactOutput",
      "outputs": [
        {
          "internalType": "uint256",
          "name": "amountIn",
          "type": "uint256"
        },
        {
          "internalType": "uint256",
          "name": "price",
          "type": "uint256"
        }
      ],
      "stateMutability": "view",
      "type": "function"
    },
    {
      "inputs": [
        {
          "internalType": "address",
          "name": "pool",
          "type": "address"
        },
        {
          "internalType": "address",
          "name": "tokenIn",
          "type": "address"
        },
        {
          "internalType": "uint256",
          "name": "exactAmountOut",
          "type": "uint256"
        }
      ],
      "name": "calculateExactOutputSingle",
      "outputs": [
        {
          "internalType": "uint256",
          "name": "amountIn",
          "type": "uint256"
        },
        {
          "internalType": "uint256",
          "name": "price",
          "type": "uint256"
        }
      ],
      "stateMutability": "view",
      "type": "function"
    },
    {
      "inputs": [
        {
          "internalType": "address",
          "name": "_wETH",
          "type": "address"
        }
      ],
      "name": "initialize",
      "outputs": [],
      "stateMutability": "nonpayable",
      "type": "function"
    },
    {
      "inputs": [],
      "name": "wETH",
      "outputs": [
        {
          "internalType": "address",
          "name": "",
          "type": "address"
        }
      ],
      "stateMutability": "view",
      "type": "function"
    }
  ],
  "transactionHash": "0x77577e91a7fb3ed1b2778c5eca34067183821377a98b71987ce723778f77f656",
  "args": [],
  "numDeployments": 4,
  "solcInputHash": "c1064afc934590b178375e1b163afdd3",
  "bytecode": "0x608060405234801561001057600080fd5b50612a74806100206000396000f3fe608060405234801561001057600080fd5b50600436106100725760003560e01c8063beba5d3f11610050578063beba5d3f146100f0578063c4d66de814610103578063f24286211461011857600080fd5b80635213f13b146100775780636ecc5794146100b557806375a844a0146100dd575b600080fd5b61008a610085366004612579565b610163565b6040805194855260208501939093529015159183019190915260608201526080015b60405180910390f35b6100c86100c3366004612605565b6103fa565b604080519283526020830191909152016100ac565b6100c86100eb366004612579565b610456565b61008a6100fe366004612605565b61068a565b610116610111366004612646565b610700565b005b60005461013e9062010000900473ffffffffffffffffffffffffffffffffffffffff1681565b60405173ffffffffffffffffffffffffffffffffffffffff90911681526020016100ac565b60008080808573ffffffffffffffffffffffffffffffffffffffff81161561018b57866101ab565b60005462010000900473ffffffffffffffffffffffffffffffffffffffff165b96508594506000805b898110156103cb5760008b8b838181106101d0576101d0612663565b90506020020160208101906101e59190612646565b90506101f2818b8a610867565b91995097509250821561020457600195505b8973ffffffffffffffffffffffffffffffffffffffff168173ffffffffffffffffffffffffffffffffffffffff16630dfe16816040518163ffffffff1660e01b815260040160206040518083038186803b15801561026157600080fd5b505afa158015610275573d6000803e3d6000fd5b505050506040513d601f19601f820116820180604052508101906102999190612692565b73ffffffffffffffffffffffffffffffffffffffff1614610337578073ffffffffffffffffffffffffffffffffffffffff16630dfe16816040518163ffffffff1660e01b815260040160206040518083038186803b1580156102fa57600080fd5b505afa15801561030e573d6000803e3d6000fd5b505050506040513d601f19601f820116820180604052508101906103329190612692565b6103b5565b8073ffffffffffffffffffffffffffffffffffffffff1663d21220a76040518163ffffffff1660e01b815260040160206040518083038186803b15801561037d57600080fd5b505afa158015610391573d6000803e3d6000fd5b505050506040513d601f19601f820116820180604052508101906103b59190612692565b99505080806103c3906126de565b9150506101b4565b5083156103ed576103de8a8a8489610456565b5092508287116103ed57600093505b5050945094509450949050565b6000806104498573ffffffffffffffffffffffffffffffffffffffff8616156104235785610443565b60005462010000900473ffffffffffffffffffffffffffffffffffffffff165b85610fea565b915091505b935093915050565b600080600061046687878761172b565b905083865b801561067c5760008989610480600185612717565b81811061048f5761048f612663565b90506020020160208101906104a49190612646565b90508373ffffffffffffffffffffffffffffffffffffffff168173ffffffffffffffffffffffffffffffffffffffff16630dfe16816040518163ffffffff1660e01b815260040160206040518083038186803b15801561050357600080fd5b505afa158015610517573d6000803e3d6000fd5b505050506040513d601f19601f8201168201806040525081019061053b9190612692565b73ffffffffffffffffffffffffffffffffffffffff16146105d9578073ffffffffffffffffffffffffffffffffffffffff16630dfe16816040518163ffffffff1660e01b815260040160206040518083038186803b15801561059c57600080fd5b505afa1580156105b0573d6000803e3d6000fd5b505050506040513d601f19601f820116820180604052508101906105d49190612692565b610657565b8073ffffffffffffffffffffffffffffffffffffffff1663d21220a76040518163ffffffff1660e01b815260040160206040518083038186803b15801561061f57600080fd5b505afa158015610633573d6000803e3d6000fd5b505050506040513d601f19601f820116820180604052508101906106579190612692565b9350610664818585610fea565b955092508190506106748161272e565b91505061046b565b509791965090945050505050565b60008080806106db8773ffffffffffffffffffffffffffffffffffffffff8816156106b557876106d5565b60005462010000900473ffffffffffffffffffffffffffffffffffffffff165b87610867565b9195509350915081156106f7576106f38787866103fa565b5090505b93509350935093565b600054610100900460ff1661071b5760005460ff161561071f565b303b155b6107b0576040517f08c379a000000000000000000000000000000000000000000000000000000000815260206004820152602e60248201527f496e697469616c697a61626c653a20636f6e747261637420697320616c72656160448201527f647920696e697469616c697a656400000000000000000000000000000000000060648201526084015b60405180910390fd5b600054610100900460ff161580156107ef57600080547fffffffffffffffffffffffffffffffffffffffffffffffffffffffffffff0000166101011790555b600080547fffffffffffffffffffff0000000000000000000000000000000000000000ffff166201000073ffffffffffffffffffffffffffffffffffffffff851602179055801561086357600080547fffffffffffffffffffffffffffffffffffffffffffffffffffffffffffff00ff1690555b5050565b6000806000806108778787611975565b905060008773ffffffffffffffffffffffffffffffffffffffff166354cf2aeb6040518163ffffffff1660e01b815260040160206040518083038186803b1580156108c157600080fd5b505afa1580156108d5573d6000803e3d6000fd5b505050506040513d601f19601f820116820180604052508101906108f99190612763565b905060008873ffffffffffffffffffffffffffffffffffffffff1663d0c93a7c6040518163ffffffff1660e01b815260040160206040518083038186803b15801561094357600080fd5b505afa158015610957573d6000803e3d6000fd5b505050506040513d601f19601f8201168201806040525081019061097b9190612763565b90506109b26040518060a0016040528060008152602001600081526020016000815260200160008152602001600060020b81525090565b6000808b73ffffffffffffffffffffffffffffffffffffffff16638c347f9b6040518163ffffffff1660e01b8152600401604080518083038186803b1580156109fa57600080fd5b505afa158015610a0e573d6000803e3d6000fd5b505050506040513d601f19601f82011682018060405250810190610a3291906127aa565b915091506040518060a001604052808373ffffffffffffffffffffffffffffffffffffffff1681526020018d73ffffffffffffffffffffffffffffffffffffffff16631a6865026040518163ffffffff1660e01b815260040160206040518083038186803b158015610aa357600080fd5b505afa158015610ab7573d6000803e3d6000fd5b505050506040513d601f19601f82011682018060405250810190610adb91906127ff565b6fffffffffffffffffffffffffffffffff1681526020018b81526020016000815260200187610bae576040517ff30dba93000000000000000000000000000000000000000000000000000000008152600284900b600482015273ffffffffffffffffffffffffffffffffffffffff8f169063f30dba939060240160c06040518083038186803b158015610b6d57600080fd5b505afa158015610b81573d6000803e3d6000fd5b505050506040513d601f19601f82011682018060405250810190610ba5919061281a565b60200151610bb0565b825b60020b81525092505050610bc381611a2a565b15610bdd575160009650945050508415159150610fe19050565b604081015115610fcb576000610bf68260800151611aab565b73ffffffffffffffffffffffffffffffffffffffff1690506000808615610d54576000610c2e85602001518587600001516000611e3e565b905080856040015111610d185760208501518551604087015160609290921b91600091610c7191849190610c6290826128d2565b610c6c908661290f565b611e98565b9050808611158015610c835750865181105b610ccc5760408701518751610cb3918491610c9e9083612956565b610ca8919061290f565b808204910615150190565b73ffffffffffffffffffffffffffffffffffffffff1690505b610ce187602001518289600001516000611ef3565b60208801518851919650610cfd916401000276a3906000611ef3565b851415610d095760019a505b86525060006040860152610d4e565b610d2d85602001518587600001516000611ef3565b848652604086018051919450600193508291610d4a908390612717565b9052505b50610e59565b6000610d6b85602001518660000151866000611ef3565b905080856040015111610e21576000610d9a86604001516c010000000000000000000000008860200151611f38565b8651610da6919061290f565b9050610dbd86602001518760000151836000611e3e565b60208701518751919550610e0791610dea600173fffd8963efd1fc6a506488495d951d5263988d26612991565b73ffffffffffffffffffffffffffffffffffffffff166000611e3e565b841415610e1357600199505b855260006040860152610e57565b610e3685602001518660000151866000611e3e565b848652604086018051919450600193508291610e53908390612717565b9052505b505b610e68828762ffffff16612009565b610e72908b61290f565b99508015610fc357610e868d85878a612023565b60020b608086015260208501819052610fc357610ec27ffffffffffffffffffffffffffffffffffffffffffffffffffffffffffff276186129c6565b60020b846080015160020b1480610eff5750608084015160020b7ffffffffffffffffffffffffffffffffffffffffffffffffffffffffffff27618145b15610f84578615610f2e578351610f2790610f1c90600190612717565b6401000276a361251a565b8452610f7c565b8351610f7990610f3f90600161290f565b610f5e600173fffd8963efd1fc6a506488495d951d5263988d26612991565b73ffffffffffffffffffffffffffffffffffffffff16612531565b84525b505050610fcb565b610f918460800151611aab565b73ffffffffffffffffffffffffffffffffffffffff168452610fb58d85878a612023565b60020b608086015260208501525b505050610bdd565b604081015115610fda57600194505b5194505050505b93509350939050565b6000806000610ff98686611975565b905060008673ffffffffffffffffffffffffffffffffffffffff166354cf2aeb6040518163ffffffff1660e01b815260040160206040518083038186803b15801561104357600080fd5b505afa158015611057573d6000803e3d6000fd5b505050506040513d601f19601f8201168201806040525081019061107b9190612763565b905060008773ffffffffffffffffffffffffffffffffffffffff1663d0c93a7c6040518163ffffffff1660e01b815260040160206040518083038186803b1580156110c557600080fd5b505afa1580156110d9573d6000803e3d6000fd5b505050506040513d601f19601f820116820180604052508101906110fd9190612763565b90506111346040518060a0016040528060008152602001600081526020016000815260200160008152602001600060020b81525090565b6000808a73ffffffffffffffffffffffffffffffffffffffff16638c347f9b6040518163ffffffff1660e01b8152600401604080518083038186803b15801561117c57600080fd5b505afa158015611190573d6000803e3d6000fd5b505050506040513d601f19601f820116820180604052508101906111b491906127aa565b915091506040518060a001604052808373ffffffffffffffffffffffffffffffffffffffff1681526020018c73ffffffffffffffffffffffffffffffffffffffff16631a6865026040518163ffffffff1660e01b815260040160206040518083038186803b15801561122557600080fd5b505afa158015611239573d6000803e3d6000fd5b505050506040513d601f19601f8201168201806040525081019061125d91906127ff565b6fffffffffffffffffffffffffffffffff168152602001600081526020018a815260200187611330576040517ff30dba93000000000000000000000000000000000000000000000000000000008152600284900b600482015273ffffffffffffffffffffffffffffffffffffffff8e169063f30dba939060240160c06040518083038186803b1580156112ef57600080fd5b505afa158015611303573d6000803e3d6000fd5b505050506040513d601f19601f82011682018060405250810190611327919061281a565b60200151611332565b825b60020b8152509250505061134581611a2a565b1561135a575160009550935061044e92505050565b6060810151156116ae5760006113738260800151611aab565b73ffffffffffffffffffffffffffffffffffffffff16905060008086156114665760006113b96113ae86602001518688600001516000611ef3565b8862ffffff16612009565b90508085606001511161142a5760006113f66113de87606001518a62ffffff16612540565b6c010000000000000000000000008860200151611e98565b86516114029190612717565b905061141986602001518288600001516001611e3e565b908652600060608701529250611460565b61143f85602001518587600001516000611e3e565b8486526060860180519194508291611458908390612717565b905250600191505b50611590565b60006114806113ae86602001518760000151876000611e3e565b905080856060015111611558576000606060ff168660200151901b905060006114d18288600001516114bb8a606001518d62ffffff16612540565b8a516114c791906128d2565b610c6c9086612717565b9050808760000151111580156114e657508581105b611530576115178261150189606001518c62ffffff16612540565b895161150d9086612956565b610ca89190612717565b73ffffffffffffffffffffffffffffffffffffffff1690505b61154587602001518860000151836001611ef3565b90875260006060880152935061158e9050565b61156d85602001518660000151866000611ef3565b8486526060860180519194508291611586908390612717565b905250600191505b505b61159a828a61290f565b985080156116a6576115ae8c85878a612023565b60020b6080860152602085018190526116a6576115ea7ffffffffffffffffffffffffffffffffffffffffffffffffffffffffffff276186129c6565b60020b846080015160020b14806116275750608084015160020b7ffffffffffffffffffffffffffffffffffffffffffffffffffffffffffff27618145b1561166757861561164b57835161164490610f1c90600190612717565b845261165f565b835161165c90610f3f90600161290f565b84525b5050506116ae565b6116748460800151611aab565b73ffffffffffffffffffffffffffffffffffffffff1684526116988c85878a612023565b60020b608086015260208501525b50505061135a565b805160608201519095501561171f576040517f08c379a000000000000000000000000000000000000000000000000000000000815260206004820152601360248201527f494e53554646494349454e54204f55545055540000000000000000000000000060448201526064016107a7565b50505050935093915050565b600073ffffffffffffffffffffffffffffffffffffffff82161561174f578161176f565b60005462010000900473ffffffffffffffffffffffffffffffffffffffff165b90506000805b8481101561196b5785858281811061178f5761178f612663565b90506020020160208101906117a49190612646565b91508273ffffffffffffffffffffffffffffffffffffffff168273ffffffffffffffffffffffffffffffffffffffff16630dfe16816040518163ffffffff1660e01b815260040160206040518083038186803b15801561180357600080fd5b505afa158015611817573d6000803e3d6000fd5b505050506040513d601f19601f8201168201806040525081019061183b9190612692565b73ffffffffffffffffffffffffffffffffffffffff16146118d9578173ffffffffffffffffffffffffffffffffffffffff16630dfe16816040518163ffffffff1660e01b815260040160206040518083038186803b15801561189c57600080fd5b505afa1580156118b0573d6000803e3d6000fd5b505050506040513d601f19601f820116820180604052508101906118d49190612692565b611957565b8173ffffffffffffffffffffffffffffffffffffffff1663d21220a76040518163ffffffff1660e01b815260040160206040518083038186803b15801561191f57600080fd5b505afa158015611933573d6000803e3d6000fd5b505050506040513d601f19601f820116820180604052508101906119579190612692565b925080611963816126de565b915050611775565b50505b9392505050565b60008173ffffffffffffffffffffffffffffffffffffffff168373ffffffffffffffffffffffffffffffffffffffff16630dfe16816040518163ffffffff1660e01b815260040160206040518083038186803b1580156119d457600080fd5b505afa1580156119e8573d6000803e3d6000fd5b505050506040513d601f19601f82011682018060405250810190611a0c9190612692565b73ffffffffffffffffffffffffffffffffffffffff16149392505050565b602081015160009015611a3f57506000919050565b608082015160020b7ffffffffffffffffffffffffffffffffffffffffffffffffffffffffffff276181480611aa55750611a987ffffffffffffffffffffffffffffffffffffffffffffffffffffffffffff276186129c6565b60020b826080015160020b145b92915050565b60008060008360020b12611ac2578260020b611acf565b8260020b611acf90612a05565b9050611afa7ffffffffffffffffffffffffffffffffffffffffffffffffffffffffffff276186129c6565b62ffffff16811115611b38576040517ff87dc40c00000000000000000000000000000000000000000000000000000000815260040160405180910390fd5b600060018216611b5957700100000000000000000000000000000000611b6b565b6ffffcb933bd6fad37aa2d162d1a5940015b70ffffffffffffffffffffffffffffffffff1690506002821615611b9f576ffff97272373d413259a46990580e213a0260801c5b6004821615611bbe576ffff2e50f5f656932ef12357cf3c7fdcc0260801c5b6008821615611bdd576fffe5caca7e10e4e61c3624eaa0941cd00260801c5b6010821615611bfc576fffcb9843d60f6159c9db58835c9266440260801c5b6020821615611c1b576fff973b41fa98c081472e6896dfb254c00260801c5b6040821615611c3a576fff2ea16466c96a3843ec78b326b528610260801c5b6080821615611c59576ffe5dee046a99a2a811c461f1969c30530260801c5b610100821615611c79576ffcbe86c7900a88aedcffc83b479aa3a40260801c5b610200821615611c99576ff987a7253ac413176f2b074cf7815e540260801c5b610400821615611cb9576ff3392b0822b70005940c7a398e4b70f30260801c5b610800821615611cd9576fe7159475a2c29b7443b29c7fa6e889d90260801c5b611000821615611cf9576fd097f3bdfd2022b8845ad8f792aa58250260801c5b612000821615611d19576fa9f746462d870fdf8a65dc1f90e061e50260801c5b614000821615611d39576f70d869a156d2a1b890bb3df62baf32f70260801c5b618000821615611d59576f31be135f97d08fd981231505542fcfa60260801c5b62010000821615611d7a576f09aa508b5b7a84e1c677de54f3e99bc90260801c5b62020000821615611d9a576e5d6af8dedb81196699c329225ee6040260801c5b62040000821615611db9576d2216e584f5fa1ea926041bedfe980260801c5b62080000821615611dd6576b048a170391f7dc42444e8fa20260801c5b60008460020b1315611e1557807fffffffffffffffffffffffffffffffffffffffffffffffffffffffffffffffff81611e1157611e11612927565b0490505b640100000000810615611e29576001611e2c565b60005b60ff16602082901c0192505050919050565b60008115611e6d57611e66611e5a606087901b86860386611e98565b85808204910615150190565b9050611e90565b83611e7f606087901b82860386611f38565b81611e8c57611e8c612927565b0490505b949350505050565b6000611ea5848484611f38565b90508180611eb557611eb5612927565b8385091561196e577fffffffffffffffffffffffffffffffffffffffffffffffffffffffffffffffff8110611ee957600080fd5b6001019392505050565b60008115611f1557611e66858585036c01000000000000000000000000611e98565b611f2f858585036c01000000000000000000000000611f38565b95945050505050565b600080807fffffffffffffffffffffffffffffffffffffffffffffffffffffffffffffffff8587098587029250828110838203039150508060001415611f905760008411611f8557600080fd5b50829004905061196e565b808411611f9c57600080fd5b6000848688096000868103871696879004966002600389028118808a02820302808a02820302808a02820302808a02820302808a02820302808a02909103029181900381900460010186841190950394909402919094039290920491909117919091029150509392505050565b60006120198383620f4240611e98565b61196e9084612717565b600080821561229f5760028460020b866080015160020b8161204757612047612927565b0560020b8161205857612058612927565b0760020b61212a5760808501516040517ff30dba9300000000000000000000000000000000000000000000000000000000815260029190910b600482015273ffffffffffffffffffffffffffffffffffffffff87169063f30dba939060240160c06040518083038186803b1580156120cf57600080fd5b505afa1580156120e3573d6000803e3d6000fd5b505050506040513d601f19601f82011682018060405250810190612107919061281a565b604001516fffffffffffffffffffffffffffffffff1685602001510391506121f0565b60808501516040517ff30dba9300000000000000000000000000000000000000000000000000000000815260029190910b600482015273ffffffffffffffffffffffffffffffffffffffff87169063f30dba939060240160c06040518083038186803b15801561219957600080fd5b505afa1580156121ad573d6000803e3d6000fd5b505050506040513d601f19601f820116820180604052508101906121d1919061281a565b604001516fffffffffffffffffffffffffffffffff1685602001510191505b60808501516040517ff30dba9300000000000000000000000000000000000000000000000000000000815260029190910b600482015273ffffffffffffffffffffffffffffffffffffffff87169063f30dba939060240160c06040518083038186803b15801561225f57600080fd5b505afa158015612273573d6000803e3d6000fd5b505050506040513d601f19601f82011682018060405250810190612297919061281a565b519050612511565b60028460020b866080015160020b816122ba576122ba612927565b0560020b816122cb576122cb612927565b0760020b61239d5760808501516040517ff30dba9300000000000000000000000000000000000000000000000000000000815260029190910b600482015273ffffffffffffffffffffffffffffffffffffffff87169063f30dba939060240160c06040518083038186803b15801561234257600080fd5b505afa158015612356573d6000803e3d6000fd5b505050506040513d601f19601f8201168201806040525081019061237a919061281a565b604001516fffffffffffffffffffffffffffffffff168560200151019150612463565b60808501516040517ff30dba9300000000000000000000000000000000000000000000000000000000815260029190910b600482015273ffffffffffffffffffffffffffffffffffffffff87169063f30dba939060240160c06040518083038186803b15801561240c57600080fd5b505afa158015612420573d6000803e3d6000fd5b505050506040513d601f19601f82011682018060405250810190612444919061281a565b604001516fffffffffffffffffffffffffffffffff1685602001510391505b60808501516040517ff30dba9300000000000000000000000000000000000000000000000000000000815260029190910b600482015273ffffffffffffffffffffffffffffffffffffffff87169063f30dba939060240160c06040518083038186803b1580156124d257600080fd5b505afa1580156124e6573d6000803e3d6000fd5b505050506040513d601f19601f8201168201806040525081019061250a919061281a565b6020015190505b94509492505050565b60008183101561252a578161196e565b5090919050565b600081831061252a578161196e565b600061196e83620f4240610c6c8582612717565b73ffffffffffffffffffffffffffffffffffffffff8116811461257657600080fd5b50565b6000806000806060858703121561258f57600080fd5b843567ffffffffffffffff808211156125a757600080fd5b818701915087601f8301126125bb57600080fd5b8135818111156125ca57600080fd5b8860208260051b85010111156125df57600080fd5b602092830196509450508501356125f581612554565b9396929550929360400135925050565b60008060006060848603121561261a57600080fd5b833561262581612554565b9250602084013561263581612554565b929592945050506040919091013590565b60006020828403121561265857600080fd5b813561196e81612554565b7f4e487b7100000000000000000000000000000000000000000000000000000000600052603260045260246000fd5b6000602082840312156126a457600080fd5b815161196e81612554565b7f4e487b7100000000000000000000000000000000000000000000000000000000600052601160045260246000fd5b60007fffffffffffffffffffffffffffffffffffffffffffffffffffffffffffffffff821415612710576127106126af565b5060010190565b600082821015612729576127296126af565b500390565b60008161273d5761273d6126af565b507fffffffffffffffffffffffffffffffffffffffffffffffffffffffffffffffff0190565b60006020828403121561277557600080fd5b815162ffffff8116811461196e57600080fd5b805161279381612554565b919050565b8051600281900b811461279357600080fd5b600080604083850312156127bd57600080fd5b82516127c881612554565b91506127d660208401612798565b90509250929050565b80516fffffffffffffffffffffffffffffffff8116811461279357600080fd5b60006020828403121561281157600080fd5b61196e826127df565b600060c0828403121561282c57600080fd5b60405160c0810181811067ffffffffffffffff82111715612876577f4e487b7100000000000000000000000000000000000000000000000000000000600052604160045260246000fd5b60405261288283612798565b815261289060208401612798565b60208201526128a1604084016127df565b604082015260608301516060820152608083015160808201526128c660a08401612788565b60a08201529392505050565b6000817fffffffffffffffffffffffffffffffffffffffffffffffffffffffffffffffff048311821515161561290a5761290a6126af565b500290565b60008219821115612922576129226126af565b500190565b7f4e487b7100000000000000000000000000000000000000000000000000000000600052601260045260246000fd5b60008261298c577f4e487b7100000000000000000000000000000000000000000000000000000000600052601260045260246000fd5b500490565b600073ffffffffffffffffffffffffffffffffffffffff838116908316818110156129be576129be6126af565b039392505050565b60008160020b7fffffffffffffffffffffffffffffffffffffffffffffffffffffffffff8000008114156129fc576129fc6126af565b60000392915050565b60007f8000000000000000000000000000000000000000000000000000000000000000821415612a3757612a376126af565b506000039056fea2646970667358221220dee46c60e1dc64742e12e0a961a9cc07a5b544044e89c200f3e8b5845a0928c764736f6c63430008090033",
  "devdoc": {
    "kind": "dev",
    "methods": {
      "calculateExactInput(address[],address,uint256)": {
        "returns": {
          "amountOut": "the maximum output",
          "maximumAmountIn": "Maximum input that the path can handle",
          "overInput": "Check if more input has been given to receive the corresponding amountOut",
          "price": "    price after swapping"
        }
      }
    },
    "version": 1
  },
  "userdoc": {
    "kind": "user",
    "methods": {
      "calculateExactInput(address[],address,uint256)": {
        "notice": "Calculate the maximum output that can be received when swapped according to the given path."
      }
    },
    "version": 1
  },
  "storageLayout": {
    "storage": [
      {
        "astId": 130,
        "contract": "contracts/misc/safeSwap/SafeSwapHelper.sol:SafeSwapHelper",
        "label": "_initialized",
        "offset": 0,
        "slot": "0",
        "type": "t_bool"
      },
      {
        "astId": 133,
        "contract": "contracts/misc/safeSwap/SafeSwapHelper.sol:SafeSwapHelper",
        "label": "_initializing",
        "offset": 1,
        "slot": "0",
        "type": "t_bool"
      },
      {
        "astId": 19669,
        "contract": "contracts/misc/safeSwap/SafeSwapHelper.sol:SafeSwapHelper",
        "label": "wETH",
        "offset": 2,
        "slot": "0",
        "type": "t_address"
      }
    ],
    "types": {
      "t_address": {
        "encoding": "inplace",
        "label": "address",
        "numberOfBytes": "20"
      },
      "t_bool": {
        "encoding": "inplace",
        "label": "bool",
        "numberOfBytes": "1"
      }
    }
  }
}