{
  "address": "0xF7C27b891670867dc2784d3A01E4d0e02Ec8909f",
  "abi": [
    {
      "inputs": [
        {
          "internalType": "address",
          "name": "_wETH",
          "type": "address"
        }
      ],
      "stateMutability": "nonpayable",
      "type": "constructor"
    },
    {
      "inputs": [],
      "name": "TickOutOfBounds",
      "type": "error"
    },
    {
      "inputs": [
        {
          "internalType": "address[]",
          "name": "path",
          "type": "address[]"
        },
        {
          "internalType": "address",
          "name": "tokenIn",
          "type": "address"
        },
        {
          "internalType": "uint256",
          "name": "exactAmountIn",
          "type": "uint256"
        }
      ],
      "name": "calculateExactInput",
      "outputs": [
        {
          "internalType": "uint256",
          "name": "amountOut",
          "type": "uint256"
        },
        {
          "internalType": "uint256",
          "name": "price",
          "type": "uint256"
        },
        {
          "internalType": "bool",
          "name": "overInput",
          "type": "bool"
        },
        {
          "internalType": "uint256",
          "name": "maximumAmountIn",
          "type": "uint256"
        }
      ],
      "stateMutability": "view",
      "type": "function"
    },
    {
      "inputs": [
        {
          "internalType": "address",
          "name": "pool",
          "type": "address"
        },
        {
          "internalType": "address",
          "name": "tokenIn",
          "type": "address"
        },
        {
          "internalType": "uint256",
          "name": "exactAmountIn",
          "type": "uint256"
        }
      ],
      "name": "calculateExactInputSingle",
      "outputs": [
        {
          "internalType": "uint256",
          "name": "amountOut",
          "type": "uint256"
        },
        {
          "internalType": "uint256",
          "name": "price",
          "type": "uint256"
        },
        {
          "internalType": "bool",
          "name": "overInput",
          "type": "bool"
        },
        {
          "internalType": "uint256",
          "name": "maximumAmountIn",
          "type": "uint256"
        }
      ],
      "stateMutability": "view",
      "type": "function"
    },
    {
      "inputs": [
        {
          "internalType": "address[]",
          "name": "path",
          "type": "address[]"
        },
        {
          "internalType": "address",
          "name": "tokenIn",
          "type": "address"
        },
        {
          "internalType": "uint256",
          "name": "exactAmountOut",
          "type": "uint256"
        }
      ],
      "name": "calculateExactOutput",
      "outputs": [
        {
          "internalType": "uint256",
          "name": "amountIn",
          "type": "uint256"
        },
        {
          "internalType": "uint256",
          "name": "price",
          "type": "uint256"
        }
      ],
      "stateMutability": "view",
      "type": "function"
    },
    {
      "inputs": [
        {
          "internalType": "address",
          "name": "pool",
          "type": "address"
        },
        {
          "internalType": "address",
          "name": "tokenIn",
          "type": "address"
        },
        {
          "internalType": "uint256",
          "name": "exactAmountOut",
          "type": "uint256"
        }
      ],
      "name": "calculateExactOutputSingle",
      "outputs": [
        {
          "internalType": "uint256",
          "name": "amountIn",
          "type": "uint256"
        },
        {
          "internalType": "uint256",
          "name": "price",
          "type": "uint256"
        }
      ],
      "stateMutability": "view",
      "type": "function"
    },
    {
      "inputs": [],
      "name": "wETH",
      "outputs": [
        {
          "internalType": "address",
          "name": "",
          "type": "address"
        }
      ],
      "stateMutability": "view",
      "type": "function"
    }
  ],
  "transactionHash": "0x6bfea43fa08a477c041fbbf8e11fb570eaaf9d1a621a929835fd99525634f52d",
  "args": [
    "0xFF3e7cf0C007f919807b32b30a4a9E7Bd7Bc4121"
  ],
  "numDeployments": 1,
  "solcInputHash": "d2d71acda42f104dc6996ebcdbdd2a01",
  "bytecode": "0x60806040523480156200001157600080fd5b50604051620028e8380380620028e883398101604081905262000034916200005a565b600080546001600160a01b0319166001600160a01b03929092169190911790556200008c565b6000602082840312156200006d57600080fd5b81516001600160a01b03811681146200008557600080fd5b9392505050565b61284c806200009c6000396000f3fe608060405234801561001057600080fd5b50600436106100675760003560e01c806375a844a01161005057806375a844a0146100d2578063beba5d3f146100e5578063f2428621146100f857600080fd5b80635213f13b1461006c5780636ecc5794146100aa575b600080fd5b61007f61007a366004612351565b61013d565b6040805194855260208501939093529015159183019190915260608201526080015b60405180910390f35b6100bd6100b83660046123dd565b6103c3565b604080519283526020830191909152016100a1565b6100bd6100e0366004612351565b610419565b61007f6100f33660046123dd565b61064d565b6000546101189073ffffffffffffffffffffffffffffffffffffffff1681565b60405173ffffffffffffffffffffffffffffffffffffffff90911681526020016100a1565b60008080808573ffffffffffffffffffffffffffffffffffffffff811615610165578661017f565b60005473ffffffffffffffffffffffffffffffffffffffff165b96508594506000805b8981101561039f5760008b8b838181106101a4576101a461241e565b90506020020160208101906101b9919061244d565b90506101c6818b8a6106bd565b9199509750925082156101d857600195505b8973ffffffffffffffffffffffffffffffffffffffff168173ffffffffffffffffffffffffffffffffffffffff16630dfe16816040518163ffffffff1660e01b815260040160206040518083038186803b15801561023557600080fd5b505afa158015610249573d6000803e3d6000fd5b505050506040513d601f19601f8201168201806040525081019061026d919061246a565b73ffffffffffffffffffffffffffffffffffffffff161461030b578073ffffffffffffffffffffffffffffffffffffffff16630dfe16816040518163ffffffff1660e01b815260040160206040518083038186803b1580156102ce57600080fd5b505afa1580156102e2573d6000803e3d6000fd5b505050506040513d601f19601f82011682018060405250810190610306919061246a565b610389565b8073ffffffffffffffffffffffffffffffffffffffff1663d21220a76040518163ffffffff1660e01b815260040160206040518083038186803b15801561035157600080fd5b505afa158015610365573d6000803e3d6000fd5b505050506040513d601f19601f82011682018060405250810190610389919061246a565b9950508080610397906124b6565b915050610188565b5083156103b6576103b28a8a8489610419565b5092505b5050945094509450949050565b60008061040c8573ffffffffffffffffffffffffffffffffffffffff8616156103ec5785610406565b60005473ffffffffffffffffffffffffffffffffffffffff165b85610dc4565b915091505b935093915050565b6000806000610429878787611509565b905083865b801561063f57600089896104436001856124ef565b8181106104525761045261241e565b9050602002016020810190610467919061244d565b90508373ffffffffffffffffffffffffffffffffffffffff168173ffffffffffffffffffffffffffffffffffffffff16630dfe16816040518163ffffffff1660e01b815260040160206040518083038186803b1580156104c657600080fd5b505afa1580156104da573d6000803e3d6000fd5b505050506040513d601f19601f820116820180604052508101906104fe919061246a565b73ffffffffffffffffffffffffffffffffffffffff161461059c578073ffffffffffffffffffffffffffffffffffffffff16630dfe16816040518163ffffffff1660e01b815260040160206040518083038186803b15801561055f57600080fd5b505afa158015610573573d6000803e3d6000fd5b505050506040513d601f19601f82011682018060405250810190610597919061246a565b61061a565b8073ffffffffffffffffffffffffffffffffffffffff1663d21220a76040518163ffffffff1660e01b815260040160206040518083038186803b1580156105e257600080fd5b505afa1580156105f6573d6000803e3d6000fd5b505050506040513d601f19601f8201168201806040525081019061061a919061246a565b9350610627818585610dc4565b9550925081905061063781612506565b91505061042e565b509791965090945050505050565b60008080806106988773ffffffffffffffffffffffffffffffffffffffff8816156106785787610692565b60005473ffffffffffffffffffffffffffffffffffffffff165b876106bd565b9195509350915081156106b4576106b08787866103c3565b5090505b93509350935093565b6000806000806106cd878761174d565b905060008773ffffffffffffffffffffffffffffffffffffffff166354cf2aeb6040518163ffffffff1660e01b815260040160206040518083038186803b15801561071757600080fd5b505afa15801561072b573d6000803e3d6000fd5b505050506040513d601f19601f8201168201806040525081019061074f919061253b565b905060008873ffffffffffffffffffffffffffffffffffffffff1663d0c93a7c6040518163ffffffff1660e01b815260040160206040518083038186803b15801561079957600080fd5b505afa1580156107ad573d6000803e3d6000fd5b505050506040513d601f19601f820116820180604052508101906107d1919061253b565b90506108086040518060a0016040528060008152602001600081526020016000815260200160008152602001600060020b81525090565b6000808b73ffffffffffffffffffffffffffffffffffffffff16638c347f9b6040518163ffffffff1660e01b8152600401604080518083038186803b15801561085057600080fd5b505afa158015610864573d6000803e3d6000fd5b505050506040513d601f19601f820116820180604052508101906108889190612582565b915091506040518060a001604052808373ffffffffffffffffffffffffffffffffffffffff1681526020018d73ffffffffffffffffffffffffffffffffffffffff16631a6865026040518163ffffffff1660e01b815260040160206040518083038186803b1580156108f957600080fd5b505afa15801561090d573d6000803e3d6000fd5b505050506040513d601f19601f8201168201806040525081019061093191906125d7565b6fffffffffffffffffffffffffffffffff1681526020018b81526020016000815260200187610a04576040517ff30dba93000000000000000000000000000000000000000000000000000000008152600284900b600482015273ffffffffffffffffffffffffffffffffffffffff8f169063f30dba939060240160c06040518083038186803b1580156109c357600080fd5b505afa1580156109d7573d6000803e3d6000fd5b505050506040513d601f19601f820116820180604052508101906109fb91906125f2565b60200151610a06565b825b60020b81525092505050610a1981611802565b15610a33575160009650945050508415159150610dbb9050565b604081015115610daa576000610a4c8260800151611883565b73ffffffffffffffffffffffffffffffffffffffff1690506000808615610b86576000610a8485602001518587600001516000611c16565b905080856040015111610b4a5760208501518551604087015160609290921b91600091610ac791849190610ab890826126aa565b610ac290866126e7565b611c70565b9050808611158015610ad95750865181105b610b225760408701518751610b09918491610af4908361272e565b610afe91906126e7565b808204910615150190565b73ffffffffffffffffffffffffffffffffffffffff1690505b610b3787602001518289600001516000611ccb565b908752600060408801529350610b809050565b610b5f85602001518587600001516000611ccb565b848652604086018051919450600193508291610b7c9083906124ef565b9052505b50610c38565b6000610b9d85602001518660000151866000611ccb565b905080856040015111610c00576000610bcc86604001516c010000000000000000000000008860200151611d10565b8651610bd891906126e7565b9050610bef86602001518760000151836000611c16565b908652600060408701529250610c36565b610c1585602001518660000151866000611c16565b848652604086018051919450600193508291610c329083906124ef565b9052505b505b610c47828762ffffff16611de1565b610c51908b6126e7565b99508015610da257610c658d85878a611dfb565b60020b608086015260208501819052610da257610ca17ffffffffffffffffffffffffffffffffffffffffffffffffffffffffffff27618612769565b60020b846080015160020b1480610cde5750608084015160020b7ffffffffffffffffffffffffffffffffffffffffffffffffffffffffffff27618145b15610d63578615610d0d578351610d0690610cfb906001906124ef565b6401000276a36122f2565b8452610d5b565b8351610d5890610d1e9060016126e7565b610d3d600173fffd8963efd1fc6a506488495d951d5263988d266127a8565b73ffffffffffffffffffffffffffffffffffffffff16612309565b84525b505050610daa565b610d708460800151611883565b73ffffffffffffffffffffffffffffffffffffffff168452610d948d85878a611dfb565b60020b608086015260208501525b505050610a33565b604081015190519550151593505050505b93509350939050565b6000806000610dd3868661174d565b905060008673ffffffffffffffffffffffffffffffffffffffff166354cf2aeb6040518163ffffffff1660e01b815260040160206040518083038186803b158015610e1d57600080fd5b505afa158015610e31573d6000803e3d6000fd5b505050506040513d601f19601f82011682018060405250810190610e55919061253b565b905060008773ffffffffffffffffffffffffffffffffffffffff1663d0c93a7c6040518163ffffffff1660e01b815260040160206040518083038186803b158015610e9f57600080fd5b505afa158015610eb3573d6000803e3d6000fd5b505050506040513d601f19601f82011682018060405250810190610ed7919061253b565b9050610f0e6040518060a0016040528060008152602001600081526020016000815260200160008152602001600060020b81525090565b6000808a73ffffffffffffffffffffffffffffffffffffffff16638c347f9b6040518163ffffffff1660e01b8152600401604080518083038186803b158015610f5657600080fd5b505afa158015610f6a573d6000803e3d6000fd5b505050506040513d601f19601f82011682018060405250810190610f8e9190612582565b915091506040518060a001604052808373ffffffffffffffffffffffffffffffffffffffff1681526020018c73ffffffffffffffffffffffffffffffffffffffff16631a6865026040518163ffffffff1660e01b815260040160206040518083038186803b158015610fff57600080fd5b505afa158015611013573d6000803e3d6000fd5b505050506040513d601f19601f8201168201806040525081019061103791906125d7565b6fffffffffffffffffffffffffffffffff168152602001600081526020018a81526020018761110a576040517ff30dba93000000000000000000000000000000000000000000000000000000008152600284900b600482015273ffffffffffffffffffffffffffffffffffffffff8e169063f30dba939060240160c06040518083038186803b1580156110c957600080fd5b505afa1580156110dd573d6000803e3d6000fd5b505050506040513d601f19601f8201168201806040525081019061110191906125f2565b6020015161110c565b825b60020b8152509250505061111f81611802565b15611134575160009550935061041192505050565b60608101511561148857600061114d8260800151611883565b73ffffffffffffffffffffffffffffffffffffffff169050600080861561124057600061119361118886602001518688600001516000611ccb565b8862ffffff16611de1565b9050808560600151116112045760006111d06111b887606001518a62ffffff16612318565b6c010000000000000000000000008860200151611c70565b86516111dc91906124ef565b90506111f386602001518288600001516001611c16565b90865260006060870152925061123a565b61121985602001518587600001516000611c16565b84865260608601805191945082916112329083906124ef565b905250600191505b5061136a565b600061125a61118886602001518760000151876000611c16565b905080856060015111611332576000606060ff168660200151901b905060006112ab8288600001516112958a606001518d62ffffff16612318565b8a516112a191906126aa565b610ac290866124ef565b9050808760000151111580156112c057508581105b61130a576112f1826112db89606001518c62ffffff16612318565b89516112e7908661272e565b610afe91906124ef565b73ffffffffffffffffffffffffffffffffffffffff1690505b61131f87602001518860000151836001611ccb565b9087526000606088015293506113689050565b61134785602001518660000151866000611ccb565b84865260608601805191945082916113609083906124ef565b905250600191505b505b611374828a6126e7565b98508015611480576113888c85878a611dfb565b60020b608086015260208501819052611480576113c47ffffffffffffffffffffffffffffffffffffffffffffffffffffffffffff27618612769565b60020b846080015160020b14806114015750608084015160020b7ffffffffffffffffffffffffffffffffffffffffffffffffffffffffffff27618145b1561144157861561142557835161141e90610cfb906001906124ef565b8452611439565b835161143690610d1e9060016126e7565b84525b505050611488565b61144e8460800151611883565b73ffffffffffffffffffffffffffffffffffffffff1684526114728c85878a611dfb565b60020b608086015260208501525b505050611134565b80516060820151909550156114fd576040517f08c379a000000000000000000000000000000000000000000000000000000000815260206004820152601360248201527f494e53554646494349454e54204f555450555400000000000000000000000000604482015260640160405180910390fd5b50505050935093915050565b600073ffffffffffffffffffffffffffffffffffffffff82161561152d5781611547565b60005473ffffffffffffffffffffffffffffffffffffffff165b90506000805b84811015611743578585828181106115675761156761241e565b905060200201602081019061157c919061244d565b91508273ffffffffffffffffffffffffffffffffffffffff168273ffffffffffffffffffffffffffffffffffffffff16630dfe16816040518163ffffffff1660e01b815260040160206040518083038186803b1580156115db57600080fd5b505afa1580156115ef573d6000803e3d6000fd5b505050506040513d601f19601f82011682018060405250810190611613919061246a565b73ffffffffffffffffffffffffffffffffffffffff16146116b1578173ffffffffffffffffffffffffffffffffffffffff16630dfe16816040518163ffffffff1660e01b815260040160206040518083038186803b15801561167457600080fd5b505afa158015611688573d6000803e3d6000fd5b505050506040513d601f19601f820116820180604052508101906116ac919061246a565b61172f565b8173ffffffffffffffffffffffffffffffffffffffff1663d21220a76040518163ffffffff1660e01b815260040160206040518083038186803b1580156116f757600080fd5b505afa15801561170b573d6000803e3d6000fd5b505050506040513d601f19601f8201168201806040525081019061172f919061246a565b92508061173b816124b6565b91505061154d565b50505b9392505050565b60008173ffffffffffffffffffffffffffffffffffffffff168373ffffffffffffffffffffffffffffffffffffffff16630dfe16816040518163ffffffff1660e01b815260040160206040518083038186803b1580156117ac57600080fd5b505afa1580156117c0573d6000803e3d6000fd5b505050506040513d601f19601f820116820180604052508101906117e4919061246a565b73ffffffffffffffffffffffffffffffffffffffff16149392505050565b60208101516000901561181757506000919050565b608082015160020b7ffffffffffffffffffffffffffffffffffffffffffffffffffffffffffff27618148061187d57506118707ffffffffffffffffffffffffffffffffffffffffffffffffffffffffffff27618612769565b60020b826080015160020b145b92915050565b60008060008360020b1261189a578260020b6118a7565b8260020b6118a7906127dd565b90506118d27ffffffffffffffffffffffffffffffffffffffffffffffffffffffffffff27618612769565b62ffffff16811115611910576040517ff87dc40c00000000000000000000000000000000000000000000000000000000815260040160405180910390fd5b60006001821661193157700100000000000000000000000000000000611943565b6ffffcb933bd6fad37aa2d162d1a5940015b70ffffffffffffffffffffffffffffffffff1690506002821615611977576ffff97272373d413259a46990580e213a0260801c5b6004821615611996576ffff2e50f5f656932ef12357cf3c7fdcc0260801c5b60088216156119b5576fffe5caca7e10e4e61c3624eaa0941cd00260801c5b60108216156119d4576fffcb9843d60f6159c9db58835c9266440260801c5b60208216156119f3576fff973b41fa98c081472e6896dfb254c00260801c5b6040821615611a12576fff2ea16466c96a3843ec78b326b528610260801c5b6080821615611a31576ffe5dee046a99a2a811c461f1969c30530260801c5b610100821615611a51576ffcbe86c7900a88aedcffc83b479aa3a40260801c5b610200821615611a71576ff987a7253ac413176f2b074cf7815e540260801c5b610400821615611a91576ff3392b0822b70005940c7a398e4b70f30260801c5b610800821615611ab1576fe7159475a2c29b7443b29c7fa6e889d90260801c5b611000821615611ad1576fd097f3bdfd2022b8845ad8f792aa58250260801c5b612000821615611af1576fa9f746462d870fdf8a65dc1f90e061e50260801c5b614000821615611b11576f70d869a156d2a1b890bb3df62baf32f70260801c5b618000821615611b31576f31be135f97d08fd981231505542fcfa60260801c5b62010000821615611b52576f09aa508b5b7a84e1c677de54f3e99bc90260801c5b62020000821615611b72576e5d6af8dedb81196699c329225ee6040260801c5b62040000821615611b91576d2216e584f5fa1ea926041bedfe980260801c5b62080000821615611bae576b048a170391f7dc42444e8fa20260801c5b60008460020b1315611bed57807fffffffffffffffffffffffffffffffffffffffffffffffffffffffffffffffff81611be957611be96126ff565b0490505b640100000000810615611c01576001611c04565b60005b60ff16602082901c0192505050919050565b60008115611c4557611c3e611c32606087901b86860386611c70565b85808204910615150190565b9050611c68565b83611c57606087901b82860386611d10565b81611c6457611c646126ff565b0490505b949350505050565b6000611c7d848484611d10565b90508180611c8d57611c8d6126ff565b83850915611746577fffffffffffffffffffffffffffffffffffffffffffffffffffffffffffffffff8110611cc157600080fd5b6001019392505050565b60008115611ced57611c3e858585036c01000000000000000000000000611c70565b611d07858585036c01000000000000000000000000611d10565b95945050505050565b600080807fffffffffffffffffffffffffffffffffffffffffffffffffffffffffffffffff8587098587029250828110838203039150508060001415611d685760008411611d5d57600080fd5b508290049050611746565b808411611d7457600080fd5b6000848688096000868103871696879004966002600389028118808a02820302808a02820302808a02820302808a02820302808a02820302808a02909103029181900381900460010186841190950394909402919094039290920491909117919091029150509392505050565b6000611df18383620f4240611c70565b61174690846124ef565b60008082156120775760028460020b866080015160020b81611e1f57611e1f6126ff565b0560020b81611e3057611e306126ff565b0760020b611f025760808501516040517ff30dba9300000000000000000000000000000000000000000000000000000000815260029190910b600482015273ffffffffffffffffffffffffffffffffffffffff87169063f30dba939060240160c06040518083038186803b158015611ea757600080fd5b505afa158015611ebb573d6000803e3d6000fd5b505050506040513d601f19601f82011682018060405250810190611edf91906125f2565b604001516fffffffffffffffffffffffffffffffff168560200151039150611fc8565b60808501516040517ff30dba9300000000000000000000000000000000000000000000000000000000815260029190910b600482015273ffffffffffffffffffffffffffffffffffffffff87169063f30dba939060240160c06040518083038186803b158015611f7157600080fd5b505afa158015611f85573d6000803e3d6000fd5b505050506040513d601f19601f82011682018060405250810190611fa991906125f2565b604001516fffffffffffffffffffffffffffffffff1685602001510191505b60808501516040517ff30dba9300000000000000000000000000000000000000000000000000000000815260029190910b600482015273ffffffffffffffffffffffffffffffffffffffff87169063f30dba939060240160c06040518083038186803b15801561203757600080fd5b505afa15801561204b573d6000803e3d6000fd5b505050506040513d601f19601f8201168201806040525081019061206f91906125f2565b5190506122e9565b60028460020b866080015160020b81612092576120926126ff565b0560020b816120a3576120a36126ff565b0760020b6121755760808501516040517ff30dba9300000000000000000000000000000000000000000000000000000000815260029190910b600482015273ffffffffffffffffffffffffffffffffffffffff87169063f30dba939060240160c06040518083038186803b15801561211a57600080fd5b505afa15801561212e573d6000803e3d6000fd5b505050506040513d601f19601f8201168201806040525081019061215291906125f2565b604001516fffffffffffffffffffffffffffffffff16856020015101915061223b565b60808501516040517ff30dba9300000000000000000000000000000000000000000000000000000000815260029190910b600482015273ffffffffffffffffffffffffffffffffffffffff87169063f30dba939060240160c06040518083038186803b1580156121e457600080fd5b505afa1580156121f8573d6000803e3d6000fd5b505050506040513d601f19601f8201168201806040525081019061221c91906125f2565b604001516fffffffffffffffffffffffffffffffff1685602001510391505b60808501516040517ff30dba9300000000000000000000000000000000000000000000000000000000815260029190910b600482015273ffffffffffffffffffffffffffffffffffffffff87169063f30dba939060240160c06040518083038186803b1580156122aa57600080fd5b505afa1580156122be573d6000803e3d6000fd5b505050506040513d601f19601f820116820180604052508101906122e291906125f2565b6020015190505b94509492505050565b6000818310156123025781611746565b5090919050565b60008183106123025781611746565b600061174683620f4240610ac285826124ef565b73ffffffffffffffffffffffffffffffffffffffff8116811461234e57600080fd5b50565b6000806000806060858703121561236757600080fd5b843567ffffffffffffffff8082111561237f57600080fd5b818701915087601f83011261239357600080fd5b8135818111156123a257600080fd5b8860208260051b85010111156123b757600080fd5b602092830196509450508501356123cd8161232c565b9396929550929360400135925050565b6000806000606084860312156123f257600080fd5b83356123fd8161232c565b9250602084013561240d8161232c565b929592945050506040919091013590565b7f4e487b7100000000000000000000000000000000000000000000000000000000600052603260045260246000fd5b60006020828403121561245f57600080fd5b81356117468161232c565b60006020828403121561247c57600080fd5b81516117468161232c565b7f4e487b7100000000000000000000000000000000000000000000000000000000600052601160045260246000fd5b60007fffffffffffffffffffffffffffffffffffffffffffffffffffffffffffffffff8214156124e8576124e8612487565b5060010190565b60008282101561250157612501612487565b500390565b60008161251557612515612487565b507fffffffffffffffffffffffffffffffffffffffffffffffffffffffffffffffff0190565b60006020828403121561254d57600080fd5b815162ffffff8116811461174657600080fd5b805161256b8161232c565b919050565b8051600281900b811461256b57600080fd5b6000806040838503121561259557600080fd5b82516125a08161232c565b91506125ae60208401612570565b90509250929050565b80516fffffffffffffffffffffffffffffffff8116811461256b57600080fd5b6000602082840312156125e957600080fd5b611746826125b7565b600060c0828403121561260457600080fd5b60405160c0810181811067ffffffffffffffff8211171561264e577f4e487b7100000000000000000000000000000000000000000000000000000000600052604160045260246000fd5b60405261265a83612570565b815261266860208401612570565b6020820152612679604084016125b7565b6040820152606083015160608201526080830151608082015261269e60a08401612560565b60a08201529392505050565b6000817fffffffffffffffffffffffffffffffffffffffffffffffffffffffffffffffff04831182151516156126e2576126e2612487565b500290565b600082198211156126fa576126fa612487565b500190565b7f4e487b7100000000000000000000000000000000000000000000000000000000600052601260045260246000fd5b600082612764577f4e487b7100000000000000000000000000000000000000000000000000000000600052601260045260246000fd5b500490565b60008160020b7fffffffffffffffffffffffffffffffffffffffffffffffffffffffffff80000081141561279f5761279f612487565b60000392915050565b600073ffffffffffffffffffffffffffffffffffffffff838116908316818110156127d5576127d5612487565b039392505050565b60007f800000000000000000000000000000000000000000000000000000000000000082141561280f5761280f612487565b506000039056fea26469706673582212200e61bbf083268460262609f5d6053eb485478ed7b9d43f5e6cd9e5bda118c5f364736f6c63430008090033",
  "devdoc": {
    "kind": "dev",
    "methods": {
      "calculateExactInput(address[],address,uint256)": {
        "returns": {
          "amountOut": "the maximum output",
          "maximumAmountIn": "Maximum input that the path can handle",
          "overInput": "Check if more input has been given to receive the corresponding amountOut",
          "price": "    price after swapping"
        }
      }
    },
    "version": 1
  },
  "userdoc": {
    "kind": "user",
    "methods": {
      "calculateExactInput(address[],address,uint256)": {
        "notice": "Calculate the maximum output that can be received when swapped according to the given path."
      }
    },
    "version": 1
  },
  "storageLayout": {
    "storage": [
      {
        "astId": 19544,
        "contract": "contracts/misc/safeSwap/SafeSwapHelper.sol:SafeSwapHelper",
        "label": "wETH",
        "offset": 0,
        "slot": "0",
        "type": "t_address"
      }
    ],
    "types": {
      "t_address": {
        "encoding": "inplace",
        "label": "address",
        "numberOfBytes": "20"
      }
    }
  }
}