{
  "address": "0xb7b9908ED750DE654Cec10273ac04b6EF5b83284",
  "abi": [
    {
      "anonymous": false,
      "inputs": [
        {
          "indexed": true,
          "internalType": "address",
          "name": "previousOwner",
          "type": "address"
        },
        {
          "indexed": true,
          "internalType": "address",
          "name": "newOwner",
          "type": "address"
        }
      ],
      "name": "OwnershipTransferred",
      "type": "event"
    },
    {
      "inputs": [],
      "name": "WEEK",
      "outputs": [
        {
          "internalType": "uint256",
          "name": "",
          "type": "uint256"
        }
      ],
      "stateMutability": "view",
      "type": "function"
    },
    {
      "inputs": [
        {
          "internalType": "address",
          "name": "_targetPool",
          "type": "address"
        }
      ],
      "name": "addTargetPool",
      "outputs": [],
      "stateMutability": "nonpayable",
      "type": "function"
    },
    {
      "inputs": [],
      "name": "airdropDistributor",
      "outputs": [
        {
          "internalType": "contract IAirdropDistributorV2",
          "name": "",
          "type": "address"
        }
      ],
      "stateMutability": "view",
      "type": "function"
    },
    {
      "inputs": [
        {
          "internalType": "address",
          "name": "pool",
          "type": "address"
        },
        {
          "internalType": "uint256",
          "name": "epochStartTime",
          "type": "uint256"
        },
        {
          "internalType": "uint128",
          "name": "amount",
          "type": "uint128"
        }
      ],
      "name": "allocate",
      "outputs": [],
      "stateMutability": "nonpayable",
      "type": "function"
    },
    {
      "inputs": [],
      "name": "currentEpochStartTime",
      "outputs": [
        {
          "internalType": "uint256",
          "name": "",
          "type": "uint256"
        }
      ],
      "stateMutability": "view",
      "type": "function"
    },
    {
      "inputs": [],
      "name": "depositEpoch",
      "outputs": [],
      "stateMutability": "nonpayable",
      "type": "function"
    },
    {
      "inputs": [
        {
          "internalType": "address",
          "name": "_airdropDistributor",
          "type": "address"
        },
        {
          "internalType": "address",
          "name": "_stone",
          "type": "address"
        },
        {
          "internalType": "address[]",
          "name": "_targetPools",
          "type": "address[]"
        }
      ],
      "name": "initialize",
      "outputs": [],
      "stateMutability": "nonpayable",
      "type": "function"
    },
    {
      "inputs": [
        {
          "internalType": "address",
          "name": "",
          "type": "address"
        }
      ],
      "name": "isTargetPool",
      "outputs": [
        {
          "internalType": "bool",
          "name": "",
          "type": "bool"
        }
      ],
      "stateMutability": "view",
      "type": "function"
    },
    {
      "inputs": [],
      "name": "owner",
      "outputs": [
        {
          "internalType": "address",
          "name": "",
          "type": "address"
        }
      ],
      "stateMutability": "view",
      "type": "function"
    },
    {
      "inputs": [
        {
          "internalType": "address",
          "name": "_targetPool",
          "type": "address"
        }
      ],
      "name": "removeTargetPool",
      "outputs": [],
      "stateMutability": "nonpayable",
      "type": "function"
    },
    {
      "inputs": [],
      "name": "renounceOwnership",
      "outputs": [],
      "stateMutability": "nonpayable",
      "type": "function"
    },
    {
      "inputs": [
        {
          "internalType": "uint256",
          "name": "",
          "type": "uint256"
        },
        {
          "internalType": "address",
          "name": "",
          "type": "address"
        }
      ],
      "name": "scheduledAmounts",
      "outputs": [
        {
          "internalType": "uint128",
          "name": "",
          "type": "uint128"
        }
      ],
      "stateMutability": "view",
      "type": "function"
    },
    {
      "inputs": [],
      "name": "stone",
      "outputs": [
        {
          "internalType": "contract IERC20",
          "name": "",
          "type": "address"
        }
      ],
      "stateMutability": "view",
      "type": "function"
    },
    {
      "inputs": [
        {
          "internalType": "uint256",
          "name": "",
          "type": "uint256"
        }
      ],
      "name": "targetPools",
      "outputs": [
        {
          "internalType": "address",
          "name": "",
          "type": "address"
        }
      ],
      "stateMutability": "view",
      "type": "function"
    },
    {
      "inputs": [],
      "name": "totalTargetPool",
      "outputs": [
        {
          "internalType": "uint256",
          "name": "",
          "type": "uint256"
        }
      ],
      "stateMutability": "view",
      "type": "function"
    },
    {
      "inputs": [
        {
          "internalType": "address",
          "name": "newOwner",
          "type": "address"
        }
      ],
      "name": "transferOwnership",
      "outputs": [],
      "stateMutability": "nonpayable",
      "type": "function"
    }
  ],
  "transactionHash": "0xcb302e198a2533ae2925cd12b5f81ac718ca61a6e79e0589ff79646f993b896f",
  "args": [],
  "numDeployments": 1,
  "solcInputHash": "739d9d94ef801fda87b4821e86b5d77c",
  "bytecode": "0x608060405234801561001057600080fd5b5061175d806100206000396000f3fe608060405234801561001057600080fd5b50600436106101005760003560e01c8063830dd08c11610097578063dc1bee0d11610066578063dc1bee0d14610247578063e187e46e1461024f578063f2fde38b146102ad578063f4359ce5146102c057600080fd5b8063830dd08c146101ee5780638da5cb5b146101f6578063d03ad6b214610214578063d0a931731461022757600080fd5b80634a43f180116100d35780634a43f1801461018a578063666a0ea5146101a0578063715018a6146101d357806377a24f36146101db57600080fd5b80630167eb85146101055780631d449c511461014f578063289ab6131461016457806344f20c4f14610177575b600080fd5b6066546101259073ffffffffffffffffffffffffffffffffffffffff1681565b60405173ffffffffffffffffffffffffffffffffffffffff90911681526020015b60405180910390f35b61016261015d36600461138b565b6102ca565b005b6101256101723660046113ad565b610624565b6101626101853660046113c6565b61065b565b6101926108c1565b604051908152602001610146565b6101c36101ae36600461138b565b60686020526000908152604090205460ff1681565b6040519015158152602001610146565b6101626108e0565b6101626101e936600461144a565b61096d565b606754610192565b60335473ffffffffffffffffffffffffffffffffffffffff16610125565b61016261022236600461138b565b610d30565b6065546101259073ffffffffffffffffffffffffffffffffffffffff1681565b610162610eea565b61028c61025d366004611550565b60696020908152600092835260408084209091529082529020546fffffffffffffffffffffffffffffffff1681565b6040516fffffffffffffffffffffffffffffffff9091168152602001610146565b6101626102bb36600461138b565b611081565b61019262093a8081565b60335473ffffffffffffffffffffffffffffffffffffffff163314610350576040517f08c379a000000000000000000000000000000000000000000000000000000000815260206004820181905260248201527f4f776e61626c653a2063616c6c6572206973206e6f7420746865206f776e657260448201526064015b60405180910390fd5b73ffffffffffffffffffffffffffffffffffffffff811660009081526068602052604090205460ff166103df576040517f08c379a000000000000000000000000000000000000000000000000000000000815260206004820152600a60248201527f4e4f5420455849535453000000000000000000000000000000000000000000006044820152606401610347565b73ffffffffffffffffffffffffffffffffffffffff8116600090815260686020526040812080547fffffffffffffffffffffffffffffffffffffffffffffffffffffffffffffff001690555b60675461043a906001906115ab565b8110156105b7578173ffffffffffffffffffffffffffffffffffffffff166067828154811061046b5761046b6115c2565b60009182526020909120015473ffffffffffffffffffffffffffffffffffffffff1614156105a55760678054600091906104a7906001906115ab565b815481106104b7576104b76115c2565b6000918252602090912001546067805473ffffffffffffffffffffffffffffffffffffffff909216925084916104ef906001906115ab565b815481106104ff576104ff6115c2565b9060005260206000200160006101000a81548173ffffffffffffffffffffffffffffffffffffffff021916908373ffffffffffffffffffffffffffffffffffffffff160217905550806067838154811061055b5761055b6115c2565b9060005260206000200160006101000a81548173ffffffffffffffffffffffffffffffffffffffff021916908373ffffffffffffffffffffffffffffffffffffffff160217905550505b806105af816115f1565b91505061042b565b5060678054806105c9576105c961162a565b60008281526020902081017fffffffffffffffffffffffffffffffffffffffffffffffffffffffffffffffff90810180547fffffffffffffffffffffffff000000000000000000000000000000000000000016905501905550565b6067818154811061063457600080fd5b60009182526020909120015473ffffffffffffffffffffffffffffffffffffffff16905081565b60335473ffffffffffffffffffffffffffffffffffffffff1633146106dc576040517f08c379a000000000000000000000000000000000000000000000000000000000815260206004820181905260248201527f4f776e61626c653a2063616c6c6572206973206e6f7420746865206f776e65726044820152606401610347565b73ffffffffffffffffffffffffffffffffffffffff831660009081526068602052604090205460ff1661076b576040517f08c379a000000000000000000000000000000000000000000000000000000000815260206004820152600f60248201527f4e4f542054415247455420504f4f4c00000000000000000000000000000000006044820152606401610347565b61077862093a8083611688565b156107df576040517f08c379a000000000000000000000000000000000000000000000000000000000815260206004820152601860248201527f494e56414c49442045504f43482053544152542054494d4500000000000000006044820152606401610347565b6107e76108c1565b821161084f576040517f08c379a000000000000000000000000000000000000000000000000000000000815260206004820152600a60248201527f504153542045504f4348000000000000000000000000000000000000000000006044820152606401610347565b600091825260696020908152604080842073ffffffffffffffffffffffffffffffffffffffff95909516845293905291902080547fffffffffffffffffffffffffffffffff00000000000000000000000000000000166fffffffffffffffffffffffffffffffff909216919091179055565b600062093a806108d1814261169c565b6108db91906116b0565b905090565b60335473ffffffffffffffffffffffffffffffffffffffff163314610961576040517f08c379a000000000000000000000000000000000000000000000000000000000815260206004820181905260248201527f4f776e61626c653a2063616c6c6572206973206e6f7420746865206f776e65726044820152606401610347565b61096b60006111b1565b565b600054610100900460ff166109885760005460ff161561098c565b303b155b610a18576040517f08c379a000000000000000000000000000000000000000000000000000000000815260206004820152602e60248201527f496e697469616c697a61626c653a20636f6e747261637420697320616c72656160448201527f647920696e697469616c697a65640000000000000000000000000000000000006064820152608401610347565b600054610100900460ff16158015610a5757600080547fffffffffffffffffffffffffffffffffffffffffffffffffffffffffffff0000166101011790555b6065805473ffffffffffffffffffffffffffffffffffffffff8087167fffffffffffffffffffffffff000000000000000000000000000000000000000092831617909255606680549286169290911691909117905560005b8251811015610c26576000838281518110610acc57610acc6115c2565b60209081029190910181015173ffffffffffffffffffffffffffffffffffffffff81166000908152606890925260409091205490915060ff1615610b6c576040517f08c379a000000000000000000000000000000000000000000000000000000000815260206004820152600f60248201527f4455504c49434154454420504f4f4c00000000000000000000000000000000006044820152606401610347565b6067805460018181019092557f9787eeb91fe3101235e4a76063c7023ecb40f923f97916639c598592fa30d6ae01805473ffffffffffffffffffffffffffffffffffffffff9093167fffffffffffffffffffffffff00000000000000000000000000000000000000009093168317905560009182526068602052604090912080547fffffffffffffffffffffffffffffffffffffffffffffffffffffffffffffff0016909117905580610c1e816115f1565b915050610aaf565b506066546040517f095ea7b300000000000000000000000000000000000000000000000000000000815273ffffffffffffffffffffffffffffffffffffffff86811660048301527fffffffffffffffffffffffffffffffffffffffffffffffffffffffffffffffff60248301529091169063095ea7b390604401602060405180830381600087803b158015610cba57600080fd5b505af1158015610cce573d6000803e3d6000fd5b505050506040513d601f19601f82011682018060405250810190610cf291906116ed565b50610cfb611228565b8015610d2a57600080547fffffffffffffffffffffffffffffffffffffffffffffffffffffffffffff00ff1690555b50505050565b60335473ffffffffffffffffffffffffffffffffffffffff163314610db1576040517f08c379a000000000000000000000000000000000000000000000000000000000815260206004820181905260248201527f4f776e61626c653a2063616c6c6572206973206e6f7420746865206f776e65726044820152606401610347565b73ffffffffffffffffffffffffffffffffffffffff811660009081526068602052604090205460ff1615610e41576040517f08c379a000000000000000000000000000000000000000000000000000000000815260206004820152600e60248201527f414c5245414459204558495354530000000000000000000000000000000000006044820152606401610347565b73ffffffffffffffffffffffffffffffffffffffff16600081815260686020526040812080547fffffffffffffffffffffffffffffffffffffffffffffffffffffffffffffff001660019081179091556067805491820181559091527f9787eeb91fe3101235e4a76063c7023ecb40f923f97916639c598592fa30d6ae0180547fffffffffffffffffffffffff0000000000000000000000000000000000000000169091179055565b600062093a80610ef86108c1565b610f02919061170f565b905060005b60675481101561107d57600060678281548110610f2657610f266115c2565b600091825260208083209091015485835260698252604080842073ffffffffffffffffffffffffffffffffffffffff909216808552919092529120549091506fffffffffffffffffffffffffffffffff16801561106857600084815260696020908152604080832073ffffffffffffffffffffffffffffffffffffffff868116808652919093529281902080547fffffffffffffffffffffffffffffffff0000000000000000000000000000000016905560655460665491517ff5006563000000000000000000000000000000000000000000000000000000008152600481019490945290821660248401526fffffffffffffffffffffffffffffffff84166044840152169063f500656390606401600060405180830381600087803b15801561104f57600080fd5b505af1158015611063573d6000803e3d6000fd5b505050505b50508080611075906115f1565b915050610f07565b5050565b60335473ffffffffffffffffffffffffffffffffffffffff163314611102576040517f08c379a000000000000000000000000000000000000000000000000000000000815260206004820181905260248201527f4f776e61626c653a2063616c6c6572206973206e6f7420746865206f776e65726044820152606401610347565b73ffffffffffffffffffffffffffffffffffffffff81166111a5576040517f08c379a000000000000000000000000000000000000000000000000000000000815260206004820152602660248201527f4f776e61626c653a206e6577206f776e657220697320746865207a65726f206160448201527f64647265737300000000000000000000000000000000000000000000000000006064820152608401610347565b6111ae816111b1565b50565b6033805473ffffffffffffffffffffffffffffffffffffffff8381167fffffffffffffffffffffffff0000000000000000000000000000000000000000831681179093556040519116919082907f8be0079c531659141344cd1fd0a4f28419497f9722a3daafe3b4186f6b6457e090600090a35050565b600054610100900460ff166112bf576040517f08c379a000000000000000000000000000000000000000000000000000000000815260206004820152602b60248201527f496e697469616c697a61626c653a20636f6e7472616374206973206e6f74206960448201527f6e697469616c697a696e670000000000000000000000000000000000000000006064820152608401610347565b61096b600054610100900460ff16611359576040517f08c379a000000000000000000000000000000000000000000000000000000000815260206004820152602b60248201527f496e697469616c697a61626c653a20636f6e7472616374206973206e6f74206960448201527f6e697469616c697a696e670000000000000000000000000000000000000000006064820152608401610347565b61096b336111b1565b803573ffffffffffffffffffffffffffffffffffffffff8116811461138657600080fd5b919050565b60006020828403121561139d57600080fd5b6113a682611362565b9392505050565b6000602082840312156113bf57600080fd5b5035919050565b6000806000606084860312156113db57600080fd5b6113e484611362565b92506020840135915060408401356fffffffffffffffffffffffffffffffff8116811461141057600080fd5b809150509250925092565b7f4e487b7100000000000000000000000000000000000000000000000000000000600052604160045260246000fd5b60008060006060848603121561145f57600080fd5b61146884611362565b92506020611477818601611362565b9250604085013567ffffffffffffffff8082111561149457600080fd5b818701915087601f8301126114a857600080fd5b8135818111156114ba576114ba61141b565b8060051b6040517fffffffffffffffffffffffffffffffffffffffffffffffffffffffffffffffe0603f830116810181811085821117156114fd576114fd61141b565b60405291825284820192508381018501918a83111561151b57600080fd5b938501935b828510156115405761153185611362565b84529385019392850192611520565b8096505050505050509250925092565b6000806040838503121561156357600080fd5b8235915061157360208401611362565b90509250929050565b7f4e487b7100000000000000000000000000000000000000000000000000000000600052601160045260246000fd5b6000828210156115bd576115bd61157c565b500390565b7f4e487b7100000000000000000000000000000000000000000000000000000000600052603260045260246000fd5b60007fffffffffffffffffffffffffffffffffffffffffffffffffffffffffffffffff8214156116235761162361157c565b5060010190565b7f4e487b7100000000000000000000000000000000000000000000000000000000600052603160045260246000fd5b7f4e487b7100000000000000000000000000000000000000000000000000000000600052601260045260246000fd5b60008261169757611697611659565b500690565b6000826116ab576116ab611659565b500490565b6000817fffffffffffffffffffffffffffffffffffffffffffffffffffffffffffffffff04831182151516156116e8576116e861157c565b500290565b6000602082840312156116ff57600080fd5b815180151581146113a657600080fd5b600082198211156117225761172261157c565b50019056fea2646970667358221220358a4827eb49a80d065609d4cdc5cc41f31ff22e58d4103553bb799b45c0246d64736f6c63430008090033",
  "devdoc": {
    "kind": "dev",
    "methods": {
      "owner()": {
        "details": "Returns the address of the current owner."
      },
      "renounceOwnership()": {
        "details": "Leaves the contract without owner. It will not be possible to call `onlyOwner` functions anymore. Can only be called by the current owner. NOTE: Renouncing ownership will leave the contract without an owner, thereby removing any functionality that is only available to the owner."
      },
      "transferOwnership(address)": {
        "details": "Transfers ownership of the contract to a new account (`newOwner`). Can only be called by the current owner."
      }
    },
    "version": 1
  },
  "userdoc": {
    "kind": "user",
    "methods": {},
    "version": 1
  },
  "storageLayout": {
    "storage": [
      {
        "astId": 130,
        "contract": "contracts/distribution/StoneScheduler.sol:StoneScheduler",
        "label": "_initialized",
        "offset": 0,
        "slot": "0",
        "type": "t_bool"
      },
      {
        "astId": 133,
        "contract": "contracts/distribution/StoneScheduler.sol:StoneScheduler",
        "label": "_initializing",
        "offset": 1,
        "slot": "0",
        "type": "t_bool"
      },
      {
        "astId": 1981,
        "contract": "contracts/distribution/StoneScheduler.sol:StoneScheduler",
        "label": "__gap",
        "offset": 0,
        "slot": "1",
        "type": "t_array(t_uint256)50_storage"
      },
      {
        "astId": 10,
        "contract": "contracts/distribution/StoneScheduler.sol:StoneScheduler",
        "label": "_owner",
        "offset": 0,
        "slot": "51",
        "type": "t_address"
      },
      {
        "astId": 122,
        "contract": "contracts/distribution/StoneScheduler.sol:StoneScheduler",
        "label": "__gap",
        "offset": 0,
        "slot": "52",
        "type": "t_array(t_uint256)49_storage"
      },
      {
        "astId": 11679,
        "contract": "contracts/distribution/StoneScheduler.sol:StoneScheduler",
        "label": "airdropDistributor",
        "offset": 0,
        "slot": "101",
        "type": "t_contract(IAirdropDistributorV2)12226"
      },
      {
        "astId": 11682,
        "contract": "contracts/distribution/StoneScheduler.sol:StoneScheduler",
        "label": "stone",
        "offset": 0,
        "slot": "102",
        "type": "t_contract(IERC20)2907"
      },
      {
        "astId": 11685,
        "contract": "contracts/distribution/StoneScheduler.sol:StoneScheduler",
        "label": "targetPools",
        "offset": 0,
        "slot": "103",
        "type": "t_array(t_address)dyn_storage"
      },
      {
        "astId": 11689,
        "contract": "contracts/distribution/StoneScheduler.sol:StoneScheduler",
        "label": "isTargetPool",
        "offset": 0,
        "slot": "104",
        "type": "t_mapping(t_address,t_bool)"
      },
      {
        "astId": 11695,
        "contract": "contracts/distribution/StoneScheduler.sol:StoneScheduler",
        "label": "scheduledAmounts",
        "offset": 0,
        "slot": "105",
        "type": "t_mapping(t_uint256,t_mapping(t_address,t_uint128))"
      }
    ],
    "types": {
      "t_address": {
        "encoding": "inplace",
        "label": "address",
        "numberOfBytes": "20"
      },
      "t_array(t_address)dyn_storage": {
        "base": "t_address",
        "encoding": "dynamic_array",
        "label": "address[]",
        "numberOfBytes": "32"
      },
      "t_array(t_uint256)49_storage": {
        "base": "t_uint256",
        "encoding": "inplace",
        "label": "uint256[49]",
        "numberOfBytes": "1568"
      },
      "t_array(t_uint256)50_storage": {
        "base": "t_uint256",
        "encoding": "inplace",
        "label": "uint256[50]",
        "numberOfBytes": "1600"
      },
      "t_bool": {
        "encoding": "inplace",
        "label": "bool",
        "numberOfBytes": "1"
      },
      "t_contract(IAirdropDistributorV2)12226": {
        "encoding": "inplace",
        "label": "contract IAirdropDistributorV2",
        "numberOfBytes": "20"
      },
      "t_contract(IERC20)2907": {
        "encoding": "inplace",
        "label": "contract IERC20",
        "numberOfBytes": "20"
      },
      "t_mapping(t_address,t_bool)": {
        "encoding": "mapping",
        "key": "t_address",
        "label": "mapping(address => bool)",
        "numberOfBytes": "32",
        "value": "t_bool"
      },
      "t_mapping(t_address,t_uint128)": {
        "encoding": "mapping",
        "key": "t_address",
        "label": "mapping(address => uint128)",
        "numberOfBytes": "32",
        "value": "t_uint128"
      },
      "t_mapping(t_uint256,t_mapping(t_address,t_uint128))": {
        "encoding": "mapping",
        "key": "t_uint256",
        "label": "mapping(uint256 => mapping(address => uint128))",
        "numberOfBytes": "32",
        "value": "t_mapping(t_address,t_uint128)"
      },
      "t_uint128": {
        "encoding": "inplace",
        "label": "uint128",
        "numberOfBytes": "16"
      },
      "t_uint256": {
        "encoding": "inplace",
        "label": "uint256",
        "numberOfBytes": "32"
      }
    }
  }
}