{
  "address": "0xFF3e7cf0C007f919807b32b30a4a9E7Bd7Bc4121",
  "abi": [
    {
      "inputs": [],
      "stateMutability": "nonpayable",
      "type": "constructor"
    },
    {
      "anonymous": false,
      "inputs": [
        {
          "indexed": true,
          "internalType": "address",
          "name": "owner",
          "type": "address"
        },
        {
          "indexed": true,
          "internalType": "address",
          "name": "spender",
          "type": "address"
        },
        {
          "indexed": false,
          "internalType": "uint256",
          "name": "value",
          "type": "uint256"
        }
      ],
      "name": "Approval",
      "type": "event"
    },
    {
      "anonymous": false,
      "inputs": [
        {
          "indexed": true,
          "internalType": "address",
          "name": "from",
          "type": "address"
        },
        {
          "indexed": true,
          "internalType": "address",
          "name": "to",
          "type": "address"
        },
        {
          "indexed": false,
          "internalType": "uint256",
          "name": "value",
          "type": "uint256"
        }
      ],
      "name": "Transfer",
      "type": "event"
    },
    {
      "inputs": [],
      "name": "DOMAIN_SEPARATOR",
      "outputs": [
        {
          "internalType": "bytes32",
          "name": "",
          "type": "bytes32"
        }
      ],
      "stateMutability": "view",
      "type": "function"
    },
    {
      "inputs": [],
      "name": "PERMIT_TYPEHASH",
      "outputs": [
        {
          "internalType": "bytes32",
          "name": "",
          "type": "bytes32"
        }
      ],
      "stateMutability": "view",
      "type": "function"
    },
    {
      "inputs": [
        {
          "internalType": "address",
          "name": "",
          "type": "address"
        },
        {
          "internalType": "address",
          "name": "",
          "type": "address"
        }
      ],
      "name": "allowance",
      "outputs": [
        {
          "internalType": "uint256",
          "name": "",
          "type": "uint256"
        }
      ],
      "stateMutability": "view",
      "type": "function"
    },
    {
      "inputs": [
        {
          "internalType": "address",
          "name": "spender",
          "type": "address"
        },
        {
          "internalType": "uint256",
          "name": "value",
          "type": "uint256"
        }
      ],
      "name": "approve",
      "outputs": [
        {
          "internalType": "bool",
          "name": "",
          "type": "bool"
        }
      ],
      "stateMutability": "nonpayable",
      "type": "function"
    },
    {
      "inputs": [
        {
          "internalType": "address",
          "name": "spender",
          "type": "address"
        },
        {
          "internalType": "uint256",
          "name": "value",
          "type": "uint256"
        },
        {
          "internalType": "bytes",
          "name": "data",
          "type": "bytes"
        }
      ],
      "name": "approveAndCall",
      "outputs": [
        {
          "internalType": "bool",
          "name": "",
          "type": "bool"
        }
      ],
      "stateMutability": "nonpayable",
      "type": "function"
    },
    {
      "inputs": [
        {
          "internalType": "address",
          "name": "",
          "type": "address"
        }
      ],
      "name": "balanceOf",
      "outputs": [
        {
          "internalType": "uint256",
          "name": "",
          "type": "uint256"
        }
      ],
      "stateMutability": "view",
      "type": "function"
    },
    {
      "inputs": [],
      "name": "decimals",
      "outputs": [
        {
          "internalType": "uint8",
          "name": "",
          "type": "uint8"
        }
      ],
      "stateMutability": "view",
      "type": "function"
    },
    {
      "inputs": [],
      "name": "deploymentChainId",
      "outputs": [
        {
          "internalType": "uint256",
          "name": "",
          "type": "uint256"
        }
      ],
      "stateMutability": "view",
      "type": "function"
    },
    {
      "inputs": [],
      "name": "deposit",
      "outputs": [],
      "stateMutability": "payable",
      "type": "function"
    },
    {
      "inputs": [
        {
          "internalType": "address",
          "name": "to",
          "type": "address"
        }
      ],
      "name": "depositTo",
      "outputs": [],
      "stateMutability": "payable",
      "type": "function"
    },
    {
      "inputs": [
        {
          "internalType": "address",
          "name": "to",
          "type": "address"
        },
        {
          "internalType": "bytes",
          "name": "data",
          "type": "bytes"
        }
      ],
      "name": "depositToAndCall",
      "outputs": [
        {
          "internalType": "bool",
          "name": "success",
          "type": "bool"
        }
      ],
      "stateMutability": "payable",
      "type": "function"
    },
    {
      "inputs": [],
      "name": "name",
      "outputs": [
        {
          "internalType": "string",
          "name": "",
          "type": "string"
        }
      ],
      "stateMutability": "view",
      "type": "function"
    },
    {
      "inputs": [
        {
          "internalType": "address",
          "name": "",
          "type": "address"
        }
      ],
      "name": "nonces",
      "outputs": [
        {
          "internalType": "uint256",
          "name": "",
          "type": "uint256"
        }
      ],
      "stateMutability": "view",
      "type": "function"
    },
    {
      "inputs": [
        {
          "internalType": "address",
          "name": "owner",
          "type": "address"
        },
        {
          "internalType": "address",
          "name": "spender",
          "type": "address"
        },
        {
          "internalType": "uint256",
          "name": "value",
          "type": "uint256"
        },
        {
          "internalType": "uint256",
          "name": "deadline",
          "type": "uint256"
        },
        {
          "internalType": "uint8",
          "name": "v",
          "type": "uint8"
        },
        {
          "internalType": "bytes32",
          "name": "r",
          "type": "bytes32"
        },
        {
          "internalType": "bytes32",
          "name": "s",
          "type": "bytes32"
        }
      ],
      "name": "permit",
      "outputs": [],
      "stateMutability": "nonpayable",
      "type": "function"
    },
    {
      "inputs": [],
      "name": "symbol",
      "outputs": [
        {
          "internalType": "string",
          "name": "",
          "type": "string"
        }
      ],
      "stateMutability": "view",
      "type": "function"
    },
    {
      "inputs": [],
      "name": "totalSupply",
      "outputs": [
        {
          "internalType": "uint256",
          "name": "",
          "type": "uint256"
        }
      ],
      "stateMutability": "view",
      "type": "function"
    },
    {
      "inputs": [
        {
          "internalType": "address",
          "name": "to",
          "type": "address"
        },
        {
          "internalType": "uint256",
          "name": "value",
          "type": "uint256"
        }
      ],
      "name": "transfer",
      "outputs": [
        {
          "internalType": "bool",
          "name": "",
          "type": "bool"
        }
      ],
      "stateMutability": "nonpayable",
      "type": "function"
    },
    {
      "inputs": [
        {
          "internalType": "address",
          "name": "to",
          "type": "address"
        },
        {
          "internalType": "uint256",
          "name": "value",
          "type": "uint256"
        },
        {
          "internalType": "bytes",
          "name": "data",
          "type": "bytes"
        }
      ],
      "name": "transferAndCall",
      "outputs": [
        {
          "internalType": "bool",
          "name": "",
          "type": "bool"
        }
      ],
      "stateMutability": "nonpayable",
      "type": "function"
    },
    {
      "inputs": [
        {
          "internalType": "address",
          "name": "from",
          "type": "address"
        },
        {
          "internalType": "address",
          "name": "to",
          "type": "address"
        },
        {
          "internalType": "uint256",
          "name": "value",
          "type": "uint256"
        }
      ],
      "name": "transferFrom",
      "outputs": [
        {
          "internalType": "bool",
          "name": "",
          "type": "bool"
        }
      ],
      "stateMutability": "nonpayable",
      "type": "function"
    },
    {
      "inputs": [
        {
          "internalType": "uint256",
          "name": "value",
          "type": "uint256"
        }
      ],
      "name": "withdraw",
      "outputs": [],
      "stateMutability": "nonpayable",
      "type": "function"
    },
    {
      "inputs": [
        {
          "internalType": "address",
          "name": "from",
          "type": "address"
        },
        {
          "internalType": "address payable",
          "name": "to",
          "type": "address"
        },
        {
          "internalType": "uint256",
          "name": "value",
          "type": "uint256"
        }
      ],
      "name": "withdrawFrom",
      "outputs": [],
      "stateMutability": "nonpayable",
      "type": "function"
    },
    {
      "inputs": [
        {
          "internalType": "address payable",
          "name": "to",
          "type": "address"
        },
        {
          "internalType": "uint256",
          "name": "value",
          "type": "uint256"
        }
      ],
      "name": "withdrawTo",
      "outputs": [],
      "stateMutability": "nonpayable",
      "type": "function"
    },
    {
      "stateMutability": "payable",
      "type": "receive"
    }
  ],
  "transactionHash": "0xb208607a36097d496dcd543afca995fee30d730251015351a824158712e44c37",
  "args": [],
  "numDeployments": 1,
  "solcInputHash": "7b141dad0ae9dd0a2ec46a2e595f9ebb",
  "bytecode": "0x60e06040527f6e71edae12b1b97f4d1f60370fef10105fa2faae0126114a169c64845d6126c960805234801561003457600080fd5b504660a0818152604080518082018252601081526f057726170706564204b4c4159207631360841b6020918201528151808301835260018152603160f81b9082015281517f8b73c3c69bb8fe3d512ecc4cf759cc79239f7b179b0ffacaa9a75d522b39400f818301527f6ba9313af671398349b7f8716558a1ca76220a96b6163172d2cd209ab689868b818401527fc89efdaa54c0f20c7adf612882df0950f5a951637e0307cdcb4c672f298b8bc660608201526080810185905230818501528251808203909401845260c001909152815191012060c0525060805160a05160c05161251261015860003960008181610f190152611e8b0152600081816104ba01528181610def0152611d610152600081816103010152611ccc01526125126000f3fe6080604052600436106101795760003560e01c806370a08231116100cb578063b760faf91161007f578063d0e30db011610059578063d0e30db0146104dc578063d505accf146104e4578063dd62ed3e1461050457600080fd5b8063b760faf914610475578063cae9ca5114610488578063cd0d0096146104a857600080fd5b80639555a942116100b05780639555a942146103ec57806395d89b411461040c578063a9059cbb1461045557600080fd5b806370a08231146103925780637ecebe00146103bf57600080fd5b80632e1a7d4d1161012d5780633644e515116101075780633644e5151461034a5780634000aea01461035f5780635ddb7d7e1461037f57600080fd5b80632e1a7d4d146102cf57806330adf81f146102ef578063313ce5671461032357600080fd5b806318160ddd1161015e57806318160ddd14610270578063205c28781461028d57806323b872dd146102af57600080fd5b806306fdde03146101e1578063095ea7b31461024057600080fd5b366101dc57336000908152602081905260408120805434929061019d9084906120f5565b909155505060405134815233906000907fddf252ad1be2c89b69c2b068fc378daa952ba7f163c4a11628f55a4df523b3ef9060200160405180910390a3005b600080fd5b3480156101ed57600080fd5b5061022a6040518060400160405280601081526020017f57726170706564204b4c4159207631300000000000000000000000000000000081525081565b604051610237919061210d565b60405180910390f35b34801561024c57600080fd5b5061026061025b3660046121a5565b61053c565b6040519015158152602001610237565b34801561027c57600080fd5b50475b604051908152602001610237565b34801561029957600080fd5b506102ad6102a83660046121a5565b6105b5565b005b3480156102bb57600080fd5b506102606102ca3660046121d1565b61077a565b3480156102db57600080fd5b506102ad6102ea366004612212565b610c43565b3480156102fb57600080fd5b5061027f7f000000000000000000000000000000000000000000000000000000000000000081565b34801561032f57600080fd5b50610338601281565b60405160ff9091168152602001610237565b34801561035657600080fd5b5061027f610dea565b34801561036b57600080fd5b5061026061037a366004612274565b610f3f565b61026061038d3660046122d0565b6112f7565b34801561039e57600080fd5b5061027f6103ad366004612325565b60006020819052908152604090205481565b3480156103cb57600080fd5b5061027f6103da366004612325565b60016020526000908152604090205481565b3480156103f857600080fd5b506102ad6104073660046121d1565b611433565b34801561041857600080fd5b5061022a6040518060400160405280600581526020017f574b4c415900000000000000000000000000000000000000000000000000000081525081565b34801561046157600080fd5b506102606104703660046121a5565b611779565b6102ad610483366004612325565b611a87565b34801561049457600080fd5b506102606104a3366004612274565b611b12565b3480156104b457600080fd5b5061027f7f000000000000000000000000000000000000000000000000000000000000000081565b6102ad611bd8565b3480156104f057600080fd5b506102ad6104ff366004612349565b611c36565b34801561051057600080fd5b5061027f61051f3660046123c0565b600260209081526000928352604080842090915290825290205481565b33600081815260026020908152604080832073ffffffffffffffffffffffffffffffffffffffff8716808552925280832085905551919290917f8c5be1e5ebec7d5bd14f71427d1e84f3dd0314c0f7b2291e5b200ac8c7c3b925906105a49086815260200190565b60405180910390a350600192915050565b336000908152602081905260409020548181101561065a576040517f08c379a000000000000000000000000000000000000000000000000000000000815260206004820152602160248201527f574554483a206275726e20616d6f756e7420657863656564732062616c616e6360448201527f650000000000000000000000000000000000000000000000000000000000000060648201526084015b60405180910390fd5b61066482826123f9565b3360008181526020818152604080832094909455925185815290927fddf252ad1be2c89b69c2b068fc378daa952ba7f163c4a11628f55a4df523b3ef910160405180910390a360008373ffffffffffffffffffffffffffffffffffffffff168360405160006040518083038185875af1925050503d8060008114610704576040519150601f19603f3d011682016040523d82523d6000602084013e610709565b606091505b5050905080610774576040517f08c379a000000000000000000000000000000000000000000000000000000000815260206004820152601960248201527f574554483a20455448207472616e73666572206661696c6564000000000000006044820152606401610651565b50505050565b600073ffffffffffffffffffffffffffffffffffffffff841633146108d55773ffffffffffffffffffffffffffffffffffffffff841660009081526002602090815260408083203384529091529020547fffffffffffffffffffffffffffffffffffffffffffffffffffffffffffffffff81146108d3578281101561085b576040517f08c379a000000000000000000000000000000000000000000000000000000000815260206004820152601f60248201527f574554483a2072657175657374206578636565647320616c6c6f77616e6365006044820152606401610651565b600061086784836123f9565b73ffffffffffffffffffffffffffffffffffffffff8716600081815260026020908152604080832033808552908352928190208590555184815293945090927f8c5be1e5ebec7d5bd14f71427d1e84f3dd0314c0f7b2291e5b200ac8c7c3b925910160405180910390a3505b505b73ffffffffffffffffffffffffffffffffffffffff831615610a685773ffffffffffffffffffffffffffffffffffffffff8416600090815260208190526040902054828110156109a7576040517f08c379a000000000000000000000000000000000000000000000000000000000815260206004820152602560248201527f574554483a207472616e7366657220616d6f756e74206578636565647320626160448201527f6c616e63650000000000000000000000000000000000000000000000000000006064820152608401610651565b6109b183826123f9565b73ffffffffffffffffffffffffffffffffffffffff80871660009081526020819052604080822093909355908616815290812080548592906109f49084906120f5565b925050819055508373ffffffffffffffffffffffffffffffffffffffff168573ffffffffffffffffffffffffffffffffffffffff167fddf252ad1be2c89b69c2b068fc378daa952ba7f163c4a11628f55a4df523b3ef85604051610a5a91815260200190565b60405180910390a350610c39565b73ffffffffffffffffffffffffffffffffffffffff841660009081526020819052604090205482811015610b1e576040517f08c379a000000000000000000000000000000000000000000000000000000000815260206004820152602160248201527f574554483a206275726e20616d6f756e7420657863656564732062616c616e6360448201527f65000000000000000000000000000000000000000000000000000000000000006064820152608401610651565b610b2883826123f9565b73ffffffffffffffffffffffffffffffffffffffff861660008181526020818152604080832094909455925186815290927fddf252ad1be2c89b69c2b068fc378daa952ba7f163c4a11628f55a4df523b3ef910160405180910390a3604051600090339085908381818185875af1925050503d8060008114610bc6576040519150601f19603f3d011682016040523d82523d6000602084013e610bcb565b606091505b5050905080610c36576040517f08c379a000000000000000000000000000000000000000000000000000000000815260206004820152601960248201527f574554483a20455448207472616e73666572206661696c6564000000000000006044820152606401610651565b50505b5060019392505050565b3360009081526020819052604090205481811015610ce3576040517f08c379a000000000000000000000000000000000000000000000000000000000815260206004820152602160248201527f574554483a206275726e20616d6f756e7420657863656564732062616c616e6360448201527f65000000000000000000000000000000000000000000000000000000000000006064820152608401610651565b610ced82826123f9565b3360008181526020818152604080832094909455925185815290927fddf252ad1be2c89b69c2b068fc378daa952ba7f163c4a11628f55a4df523b3ef910160405180910390a3604051600090339084908381818185875af1925050503d8060008114610d75576040519150601f19603f3d011682016040523d82523d6000602084013e610d7a565b606091505b5050905080610de5576040517f08c379a000000000000000000000000000000000000000000000000000000000815260206004820152601960248201527f574554483a20455448207472616e73666572206661696c6564000000000000006044820152606401610651565b505050565b6000467f00000000000000000000000000000000000000000000000000000000000000008114610f1757604080518082018252601081527f57726170706564204b4c4159207631300000000000000000000000000000000060209182015281518083018352600181527f31000000000000000000000000000000000000000000000000000000000000009082015281517f8b73c3c69bb8fe3d512ecc4cf759cc79239f7b179b0ffacaa9a75d522b39400f818301527f6ba9313af671398349b7f8716558a1ca76220a96b6163172d2cd209ab689868b818401527fc89efdaa54c0f20c7adf612882df0950f5a951637e0307cdcb4c672f298b8bc66060820152608081018490523060a0808301919091528351808303909101815260c09091019092528151910120610f39565b7f00000000000000000000000000000000000000000000000000000000000000005b91505090565b600073ffffffffffffffffffffffffffffffffffffffff85161561109f573360009081526020819052604090205484811015610ffd576040517f08c379a000000000000000000000000000000000000000000000000000000000815260206004820152602560248201527f574554483a207472616e7366657220616d6f756e74206578636565647320626160448201527f6c616e63650000000000000000000000000000000000000000000000000000006064820152608401610651565b61100785826123f9565b336000908152602081905260408082209290925573ffffffffffffffffffffffffffffffffffffffff8816815290812080548792906110479084906120f5565b909155505060405185815273ffffffffffffffffffffffffffffffffffffffff87169033907fddf252ad1be2c89b69c2b068fc378daa952ba7f163c4a11628f55a4df523b3ef9060200160405180910390a350611244565b336000908152602081905260409020548481101561113f576040517f08c379a000000000000000000000000000000000000000000000000000000000815260206004820152602160248201527f574554483a206275726e20616d6f756e7420657863656564732062616c616e6360448201527f65000000000000000000000000000000000000000000000000000000000000006064820152608401610651565b61114985826123f9565b3360008181526020818152604080832094909455925188815290927fddf252ad1be2c89b69c2b068fc378daa952ba7f163c4a11628f55a4df523b3ef910160405180910390a3604051600090339087908381818185875af1925050503d80600081146111d1576040519150601f19603f3d011682016040523d82523d6000602084013e6111d6565b606091505b5050905080611241576040517f08c379a000000000000000000000000000000000000000000000000000000000815260206004820152601960248201527f574554483a20455448207472616e73666572206661696c6564000000000000006044820152606401610651565b50505b6040517fa4c0ed3600000000000000000000000000000000000000000000000000000000815273ffffffffffffffffffffffffffffffffffffffff86169063a4c0ed369061129c903390889088908890600401612410565b602060405180830381600087803b1580156112b657600080fd5b505af11580156112ca573d6000803e3d6000fd5b505050506040513d601f19601f820116820180604052508101906112ee9190612481565b95945050505050565b73ffffffffffffffffffffffffffffffffffffffff831660009081526020819052604081208054349190839061132e9084906120f5565b909155505060405134815273ffffffffffffffffffffffffffffffffffffffff8516906000907fddf252ad1be2c89b69c2b068fc378daa952ba7f163c4a11628f55a4df523b3ef9060200160405180910390a36040517fa4c0ed3600000000000000000000000000000000000000000000000000000000815273ffffffffffffffffffffffffffffffffffffffff85169063a4c0ed36906113d9903390349088908890600401612410565b602060405180830381600087803b1580156113f357600080fd5b505af1158015611407573d6000803e3d6000fd5b505050506040513d601f19601f8201168201806040525081019061142b9190612481565b949350505050565b73ffffffffffffffffffffffffffffffffffffffff8316331461158c5773ffffffffffffffffffffffffffffffffffffffff831660009081526002602090815260408083203384529091529020547fffffffffffffffffffffffffffffffffffffffffffffffffffffffffffffffff811461158a5781811015611512576040517f08c379a000000000000000000000000000000000000000000000000000000000815260206004820152601f60248201527f574554483a2072657175657374206578636565647320616c6c6f77616e6365006044820152606401610651565b600061151e83836123f9565b73ffffffffffffffffffffffffffffffffffffffff8616600081815260026020908152604080832033808552908352928190208590555184815293945090927f8c5be1e5ebec7d5bd14f71427d1e84f3dd0314c0f7b2291e5b200ac8c7c3b925910160405180910390a3505b505b73ffffffffffffffffffffffffffffffffffffffff831660009081526020819052604090205481811015611642576040517f08c379a000000000000000000000000000000000000000000000000000000000815260206004820152602160248201527f574554483a206275726e20616d6f756e7420657863656564732062616c616e6360448201527f65000000000000000000000000000000000000000000000000000000000000006064820152608401610651565b61164c82826123f9565b73ffffffffffffffffffffffffffffffffffffffff851660008181526020818152604080832094909455925185815290927fddf252ad1be2c89b69c2b068fc378daa952ba7f163c4a11628f55a4df523b3ef910160405180910390a360008373ffffffffffffffffffffffffffffffffffffffff168360405160006040518083038185875af1925050503d8060008114611702576040519150601f19603f3d011682016040523d82523d6000602084013e611707565b606091505b5050905080611772576040517f08c379a000000000000000000000000000000000000000000000000000000000815260206004820152601b60248201527f574554483a204574686572207472616e73666572206661696c656400000000006044820152606401610651565b5050505050565b600073ffffffffffffffffffffffffffffffffffffffff8316156118d9573360009081526020819052604090205482811015611837576040517f08c379a000000000000000000000000000000000000000000000000000000000815260206004820152602560248201527f574554483a207472616e7366657220616d6f756e74206578636565647320626160448201527f6c616e63650000000000000000000000000000000000000000000000000000006064820152608401610651565b61184183826123f9565b336000908152602081905260408082209290925573ffffffffffffffffffffffffffffffffffffffff8616815290812080548592906118819084906120f5565b909155505060405183815273ffffffffffffffffffffffffffffffffffffffff85169033907fddf252ad1be2c89b69c2b068fc378daa952ba7f163c4a11628f55a4df523b3ef9060200160405180910390a350611a7e565b3360009081526020819052604090205482811015611979576040517f08c379a000000000000000000000000000000000000000000000000000000000815260206004820152602160248201527f574554483a206275726e20616d6f756e7420657863656564732062616c616e6360448201527f65000000000000000000000000000000000000000000000000000000000000006064820152608401610651565b61198383826123f9565b3360008181526020818152604080832094909455925186815290927fddf252ad1be2c89b69c2b068fc378daa952ba7f163c4a11628f55a4df523b3ef910160405180910390a3604051600090339085908381818185875af1925050503d8060008114611a0b576040519150601f19603f3d011682016040523d82523d6000602084013e611a10565b606091505b5050905080611a7b576040517f08c379a000000000000000000000000000000000000000000000000000000000815260206004820152601960248201527f574554483a20455448207472616e73666572206661696c6564000000000000006044820152606401610651565b50505b50600192915050565b73ffffffffffffffffffffffffffffffffffffffff811660009081526020819052604081208054349290611abc9084906120f5565b909155505060405134815273ffffffffffffffffffffffffffffffffffffffff8216906000907fddf252ad1be2c89b69c2b068fc378daa952ba7f163c4a11628f55a4df523b3ef9060200160405180910390a350565b33600081815260026020908152604080832073ffffffffffffffffffffffffffffffffffffffff8916808552925280832087905551919290917f8c5be1e5ebec7d5bd14f71427d1e84f3dd0314c0f7b2291e5b200ac8c7c3b92590611b7a9088815260200190565b60405180910390a36040517eba451f00000000000000000000000000000000000000000000000000000000815273ffffffffffffffffffffffffffffffffffffffff86169062ba451f9061129c903390889088908890600401612410565b3360009081526020819052604081208054349290611bf79084906120f5565b909155505060405134815233906000907fddf252ad1be2c89b69c2b068fc378daa952ba7f163c4a11628f55a4df523b3ef9060200160405180910390a3565b83421115611ca0576040517f08c379a000000000000000000000000000000000000000000000000000000000815260206004820152601460248201527f574554483a2045787069726564207065726d69740000000000000000000000006044820152606401610651565b73ffffffffffffffffffffffffffffffffffffffff8716600090815260016020526040812080544692917f0000000000000000000000000000000000000000000000000000000000000000918b918b918b9186611cfc836124a3565b9091555060408051602081019690965273ffffffffffffffffffffffffffffffffffffffff94851690860152929091166060840152608083015260a082015260c0810187905260e00160405160208183030381529060405280519060200120905060007f00000000000000000000000000000000000000000000000000000000000000008314611e8957604080518082018252601081527f57726170706564204b4c4159207631300000000000000000000000000000000060209182015281518083018352600181527f31000000000000000000000000000000000000000000000000000000000000009082015281517f8b73c3c69bb8fe3d512ecc4cf759cc79239f7b179b0ffacaa9a75d522b39400f818301527f6ba9313af671398349b7f8716558a1ca76220a96b6163172d2cd209ab689868b818401527fc89efdaa54c0f20c7adf612882df0950f5a951637e0307cdcb4c672f298b8bc66060820152608081018690523060a0808301919091528351808303909101815260c09091019092528151910120611eab565b7f00000000000000000000000000000000000000000000000000000000000000005b6040517f19010000000000000000000000000000000000000000000000000000000000006020820152602281019190915260428101839052606201604080517fffffffffffffffffffffffffffffffffffffffffffffffffffffffffffffffe08184030181528282528051602091820120600080855291840180845281905260ff8a169284019290925260608301889052608083018790529092509060019060a0016020604051602081039080840390855afa158015611f6f573d6000803e3d6000fd5b50506040517fffffffffffffffffffffffffffffffffffffffffffffffffffffffffffffffe0015191505073ffffffffffffffffffffffffffffffffffffffff811615801590611fea57508a73ffffffffffffffffffffffffffffffffffffffff168173ffffffffffffffffffffffffffffffffffffffff16145b612050576040517f08c379a000000000000000000000000000000000000000000000000000000000815260206004820152601460248201527f574554483a20696e76616c6964207065726d69740000000000000000000000006044820152606401610651565b73ffffffffffffffffffffffffffffffffffffffff8b81166000818152600260209081526040808320948f16808452948252918290208d905590518c81527f8c5be1e5ebec7d5bd14f71427d1e84f3dd0314c0f7b2291e5b200ac8c7c3b925910160405180910390a35050505050505050505050565b7f4e487b7100000000000000000000000000000000000000000000000000000000600052601160045260246000fd5b60008219821115612108576121086120c6565b500190565b600060208083528351808285015260005b8181101561213a5785810183015185820160400152820161211e565b8181111561214c576000604083870101525b50601f017fffffffffffffffffffffffffffffffffffffffffffffffffffffffffffffffe016929092016040019392505050565b73ffffffffffffffffffffffffffffffffffffffff811681146121a257600080fd5b50565b600080604083850312156121b857600080fd5b82356121c381612180565b946020939093013593505050565b6000806000606084860312156121e657600080fd5b83356121f181612180565b9250602084013561220181612180565b929592945050506040919091013590565b60006020828403121561222457600080fd5b5035919050565b60008083601f84011261223d57600080fd5b50813567ffffffffffffffff81111561225557600080fd5b60208301915083602082850101111561226d57600080fd5b9250929050565b6000806000806060858703121561228a57600080fd5b843561229581612180565b935060208501359250604085013567ffffffffffffffff8111156122b857600080fd5b6122c48782880161222b565b95989497509550505050565b6000806000604084860312156122e557600080fd5b83356122f081612180565b9250602084013567ffffffffffffffff81111561230c57600080fd5b6123188682870161222b565b9497909650939450505050565b60006020828403121561233757600080fd5b813561234281612180565b9392505050565b600080600080600080600060e0888a03121561236457600080fd5b873561236f81612180565b9650602088013561237f81612180565b95506040880135945060608801359350608088013560ff811681146123a357600080fd5b9699959850939692959460a0840135945060c09093013592915050565b600080604083850312156123d357600080fd5b82356123de81612180565b915060208301356123ee81612180565b809150509250929050565b60008282101561240b5761240b6120c6565b500390565b73ffffffffffffffffffffffffffffffffffffffff8516815283602082015260606040820152816060820152818360808301376000818301608090810191909152601f9092017fffffffffffffffffffffffffffffffffffffffffffffffffffffffffffffffe01601019392505050565b60006020828403121561249357600080fd5b8151801515811461234257600080fd5b60007fffffffffffffffffffffffffffffffffffffffffffffffffffffffffffffffff8214156124d5576124d56120c6565b506001019056fea2646970667358221220bbcd1be036089767bac673802aa96a8ce732d4a4461e4afd90d51ac8caacb50664736f6c63430008090033",
  "devdoc": {
    "details": "Wrapped Ether v10 (WETH10) is an Ether (ETH) ERC-20 wrapper. You can `deposit` ETH and obtain a WETH10 balance which can then be operated as an ERC-20 token. You can `withdraw` ETH from WETH10, which will then burn WETH10 token in your wallet. The amount of WETH10 token in any wallet is always identical to the balance of ETH deposited minus the ETH withdrawn with that specific wallet.",
    "kind": "dev",
    "methods": {
      "DOMAIN_SEPARATOR()": {
        "details": "Return the DOMAIN_SEPARATOR."
      },
      "approve(address,uint256)": {
        "details": "Sets `value` as allowance of `spender` account over caller account's WETH10 token. Emits {Approval} event. Returns boolean value indicating whether operation succeeded."
      },
      "approveAndCall(address,uint256,bytes)": {
        "details": "Sets `value` as allowance of `spender` account over caller account's WETH10 token, after which a call is executed to an ERC677-compliant contract with the `data` parameter. Emits {Approval} event. Returns boolean value indicating whether operation succeeded. For more information on {approveAndCall} format, see https://github.com/ethereum/EIPs/issues/677."
      },
      "deposit()": {
        "details": "`msg.value` of ETH sent to this contract grants caller account a matching increase in WETH10 token balance. Emits {Transfer} event to reflect WETH10 token mint of `msg.value` from `address(0)` to caller account."
      },
      "depositTo(address)": {
        "details": "`msg.value` of ETH sent to this contract grants `to` account a matching increase in WETH10 token balance. Emits {Transfer} event to reflect WETH10 token mint of `msg.value` from `address(0)` to `to` account."
      },
      "depositToAndCall(address,bytes)": {
        "details": "`msg.value` of ETH sent to this contract grants `to` account a matching increase in WETH10 token balance, after which a call is executed to an ERC677-compliant contract with the `data` parameter. Emits {Transfer} event. Returns boolean value indicating whether operation succeeded. For more information on {transferAndCall} format, see https://github.com/ethereum/EIPs/issues/677."
      },
      "permit(address,address,uint256,uint256,uint8,bytes32,bytes32)": {
        "details": "Sets `value` as allowance of `spender` account over `owner` account's WETH10 token, given `owner` account's signed approval. Emits {Approval} event. Requirements:   - `deadline` must be timestamp in future.   - `v`, `r` and `s` must be valid `secp256k1` signature from `owner` account over EIP712-formatted function arguments.   - the signature must use `owner` account's current nonce (see {nonces}).   - the signer cannot be `address(0)` and must be `owner` account. For more information on signature format, see https://eips.ethereum.org/EIPS/eip-2612#specification[relevant EIP section]. WETH10 token implementation adapted from https://github.com/albertocuestacanada/ERC20Permit/blob/master/contracts/ERC20Permit.sol."
      },
      "totalSupply()": {
        "details": "Returns the total supply of WETH10 token as the ETH held in this contract."
      },
      "transfer(address,uint256)": {
        "details": "Moves `value` WETH10 token from caller's account to account (`to`). A transfer to `address(0)` triggers an ETH withdraw matching the sent WETH10 token in favor of caller. Emits {Transfer} event. Returns boolean value indicating whether operation succeeded. Requirements:   - caller account must have at least `value` WETH10 token."
      },
      "transferAndCall(address,uint256,bytes)": {
        "details": "Moves `value` WETH10 token from caller's account to account (`to`), after which a call is executed to an ERC677-compliant contract with the `data` parameter. A transfer to `address(0)` triggers an ETH withdraw matching the sent WETH10 token in favor of caller. Emits {Transfer} event. Returns boolean value indicating whether operation succeeded. Requirements:   - caller account must have at least `value` WETH10 token. For more information on {transferAndCall} format, see https://github.com/ethereum/EIPs/issues/677."
      },
      "transferFrom(address,address,uint256)": {
        "details": "Moves `value` WETH10 token from account (`from`) to account (`to`) using allowance mechanism. `value` is then deducted from caller account's allowance, unless set to `type(uint256).max`. A transfer to `address(0)` triggers an ETH withdraw matching the sent WETH10 token in favor of caller. Emits {Approval} event to reflect reduced allowance `value` for caller account to spend from account (`from`), unless allowance is set to `type(uint256).max` Emits {Transfer} event. Returns boolean value indicating whether operation succeeded. Requirements:   - `from` account must have at least `value` balance of WETH10 token.   - `from` account must have approved caller to spend at least `value` of WETH10 token, unless `from` and caller are the same account."
      },
      "withdraw(uint256)": {
        "details": "Burn `value` WETH10 token from caller account and withdraw matching ETH to the same. Emits {Transfer} event to reflect WETH10 token burn of `value` to `address(0)` from caller account. Requirements:   - caller account must have at least `value` balance of WETH10 token."
      },
      "withdrawFrom(address,address,uint256)": {
        "details": "Burn `value` WETH10 token from account (`from`) and withdraw matching ETH to account (`to`). Emits {Approval} event to reflect reduced allowance `value` for caller account to spend from account (`from`), unless allowance is set to `type(uint256).max` Emits {Transfer} event to reflect WETH10 token burn of `value` to `address(0)` from account (`from`). Requirements:   - `from` account must have at least `value` balance of WETH10 token.   - `from` account must have approved caller to spend at least `value` of WETH10 token, unless `from` and caller are the same account."
      },
      "withdrawTo(address,uint256)": {
        "details": "Burn `value` WETH10 token from caller account and withdraw matching ETH to account (`to`). Emits {Transfer} event to reflect WETH10 token burn of `value` to `address(0)` from caller account. Requirements:   - caller account must have at least `value` balance of WETH10 token."
      }
    },
    "stateVariables": {
      "allowance": {
        "details": "Records number of WETH10 token that account (second) will be allowed to spend on behalf of another account (first) through {transferFrom}."
      },
      "balanceOf": {
        "details": "Records amount of WETH10 token owned by account."
      },
      "nonces": {
        "details": "Records current ERC2612 nonce for account. This value must be included whenever signature is generated for {permit}. Every successful call to {permit} increases account's nonce by one. This prevents signature from being used multiple times."
      }
    },
    "version": 1
  },
  "userdoc": {
    "kind": "user",
    "methods": {},
    "version": 1
  },
  "storageLayout": {
    "storage": [
      {
        "astId": 11329,
        "contract": "contracts/misc/WETH/WETH10.sol:WETH10",
        "label": "balanceOf",
        "offset": 0,
        "slot": "0",
        "type": "t_mapping(t_address,t_uint256)"
      },
      {
        "astId": 11335,
        "contract": "contracts/misc/WETH/WETH10.sol:WETH10",
        "label": "nonces",
        "offset": 0,
        "slot": "1",
        "type": "t_mapping(t_address,t_uint256)"
      },
      {
        "astId": 11343,
        "contract": "contracts/misc/WETH/WETH10.sol:WETH10",
        "label": "allowance",
        "offset": 0,
        "slot": "2",
        "type": "t_mapping(t_address,t_mapping(t_address,t_uint256))"
      }
    ],
    "types": {
      "t_address": {
        "encoding": "inplace",
        "label": "address",
        "numberOfBytes": "20"
      },
      "t_mapping(t_address,t_mapping(t_address,t_uint256))": {
        "encoding": "mapping",
        "key": "t_address",
        "label": "mapping(address => mapping(address => uint256))",
        "numberOfBytes": "32",
        "value": "t_mapping(t_address,t_uint256)"
      },
      "t_mapping(t_address,t_uint256)": {
        "encoding": "mapping",
        "key": "t_address",
        "label": "mapping(address => uint256)",
        "numberOfBytes": "32",
        "value": "t_uint256"
      },
      "t_uint256": {
        "encoding": "inplace",
        "label": "uint256",
        "numberOfBytes": "32"
      }
    }
  }
}