{
  "address": "0x1d246B39FD5018b16270e4374fe5DD2A9870ACa6",
  "abi": [
    {
      "inputs": [],
      "name": "AlreadyPriceInitialized",
      "type": "error"
    },
    {
      "inputs": [],
      "name": "InvalidParam",
      "type": "error"
    },
    {
      "inputs": [],
      "name": "InvalidSwapFee",
      "type": "error"
    },
    {
      "inputs": [],
      "name": "InvalidTick",
      "type": "error"
    },
    {
      "inputs": [],
      "name": "LiquidityInsufficient",
      "type": "error"
    },
    {
      "inputs": [],
      "name": "LiquidityOverflow",
      "type": "error"
    },
    {
      "inputs": [],
      "name": "LiquidityZero",
      "type": "error"
    },
    {
      "inputs": [],
      "name": "Locked",
      "type": "error"
    },
    {
      "inputs": [],
      "name": "LowerEven",
      "type": "error"
    },
    {
      "inputs": [],
      "name": "NotAuthorized",
      "type": "error"
    },
    {
      "inputs": [],
      "name": "Overflow",
      "type": "error"
    },
    {
      "inputs": [],
      "name": "PriceOutOfBounds",
      "type": "error"
    },
    {
      "inputs": [],
      "name": "TickOutOfBounds",
      "type": "error"
    },
    {
      "inputs": [],
      "name": "Token0Missing",
      "type": "error"
    },
    {
      "inputs": [],
      "name": "Token1Missing",
      "type": "error"
    },
    {
      "inputs": [],
      "name": "UpperOdd",
      "type": "error"
    },
    {
      "inputs": [],
      "name": "ZeroAddress",
      "type": "error"
    },
    {
      "anonymous": false,
      "inputs": [
        {
          "indexed": false,
          "internalType": "address",
          "name": "token",
          "type": "address"
        },
        {
          "indexed": false,
          "internalType": "uint256",
          "name": "amount",
          "type": "uint256"
        },
        {
          "indexed": false,
          "internalType": "uint256",
          "name": "startTime",
          "type": "uint256"
        },
        {
          "indexed": false,
          "internalType": "uint256",
          "name": "period",
          "type": "uint256"
        }
      ],
      "name": "DistributeReward",
      "type": "event"
    },
    {
      "inputs": [],
      "name": "accumulativeYield",
      "outputs": [
        {
          "internalType": "uint256",
          "name": "",
          "type": "uint256"
        }
      ],
      "stateMutability": "view",
      "type": "function"
    },
    {
      "inputs": [],
      "name": "airdrop0PerSecond",
      "outputs": [
        {
          "internalType": "uint256",
          "name": "",
          "type": "uint256"
        }
      ],
      "stateMutability": "view",
      "type": "function"
    },
    {
      "inputs": [],
      "name": "airdrop1PerSecond",
      "outputs": [
        {
          "internalType": "uint256",
          "name": "",
          "type": "uint256"
        }
      ],
      "stateMutability": "view",
      "type": "function"
    },
    {
      "inputs": [],
      "name": "airdropPeriod",
      "outputs": [
        {
          "internalType": "uint256",
          "name": "",
          "type": "uint256"
        }
      ],
      "stateMutability": "view",
      "type": "function"
    },
    {
      "inputs": [],
      "name": "airdropStartTime",
      "outputs": [
        {
          "internalType": "uint256",
          "name": "",
          "type": "uint256"
        }
      ],
      "stateMutability": "view",
      "type": "function"
    },
    {
      "inputs": [
        {
          "internalType": "int24",
          "name": "lower",
          "type": "int24"
        },
        {
          "internalType": "int24",
          "name": "upper",
          "type": "int24"
        },
        {
          "internalType": "uint128",
          "name": "amount",
          "type": "uint128"
        }
      ],
      "name": "burn",
      "outputs": [
        {
          "internalType": "uint256",
          "name": "token0Amount",
          "type": "uint256"
        },
        {
          "internalType": "uint256",
          "name": "token1Amount",
          "type": "uint256"
        }
      ],
      "stateMutability": "nonpayable",
      "type": "function"
    },
    {
      "inputs": [
        {
          "internalType": "int24",
          "name": "lower",
          "type": "int24"
        },
        {
          "internalType": "int24",
          "name": "upper",
          "type": "int24"
        },
        {
          "internalType": "uint256",
          "name": "desiredToken0Fees",
          "type": "uint256"
        },
        {
          "internalType": "uint256",
          "name": "desiredToken1Fees",
          "type": "uint256"
        }
      ],
      "name": "collect",
      "outputs": [
        {
          "internalType": "uint256",
          "name": "token0Fees",
          "type": "uint256"
        },
        {
          "internalType": "uint256",
          "name": "token1Fees",
          "type": "uint256"
        }
      ],
      "stateMutability": "nonpayable",
      "type": "function"
    },
    {
      "inputs": [],
      "name": "collectProtocolFee",
      "outputs": [
        {
          "internalType": "uint128",
          "name": "amount0",
          "type": "uint128"
        },
        {
          "internalType": "uint128",
          "name": "amount1",
          "type": "uint128"
        }
      ],
      "stateMutability": "nonpayable",
      "type": "function"
    },
    {
      "inputs": [
        {
          "internalType": "int24",
          "name": "lower",
          "type": "int24"
        },
        {
          "internalType": "int24",
          "name": "upper",
          "type": "int24"
        },
        {
          "internalType": "uint256",
          "name": "desiredReward",
          "type": "uint256"
        }
      ],
      "name": "collectReward",
      "outputs": [
        {
          "internalType": "uint256",
          "name": "rewardAmount",
          "type": "uint256"
        }
      ],
      "stateMutability": "nonpayable",
      "type": "function"
    },
    {
      "inputs": [],
      "name": "createdBlockNumber",
      "outputs": [
        {
          "internalType": "uint256",
          "name": "",
          "type": "uint256"
        }
      ],
      "stateMutability": "view",
      "type": "function"
    },
    {
      "inputs": [],
      "name": "createdTime",
      "outputs": [
        {
          "internalType": "uint256",
          "name": "",
          "type": "uint256"
        }
      ],
      "stateMutability": "view",
      "type": "function"
    },
    {
      "inputs": [
        {
          "internalType": "uint128",
          "name": "airdrop0",
          "type": "uint128"
        },
        {
          "internalType": "uint128",
          "name": "airdrop1",
          "type": "uint128"
        },
        {
          "internalType": "uint128",
          "name": "reward",
          "type": "uint128"
        },
        {
          "internalType": "uint256",
          "name": "startTime",
          "type": "uint256"
        },
        {
          "internalType": "uint256",
          "name": "period",
          "type": "uint256"
        }
      ],
      "name": "depositAirdropAndReward",
      "outputs": [],
      "stateMutability": "nonpayable",
      "type": "function"
    },
    {
      "inputs": [],
      "name": "depositedReward",
      "outputs": [
        {
          "internalType": "uint128",
          "name": "",
          "type": "uint128"
        }
      ],
      "stateMutability": "view",
      "type": "function"
    },
    {
      "inputs": [],
      "name": "factory",
      "outputs": [
        {
          "internalType": "address",
          "name": "",
          "type": "address"
        }
      ],
      "stateMutability": "view",
      "type": "function"
    },
    {
      "inputs": [],
      "name": "feeGrowthGlobal0",
      "outputs": [
        {
          "internalType": "uint256",
          "name": "",
          "type": "uint256"
        }
      ],
      "stateMutability": "view",
      "type": "function"
    },
    {
      "inputs": [],
      "name": "feeGrowthGlobal1",
      "outputs": [
        {
          "internalType": "uint256",
          "name": "",
          "type": "uint256"
        }
      ],
      "stateMutability": "view",
      "type": "function"
    },
    {
      "inputs": [
        {
          "internalType": "address",
          "name": "recipient",
          "type": "address"
        },
        {
          "internalType": "uint256",
          "name": "amount0",
          "type": "uint256"
        },
        {
          "internalType": "uint256",
          "name": "amount1",
          "type": "uint256"
        },
        {
          "internalType": "bytes",
          "name": "data",
          "type": "bytes"
        }
      ],
      "name": "flash",
      "outputs": [],
      "stateMutability": "nonpayable",
      "type": "function"
    },
    {
      "inputs": [],
      "name": "getAssets",
      "outputs": [
        {
          "internalType": "address[]",
          "name": "assets",
          "type": "address[]"
        }
      ],
      "stateMutability": "view",
      "type": "function"
    },
    {
      "inputs": [],
      "name": "getImmutables",
      "outputs": [
        {
          "internalType": "uint128",
          "name": "_MAX_TICK_LIQUIDITY",
          "type": "uint128"
        },
        {
          "internalType": "uint24",
          "name": "_tickSpacing",
          "type": "uint24"
        },
        {
          "internalType": "uint24",
          "name": "_swapFee",
          "type": "uint24"
        },
        {
          "internalType": "address",
          "name": "_factory",
          "type": "address"
        },
        {
          "internalType": "address",
          "name": "_masterDeployer",
          "type": "address"
        },
        {
          "internalType": "address",
          "name": "_token0",
          "type": "address"
        },
        {
          "internalType": "address",
          "name": "_token1",
          "type": "address"
        }
      ],
      "stateMutability": "view",
      "type": "function"
    },
    {
      "inputs": [],
      "name": "getPriceAndNearestTicks",
      "outputs": [
        {
          "internalType": "uint160",
          "name": "_price",
          "type": "uint160"
        },
        {
          "internalType": "int24",
          "name": "_nearestTick",
          "type": "int24"
        }
      ],
      "stateMutability": "view",
      "type": "function"
    },
    {
      "inputs": [],
      "name": "getReserves",
      "outputs": [
        {
          "internalType": "uint128",
          "name": "_reserve0",
          "type": "uint128"
        },
        {
          "internalType": "uint128",
          "name": "_reserve1",
          "type": "uint128"
        }
      ],
      "stateMutability": "view",
      "type": "function"
    },
    {
      "inputs": [],
      "name": "getSecondsGrowthAndLastObservation",
      "outputs": [
        {
          "internalType": "uint160",
          "name": "_secondsGrowthGlobal",
          "type": "uint160"
        },
        {
          "internalType": "uint32",
          "name": "_lastObservation",
          "type": "uint32"
        }
      ],
      "stateMutability": "view",
      "type": "function"
    },
    {
      "inputs": [],
      "name": "getTokenProtocolFees",
      "outputs": [
        {
          "internalType": "uint128",
          "name": "_token0ProtocolFee",
          "type": "uint128"
        },
        {
          "internalType": "uint128",
          "name": "_token1ProtocolFee",
          "type": "uint128"
        }
      ],
      "stateMutability": "view",
      "type": "function"
    },
    {
      "inputs": [
        {
          "internalType": "bytes",
          "name": "_deployData",
          "type": "bytes"
        },
        {
          "internalType": "address",
          "name": "_masterDeployer",
          "type": "address"
        }
      ],
      "name": "initialize",
      "outputs": [],
      "stateMutability": "nonpayable",
      "type": "function"
    },
    {
      "inputs": [],
      "name": "liquidity",
      "outputs": [
        {
          "internalType": "uint128",
          "name": "",
          "type": "uint128"
        }
      ],
      "stateMutability": "view",
      "type": "function"
    },
    {
      "inputs": [
        {
          "components": [
            {
              "internalType": "int24",
              "name": "lowerOld",
              "type": "int24"
            },
            {
              "internalType": "int24",
              "name": "lower",
              "type": "int24"
            },
            {
              "internalType": "int24",
              "name": "upperOld",
              "type": "int24"
            },
            {
              "internalType": "int24",
              "name": "upper",
              "type": "int24"
            },
            {
              "internalType": "uint128",
              "name": "amount0Desired",
              "type": "uint128"
            },
            {
              "internalType": "uint128",
              "name": "amount1Desired",
              "type": "uint128"
            }
          ],
          "internalType": "struct IConcentratedLiquidityPoolStruct.MintParams",
          "name": "mintParams",
          "type": "tuple"
        }
      ],
      "name": "mint",
      "outputs": [
        {
          "internalType": "uint256",
          "name": "liquidityMinted",
          "type": "uint256"
        }
      ],
      "stateMutability": "nonpayable",
      "type": "function"
    },
    {
      "inputs": [],
      "name": "nearestTick",
      "outputs": [
        {
          "internalType": "int24",
          "name": "",
          "type": "int24"
        }
      ],
      "stateMutability": "view",
      "type": "function"
    },
    {
      "inputs": [
        {
          "internalType": "address",
          "name": "",
          "type": "address"
        },
        {
          "internalType": "int24",
          "name": "",
          "type": "int24"
        },
        {
          "internalType": "int24",
          "name": "",
          "type": "int24"
        }
      ],
      "name": "positionRewards",
      "outputs": [
        {
          "internalType": "uint256",
          "name": "rewardGrowthInsideLast",
          "type": "uint256"
        },
        {
          "internalType": "uint128",
          "name": "rewardOwed",
          "type": "uint128"
        }
      ],
      "stateMutability": "view",
      "type": "function"
    },
    {
      "inputs": [
        {
          "internalType": "address",
          "name": "",
          "type": "address"
        },
        {
          "internalType": "int24",
          "name": "",
          "type": "int24"
        },
        {
          "internalType": "int24",
          "name": "",
          "type": "int24"
        }
      ],
      "name": "positions",
      "outputs": [
        {
          "internalType": "uint128",
          "name": "liquidity",
          "type": "uint128"
        },
        {
          "internalType": "uint256",
          "name": "feeGrowthInside0Last",
          "type": "uint256"
        },
        {
          "internalType": "uint256",
          "name": "feeGrowthInside1Last",
          "type": "uint256"
        },
        {
          "internalType": "uint128",
          "name": "feeOwed0",
          "type": "uint128"
        },
        {
          "internalType": "uint128",
          "name": "feeOwed1",
          "type": "uint128"
        }
      ],
      "stateMutability": "view",
      "type": "function"
    },
    {
      "inputs": [],
      "name": "price",
      "outputs": [
        {
          "internalType": "uint160",
          "name": "",
          "type": "uint160"
        }
      ],
      "stateMutability": "view",
      "type": "function"
    },
    {
      "inputs": [],
      "name": "protocolFee",
      "outputs": [
        {
          "internalType": "uint256",
          "name": "",
          "type": "uint256"
        }
      ],
      "stateMutability": "view",
      "type": "function"
    },
    {
      "inputs": [
        {
          "internalType": "int24",
          "name": "lowerTick",
          "type": "int24"
        },
        {
          "internalType": "int24",
          "name": "upperTick",
          "type": "int24"
        }
      ],
      "name": "rangeFeeGrowth",
      "outputs": [
        {
          "internalType": "uint256",
          "name": "feeGrowthInside0",
          "type": "uint256"
        },
        {
          "internalType": "uint256",
          "name": "feeGrowthInside1",
          "type": "uint256"
        }
      ],
      "stateMutability": "view",
      "type": "function"
    },
    {
      "inputs": [
        {
          "internalType": "int24",
          "name": "lowerTick",
          "type": "int24"
        },
        {
          "internalType": "int24",
          "name": "upperTick",
          "type": "int24"
        }
      ],
      "name": "rangeRewardGrowth",
      "outputs": [
        {
          "internalType": "uint256",
          "name": "rewardGrowthInside",
          "type": "uint256"
        }
      ],
      "stateMutability": "view",
      "type": "function"
    },
    {
      "inputs": [
        {
          "internalType": "address",
          "name": "_logger",
          "type": "address"
        }
      ],
      "name": "registerLogger",
      "outputs": [],
      "stateMutability": "nonpayable",
      "type": "function"
    },
    {
      "inputs": [],
      "name": "rewardGrowthGlobal",
      "outputs": [
        {
          "internalType": "uint256",
          "name": "",
          "type": "uint256"
        }
      ],
      "stateMutability": "view",
      "type": "function"
    },
    {
      "inputs": [
        {
          "internalType": "int24",
          "name": "",
          "type": "int24"
        }
      ],
      "name": "rewardGrowthOutsidePerTicks",
      "outputs": [
        {
          "internalType": "uint256",
          "name": "",
          "type": "uint256"
        }
      ],
      "stateMutability": "view",
      "type": "function"
    },
    {
      "inputs": [],
      "name": "rewardPerSecond",
      "outputs": [
        {
          "internalType": "uint256",
          "name": "",
          "type": "uint256"
        }
      ],
      "stateMutability": "view",
      "type": "function"
    },
    {
      "inputs": [],
      "name": "rewardToken",
      "outputs": [
        {
          "internalType": "address",
          "name": "",
          "type": "address"
        }
      ],
      "stateMutability": "view",
      "type": "function"
    },
    {
      "inputs": [
        {
          "internalType": "uint160",
          "name": "_price",
          "type": "uint160"
        }
      ],
      "name": "setPrice",
      "outputs": [],
      "stateMutability": "nonpayable",
      "type": "function"
    },
    {
      "inputs": [
        {
          "internalType": "bytes",
          "name": "data",
          "type": "bytes"
        }
      ],
      "name": "swap",
      "outputs": [
        {
          "internalType": "uint256",
          "name": "amountOut",
          "type": "uint256"
        }
      ],
      "stateMutability": "nonpayable",
      "type": "function"
    },
    {
      "inputs": [],
      "name": "swapFee",
      "outputs": [
        {
          "internalType": "uint24",
          "name": "",
          "type": "uint24"
        }
      ],
      "stateMutability": "view",
      "type": "function"
    },
    {
      "inputs": [],
      "name": "swapFeeGrowthGlobal0",
      "outputs": [
        {
          "internalType": "uint256",
          "name": "",
          "type": "uint256"
        }
      ],
      "stateMutability": "view",
      "type": "function"
    },
    {
      "inputs": [],
      "name": "swapFeeGrowthGlobal1",
      "outputs": [
        {
          "internalType": "uint256",
          "name": "",
          "type": "uint256"
        }
      ],
      "stateMutability": "view",
      "type": "function"
    },
    {
      "inputs": [],
      "name": "tickSpacing",
      "outputs": [
        {
          "internalType": "uint24",
          "name": "",
          "type": "uint24"
        }
      ],
      "stateMutability": "view",
      "type": "function"
    },
    {
      "inputs": [
        {
          "internalType": "int24",
          "name": "",
          "type": "int24"
        }
      ],
      "name": "ticks",
      "outputs": [
        {
          "internalType": "int24",
          "name": "previousTick",
          "type": "int24"
        },
        {
          "internalType": "int24",
          "name": "nextTick",
          "type": "int24"
        },
        {
          "internalType": "uint128",
          "name": "liquidity",
          "type": "uint128"
        },
        {
          "internalType": "uint256",
          "name": "feeGrowthOutside0",
          "type": "uint256"
        },
        {
          "internalType": "uint256",
          "name": "feeGrowthOutside1",
          "type": "uint256"
        },
        {
          "internalType": "uint160",
          "name": "secondsGrowthOutside",
          "type": "uint160"
        }
      ],
      "stateMutability": "view",
      "type": "function"
    },
    {
      "inputs": [],
      "name": "token0",
      "outputs": [
        {
          "internalType": "address",
          "name": "",
          "type": "address"
        }
      ],
      "stateMutability": "view",
      "type": "function"
    },
    {
      "inputs": [],
      "name": "token1",
      "outputs": [
        {
          "internalType": "address",
          "name": "",
          "type": "address"
        }
      ],
      "stateMutability": "view",
      "type": "function"
    },
    {
      "inputs": [],
      "name": "totalTicks",
      "outputs": [
        {
          "internalType": "uint256",
          "name": "",
          "type": "uint256"
        }
      ],
      "stateMutability": "view",
      "type": "function"
    },
    {
      "inputs": [],
      "name": "yieldGrowthGlobal",
      "outputs": [
        {
          "internalType": "uint256",
          "name": "",
          "type": "uint256"
        }
      ],
      "stateMutability": "view",
      "type": "function"
    }
  ],
  "transactionHash": "0x482cccb4f8278a56237c3124f538e6b448e468d8326f416193ac4b35b598ba8b",
  "args": [],
  "numDeployments": 1,
  "solcInputHash": "9f1d1a8832d42ae1b8cb40a774fa296f",
  "bytecode": "0x608060405234801561001057600080fd5b50615f9c80620000216000396000f3fe608060405234801561001057600080fd5b506004361061032b5760003560e01c8063a34123a7116101b2578063cf543153116100f9578063e5ff7f46116100a2578063f7c618c11161007c578063f7c618c1146108d2578063f949e8b7146108e5578063fa1a169c146108ed578063fb5d80b3146108f657600080fd5b8063e5ff7f46146107b9578063f30dba93146107cc578063f719dac61461087457600080fd5b8063d21220a7116100d3578063d21220a714610773578063d551479214610786578063d90bda4e146107a657600080fd5b8063cf54315314610743578063cf78756b14610756578063d0c93a7c1461075e57600080fd5b8063bd7d1eea1161015b578063c993642011610135578063c993642014610720578063caa4b46a14610728578063cce2df031461073057600080fd5b8063bd7d1eea146106e7578063c03c2514146106fa578063c45a01551461070d57600080fd5b8063b0e21e8a1161018c578063b0e21e8a1461062a578063b2f4bdb014610633578063bcdb4dad1461063c57600080fd5b8063a34123a714610572578063aaca1b4d14610585578063acfe88f81461061757600080fd5b806367e4ac2c116102765780638c347f9b1161021f5780639da12096116101f95780639da1209614610530578063a00e8f2914610538578063a035b1fe1461055f57600080fd5b80638c347f9b146104f55780638f10369a1461051e578063956afe451461052757600080fd5b8063735541d111610250578063735541d1146104db57806384e02017146104e45780638ba310a2146104ed57600080fd5b806367e4ac2c146104915780636d59d802146104a657806370ed1b86146104d257600080fd5b80632df94b0f116102d857806354cf2aeb116102b257806354cf2aeb14610449578063627dd56a1461047557806366f657c51461048857600080fd5b80632df94b0f1461040357806340306fb61461042b578063490e6cbc1461043457600080fd5b80630dfe1681116103095780630dfe1681146103a4578063111ba27d146103cf5780631a686502146103d857600080fd5b806306f912f3146103305780630902f1ac146103565780630ae9ba8a14610391575b600080fd5b61034361033e36600461554f565b610915565b6040519081526020015b60405180910390f35b6014546015546001600160801b03600160801b909204821691165b604080516001600160801b0393841681529290911660208301520161034d565b61034361039f3660046155bd565b61097d565b6003546103b7906001600160a01b031681565b6040516001600160a01b03909116815260200161034d565b61034360215481565b6006546103eb906001600160801b031681565b6040516001600160801b03909116815260200161034d565b610416610411366004615664565b610f02565b6040805192835260208301919091520161034d565b610343600e5481565b6104476104423660046156bf565b611088565b005b6000546104619065010000000000900462ffffff1681565b60405162ffffff909116815260200161034d565b6103436104833660046157e2565b611509565b610343600c5481565b610499611bcb565b60405161034d919061585b565b600754604080516001600160a01b0383168152600160a01b90920463ffffffff1660208301520161034d565b61034360095481565b610343601b5481565b610343600d5481565b610343611c5f565b601954604080516001600160a01b0383168152600160a01b90920460020b60208301520161034d565b61034360125481565b610343600f5481565b610343611d29565b60195461054c90600160a01b900460020b81565b60405160029190910b815260200161034d565b6019546103b7906001600160a01b031681565b61041661058036600461586e565b611d71565b6105e16105933660046158b5565b601e60209081526000938452604080852082529284528284209052825290208054600182015460028301546003909301546001600160801b0392831693919281811691600160801b90041685565b604080516001600160801b039687168152602081019590955284019290925283166060830152909116608082015260a00161034d565b610416610625366004615900565b61212b565b6103436103e881565b61034360205481565b6106926000546005546001546003546004546001600160801b03680100000000000000008604169562ffffff62010000870481169665010000000000900416946001600160a01b03908116948116938116921690565b604080516001600160801b03909816885262ffffff968716602089015295909416948601949094526001600160a01b0391821660608601528116608085015291821660a08401521660c082015260e00161034d565b6104476106f5366004615939565b612490565b610343610708366004615900565b6124dd565b6005546103b7906001600160a01b031681565b6103436125e8565b6103716126f1565b61044761073e366004615956565b612a8b565b61044761075136600461599d565b612fa8565b610343613309565b6000546104619062010000900462ffffff1681565b6004546103b7906001600160a01b031681565b6103436107943660046159f2565b601d6020526000908152604090205481565b6104476107b4366004615939565b613342565b6013546103eb906001600160801b031681565b6108296107da3660046159f2565b601c6020526000908152604090208054600182015460028084015460039094015483820b946301000000850490920b93600160301b90046001600160801b03169291906001600160a01b031686565b60408051600297880b81529590960b60208601526001600160801b0390931694840194909452606083015260808201929092526001600160a01b0390911660a082015260c00161034d565b6108b56108823660046158b5565b601f602090815260009384526040808520825292845282842090528252902080546001909101546001600160801b031682565b604080519283526001600160801b0390911660208301520161034d565b6010546103b7906001600160a01b031681565b6103436133c2565b61034360085481565b6013546014546001600160801b03600160801b90920482169116610371565b6000601a546002141561093b576040516303cb96db60e21b815260040160405180910390fd5b6002601a5561094b3385856133d9565b610957338585856134b7565b601054909150610971906001600160a01b03168233613551565b6001601a559392505050565b6000601a54600214156109a3576040516303cb96db60e21b815260040160405180910390fd5b6002601a55601554600160801b900460ff166109be81613565565b6109d0836020015184606001516137b3565b60006109df84602001516138b4565b6001600160a01b0316905060006109f985606001516138b4565b60195460a087015160808801516001600160a01b0393841694509190921691610a34918591859185916001600160801b039081169116613be7565b94506f7fffffffffffffffffffffffffffffff851115610a6757604051631a93c68960e11b815260040160405180910390fd5b84610a85576040516320fb348960e21b815260040160405180910390fd5b610a8d613c7b565b6000601c73aCc9af149D4E4B75304eb865B3120aF152B3652C63825c72999091601d6040518060800160405280600a54600854610aca9190615a25565b8152602001600b54600954610adf9190615a25565b81526020016011548152602001600760009054906101000a90046001600160a01b03166001600160a01b03168152508b600001518c602001518d604001518e606001518e601960149054906101000a900460020b8c6040518b63ffffffff1660e01b8152600401610b599a99989796959493929190615a3d565b604080518083038186803b158015610b7057600080fd5b505af4158015610b84573d6000803e3d6000fd5b505050506040513d601f19601f82011682018060405250810190610ba89190615afa565b6019805462ffffff909316600160a01b0262ffffff60a01b1990931692909217909155601b80549192508291600090610be2908490615a25565b9250508190555050610bfe338760200151886060015188613d90565b808311158015610c0d57508181105b15610c555760068054869190600090610c309084906001600160801b0316615b28565b92506101000a8154816001600160801b0302191690836001600160801b031602179055505b600080610c668585858a6001613db8565b60035460048054604051632f8b294d60e11b81526001600160a01b03938416928101929092529190911660248201526001600160801b0380841660448301528216606482015291935091503390635f16529a90608401600060405180830381600087803b158015610cd657600080fd5b505af1158015610cea573d6000803e3d6000fd5b50505050816001600160801b0316600014610d975781601460108282829054906101000a90046001600160801b0316610d239190615b28565b92506101000a8154816001600160801b0302191690836001600160801b03160217905550610d65600360009054906101000a90046001600160a01b0316613e22565b601454600160801b90046001600160801b03161115610d975760405163420231d560e11b815260040160405180910390fd5b6001600160801b03811615610e315760158054829190600090610dc49084906001600160801b0316615b28565b92506101000a8154816001600160801b0302191690836001600160801b03160217905550610e06600460009054906101000a90046001600160a01b0316613e22565b6015546001600160801b03161115610e3157604051637218102160e11b815260040160405180910390fd5b600280546040805160a08101825260208c810151850b82526060808e0151860b9183019182526001600160801b03888116848601908152908816918401918252608084018e8152945163fbad739160e01b81529351870b6004850152915190950b6024830152516044820152925160648401525160848301526001600160a01b03169063fbad73919060a401600060405180830381600087803b158015610ed757600080fd5b505af1925050508015610ee8575060015b505050505050610ef781613ef2565b506001601a55919050565b600080601a5460021415610f29576040516303cb96db60e21b815260040160405180910390fd5b6002601a55601554600160801b900460ff16610f4481613565565b610f4f338888614167565b610f5c3388888888614296565b601480549295509093508491601090610f86908490600160801b90046001600160801b0316615b53565b92506101000a8154816001600160801b0302191690836001600160801b0316021790555081601560008282829054906101000a90046001600160801b0316610fce9190615b53565b92506101000a8154816001600160801b0302191690836001600160801b03160217905550610ffd3384846143a1565b600254604080518082018252858152602081018581529151631228c47f60e01b815290516004820152905160248201526001600160a01b0390911690631228c47f90604401600060405180830381600087803b15801561105c57600080fd5b505af192505050801561106d575060015b5061107781613ef2565b506001601a55909590945092505050565b601a54600214156110ac576040516303cb96db60e21b815260040160405180910390fd5b6002601a55601554600160801b900460ff166110c781613565565b6111076040518060e00160405280600081526020016000815260200160008152602001600081526020016000815260200160008152602001600081525090565b6000806111268888600060059054906101000a900462ffffff166143cf565b6040805160e0810182528b8152602081018b90526014546001600160801b03600160801b90910481169282019290925260155482166060820152608081019390935260a08301919091526006541660c08201819052909350151591506111a19050576040516320fb348960e21b815260040160405180910390fd5b6111ac8787876143a1565b608081015160a08201516040516361c9276b60e11b8152339263c3924ed6926111db9289908990600401615b7b565b600060405180830381600087803b1580156111f557600080fd5b505af1158015611209573d6000803e3d6000fd5b5050600354600092508291508190611229906001600160a01b0316613e22565b600454909150600090611244906001600160a01b0316613e22565b9050818560800151866040015161125b9190615a25565b111561127a5760405163420231d560e11b815260040160405180910390fd5b808560a00151866060015161128f9190615a25565b11156112ae57604051637218102160e11b815260040160405180910390fd5b6112b782614404565b601480546001600160801b03928316600160801b0292169190911790556112dd81614404565b601580546001600160801b0319166001600160801b0392909216919091179055604085015161130c9083615bb8565b935084606001518161131e9190615bb8565b92506103e891505082156113c457600061133b848361271061441f565b905080601360108282829054906101000a90046001600160801b03166113619190615b28565b92506101000a8154816001600160801b0302191690836001600160801b031602179055506113ac816001600160801b03168561139d9190615bb8565b600160801b8760c0015161445d565b600860008282546113bd9190615a25565b9091555050505b811561144d5760006113d9838361271061441f565b6014805491925082916000906113f99084906001600160801b0316615b28565b92506101000a8154816001600160801b0302191690836001600160801b03160217905550611435816001600160801b03168461139d9190615bb8565b600960008282546114469190615a25565b9091555050505b6002546040805160a0810182523381528651602080830191825288015182840190815260608301888152608084018881529451630a61fef360e21b815293516001600160a01b039081166004860152925160248501529051604484015251606483015291516084820152911690632987fbcc9060a401600060405180830381600087803b1580156114dd57600080fd5b505af19250505080156114ee575060015b50505050506114fc81613ef2565b50506001601a5550505050565b6000601a546002141561152f576040516303cb96db60e21b815260040160405180910390fd5b6002601a55601554600160801b900460ff1661154a81613565565b600080848060200190518101906115619190615bdf565b9150915060008261157d576015546001600160801b0316611591565b601454600160801b90046001600160801b03165b6001600160801b03166115c4846115b3576004546001600160a01b0316613e22565b6003546001600160a01b0316613e22565b6115ce9190615bb8565b905060006040518061012001604052806000815260200160008152602001600081526020018561160057600854611604565b6009545b8152602001856116165760095461161a565b6008545b81526019546001600160a01b031660208201526006546001600160801b03166040820152606081018490526080018561167957601954600160a01b9004600290810b6000908152601c602052604090205463010000009004900b611687565b601954600160a01b900460020b5b60020b90529050611696613c7b565b6011546116a282614510565b60e082015115611a355760006116bc8361010001516138b4565b6001600160a01b0316905060008087156117ed5760006116e78660c00151858860a00151600061456b565b9050808660e00151116117ad5760c086015160a087015160e088015160609290921b9160009161172d9184919061171e9082615c0b565b6117289086615a25565b61441f565b905080861115801561174257508760a0015181105b61178057611774828960e001518a60a001518561175f9190615c40565b6117699190615a25565b808204910615150190565b6001600160a01b031690505b6117958860c00151828a60a0015160006145c3565b60a0890191909152600060e089015293506117e79050565b6117c28660c00151858860a0015160006145c3565b60a0870185905260e0870180519194506001935082916117e3908390615bb8565b9052505b506118a2565b60006118048660c001518760a001518660006145c3565b9050808660e001511161186657600061182a8760e00151600160601b8960c0015161445d565b8760a001516118399190615a25565b90506118508760c001518860a0015183600061456b565b60a0880191909152600060e088015292506118a0565b61187b8660c001518760a0015186600061456b565b60a0870185905260e08701805191945060019350829161189c908390615bb8565b9052505b505b60c0850151156118f4576118df82600060059054906101000a900462ffffff166103e88860c0015189602001518f8b604001518c606001516145ed565b60608901526040880152602087019190915299505b8015611a2d5761190585858a614685565b60c0850151611a2d5761010085015160020b620d89e719148061193e5750611930620d89e719615c54565b60020b85610100015160020b145b15611a065787156119915761196860018660a0015161195d9190615bb8565b6401000276a36147a9565b60a086015261010085018051600290810b6000908152601c6020526040902054900b90526119fe565b6119d28560a0015160016119a59190615a25565b6119c4600173fffd8963efd1fc6a506488495d951d5263988d26615c77565b6001600160a01b03166147c0565b60a086015261010085018051600290810b6000908152601c602052604090205463010000009004900b90525b505050611a35565b611a148561010001516138b4565b6001600160a01b031660a0860152611a2d85858a614685565b5050506116a2565b60a0820151601980546001600160a01b0319166001600160a01b03909216919091179055600085611a8157610100830151600290810b6000908152601c6020526040902054900b611a88565b8261010001515b601954909150600282810b600160a01b909204900b14611ae3576019805462ffffff60a01b1916600160a01b62ffffff84160217905560c0830151600680546001600160801b0319166001600160801b039092169190911790555b611aee86858a6147cf565b611b01868460600151856040015161490b565b8515611b2357600454611b1e906001600160a01b03168987613551565b611b3a565b600354611b3a906001600160a01b03168987613551565b600254604080516060810182528815158152602081018781528183018c815292516391accd5f60e01b8152915115156004830152516024820152905160448201526001600160a01b03909116906391accd5f90606401600060405180830381600087803b158015611baa57600080fd5b505af1925050508015611bbb575060015b50505050505050610ef781613ef2565b6040805160028082526060808301845292602083019080368337505060035482519293506001600160a01b031691839150600090611c0b57611c0b615c97565b6001600160a01b039283166020918202929092010152600454825191169082906001908110611c3c57611c3c615c97565b60200260200101906001600160a01b031690816001600160a01b03168152505090565b601554600090600160801b900460ff1681611c7982614987565b9050600082611c93576015546001600160801b0316611ca7565b601454600160801b90046001600160801b03165b9050806001600160801b0316826001600160801b031611611cea57601654601854611ce291600160801b90046001600160801b031690615a25565b935050505090565b6016546018546001600160801b038084169285821692611d1592600160801b90920490911690615a25565b611d1f9190615a25565b611ce29190615bb8565b6015546000908190600160801b900460ff16611d46576000611d4e565b611d4e6125e8565b9050611d61600854600a54600c54614a34565b611d6b9082615a25565b91505090565b600080601a5460021415611d98576040516303cb96db60e21b815260040160405180910390fd5b6002601a55601554600160801b900460ff16611db381613565565b6000611dbe876138b4565b90506000611dcb876138b4565b6019549091506001600160a01b0316611de2613c7b565b806001600160a01b0316836001600160a01b031611158015611e155750816001600160a01b0316816001600160a01b0316105b15611e3d57600680546001600160801b038082168a9003166001600160801b03199091161790555b611e6f836001600160a01b0316836001600160a01b0316836001600160a01b03168a6001600160801b03166000613db8565b6001600160801b039182169750811695506f7fffffffffffffffffffffffffffffff9088161115611eb357604051631a93c68960e11b815260040160405180910390fd5b611ec7338a8a611ec28b615cad565b613d90565b85601460108282829054906101000a90046001600160801b0316611eeb9190615b53565b92506101000a8154816001600160801b0302191690836001600160801b0316021790555084601560008282829054906101000a90046001600160801b0316611f339190615b53565b92506101000a8154816001600160801b0302191690836001600160801b03160217905550611f623387876143a1565b601954604051630f92397360e31b8152601c6004820152601d602482015260028b810b60448301528a810b60648301526001600160801b038a166084830152600160a01b90920490910b60a482015260009073aCc9af149D4E4B75304eb865B3120aF152B3652C90637c91cb989060c401604080518083038186803b158015611fea57600080fd5b505af4158015611ffe573d6000803e3d6000fd5b505050506040513d601f19601f820116820180604052508101906120229190615afa565b6019805462ffffff909316600160a01b0262ffffff60a01b1990931692909217909155601b8054919250829160009061205c908490615bb8565b9091555050600280546040805160a0810182528d840b81528c840b602082019081528183018c8152606083018c81526001600160801b038f16608085019081529451637e4a416960e11b81529351870b6004850152915190950b602483015293516044820152925160648401525160848301526001600160a01b0316915063fc9482d29060a401600060405180830381600087803b1580156120fd57600080fd5b505af192505050801561210e575060015b5050505061211b81613ef2565b506001601a559094909350915050565b60195460009081908190612147906001600160a01b0316614a94565b90506000601c60008760020b60020b81526020019081526020016000206040518060c00160405290816000820160009054906101000a900460020b60020b60020b81526020016000820160039054906101000a900460020b60020b60020b81526020016000820160069054906101000a90046001600160801b03166001600160801b03166001600160801b0316815260200160018201548152602001600282015481526020016003820160009054906101000a90046001600160a01b03166001600160a01b03166001600160a01b03168152505090506000601c60008760020b60020b81526020019081526020016000206040518060c00160405290816000820160009054906101000a900460020b60020b60020b81526020016000820160039054906101000a900460020b60020b60020b81526020016000820160069054906101000a90046001600160801b03166001600160801b03166001600160801b0316815260200160018201548152602001600282015481526020016003820160009054906101000a90046001600160a01b03166001600160a01b03166001600160a01b031681525050905060008060008061231e600660009054906101000a90046001600160801b03166001600160801b0316614da7565b9150915081600a546008546123339190615a25565b61233d9190615a25565b935080600b546009546123509190615a25565b61235a9190615a25565b92505050601560109054906101000a900460ff161561238c5761237b6125e8565b6123859083615a25565b91506123a1565b6123946125e8565b61239e9082615a25565b90505b6000808660020b8b60020b136123d95760608601516123c09083615a25565b91508560800151816123d29190615a25565b9050612411565b60608601516123e89085615bb8565b6123f29083615a25565b91508560800151836124049190615bb8565b61240e9082615a25565b90505b8960020b8760020b121561244757606085015161242e9083615a25565b91508460800151816124409190615a25565b905061247f565b60608501516124569085615bb8565b6124609083615a25565b91508460800151836124729190615bb8565b61247c9082615a25565b90505b920399919003975095505050505050565b6005546001600160a01b031633146124bb5760405163ea8e4eb560e01b815260040160405180910390fd5b600280546001600160a01b0319166001600160a01b0392909216919091179055565b60195460009081906124f7906001600160a01b0316614a94565b600654909150600090612512906001600160801b0316614dea565b60115461251f9190615a25565b905060008260020b8660020b1361255557600286900b6000908152601d602052604090205461254e9082615a25565b9050612580565b600286900b6000908152601d60205260409020546125739083615bb8565b61257d9082615a25565b90505b8460020b8360020b12156125b357600285900b6000908152601d60205260409020546125ac9082615a25565b90506125de565b600285900b6000908152601d60205260409020546125d19083615bb8565b6125db9082615a25565b90505b9003949350505050565b601554600090600160801b900460ff168161260282614987565b905060008261261c576015546001600160801b0316612630565b601454600160801b90046001600160801b03165b6001600160801b0316905080826001600160801b03161161265657601754935050505090565b6006546001600160801b0316806126735760175494505050505090565b6016546000906001600160801b03600160801b9091048116906126999085908716615bb8565b6126a39190615a25565b905060006126b6826103e861271061441f565b90506126d96126ce6001600160801b03831684615bb8565b600160801b8561445d565b6017546126e69190615a25565b965050505050505090565b600080601a5460021415612718576040516303cb96db60e21b815260040160405180910390fd5b6002601a55601554600160801b900460ff1661273381613565565b6001546040805163779b492960e11b815290516000926001600160a01b03169163ef369252916004808301926020929190829003018186803b15801561277857600080fd5b505afa15801561278c573d6000803e3d6000fd5b505050506040513d601f19601f820116820180604052508101906127b09190615cd4565b604080516002808252606082018352929350600092909160208301908036833750506040805160028082526060820183529394506000939092509060208301908036833701905050601354909150600160801b90046001600160801b03161561290457601380546001600160801b0380821690925560148054600160801b92839004841699508993919260109261284b928692900416615b53565b92506101000a8154816001600160801b0302191690836001600160801b03160217905550612898600360009054906101000a90046001600160a01b0316876001600160801b031685613551565b60035482516001600160a01b039091169083906000906128ba576128ba615c97565b60200260200101906001600160a01b031690816001600160a01b031681525050856001600160801b0316816000815181106128f7576128f7615c97565b6020026020010181815250505b6014546001600160801b031615612a0457601480546001600160801b03198116909155601580546001600160801b039283169750879260009161294991859116615b53565b92506101000a8154816001600160801b0302191690836001600160801b03160217905550612996600460009054906101000a90046001600160a01b0316866001600160801b031685613551565b60045482516001600160a01b0390911690839060019081106129ba576129ba615c97565b60200260200101906001600160a01b031690816001600160a01b031681525050846001600160801b0316816001815181106129f7576129f7615c97565b6020026020010181815250505b6001600160a01b0383163b15612a7557604051630f03328360e41b81526001600160a01b0384169063f033283090612a429085908590600401615cf1565b600060405180830381600087803b158015612a5c57600080fd5b505af1158015612a70573d6000803e3d6000fd5b505050505b505050612a8181613ef2565b506001601a559091565b600054610100900460ff16612aa65760005460ff1615612aaa565b303b155b612b215760405162461bcd60e51b815260206004820152602e60248201527f496e697469616c697a61626c653a20636f6e747261637420697320616c72656160448201527f647920696e697469616c697a656400000000000000000000000000000000000060648201526084015b60405180910390fd5b600054610100900460ff16158015612b43576000805461ffff19166101011790555b60008060008060008088806020019051810190612b609190615d5b565b95509550955095509550955085600360006101000a8154816001600160a01b0302191690836001600160a01b0316021790555084600460006101000a8154816001600160a01b0302191690836001600160a01b0316021790555083601060006101000a8154816001600160a01b0302191690836001600160a01b0316021790555082600060056101000a81548162ffffff021916908362ffffff16021790555081600060026101000a81548162ffffff021916908362ffffff16021790555033600560006101000a8154816001600160a01b0302191690836001600160a01b0316021790555087600160006101000a8154816001600160a01b0302191690836001600160a01b0316021790555080601560106101000a81548160ff021916908315150217905550612c9082614e12565b600060086101000a8154816001600160801b0302191690836001600160801b031602179055506040518060c00160405280620d89e71960020b8152602001620d89e719612cdc90615c54565b60020b815260006020808301829052604080840183905260608085018490526080948501849052620d89e71993849052601c835285517f312e29fa10e2dff7af4afff8ca91ba272d48aceeec966ecfff784af0b0aa924c805488860151898601516001600160801b0316600160301b0275ffffffffffffffffffffffffffffffff0000000000001962ffffff92831663010000000265ffffffffffff19909416929095169190911791909117929092169190911790558501517f312e29fa10e2dff7af4afff8ca91ba272d48aceeec966ecfff784af0b0aa924d55928401517f312e29fa10e2dff7af4afff8ca91ba272d48aceeec966ecfff784af0b0aa924e5560a0909301517f312e29fa10e2dff7af4afff8ca91ba272d48aceeec966ecfff784af0b0aa924f80546001600160a01b03929092166001600160a01b0319909216919091179055815160c081019092528082529091820190612e3e90615c54565b60020b815260200160006001600160801b03168152602001600081526020016000815260200160006001600160a01b0316815250601c6000620d89e719612e8490615c54565b600290810b825260208083019390935260409182016000208451815486860151948701516001600160801b0316600160301b0275ffffffffffffffffffffffffffffffff0000000000001962ffffff96871663010000000265ffffffffffff1990931696909316959095171716929092178255606084015160018084019190915560808501518383015560a090940151600390920180546001600160a01b039093166001600160a01b03199093169290921790915560198054621e4ec360a31b62ffffff60a01b19909116179055601a929092556007805463ffffffff42908116600160a01b0263ffffffff60a01b1990921691909117909155601b9290925555505043602155505082159150612fa39050576000805461ff00191690555b505050565b601a5460021415612fcc576040516303cb96db60e21b815260040160405180910390fd5b6002601a55601554600160801b900460ff16612fe781613565565b6001546040805163d0a9317360e01b8152905133926001600160a01b03169163d0a931739160048083019260209291908290030181600087803b15801561302d57600080fd5b505af1158015613041573d6000803e3d6000fd5b505050506040513d601f19601f820116820180604052508101906130659190615cd4565b6001600160a01b03161461308c5760405163ea8e4eb560e01b815260040160405180910390fd5b426130978385615a25565b116130b557604051633494a40d60e21b815260040160405180910390fd5b600e54600f546000906130c89083615a25565b9050848111156130eb57604051633494a40d60e21b815260040160405180910390fd5b6001600160801b0388161561316257600354613119906001600160a01b03166001600160801b038a16614e52565b87601460108282829054906101000a90046001600160801b031661313d9190615b28565b92506101000a8154816001600160801b0302191690836001600160801b031602179055505b6001600160801b038716156131d357600454613190906001600160a01b03166001600160801b038916614e52565b601580548891906000906131ae9084906001600160801b0316615b28565b92506101000a8154816001600160801b0302191690836001600160801b031602179055505b6001600160801b0386161561320157601054613201906001600160a01b03166001600160801b038816614e52565b600061320b614e67565b11156132a357613219613c7b565b600754600160a01b900463ffffffff16818110156132a157600061323d82856147a9565b6132479084615bb8565b905061325d613258600c5483614ec5565b614404565b613267908b615b28565b9950613278613258600d5483614ec5565b613282908a615b28565b985061329361325860125483614ec5565b61329d9089615b28565b9750505b505b6132bb886001600160801b0316600160801b8661445d565b600c556132d66001600160801b038816600160801b8661445d565b600d556132f16001600160801b038716600160801b8661445d565b6012555050600e839055600f8290556114fc81613ef2565b6015546000908190600160801b900460ff1661332c576133276125e8565b61332f565b60005b9050611d61600954600b54600d54614a34565b6005546001600160a01b0316331461336d5760405163ea8e4eb560e01b815260040160405180910390fd5b6019546001600160a01b03161561339757604051630bca0b1b60e21b815260040160405180910390fd5b6133a081614ed6565b601980546001600160a01b0319166001600160a01b0392909216919091179055565b60006133d46000601154601254614a34565b905090565b6001600160a01b0383166000908152601f60209081526040808320600286810b85529083528184209085900b845290915281209061341784846124dd565b82546001600160a01b0387166000908152601e6020908152604080832060028a810b85529083528184209089900b845290915281205492935091613466918403906001600160801b0316614ec5565b828455600184018054919250829160009061348b9084906001600160801b0316615b28565b92506101000a8154816001600160801b0302191690836001600160801b03160217905550505050505050565b6001600160a01b0384166000908152601f60209081526040808320600287810b85529083528184209086900b845290915281206001810154613502906001600160801b0316846147c0565b60018201805491935083916000906135249084906001600160801b0316615b53565b92506101000a8154816001600160801b0302191690836001600160801b0316021790555050949350505050565b612fa36001600160a01b0384168284614f2d565b600061357082614987565b905060008261358a576015546001600160801b031661359e565b601454600160801b90046001600160801b03165b9050806001600160801b0316826001600160801b0316116135be57505050565b82156135e357601480546001600160801b03808516600160801b0291161790556135ff565b601580546001600160801b0319166001600160801b0384161790555b600061360b8284615b53565b6006549091506001600160801b03168061366e5781601660108282829054906101000a90046001600160801b03166136439190615b28565b92506101000a8154816001600160801b0302191690836001600160801b031602179055505050505050565b601654600160801b90046001600160801b031680156136a3576136918184615b28565b601680546001600160801b0316905592505b60006136bd846001600160801b03166103e861271061441f565b905086156137125780601360108282829054906101000a90046001600160801b03166136e99190615b28565b92506101000a8154816001600160801b0302191690836001600160801b03160217905550613755565b601480548291906000906137309084906001600160801b0316615b28565b92506101000a8154816001600160801b0302191690836001600160801b031602179055505b61377f6137628286615b53565b6001600160801b0316600160801b856001600160801b031661445d565b601760008282546137909190615a25565b9091555050601880546001600160801b0390951694909401909355505050505050565b6000546137cb9062010000900462ffffff1683615dd7565b60020b156137ec576040516333a3bdff60e21b815260040160405180910390fd5b6000546002906138079062010000900462ffffff1684615df9565b6138119190615dd7565b60020b1561383257604051637ef8a10160e11b815260040160405180910390fd5b60005461384a9062010000900462ffffff1682615dd7565b60020b1561386b576040516333a3bdff60e21b815260040160405180910390fd5b6000546002906138869062010000900462ffffff1683615df9565b6138909190615dd7565b60020b6138b05760405163a9778c6360e01b815260040160405180910390fd5b5050565b60008060008360020b126138cb578260020b6138d8565b8260020b6138d890615e33565b90506138e7620d89e719615c54565b62ffffff1681111561390c57604051633e1f710360e21b815260040160405180910390fd5b60006001821661392057600160801b613932565b6ffffcb933bd6fad37aa2d162d1a5940015b70ffffffffffffffffffffffffffffffffff1690506002821615613966576ffff97272373d413259a46990580e213a0260801c5b6004821615613985576ffff2e50f5f656932ef12357cf3c7fdcc0260801c5b60088216156139a4576fffe5caca7e10e4e61c3624eaa0941cd00260801c5b60108216156139c3576fffcb9843d60f6159c9db58835c9266440260801c5b60208216156139e2576fff973b41fa98c081472e6896dfb254c00260801c5b6040821615613a01576fff2ea16466c96a3843ec78b326b528610260801c5b6080821615613a20576ffe5dee046a99a2a811c461f1969c30530260801c5b610100821615613a40576ffcbe86c7900a88aedcffc83b479aa3a40260801c5b610200821615613a60576ff987a7253ac413176f2b074cf7815e540260801c5b610400821615613a80576ff3392b0822b70005940c7a398e4b70f30260801c5b610800821615613aa0576fe7159475a2c29b7443b29c7fa6e889d90260801c5b611000821615613ac0576fd097f3bdfd2022b8845ad8f792aa58250260801c5b612000821615613ae0576fa9f746462d870fdf8a65dc1f90e061e50260801c5b614000821615613b00576f70d869a156d2a1b890bb3df62baf32f70260801c5b618000821615613b20576f31be135f97d08fd981231505542fcfa60260801c5b62010000821615613b41576f09aa508b5b7a84e1c677de54f3e99bc90260801c5b62020000821615613b61576e5d6af8dedb81196699c329225ee6040260801c5b62040000821615613b80576d2216e584f5fa1ea926041bedfe980260801c5b62080000821615613b9d576b048a170391f7dc42444e8fa20260801c5b60008460020b1315613bbe578060001981613bba57613bba615c2a565b0490505b640100000000810615613bd2576001613bd5565b60005b60ff16602082901c0192505050919050565b6000838511613c0857613c0183600160601b88880361445d565b9050613c72565b858411613c2a57613c0182613c228888600160601b61445d565b88880361445d565b6000613c4783613c3f8888600160601b61445d565b87890361445d565b90506000613c5c85600160601b8a890361445d565b9050808210613c6b5780613c6d565b815b925050505b95945050505050565b6006546001600160801b031680613c8f5750565b600754600160a01b900463ffffffff16428110613caa575050565b6000613cb4614e67565b90508015613d2857613cc9600c54828561445d565b600a6000828254613cda9190615a25565b9091555050600d54613ced90828561445d565b600b6000828254613cfe9190615a25565b9091555050601254613d1190828561445d565b60116000828254613d229190615a25565b90915550505b6007805463ffffffff42908116600160a01b0263ffffffff60a01b1990921691909117909155839083900360801b81613d6357613d63615c2a565b600780546001600160a01b03198116939092046001600160a01b0392831601909116919091179055505050565b613d9b848484614167565b613da68484846133d9565b613db284848484614fa8565b50505050565b600080848611613dd857613dd1613258858989876145c3565b9050613e18565b868511613df557613dee6132588589898761456b565b9150613e18565b613e046132588587898761456b565b9150613e15613258858988876145c3565b90505b9550959350505050565b604080513060248083019190915282518083039091018152604490910182526020810180516001600160e01b03166370a0823160e01b1790529051600091829182916001600160a01b03861691613e799190615e7c565b600060405180830381855afa9150503d8060008114613eb4576040519150601f19603f3d011682016040523d82523d6000602084013e613eb9565b606091505b5091509150818015613ecd57506020815110155b613ed657600080fd5b80806020019051810190613eea9190615e98565b949350505050565b801561402d57600354604051633d7ad0b760e21b81523060048201526001600160a01b0390911690819063f5eb42dc9060240160206040518083038186803b158015613f3d57600080fd5b505afa158015613f51573d6000803e3d6000fd5b505050506040513d601f19601f82011682018060405250810190613f759190615e98565b601680546001600160801b0319166001600160801b03929092169190911790556040516370a0823160e01b81523060048201526001600160a01b038216906370a082319060240160206040518083038186803b158015613fd457600080fd5b505afa158015613fe8573d6000803e3d6000fd5b505050506040513d601f19601f8201168201806040525081019061400c9190615e98565b601480546001600160801b03928316600160801b0292169190911790555050565b60048054604051633d7ad0b760e21b815230928101929092526001600160a01b031690819063f5eb42dc9060240160206040518083038186803b15801561407357600080fd5b505afa158015614087573d6000803e3d6000fd5b505050506040513d601f19601f820116820180604052508101906140ab9190615e98565b601680546001600160801b0319166001600160801b03929092169190911790556040516370a0823160e01b81523060048201526001600160a01b038216906370a082319060240160206040518083038186803b15801561410a57600080fd5b505afa15801561411e573d6000803e3d6000fd5b505050506040513d601f19601f820116820180604052508101906141429190615e98565b601580546001600160801b0319166001600160801b0392909216919091179055505b50565b6001600160a01b0383166000908152601e60209081526040808320600286810b85529083528184209085900b8452909152812090806141a6858561212b565b6001850154855492945090925060009182916141ce91908603906001600160801b0316614ec5565b600286015486549193506141ee91908503906001600160801b0316614ec5565b6001860185905560028601849055600386018054919250839160009061421e9084906001600160801b0316615b28565b92506101000a8154816001600160801b0302191690836001600160801b03160217905550808560030160108282829054906101000a90046001600160801b03166142689190615b28565b92506101000a8154816001600160801b0302191690836001600160801b031602179055505050505050505050565b6001600160a01b0385166000908152601e60209081526040808320600288810b85529083528184209087900b8452909152812060038101548291906142e4906001600160801b0316866147c0565b600382015490935061430690600160801b90046001600160801b0316856147c0565b60038201805491935084916000906143289084906001600160801b0316615b53565b92506101000a8154816001600160801b0302191690836001600160801b03160217905550818160030160108282829054906101000a90046001600160801b03166143729190615b53565b92506101000a8154816001600160801b0302191690836001600160801b03160217905550509550959350505050565b6003546143b8906001600160a01b03168385613551565b600454612fa3906001600160a01b03168285613551565b6000806143e5858462ffffff16620f424061441f565b91506143fa848462ffffff16620f424061441f565b9050935093915050565b806001600160801b038116811461441a57600080fd5b919050565b600061442c84848461445d565b9050818061443c5761443c615c2a565b8385091561445657600019811061445257600080fd5b6001015b9392505050565b600080806000198587098587029250828110838203039150508060001415614497576000841161448c57600080fd5b508290049050614456565b8084116144a357600080fd5b6000848688096000868103871696879004966002600389028118808a02820302808a02820302808a02820302808a02820302808a02820302808a02909103029181900381900460010186841190950394909402919094039290920491909117919091029150509392505050565b60c08101511561451d5750565b61010081015160020b620d89e719148061454d575061453f620d89e719615c54565b60020b81610100015160020b145b156141645760405163035d2ccd60e51b815260040160405180910390fd5b6000811561459a57614593614587606087901b8686038661441f565b85808204910615150190565b9050613eea565b836145ac606087901b8286038661445d565b816145b9576145b9615c2a565b0495945050505050565b600081156145dc5761459385858503600160601b61441f565b613c7285858503600160601b61445d565b60008060008060006146088d8d62ffffff16620f424061441f565b9050614614818a615a25565b9850614620818e615bb8565b61462a9089615a25565b9750600061463b828d61271061441f565b90506146478189615a25565b97506146538183615bb8565b915061466482600160801b8d61445d565b61466e9088615a25565b999e989d50969b5097995095975050505050505050565b601554600090600160801b900460ff166146a05760006146a4565b6017545b601554909150600090600160801b900460ff166146c3576017546146c6565b60005b61010086015160075460c088015192935061479192601d92916001600160a01b031690876147105786600a548b606001516147019190615a25565b61470b9190615a25565b61472d565b85600b548b606001516147239190615a25565b61472d9190615a25565b886147545786600b548c608001516147459190615a25565b61474f9190615a25565b614771565b87600a548c608001516147679190615a25565b6147719190615a25565b600054601c969594939291908c908c9062010000900462ffffff1661509c565b60020b61010087015260c09095019490945250505050565b6000818310156147b95781614456565b5090919050565b60008183106147b95781614456565b821561486e576003546000906147ed906001600160a01b0316613e22565b601454909150600090614811908590600160801b90046001600160801b0316615b28565b905081816001600160801b0316111561483d5760405163420231d560e11b815260040160405180910390fd5b601480546001600160801b03908116600160801b848316021790915560158054859260009161364391859116615b53565b600454600090614886906001600160a01b0316613e22565b6015549091506000906148a39085906001600160801b0316615b28565b905081816001600160801b031611156148cf57604051637218102160e11b815260040160405180910390fd5b601580546001600160801b0319166001600160801b0383811691909117909155601480548592601091613643918591600160801b900416615b53565b821561495d576009829055601480548291906000906149349084906001600160801b0316615b28565b92506101000a8154816001600160801b0302191690836001600160801b03160217905550505050565b600882905560138054829190601090614934908490600160801b90046001600160801b0316615b28565b600080826149a0576004546001600160a01b03166149ad565b6003546001600160a01b03165b601654604051632cc7243560e21b81526001600160801b0390911660048201529091506001600160a01b0382169063b31c90d49060240160206040518083038186803b1580156149fc57600080fd5b505afa158015614a10573d6000803e3d6000fd5b505050506040513d601f19601f820116820180604052508101906144569190615e98565b600080614a3f614e67565b6006549091506001600160801b03168115801590614a5d5750600081115b15614a8a57614a6d84838361445d565b614a778688615a25565b614a819190615a25565b92505050614456565b614a818587615a25565b60006401000276a36001600160a01b0383161080614acf575073fffd8963efd1fc6a506488495d951d5263988d266001600160a01b03831610155b15614aed57604051636e4ba61d60e01b815260040160405180910390fd5b77ffffffffffffffffffffffffffffffffffffffff00000000602083901b166001600160801b03811160071b81811c67ffffffffffffffff811160061b90811c63ffffffff811160051b90811c61ffff811160041b90811c60ff8111600390811b91821c600f811160021b90811c918211600190811b92831c97908811961790941790921717909117171760808110614b8e57607f810383901c9150614b98565b80607f0383901b91505b908002607f81811c60ff83811c9190911c800280831c81831c1c800280841c81841c1c800280851c81851c1c800280861c81861c1c800280871c81871c1c800280881c81881c1c800280891c81891c1c8002808a1c818a1c1c8002808b1c818b1c1c8002808c1c818c1c1c8002808d1c818d1c1c8002808e1c9c81901c9c909c1c80029c8d901c9e9d607f198f0160401b60c09190911c678000000000000000161760c19b909b1c674000000000000000169a909a1760c29990991c672000000000000000169890981760c39790971c671000000000000000169690961760c49590951c670800000000000000169490941760c59390931c670400000000000000169290921760c69190911c670200000000000000161760c79190911c670100000000000000161760c89190911c6680000000000000161760c99190911c6640000000000000161760ca9190911c6620000000000000161760cb9190911c6610000000000000161760cc9190911c6608000000000000161760cd9190911c66040000000000001617693627a301d71055774c8581026f028f6481ab7f045a5af012a19d003aa9198101608090811d906fdb2df09e81959a81455e260799a0632f8301901d600281810b9083900b14614d9857886001600160a01b0316614d7d826138b4565b6001600160a01b03161115614d925781614d9a565b80614d9a565b815b9998505050505050505050565b60008082614dba57506000928392509050565b6000614dc4614e67565b9050614dd3600c54828661445d565b9250614de2600d54828661445d565b915050915091565b600081614df957506000919050565b6000614e03614e67565b9050614456601254828561445d565b6000614e1f826002615eb1565b614e2c620d89e719615c54565b614e369190615edc565b614e4c9062ffffff166001600160801b03615efe565b92915050565b6138b06001600160a01b038316333084615322565b600e54600090428110614e7c57600091505090565b600754600f54600160a01b90910463ffffffff1690600090614e9e9084615a25565b9050818111614eb1576000935050505090565b614ebb82846147a9565b611d1f42836147c0565b60006144568383600160801b61445d565b6401000276a36001600160a01b0382161080614f0f575073fffd8963efd1fc6a506488495d951d5263988d266001600160a01b03821610155b1561416457604051636e4ba61d60e01b815260040160405180910390fd5b6040516001600160a01b038316602482015260448101829052612fa390849063a9059cbb60e01b906064015b60408051601f198184030181529190526020810180516001600160e01b03167fffffffff000000000000000000000000000000000000000000000000000000009093169290921790915261535a565b80600f0b60001415614fb957613db2565b6001600160a01b0384166000908152601e60209081526040808320600287810b85529083528184209086900b8452909152812090600f83900b1315615071578054829082906000906150159084906001600160801b0316615b28565b82546101009290920a6001600160801b03818102199093169183160217909155600054835468010000000000000000909104821691161115905061506c5760405163581a12d760e11b815260040160405180910390fd5b615095565b61507a82615cad565b815482906000906136439084906001600160801b0316615b53565b5050505050565b600288900b600090815260208b9052604081206003015481906150c8906001600160a01b03168a615c77565b60028b900b600090815260208e8152604080832060030180546001600160a01b0319166001600160a01b0395909516949094179093558d9052205461510d9086615bb8565b60028b900b600090815260208d90526040902055831561521a5760028360020b8b60020b8161513e5761513e615c2a565b0560020b8161514f5761514f615c2a565b0760020b6151845760028a900b600090815260208d90526040902054600160301b90046001600160801b0316909703966151ae565b60028a900b600090815260208d90526040902054600160301b90046001600160801b031697909701965b60028a900b600090815260208d905260409020600101546151cf9087615bb8565b60028b810b600090815260208f905260409020600181019290925501546151f69088615bb8565b60029a8b0b600090815260208e905260409020808c01919091555490990b98615310565b60028360020b8b60020b8161523157615231615c2a565b0560020b8161524257615242615c2a565b0760020b6152785760028a900b600090815260208d90526040902054600160301b90046001600160801b031697909701966152a1565b60028a900b600090815260208d90526040902054600160301b90046001600160801b0316909703965b60028a810b600090815260208e90526040902001546152c09087615bb8565b60028b810b600090815260208f90526040902090810191909155600101546152e89088615bb8565b60029a8b0b600090815260208e9052604090206001810191909155546301000000900490990b985b50959a97995096975050505050505050565b6040516001600160a01b0380851660248301528316604482015260648101829052613db29085906323b872dd60e01b90608401614f59565b60006153af826040518060400160405280602081526020017f5361666545524332303a206c6f772d6c6576656c2063616c6c206661696c6564815250856001600160a01b031661542c9092919063ffffffff16565b805190915015612fa357808060200190518101906153cd9190615f18565b612fa35760405162461bcd60e51b815260206004820152602a60248201527f5361666545524332303a204552433230206f7065726174696f6e20646964206e6044820152691bdd081cdd58d8d9595960b21b6064820152608401612b18565b6060613eea8484600085856001600160a01b0385163b61548e5760405162461bcd60e51b815260206004820152601d60248201527f416464726573733a2063616c6c20746f206e6f6e2d636f6e74726163740000006044820152606401612b18565b600080866001600160a01b031685876040516154aa9190615e7c565b60006040518083038185875af1925050503d80600081146154e7576040519150601f19603f3d011682016040523d82523d6000602084013e6154ec565b606091505b50915091506154fc828286615507565b979650505050505050565b60608315615516575081614456565b8251156155265782518084602001fd5b8160405162461bcd60e51b8152600401612b189190615f33565b8060020b811461416457600080fd5b60008060006060848603121561556457600080fd5b833561556f81615540565b9250602084013561557f81615540565b929592945050506040919091013590565b634e487b7160e01b600052604160045260246000fd5b80356001600160801b038116811461441a57600080fd5b600060c082840312156155cf57600080fd5b60405160c0810181811067ffffffffffffffff821117156155f2576155f2615590565b604052823561560081615540565b8152602083013561561081615540565b6020820152604083013561562381615540565b6040820152606083013561563681615540565b6060820152615647608084016155a6565b608082015261565860a084016155a6565b60a08201529392505050565b6000806000806080858703121561567a57600080fd5b843561568581615540565b9350602085013561569581615540565b93969395505050506040820135916060013590565b6001600160a01b038116811461416457600080fd5b6000806000806000608086880312156156d757600080fd5b85356156e2816156aa565b94506020860135935060408601359250606086013567ffffffffffffffff8082111561570d57600080fd5b818801915088601f83011261572157600080fd5b81358181111561573057600080fd5b89602082850101111561574257600080fd5b9699959850939650602001949392505050565b600082601f83011261576657600080fd5b813567ffffffffffffffff8082111561578157615781615590565b604051601f8301601f19908116603f011681019082821181831017156157a9576157a9615590565b816040528381528660208588010111156157c257600080fd5b836020870160208301376000602085830101528094505050505092915050565b6000602082840312156157f457600080fd5b813567ffffffffffffffff81111561580b57600080fd5b613eea84828501615755565b600081518084526020808501945080840160005b838110156158505781516001600160a01b03168752958201959082019060010161582b565b509495945050505050565b6020815260006144566020830184615817565b60008060006060848603121561588357600080fd5b833561588e81615540565b9250602084013561589e81615540565b91506158ac604085016155a6565b90509250925092565b6000806000606084860312156158ca57600080fd5b83356158d5816156aa565b925060208401356158e581615540565b915060408401356158f581615540565b809150509250925092565b6000806040838503121561591357600080fd5b823561591e81615540565b9150602083013561592e81615540565b809150509250929050565b60006020828403121561594b57600080fd5b8135614456816156aa565b6000806040838503121561596957600080fd5b823567ffffffffffffffff81111561598057600080fd5b61598c85828601615755565b925050602083013561592e816156aa565b600080600080600060a086880312156159b557600080fd5b6159be866155a6565b94506159cc602087016155a6565b93506159da604087016155a6565b94979396509394606081013594506080013592915050565b600060208284031215615a0457600080fd5b813561445681615540565b634e487b7160e01b600052601160045260246000fd5b60008219821115615a3857615a38615a0f565b500190565b60006101a0820190508b82528a60208301528951604083015260208a0151606083015260408a015160808301526001600160a01b0360608b01511660a0830152615a8c60c083018a60020b9052565b615a9b60e083018960020b9052565b615aab61010083018860020b9052565b615abb61012083018760020b9052565b6001600160801b038516610140830152615adb61016083018560020b9052565b6001600160a01b0383166101808301529b9a5050505050505050505050565b60008060408385031215615b0d57600080fd5b8251615b1881615540565b6020939093015192949293505050565b60006001600160801b03808316818516808303821115615b4a57615b4a615a0f565b01949350505050565b60006001600160801b0383811690831681811015615b7357615b73615a0f565b039392505050565b84815283602082015260606040820152816060820152818360808301376000818301608090810191909152601f909201601f191601019392505050565b600082821015615bca57615bca615a0f565b500390565b8051801515811461441a57600080fd5b60008060408385031215615bf257600080fd5b615bfb83615bcf565b9150602083015161592e816156aa565b6000816000190483118215151615615c2557615c25615a0f565b500290565b634e487b7160e01b600052601260045260246000fd5b600082615c4f57615c4f615c2a565b500490565b60008160020b627fffff19811415615c6e57615c6e615a0f565b60000392915050565b60006001600160a01b0383811690831681811015615b7357615b73615a0f565b634e487b7160e01b600052603260045260246000fd5b600081600f0b6f7fffffffffffffffffffffffffffffff19811415615c6e57615c6e615a0f565b600060208284031215615ce657600080fd5b8151614456816156aa565b604081526000615d046040830185615817565b82810360208481019190915284518083528582019282019060005b81811015615d3b57845183529383019391830191600101615d1f565b5090979650505050505050565b805162ffffff8116811461441a57600080fd5b60008060008060008060c08789031215615d7457600080fd5b8651615d7f816156aa565b6020880151909650615d90816156aa565b6040880151909550615da1816156aa565b9350615daf60608801615d48565b9250615dbd60808801615d48565b9150615dcb60a08801615bcf565b90509295509295509295565b60008260020b80615dea57615dea615c2a565b808360020b0791505092915050565b60008160020b8360020b80615e1057615e10615c2a565b627fffff19821460001982141615615e2a57615e2a615a0f565b90059392505050565b6000600160ff1b821415615e4957615e49615a0f565b5060000390565b60005b83811015615e6b578181015183820152602001615e53565b83811115613db25750506000910152565b60008251615e8e818460208701615e50565b9190910192915050565b600060208284031215615eaa57600080fd5b5051919050565b600062ffffff80831681851681830481118215151615615ed357615ed3615a0f565b02949350505050565b600062ffffff80841680615ef257615ef2615c2a565b92169190910492915050565b60006001600160801b0380841680615ef257615ef2615c2a565b600060208284031215615f2a57600080fd5b61445682615bcf565b6020815260008251806020840152615f52816040850160208701615e50565b601f01601f1916919091016040019291505056fea2646970667358221220f8b978c564fd59bae6213464036348078fa45738ae8bcd0b3ccc110b0bf6aeef64736f6c63430008090033",
  "deployedBytecode": "0x608060405234801561001057600080fd5b506004361061032b5760003560e01c8063a34123a7116101b2578063cf543153116100f9578063e5ff7f46116100a2578063f7c618c11161007c578063f7c618c1146108d2578063f949e8b7146108e5578063fa1a169c146108ed578063fb5d80b3146108f657600080fd5b8063e5ff7f46146107b9578063f30dba93146107cc578063f719dac61461087457600080fd5b8063d21220a7116100d3578063d21220a714610773578063d551479214610786578063d90bda4e146107a657600080fd5b8063cf54315314610743578063cf78756b14610756578063d0c93a7c1461075e57600080fd5b8063bd7d1eea1161015b578063c993642011610135578063c993642014610720578063caa4b46a14610728578063cce2df031461073057600080fd5b8063bd7d1eea146106e7578063c03c2514146106fa578063c45a01551461070d57600080fd5b8063b0e21e8a1161018c578063b0e21e8a1461062a578063b2f4bdb014610633578063bcdb4dad1461063c57600080fd5b8063a34123a714610572578063aaca1b4d14610585578063acfe88f81461061757600080fd5b806367e4ac2c116102765780638c347f9b1161021f5780639da12096116101f95780639da1209614610530578063a00e8f2914610538578063a035b1fe1461055f57600080fd5b80638c347f9b146104f55780638f10369a1461051e578063956afe451461052757600080fd5b8063735541d111610250578063735541d1146104db57806384e02017146104e45780638ba310a2146104ed57600080fd5b806367e4ac2c146104915780636d59d802146104a657806370ed1b86146104d257600080fd5b80632df94b0f116102d857806354cf2aeb116102b257806354cf2aeb14610449578063627dd56a1461047557806366f657c51461048857600080fd5b80632df94b0f1461040357806340306fb61461042b578063490e6cbc1461043457600080fd5b80630dfe1681116103095780630dfe1681146103a4578063111ba27d146103cf5780631a686502146103d857600080fd5b806306f912f3146103305780630902f1ac146103565780630ae9ba8a14610391575b600080fd5b61034361033e36600461554f565b610915565b6040519081526020015b60405180910390f35b6014546015546001600160801b03600160801b909204821691165b604080516001600160801b0393841681529290911660208301520161034d565b61034361039f3660046155bd565b61097d565b6003546103b7906001600160a01b031681565b6040516001600160a01b03909116815260200161034d565b61034360215481565b6006546103eb906001600160801b031681565b6040516001600160801b03909116815260200161034d565b610416610411366004615664565b610f02565b6040805192835260208301919091520161034d565b610343600e5481565b6104476104423660046156bf565b611088565b005b6000546104619065010000000000900462ffffff1681565b60405162ffffff909116815260200161034d565b6103436104833660046157e2565b611509565b610343600c5481565b610499611bcb565b60405161034d919061585b565b600754604080516001600160a01b0383168152600160a01b90920463ffffffff1660208301520161034d565b61034360095481565b610343601b5481565b610343600d5481565b610343611c5f565b601954604080516001600160a01b0383168152600160a01b90920460020b60208301520161034d565b61034360125481565b610343600f5481565b610343611d29565b60195461054c90600160a01b900460020b81565b60405160029190910b815260200161034d565b6019546103b7906001600160a01b031681565b61041661058036600461586e565b611d71565b6105e16105933660046158b5565b601e60209081526000938452604080852082529284528284209052825290208054600182015460028301546003909301546001600160801b0392831693919281811691600160801b90041685565b604080516001600160801b039687168152602081019590955284019290925283166060830152909116608082015260a00161034d565b610416610625366004615900565b61212b565b6103436103e881565b61034360205481565b6106926000546005546001546003546004546001600160801b03680100000000000000008604169562ffffff62010000870481169665010000000000900416946001600160a01b03908116948116938116921690565b604080516001600160801b03909816885262ffffff968716602089015295909416948601949094526001600160a01b0391821660608601528116608085015291821660a08401521660c082015260e00161034d565b6104476106f5366004615939565b612490565b610343610708366004615900565b6124dd565b6005546103b7906001600160a01b031681565b6103436125e8565b6103716126f1565b61044761073e366004615956565b612a8b565b61044761075136600461599d565b612fa8565b610343613309565b6000546104619062010000900462ffffff1681565b6004546103b7906001600160a01b031681565b6103436107943660046159f2565b601d6020526000908152604090205481565b6104476107b4366004615939565b613342565b6013546103eb906001600160801b031681565b6108296107da3660046159f2565b601c6020526000908152604090208054600182015460028084015460039094015483820b946301000000850490920b93600160301b90046001600160801b03169291906001600160a01b031686565b60408051600297880b81529590960b60208601526001600160801b0390931694840194909452606083015260808201929092526001600160a01b0390911660a082015260c00161034d565b6108b56108823660046158b5565b601f602090815260009384526040808520825292845282842090528252902080546001909101546001600160801b031682565b604080519283526001600160801b0390911660208301520161034d565b6010546103b7906001600160a01b031681565b6103436133c2565b61034360085481565b6013546014546001600160801b03600160801b90920482169116610371565b6000601a546002141561093b576040516303cb96db60e21b815260040160405180910390fd5b6002601a5561094b3385856133d9565b610957338585856134b7565b601054909150610971906001600160a01b03168233613551565b6001601a559392505050565b6000601a54600214156109a3576040516303cb96db60e21b815260040160405180910390fd5b6002601a55601554600160801b900460ff166109be81613565565b6109d0836020015184606001516137b3565b60006109df84602001516138b4565b6001600160a01b0316905060006109f985606001516138b4565b60195460a087015160808801516001600160a01b0393841694509190921691610a34918591859185916001600160801b039081169116613be7565b94506f7fffffffffffffffffffffffffffffff851115610a6757604051631a93c68960e11b815260040160405180910390fd5b84610a85576040516320fb348960e21b815260040160405180910390fd5b610a8d613c7b565b6000601c73__$5c5207d55745a34649a0c7f595c6a505bf$__63825c72999091601d6040518060800160405280600a54600854610aca9190615a25565b8152602001600b54600954610adf9190615a25565b81526020016011548152602001600760009054906101000a90046001600160a01b03166001600160a01b03168152508b600001518c602001518d604001518e606001518e601960149054906101000a900460020b8c6040518b63ffffffff1660e01b8152600401610b599a99989796959493929190615a3d565b604080518083038186803b158015610b7057600080fd5b505af4158015610b84573d6000803e3d6000fd5b505050506040513d601f19601f82011682018060405250810190610ba89190615afa565b6019805462ffffff909316600160a01b0262ffffff60a01b1990931692909217909155601b80549192508291600090610be2908490615a25565b9250508190555050610bfe338760200151886060015188613d90565b808311158015610c0d57508181105b15610c555760068054869190600090610c309084906001600160801b0316615b28565b92506101000a8154816001600160801b0302191690836001600160801b031602179055505b600080610c668585858a6001613db8565b60035460048054604051632f8b294d60e11b81526001600160a01b03938416928101929092529190911660248201526001600160801b0380841660448301528216606482015291935091503390635f16529a90608401600060405180830381600087803b158015610cd657600080fd5b505af1158015610cea573d6000803e3d6000fd5b50505050816001600160801b0316600014610d975781601460108282829054906101000a90046001600160801b0316610d239190615b28565b92506101000a8154816001600160801b0302191690836001600160801b03160217905550610d65600360009054906101000a90046001600160a01b0316613e22565b601454600160801b90046001600160801b03161115610d975760405163420231d560e11b815260040160405180910390fd5b6001600160801b03811615610e315760158054829190600090610dc49084906001600160801b0316615b28565b92506101000a8154816001600160801b0302191690836001600160801b03160217905550610e06600460009054906101000a90046001600160a01b0316613e22565b6015546001600160801b03161115610e3157604051637218102160e11b815260040160405180910390fd5b600280546040805160a08101825260208c810151850b82526060808e0151860b9183019182526001600160801b03888116848601908152908816918401918252608084018e8152945163fbad739160e01b81529351870b6004850152915190950b6024830152516044820152925160648401525160848301526001600160a01b03169063fbad73919060a401600060405180830381600087803b158015610ed757600080fd5b505af1925050508015610ee8575060015b505050505050610ef781613ef2565b506001601a55919050565b600080601a5460021415610f29576040516303cb96db60e21b815260040160405180910390fd5b6002601a55601554600160801b900460ff16610f4481613565565b610f4f338888614167565b610f5c3388888888614296565b601480549295509093508491601090610f86908490600160801b90046001600160801b0316615b53565b92506101000a8154816001600160801b0302191690836001600160801b0316021790555081601560008282829054906101000a90046001600160801b0316610fce9190615b53565b92506101000a8154816001600160801b0302191690836001600160801b03160217905550610ffd3384846143a1565b600254604080518082018252858152602081018581529151631228c47f60e01b815290516004820152905160248201526001600160a01b0390911690631228c47f90604401600060405180830381600087803b15801561105c57600080fd5b505af192505050801561106d575060015b5061107781613ef2565b506001601a55909590945092505050565b601a54600214156110ac576040516303cb96db60e21b815260040160405180910390fd5b6002601a55601554600160801b900460ff166110c781613565565b6111076040518060e00160405280600081526020016000815260200160008152602001600081526020016000815260200160008152602001600081525090565b6000806111268888600060059054906101000a900462ffffff166143cf565b6040805160e0810182528b8152602081018b90526014546001600160801b03600160801b90910481169282019290925260155482166060820152608081019390935260a08301919091526006541660c08201819052909350151591506111a19050576040516320fb348960e21b815260040160405180910390fd5b6111ac8787876143a1565b608081015160a08201516040516361c9276b60e11b8152339263c3924ed6926111db9289908990600401615b7b565b600060405180830381600087803b1580156111f557600080fd5b505af1158015611209573d6000803e3d6000fd5b5050600354600092508291508190611229906001600160a01b0316613e22565b600454909150600090611244906001600160a01b0316613e22565b9050818560800151866040015161125b9190615a25565b111561127a5760405163420231d560e11b815260040160405180910390fd5b808560a00151866060015161128f9190615a25565b11156112ae57604051637218102160e11b815260040160405180910390fd5b6112b782614404565b601480546001600160801b03928316600160801b0292169190911790556112dd81614404565b601580546001600160801b0319166001600160801b0392909216919091179055604085015161130c9083615bb8565b935084606001518161131e9190615bb8565b92506103e891505082156113c457600061133b848361271061441f565b905080601360108282829054906101000a90046001600160801b03166113619190615b28565b92506101000a8154816001600160801b0302191690836001600160801b031602179055506113ac816001600160801b03168561139d9190615bb8565b600160801b8760c0015161445d565b600860008282546113bd9190615a25565b9091555050505b811561144d5760006113d9838361271061441f565b6014805491925082916000906113f99084906001600160801b0316615b28565b92506101000a8154816001600160801b0302191690836001600160801b03160217905550611435816001600160801b03168461139d9190615bb8565b600960008282546114469190615a25565b9091555050505b6002546040805160a0810182523381528651602080830191825288015182840190815260608301888152608084018881529451630a61fef360e21b815293516001600160a01b039081166004860152925160248501529051604484015251606483015291516084820152911690632987fbcc9060a401600060405180830381600087803b1580156114dd57600080fd5b505af19250505080156114ee575060015b50505050506114fc81613ef2565b50506001601a5550505050565b6000601a546002141561152f576040516303cb96db60e21b815260040160405180910390fd5b6002601a55601554600160801b900460ff1661154a81613565565b600080848060200190518101906115619190615bdf565b9150915060008261157d576015546001600160801b0316611591565b601454600160801b90046001600160801b03165b6001600160801b03166115c4846115b3576004546001600160a01b0316613e22565b6003546001600160a01b0316613e22565b6115ce9190615bb8565b905060006040518061012001604052806000815260200160008152602001600081526020018561160057600854611604565b6009545b8152602001856116165760095461161a565b6008545b81526019546001600160a01b031660208201526006546001600160801b03166040820152606081018490526080018561167957601954600160a01b9004600290810b6000908152601c602052604090205463010000009004900b611687565b601954600160a01b900460020b5b60020b90529050611696613c7b565b6011546116a282614510565b60e082015115611a355760006116bc8361010001516138b4565b6001600160a01b0316905060008087156117ed5760006116e78660c00151858860a00151600061456b565b9050808660e00151116117ad5760c086015160a087015160e088015160609290921b9160009161172d9184919061171e9082615c0b565b6117289086615a25565b61441f565b905080861115801561174257508760a0015181105b61178057611774828960e001518a60a001518561175f9190615c40565b6117699190615a25565b808204910615150190565b6001600160a01b031690505b6117958860c00151828a60a0015160006145c3565b60a0890191909152600060e089015293506117e79050565b6117c28660c00151858860a0015160006145c3565b60a0870185905260e0870180519194506001935082916117e3908390615bb8565b9052505b506118a2565b60006118048660c001518760a001518660006145c3565b9050808660e001511161186657600061182a8760e00151600160601b8960c0015161445d565b8760a001516118399190615a25565b90506118508760c001518860a0015183600061456b565b60a0880191909152600060e088015292506118a0565b61187b8660c001518760a0015186600061456b565b60a0870185905260e08701805191945060019350829161189c908390615bb8565b9052505b505b60c0850151156118f4576118df82600060059054906101000a900462ffffff166103e88860c0015189602001518f8b604001518c606001516145ed565b60608901526040880152602087019190915299505b8015611a2d5761190585858a614685565b60c0850151611a2d5761010085015160020b620d89e719148061193e5750611930620d89e719615c54565b60020b85610100015160020b145b15611a065787156119915761196860018660a0015161195d9190615bb8565b6401000276a36147a9565b60a086015261010085018051600290810b6000908152601c6020526040902054900b90526119fe565b6119d28560a0015160016119a59190615a25565b6119c4600173fffd8963efd1fc6a506488495d951d5263988d26615c77565b6001600160a01b03166147c0565b60a086015261010085018051600290810b6000908152601c602052604090205463010000009004900b90525b505050611a35565b611a148561010001516138b4565b6001600160a01b031660a0860152611a2d85858a614685565b5050506116a2565b60a0820151601980546001600160a01b0319166001600160a01b03909216919091179055600085611a8157610100830151600290810b6000908152601c6020526040902054900b611a88565b8261010001515b601954909150600282810b600160a01b909204900b14611ae3576019805462ffffff60a01b1916600160a01b62ffffff84160217905560c0830151600680546001600160801b0319166001600160801b039092169190911790555b611aee86858a6147cf565b611b01868460600151856040015161490b565b8515611b2357600454611b1e906001600160a01b03168987613551565b611b3a565b600354611b3a906001600160a01b03168987613551565b600254604080516060810182528815158152602081018781528183018c815292516391accd5f60e01b8152915115156004830152516024820152905160448201526001600160a01b03909116906391accd5f90606401600060405180830381600087803b158015611baa57600080fd5b505af1925050508015611bbb575060015b50505050505050610ef781613ef2565b6040805160028082526060808301845292602083019080368337505060035482519293506001600160a01b031691839150600090611c0b57611c0b615c97565b6001600160a01b039283166020918202929092010152600454825191169082906001908110611c3c57611c3c615c97565b60200260200101906001600160a01b031690816001600160a01b03168152505090565b601554600090600160801b900460ff1681611c7982614987565b9050600082611c93576015546001600160801b0316611ca7565b601454600160801b90046001600160801b03165b9050806001600160801b0316826001600160801b031611611cea57601654601854611ce291600160801b90046001600160801b031690615a25565b935050505090565b6016546018546001600160801b038084169285821692611d1592600160801b90920490911690615a25565b611d1f9190615a25565b611ce29190615bb8565b6015546000908190600160801b900460ff16611d46576000611d4e565b611d4e6125e8565b9050611d61600854600a54600c54614a34565b611d6b9082615a25565b91505090565b600080601a5460021415611d98576040516303cb96db60e21b815260040160405180910390fd5b6002601a55601554600160801b900460ff16611db381613565565b6000611dbe876138b4565b90506000611dcb876138b4565b6019549091506001600160a01b0316611de2613c7b565b806001600160a01b0316836001600160a01b031611158015611e155750816001600160a01b0316816001600160a01b0316105b15611e3d57600680546001600160801b038082168a9003166001600160801b03199091161790555b611e6f836001600160a01b0316836001600160a01b0316836001600160a01b03168a6001600160801b03166000613db8565b6001600160801b039182169750811695506f7fffffffffffffffffffffffffffffff9088161115611eb357604051631a93c68960e11b815260040160405180910390fd5b611ec7338a8a611ec28b615cad565b613d90565b85601460108282829054906101000a90046001600160801b0316611eeb9190615b53565b92506101000a8154816001600160801b0302191690836001600160801b0316021790555084601560008282829054906101000a90046001600160801b0316611f339190615b53565b92506101000a8154816001600160801b0302191690836001600160801b03160217905550611f623387876143a1565b601954604051630f92397360e31b8152601c6004820152601d602482015260028b810b60448301528a810b60648301526001600160801b038a166084830152600160a01b90920490910b60a482015260009073__$5c5207d55745a34649a0c7f595c6a505bf$__90637c91cb989060c401604080518083038186803b158015611fea57600080fd5b505af4158015611ffe573d6000803e3d6000fd5b505050506040513d601f19601f820116820180604052508101906120229190615afa565b6019805462ffffff909316600160a01b0262ffffff60a01b1990931692909217909155601b8054919250829160009061205c908490615bb8565b9091555050600280546040805160a0810182528d840b81528c840b602082019081528183018c8152606083018c81526001600160801b038f16608085019081529451637e4a416960e11b81529351870b6004850152915190950b602483015293516044820152925160648401525160848301526001600160a01b0316915063fc9482d29060a401600060405180830381600087803b1580156120fd57600080fd5b505af192505050801561210e575060015b5050505061211b81613ef2565b506001601a559094909350915050565b60195460009081908190612147906001600160a01b0316614a94565b90506000601c60008760020b60020b81526020019081526020016000206040518060c00160405290816000820160009054906101000a900460020b60020b60020b81526020016000820160039054906101000a900460020b60020b60020b81526020016000820160069054906101000a90046001600160801b03166001600160801b03166001600160801b0316815260200160018201548152602001600282015481526020016003820160009054906101000a90046001600160a01b03166001600160a01b03166001600160a01b03168152505090506000601c60008760020b60020b81526020019081526020016000206040518060c00160405290816000820160009054906101000a900460020b60020b60020b81526020016000820160039054906101000a900460020b60020b60020b81526020016000820160069054906101000a90046001600160801b03166001600160801b03166001600160801b0316815260200160018201548152602001600282015481526020016003820160009054906101000a90046001600160a01b03166001600160a01b03166001600160a01b031681525050905060008060008061231e600660009054906101000a90046001600160801b03166001600160801b0316614da7565b9150915081600a546008546123339190615a25565b61233d9190615a25565b935080600b546009546123509190615a25565b61235a9190615a25565b92505050601560109054906101000a900460ff161561238c5761237b6125e8565b6123859083615a25565b91506123a1565b6123946125e8565b61239e9082615a25565b90505b6000808660020b8b60020b136123d95760608601516123c09083615a25565b91508560800151816123d29190615a25565b9050612411565b60608601516123e89085615bb8565b6123f29083615a25565b91508560800151836124049190615bb8565b61240e9082615a25565b90505b8960020b8760020b121561244757606085015161242e9083615a25565b91508460800151816124409190615a25565b905061247f565b60608501516124569085615bb8565b6124609083615a25565b91508460800151836124729190615bb8565b61247c9082615a25565b90505b920399919003975095505050505050565b6005546001600160a01b031633146124bb5760405163ea8e4eb560e01b815260040160405180910390fd5b600280546001600160a01b0319166001600160a01b0392909216919091179055565b60195460009081906124f7906001600160a01b0316614a94565b600654909150600090612512906001600160801b0316614dea565b60115461251f9190615a25565b905060008260020b8660020b1361255557600286900b6000908152601d602052604090205461254e9082615a25565b9050612580565b600286900b6000908152601d60205260409020546125739083615bb8565b61257d9082615a25565b90505b8460020b8360020b12156125b357600285900b6000908152601d60205260409020546125ac9082615a25565b90506125de565b600285900b6000908152601d60205260409020546125d19083615bb8565b6125db9082615a25565b90505b9003949350505050565b601554600090600160801b900460ff168161260282614987565b905060008261261c576015546001600160801b0316612630565b601454600160801b90046001600160801b03165b6001600160801b0316905080826001600160801b03161161265657601754935050505090565b6006546001600160801b0316806126735760175494505050505090565b6016546000906001600160801b03600160801b9091048116906126999085908716615bb8565b6126a39190615a25565b905060006126b6826103e861271061441f565b90506126d96126ce6001600160801b03831684615bb8565b600160801b8561445d565b6017546126e69190615a25565b965050505050505090565b600080601a5460021415612718576040516303cb96db60e21b815260040160405180910390fd5b6002601a55601554600160801b900460ff1661273381613565565b6001546040805163779b492960e11b815290516000926001600160a01b03169163ef369252916004808301926020929190829003018186803b15801561277857600080fd5b505afa15801561278c573d6000803e3d6000fd5b505050506040513d601f19601f820116820180604052508101906127b09190615cd4565b604080516002808252606082018352929350600092909160208301908036833750506040805160028082526060820183529394506000939092509060208301908036833701905050601354909150600160801b90046001600160801b03161561290457601380546001600160801b0380821690925560148054600160801b92839004841699508993919260109261284b928692900416615b53565b92506101000a8154816001600160801b0302191690836001600160801b03160217905550612898600360009054906101000a90046001600160a01b0316876001600160801b031685613551565b60035482516001600160a01b039091169083906000906128ba576128ba615c97565b60200260200101906001600160a01b031690816001600160a01b031681525050856001600160801b0316816000815181106128f7576128f7615c97565b6020026020010181815250505b6014546001600160801b031615612a0457601480546001600160801b03198116909155601580546001600160801b039283169750879260009161294991859116615b53565b92506101000a8154816001600160801b0302191690836001600160801b03160217905550612996600460009054906101000a90046001600160a01b0316866001600160801b031685613551565b60045482516001600160a01b0390911690839060019081106129ba576129ba615c97565b60200260200101906001600160a01b031690816001600160a01b031681525050846001600160801b0316816001815181106129f7576129f7615c97565b6020026020010181815250505b6001600160a01b0383163b15612a7557604051630f03328360e41b81526001600160a01b0384169063f033283090612a429085908590600401615cf1565b600060405180830381600087803b158015612a5c57600080fd5b505af1158015612a70573d6000803e3d6000fd5b505050505b505050612a8181613ef2565b506001601a559091565b600054610100900460ff16612aa65760005460ff1615612aaa565b303b155b612b215760405162461bcd60e51b815260206004820152602e60248201527f496e697469616c697a61626c653a20636f6e747261637420697320616c72656160448201527f647920696e697469616c697a656400000000000000000000000000000000000060648201526084015b60405180910390fd5b600054610100900460ff16158015612b43576000805461ffff19166101011790555b60008060008060008088806020019051810190612b609190615d5b565b95509550955095509550955085600360006101000a8154816001600160a01b0302191690836001600160a01b0316021790555084600460006101000a8154816001600160a01b0302191690836001600160a01b0316021790555083601060006101000a8154816001600160a01b0302191690836001600160a01b0316021790555082600060056101000a81548162ffffff021916908362ffffff16021790555081600060026101000a81548162ffffff021916908362ffffff16021790555033600560006101000a8154816001600160a01b0302191690836001600160a01b0316021790555087600160006101000a8154816001600160a01b0302191690836001600160a01b0316021790555080601560106101000a81548160ff021916908315150217905550612c9082614e12565b600060086101000a8154816001600160801b0302191690836001600160801b031602179055506040518060c00160405280620d89e71960020b8152602001620d89e719612cdc90615c54565b60020b815260006020808301829052604080840183905260608085018490526080948501849052620d89e71993849052601c835285517f312e29fa10e2dff7af4afff8ca91ba272d48aceeec966ecfff784af0b0aa924c805488860151898601516001600160801b0316600160301b0275ffffffffffffffffffffffffffffffff0000000000001962ffffff92831663010000000265ffffffffffff19909416929095169190911791909117929092169190911790558501517f312e29fa10e2dff7af4afff8ca91ba272d48aceeec966ecfff784af0b0aa924d55928401517f312e29fa10e2dff7af4afff8ca91ba272d48aceeec966ecfff784af0b0aa924e5560a0909301517f312e29fa10e2dff7af4afff8ca91ba272d48aceeec966ecfff784af0b0aa924f80546001600160a01b03929092166001600160a01b0319909216919091179055815160c081019092528082529091820190612e3e90615c54565b60020b815260200160006001600160801b03168152602001600081526020016000815260200160006001600160a01b0316815250601c6000620d89e719612e8490615c54565b600290810b825260208083019390935260409182016000208451815486860151948701516001600160801b0316600160301b0275ffffffffffffffffffffffffffffffff0000000000001962ffffff96871663010000000265ffffffffffff1990931696909316959095171716929092178255606084015160018084019190915560808501518383015560a090940151600390920180546001600160a01b039093166001600160a01b03199093169290921790915560198054621e4ec360a31b62ffffff60a01b19909116179055601a929092556007805463ffffffff42908116600160a01b0263ffffffff60a01b1990921691909117909155601b9290925555505043602155505082159150612fa39050576000805461ff00191690555b505050565b601a5460021415612fcc576040516303cb96db60e21b815260040160405180910390fd5b6002601a55601554600160801b900460ff16612fe781613565565b6001546040805163d0a9317360e01b8152905133926001600160a01b03169163d0a931739160048083019260209291908290030181600087803b15801561302d57600080fd5b505af1158015613041573d6000803e3d6000fd5b505050506040513d601f19601f820116820180604052508101906130659190615cd4565b6001600160a01b03161461308c5760405163ea8e4eb560e01b815260040160405180910390fd5b426130978385615a25565b116130b557604051633494a40d60e21b815260040160405180910390fd5b600e54600f546000906130c89083615a25565b9050848111156130eb57604051633494a40d60e21b815260040160405180910390fd5b6001600160801b0388161561316257600354613119906001600160a01b03166001600160801b038a16614e52565b87601460108282829054906101000a90046001600160801b031661313d9190615b28565b92506101000a8154816001600160801b0302191690836001600160801b031602179055505b6001600160801b038716156131d357600454613190906001600160a01b03166001600160801b038916614e52565b601580548891906000906131ae9084906001600160801b0316615b28565b92506101000a8154816001600160801b0302191690836001600160801b031602179055505b6001600160801b0386161561320157601054613201906001600160a01b03166001600160801b038816614e52565b600061320b614e67565b11156132a357613219613c7b565b600754600160a01b900463ffffffff16818110156132a157600061323d82856147a9565b6132479084615bb8565b905061325d613258600c5483614ec5565b614404565b613267908b615b28565b9950613278613258600d5483614ec5565b613282908a615b28565b985061329361325860125483614ec5565b61329d9089615b28565b9750505b505b6132bb886001600160801b0316600160801b8661445d565b600c556132d66001600160801b038816600160801b8661445d565b600d556132f16001600160801b038716600160801b8661445d565b6012555050600e839055600f8290556114fc81613ef2565b6015546000908190600160801b900460ff1661332c576133276125e8565b61332f565b60005b9050611d61600954600b54600d54614a34565b6005546001600160a01b0316331461336d5760405163ea8e4eb560e01b815260040160405180910390fd5b6019546001600160a01b03161561339757604051630bca0b1b60e21b815260040160405180910390fd5b6133a081614ed6565b601980546001600160a01b0319166001600160a01b0392909216919091179055565b60006133d46000601154601254614a34565b905090565b6001600160a01b0383166000908152601f60209081526040808320600286810b85529083528184209085900b845290915281209061341784846124dd565b82546001600160a01b0387166000908152601e6020908152604080832060028a810b85529083528184209089900b845290915281205492935091613466918403906001600160801b0316614ec5565b828455600184018054919250829160009061348b9084906001600160801b0316615b28565b92506101000a8154816001600160801b0302191690836001600160801b03160217905550505050505050565b6001600160a01b0384166000908152601f60209081526040808320600287810b85529083528184209086900b845290915281206001810154613502906001600160801b0316846147c0565b60018201805491935083916000906135249084906001600160801b0316615b53565b92506101000a8154816001600160801b0302191690836001600160801b0316021790555050949350505050565b612fa36001600160a01b0384168284614f2d565b600061357082614987565b905060008261358a576015546001600160801b031661359e565b601454600160801b90046001600160801b03165b9050806001600160801b0316826001600160801b0316116135be57505050565b82156135e357601480546001600160801b03808516600160801b0291161790556135ff565b601580546001600160801b0319166001600160801b0384161790555b600061360b8284615b53565b6006549091506001600160801b03168061366e5781601660108282829054906101000a90046001600160801b03166136439190615b28565b92506101000a8154816001600160801b0302191690836001600160801b031602179055505050505050565b601654600160801b90046001600160801b031680156136a3576136918184615b28565b601680546001600160801b0316905592505b60006136bd846001600160801b03166103e861271061441f565b905086156137125780601360108282829054906101000a90046001600160801b03166136e99190615b28565b92506101000a8154816001600160801b0302191690836001600160801b03160217905550613755565b601480548291906000906137309084906001600160801b0316615b28565b92506101000a8154816001600160801b0302191690836001600160801b031602179055505b61377f6137628286615b53565b6001600160801b0316600160801b856001600160801b031661445d565b601760008282546137909190615a25565b9091555050601880546001600160801b0390951694909401909355505050505050565b6000546137cb9062010000900462ffffff1683615dd7565b60020b156137ec576040516333a3bdff60e21b815260040160405180910390fd5b6000546002906138079062010000900462ffffff1684615df9565b6138119190615dd7565b60020b1561383257604051637ef8a10160e11b815260040160405180910390fd5b60005461384a9062010000900462ffffff1682615dd7565b60020b1561386b576040516333a3bdff60e21b815260040160405180910390fd5b6000546002906138869062010000900462ffffff1683615df9565b6138909190615dd7565b60020b6138b05760405163a9778c6360e01b815260040160405180910390fd5b5050565b60008060008360020b126138cb578260020b6138d8565b8260020b6138d890615e33565b90506138e7620d89e719615c54565b62ffffff1681111561390c57604051633e1f710360e21b815260040160405180910390fd5b60006001821661392057600160801b613932565b6ffffcb933bd6fad37aa2d162d1a5940015b70ffffffffffffffffffffffffffffffffff1690506002821615613966576ffff97272373d413259a46990580e213a0260801c5b6004821615613985576ffff2e50f5f656932ef12357cf3c7fdcc0260801c5b60088216156139a4576fffe5caca7e10e4e61c3624eaa0941cd00260801c5b60108216156139c3576fffcb9843d60f6159c9db58835c9266440260801c5b60208216156139e2576fff973b41fa98c081472e6896dfb254c00260801c5b6040821615613a01576fff2ea16466c96a3843ec78b326b528610260801c5b6080821615613a20576ffe5dee046a99a2a811c461f1969c30530260801c5b610100821615613a40576ffcbe86c7900a88aedcffc83b479aa3a40260801c5b610200821615613a60576ff987a7253ac413176f2b074cf7815e540260801c5b610400821615613a80576ff3392b0822b70005940c7a398e4b70f30260801c5b610800821615613aa0576fe7159475a2c29b7443b29c7fa6e889d90260801c5b611000821615613ac0576fd097f3bdfd2022b8845ad8f792aa58250260801c5b612000821615613ae0576fa9f746462d870fdf8a65dc1f90e061e50260801c5b614000821615613b00576f70d869a156d2a1b890bb3df62baf32f70260801c5b618000821615613b20576f31be135f97d08fd981231505542fcfa60260801c5b62010000821615613b41576f09aa508b5b7a84e1c677de54f3e99bc90260801c5b62020000821615613b61576e5d6af8dedb81196699c329225ee6040260801c5b62040000821615613b80576d2216e584f5fa1ea926041bedfe980260801c5b62080000821615613b9d576b048a170391f7dc42444e8fa20260801c5b60008460020b1315613bbe578060001981613bba57613bba615c2a565b0490505b640100000000810615613bd2576001613bd5565b60005b60ff16602082901c0192505050919050565b6000838511613c0857613c0183600160601b88880361445d565b9050613c72565b858411613c2a57613c0182613c228888600160601b61445d565b88880361445d565b6000613c4783613c3f8888600160601b61445d565b87890361445d565b90506000613c5c85600160601b8a890361445d565b9050808210613c6b5780613c6d565b815b925050505b95945050505050565b6006546001600160801b031680613c8f5750565b600754600160a01b900463ffffffff16428110613caa575050565b6000613cb4614e67565b90508015613d2857613cc9600c54828561445d565b600a6000828254613cda9190615a25565b9091555050600d54613ced90828561445d565b600b6000828254613cfe9190615a25565b9091555050601254613d1190828561445d565b60116000828254613d229190615a25565b90915550505b6007805463ffffffff42908116600160a01b0263ffffffff60a01b1990921691909117909155839083900360801b81613d6357613d63615c2a565b600780546001600160a01b03198116939092046001600160a01b0392831601909116919091179055505050565b613d9b848484614167565b613da68484846133d9565b613db284848484614fa8565b50505050565b600080848611613dd857613dd1613258858989876145c3565b9050613e18565b868511613df557613dee6132588589898761456b565b9150613e18565b613e046132588587898761456b565b9150613e15613258858988876145c3565b90505b9550959350505050565b604080513060248083019190915282518083039091018152604490910182526020810180516001600160e01b03166370a0823160e01b1790529051600091829182916001600160a01b03861691613e799190615e7c565b600060405180830381855afa9150503d8060008114613eb4576040519150601f19603f3d011682016040523d82523d6000602084013e613eb9565b606091505b5091509150818015613ecd57506020815110155b613ed657600080fd5b80806020019051810190613eea9190615e98565b949350505050565b801561402d57600354604051633d7ad0b760e21b81523060048201526001600160a01b0390911690819063f5eb42dc9060240160206040518083038186803b158015613f3d57600080fd5b505afa158015613f51573d6000803e3d6000fd5b505050506040513d601f19601f82011682018060405250810190613f759190615e98565b601680546001600160801b0319166001600160801b03929092169190911790556040516370a0823160e01b81523060048201526001600160a01b038216906370a082319060240160206040518083038186803b158015613fd457600080fd5b505afa158015613fe8573d6000803e3d6000fd5b505050506040513d601f19601f8201168201806040525081019061400c9190615e98565b601480546001600160801b03928316600160801b0292169190911790555050565b60048054604051633d7ad0b760e21b815230928101929092526001600160a01b031690819063f5eb42dc9060240160206040518083038186803b15801561407357600080fd5b505afa158015614087573d6000803e3d6000fd5b505050506040513d601f19601f820116820180604052508101906140ab9190615e98565b601680546001600160801b0319166001600160801b03929092169190911790556040516370a0823160e01b81523060048201526001600160a01b038216906370a082319060240160206040518083038186803b15801561410a57600080fd5b505afa15801561411e573d6000803e3d6000fd5b505050506040513d601f19601f820116820180604052508101906141429190615e98565b601580546001600160801b0319166001600160801b0392909216919091179055505b50565b6001600160a01b0383166000908152601e60209081526040808320600286810b85529083528184209085900b8452909152812090806141a6858561212b565b6001850154855492945090925060009182916141ce91908603906001600160801b0316614ec5565b600286015486549193506141ee91908503906001600160801b0316614ec5565b6001860185905560028601849055600386018054919250839160009061421e9084906001600160801b0316615b28565b92506101000a8154816001600160801b0302191690836001600160801b03160217905550808560030160108282829054906101000a90046001600160801b03166142689190615b28565b92506101000a8154816001600160801b0302191690836001600160801b031602179055505050505050505050565b6001600160a01b0385166000908152601e60209081526040808320600288810b85529083528184209087900b8452909152812060038101548291906142e4906001600160801b0316866147c0565b600382015490935061430690600160801b90046001600160801b0316856147c0565b60038201805491935084916000906143289084906001600160801b0316615b53565b92506101000a8154816001600160801b0302191690836001600160801b03160217905550818160030160108282829054906101000a90046001600160801b03166143729190615b53565b92506101000a8154816001600160801b0302191690836001600160801b03160217905550509550959350505050565b6003546143b8906001600160a01b03168385613551565b600454612fa3906001600160a01b03168285613551565b6000806143e5858462ffffff16620f424061441f565b91506143fa848462ffffff16620f424061441f565b9050935093915050565b806001600160801b038116811461441a57600080fd5b919050565b600061442c84848461445d565b9050818061443c5761443c615c2a565b8385091561445657600019811061445257600080fd5b6001015b9392505050565b600080806000198587098587029250828110838203039150508060001415614497576000841161448c57600080fd5b508290049050614456565b8084116144a357600080fd5b6000848688096000868103871696879004966002600389028118808a02820302808a02820302808a02820302808a02820302808a02820302808a02909103029181900381900460010186841190950394909402919094039290920491909117919091029150509392505050565b60c08101511561451d5750565b61010081015160020b620d89e719148061454d575061453f620d89e719615c54565b60020b81610100015160020b145b156141645760405163035d2ccd60e51b815260040160405180910390fd5b6000811561459a57614593614587606087901b8686038661441f565b85808204910615150190565b9050613eea565b836145ac606087901b8286038661445d565b816145b9576145b9615c2a565b0495945050505050565b600081156145dc5761459385858503600160601b61441f565b613c7285858503600160601b61445d565b60008060008060006146088d8d62ffffff16620f424061441f565b9050614614818a615a25565b9850614620818e615bb8565b61462a9089615a25565b9750600061463b828d61271061441f565b90506146478189615a25565b97506146538183615bb8565b915061466482600160801b8d61445d565b61466e9088615a25565b999e989d50969b5097995095975050505050505050565b601554600090600160801b900460ff166146a05760006146a4565b6017545b601554909150600090600160801b900460ff166146c3576017546146c6565b60005b61010086015160075460c088015192935061479192601d92916001600160a01b031690876147105786600a548b606001516147019190615a25565b61470b9190615a25565b61472d565b85600b548b606001516147239190615a25565b61472d9190615a25565b886147545786600b548c608001516147459190615a25565b61474f9190615a25565b614771565b87600a548c608001516147679190615a25565b6147719190615a25565b600054601c969594939291908c908c9062010000900462ffffff1661509c565b60020b61010087015260c09095019490945250505050565b6000818310156147b95781614456565b5090919050565b60008183106147b95781614456565b821561486e576003546000906147ed906001600160a01b0316613e22565b601454909150600090614811908590600160801b90046001600160801b0316615b28565b905081816001600160801b0316111561483d5760405163420231d560e11b815260040160405180910390fd5b601480546001600160801b03908116600160801b848316021790915560158054859260009161364391859116615b53565b600454600090614886906001600160a01b0316613e22565b6015549091506000906148a39085906001600160801b0316615b28565b905081816001600160801b031611156148cf57604051637218102160e11b815260040160405180910390fd5b601580546001600160801b0319166001600160801b0383811691909117909155601480548592601091613643918591600160801b900416615b53565b821561495d576009829055601480548291906000906149349084906001600160801b0316615b28565b92506101000a8154816001600160801b0302191690836001600160801b03160217905550505050565b600882905560138054829190601090614934908490600160801b90046001600160801b0316615b28565b600080826149a0576004546001600160a01b03166149ad565b6003546001600160a01b03165b601654604051632cc7243560e21b81526001600160801b0390911660048201529091506001600160a01b0382169063b31c90d49060240160206040518083038186803b1580156149fc57600080fd5b505afa158015614a10573d6000803e3d6000fd5b505050506040513d601f19601f820116820180604052508101906144569190615e98565b600080614a3f614e67565b6006549091506001600160801b03168115801590614a5d5750600081115b15614a8a57614a6d84838361445d565b614a778688615a25565b614a819190615a25565b92505050614456565b614a818587615a25565b60006401000276a36001600160a01b0383161080614acf575073fffd8963efd1fc6a506488495d951d5263988d266001600160a01b03831610155b15614aed57604051636e4ba61d60e01b815260040160405180910390fd5b77ffffffffffffffffffffffffffffffffffffffff00000000602083901b166001600160801b03811160071b81811c67ffffffffffffffff811160061b90811c63ffffffff811160051b90811c61ffff811160041b90811c60ff8111600390811b91821c600f811160021b90811c918211600190811b92831c97908811961790941790921717909117171760808110614b8e57607f810383901c9150614b98565b80607f0383901b91505b908002607f81811c60ff83811c9190911c800280831c81831c1c800280841c81841c1c800280851c81851c1c800280861c81861c1c800280871c81871c1c800280881c81881c1c800280891c81891c1c8002808a1c818a1c1c8002808b1c818b1c1c8002808c1c818c1c1c8002808d1c818d1c1c8002808e1c9c81901c9c909c1c80029c8d901c9e9d607f198f0160401b60c09190911c678000000000000000161760c19b909b1c674000000000000000169a909a1760c29990991c672000000000000000169890981760c39790971c671000000000000000169690961760c49590951c670800000000000000169490941760c59390931c670400000000000000169290921760c69190911c670200000000000000161760c79190911c670100000000000000161760c89190911c6680000000000000161760c99190911c6640000000000000161760ca9190911c6620000000000000161760cb9190911c6610000000000000161760cc9190911c6608000000000000161760cd9190911c66040000000000001617693627a301d71055774c8581026f028f6481ab7f045a5af012a19d003aa9198101608090811d906fdb2df09e81959a81455e260799a0632f8301901d600281810b9083900b14614d9857886001600160a01b0316614d7d826138b4565b6001600160a01b03161115614d925781614d9a565b80614d9a565b815b9998505050505050505050565b60008082614dba57506000928392509050565b6000614dc4614e67565b9050614dd3600c54828661445d565b9250614de2600d54828661445d565b915050915091565b600081614df957506000919050565b6000614e03614e67565b9050614456601254828561445d565b6000614e1f826002615eb1565b614e2c620d89e719615c54565b614e369190615edc565b614e4c9062ffffff166001600160801b03615efe565b92915050565b6138b06001600160a01b038316333084615322565b600e54600090428110614e7c57600091505090565b600754600f54600160a01b90910463ffffffff1690600090614e9e9084615a25565b9050818111614eb1576000935050505090565b614ebb82846147a9565b611d1f42836147c0565b60006144568383600160801b61445d565b6401000276a36001600160a01b0382161080614f0f575073fffd8963efd1fc6a506488495d951d5263988d266001600160a01b03821610155b1561416457604051636e4ba61d60e01b815260040160405180910390fd5b6040516001600160a01b038316602482015260448101829052612fa390849063a9059cbb60e01b906064015b60408051601f198184030181529190526020810180516001600160e01b03167fffffffff000000000000000000000000000000000000000000000000000000009093169290921790915261535a565b80600f0b60001415614fb957613db2565b6001600160a01b0384166000908152601e60209081526040808320600287810b85529083528184209086900b8452909152812090600f83900b1315615071578054829082906000906150159084906001600160801b0316615b28565b82546101009290920a6001600160801b03818102199093169183160217909155600054835468010000000000000000909104821691161115905061506c5760405163581a12d760e11b815260040160405180910390fd5b615095565b61507a82615cad565b815482906000906136439084906001600160801b0316615b53565b5050505050565b600288900b600090815260208b9052604081206003015481906150c8906001600160a01b03168a615c77565b60028b900b600090815260208e8152604080832060030180546001600160a01b0319166001600160a01b0395909516949094179093558d9052205461510d9086615bb8565b60028b900b600090815260208d90526040902055831561521a5760028360020b8b60020b8161513e5761513e615c2a565b0560020b8161514f5761514f615c2a565b0760020b6151845760028a900b600090815260208d90526040902054600160301b90046001600160801b0316909703966151ae565b60028a900b600090815260208d90526040902054600160301b90046001600160801b031697909701965b60028a900b600090815260208d905260409020600101546151cf9087615bb8565b60028b810b600090815260208f905260409020600181019290925501546151f69088615bb8565b60029a8b0b600090815260208e905260409020808c01919091555490990b98615310565b60028360020b8b60020b8161523157615231615c2a565b0560020b8161524257615242615c2a565b0760020b6152785760028a900b600090815260208d90526040902054600160301b90046001600160801b031697909701966152a1565b60028a900b600090815260208d90526040902054600160301b90046001600160801b0316909703965b60028a810b600090815260208e90526040902001546152c09087615bb8565b60028b810b600090815260208f90526040902090810191909155600101546152e89088615bb8565b60029a8b0b600090815260208e9052604090206001810191909155546301000000900490990b985b50959a97995096975050505050505050565b6040516001600160a01b0380851660248301528316604482015260648101829052613db29085906323b872dd60e01b90608401614f59565b60006153af826040518060400160405280602081526020017f5361666545524332303a206c6f772d6c6576656c2063616c6c206661696c6564815250856001600160a01b031661542c9092919063ffffffff16565b805190915015612fa357808060200190518101906153cd9190615f18565b612fa35760405162461bcd60e51b815260206004820152602a60248201527f5361666545524332303a204552433230206f7065726174696f6e20646964206e6044820152691bdd081cdd58d8d9595960b21b6064820152608401612b18565b6060613eea8484600085856001600160a01b0385163b61548e5760405162461bcd60e51b815260206004820152601d60248201527f416464726573733a2063616c6c20746f206e6f6e2d636f6e74726163740000006044820152606401612b18565b600080866001600160a01b031685876040516154aa9190615e7c565b60006040518083038185875af1925050503d80600081146154e7576040519150601f19603f3d011682016040523d82523d6000602084013e6154ec565b606091505b50915091506154fc828286615507565b979650505050505050565b60608315615516575081614456565b8251156155265782518084602001fd5b8160405162461bcd60e51b8152600401612b189190615f33565b8060020b811461416457600080fd5b60008060006060848603121561556457600080fd5b833561556f81615540565b9250602084013561557f81615540565b929592945050506040919091013590565b634e487b7160e01b600052604160045260246000fd5b80356001600160801b038116811461441a57600080fd5b600060c082840312156155cf57600080fd5b60405160c0810181811067ffffffffffffffff821117156155f2576155f2615590565b604052823561560081615540565b8152602083013561561081615540565b6020820152604083013561562381615540565b6040820152606083013561563681615540565b6060820152615647608084016155a6565b608082015261565860a084016155a6565b60a08201529392505050565b6000806000806080858703121561567a57600080fd5b843561568581615540565b9350602085013561569581615540565b93969395505050506040820135916060013590565b6001600160a01b038116811461416457600080fd5b6000806000806000608086880312156156d757600080fd5b85356156e2816156aa565b94506020860135935060408601359250606086013567ffffffffffffffff8082111561570d57600080fd5b818801915088601f83011261572157600080fd5b81358181111561573057600080fd5b89602082850101111561574257600080fd5b9699959850939650602001949392505050565b600082601f83011261576657600080fd5b813567ffffffffffffffff8082111561578157615781615590565b604051601f8301601f19908116603f011681019082821181831017156157a9576157a9615590565b816040528381528660208588010111156157c257600080fd5b836020870160208301376000602085830101528094505050505092915050565b6000602082840312156157f457600080fd5b813567ffffffffffffffff81111561580b57600080fd5b613eea84828501615755565b600081518084526020808501945080840160005b838110156158505781516001600160a01b03168752958201959082019060010161582b565b509495945050505050565b6020815260006144566020830184615817565b60008060006060848603121561588357600080fd5b833561588e81615540565b9250602084013561589e81615540565b91506158ac604085016155a6565b90509250925092565b6000806000606084860312156158ca57600080fd5b83356158d5816156aa565b925060208401356158e581615540565b915060408401356158f581615540565b809150509250925092565b6000806040838503121561591357600080fd5b823561591e81615540565b9150602083013561592e81615540565b809150509250929050565b60006020828403121561594b57600080fd5b8135614456816156aa565b6000806040838503121561596957600080fd5b823567ffffffffffffffff81111561598057600080fd5b61598c85828601615755565b925050602083013561592e816156aa565b600080600080600060a086880312156159b557600080fd5b6159be866155a6565b94506159cc602087016155a6565b93506159da604087016155a6565b94979396509394606081013594506080013592915050565b600060208284031215615a0457600080fd5b813561445681615540565b634e487b7160e01b600052601160045260246000fd5b60008219821115615a3857615a38615a0f565b500190565b60006101a0820190508b82528a60208301528951604083015260208a0151606083015260408a015160808301526001600160a01b0360608b01511660a0830152615a8c60c083018a60020b9052565b615a9b60e083018960020b9052565b615aab61010083018860020b9052565b615abb61012083018760020b9052565b6001600160801b038516610140830152615adb61016083018560020b9052565b6001600160a01b0383166101808301529b9a5050505050505050505050565b60008060408385031215615b0d57600080fd5b8251615b1881615540565b6020939093015192949293505050565b60006001600160801b03808316818516808303821115615b4a57615b4a615a0f565b01949350505050565b60006001600160801b0383811690831681811015615b7357615b73615a0f565b039392505050565b84815283602082015260606040820152816060820152818360808301376000818301608090810191909152601f909201601f191601019392505050565b600082821015615bca57615bca615a0f565b500390565b8051801515811461441a57600080fd5b60008060408385031215615bf257600080fd5b615bfb83615bcf565b9150602083015161592e816156aa565b6000816000190483118215151615615c2557615c25615a0f565b500290565b634e487b7160e01b600052601260045260246000fd5b600082615c4f57615c4f615c2a565b500490565b60008160020b627fffff19811415615c6e57615c6e615a0f565b60000392915050565b60006001600160a01b0383811690831681811015615b7357615b73615a0f565b634e487b7160e01b600052603260045260246000fd5b600081600f0b6f7fffffffffffffffffffffffffffffff19811415615c6e57615c6e615a0f565b600060208284031215615ce657600080fd5b8151614456816156aa565b604081526000615d046040830185615817565b82810360208481019190915284518083528582019282019060005b81811015615d3b57845183529383019391830191600101615d1f565b5090979650505050505050565b805162ffffff8116811461441a57600080fd5b60008060008060008060c08789031215615d7457600080fd5b8651615d7f816156aa565b6020880151909650615d90816156aa565b6040880151909550615da1816156aa565b9350615daf60608801615d48565b9250615dbd60808801615d48565b9150615dcb60a08801615bcf565b90509295509295509295565b60008260020b80615dea57615dea615c2a565b808360020b0791505092915050565b60008160020b8360020b80615e1057615e10615c2a565b627fffff19821460001982141615615e2a57615e2a615a0f565b90059392505050565b6000600160ff1b821415615e4957615e49615a0f565b5060000390565b60005b83811015615e6b578181015183820152602001615e53565b83811115613db25750506000910152565b60008251615e8e818460208701615e50565b9190910192915050565b600060208284031215615eaa57600080fd5b5051919050565b600062ffffff80831681851681830481118215151615615ed357615ed3615a0f565b02949350505050565b600062ffffff80841680615ef257615ef2615c2a565b92169190910492915050565b60006001600160801b0380841680615ef257615ef2615c2a565b600060208284031215615f2a57600080fd5b61445682615bcf565b6020815260008251806020840152615f52816040850160208701615e50565b601f01601f1916919091016040019291505056fea2646970667358221220f8b978c564fd59bae6213464036348078fa45738ae8bcd0b3ccc110b0bf6aeef64736f6c63430008090033",
  "libraries": {
    "RewardTicks": "0xaCc9af149D4E4B75304eb865B3120aF152B3652C"
  }
}