{
  "address": "0x799969c00AAD7552ab0321B9c2799471b96e0481",
  "abi": [
    {
      "inputs": [],
      "name": "AlreadyPriceInitialized",
      "type": "error"
    },
    {
      "inputs": [],
      "name": "InvalidParam",
      "type": "error"
    },
    {
      "inputs": [],
      "name": "InvalidSwapFee",
      "type": "error"
    },
    {
      "inputs": [],
      "name": "InvalidTick",
      "type": "error"
    },
    {
      "inputs": [],
      "name": "LiquidityInsufficient",
      "type": "error"
    },
    {
      "inputs": [],
      "name": "LiquidityOverflow",
      "type": "error"
    },
    {
      "inputs": [],
      "name": "LiquidityZero",
      "type": "error"
    },
    {
      "inputs": [],
      "name": "Locked",
      "type": "error"
    },
    {
      "inputs": [],
      "name": "LowerEven",
      "type": "error"
    },
    {
      "inputs": [],
      "name": "NotAuthorized",
      "type": "error"
    },
    {
      "inputs": [],
      "name": "Overflow",
      "type": "error"
    },
    {
      "inputs": [],
      "name": "PriceOutOfBounds",
      "type": "error"
    },
    {
      "inputs": [],
      "name": "TickOutOfBounds",
      "type": "error"
    },
    {
      "inputs": [],
      "name": "Token0Missing",
      "type": "error"
    },
    {
      "inputs": [],
      "name": "Token1Missing",
      "type": "error"
    },
    {
      "inputs": [],
      "name": "UpperOdd",
      "type": "error"
    },
    {
      "inputs": [],
      "name": "ZeroAddress",
      "type": "error"
    },
    {
      "anonymous": false,
      "inputs": [
        {
          "indexed": false,
          "internalType": "address",
          "name": "token",
          "type": "address"
        },
        {
          "indexed": false,
          "internalType": "uint256",
          "name": "amount",
          "type": "uint256"
        },
        {
          "indexed": false,
          "internalType": "uint256",
          "name": "startTime",
          "type": "uint256"
        },
        {
          "indexed": false,
          "internalType": "uint256",
          "name": "period",
          "type": "uint256"
        }
      ],
      "name": "DistributeReward",
      "type": "event"
    },
    {
      "inputs": [],
      "name": "accumulativeYield",
      "outputs": [
        {
          "internalType": "uint256",
          "name": "",
          "type": "uint256"
        }
      ],
      "stateMutability": "view",
      "type": "function"
    },
    {
      "inputs": [],
      "name": "airdrop0PerSecond",
      "outputs": [
        {
          "internalType": "uint256",
          "name": "",
          "type": "uint256"
        }
      ],
      "stateMutability": "view",
      "type": "function"
    },
    {
      "inputs": [],
      "name": "airdrop1PerSecond",
      "outputs": [
        {
          "internalType": "uint256",
          "name": "",
          "type": "uint256"
        }
      ],
      "stateMutability": "view",
      "type": "function"
    },
    {
      "inputs": [],
      "name": "airdropPeriod",
      "outputs": [
        {
          "internalType": "uint256",
          "name": "",
          "type": "uint256"
        }
      ],
      "stateMutability": "view",
      "type": "function"
    },
    {
      "inputs": [],
      "name": "airdropStartTime",
      "outputs": [
        {
          "internalType": "uint256",
          "name": "",
          "type": "uint256"
        }
      ],
      "stateMutability": "view",
      "type": "function"
    },
    {
      "inputs": [
        {
          "internalType": "int24",
          "name": "lower",
          "type": "int24"
        },
        {
          "internalType": "int24",
          "name": "upper",
          "type": "int24"
        },
        {
          "internalType": "uint128",
          "name": "amount",
          "type": "uint128"
        }
      ],
      "name": "burn",
      "outputs": [
        {
          "internalType": "uint256",
          "name": "token0Amount",
          "type": "uint256"
        },
        {
          "internalType": "uint256",
          "name": "token1Amount",
          "type": "uint256"
        }
      ],
      "stateMutability": "nonpayable",
      "type": "function"
    },
    {
      "inputs": [
        {
          "internalType": "int24",
          "name": "lower",
          "type": "int24"
        },
        {
          "internalType": "int24",
          "name": "upper",
          "type": "int24"
        },
        {
          "internalType": "uint256",
          "name": "desiredToken0Fees",
          "type": "uint256"
        },
        {
          "internalType": "uint256",
          "name": "desiredToken1Fees",
          "type": "uint256"
        }
      ],
      "name": "collect",
      "outputs": [
        {
          "internalType": "uint256",
          "name": "token0Fees",
          "type": "uint256"
        },
        {
          "internalType": "uint256",
          "name": "token1Fees",
          "type": "uint256"
        }
      ],
      "stateMutability": "nonpayable",
      "type": "function"
    },
    {
      "inputs": [],
      "name": "collectProtocolFee",
      "outputs": [
        {
          "internalType": "uint128",
          "name": "amount0",
          "type": "uint128"
        },
        {
          "internalType": "uint128",
          "name": "amount1",
          "type": "uint128"
        }
      ],
      "stateMutability": "nonpayable",
      "type": "function"
    },
    {
      "inputs": [
        {
          "internalType": "int24",
          "name": "lower",
          "type": "int24"
        },
        {
          "internalType": "int24",
          "name": "upper",
          "type": "int24"
        },
        {
          "internalType": "uint256",
          "name": "desiredReward",
          "type": "uint256"
        }
      ],
      "name": "collectReward",
      "outputs": [
        {
          "internalType": "uint256",
          "name": "rewardAmount",
          "type": "uint256"
        }
      ],
      "stateMutability": "nonpayable",
      "type": "function"
    },
    {
      "inputs": [],
      "name": "createdBlockNumber",
      "outputs": [
        {
          "internalType": "uint256",
          "name": "",
          "type": "uint256"
        }
      ],
      "stateMutability": "view",
      "type": "function"
    },
    {
      "inputs": [],
      "name": "createdTime",
      "outputs": [
        {
          "internalType": "uint256",
          "name": "",
          "type": "uint256"
        }
      ],
      "stateMutability": "view",
      "type": "function"
    },
    {
      "inputs": [
        {
          "internalType": "uint128",
          "name": "airdrop0",
          "type": "uint128"
        },
        {
          "internalType": "uint128",
          "name": "airdrop1",
          "type": "uint128"
        },
        {
          "internalType": "uint128",
          "name": "reward",
          "type": "uint128"
        },
        {
          "internalType": "uint256",
          "name": "startTime",
          "type": "uint256"
        },
        {
          "internalType": "uint256",
          "name": "period",
          "type": "uint256"
        }
      ],
      "name": "depositAirdropAndReward",
      "outputs": [],
      "stateMutability": "nonpayable",
      "type": "function"
    },
    {
      "inputs": [],
      "name": "depositedReward",
      "outputs": [
        {
          "internalType": "uint128",
          "name": "",
          "type": "uint128"
        }
      ],
      "stateMutability": "view",
      "type": "function"
    },
    {
      "inputs": [],
      "name": "factory",
      "outputs": [
        {
          "internalType": "address",
          "name": "",
          "type": "address"
        }
      ],
      "stateMutability": "view",
      "type": "function"
    },
    {
      "inputs": [],
      "name": "feeGrowthGlobal0",
      "outputs": [
        {
          "internalType": "uint256",
          "name": "",
          "type": "uint256"
        }
      ],
      "stateMutability": "view",
      "type": "function"
    },
    {
      "inputs": [],
      "name": "feeGrowthGlobal1",
      "outputs": [
        {
          "internalType": "uint256",
          "name": "",
          "type": "uint256"
        }
      ],
      "stateMutability": "view",
      "type": "function"
    },
    {
      "inputs": [
        {
          "internalType": "address",
          "name": "recipient",
          "type": "address"
        },
        {
          "internalType": "uint256",
          "name": "amount0",
          "type": "uint256"
        },
        {
          "internalType": "uint256",
          "name": "amount1",
          "type": "uint256"
        },
        {
          "internalType": "bytes",
          "name": "data",
          "type": "bytes"
        }
      ],
      "name": "flash",
      "outputs": [],
      "stateMutability": "nonpayable",
      "type": "function"
    },
    {
      "inputs": [],
      "name": "getAssets",
      "outputs": [
        {
          "internalType": "address[]",
          "name": "assets",
          "type": "address[]"
        }
      ],
      "stateMutability": "view",
      "type": "function"
    },
    {
      "inputs": [],
      "name": "getImmutables",
      "outputs": [
        {
          "internalType": "uint128",
          "name": "_MAX_TICK_LIQUIDITY",
          "type": "uint128"
        },
        {
          "internalType": "uint24",
          "name": "_tickSpacing",
          "type": "uint24"
        },
        {
          "internalType": "uint24",
          "name": "_swapFee",
          "type": "uint24"
        },
        {
          "internalType": "address",
          "name": "_factory",
          "type": "address"
        },
        {
          "internalType": "address",
          "name": "_masterDeployer",
          "type": "address"
        },
        {
          "internalType": "address",
          "name": "_token0",
          "type": "address"
        },
        {
          "internalType": "address",
          "name": "_token1",
          "type": "address"
        }
      ],
      "stateMutability": "view",
      "type": "function"
    },
    {
      "inputs": [],
      "name": "getPriceAndNearestTicks",
      "outputs": [
        {
          "internalType": "uint160",
          "name": "_price",
          "type": "uint160"
        },
        {
          "internalType": "int24",
          "name": "_nearestTick",
          "type": "int24"
        }
      ],
      "stateMutability": "view",
      "type": "function"
    },
    {
      "inputs": [],
      "name": "getReserves",
      "outputs": [
        {
          "internalType": "uint128",
          "name": "_reserve0",
          "type": "uint128"
        },
        {
          "internalType": "uint128",
          "name": "_reserve1",
          "type": "uint128"
        }
      ],
      "stateMutability": "view",
      "type": "function"
    },
    {
      "inputs": [],
      "name": "getSecondsGrowthAndLastObservation",
      "outputs": [
        {
          "internalType": "uint160",
          "name": "_secondsGrowthGlobal",
          "type": "uint160"
        },
        {
          "internalType": "uint32",
          "name": "_lastObservation",
          "type": "uint32"
        }
      ],
      "stateMutability": "view",
      "type": "function"
    },
    {
      "inputs": [],
      "name": "getTokenProtocolFees",
      "outputs": [
        {
          "internalType": "uint128",
          "name": "_token0ProtocolFee",
          "type": "uint128"
        },
        {
          "internalType": "uint128",
          "name": "_token1ProtocolFee",
          "type": "uint128"
        }
      ],
      "stateMutability": "view",
      "type": "function"
    },
    {
      "inputs": [
        {
          "internalType": "bytes",
          "name": "_deployData",
          "type": "bytes"
        },
        {
          "internalType": "address",
          "name": "_masterDeployer",
          "type": "address"
        }
      ],
      "name": "initialize",
      "outputs": [],
      "stateMutability": "nonpayable",
      "type": "function"
    },
    {
      "inputs": [],
      "name": "liquidity",
      "outputs": [
        {
          "internalType": "uint128",
          "name": "",
          "type": "uint128"
        }
      ],
      "stateMutability": "view",
      "type": "function"
    },
    {
      "inputs": [
        {
          "components": [
            {
              "internalType": "int24",
              "name": "lowerOld",
              "type": "int24"
            },
            {
              "internalType": "int24",
              "name": "lower",
              "type": "int24"
            },
            {
              "internalType": "int24",
              "name": "upperOld",
              "type": "int24"
            },
            {
              "internalType": "int24",
              "name": "upper",
              "type": "int24"
            },
            {
              "internalType": "uint128",
              "name": "amount0Desired",
              "type": "uint128"
            },
            {
              "internalType": "uint128",
              "name": "amount1Desired",
              "type": "uint128"
            }
          ],
          "internalType": "struct IConcentratedLiquidityPoolStruct.MintParams",
          "name": "mintParams",
          "type": "tuple"
        }
      ],
      "name": "mint",
      "outputs": [
        {
          "internalType": "uint256",
          "name": "liquidityMinted",
          "type": "uint256"
        }
      ],
      "stateMutability": "nonpayable",
      "type": "function"
    },
    {
      "inputs": [],
      "name": "nearestTick",
      "outputs": [
        {
          "internalType": "int24",
          "name": "",
          "type": "int24"
        }
      ],
      "stateMutability": "view",
      "type": "function"
    },
    {
      "inputs": [
        {
          "internalType": "address",
          "name": "",
          "type": "address"
        },
        {
          "internalType": "int24",
          "name": "",
          "type": "int24"
        },
        {
          "internalType": "int24",
          "name": "",
          "type": "int24"
        }
      ],
      "name": "positionRewards",
      "outputs": [
        {
          "internalType": "uint256",
          "name": "rewardGrowthInsideLast",
          "type": "uint256"
        },
        {
          "internalType": "uint128",
          "name": "rewardOwed",
          "type": "uint128"
        }
      ],
      "stateMutability": "view",
      "type": "function"
    },
    {
      "inputs": [
        {
          "internalType": "address",
          "name": "",
          "type": "address"
        },
        {
          "internalType": "int24",
          "name": "",
          "type": "int24"
        },
        {
          "internalType": "int24",
          "name": "",
          "type": "int24"
        }
      ],
      "name": "positions",
      "outputs": [
        {
          "internalType": "uint128",
          "name": "liquidity",
          "type": "uint128"
        },
        {
          "internalType": "uint256",
          "name": "feeGrowthInside0Last",
          "type": "uint256"
        },
        {
          "internalType": "uint256",
          "name": "feeGrowthInside1Last",
          "type": "uint256"
        },
        {
          "internalType": "uint128",
          "name": "feeOwed0",
          "type": "uint128"
        },
        {
          "internalType": "uint128",
          "name": "feeOwed1",
          "type": "uint128"
        }
      ],
      "stateMutability": "view",
      "type": "function"
    },
    {
      "inputs": [],
      "name": "price",
      "outputs": [
        {
          "internalType": "uint160",
          "name": "",
          "type": "uint160"
        }
      ],
      "stateMutability": "view",
      "type": "function"
    },
    {
      "inputs": [],
      "name": "protocolFee",
      "outputs": [
        {
          "internalType": "uint256",
          "name": "",
          "type": "uint256"
        }
      ],
      "stateMutability": "view",
      "type": "function"
    },
    {
      "inputs": [
        {
          "internalType": "int24",
          "name": "lowerTick",
          "type": "int24"
        },
        {
          "internalType": "int24",
          "name": "upperTick",
          "type": "int24"
        }
      ],
      "name": "rangeFeeGrowth",
      "outputs": [
        {
          "internalType": "uint256",
          "name": "feeGrowthInside0",
          "type": "uint256"
        },
        {
          "internalType": "uint256",
          "name": "feeGrowthInside1",
          "type": "uint256"
        }
      ],
      "stateMutability": "view",
      "type": "function"
    },
    {
      "inputs": [
        {
          "internalType": "int24",
          "name": "lowerTick",
          "type": "int24"
        },
        {
          "internalType": "int24",
          "name": "upperTick",
          "type": "int24"
        }
      ],
      "name": "rangeRewardGrowth",
      "outputs": [
        {
          "internalType": "uint256",
          "name": "rewardGrowthInside",
          "type": "uint256"
        }
      ],
      "stateMutability": "view",
      "type": "function"
    },
    {
      "inputs": [
        {
          "internalType": "address",
          "name": "_logger",
          "type": "address"
        }
      ],
      "name": "registerLogger",
      "outputs": [],
      "stateMutability": "nonpayable",
      "type": "function"
    },
    {
      "inputs": [],
      "name": "rewardGrowthGlobal",
      "outputs": [
        {
          "internalType": "uint256",
          "name": "",
          "type": "uint256"
        }
      ],
      "stateMutability": "view",
      "type": "function"
    },
    {
      "inputs": [
        {
          "internalType": "int24",
          "name": "",
          "type": "int24"
        }
      ],
      "name": "rewardGrowthOutsidePerTicks",
      "outputs": [
        {
          "internalType": "uint256",
          "name": "",
          "type": "uint256"
        }
      ],
      "stateMutability": "view",
      "type": "function"
    },
    {
      "inputs": [],
      "name": "rewardPerSecond",
      "outputs": [
        {
          "internalType": "uint256",
          "name": "",
          "type": "uint256"
        }
      ],
      "stateMutability": "view",
      "type": "function"
    },
    {
      "inputs": [],
      "name": "rewardToken",
      "outputs": [
        {
          "internalType": "address",
          "name": "",
          "type": "address"
        }
      ],
      "stateMutability": "view",
      "type": "function"
    },
    {
      "inputs": [
        {
          "internalType": "uint160",
          "name": "_price",
          "type": "uint160"
        }
      ],
      "name": "setPrice",
      "outputs": [],
      "stateMutability": "nonpayable",
      "type": "function"
    },
    {
      "inputs": [
        {
          "internalType": "uint256",
          "name": "_protocolFee",
          "type": "uint256"
        }
      ],
      "name": "setProtocolFee",
      "outputs": [],
      "stateMutability": "nonpayable",
      "type": "function"
    },
    {
      "inputs": [
        {
          "internalType": "bytes",
          "name": "data",
          "type": "bytes"
        }
      ],
      "name": "swap",
      "outputs": [
        {
          "internalType": "uint256",
          "name": "amountOut",
          "type": "uint256"
        }
      ],
      "stateMutability": "nonpayable",
      "type": "function"
    },
    {
      "inputs": [],
      "name": "swapFee",
      "outputs": [
        {
          "internalType": "uint24",
          "name": "",
          "type": "uint24"
        }
      ],
      "stateMutability": "view",
      "type": "function"
    },
    {
      "inputs": [],
      "name": "swapFeeGrowthGlobal0",
      "outputs": [
        {
          "internalType": "uint256",
          "name": "",
          "type": "uint256"
        }
      ],
      "stateMutability": "view",
      "type": "function"
    },
    {
      "inputs": [],
      "name": "swapFeeGrowthGlobal1",
      "outputs": [
        {
          "internalType": "uint256",
          "name": "",
          "type": "uint256"
        }
      ],
      "stateMutability": "view",
      "type": "function"
    },
    {
      "inputs": [],
      "name": "tickSpacing",
      "outputs": [
        {
          "internalType": "uint24",
          "name": "",
          "type": "uint24"
        }
      ],
      "stateMutability": "view",
      "type": "function"
    },
    {
      "inputs": [
        {
          "internalType": "int24",
          "name": "",
          "type": "int24"
        }
      ],
      "name": "ticks",
      "outputs": [
        {
          "internalType": "int24",
          "name": "previousTick",
          "type": "int24"
        },
        {
          "internalType": "int24",
          "name": "nextTick",
          "type": "int24"
        },
        {
          "internalType": "uint128",
          "name": "liquidity",
          "type": "uint128"
        },
        {
          "internalType": "uint256",
          "name": "feeGrowthOutside0",
          "type": "uint256"
        },
        {
          "internalType": "uint256",
          "name": "feeGrowthOutside1",
          "type": "uint256"
        },
        {
          "internalType": "uint160",
          "name": "secondsGrowthOutside",
          "type": "uint160"
        }
      ],
      "stateMutability": "view",
      "type": "function"
    },
    {
      "inputs": [],
      "name": "token0",
      "outputs": [
        {
          "internalType": "address",
          "name": "",
          "type": "address"
        }
      ],
      "stateMutability": "view",
      "type": "function"
    },
    {
      "inputs": [],
      "name": "token1",
      "outputs": [
        {
          "internalType": "address",
          "name": "",
          "type": "address"
        }
      ],
      "stateMutability": "view",
      "type": "function"
    },
    {
      "inputs": [],
      "name": "totalTicks",
      "outputs": [
        {
          "internalType": "uint256",
          "name": "",
          "type": "uint256"
        }
      ],
      "stateMutability": "view",
      "type": "function"
    },
    {
      "inputs": [],
      "name": "yieldGrowthGlobal",
      "outputs": [
        {
          "internalType": "uint256",
          "name": "",
          "type": "uint256"
        }
      ],
      "stateMutability": "view",
      "type": "function"
    }
  ],
  "transactionHash": "0x579f6c3be761bc590a98a722ef217b06d16cb136ca9221dba81dab4de9107c97",
  "args": [],
  "numDeployments": 1,
  "solcInputHash": "81ee180c87d66f8c64924167d8421257",
  "bytecode": "0x608060405234801561001057600080fd5b50615f3480620000216000396000f3fe608060405234801561001057600080fd5b50600436106102b65760003560e01c8063a34123a711610172578063cf543153116100d9578063e5ff7f4611610092578063e5ff7f4614610743578063f30dba9314610756578063f719dac6146107fe578063f7c618c11461085c578063f949e8b71461086f578063fa1a169c14610877578063fb5d80b31461088057600080fd5b8063cf543153146106cd578063cf78756b146106e0578063d0c93a7c146106e8578063d21220a7146106fd578063d551479214610710578063d90bda4e1461073057600080fd5b8063bd7d1eea1161012b578063bd7d1eea14610671578063c03c251414610684578063c45a015514610697578063c9936420146106aa578063caa4b46a146106b2578063cce2df03146106ba57600080fd5b8063a34123a714610503578063aaca1b4d14610516578063acfe88f8146105a8578063b0e21e8a146105bb578063b2f4bdb0146105c4578063bcdb4dad146105cd57600080fd5b806367e4ac2c116102215780638ba310a2116101da5780638ba310a21461047e5780638c347f9b146104865780638f10369a146104af578063956afe45146104b85780639da12096146104c1578063a00e8f29146104c9578063a035b1fe146104f057600080fd5b806367e4ac2c1461040f5780636d59d8021461042457806370ed1b8614610450578063735541d114610459578063787dce3d1461046257806384e020171461047557600080fd5b80632df94b0f116102735780632df94b0f1461038357806340306fb6146103ab578063490e6cbc146103b457806354cf2aeb146103c9578063627dd56a146103f357806366f657c51461040657600080fd5b806306f912f3146102bb5780630902f1ac146102e15780630ae9ba8a1461031c5780630dfe16811461032f578063111ba27d1461034f5780631a68650214610358575b600080fd5b6102ce6102c9366004615483565b61089f565b6040519081526020015b60405180910390f35b6014546015546001600160801b03600160801b909204821691165b604080516001600160801b039384168152929091166020830152016102d8565b6102ce61032a3660046154f1565b610907565b600354610342906001600160a01b031681565b6040516102d89190615598565b6102ce60215481565b60065461036b906001600160801b031681565b6040516001600160801b0390911681526020016102d8565b6103966103913660046155ac565b610e65565b604080519283526020830191909152016102d8565b6102ce600e5481565b6103c76103c2366004615607565b610feb565b005b6000546103df90600160281b900462ffffff1681565b60405162ffffff90911681526020016102d8565b6102ce61040136600461572a565b61146d565b6102ce600c5481565b610417611b2f565b6040516102d891906157a3565b600754604080516001600160a01b0383168152600160a01b90920463ffffffff166020830152016102d8565b6102ce60095481565b6102ce601b5481565b6103c76104703660046157b6565b611bc3565b6102ce600d5481565b6102ce611c16565b601954604080516001600160a01b0383168152600160a01b90920460020b6020830152016102d8565b6102ce60125481565b6102ce600f5481565b6102ce611ce0565b6019546104dd90600160a01b900460020b81565b60405160029190910b81526020016102d8565b601954610342906001600160a01b031681565b6103966105113660046157cf565b611d28565b610572610524366004615816565b601e60209081526000938452604080852082529284528284209052825290208054600182015460028301546003909301546001600160801b0392831693919281811691600160801b90041685565b604080516001600160801b039687168152602081019590955284019290925283166060830152909116608082015260a0016102d8565b6103966105b6366004615861565b6120b9565b6102ce60225481565b6102ce60205481565b61061c6000546005546001546003546004546001600160801b03600160401b8604169562ffffff620100008704811696600160281b900416946001600160a01b03908116948116938116921690565b604080516001600160801b03909816885262ffffff968716602089015295909416948601949094526001600160a01b0391821660608601528116608085015291821660a08401521660c082015260e0016102d8565b6103c761067f36600461589a565b61241e565b6102ce610692366004615861565b61246b565b600554610342906001600160a01b031681565b6102ce612576565b6102fc61267f565b6103c76106c83660046158b7565b612a19565b6103c76106db3660046158fe565b612f0f565b6102ce613270565b6000546103df9062010000900462ffffff1681565b600454610342906001600160a01b031681565b6102ce61071e366004615953565b601d6020526000908152604090205481565b6103c761073e36600461589a565b6132a9565b60135461036b906001600160801b031681565b6107b3610764366004615953565b601c6020526000908152604090208054600182015460028084015460039094015483820b946301000000850490920b93600160301b90046001600160801b03169291906001600160a01b031686565b60408051600297880b81529590960b60208601526001600160801b0390931694840194909452606083015260808201929092526001600160a01b0390911660a082015260c0016102d8565b61083f61080c366004615816565b601f602090815260009384526040808520825292845282842090528252902080546001909101546001600160801b031682565b604080519283526001600160801b039091166020830152016102d8565b601054610342906001600160a01b031681565b6102ce613329565b6102ce60085481565b6013546014546001600160801b03600160801b909204821691166102fc565b6000601a54600214156108c5576040516303cb96db60e21b815260040160405180910390fd5b6002601a556108d5338585613340565b6108e13385858561341e565b6010549091506108fb906001600160a01b031682336134b8565b6001601a559392505050565b6000601a546002141561092d576040516303cb96db60e21b815260040160405180910390fd5b6002601a55601554600160801b900460ff16610948816134cc565b61095a8360200151846060015161371a565b6000610969846020015161381b565b6001600160a01b031690506000610983856060015161381b565b60195460a087015160808801516001600160a01b03938416945091909216916109be918591859185916001600160801b039081169116613b44565b945060016001607f1b038511156109e857604051631a93c68960e11b815260040160405180910390fd5b84610a06576040516320fb348960e21b815260040160405180910390fd5b610a0e613bd8565b6000601c73aCc9af149D4E4B75304eb865B3120aF152B3652C63825c72999091601d6040518060800160405280600a54600854610a4b9190615986565b8152602001600b54600954610a609190615986565b81526020016011548152602001600760009054906101000a90046001600160a01b03166001600160a01b03168152508b600001518c602001518d604001518e606001518e601960149054906101000a900460020b8c6040518b63ffffffff1660e01b8152600401610ada9a9998979695949392919061599e565b604080518083038186803b158015610af157600080fd5b505af4158015610b05573d6000803e3d6000fd5b505050506040513d601f19601f82011682018060405250810190610b299190615a5a565b6019805462ffffff909316600160a01b0262ffffff60a01b1990931692909217909155601b80549192508291600090610b63908490615986565b9250508190555050610b7f338760200151886060015188613ced565b808311158015610b8e57508181105b15610bd65760068054869190600090610bb19084906001600160801b0316615a88565b92506101000a8154816001600160801b0302191690836001600160801b031602179055505b600080610be78585858a6001613d15565b60035460048054604051632f8b294d60e11b81526001600160a01b03938416928101929092529190911660248201526001600160801b0380841660448301528216606482015291935091503390635f16529a90608401600060405180830381600087803b158015610c5757600080fd5b505af1158015610c6b573d6000803e3d6000fd5b50505050816001600160801b0316600014610d185781601460108282829054906101000a90046001600160801b0316610ca49190615a88565b92506101000a8154816001600160801b0302191690836001600160801b03160217905550610ce6600360009054906101000a90046001600160a01b0316613d7f565b601454600160801b90046001600160801b03161115610d185760405163420231d560e11b815260040160405180910390fd5b6001600160801b03811615610db25760158054829190600090610d459084906001600160801b0316615a88565b92506101000a8154816001600160801b0302191690836001600160801b03160217905550610d87600460009054906101000a90046001600160a01b0316613d7f565b6015546001600160801b03161115610db257604051637218102160e11b815260040160405180910390fd5b600280546040805160a0810182526020808d0151850b82526060808e015190950b908201526001600160801b0380871682840152851693810193909352608083018a90525163fbad739160e01b81526001600160a01b039091169163fbad739191610e209190600401615ab3565b600060405180830381600087803b158015610e3a57600080fd5b505af1925050508015610e4b575060015b505050505050610e5a81613e5e565b506001601a55919050565b600080601a5460021415610e8c576040516303cb96db60e21b815260040160405180910390fd5b6002601a55601554600160801b900460ff16610ea7816134cc565b610eb23388886140e5565b610ebf3388888888614214565b601480549295509093508491601090610ee9908490600160801b90046001600160801b0316615af3565b92506101000a8154816001600160801b0302191690836001600160801b0316021790555081601560008282829054906101000a90046001600160801b0316610f319190615af3565b92506101000a8154816001600160801b0302191690836001600160801b03160217905550610f6033848461431f565b600254604080518082018252858152602081018581529151631228c47f60e01b815290516004820152905160248201526001600160a01b0390911690631228c47f90604401600060405180830381600087803b158015610fbf57600080fd5b505af1925050508015610fd0575060015b50610fda81613e5e565b506001601a55909590945092505050565b601a546002141561100f576040516303cb96db60e21b815260040160405180910390fd5b6002601a55601554600160801b900460ff1661102a816134cc565b61106a6040518060e00160405280600081526020016000815260200160008152602001600081526020016000815260200160008152602001600081525090565b6000806110898888600060059054906101000a900462ffffff1661434d565b6040805160e0810182528b8152602081018b90526014546001600160801b03600160801b90910481169282019290925260155482166060820152608081019390935260a08301919091526006541660c08201819052909350151591506111049050576040516320fb348960e21b815260040160405180910390fd5b61110f87878761431f565b608081015160a08201516040516361c9276b60e11b8152339263c3924ed69261113e9289908990600401615b1b565b600060405180830381600087803b15801561115857600080fd5b505af115801561116c573d6000803e3d6000fd5b505060035460009250829150819061118c906001600160a01b0316613d7f565b6004549091506000906111a7906001600160a01b0316613d7f565b905081856080015186604001516111be9190615986565b11156111dd5760405163420231d560e11b815260040160405180910390fd5b808560a0015186606001516111f29190615986565b111561121157604051637218102160e11b815260040160405180910390fd5b61121a82614382565b601480546001600160801b03928316600160801b02921691909117905561124081614382565b601580546001600160801b0319166001600160801b0392909216919091179055604085015161126f9083615b58565b93508460600151816112819190615b58565b602254909350915050821561132857600061129f848361271061439d565b905080601360108282829054906101000a90046001600160801b03166112c59190615a88565b92506101000a8154816001600160801b0302191690836001600160801b03160217905550611310816001600160801b0316856113019190615b58565b600160801b8760c001516143db565b600860008282546113219190615986565b9091555050505b81156113b157600061133d838361271061439d565b60148054919250829160009061135d9084906001600160801b0316615a88565b92506101000a8154816001600160801b0302191690836001600160801b03160217905550611399816001600160801b0316846113019190615b58565b600960008282546113aa9190615986565b9091555050505b6002546040805160a0810182523381528651602080830191825288015182840190815260608301888152608084018881529451630a61fef360e21b815293516001600160a01b039081166004860152925160248501529051604484015251606483015291516084820152911690632987fbcc9060a401600060405180830381600087803b15801561144157600080fd5b505af1925050508015611452575060015b505050505061146081613e5e565b50506001601a5550505050565b6000601a5460021415611493576040516303cb96db60e21b815260040160405180910390fd5b6002601a55601554600160801b900460ff166114ae816134cc565b600080848060200190518101906114c59190615b7f565b915091506000826114e1576015546001600160801b03166114f5565b601454600160801b90046001600160801b03165b6001600160801b031661152884611517576004546001600160a01b0316613d7f565b6003546001600160a01b0316613d7f565b6115329190615b58565b905060006040518061012001604052806000815260200160008152602001600081526020018561156457600854611568565b6009545b81526020018561157a5760095461157e565b6008545b81526019546001600160a01b031660208201526006546001600160801b0316604082015260608101849052608001856115dd57601954600160a01b9004600290810b6000908152601c602052604090205463010000009004900b6115eb565b601954600160a01b900460020b5b60020b905290506115fa613bd8565b6011546116068261448e565b60e08201511561199957600061162083610100015161381b565b6001600160a01b03169050600080871561175157600061164b8660c00151858860a0015160006144e9565b9050808660e00151116117115760c086015160a087015160e088015160609290921b91600091611691918491906116829082615bab565b61168c9086615986565b61439d565b90508086111580156116a657508760a0015181105b6116e4576116d8828960e001518a60a00151856116c39190615be0565b6116cd9190615986565b808204910615150190565b6001600160a01b031690505b6116f98860c00151828a60a001516000614541565b60a0890191909152600060e0890152935061174b9050565b6117268660c00151858860a001516000614541565b60a0870185905260e087018051919450600193508291611747908390615b58565b9052505b50611806565b60006117688660c001518760a00151866000614541565b9050808660e00151116117ca57600061178e8760e00151600160601b8960c001516143db565b8760a0015161179d9190615986565b90506117b48760c001518860a001518360006144e9565b60a0880191909152600060e08801529250611804565b6117df8660c001518760a001518660006144e9565b60a0870185905260e087018051919450600193508291611800908390615b58565b9052505b505b60c0850151156118585761184382600060059054906101000a900462ffffff166022548860c0015189602001518f8b604001518c6060015161456b565b60608901526040880152602087019190915299505b80156119915761186985858a614603565b60c08501516119915761010085015160020b620d89e71914806118a25750611894620d89e719615bf4565b60020b85610100015160020b145b1561196a5787156118f5576118cc60018660a001516118c19190615b58565b6401000276a3614727565b60a086015261010085018051600290810b6000908152601c6020526040902054900b9052611962565b6119368560a0015160016119099190615986565b611928600173fffd8963efd1fc6a506488495d951d5263988d26615c17565b6001600160a01b031661473e565b60a086015261010085018051600290810b6000908152601c602052604090205463010000009004900b90525b505050611999565b61197885610100015161381b565b6001600160a01b031660a086015261199185858a614603565b505050611606565b60a0820151601980546001600160a01b0319166001600160a01b039092169190911790556000856119e557610100830151600290810b6000908152601c6020526040902054900b6119ec565b8261010001515b601954909150600282810b600160a01b909204900b14611a47576019805462ffffff60a01b1916600160a01b62ffffff84160217905560c0830151600680546001600160801b0319166001600160801b039092169190911790555b611a5286858a61474d565b611a658684606001518560400151614889565b8515611a8757600454611a82906001600160a01b031689876134b8565b611a9e565b600354611a9e906001600160a01b031689876134b8565b600254604080516060810182528815158152602081018781528183018c815292516391accd5f60e01b8152915115156004830152516024820152905160448201526001600160a01b03909116906391accd5f90606401600060405180830381600087803b158015611b0e57600080fd5b505af1925050508015611b1f575060015b50505050505050610e5a81613e5e565b6040805160028082526060808301845292602083019080368337505060035482519293506001600160a01b031691839150600090611b6f57611b6f615c37565b6001600160a01b039283166020918202929092010152600454825191169082906001908110611ba057611ba0615c37565b60200260200101906001600160a01b031690816001600160a01b03168152505090565b6005546001600160a01b03163314611bee5760405163ea8e4eb560e01b815260040160405180910390fd5b612710811115611c1157604051633494a40d60e21b815260040160405180910390fd5b602255565b601554600090600160801b900460ff1681611c3082614905565b9050600082611c4a576015546001600160801b0316611c5e565b601454600160801b90046001600160801b03165b9050806001600160801b0316826001600160801b031611611ca157601654601854611c9991600160801b90046001600160801b031690615986565b935050505090565b6016546018546001600160801b038084169285821692611ccc92600160801b90920490911690615986565b611cd69190615986565b611c999190615b58565b6015546000908190600160801b900460ff16611cfd576000611d05565b611d05612576565b9050611d18600854600a54600c546149b2565b611d229082615986565b91505090565b600080601a5460021415611d4f576040516303cb96db60e21b815260040160405180910390fd5b6002601a55601554600160801b900460ff16611d6a816134cc565b6000611d758761381b565b90506000611d828761381b565b6019549091506001600160a01b0316611d99613bd8565b806001600160a01b0316836001600160a01b031611158015611dcc5750816001600160a01b0316816001600160a01b0316105b15611df457600680546001600160801b038082168a9003166001600160801b03199091161790555b611e26836001600160a01b0316836001600160a01b0316836001600160a01b03168a6001600160801b03166000613d15565b6001600160801b0391821697508116955060016001607f1b039088161115611e6157604051631a93c68960e11b815260040160405180910390fd5b611e75338a8a611e708b615c4d565b613ced565b85601460108282829054906101000a90046001600160801b0316611e999190615af3565b92506101000a8154816001600160801b0302191690836001600160801b0316021790555084601560008282829054906101000a90046001600160801b0316611ee19190615af3565b92506101000a8154816001600160801b0302191690836001600160801b03160217905550611f1033878761431f565b601954604051630f92397360e31b8152601c6004820152601d602482015260028b810b60448301528a810b60648301526001600160801b038a166084830152600160a01b90920490910b60a482015260009073aCc9af149D4E4B75304eb865B3120aF152B3652C90637c91cb989060c401604080518083038186803b158015611f9857600080fd5b505af4158015611fac573d6000803e3d6000fd5b505050506040513d601f19601f82011682018060405250810190611fd09190615a5a565b6019805462ffffff909316600160a01b0262ffffff60a01b1990931692909217909155601b8054919250829160009061200a908490615b58565b9091555050600280546040805160a0810182528d840b8152928c900b60208401528281018a9052606083018990526001600160801b038b16608084015251637e4a416960e11b81526001600160a01b03909116925063fc9482d29161207191600401615ab3565b600060405180830381600087803b15801561208b57600080fd5b505af192505050801561209c575060015b505050506120a981613e5e565b506001601a559094909350915050565b601954600090819081906120d5906001600160a01b0316614a12565b90506000601c60008760020b60020b81526020019081526020016000206040518060c00160405290816000820160009054906101000a900460020b60020b60020b81526020016000820160039054906101000a900460020b60020b60020b81526020016000820160069054906101000a90046001600160801b03166001600160801b03166001600160801b0316815260200160018201548152602001600282015481526020016003820160009054906101000a90046001600160a01b03166001600160a01b03166001600160a01b03168152505090506000601c60008760020b60020b81526020019081526020016000206040518060c00160405290816000820160009054906101000a900460020b60020b60020b81526020016000820160039054906101000a900460020b60020b60020b81526020016000820160069054906101000a90046001600160801b03166001600160801b03166001600160801b0316815260200160018201548152602001600282015481526020016003820160009054906101000a90046001600160a01b03166001600160a01b03166001600160a01b03168152505090506000806000806122ac600660009054906101000a90046001600160801b03166001600160801b0316614cf8565b9150915081600a546008546122c19190615986565b6122cb9190615986565b935080600b546009546122de9190615986565b6122e89190615986565b92505050601560109054906101000a900460ff161561231a57612309612576565b6123139083615986565b915061232f565b612322612576565b61232c9082615986565b90505b6000808660020b8b60020b1361236757606086015161234e9083615986565b91508560800151816123609190615986565b905061239f565b60608601516123769085615b58565b6123809083615986565b91508560800151836123929190615b58565b61239c9082615986565b90505b8960020b8760020b12156123d55760608501516123bc9083615986565b91508460800151816123ce9190615986565b905061240d565b60608501516123e49085615b58565b6123ee9083615986565b91508460800151836124009190615b58565b61240a9082615986565b90505b920399919003975095505050505050565b6005546001600160a01b031633146124495760405163ea8e4eb560e01b815260040160405180910390fd5b600280546001600160a01b0319166001600160a01b0392909216919091179055565b6019546000908190612485906001600160a01b0316614a12565b6006549091506000906124a0906001600160801b0316614d3b565b6011546124ad9190615986565b905060008260020b8660020b136124e357600286900b6000908152601d60205260409020546124dc9082615986565b905061250e565b600286900b6000908152601d60205260409020546125019083615b58565b61250b9082615986565b90505b8460020b8360020b121561254157600285900b6000908152601d602052604090205461253a9082615986565b905061256c565b600285900b6000908152601d602052604090205461255f9083615b58565b6125699082615986565b90505b9003949350505050565b601554600090600160801b900460ff168161259082614905565b90506000826125aa576015546001600160801b03166125be565b601454600160801b90046001600160801b03165b6001600160801b0316905080826001600160801b0316116125e457601754935050505090565b6006546001600160801b0316806126015760175494505050505090565b6016546000906001600160801b03600160801b9091048116906126279085908716615b58565b6126319190615986565b905060006126448260225461271061439d565b905061266761265c6001600160801b03831684615b58565b600160801b856143db565b6017546126749190615986565b965050505050505090565b600080601a54600214156126a6576040516303cb96db60e21b815260040160405180910390fd5b6002601a55601554600160801b900460ff166126c1816134cc565b6001546040805163779b492960e11b815290516000926001600160a01b03169163ef369252916004808301926020929190829003018186803b15801561270657600080fd5b505afa15801561271a573d6000803e3d6000fd5b505050506040513d601f19601f8201168201806040525081019061273e9190615c6c565b604080516002808252606082018352929350600092909160208301908036833750506040805160028082526060820183529394506000939092509060208301908036833701905050601354909150600160801b90046001600160801b03161561289257601380546001600160801b0380821690925560148054600160801b9283900484169950899391926010926127d9928692900416615af3565b92506101000a8154816001600160801b0302191690836001600160801b03160217905550612826600360009054906101000a90046001600160a01b0316876001600160801b0316856134b8565b60035482516001600160a01b0390911690839060009061284857612848615c37565b60200260200101906001600160a01b031690816001600160a01b031681525050856001600160801b03168160008151811061288557612885615c37565b6020026020010181815250505b6014546001600160801b03161561299257601480546001600160801b03198116909155601580546001600160801b03928316975087926000916128d791859116615af3565b92506101000a8154816001600160801b0302191690836001600160801b03160217905550612924600460009054906101000a90046001600160a01b0316866001600160801b0316856134b8565b60045482516001600160a01b03909116908390600190811061294857612948615c37565b60200260200101906001600160a01b031690816001600160a01b031681525050846001600160801b03168160018151811061298557612985615c37565b6020026020010181815250505b6001600160a01b0383163b15612a0357604051630f03328360e41b81526001600160a01b0384169063f0332830906129d09085908590600401615c89565b600060405180830381600087803b1580156129ea57600080fd5b505af11580156129fe573d6000803e3d6000fd5b505050505b505050612a0f81613e5e565b506001601a559091565b600054610100900460ff16612a345760005460ff1615612a38565b303b155b612aa05760405162461bcd60e51b815260206004820152602e60248201527f496e697469616c697a61626c653a20636f6e747261637420697320616c72656160448201526d191e481a5b9a5d1a585b1a5e995960921b60648201526084015b60405180910390fd5b600054610100900460ff16158015612ac2576000805461ffff19166101011790555b60008060008060008088806020019051810190612adf9190615cf3565b95509550955095509550955085600360006101000a8154816001600160a01b0302191690836001600160a01b0316021790555084600460006101000a8154816001600160a01b0302191690836001600160a01b0316021790555083601060006101000a8154816001600160a01b0302191690836001600160a01b0316021790555082600060056101000a81548162ffffff021916908362ffffff16021790555081600060026101000a81548162ffffff021916908362ffffff16021790555033600560006101000a8154816001600160a01b0302191690836001600160a01b0316021790555087600160006101000a8154816001600160a01b0302191690836001600160a01b0316021790555080601560106101000a81548160ff021916908315150217905550612c0f82614d63565b600060086101000a8154816001600160801b0302191690836001600160801b031602179055506040518060c00160405280620d89e71960020b8152602001620d89e719612c5b90615bf4565b60020b815260006020808301829052604080840183905260608085018490526080948501849052620d89e71993849052601c835285517f312e29fa10e2dff7af4afff8ca91ba272d48aceeec966ecfff784af0b0aa924c805488860151898601516001600160801b0316600160301b02600160301b600160b01b031962ffffff92831663010000000265ffffffffffff19909416929095169190911791909117929092169190911790558501517f312e29fa10e2dff7af4afff8ca91ba272d48aceeec966ecfff784af0b0aa924d55928401517f312e29fa10e2dff7af4afff8ca91ba272d48aceeec966ecfff784af0b0aa924e5560a0909301517f312e29fa10e2dff7af4afff8ca91ba272d48aceeec966ecfff784af0b0aa924f80546001600160a01b03929092166001600160a01b0319909216919091179055815160c081019092528082529091820190612db190615bf4565b60020b815260200160006001600160801b03168152602001600081526020016000815260200160006001600160a01b0316815250601c6000620d89e719612df790615bf4565b600290810b825260208083019390935260409182016000208451815486860151948701516001600160801b0316600160301b02600160301b600160b01b031962ffffff96871663010000000265ffffffffffff1990931696909316959095171716929092178255606084015160018084019190915560808501518383015560a090940151600390920180546001600160a01b039093166001600160a01b03199093169290921790915560198054621e4ec360a31b62ffffff60a01b19909116179055601a929092556007805463ffffffff42908116600160a01b0263ffffffff60a01b1990921691909117909155601b9290925555505043602155505082159150612f0a9050576000805461ff00191690555b505050565b601a5460021415612f33576040516303cb96db60e21b815260040160405180910390fd5b6002601a55601554600160801b900460ff16612f4e816134cc565b6001546040805163d0a9317360e01b8152905133926001600160a01b03169163d0a931739160048083019260209291908290030181600087803b158015612f9457600080fd5b505af1158015612fa8573d6000803e3d6000fd5b505050506040513d601f19601f82011682018060405250810190612fcc9190615c6c565b6001600160a01b031614612ff35760405163ea8e4eb560e01b815260040160405180910390fd5b42612ffe8385615986565b1161301c57604051633494a40d60e21b815260040160405180910390fd5b600e54600f5460009061302f9083615986565b90508481111561305257604051633494a40d60e21b815260040160405180910390fd5b6001600160801b038816156130c957600354613080906001600160a01b03166001600160801b038a16614da3565b87601460108282829054906101000a90046001600160801b03166130a49190615a88565b92506101000a8154816001600160801b0302191690836001600160801b031602179055505b6001600160801b0387161561313a576004546130f7906001600160a01b03166001600160801b038916614da3565b601580548891906000906131159084906001600160801b0316615a88565b92506101000a8154816001600160801b0302191690836001600160801b031602179055505b6001600160801b0386161561316857601054613168906001600160a01b03166001600160801b038816614da3565b6000613172614db8565b111561320a57613180613bd8565b600754600160a01b900463ffffffff16818110156132085760006131a48285614727565b6131ae9084615b58565b90506131c46131bf600c5483614e16565b614382565b6131ce908b615a88565b99506131df6131bf600d5483614e16565b6131e9908a615a88565b98506131fa6131bf60125483614e16565b6132049089615a88565b9750505b505b613222886001600160801b0316600160801b866143db565b600c5561323d6001600160801b038816600160801b866143db565b600d556132586001600160801b038716600160801b866143db565b6012555050600e839055600f82905561146081613e5e565b6015546000908190600160801b900460ff166132935761328e612576565b613296565b60005b9050611d18600954600b54600d546149b2565b6005546001600160a01b031633146132d45760405163ea8e4eb560e01b815260040160405180910390fd5b6019546001600160a01b0316156132fe57604051630bca0b1b60e21b815260040160405180910390fd5b61330781614e27565b601980546001600160a01b0319166001600160a01b0392909216919091179055565b600061333b60006011546012546149b2565b905090565b6001600160a01b0383166000908152601f60209081526040808320600286810b85529083528184209085900b845290915281209061337e848461246b565b82546001600160a01b0387166000908152601e6020908152604080832060028a810b85529083528184209089900b8452909152812054929350916133cd918403906001600160801b0316614e16565b82845560018401805491925082916000906133f29084906001600160801b0316615a88565b92506101000a8154816001600160801b0302191690836001600160801b03160217905550505050505050565b6001600160a01b0384166000908152601f60209081526040808320600287810b85529083528184209086900b845290915281206001810154613469906001600160801b03168461473e565b600182018054919350839160009061348b9084906001600160801b0316615af3565b92506101000a8154816001600160801b0302191690836001600160801b0316021790555050949350505050565b612f0a6001600160a01b0384168284614e7e565b60006134d782614905565b90506000826134f1576015546001600160801b0316613505565b601454600160801b90046001600160801b03165b9050806001600160801b0316826001600160801b03161161352557505050565b821561354a57601480546001600160801b03808516600160801b029116179055613566565b601580546001600160801b0319166001600160801b0384161790555b60006135728284615af3565b6006549091506001600160801b0316806135d55781601660108282829054906101000a90046001600160801b03166135aa9190615a88565b92506101000a8154816001600160801b0302191690836001600160801b031602179055505050505050565b601654600160801b90046001600160801b0316801561360a576135f88184615a88565b601680546001600160801b0316905592505b6000613624846001600160801b031660225461271061439d565b905086156136795780601360108282829054906101000a90046001600160801b03166136509190615a88565b92506101000a8154816001600160801b0302191690836001600160801b031602179055506136bc565b601480548291906000906136979084906001600160801b0316615a88565b92506101000a8154816001600160801b0302191690836001600160801b031602179055505b6136e66136c98286615af3565b6001600160801b0316600160801b856001600160801b03166143db565b601760008282546136f79190615986565b9091555050601880546001600160801b0390951694909401909355505050505050565b6000546137329062010000900462ffffff1683615d6f565b60020b15613753576040516333a3bdff60e21b815260040160405180910390fd5b60005460029061376e9062010000900462ffffff1684615d91565b6137789190615d6f565b60020b1561379957604051637ef8a10160e11b815260040160405180910390fd5b6000546137b19062010000900462ffffff1682615d6f565b60020b156137d2576040516333a3bdff60e21b815260040160405180910390fd5b6000546002906137ed9062010000900462ffffff1683615d91565b6137f79190615d6f565b60020b6138175760405163a9778c6360e01b815260040160405180910390fd5b5050565b60008060008360020b12613832578260020b61383f565b8260020b61383f90615dcb565b905061384e620d89e719615bf4565b62ffffff1681111561387357604051633e1f710360e21b815260040160405180910390fd5b60006001821661388757600160801b613899565b6ffffcb933bd6fad37aa2d162d1a5940015b6001600160881b0316905060028216156138c3576ffff97272373d413259a46990580e213a0260801c5b60048216156138e2576ffff2e50f5f656932ef12357cf3c7fdcc0260801c5b6008821615613901576fffe5caca7e10e4e61c3624eaa0941cd00260801c5b6010821615613920576fffcb9843d60f6159c9db58835c9266440260801c5b602082161561393f576fff973b41fa98c081472e6896dfb254c00260801c5b604082161561395e576fff2ea16466c96a3843ec78b326b528610260801c5b608082161561397d576ffe5dee046a99a2a811c461f1969c30530260801c5b61010082161561399d576ffcbe86c7900a88aedcffc83b479aa3a40260801c5b6102008216156139bd576ff987a7253ac413176f2b074cf7815e540260801c5b6104008216156139dd576ff3392b0822b70005940c7a398e4b70f30260801c5b6108008216156139fd576fe7159475a2c29b7443b29c7fa6e889d90260801c5b611000821615613a1d576fd097f3bdfd2022b8845ad8f792aa58250260801c5b612000821615613a3d576fa9f746462d870fdf8a65dc1f90e061e50260801c5b614000821615613a5d576f70d869a156d2a1b890bb3df62baf32f70260801c5b618000821615613a7d576f31be135f97d08fd981231505542fcfa60260801c5b62010000821615613a9e576f09aa508b5b7a84e1c677de54f3e99bc90260801c5b62020000821615613abe576e5d6af8dedb81196699c329225ee6040260801c5b62040000821615613add576d2216e584f5fa1ea926041bedfe980260801c5b62080000821615613afa576b048a170391f7dc42444e8fa20260801c5b60008460020b1315613b1b578060001981613b1757613b17615bca565b0490505b640100000000810615613b2f576001613b32565b60005b60ff16602082901c0192505050919050565b6000838511613b6557613b5e83600160601b8888036143db565b9050613bcf565b858411613b8757613b5e82613b7f8888600160601b6143db565b8888036143db565b6000613ba483613b9c8888600160601b6143db565b8789036143db565b90506000613bb985600160601b8a89036143db565b9050808210613bc85780613bca565b815b925050505b95945050505050565b6006546001600160801b031680613bec5750565b600754600160a01b900463ffffffff16428110613c07575050565b6000613c11614db8565b90508015613c8557613c26600c5482856143db565b600a6000828254613c379190615986565b9091555050600d54613c4a9082856143db565b600b6000828254613c5b9190615986565b9091555050601254613c6e9082856143db565b60116000828254613c7f9190615986565b90915550505b6007805463ffffffff42908116600160a01b0263ffffffff60a01b1990921691909117909155839083900360801b81613cc057613cc0615bca565b600780546001600160a01b03198116939092046001600160a01b0392831601909116919091179055505050565b613cf88484846140e5565b613d03848484613340565b613d0f84848484614ee1565b50505050565b600080848611613d3557613d2e6131bf85898987614541565b9050613d75565b868511613d5257613d4b6131bf858989876144e9565b9150613d75565b613d616131bf858789876144e9565b9150613d726131bf85898887614541565b90505b9550959350505050565b6000806000836001600160a01b03166370a0823160e01b30604051602401613da79190615598565b60408051601f198184030181529181526020820180516001600160e01b03166001600160e01b0319909416939093179092529051613de59190615e14565b600060405180830381855afa9150503d8060008114613e20576040519150601f19603f3d011682016040523d82523d6000602084013e613e25565b606091505b5091509150818015613e3957506020815110155b613e4257600080fd5b80806020019051810190613e569190615e30565b949350505050565b8015613fa357600354604051633d7ad0b760e21b81526001600160a01b0390911690819063f5eb42dc90613e96903090600401615598565b60206040518083038186803b158015613eae57600080fd5b505afa158015613ec2573d6000803e3d6000fd5b505050506040513d601f19601f82011682018060405250810190613ee69190615e30565b601680546001600160801b0319166001600160801b03929092169190911790556040516370a0823160e01b81526001600160a01b038216906370a0823190613f32903090600401615598565b60206040518083038186803b158015613f4a57600080fd5b505afa158015613f5e573d6000803e3d6000fd5b505050506040513d601f19601f82011682018060405250810190613f829190615e30565b601480546001600160801b03928316600160801b0292169190911790555050565b60048054604051633d7ad0b760e21b81526001600160a01b0390911691829163f5eb42dc91613fd491309101615598565b60206040518083038186803b158015613fec57600080fd5b505afa158015614000573d6000803e3d6000fd5b505050506040513d601f19601f820116820180604052508101906140249190615e30565b601680546001600160801b0319166001600160801b03929092169190911790556040516370a0823160e01b81526001600160a01b038216906370a0823190614070903090600401615598565b60206040518083038186803b15801561408857600080fd5b505afa15801561409c573d6000803e3d6000fd5b505050506040513d601f19601f820116820180604052508101906140c09190615e30565b601580546001600160801b0319166001600160801b0392909216919091179055505b50565b6001600160a01b0383166000908152601e60209081526040808320600286810b85529083528184209085900b84529091528120908061412485856120b9565b60018501548554929450909250600091829161414c91908603906001600160801b0316614e16565b6002860154865491935061416c91908503906001600160801b0316614e16565b6001860185905560028601849055600386018054919250839160009061419c9084906001600160801b0316615a88565b92506101000a8154816001600160801b0302191690836001600160801b03160217905550808560030160108282829054906101000a90046001600160801b03166141e69190615a88565b92506101000a8154816001600160801b0302191690836001600160801b031602179055505050505050505050565b6001600160a01b0385166000908152601e60209081526040808320600288810b85529083528184209087900b845290915281206003810154829190614262906001600160801b03168661473e565b600382015490935061428490600160801b90046001600160801b03168561473e565b60038201805491935084916000906142a69084906001600160801b0316615af3565b92506101000a8154816001600160801b0302191690836001600160801b03160217905550818160030160108282829054906101000a90046001600160801b03166142f09190615af3565b92506101000a8154816001600160801b0302191690836001600160801b03160217905550509550959350505050565b600354614336906001600160a01b031683856134b8565b600454612f0a906001600160a01b031682856134b8565b600080614363858462ffffff16620f424061439d565b9150614378848462ffffff16620f424061439d565b9050935093915050565b806001600160801b038116811461439857600080fd5b919050565b60006143aa8484846143db565b905081806143ba576143ba615bca565b838509156143d45760001981106143d057600080fd5b6001015b9392505050565b600080806000198587098587029250828110838203039150508060001415614415576000841161440a57600080fd5b5082900490506143d4565b80841161442157600080fd5b6000848688096000868103871696879004966002600389028118808a02820302808a02820302808a02820302808a02820302808a02820302808a02909103029181900381900460010186841190950394909402919094039290920491909117919091029150509392505050565b60c08101511561449b5750565b61010081015160020b620d89e71914806144cb57506144bd620d89e719615bf4565b60020b81610100015160020b145b156140e25760405163035d2ccd60e51b815260040160405180910390fd5b6000811561451857614511614505606087901b8686038661439d565b85808204910615150190565b9050613e56565b8361452a606087901b828603866143db565b8161453757614537615bca565b0495945050505050565b6000811561455a5761451185858503600160601b61439d565b613bcf85858503600160601b6143db565b60008060008060006145868d8d62ffffff16620f424061439d565b9050614592818a615986565b985061459e818e615b58565b6145a89089615986565b975060006145b9828d61271061439d565b90506145c58189615986565b97506145d18183615b58565b91506145e282600160801b8d6143db565b6145ec9088615986565b999e989d50969b5097995095975050505050505050565b601554600090600160801b900460ff1661461e576000614622565b6017545b601554909150600090600160801b900460ff1661464157601754614644565b60005b61010086015160075460c088015192935061470f92601d92916001600160a01b0316908761468e5786600a548b6060015161467f9190615986565b6146899190615986565b6146ab565b85600b548b606001516146a19190615986565b6146ab9190615986565b886146d25786600b548c608001516146c39190615986565b6146cd9190615986565b6146ef565b87600a548c608001516146e59190615986565b6146ef9190615986565b600054601c969594939291908c908c9062010000900462ffffff16614fd0565b60020b61010087015260c09095019490945250505050565b60008183101561473757816143d4565b5090919050565b600081831061473757816143d4565b82156147ec5760035460009061476b906001600160a01b0316613d7f565b60145490915060009061478f908590600160801b90046001600160801b0316615a88565b905081816001600160801b031611156147bb5760405163420231d560e11b815260040160405180910390fd5b601480546001600160801b03908116600160801b84831602179091556015805485926000916135aa91859116615af3565b600454600090614804906001600160a01b0316613d7f565b6015549091506000906148219085906001600160801b0316615a88565b905081816001600160801b0316111561484d57604051637218102160e11b815260040160405180910390fd5b601580546001600160801b0319166001600160801b03838116919091179091556014805485926010916135aa918591600160801b900416615af3565b82156148db576009829055601480548291906000906148b29084906001600160801b0316615a88565b92506101000a8154816001600160801b0302191690836001600160801b03160217905550505050565b6008829055601380548291906010906148b2908490600160801b90046001600160801b0316615a88565b6000808261491e576004546001600160a01b031661492b565b6003546001600160a01b03165b601654604051632cc7243560e21b81526001600160801b0390911660048201529091506001600160a01b0382169063b31c90d49060240160206040518083038186803b15801561497a57600080fd5b505afa15801561498e573d6000803e3d6000fd5b505050506040513d601f19601f820116820180604052508101906143d49190615e30565b6000806149bd614db8565b6006549091506001600160801b031681158015906149db5750600081115b15614a08576149eb8483836143db565b6149f58688615986565b6149ff9190615986565b925050506143d4565b6149ff8587615986565b60006401000276a36001600160a01b0383161080614a4d575073fffd8963efd1fc6a506488495d951d5263988d266001600160a01b03831610155b15614a6b57604051636e4ba61d60e01b815260040160405180910390fd5b640100000000600160c01b03602083901b166001600160801b03811160071b81811c67ffffffffffffffff811160061b90811c63ffffffff811160051b90811c61ffff811160041b90811c60ff8111600390811b91821c600f811160021b90811c918211600190811b92831c97908811961790941790921717909117171760808110614aff57607f810383901c9150614b09565b80607f0383901b91505b908002607f81811c60ff83811c9190911c800280831c81831c1c800280841c81841c1c800280851c81851c1c800280861c81861c1c800280871c81871c1c800280881c81881c1c800280891c81891c1c8002808a1c818a1c1c8002808b1c818b1c1c8002808c1c818c1c1c8002808d1c818d1c1c8002808e1c9c81901c9c909c1c80029c8d901c9e9d607f198f0160401b60c09190911c6001603f1b161760c19b909b1c6001603e1b169a909a1760c29990991c6001603d1b169890981760c39790971c6001603c1b169690961760c49590951c6001603b1b169490941760c59390931c6001603a1b169290921760c69190911c600160391b161760c79190911c600160381b161760c89190911c6680000000000000161760c99190911c6640000000000000161760ca9190911c6620000000000000161760cb9190911c6610000000000000161760cc9190911c6608000000000000161760cd9190911c66040000000000001617693627a301d71055774c8581026f028f6481ab7f045a5af012a19d003aa9198101608090811d906fdb2df09e81959a81455e260799a0632f8301901d600281810b9083900b14614ce957886001600160a01b0316614cce8261381b565b6001600160a01b03161115614ce35781614ceb565b80614ceb565b815b9998505050505050505050565b60008082614d0b57506000928392509050565b6000614d15614db8565b9050614d24600c5482866143db565b9250614d33600d5482866143db565b915050915091565b600081614d4a57506000919050565b6000614d54614db8565b90506143d460125482856143db565b6000614d70826002615e49565b614d7d620d89e719615bf4565b614d879190615e74565b614d9d9062ffffff166001600160801b03615e96565b92915050565b6138176001600160a01b038316333084615256565b600e54600090428110614dcd57600091505090565b600754600f54600160a01b90910463ffffffff1690600090614def9084615986565b9050818111614e02576000935050505090565b614e0c8284614727565b611cd6428361473e565b60006143d48383600160801b6143db565b6401000276a36001600160a01b0382161080614e60575073fffd8963efd1fc6a506488495d951d5263988d266001600160a01b03821610155b156140e257604051636e4ba61d60e01b815260040160405180910390fd5b6040516001600160a01b038316602482015260448101829052612f0a90849063a9059cbb60e01b906064015b60408051601f198184030181529190526020810180516001600160e01b03166001600160e01b03199093169290921790915261528e565b80600f0b60001415614ef257613d0f565b6001600160a01b0384166000908152601e60209081526040808320600287810b85529083528184209086900b8452909152812090600f83900b1315614fa557805482908290600090614f4e9084906001600160801b0316615a88565b82546101009290920a6001600160801b038181021990931691831602179091556000548354600160401b9091048216911611159050614fa05760405163581a12d760e11b815260040160405180910390fd5b614fc9565b614fae82615c4d565b815482906000906135aa9084906001600160801b0316615af3565b5050505050565b600288900b600090815260208b905260408120600301548190614ffc906001600160a01b03168a615c17565b60028b900b600090815260208e8152604080832060030180546001600160a01b0319166001600160a01b0395909516949094179093558d905220546150419086615b58565b60028b900b600090815260208d90526040902055831561514e5760028360020b8b60020b8161507257615072615bca565b0560020b8161508357615083615bca565b0760020b6150b85760028a900b600090815260208d90526040902054600160301b90046001600160801b0316909703966150e2565b60028a900b600090815260208d90526040902054600160301b90046001600160801b031697909701965b60028a900b600090815260208d905260409020600101546151039087615b58565b60028b810b600090815260208f9052604090206001810192909255015461512a9088615b58565b60029a8b0b600090815260208e905260409020808c01919091555490990b98615244565b60028360020b8b60020b8161516557615165615bca565b0560020b8161517657615176615bca565b0760020b6151ac5760028a900b600090815260208d90526040902054600160301b90046001600160801b031697909701966151d5565b60028a900b600090815260208d90526040902054600160301b90046001600160801b0316909703965b60028a810b600090815260208e90526040902001546151f49087615b58565b60028b810b600090815260208f905260409020908101919091556001015461521c9088615b58565b60029a8b0b600090815260208e9052604090206001810191909155546301000000900490990b985b50959a97995096975050505050505050565b6040516001600160a01b0380851660248301528316604482015260648101829052613d0f9085906323b872dd60e01b90608401614eaa565b60006152e3826040518060400160405280602081526020017f5361666545524332303a206c6f772d6c6576656c2063616c6c206661696c6564815250856001600160a01b03166153609092919063ffffffff16565b805190915015612f0a57808060200190518101906153019190615eb0565b612f0a5760405162461bcd60e51b815260206004820152602a60248201527f5361666545524332303a204552433230206f7065726174696f6e20646964206e6044820152691bdd081cdd58d8d9595960b21b6064820152608401612a97565b6060613e568484600085856001600160a01b0385163b6153c25760405162461bcd60e51b815260206004820152601d60248201527f416464726573733a2063616c6c20746f206e6f6e2d636f6e74726163740000006044820152606401612a97565b600080866001600160a01b031685876040516153de9190615e14565b60006040518083038185875af1925050503d806000811461541b576040519150601f19603f3d011682016040523d82523d6000602084013e615420565b606091505b509150915061543082828661543b565b979650505050505050565b6060831561544a5750816143d4565b82511561545a5782518084602001fd5b8160405162461bcd60e51b8152600401612a979190615ecb565b8060020b81146140e257600080fd5b60008060006060848603121561549857600080fd5b83356154a381615474565b925060208401356154b381615474565b929592945050506040919091013590565b634e487b7160e01b600052604160045260246000fd5b80356001600160801b038116811461439857600080fd5b600060c0828403121561550357600080fd5b60405160c0810181811067ffffffffffffffff82111715615526576155266154c4565b604052823561553481615474565b8152602083013561554481615474565b6020820152604083013561555781615474565b6040820152606083013561556a81615474565b606082015261557b608084016154da565b608082015261558c60a084016154da565b60a08201529392505050565b6001600160a01b0391909116815260200190565b600080600080608085870312156155c257600080fd5b84356155cd81615474565b935060208501356155dd81615474565b93969395505050506040820135916060013590565b6001600160a01b03811681146140e257600080fd5b60008060008060006080868803121561561f57600080fd5b853561562a816155f2565b94506020860135935060408601359250606086013567ffffffffffffffff8082111561565557600080fd5b818801915088601f83011261566957600080fd5b81358181111561567857600080fd5b89602082850101111561568a57600080fd5b9699959850939650602001949392505050565b600082601f8301126156ae57600080fd5b813567ffffffffffffffff808211156156c9576156c96154c4565b604051601f8301601f19908116603f011681019082821181831017156156f1576156f16154c4565b8160405283815286602085880101111561570a57600080fd5b836020870160208301376000602085830101528094505050505092915050565b60006020828403121561573c57600080fd5b813567ffffffffffffffff81111561575357600080fd5b613e568482850161569d565b600081518084526020808501945080840160005b838110156157985781516001600160a01b031687529582019590820190600101615773565b509495945050505050565b6020815260006143d4602083018461575f565b6000602082840312156157c857600080fd5b5035919050565b6000806000606084860312156157e457600080fd5b83356157ef81615474565b925060208401356157ff81615474565b915061580d604085016154da565b90509250925092565b60008060006060848603121561582b57600080fd5b8335615836816155f2565b9250602084013561584681615474565b9150604084013561585681615474565b809150509250925092565b6000806040838503121561587457600080fd5b823561587f81615474565b9150602083013561588f81615474565b809150509250929050565b6000602082840312156158ac57600080fd5b81356143d4816155f2565b600080604083850312156158ca57600080fd5b823567ffffffffffffffff8111156158e157600080fd5b6158ed8582860161569d565b925050602083013561588f816155f2565b600080600080600060a0868803121561591657600080fd5b61591f866154da565b945061592d602087016154da565b935061593b604087016154da565b94979396509394606081013594506080013592915050565b60006020828403121561596557600080fd5b81356143d481615474565b634e487b7160e01b600052601160045260246000fd5b6000821982111561599957615999615970565b500190565b60006101a0820190508b82528a60208301528951604083015260208a0151606083015260408a0151608083015260018060a01b0360608b01511660a08301526159ec60c083018a60020b9052565b6159fb60e083018960020b9052565b615a0b61010083018860020b9052565b615a1b61012083018760020b9052565b6001600160801b038516610140830152615a3b61016083018560020b9052565b6001600160a01b0383166101808301529b9a5050505050505050505050565b60008060408385031215615a6d57600080fd5b8251615a7881615474565b6020939093015192949293505050565b60006001600160801b03828116848216808303821115615aaa57615aaa615970565b01949350505050565b600060a082019050825160020b8252602083015160020b602083015260408301516040830152606083015160608301526080830151608083015292915050565b60006001600160801b0383811690831681811015615b1357615b13615970565b039392505050565b84815283602082015260606040820152816060820152818360808301376000818301608090810191909152601f909201601f191601019392505050565b600082821015615b6a57615b6a615970565b500390565b8051801515811461439857600080fd5b60008060408385031215615b9257600080fd5b615b9b83615b6f565b9150602083015161588f816155f2565b6000816000190483118215151615615bc557615bc5615970565b500290565b634e487b7160e01b600052601260045260246000fd5b600082615bef57615bef615bca565b500490565b60008160020b627fffff19811415615c0e57615c0e615970565b60000392915050565b60006001600160a01b0383811690831681811015615b1357615b13615970565b634e487b7160e01b600052603260045260246000fd5b6000600f82900b60016001607f1b0319811415615c0e57615c0e615970565b600060208284031215615c7e57600080fd5b81516143d4816155f2565b604081526000615c9c604083018561575f565b82810360208481019190915284518083528582019282019060005b81811015615cd357845183529383019391830191600101615cb7565b5090979650505050505050565b805162ffffff8116811461439857600080fd5b60008060008060008060c08789031215615d0c57600080fd5b8651615d17816155f2565b6020880151909650615d28816155f2565b6040880151909550615d39816155f2565b9350615d4760608801615ce0565b9250615d5560808801615ce0565b9150615d6360a08801615b6f565b90509295509295509295565b60008260020b80615d8257615d82615bca565b808360020b0791505092915050565b60008160020b8360020b80615da857615da8615bca565b627fffff19821460001982141615615dc257615dc2615970565b90059392505050565b6000600160ff1b821415615de157615de1615970565b5060000390565b60005b83811015615e03578181015183820152602001615deb565b83811115613d0f5750506000910152565b60008251615e26818460208701615de8565b9190910192915050565b600060208284031215615e4257600080fd5b5051919050565b600062ffffff80831681851681830481118215151615615e6b57615e6b615970565b02949350505050565b600062ffffff80841680615e8a57615e8a615bca565b92169190910492915050565b60006001600160801b0383811680615e8a57615e8a615bca565b600060208284031215615ec257600080fd5b6143d482615b6f565b6020815260008251806020840152615eea816040850160208701615de8565b601f01601f1916919091016040019291505056fea2646970667358221220f6ac7e86d54bc2a3e677dc39ebaa1cc2dcfb8514f7ccdba1db0915b88c79d5f864736f6c63430008090033",
  "deployedBytecode": "0x608060405234801561001057600080fd5b50600436106102b65760003560e01c8063a34123a711610172578063cf543153116100d9578063e5ff7f4611610092578063e5ff7f4614610743578063f30dba9314610756578063f719dac6146107fe578063f7c618c11461085c578063f949e8b71461086f578063fa1a169c14610877578063fb5d80b31461088057600080fd5b8063cf543153146106cd578063cf78756b146106e0578063d0c93a7c146106e8578063d21220a7146106fd578063d551479214610710578063d90bda4e1461073057600080fd5b8063bd7d1eea1161012b578063bd7d1eea14610671578063c03c251414610684578063c45a015514610697578063c9936420146106aa578063caa4b46a146106b2578063cce2df03146106ba57600080fd5b8063a34123a714610503578063aaca1b4d14610516578063acfe88f8146105a8578063b0e21e8a146105bb578063b2f4bdb0146105c4578063bcdb4dad146105cd57600080fd5b806367e4ac2c116102215780638ba310a2116101da5780638ba310a21461047e5780638c347f9b146104865780638f10369a146104af578063956afe45146104b85780639da12096146104c1578063a00e8f29146104c9578063a035b1fe146104f057600080fd5b806367e4ac2c1461040f5780636d59d8021461042457806370ed1b8614610450578063735541d114610459578063787dce3d1461046257806384e020171461047557600080fd5b80632df94b0f116102735780632df94b0f1461038357806340306fb6146103ab578063490e6cbc146103b457806354cf2aeb146103c9578063627dd56a146103f357806366f657c51461040657600080fd5b806306f912f3146102bb5780630902f1ac146102e15780630ae9ba8a1461031c5780630dfe16811461032f578063111ba27d1461034f5780631a68650214610358575b600080fd5b6102ce6102c9366004615483565b61089f565b6040519081526020015b60405180910390f35b6014546015546001600160801b03600160801b909204821691165b604080516001600160801b039384168152929091166020830152016102d8565b6102ce61032a3660046154f1565b610907565b600354610342906001600160a01b031681565b6040516102d89190615598565b6102ce60215481565b60065461036b906001600160801b031681565b6040516001600160801b0390911681526020016102d8565b6103966103913660046155ac565b610e65565b604080519283526020830191909152016102d8565b6102ce600e5481565b6103c76103c2366004615607565b610feb565b005b6000546103df90600160281b900462ffffff1681565b60405162ffffff90911681526020016102d8565b6102ce61040136600461572a565b61146d565b6102ce600c5481565b610417611b2f565b6040516102d891906157a3565b600754604080516001600160a01b0383168152600160a01b90920463ffffffff166020830152016102d8565b6102ce60095481565b6102ce601b5481565b6103c76104703660046157b6565b611bc3565b6102ce600d5481565b6102ce611c16565b601954604080516001600160a01b0383168152600160a01b90920460020b6020830152016102d8565b6102ce60125481565b6102ce600f5481565b6102ce611ce0565b6019546104dd90600160a01b900460020b81565b60405160029190910b81526020016102d8565b601954610342906001600160a01b031681565b6103966105113660046157cf565b611d28565b610572610524366004615816565b601e60209081526000938452604080852082529284528284209052825290208054600182015460028301546003909301546001600160801b0392831693919281811691600160801b90041685565b604080516001600160801b039687168152602081019590955284019290925283166060830152909116608082015260a0016102d8565b6103966105b6366004615861565b6120b9565b6102ce60225481565b6102ce60205481565b61061c6000546005546001546003546004546001600160801b03600160401b8604169562ffffff620100008704811696600160281b900416946001600160a01b03908116948116938116921690565b604080516001600160801b03909816885262ffffff968716602089015295909416948601949094526001600160a01b0391821660608601528116608085015291821660a08401521660c082015260e0016102d8565b6103c761067f36600461589a565b61241e565b6102ce610692366004615861565b61246b565b600554610342906001600160a01b031681565b6102ce612576565b6102fc61267f565b6103c76106c83660046158b7565b612a19565b6103c76106db3660046158fe565b612f0f565b6102ce613270565b6000546103df9062010000900462ffffff1681565b600454610342906001600160a01b031681565b6102ce61071e366004615953565b601d6020526000908152604090205481565b6103c761073e36600461589a565b6132a9565b60135461036b906001600160801b031681565b6107b3610764366004615953565b601c6020526000908152604090208054600182015460028084015460039094015483820b946301000000850490920b93600160301b90046001600160801b03169291906001600160a01b031686565b60408051600297880b81529590960b60208601526001600160801b0390931694840194909452606083015260808201929092526001600160a01b0390911660a082015260c0016102d8565b61083f61080c366004615816565b601f602090815260009384526040808520825292845282842090528252902080546001909101546001600160801b031682565b604080519283526001600160801b039091166020830152016102d8565b601054610342906001600160a01b031681565b6102ce613329565b6102ce60085481565b6013546014546001600160801b03600160801b909204821691166102fc565b6000601a54600214156108c5576040516303cb96db60e21b815260040160405180910390fd5b6002601a556108d5338585613340565b6108e13385858561341e565b6010549091506108fb906001600160a01b031682336134b8565b6001601a559392505050565b6000601a546002141561092d576040516303cb96db60e21b815260040160405180910390fd5b6002601a55601554600160801b900460ff16610948816134cc565b61095a8360200151846060015161371a565b6000610969846020015161381b565b6001600160a01b031690506000610983856060015161381b565b60195460a087015160808801516001600160a01b03938416945091909216916109be918591859185916001600160801b039081169116613b44565b945060016001607f1b038511156109e857604051631a93c68960e11b815260040160405180910390fd5b84610a06576040516320fb348960e21b815260040160405180910390fd5b610a0e613bd8565b6000601c73__$5c5207d55745a34649a0c7f595c6a505bf$__63825c72999091601d6040518060800160405280600a54600854610a4b9190615986565b8152602001600b54600954610a609190615986565b81526020016011548152602001600760009054906101000a90046001600160a01b03166001600160a01b03168152508b600001518c602001518d604001518e606001518e601960149054906101000a900460020b8c6040518b63ffffffff1660e01b8152600401610ada9a9998979695949392919061599e565b604080518083038186803b158015610af157600080fd5b505af4158015610b05573d6000803e3d6000fd5b505050506040513d601f19601f82011682018060405250810190610b299190615a5a565b6019805462ffffff909316600160a01b0262ffffff60a01b1990931692909217909155601b80549192508291600090610b63908490615986565b9250508190555050610b7f338760200151886060015188613ced565b808311158015610b8e57508181105b15610bd65760068054869190600090610bb19084906001600160801b0316615a88565b92506101000a8154816001600160801b0302191690836001600160801b031602179055505b600080610be78585858a6001613d15565b60035460048054604051632f8b294d60e11b81526001600160a01b03938416928101929092529190911660248201526001600160801b0380841660448301528216606482015291935091503390635f16529a90608401600060405180830381600087803b158015610c5757600080fd5b505af1158015610c6b573d6000803e3d6000fd5b50505050816001600160801b0316600014610d185781601460108282829054906101000a90046001600160801b0316610ca49190615a88565b92506101000a8154816001600160801b0302191690836001600160801b03160217905550610ce6600360009054906101000a90046001600160a01b0316613d7f565b601454600160801b90046001600160801b03161115610d185760405163420231d560e11b815260040160405180910390fd5b6001600160801b03811615610db25760158054829190600090610d459084906001600160801b0316615a88565b92506101000a8154816001600160801b0302191690836001600160801b03160217905550610d87600460009054906101000a90046001600160a01b0316613d7f565b6015546001600160801b03161115610db257604051637218102160e11b815260040160405180910390fd5b600280546040805160a0810182526020808d0151850b82526060808e015190950b908201526001600160801b0380871682840152851693810193909352608083018a90525163fbad739160e01b81526001600160a01b039091169163fbad739191610e209190600401615ab3565b600060405180830381600087803b158015610e3a57600080fd5b505af1925050508015610e4b575060015b505050505050610e5a81613e5e565b506001601a55919050565b600080601a5460021415610e8c576040516303cb96db60e21b815260040160405180910390fd5b6002601a55601554600160801b900460ff16610ea7816134cc565b610eb23388886140e5565b610ebf3388888888614214565b601480549295509093508491601090610ee9908490600160801b90046001600160801b0316615af3565b92506101000a8154816001600160801b0302191690836001600160801b0316021790555081601560008282829054906101000a90046001600160801b0316610f319190615af3565b92506101000a8154816001600160801b0302191690836001600160801b03160217905550610f6033848461431f565b600254604080518082018252858152602081018581529151631228c47f60e01b815290516004820152905160248201526001600160a01b0390911690631228c47f90604401600060405180830381600087803b158015610fbf57600080fd5b505af1925050508015610fd0575060015b50610fda81613e5e565b506001601a55909590945092505050565b601a546002141561100f576040516303cb96db60e21b815260040160405180910390fd5b6002601a55601554600160801b900460ff1661102a816134cc565b61106a6040518060e00160405280600081526020016000815260200160008152602001600081526020016000815260200160008152602001600081525090565b6000806110898888600060059054906101000a900462ffffff1661434d565b6040805160e0810182528b8152602081018b90526014546001600160801b03600160801b90910481169282019290925260155482166060820152608081019390935260a08301919091526006541660c08201819052909350151591506111049050576040516320fb348960e21b815260040160405180910390fd5b61110f87878761431f565b608081015160a08201516040516361c9276b60e11b8152339263c3924ed69261113e9289908990600401615b1b565b600060405180830381600087803b15801561115857600080fd5b505af115801561116c573d6000803e3d6000fd5b505060035460009250829150819061118c906001600160a01b0316613d7f565b6004549091506000906111a7906001600160a01b0316613d7f565b905081856080015186604001516111be9190615986565b11156111dd5760405163420231d560e11b815260040160405180910390fd5b808560a0015186606001516111f29190615986565b111561121157604051637218102160e11b815260040160405180910390fd5b61121a82614382565b601480546001600160801b03928316600160801b02921691909117905561124081614382565b601580546001600160801b0319166001600160801b0392909216919091179055604085015161126f9083615b58565b93508460600151816112819190615b58565b602254909350915050821561132857600061129f848361271061439d565b905080601360108282829054906101000a90046001600160801b03166112c59190615a88565b92506101000a8154816001600160801b0302191690836001600160801b03160217905550611310816001600160801b0316856113019190615b58565b600160801b8760c001516143db565b600860008282546113219190615986565b9091555050505b81156113b157600061133d838361271061439d565b60148054919250829160009061135d9084906001600160801b0316615a88565b92506101000a8154816001600160801b0302191690836001600160801b03160217905550611399816001600160801b0316846113019190615b58565b600960008282546113aa9190615986565b9091555050505b6002546040805160a0810182523381528651602080830191825288015182840190815260608301888152608084018881529451630a61fef360e21b815293516001600160a01b039081166004860152925160248501529051604484015251606483015291516084820152911690632987fbcc9060a401600060405180830381600087803b15801561144157600080fd5b505af1925050508015611452575060015b505050505061146081613e5e565b50506001601a5550505050565b6000601a5460021415611493576040516303cb96db60e21b815260040160405180910390fd5b6002601a55601554600160801b900460ff166114ae816134cc565b600080848060200190518101906114c59190615b7f565b915091506000826114e1576015546001600160801b03166114f5565b601454600160801b90046001600160801b03165b6001600160801b031661152884611517576004546001600160a01b0316613d7f565b6003546001600160a01b0316613d7f565b6115329190615b58565b905060006040518061012001604052806000815260200160008152602001600081526020018561156457600854611568565b6009545b81526020018561157a5760095461157e565b6008545b81526019546001600160a01b031660208201526006546001600160801b0316604082015260608101849052608001856115dd57601954600160a01b9004600290810b6000908152601c602052604090205463010000009004900b6115eb565b601954600160a01b900460020b5b60020b905290506115fa613bd8565b6011546116068261448e565b60e08201511561199957600061162083610100015161381b565b6001600160a01b03169050600080871561175157600061164b8660c00151858860a0015160006144e9565b9050808660e00151116117115760c086015160a087015160e088015160609290921b91600091611691918491906116829082615bab565b61168c9086615986565b61439d565b90508086111580156116a657508760a0015181105b6116e4576116d8828960e001518a60a00151856116c39190615be0565b6116cd9190615986565b808204910615150190565b6001600160a01b031690505b6116f98860c00151828a60a001516000614541565b60a0890191909152600060e0890152935061174b9050565b6117268660c00151858860a001516000614541565b60a0870185905260e087018051919450600193508291611747908390615b58565b9052505b50611806565b60006117688660c001518760a00151866000614541565b9050808660e00151116117ca57600061178e8760e00151600160601b8960c001516143db565b8760a0015161179d9190615986565b90506117b48760c001518860a001518360006144e9565b60a0880191909152600060e08801529250611804565b6117df8660c001518760a001518660006144e9565b60a0870185905260e087018051919450600193508291611800908390615b58565b9052505b505b60c0850151156118585761184382600060059054906101000a900462ffffff166022548860c0015189602001518f8b604001518c6060015161456b565b60608901526040880152602087019190915299505b80156119915761186985858a614603565b60c08501516119915761010085015160020b620d89e71914806118a25750611894620d89e719615bf4565b60020b85610100015160020b145b1561196a5787156118f5576118cc60018660a001516118c19190615b58565b6401000276a3614727565b60a086015261010085018051600290810b6000908152601c6020526040902054900b9052611962565b6119368560a0015160016119099190615986565b611928600173fffd8963efd1fc6a506488495d951d5263988d26615c17565b6001600160a01b031661473e565b60a086015261010085018051600290810b6000908152601c602052604090205463010000009004900b90525b505050611999565b61197885610100015161381b565b6001600160a01b031660a086015261199185858a614603565b505050611606565b60a0820151601980546001600160a01b0319166001600160a01b039092169190911790556000856119e557610100830151600290810b6000908152601c6020526040902054900b6119ec565b8261010001515b601954909150600282810b600160a01b909204900b14611a47576019805462ffffff60a01b1916600160a01b62ffffff84160217905560c0830151600680546001600160801b0319166001600160801b039092169190911790555b611a5286858a61474d565b611a658684606001518560400151614889565b8515611a8757600454611a82906001600160a01b031689876134b8565b611a9e565b600354611a9e906001600160a01b031689876134b8565b600254604080516060810182528815158152602081018781528183018c815292516391accd5f60e01b8152915115156004830152516024820152905160448201526001600160a01b03909116906391accd5f90606401600060405180830381600087803b158015611b0e57600080fd5b505af1925050508015611b1f575060015b50505050505050610e5a81613e5e565b6040805160028082526060808301845292602083019080368337505060035482519293506001600160a01b031691839150600090611b6f57611b6f615c37565b6001600160a01b039283166020918202929092010152600454825191169082906001908110611ba057611ba0615c37565b60200260200101906001600160a01b031690816001600160a01b03168152505090565b6005546001600160a01b03163314611bee5760405163ea8e4eb560e01b815260040160405180910390fd5b612710811115611c1157604051633494a40d60e21b815260040160405180910390fd5b602255565b601554600090600160801b900460ff1681611c3082614905565b9050600082611c4a576015546001600160801b0316611c5e565b601454600160801b90046001600160801b03165b9050806001600160801b0316826001600160801b031611611ca157601654601854611c9991600160801b90046001600160801b031690615986565b935050505090565b6016546018546001600160801b038084169285821692611ccc92600160801b90920490911690615986565b611cd69190615986565b611c999190615b58565b6015546000908190600160801b900460ff16611cfd576000611d05565b611d05612576565b9050611d18600854600a54600c546149b2565b611d229082615986565b91505090565b600080601a5460021415611d4f576040516303cb96db60e21b815260040160405180910390fd5b6002601a55601554600160801b900460ff16611d6a816134cc565b6000611d758761381b565b90506000611d828761381b565b6019549091506001600160a01b0316611d99613bd8565b806001600160a01b0316836001600160a01b031611158015611dcc5750816001600160a01b0316816001600160a01b0316105b15611df457600680546001600160801b038082168a9003166001600160801b03199091161790555b611e26836001600160a01b0316836001600160a01b0316836001600160a01b03168a6001600160801b03166000613d15565b6001600160801b0391821697508116955060016001607f1b039088161115611e6157604051631a93c68960e11b815260040160405180910390fd5b611e75338a8a611e708b615c4d565b613ced565b85601460108282829054906101000a90046001600160801b0316611e999190615af3565b92506101000a8154816001600160801b0302191690836001600160801b0316021790555084601560008282829054906101000a90046001600160801b0316611ee19190615af3565b92506101000a8154816001600160801b0302191690836001600160801b03160217905550611f1033878761431f565b601954604051630f92397360e31b8152601c6004820152601d602482015260028b810b60448301528a810b60648301526001600160801b038a166084830152600160a01b90920490910b60a482015260009073__$5c5207d55745a34649a0c7f595c6a505bf$__90637c91cb989060c401604080518083038186803b158015611f9857600080fd5b505af4158015611fac573d6000803e3d6000fd5b505050506040513d601f19601f82011682018060405250810190611fd09190615a5a565b6019805462ffffff909316600160a01b0262ffffff60a01b1990931692909217909155601b8054919250829160009061200a908490615b58565b9091555050600280546040805160a0810182528d840b8152928c900b60208401528281018a9052606083018990526001600160801b038b16608084015251637e4a416960e11b81526001600160a01b03909116925063fc9482d29161207191600401615ab3565b600060405180830381600087803b15801561208b57600080fd5b505af192505050801561209c575060015b505050506120a981613e5e565b506001601a559094909350915050565b601954600090819081906120d5906001600160a01b0316614a12565b90506000601c60008760020b60020b81526020019081526020016000206040518060c00160405290816000820160009054906101000a900460020b60020b60020b81526020016000820160039054906101000a900460020b60020b60020b81526020016000820160069054906101000a90046001600160801b03166001600160801b03166001600160801b0316815260200160018201548152602001600282015481526020016003820160009054906101000a90046001600160a01b03166001600160a01b03166001600160a01b03168152505090506000601c60008760020b60020b81526020019081526020016000206040518060c00160405290816000820160009054906101000a900460020b60020b60020b81526020016000820160039054906101000a900460020b60020b60020b81526020016000820160069054906101000a90046001600160801b03166001600160801b03166001600160801b0316815260200160018201548152602001600282015481526020016003820160009054906101000a90046001600160a01b03166001600160a01b03166001600160a01b03168152505090506000806000806122ac600660009054906101000a90046001600160801b03166001600160801b0316614cf8565b9150915081600a546008546122c19190615986565b6122cb9190615986565b935080600b546009546122de9190615986565b6122e89190615986565b92505050601560109054906101000a900460ff161561231a57612309612576565b6123139083615986565b915061232f565b612322612576565b61232c9082615986565b90505b6000808660020b8b60020b1361236757606086015161234e9083615986565b91508560800151816123609190615986565b905061239f565b60608601516123769085615b58565b6123809083615986565b91508560800151836123929190615b58565b61239c9082615986565b90505b8960020b8760020b12156123d55760608501516123bc9083615986565b91508460800151816123ce9190615986565b905061240d565b60608501516123e49085615b58565b6123ee9083615986565b91508460800151836124009190615b58565b61240a9082615986565b90505b920399919003975095505050505050565b6005546001600160a01b031633146124495760405163ea8e4eb560e01b815260040160405180910390fd5b600280546001600160a01b0319166001600160a01b0392909216919091179055565b6019546000908190612485906001600160a01b0316614a12565b6006549091506000906124a0906001600160801b0316614d3b565b6011546124ad9190615986565b905060008260020b8660020b136124e357600286900b6000908152601d60205260409020546124dc9082615986565b905061250e565b600286900b6000908152601d60205260409020546125019083615b58565b61250b9082615986565b90505b8460020b8360020b121561254157600285900b6000908152601d602052604090205461253a9082615986565b905061256c565b600285900b6000908152601d602052604090205461255f9083615b58565b6125699082615986565b90505b9003949350505050565b601554600090600160801b900460ff168161259082614905565b90506000826125aa576015546001600160801b03166125be565b601454600160801b90046001600160801b03165b6001600160801b0316905080826001600160801b0316116125e457601754935050505090565b6006546001600160801b0316806126015760175494505050505090565b6016546000906001600160801b03600160801b9091048116906126279085908716615b58565b6126319190615986565b905060006126448260225461271061439d565b905061266761265c6001600160801b03831684615b58565b600160801b856143db565b6017546126749190615986565b965050505050505090565b600080601a54600214156126a6576040516303cb96db60e21b815260040160405180910390fd5b6002601a55601554600160801b900460ff166126c1816134cc565b6001546040805163779b492960e11b815290516000926001600160a01b03169163ef369252916004808301926020929190829003018186803b15801561270657600080fd5b505afa15801561271a573d6000803e3d6000fd5b505050506040513d601f19601f8201168201806040525081019061273e9190615c6c565b604080516002808252606082018352929350600092909160208301908036833750506040805160028082526060820183529394506000939092509060208301908036833701905050601354909150600160801b90046001600160801b03161561289257601380546001600160801b0380821690925560148054600160801b9283900484169950899391926010926127d9928692900416615af3565b92506101000a8154816001600160801b0302191690836001600160801b03160217905550612826600360009054906101000a90046001600160a01b0316876001600160801b0316856134b8565b60035482516001600160a01b0390911690839060009061284857612848615c37565b60200260200101906001600160a01b031690816001600160a01b031681525050856001600160801b03168160008151811061288557612885615c37565b6020026020010181815250505b6014546001600160801b03161561299257601480546001600160801b03198116909155601580546001600160801b03928316975087926000916128d791859116615af3565b92506101000a8154816001600160801b0302191690836001600160801b03160217905550612924600460009054906101000a90046001600160a01b0316866001600160801b0316856134b8565b60045482516001600160a01b03909116908390600190811061294857612948615c37565b60200260200101906001600160a01b031690816001600160a01b031681525050846001600160801b03168160018151811061298557612985615c37565b6020026020010181815250505b6001600160a01b0383163b15612a0357604051630f03328360e41b81526001600160a01b0384169063f0332830906129d09085908590600401615c89565b600060405180830381600087803b1580156129ea57600080fd5b505af11580156129fe573d6000803e3d6000fd5b505050505b505050612a0f81613e5e565b506001601a559091565b600054610100900460ff16612a345760005460ff1615612a38565b303b155b612aa05760405162461bcd60e51b815260206004820152602e60248201527f496e697469616c697a61626c653a20636f6e747261637420697320616c72656160448201526d191e481a5b9a5d1a585b1a5e995960921b60648201526084015b60405180910390fd5b600054610100900460ff16158015612ac2576000805461ffff19166101011790555b60008060008060008088806020019051810190612adf9190615cf3565b95509550955095509550955085600360006101000a8154816001600160a01b0302191690836001600160a01b0316021790555084600460006101000a8154816001600160a01b0302191690836001600160a01b0316021790555083601060006101000a8154816001600160a01b0302191690836001600160a01b0316021790555082600060056101000a81548162ffffff021916908362ffffff16021790555081600060026101000a81548162ffffff021916908362ffffff16021790555033600560006101000a8154816001600160a01b0302191690836001600160a01b0316021790555087600160006101000a8154816001600160a01b0302191690836001600160a01b0316021790555080601560106101000a81548160ff021916908315150217905550612c0f82614d63565b600060086101000a8154816001600160801b0302191690836001600160801b031602179055506040518060c00160405280620d89e71960020b8152602001620d89e719612c5b90615bf4565b60020b815260006020808301829052604080840183905260608085018490526080948501849052620d89e71993849052601c835285517f312e29fa10e2dff7af4afff8ca91ba272d48aceeec966ecfff784af0b0aa924c805488860151898601516001600160801b0316600160301b02600160301b600160b01b031962ffffff92831663010000000265ffffffffffff19909416929095169190911791909117929092169190911790558501517f312e29fa10e2dff7af4afff8ca91ba272d48aceeec966ecfff784af0b0aa924d55928401517f312e29fa10e2dff7af4afff8ca91ba272d48aceeec966ecfff784af0b0aa924e5560a0909301517f312e29fa10e2dff7af4afff8ca91ba272d48aceeec966ecfff784af0b0aa924f80546001600160a01b03929092166001600160a01b0319909216919091179055815160c081019092528082529091820190612db190615bf4565b60020b815260200160006001600160801b03168152602001600081526020016000815260200160006001600160a01b0316815250601c6000620d89e719612df790615bf4565b600290810b825260208083019390935260409182016000208451815486860151948701516001600160801b0316600160301b02600160301b600160b01b031962ffffff96871663010000000265ffffffffffff1990931696909316959095171716929092178255606084015160018084019190915560808501518383015560a090940151600390920180546001600160a01b039093166001600160a01b03199093169290921790915560198054621e4ec360a31b62ffffff60a01b19909116179055601a929092556007805463ffffffff42908116600160a01b0263ffffffff60a01b1990921691909117909155601b9290925555505043602155505082159150612f0a9050576000805461ff00191690555b505050565b601a5460021415612f33576040516303cb96db60e21b815260040160405180910390fd5b6002601a55601554600160801b900460ff16612f4e816134cc565b6001546040805163d0a9317360e01b8152905133926001600160a01b03169163d0a931739160048083019260209291908290030181600087803b158015612f9457600080fd5b505af1158015612fa8573d6000803e3d6000fd5b505050506040513d601f19601f82011682018060405250810190612fcc9190615c6c565b6001600160a01b031614612ff35760405163ea8e4eb560e01b815260040160405180910390fd5b42612ffe8385615986565b1161301c57604051633494a40d60e21b815260040160405180910390fd5b600e54600f5460009061302f9083615986565b90508481111561305257604051633494a40d60e21b815260040160405180910390fd5b6001600160801b038816156130c957600354613080906001600160a01b03166001600160801b038a16614da3565b87601460108282829054906101000a90046001600160801b03166130a49190615a88565b92506101000a8154816001600160801b0302191690836001600160801b031602179055505b6001600160801b0387161561313a576004546130f7906001600160a01b03166001600160801b038916614da3565b601580548891906000906131159084906001600160801b0316615a88565b92506101000a8154816001600160801b0302191690836001600160801b031602179055505b6001600160801b0386161561316857601054613168906001600160a01b03166001600160801b038816614da3565b6000613172614db8565b111561320a57613180613bd8565b600754600160a01b900463ffffffff16818110156132085760006131a48285614727565b6131ae9084615b58565b90506131c46131bf600c5483614e16565b614382565b6131ce908b615a88565b99506131df6131bf600d5483614e16565b6131e9908a615a88565b98506131fa6131bf60125483614e16565b6132049089615a88565b9750505b505b613222886001600160801b0316600160801b866143db565b600c5561323d6001600160801b038816600160801b866143db565b600d556132586001600160801b038716600160801b866143db565b6012555050600e839055600f82905561146081613e5e565b6015546000908190600160801b900460ff166132935761328e612576565b613296565b60005b9050611d18600954600b54600d546149b2565b6005546001600160a01b031633146132d45760405163ea8e4eb560e01b815260040160405180910390fd5b6019546001600160a01b0316156132fe57604051630bca0b1b60e21b815260040160405180910390fd5b61330781614e27565b601980546001600160a01b0319166001600160a01b0392909216919091179055565b600061333b60006011546012546149b2565b905090565b6001600160a01b0383166000908152601f60209081526040808320600286810b85529083528184209085900b845290915281209061337e848461246b565b82546001600160a01b0387166000908152601e6020908152604080832060028a810b85529083528184209089900b8452909152812054929350916133cd918403906001600160801b0316614e16565b82845560018401805491925082916000906133f29084906001600160801b0316615a88565b92506101000a8154816001600160801b0302191690836001600160801b03160217905550505050505050565b6001600160a01b0384166000908152601f60209081526040808320600287810b85529083528184209086900b845290915281206001810154613469906001600160801b03168461473e565b600182018054919350839160009061348b9084906001600160801b0316615af3565b92506101000a8154816001600160801b0302191690836001600160801b0316021790555050949350505050565b612f0a6001600160a01b0384168284614e7e565b60006134d782614905565b90506000826134f1576015546001600160801b0316613505565b601454600160801b90046001600160801b03165b9050806001600160801b0316826001600160801b03161161352557505050565b821561354a57601480546001600160801b03808516600160801b029116179055613566565b601580546001600160801b0319166001600160801b0384161790555b60006135728284615af3565b6006549091506001600160801b0316806135d55781601660108282829054906101000a90046001600160801b03166135aa9190615a88565b92506101000a8154816001600160801b0302191690836001600160801b031602179055505050505050565b601654600160801b90046001600160801b0316801561360a576135f88184615a88565b601680546001600160801b0316905592505b6000613624846001600160801b031660225461271061439d565b905086156136795780601360108282829054906101000a90046001600160801b03166136509190615a88565b92506101000a8154816001600160801b0302191690836001600160801b031602179055506136bc565b601480548291906000906136979084906001600160801b0316615a88565b92506101000a8154816001600160801b0302191690836001600160801b031602179055505b6136e66136c98286615af3565b6001600160801b0316600160801b856001600160801b03166143db565b601760008282546136f79190615986565b9091555050601880546001600160801b0390951694909401909355505050505050565b6000546137329062010000900462ffffff1683615d6f565b60020b15613753576040516333a3bdff60e21b815260040160405180910390fd5b60005460029061376e9062010000900462ffffff1684615d91565b6137789190615d6f565b60020b1561379957604051637ef8a10160e11b815260040160405180910390fd5b6000546137b19062010000900462ffffff1682615d6f565b60020b156137d2576040516333a3bdff60e21b815260040160405180910390fd5b6000546002906137ed9062010000900462ffffff1683615d91565b6137f79190615d6f565b60020b6138175760405163a9778c6360e01b815260040160405180910390fd5b5050565b60008060008360020b12613832578260020b61383f565b8260020b61383f90615dcb565b905061384e620d89e719615bf4565b62ffffff1681111561387357604051633e1f710360e21b815260040160405180910390fd5b60006001821661388757600160801b613899565b6ffffcb933bd6fad37aa2d162d1a5940015b6001600160881b0316905060028216156138c3576ffff97272373d413259a46990580e213a0260801c5b60048216156138e2576ffff2e50f5f656932ef12357cf3c7fdcc0260801c5b6008821615613901576fffe5caca7e10e4e61c3624eaa0941cd00260801c5b6010821615613920576fffcb9843d60f6159c9db58835c9266440260801c5b602082161561393f576fff973b41fa98c081472e6896dfb254c00260801c5b604082161561395e576fff2ea16466c96a3843ec78b326b528610260801c5b608082161561397d576ffe5dee046a99a2a811c461f1969c30530260801c5b61010082161561399d576ffcbe86c7900a88aedcffc83b479aa3a40260801c5b6102008216156139bd576ff987a7253ac413176f2b074cf7815e540260801c5b6104008216156139dd576ff3392b0822b70005940c7a398e4b70f30260801c5b6108008216156139fd576fe7159475a2c29b7443b29c7fa6e889d90260801c5b611000821615613a1d576fd097f3bdfd2022b8845ad8f792aa58250260801c5b612000821615613a3d576fa9f746462d870fdf8a65dc1f90e061e50260801c5b614000821615613a5d576f70d869a156d2a1b890bb3df62baf32f70260801c5b618000821615613a7d576f31be135f97d08fd981231505542fcfa60260801c5b62010000821615613a9e576f09aa508b5b7a84e1c677de54f3e99bc90260801c5b62020000821615613abe576e5d6af8dedb81196699c329225ee6040260801c5b62040000821615613add576d2216e584f5fa1ea926041bedfe980260801c5b62080000821615613afa576b048a170391f7dc42444e8fa20260801c5b60008460020b1315613b1b578060001981613b1757613b17615bca565b0490505b640100000000810615613b2f576001613b32565b60005b60ff16602082901c0192505050919050565b6000838511613b6557613b5e83600160601b8888036143db565b9050613bcf565b858411613b8757613b5e82613b7f8888600160601b6143db565b8888036143db565b6000613ba483613b9c8888600160601b6143db565b8789036143db565b90506000613bb985600160601b8a89036143db565b9050808210613bc85780613bca565b815b925050505b95945050505050565b6006546001600160801b031680613bec5750565b600754600160a01b900463ffffffff16428110613c07575050565b6000613c11614db8565b90508015613c8557613c26600c5482856143db565b600a6000828254613c379190615986565b9091555050600d54613c4a9082856143db565b600b6000828254613c5b9190615986565b9091555050601254613c6e9082856143db565b60116000828254613c7f9190615986565b90915550505b6007805463ffffffff42908116600160a01b0263ffffffff60a01b1990921691909117909155839083900360801b81613cc057613cc0615bca565b600780546001600160a01b03198116939092046001600160a01b0392831601909116919091179055505050565b613cf88484846140e5565b613d03848484613340565b613d0f84848484614ee1565b50505050565b600080848611613d3557613d2e6131bf85898987614541565b9050613d75565b868511613d5257613d4b6131bf858989876144e9565b9150613d75565b613d616131bf858789876144e9565b9150613d726131bf85898887614541565b90505b9550959350505050565b6000806000836001600160a01b03166370a0823160e01b30604051602401613da79190615598565b60408051601f198184030181529181526020820180516001600160e01b03166001600160e01b0319909416939093179092529051613de59190615e14565b600060405180830381855afa9150503d8060008114613e20576040519150601f19603f3d011682016040523d82523d6000602084013e613e25565b606091505b5091509150818015613e3957506020815110155b613e4257600080fd5b80806020019051810190613e569190615e30565b949350505050565b8015613fa357600354604051633d7ad0b760e21b81526001600160a01b0390911690819063f5eb42dc90613e96903090600401615598565b60206040518083038186803b158015613eae57600080fd5b505afa158015613ec2573d6000803e3d6000fd5b505050506040513d601f19601f82011682018060405250810190613ee69190615e30565b601680546001600160801b0319166001600160801b03929092169190911790556040516370a0823160e01b81526001600160a01b038216906370a0823190613f32903090600401615598565b60206040518083038186803b158015613f4a57600080fd5b505afa158015613f5e573d6000803e3d6000fd5b505050506040513d601f19601f82011682018060405250810190613f829190615e30565b601480546001600160801b03928316600160801b0292169190911790555050565b60048054604051633d7ad0b760e21b81526001600160a01b0390911691829163f5eb42dc91613fd491309101615598565b60206040518083038186803b158015613fec57600080fd5b505afa158015614000573d6000803e3d6000fd5b505050506040513d601f19601f820116820180604052508101906140249190615e30565b601680546001600160801b0319166001600160801b03929092169190911790556040516370a0823160e01b81526001600160a01b038216906370a0823190614070903090600401615598565b60206040518083038186803b15801561408857600080fd5b505afa15801561409c573d6000803e3d6000fd5b505050506040513d601f19601f820116820180604052508101906140c09190615e30565b601580546001600160801b0319166001600160801b0392909216919091179055505b50565b6001600160a01b0383166000908152601e60209081526040808320600286810b85529083528184209085900b84529091528120908061412485856120b9565b60018501548554929450909250600091829161414c91908603906001600160801b0316614e16565b6002860154865491935061416c91908503906001600160801b0316614e16565b6001860185905560028601849055600386018054919250839160009061419c9084906001600160801b0316615a88565b92506101000a8154816001600160801b0302191690836001600160801b03160217905550808560030160108282829054906101000a90046001600160801b03166141e69190615a88565b92506101000a8154816001600160801b0302191690836001600160801b031602179055505050505050505050565b6001600160a01b0385166000908152601e60209081526040808320600288810b85529083528184209087900b845290915281206003810154829190614262906001600160801b03168661473e565b600382015490935061428490600160801b90046001600160801b03168561473e565b60038201805491935084916000906142a69084906001600160801b0316615af3565b92506101000a8154816001600160801b0302191690836001600160801b03160217905550818160030160108282829054906101000a90046001600160801b03166142f09190615af3565b92506101000a8154816001600160801b0302191690836001600160801b03160217905550509550959350505050565b600354614336906001600160a01b031683856134b8565b600454612f0a906001600160a01b031682856134b8565b600080614363858462ffffff16620f424061439d565b9150614378848462ffffff16620f424061439d565b9050935093915050565b806001600160801b038116811461439857600080fd5b919050565b60006143aa8484846143db565b905081806143ba576143ba615bca565b838509156143d45760001981106143d057600080fd5b6001015b9392505050565b600080806000198587098587029250828110838203039150508060001415614415576000841161440a57600080fd5b5082900490506143d4565b80841161442157600080fd5b6000848688096000868103871696879004966002600389028118808a02820302808a02820302808a02820302808a02820302808a02820302808a02909103029181900381900460010186841190950394909402919094039290920491909117919091029150509392505050565b60c08101511561449b5750565b61010081015160020b620d89e71914806144cb57506144bd620d89e719615bf4565b60020b81610100015160020b145b156140e25760405163035d2ccd60e51b815260040160405180910390fd5b6000811561451857614511614505606087901b8686038661439d565b85808204910615150190565b9050613e56565b8361452a606087901b828603866143db565b8161453757614537615bca565b0495945050505050565b6000811561455a5761451185858503600160601b61439d565b613bcf85858503600160601b6143db565b60008060008060006145868d8d62ffffff16620f424061439d565b9050614592818a615986565b985061459e818e615b58565b6145a89089615986565b975060006145b9828d61271061439d565b90506145c58189615986565b97506145d18183615b58565b91506145e282600160801b8d6143db565b6145ec9088615986565b999e989d50969b5097995095975050505050505050565b601554600090600160801b900460ff1661461e576000614622565b6017545b601554909150600090600160801b900460ff1661464157601754614644565b60005b61010086015160075460c088015192935061470f92601d92916001600160a01b0316908761468e5786600a548b6060015161467f9190615986565b6146899190615986565b6146ab565b85600b548b606001516146a19190615986565b6146ab9190615986565b886146d25786600b548c608001516146c39190615986565b6146cd9190615986565b6146ef565b87600a548c608001516146e59190615986565b6146ef9190615986565b600054601c969594939291908c908c9062010000900462ffffff16614fd0565b60020b61010087015260c09095019490945250505050565b60008183101561473757816143d4565b5090919050565b600081831061473757816143d4565b82156147ec5760035460009061476b906001600160a01b0316613d7f565b60145490915060009061478f908590600160801b90046001600160801b0316615a88565b905081816001600160801b031611156147bb5760405163420231d560e11b815260040160405180910390fd5b601480546001600160801b03908116600160801b84831602179091556015805485926000916135aa91859116615af3565b600454600090614804906001600160a01b0316613d7f565b6015549091506000906148219085906001600160801b0316615a88565b905081816001600160801b0316111561484d57604051637218102160e11b815260040160405180910390fd5b601580546001600160801b0319166001600160801b03838116919091179091556014805485926010916135aa918591600160801b900416615af3565b82156148db576009829055601480548291906000906148b29084906001600160801b0316615a88565b92506101000a8154816001600160801b0302191690836001600160801b03160217905550505050565b6008829055601380548291906010906148b2908490600160801b90046001600160801b0316615a88565b6000808261491e576004546001600160a01b031661492b565b6003546001600160a01b03165b601654604051632cc7243560e21b81526001600160801b0390911660048201529091506001600160a01b0382169063b31c90d49060240160206040518083038186803b15801561497a57600080fd5b505afa15801561498e573d6000803e3d6000fd5b505050506040513d601f19601f820116820180604052508101906143d49190615e30565b6000806149bd614db8565b6006549091506001600160801b031681158015906149db5750600081115b15614a08576149eb8483836143db565b6149f58688615986565b6149ff9190615986565b925050506143d4565b6149ff8587615986565b60006401000276a36001600160a01b0383161080614a4d575073fffd8963efd1fc6a506488495d951d5263988d266001600160a01b03831610155b15614a6b57604051636e4ba61d60e01b815260040160405180910390fd5b640100000000600160c01b03602083901b166001600160801b03811160071b81811c67ffffffffffffffff811160061b90811c63ffffffff811160051b90811c61ffff811160041b90811c60ff8111600390811b91821c600f811160021b90811c918211600190811b92831c97908811961790941790921717909117171760808110614aff57607f810383901c9150614b09565b80607f0383901b91505b908002607f81811c60ff83811c9190911c800280831c81831c1c800280841c81841c1c800280851c81851c1c800280861c81861c1c800280871c81871c1c800280881c81881c1c800280891c81891c1c8002808a1c818a1c1c8002808b1c818b1c1c8002808c1c818c1c1c8002808d1c818d1c1c8002808e1c9c81901c9c909c1c80029c8d901c9e9d607f198f0160401b60c09190911c6001603f1b161760c19b909b1c6001603e1b169a909a1760c29990991c6001603d1b169890981760c39790971c6001603c1b169690961760c49590951c6001603b1b169490941760c59390931c6001603a1b169290921760c69190911c600160391b161760c79190911c600160381b161760c89190911c6680000000000000161760c99190911c6640000000000000161760ca9190911c6620000000000000161760cb9190911c6610000000000000161760cc9190911c6608000000000000161760cd9190911c66040000000000001617693627a301d71055774c8581026f028f6481ab7f045a5af012a19d003aa9198101608090811d906fdb2df09e81959a81455e260799a0632f8301901d600281810b9083900b14614ce957886001600160a01b0316614cce8261381b565b6001600160a01b03161115614ce35781614ceb565b80614ceb565b815b9998505050505050505050565b60008082614d0b57506000928392509050565b6000614d15614db8565b9050614d24600c5482866143db565b9250614d33600d5482866143db565b915050915091565b600081614d4a57506000919050565b6000614d54614db8565b90506143d460125482856143db565b6000614d70826002615e49565b614d7d620d89e719615bf4565b614d879190615e74565b614d9d9062ffffff166001600160801b03615e96565b92915050565b6138176001600160a01b038316333084615256565b600e54600090428110614dcd57600091505090565b600754600f54600160a01b90910463ffffffff1690600090614def9084615986565b9050818111614e02576000935050505090565b614e0c8284614727565b611cd6428361473e565b60006143d48383600160801b6143db565b6401000276a36001600160a01b0382161080614e60575073fffd8963efd1fc6a506488495d951d5263988d266001600160a01b03821610155b156140e257604051636e4ba61d60e01b815260040160405180910390fd5b6040516001600160a01b038316602482015260448101829052612f0a90849063a9059cbb60e01b906064015b60408051601f198184030181529190526020810180516001600160e01b03166001600160e01b03199093169290921790915261528e565b80600f0b60001415614ef257613d0f565b6001600160a01b0384166000908152601e60209081526040808320600287810b85529083528184209086900b8452909152812090600f83900b1315614fa557805482908290600090614f4e9084906001600160801b0316615a88565b82546101009290920a6001600160801b038181021990931691831602179091556000548354600160401b9091048216911611159050614fa05760405163581a12d760e11b815260040160405180910390fd5b614fc9565b614fae82615c4d565b815482906000906135aa9084906001600160801b0316615af3565b5050505050565b600288900b600090815260208b905260408120600301548190614ffc906001600160a01b03168a615c17565b60028b900b600090815260208e8152604080832060030180546001600160a01b0319166001600160a01b0395909516949094179093558d905220546150419086615b58565b60028b900b600090815260208d90526040902055831561514e5760028360020b8b60020b8161507257615072615bca565b0560020b8161508357615083615bca565b0760020b6150b85760028a900b600090815260208d90526040902054600160301b90046001600160801b0316909703966150e2565b60028a900b600090815260208d90526040902054600160301b90046001600160801b031697909701965b60028a900b600090815260208d905260409020600101546151039087615b58565b60028b810b600090815260208f9052604090206001810192909255015461512a9088615b58565b60029a8b0b600090815260208e905260409020808c01919091555490990b98615244565b60028360020b8b60020b8161516557615165615bca565b0560020b8161517657615176615bca565b0760020b6151ac5760028a900b600090815260208d90526040902054600160301b90046001600160801b031697909701966151d5565b60028a900b600090815260208d90526040902054600160301b90046001600160801b0316909703965b60028a810b600090815260208e90526040902001546151f49087615b58565b60028b810b600090815260208f905260409020908101919091556001015461521c9088615b58565b60029a8b0b600090815260208e9052604090206001810191909155546301000000900490990b985b50959a97995096975050505050505050565b6040516001600160a01b0380851660248301528316604482015260648101829052613d0f9085906323b872dd60e01b90608401614eaa565b60006152e3826040518060400160405280602081526020017f5361666545524332303a206c6f772d6c6576656c2063616c6c206661696c6564815250856001600160a01b03166153609092919063ffffffff16565b805190915015612f0a57808060200190518101906153019190615eb0565b612f0a5760405162461bcd60e51b815260206004820152602a60248201527f5361666545524332303a204552433230206f7065726174696f6e20646964206e6044820152691bdd081cdd58d8d9595960b21b6064820152608401612a97565b6060613e568484600085856001600160a01b0385163b6153c25760405162461bcd60e51b815260206004820152601d60248201527f416464726573733a2063616c6c20746f206e6f6e2d636f6e74726163740000006044820152606401612a97565b600080866001600160a01b031685876040516153de9190615e14565b60006040518083038185875af1925050503d806000811461541b576040519150601f19603f3d011682016040523d82523d6000602084013e615420565b606091505b509150915061543082828661543b565b979650505050505050565b6060831561544a5750816143d4565b82511561545a5782518084602001fd5b8160405162461bcd60e51b8152600401612a979190615ecb565b8060020b81146140e257600080fd5b60008060006060848603121561549857600080fd5b83356154a381615474565b925060208401356154b381615474565b929592945050506040919091013590565b634e487b7160e01b600052604160045260246000fd5b80356001600160801b038116811461439857600080fd5b600060c0828403121561550357600080fd5b60405160c0810181811067ffffffffffffffff82111715615526576155266154c4565b604052823561553481615474565b8152602083013561554481615474565b6020820152604083013561555781615474565b6040820152606083013561556a81615474565b606082015261557b608084016154da565b608082015261558c60a084016154da565b60a08201529392505050565b6001600160a01b0391909116815260200190565b600080600080608085870312156155c257600080fd5b84356155cd81615474565b935060208501356155dd81615474565b93969395505050506040820135916060013590565b6001600160a01b03811681146140e257600080fd5b60008060008060006080868803121561561f57600080fd5b853561562a816155f2565b94506020860135935060408601359250606086013567ffffffffffffffff8082111561565557600080fd5b818801915088601f83011261566957600080fd5b81358181111561567857600080fd5b89602082850101111561568a57600080fd5b9699959850939650602001949392505050565b600082601f8301126156ae57600080fd5b813567ffffffffffffffff808211156156c9576156c96154c4565b604051601f8301601f19908116603f011681019082821181831017156156f1576156f16154c4565b8160405283815286602085880101111561570a57600080fd5b836020870160208301376000602085830101528094505050505092915050565b60006020828403121561573c57600080fd5b813567ffffffffffffffff81111561575357600080fd5b613e568482850161569d565b600081518084526020808501945080840160005b838110156157985781516001600160a01b031687529582019590820190600101615773565b509495945050505050565b6020815260006143d4602083018461575f565b6000602082840312156157c857600080fd5b5035919050565b6000806000606084860312156157e457600080fd5b83356157ef81615474565b925060208401356157ff81615474565b915061580d604085016154da565b90509250925092565b60008060006060848603121561582b57600080fd5b8335615836816155f2565b9250602084013561584681615474565b9150604084013561585681615474565b809150509250925092565b6000806040838503121561587457600080fd5b823561587f81615474565b9150602083013561588f81615474565b809150509250929050565b6000602082840312156158ac57600080fd5b81356143d4816155f2565b600080604083850312156158ca57600080fd5b823567ffffffffffffffff8111156158e157600080fd5b6158ed8582860161569d565b925050602083013561588f816155f2565b600080600080600060a0868803121561591657600080fd5b61591f866154da565b945061592d602087016154da565b935061593b604087016154da565b94979396509394606081013594506080013592915050565b60006020828403121561596557600080fd5b81356143d481615474565b634e487b7160e01b600052601160045260246000fd5b6000821982111561599957615999615970565b500190565b60006101a0820190508b82528a60208301528951604083015260208a0151606083015260408a0151608083015260018060a01b0360608b01511660a08301526159ec60c083018a60020b9052565b6159fb60e083018960020b9052565b615a0b61010083018860020b9052565b615a1b61012083018760020b9052565b6001600160801b038516610140830152615a3b61016083018560020b9052565b6001600160a01b0383166101808301529b9a5050505050505050505050565b60008060408385031215615a6d57600080fd5b8251615a7881615474565b6020939093015192949293505050565b60006001600160801b03828116848216808303821115615aaa57615aaa615970565b01949350505050565b600060a082019050825160020b8252602083015160020b602083015260408301516040830152606083015160608301526080830151608083015292915050565b60006001600160801b0383811690831681811015615b1357615b13615970565b039392505050565b84815283602082015260606040820152816060820152818360808301376000818301608090810191909152601f909201601f191601019392505050565b600082821015615b6a57615b6a615970565b500390565b8051801515811461439857600080fd5b60008060408385031215615b9257600080fd5b615b9b83615b6f565b9150602083015161588f816155f2565b6000816000190483118215151615615bc557615bc5615970565b500290565b634e487b7160e01b600052601260045260246000fd5b600082615bef57615bef615bca565b500490565b60008160020b627fffff19811415615c0e57615c0e615970565b60000392915050565b60006001600160a01b0383811690831681811015615b1357615b13615970565b634e487b7160e01b600052603260045260246000fd5b6000600f82900b60016001607f1b0319811415615c0e57615c0e615970565b600060208284031215615c7e57600080fd5b81516143d4816155f2565b604081526000615c9c604083018561575f565b82810360208481019190915284518083528582019282019060005b81811015615cd357845183529383019391830191600101615cb7565b5090979650505050505050565b805162ffffff8116811461439857600080fd5b60008060008060008060c08789031215615d0c57600080fd5b8651615d17816155f2565b6020880151909650615d28816155f2565b6040880151909550615d39816155f2565b9350615d4760608801615ce0565b9250615d5560808801615ce0565b9150615d6360a08801615b6f565b90509295509295509295565b60008260020b80615d8257615d82615bca565b808360020b0791505092915050565b60008160020b8360020b80615da857615da8615bca565b627fffff19821460001982141615615dc257615dc2615970565b90059392505050565b6000600160ff1b821415615de157615de1615970565b5060000390565b60005b83811015615e03578181015183820152602001615deb565b83811115613d0f5750506000910152565b60008251615e26818460208701615de8565b9190910192915050565b600060208284031215615e4257600080fd5b5051919050565b600062ffffff80831681851681830481118215151615615e6b57615e6b615970565b02949350505050565b600062ffffff80841680615e8a57615e8a615bca565b92169190910492915050565b60006001600160801b0383811680615e8a57615e8a615bca565b600060208284031215615ec257600080fd5b6143d482615b6f565b6020815260008251806020840152615eea816040850160208701615de8565b601f01601f1916919091016040019291505056fea2646970667358221220f6ac7e86d54bc2a3e677dc39ebaa1cc2dcfb8514f7ccdba1db0915b88c79d5f864736f6c63430008090033",
  "libraries": {
    "RewardTicks": "0xaCc9af149D4E4B75304eb865B3120aF152B3652C"
  }
}