{
  "address": "0xc2F557f8fca7b265c1c65a5533831769B8E7050d",
  "abi": [
    {
      "inputs": [],
      "name": "NotExists",
      "type": "error"
    },
    {
      "inputs": [],
      "name": "NotLPAirdropDistributor",
      "type": "error"
    },
    {
      "inputs": [],
      "name": "NotPoolToken",
      "type": "error"
    },
    {
      "inputs": [],
      "name": "NotYet",
      "type": "error"
    },
    {
      "inputs": [],
      "name": "Overflow",
      "type": "error"
    },
    {
      "anonymous": false,
      "inputs": [
        {
          "indexed": true,
          "internalType": "address",
          "name": "pool",
          "type": "address"
        },
        {
          "indexed": false,
          "internalType": "address",
          "name": "token0",
          "type": "address"
        },
        {
          "indexed": false,
          "internalType": "address",
          "name": "token1",
          "type": "address"
        },
        {
          "indexed": false,
          "internalType": "uint128",
          "name": "amount0",
          "type": "uint128"
        },
        {
          "indexed": false,
          "internalType": "uint128",
          "name": "amount1",
          "type": "uint128"
        },
        {
          "indexed": false,
          "internalType": "uint256",
          "name": "startTime",
          "type": "uint256"
        },
        {
          "indexed": false,
          "internalType": "uint256",
          "name": "period",
          "type": "uint256"
        }
      ],
      "name": "Airdrop",
      "type": "event"
    },
    {
      "anonymous": false,
      "inputs": [
        {
          "indexed": true,
          "internalType": "address",
          "name": "pool",
          "type": "address"
        },
        {
          "indexed": false,
          "internalType": "address",
          "name": "token",
          "type": "address"
        },
        {
          "indexed": false,
          "internalType": "uint256",
          "name": "amount",
          "type": "uint256"
        },
        {
          "indexed": false,
          "internalType": "address",
          "name": "depositor",
          "type": "address"
        }
      ],
      "name": "Deposit",
      "type": "event"
    },
    {
      "inputs": [],
      "name": "PERIOD",
      "outputs": [
        {
          "internalType": "uint256",
          "name": "",
          "type": "uint256"
        }
      ],
      "stateMutability": "view",
      "type": "function"
    },
    {
      "inputs": [
        {
          "internalType": "address",
          "name": "pool",
          "type": "address"
        }
      ],
      "name": "airdrop",
      "outputs": [],
      "stateMutability": "nonpayable",
      "type": "function"
    },
    {
      "inputs": [],
      "name": "airdropAll",
      "outputs": [],
      "stateMutability": "nonpayable",
      "type": "function"
    },
    {
      "inputs": [
        {
          "internalType": "uint256",
          "name": "",
          "type": "uint256"
        }
      ],
      "name": "airdropPool",
      "outputs": [
        {
          "internalType": "address",
          "name": "",
          "type": "address"
        }
      ],
      "stateMutability": "view",
      "type": "function"
    },
    {
      "inputs": [],
      "name": "airdropPoolLength",
      "outputs": [
        {
          "internalType": "uint256",
          "name": "",
          "type": "uint256"
        }
      ],
      "stateMutability": "view",
      "type": "function"
    },
    {
      "inputs": [
        {
          "internalType": "address",
          "name": "pool",
          "type": "address"
        },
        {
          "internalType": "uint256",
          "name": "idx",
          "type": "uint256"
        }
      ],
      "name": "airdropSnapshot",
      "outputs": [
        {
          "components": [
            {
              "internalType": "uint256",
              "name": "amount0",
              "type": "uint256"
            },
            {
              "internalType": "uint256",
              "name": "amount1",
              "type": "uint256"
            },
            {
              "internalType": "uint256",
              "name": "startTime",
              "type": "uint256"
            }
          ],
          "internalType": "struct IAirdropDistributorStruct.AirdropInfo",
          "name": "snapshot",
          "type": "tuple"
        }
      ],
      "stateMutability": "view",
      "type": "function"
    },
    {
      "inputs": [
        {
          "internalType": "address",
          "name": "pool",
          "type": "address"
        }
      ],
      "name": "airdropSnapshotLength",
      "outputs": [
        {
          "internalType": "uint256",
          "name": "length",
          "type": "uint256"
        }
      ],
      "stateMutability": "view",
      "type": "function"
    },
    {
      "inputs": [
        {
          "internalType": "address",
          "name": "pool",
          "type": "address"
        }
      ],
      "name": "depositKlay",
      "outputs": [],
      "stateMutability": "payable",
      "type": "function"
    },
    {
      "inputs": [
        {
          "internalType": "address",
          "name": "pool",
          "type": "address"
        },
        {
          "internalType": "address",
          "name": "token",
          "type": "address"
        },
        {
          "internalType": "uint128",
          "name": "amount",
          "type": "uint128"
        }
      ],
      "name": "depositToken",
      "outputs": [],
      "stateMutability": "nonpayable",
      "type": "function"
    },
    {
      "inputs": [
        {
          "internalType": "address",
          "name": "pool",
          "type": "address"
        }
      ],
      "name": "depositedAirdrop",
      "outputs": [
        {
          "components": [
            {
              "internalType": "uint256",
              "name": "amount0",
              "type": "uint256"
            },
            {
              "internalType": "uint256",
              "name": "amount1",
              "type": "uint256"
            },
            {
              "internalType": "uint256",
              "name": "startTime",
              "type": "uint256"
            }
          ],
          "internalType": "struct IAirdropDistributorStruct.AirdropInfo",
          "name": "",
          "type": "tuple"
        }
      ],
      "stateMutability": "view",
      "type": "function"
    },
    {
      "inputs": [],
      "name": "epochStartTime",
      "outputs": [
        {
          "internalType": "uint256",
          "name": "",
          "type": "uint256"
        }
      ],
      "stateMutability": "view",
      "type": "function"
    },
    {
      "inputs": [
        {
          "internalType": "address",
          "name": "_masterDeployer",
          "type": "address"
        },
        {
          "internalType": "address",
          "name": "_WKLAY",
          "type": "address"
        }
      ],
      "name": "initialize",
      "outputs": [],
      "stateMutability": "nonpayable",
      "type": "function"
    },
    {
      "inputs": [],
      "name": "masterDeployer",
      "outputs": [
        {
          "internalType": "contract IMasterDeployer",
          "name": "",
          "type": "address"
        }
      ],
      "stateMutability": "view",
      "type": "function"
    },
    {
      "inputs": [],
      "name": "nextEpochStartTime",
      "outputs": [
        {
          "internalType": "uint256",
          "name": "",
          "type": "uint256"
        }
      ],
      "stateMutability": "view",
      "type": "function"
    }
  ],
  "transactionHash": "0xb541f8688d92a589b860def1962e2132d44688b913102c782bda9e85f7228507",
  "args": [],
  "numDeployments": 1,
  "solcInputHash": "f775cf71cf3afe8bafbf3e3b34605380",
  "bytecode": "0x608060405234801561001057600080fd5b50611c0d806100206000396000f3fe6080604052600436106100dd5760003560e01c8063b15e44c21161007f578063c0dcb4d211610059578063c0dcb4d214610247578063cf58879a1461028a578063f5006563146102b7578063f60ca641146102d757600080fd5b8063b15e44c2146101cb578063b4d1d79514610210578063b9fc53fd1461022757600080fd5b8063485cc955116100bb578063485cc9551461013f57806349cee5d51461015f578063660c5075146101a15780639be3476d146101b657600080fd5b806301d5c7b9146100e257806306ea4592146100f757806321860a051461011f575b600080fd5b6100f56100f03660046118a9565b6102ec565b005b34801561010357600080fd5b5061010c61038f565b6040519081526020015b60405180910390f35b34801561012b57600080fd5b506100f561013a3660046118a9565b6103ac565b34801561014b57600080fd5b506100f561015a3660046118c6565b61041e565b34801561016b57600080fd5b5061017f61017a3660046118a9565b6105bc565b6040805182518152602080840151908201529181015190820152606001610116565b3480156101ad57600080fd5b506100f561082f565b3480156101c257600080fd5b5060025461010c565b3480156101d757600080fd5b506101eb6101e63660046118ff565b6108ea565b60405173ffffffffffffffffffffffffffffffffffffffff9091168152602001610116565b34801561021c57600080fd5b5061010c62093a8081565b34801561023357600080fd5b5061017f610242366004611918565b610921565b34801561025357600080fd5b5061010c6102623660046118a9565b73ffffffffffffffffffffffffffffffffffffffff1660009081526006602052604090205490565b34801561029657600080fd5b506001546101eb9073ffffffffffffffffffffffffffffffffffffffff1681565b3480156102c357600080fd5b506100f56102d2366004611944565b6109bb565b3480156102e357600080fd5b5061010c6109fa565b60008054604080517fd0e30db000000000000000000000000000000000000000000000000000000000815290516201000090920473ffffffffffffffffffffffffffffffffffffffff16923492849263d0e30db092859260048084019382900301818588803b15801561035e57600080fd5b505af1158015610372573d6000803e3d6000fd5b505050505061038a838361038584610a14565b610a38565b505050565b600062093a8061039d6109fa565b6103a791906119d3565b905090565b6103b46109fa565b73ffffffffffffffffffffffffffffffffffffffff82166000908152600560205260409020541115610412576040517f0d3f777600000000000000000000000000000000000000000000000000000000815260040160405180910390fd5b61041b81610f07565b50565b600054610100900460ff166104395760005460ff161561043d565b303b155b6104ce576040517f08c379a000000000000000000000000000000000000000000000000000000000815260206004820152602e60248201527f496e697469616c697a61626c653a20636f6e747261637420697320616c72656160448201527f647920696e697469616c697a656400000000000000000000000000000000000060648201526084015b60405180910390fd5b600054610100900460ff1615801561050d57600080547fffffffffffffffffffffffffffffffffffffffffffffffffffffffffffff0000166101011790555b600180547fffffffffffffffffffffffff00000000000000000000000000000000000000001673ffffffffffffffffffffffffffffffffffffffff85811691909117909155600080547fffffffffffffffffffff0000000000000000000000000000000000000000ffff166201000092851692909202919091179055801561038a57600080547fffffffffffffffffffffffffffffffffffffffffffffffffffffffffffff00ff169055505050565b6105e060405180606001604052806000815260200160008152602001600081525090565b6040518060600160405280600460008573ffffffffffffffffffffffffffffffffffffffff1673ffffffffffffffffffffffffffffffffffffffff16815260200190815260200160002060008573ffffffffffffffffffffffffffffffffffffffff16630dfe16816040518163ffffffff1660e01b815260040160206040518083038186803b15801561067257600080fd5b505afa158015610686573d6000803e3d6000fd5b505050506040513d601f19601f820116820180604052508101906106aa91906119eb565b73ffffffffffffffffffffffffffffffffffffffff1673ffffffffffffffffffffffffffffffffffffffff16815260200190815260200160002060009054906101000a90046fffffffffffffffffffffffffffffffff166fffffffffffffffffffffffffffffffff168152602001600460008573ffffffffffffffffffffffffffffffffffffffff1673ffffffffffffffffffffffffffffffffffffffff16815260200190815260200160002060008573ffffffffffffffffffffffffffffffffffffffff1663d21220a76040518163ffffffff1660e01b815260040160206040518083038186803b15801561079f57600080fd5b505afa1580156107b3573d6000803e3d6000fd5b505050506040513d601f19601f820116820180604052508101906107d791906119eb565b73ffffffffffffffffffffffffffffffffffffffff908116825260208083019390935260409182016000908120546fffffffffffffffffffffffffffffffff1685529616865260058252909420549301929092525090565b60006108396109fa565b905060005b6002548110156108e65760006002828154811061085d5761085d611a08565b600091825260208083209091015473ffffffffffffffffffffffffffffffffffffffff168083526005909152604090912054909150158015906108c5575073ffffffffffffffffffffffffffffffffffffffff81166000908152600560205260409020548310155b156108d3576108d381610f07565b50806108de81611a37565b91505061083e565b5050565b600281815481106108fa57600080fd5b60009182526020909120015473ffffffffffffffffffffffffffffffffffffffff16905081565b61094560405180606001604052806000815260200160008152602001600081525090565b73ffffffffffffffffffffffffffffffffffffffff8316600090815260066020526040902080548390811061097c5761097c611a08565b90600052602060002090600302016040518060600160405290816000820154815260200160018201548152602001600282015481525050905092915050565b6109ef73ffffffffffffffffffffffffffffffffffffffff831633306fffffffffffffffffffffffffffffffff85166114de565b61038a838383610a38565b600062093a80610a0a8142611a70565b6103a79190611aab565b806fffffffffffffffffffffffffffffffff81168114610a3357600080fd5b919050565b6001546040517fa4063dbc00000000000000000000000000000000000000000000000000000000815273ffffffffffffffffffffffffffffffffffffffff85811660048301529091169063a4063dbc9060240160206040518083038186803b158015610aa357600080fd5b505afa158015610ab7573d6000803e3d6000fd5b505050506040513d601f19601f82011682018060405250810190610adb9190611ae8565b610b11576040517f5861b41d00000000000000000000000000000000000000000000000000000000815260040160405180910390fd5b8173ffffffffffffffffffffffffffffffffffffffff168373ffffffffffffffffffffffffffffffffffffffff16630dfe16816040518163ffffffff1660e01b815260040160206040518083038186803b158015610b6e57600080fd5b505afa158015610b82573d6000803e3d6000fd5b505050506040513d601f19601f82011682018060405250810190610ba691906119eb565b73ffffffffffffffffffffffffffffffffffffffff1614158015610c7357508173ffffffffffffffffffffffffffffffffffffffff168373ffffffffffffffffffffffffffffffffffffffff1663d21220a76040518163ffffffff1660e01b815260040160206040518083038186803b158015610c2257600080fd5b505afa158015610c36573d6000803e3d6000fd5b505050506040513d601f19601f82011682018060405250810190610c5a91906119eb565b73ffffffffffffffffffffffffffffffffffffffff1614155b15610caa576040517f15fa6e7100000000000000000000000000000000000000000000000000000000815260040160405180910390fd5b73ffffffffffffffffffffffffffffffffffffffff831660009081526005602052604090205415801590610d0a5750610ce16109fa565b73ffffffffffffffffffffffffffffffffffffffff841660009081526005602052604090205411155b15610d1857610d1883610f07565b73ffffffffffffffffffffffffffffffffffffffff831660009081526003602052604090205460ff16610dee5773ffffffffffffffffffffffffffffffffffffffff8316600081815260036020526040812080547fffffffffffffffffffffffffffffffffffffffffffffffffffffffffffffff001660019081179091556002805491820181559091527f405787fa12a823e0f2b7631cc41b3ba8828b3321ca811111fa75cd3aa3bb5ace0180547fffffffffffffffffffffffff00000000000000000000000000000000000000001690911790555b73ffffffffffffffffffffffffffffffffffffffff808416600090815260046020908152604080832093861683529290529081208054839290610e449084906fffffffffffffffffffffffffffffffff16611b0a565b92506101000a8154816fffffffffffffffffffffffffffffffff02191690836fffffffffffffffffffffffffffffffff160217905550610e8261038f565b73ffffffffffffffffffffffffffffffffffffffff84811660008181526005602090815260409182902094909455805192861683526fffffffffffffffffffffffffffffffff851693830193909352338284015291517f364bb76a44233df8584c690de6da7810626a5e77192f3ebc942c35bcb1add24f9181900360600190a2505050565b60008173ffffffffffffffffffffffffffffffffffffffff16630dfe16816040518163ffffffff1660e01b815260040160206040518083038186803b158015610f4f57600080fd5b505afa158015610f63573d6000803e3d6000fd5b505050506040513d601f19601f82011682018060405250810190610f8791906119eb565b905060008273ffffffffffffffffffffffffffffffffffffffff1663d21220a76040518163ffffffff1660e01b815260040160206040518083038186803b158015610fd157600080fd5b505afa158015610fe5573d6000803e3d6000fd5b505050506040513d601f19601f8201168201806040525081019061100991906119eb565b73ffffffffffffffffffffffffffffffffffffffff84811660008181526004602081815260408084208987168086529083528185208054978916865282862080547fffffffffffffffffffffffffffffffff00000000000000000000000000000000808b1690935581549092169055868652600590935281852094909455517f095ea7b3000000000000000000000000000000000000000000000000000000008152918201939093526fffffffffffffffffffffffffffffffff93841660248201819052949550929091169163095ea7b390604401602060405180830381600087803b1580156110f857600080fd5b505af115801561110c573d6000803e3d6000fd5b505050506040513d601f19601f820116820180604052508101906111309190611ae8565b506040517f095ea7b300000000000000000000000000000000000000000000000000000000815273ffffffffffffffffffffffffffffffffffffffff86811660048301526fffffffffffffffffffffffffffffffff8316602483015284169063095ea7b390604401602060405180830381600087803b1580156111b257600080fd5b505af11580156111c6573d6000803e3d6000fd5b505050506040513d601f19601f820116820180604052508101906111ea9190611ae8565b5060006111f56109fa565b6040517f9a2f9ccc0000000000000000000000000000000000000000000000000000000081526fffffffffffffffffffffffffffffffff8086166004830152841660248201526044810182905262093a806064820181905291925073ffffffffffffffffffffffffffffffffffffffff881690639a2f9ccc90608401600060405180830381600087803b15801561128b57600080fd5b505af115801561129f573d6000803e3d6000fd5b50506040517f095ea7b300000000000000000000000000000000000000000000000000000000815273ffffffffffffffffffffffffffffffffffffffff8a81166004830152600060248301528916925063095ea7b39150604401602060405180830381600087803b15801561131357600080fd5b505af1158015611327573d6000803e3d6000fd5b505050506040513d601f19601f8201168201806040525081019061134b9190611ae8565b506040517f095ea7b300000000000000000000000000000000000000000000000000000000815273ffffffffffffffffffffffffffffffffffffffff88811660048301526000602483015286169063095ea7b390604401602060405180830381600087803b1580156113bc57600080fd5b505af11580156113d0573d6000803e3d6000fd5b505050506040513d601f19601f820116820180604052508101906113f49190611ae8565b5073ffffffffffffffffffffffffffffffffffffffff87811660008181526006602090815260408083208151606080820184526fffffffffffffffffffffffffffffffff8c8116808452908c168387018181528487018d8152865460018082018955978b529989902095516003909a029095019889555194880194909455915160029096019590955582518d88168152968c169387019390935290850191909152908301526080820184905260a08201839052907f8738b64144cfd564b556d900f7fc56ab5643476957aeb6f2879bf3371d89f3079060c00160405180910390a250505050505050565b6040805173ffffffffffffffffffffffffffffffffffffffff85811660248301528416604482015260648082018490528251808303909101815260849091019091526020810180517bffffffffffffffffffffffffffffffffffffffffffffffffffffffff167f23b872dd00000000000000000000000000000000000000000000000000000000179052611573908590611579565b50505050565b60006115db826040518060400160405280602081526020017f5361666545524332303a206c6f772d6c6576656c2063616c6c206661696c65648152508573ffffffffffffffffffffffffffffffffffffffff166116859092919063ffffffff16565b80519091501561038a57808060200190518101906115f99190611ae8565b61038a576040517f08c379a000000000000000000000000000000000000000000000000000000000815260206004820152602a60248201527f5361666545524332303a204552433230206f7065726174696f6e20646964206e60448201527f6f7420737563636565640000000000000000000000000000000000000000000060648201526084016104c5565b6060611694848460008561169e565b90505b9392505050565b606082471015611730576040517f08c379a000000000000000000000000000000000000000000000000000000000815260206004820152602660248201527f416464726573733a20696e73756666696369656e742062616c616e636520666f60448201527f722063616c6c000000000000000000000000000000000000000000000000000060648201526084016104c5565b73ffffffffffffffffffffffffffffffffffffffff85163b6117ae576040517f08c379a000000000000000000000000000000000000000000000000000000000815260206004820152601d60248201527f416464726573733a2063616c6c20746f206e6f6e2d636f6e747261637400000060448201526064016104c5565b6000808673ffffffffffffffffffffffffffffffffffffffff1685876040516117d79190611b6a565b60006040518083038185875af1925050503d8060008114611814576040519150601f19603f3d011682016040523d82523d6000602084013e611819565b606091505b5091509150611829828286611834565b979650505050505050565b60608315611843575081611697565b8251156118535782518084602001fd5b816040517f08c379a00000000000000000000000000000000000000000000000000000000081526004016104c59190611b86565b73ffffffffffffffffffffffffffffffffffffffff8116811461041b57600080fd5b6000602082840312156118bb57600080fd5b813561169781611887565b600080604083850312156118d957600080fd5b82356118e481611887565b915060208301356118f481611887565b809150509250929050565b60006020828403121561191157600080fd5b5035919050565b6000806040838503121561192b57600080fd5b823561193681611887565b946020939093013593505050565b60008060006060848603121561195957600080fd5b833561196481611887565b9250602084013561197481611887565b915060408401356fffffffffffffffffffffffffffffffff8116811461199957600080fd5b809150509250925092565b7f4e487b7100000000000000000000000000000000000000000000000000000000600052601160045260246000fd5b600082198211156119e6576119e66119a4565b500190565b6000602082840312156119fd57600080fd5b815161169781611887565b7f4e487b7100000000000000000000000000000000000000000000000000000000600052603260045260246000fd5b60007fffffffffffffffffffffffffffffffffffffffffffffffffffffffffffffffff821415611a6957611a696119a4565b5060010190565b600082611aa6577f4e487b7100000000000000000000000000000000000000000000000000000000600052601260045260246000fd5b500490565b6000817fffffffffffffffffffffffffffffffffffffffffffffffffffffffffffffffff0483118215151615611ae357611ae36119a4565b500290565b600060208284031215611afa57600080fd5b8151801515811461169757600080fd5b60006fffffffffffffffffffffffffffffffff808316818516808303821115611b3557611b356119a4565b01949350505050565b60005b83811015611b59578181015183820152602001611b41565b838111156115735750506000910152565b60008251611b7c818460208701611b3e565b9190910192915050565b6020815260008251806020840152611ba5816040850160208701611b3e565b601f017fffffffffffffffffffffffffffffffffffffffffffffffffffffffffffffffe016919091016040019291505056fea264697066735822122056acecdbe7b8b33bea049d28d4a26bc9820f4fb493b54ef9e3987e497b2c79a964736f6c63430008090033",
  "devdoc": {
    "kind": "dev",
    "methods": {
      "airdrop(address)": {
        "params": {
          "pool": "the address of pangea pool"
        }
      },
      "depositKlay(address)": {
        "details": "transaction will revert if the asset in the pool is not WKLAY",
        "params": {
          "pool": "the address of pangea pool to deposit"
        }
      },
      "depositToken(address,address,uint128)": {
        "details": "Approval (token.approve(airdropDistributor, amount)) must be performed before transaction",
        "params": {
          "amount": "amount of token to deposit",
          "pool": "the address of pangea pool to deposit",
          "token": "token address to deposit. it must be one of the pools' tokens."
        }
      }
    },
    "version": 1
  },
  "userdoc": {
    "kind": "user",
    "methods": {
      "airdrop(address)": {
        "notice": "airdrop the deposited assets of pool"
      },
      "airdropAll()": {
        "notice": "airdrop the deposited assets all on this epoch"
      },
      "airdropPool(uint256)": {
        "notice": "the address of airdrop pool"
      },
      "airdropPoolLength()": {
        "notice": "Number of pools that have ever been deposited"
      },
      "airdropSnapshot(address,uint256)": {
        "notice": "record of past airdrop information distributed"
      },
      "airdropSnapshotLength(address)": {
        "notice": "Number of airdrop action distributed to the pool"
      },
      "depositKlay(address)": {
        "notice": "deposit klay to the pool. this klay will be distributed to the next epoch"
      },
      "depositToken(address,address,uint128)": {
        "notice": "deposit Token to the pool. this token will be distributed to the next epoch"
      },
      "depositedAirdrop(address)": {
        "notice": "airdrop information deposited in the pool. amount0 & amount1 will be zero after airdrop allocation"
      }
    },
    "version": 1
  },
  "storageLayout": {
    "storage": [
      {
        "astId": 130,
        "contract": "contracts/distribution/AirdropDistributor.sol:AirdropDistributor",
        "label": "_initialized",
        "offset": 0,
        "slot": "0",
        "type": "t_bool"
      },
      {
        "astId": 133,
        "contract": "contracts/distribution/AirdropDistributor.sol:AirdropDistributor",
        "label": "_initializing",
        "offset": 1,
        "slot": "0",
        "type": "t_bool"
      },
      {
        "astId": 5251,
        "contract": "contracts/distribution/AirdropDistributor.sol:AirdropDistributor",
        "label": "wKLAY",
        "offset": 2,
        "slot": "0",
        "type": "t_address"
      },
      {
        "astId": 5254,
        "contract": "contracts/distribution/AirdropDistributor.sol:AirdropDistributor",
        "label": "masterDeployer",
        "offset": 0,
        "slot": "1",
        "type": "t_contract(IMasterDeployer)6572"
      },
      {
        "astId": 5257,
        "contract": "contracts/distribution/AirdropDistributor.sol:AirdropDistributor",
        "label": "airdropPool",
        "offset": 0,
        "slot": "2",
        "type": "t_array(t_address)dyn_storage"
      },
      {
        "astId": 5261,
        "contract": "contracts/distribution/AirdropDistributor.sol:AirdropDistributor",
        "label": "isAirdropPool",
        "offset": 0,
        "slot": "3",
        "type": "t_mapping(t_address,t_bool)"
      },
      {
        "astId": 5267,
        "contract": "contracts/distribution/AirdropDistributor.sol:AirdropDistributor",
        "label": "depositAmount",
        "offset": 0,
        "slot": "4",
        "type": "t_mapping(t_address,t_mapping(t_address,t_uint128))"
      },
      {
        "astId": 5271,
        "contract": "contracts/distribution/AirdropDistributor.sol:AirdropDistributor",
        "label": "airdropStartTimePerPool",
        "offset": 0,
        "slot": "5",
        "type": "t_mapping(t_address,t_uint256)"
      },
      {
        "astId": 5277,
        "contract": "contracts/distribution/AirdropDistributor.sol:AirdropDistributor",
        "label": "_airdropSnapshot",
        "offset": 0,
        "slot": "6",
        "type": "t_mapping(t_address,t_array(t_struct(AirdropInfo)5813_storage)dyn_storage)"
      }
    ],
    "types": {
      "t_address": {
        "encoding": "inplace",
        "label": "address",
        "numberOfBytes": "20"
      },
      "t_array(t_address)dyn_storage": {
        "base": "t_address",
        "encoding": "dynamic_array",
        "label": "address[]",
        "numberOfBytes": "32"
      },
      "t_array(t_struct(AirdropInfo)5813_storage)dyn_storage": {
        "base": "t_struct(AirdropInfo)5813_storage",
        "encoding": "dynamic_array",
        "label": "struct IAirdropDistributorStruct.AirdropInfo[]",
        "numberOfBytes": "32"
      },
      "t_bool": {
        "encoding": "inplace",
        "label": "bool",
        "numberOfBytes": "1"
      },
      "t_contract(IMasterDeployer)6572": {
        "encoding": "inplace",
        "label": "contract IMasterDeployer",
        "numberOfBytes": "20"
      },
      "t_mapping(t_address,t_array(t_struct(AirdropInfo)5813_storage)dyn_storage)": {
        "encoding": "mapping",
        "key": "t_address",
        "label": "mapping(address => struct IAirdropDistributorStruct.AirdropInfo[])",
        "numberOfBytes": "32",
        "value": "t_array(t_struct(AirdropInfo)5813_storage)dyn_storage"
      },
      "t_mapping(t_address,t_bool)": {
        "encoding": "mapping",
        "key": "t_address",
        "label": "mapping(address => bool)",
        "numberOfBytes": "32",
        "value": "t_bool"
      },
      "t_mapping(t_address,t_mapping(t_address,t_uint128))": {
        "encoding": "mapping",
        "key": "t_address",
        "label": "mapping(address => mapping(address => uint128))",
        "numberOfBytes": "32",
        "value": "t_mapping(t_address,t_uint128)"
      },
      "t_mapping(t_address,t_uint128)": {
        "encoding": "mapping",
        "key": "t_address",
        "label": "mapping(address => uint128)",
        "numberOfBytes": "32",
        "value": "t_uint128"
      },
      "t_mapping(t_address,t_uint256)": {
        "encoding": "mapping",
        "key": "t_address",
        "label": "mapping(address => uint256)",
        "numberOfBytes": "32",
        "value": "t_uint256"
      },
      "t_struct(AirdropInfo)5813_storage": {
        "encoding": "inplace",
        "label": "struct IAirdropDistributorStruct.AirdropInfo",
        "members": [
          {
            "astId": 5806,
            "contract": "contracts/distribution/AirdropDistributor.sol:AirdropDistributor",
            "label": "amount0",
            "offset": 0,
            "slot": "0",
            "type": "t_uint256"
          },
          {
            "astId": 5809,
            "contract": "contracts/distribution/AirdropDistributor.sol:AirdropDistributor",
            "label": "amount1",
            "offset": 0,
            "slot": "1",
            "type": "t_uint256"
          },
          {
            "astId": 5812,
            "contract": "contracts/distribution/AirdropDistributor.sol:AirdropDistributor",
            "label": "startTime",
            "offset": 0,
            "slot": "2",
            "type": "t_uint256"
          }
        ],
        "numberOfBytes": "96"
      },
      "t_uint128": {
        "encoding": "inplace",
        "label": "uint128",
        "numberOfBytes": "16"
      },
      "t_uint256": {
        "encoding": "inplace",
        "label": "uint256",
        "numberOfBytes": "32"
      }
    }
  }
}