{
  "address": "0x077CA8234910B8A41B09527e667afFD1967f06A3",
  "abi": [
    {
      "inputs": [],
      "name": "InvalidPool",
      "type": "error"
    },
    {
      "inputs": [],
      "name": "NotAllowed",
      "type": "error"
    },
    {
      "inputs": [],
      "name": "NotNativePool",
      "type": "error"
    },
    {
      "inputs": [],
      "name": "PoolMisMatch",
      "type": "error"
    },
    {
      "inputs": [],
      "name": "RangeMisMatch",
      "type": "error"
    },
    {
      "inputs": [],
      "name": "TickOutOfBounds",
      "type": "error"
    },
    {
      "inputs": [],
      "name": "TooLittleReceived",
      "type": "error"
    },
    {
      "inputs": [],
      "name": "UnAuthorizedCallback",
      "type": "error"
    },
    {
      "anonymous": false,
      "inputs": [
        {
          "indexed": true,
          "internalType": "address",
          "name": "owner",
          "type": "address"
        },
        {
          "indexed": true,
          "internalType": "address",
          "name": "approved",
          "type": "address"
        },
        {
          "indexed": true,
          "internalType": "uint256",
          "name": "tokenId",
          "type": "uint256"
        }
      ],
      "name": "Approval",
      "type": "event"
    },
    {
      "anonymous": false,
      "inputs": [
        {
          "indexed": true,
          "internalType": "address",
          "name": "owner",
          "type": "address"
        },
        {
          "indexed": true,
          "internalType": "address",
          "name": "operator",
          "type": "address"
        },
        {
          "indexed": false,
          "internalType": "bool",
          "name": "approved",
          "type": "bool"
        }
      ],
      "name": "ApprovalForAll",
      "type": "event"
    },
    {
      "anonymous": false,
      "inputs": [
        {
          "indexed": true,
          "internalType": "address",
          "name": "pool",
          "type": "address"
        },
        {
          "indexed": true,
          "internalType": "address",
          "name": "recipient",
          "type": "address"
        },
        {
          "indexed": true,
          "internalType": "uint256",
          "name": "positionId",
          "type": "uint256"
        },
        {
          "indexed": false,
          "internalType": "uint256",
          "name": "amount0",
          "type": "uint256"
        },
        {
          "indexed": false,
          "internalType": "uint256",
          "name": "amount1",
          "type": "uint256"
        }
      ],
      "name": "CollectFee",
      "type": "event"
    },
    {
      "anonymous": false,
      "inputs": [
        {
          "indexed": true,
          "internalType": "address",
          "name": "pool",
          "type": "address"
        },
        {
          "indexed": true,
          "internalType": "address",
          "name": "recipient",
          "type": "address"
        },
        {
          "indexed": true,
          "internalType": "uint256",
          "name": "positionId",
          "type": "uint256"
        },
        {
          "indexed": false,
          "internalType": "uint256",
          "name": "amount",
          "type": "uint256"
        }
      ],
      "name": "CollectReward",
      "type": "event"
    },
    {
      "anonymous": false,
      "inputs": [
        {
          "indexed": true,
          "internalType": "address",
          "name": "pool",
          "type": "address"
        },
        {
          "indexed": true,
          "internalType": "address",
          "name": "owner",
          "type": "address"
        },
        {
          "indexed": true,
          "internalType": "uint256",
          "name": "positionId",
          "type": "uint256"
        },
        {
          "indexed": false,
          "internalType": "uint256",
          "name": "amount0",
          "type": "uint256"
        },
        {
          "indexed": false,
          "internalType": "uint256",
          "name": "amount1",
          "type": "uint256"
        },
        {
          "indexed": false,
          "internalType": "uint128",
          "name": "liquidity",
          "type": "uint128"
        }
      ],
      "name": "DecreaseLiquidity",
      "type": "event"
    },
    {
      "anonymous": false,
      "inputs": [
        {
          "indexed": true,
          "internalType": "address",
          "name": "pool",
          "type": "address"
        },
        {
          "indexed": true,
          "internalType": "address",
          "name": "owner",
          "type": "address"
        },
        {
          "indexed": true,
          "internalType": "uint256",
          "name": "positionId",
          "type": "uint256"
        },
        {
          "indexed": false,
          "internalType": "uint256",
          "name": "amount0",
          "type": "uint256"
        },
        {
          "indexed": false,
          "internalType": "uint256",
          "name": "amount1",
          "type": "uint256"
        },
        {
          "indexed": false,
          "internalType": "uint128",
          "name": "liquidity",
          "type": "uint128"
        }
      ],
      "name": "IncreaseLiquidity",
      "type": "event"
    },
    {
      "anonymous": false,
      "inputs": [
        {
          "indexed": true,
          "internalType": "address",
          "name": "from",
          "type": "address"
        },
        {
          "indexed": true,
          "internalType": "address",
          "name": "to",
          "type": "address"
        },
        {
          "indexed": true,
          "internalType": "uint256",
          "name": "tokenId",
          "type": "uint256"
        }
      ],
      "name": "Transfer",
      "type": "event"
    },
    {
      "inputs": [],
      "name": "DOMAIN_SEPARATOR",
      "outputs": [
        {
          "internalType": "bytes32",
          "name": "domainSeperator",
          "type": "bytes32"
        }
      ],
      "stateMutability": "view",
      "type": "function"
    },
    {
      "inputs": [],
      "name": "PERMIT_ALL_TYPEHASH",
      "outputs": [
        {
          "internalType": "bytes32",
          "name": "",
          "type": "bytes32"
        }
      ],
      "stateMutability": "view",
      "type": "function"
    },
    {
      "inputs": [],
      "name": "PERMIT_TYPEHASH",
      "outputs": [
        {
          "internalType": "bytes32",
          "name": "",
          "type": "bytes32"
        }
      ],
      "stateMutability": "view",
      "type": "function"
    },
    {
      "inputs": [
        {
          "internalType": "address",
          "name": "to",
          "type": "address"
        },
        {
          "internalType": "uint256",
          "name": "tokenId",
          "type": "uint256"
        }
      ],
      "name": "approve",
      "outputs": [],
      "stateMutability": "nonpayable",
      "type": "function"
    },
    {
      "inputs": [
        {
          "internalType": "address",
          "name": "owner",
          "type": "address"
        }
      ],
      "name": "balanceOf",
      "outputs": [
        {
          "internalType": "uint256",
          "name": "",
          "type": "uint256"
        }
      ],
      "stateMutability": "view",
      "type": "function"
    },
    {
      "inputs": [
        {
          "internalType": "uint256",
          "name": "positionId",
          "type": "uint256"
        },
        {
          "internalType": "uint128",
          "name": "amount",
          "type": "uint128"
        },
        {
          "internalType": "address",
          "name": "recipient",
          "type": "address"
        },
        {
          "internalType": "uint256",
          "name": "minimumOut0",
          "type": "uint256"
        },
        {
          "internalType": "uint256",
          "name": "minimumOut1",
          "type": "uint256"
        },
        {
          "internalType": "bool",
          "name": "unwrap",
          "type": "bool"
        }
      ],
      "name": "burn",
      "outputs": [
        {
          "internalType": "uint256",
          "name": "token0Amount",
          "type": "uint256"
        },
        {
          "internalType": "uint256",
          "name": "token1Amount",
          "type": "uint256"
        }
      ],
      "stateMutability": "nonpayable",
      "type": "function"
    },
    {
      "inputs": [
        {
          "internalType": "uint256",
          "name": "positionId",
          "type": "uint256"
        },
        {
          "internalType": "address",
          "name": "recipient",
          "type": "address"
        },
        {
          "internalType": "bool",
          "name": "unwrap",
          "type": "bool"
        }
      ],
      "name": "collect",
      "outputs": [
        {
          "internalType": "uint256",
          "name": "token0Amount",
          "type": "uint256"
        },
        {
          "internalType": "uint256",
          "name": "token1Amount",
          "type": "uint256"
        }
      ],
      "stateMutability": "nonpayable",
      "type": "function"
    },
    {
      "inputs": [
        {
          "internalType": "uint256",
          "name": "positionId",
          "type": "uint256"
        },
        {
          "internalType": "address",
          "name": "recipient",
          "type": "address"
        },
        {
          "internalType": "bool",
          "name": "unwrap",
          "type": "bool"
        }
      ],
      "name": "collectReward",
      "outputs": [
        {
          "internalType": "uint256",
          "name": "rewardAmount",
          "type": "uint256"
        }
      ],
      "stateMutability": "nonpayable",
      "type": "function"
    },
    {
      "inputs": [
        {
          "internalType": "uint256",
          "name": "tokenId",
          "type": "uint256"
        }
      ],
      "name": "exists",
      "outputs": [
        {
          "internalType": "bool",
          "name": "",
          "type": "bool"
        }
      ],
      "stateMutability": "view",
      "type": "function"
    },
    {
      "inputs": [
        {
          "internalType": "uint256",
          "name": "tokenId",
          "type": "uint256"
        }
      ],
      "name": "getApproved",
      "outputs": [
        {
          "internalType": "address",
          "name": "",
          "type": "address"
        }
      ],
      "stateMutability": "view",
      "type": "function"
    },
    {
      "inputs": [
        {
          "internalType": "address",
          "name": "_masterDeployer",
          "type": "address"
        },
        {
          "internalType": "address",
          "name": "_wETH",
          "type": "address"
        }
      ],
      "name": "initialize",
      "outputs": [],
      "stateMutability": "nonpayable",
      "type": "function"
    },
    {
      "inputs": [
        {
          "internalType": "address",
          "name": "owner",
          "type": "address"
        },
        {
          "internalType": "address",
          "name": "operator",
          "type": "address"
        }
      ],
      "name": "isApprovedForAll",
      "outputs": [
        {
          "internalType": "bool",
          "name": "",
          "type": "bool"
        }
      ],
      "stateMutability": "view",
      "type": "function"
    },
    {
      "inputs": [],
      "name": "masterDeployer",
      "outputs": [
        {
          "internalType": "contract IMasterDeployer",
          "name": "",
          "type": "address"
        }
      ],
      "stateMutability": "view",
      "type": "function"
    },
    {
      "inputs": [
        {
          "internalType": "address",
          "name": "pool",
          "type": "address"
        },
        {
          "internalType": "int24",
          "name": "lowerOld",
          "type": "int24"
        },
        {
          "internalType": "int24",
          "name": "lower",
          "type": "int24"
        },
        {
          "internalType": "int24",
          "name": "upperOld",
          "type": "int24"
        },
        {
          "internalType": "int24",
          "name": "upper",
          "type": "int24"
        },
        {
          "internalType": "uint128",
          "name": "amount0Desired",
          "type": "uint128"
        },
        {
          "internalType": "uint128",
          "name": "amount1Desired",
          "type": "uint128"
        },
        {
          "internalType": "uint256",
          "name": "minLiquidity",
          "type": "uint256"
        },
        {
          "internalType": "uint256",
          "name": "positionId",
          "type": "uint256"
        }
      ],
      "name": "mint",
      "outputs": [
        {
          "internalType": "uint256",
          "name": "_positionId",
          "type": "uint256"
        }
      ],
      "stateMutability": "nonpayable",
      "type": "function"
    },
    {
      "inputs": [
        {
          "internalType": "address",
          "name": "token0",
          "type": "address"
        },
        {
          "internalType": "address",
          "name": "token1",
          "type": "address"
        },
        {
          "internalType": "uint256",
          "name": "amount0",
          "type": "uint256"
        },
        {
          "internalType": "uint256",
          "name": "amount1",
          "type": "uint256"
        }
      ],
      "name": "mintCallback",
      "outputs": [],
      "stateMutability": "nonpayable",
      "type": "function"
    },
    {
      "inputs": [
        {
          "internalType": "address",
          "name": "pool",
          "type": "address"
        },
        {
          "internalType": "int24",
          "name": "lowerOld",
          "type": "int24"
        },
        {
          "internalType": "int24",
          "name": "lower",
          "type": "int24"
        },
        {
          "internalType": "int24",
          "name": "upperOld",
          "type": "int24"
        },
        {
          "internalType": "int24",
          "name": "upper",
          "type": "int24"
        },
        {
          "internalType": "uint128",
          "name": "amountDesired",
          "type": "uint128"
        },
        {
          "internalType": "uint256",
          "name": "minLiquidity",
          "type": "uint256"
        },
        {
          "internalType": "uint256",
          "name": "positionId",
          "type": "uint256"
        }
      ],
      "name": "mintNative",
      "outputs": [
        {
          "internalType": "uint256",
          "name": "_positionId",
          "type": "uint256"
        }
      ],
      "stateMutability": "payable",
      "type": "function"
    },
    {
      "inputs": [
        {
          "internalType": "bytes[]",
          "name": "data",
          "type": "bytes[]"
        }
      ],
      "name": "multicall",
      "outputs": [
        {
          "internalType": "bytes[]",
          "name": "results",
          "type": "bytes[]"
        }
      ],
      "stateMutability": "payable",
      "type": "function"
    },
    {
      "inputs": [],
      "name": "name",
      "outputs": [
        {
          "internalType": "string",
          "name": "",
          "type": "string"
        }
      ],
      "stateMutability": "view",
      "type": "function"
    },
    {
      "inputs": [],
      "name": "nftCount",
      "outputs": [
        {
          "internalType": "uint128",
          "name": "minted",
          "type": "uint128"
        },
        {
          "internalType": "uint128",
          "name": "burned",
          "type": "uint128"
        }
      ],
      "stateMutability": "view",
      "type": "function"
    },
    {
      "inputs": [
        {
          "internalType": "uint256",
          "name": "",
          "type": "uint256"
        }
      ],
      "name": "nonces",
      "outputs": [
        {
          "internalType": "uint256",
          "name": "",
          "type": "uint256"
        }
      ],
      "stateMutability": "view",
      "type": "function"
    },
    {
      "inputs": [
        {
          "internalType": "address",
          "name": "",
          "type": "address"
        }
      ],
      "name": "noncesForAll",
      "outputs": [
        {
          "internalType": "uint256",
          "name": "",
          "type": "uint256"
        }
      ],
      "stateMutability": "view",
      "type": "function"
    },
    {
      "inputs": [
        {
          "internalType": "uint256",
          "name": "tokenId",
          "type": "uint256"
        }
      ],
      "name": "ownerOf",
      "outputs": [
        {
          "internalType": "address",
          "name": "",
          "type": "address"
        }
      ],
      "stateMutability": "view",
      "type": "function"
    },
    {
      "inputs": [
        {
          "internalType": "address",
          "name": "spender",
          "type": "address"
        },
        {
          "internalType": "uint256",
          "name": "tokenId",
          "type": "uint256"
        },
        {
          "internalType": "uint256",
          "name": "deadline",
          "type": "uint256"
        },
        {
          "internalType": "uint8",
          "name": "v",
          "type": "uint8"
        },
        {
          "internalType": "bytes32",
          "name": "r",
          "type": "bytes32"
        },
        {
          "internalType": "bytes32",
          "name": "s",
          "type": "bytes32"
        }
      ],
      "name": "permit",
      "outputs": [],
      "stateMutability": "nonpayable",
      "type": "function"
    },
    {
      "inputs": [
        {
          "internalType": "address",
          "name": "owner",
          "type": "address"
        },
        {
          "internalType": "address",
          "name": "operator",
          "type": "address"
        },
        {
          "internalType": "uint256",
          "name": "deadline",
          "type": "uint256"
        },
        {
          "internalType": "uint8",
          "name": "v",
          "type": "uint8"
        },
        {
          "internalType": "bytes32",
          "name": "r",
          "type": "bytes32"
        },
        {
          "internalType": "bytes32",
          "name": "s",
          "type": "bytes32"
        }
      ],
      "name": "permitAll",
      "outputs": [],
      "stateMutability": "nonpayable",
      "type": "function"
    },
    {
      "inputs": [
        {
          "internalType": "uint256",
          "name": "positionId",
          "type": "uint256"
        }
      ],
      "name": "positionFees",
      "outputs": [
        {
          "internalType": "uint256",
          "name": "token0amount",
          "type": "uint256"
        },
        {
          "internalType": "uint256",
          "name": "token1amount",
          "type": "uint256"
        },
        {
          "internalType": "uint256",
          "name": "feeGrowthInside0",
          "type": "uint256"
        },
        {
          "internalType": "uint256",
          "name": "feeGrowthInside1",
          "type": "uint256"
        }
      ],
      "stateMutability": "view",
      "type": "function"
    },
    {
      "inputs": [
        {
          "internalType": "uint256",
          "name": "positionId",
          "type": "uint256"
        }
      ],
      "name": "positionRewardAmount",
      "outputs": [
        {
          "internalType": "uint256",
          "name": "rewardAmount",
          "type": "uint256"
        },
        {
          "internalType": "uint256",
          "name": "rewardGrowthInside",
          "type": "uint256"
        }
      ],
      "stateMutability": "view",
      "type": "function"
    },
    {
      "inputs": [
        {
          "internalType": "uint256",
          "name": "",
          "type": "uint256"
        }
      ],
      "name": "positionRewards",
      "outputs": [
        {
          "internalType": "uint256",
          "name": "rewardGrowthInside",
          "type": "uint256"
        },
        {
          "internalType": "uint256",
          "name": "rewardOwed",
          "type": "uint256"
        }
      ],
      "stateMutability": "view",
      "type": "function"
    },
    {
      "inputs": [
        {
          "internalType": "uint256",
          "name": "",
          "type": "uint256"
        }
      ],
      "name": "positions",
      "outputs": [
        {
          "internalType": "address",
          "name": "pool",
          "type": "address"
        },
        {
          "internalType": "uint128",
          "name": "liquidity",
          "type": "uint128"
        },
        {
          "internalType": "int24",
          "name": "lower",
          "type": "int24"
        },
        {
          "internalType": "int24",
          "name": "upper",
          "type": "int24"
        },
        {
          "internalType": "uint32",
          "name": "latestAddition",
          "type": "uint32"
        },
        {
          "internalType": "uint256",
          "name": "feeGrowthInside0",
          "type": "uint256"
        },
        {
          "internalType": "uint256",
          "name": "feeGrowthInside1",
          "type": "uint256"
        },
        {
          "internalType": "uint256",
          "name": "feeOwed0",
          "type": "uint256"
        },
        {
          "internalType": "uint256",
          "name": "feeOwed1",
          "type": "uint256"
        }
      ],
      "stateMutability": "view",
      "type": "function"
    },
    {
      "inputs": [
        {
          "internalType": "address",
          "name": "from",
          "type": "address"
        },
        {
          "internalType": "address",
          "name": "to",
          "type": "address"
        },
        {
          "internalType": "uint256",
          "name": "tokenId",
          "type": "uint256"
        }
      ],
      "name": "safeTransferFrom",
      "outputs": [],
      "stateMutability": "nonpayable",
      "type": "function"
    },
    {
      "inputs": [
        {
          "internalType": "address",
          "name": "from",
          "type": "address"
        },
        {
          "internalType": "address",
          "name": "to",
          "type": "address"
        },
        {
          "internalType": "uint256",
          "name": "tokenId",
          "type": "uint256"
        },
        {
          "internalType": "bytes",
          "name": "_data",
          "type": "bytes"
        }
      ],
      "name": "safeTransferFrom",
      "outputs": [],
      "stateMutability": "nonpayable",
      "type": "function"
    },
    {
      "inputs": [
        {
          "internalType": "address",
          "name": "operator",
          "type": "address"
        },
        {
          "internalType": "bool",
          "name": "approved",
          "type": "bool"
        }
      ],
      "name": "setApprovalForAll",
      "outputs": [],
      "stateMutability": "nonpayable",
      "type": "function"
    },
    {
      "inputs": [
        {
          "internalType": "address",
          "name": "_descriptor",
          "type": "address"
        }
      ],
      "name": "setDescriptor",
      "outputs": [],
      "stateMutability": "nonpayable",
      "type": "function"
    },
    {
      "inputs": [
        {
          "internalType": "bytes4",
          "name": "interfaceId",
          "type": "bytes4"
        }
      ],
      "name": "supportsInterface",
      "outputs": [
        {
          "internalType": "bool",
          "name": "",
          "type": "bool"
        }
      ],
      "stateMutability": "view",
      "type": "function"
    },
    {
      "inputs": [],
      "name": "symbol",
      "outputs": [
        {
          "internalType": "string",
          "name": "",
          "type": "string"
        }
      ],
      "stateMutability": "view",
      "type": "function"
    },
    {
      "inputs": [
        {
          "internalType": "uint256",
          "name": "index",
          "type": "uint256"
        }
      ],
      "name": "tokenByIndex",
      "outputs": [
        {
          "internalType": "uint256",
          "name": "",
          "type": "uint256"
        }
      ],
      "stateMutability": "view",
      "type": "function"
    },
    {
      "inputs": [
        {
          "internalType": "address",
          "name": "owner",
          "type": "address"
        },
        {
          "internalType": "uint256",
          "name": "index",
          "type": "uint256"
        }
      ],
      "name": "tokenOfOwnerByIndex",
      "outputs": [
        {
          "internalType": "uint256",
          "name": "",
          "type": "uint256"
        }
      ],
      "stateMutability": "view",
      "type": "function"
    },
    {
      "inputs": [
        {
          "internalType": "uint256",
          "name": "tokenId",
          "type": "uint256"
        }
      ],
      "name": "tokenURI",
      "outputs": [
        {
          "internalType": "string",
          "name": "",
          "type": "string"
        }
      ],
      "stateMutability": "view",
      "type": "function"
    },
    {
      "inputs": [],
      "name": "totalSupply",
      "outputs": [
        {
          "internalType": "uint256",
          "name": "",
          "type": "uint256"
        }
      ],
      "stateMutability": "view",
      "type": "function"
    },
    {
      "inputs": [
        {
          "internalType": "address",
          "name": "from",
          "type": "address"
        },
        {
          "internalType": "address",
          "name": "to",
          "type": "address"
        },
        {
          "internalType": "uint256",
          "name": "tokenId",
          "type": "uint256"
        }
      ],
      "name": "transferFrom",
      "outputs": [],
      "stateMutability": "nonpayable",
      "type": "function"
    }
  ],
  "transactionHash": "0x15b5838018f716198a0c8064e3fb6006421e58ab4617cd8b1db4d1269a823af3",
  "args": [],
  "numDeployments": 2,
  "solcInputHash": "811a1f292944be37ab02e635ade4eda9",
  "bytecode": "0x6080604052610101805460016001600160a01b0319918216811790925561010280549091169091179055600061010381905561010455610105805460ff1916905534801561004c57600080fd5b5061597d806200005d6000396000f3fe6080604052600436106102a05760003560e01c80636352211e1161016e578063aba07847116100cb578063c87b56dd1161007f578063d53cfc0611610064578063d53cfc06146108b6578063e985e9c5146108d6578063ed7bba9a1461091f57600080fd5b8063c87b56dd14610875578063cf58879a1461089557600080fd5b8063b4e13c8d116100b0578063b4e13c8d14610801578063b70d2ea614610835578063b88d4fde1461085557600080fd5b8063aba07847146107c1578063ac9650d8146107e157600080fd5b80639399cc891161012257806399fbab881161010757806399fbab8814610696578063a214fa6b14610781578063a22cb465146107a157600080fd5b80639399cc891461066157806395d89b411461068157600080fd5b80637ac2ff7b116101535780637ac2ff7b146105f45780638c6ab01314610614578063904dfb8e1461063457600080fd5b80636352211e146105b457806370a08231146105d457600080fd5b806323b872dd1161021c57806342842e0e116101d05780634f558e79116101b55780634f558e79146105545780634f6ccce7146105745780635f16529a1461059457600080fd5b806342842e0e14610514578063485cc9551461053457600080fd5b806330adf81f1161020157806330adf81f1461048157806335c62e33146104b55780633644e515146104ff57600080fd5b806323b872dd146104415780632f745c591461046157600080fd5b8063095ea7b311610273578063141a468c11610258578063141a468c146103de57806318160ddd146104195780631816ec771461042e57600080fd5b8063095ea7b3146103735780630af2c6ca1461039357600080fd5b806301b9a397146102a557806301ffc9a7146102e457806306fdde0314610319578063081812fc1461033b575b600080fd5b3480156102b157600080fd5b506102e26102c0366004614ede565b60cb80546001600160a01b0319166001600160a01b0392909216919091179055565b005b3480156102f057600080fd5b506103046102ff366004614f11565b61095f565b60405190151581526020015b60405180910390f35b34801561032557600080fd5b5061032e6109a3565b6040516103109190614f86565b34801561034757600080fd5b5061035b610356366004614f99565b610a35565b6040516001600160a01b039091168152602001610310565b34801561037f57600080fd5b506102e261038e366004614fb2565b610ae0565b34801561039f57600080fd5b5060cc546103be906001600160801b0380821691600160801b90041682565b604080516001600160801b03938416815292909116602083015201610310565b3480156103ea57600080fd5b5061040b6103f9366004614f99565b60cd6020526000908152604090205481565b604051908152602001610310565b34801561042557600080fd5b5061040b610c12565b61040b61043c366004615004565b610c42565b34801561044d57600080fd5b506102e261045c366004615097565b610f80565b34801561046d57600080fd5b5061040b61047c366004614fb2565b611007565b34801561048d57600080fd5b5061040b7f49ecf333e5b8c95c40fdafc95c1ad136e8914a8fb55e9dc8bb01eaa83a2df9ad81565b3480156104c157600080fd5b506104ea6104d0366004614f99565b610108602052600090815260409020805460019091015482565b60408051928352602083019190915201610310565b34801561050b57600080fd5b5061040b6110af565b34801561052057600080fd5b506102e261052f366004615097565b611193565b34801561054057600080fd5b506102e261054f3660046150d8565b6111ae565b34801561056057600080fd5b5061030461056f366004614f99565b6112f1565b34801561058057600080fd5b5061040b61058f366004614f99565b611310565b3480156105a057600080fd5b506102e26105af366004615111565b6113b4565b3480156105c057600080fd5b5061035b6105cf366004614f99565b61152b565b3480156105e057600080fd5b5061040b6105ef366004614ede565b6115b6565b34801561060057600080fd5b506102e261060f366004615168565b611650565b34801561062057600080fd5b506104ea61062f3660046151d0565b6118cd565b34801561064057600080fd5b5061040b61064f366004614ede565b60ce6020526000908152604090205481565b34801561066d57600080fd5b5061040b61067c3660046151d0565b611974565b34801561068d57600080fd5b5061032e611a16565b3480156106a257600080fd5b5061071d6106b1366004614f99565b61010760205260009081526040902080546001820154600280840154600385015460048601546005909601546001600160a01b03909516956001600160801b03851695600160801b8604850b95600160981b810490950b94600160b01b900463ffffffff169392919089565b604080516001600160a01b03909a168a526001600160801b0390981660208a0152600296870b978901979097529390940b606087015263ffffffff909116608086015260a085015260c084019190915260e083015261010082015261012001610310565b34801561078d57600080fd5b506104ea61079c366004615212565b611a25565b3480156107ad57600080fd5b506102e26107bc366004615277565b611e41565b3480156107cd57600080fd5b506102e26107dc3660046152a5565b611e50565b6107f46107ef3660046152ee565b612082565b6040516103109190615363565b34801561080d57600080fd5b5061040b7fdaab21af31ece73a508939fedd476a5ee5129a5ed4bb091f3236ffb45394df6281565b34801561084157600080fd5b5061040b6108503660046153c5565b6121da565b34801561086157600080fd5b506102e26108703660046154d8565b61233e565b34801561088157600080fd5b5061032e610890366004614f99565b6123c6565b3480156108a157600080fd5b506101065461035b906001600160a01b031681565b3480156108c257600080fd5b506104ea6108d1366004614f99565b612460565b3480156108e257600080fd5b506103046108f13660046150d8565b6001600160a01b039182166000908152606a6020908152604080832093909416825291909152205460ff1690565b34801561092b57600080fd5b5061093f61093a366004614f99565b6125ee565b604080519485526020850193909352918301526060820152608001610310565b60006001600160e01b031982167f780e9d6300000000000000000000000000000000000000000000000000000000148061099d575061099d8261276a565b92915050565b6060606580546109b290615587565b80601f01602080910402602001604051908101604052809291908181526020018280546109de90615587565b8015610a2b5780601f10610a0057610100808354040283529160200191610a2b565b820191906000526020600020905b815481529060010190602001808311610a0e57829003601f168201915b5050505050905090565b6000818152606760205260408120546001600160a01b0316610ac45760405162461bcd60e51b815260206004820152602c60248201527f4552433732313a20617070726f76656420717565727920666f72206e6f6e657860448201527f697374656e7420746f6b656e000000000000000000000000000000000000000060648201526084015b60405180910390fd5b506000908152606960205260409020546001600160a01b031690565b6000610aeb8261152b565b9050806001600160a01b0316836001600160a01b03161415610b755760405162461bcd60e51b815260206004820152602160248201527f4552433732313a20617070726f76616c20746f2063757272656e74206f776e6560448201527f72000000000000000000000000000000000000000000000000000000000000006064820152608401610abb565b336001600160a01b0382161480610b915750610b9181336108f1565b610c035760405162461bcd60e51b815260206004820152603860248201527f4552433732313a20617070726f76652063616c6c6572206973206e6f74206f7760448201527f6e6572206e6f7220617070726f76656420666f7220616c6c00000000000000006064820152608401610abb565b610c0d8383612805565b505050565b60cc54600090610c34906001600160801b03600160801b8204811691166155d8565b6001600160801b0316905090565b6000600260cf541415610c975760405162461bcd60e51b815260206004820152601f60248201527f5265656e7472616e637947756172643a207265656e7472616e742063616c6c006044820152606401610abb565b600260cf55610106546040516329018f6f60e21b81526001600160a01b03808c1660048301528b92169063a4063dbc9060240160206040518083038186803b158015610ce257600080fd5b505afa158015610cf6573d6000803e3d6000fd5b505050506040513d601f19601f82011682018060405250810190610d1a9190615600565b610d365760405162820f3560e61b815260040160405180910390fd5b60008a905061010560019054906101000a90046001600160a01b03166001600160a01b0316816001600160a01b0316630dfe16816040518163ffffffff1660e01b815260040160206040518083038186803b158015610d9457600080fd5b505afa158015610da8573d6000803e3d6000fd5b505050506040513d601f19601f82011682018060405250810190610dcc919061561d565b6001600160a01b03161415610e40576101018054336001600160a01b03199182161790915561010280549091166001600160a01b038d1617905534610103556001600160801b03861661010455610105805460ff19166001179055610e38818b8b8b8b348c8c8c612873565b925050610f6e565b61010560019054906101000a90046001600160a01b03166001600160a01b0316816001600160a01b031663d21220a76040518163ffffffff1660e01b815260040160206040518083038186803b158015610e9957600080fd5b505afa158015610ead573d6000803e3d6000fd5b505050506040513d601f19601f82011682018060405250810190610ed1919061561d565b6001600160a01b031614610f11576040517f425c65bb00000000000000000000000000000000000000000000000000000000815260040160405180910390fd5b6101018054336001600160a01b03199182161790915561010280549091166001600160a01b038d161790556001600160801b038616610103553461010455610105805460ff19166001179055610e38818b8b8b8b8b348c8c612873565b50600160cf5598975050505050505050565b610f8a33826130b0565b610ffc5760405162461bcd60e51b815260206004820152603160248201527f4552433732313a207472616e736665722063616c6c6572206973206e6f74206f60448201527f776e6572206e6f7220617070726f7665640000000000000000000000000000006064820152608401610abb565b610c0d8383836131b8565b6000611012836115b6565b82106110865760405162461bcd60e51b815260206004820152602b60248201527f455243373231456e756d657261626c653a206f776e657220696e646578206f7560448201527f74206f6620626f756e64730000000000000000000000000000000000000000006064820152608401610abb565b506001600160a01b03919091166000908152609760209081526040808320938352929052205490565b600060ca54461461118c5750604080518082018252600a81526950414e4745412d504f5360b01b6020918201528151808301835260018152603160f81b9082015281517f8b73c3c69bb8fe3d512ecc4cf759cc79239f7b179b0ffacaa9a75d522b39400f818301527f16d34b8f23ef02572737473f7ba87ffe21ee45c6bbade7dae4039edd04580f63818401527fc89efdaa54c0f20c7adf612882df0950f5a951637e0307cdcb4c672f298b8bc660608201524660808201523060a0808301919091528351808303909101815260c0909101909252815191012090565b5060c95490565b610c0d8383836040518060200160405280600081525061233e565b600054610100900460ff166111c95760005460ff16156111cd565b303b155b61123f5760405162461bcd60e51b815260206004820152602e60248201527f496e697469616c697a61626c653a20636f6e747261637420697320616c72656160448201527f647920696e697469616c697a65640000000000000000000000000000000000006064820152608401610abb565b600054610100900460ff16158015611261576000805461ffff19166101011790555b611269613390565b6112716134d6565b61010680546001600160a01b038086166001600160a01b03199283161790925560cb8054909116331790556101058054918416610100027fffffffffffffffffffffff0000000000000000000000000000000000000000ff9092169190911790556112db30613549565b8015610c0d576000805461ff0019169055505050565b6000818152606760205260408120546001600160a01b0316151561099d565b600061131b60995490565b821061138f5760405162461bcd60e51b815260206004820152602c60248201527f455243373231456e756d657261626c653a20676c6f62616c20696e646578206f60448201527f7574206f6620626f756e647300000000000000000000000000000000000000006064820152608401610abb565b609982815481106113a2576113a261563a565b90600052602060002001549050919050565b610102546001600160a01b031633146113f9576040517f2ddb0d4000000000000000000000000000000000000000000000000000000000815260040160405180910390fd5b6101055460ff16801561141f5750610105546001600160a01b0385811661010090920416145b156114595761142e338361359d565b6101015461010354611454916001600160a01b03169061144f908590615650565b613622565b611473565b610101546114739085906001600160a01b031633856136c5565b6101055460ff1680156114995750610105546001600160a01b0384811661010090920416145b156114ce576114a8338261359d565b61010154610104546114c9916001600160a01b03169061144f908490615650565b6114e8565b610101546114e89084906001600160a01b031633846136c5565b610101805460016001600160a01b0319918216811790925561010280549091169091179055600061010381905561010455610105805460ff191690555b50505050565b6000818152606760205260408120546001600160a01b03168061099d5760405162461bcd60e51b815260206004820152602960248201527f4552433732313a206f776e657220717565727920666f72206e6f6e657869737460448201527f656e7420746f6b656e00000000000000000000000000000000000000000000006064820152608401610abb565b60006001600160a01b0382166116345760405162461bcd60e51b815260206004820152602a60248201527f4552433732313a2062616c616e636520717565727920666f7220746865207a6560448201527f726f2061646472657373000000000000000000000000000000000000000000006064820152608401610abb565b506001600160a01b031660009081526068602052604090205490565b428410156116a05760405162461bcd60e51b815260206004820152601760248201527f5045524d49545f444541444c494e455f455850495245440000000000000000006044820152606401610abb565b60006116ab8661152b565b905060006116b76110af565b600088815260cd602090815260409182902080546001810190915582517f49ecf333e5b8c95c40fdafc95c1ad136e8914a8fb55e9dc8bb01eaa83a2df9ad818401526001600160a01b038d1681850152606081018c9052608081019190915260a08082018b90528351808303909101815260c082019093528251929091019190912061190160f01b60e083015260e28201929092526101028101919091526101220160408051601f198184030181528282528051602091820120600080855291840180845281905260ff89169284019290925260608301879052608083018690529092509060019060a0016020604051602081039080840390855afa1580156117c4573d6000803e3d6000fd5b5050604051601f1901519150506001600160a01b0381166118275760405162461bcd60e51b815260206004820152601860248201527f494e56414c49445f5045524d49545f5349474e415455524500000000000000006044820152606401610abb565b826001600160a01b0316816001600160a01b0316148061186c57506001600160a01b038084166000908152606a602090815260408083209385168352929052205460ff165b6118b85760405162461bcd60e51b815260206004820152600e60248201527f494e56414c49445f5349474e45520000000000000000000000000000000000006044820152606401610abb565b50506118c48787612805565b50505050505050565b600080600260cf5414156119235760405162461bcd60e51b815260206004820152601f60248201527f5265656e7472616e637947756172643a207265656e7472616e742063616c6c006044820152606401610abb565b600260cf5561193233866130b0565b61194f57604051631eb49d6d60e11b815260040160405180910390fd5b611958856136da565b61196385858561371b565b600160cf5590969095509350505050565b6000600260cf5414156119c95760405162461bcd60e51b815260206004820152601f60248201527f5265656e7472616e637947756172643a207265656e7472616e742063616c6c006044820152606401610abb565b600260cf556119d833856130b0565b6119f557604051631eb49d6d60e11b815260040160405180910390fd5b6119fe8461387a565b611a098484846138a6565b600160cf55949350505050565b6060606680546109b290615587565b600080600260cf541415611a7b5760405162461bcd60e51b815260206004820152601f60248201527f5265656e7472616e637947756172643a207265656e7472616e742063616c6c006044820152606401610abb565b600260cf55611a8a33896130b0565b611aa757604051631eb49d6d60e11b815260040160405180910390fd5b6000888152610107602090815260409182902082516101208101845281546001600160a01b0316815260018201546001600160801b03811693820193909352600160801b8304600290810b94820194909452600160981b8304840b6060820152600160b01b90920463ffffffff1660808301529182015460a0820152600382015460c0820152600482015460e0820152600590910154610100820152611b4c896136da565b611b558961387a565b80602001516001600160801b0316886001600160801b03161015611c6c5780516040808301516060840151915163a34123a760e01b8152600291820b600482015291900b60248201526001600160801b038a1660448201526001600160a01b039091169063a34123a7906064016040805180830381600087803b158015611bdb57600080fd5b505af1158015611bef573d6000803e3d6000fd5b505050506040513d601f19601f82011682018060405250810190611c139190615667565b60008b81526101076020526040812060010180549396509194508a92611c439084906001600160801b03166155d8565b92506101000a8154816001600160801b0302191690836001600160801b03160217905550611d9a565b602081015181516040808401516060850151915163a34123a760e01b8152600291820b600482015291900b60248201526001600160801b03831660448201529199506001600160a01b03169063a34123a7906064016040805180830381600087803b158015611cda57600080fd5b505af1158015611cee573d6000803e3d6000fd5b505050506040513d601f19601f82011682018060405250810190611d129190615667565b9093509150611d2289888661371b565b5050611d2f8988866138a6565b50611d3989613abe565b60008981526101076020526040812080546001600160a01b03191681556001810180547fffffffffffff0000000000000000000000000000000000000000000000000000169055600281018290556003810182905560048101829055600501555b85831080611da757508482105b15611dc55760405163c9f52c7160e01b815260040160405180910390fd5b8051611dd49088858588613b0c565b805160408051858152602081018590526001600160801b038b168183015290518b9233926001600160a01b03909116917f7a7cc3d6e9116c317f33888a57dd914fae984c233de0802abd7ea1f7eda6bb629181900360600190a450600160cf559097909650945050505050565b611e4c338383613c76565b5050565b42841015611ea05760405162461bcd60e51b815260206004820152601760248201527f5045524d49545f444541444c494e455f455850495245440000000000000000006044820152606401610abb565b6000611eaa6110af565b6001600160a01b03888116600081815260ce602090815260409182902080546001810190915582517fdaab21af31ece73a508939fedd476a5ee5129a5ed4bb091f3236ffb45394df628184015280840194909452938b166060840152608083019390935260a08083018a90528151808403909101815260c08301909152805192019190912061190160f01b60e083015260e28201929092526101028101919091526101220160408051601f198184030181528282528051602091820120600080855291840180845281905260ff88169284019290925260608301869052608083018590529092509060019060a0016020604051602081039080840390855afa158015611fba573d6000803e3d6000fd5b5050604051601f1901519150506001600160a01b03811615801590611ff05750876001600160a01b0316816001600160a01b0316145b8061202057506001600160a01b038089166000908152606a602090815260408083209385168352929052205460ff165b61206c5760405162461bcd60e51b815260206004820152601860248201527f494e56414c49445f5045524d49545f5349474e415455524500000000000000006044820152606401610abb565b505061207a86866001613c76565b505050505050565b60608167ffffffffffffffff81111561209d5761209d615469565b6040519080825280602002602001820160405280156120d057816020015b60608152602001906001900390816120bb5790505b50905060005b828110156121d357600080308686858181106120f4576120f461563a565b9050602002810190612106919061568b565b6040516121149291906156d9565b600060405180830381855af49150503d806000811461214f576040519150601f19603f3d011682016040523d82523d6000602084013e612154565b606091505b5091509150816121a05760448151101561216d57600080fd5b6004810190508080602001905181019061218791906156e9565b60405162461bcd60e51b8152600401610abb9190614f86565b808484815181106121b3576121b361563a565b6020026020010181905250505080806121cb90615757565b9150506120d6565b5092915050565b6000600260cf54141561222f5760405162461bcd60e51b815260206004820152601f60248201527f5265656e7472616e637947756172643a207265656e7472616e742063616c6c006044820152606401610abb565b600260cf55610106546040516329018f6f60e21b81526001600160a01b03808d1660048301528c92169063a4063dbc9060240160206040518083038186803b15801561227a57600080fd5b505afa15801561228e573d6000803e3d6000fd5b505050506040513d601f19601f820116820180604052508101906122b29190615600565b6122ce5760405162820f3560e61b815260040160405180910390fd5b6101018054336001600160a01b03199182161790915561010280549091166001600160a01b038d161790556001600160801b0380871661010355851661010455610105805460ff1916905561232a8b8b8b8b8b8b8b8b8b612873565b600160cf559b9a5050505050505050505050565b61234833836130b0565b6123ba5760405162461bcd60e51b815260206004820152603160248201527f4552433732313a207472616e736665722063616c6c6572206973206e6f74206f60448201527f776e6572206e6f7220617070726f7665640000000000000000000000000000006064820152608401610abb565b61152584848484613d45565b60cb546040517fc87b56dd000000000000000000000000000000000000000000000000000000008152600481018390526060916001600160a01b03169063c87b56dd9060240160006040518083038186803b15801561242457600080fd5b505afa158015612438573d6000803e3d6000fd5b505050506040513d6000823e601f3d908101601f1916820160405261099d91908101906156e9565b60008181526101076020908152604080832081516101208101835281546001600160a01b0390811682526001808401546001600160801b03811684880152600160801b8104600290810b858801908152600160981b8304820b60608701908152600160b01b90930463ffffffff1660808701528187015460a0870152600387015460c087015260048088015460e08801526005909701546101008701528a8a526101088952878a208851808a018a52815481529401549884019890985284519751915196517fc03c251400000000000000000000000000000000000000000000000000000000815291810b958201959095529490930b60248501528594919391169063c03c25149060440160206040518083038186803b15801561258357600080fd5b505afa158015612597573d6000803e3d6000fd5b505050506040513d601f19601f820116820180604052508101906125bb9190615772565b925080602001516125e48260000151850384602001516001600160801b0316600160801b613dce565b0193505050915091565b60008181526101076020908152604080832081516101208101835281546001600160a01b031680825260018301546001600160801b03811695830195909552600160801b8504600290810b838601819052600160981b8704820b60608501819052600160b01b90970463ffffffff1660808501529084015460a0840152600384015460c084015260048085015460e0850152600590940154610100840152935163159fd11f60e31b815292830193909352602482019390935283928392839263acfe88f890604401604080518083038186803b1580156126cd57600080fd5b505afa1580156126e1573d6000803e3d6000fd5b505050506040513d601f19601f820116820180604052508101906127059190615667565b80935081945050508060e001516127348260a00151850383602001516001600160801b0316600160801b613dce565b01945080610100015161275f8260c00151840383602001516001600160801b0316600160801b613dce565b019350509193509193565b60006001600160e01b031982167f80ac58cd0000000000000000000000000000000000000000000000000000000014806127cd57506001600160e01b031982167f5b5e139f00000000000000000000000000000000000000000000000000000000145b8061099d57507f01ffc9a7000000000000000000000000000000000000000000000000000000006001600160e01b031983161461099d565b600081815260696020526040902080546001600160a01b0319166001600160a01b038416908117909155819061283a8261152b565b6001600160a01b03167f8c5be1e5ebec7d5bd14f71427d1e84f3dd0314c0f7b2291e5b200ac8c7c3b92560405160405180910390a45050565b6040517faf605c880000000000000000000000000000000000000000000000000000000081526001600160a01b038a166004820152600289810b602483015288810b604483015287810b606483015286900b608482015260009073d428F47575092b9DEe070f8d56dfa632AD7900349063af605c889060a40160806040518083038186803b15801561290457600080fd5b505af4158015612918573d6000803e3d6000fd5b505050506040513d601f19601f8201168201806040525081019061293c919061578b565b6040805160c081018252600286810b825285810b6020830190815285820b83850190815285830b606085019081526001600160801b038f8116608087019081528f821660a0880190815297517f0ae9ba8a0000000000000000000000000000000000000000000000000000000081529651860b60048801529351850b60248701529151840b60448601525190920b60648401525181166084830152915190911660a4820152939c50919a50985096506000906001600160a01b038c1690630ae9ba8a9060c401602060405180830381600087803b158015612a1c57600080fd5b505af1158015612a30573d6000803e3d6000fd5b505050506040513d601f19601f82011682018060405250810190612a549190615772565b905083816001600160801b03161015612a805760405163c9f52c7160e01b815260040160405180910390fd5b82612d5e5760cc5460405163159fd11f60e31b815260028b810b600483015289900b60248201526001600160801b03909116925060009081906001600160a01b038e169063acfe88f890604401604080518083038186803b158015612ae457600080fd5b505afa158015612af8573d6000803e3d6000fd5b505050506040513d601f19601f82011682018060405250810190612b1c9190615667565b915091506040518061012001604052808e6001600160a01b03168152602001846001600160801b031681526020018c60020b81526020018a60020b81526020014263ffffffff168152602001838152602001828152602001600081526020016000815250610107600086815260200190815260200160002060008201518160000160006101000a8154816001600160a01b0302191690836001600160a01b0316021790555060208201518160010160006101000a8154816001600160801b0302191690836001600160801b0316021790555060408201518160010160106101000a81548162ffffff021916908360020b62ffffff16021790555060608201518160010160136101000a81548162ffffff021916908360020b62ffffff16021790555060808201518160010160166101000a81548163ffffffff021916908363ffffffff16021790555060a0820151816002015560c0820151816003015560e08201518160040155610100820151816005015590505060405180604001604052808e6001600160a01b031663c03c25148e8d6040518363ffffffff1660e01b8152600401612cd9929190600292830b8152910b602082015260400190565b60206040518083038186803b158015612cf157600080fd5b505afa158015612d05573d6000803e3d6000fd5b505050506040513d601f19601f82011682018060405250810190612d299190615772565b81526000602091820181905286815261010882526040902082518155910151600190910155612d5733613549565b5050612ed5565b60008381526101076020526040902080548493506001600160a01b038d8116911614612db6576040517f9840420600000000000000000000000000000000000000000000000000000000815260040160405180910390fd5b600181015460028b810b600160801b909204900b141580612de957506001810154600289810b600160981b909204900b14155b15612e20576040517f2baa8efe00000000000000000000000000000000000000000000000000000000815260040160405180910390fd5b612e2a33846130b0565b612e4757604051631eb49d6d60e11b815260040160405180910390fd5b612e50836136da565b612e598361387a565b600181018054839190600090612e799084906001600160801b03166157ea565b82546101009290920a6001600160801b038181021990931691909216919091021790555060010180547fffffffffffff00000000ffffffffffffffffffffffffffffffffffffffffffff16600160b01b4263ffffffff16021790555b60008281526101076020908152604080832081516101208101835281546001600160a01b0316815260018201546001600160801b03811694820194909452600160801b8404600290810b938201849052600160981b8504810b6060830152600160b01b90940463ffffffff1660808201529281015460a0840152600381015460c0840152600481015460e084015260050154610100830152909190819061302d90612f7f90613e82565b6001600160a01b0316612f958560600151613e82565b6001600160a01b031685600001516001600160a01b031663a035b1fe6040518163ffffffff1660e01b815260040160206040518083038186803b158015612fdb57600080fd5b505afa158015612fef573d6000803e3d6000fd5b505050506040513d601f19601f82011682018060405250810190613013919061561d565b6001600160a01b0316876001600160801b031660016141ce565b9150915084336001600160a01b03168f6001600160a01b03167fa0cbbe2e0e524c30e7105f393c94244cbc448c9a309724650d8ca7bb465f5395858589604051613097939291906001600160801b0393841681529183166020830152909116604082015260600190565b60405180910390a4505050509998505050505050505050565b6000818152606760205260408120546001600160a01b031661313a5760405162461bcd60e51b815260206004820152602c60248201527f4552433732313a206f70657261746f7220717565727920666f72206e6f6e657860448201527f697374656e7420746f6b656e00000000000000000000000000000000000000006064820152608401610abb565b60006131458361152b565b9050806001600160a01b0316846001600160a01b031614806131805750836001600160a01b031661317584610a35565b6001600160a01b0316145b806131b057506001600160a01b038082166000908152606a602090815260408083209388168352929052205460ff165b949350505050565b826001600160a01b03166131cb8261152b565b6001600160a01b0316146132475760405162461bcd60e51b815260206004820152602560248201527f4552433732313a207472616e736665722066726f6d20696e636f72726563742060448201527f6f776e65720000000000000000000000000000000000000000000000000000006064820152608401610abb565b6001600160a01b0382166132c25760405162461bcd60e51b8152602060048201526024808201527f4552433732313a207472616e7366657220746f20746865207a65726f2061646460448201527f72657373000000000000000000000000000000000000000000000000000000006064820152608401610abb565b6132cd83838361423d565b6132d8600082612805565b6001600160a01b0383166000908152606860205260408120805460019290613301908490615650565b90915550506001600160a01b038216600090815260686020526040812080546001929061332f908490615815565b909155505060008181526067602052604080822080546001600160a01b0319166001600160a01b0386811691821790925591518493918716917fddf252ad1be2c89b69c2b068fc378daa952ba7f163c4a11628f55a4df523b3ef91a4505050565b6133f16040518060400160405280600f81526020017f50616e67656120506f736974696f6e00000000000000000000000000000000008152506040518060400160405280600a81526020016950414e4745412d504f5360b01b8152506142f5565b4660ca556134c9604080518082018252600a81526950414e4745412d504f5360b01b6020918201528151808301835260018152603160f81b9082015281517f8b73c3c69bb8fe3d512ecc4cf759cc79239f7b179b0ffacaa9a75d522b39400f818301527f16d34b8f23ef02572737473f7ba87ffe21ee45c6bbade7dae4039edd04580f63818401527fc89efdaa54c0f20c7adf612882df0950f5a951637e0307cdcb4c672f298b8bc660608201524660808201523060a0808301919091528351808303909101815260c0909101909252815191012090565b60c9556134d461436a565b565b600054610100900460ff166135415760405162461bcd60e51b815260206004820152602b60248201527f496e697469616c697a61626c653a20636f6e7472616374206973206e6f74206960448201526a6e697469616c697a696e6760a81b6064820152608401610abb565b6134d46143d5565b60cc805461359a9183916001600160801b03169060006135688361582d565b91906101000a8154816001600160801b0302191690836001600160801b031602179055506001600160801b0316614447565b50565b806135a6575050565b610105546040517fb760faf90000000000000000000000000000000000000000000000000000000081526001600160a01b0384811660048301526101009092049091169063b760faf99083906024016000604051808303818588803b15801561360e57600080fd5b505af11580156118c4573d6000803e3d6000fd5b6000826001600160a01b03168260405160006040518083038185875af1925050503d806000811461366f576040519150601f19603f3d011682016040523d82523d6000602084013e613674565b606091505b5050905080610c0d5760405162461bcd60e51b815260206004820152601360248201527f4554485f5452414e534645525f4641494c4544000000000000000000000000006044820152606401610abb565b6115256001600160a01b038516848484614595565b6000806000806136e9856125ee565b600098895261010760205260409098206004810193909355600583019190915560028201556003019490945550505050565b6000838152610107602052604080822080546001820154600480840154600585015495517f2df94b0f000000000000000000000000000000000000000000000000000000008152600160801b8404600290810b93820193909352600160981b90930490910b60248301526044820152606481019390935283926001600160a01b0390911690632df94b0f906084016040805180830381600087803b1580156137c257600080fd5b505af11580156137d6573d6000803e3d6000fd5b505050506040513d601f19601f820116820180604052508101906137fa9190615667565b600060048401819055600584015582549194509250613825906001600160a01b031686858588613b0c565b8054604080518581526020810185905288926001600160a01b03898116939116917f31135c84c98c756a9a84c21b514d356a17967948475c29a83db0e94f6ea5d073910160405180910390a450935093915050565b60008061388683612460565b600094855261010860205260409094206001810191909155929092555050565b6000838152610107602090815260408083208054600180830154610108909552838620015492517f06f912f3000000000000000000000000000000000000000000000000000000008152600160801b8504600290810b6004830152600160981b90950490940b60248501526044840192909252916001600160a01b03909116906306f912f390606401602060405180830381600087803b15801561394957600080fd5b505af115801561395d573d6000803e3d6000fd5b505050506040513d601f19601f820116820180604052508101906139819190615772565b600086815261010860209081526040808320600101839055845481517ff7c618c1000000000000000000000000000000000000000000000000000000008152915194965092936001600160a01b039093169263f7c618c192600480840193919291829003018186803b1580156139f657600080fd5b505afa158015613a0a573d6000803e3d6000fd5b505050506040513d601f19601f82011682018060405250810190613a2e919061561d565b9050838015613a505750610105546001600160a01b0382811661010090920416145b15613a6457613a5f858461462e565b613a6f565b613a6f8186856146b9565b815460405184815287916001600160a01b03888116929116907f12b3409f4b5d248c86c1cfe84389e9973e1e40e144de2f43aac95d1d97fe12989060200160405180910390a450509392505050565b60cc8054600160801b90046001600160801b0316906010613ade8361582d565b91906101000a8154816001600160801b0302191690836001600160801b031602179055505061359a816146cd565b6000856001600160a01b0316630dfe16816040518163ffffffff1660e01b815260040160206040518083038186803b158015613b4757600080fd5b505afa158015613b5b573d6000803e3d6000fd5b505050506040513d601f19601f82011682018060405250810190613b7f919061561d565b610105549091506001600160a01b0380831661010090920416148015613ba25750815b15613bb657613bb1858561462e565b613bc1565b613bc18186866146b9565b6000866001600160a01b031663d21220a76040518163ffffffff1660e01b815260040160206040518083038186803b158015613bfc57600080fd5b505afa158015613c10573d6000803e3d6000fd5b505050506040513d601f19601f82011682018060405250810190613c34919061561d565b610105549091506001600160a01b0380831661010090920416148015613c575750825b15613c6b57613c66868561462e565b6118c4565b6118c48187866146b9565b816001600160a01b0316836001600160a01b03161415613cd85760405162461bcd60e51b815260206004820152601960248201527f4552433732313a20617070726f766520746f2063616c6c6572000000000000006044820152606401610abb565b6001600160a01b038381166000818152606a6020908152604080832094871680845294825291829020805460ff191686151590811790915591519182527f17307eab39ab6107e8899845ad3d59bd9653f200f220920489ca2b5937696c31910160405180910390a3505050565b613d508484846131b8565b613d5c84848484614774565b6115255760405162461bcd60e51b815260206004820152603260248201527f4552433732313a207472616e7366657220746f206e6f6e20455243373231526560448201527f63656976657220696d706c656d656e74657200000000000000000000000000006064820152608401610abb565b600080806000198587098587029250828110838203039150508060001415613e085760008411613dfd57600080fd5b508290049050613e7b565b808411613e1457600080fd5b6000848688096000868103871696879004966002600389028118808a02820302808a02820302808a02820302808a02820302808a02820302808a02909103029181900381900460010186841190950394909402919094039290920491909117919091029150505b9392505050565b60008060008360020b12613e99578260020b613ea6565b8260020b613ea69061584a565b9050613eb5620d89e719615883565b62ffffff16811115613ef3576040517ff87dc40c00000000000000000000000000000000000000000000000000000000815260040160405180910390fd5b600060018216613f0757600160801b613f19565b6ffffcb933bd6fad37aa2d162d1a5940015b70ffffffffffffffffffffffffffffffffff1690506002821615613f4d576ffff97272373d413259a46990580e213a0260801c5b6004821615613f6c576ffff2e50f5f656932ef12357cf3c7fdcc0260801c5b6008821615613f8b576fffe5caca7e10e4e61c3624eaa0941cd00260801c5b6010821615613faa576fffcb9843d60f6159c9db58835c9266440260801c5b6020821615613fc9576fff973b41fa98c081472e6896dfb254c00260801c5b6040821615613fe8576fff2ea16466c96a3843ec78b326b528610260801c5b6080821615614007576ffe5dee046a99a2a811c461f1969c30530260801c5b610100821615614027576ffcbe86c7900a88aedcffc83b479aa3a40260801c5b610200821615614047576ff987a7253ac413176f2b074cf7815e540260801c5b610400821615614067576ff3392b0822b70005940c7a398e4b70f30260801c5b610800821615614087576fe7159475a2c29b7443b29c7fa6e889d90260801c5b6110008216156140a7576fd097f3bdfd2022b8845ad8f792aa58250260801c5b6120008216156140c7576fa9f746462d870fdf8a65dc1f90e061e50260801c5b6140008216156140e7576f70d869a156d2a1b890bb3df62baf32f70260801c5b618000821615614107576f31be135f97d08fd981231505542fcfa60260801c5b62010000821615614128576f09aa508b5b7a84e1c677de54f3e99bc90260801c5b62020000821615614148576e5d6af8dedb81196699c329225ee6040260801c5b62040000821615614167576d2216e584f5fa1ea926041bedfe980260801c5b62080000821615614184576b048a170391f7dc42444e8fa20260801c5b60008460020b13156141a55780600019816141a1576141a16158a6565b0490505b6401000000008106156141b95760016141bc565b60005b60ff16602082901c0192505050919050565b6000808486116141f3576141ec6141e7858989876148d7565b614923565b9050614233565b868511614210576142096141e78589898761493e565b9150614233565b61421f6141e78587898761493e565b91506142306141e7858988876148d7565b90505b9550959350505050565b6001600160a01b0383166142985761429381609980546000838152609a60205260408120829055600182018355919091527f72a152ddfb8e864297c917af52ea6c1c68aead0fee1a62673fcc7e0c94979d000155565b6142bb565b816001600160a01b0316836001600160a01b0316146142bb576142bb838261498f565b6001600160a01b0382166142d257610c0d81614a2c565b826001600160a01b0316826001600160a01b031614610c0d57610c0d8282614adb565b600054610100900460ff166143605760405162461bcd60e51b815260206004820152602b60248201527f496e697469616c697a61626c653a20636f6e7472616374206973206e6f74206960448201526a6e697469616c697a696e6760a81b6064820152608401610abb565b611e4c8282614b1f565b600054610100900460ff166134d45760405162461bcd60e51b815260206004820152602b60248201527f496e697469616c697a61626c653a20636f6e7472616374206973206e6f74206960448201526a6e697469616c697a696e6760a81b6064820152608401610abb565b600054610100900460ff166144405760405162461bcd60e51b815260206004820152602b60248201527f496e697469616c697a61626c653a20636f6e7472616374206973206e6f74206960448201526a6e697469616c697a696e6760a81b6064820152608401610abb565b600160cf55565b6001600160a01b03821661449d5760405162461bcd60e51b815260206004820181905260248201527f4552433732313a206d696e7420746f20746865207a65726f20616464726573736044820152606401610abb565b6000818152606760205260409020546001600160a01b0316156145025760405162461bcd60e51b815260206004820152601c60248201527f4552433732313a20746f6b656e20616c7265616479206d696e746564000000006044820152606401610abb565b61450e6000838361423d565b6001600160a01b0382166000908152606860205260408120805460019290614537908490615815565b909155505060008181526067602052604080822080546001600160a01b0319166001600160a01b03861690811790915590518392907fddf252ad1be2c89b69c2b068fc378daa952ba7f163c4a11628f55a4df523b3ef908290a45050565b6040516001600160a01b03808516602483015283166044820152606481018290526115259085907f23b872dd00000000000000000000000000000000000000000000000000000000906084015b60408051601f198184030181529190526020810180517bffffffffffffffffffffffffffffffffffffffffffffffffffffffff166001600160e01b031990931692909217909152614bb1565b80614637575050565b610105546040517f205c28780000000000000000000000000000000000000000000000000000000081526001600160a01b038481166004830152602482018490526101009092049091169063205c287890604401600060405180830381600087803b1580156146a557600080fd5b505af115801561207a573d6000803e3d6000fd5b610c0d6001600160a01b0384168383614c96565b60006146d88261152b565b90506146e68160008461423d565b6146f1600083612805565b6001600160a01b038116600090815260686020526040812080546001929061471a908490615650565b909155505060008281526067602052604080822080546001600160a01b0319169055518391906001600160a01b038416907fddf252ad1be2c89b69c2b068fc378daa952ba7f163c4a11628f55a4df523b3ef908390a45050565b60006001600160a01b0384163b156148cc57604051630a85bd0160e11b81526001600160a01b0385169063150b7a02906147b89033908990889088906004016158bc565b602060405180830381600087803b1580156147d257600080fd5b505af1925050508015614802575060408051601f3d908101601f191682019092526147ff918101906158f8565b60015b6148b2573d808015614830576040519150601f19603f3d011682016040523d82523d6000602084013e614835565b606091505b5080516148aa5760405162461bcd60e51b815260206004820152603260248201527f4552433732313a207472616e7366657220746f206e6f6e20455243373231526560448201527f63656976657220696d706c656d656e74657200000000000000000000000000006064820152608401610abb565b805181602001fd5b6001600160e01b031916630a85bd0160e11b1490506131b0565b506001949350505050565b60008115614900576148f9858585036c01000000000000000000000000614cdf565b90506131b0565b61491a858585036c01000000000000000000000000613dce565b95945050505050565b806001600160801b038116811461493957600080fd5b919050565b60008115614966576148f961495a606087901b86860386614cdf565b85808204910615150190565b83614978606087901b82860386613dce565b81614985576149856158a6565b0495945050505050565b6000600161499c846115b6565b6149a69190615650565b6000838152609860205260409020549091508082146149f9576001600160a01b03841660009081526097602090815260408083208584528252808320548484528184208190558352609890915290208190555b5060009182526098602090815260408084208490556001600160a01b039094168352609781528383209183525290812055565b609954600090614a3e90600190615650565b6000838152609a602052604081205460998054939450909284908110614a6657614a6661563a565b906000526020600020015490508060998381548110614a8757614a8761563a565b6000918252602080832090910192909255828152609a90915260408082208490558582528120556099805480614abf57614abf615915565b6001900381819060005260206000200160009055905550505050565b6000614ae6836115b6565b6001600160a01b039093166000908152609760209081526040808320868452825280832085905593825260989052919091209190915550565b600054610100900460ff16614b8a5760405162461bcd60e51b815260206004820152602b60248201527f496e697469616c697a61626c653a20636f6e7472616374206973206e6f74206960448201526a6e697469616c697a696e6760a81b6064820152608401610abb565b8151614b9d906065906020850190614e30565b508051610c0d906066906020840190614e30565b6000614c06826040518060400160405280602081526020017f5361666545524332303a206c6f772d6c6576656c2063616c6c206661696c6564815250856001600160a01b0316614d1c9092919063ffffffff16565b805190915015610c0d5780806020019051810190614c249190615600565b610c0d5760405162461bcd60e51b815260206004820152602a60248201527f5361666545524332303a204552433230206f7065726174696f6e20646964206e60448201527f6f742073756363656564000000000000000000000000000000000000000000006064820152608401610abb565b6040516001600160a01b038316602482015260448101829052610c0d9084907fa9059cbb00000000000000000000000000000000000000000000000000000000906064016145e2565b6000614cec848484613dce565b90508180614cfc57614cfc6158a6565b83850915613e7b576000198110614d1257600080fd5b6001019392505050565b60606131b08484600085856001600160a01b0385163b614d7e5760405162461bcd60e51b815260206004820152601d60248201527f416464726573733a2063616c6c20746f206e6f6e2d636f6e74726163740000006044820152606401610abb565b600080866001600160a01b03168587604051614d9a919061592b565b60006040518083038185875af1925050503d8060008114614dd7576040519150601f19603f3d011682016040523d82523d6000602084013e614ddc565b606091505b5091509150614dec828286614df7565b979650505050505050565b60608315614e06575081613e7b565b825115614e165782518084602001fd5b8160405162461bcd60e51b8152600401610abb9190614f86565b828054614e3c90615587565b90600052602060002090601f016020900481019282614e5e5760008555614ea4565b82601f10614e7757805160ff1916838001178555614ea4565b82800160010185558215614ea4579182015b82811115614ea4578251825591602001919060010190614e89565b50614eb0929150614eb4565b5090565b5b80821115614eb05760008155600101614eb5565b6001600160a01b038116811461359a57600080fd5b600060208284031215614ef057600080fd5b8135613e7b81614ec9565b6001600160e01b03198116811461359a57600080fd5b600060208284031215614f2357600080fd5b8135613e7b81614efb565b60005b83811015614f49578181015183820152602001614f31565b838111156115255750506000910152565b60008151808452614f72816020860160208601614f2e565b601f01601f19169290920160200192915050565b602081526000613e7b6020830184614f5a565b600060208284031215614fab57600080fd5b5035919050565b60008060408385031215614fc557600080fd5b8235614fd081614ec9565b946020939093013593505050565b8060020b811461359a57600080fd5b80356001600160801b038116811461493957600080fd5b600080600080600080600080610100898b03121561502157600080fd5b883561502c81614ec9565b9750602089013561503c81614fde565b9650604089013561504c81614fde565b9550606089013561505c81614fde565b9450608089013561506c81614fde565b935061507a60a08a01614fed565b925060c0890135915060e089013590509295985092959890939650565b6000806000606084860312156150ac57600080fd5b83356150b781614ec9565b925060208401356150c781614ec9565b929592945050506040919091013590565b600080604083850312156150eb57600080fd5b82356150f681614ec9565b9150602083013561510681614ec9565b809150509250929050565b6000806000806080858703121561512757600080fd5b843561513281614ec9565b9350602085013561514281614ec9565b93969395505050506040820135916060013590565b803560ff8116811461493957600080fd5b60008060008060008060c0878903121561518157600080fd5b863561518c81614ec9565b955060208701359450604087013593506151a860608801615157565b92506080870135915060a087013590509295509295509295565b801515811461359a57600080fd5b6000806000606084860312156151e557600080fd5b8335925060208401356151f781614ec9565b91506040840135615207816151c2565b809150509250925092565b60008060008060008060c0878903121561522b57600080fd5b8635955061523b60208801614fed565b9450604087013561524b81614ec9565b9350606087013592506080870135915060a0870135615269816151c2565b809150509295509295509295565b6000806040838503121561528a57600080fd5b823561529581614ec9565b91506020830135615106816151c2565b60008060008060008060c087890312156152be57600080fd5b86356152c981614ec9565b955060208701356152d981614ec9565b9450604087013593506151a860608801615157565b6000806020838503121561530157600080fd5b823567ffffffffffffffff8082111561531957600080fd5b818501915085601f83011261532d57600080fd5b81358181111561533c57600080fd5b8660208260051b850101111561535157600080fd5b60209290920196919550909350505050565b6000602080830181845280855180835260408601915060408160051b870101925083870160005b828110156153b857603f198886030184526153a6858351614f5a565b9450928501929085019060010161538a565b5092979650505050505050565b60008060008060008060008060006101208a8c0312156153e457600080fd5b89356153ef81614ec9565b985060208a01356153ff81614fde565b975060408a013561540f81614fde565b965060608a013561541f81614fde565b955060808a013561542f81614fde565b945061543d60a08b01614fed565b935061544b60c08b01614fed565b925060e08a013591506101008a013590509295985092959850929598565b634e487b7160e01b600052604160045260246000fd5b604051601f8201601f1916810167ffffffffffffffff811182821017156154a8576154a8615469565b604052919050565b600067ffffffffffffffff8211156154ca576154ca615469565b50601f01601f191660200190565b600080600080608085870312156154ee57600080fd5b84356154f981614ec9565b9350602085013561550981614ec9565b925060408501359150606085013567ffffffffffffffff81111561552c57600080fd5b8501601f8101871361553d57600080fd5b803561555061554b826154b0565b61547f565b81815288602083850101111561556557600080fd5b8160208401602083013760006020838301015280935050505092959194509250565b600181811c9082168061559b57607f821691505b602082108114156155bc57634e487b7160e01b600052602260045260246000fd5b50919050565b634e487b7160e01b600052601160045260246000fd5b60006001600160801b03838116908316818110156155f8576155f86155c2565b039392505050565b60006020828403121561561257600080fd5b8151613e7b816151c2565b60006020828403121561562f57600080fd5b8151613e7b81614ec9565b634e487b7160e01b600052603260045260246000fd5b600082821015615662576156626155c2565b500390565b6000806040838503121561567a57600080fd5b505080516020909101519092909150565b6000808335601e198436030181126156a257600080fd5b83018035915067ffffffffffffffff8211156156bd57600080fd5b6020019150368190038213156156d257600080fd5b9250929050565b8183823760009101908152919050565b6000602082840312156156fb57600080fd5b815167ffffffffffffffff81111561571257600080fd5b8201601f8101841361572357600080fd5b805161573161554b826154b0565b81815285602083850101111561574657600080fd5b61491a826020830160208601614f2e565b600060001982141561576b5761576b6155c2565b5060010190565b60006020828403121561578457600080fd5b5051919050565b600080600080608085870312156157a157600080fd5b84516157ac81614fde565b60208601519094506157bd81614fde565b60408601519093506157ce81614fde565b60608601519092506157df81614fde565b939692955090935050565b60006001600160801b0380831681851680830382111561580c5761580c6155c2565b01949350505050565b60008219821115615828576158286155c2565b500190565b60006001600160801b0380831681811415614d1257614d126155c2565b60007f800000000000000000000000000000000000000000000000000000000000000082141561587c5761587c6155c2565b5060000390565b60008160020b627fffff1981141561589d5761589d6155c2565b60000392915050565b634e487b7160e01b600052601260045260246000fd5b60006001600160a01b038087168352808616602084015250836040830152608060608301526158ee6080830184614f5a565b9695505050505050565b60006020828403121561590a57600080fd5b8151613e7b81614efb565b634e487b7160e01b600052603160045260246000fd5b6000825161593d818460208701614f2e565b919091019291505056fea264697066735822122099680678ff0ba27442af2eaa33078210e88d9b352283d1a3b92b46d553ea006964736f6c63430008090033",
  "deployedBytecode": "0x6080604052600436106102a05760003560e01c80636352211e1161016e578063aba07847116100cb578063c87b56dd1161007f578063d53cfc0611610064578063d53cfc06146108b6578063e985e9c5146108d6578063ed7bba9a1461091f57600080fd5b8063c87b56dd14610875578063cf58879a1461089557600080fd5b8063b4e13c8d116100b0578063b4e13c8d14610801578063b70d2ea614610835578063b88d4fde1461085557600080fd5b8063aba07847146107c1578063ac9650d8146107e157600080fd5b80639399cc891161012257806399fbab881161010757806399fbab8814610696578063a214fa6b14610781578063a22cb465146107a157600080fd5b80639399cc891461066157806395d89b411461068157600080fd5b80637ac2ff7b116101535780637ac2ff7b146105f45780638c6ab01314610614578063904dfb8e1461063457600080fd5b80636352211e146105b457806370a08231146105d457600080fd5b806323b872dd1161021c57806342842e0e116101d05780634f558e79116101b55780634f558e79146105545780634f6ccce7146105745780635f16529a1461059457600080fd5b806342842e0e14610514578063485cc9551461053457600080fd5b806330adf81f1161020157806330adf81f1461048157806335c62e33146104b55780633644e515146104ff57600080fd5b806323b872dd146104415780632f745c591461046157600080fd5b8063095ea7b311610273578063141a468c11610258578063141a468c146103de57806318160ddd146104195780631816ec771461042e57600080fd5b8063095ea7b3146103735780630af2c6ca1461039357600080fd5b806301b9a397146102a557806301ffc9a7146102e457806306fdde0314610319578063081812fc1461033b575b600080fd5b3480156102b157600080fd5b506102e26102c0366004614ede565b60cb80546001600160a01b0319166001600160a01b0392909216919091179055565b005b3480156102f057600080fd5b506103046102ff366004614f11565b61095f565b60405190151581526020015b60405180910390f35b34801561032557600080fd5b5061032e6109a3565b6040516103109190614f86565b34801561034757600080fd5b5061035b610356366004614f99565b610a35565b6040516001600160a01b039091168152602001610310565b34801561037f57600080fd5b506102e261038e366004614fb2565b610ae0565b34801561039f57600080fd5b5060cc546103be906001600160801b0380821691600160801b90041682565b604080516001600160801b03938416815292909116602083015201610310565b3480156103ea57600080fd5b5061040b6103f9366004614f99565b60cd6020526000908152604090205481565b604051908152602001610310565b34801561042557600080fd5b5061040b610c12565b61040b61043c366004615004565b610c42565b34801561044d57600080fd5b506102e261045c366004615097565b610f80565b34801561046d57600080fd5b5061040b61047c366004614fb2565b611007565b34801561048d57600080fd5b5061040b7f49ecf333e5b8c95c40fdafc95c1ad136e8914a8fb55e9dc8bb01eaa83a2df9ad81565b3480156104c157600080fd5b506104ea6104d0366004614f99565b610108602052600090815260409020805460019091015482565b60408051928352602083019190915201610310565b34801561050b57600080fd5b5061040b6110af565b34801561052057600080fd5b506102e261052f366004615097565b611193565b34801561054057600080fd5b506102e261054f3660046150d8565b6111ae565b34801561056057600080fd5b5061030461056f366004614f99565b6112f1565b34801561058057600080fd5b5061040b61058f366004614f99565b611310565b3480156105a057600080fd5b506102e26105af366004615111565b6113b4565b3480156105c057600080fd5b5061035b6105cf366004614f99565b61152b565b3480156105e057600080fd5b5061040b6105ef366004614ede565b6115b6565b34801561060057600080fd5b506102e261060f366004615168565b611650565b34801561062057600080fd5b506104ea61062f3660046151d0565b6118cd565b34801561064057600080fd5b5061040b61064f366004614ede565b60ce6020526000908152604090205481565b34801561066d57600080fd5b5061040b61067c3660046151d0565b611974565b34801561068d57600080fd5b5061032e611a16565b3480156106a257600080fd5b5061071d6106b1366004614f99565b61010760205260009081526040902080546001820154600280840154600385015460048601546005909601546001600160a01b03909516956001600160801b03851695600160801b8604850b95600160981b810490950b94600160b01b900463ffffffff169392919089565b604080516001600160a01b03909a168a526001600160801b0390981660208a0152600296870b978901979097529390940b606087015263ffffffff909116608086015260a085015260c084019190915260e083015261010082015261012001610310565b34801561078d57600080fd5b506104ea61079c366004615212565b611a25565b3480156107ad57600080fd5b506102e26107bc366004615277565b611e41565b3480156107cd57600080fd5b506102e26107dc3660046152a5565b611e50565b6107f46107ef3660046152ee565b612082565b6040516103109190615363565b34801561080d57600080fd5b5061040b7fdaab21af31ece73a508939fedd476a5ee5129a5ed4bb091f3236ffb45394df6281565b34801561084157600080fd5b5061040b6108503660046153c5565b6121da565b34801561086157600080fd5b506102e26108703660046154d8565b61233e565b34801561088157600080fd5b5061032e610890366004614f99565b6123c6565b3480156108a157600080fd5b506101065461035b906001600160a01b031681565b3480156108c257600080fd5b506104ea6108d1366004614f99565b612460565b3480156108e257600080fd5b506103046108f13660046150d8565b6001600160a01b039182166000908152606a6020908152604080832093909416825291909152205460ff1690565b34801561092b57600080fd5b5061093f61093a366004614f99565b6125ee565b604080519485526020850193909352918301526060820152608001610310565b60006001600160e01b031982167f780e9d6300000000000000000000000000000000000000000000000000000000148061099d575061099d8261276a565b92915050565b6060606580546109b290615587565b80601f01602080910402602001604051908101604052809291908181526020018280546109de90615587565b8015610a2b5780601f10610a0057610100808354040283529160200191610a2b565b820191906000526020600020905b815481529060010190602001808311610a0e57829003601f168201915b5050505050905090565b6000818152606760205260408120546001600160a01b0316610ac45760405162461bcd60e51b815260206004820152602c60248201527f4552433732313a20617070726f76656420717565727920666f72206e6f6e657860448201527f697374656e7420746f6b656e000000000000000000000000000000000000000060648201526084015b60405180910390fd5b506000908152606960205260409020546001600160a01b031690565b6000610aeb8261152b565b9050806001600160a01b0316836001600160a01b03161415610b755760405162461bcd60e51b815260206004820152602160248201527f4552433732313a20617070726f76616c20746f2063757272656e74206f776e6560448201527f72000000000000000000000000000000000000000000000000000000000000006064820152608401610abb565b336001600160a01b0382161480610b915750610b9181336108f1565b610c035760405162461bcd60e51b815260206004820152603860248201527f4552433732313a20617070726f76652063616c6c6572206973206e6f74206f7760448201527f6e6572206e6f7220617070726f76656420666f7220616c6c00000000000000006064820152608401610abb565b610c0d8383612805565b505050565b60cc54600090610c34906001600160801b03600160801b8204811691166155d8565b6001600160801b0316905090565b6000600260cf541415610c975760405162461bcd60e51b815260206004820152601f60248201527f5265656e7472616e637947756172643a207265656e7472616e742063616c6c006044820152606401610abb565b600260cf55610106546040516329018f6f60e21b81526001600160a01b03808c1660048301528b92169063a4063dbc9060240160206040518083038186803b158015610ce257600080fd5b505afa158015610cf6573d6000803e3d6000fd5b505050506040513d601f19601f82011682018060405250810190610d1a9190615600565b610d365760405162820f3560e61b815260040160405180910390fd5b60008a905061010560019054906101000a90046001600160a01b03166001600160a01b0316816001600160a01b0316630dfe16816040518163ffffffff1660e01b815260040160206040518083038186803b158015610d9457600080fd5b505afa158015610da8573d6000803e3d6000fd5b505050506040513d601f19601f82011682018060405250810190610dcc919061561d565b6001600160a01b03161415610e40576101018054336001600160a01b03199182161790915561010280549091166001600160a01b038d1617905534610103556001600160801b03861661010455610105805460ff19166001179055610e38818b8b8b8b348c8c8c612873565b925050610f6e565b61010560019054906101000a90046001600160a01b03166001600160a01b0316816001600160a01b031663d21220a76040518163ffffffff1660e01b815260040160206040518083038186803b158015610e9957600080fd5b505afa158015610ead573d6000803e3d6000fd5b505050506040513d601f19601f82011682018060405250810190610ed1919061561d565b6001600160a01b031614610f11576040517f425c65bb00000000000000000000000000000000000000000000000000000000815260040160405180910390fd5b6101018054336001600160a01b03199182161790915561010280549091166001600160a01b038d161790556001600160801b038616610103553461010455610105805460ff19166001179055610e38818b8b8b8b8b348c8c612873565b50600160cf5598975050505050505050565b610f8a33826130b0565b610ffc5760405162461bcd60e51b815260206004820152603160248201527f4552433732313a207472616e736665722063616c6c6572206973206e6f74206f60448201527f776e6572206e6f7220617070726f7665640000000000000000000000000000006064820152608401610abb565b610c0d8383836131b8565b6000611012836115b6565b82106110865760405162461bcd60e51b815260206004820152602b60248201527f455243373231456e756d657261626c653a206f776e657220696e646578206f7560448201527f74206f6620626f756e64730000000000000000000000000000000000000000006064820152608401610abb565b506001600160a01b03919091166000908152609760209081526040808320938352929052205490565b600060ca54461461118c5750604080518082018252600a81526950414e4745412d504f5360b01b6020918201528151808301835260018152603160f81b9082015281517f8b73c3c69bb8fe3d512ecc4cf759cc79239f7b179b0ffacaa9a75d522b39400f818301527f16d34b8f23ef02572737473f7ba87ffe21ee45c6bbade7dae4039edd04580f63818401527fc89efdaa54c0f20c7adf612882df0950f5a951637e0307cdcb4c672f298b8bc660608201524660808201523060a0808301919091528351808303909101815260c0909101909252815191012090565b5060c95490565b610c0d8383836040518060200160405280600081525061233e565b600054610100900460ff166111c95760005460ff16156111cd565b303b155b61123f5760405162461bcd60e51b815260206004820152602e60248201527f496e697469616c697a61626c653a20636f6e747261637420697320616c72656160448201527f647920696e697469616c697a65640000000000000000000000000000000000006064820152608401610abb565b600054610100900460ff16158015611261576000805461ffff19166101011790555b611269613390565b6112716134d6565b61010680546001600160a01b038086166001600160a01b03199283161790925560cb8054909116331790556101058054918416610100027fffffffffffffffffffffff0000000000000000000000000000000000000000ff9092169190911790556112db30613549565b8015610c0d576000805461ff0019169055505050565b6000818152606760205260408120546001600160a01b0316151561099d565b600061131b60995490565b821061138f5760405162461bcd60e51b815260206004820152602c60248201527f455243373231456e756d657261626c653a20676c6f62616c20696e646578206f60448201527f7574206f6620626f756e647300000000000000000000000000000000000000006064820152608401610abb565b609982815481106113a2576113a261563a565b90600052602060002001549050919050565b610102546001600160a01b031633146113f9576040517f2ddb0d4000000000000000000000000000000000000000000000000000000000815260040160405180910390fd5b6101055460ff16801561141f5750610105546001600160a01b0385811661010090920416145b156114595761142e338361359d565b6101015461010354611454916001600160a01b03169061144f908590615650565b613622565b611473565b610101546114739085906001600160a01b031633856136c5565b6101055460ff1680156114995750610105546001600160a01b0384811661010090920416145b156114ce576114a8338261359d565b61010154610104546114c9916001600160a01b03169061144f908490615650565b6114e8565b610101546114e89084906001600160a01b031633846136c5565b610101805460016001600160a01b0319918216811790925561010280549091169091179055600061010381905561010455610105805460ff191690555b50505050565b6000818152606760205260408120546001600160a01b03168061099d5760405162461bcd60e51b815260206004820152602960248201527f4552433732313a206f776e657220717565727920666f72206e6f6e657869737460448201527f656e7420746f6b656e00000000000000000000000000000000000000000000006064820152608401610abb565b60006001600160a01b0382166116345760405162461bcd60e51b815260206004820152602a60248201527f4552433732313a2062616c616e636520717565727920666f7220746865207a6560448201527f726f2061646472657373000000000000000000000000000000000000000000006064820152608401610abb565b506001600160a01b031660009081526068602052604090205490565b428410156116a05760405162461bcd60e51b815260206004820152601760248201527f5045524d49545f444541444c494e455f455850495245440000000000000000006044820152606401610abb565b60006116ab8661152b565b905060006116b76110af565b600088815260cd602090815260409182902080546001810190915582517f49ecf333e5b8c95c40fdafc95c1ad136e8914a8fb55e9dc8bb01eaa83a2df9ad818401526001600160a01b038d1681850152606081018c9052608081019190915260a08082018b90528351808303909101815260c082019093528251929091019190912061190160f01b60e083015260e28201929092526101028101919091526101220160408051601f198184030181528282528051602091820120600080855291840180845281905260ff89169284019290925260608301879052608083018690529092509060019060a0016020604051602081039080840390855afa1580156117c4573d6000803e3d6000fd5b5050604051601f1901519150506001600160a01b0381166118275760405162461bcd60e51b815260206004820152601860248201527f494e56414c49445f5045524d49545f5349474e415455524500000000000000006044820152606401610abb565b826001600160a01b0316816001600160a01b0316148061186c57506001600160a01b038084166000908152606a602090815260408083209385168352929052205460ff165b6118b85760405162461bcd60e51b815260206004820152600e60248201527f494e56414c49445f5349474e45520000000000000000000000000000000000006044820152606401610abb565b50506118c48787612805565b50505050505050565b600080600260cf5414156119235760405162461bcd60e51b815260206004820152601f60248201527f5265656e7472616e637947756172643a207265656e7472616e742063616c6c006044820152606401610abb565b600260cf5561193233866130b0565b61194f57604051631eb49d6d60e11b815260040160405180910390fd5b611958856136da565b61196385858561371b565b600160cf5590969095509350505050565b6000600260cf5414156119c95760405162461bcd60e51b815260206004820152601f60248201527f5265656e7472616e637947756172643a207265656e7472616e742063616c6c006044820152606401610abb565b600260cf556119d833856130b0565b6119f557604051631eb49d6d60e11b815260040160405180910390fd5b6119fe8461387a565b611a098484846138a6565b600160cf55949350505050565b6060606680546109b290615587565b600080600260cf541415611a7b5760405162461bcd60e51b815260206004820152601f60248201527f5265656e7472616e637947756172643a207265656e7472616e742063616c6c006044820152606401610abb565b600260cf55611a8a33896130b0565b611aa757604051631eb49d6d60e11b815260040160405180910390fd5b6000888152610107602090815260409182902082516101208101845281546001600160a01b0316815260018201546001600160801b03811693820193909352600160801b8304600290810b94820194909452600160981b8304840b6060820152600160b01b90920463ffffffff1660808301529182015460a0820152600382015460c0820152600482015460e0820152600590910154610100820152611b4c896136da565b611b558961387a565b80602001516001600160801b0316886001600160801b03161015611c6c5780516040808301516060840151915163a34123a760e01b8152600291820b600482015291900b60248201526001600160801b038a1660448201526001600160a01b039091169063a34123a7906064016040805180830381600087803b158015611bdb57600080fd5b505af1158015611bef573d6000803e3d6000fd5b505050506040513d601f19601f82011682018060405250810190611c139190615667565b60008b81526101076020526040812060010180549396509194508a92611c439084906001600160801b03166155d8565b92506101000a8154816001600160801b0302191690836001600160801b03160217905550611d9a565b602081015181516040808401516060850151915163a34123a760e01b8152600291820b600482015291900b60248201526001600160801b03831660448201529199506001600160a01b03169063a34123a7906064016040805180830381600087803b158015611cda57600080fd5b505af1158015611cee573d6000803e3d6000fd5b505050506040513d601f19601f82011682018060405250810190611d129190615667565b9093509150611d2289888661371b565b5050611d2f8988866138a6565b50611d3989613abe565b60008981526101076020526040812080546001600160a01b03191681556001810180547fffffffffffff0000000000000000000000000000000000000000000000000000169055600281018290556003810182905560048101829055600501555b85831080611da757508482105b15611dc55760405163c9f52c7160e01b815260040160405180910390fd5b8051611dd49088858588613b0c565b805160408051858152602081018590526001600160801b038b168183015290518b9233926001600160a01b03909116917f7a7cc3d6e9116c317f33888a57dd914fae984c233de0802abd7ea1f7eda6bb629181900360600190a450600160cf559097909650945050505050565b611e4c338383613c76565b5050565b42841015611ea05760405162461bcd60e51b815260206004820152601760248201527f5045524d49545f444541444c494e455f455850495245440000000000000000006044820152606401610abb565b6000611eaa6110af565b6001600160a01b03888116600081815260ce602090815260409182902080546001810190915582517fdaab21af31ece73a508939fedd476a5ee5129a5ed4bb091f3236ffb45394df628184015280840194909452938b166060840152608083019390935260a08083018a90528151808403909101815260c08301909152805192019190912061190160f01b60e083015260e28201929092526101028101919091526101220160408051601f198184030181528282528051602091820120600080855291840180845281905260ff88169284019290925260608301869052608083018590529092509060019060a0016020604051602081039080840390855afa158015611fba573d6000803e3d6000fd5b5050604051601f1901519150506001600160a01b03811615801590611ff05750876001600160a01b0316816001600160a01b0316145b8061202057506001600160a01b038089166000908152606a602090815260408083209385168352929052205460ff165b61206c5760405162461bcd60e51b815260206004820152601860248201527f494e56414c49445f5045524d49545f5349474e415455524500000000000000006044820152606401610abb565b505061207a86866001613c76565b505050505050565b60608167ffffffffffffffff81111561209d5761209d615469565b6040519080825280602002602001820160405280156120d057816020015b60608152602001906001900390816120bb5790505b50905060005b828110156121d357600080308686858181106120f4576120f461563a565b9050602002810190612106919061568b565b6040516121149291906156d9565b600060405180830381855af49150503d806000811461214f576040519150601f19603f3d011682016040523d82523d6000602084013e612154565b606091505b5091509150816121a05760448151101561216d57600080fd5b6004810190508080602001905181019061218791906156e9565b60405162461bcd60e51b8152600401610abb9190614f86565b808484815181106121b3576121b361563a565b6020026020010181905250505080806121cb90615757565b9150506120d6565b5092915050565b6000600260cf54141561222f5760405162461bcd60e51b815260206004820152601f60248201527f5265656e7472616e637947756172643a207265656e7472616e742063616c6c006044820152606401610abb565b600260cf55610106546040516329018f6f60e21b81526001600160a01b03808d1660048301528c92169063a4063dbc9060240160206040518083038186803b15801561227a57600080fd5b505afa15801561228e573d6000803e3d6000fd5b505050506040513d601f19601f820116820180604052508101906122b29190615600565b6122ce5760405162820f3560e61b815260040160405180910390fd5b6101018054336001600160a01b03199182161790915561010280549091166001600160a01b038d161790556001600160801b0380871661010355851661010455610105805460ff1916905561232a8b8b8b8b8b8b8b8b8b612873565b600160cf559b9a5050505050505050505050565b61234833836130b0565b6123ba5760405162461bcd60e51b815260206004820152603160248201527f4552433732313a207472616e736665722063616c6c6572206973206e6f74206f60448201527f776e6572206e6f7220617070726f7665640000000000000000000000000000006064820152608401610abb565b61152584848484613d45565b60cb546040517fc87b56dd000000000000000000000000000000000000000000000000000000008152600481018390526060916001600160a01b03169063c87b56dd9060240160006040518083038186803b15801561242457600080fd5b505afa158015612438573d6000803e3d6000fd5b505050506040513d6000823e601f3d908101601f1916820160405261099d91908101906156e9565b60008181526101076020908152604080832081516101208101835281546001600160a01b0390811682526001808401546001600160801b03811684880152600160801b8104600290810b858801908152600160981b8304820b60608701908152600160b01b90930463ffffffff1660808701528187015460a0870152600387015460c087015260048088015460e08801526005909701546101008701528a8a526101088952878a208851808a018a52815481529401549884019890985284519751915196517fc03c251400000000000000000000000000000000000000000000000000000000815291810b958201959095529490930b60248501528594919391169063c03c25149060440160206040518083038186803b15801561258357600080fd5b505afa158015612597573d6000803e3d6000fd5b505050506040513d601f19601f820116820180604052508101906125bb9190615772565b925080602001516125e48260000151850384602001516001600160801b0316600160801b613dce565b0193505050915091565b60008181526101076020908152604080832081516101208101835281546001600160a01b031680825260018301546001600160801b03811695830195909552600160801b8504600290810b838601819052600160981b8704820b60608501819052600160b01b90970463ffffffff1660808501529084015460a0840152600384015460c084015260048085015460e0850152600590940154610100840152935163159fd11f60e31b815292830193909352602482019390935283928392839263acfe88f890604401604080518083038186803b1580156126cd57600080fd5b505afa1580156126e1573d6000803e3d6000fd5b505050506040513d601f19601f820116820180604052508101906127059190615667565b80935081945050508060e001516127348260a00151850383602001516001600160801b0316600160801b613dce565b01945080610100015161275f8260c00151840383602001516001600160801b0316600160801b613dce565b019350509193509193565b60006001600160e01b031982167f80ac58cd0000000000000000000000000000000000000000000000000000000014806127cd57506001600160e01b031982167f5b5e139f00000000000000000000000000000000000000000000000000000000145b8061099d57507f01ffc9a7000000000000000000000000000000000000000000000000000000006001600160e01b031983161461099d565b600081815260696020526040902080546001600160a01b0319166001600160a01b038416908117909155819061283a8261152b565b6001600160a01b03167f8c5be1e5ebec7d5bd14f71427d1e84f3dd0314c0f7b2291e5b200ac8c7c3b92560405160405180910390a45050565b6040517faf605c880000000000000000000000000000000000000000000000000000000081526001600160a01b038a166004820152600289810b602483015288810b604483015287810b606483015286900b608482015260009073__$bcc72c71f8b76091ef44cf265824b83400$__9063af605c889060a40160806040518083038186803b15801561290457600080fd5b505af4158015612918573d6000803e3d6000fd5b505050506040513d601f19601f8201168201806040525081019061293c919061578b565b6040805160c081018252600286810b825285810b6020830190815285820b83850190815285830b606085019081526001600160801b038f8116608087019081528f821660a0880190815297517f0ae9ba8a0000000000000000000000000000000000000000000000000000000081529651860b60048801529351850b60248701529151840b60448601525190920b60648401525181166084830152915190911660a4820152939c50919a50985096506000906001600160a01b038c1690630ae9ba8a9060c401602060405180830381600087803b158015612a1c57600080fd5b505af1158015612a30573d6000803e3d6000fd5b505050506040513d601f19601f82011682018060405250810190612a549190615772565b905083816001600160801b03161015612a805760405163c9f52c7160e01b815260040160405180910390fd5b82612d5e5760cc5460405163159fd11f60e31b815260028b810b600483015289900b60248201526001600160801b03909116925060009081906001600160a01b038e169063acfe88f890604401604080518083038186803b158015612ae457600080fd5b505afa158015612af8573d6000803e3d6000fd5b505050506040513d601f19601f82011682018060405250810190612b1c9190615667565b915091506040518061012001604052808e6001600160a01b03168152602001846001600160801b031681526020018c60020b81526020018a60020b81526020014263ffffffff168152602001838152602001828152602001600081526020016000815250610107600086815260200190815260200160002060008201518160000160006101000a8154816001600160a01b0302191690836001600160a01b0316021790555060208201518160010160006101000a8154816001600160801b0302191690836001600160801b0316021790555060408201518160010160106101000a81548162ffffff021916908360020b62ffffff16021790555060608201518160010160136101000a81548162ffffff021916908360020b62ffffff16021790555060808201518160010160166101000a81548163ffffffff021916908363ffffffff16021790555060a0820151816002015560c0820151816003015560e08201518160040155610100820151816005015590505060405180604001604052808e6001600160a01b031663c03c25148e8d6040518363ffffffff1660e01b8152600401612cd9929190600292830b8152910b602082015260400190565b60206040518083038186803b158015612cf157600080fd5b505afa158015612d05573d6000803e3d6000fd5b505050506040513d601f19601f82011682018060405250810190612d299190615772565b81526000602091820181905286815261010882526040902082518155910151600190910155612d5733613549565b5050612ed5565b60008381526101076020526040902080548493506001600160a01b038d8116911614612db6576040517f9840420600000000000000000000000000000000000000000000000000000000815260040160405180910390fd5b600181015460028b810b600160801b909204900b141580612de957506001810154600289810b600160981b909204900b14155b15612e20576040517f2baa8efe00000000000000000000000000000000000000000000000000000000815260040160405180910390fd5b612e2a33846130b0565b612e4757604051631eb49d6d60e11b815260040160405180910390fd5b612e50836136da565b612e598361387a565b600181018054839190600090612e799084906001600160801b03166157ea565b82546101009290920a6001600160801b038181021990931691909216919091021790555060010180547fffffffffffff00000000ffffffffffffffffffffffffffffffffffffffffffff16600160b01b4263ffffffff16021790555b60008281526101076020908152604080832081516101208101835281546001600160a01b0316815260018201546001600160801b03811694820194909452600160801b8404600290810b938201849052600160981b8504810b6060830152600160b01b90940463ffffffff1660808201529281015460a0840152600381015460c0840152600481015460e084015260050154610100830152909190819061302d90612f7f90613e82565b6001600160a01b0316612f958560600151613e82565b6001600160a01b031685600001516001600160a01b031663a035b1fe6040518163ffffffff1660e01b815260040160206040518083038186803b158015612fdb57600080fd5b505afa158015612fef573d6000803e3d6000fd5b505050506040513d601f19601f82011682018060405250810190613013919061561d565b6001600160a01b0316876001600160801b031660016141ce565b9150915084336001600160a01b03168f6001600160a01b03167fa0cbbe2e0e524c30e7105f393c94244cbc448c9a309724650d8ca7bb465f5395858589604051613097939291906001600160801b0393841681529183166020830152909116604082015260600190565b60405180910390a4505050509998505050505050505050565b6000818152606760205260408120546001600160a01b031661313a5760405162461bcd60e51b815260206004820152602c60248201527f4552433732313a206f70657261746f7220717565727920666f72206e6f6e657860448201527f697374656e7420746f6b656e00000000000000000000000000000000000000006064820152608401610abb565b60006131458361152b565b9050806001600160a01b0316846001600160a01b031614806131805750836001600160a01b031661317584610a35565b6001600160a01b0316145b806131b057506001600160a01b038082166000908152606a602090815260408083209388168352929052205460ff165b949350505050565b826001600160a01b03166131cb8261152b565b6001600160a01b0316146132475760405162461bcd60e51b815260206004820152602560248201527f4552433732313a207472616e736665722066726f6d20696e636f72726563742060448201527f6f776e65720000000000000000000000000000000000000000000000000000006064820152608401610abb565b6001600160a01b0382166132c25760405162461bcd60e51b8152602060048201526024808201527f4552433732313a207472616e7366657220746f20746865207a65726f2061646460448201527f72657373000000000000000000000000000000000000000000000000000000006064820152608401610abb565b6132cd83838361423d565b6132d8600082612805565b6001600160a01b0383166000908152606860205260408120805460019290613301908490615650565b90915550506001600160a01b038216600090815260686020526040812080546001929061332f908490615815565b909155505060008181526067602052604080822080546001600160a01b0319166001600160a01b0386811691821790925591518493918716917fddf252ad1be2c89b69c2b068fc378daa952ba7f163c4a11628f55a4df523b3ef91a4505050565b6133f16040518060400160405280600f81526020017f50616e67656120506f736974696f6e00000000000000000000000000000000008152506040518060400160405280600a81526020016950414e4745412d504f5360b01b8152506142f5565b4660ca556134c9604080518082018252600a81526950414e4745412d504f5360b01b6020918201528151808301835260018152603160f81b9082015281517f8b73c3c69bb8fe3d512ecc4cf759cc79239f7b179b0ffacaa9a75d522b39400f818301527f16d34b8f23ef02572737473f7ba87ffe21ee45c6bbade7dae4039edd04580f63818401527fc89efdaa54c0f20c7adf612882df0950f5a951637e0307cdcb4c672f298b8bc660608201524660808201523060a0808301919091528351808303909101815260c0909101909252815191012090565b60c9556134d461436a565b565b600054610100900460ff166135415760405162461bcd60e51b815260206004820152602b60248201527f496e697469616c697a61626c653a20636f6e7472616374206973206e6f74206960448201526a6e697469616c697a696e6760a81b6064820152608401610abb565b6134d46143d5565b60cc805461359a9183916001600160801b03169060006135688361582d565b91906101000a8154816001600160801b0302191690836001600160801b031602179055506001600160801b0316614447565b50565b806135a6575050565b610105546040517fb760faf90000000000000000000000000000000000000000000000000000000081526001600160a01b0384811660048301526101009092049091169063b760faf99083906024016000604051808303818588803b15801561360e57600080fd5b505af11580156118c4573d6000803e3d6000fd5b6000826001600160a01b03168260405160006040518083038185875af1925050503d806000811461366f576040519150601f19603f3d011682016040523d82523d6000602084013e613674565b606091505b5050905080610c0d5760405162461bcd60e51b815260206004820152601360248201527f4554485f5452414e534645525f4641494c4544000000000000000000000000006044820152606401610abb565b6115256001600160a01b038516848484614595565b6000806000806136e9856125ee565b600098895261010760205260409098206004810193909355600583019190915560028201556003019490945550505050565b6000838152610107602052604080822080546001820154600480840154600585015495517f2df94b0f000000000000000000000000000000000000000000000000000000008152600160801b8404600290810b93820193909352600160981b90930490910b60248301526044820152606481019390935283926001600160a01b0390911690632df94b0f906084016040805180830381600087803b1580156137c257600080fd5b505af11580156137d6573d6000803e3d6000fd5b505050506040513d601f19601f820116820180604052508101906137fa9190615667565b600060048401819055600584015582549194509250613825906001600160a01b031686858588613b0c565b8054604080518581526020810185905288926001600160a01b03898116939116917f31135c84c98c756a9a84c21b514d356a17967948475c29a83db0e94f6ea5d073910160405180910390a450935093915050565b60008061388683612460565b600094855261010860205260409094206001810191909155929092555050565b6000838152610107602090815260408083208054600180830154610108909552838620015492517f06f912f3000000000000000000000000000000000000000000000000000000008152600160801b8504600290810b6004830152600160981b90950490940b60248501526044840192909252916001600160a01b03909116906306f912f390606401602060405180830381600087803b15801561394957600080fd5b505af115801561395d573d6000803e3d6000fd5b505050506040513d601f19601f820116820180604052508101906139819190615772565b600086815261010860209081526040808320600101839055845481517ff7c618c1000000000000000000000000000000000000000000000000000000008152915194965092936001600160a01b039093169263f7c618c192600480840193919291829003018186803b1580156139f657600080fd5b505afa158015613a0a573d6000803e3d6000fd5b505050506040513d601f19601f82011682018060405250810190613a2e919061561d565b9050838015613a505750610105546001600160a01b0382811661010090920416145b15613a6457613a5f858461462e565b613a6f565b613a6f8186856146b9565b815460405184815287916001600160a01b03888116929116907f12b3409f4b5d248c86c1cfe84389e9973e1e40e144de2f43aac95d1d97fe12989060200160405180910390a450509392505050565b60cc8054600160801b90046001600160801b0316906010613ade8361582d565b91906101000a8154816001600160801b0302191690836001600160801b031602179055505061359a816146cd565b6000856001600160a01b0316630dfe16816040518163ffffffff1660e01b815260040160206040518083038186803b158015613b4757600080fd5b505afa158015613b5b573d6000803e3d6000fd5b505050506040513d601f19601f82011682018060405250810190613b7f919061561d565b610105549091506001600160a01b0380831661010090920416148015613ba25750815b15613bb657613bb1858561462e565b613bc1565b613bc18186866146b9565b6000866001600160a01b031663d21220a76040518163ffffffff1660e01b815260040160206040518083038186803b158015613bfc57600080fd5b505afa158015613c10573d6000803e3d6000fd5b505050506040513d601f19601f82011682018060405250810190613c34919061561d565b610105549091506001600160a01b0380831661010090920416148015613c575750825b15613c6b57613c66868561462e565b6118c4565b6118c48187866146b9565b816001600160a01b0316836001600160a01b03161415613cd85760405162461bcd60e51b815260206004820152601960248201527f4552433732313a20617070726f766520746f2063616c6c6572000000000000006044820152606401610abb565b6001600160a01b038381166000818152606a6020908152604080832094871680845294825291829020805460ff191686151590811790915591519182527f17307eab39ab6107e8899845ad3d59bd9653f200f220920489ca2b5937696c31910160405180910390a3505050565b613d508484846131b8565b613d5c84848484614774565b6115255760405162461bcd60e51b815260206004820152603260248201527f4552433732313a207472616e7366657220746f206e6f6e20455243373231526560448201527f63656976657220696d706c656d656e74657200000000000000000000000000006064820152608401610abb565b600080806000198587098587029250828110838203039150508060001415613e085760008411613dfd57600080fd5b508290049050613e7b565b808411613e1457600080fd5b6000848688096000868103871696879004966002600389028118808a02820302808a02820302808a02820302808a02820302808a02820302808a02909103029181900381900460010186841190950394909402919094039290920491909117919091029150505b9392505050565b60008060008360020b12613e99578260020b613ea6565b8260020b613ea69061584a565b9050613eb5620d89e719615883565b62ffffff16811115613ef3576040517ff87dc40c00000000000000000000000000000000000000000000000000000000815260040160405180910390fd5b600060018216613f0757600160801b613f19565b6ffffcb933bd6fad37aa2d162d1a5940015b70ffffffffffffffffffffffffffffffffff1690506002821615613f4d576ffff97272373d413259a46990580e213a0260801c5b6004821615613f6c576ffff2e50f5f656932ef12357cf3c7fdcc0260801c5b6008821615613f8b576fffe5caca7e10e4e61c3624eaa0941cd00260801c5b6010821615613faa576fffcb9843d60f6159c9db58835c9266440260801c5b6020821615613fc9576fff973b41fa98c081472e6896dfb254c00260801c5b6040821615613fe8576fff2ea16466c96a3843ec78b326b528610260801c5b6080821615614007576ffe5dee046a99a2a811c461f1969c30530260801c5b610100821615614027576ffcbe86c7900a88aedcffc83b479aa3a40260801c5b610200821615614047576ff987a7253ac413176f2b074cf7815e540260801c5b610400821615614067576ff3392b0822b70005940c7a398e4b70f30260801c5b610800821615614087576fe7159475a2c29b7443b29c7fa6e889d90260801c5b6110008216156140a7576fd097f3bdfd2022b8845ad8f792aa58250260801c5b6120008216156140c7576fa9f746462d870fdf8a65dc1f90e061e50260801c5b6140008216156140e7576f70d869a156d2a1b890bb3df62baf32f70260801c5b618000821615614107576f31be135f97d08fd981231505542fcfa60260801c5b62010000821615614128576f09aa508b5b7a84e1c677de54f3e99bc90260801c5b62020000821615614148576e5d6af8dedb81196699c329225ee6040260801c5b62040000821615614167576d2216e584f5fa1ea926041bedfe980260801c5b62080000821615614184576b048a170391f7dc42444e8fa20260801c5b60008460020b13156141a55780600019816141a1576141a16158a6565b0490505b6401000000008106156141b95760016141bc565b60005b60ff16602082901c0192505050919050565b6000808486116141f3576141ec6141e7858989876148d7565b614923565b9050614233565b868511614210576142096141e78589898761493e565b9150614233565b61421f6141e78587898761493e565b91506142306141e7858988876148d7565b90505b9550959350505050565b6001600160a01b0383166142985761429381609980546000838152609a60205260408120829055600182018355919091527f72a152ddfb8e864297c917af52ea6c1c68aead0fee1a62673fcc7e0c94979d000155565b6142bb565b816001600160a01b0316836001600160a01b0316146142bb576142bb838261498f565b6001600160a01b0382166142d257610c0d81614a2c565b826001600160a01b0316826001600160a01b031614610c0d57610c0d8282614adb565b600054610100900460ff166143605760405162461bcd60e51b815260206004820152602b60248201527f496e697469616c697a61626c653a20636f6e7472616374206973206e6f74206960448201526a6e697469616c697a696e6760a81b6064820152608401610abb565b611e4c8282614b1f565b600054610100900460ff166134d45760405162461bcd60e51b815260206004820152602b60248201527f496e697469616c697a61626c653a20636f6e7472616374206973206e6f74206960448201526a6e697469616c697a696e6760a81b6064820152608401610abb565b600054610100900460ff166144405760405162461bcd60e51b815260206004820152602b60248201527f496e697469616c697a61626c653a20636f6e7472616374206973206e6f74206960448201526a6e697469616c697a696e6760a81b6064820152608401610abb565b600160cf55565b6001600160a01b03821661449d5760405162461bcd60e51b815260206004820181905260248201527f4552433732313a206d696e7420746f20746865207a65726f20616464726573736044820152606401610abb565b6000818152606760205260409020546001600160a01b0316156145025760405162461bcd60e51b815260206004820152601c60248201527f4552433732313a20746f6b656e20616c7265616479206d696e746564000000006044820152606401610abb565b61450e6000838361423d565b6001600160a01b0382166000908152606860205260408120805460019290614537908490615815565b909155505060008181526067602052604080822080546001600160a01b0319166001600160a01b03861690811790915590518392907fddf252ad1be2c89b69c2b068fc378daa952ba7f163c4a11628f55a4df523b3ef908290a45050565b6040516001600160a01b03808516602483015283166044820152606481018290526115259085907f23b872dd00000000000000000000000000000000000000000000000000000000906084015b60408051601f198184030181529190526020810180517bffffffffffffffffffffffffffffffffffffffffffffffffffffffff166001600160e01b031990931692909217909152614bb1565b80614637575050565b610105546040517f205c28780000000000000000000000000000000000000000000000000000000081526001600160a01b038481166004830152602482018490526101009092049091169063205c287890604401600060405180830381600087803b1580156146a557600080fd5b505af115801561207a573d6000803e3d6000fd5b610c0d6001600160a01b0384168383614c96565b60006146d88261152b565b90506146e68160008461423d565b6146f1600083612805565b6001600160a01b038116600090815260686020526040812080546001929061471a908490615650565b909155505060008281526067602052604080822080546001600160a01b0319169055518391906001600160a01b038416907fddf252ad1be2c89b69c2b068fc378daa952ba7f163c4a11628f55a4df523b3ef908390a45050565b60006001600160a01b0384163b156148cc57604051630a85bd0160e11b81526001600160a01b0385169063150b7a02906147b89033908990889088906004016158bc565b602060405180830381600087803b1580156147d257600080fd5b505af1925050508015614802575060408051601f3d908101601f191682019092526147ff918101906158f8565b60015b6148b2573d808015614830576040519150601f19603f3d011682016040523d82523d6000602084013e614835565b606091505b5080516148aa5760405162461bcd60e51b815260206004820152603260248201527f4552433732313a207472616e7366657220746f206e6f6e20455243373231526560448201527f63656976657220696d706c656d656e74657200000000000000000000000000006064820152608401610abb565b805181602001fd5b6001600160e01b031916630a85bd0160e11b1490506131b0565b506001949350505050565b60008115614900576148f9858585036c01000000000000000000000000614cdf565b90506131b0565b61491a858585036c01000000000000000000000000613dce565b95945050505050565b806001600160801b038116811461493957600080fd5b919050565b60008115614966576148f961495a606087901b86860386614cdf565b85808204910615150190565b83614978606087901b82860386613dce565b81614985576149856158a6565b0495945050505050565b6000600161499c846115b6565b6149a69190615650565b6000838152609860205260409020549091508082146149f9576001600160a01b03841660009081526097602090815260408083208584528252808320548484528184208190558352609890915290208190555b5060009182526098602090815260408084208490556001600160a01b039094168352609781528383209183525290812055565b609954600090614a3e90600190615650565b6000838152609a602052604081205460998054939450909284908110614a6657614a6661563a565b906000526020600020015490508060998381548110614a8757614a8761563a565b6000918252602080832090910192909255828152609a90915260408082208490558582528120556099805480614abf57614abf615915565b6001900381819060005260206000200160009055905550505050565b6000614ae6836115b6565b6001600160a01b039093166000908152609760209081526040808320868452825280832085905593825260989052919091209190915550565b600054610100900460ff16614b8a5760405162461bcd60e51b815260206004820152602b60248201527f496e697469616c697a61626c653a20636f6e7472616374206973206e6f74206960448201526a6e697469616c697a696e6760a81b6064820152608401610abb565b8151614b9d906065906020850190614e30565b508051610c0d906066906020840190614e30565b6000614c06826040518060400160405280602081526020017f5361666545524332303a206c6f772d6c6576656c2063616c6c206661696c6564815250856001600160a01b0316614d1c9092919063ffffffff16565b805190915015610c0d5780806020019051810190614c249190615600565b610c0d5760405162461bcd60e51b815260206004820152602a60248201527f5361666545524332303a204552433230206f7065726174696f6e20646964206e60448201527f6f742073756363656564000000000000000000000000000000000000000000006064820152608401610abb565b6040516001600160a01b038316602482015260448101829052610c0d9084907fa9059cbb00000000000000000000000000000000000000000000000000000000906064016145e2565b6000614cec848484613dce565b90508180614cfc57614cfc6158a6565b83850915613e7b576000198110614d1257600080fd5b6001019392505050565b60606131b08484600085856001600160a01b0385163b614d7e5760405162461bcd60e51b815260206004820152601d60248201527f416464726573733a2063616c6c20746f206e6f6e2d636f6e74726163740000006044820152606401610abb565b600080866001600160a01b03168587604051614d9a919061592b565b60006040518083038185875af1925050503d8060008114614dd7576040519150601f19603f3d011682016040523d82523d6000602084013e614ddc565b606091505b5091509150614dec828286614df7565b979650505050505050565b60608315614e06575081613e7b565b825115614e165782518084602001fd5b8160405162461bcd60e51b8152600401610abb9190614f86565b828054614e3c90615587565b90600052602060002090601f016020900481019282614e5e5760008555614ea4565b82601f10614e7757805160ff1916838001178555614ea4565b82800160010185558215614ea4579182015b82811115614ea4578251825591602001919060010190614e89565b50614eb0929150614eb4565b5090565b5b80821115614eb05760008155600101614eb5565b6001600160a01b038116811461359a57600080fd5b600060208284031215614ef057600080fd5b8135613e7b81614ec9565b6001600160e01b03198116811461359a57600080fd5b600060208284031215614f2357600080fd5b8135613e7b81614efb565b60005b83811015614f49578181015183820152602001614f31565b838111156115255750506000910152565b60008151808452614f72816020860160208601614f2e565b601f01601f19169290920160200192915050565b602081526000613e7b6020830184614f5a565b600060208284031215614fab57600080fd5b5035919050565b60008060408385031215614fc557600080fd5b8235614fd081614ec9565b946020939093013593505050565b8060020b811461359a57600080fd5b80356001600160801b038116811461493957600080fd5b600080600080600080600080610100898b03121561502157600080fd5b883561502c81614ec9565b9750602089013561503c81614fde565b9650604089013561504c81614fde565b9550606089013561505c81614fde565b9450608089013561506c81614fde565b935061507a60a08a01614fed565b925060c0890135915060e089013590509295985092959890939650565b6000806000606084860312156150ac57600080fd5b83356150b781614ec9565b925060208401356150c781614ec9565b929592945050506040919091013590565b600080604083850312156150eb57600080fd5b82356150f681614ec9565b9150602083013561510681614ec9565b809150509250929050565b6000806000806080858703121561512757600080fd5b843561513281614ec9565b9350602085013561514281614ec9565b93969395505050506040820135916060013590565b803560ff8116811461493957600080fd5b60008060008060008060c0878903121561518157600080fd5b863561518c81614ec9565b955060208701359450604087013593506151a860608801615157565b92506080870135915060a087013590509295509295509295565b801515811461359a57600080fd5b6000806000606084860312156151e557600080fd5b8335925060208401356151f781614ec9565b91506040840135615207816151c2565b809150509250925092565b60008060008060008060c0878903121561522b57600080fd5b8635955061523b60208801614fed565b9450604087013561524b81614ec9565b9350606087013592506080870135915060a0870135615269816151c2565b809150509295509295509295565b6000806040838503121561528a57600080fd5b823561529581614ec9565b91506020830135615106816151c2565b60008060008060008060c087890312156152be57600080fd5b86356152c981614ec9565b955060208701356152d981614ec9565b9450604087013593506151a860608801615157565b6000806020838503121561530157600080fd5b823567ffffffffffffffff8082111561531957600080fd5b818501915085601f83011261532d57600080fd5b81358181111561533c57600080fd5b8660208260051b850101111561535157600080fd5b60209290920196919550909350505050565b6000602080830181845280855180835260408601915060408160051b870101925083870160005b828110156153b857603f198886030184526153a6858351614f5a565b9450928501929085019060010161538a565b5092979650505050505050565b60008060008060008060008060006101208a8c0312156153e457600080fd5b89356153ef81614ec9565b985060208a01356153ff81614fde565b975060408a013561540f81614fde565b965060608a013561541f81614fde565b955060808a013561542f81614fde565b945061543d60a08b01614fed565b935061544b60c08b01614fed565b925060e08a013591506101008a013590509295985092959850929598565b634e487b7160e01b600052604160045260246000fd5b604051601f8201601f1916810167ffffffffffffffff811182821017156154a8576154a8615469565b604052919050565b600067ffffffffffffffff8211156154ca576154ca615469565b50601f01601f191660200190565b600080600080608085870312156154ee57600080fd5b84356154f981614ec9565b9350602085013561550981614ec9565b925060408501359150606085013567ffffffffffffffff81111561552c57600080fd5b8501601f8101871361553d57600080fd5b803561555061554b826154b0565b61547f565b81815288602083850101111561556557600080fd5b8160208401602083013760006020838301015280935050505092959194509250565b600181811c9082168061559b57607f821691505b602082108114156155bc57634e487b7160e01b600052602260045260246000fd5b50919050565b634e487b7160e01b600052601160045260246000fd5b60006001600160801b03838116908316818110156155f8576155f86155c2565b039392505050565b60006020828403121561561257600080fd5b8151613e7b816151c2565b60006020828403121561562f57600080fd5b8151613e7b81614ec9565b634e487b7160e01b600052603260045260246000fd5b600082821015615662576156626155c2565b500390565b6000806040838503121561567a57600080fd5b505080516020909101519092909150565b6000808335601e198436030181126156a257600080fd5b83018035915067ffffffffffffffff8211156156bd57600080fd5b6020019150368190038213156156d257600080fd5b9250929050565b8183823760009101908152919050565b6000602082840312156156fb57600080fd5b815167ffffffffffffffff81111561571257600080fd5b8201601f8101841361572357600080fd5b805161573161554b826154b0565b81815285602083850101111561574657600080fd5b61491a826020830160208601614f2e565b600060001982141561576b5761576b6155c2565b5060010190565b60006020828403121561578457600080fd5b5051919050565b600080600080608085870312156157a157600080fd5b84516157ac81614fde565b60208601519094506157bd81614fde565b60408601519093506157ce81614fde565b60608601519092506157df81614fde565b939692955090935050565b60006001600160801b0380831681851680830382111561580c5761580c6155c2565b01949350505050565b60008219821115615828576158286155c2565b500190565b60006001600160801b0380831681811415614d1257614d126155c2565b60007f800000000000000000000000000000000000000000000000000000000000000082141561587c5761587c6155c2565b5060000390565b60008160020b627fffff1981141561589d5761589d6155c2565b60000392915050565b634e487b7160e01b600052601260045260246000fd5b60006001600160a01b038087168352808616602084015250836040830152608060608301526158ee6080830184614f5a565b9695505050505050565b60006020828403121561590a57600080fd5b8151613e7b81614efb565b634e487b7160e01b600052603160045260246000fd5b6000825161593d818460208701614f2e565b919091019291505056fea264697066735822122099680678ff0ba27442af2eaa33078210e88d9b352283d1a3b92b46d553ea006964736f6c63430008090033",
  "libraries": {
    "TickIndex": "0xd428F47575092b9DEe070f8d56dfa632AD790034"
  }
}