{
  "address": "0x5D4306489A7DeBE8173b52Bea98B30D6D5b59F11",
  "abi": [
    {
      "inputs": [],
      "name": "InvalidConfig",
      "type": "error"
    },
    {
      "inputs": [],
      "name": "InvalidToken",
      "type": "error"
    },
    {
      "inputs": [],
      "name": "UnauthorisedDeployer",
      "type": "error"
    },
    {
      "inputs": [],
      "name": "UnauthorisedManager",
      "type": "error"
    },
    {
      "inputs": [],
      "name": "WrongTokenOrder",
      "type": "error"
    },
    {
      "inputs": [],
      "name": "ZeroAddress",
      "type": "error"
    },
    {
      "anonymous": false,
      "inputs": [
        {
          "indexed": true,
          "internalType": "address",
          "name": "previousOwner",
          "type": "address"
        },
        {
          "indexed": true,
          "internalType": "address",
          "name": "newOwner",
          "type": "address"
        }
      ],
      "name": "OwnershipTransferred",
      "type": "event"
    },
    {
      "anonymous": false,
      "inputs": [
        {
          "indexed": false,
          "internalType": "address",
          "name": "previousImplementation",
          "type": "address"
        },
        {
          "indexed": false,
          "internalType": "address",
          "name": "newImplementation",
          "type": "address"
        }
      ],
      "name": "UpdatePoolImplementation",
      "type": "event"
    },
    {
      "inputs": [
        {
          "internalType": "bytes32",
          "name": "",
          "type": "bytes32"
        }
      ],
      "name": "availableConfigs",
      "outputs": [
        {
          "internalType": "bool",
          "name": "",
          "type": "bool"
        }
      ],
      "stateMutability": "view",
      "type": "function"
    },
    {
      "inputs": [
        {
          "internalType": "bytes32",
          "name": "",
          "type": "bytes32"
        }
      ],
      "name": "configAddress",
      "outputs": [
        {
          "internalType": "address",
          "name": "",
          "type": "address"
        }
      ],
      "stateMutability": "view",
      "type": "function"
    },
    {
      "inputs": [
        {
          "internalType": "bytes",
          "name": "_deployData",
          "type": "bytes"
        }
      ],
      "name": "deployPool",
      "outputs": [
        {
          "internalType": "address",
          "name": "pool",
          "type": "address"
        }
      ],
      "stateMutability": "nonpayable",
      "type": "function"
    },
    {
      "inputs": [
        {
          "internalType": "uint256",
          "name": "idx",
          "type": "uint256"
        }
      ],
      "name": "getPoolAddress",
      "outputs": [
        {
          "internalType": "address",
          "name": "pool",
          "type": "address"
        }
      ],
      "stateMutability": "view",
      "type": "function"
    },
    {
      "inputs": [
        {
          "internalType": "address",
          "name": "token0",
          "type": "address"
        },
        {
          "internalType": "address",
          "name": "token1",
          "type": "address"
        },
        {
          "internalType": "uint256",
          "name": "startIndex",
          "type": "uint256"
        },
        {
          "internalType": "uint256",
          "name": "count",
          "type": "uint256"
        }
      ],
      "name": "getPools",
      "outputs": [
        {
          "internalType": "address[]",
          "name": "pairPools",
          "type": "address[]"
        }
      ],
      "stateMutability": "view",
      "type": "function"
    },
    {
      "inputs": [
        {
          "internalType": "address",
          "name": "_implementation",
          "type": "address"
        },
        {
          "internalType": "address",
          "name": "_masterDeployer",
          "type": "address"
        },
        {
          "internalType": "address",
          "name": "_poolLogger",
          "type": "address"
        }
      ],
      "name": "initialize",
      "outputs": [],
      "stateMutability": "nonpayable",
      "type": "function"
    },
    {
      "inputs": [
        {
          "internalType": "address",
          "name": "",
          "type": "address"
        }
      ],
      "name": "isPool",
      "outputs": [
        {
          "internalType": "bool",
          "name": "",
          "type": "bool"
        }
      ],
      "stateMutability": "view",
      "type": "function"
    },
    {
      "inputs": [],
      "name": "manager",
      "outputs": [
        {
          "internalType": "address",
          "name": "",
          "type": "address"
        }
      ],
      "stateMutability": "view",
      "type": "function"
    },
    {
      "inputs": [],
      "name": "masterDeployer",
      "outputs": [
        {
          "internalType": "address",
          "name": "",
          "type": "address"
        }
      ],
      "stateMutability": "view",
      "type": "function"
    },
    {
      "inputs": [],
      "name": "owner",
      "outputs": [
        {
          "internalType": "address",
          "name": "",
          "type": "address"
        }
      ],
      "stateMutability": "view",
      "type": "function"
    },
    {
      "inputs": [],
      "name": "poolLogger",
      "outputs": [
        {
          "internalType": "address",
          "name": "",
          "type": "address"
        }
      ],
      "stateMutability": "view",
      "type": "function"
    },
    {
      "inputs": [
        {
          "internalType": "address",
          "name": "",
          "type": "address"
        },
        {
          "internalType": "address",
          "name": "",
          "type": "address"
        },
        {
          "internalType": "uint256",
          "name": "",
          "type": "uint256"
        }
      ],
      "name": "pools",
      "outputs": [
        {
          "internalType": "address",
          "name": "",
          "type": "address"
        }
      ],
      "stateMutability": "view",
      "type": "function"
    },
    {
      "inputs": [
        {
          "internalType": "address",
          "name": "token0",
          "type": "address"
        },
        {
          "internalType": "address",
          "name": "token1",
          "type": "address"
        }
      ],
      "name": "poolsCount",
      "outputs": [
        {
          "internalType": "uint256",
          "name": "count",
          "type": "uint256"
        }
      ],
      "stateMutability": "view",
      "type": "function"
    },
    {
      "inputs": [],
      "name": "renounceOwnership",
      "outputs": [],
      "stateMutability": "nonpayable",
      "type": "function"
    },
    {
      "inputs": [
        {
          "internalType": "address",
          "name": "tokenA",
          "type": "address"
        },
        {
          "internalType": "address",
          "name": "tokenB",
          "type": "address"
        },
        {
          "internalType": "address",
          "name": "rewardToken",
          "type": "address"
        },
        {
          "internalType": "uint24",
          "name": "swapFee",
          "type": "uint24"
        },
        {
          "internalType": "uint24",
          "name": "tickSpacing",
          "type": "uint24"
        }
      ],
      "name": "setAvailableParameter",
      "outputs": [],
      "stateMutability": "nonpayable",
      "type": "function"
    },
    {
      "inputs": [
        {
          "internalType": "address",
          "name": "_manager",
          "type": "address"
        }
      ],
      "name": "setManager",
      "outputs": [],
      "stateMutability": "nonpayable",
      "type": "function"
    },
    {
      "inputs": [
        {
          "internalType": "address",
          "name": "nextImplementation",
          "type": "address"
        }
      ],
      "name": "setPoolImplementation",
      "outputs": [],
      "stateMutability": "nonpayable",
      "type": "function"
    },
    {
      "inputs": [],
      "name": "totalPoolsCount",
      "outputs": [
        {
          "internalType": "uint256",
          "name": "total",
          "type": "uint256"
        }
      ],
      "stateMutability": "view",
      "type": "function"
    },
    {
      "inputs": [
        {
          "internalType": "address",
          "name": "newOwner",
          "type": "address"
        }
      ],
      "name": "transferOwnership",
      "outputs": [],
      "stateMutability": "nonpayable",
      "type": "function"
    },
    {
      "inputs": [
        {
          "internalType": "address[]",
          "name": "_pools",
          "type": "address[]"
        }
      ],
      "name": "upgradePools",
      "outputs": [],
      "stateMutability": "nonpayable",
      "type": "function"
    },
    {
      "inputs": [
        {
          "internalType": "address[]",
          "name": "_pools",
          "type": "address[]"
        },
        {
          "internalType": "bytes[]",
          "name": "datas",
          "type": "bytes[]"
        }
      ],
      "name": "upgradePoolsAndCall",
      "outputs": [],
      "stateMutability": "nonpayable",
      "type": "function"
    }
  ],
  "transactionHash": "0x1ed12148601a31171239e5bf3b32a563a17c2a77060b84b0fbf90f02affe37ce",
  "args": [],
  "numDeployments": 1,
  "solcInputHash": "13a5e0c28ca5746d6d7345136ccdd5a1",
  "bytecode": "0x608060405234801561001057600080fd5b50612c0e806100206000396000f3fe60806040523480156200001157600080fd5b5060043610620001945760003560e01c8063715018a611620000e9578063ca4dc9051162000097578063d6f74898116200006e578063d6f7489814620003e8578063f2fde38b14620003ff578063f6ab6d99146200041657600080fd5b8063ca4dc9051462000399578063cf58879a14620003b0578063d0ebdbe714620003d157600080fd5b80638da5cb5b11620000cc5780638da5cb5b146200033d578063c0bf3c9c146200035c578063c0c53b8b146200038257600080fd5b8063715018a6146200030d57806371a25812146200031757600080fd5b8063481c6a751162000147578063566a89af116200012a578063566a89af146200027a5780635b16ebb7146200028d5780635bc93d6c14620002c457600080fd5b8063481c6a75146200023857806356088ff1146200025957600080fd5b8063169c4cef116200017c578063169c4cef14620001f357806327c3cae1146200020a57806340aee041146200022157600080fd5b8062a5ae2114620001995780630dfc574b14620001da575b600080fd5b620001b0620001aa36600462001724565b6200044f565b60405173ffffffffffffffffffffffffffffffffffffffff90911681526020015b60405180910390f35b620001f1620001eb36600462001876565b6200048f565b005b620001b06200020436600462001918565b6200064d565b620001b06200021b3660046200195e565b620006a0565b620001f16200023236600462001a1a565b62000b1c565b606754620001b09073ffffffffffffffffffffffffffffffffffffffff1681565b606654620001b09073ffffffffffffffffffffffffffffffffffffffff1681565b606d545b604051908152602001620001d1565b620002b36200029e36600462001a5b565b606c6020526000908152604090205460ff1681565b6040519015158152602001620001d1565b6200027e620002d536600462001a82565b73ffffffffffffffffffffffffffffffffffffffff918216600090815260696020908152604080832093909416825291909152205490565b620001f162000c53565b6200032e6200032836600462001ac0565b62000ce4565b604051620001d1919062001b0b565b60335473ffffffffffffffffffffffffffffffffffffffff16620001b0565b620002b36200036d36600462001724565b606b6020526000908152604090205460ff1681565b620001f16200039336600462001b67565b62000e0f565b620001f1620003aa36600462001bcb565b620010b4565b606554620001b09073ffffffffffffffffffffffffffffffffffffffff1681565b620001f1620003e236600462001a5b565b620012a2565b620001f1620003f936600462001a5b565b6200133b565b620001f16200041036600462001a5b565b62001428565b620001b06200042736600462001724565b606a6020526000908152604090205473ffffffffffffffffffffffffffffffffffffffff1681565b6000606d828154811062000467576200046762001c47565b60009182526020909120015473ffffffffffffffffffffffffffffffffffffffff1692915050565b60675473ffffffffffffffffffffffffffffffffffffffff163314620004e1576040517f3d83907a00000000000000000000000000000000000000000000000000000000815260040160405180910390fd5b606854835173ffffffffffffffffffffffffffffffffffffffff9091169082146200056d576040517f08c379a000000000000000000000000000000000000000000000000000000000815260206004820152601860248201527f6d69736d61746368696e67206172726179206c656e677468000000000000000060448201526064015b60405180910390fd5b60005b845181101562000646578481815181106200058f576200058f62001c47565b602002602001015173ffffffffffffffffffffffffffffffffffffffff16634f1ef28683868685818110620005c857620005c862001c47565b9050602002810190620005dc919062001c76565b6040518463ffffffff1660e01b8152600401620005fc9392919062001ce5565b600060405180830381600087803b1580156200061757600080fd5b505af11580156200062c573d6000803e3d6000fd5b5050505080806200063d9062001d7e565b91505062000570565b5050505050565b606960205282600052604060002060205281600052604060002081815481106200067657600080fd5b60009182526020909120015473ffffffffffffffffffffffffffffffffffffffff16925083915050565b60655460009073ffffffffffffffffffffffffffffffffffffffff163314620006f5576040517f03781a5300000000000000000000000000000000000000000000000000000000815260040160405180910390fd5b6000806000806000808780602001905181019062000714919062001dba565b6040805173ffffffffffffffffffffffffffffffffffffffff808916602083015280881692820192909252908516606082015262ffffff8085166080830152821660a0820152959b5093995091975095509350915060c001604080517fffffffffffffffffffffffffffffffffffffffffffffffffffffffffffffffe081840301815291815281516020808401919091206000818152606b909252919020549199509060ff16620007f1576040517f35be3ac800000000000000000000000000000000000000000000000000000000815260040160405180910390fd5b606854604051829173ffffffffffffffffffffffffffffffffffffffff169030906200081d9062001716565b73ffffffffffffffffffffffffffffffffffffffff9283168152911660208201526060604082018190526000908201526080018190604051809103906000f590508015801562000871573d6000803e3d6000fd5b506065546040517fcce2df0300000000000000000000000000000000000000000000000000000000815291995073ffffffffffffffffffffffffffffffffffffffff808b169263cce2df0392620008d0928e9291169060040162001e4e565b600060405180830381600087803b158015620008eb57600080fd5b505af115801562000900573d6000803e3d6000fd5b5050506000828152606a60209081526040808320805473ffffffffffffffffffffffffffffffffffffffff8e81167fffffffffffffffffffffffff000000000000000000000000000000000000000092831681179093558d811680875260698087528588208f8416808a52908852868920805460018181018355918b52898b2001805487168817905590895290875285882091885290865284872080548083018255908852868820018054841685179055838752606c90955283862080547fffffffffffffffffffffffffffffffffffffffffffffffffffffffffffffff001686179055606d805495860181559095527f5006b838207c6a9ae9b84d68f467dd4bb5c305fbfb6b04eab8faaabeec1e18d890930180549093168117909255517fd90bda4e0000000000000000000000000000000000000000000000000000000081529186166004830152915063d90bda4e90602401600060405180830381600087803b15801562000a7057600080fd5b505af115801562000a85573d6000803e3d6000fd5b50506066546040517fbd7d1eea00000000000000000000000000000000000000000000000000000000815273ffffffffffffffffffffffffffffffffffffffff9182166004820152908b16925063bd7d1eea9150602401600060405180830381600087803b15801562000af757600080fd5b505af115801562000b0c573d6000803e3d6000fd5b5050505050505050505050919050565b60675473ffffffffffffffffffffffffffffffffffffffff16331462000b6e576040517f3d83907a00000000000000000000000000000000000000000000000000000000815260040160405180910390fd5b60685473ffffffffffffffffffffffffffffffffffffffff1660005b825181101562000c4e5782818151811062000ba95762000ba962001c47565b60209081029190910101516040517f3659cfe600000000000000000000000000000000000000000000000000000000815273ffffffffffffffffffffffffffffffffffffffff848116600483015290911690633659cfe690602401600060405180830381600087803b15801562000c1f57600080fd5b505af115801562000c34573d6000803e3d6000fd5b50505050808062000c459062001d7e565b91505062000b8a565b505050565b60335473ffffffffffffffffffffffffffffffffffffffff16331462000cd6576040517f08c379a000000000000000000000000000000000000000000000000000000000815260206004820181905260248201527f4f776e61626c653a2063616c6c6572206973206e6f7420746865206f776e6572604482015260640162000564565b62000ce260006200155e565b565b60608167ffffffffffffffff81111562000d025762000d026200173e565b60405190808252806020026020018201604052801562000d2c578160200160208202803683370190505b50905060005b8281101562000e065773ffffffffffffffffffffffffffffffffffffffff808716600090815260696020908152604080832093891683529290522062000d79828662001ee2565b8154811062000d8c5762000d8c62001c47565b9060005260206000200160009054906101000a900473ffffffffffffffffffffffffffffffffffffffff1682828151811062000dcc5762000dcc62001c47565b73ffffffffffffffffffffffffffffffffffffffff909216602092830291909101909101528062000dfd8162001d7e565b91505062000d32565b50949350505050565b600054610100900460ff1662000e2c5760005460ff161562000e30565b303b155b62000ebe576040517f08c379a000000000000000000000000000000000000000000000000000000000815260206004820152602e60248201527f496e697469616c697a61626c653a20636f6e747261637420697320616c72656160448201527f647920696e697469616c697a6564000000000000000000000000000000000000606482015260840162000564565b600054610100900460ff1615801562000efe57600080547fffffffffffffffffffffffffffffffffffffffffffffffffffffffffffff0000166101011790555b73ffffffffffffffffffffffffffffffffffffffff841662000f4c576040517fd92e233d00000000000000000000000000000000000000000000000000000000815260040160405180910390fd5b73ffffffffffffffffffffffffffffffffffffffff831662000f9a576040517fd92e233d00000000000000000000000000000000000000000000000000000000815260040160405180910390fd5b73ffffffffffffffffffffffffffffffffffffffff821662000fe8576040517fd92e233d00000000000000000000000000000000000000000000000000000000815260040160405180910390fd5b6068805473ffffffffffffffffffffffffffffffffffffffff8087167fffffffffffffffffffffffff00000000000000000000000000000000000000009283161790925560658054868416908316179055606680549285169290911691909117905562001054620015d5565b606780547fffffffffffffffffffffffff000000000000000000000000000000000000000016331790558015620010ae57600080547fffffffffffffffffffffffffffffffffffffffffffffffffffffffffffff00ff1690555b50505050565b60675473ffffffffffffffffffffffffffffffffffffffff16331462001106576040517f3d83907a00000000000000000000000000000000000000000000000000000000815260040160405180910390fd5b8373ffffffffffffffffffffffffffffffffffffffff168573ffffffffffffffffffffffffffffffffffffffff16106200116c576040517f30082a1600000000000000000000000000000000000000000000000000000000815260040160405180910390fd5b8273ffffffffffffffffffffffffffffffffffffffff168573ffffffffffffffffffffffffffffffffffffffff161480620011d257508273ffffffffffffffffffffffffffffffffffffffff168473ffffffffffffffffffffffffffffffffffffffff16145b156200120a576040517fc1ab6dc100000000000000000000000000000000000000000000000000000000815260040160405180910390fd5b6040805173ffffffffffffffffffffffffffffffffffffffff9687166020808301919091529587168183015293909516606084015262ffffff91821660808401521660a0808301919091528351808303909101815260c090910183528051908201206000908152606b9091522080547fffffffffffffffffffffffffffffffffffffffffffffffffffffffffffffff00166001179055565b60675473ffffffffffffffffffffffffffffffffffffffff163314620012f4576040517f3d83907a00000000000000000000000000000000000000000000000000000000815260040160405180910390fd5b606780547fffffffffffffffffffffffff00000000000000000000000000000000000000001673ffffffffffffffffffffffffffffffffffffffff92909216919091179055565b60675473ffffffffffffffffffffffffffffffffffffffff1633146200138d576040517f3d83907a00000000000000000000000000000000000000000000000000000000815260040160405180910390fd5b6068546040805173ffffffffffffffffffffffffffffffffffffffff928316815291831660208301527f0617fd31aa5ab95ec80eefc1eb61a2c477aa419d1d761b4e46f5f077e47852aa910160405180910390a1606880547fffffffffffffffffffffffff00000000000000000000000000000000000000001673ffffffffffffffffffffffffffffffffffffffff92909216919091179055565b60335473ffffffffffffffffffffffffffffffffffffffff163314620014ab576040517f08c379a000000000000000000000000000000000000000000000000000000000815260206004820181905260248201527f4f776e61626c653a2063616c6c6572206973206e6f7420746865206f776e6572604482015260640162000564565b73ffffffffffffffffffffffffffffffffffffffff811662001550576040517f08c379a000000000000000000000000000000000000000000000000000000000815260206004820152602660248201527f4f776e61626c653a206e6577206f776e657220697320746865207a65726f206160448201527f6464726573730000000000000000000000000000000000000000000000000000606482015260840162000564565b6200155b816200155e565b50565b6033805473ffffffffffffffffffffffffffffffffffffffff8381167fffffffffffffffffffffffff0000000000000000000000000000000000000000831681179093556040519116919082907f8be0079c531659141344cd1fd0a4f28419497f9722a3daafe3b4186f6b6457e090600090a35050565b600054610100900460ff166200166e576040517f08c379a000000000000000000000000000000000000000000000000000000000815260206004820152602b60248201527f496e697469616c697a61626c653a20636f6e7472616374206973206e6f74206960448201527f6e697469616c697a696e67000000000000000000000000000000000000000000606482015260840162000564565b62000ce2600054610100900460ff166200170b576040517f08c379a000000000000000000000000000000000000000000000000000000000815260206004820152602b60248201527f496e697469616c697a61626c653a20636f6e7472616374206973206e6f74206960448201527f6e697469616c697a696e67000000000000000000000000000000000000000000606482015260840162000564565b62000ce2336200155e565b610cdb8062001efe83390190565b6000602082840312156200173757600080fd5b5035919050565b7f4e487b7100000000000000000000000000000000000000000000000000000000600052604160045260246000fd5b604051601f82017fffffffffffffffffffffffffffffffffffffffffffffffffffffffffffffffe016810167ffffffffffffffff81118282101715620017b757620017b76200173e565b604052919050565b73ffffffffffffffffffffffffffffffffffffffff811681146200155b57600080fd5b600082601f830112620017f457600080fd5b8135602067ffffffffffffffff8211156200181357620018136200173e565b8160051b620018248282016200176d565b92835284810182019282810190878511156200183f57600080fd5b83870192505b848310156200186b5782356200185b81620017bf565b8252918301919083019062001845565b979650505050505050565b6000806000604084860312156200188c57600080fd5b833567ffffffffffffffff80821115620018a557600080fd5b620018b387838801620017e2565b94506020860135915080821115620018ca57600080fd5b818601915086601f830112620018df57600080fd5b813581811115620018ef57600080fd5b8760208260051b85010111156200190557600080fd5b6020830194508093505050509250925092565b6000806000606084860312156200192e57600080fd5b83356200193b81620017bf565b925060208401356200194d81620017bf565b929592945050506040919091013590565b600060208083850312156200197257600080fd5b823567ffffffffffffffff808211156200198b57600080fd5b818501915085601f830112620019a057600080fd5b813581811115620019b557620019b56200173e565b620019e7847fffffffffffffffffffffffffffffffffffffffffffffffffffffffffffffffe0601f840116016200176d565b91508082528684828501011115620019fe57600080fd5b8084840185840137600090820190930192909252509392505050565b60006020828403121562001a2d57600080fd5b813567ffffffffffffffff81111562001a4557600080fd5b62001a5384828501620017e2565b949350505050565b60006020828403121562001a6e57600080fd5b813562001a7b81620017bf565b9392505050565b6000806040838503121562001a9657600080fd5b823562001aa381620017bf565b9150602083013562001ab581620017bf565b809150509250929050565b6000806000806080858703121562001ad757600080fd5b843562001ae481620017bf565b9350602085013562001af681620017bf565b93969395505050506040820135916060013590565b6020808252825182820181905260009190848201906040850190845b8181101562001b5b57835173ffffffffffffffffffffffffffffffffffffffff168352928401929184019160010162001b27565b50909695505050505050565b60008060006060848603121562001b7d57600080fd5b833562001b8a81620017bf565b9250602084013562001b9c81620017bf565b9150604084013562001bae81620017bf565b809150509250925092565b62ffffff811681146200155b57600080fd5b600080600080600060a0868803121562001be457600080fd5b853562001bf181620017bf565b9450602086013562001c0381620017bf565b9350604086013562001c1581620017bf565b9250606086013562001c278162001bb9565b9150608086013562001c398162001bb9565b809150509295509295909350565b7f4e487b7100000000000000000000000000000000000000000000000000000000600052603260045260246000fd5b60008083357fffffffffffffffffffffffffffffffffffffffffffffffffffffffffffffffe184360301811262001cac57600080fd5b83018035915067ffffffffffffffff82111562001cc857600080fd5b60200191503681900382131562001cde57600080fd5b9250929050565b73ffffffffffffffffffffffffffffffffffffffff8416815260406020820152816040820152818360608301376000818301606090810191909152601f9092017fffffffffffffffffffffffffffffffffffffffffffffffffffffffffffffffe016010192915050565b7f4e487b7100000000000000000000000000000000000000000000000000000000600052601160045260246000fd5b60007fffffffffffffffffffffffffffffffffffffffffffffffffffffffffffffffff82141562001db35762001db362001d4f565b5060010190565b60008060008060008060c0878903121562001dd457600080fd5b865162001de181620017bf565b602088015190965062001df481620017bf565b604088015190955062001e0781620017bf565b606088015190945062001e1a8162001bb9565b608088015190935062001e2d81620017bf565b60a088015190925062001e408162001bb9565b809150509295509295509295565b604081526000835180604084015260005b8181101562001e7e576020818701810151606086840101520162001e5f565b8181111562001e91576000606083860101525b5073ffffffffffffffffffffffffffffffffffffffff93909316602083015250601f919091017fffffffffffffffffffffffffffffffffffffffffffffffffffffffffffffffe01601606001919050565b6000821982111562001ef85762001ef862001d4f565b50019056fe608060405260405162000cdb38038062000cdb8339810160408190526200002691620001fc565b62000032838262000046565b6200003d8262000128565b505050620002fa565b7f360894a13ba1a3210667c828492db98dca3e2076cc3735a920a3ca505d382bbc8054908390556040516001600160a01b0380851691908316907f5570d70a002632a7b0b3c9304cc89efb62d8da9eca0dbd7752c83b737906829690600090a381511562000123576000836001600160a01b031683604051620000ca9190620002dc565b600060405180830381855af49150503d806000811462000107576040519150601f19603f3d011682016040523d82523d6000602084013e6200010c565b606091505b505090508062000121573d806000803e806000fd5b505b505050565b60006200014260008051602062000cbb8339815191525490565b90508160008051602062000cbb83398151915255816001600160a01b0316816001600160a01b03167fdf435d422321da6b195902d70fc417c06a32f88379c20dd8f2a8da07088cec2960405160405180910390a35050565b80516001600160a01b0381168114620001b257600080fd5b919050565b634e487b7160e01b600052604160045260246000fd5b60005b83811015620001ea578181015183820152602001620001d0565b83811115620001215750506000910152565b6000806000606084860312156200021257600080fd5b6200021d846200019a565b92506200022d602085016200019a565b60408501519092506001600160401b03808211156200024b57600080fd5b818601915086601f8301126200026057600080fd5b815181811115620002755762000275620001b7565b604051601f8201601f19908116603f01168101908382118183101715620002a057620002a0620001b7565b81604052828152896020848701011115620002ba57600080fd5b620002cd836020830160208801620001cd565b80955050505050509250925092565b60008251620002f0818460208701620001cd565b9190910192915050565b6109b1806200030a6000396000f3fe60806040526004361061005e5760003560e01c80633e47158c116100435780633e47158c146101295780634f1ef286146101635780638356ca4f14610176576100ca565b806301ffc9a7146100d45780633659cfe614610109576100ca565b366100ca576040517f08c379a000000000000000000000000000000000000000000000000000000000815260206004820152600e60248201527f45544845525f52454a454354454400000000000000000000000000000000000060448201526064015b60405180910390fd5b6100d2610196565b005b3480156100e057600080fd5b506100f46100ef366004610815565b6101e1565b60405190151581526020015b60405180910390f35b34801561011557600080fd5b506100d2610124366004610880565b6103be565b34801561013557600080fd5b5061013e610490565b60405173ffffffffffffffffffffffffffffffffffffffff9091168152602001610100565b6100d261017136600461089b565b6104bf565b34801561018257600080fd5b506100d2610191366004610880565b6105ba565b7f360894a13ba1a3210667c828492db98dca3e2076cc3735a920a3ca505d382bbc5460003681823780813683855af491503d8082833e8280156101d7578183f35b8183fd5b50505050565b60007f01ffc9a7000000000000000000000000000000000000000000000000000000007fffffffff000000000000000000000000000000000000000000000000000000008316148061027457507f7f5828d0000000000000000000000000000000000000000000000000000000007fffffffff000000000000000000000000000000000000000000000000000000008316145b1561028157506001919050565b7fffffffff0000000000000000000000000000000000000000000000000000000080831614156102b357506000919050565b7f360894a13ba1a3210667c828492db98dca3e2076cc3735a920a3ca505d382bbc546040517f01ffc9a70000000000000000000000000000000000000000000000000000000081527fffffffff000000000000000000000000000000000000000000000000000000008416600482015273ffffffffffffffffffffffffffffffffffffffff8216906301ffc9a79060240160206040518083038186803b15801561035c57600080fd5b505afa9250505080156103aa575060408051601f3d9081017fffffffffffffffffffffffffffffffffffffffffffffffffffffffffffffffe01682019092526103a79181019061091e565b60015b6103b75750600092915050565b9392505050565b7fb53127684a568b3173ae13b9f8a6016e243e63b6e8ee1178d6a717850b5d61035473ffffffffffffffffffffffffffffffffffffffff163373ffffffffffffffffffffffffffffffffffffffff1614610474576040517f08c379a000000000000000000000000000000000000000000000000000000000815260206004820152600e60248201527f4e4f545f415554484f52495a454400000000000000000000000000000000000060448201526064016100c1565b61048d8160405180602001604052806000815250610679565b50565b60006104ba7fb53127684a568b3173ae13b9f8a6016e243e63b6e8ee1178d6a717850b5d61035490565b905090565b7fb53127684a568b3173ae13b9f8a6016e243e63b6e8ee1178d6a717850b5d61035473ffffffffffffffffffffffffffffffffffffffff163373ffffffffffffffffffffffffffffffffffffffff1614610575576040517f08c379a000000000000000000000000000000000000000000000000000000000815260206004820152600e60248201527f4e4f545f415554484f52495a454400000000000000000000000000000000000060448201526064016100c1565b6105b58383838080601f01602080910402602001604051908101604052809392919081815260200183838082843760009201919091525061067992505050565b505050565b7fb53127684a568b3173ae13b9f8a6016e243e63b6e8ee1178d6a717850b5d61035473ffffffffffffffffffffffffffffffffffffffff163373ffffffffffffffffffffffffffffffffffffffff1614610670576040517f08c379a000000000000000000000000000000000000000000000000000000000815260206004820152600e60248201527f4e4f545f415554484f52495a454400000000000000000000000000000000000060448201526064016100c1565b61048d81610768565b7f360894a13ba1a3210667c828492db98dca3e2076cc3735a920a3ca505d382bbc80549083905560405173ffffffffffffffffffffffffffffffffffffffff80851691908316907f5570d70a002632a7b0b3c9304cc89efb62d8da9eca0dbd7752c83b737906829690600090a38151156105b55760008373ffffffffffffffffffffffffffffffffffffffff16836040516107149190610940565b600060405180830381855af49150503d806000811461074f576040519150601f19603f3d011682016040523d82523d6000602084013e610754565b606091505b50509050806101db573d806000803e806000fd5b60006107927fb53127684a568b3173ae13b9f8a6016e243e63b6e8ee1178d6a717850b5d61035490565b9050817fb53127684a568b3173ae13b9f8a6016e243e63b6e8ee1178d6a717850b5d6103558173ffffffffffffffffffffffffffffffffffffffff168173ffffffffffffffffffffffffffffffffffffffff167fdf435d422321da6b195902d70fc417c06a32f88379c20dd8f2a8da07088cec2960405160405180910390a35050565b60006020828403121561082757600080fd5b81357fffffffff00000000000000000000000000000000000000000000000000000000811681146103b757600080fd5b803573ffffffffffffffffffffffffffffffffffffffff8116811461087b57600080fd5b919050565b60006020828403121561089257600080fd5b6103b782610857565b6000806000604084860312156108b057600080fd5b6108b984610857565b9250602084013567ffffffffffffffff808211156108d657600080fd5b818601915086601f8301126108ea57600080fd5b8135818111156108f957600080fd5b87602082850101111561090b57600080fd5b6020830194508093505050509250925092565b60006020828403121561093057600080fd5b815180151581146103b757600080fd5b6000825160005b818110156109615760208186018101518583015201610947565b81811115610970576000828501525b50919091019291505056fea264697066735822122019846b818905f19cf9f76c0f6411110044bf7b9b8119d6fa8244558de2f8f03664736f6c63430008090033b53127684a568b3173ae13b9f8a6016e243e63b6e8ee1178d6a717850b5d6103a2646970667358221220d40df1518769a6a642e45b1d293aa9cbd0bf88b357de7cacecd13e5b0c6162e364736f6c63430008090033",
  "devdoc": {
    "kind": "dev",
    "methods": {
      "owner()": {
        "details": "Returns the address of the current owner."
      },
      "renounceOwnership()": {
        "details": "Leaves the contract without owner. It will not be possible to call `onlyOwner` functions anymore. Can only be called by the current owner. NOTE: Renouncing ownership will leave the contract without an owner, thereby removing any functionality that is only available to the owner."
      },
      "transferOwnership(address)": {
        "details": "Transfers ownership of the contract to a new account (`newOwner`). Can only be called by the current owner."
      }
    },
    "stateVariables": {
      "configAddress": {
        "params": {
          "data": "abi.encode(address tokenA, address tokenB, uint24 swapFee, uint24 tickSpacing);"
        }
      }
    },
    "version": 1
  },
  "userdoc": {
    "kind": "user",
    "methods": {
      "configAddress(bytes32)": {
        "notice": "Return the address of the pool created with the given config data"
      },
      "getPoolAddress(uint256)": {
        "notice": "Return the address of pool by index"
      },
      "getPools(address,address,uint256,uint256)": {
        "notice": "Return the list of pools composed of two tokens"
      },
      "isPool(address)": {
        "notice": "Return whether the pool is created by the factory"
      },
      "poolsCount(address,address)": {
        "notice": "Return the number of pools composed of two tokens"
      },
      "totalPoolsCount()": {
        "notice": "Return the number of pools deployed from factory"
      }
    },
    "notice": "Contract for deploying Reward Liquidity Pool",
    "version": 1
  },
  "storageLayout": {
    "storage": [
      {
        "astId": 130,
        "contract": "contracts/custom/miningPool/MiningPoolFactory.sol:MiningPoolFactory",
        "label": "_initialized",
        "offset": 0,
        "slot": "0",
        "type": "t_bool"
      },
      {
        "astId": 133,
        "contract": "contracts/custom/miningPool/MiningPoolFactory.sol:MiningPoolFactory",
        "label": "_initializing",
        "offset": 1,
        "slot": "0",
        "type": "t_bool"
      },
      {
        "astId": 1981,
        "contract": "contracts/custom/miningPool/MiningPoolFactory.sol:MiningPoolFactory",
        "label": "__gap",
        "offset": 0,
        "slot": "1",
        "type": "t_array(t_uint256)50_storage"
      },
      {
        "astId": 10,
        "contract": "contracts/custom/miningPool/MiningPoolFactory.sol:MiningPoolFactory",
        "label": "_owner",
        "offset": 0,
        "slot": "51",
        "type": "t_address"
      },
      {
        "astId": 122,
        "contract": "contracts/custom/miningPool/MiningPoolFactory.sol:MiningPoolFactory",
        "label": "__gap",
        "offset": 0,
        "slot": "52",
        "type": "t_array(t_uint256)49_storage"
      },
      {
        "astId": 4266,
        "contract": "contracts/custom/miningPool/MiningPoolFactory.sol:MiningPoolFactory",
        "label": "masterDeployer",
        "offset": 0,
        "slot": "101",
        "type": "t_address"
      },
      {
        "astId": 4268,
        "contract": "contracts/custom/miningPool/MiningPoolFactory.sol:MiningPoolFactory",
        "label": "poolLogger",
        "offset": 0,
        "slot": "102",
        "type": "t_address"
      },
      {
        "astId": 4270,
        "contract": "contracts/custom/miningPool/MiningPoolFactory.sol:MiningPoolFactory",
        "label": "manager",
        "offset": 0,
        "slot": "103",
        "type": "t_address"
      },
      {
        "astId": 4272,
        "contract": "contracts/custom/miningPool/MiningPoolFactory.sol:MiningPoolFactory",
        "label": "poolImplementation",
        "offset": 0,
        "slot": "104",
        "type": "t_address"
      },
      {
        "astId": 4279,
        "contract": "contracts/custom/miningPool/MiningPoolFactory.sol:MiningPoolFactory",
        "label": "pools",
        "offset": 0,
        "slot": "105",
        "type": "t_mapping(t_address,t_mapping(t_address,t_array(t_address)dyn_storage))"
      },
      {
        "astId": 4283,
        "contract": "contracts/custom/miningPool/MiningPoolFactory.sol:MiningPoolFactory",
        "label": "configAddress",
        "offset": 0,
        "slot": "106",
        "type": "t_mapping(t_bytes32,t_address)"
      },
      {
        "astId": 4287,
        "contract": "contracts/custom/miningPool/MiningPoolFactory.sol:MiningPoolFactory",
        "label": "availableConfigs",
        "offset": 0,
        "slot": "107",
        "type": "t_mapping(t_bytes32,t_bool)"
      },
      {
        "astId": 4291,
        "contract": "contracts/custom/miningPool/MiningPoolFactory.sol:MiningPoolFactory",
        "label": "isPool",
        "offset": 0,
        "slot": "108",
        "type": "t_mapping(t_address,t_bool)"
      },
      {
        "astId": 4294,
        "contract": "contracts/custom/miningPool/MiningPoolFactory.sol:MiningPoolFactory",
        "label": "poolArray",
        "offset": 0,
        "slot": "109",
        "type": "t_array(t_address)dyn_storage"
      }
    ],
    "types": {
      "t_address": {
        "encoding": "inplace",
        "label": "address",
        "numberOfBytes": "20"
      },
      "t_array(t_address)dyn_storage": {
        "base": "t_address",
        "encoding": "dynamic_array",
        "label": "address[]",
        "numberOfBytes": "32"
      },
      "t_array(t_uint256)49_storage": {
        "base": "t_uint256",
        "encoding": "inplace",
        "label": "uint256[49]",
        "numberOfBytes": "1568"
      },
      "t_array(t_uint256)50_storage": {
        "base": "t_uint256",
        "encoding": "inplace",
        "label": "uint256[50]",
        "numberOfBytes": "1600"
      },
      "t_bool": {
        "encoding": "inplace",
        "label": "bool",
        "numberOfBytes": "1"
      },
      "t_bytes32": {
        "encoding": "inplace",
        "label": "bytes32",
        "numberOfBytes": "32"
      },
      "t_mapping(t_address,t_array(t_address)dyn_storage)": {
        "encoding": "mapping",
        "key": "t_address",
        "label": "mapping(address => address[])",
        "numberOfBytes": "32",
        "value": "t_array(t_address)dyn_storage"
      },
      "t_mapping(t_address,t_bool)": {
        "encoding": "mapping",
        "key": "t_address",
        "label": "mapping(address => bool)",
        "numberOfBytes": "32",
        "value": "t_bool"
      },
      "t_mapping(t_address,t_mapping(t_address,t_array(t_address)dyn_storage))": {
        "encoding": "mapping",
        "key": "t_address",
        "label": "mapping(address => mapping(address => address[]))",
        "numberOfBytes": "32",
        "value": "t_mapping(t_address,t_array(t_address)dyn_storage)"
      },
      "t_mapping(t_bytes32,t_address)": {
        "encoding": "mapping",
        "key": "t_bytes32",
        "label": "mapping(bytes32 => address)",
        "numberOfBytes": "32",
        "value": "t_address"
      },
      "t_mapping(t_bytes32,t_bool)": {
        "encoding": "mapping",
        "key": "t_bytes32",
        "label": "mapping(bytes32 => bool)",
        "numberOfBytes": "32",
        "value": "t_bool"
      },
      "t_uint256": {
        "encoding": "inplace",
        "label": "uint256",
        "numberOfBytes": "32"
      }
    }
  }
}