{
  "address": "0xc0B1525A89ba983E0D0639fb355492A701dB6985",
  "abi": [
    {
      "inputs": [],
      "name": "InvalidConfig",
      "type": "error"
    },
    {
      "inputs": [],
      "name": "InvalidFeeAndTickSpacing",
      "type": "error"
    },
    {
      "inputs": [],
      "name": "InvalidToken",
      "type": "error"
    },
    {
      "inputs": [],
      "name": "UnauthorisedDeployer",
      "type": "error"
    },
    {
      "inputs": [],
      "name": "UnauthorisedManager",
      "type": "error"
    },
    {
      "inputs": [],
      "name": "WrongTokenOrder",
      "type": "error"
    },
    {
      "inputs": [],
      "name": "ZeroAddress",
      "type": "error"
    },
    {
      "anonymous": false,
      "inputs": [
        {
          "indexed": true,
          "internalType": "address",
          "name": "previousOwner",
          "type": "address"
        },
        {
          "indexed": true,
          "internalType": "address",
          "name": "newOwner",
          "type": "address"
        }
      ],
      "name": "OwnershipTransferred",
      "type": "event"
    },
    {
      "anonymous": false,
      "inputs": [
        {
          "indexed": false,
          "internalType": "uint24",
          "name": "fee",
          "type": "uint24"
        },
        {
          "indexed": false,
          "internalType": "uint24",
          "name": "tickSpacing",
          "type": "uint24"
        },
        {
          "indexed": false,
          "internalType": "bool",
          "name": "ok",
          "type": "bool"
        }
      ],
      "name": "UpdateAvailableFeeAndTickSpacing",
      "type": "event"
    },
    {
      "anonymous": false,
      "inputs": [
        {
          "indexed": false,
          "internalType": "uint256",
          "name": "protocolFee",
          "type": "uint256"
        }
      ],
      "name": "UpdateDefaultProtocolFee",
      "type": "event"
    },
    {
      "anonymous": false,
      "inputs": [
        {
          "indexed": false,
          "internalType": "address",
          "name": "previousImplementation",
          "type": "address"
        },
        {
          "indexed": false,
          "internalType": "address",
          "name": "newImplementation",
          "type": "address"
        }
      ],
      "name": "UpdatePoolImplementation",
      "type": "event"
    },
    {
      "anonymous": false,
      "inputs": [
        {
          "indexed": false,
          "internalType": "address",
          "name": "pool",
          "type": "address"
        },
        {
          "indexed": false,
          "internalType": "uint256",
          "name": "protocolFee",
          "type": "uint256"
        }
      ],
      "name": "UpdateProtocolFee",
      "type": "event"
    },
    {
      "inputs": [
        {
          "internalType": "uint24",
          "name": "",
          "type": "uint24"
        },
        {
          "internalType": "uint24",
          "name": "",
          "type": "uint24"
        }
      ],
      "name": "availableFeeAndTickSpacing",
      "outputs": [
        {
          "internalType": "bool",
          "name": "",
          "type": "bool"
        }
      ],
      "stateMutability": "view",
      "type": "function"
    },
    {
      "inputs": [
        {
          "internalType": "bytes32",
          "name": "",
          "type": "bytes32"
        }
      ],
      "name": "configAddress",
      "outputs": [
        {
          "internalType": "address",
          "name": "",
          "type": "address"
        }
      ],
      "stateMutability": "view",
      "type": "function"
    },
    {
      "inputs": [],
      "name": "defaultProtocolFee",
      "outputs": [
        {
          "internalType": "uint256",
          "name": "",
          "type": "uint256"
        }
      ],
      "stateMutability": "view",
      "type": "function"
    },
    {
      "inputs": [
        {
          "internalType": "bytes",
          "name": "_deployData",
          "type": "bytes"
        }
      ],
      "name": "deployPool",
      "outputs": [
        {
          "internalType": "address",
          "name": "pool",
          "type": "address"
        }
      ],
      "stateMutability": "nonpayable",
      "type": "function"
    },
    {
      "inputs": [
        {
          "internalType": "uint256",
          "name": "idx",
          "type": "uint256"
        }
      ],
      "name": "getPoolAddress",
      "outputs": [
        {
          "internalType": "address",
          "name": "pool",
          "type": "address"
        }
      ],
      "stateMutability": "view",
      "type": "function"
    },
    {
      "inputs": [
        {
          "internalType": "address",
          "name": "token0",
          "type": "address"
        },
        {
          "internalType": "address",
          "name": "token1",
          "type": "address"
        },
        {
          "internalType": "uint256",
          "name": "startIndex",
          "type": "uint256"
        },
        {
          "internalType": "uint256",
          "name": "count",
          "type": "uint256"
        }
      ],
      "name": "getPools",
      "outputs": [
        {
          "internalType": "address[]",
          "name": "pairPools",
          "type": "address[]"
        }
      ],
      "stateMutability": "view",
      "type": "function"
    },
    {
      "inputs": [
        {
          "internalType": "address",
          "name": "_implementation",
          "type": "address"
        },
        {
          "internalType": "address",
          "name": "_masterDeployer",
          "type": "address"
        },
        {
          "internalType": "address",
          "name": "_poolLogger",
          "type": "address"
        }
      ],
      "name": "initialize",
      "outputs": [],
      "stateMutability": "nonpayable",
      "type": "function"
    },
    {
      "inputs": [
        {
          "internalType": "address",
          "name": "",
          "type": "address"
        }
      ],
      "name": "isPool",
      "outputs": [
        {
          "internalType": "bool",
          "name": "",
          "type": "bool"
        }
      ],
      "stateMutability": "view",
      "type": "function"
    },
    {
      "inputs": [],
      "name": "manager",
      "outputs": [
        {
          "internalType": "address",
          "name": "",
          "type": "address"
        }
      ],
      "stateMutability": "view",
      "type": "function"
    },
    {
      "inputs": [],
      "name": "masterDeployer",
      "outputs": [
        {
          "internalType": "address",
          "name": "",
          "type": "address"
        }
      ],
      "stateMutability": "view",
      "type": "function"
    },
    {
      "inputs": [],
      "name": "owner",
      "outputs": [
        {
          "internalType": "address",
          "name": "",
          "type": "address"
        }
      ],
      "stateMutability": "view",
      "type": "function"
    },
    {
      "inputs": [],
      "name": "poolLogger",
      "outputs": [
        {
          "internalType": "address",
          "name": "",
          "type": "address"
        }
      ],
      "stateMutability": "view",
      "type": "function"
    },
    {
      "inputs": [
        {
          "internalType": "address",
          "name": "",
          "type": "address"
        },
        {
          "internalType": "address",
          "name": "",
          "type": "address"
        },
        {
          "internalType": "uint256",
          "name": "",
          "type": "uint256"
        }
      ],
      "name": "pools",
      "outputs": [
        {
          "internalType": "address",
          "name": "",
          "type": "address"
        }
      ],
      "stateMutability": "view",
      "type": "function"
    },
    {
      "inputs": [
        {
          "internalType": "address",
          "name": "token0",
          "type": "address"
        },
        {
          "internalType": "address",
          "name": "token1",
          "type": "address"
        }
      ],
      "name": "poolsCount",
      "outputs": [
        {
          "internalType": "uint256",
          "name": "count",
          "type": "uint256"
        }
      ],
      "stateMutability": "view",
      "type": "function"
    },
    {
      "inputs": [],
      "name": "renounceOwnership",
      "outputs": [],
      "stateMutability": "nonpayable",
      "type": "function"
    },
    {
      "inputs": [
        {
          "internalType": "uint24",
          "name": "fee",
          "type": "uint24"
        },
        {
          "internalType": "uint24",
          "name": "tickSpacing",
          "type": "uint24"
        },
        {
          "internalType": "bool",
          "name": "ok",
          "type": "bool"
        }
      ],
      "name": "setAvailableFeeAndTickSpacing",
      "outputs": [],
      "stateMutability": "nonpayable",
      "type": "function"
    },
    {
      "inputs": [
        {
          "internalType": "uint256",
          "name": "protocolFee",
          "type": "uint256"
        }
      ],
      "name": "setDefaultProtocolFee",
      "outputs": [],
      "stateMutability": "nonpayable",
      "type": "function"
    },
    {
      "inputs": [
        {
          "internalType": "address",
          "name": "_manager",
          "type": "address"
        }
      ],
      "name": "setManager",
      "outputs": [],
      "stateMutability": "nonpayable",
      "type": "function"
    },
    {
      "inputs": [
        {
          "internalType": "address",
          "name": "nextImplementation",
          "type": "address"
        }
      ],
      "name": "setPoolImplementation",
      "outputs": [],
      "stateMutability": "nonpayable",
      "type": "function"
    },
    {
      "inputs": [
        {
          "internalType": "address",
          "name": "pool",
          "type": "address"
        },
        {
          "internalType": "uint256",
          "name": "protocolFee",
          "type": "uint256"
        }
      ],
      "name": "setProtocolFee",
      "outputs": [],
      "stateMutability": "nonpayable",
      "type": "function"
    },
    {
      "inputs": [],
      "name": "totalPoolsCount",
      "outputs": [
        {
          "internalType": "uint256",
          "name": "total",
          "type": "uint256"
        }
      ],
      "stateMutability": "view",
      "type": "function"
    },
    {
      "inputs": [
        {
          "internalType": "address",
          "name": "newOwner",
          "type": "address"
        }
      ],
      "name": "transferOwnership",
      "outputs": [],
      "stateMutability": "nonpayable",
      "type": "function"
    },
    {
      "inputs": [
        {
          "internalType": "address[]",
          "name": "_pools",
          "type": "address[]"
        }
      ],
      "name": "upgradePools",
      "outputs": [],
      "stateMutability": "nonpayable",
      "type": "function"
    },
    {
      "inputs": [
        {
          "internalType": "address[]",
          "name": "_pools",
          "type": "address[]"
        },
        {
          "internalType": "bytes[]",
          "name": "datas",
          "type": "bytes[]"
        }
      ],
      "name": "upgradePoolsAndCall",
      "outputs": [],
      "stateMutability": "nonpayable",
      "type": "function"
    }
  ],
  "transactionHash": "0x9d0e387255fd1da161d80b65d8f86d9923438430fe4d78826807c3d5d2c9168f",
  "args": [],
  "numDeployments": 3,
  "solcInputHash": "88ab71f4d36dce3d3c7b18887ccaa746",
  "bytecode": "0x608060405234801561001057600080fd5b506131a5806100206000396000f3fe60806040523480156200001157600080fd5b5060043610620001b85760003560e01c80636034b51011620000f5578063c0c53b8b1162000097578063d6f74898116200006e578063d6f748981462000454578063f2fde38b146200046b578063f6ab6d99146200048257600080fd5b8063c0c53b8b1462000405578063cf58879a146200041c578063d0ebdbe7146200043d57600080fd5b80638da5cb5b11620000cc5780638da5cb5b146200039e5780639ee6465b14620003bd578063b5b3ca2c14620003ee57600080fd5b80636034b5101462000357578063715018a6146200036e57806371a25812146200037857600080fd5b8063481c6a75116200015f578063566a89af1162000136578063566a89af14620002ce5780635b16ebb714620002d75780635bc93d6c146200030e57600080fd5b8063481c6a7514620002755780635159d73c146200029657806356088ff114620002ad57600080fd5b806327c3cae1116200019457806327c3cae1146200022e57806340aee0411462000245578063421bcbdf146200025c57600080fd5b8062a5ae2114620001bd5780630dfc574b14620001fe578063169c4cef1462000217575b600080fd5b620001d4620001ce36600462001c7e565b620004bb565b60405173ffffffffffffffffffffffffffffffffffffffff90911681526020015b60405180910390f35b620002156200020f36600462001dd0565b620004fb565b005b620001d46200022836600462001e72565b620006b9565b620001d46200023f36600462001eb8565b6200070c565b620002156200025636600462001f74565b62000ecc565b62000266606e5481565b604051908152602001620001f5565b606754620001d49073ffffffffffffffffffffffffffffffffffffffff1681565b62000215620002a736600462001fc7565b62001003565b606654620001d49073ffffffffffffffffffffffffffffffffffffffff1681565b606d5462000266565b620002fd620002e83660046200201d565b606c6020526000908152604090205460ff1681565b6040519015158152602001620001f5565b620002666200031f36600462002044565b73ffffffffffffffffffffffffffffffffffffffff918216600090815260696020908152604080832093909416825291909152205490565b620002156200036836600462001c7e565b620010eb565b6200021562001178565b6200038f6200038936600462002082565b62001209565b604051620001f59190620020cd565b60335473ffffffffffffffffffffffffffffffffffffffff16620001d4565b620002fd620003ce36600462002129565b606f60209081526000928352604080842090915290825290205460ff1681565b62000215620003ff3660046200215c565b62001334565b62000215620004163660046200218b565b6200145c565b606554620001d49073ffffffffffffffffffffffffffffffffffffffff1681565b620002156200044e3660046200201d565b620017fc565b62000215620004653660046200201d565b62001895565b620002156200047c3660046200201d565b62001982565b620001d46200049336600462001c7e565b606a6020526000908152604090205473ffffffffffffffffffffffffffffffffffffffff1681565b6000606d8281548110620004d357620004d3620021d2565b60009182526020909120015473ffffffffffffffffffffffffffffffffffffffff1692915050565b60675473ffffffffffffffffffffffffffffffffffffffff1633146200054d576040517f3d83907a00000000000000000000000000000000000000000000000000000000815260040160405180910390fd5b606854835173ffffffffffffffffffffffffffffffffffffffff909116908214620005d9576040517f08c379a000000000000000000000000000000000000000000000000000000000815260206004820152601860248201527f6d69736d61746368696e67206172726179206c656e677468000000000000000060448201526064015b60405180910390fd5b60005b8451811015620006b257848181518110620005fb57620005fb620021d2565b602002602001015173ffffffffffffffffffffffffffffffffffffffff16634f1ef28683868685818110620006345762000634620021d2565b905060200281019062000648919062002201565b6040518463ffffffff1660e01b8152600401620006689392919062002270565b600060405180830381600087803b1580156200068357600080fd5b505af115801562000698573d6000803e3d6000fd5b505050508080620006a99062002309565b915050620005dc565b5050505050565b60696020528260005260406000206020528160005260406000208181548110620006e257600080fd5b60009182526020909120015473ffffffffffffffffffffffffffffffffffffffff16925083915050565b60655460009073ffffffffffffffffffffffffffffffffffffffff16331462000761576040517f03781a5300000000000000000000000000000000000000000000000000000000815260040160405180910390fd5b6000806000806000868060200190518101906200077f919062002345565b945094509450945094508373ffffffffffffffffffffffffffffffffffffffff168573ffffffffffffffffffffffffffffffffffffffff161115620007f0576040517f30082a1600000000000000000000000000000000000000000000000000000000815260040160405180910390fd5b62ffffff8084166000908152606f602090815260408083209385168352929052205460ff166200084c576040517fb87686b800000000000000000000000000000000000000000000000000000000815260040160405180910390fd5b73ffffffffffffffffffffffffffffffffffffffff8086166000908152606960209081526040808320938816835292815282822080548451818402810184019095528085529293929091830182828015620008de57602002820191906000526020600020905b815473ffffffffffffffffffffffffffffffffffffffff168152600190910190602001808311620008b2575b5050505050905060005b815181101562000a9c578262ffffff168282815181106200090d576200090d620021d2565b602002602001015173ffffffffffffffffffffffffffffffffffffffff1663d0c93a7c6040518163ffffffff1660e01b815260040160206040518083038186803b1580156200095b57600080fd5b505afa15801562000970573d6000803e3d6000fd5b505050506040513d601f19601f82011682018060405250810190620009969190620023c5565b62ffffff1614801562000a4f57508462ffffff16828281518110620009bf57620009bf620021d2565b602002602001015173ffffffffffffffffffffffffffffffffffffffff166354cf2aeb6040518163ffffffff1660e01b815260040160206040518083038186803b15801562000a0d57600080fd5b505afa15801562000a22573d6000803e3d6000fd5b505050506040513d601f19601f8201168201806040525081019062000a489190620023c5565b62ffffff16145b1562000a87576040517f35be3ac800000000000000000000000000000000000000000000000000000000815260040160405180910390fd5b8062000a938162002309565b915050620008e8565b506040805173ffffffffffffffffffffffffffffffffffffffff80891660208301528716918101919091526000606082015262ffffff8086166080830152831660a082015260c001604080517fffffffffffffffffffffffffffffffffffffffffffffffffffffffffffffffe08184030181529082905280516020820120606854919a5091829173ffffffffffffffffffffffffffffffffffffffff1690309062000b479062001c70565b73ffffffffffffffffffffffffffffffffffffffff9283168152911660208201526060604082018190526000908201526080018190604051809103906000f590508015801562000b9b573d6000803e3d6000fd5b506065546040517fcce2df0300000000000000000000000000000000000000000000000000000000815291995073ffffffffffffffffffffffffffffffffffffffff808b169263cce2df039262000bfa928e92911690600401620023e5565b600060405180830381600087803b15801562000c1557600080fd5b505af115801562000c2a573d6000803e3d6000fd5b5050506000828152606a60209081526040808320805473ffffffffffffffffffffffffffffffffffffffff8e81167fffffffffffffffffffffffff000000000000000000000000000000000000000092831681179093558d811680875260698087528588208f8416808a52908852868920805460018181018355918b52898b2001805487168817905590895290875285882091885290865284872080548083018255908852868820018054841685179055838752606c90955283862080547fffffffffffffffffffffffffffffffffffffffffffffffffffffffffffffff001686179055606d805495860181559095527f5006b838207c6a9ae9b84d68f467dd4bb5c305fbfb6b04eab8faaabeec1e18d890930180549093168117909255517fd90bda4e0000000000000000000000000000000000000000000000000000000081529187166004830152915063d90bda4e90602401600060405180830381600087803b15801562000d9a57600080fd5b505af115801562000daf573d6000803e3d6000fd5b50506066546040517fbd7d1eea00000000000000000000000000000000000000000000000000000000815273ffffffffffffffffffffffffffffffffffffffff9182166004820152908b16925063bd7d1eea9150602401600060405180830381600087803b15801562000e2157600080fd5b505af115801562000e36573d6000803e3d6000fd5b5050606e546040517f787dce3d000000000000000000000000000000000000000000000000000000008152600481019190915273ffffffffffffffffffffffffffffffffffffffff8b16925063787dce3d9150602401600060405180830381600087803b15801562000ea757600080fd5b505af115801562000ebc573d6000803e3d6000fd5b5050505050505050505050919050565b60675473ffffffffffffffffffffffffffffffffffffffff16331462000f1e576040517f3d83907a00000000000000000000000000000000000000000000000000000000815260040160405180910390fd5b60685473ffffffffffffffffffffffffffffffffffffffff1660005b825181101562000ffe5782818151811062000f595762000f59620021d2565b60209081029190910101516040517f3659cfe600000000000000000000000000000000000000000000000000000000815273ffffffffffffffffffffffffffffffffffffffff848116600483015290911690633659cfe690602401600060405180830381600087803b15801562000fcf57600080fd5b505af115801562000fe4573d6000803e3d6000fd5b50505050808062000ff59062002309565b91505062000f3a565b505050565b60675473ffffffffffffffffffffffffffffffffffffffff16331462001055576040517f3d83907a00000000000000000000000000000000000000000000000000000000815260040160405180910390fd5b62ffffff8381166000818152606f602090815260408083209487168084529482529182902080547fffffffffffffffffffffffffffffffffffffffffffffffffffffffffffffff00168615159081179091558251938452908301939093528101919091527f7a6c71f96c8aa946c5483648392f4440e50d64b7a351ea262129c024a068465f9060600160405180910390a1505050565b60675473ffffffffffffffffffffffffffffffffffffffff1633146200113d576040517f3d83907a00000000000000000000000000000000000000000000000000000000815260040160405180910390fd5b606e8190556040518181527f2d63886767aff97f7e87aa7061069ccb0a28bc5a34d22985057e40917f31373c9060200160405180910390a150565b60335473ffffffffffffffffffffffffffffffffffffffff163314620011fb576040517f08c379a000000000000000000000000000000000000000000000000000000000815260206004820181905260248201527f4f776e61626c653a2063616c6c6572206973206e6f7420746865206f776e65726044820152606401620005d0565b62001207600062001ab8565b565b60608167ffffffffffffffff81111562001227576200122762001c98565b60405190808252806020026020018201604052801562001251578160200160208202803683370190505b50905060005b828110156200132b5773ffffffffffffffffffffffffffffffffffffffff80871660009081526069602090815260408083209389168352929052206200129e828662002479565b81548110620012b157620012b1620021d2565b9060005260206000200160009054906101000a900473ffffffffffffffffffffffffffffffffffffffff16828281518110620012f157620012f1620021d2565b73ffffffffffffffffffffffffffffffffffffffff9092166020928302919091019091015280620013228162002309565b91505062001257565b50949350505050565b60675473ffffffffffffffffffffffffffffffffffffffff16331462001386576040517f3d83907a00000000000000000000000000000000000000000000000000000000815260040160405180910390fd5b6040517f787dce3d0000000000000000000000000000000000000000000000000000000081526004810182905273ffffffffffffffffffffffffffffffffffffffff83169063787dce3d90602401600060405180830381600087803b158015620013ef57600080fd5b505af115801562001404573d6000803e3d6000fd5b50506040805173ffffffffffffffffffffffffffffffffffffffff86168152602081018590527f5f1fbcc409cd21ef4459e87d22bd635e32979279e8aefe917fc2d34567c7795a935001905060405180910390a15050565b600054610100900460ff16620014795760005460ff16156200147d565b303b155b6200150b576040517f08c379a000000000000000000000000000000000000000000000000000000000815260206004820152602e60248201527f496e697469616c697a61626c653a20636f6e747261637420697320616c72656160448201527f647920696e697469616c697a65640000000000000000000000000000000000006064820152608401620005d0565b600054610100900460ff161580156200154b57600080547fffffffffffffffffffffffffffffffffffffffffffffffffffffffffffff0000166101011790555b73ffffffffffffffffffffffffffffffffffffffff841662001599576040517fd92e233d00000000000000000000000000000000000000000000000000000000815260040160405180910390fd5b73ffffffffffffffffffffffffffffffffffffffff8316620015e7576040517fd92e233d00000000000000000000000000000000000000000000000000000000815260040160405180910390fd5b73ffffffffffffffffffffffffffffffffffffffff821662001635576040517fd92e233d00000000000000000000000000000000000000000000000000000000815260040160405180910390fd5b6068805473ffffffffffffffffffffffffffffffffffffffff8087167fffffffffffffffffffffffff0000000000000000000000000000000000000000928316179092556065805486841690831617905560668054928516929091169190911790556103e8606e557fb76ee0f27ddb32fa9a2030cb52797673872e15ab3461e4045f604fa66863d60a80547fffffffffffffffffffffffffffffffffffffffffffffffffffffffffffffff0090811660019081179092557f341ace2ca8af05318cc8a4b96e4e3a7492e53fec3a5cbdafc6874b38633e788080548216831790557fd29274335c99d39d761c7010f07e14fba3d6202112deb81c4632ddf308b91e70805482168317905560026000527fe0d3e439b4a04265b4f24fa629f59c5433e12f15565196b06fa74f22397180866020527f1997a1aa8844bbadce0d5df367e8ccf8854782822d76567847c45104dc526566805490911690911790556200179c62001b2f565b606780547fffffffffffffffffffffffff000000000000000000000000000000000000000016331790558015620017f657600080547fffffffffffffffffffffffffffffffffffffffffffffffffffffffffffff00ff1690555b50505050565b60675473ffffffffffffffffffffffffffffffffffffffff1633146200184e576040517f3d83907a00000000000000000000000000000000000000000000000000000000815260040160405180910390fd5b606780547fffffffffffffffffffffffff00000000000000000000000000000000000000001673ffffffffffffffffffffffffffffffffffffffff92909216919091179055565b60675473ffffffffffffffffffffffffffffffffffffffff163314620018e7576040517f3d83907a00000000000000000000000000000000000000000000000000000000815260040160405180910390fd5b6068546040805173ffffffffffffffffffffffffffffffffffffffff928316815291831660208301527f0617fd31aa5ab95ec80eefc1eb61a2c477aa419d1d761b4e46f5f077e47852aa910160405180910390a1606880547fffffffffffffffffffffffff00000000000000000000000000000000000000001673ffffffffffffffffffffffffffffffffffffffff92909216919091179055565b60335473ffffffffffffffffffffffffffffffffffffffff16331462001a05576040517f08c379a000000000000000000000000000000000000000000000000000000000815260206004820181905260248201527f4f776e61626c653a2063616c6c6572206973206e6f7420746865206f776e65726044820152606401620005d0565b73ffffffffffffffffffffffffffffffffffffffff811662001aaa576040517f08c379a000000000000000000000000000000000000000000000000000000000815260206004820152602660248201527f4f776e61626c653a206e6577206f776e657220697320746865207a65726f206160448201527f64647265737300000000000000000000000000000000000000000000000000006064820152608401620005d0565b62001ab58162001ab8565b50565b6033805473ffffffffffffffffffffffffffffffffffffffff8381167fffffffffffffffffffffffff0000000000000000000000000000000000000000831681179093556040519116919082907f8be0079c531659141344cd1fd0a4f28419497f9722a3daafe3b4186f6b6457e090600090a35050565b600054610100900460ff1662001bc8576040517f08c379a000000000000000000000000000000000000000000000000000000000815260206004820152602b60248201527f496e697469616c697a61626c653a20636f6e7472616374206973206e6f74206960448201527f6e697469616c697a696e670000000000000000000000000000000000000000006064820152608401620005d0565b62001207600054610100900460ff1662001c65576040517f08c379a000000000000000000000000000000000000000000000000000000000815260206004820152602b60248201527f496e697469616c697a61626c653a20636f6e7472616374206973206e6f74206960448201527f6e697469616c697a696e670000000000000000000000000000000000000000006064820152608401620005d0565b620012073362001ab8565b610cdb806200249583390190565b60006020828403121562001c9157600080fd5b5035919050565b7f4e487b7100000000000000000000000000000000000000000000000000000000600052604160045260246000fd5b604051601f82017fffffffffffffffffffffffffffffffffffffffffffffffffffffffffffffffe016810167ffffffffffffffff8111828210171562001d115762001d1162001c98565b604052919050565b73ffffffffffffffffffffffffffffffffffffffff8116811462001ab557600080fd5b600082601f83011262001d4e57600080fd5b8135602067ffffffffffffffff82111562001d6d5762001d6d62001c98565b8160051b62001d7e82820162001cc7565b928352848101820192828101908785111562001d9957600080fd5b83870192505b8483101562001dc557823562001db58162001d19565b8252918301919083019062001d9f565b979650505050505050565b60008060006040848603121562001de657600080fd5b833567ffffffffffffffff8082111562001dff57600080fd5b62001e0d8783880162001d3c565b9450602086013591508082111562001e2457600080fd5b818601915086601f83011262001e3957600080fd5b81358181111562001e4957600080fd5b8760208260051b850101111562001e5f57600080fd5b6020830194508093505050509250925092565b60008060006060848603121562001e8857600080fd5b833562001e958162001d19565b9250602084013562001ea78162001d19565b929592945050506040919091013590565b6000602080838503121562001ecc57600080fd5b823567ffffffffffffffff8082111562001ee557600080fd5b818501915085601f83011262001efa57600080fd5b81358181111562001f0f5762001f0f62001c98565b62001f41847fffffffffffffffffffffffffffffffffffffffffffffffffffffffffffffffe0601f8401160162001cc7565b9150808252868482850101111562001f5857600080fd5b8084840185840137600090820190930192909252509392505050565b60006020828403121562001f8757600080fd5b813567ffffffffffffffff81111562001f9f57600080fd5b62001fad8482850162001d3c565b949350505050565b62ffffff8116811462001ab557600080fd5b60008060006060848603121562001fdd57600080fd5b833562001fea8162001fb5565b9250602084013562001ffc8162001fb5565b9150604084013580151581146200201257600080fd5b809150509250925092565b6000602082840312156200203057600080fd5b81356200203d8162001d19565b9392505050565b600080604083850312156200205857600080fd5b8235620020658162001d19565b91506020830135620020778162001d19565b809150509250929050565b600080600080608085870312156200209957600080fd5b8435620020a68162001d19565b93506020850135620020b88162001d19565b93969395505050506040820135916060013590565b6020808252825182820181905260009190848201906040850190845b818110156200211d57835173ffffffffffffffffffffffffffffffffffffffff1683529284019291840191600101620020e9565b50909695505050505050565b600080604083850312156200213d57600080fd5b82356200214a8162001fb5565b91506020830135620020778162001fb5565b600080604083850312156200217057600080fd5b82356200217d8162001d19565b946020939093013593505050565b600080600060608486031215620021a157600080fd5b8335620021ae8162001d19565b92506020840135620021c08162001d19565b91506040840135620020128162001d19565b7f4e487b7100000000000000000000000000000000000000000000000000000000600052603260045260246000fd5b60008083357fffffffffffffffffffffffffffffffffffffffffffffffffffffffffffffffe18436030181126200223757600080fd5b83018035915067ffffffffffffffff8211156200225357600080fd5b6020019150368190038213156200226957600080fd5b9250929050565b73ffffffffffffffffffffffffffffffffffffffff8416815260406020820152816040820152818360608301376000818301606090810191909152601f9092017fffffffffffffffffffffffffffffffffffffffffffffffffffffffffffffffe016010192915050565b7f4e487b7100000000000000000000000000000000000000000000000000000000600052601160045260246000fd5b60007fffffffffffffffffffffffffffffffffffffffffffffffffffffffffffffffff8214156200233e576200233e620022da565b5060010190565b600080600080600060a086880312156200235e57600080fd5b85516200236b8162001d19565b60208701519095506200237e8162001d19565b6040870151909450620023918162001fb5565b6060870151909350620023a48162001d19565b6080870151909250620023b78162001fb5565b809150509295509295909350565b600060208284031215620023d857600080fd5b81516200203d8162001fb5565b604081526000835180604084015260005b81811015620024155760208187018101516060868401015201620023f6565b8181111562002428576000606083860101525b5073ffffffffffffffffffffffffffffffffffffffff93909316602083015250601f919091017fffffffffffffffffffffffffffffffffffffffffffffffffffffffffffffffe01601606001919050565b600082198211156200248f576200248f620022da565b50019056fe608060405260405162000cdb38038062000cdb8339810160408190526200002691620001fc565b62000032838262000046565b6200003d8262000128565b505050620002fa565b7f360894a13ba1a3210667c828492db98dca3e2076cc3735a920a3ca505d382bbc8054908390556040516001600160a01b0380851691908316907f5570d70a002632a7b0b3c9304cc89efb62d8da9eca0dbd7752c83b737906829690600090a381511562000123576000836001600160a01b031683604051620000ca9190620002dc565b600060405180830381855af49150503d806000811462000107576040519150601f19603f3d011682016040523d82523d6000602084013e6200010c565b606091505b505090508062000121573d806000803e806000fd5b505b505050565b60006200014260008051602062000cbb8339815191525490565b90508160008051602062000cbb83398151915255816001600160a01b0316816001600160a01b03167fdf435d422321da6b195902d70fc417c06a32f88379c20dd8f2a8da07088cec2960405160405180910390a35050565b80516001600160a01b0381168114620001b257600080fd5b919050565b634e487b7160e01b600052604160045260246000fd5b60005b83811015620001ea578181015183820152602001620001d0565b83811115620001215750506000910152565b6000806000606084860312156200021257600080fd5b6200021d846200019a565b92506200022d602085016200019a565b60408501519092506001600160401b03808211156200024b57600080fd5b818601915086601f8301126200026057600080fd5b815181811115620002755762000275620001b7565b604051601f8201601f19908116603f01168101908382118183101715620002a057620002a0620001b7565b81604052828152896020848701011115620002ba57600080fd5b620002cd836020830160208801620001cd565b80955050505050509250925092565b60008251620002f0818460208701620001cd565b9190910192915050565b6109b1806200030a6000396000f3fe60806040526004361061005e5760003560e01c80633e47158c116100435780633e47158c146101295780634f1ef286146101635780638356ca4f14610176576100ca565b806301ffc9a7146100d45780633659cfe614610109576100ca565b366100ca576040517f08c379a000000000000000000000000000000000000000000000000000000000815260206004820152600e60248201527f45544845525f52454a454354454400000000000000000000000000000000000060448201526064015b60405180910390fd5b6100d2610196565b005b3480156100e057600080fd5b506100f46100ef366004610815565b6101e1565b60405190151581526020015b60405180910390f35b34801561011557600080fd5b506100d2610124366004610880565b6103be565b34801561013557600080fd5b5061013e610490565b60405173ffffffffffffffffffffffffffffffffffffffff9091168152602001610100565b6100d261017136600461089b565b6104bf565b34801561018257600080fd5b506100d2610191366004610880565b6105ba565b7f360894a13ba1a3210667c828492db98dca3e2076cc3735a920a3ca505d382bbc5460003681823780813683855af491503d8082833e8280156101d7578183f35b8183fd5b50505050565b60007f01ffc9a7000000000000000000000000000000000000000000000000000000007fffffffff000000000000000000000000000000000000000000000000000000008316148061027457507f7f5828d0000000000000000000000000000000000000000000000000000000007fffffffff000000000000000000000000000000000000000000000000000000008316145b1561028157506001919050565b7fffffffff0000000000000000000000000000000000000000000000000000000080831614156102b357506000919050565b7f360894a13ba1a3210667c828492db98dca3e2076cc3735a920a3ca505d382bbc546040517f01ffc9a70000000000000000000000000000000000000000000000000000000081527fffffffff000000000000000000000000000000000000000000000000000000008416600482015273ffffffffffffffffffffffffffffffffffffffff8216906301ffc9a79060240160206040518083038186803b15801561035c57600080fd5b505afa9250505080156103aa575060408051601f3d9081017fffffffffffffffffffffffffffffffffffffffffffffffffffffffffffffffe01682019092526103a79181019061091e565b60015b6103b75750600092915050565b9392505050565b7fb53127684a568b3173ae13b9f8a6016e243e63b6e8ee1178d6a717850b5d61035473ffffffffffffffffffffffffffffffffffffffff163373ffffffffffffffffffffffffffffffffffffffff1614610474576040517f08c379a000000000000000000000000000000000000000000000000000000000815260206004820152600e60248201527f4e4f545f415554484f52495a454400000000000000000000000000000000000060448201526064016100c1565b61048d8160405180602001604052806000815250610679565b50565b60006104ba7fb53127684a568b3173ae13b9f8a6016e243e63b6e8ee1178d6a717850b5d61035490565b905090565b7fb53127684a568b3173ae13b9f8a6016e243e63b6e8ee1178d6a717850b5d61035473ffffffffffffffffffffffffffffffffffffffff163373ffffffffffffffffffffffffffffffffffffffff1614610575576040517f08c379a000000000000000000000000000000000000000000000000000000000815260206004820152600e60248201527f4e4f545f415554484f52495a454400000000000000000000000000000000000060448201526064016100c1565b6105b58383838080601f01602080910402602001604051908101604052809392919081815260200183838082843760009201919091525061067992505050565b505050565b7fb53127684a568b3173ae13b9f8a6016e243e63b6e8ee1178d6a717850b5d61035473ffffffffffffffffffffffffffffffffffffffff163373ffffffffffffffffffffffffffffffffffffffff1614610670576040517f08c379a000000000000000000000000000000000000000000000000000000000815260206004820152600e60248201527f4e4f545f415554484f52495a454400000000000000000000000000000000000060448201526064016100c1565b61048d81610768565b7f360894a13ba1a3210667c828492db98dca3e2076cc3735a920a3ca505d382bbc80549083905560405173ffffffffffffffffffffffffffffffffffffffff80851691908316907f5570d70a002632a7b0b3c9304cc89efb62d8da9eca0dbd7752c83b737906829690600090a38151156105b55760008373ffffffffffffffffffffffffffffffffffffffff16836040516107149190610940565b600060405180830381855af49150503d806000811461074f576040519150601f19603f3d011682016040523d82523d6000602084013e610754565b606091505b50509050806101db573d806000803e806000fd5b60006107927fb53127684a568b3173ae13b9f8a6016e243e63b6e8ee1178d6a717850b5d61035490565b9050817fb53127684a568b3173ae13b9f8a6016e243e63b6e8ee1178d6a717850b5d6103558173ffffffffffffffffffffffffffffffffffffffff168173ffffffffffffffffffffffffffffffffffffffff167fdf435d422321da6b195902d70fc417c06a32f88379c20dd8f2a8da07088cec2960405160405180910390a35050565b60006020828403121561082757600080fd5b81357fffffffff00000000000000000000000000000000000000000000000000000000811681146103b757600080fd5b803573ffffffffffffffffffffffffffffffffffffffff8116811461087b57600080fd5b919050565b60006020828403121561089257600080fd5b6103b782610857565b6000806000604084860312156108b057600080fd5b6108b984610857565b9250602084013567ffffffffffffffff808211156108d657600080fd5b818601915086601f8301126108ea57600080fd5b8135818111156108f957600080fd5b87602082850101111561090b57600080fd5b6020830194508093505050509250925092565b60006020828403121561093057600080fd5b815180151581146103b757600080fd5b6000825160005b818110156109615760208186018101518583015201610947565b81811115610970576000828501525b50919091019291505056fea2646970667358221220f941c4782a0ee12b1d02c6008db8836a2dee954b83ea1ed7172f702965941e0a64736f6c63430008090033b53127684a568b3173ae13b9f8a6016e243e63b6e8ee1178d6a717850b5d6103a2646970667358221220f8a64c4b15d742a1df3c6228a3963739992ccd8da5c04e0ffb0e963f95630b6864736f6c63430008090033",
  "devdoc": {
    "kind": "dev",
    "methods": {
      "owner()": {
        "details": "Returns the address of the current owner."
      },
      "renounceOwnership()": {
        "details": "Leaves the contract without owner. It will not be possible to call `onlyOwner` functions anymore. Can only be called by the current owner. NOTE: Renouncing ownership will leave the contract without an owner, thereby removing any functionality that is only available to the owner."
      },
      "transferOwnership(address)": {
        "details": "Transfers ownership of the contract to a new account (`newOwner`). Can only be called by the current owner."
      }
    },
    "stateVariables": {
      "configAddress": {
        "params": {
          "data": "abi.encode(address tokenA, address tokenB, uint24 swapFee, uint24 tickSpacing);"
        }
      }
    },
    "version": 1
  },
  "userdoc": {
    "kind": "user",
    "methods": {
      "configAddress(bytes32)": {
        "notice": "Return the address of the pool created with the given config data"
      },
      "getPoolAddress(uint256)": {
        "notice": "Return the address of pool by index"
      },
      "getPools(address,address,uint256,uint256)": {
        "notice": "Return the list of pools composed of two tokens"
      },
      "isPool(address)": {
        "notice": "Return whether the pool is created by the factory"
      },
      "poolsCount(address,address)": {
        "notice": "Return the number of pools composed of two tokens"
      },
      "totalPoolsCount()": {
        "notice": "Return the number of pools deployed from factory"
      }
    },
    "notice": "Contract for deploying Reward Liquidity Pool",
    "version": 1
  },
  "storageLayout": {
    "storage": [
      {
        "astId": 130,
        "contract": "contracts/custom/miningPool/MiningPoolFactory.sol:MiningPoolFactory",
        "label": "_initialized",
        "offset": 0,
        "slot": "0",
        "type": "t_bool"
      },
      {
        "astId": 133,
        "contract": "contracts/custom/miningPool/MiningPoolFactory.sol:MiningPoolFactory",
        "label": "_initializing",
        "offset": 1,
        "slot": "0",
        "type": "t_bool"
      },
      {
        "astId": 1981,
        "contract": "contracts/custom/miningPool/MiningPoolFactory.sol:MiningPoolFactory",
        "label": "__gap",
        "offset": 0,
        "slot": "1",
        "type": "t_array(t_uint256)50_storage"
      },
      {
        "astId": 10,
        "contract": "contracts/custom/miningPool/MiningPoolFactory.sol:MiningPoolFactory",
        "label": "_owner",
        "offset": 0,
        "slot": "51",
        "type": "t_address"
      },
      {
        "astId": 122,
        "contract": "contracts/custom/miningPool/MiningPoolFactory.sol:MiningPoolFactory",
        "label": "__gap",
        "offset": 0,
        "slot": "52",
        "type": "t_array(t_uint256)49_storage"
      },
      {
        "astId": 5764,
        "contract": "contracts/custom/miningPool/MiningPoolFactory.sol:MiningPoolFactory",
        "label": "masterDeployer",
        "offset": 0,
        "slot": "101",
        "type": "t_address"
      },
      {
        "astId": 5766,
        "contract": "contracts/custom/miningPool/MiningPoolFactory.sol:MiningPoolFactory",
        "label": "poolLogger",
        "offset": 0,
        "slot": "102",
        "type": "t_address"
      },
      {
        "astId": 5768,
        "contract": "contracts/custom/miningPool/MiningPoolFactory.sol:MiningPoolFactory",
        "label": "manager",
        "offset": 0,
        "slot": "103",
        "type": "t_address"
      },
      {
        "astId": 5770,
        "contract": "contracts/custom/miningPool/MiningPoolFactory.sol:MiningPoolFactory",
        "label": "poolImplementation",
        "offset": 0,
        "slot": "104",
        "type": "t_address"
      },
      {
        "astId": 5777,
        "contract": "contracts/custom/miningPool/MiningPoolFactory.sol:MiningPoolFactory",
        "label": "pools",
        "offset": 0,
        "slot": "105",
        "type": "t_mapping(t_address,t_mapping(t_address,t_array(t_address)dyn_storage))"
      },
      {
        "astId": 5781,
        "contract": "contracts/custom/miningPool/MiningPoolFactory.sol:MiningPoolFactory",
        "label": "configAddress",
        "offset": 0,
        "slot": "106",
        "type": "t_mapping(t_bytes32,t_address)"
      },
      {
        "astId": 5785,
        "contract": "contracts/custom/miningPool/MiningPoolFactory.sol:MiningPoolFactory",
        "label": "availableConfigs",
        "offset": 0,
        "slot": "107",
        "type": "t_mapping(t_bytes32,t_bool)"
      },
      {
        "astId": 5789,
        "contract": "contracts/custom/miningPool/MiningPoolFactory.sol:MiningPoolFactory",
        "label": "isPool",
        "offset": 0,
        "slot": "108",
        "type": "t_mapping(t_address,t_bool)"
      },
      {
        "astId": 5792,
        "contract": "contracts/custom/miningPool/MiningPoolFactory.sol:MiningPoolFactory",
        "label": "poolArray",
        "offset": 0,
        "slot": "109",
        "type": "t_array(t_address)dyn_storage"
      },
      {
        "astId": 5794,
        "contract": "contracts/custom/miningPool/MiningPoolFactory.sol:MiningPoolFactory",
        "label": "defaultProtocolFee",
        "offset": 0,
        "slot": "110",
        "type": "t_uint256"
      },
      {
        "astId": 5800,
        "contract": "contracts/custom/miningPool/MiningPoolFactory.sol:MiningPoolFactory",
        "label": "availableFeeAndTickSpacing",
        "offset": 0,
        "slot": "111",
        "type": "t_mapping(t_uint24,t_mapping(t_uint24,t_bool))"
      }
    ],
    "types": {
      "t_address": {
        "encoding": "inplace",
        "label": "address",
        "numberOfBytes": "20"
      },
      "t_array(t_address)dyn_storage": {
        "base": "t_address",
        "encoding": "dynamic_array",
        "label": "address[]",
        "numberOfBytes": "32"
      },
      "t_array(t_uint256)49_storage": {
        "base": "t_uint256",
        "encoding": "inplace",
        "label": "uint256[49]",
        "numberOfBytes": "1568"
      },
      "t_array(t_uint256)50_storage": {
        "base": "t_uint256",
        "encoding": "inplace",
        "label": "uint256[50]",
        "numberOfBytes": "1600"
      },
      "t_bool": {
        "encoding": "inplace",
        "label": "bool",
        "numberOfBytes": "1"
      },
      "t_bytes32": {
        "encoding": "inplace",
        "label": "bytes32",
        "numberOfBytes": "32"
      },
      "t_mapping(t_address,t_array(t_address)dyn_storage)": {
        "encoding": "mapping",
        "key": "t_address",
        "label": "mapping(address => address[])",
        "numberOfBytes": "32",
        "value": "t_array(t_address)dyn_storage"
      },
      "t_mapping(t_address,t_bool)": {
        "encoding": "mapping",
        "key": "t_address",
        "label": "mapping(address => bool)",
        "numberOfBytes": "32",
        "value": "t_bool"
      },
      "t_mapping(t_address,t_mapping(t_address,t_array(t_address)dyn_storage))": {
        "encoding": "mapping",
        "key": "t_address",
        "label": "mapping(address => mapping(address => address[]))",
        "numberOfBytes": "32",
        "value": "t_mapping(t_address,t_array(t_address)dyn_storage)"
      },
      "t_mapping(t_bytes32,t_address)": {
        "encoding": "mapping",
        "key": "t_bytes32",
        "label": "mapping(bytes32 => address)",
        "numberOfBytes": "32",
        "value": "t_address"
      },
      "t_mapping(t_bytes32,t_bool)": {
        "encoding": "mapping",
        "key": "t_bytes32",
        "label": "mapping(bytes32 => bool)",
        "numberOfBytes": "32",
        "value": "t_bool"
      },
      "t_mapping(t_uint24,t_bool)": {
        "encoding": "mapping",
        "key": "t_uint24",
        "label": "mapping(uint24 => bool)",
        "numberOfBytes": "32",
        "value": "t_bool"
      },
      "t_mapping(t_uint24,t_mapping(t_uint24,t_bool))": {
        "encoding": "mapping",
        "key": "t_uint24",
        "label": "mapping(uint24 => mapping(uint24 => bool))",
        "numberOfBytes": "32",
        "value": "t_mapping(t_uint24,t_bool)"
      },
      "t_uint24": {
        "encoding": "inplace",
        "label": "uint24",
        "numberOfBytes": "3"
      },
      "t_uint256": {
        "encoding": "inplace",
        "label": "uint256",
        "numberOfBytes": "32"
      }
    }
  }
}