{
  "address": "0x1EA93d8AC16571fb9069814066fD424B4FD7eE38",
  "abi": [
    {
      "inputs": [],
      "name": "AlreadyPriceInitialized",
      "type": "error"
    },
    {
      "inputs": [],
      "name": "InvalidParam",
      "type": "error"
    },
    {
      "inputs": [],
      "name": "InvalidSwapFee",
      "type": "error"
    },
    {
      "inputs": [],
      "name": "InvalidTick",
      "type": "error"
    },
    {
      "inputs": [],
      "name": "LiquidityInsufficient",
      "type": "error"
    },
    {
      "inputs": [],
      "name": "LiquidityOverflow",
      "type": "error"
    },
    {
      "inputs": [],
      "name": "LiquidityZero",
      "type": "error"
    },
    {
      "inputs": [],
      "name": "Locked",
      "type": "error"
    },
    {
      "inputs": [],
      "name": "LowerEven",
      "type": "error"
    },
    {
      "inputs": [],
      "name": "NotAuthorized",
      "type": "error"
    },
    {
      "inputs": [],
      "name": "Overflow",
      "type": "error"
    },
    {
      "inputs": [],
      "name": "PriceOutOfBounds",
      "type": "error"
    },
    {
      "inputs": [],
      "name": "TickOutOfBounds",
      "type": "error"
    },
    {
      "inputs": [],
      "name": "Token0Missing",
      "type": "error"
    },
    {
      "inputs": [],
      "name": "Token1Missing",
      "type": "error"
    },
    {
      "inputs": [],
      "name": "UpperOdd",
      "type": "error"
    },
    {
      "inputs": [],
      "name": "ZeroAddress",
      "type": "error"
    },
    {
      "anonymous": false,
      "inputs": [
        {
          "indexed": false,
          "internalType": "address",
          "name": "token",
          "type": "address"
        },
        {
          "indexed": false,
          "internalType": "uint256",
          "name": "amount",
          "type": "uint256"
        },
        {
          "indexed": false,
          "internalType": "uint256",
          "name": "startTime",
          "type": "uint256"
        },
        {
          "indexed": false,
          "internalType": "uint256",
          "name": "period",
          "type": "uint256"
        }
      ],
      "name": "DistributeReward",
      "type": "event"
    },
    {
      "inputs": [],
      "name": "airdrop0PerSecond",
      "outputs": [
        {
          "internalType": "uint256",
          "name": "",
          "type": "uint256"
        }
      ],
      "stateMutability": "view",
      "type": "function"
    },
    {
      "inputs": [],
      "name": "airdrop1PerSecond",
      "outputs": [
        {
          "internalType": "uint256",
          "name": "",
          "type": "uint256"
        }
      ],
      "stateMutability": "view",
      "type": "function"
    },
    {
      "inputs": [],
      "name": "airdropPeriod",
      "outputs": [
        {
          "internalType": "uint256",
          "name": "",
          "type": "uint256"
        }
      ],
      "stateMutability": "view",
      "type": "function"
    },
    {
      "inputs": [],
      "name": "airdropStartTime",
      "outputs": [
        {
          "internalType": "uint256",
          "name": "",
          "type": "uint256"
        }
      ],
      "stateMutability": "view",
      "type": "function"
    },
    {
      "inputs": [
        {
          "internalType": "int24",
          "name": "lower",
          "type": "int24"
        },
        {
          "internalType": "int24",
          "name": "upper",
          "type": "int24"
        },
        {
          "internalType": "uint128",
          "name": "amount",
          "type": "uint128"
        }
      ],
      "name": "burn",
      "outputs": [
        {
          "internalType": "uint256",
          "name": "token0Amount",
          "type": "uint256"
        },
        {
          "internalType": "uint256",
          "name": "token1Amount",
          "type": "uint256"
        }
      ],
      "stateMutability": "nonpayable",
      "type": "function"
    },
    {
      "inputs": [
        {
          "internalType": "int24",
          "name": "lower",
          "type": "int24"
        },
        {
          "internalType": "int24",
          "name": "upper",
          "type": "int24"
        },
        {
          "internalType": "uint256",
          "name": "desiredToken0Fees",
          "type": "uint256"
        },
        {
          "internalType": "uint256",
          "name": "desiredToken1Fees",
          "type": "uint256"
        }
      ],
      "name": "collect",
      "outputs": [
        {
          "internalType": "uint256",
          "name": "token0Fees",
          "type": "uint256"
        },
        {
          "internalType": "uint256",
          "name": "token1Fees",
          "type": "uint256"
        }
      ],
      "stateMutability": "nonpayable",
      "type": "function"
    },
    {
      "inputs": [],
      "name": "collectProtocolFee",
      "outputs": [
        {
          "internalType": "uint128",
          "name": "amount0",
          "type": "uint128"
        },
        {
          "internalType": "uint128",
          "name": "amount1",
          "type": "uint128"
        }
      ],
      "stateMutability": "nonpayable",
      "type": "function"
    },
    {
      "inputs": [
        {
          "internalType": "int24",
          "name": "lower",
          "type": "int24"
        },
        {
          "internalType": "int24",
          "name": "upper",
          "type": "int24"
        },
        {
          "internalType": "uint256",
          "name": "desiredReward",
          "type": "uint256"
        }
      ],
      "name": "collectReward",
      "outputs": [
        {
          "internalType": "uint256",
          "name": "rewardAmount",
          "type": "uint256"
        }
      ],
      "stateMutability": "nonpayable",
      "type": "function"
    },
    {
      "inputs": [],
      "name": "createdBlockNumber",
      "outputs": [
        {
          "internalType": "uint256",
          "name": "",
          "type": "uint256"
        }
      ],
      "stateMutability": "view",
      "type": "function"
    },
    {
      "inputs": [],
      "name": "createdTime",
      "outputs": [
        {
          "internalType": "uint256",
          "name": "",
          "type": "uint256"
        }
      ],
      "stateMutability": "view",
      "type": "function"
    },
    {
      "inputs": [
        {
          "internalType": "uint128",
          "name": "airdrop0",
          "type": "uint128"
        },
        {
          "internalType": "uint128",
          "name": "airdrop1",
          "type": "uint128"
        },
        {
          "internalType": "uint128",
          "name": "reward",
          "type": "uint128"
        },
        {
          "internalType": "uint256",
          "name": "startTime",
          "type": "uint256"
        },
        {
          "internalType": "uint256",
          "name": "period",
          "type": "uint256"
        }
      ],
      "name": "depositAirdropAndReward",
      "outputs": [],
      "stateMutability": "nonpayable",
      "type": "function"
    },
    {
      "inputs": [],
      "name": "depositedReward",
      "outputs": [
        {
          "internalType": "uint128",
          "name": "",
          "type": "uint128"
        }
      ],
      "stateMutability": "view",
      "type": "function"
    },
    {
      "inputs": [],
      "name": "factory",
      "outputs": [
        {
          "internalType": "address",
          "name": "",
          "type": "address"
        }
      ],
      "stateMutability": "view",
      "type": "function"
    },
    {
      "inputs": [],
      "name": "feeGrowthGlobal0",
      "outputs": [
        {
          "internalType": "uint256",
          "name": "",
          "type": "uint256"
        }
      ],
      "stateMutability": "view",
      "type": "function"
    },
    {
      "inputs": [],
      "name": "feeGrowthGlobal1",
      "outputs": [
        {
          "internalType": "uint256",
          "name": "",
          "type": "uint256"
        }
      ],
      "stateMutability": "view",
      "type": "function"
    },
    {
      "inputs": [
        {
          "internalType": "address",
          "name": "recipient",
          "type": "address"
        },
        {
          "internalType": "uint256",
          "name": "amount0",
          "type": "uint256"
        },
        {
          "internalType": "uint256",
          "name": "amount1",
          "type": "uint256"
        },
        {
          "internalType": "bytes",
          "name": "data",
          "type": "bytes"
        }
      ],
      "name": "flash",
      "outputs": [],
      "stateMutability": "nonpayable",
      "type": "function"
    },
    {
      "inputs": [],
      "name": "getAssets",
      "outputs": [
        {
          "internalType": "address[]",
          "name": "assets",
          "type": "address[]"
        }
      ],
      "stateMutability": "view",
      "type": "function"
    },
    {
      "inputs": [],
      "name": "getImmutables",
      "outputs": [
        {
          "internalType": "uint128",
          "name": "_MAX_TICK_LIQUIDITY",
          "type": "uint128"
        },
        {
          "internalType": "uint24",
          "name": "_tickSpacing",
          "type": "uint24"
        },
        {
          "internalType": "uint24",
          "name": "_swapFee",
          "type": "uint24"
        },
        {
          "internalType": "address",
          "name": "_factory",
          "type": "address"
        },
        {
          "internalType": "address",
          "name": "_masterDeployer",
          "type": "address"
        },
        {
          "internalType": "address",
          "name": "_token0",
          "type": "address"
        },
        {
          "internalType": "address",
          "name": "_token1",
          "type": "address"
        }
      ],
      "stateMutability": "view",
      "type": "function"
    },
    {
      "inputs": [],
      "name": "getPriceAndNearestTicks",
      "outputs": [
        {
          "internalType": "uint160",
          "name": "_price",
          "type": "uint160"
        },
        {
          "internalType": "int24",
          "name": "_nearestTick",
          "type": "int24"
        }
      ],
      "stateMutability": "view",
      "type": "function"
    },
    {
      "inputs": [],
      "name": "getReserves",
      "outputs": [
        {
          "internalType": "uint128",
          "name": "_reserve0",
          "type": "uint128"
        },
        {
          "internalType": "uint128",
          "name": "_reserve1",
          "type": "uint128"
        }
      ],
      "stateMutability": "view",
      "type": "function"
    },
    {
      "inputs": [],
      "name": "getSecondsGrowthAndLastObservation",
      "outputs": [
        {
          "internalType": "uint160",
          "name": "_secondsGrowthGlobal",
          "type": "uint160"
        },
        {
          "internalType": "uint32",
          "name": "_lastObservation",
          "type": "uint32"
        }
      ],
      "stateMutability": "view",
      "type": "function"
    },
    {
      "inputs": [],
      "name": "getTokenProtocolFees",
      "outputs": [
        {
          "internalType": "uint128",
          "name": "_token0ProtocolFee",
          "type": "uint128"
        },
        {
          "internalType": "uint128",
          "name": "_token1ProtocolFee",
          "type": "uint128"
        }
      ],
      "stateMutability": "view",
      "type": "function"
    },
    {
      "inputs": [
        {
          "internalType": "bytes",
          "name": "_deployData",
          "type": "bytes"
        },
        {
          "internalType": "address",
          "name": "_masterDeployer",
          "type": "address"
        }
      ],
      "name": "initialize",
      "outputs": [],
      "stateMutability": "nonpayable",
      "type": "function"
    },
    {
      "inputs": [],
      "name": "liquidity",
      "outputs": [
        {
          "internalType": "uint128",
          "name": "",
          "type": "uint128"
        }
      ],
      "stateMutability": "view",
      "type": "function"
    },
    {
      "inputs": [
        {
          "components": [
            {
              "internalType": "int24",
              "name": "lowerOld",
              "type": "int24"
            },
            {
              "internalType": "int24",
              "name": "lower",
              "type": "int24"
            },
            {
              "internalType": "int24",
              "name": "upperOld",
              "type": "int24"
            },
            {
              "internalType": "int24",
              "name": "upper",
              "type": "int24"
            },
            {
              "internalType": "uint128",
              "name": "amount0Desired",
              "type": "uint128"
            },
            {
              "internalType": "uint128",
              "name": "amount1Desired",
              "type": "uint128"
            }
          ],
          "internalType": "struct IConcentratedLiquidityPoolStruct.MintParams",
          "name": "mintParams",
          "type": "tuple"
        }
      ],
      "name": "mint",
      "outputs": [
        {
          "internalType": "uint256",
          "name": "liquidityMinted",
          "type": "uint256"
        }
      ],
      "stateMutability": "nonpayable",
      "type": "function"
    },
    {
      "inputs": [],
      "name": "nearestTick",
      "outputs": [
        {
          "internalType": "int24",
          "name": "",
          "type": "int24"
        }
      ],
      "stateMutability": "view",
      "type": "function"
    },
    {
      "inputs": [
        {
          "internalType": "address",
          "name": "",
          "type": "address"
        },
        {
          "internalType": "int24",
          "name": "",
          "type": "int24"
        },
        {
          "internalType": "int24",
          "name": "",
          "type": "int24"
        }
      ],
      "name": "positionRewards",
      "outputs": [
        {
          "internalType": "uint256",
          "name": "rewardGrowthInsideLast",
          "type": "uint256"
        },
        {
          "internalType": "uint128",
          "name": "rewardOwed",
          "type": "uint128"
        }
      ],
      "stateMutability": "view",
      "type": "function"
    },
    {
      "inputs": [
        {
          "internalType": "address",
          "name": "",
          "type": "address"
        },
        {
          "internalType": "int24",
          "name": "",
          "type": "int24"
        },
        {
          "internalType": "int24",
          "name": "",
          "type": "int24"
        }
      ],
      "name": "positions",
      "outputs": [
        {
          "internalType": "uint128",
          "name": "liquidity",
          "type": "uint128"
        },
        {
          "internalType": "uint256",
          "name": "feeGrowthInside0Last",
          "type": "uint256"
        },
        {
          "internalType": "uint256",
          "name": "feeGrowthInside1Last",
          "type": "uint256"
        },
        {
          "internalType": "uint128",
          "name": "feeOwed0",
          "type": "uint128"
        },
        {
          "internalType": "uint128",
          "name": "feeOwed1",
          "type": "uint128"
        }
      ],
      "stateMutability": "view",
      "type": "function"
    },
    {
      "inputs": [],
      "name": "price",
      "outputs": [
        {
          "internalType": "uint160",
          "name": "",
          "type": "uint160"
        }
      ],
      "stateMutability": "view",
      "type": "function"
    },
    {
      "inputs": [],
      "name": "protocolFee",
      "outputs": [
        {
          "internalType": "uint256",
          "name": "",
          "type": "uint256"
        }
      ],
      "stateMutability": "view",
      "type": "function"
    },
    {
      "inputs": [
        {
          "internalType": "int24",
          "name": "lowerTick",
          "type": "int24"
        },
        {
          "internalType": "int24",
          "name": "upperTick",
          "type": "int24"
        }
      ],
      "name": "rangeFeeGrowth",
      "outputs": [
        {
          "internalType": "uint256",
          "name": "feeGrowthInside0",
          "type": "uint256"
        },
        {
          "internalType": "uint256",
          "name": "feeGrowthInside1",
          "type": "uint256"
        }
      ],
      "stateMutability": "view",
      "type": "function"
    },
    {
      "inputs": [
        {
          "internalType": "int24",
          "name": "lowerTick",
          "type": "int24"
        },
        {
          "internalType": "int24",
          "name": "upperTick",
          "type": "int24"
        }
      ],
      "name": "rangeRewardGrowth",
      "outputs": [
        {
          "internalType": "uint256",
          "name": "rewardGrowthInside",
          "type": "uint256"
        }
      ],
      "stateMutability": "view",
      "type": "function"
    },
    {
      "inputs": [
        {
          "internalType": "address",
          "name": "_logger",
          "type": "address"
        }
      ],
      "name": "registerLogger",
      "outputs": [],
      "stateMutability": "nonpayable",
      "type": "function"
    },
    {
      "inputs": [
        {
          "internalType": "address",
          "name": "_token",
          "type": "address"
        }
      ],
      "name": "registerRewardToken",
      "outputs": [],
      "stateMutability": "nonpayable",
      "type": "function"
    },
    {
      "inputs": [],
      "name": "rewardGrowthGlobal",
      "outputs": [
        {
          "internalType": "uint256",
          "name": "",
          "type": "uint256"
        }
      ],
      "stateMutability": "view",
      "type": "function"
    },
    {
      "inputs": [
        {
          "internalType": "int24",
          "name": "",
          "type": "int24"
        }
      ],
      "name": "rewardGrowthOutsidePerTicks",
      "outputs": [
        {
          "internalType": "uint256",
          "name": "",
          "type": "uint256"
        }
      ],
      "stateMutability": "view",
      "type": "function"
    },
    {
      "inputs": [],
      "name": "rewardPerSecond",
      "outputs": [
        {
          "internalType": "uint256",
          "name": "",
          "type": "uint256"
        }
      ],
      "stateMutability": "view",
      "type": "function"
    },
    {
      "inputs": [],
      "name": "rewardToken",
      "outputs": [
        {
          "internalType": "address",
          "name": "",
          "type": "address"
        }
      ],
      "stateMutability": "view",
      "type": "function"
    },
    {
      "inputs": [
        {
          "internalType": "uint160",
          "name": "_price",
          "type": "uint160"
        }
      ],
      "name": "setPrice",
      "outputs": [],
      "stateMutability": "nonpayable",
      "type": "function"
    },
    {
      "inputs": [
        {
          "internalType": "uint256",
          "name": "_protocolFee",
          "type": "uint256"
        }
      ],
      "name": "setProtocolFee",
      "outputs": [],
      "stateMutability": "nonpayable",
      "type": "function"
    },
    {
      "inputs": [
        {
          "internalType": "bytes",
          "name": "data",
          "type": "bytes"
        }
      ],
      "name": "swap",
      "outputs": [
        {
          "internalType": "uint256",
          "name": "amountOut",
          "type": "uint256"
        }
      ],
      "stateMutability": "nonpayable",
      "type": "function"
    },
    {
      "inputs": [],
      "name": "swapFee",
      "outputs": [
        {
          "internalType": "uint24",
          "name": "",
          "type": "uint24"
        }
      ],
      "stateMutability": "view",
      "type": "function"
    },
    {
      "inputs": [],
      "name": "swapFeeGrowthGlobal0",
      "outputs": [
        {
          "internalType": "uint256",
          "name": "",
          "type": "uint256"
        }
      ],
      "stateMutability": "view",
      "type": "function"
    },
    {
      "inputs": [],
      "name": "swapFeeGrowthGlobal1",
      "outputs": [
        {
          "internalType": "uint256",
          "name": "",
          "type": "uint256"
        }
      ],
      "stateMutability": "view",
      "type": "function"
    },
    {
      "inputs": [],
      "name": "tickSpacing",
      "outputs": [
        {
          "internalType": "uint24",
          "name": "",
          "type": "uint24"
        }
      ],
      "stateMutability": "view",
      "type": "function"
    },
    {
      "inputs": [
        {
          "internalType": "int24",
          "name": "",
          "type": "int24"
        }
      ],
      "name": "ticks",
      "outputs": [
        {
          "internalType": "int24",
          "name": "previousTick",
          "type": "int24"
        },
        {
          "internalType": "int24",
          "name": "nextTick",
          "type": "int24"
        },
        {
          "internalType": "uint128",
          "name": "liquidity",
          "type": "uint128"
        },
        {
          "internalType": "uint256",
          "name": "feeGrowthOutside0",
          "type": "uint256"
        },
        {
          "internalType": "uint256",
          "name": "feeGrowthOutside1",
          "type": "uint256"
        },
        {
          "internalType": "uint160",
          "name": "secondsGrowthOutside",
          "type": "uint160"
        }
      ],
      "stateMutability": "view",
      "type": "function"
    },
    {
      "inputs": [],
      "name": "token0",
      "outputs": [
        {
          "internalType": "address",
          "name": "",
          "type": "address"
        }
      ],
      "stateMutability": "view",
      "type": "function"
    },
    {
      "inputs": [],
      "name": "token1",
      "outputs": [
        {
          "internalType": "address",
          "name": "",
          "type": "address"
        }
      ],
      "stateMutability": "view",
      "type": "function"
    },
    {
      "inputs": [],
      "name": "totalTicks",
      "outputs": [
        {
          "internalType": "uint256",
          "name": "",
          "type": "uint256"
        }
      ],
      "stateMutability": "view",
      "type": "function"
    }
  ],
  "transactionHash": "0x9c48d100873224d2fdc6c1561b4699927dce2783668ab61762042a4f12551cc8",
  "args": [],
  "numDeployments": 2,
  "solcInputHash": "c8c08249931eea5d7a01ed7104ad2735",
  "bytecode": "0x608060405234801561001057600080fd5b50615cc180620000216000396000f3fe608060405234801561001057600080fd5b506004361061032b5760003560e01c8063a34123a7116101b2578063cf78756b116100f9578063e5ff7f46116100a2578063f7c618c11161007c578063f7c618c1146108e8578063f949e8b7146108fb578063fa1a169c14610903578063fb5d80b31461090c57600080fd5b8063e5ff7f46146107cc578063f30dba93146107df578063f719dac61461088a57600080fd5b8063d5514792116100d3578063d551479214610786578063d90bda4e146107a6578063e46dbc98146107b957600080fd5b8063cf78756b14610756578063d0c93a7c1461075e578063d21220a71461077357600080fd5b8063bd7d1eea1161015b578063caa4b46a11610135578063caa4b46a14610728578063cce2df0314610730578063cf5431531461074357600080fd5b8063bd7d1eea146106ef578063c03c251414610702578063c45a01551461071557600080fd5b8063b0e21e8a1161018c578063b0e21e8a14610632578063b2f4bdb01461063b578063bcdb4dad1461064457600080fd5b8063a34123a71461057a578063aaca1b4d1461058d578063acfe88f81461061f57600080fd5b806367e4ac2c116102765780638c347f9b1161021f5780639da12096116101f95780639da1209614610538578063a00e8f2914610540578063a035b1fe1461056757600080fd5b80638c347f9b146104fe5780638f10369a14610527578063956afe451461052f57600080fd5b8063735541d111610250578063735541d1146104da578063787dce3d146104e357806384e02017146104f657600080fd5b806367e4ac2c146104905780636d59d802146104a557806370ed1b86146104d157600080fd5b80632df94b0f116102d857806354cf2aeb116102b257806354cf2aeb14610449578063627dd56a1461047557806366f657c51461048857600080fd5b80632df94b0f1461040357806340306fb61461042b578063490e6cbc1461043457600080fd5b80630dfe1681116103095780630dfe1681146103a4578063111ba27d146103cf5780631a686502146103d857600080fd5b806306f912f3146103305780630902f1ac146103565780630ae9ba8a14610391575b600080fd5b61034361033e36600461523f565b61092b565b6040519081526020015b60405180910390f35b6014546015546001600160801b03600160801b909204821691165b604080516001600160801b0393841681529290911660208301520161034d565b61034361039f3660046152ad565b6109a8565b6003546103b7906001600160a01b031681565b6040516001600160a01b03909116815260200161034d565b610343601e5481565b6006546103eb906001600160801b031681565b6040516001600160801b03909116815260200161034d565b610416610411366004615354565b610f5c565b6040805192835260208301919091520161034d565b610343600e5481565b6104476104423660046153af565b6110db565b005b6000546104619065010000000000900462ffffff1681565b60405162ffffff909116815260200161034d565b6103436104833660046154d2565b6114f4565b610343611d09565b610498611d26565b60405161034d919061554b565b600754604080516001600160a01b0383168152600160a01b90920463ffffffff1660208301520161034d565b61034360095481565b61034360185481565b6104476104f136600461555e565b611dba565b610343611e0d565b601654604080516001600160a01b0383168152600160a01b90920460020b60208301520161034d565b610343611e28565b610343600f5481565b610343611e43565b60165461055490600160a01b900460020b81565b60405160029190910b815260200161034d565b6016546103b7906001600160a01b031681565b610416610588366004615577565b611e56565b6105e961059b3660046155be565b601b60209081526000938452604080852082529284528284209052825290208054600182015460028301546003909301546001600160801b0392831693919281811691600160801b90041685565b604080516001600160801b039687168152602081019590955284019290925283166060830152909116608082015260a00161034d565b61041661062d366004615609565b612203565b610343601f5481565b610343601d5481565b61069a6000546005546001546003546004546001600160801b03680100000000000000008604169562ffffff62010000870481169665010000000000900416946001600160a01b03908116948116938116921690565b604080516001600160801b03909816885262ffffff968716602089015295909416948601949094526001600160a01b0391821660608601528116608085015291821660a08401521660c082015260e00161034d565b6104476106fd366004615642565b612525565b610343610710366004615609565b61257f565b6005546103b7906001600160a01b031681565b61037161268a565b61044761073e36600461565f565b612a3f565b6104476107513660046156a6565b612fa4565b610343613308565b6000546104619062010000900462ffffff1681565b6004546103b7906001600160a01b031681565b6103436107943660046156fb565b601a6020526000908152604090205481565b6104476107b4366004615642565b61331b565b6104476107c7366004615642565b6133c1565b6013546103eb906001600160801b031681565b61083f6107ed3660046156fb565b60196020526000908152604090208054600182015460028084015460039094015483820b946301000000850490920b93660100000000000090046001600160801b03169291906001600160a01b031686565b60408051600297880b81529590960b60208601526001600160801b0390931694840194909452606083015260808201929092526001600160a01b0390911660a082015260c00161034d565b6108cb6108983660046155be565b601c602090815260009384526040808520825292845282842090528252902080546001909101546001600160801b031682565b604080519283526001600160801b0390911660208301520161034d565b6010546103b7906001600160a01b031681565b610343613445565b61034360085481565b6013546014546001600160801b03600160801b90920482169116610371565b600060175460021415610951576040516303cb96db60e21b815260040160405180910390fd5b6002601755610961338585613457565b61096d33858585613535565b6010549091506001600160a01b03166109855761099c565b60105461099c906001600160a01b031682336135cf565b60016017559392505050565b6000601754600214156109ce576040516303cb96db60e21b815260040160405180910390fd5b6002601755602082015160608301516109e791906135e3565b60006109f68360200151613748565b6001600160a01b031690506000610a108460600151613748565b60165460a086015160808701516001600160a01b0393841694509190921691610a4b918591859185916001600160801b039081169116613a94565b93506f7fffffffffffffffffffffffffffffff841115610a97576040517f35278d1200000000000000000000000000000000000000000000000000000000815260040160405180910390fd5b83610ace576040517f83ecd22400000000000000000000000000000000000000000000000000000000815260040160405180910390fd5b610ad6613b28565b6000601973fF8E5bDf54D5ab74D2E56CA0E575348A52B95B3d63825c72999091601a6040518060800160405280600a54600854610b13919061572e565b8152602001600b54600954610b28919061572e565b81526020016011548152602001600760009054906101000a90046001600160a01b03166001600160a01b03168152508a600001518b602001518c604001518d606001518d601660149054906101000a900460020b8c6040518b63ffffffff1660e01b8152600401610ba29a99989796959493929190615746565b604080518083038186803b158015610bb957600080fd5b505af4158015610bcd573d6000803e3d6000fd5b505050506040513d601f19601f82011682018060405250810190610bf19190615803565b6016805462ffffff909316600160a01b0262ffffff60a01b1990931692909217909155601880549192508291600090610c2b90849061572e565b9250508190555050610c47338660200151876060015187613c62565b808311158015610c5657508181105b15610c8657600680546001600160801b038082168701166fffffffffffffffffffffffffffffffff199091161790555b600080610c97858585896001613c8a565b600354600480546040517f5f16529a0000000000000000000000000000000000000000000000000000000081526001600160a01b03938416928101929092529190911660248201526001600160801b0380841660448301528216606482015291935091503390635f16529a90608401600060405180830381600087803b158015610d2057600080fd5b505af1158015610d34573d6000803e3d6000fd5b50505050816001600160801b0316600014610de15781601460108282829054906101000a90046001600160801b0316610d6d9190615831565b92506101000a8154816001600160801b0302191690836001600160801b03160217905550610daf600360009054906101000a90046001600160a01b0316613cf4565b601454600160801b90046001600160801b03161115610de15760405163420231d560e11b815260040160405180910390fd5b6001600160801b03811615610e7b5760158054829190600090610e0e9084906001600160801b0316615831565b92506101000a8154816001600160801b0302191690836001600160801b03160217905550610e50600460009054906101000a90046001600160a01b0316613cf4565b6015546001600160801b03161115610e7b57604051637218102160e11b815260040160405180910390fd5b600280546040805160a08101825260208b810151850b82526060808d0151860b9183019182526001600160801b03888116848601908152908816918401918252608084018d815294517ffbad73910000000000000000000000000000000000000000000000000000000081529351870b6004850152915190950b6024830152516044820152925160648401525160848301526001600160a01b03169063fbad73919060a401600060405180830381600087803b158015610f3a57600080fd5b505af1925050508015610f4b575060015b505050600160175550919392505050565b60008060175460021415610f83576040516303cb96db60e21b815260040160405180910390fd5b6002601755610f93338787613df2565b610fa03387878787613f21565b601480549294509092508391601090610fca908490600160801b90046001600160801b031661585c565b92506101000a8154816001600160801b0302191690836001600160801b0316021790555080601560008282829054906101000a90046001600160801b0316611012919061585c565b92506101000a8154816001600160801b0302191690836001600160801b0316021790555061104133838361402c565b6002546040805180820182528481526020810184815291517f1228c47f00000000000000000000000000000000000000000000000000000000815290516004820152905160248201526001600160a01b0390911690631228c47f90604401600060405180830381600087803b1580156110b957600080fd5b505af19250505080156110ca575060015b506001601755909590945092505050565b601754600214156110ff576040516303cb96db60e21b815260040160405180910390fd5b60026017556006546001600160801b031680611147576040517f83ecd22400000000000000000000000000000000000000000000000000000000815260040160405180910390fd5b6014546015546001600160801b03600160801b9092048216911661116c88888861402c565b60008061118b8989600060059054906101000a900462ffffff1661405a565b6040517fc3924ed60000000000000000000000000000000000000000000000000000000081529193509150339063c3924ed6906111d290859085908c908c90600401615884565b600060405180830381600087803b1580156111ec57600080fd5b505af1158015611200573d6000803e3d6000fd5b5050600354600092508291508190611220906001600160a01b0316613cf4565b60045490915060009061123b906001600160a01b0316613cf4565b905081611248878a61572e565b11156112675760405163420231d560e11b815260040160405180910390fd5b80611272868961572e565b111561129157604051637218102160e11b815260040160405180910390fd5b61129a8261408f565b601480546001600160801b03928316600160801b0292169190911790556112c08161408f565b601580546fffffffffffffffffffffffffffffffff19166001600160801b03929092169190911790556112f388836158c1565b93506112ff87826158c1565b601f5490935091505082156113a257600061131d84836127106140aa565b905080601360108282829054906101000a90046001600160801b03166113439190615831565b92506101000a8154816001600160801b0302191690836001600160801b0316021790555061138a816001600160801b03168561137f91906158c1565b600160801b8b6140e8565b6008600082825461139b919061572e565b9091555050505b811561142b5760006113b783836127106140aa565b6014805491925082916000906113d79084906001600160801b0316615831565b92506101000a8154816001600160801b0302191690836001600160801b03160217905550611413816001600160801b03168461137f91906158c1565b60096000828254611424919061572e565b9091555050505b6002546040805160a081018252338152602081018f81528183018f8152606083018881526080840188815294517f2987fbcc00000000000000000000000000000000000000000000000000000000815293516001600160a01b039081166004860152925160248501529051604484015251606483015291516084820152911690632987fbcc9060a401600060405180830381600087803b1580156114ce57600080fd5b505af19250505080156114df575060015b50505060016017555050505050505050505050565b60006017546002141561151a576040516303cb96db60e21b815260040160405180910390fd5b60026017819055506000808380602001905181019061153991906158e8565b91509150600082611555576015546001600160801b0316611569565b601454600160801b90046001600160801b03165b6001600160801b031661159c8461158b576004546001600160a01b0316613cf4565b6003546001600160a01b0316613cf4565b6115a691906158c1565b90506000604051806101200160405280600081526020016000815260200160008152602001856115d8576008546115dc565b6009545b8152602001856115ee576009546115f2565b6008545b81526016546001600160a01b031660208201526006546001600160801b03166040820152606081018490526080018561165157601654600160a01b9004600290810b60009081526019602052604090205463010000009004900b61165f565b601654600160a01b900460020b5b60020b9052905061166e613b28565b60115461167a8261419b565b60e082015115611a0d576000611694836101000151613748565b6001600160a01b0316905060008087156117c55760006116bf8660c00151858860a001516000614212565b9050808660e00151116117855760c086015160a087015160e088015160609290921b91600091611705918491906116f69082615914565b611700908661572e565b6140aa565b905080861115801561171a57508760a0015181105b6117585761174c828960e001518a60a00151856117379190615949565b611741919061572e565b808204910615150190565b6001600160a01b031690505b61176d8860c00151828a60a00151600061426a565b60a0890191909152600060e089015293506117bf9050565b61179a8660c00151858860a00151600061426a565b60a0870185905260e0870180519194506001935082916117bb9083906158c1565b9052505b5061187a565b60006117dc8660c001518760a0015186600061426a565b9050808660e001511161183e5760006118028760e00151600160601b8960c001516140e8565b8760a00151611811919061572e565b90506118288760c001518860a00151836000614212565b60a0880191909152600060e08801529250611878565b6118538660c001518760a00151866000614212565b60a0870185905260e0870180519194506001935082916118749083906158c1565b9052505b505b60c0850151156118cc576118b782600060059054906101000a900462ffffff16601f548860c0015189602001518e8b604001518c60600151614294565b60608901526040880152602087019190915298505b8015611a05576118dd85858a61432c565b60c0850151611a055761010085015160020b620d89e71914806119165750611908620d89e71961595d565b60020b85610100015160020b145b156119de5787156119695761194060018660a0015161193591906158c1565b6401000276a36143e4565b60a086015261010085018051600290810b600090815260196020526040902054900b90526119d6565b6119aa8560a00151600161197d919061572e565b61199c600173fffd8963efd1fc6a506488495d951d5263988d26615980565b6001600160a01b03166143fb565b60a086015261010085018051600290810b60009081526019602052604090205463010000009004900b90525b505050611a0d565b6119ec856101000151613748565b6001600160a01b031660a0860152611a0585858a61432c565b50505061167a565b60a08201516016805473ffffffffffffffffffffffffffffffffffffffff19166001600160a01b03909216919091179055600085611a6657610100830151600290810b600090815260196020526040902054900b611a6d565b8261010001515b601654909150600282810b600160a01b909204900b14611ad1576016805462ffffff60a01b1916600160a01b62ffffff84160217905560c0830151600680546fffffffffffffffffffffffffffffffff19166001600160801b039092169190911790555b611adc86858961440a565b611aef868460600151856040015161456c565b60e083015115611c2457600086611b4357601960008181611b13620d89e71961595d565b600290810b8252602080830193909352604091820160009081205490910b84529183019390935291019020611b7e565b60196020527f8b687876df6025befed93a16f72cd2848615619f141fc2441f1db80badfc7d3e546301000000900460020b6000908152604090205b60e08501518154919250600091611bae9190600160801b90660100000000000090046001600160801b03166140e8565b90508715611bee5780826001016000828254611bca919061572e565b925050819055508060086000828254611be3919061572e565b90915550611c219050565b80826002016000828254611c02919061572e565b925050819055508060096000828254611c1b919061572e565b90915550505b50505b8515611c4657600454611c41906001600160a01b031688876135cf565b611c5d565b600354611c5d906001600160a01b031688876135cf565b600254604080516060810182528815158152602081018781528183018b815292517f91accd5f000000000000000000000000000000000000000000000000000000008152915115156004830152516024820152905160448201526001600160a01b03909116906391accd5f90606401600060405180830381600087803b158015611ce657600080fd5b505af1925050508015611cf7575060015b50505060016017555092949350505050565b6000611d136145e8565b611d1d5750600090565b600c545b905090565b6040805160028082526060808301845292602083019080368337505060035482519293506001600160a01b031691839150600090611d6657611d666159a0565b6001600160a01b039283166020918202929092010152600454825191169082906001908110611d9757611d976159a0565b60200260200101906001600160a01b031690816001600160a01b03168152505090565b6005546001600160a01b03163314611de55760405163ea8e4eb560e01b815260040160405180910390fd5b612710811115611e0857604051633494a40d60e21b815260040160405180910390fd5b601f55565b6000611e176145e8565b611e215750600090565b50600d5490565b6000611e326145e8565b611e3c5750600090565b5060125490565b6000611d21600854600a54600c54614602565b60008060175460021415611e7d576040516303cb96db60e21b815260040160405180910390fd5b60026017556000611e8d86613748565b90506000611e9a86613748565b6016549091506001600160a01b0316611eb1613b28565b806001600160a01b0316836001600160a01b031611158015611ee45750816001600160a01b0316816001600160a01b0316105b15611f1557600680546001600160801b03808216899003166fffffffffffffffffffffffffffffffff199091161790555b611f47836001600160a01b0316836001600160a01b0316836001600160a01b0316896001600160801b03166000613c8a565b6001600160801b039182169650811694506f7fffffffffffffffffffffffffffffff9087161115611fa4576040517f35278d1200000000000000000000000000000000000000000000000000000000815260040160405180910390fd5b611fb8338989611fb38a6159b6565b613c62565b601480546001600160801b03600160801b808304821689900382160291811691909117909155601580548083168790039092166fffffffffffffffffffffffffffffffff199290921691909117905561201233868661402c565b6016546040517f7c91cb9800000000000000000000000000000000000000000000000000000000815260196004820152601a602482015260028a810b604483015289810b60648301526001600160801b0389166084830152600160a01b90920490910b60a482015260009073fF8E5bDf54D5ab74D2E56CA0E575348A52B95B3d90637c91cb989060c401604080518083038186803b1580156120b357600080fd5b505af41580156120c7573d6000803e3d6000fd5b505050506040513d601f19601f820116820180604052508101906120eb9190615803565b6016805462ffffff909316600160a01b0262ffffff60a01b19909316929092179091556018805491925082916000906121259084906158c1565b9091555050600280546040805160a0810182528c840b81528b840b602082019081528183018b8152606083018b81526001600160801b038e166080850190815294517ffc9482d20000000000000000000000000000000000000000000000000000000081529351870b6004850152915190950b602483015293516044820152925160648401525160848301526001600160a01b0316915063fc9482d29060a401600060405180830381600087803b1580156121df57600080fd5b505af19250505080156121f0575060015b5050506001601755509094909350915050565b6016546000908190819061221f906001600160a01b0316614662565b90506000601960008760020b60020b81526020019081526020016000206040518060c00160405290816000820160009054906101000a900460020b60020b60020b81526020016000820160039054906101000a900460020b60020b60020b81526020016000820160069054906101000a90046001600160801b03166001600160801b03166001600160801b0316815260200160018201548152602001600282015481526020016003820160009054906101000a90046001600160a01b03166001600160a01b03166001600160a01b03168152505090506000601960008760020b60020b81526020019081526020016000206040518060c00160405290816000820160009054906101000a900460020b60020b60020b81526020016000820160039054906101000a900460020b60020b60020b81526020016000820160069054906101000a90046001600160801b03166001600160801b03166001600160801b0316815260200160018201548152602001600282015481526020016003820160009054906101000a90046001600160a01b03166001600160a01b03166001600160a01b03168152505090506000806000806123f6600660009054906101000a90046001600160801b03166001600160801b03166149bb565b9150915081600a5460085461240b919061572e565b612415919061572e565b935080600b54600954612428919061572e565b612432919061572e565b925050506000808660020b8b60020b1361246e576060860151612455908361572e565b9150856080015181612467919061572e565b90506124a6565b606086015161247d90856158c1565b612487908361572e565b915085608001518361249991906158c1565b6124a3908261572e565b90505b8960020b8760020b12156124dc5760608501516124c3908361572e565b91508460800151816124d5919061572e565b9050612514565b60608501516124eb90856158c1565b6124f5908361572e565b915084608001518361250791906158c1565b612511908261572e565b90505b920399919003975095505050505050565b6005546001600160a01b031633146125505760405163ea8e4eb560e01b815260040160405180910390fd5b6002805473ffffffffffffffffffffffffffffffffffffffff19166001600160a01b0392909216919091179055565b6016546000908190612599906001600160a01b0316614662565b6006549091506000906125b4906001600160801b03166149fe565b6011546125c1919061572e565b905060008260020b8660020b136125f757600286900b6000908152601a60205260409020546125f0908261572e565b9050612622565b600286900b6000908152601a602052604090205461261590836158c1565b61261f908261572e565b90505b8460020b8360020b121561265557600285900b6000908152601a602052604090205461264e908261572e565b9050612680565b600285900b6000908152601a602052604090205461267390836158c1565b61267d908261572e565b90505b9003949350505050565b600080601754600214156126b1576040516303cb96db60e21b815260040160405180910390fd5b6002601755600154604080517fef36925200000000000000000000000000000000000000000000000000000000815290516000926001600160a01b03169163ef369252916004808301926020929190829003018186803b15801561271457600080fd5b505afa158015612728573d6000803e3d6000fd5b505050506040513d601f19601f8201168201806040525081019061274c91906159ec565b604080516002808252606082018352929350600092909160208301908036833750506040805160028082526060820183529394506000939092509060208301908036833701905050601354909150600160801b90046001600160801b0316156128a057601380546001600160801b0380821690925560148054600160801b9283900484169850889391926010926127e792869290041661585c565b92506101000a8154816001600160801b0302191690836001600160801b03160217905550612834600360009054906101000a90046001600160a01b0316866001600160801b0316856135cf565b60035482516001600160a01b03909116908390600090612856576128566159a0565b60200260200101906001600160a01b031690816001600160a01b031681525050846001600160801b031681600081518110612893576128936159a0565b6020026020010181815250505b6014546001600160801b0316156129a957601480546fffffffffffffffffffffffffffffffff198116909155601580546001600160801b03928316965086926000916128ee9185911661585c565b92506101000a8154816001600160801b0302191690836001600160801b0316021790555061293b600460009054906101000a90046001600160a01b0316856001600160801b0316856135cf565b60045482516001600160a01b03909116908390600190811061295f5761295f6159a0565b60200260200101906001600160a01b031690816001600160a01b031681525050836001600160801b03168160018151811061299c5761299c6159a0565b6020026020010181815250505b6001600160a01b0383163b15612a33576040517ff03328300000000000000000000000000000000000000000000000000000000081526001600160a01b0384169063f033283090612a009085908590600401615a09565b600060405180830381600087803b158015612a1a57600080fd5b505af1158015612a2e573d6000803e3d6000fd5b505050505b50505060016017559091565b600054610100900460ff16612a5a5760005460ff1615612a5e565b303b155b612ad55760405162461bcd60e51b815260206004820152602e60248201527f496e697469616c697a61626c653a20636f6e747261637420697320616c72656160448201527f647920696e697469616c697a656400000000000000000000000000000000000060648201526084015b60405180910390fd5b600054610100900460ff16158015612b1457600080547fffffffffffffffffffffffffffffffffffffffffffffffffffffffffffff0000166101011790555b600080600080600087806020019051810190612b309190615a73565b600380546001600160a01b0380881673ffffffffffffffffffffffffffffffffffffffff199283161790925560048054838816908316179055601080548387169083161790556000805462ffffff80861662010000027fffffffffffffffffffffffffffffffffffffffffffffffffffffff000000ffff9188166501000000000002919091167fffffffffffffffffffffffffffffffffffffffffffffffff000000000000ffff909216919091171790556005805482163317905560018054928f1692909116919091179055939850919650945092509050612c1181614a26565b600060086101000a8154816001600160801b0302191690836001600160801b031602179055506040518060c00160405280620d89e71960020b8152602001620d89e719612c5d9061595d565b60020b815260006020808301829052604080840183905260608085018490526080948501849052620d89e719938490526019835285517f8b687876df6025befed93a16f72cd2848615619f141fc2441f1db80badfc7d3e805488860151898601516001600160801b03166601000000000000027fffffffffffffffffffff00000000000000000000000000000000ffffffffffff62ffffff92831663010000000265ffffffffffff19909416929095169190911791909117929092169190911790558501517f8b687876df6025befed93a16f72cd2848615619f141fc2441f1db80badfc7d3f55928401517f8b687876df6025befed93a16f72cd2848615619f141fc2441f1db80badfc7d405560a0909301517f8b687876df6025befed93a16f72cd2848615619f141fc2441f1db80badfc7d4180546001600160a01b039290921673ffffffffffffffffffffffffffffffffffffffff19909216919091179055815160c081019092528082529091820190612dd89061595d565b60020b815260200160006001600160801b03168152602001600081526020016000815260200160006001600160a01b031681525060196000620d89e719612e1e9061595d565b600290810b8252602080830193909352604091820160002084518154948601519386015162ffffff91821665ffffffffffff199096169590951763010000009190941602929092177fffffffffffffffffffff00000000000000000000000000000000ffffffffffff1666010000000000006001600160801b0390941693909302929092178155606083015160018083019190915560808401518284015560a0909301516003909101805473ffffffffffffffffffffffffffffffffffffffff19166001600160a01b039092169190911790556016805462ffffff60a01b191676f276180000000000000000000000000000000000000000179055601791909155600780547fffffffffffffffff00000000ffffffffffffffffffffffffffffffffffffffff16600160a01b4263ffffffff81169190910291909117909155601891909155601d55505043601e55505081159050612f9f57600080547fffffffffffffffffffffffffffffffffffffffffffffffffffffffffffff00ff1690555b505050565b60175460021415612fc8576040516303cb96db60e21b815260040160405180910390fd5b6002601755600154604080517fd0a93173000000000000000000000000000000000000000000000000000000008152905133926001600160a01b03169163d0a931739160048083019260209291908290030181600087803b15801561302c57600080fd5b505af1158015613040573d6000803e3d6000fd5b505050506040513d601f19601f8201168201806040525081019061306491906159ec565b6001600160a01b03161461308b5760405163ea8e4eb560e01b815260040160405180910390fd5b42613096828461572e565b116130b457604051633494a40d60e21b815260040160405180910390fd5b600e54600f546000906130c7908361572e565b9050838111156130ea57604051633494a40d60e21b815260040160405180910390fd5b6001600160801b0387161561316157600354613118906001600160a01b03166001600160801b038916614a66565b86601460108282829054906101000a90046001600160801b031661313c9190615831565b92506101000a8154816001600160801b0302191690836001600160801b031602179055505b6001600160801b038616156131d25760045461318f906001600160a01b03166001600160801b038816614a66565b601580548791906000906131ad9084906001600160801b0316615831565b92506101000a8154816001600160801b0302191690836001600160801b031602179055505b6001600160801b0385161561320057601054613200906001600160a01b03166001600160801b038716614a66565b600061320a614a7b565b11156132a257613218613b28565b600754600160a01b900463ffffffff16818110156132a057600061323c82856143e4565b61324690846158c1565b905061325c613257600c5483614aeb565b61408f565b613266908a615831565b9850613277613257600d5483614aeb565b6132819089615831565b975061329261325760125483614aeb565b61329c9088615831565b9650505b505b6132ba876001600160801b0316600160801b856140e8565b600c556132d56001600160801b038716600160801b856140e8565b600d556132f06001600160801b038616600160801b856140e8565b6012555050600e91909155600f555050600160175550565b6000611d21600954600b54600d54614602565b6005546001600160a01b031633146133465760405163ea8e4eb560e01b815260040160405180910390fd5b6016546001600160a01b031615613389576040517f2f282c6c00000000000000000000000000000000000000000000000000000000815260040160405180910390fd5b61339281614afc565b6016805473ffffffffffffffffffffffffffffffffffffffff19166001600160a01b0392909216919091179055565b6005546001600160a01b031633146133ec5760405163ea8e4eb560e01b815260040160405180910390fd5b6010546001600160a01b0316156134165760405163ea8e4eb560e01b815260040160405180910390fd5b6010805473ffffffffffffffffffffffffffffffffffffffff19166001600160a01b0392909216919091179055565b6000611d216000601154601254614602565b6001600160a01b0383166000908152601c60209081526040808320600286810b85529083528184209085900b8452909152812090613495848461257f565b82546001600160a01b0387166000908152601b6020908152604080832060028a810b85529083528184209089900b8452909152812054929350916134e4918403906001600160801b0316614aeb565b82845560018401805491925082916000906135099084906001600160801b0316615831565b92506101000a8154816001600160801b0302191690836001600160801b03160217905550505050505050565b6001600160a01b0384166000908152601c60209081526040808320600287810b85529083528184209086900b845290915281206001810154613580906001600160801b0316846143fb565b60018201805491935083916000906135a29084906001600160801b031661585c565b92506101000a8154816001600160801b0302191690836001600160801b0316021790555050949350505050565b612f9f6001600160a01b0384168284614b6c565b6000546135fb9062010000900462ffffff1683615ae0565b60020b15613635576040517fce8ef7fc00000000000000000000000000000000000000000000000000000000815260040160405180910390fd5b6000546002906136509062010000900462ffffff1684615b02565b61365a9190615ae0565b60020b15613694576040517ffdf1420200000000000000000000000000000000000000000000000000000000815260040160405180910390fd5b6000546136ac9062010000900462ffffff1682615ae0565b60020b156136e6576040517fce8ef7fc00000000000000000000000000000000000000000000000000000000815260040160405180910390fd5b6000546002906137019062010000900462ffffff1683615b02565b61370b9190615ae0565b60020b613744576040517fa9778c6300000000000000000000000000000000000000000000000000000000815260040160405180910390fd5b5050565b60008060008360020b1261375f578260020b61376c565b8260020b61376c90615b3c565b905061377b620d89e71961595d565b62ffffff168111156137b9576040517ff87dc40c00000000000000000000000000000000000000000000000000000000815260040160405180910390fd5b6000600182166137cd57600160801b6137df565b6ffffcb933bd6fad37aa2d162d1a5940015b70ffffffffffffffffffffffffffffffffff1690506002821615613813576ffff97272373d413259a46990580e213a0260801c5b6004821615613832576ffff2e50f5f656932ef12357cf3c7fdcc0260801c5b6008821615613851576fffe5caca7e10e4e61c3624eaa0941cd00260801c5b6010821615613870576fffcb9843d60f6159c9db58835c9266440260801c5b602082161561388f576fff973b41fa98c081472e6896dfb254c00260801c5b60408216156138ae576fff2ea16466c96a3843ec78b326b528610260801c5b60808216156138cd576ffe5dee046a99a2a811c461f1969c30530260801c5b6101008216156138ed576ffcbe86c7900a88aedcffc83b479aa3a40260801c5b61020082161561390d576ff987a7253ac413176f2b074cf7815e540260801c5b61040082161561392d576ff3392b0822b70005940c7a398e4b70f30260801c5b61080082161561394d576fe7159475a2c29b7443b29c7fa6e889d90260801c5b61100082161561396d576fd097f3bdfd2022b8845ad8f792aa58250260801c5b61200082161561398d576fa9f746462d870fdf8a65dc1f90e061e50260801c5b6140008216156139ad576f70d869a156d2a1b890bb3df62baf32f70260801c5b6180008216156139cd576f31be135f97d08fd981231505542fcfa60260801c5b620100008216156139ee576f09aa508b5b7a84e1c677de54f3e99bc90260801c5b62020000821615613a0e576e5d6af8dedb81196699c329225ee6040260801c5b62040000821615613a2d576d2216e584f5fa1ea926041bedfe980260801c5b62080000821615613a4a576b048a170391f7dc42444e8fa20260801c5b60008460020b1315613a6b578060001981613a6757613a67615933565b0490505b640100000000810615613a7f576001613a82565b60005b60ff16602082901c0192505050919050565b6000838511613ab557613aae83600160601b8888036140e8565b9050613b1f565b858411613ad757613aae82613acf8888600160601b6140e8565b8888036140e8565b6000613af483613aec8888600160601b6140e8565b8789036140e8565b90506000613b0985600160601b8a89036140e8565b9050808210613b185780613b1a565b815b925050505b95945050505050565b6006546001600160801b031680613b3c5750565b600754600160a01b900463ffffffff16428110613b57575050565b6000613b61614a7b565b90508015613bd557613b76600c5482856140e8565b600a6000828254613b87919061572e565b9091555050600d54613b9a9082856140e8565b600b6000828254613bab919061572e565b9091555050601254613bbe9082856140e8565b60116000828254613bcf919061572e565b90915550505b6007805463ffffffff42908116600160a01b027fffffffffffffffff00000000ffffffffffffffffffffffffffffffffffffffff90921691909117909155839083900360801b81613c2857613c28615933565b6007805473ffffffffffffffffffffffffffffffffffffffff198116939092046001600160a01b0392831601909116919091179055505050565b613c6d848484613df2565b613c78848484613457565b613c8484848484614c15565b50505050565b600080848611613caa57613ca36132578589898761426a565b9050613cea565b868511613cc757613cc061325785898987614212565b9150613cea565b613cd661325785878987614212565b9150613ce76132578589888761426a565b90505b9550959350505050565b604080513060248083019190915282518083039091018152604490910182526020810180517bffffffffffffffffffffffffffffffffffffffffffffffffffffffff167f70a08231000000000000000000000000000000000000000000000000000000001790529051600091829182916001600160a01b03861691613d799190615ba1565b600060405180830381855afa9150503d8060008114613db4576040519150601f19603f3d011682016040523d82523d6000602084013e613db9565b606091505b5091509150818015613dcd57506020815110155b613dd657600080fd5b80806020019051810190613dea9190615bbd565b949350505050565b6001600160a01b0383166000908152601b60209081526040808320600286810b85529083528184209085900b845290915281209080613e318585612203565b600185015485549294509092506000918291613e5991908603906001600160801b0316614aeb565b60028601548654919350613e7991908503906001600160801b0316614aeb565b60018601859055600286018490556003860180549192508391600090613ea99084906001600160801b0316615831565b92506101000a8154816001600160801b0302191690836001600160801b03160217905550808560030160108282829054906101000a90046001600160801b0316613ef39190615831565b92506101000a8154816001600160801b0302191690836001600160801b031602179055505050505050505050565b6001600160a01b0385166000908152601b60209081526040808320600288810b85529083528184209087900b845290915281206003810154829190613f6f906001600160801b0316866143fb565b6003820154909350613f9190600160801b90046001600160801b0316856143fb565b6003820180549193508491600090613fb39084906001600160801b031661585c565b92506101000a8154816001600160801b0302191690836001600160801b03160217905550818160030160108282829054906101000a90046001600160801b0316613ffd919061585c565b92506101000a8154816001600160801b0302191690836001600160801b03160217905550509550959350505050565b600354614043906001600160a01b031683856135cf565b600454612f9f906001600160a01b031682856135cf565b600080614070858462ffffff16620f42406140aa565b9150614085848462ffffff16620f42406140aa565b9050935093915050565b806001600160801b03811681146140a557600080fd5b919050565b60006140b78484846140e8565b905081806140c7576140c7615933565b838509156140e15760001981106140dd57600080fd5b6001015b9392505050565b600080806000198587098587029250828110838203039150508060001415614122576000841161411757600080fd5b5082900490506140e1565b80841161412e57600080fd5b6000848688096000868103871696879004966002600389028118808a02820302808a02820302808a02820302808a02820302808a02820302808a02909103029181900381900460010186841190950394909402919094039290920491909117919091029150509392505050565b60c0810151156141a85750565b61010081015160020b620d89e71914806141d857506141ca620d89e71961595d565b60020b81610100015160020b145b1561420f576040517f6ba599a000000000000000000000000000000000000000000000000000000000815260040160405180910390fd5b50565b600081156142415761423a61422e606087901b868603866140aa565b85808204910615150190565b9050613dea565b83614253606087901b828603866140e8565b8161426057614260615933565b0495945050505050565b600081156142835761423a85858503600160601b6140aa565b613b1f85858503600160601b6140e8565b60008060008060006142af8d8d62ffffff16620f42406140aa565b90506142bb818a61572e565b98506142c7818e6158c1565b6142d1908961572e565b975060006142e2828d6127106140aa565b90506142ee818961572e565b97506142fa81836158c1565b915061430b82600160801b8d6140e8565b614315908861572e565b999e989d50969b5097995095975050505050505050565b6143ce601a846101000151600760009054906101000a90046001600160a01b03168660c001518561436e57600a548860600151614369919061572e565b614380565b600b548860600151614380919061572e565b8661439c57600b548960800151614397919061572e565b6143ae565b600a5489608001516143ae919061572e565b6000546019969594939291908a908a9062010000900462ffffff16614d47565b60020b61010085015260c0909301929092525050565b6000818310156143f457816140e1565b5090919050565b60008183106143f457816140e1565b82156144c257600354600090614428906001600160a01b0316613cf4565b60145490915060009061444c908590600160801b90046001600160801b0316615831565b905081816001600160801b031611156144785760405163420231d560e11b815260040160405180910390fd5b601480546001600160801b03928316600160801b02908316179055601580548083168590039092166fffffffffffffffffffffffffffffffff199290921691909117905550505050565b6004546000906144da906001600160a01b0316613cf4565b6015549091506000906144f79085906001600160801b0316615831565b905081816001600160801b0316111561452357604051637218102160e11b815260040160405180910390fd5b601580546001600160801b039283166fffffffffffffffffffffffffffffffff1990911617905560148054600160801b8082048416869003841602921691909117905550505050565b82156145be576009829055601480548291906000906145959084906001600160801b0316615831565b92506101000a8154816001600160801b0302191690836001600160801b03160217905550505050565b600882905560138054829190601090614595908490600160801b90046001600160801b0316615831565b6000600f54600e546145fa919061572e565b421115905090565b60008061460d614a7b565b6006549091506001600160801b0316811580159061462b5750600081115b156146585761463b8483836140e8565b614645868861572e565b61464f919061572e565b925050506140e1565b61464f858761572e565b60006401000276a36001600160a01b038316108061469d575073fffd8963efd1fc6a506488495d951d5263988d266001600160a01b03831610155b156146d4576040517f6e4ba61d00000000000000000000000000000000000000000000000000000000815260040160405180910390fd5b77ffffffffffffffffffffffffffffffffffffffff00000000602083901b166001600160801b03811160071b81811c67ffffffffffffffff811160061b90811c63ffffffff811160051b90811c61ffff811160041b90811c60ff8111600390811b91821c600f811160021b90811c918211600190811b92831c9790881196179094179092171790911717176080811061477557607f810383901c915061477f565b80607f0383901b91505b908002607f81811c60ff83811c9190911c800280831c81831c1c800280841c81841c1c800280851c81851c1c800280861c81861c1c800280871c81871c1c800280881c81881c1c800280891c81891c1c8002808a1c818a1c1c8002808b1c818b1c1c8002808c1c818c1c1c8002808d1c818d1c1c8002808e1c9c81901c9c909c1c80029c8d901c9e9d7fffffffffffffffffffffffffffffffffffffffffffffffffffffffffffffff808f0160401b60c09190911c678000000000000000161760c19b909b1c674000000000000000169a909a1760c29990991c672000000000000000169890981760c39790971c671000000000000000169690961760c49590951c670800000000000000169490941760c59390931c670400000000000000169290921760c69190911c670200000000000000161760c79190911c670100000000000000161760c89190911c6680000000000000161760c99190911c6640000000000000161760ca9190911c6620000000000000161760cb9190911c6610000000000000161760cc9190911c6608000000000000161760cd9190911c66040000000000001617693627a301d71055774c8581027ffffffffffffffffffffffffffffffffffd709b7e5480fba5a50fed5e62ffc5568101608090811d906fdb2df09e81959a81455e260799a0632f8301901d600281810b9083900b146149ac57886001600160a01b031661499182613748565b6001600160a01b031611156149a657816149ae565b806149ae565b815b9998505050505050505050565b600080826149ce57506000928392509050565b60006149d8614a7b565b90506149e7600c5482866140e8565b92506149f6600d5482866140e8565b915050915091565b600081614a0d57506000919050565b6000614a17614a7b565b90506140e160125482856140e8565b6000614a33826002615bd6565b614a40620d89e71961595d565b614a4a9190615c01565b614a609062ffffff166001600160801b03615c23565b92915050565b6137446001600160a01b038316333084614fe6565b600e54600090428110614a9057600091505090565b600754600f54600160a01b90910463ffffffff1690600090614ab2908461572e565b9050818111614ac5576000935050505090565b614acf82846143e4565b614ad942836143fb565b614ae391906158c1565b935050505090565b60006140e18383600160801b6140e8565b6401000276a36001600160a01b0382161080614b35575073fffd8963efd1fc6a506488495d951d5263988d266001600160a01b03821610155b1561420f576040517f6e4ba61d00000000000000000000000000000000000000000000000000000000815260040160405180910390fd5b6040516001600160a01b038316602482015260448101829052612f9f9084907fa9059cbb00000000000000000000000000000000000000000000000000000000906064015b60408051601f198184030181529190526020810180517bffffffffffffffffffffffffffffffffffffffffffffffffffffffff167fffffffff0000000000000000000000000000000000000000000000000000000090931692909217909152615037565b80600f0b60001415614c2657613c84565b6001600160a01b0384166000908152601b60209081526040808320600287810b85529083528184209086900b8452909152812090600f83900b1315614cf757805482908290600090614c829084906001600160801b0316615831565b82546101009290920a6001600160801b038181021990931691831602179091556000548354680100000000000000009091048216911611159050614cf2576040517fb03425ae00000000000000000000000000000000000000000000000000000000815260040160405180910390fd5b614d40565b614d00826159b6565b81548290600090614d1b9084906001600160801b031661585c565b92506101000a8154816001600160801b0302191690836001600160801b031602179055505b5050505050565b600288900b600090815260208b905260408120600301548190614d73906001600160a01b03168a615980565b60028b900b600090815260208e81526040808320600301805473ffffffffffffffffffffffffffffffffffffffff19166001600160a01b0395909516949094179093558d90522054614dc590866158c1565b60028b900b600090815260208d905260409020558315614ed85760028360020b8b60020b81614df657614df6615933565b0560020b81614e0757614e07615933565b0760020b614e3f5760028a900b600090815260208d90526040902054660100000000000090046001600160801b031690970396614e6c565b60028a900b600090815260208d90526040902054660100000000000090046001600160801b031697909701965b60028a900b600090815260208d90526040902060010154614e8d90876158c1565b60028b810b600090815260208f90526040902060018101929092550154614eb490886158c1565b60029a8b0b600090815260208e905260409020808c01919091555490990b98614fd4565b60028360020b8b60020b81614eef57614eef615933565b0560020b81614f0057614f00615933565b0760020b614f395760028a900b600090815260208d90526040902054660100000000000090046001600160801b03169790970196614f65565b60028a900b600090815260208d90526040902054660100000000000090046001600160801b0316909703965b60028a810b600090815260208e9052604090200154614f8490876158c1565b60028b810b600090815260208f9052604090209081019190915560010154614fac90886158c1565b60029a8b0b600090815260208e9052604090206001810191909155546301000000900490990b985b50959a97995096975050505050505050565b6040516001600160a01b0380851660248301528316604482015260648101829052613c849085907f23b872dd0000000000000000000000000000000000000000000000000000000090608401614bb1565b600061508c826040518060400160405280602081526020017f5361666545524332303a206c6f772d6c6576656c2063616c6c206661696c6564815250856001600160a01b031661511c9092919063ffffffff16565b805190915015612f9f57808060200190518101906150aa9190615c3d565b612f9f5760405162461bcd60e51b815260206004820152602a60248201527f5361666545524332303a204552433230206f7065726174696f6e20646964206e60448201527f6f742073756363656564000000000000000000000000000000000000000000006064820152608401612acc565b6060613dea8484600085856001600160a01b0385163b61517e5760405162461bcd60e51b815260206004820152601d60248201527f416464726573733a2063616c6c20746f206e6f6e2d636f6e74726163740000006044820152606401612acc565b600080866001600160a01b0316858760405161519a9190615ba1565b60006040518083038185875af1925050503d80600081146151d7576040519150601f19603f3d011682016040523d82523d6000602084013e6151dc565b606091505b50915091506151ec8282866151f7565b979650505050505050565b606083156152065750816140e1565b8251156152165782518084602001fd5b8160405162461bcd60e51b8152600401612acc9190615c58565b8060020b811461420f57600080fd5b60008060006060848603121561525457600080fd5b833561525f81615230565b9250602084013561526f81615230565b929592945050506040919091013590565b634e487b7160e01b600052604160045260246000fd5b80356001600160801b03811681146140a557600080fd5b600060c082840312156152bf57600080fd5b60405160c0810181811067ffffffffffffffff821117156152e2576152e2615280565b60405282356152f081615230565b8152602083013561530081615230565b6020820152604083013561531381615230565b6040820152606083013561532681615230565b606082015261533760808401615296565b608082015261534860a08401615296565b60a08201529392505050565b6000806000806080858703121561536a57600080fd5b843561537581615230565b9350602085013561538581615230565b93969395505050506040820135916060013590565b6001600160a01b038116811461420f57600080fd5b6000806000806000608086880312156153c757600080fd5b85356153d28161539a565b94506020860135935060408601359250606086013567ffffffffffffffff808211156153fd57600080fd5b818801915088601f83011261541157600080fd5b81358181111561542057600080fd5b89602082850101111561543257600080fd5b9699959850939650602001949392505050565b600082601f83011261545657600080fd5b813567ffffffffffffffff8082111561547157615471615280565b604051601f8301601f19908116603f0116810190828211818310171561549957615499615280565b816040528381528660208588010111156154b257600080fd5b836020870160208301376000602085830101528094505050505092915050565b6000602082840312156154e457600080fd5b813567ffffffffffffffff8111156154fb57600080fd5b613dea84828501615445565b600081518084526020808501945080840160005b838110156155405781516001600160a01b03168752958201959082019060010161551b565b509495945050505050565b6020815260006140e16020830184615507565b60006020828403121561557057600080fd5b5035919050565b60008060006060848603121561558c57600080fd5b833561559781615230565b925060208401356155a781615230565b91506155b560408501615296565b90509250925092565b6000806000606084860312156155d357600080fd5b83356155de8161539a565b925060208401356155ee81615230565b915060408401356155fe81615230565b809150509250925092565b6000806040838503121561561c57600080fd5b823561562781615230565b9150602083013561563781615230565b809150509250929050565b60006020828403121561565457600080fd5b81356140e18161539a565b6000806040838503121561567257600080fd5b823567ffffffffffffffff81111561568957600080fd5b61569585828601615445565b92505060208301356156378161539a565b600080600080600060a086880312156156be57600080fd5b6156c786615296565b94506156d560208701615296565b93506156e360408701615296565b94979396509394606081013594506080013592915050565b60006020828403121561570d57600080fd5b81356140e181615230565b634e487b7160e01b600052601160045260246000fd5b6000821982111561574157615741615718565b500190565b60006101a0820190508b82528a60208301528951604083015260208a0151606083015260408a015160808301526001600160a01b0360608b01511660a083015261579560c083018a60020b9052565b6157a460e083018960020b9052565b6157b461010083018860020b9052565b6157c461012083018760020b9052565b6001600160801b0385166101408301526157e461016083018560020b9052565b6001600160a01b0383166101808301529b9a5050505050505050505050565b6000806040838503121561581657600080fd5b825161582181615230565b6020939093015192949293505050565b60006001600160801b0380831681851680830382111561585357615853615718565b01949350505050565b60006001600160801b038381169083168181101561587c5761587c615718565b039392505050565b84815283602082015260606040820152816060820152818360808301376000818301608090810191909152601f909201601f191601019392505050565b6000828210156158d3576158d3615718565b500390565b805180151581146140a557600080fd5b600080604083850312156158fb57600080fd5b615904836158d8565b915060208301516156378161539a565b600081600019048311821515161561592e5761592e615718565b500290565b634e487b7160e01b600052601260045260246000fd5b60008261595857615958615933565b500490565b60008160020b627fffff1981141561597757615977615718565b60000392915050565b60006001600160a01b038381169083168181101561587c5761587c615718565b634e487b7160e01b600052603260045260246000fd5b600081600f0b7fffffffffffffffffffffffffffffffff8000000000000000000000000000000081141561597757615977615718565b6000602082840312156159fe57600080fd5b81516140e18161539a565b604081526000615a1c6040830185615507565b82810360208481019190915284518083528582019282019060005b81811015615a5357845183529383019391830191600101615a37565b5090979650505050505050565b805162ffffff811681146140a557600080fd5b600080600080600060a08688031215615a8b57600080fd5b8551615a968161539a565b6020870151909550615aa78161539a565b6040870151909450615ab88161539a565b9250615ac660608701615a60565b9150615ad460808701615a60565b90509295509295909350565b60008260020b80615af357615af3615933565b808360020b0791505092915050565b60008160020b8360020b80615b1957615b19615933565b6000198114627fffff1983141615615b3357615b33615718565b90059392505050565b60007f8000000000000000000000000000000000000000000000000000000000000000821415615b6e57615b6e615718565b5060000390565b60005b83811015615b90578181015183820152602001615b78565b83811115613c845750506000910152565b60008251615bb3818460208701615b75565b9190910192915050565b600060208284031215615bcf57600080fd5b5051919050565b600062ffffff80831681851681830481118215151615615bf857615bf8615718565b02949350505050565b600062ffffff80841680615c1757615c17615933565b92169190910492915050565b60006001600160801b0380841680615c1757615c17615933565b600060208284031215615c4f57600080fd5b6140e1826158d8565b6020815260008251806020840152615c77816040850160208701615b75565b601f01601f1916919091016040019291505056fea26469706673582212208e4f44614e5b6a9fb0853d0329cd59a130f85bf22d5d0a4c54f8af2d371a3d2c64736f6c63430008090033",
  "deployedBytecode": "0x608060405234801561001057600080fd5b506004361061032b5760003560e01c8063a34123a7116101b2578063cf78756b116100f9578063e5ff7f46116100a2578063f7c618c11161007c578063f7c618c1146108e8578063f949e8b7146108fb578063fa1a169c14610903578063fb5d80b31461090c57600080fd5b8063e5ff7f46146107cc578063f30dba93146107df578063f719dac61461088a57600080fd5b8063d5514792116100d3578063d551479214610786578063d90bda4e146107a6578063e46dbc98146107b957600080fd5b8063cf78756b14610756578063d0c93a7c1461075e578063d21220a71461077357600080fd5b8063bd7d1eea1161015b578063caa4b46a11610135578063caa4b46a14610728578063cce2df0314610730578063cf5431531461074357600080fd5b8063bd7d1eea146106ef578063c03c251414610702578063c45a01551461071557600080fd5b8063b0e21e8a1161018c578063b0e21e8a14610632578063b2f4bdb01461063b578063bcdb4dad1461064457600080fd5b8063a34123a71461057a578063aaca1b4d1461058d578063acfe88f81461061f57600080fd5b806367e4ac2c116102765780638c347f9b1161021f5780639da12096116101f95780639da1209614610538578063a00e8f2914610540578063a035b1fe1461056757600080fd5b80638c347f9b146104fe5780638f10369a14610527578063956afe451461052f57600080fd5b8063735541d111610250578063735541d1146104da578063787dce3d146104e357806384e02017146104f657600080fd5b806367e4ac2c146104905780636d59d802146104a557806370ed1b86146104d157600080fd5b80632df94b0f116102d857806354cf2aeb116102b257806354cf2aeb14610449578063627dd56a1461047557806366f657c51461048857600080fd5b80632df94b0f1461040357806340306fb61461042b578063490e6cbc1461043457600080fd5b80630dfe1681116103095780630dfe1681146103a4578063111ba27d146103cf5780631a686502146103d857600080fd5b806306f912f3146103305780630902f1ac146103565780630ae9ba8a14610391575b600080fd5b61034361033e36600461523f565b61092b565b6040519081526020015b60405180910390f35b6014546015546001600160801b03600160801b909204821691165b604080516001600160801b0393841681529290911660208301520161034d565b61034361039f3660046152ad565b6109a8565b6003546103b7906001600160a01b031681565b6040516001600160a01b03909116815260200161034d565b610343601e5481565b6006546103eb906001600160801b031681565b6040516001600160801b03909116815260200161034d565b610416610411366004615354565b610f5c565b6040805192835260208301919091520161034d565b610343600e5481565b6104476104423660046153af565b6110db565b005b6000546104619065010000000000900462ffffff1681565b60405162ffffff909116815260200161034d565b6103436104833660046154d2565b6114f4565b610343611d09565b610498611d26565b60405161034d919061554b565b600754604080516001600160a01b0383168152600160a01b90920463ffffffff1660208301520161034d565b61034360095481565b61034360185481565b6104476104f136600461555e565b611dba565b610343611e0d565b601654604080516001600160a01b0383168152600160a01b90920460020b60208301520161034d565b610343611e28565b610343600f5481565b610343611e43565b60165461055490600160a01b900460020b81565b60405160029190910b815260200161034d565b6016546103b7906001600160a01b031681565b610416610588366004615577565b611e56565b6105e961059b3660046155be565b601b60209081526000938452604080852082529284528284209052825290208054600182015460028301546003909301546001600160801b0392831693919281811691600160801b90041685565b604080516001600160801b039687168152602081019590955284019290925283166060830152909116608082015260a00161034d565b61041661062d366004615609565b612203565b610343601f5481565b610343601d5481565b61069a6000546005546001546003546004546001600160801b03680100000000000000008604169562ffffff62010000870481169665010000000000900416946001600160a01b03908116948116938116921690565b604080516001600160801b03909816885262ffffff968716602089015295909416948601949094526001600160a01b0391821660608601528116608085015291821660a08401521660c082015260e00161034d565b6104476106fd366004615642565b612525565b610343610710366004615609565b61257f565b6005546103b7906001600160a01b031681565b61037161268a565b61044761073e36600461565f565b612a3f565b6104476107513660046156a6565b612fa4565b610343613308565b6000546104619062010000900462ffffff1681565b6004546103b7906001600160a01b031681565b6103436107943660046156fb565b601a6020526000908152604090205481565b6104476107b4366004615642565b61331b565b6104476107c7366004615642565b6133c1565b6013546103eb906001600160801b031681565b61083f6107ed3660046156fb565b60196020526000908152604090208054600182015460028084015460039094015483820b946301000000850490920b93660100000000000090046001600160801b03169291906001600160a01b031686565b60408051600297880b81529590960b60208601526001600160801b0390931694840194909452606083015260808201929092526001600160a01b0390911660a082015260c00161034d565b6108cb6108983660046155be565b601c602090815260009384526040808520825292845282842090528252902080546001909101546001600160801b031682565b604080519283526001600160801b0390911660208301520161034d565b6010546103b7906001600160a01b031681565b610343613445565b61034360085481565b6013546014546001600160801b03600160801b90920482169116610371565b600060175460021415610951576040516303cb96db60e21b815260040160405180910390fd5b6002601755610961338585613457565b61096d33858585613535565b6010549091506001600160a01b03166109855761099c565b60105461099c906001600160a01b031682336135cf565b60016017559392505050565b6000601754600214156109ce576040516303cb96db60e21b815260040160405180910390fd5b6002601755602082015160608301516109e791906135e3565b60006109f68360200151613748565b6001600160a01b031690506000610a108460600151613748565b60165460a086015160808701516001600160a01b0393841694509190921691610a4b918591859185916001600160801b039081169116613a94565b93506f7fffffffffffffffffffffffffffffff841115610a97576040517f35278d1200000000000000000000000000000000000000000000000000000000815260040160405180910390fd5b83610ace576040517f83ecd22400000000000000000000000000000000000000000000000000000000815260040160405180910390fd5b610ad6613b28565b6000601973__$5c5207d55745a34649a0c7f595c6a505bf$__63825c72999091601a6040518060800160405280600a54600854610b13919061572e565b8152602001600b54600954610b28919061572e565b81526020016011548152602001600760009054906101000a90046001600160a01b03166001600160a01b03168152508a600001518b602001518c604001518d606001518d601660149054906101000a900460020b8c6040518b63ffffffff1660e01b8152600401610ba29a99989796959493929190615746565b604080518083038186803b158015610bb957600080fd5b505af4158015610bcd573d6000803e3d6000fd5b505050506040513d601f19601f82011682018060405250810190610bf19190615803565b6016805462ffffff909316600160a01b0262ffffff60a01b1990931692909217909155601880549192508291600090610c2b90849061572e565b9250508190555050610c47338660200151876060015187613c62565b808311158015610c5657508181105b15610c8657600680546001600160801b038082168701166fffffffffffffffffffffffffffffffff199091161790555b600080610c97858585896001613c8a565b600354600480546040517f5f16529a0000000000000000000000000000000000000000000000000000000081526001600160a01b03938416928101929092529190911660248201526001600160801b0380841660448301528216606482015291935091503390635f16529a90608401600060405180830381600087803b158015610d2057600080fd5b505af1158015610d34573d6000803e3d6000fd5b50505050816001600160801b0316600014610de15781601460108282829054906101000a90046001600160801b0316610d6d9190615831565b92506101000a8154816001600160801b0302191690836001600160801b03160217905550610daf600360009054906101000a90046001600160a01b0316613cf4565b601454600160801b90046001600160801b03161115610de15760405163420231d560e11b815260040160405180910390fd5b6001600160801b03811615610e7b5760158054829190600090610e0e9084906001600160801b0316615831565b92506101000a8154816001600160801b0302191690836001600160801b03160217905550610e50600460009054906101000a90046001600160a01b0316613cf4565b6015546001600160801b03161115610e7b57604051637218102160e11b815260040160405180910390fd5b600280546040805160a08101825260208b810151850b82526060808d0151860b9183019182526001600160801b03888116848601908152908816918401918252608084018d815294517ffbad73910000000000000000000000000000000000000000000000000000000081529351870b6004850152915190950b6024830152516044820152925160648401525160848301526001600160a01b03169063fbad73919060a401600060405180830381600087803b158015610f3a57600080fd5b505af1925050508015610f4b575060015b505050600160175550919392505050565b60008060175460021415610f83576040516303cb96db60e21b815260040160405180910390fd5b6002601755610f93338787613df2565b610fa03387878787613f21565b601480549294509092508391601090610fca908490600160801b90046001600160801b031661585c565b92506101000a8154816001600160801b0302191690836001600160801b0316021790555080601560008282829054906101000a90046001600160801b0316611012919061585c565b92506101000a8154816001600160801b0302191690836001600160801b0316021790555061104133838361402c565b6002546040805180820182528481526020810184815291517f1228c47f00000000000000000000000000000000000000000000000000000000815290516004820152905160248201526001600160a01b0390911690631228c47f90604401600060405180830381600087803b1580156110b957600080fd5b505af19250505080156110ca575060015b506001601755909590945092505050565b601754600214156110ff576040516303cb96db60e21b815260040160405180910390fd5b60026017556006546001600160801b031680611147576040517f83ecd22400000000000000000000000000000000000000000000000000000000815260040160405180910390fd5b6014546015546001600160801b03600160801b9092048216911661116c88888861402c565b60008061118b8989600060059054906101000a900462ffffff1661405a565b6040517fc3924ed60000000000000000000000000000000000000000000000000000000081529193509150339063c3924ed6906111d290859085908c908c90600401615884565b600060405180830381600087803b1580156111ec57600080fd5b505af1158015611200573d6000803e3d6000fd5b5050600354600092508291508190611220906001600160a01b0316613cf4565b60045490915060009061123b906001600160a01b0316613cf4565b905081611248878a61572e565b11156112675760405163420231d560e11b815260040160405180910390fd5b80611272868961572e565b111561129157604051637218102160e11b815260040160405180910390fd5b61129a8261408f565b601480546001600160801b03928316600160801b0292169190911790556112c08161408f565b601580546fffffffffffffffffffffffffffffffff19166001600160801b03929092169190911790556112f388836158c1565b93506112ff87826158c1565b601f5490935091505082156113a257600061131d84836127106140aa565b905080601360108282829054906101000a90046001600160801b03166113439190615831565b92506101000a8154816001600160801b0302191690836001600160801b0316021790555061138a816001600160801b03168561137f91906158c1565b600160801b8b6140e8565b6008600082825461139b919061572e565b9091555050505b811561142b5760006113b783836127106140aa565b6014805491925082916000906113d79084906001600160801b0316615831565b92506101000a8154816001600160801b0302191690836001600160801b03160217905550611413816001600160801b03168461137f91906158c1565b60096000828254611424919061572e565b9091555050505b6002546040805160a081018252338152602081018f81528183018f8152606083018881526080840188815294517f2987fbcc00000000000000000000000000000000000000000000000000000000815293516001600160a01b039081166004860152925160248501529051604484015251606483015291516084820152911690632987fbcc9060a401600060405180830381600087803b1580156114ce57600080fd5b505af19250505080156114df575060015b50505060016017555050505050505050505050565b60006017546002141561151a576040516303cb96db60e21b815260040160405180910390fd5b60026017819055506000808380602001905181019061153991906158e8565b91509150600082611555576015546001600160801b0316611569565b601454600160801b90046001600160801b03165b6001600160801b031661159c8461158b576004546001600160a01b0316613cf4565b6003546001600160a01b0316613cf4565b6115a691906158c1565b90506000604051806101200160405280600081526020016000815260200160008152602001856115d8576008546115dc565b6009545b8152602001856115ee576009546115f2565b6008545b81526016546001600160a01b031660208201526006546001600160801b03166040820152606081018490526080018561165157601654600160a01b9004600290810b60009081526019602052604090205463010000009004900b61165f565b601654600160a01b900460020b5b60020b9052905061166e613b28565b60115461167a8261419b565b60e082015115611a0d576000611694836101000151613748565b6001600160a01b0316905060008087156117c55760006116bf8660c00151858860a001516000614212565b9050808660e00151116117855760c086015160a087015160e088015160609290921b91600091611705918491906116f69082615914565b611700908661572e565b6140aa565b905080861115801561171a57508760a0015181105b6117585761174c828960e001518a60a00151856117379190615949565b611741919061572e565b808204910615150190565b6001600160a01b031690505b61176d8860c00151828a60a00151600061426a565b60a0890191909152600060e089015293506117bf9050565b61179a8660c00151858860a00151600061426a565b60a0870185905260e0870180519194506001935082916117bb9083906158c1565b9052505b5061187a565b60006117dc8660c001518760a0015186600061426a565b9050808660e001511161183e5760006118028760e00151600160601b8960c001516140e8565b8760a00151611811919061572e565b90506118288760c001518860a00151836000614212565b60a0880191909152600060e08801529250611878565b6118538660c001518760a00151866000614212565b60a0870185905260e0870180519194506001935082916118749083906158c1565b9052505b505b60c0850151156118cc576118b782600060059054906101000a900462ffffff16601f548860c0015189602001518e8b604001518c60600151614294565b60608901526040880152602087019190915298505b8015611a05576118dd85858a61432c565b60c0850151611a055761010085015160020b620d89e71914806119165750611908620d89e71961595d565b60020b85610100015160020b145b156119de5787156119695761194060018660a0015161193591906158c1565b6401000276a36143e4565b60a086015261010085018051600290810b600090815260196020526040902054900b90526119d6565b6119aa8560a00151600161197d919061572e565b61199c600173fffd8963efd1fc6a506488495d951d5263988d26615980565b6001600160a01b03166143fb565b60a086015261010085018051600290810b60009081526019602052604090205463010000009004900b90525b505050611a0d565b6119ec856101000151613748565b6001600160a01b031660a0860152611a0585858a61432c565b50505061167a565b60a08201516016805473ffffffffffffffffffffffffffffffffffffffff19166001600160a01b03909216919091179055600085611a6657610100830151600290810b600090815260196020526040902054900b611a6d565b8261010001515b601654909150600282810b600160a01b909204900b14611ad1576016805462ffffff60a01b1916600160a01b62ffffff84160217905560c0830151600680546fffffffffffffffffffffffffffffffff19166001600160801b039092169190911790555b611adc86858961440a565b611aef868460600151856040015161456c565b60e083015115611c2457600086611b4357601960008181611b13620d89e71961595d565b600290810b8252602080830193909352604091820160009081205490910b84529183019390935291019020611b7e565b60196020527f8b687876df6025befed93a16f72cd2848615619f141fc2441f1db80badfc7d3e546301000000900460020b6000908152604090205b60e08501518154919250600091611bae9190600160801b90660100000000000090046001600160801b03166140e8565b90508715611bee5780826001016000828254611bca919061572e565b925050819055508060086000828254611be3919061572e565b90915550611c219050565b80826002016000828254611c02919061572e565b925050819055508060096000828254611c1b919061572e565b90915550505b50505b8515611c4657600454611c41906001600160a01b031688876135cf565b611c5d565b600354611c5d906001600160a01b031688876135cf565b600254604080516060810182528815158152602081018781528183018b815292517f91accd5f000000000000000000000000000000000000000000000000000000008152915115156004830152516024820152905160448201526001600160a01b03909116906391accd5f90606401600060405180830381600087803b158015611ce657600080fd5b505af1925050508015611cf7575060015b50505060016017555092949350505050565b6000611d136145e8565b611d1d5750600090565b600c545b905090565b6040805160028082526060808301845292602083019080368337505060035482519293506001600160a01b031691839150600090611d6657611d666159a0565b6001600160a01b039283166020918202929092010152600454825191169082906001908110611d9757611d976159a0565b60200260200101906001600160a01b031690816001600160a01b03168152505090565b6005546001600160a01b03163314611de55760405163ea8e4eb560e01b815260040160405180910390fd5b612710811115611e0857604051633494a40d60e21b815260040160405180910390fd5b601f55565b6000611e176145e8565b611e215750600090565b50600d5490565b6000611e326145e8565b611e3c5750600090565b5060125490565b6000611d21600854600a54600c54614602565b60008060175460021415611e7d576040516303cb96db60e21b815260040160405180910390fd5b60026017556000611e8d86613748565b90506000611e9a86613748565b6016549091506001600160a01b0316611eb1613b28565b806001600160a01b0316836001600160a01b031611158015611ee45750816001600160a01b0316816001600160a01b0316105b15611f1557600680546001600160801b03808216899003166fffffffffffffffffffffffffffffffff199091161790555b611f47836001600160a01b0316836001600160a01b0316836001600160a01b0316896001600160801b03166000613c8a565b6001600160801b039182169650811694506f7fffffffffffffffffffffffffffffff9087161115611fa4576040517f35278d1200000000000000000000000000000000000000000000000000000000815260040160405180910390fd5b611fb8338989611fb38a6159b6565b613c62565b601480546001600160801b03600160801b808304821689900382160291811691909117909155601580548083168790039092166fffffffffffffffffffffffffffffffff199290921691909117905561201233868661402c565b6016546040517f7c91cb9800000000000000000000000000000000000000000000000000000000815260196004820152601a602482015260028a810b604483015289810b60648301526001600160801b0389166084830152600160a01b90920490910b60a482015260009073__$5c5207d55745a34649a0c7f595c6a505bf$__90637c91cb989060c401604080518083038186803b1580156120b357600080fd5b505af41580156120c7573d6000803e3d6000fd5b505050506040513d601f19601f820116820180604052508101906120eb9190615803565b6016805462ffffff909316600160a01b0262ffffff60a01b19909316929092179091556018805491925082916000906121259084906158c1565b9091555050600280546040805160a0810182528c840b81528b840b602082019081528183018b8152606083018b81526001600160801b038e166080850190815294517ffc9482d20000000000000000000000000000000000000000000000000000000081529351870b6004850152915190950b602483015293516044820152925160648401525160848301526001600160a01b0316915063fc9482d29060a401600060405180830381600087803b1580156121df57600080fd5b505af19250505080156121f0575060015b5050506001601755509094909350915050565b6016546000908190819061221f906001600160a01b0316614662565b90506000601960008760020b60020b81526020019081526020016000206040518060c00160405290816000820160009054906101000a900460020b60020b60020b81526020016000820160039054906101000a900460020b60020b60020b81526020016000820160069054906101000a90046001600160801b03166001600160801b03166001600160801b0316815260200160018201548152602001600282015481526020016003820160009054906101000a90046001600160a01b03166001600160a01b03166001600160a01b03168152505090506000601960008760020b60020b81526020019081526020016000206040518060c00160405290816000820160009054906101000a900460020b60020b60020b81526020016000820160039054906101000a900460020b60020b60020b81526020016000820160069054906101000a90046001600160801b03166001600160801b03166001600160801b0316815260200160018201548152602001600282015481526020016003820160009054906101000a90046001600160a01b03166001600160a01b03166001600160a01b03168152505090506000806000806123f6600660009054906101000a90046001600160801b03166001600160801b03166149bb565b9150915081600a5460085461240b919061572e565b612415919061572e565b935080600b54600954612428919061572e565b612432919061572e565b925050506000808660020b8b60020b1361246e576060860151612455908361572e565b9150856080015181612467919061572e565b90506124a6565b606086015161247d90856158c1565b612487908361572e565b915085608001518361249991906158c1565b6124a3908261572e565b90505b8960020b8760020b12156124dc5760608501516124c3908361572e565b91508460800151816124d5919061572e565b9050612514565b60608501516124eb90856158c1565b6124f5908361572e565b915084608001518361250791906158c1565b612511908261572e565b90505b920399919003975095505050505050565b6005546001600160a01b031633146125505760405163ea8e4eb560e01b815260040160405180910390fd5b6002805473ffffffffffffffffffffffffffffffffffffffff19166001600160a01b0392909216919091179055565b6016546000908190612599906001600160a01b0316614662565b6006549091506000906125b4906001600160801b03166149fe565b6011546125c1919061572e565b905060008260020b8660020b136125f757600286900b6000908152601a60205260409020546125f0908261572e565b9050612622565b600286900b6000908152601a602052604090205461261590836158c1565b61261f908261572e565b90505b8460020b8360020b121561265557600285900b6000908152601a602052604090205461264e908261572e565b9050612680565b600285900b6000908152601a602052604090205461267390836158c1565b61267d908261572e565b90505b9003949350505050565b600080601754600214156126b1576040516303cb96db60e21b815260040160405180910390fd5b6002601755600154604080517fef36925200000000000000000000000000000000000000000000000000000000815290516000926001600160a01b03169163ef369252916004808301926020929190829003018186803b15801561271457600080fd5b505afa158015612728573d6000803e3d6000fd5b505050506040513d601f19601f8201168201806040525081019061274c91906159ec565b604080516002808252606082018352929350600092909160208301908036833750506040805160028082526060820183529394506000939092509060208301908036833701905050601354909150600160801b90046001600160801b0316156128a057601380546001600160801b0380821690925560148054600160801b9283900484169850889391926010926127e792869290041661585c565b92506101000a8154816001600160801b0302191690836001600160801b03160217905550612834600360009054906101000a90046001600160a01b0316866001600160801b0316856135cf565b60035482516001600160a01b03909116908390600090612856576128566159a0565b60200260200101906001600160a01b031690816001600160a01b031681525050846001600160801b031681600081518110612893576128936159a0565b6020026020010181815250505b6014546001600160801b0316156129a957601480546fffffffffffffffffffffffffffffffff198116909155601580546001600160801b03928316965086926000916128ee9185911661585c565b92506101000a8154816001600160801b0302191690836001600160801b0316021790555061293b600460009054906101000a90046001600160a01b0316856001600160801b0316856135cf565b60045482516001600160a01b03909116908390600190811061295f5761295f6159a0565b60200260200101906001600160a01b031690816001600160a01b031681525050836001600160801b03168160018151811061299c5761299c6159a0565b6020026020010181815250505b6001600160a01b0383163b15612a33576040517ff03328300000000000000000000000000000000000000000000000000000000081526001600160a01b0384169063f033283090612a009085908590600401615a09565b600060405180830381600087803b158015612a1a57600080fd5b505af1158015612a2e573d6000803e3d6000fd5b505050505b50505060016017559091565b600054610100900460ff16612a5a5760005460ff1615612a5e565b303b155b612ad55760405162461bcd60e51b815260206004820152602e60248201527f496e697469616c697a61626c653a20636f6e747261637420697320616c72656160448201527f647920696e697469616c697a656400000000000000000000000000000000000060648201526084015b60405180910390fd5b600054610100900460ff16158015612b1457600080547fffffffffffffffffffffffffffffffffffffffffffffffffffffffffffff0000166101011790555b600080600080600087806020019051810190612b309190615a73565b600380546001600160a01b0380881673ffffffffffffffffffffffffffffffffffffffff199283161790925560048054838816908316179055601080548387169083161790556000805462ffffff80861662010000027fffffffffffffffffffffffffffffffffffffffffffffffffffffff000000ffff9188166501000000000002919091167fffffffffffffffffffffffffffffffffffffffffffffffff000000000000ffff909216919091171790556005805482163317905560018054928f1692909116919091179055939850919650945092509050612c1181614a26565b600060086101000a8154816001600160801b0302191690836001600160801b031602179055506040518060c00160405280620d89e71960020b8152602001620d89e719612c5d9061595d565b60020b815260006020808301829052604080840183905260608085018490526080948501849052620d89e719938490526019835285517f8b687876df6025befed93a16f72cd2848615619f141fc2441f1db80badfc7d3e805488860151898601516001600160801b03166601000000000000027fffffffffffffffffffff00000000000000000000000000000000ffffffffffff62ffffff92831663010000000265ffffffffffff19909416929095169190911791909117929092169190911790558501517f8b687876df6025befed93a16f72cd2848615619f141fc2441f1db80badfc7d3f55928401517f8b687876df6025befed93a16f72cd2848615619f141fc2441f1db80badfc7d405560a0909301517f8b687876df6025befed93a16f72cd2848615619f141fc2441f1db80badfc7d4180546001600160a01b039290921673ffffffffffffffffffffffffffffffffffffffff19909216919091179055815160c081019092528082529091820190612dd89061595d565b60020b815260200160006001600160801b03168152602001600081526020016000815260200160006001600160a01b031681525060196000620d89e719612e1e9061595d565b600290810b8252602080830193909352604091820160002084518154948601519386015162ffffff91821665ffffffffffff199096169590951763010000009190941602929092177fffffffffffffffffffff00000000000000000000000000000000ffffffffffff1666010000000000006001600160801b0390941693909302929092178155606083015160018083019190915560808401518284015560a0909301516003909101805473ffffffffffffffffffffffffffffffffffffffff19166001600160a01b039092169190911790556016805462ffffff60a01b191676f276180000000000000000000000000000000000000000179055601791909155600780547fffffffffffffffff00000000ffffffffffffffffffffffffffffffffffffffff16600160a01b4263ffffffff81169190910291909117909155601891909155601d55505043601e55505081159050612f9f57600080547fffffffffffffffffffffffffffffffffffffffffffffffffffffffffffff00ff1690555b505050565b60175460021415612fc8576040516303cb96db60e21b815260040160405180910390fd5b6002601755600154604080517fd0a93173000000000000000000000000000000000000000000000000000000008152905133926001600160a01b03169163d0a931739160048083019260209291908290030181600087803b15801561302c57600080fd5b505af1158015613040573d6000803e3d6000fd5b505050506040513d601f19601f8201168201806040525081019061306491906159ec565b6001600160a01b03161461308b5760405163ea8e4eb560e01b815260040160405180910390fd5b42613096828461572e565b116130b457604051633494a40d60e21b815260040160405180910390fd5b600e54600f546000906130c7908361572e565b9050838111156130ea57604051633494a40d60e21b815260040160405180910390fd5b6001600160801b0387161561316157600354613118906001600160a01b03166001600160801b038916614a66565b86601460108282829054906101000a90046001600160801b031661313c9190615831565b92506101000a8154816001600160801b0302191690836001600160801b031602179055505b6001600160801b038616156131d25760045461318f906001600160a01b03166001600160801b038816614a66565b601580548791906000906131ad9084906001600160801b0316615831565b92506101000a8154816001600160801b0302191690836001600160801b031602179055505b6001600160801b0385161561320057601054613200906001600160a01b03166001600160801b038716614a66565b600061320a614a7b565b11156132a257613218613b28565b600754600160a01b900463ffffffff16818110156132a057600061323c82856143e4565b61324690846158c1565b905061325c613257600c5483614aeb565b61408f565b613266908a615831565b9850613277613257600d5483614aeb565b6132819089615831565b975061329261325760125483614aeb565b61329c9088615831565b9650505b505b6132ba876001600160801b0316600160801b856140e8565b600c556132d56001600160801b038716600160801b856140e8565b600d556132f06001600160801b038616600160801b856140e8565b6012555050600e91909155600f555050600160175550565b6000611d21600954600b54600d54614602565b6005546001600160a01b031633146133465760405163ea8e4eb560e01b815260040160405180910390fd5b6016546001600160a01b031615613389576040517f2f282c6c00000000000000000000000000000000000000000000000000000000815260040160405180910390fd5b61339281614afc565b6016805473ffffffffffffffffffffffffffffffffffffffff19166001600160a01b0392909216919091179055565b6005546001600160a01b031633146133ec5760405163ea8e4eb560e01b815260040160405180910390fd5b6010546001600160a01b0316156134165760405163ea8e4eb560e01b815260040160405180910390fd5b6010805473ffffffffffffffffffffffffffffffffffffffff19166001600160a01b0392909216919091179055565b6000611d216000601154601254614602565b6001600160a01b0383166000908152601c60209081526040808320600286810b85529083528184209085900b8452909152812090613495848461257f565b82546001600160a01b0387166000908152601b6020908152604080832060028a810b85529083528184209089900b8452909152812054929350916134e4918403906001600160801b0316614aeb565b82845560018401805491925082916000906135099084906001600160801b0316615831565b92506101000a8154816001600160801b0302191690836001600160801b03160217905550505050505050565b6001600160a01b0384166000908152601c60209081526040808320600287810b85529083528184209086900b845290915281206001810154613580906001600160801b0316846143fb565b60018201805491935083916000906135a29084906001600160801b031661585c565b92506101000a8154816001600160801b0302191690836001600160801b0316021790555050949350505050565b612f9f6001600160a01b0384168284614b6c565b6000546135fb9062010000900462ffffff1683615ae0565b60020b15613635576040517fce8ef7fc00000000000000000000000000000000000000000000000000000000815260040160405180910390fd5b6000546002906136509062010000900462ffffff1684615b02565b61365a9190615ae0565b60020b15613694576040517ffdf1420200000000000000000000000000000000000000000000000000000000815260040160405180910390fd5b6000546136ac9062010000900462ffffff1682615ae0565b60020b156136e6576040517fce8ef7fc00000000000000000000000000000000000000000000000000000000815260040160405180910390fd5b6000546002906137019062010000900462ffffff1683615b02565b61370b9190615ae0565b60020b613744576040517fa9778c6300000000000000000000000000000000000000000000000000000000815260040160405180910390fd5b5050565b60008060008360020b1261375f578260020b61376c565b8260020b61376c90615b3c565b905061377b620d89e71961595d565b62ffffff168111156137b9576040517ff87dc40c00000000000000000000000000000000000000000000000000000000815260040160405180910390fd5b6000600182166137cd57600160801b6137df565b6ffffcb933bd6fad37aa2d162d1a5940015b70ffffffffffffffffffffffffffffffffff1690506002821615613813576ffff97272373d413259a46990580e213a0260801c5b6004821615613832576ffff2e50f5f656932ef12357cf3c7fdcc0260801c5b6008821615613851576fffe5caca7e10e4e61c3624eaa0941cd00260801c5b6010821615613870576fffcb9843d60f6159c9db58835c9266440260801c5b602082161561388f576fff973b41fa98c081472e6896dfb254c00260801c5b60408216156138ae576fff2ea16466c96a3843ec78b326b528610260801c5b60808216156138cd576ffe5dee046a99a2a811c461f1969c30530260801c5b6101008216156138ed576ffcbe86c7900a88aedcffc83b479aa3a40260801c5b61020082161561390d576ff987a7253ac413176f2b074cf7815e540260801c5b61040082161561392d576ff3392b0822b70005940c7a398e4b70f30260801c5b61080082161561394d576fe7159475a2c29b7443b29c7fa6e889d90260801c5b61100082161561396d576fd097f3bdfd2022b8845ad8f792aa58250260801c5b61200082161561398d576fa9f746462d870fdf8a65dc1f90e061e50260801c5b6140008216156139ad576f70d869a156d2a1b890bb3df62baf32f70260801c5b6180008216156139cd576f31be135f97d08fd981231505542fcfa60260801c5b620100008216156139ee576f09aa508b5b7a84e1c677de54f3e99bc90260801c5b62020000821615613a0e576e5d6af8dedb81196699c329225ee6040260801c5b62040000821615613a2d576d2216e584f5fa1ea926041bedfe980260801c5b62080000821615613a4a576b048a170391f7dc42444e8fa20260801c5b60008460020b1315613a6b578060001981613a6757613a67615933565b0490505b640100000000810615613a7f576001613a82565b60005b60ff16602082901c0192505050919050565b6000838511613ab557613aae83600160601b8888036140e8565b9050613b1f565b858411613ad757613aae82613acf8888600160601b6140e8565b8888036140e8565b6000613af483613aec8888600160601b6140e8565b8789036140e8565b90506000613b0985600160601b8a89036140e8565b9050808210613b185780613b1a565b815b925050505b95945050505050565b6006546001600160801b031680613b3c5750565b600754600160a01b900463ffffffff16428110613b57575050565b6000613b61614a7b565b90508015613bd557613b76600c5482856140e8565b600a6000828254613b87919061572e565b9091555050600d54613b9a9082856140e8565b600b6000828254613bab919061572e565b9091555050601254613bbe9082856140e8565b60116000828254613bcf919061572e565b90915550505b6007805463ffffffff42908116600160a01b027fffffffffffffffff00000000ffffffffffffffffffffffffffffffffffffffff90921691909117909155839083900360801b81613c2857613c28615933565b6007805473ffffffffffffffffffffffffffffffffffffffff198116939092046001600160a01b0392831601909116919091179055505050565b613c6d848484613df2565b613c78848484613457565b613c8484848484614c15565b50505050565b600080848611613caa57613ca36132578589898761426a565b9050613cea565b868511613cc757613cc061325785898987614212565b9150613cea565b613cd661325785878987614212565b9150613ce76132578589888761426a565b90505b9550959350505050565b604080513060248083019190915282518083039091018152604490910182526020810180517bffffffffffffffffffffffffffffffffffffffffffffffffffffffff167f70a08231000000000000000000000000000000000000000000000000000000001790529051600091829182916001600160a01b03861691613d799190615ba1565b600060405180830381855afa9150503d8060008114613db4576040519150601f19603f3d011682016040523d82523d6000602084013e613db9565b606091505b5091509150818015613dcd57506020815110155b613dd657600080fd5b80806020019051810190613dea9190615bbd565b949350505050565b6001600160a01b0383166000908152601b60209081526040808320600286810b85529083528184209085900b845290915281209080613e318585612203565b600185015485549294509092506000918291613e5991908603906001600160801b0316614aeb565b60028601548654919350613e7991908503906001600160801b0316614aeb565b60018601859055600286018490556003860180549192508391600090613ea99084906001600160801b0316615831565b92506101000a8154816001600160801b0302191690836001600160801b03160217905550808560030160108282829054906101000a90046001600160801b0316613ef39190615831565b92506101000a8154816001600160801b0302191690836001600160801b031602179055505050505050505050565b6001600160a01b0385166000908152601b60209081526040808320600288810b85529083528184209087900b845290915281206003810154829190613f6f906001600160801b0316866143fb565b6003820154909350613f9190600160801b90046001600160801b0316856143fb565b6003820180549193508491600090613fb39084906001600160801b031661585c565b92506101000a8154816001600160801b0302191690836001600160801b03160217905550818160030160108282829054906101000a90046001600160801b0316613ffd919061585c565b92506101000a8154816001600160801b0302191690836001600160801b03160217905550509550959350505050565b600354614043906001600160a01b031683856135cf565b600454612f9f906001600160a01b031682856135cf565b600080614070858462ffffff16620f42406140aa565b9150614085848462ffffff16620f42406140aa565b9050935093915050565b806001600160801b03811681146140a557600080fd5b919050565b60006140b78484846140e8565b905081806140c7576140c7615933565b838509156140e15760001981106140dd57600080fd5b6001015b9392505050565b600080806000198587098587029250828110838203039150508060001415614122576000841161411757600080fd5b5082900490506140e1565b80841161412e57600080fd5b6000848688096000868103871696879004966002600389028118808a02820302808a02820302808a02820302808a02820302808a02820302808a02909103029181900381900460010186841190950394909402919094039290920491909117919091029150509392505050565b60c0810151156141a85750565b61010081015160020b620d89e71914806141d857506141ca620d89e71961595d565b60020b81610100015160020b145b1561420f576040517f6ba599a000000000000000000000000000000000000000000000000000000000815260040160405180910390fd5b50565b600081156142415761423a61422e606087901b868603866140aa565b85808204910615150190565b9050613dea565b83614253606087901b828603866140e8565b8161426057614260615933565b0495945050505050565b600081156142835761423a85858503600160601b6140aa565b613b1f85858503600160601b6140e8565b60008060008060006142af8d8d62ffffff16620f42406140aa565b90506142bb818a61572e565b98506142c7818e6158c1565b6142d1908961572e565b975060006142e2828d6127106140aa565b90506142ee818961572e565b97506142fa81836158c1565b915061430b82600160801b8d6140e8565b614315908861572e565b999e989d50969b5097995095975050505050505050565b6143ce601a846101000151600760009054906101000a90046001600160a01b03168660c001518561436e57600a548860600151614369919061572e565b614380565b600b548860600151614380919061572e565b8661439c57600b548960800151614397919061572e565b6143ae565b600a5489608001516143ae919061572e565b6000546019969594939291908a908a9062010000900462ffffff16614d47565b60020b61010085015260c0909301929092525050565b6000818310156143f457816140e1565b5090919050565b60008183106143f457816140e1565b82156144c257600354600090614428906001600160a01b0316613cf4565b60145490915060009061444c908590600160801b90046001600160801b0316615831565b905081816001600160801b031611156144785760405163420231d560e11b815260040160405180910390fd5b601480546001600160801b03928316600160801b02908316179055601580548083168590039092166fffffffffffffffffffffffffffffffff199290921691909117905550505050565b6004546000906144da906001600160a01b0316613cf4565b6015549091506000906144f79085906001600160801b0316615831565b905081816001600160801b0316111561452357604051637218102160e11b815260040160405180910390fd5b601580546001600160801b039283166fffffffffffffffffffffffffffffffff1990911617905560148054600160801b8082048416869003841602921691909117905550505050565b82156145be576009829055601480548291906000906145959084906001600160801b0316615831565b92506101000a8154816001600160801b0302191690836001600160801b03160217905550505050565b600882905560138054829190601090614595908490600160801b90046001600160801b0316615831565b6000600f54600e546145fa919061572e565b421115905090565b60008061460d614a7b565b6006549091506001600160801b0316811580159061462b5750600081115b156146585761463b8483836140e8565b614645868861572e565b61464f919061572e565b925050506140e1565b61464f858761572e565b60006401000276a36001600160a01b038316108061469d575073fffd8963efd1fc6a506488495d951d5263988d266001600160a01b03831610155b156146d4576040517f6e4ba61d00000000000000000000000000000000000000000000000000000000815260040160405180910390fd5b77ffffffffffffffffffffffffffffffffffffffff00000000602083901b166001600160801b03811160071b81811c67ffffffffffffffff811160061b90811c63ffffffff811160051b90811c61ffff811160041b90811c60ff8111600390811b91821c600f811160021b90811c918211600190811b92831c9790881196179094179092171790911717176080811061477557607f810383901c915061477f565b80607f0383901b91505b908002607f81811c60ff83811c9190911c800280831c81831c1c800280841c81841c1c800280851c81851c1c800280861c81861c1c800280871c81871c1c800280881c81881c1c800280891c81891c1c8002808a1c818a1c1c8002808b1c818b1c1c8002808c1c818c1c1c8002808d1c818d1c1c8002808e1c9c81901c9c909c1c80029c8d901c9e9d7fffffffffffffffffffffffffffffffffffffffffffffffffffffffffffffff808f0160401b60c09190911c678000000000000000161760c19b909b1c674000000000000000169a909a1760c29990991c672000000000000000169890981760c39790971c671000000000000000169690961760c49590951c670800000000000000169490941760c59390931c670400000000000000169290921760c69190911c670200000000000000161760c79190911c670100000000000000161760c89190911c6680000000000000161760c99190911c6640000000000000161760ca9190911c6620000000000000161760cb9190911c6610000000000000161760cc9190911c6608000000000000161760cd9190911c66040000000000001617693627a301d71055774c8581027ffffffffffffffffffffffffffffffffffd709b7e5480fba5a50fed5e62ffc5568101608090811d906fdb2df09e81959a81455e260799a0632f8301901d600281810b9083900b146149ac57886001600160a01b031661499182613748565b6001600160a01b031611156149a657816149ae565b806149ae565b815b9998505050505050505050565b600080826149ce57506000928392509050565b60006149d8614a7b565b90506149e7600c5482866140e8565b92506149f6600d5482866140e8565b915050915091565b600081614a0d57506000919050565b6000614a17614a7b565b90506140e160125482856140e8565b6000614a33826002615bd6565b614a40620d89e71961595d565b614a4a9190615c01565b614a609062ffffff166001600160801b03615c23565b92915050565b6137446001600160a01b038316333084614fe6565b600e54600090428110614a9057600091505090565b600754600f54600160a01b90910463ffffffff1690600090614ab2908461572e565b9050818111614ac5576000935050505090565b614acf82846143e4565b614ad942836143fb565b614ae391906158c1565b935050505090565b60006140e18383600160801b6140e8565b6401000276a36001600160a01b0382161080614b35575073fffd8963efd1fc6a506488495d951d5263988d266001600160a01b03821610155b1561420f576040517f6e4ba61d00000000000000000000000000000000000000000000000000000000815260040160405180910390fd5b6040516001600160a01b038316602482015260448101829052612f9f9084907fa9059cbb00000000000000000000000000000000000000000000000000000000906064015b60408051601f198184030181529190526020810180517bffffffffffffffffffffffffffffffffffffffffffffffffffffffff167fffffffff0000000000000000000000000000000000000000000000000000000090931692909217909152615037565b80600f0b60001415614c2657613c84565b6001600160a01b0384166000908152601b60209081526040808320600287810b85529083528184209086900b8452909152812090600f83900b1315614cf757805482908290600090614c829084906001600160801b0316615831565b82546101009290920a6001600160801b038181021990931691831602179091556000548354680100000000000000009091048216911611159050614cf2576040517fb03425ae00000000000000000000000000000000000000000000000000000000815260040160405180910390fd5b614d40565b614d00826159b6565b81548290600090614d1b9084906001600160801b031661585c565b92506101000a8154816001600160801b0302191690836001600160801b031602179055505b5050505050565b600288900b600090815260208b905260408120600301548190614d73906001600160a01b03168a615980565b60028b900b600090815260208e81526040808320600301805473ffffffffffffffffffffffffffffffffffffffff19166001600160a01b0395909516949094179093558d90522054614dc590866158c1565b60028b900b600090815260208d905260409020558315614ed85760028360020b8b60020b81614df657614df6615933565b0560020b81614e0757614e07615933565b0760020b614e3f5760028a900b600090815260208d90526040902054660100000000000090046001600160801b031690970396614e6c565b60028a900b600090815260208d90526040902054660100000000000090046001600160801b031697909701965b60028a900b600090815260208d90526040902060010154614e8d90876158c1565b60028b810b600090815260208f90526040902060018101929092550154614eb490886158c1565b60029a8b0b600090815260208e905260409020808c01919091555490990b98614fd4565b60028360020b8b60020b81614eef57614eef615933565b0560020b81614f0057614f00615933565b0760020b614f395760028a900b600090815260208d90526040902054660100000000000090046001600160801b03169790970196614f65565b60028a900b600090815260208d90526040902054660100000000000090046001600160801b0316909703965b60028a810b600090815260208e9052604090200154614f8490876158c1565b60028b810b600090815260208f9052604090209081019190915560010154614fac90886158c1565b60029a8b0b600090815260208e9052604090206001810191909155546301000000900490990b985b50959a97995096975050505050505050565b6040516001600160a01b0380851660248301528316604482015260648101829052613c849085907f23b872dd0000000000000000000000000000000000000000000000000000000090608401614bb1565b600061508c826040518060400160405280602081526020017f5361666545524332303a206c6f772d6c6576656c2063616c6c206661696c6564815250856001600160a01b031661511c9092919063ffffffff16565b805190915015612f9f57808060200190518101906150aa9190615c3d565b612f9f5760405162461bcd60e51b815260206004820152602a60248201527f5361666545524332303a204552433230206f7065726174696f6e20646964206e60448201527f6f742073756363656564000000000000000000000000000000000000000000006064820152608401612acc565b6060613dea8484600085856001600160a01b0385163b61517e5760405162461bcd60e51b815260206004820152601d60248201527f416464726573733a2063616c6c20746f206e6f6e2d636f6e74726163740000006044820152606401612acc565b600080866001600160a01b0316858760405161519a9190615ba1565b60006040518083038185875af1925050503d80600081146151d7576040519150601f19603f3d011682016040523d82523d6000602084013e6151dc565b606091505b50915091506151ec8282866151f7565b979650505050505050565b606083156152065750816140e1565b8251156152165782518084602001fd5b8160405162461bcd60e51b8152600401612acc9190615c58565b8060020b811461420f57600080fd5b60008060006060848603121561525457600080fd5b833561525f81615230565b9250602084013561526f81615230565b929592945050506040919091013590565b634e487b7160e01b600052604160045260246000fd5b80356001600160801b03811681146140a557600080fd5b600060c082840312156152bf57600080fd5b60405160c0810181811067ffffffffffffffff821117156152e2576152e2615280565b60405282356152f081615230565b8152602083013561530081615230565b6020820152604083013561531381615230565b6040820152606083013561532681615230565b606082015261533760808401615296565b608082015261534860a08401615296565b60a08201529392505050565b6000806000806080858703121561536a57600080fd5b843561537581615230565b9350602085013561538581615230565b93969395505050506040820135916060013590565b6001600160a01b038116811461420f57600080fd5b6000806000806000608086880312156153c757600080fd5b85356153d28161539a565b94506020860135935060408601359250606086013567ffffffffffffffff808211156153fd57600080fd5b818801915088601f83011261541157600080fd5b81358181111561542057600080fd5b89602082850101111561543257600080fd5b9699959850939650602001949392505050565b600082601f83011261545657600080fd5b813567ffffffffffffffff8082111561547157615471615280565b604051601f8301601f19908116603f0116810190828211818310171561549957615499615280565b816040528381528660208588010111156154b257600080fd5b836020870160208301376000602085830101528094505050505092915050565b6000602082840312156154e457600080fd5b813567ffffffffffffffff8111156154fb57600080fd5b613dea84828501615445565b600081518084526020808501945080840160005b838110156155405781516001600160a01b03168752958201959082019060010161551b565b509495945050505050565b6020815260006140e16020830184615507565b60006020828403121561557057600080fd5b5035919050565b60008060006060848603121561558c57600080fd5b833561559781615230565b925060208401356155a781615230565b91506155b560408501615296565b90509250925092565b6000806000606084860312156155d357600080fd5b83356155de8161539a565b925060208401356155ee81615230565b915060408401356155fe81615230565b809150509250925092565b6000806040838503121561561c57600080fd5b823561562781615230565b9150602083013561563781615230565b809150509250929050565b60006020828403121561565457600080fd5b81356140e18161539a565b6000806040838503121561567257600080fd5b823567ffffffffffffffff81111561568957600080fd5b61569585828601615445565b92505060208301356156378161539a565b600080600080600060a086880312156156be57600080fd5b6156c786615296565b94506156d560208701615296565b93506156e360408701615296565b94979396509394606081013594506080013592915050565b60006020828403121561570d57600080fd5b81356140e181615230565b634e487b7160e01b600052601160045260246000fd5b6000821982111561574157615741615718565b500190565b60006101a0820190508b82528a60208301528951604083015260208a0151606083015260408a015160808301526001600160a01b0360608b01511660a083015261579560c083018a60020b9052565b6157a460e083018960020b9052565b6157b461010083018860020b9052565b6157c461012083018760020b9052565b6001600160801b0385166101408301526157e461016083018560020b9052565b6001600160a01b0383166101808301529b9a5050505050505050505050565b6000806040838503121561581657600080fd5b825161582181615230565b6020939093015192949293505050565b60006001600160801b0380831681851680830382111561585357615853615718565b01949350505050565b60006001600160801b038381169083168181101561587c5761587c615718565b039392505050565b84815283602082015260606040820152816060820152818360808301376000818301608090810191909152601f909201601f191601019392505050565b6000828210156158d3576158d3615718565b500390565b805180151581146140a557600080fd5b600080604083850312156158fb57600080fd5b615904836158d8565b915060208301516156378161539a565b600081600019048311821515161561592e5761592e615718565b500290565b634e487b7160e01b600052601260045260246000fd5b60008261595857615958615933565b500490565b60008160020b627fffff1981141561597757615977615718565b60000392915050565b60006001600160a01b038381169083168181101561587c5761587c615718565b634e487b7160e01b600052603260045260246000fd5b600081600f0b7fffffffffffffffffffffffffffffffff8000000000000000000000000000000081141561597757615977615718565b6000602082840312156159fe57600080fd5b81516140e18161539a565b604081526000615a1c6040830185615507565b82810360208481019190915284518083528582019282019060005b81811015615a5357845183529383019391830191600101615a37565b5090979650505050505050565b805162ffffff811681146140a557600080fd5b600080600080600060a08688031215615a8b57600080fd5b8551615a968161539a565b6020870151909550615aa78161539a565b6040870151909450615ab88161539a565b9250615ac660608701615a60565b9150615ad460808701615a60565b90509295509295909350565b60008260020b80615af357615af3615933565b808360020b0791505092915050565b60008160020b8360020b80615b1957615b19615933565b6000198114627fffff1983141615615b3357615b33615718565b90059392505050565b60007f8000000000000000000000000000000000000000000000000000000000000000821415615b6e57615b6e615718565b5060000390565b60005b83811015615b90578181015183820152602001615b78565b83811115613c845750506000910152565b60008251615bb3818460208701615b75565b9190910192915050565b600060208284031215615bcf57600080fd5b5051919050565b600062ffffff80831681851681830481118215151615615bf857615bf8615718565b02949350505050565b600062ffffff80841680615c1757615c17615933565b92169190910492915050565b60006001600160801b0380841680615c1757615c17615933565b600060208284031215615c4f57600080fd5b6140e1826158d8565b6020815260008251806020840152615c77816040850160208701615b75565b601f01601f1916919091016040019291505056fea26469706673582212208e4f44614e5b6a9fb0853d0329cd59a130f85bf22d5d0a4c54f8af2d371a3d2c64736f6c63430008090033",
  "libraries": {
    "RewardTicks": "0xfF8E5bDf54D5ab74D2E56CA0E575348A52B95B3d"
  }
}