{
  "address": "0x254809e3C28Ba1601CaB05E91E0840BbC5cb596e",
  "abi": [
    {
      "inputs": [],
      "name": "NotPool",
      "type": "error"
    },
    {
      "inputs": [],
      "name": "airdropDistributor",
      "outputs": [
        {
          "internalType": "contract IAirdropDistributor",
          "name": "",
          "type": "address"
        }
      ],
      "stateMutability": "view",
      "type": "function"
    },
    {
      "inputs": [
        {
          "internalType": "address",
          "name": "pool",
          "type": "address"
        }
      ],
      "name": "cumulativeAirdrop",
      "outputs": [
        {
          "internalType": "uint256",
          "name": "airdrop0",
          "type": "uint256"
        },
        {
          "internalType": "uint256",
          "name": "airdrop1",
          "type": "uint256"
        }
      ],
      "stateMutability": "view",
      "type": "function"
    },
    {
      "inputs": [
        {
          "internalType": "address",
          "name": "pool",
          "type": "address"
        }
      ],
      "name": "cumulativeFees",
      "outputs": [
        {
          "internalType": "uint256",
          "name": "fee0",
          "type": "uint256"
        },
        {
          "internalType": "uint256",
          "name": "fee1",
          "type": "uint256"
        }
      ],
      "stateMutability": "view",
      "type": "function"
    },
    {
      "inputs": [
        {
          "internalType": "address",
          "name": "pool",
          "type": "address"
        }
      ],
      "name": "cumulativeTradingFees",
      "outputs": [
        {
          "internalType": "uint256",
          "name": "tradingFee0",
          "type": "uint256"
        },
        {
          "internalType": "uint256",
          "name": "tradingFee1",
          "type": "uint256"
        }
      ],
      "stateMutability": "view",
      "type": "function"
    },
    {
      "inputs": [
        {
          "internalType": "address",
          "name": "pool",
          "type": "address"
        }
      ],
      "name": "cumulativeTradingVolume",
      "outputs": [
        {
          "internalType": "uint256",
          "name": "tradingVolume0",
          "type": "uint256"
        },
        {
          "internalType": "uint256",
          "name": "tradingVolume1",
          "type": "uint256"
        }
      ],
      "stateMutability": "view",
      "type": "function"
    },
    {
      "inputs": [
        {
          "internalType": "address",
          "name": "_masterDeployer",
          "type": "address"
        },
        {
          "internalType": "address",
          "name": "_airdropDistributor",
          "type": "address"
        }
      ],
      "name": "initialize",
      "outputs": [],
      "stateMutability": "nonpayable",
      "type": "function"
    },
    {
      "inputs": [],
      "name": "masterDeployer",
      "outputs": [
        {
          "internalType": "contract IMasterDeployer",
          "name": "",
          "type": "address"
        }
      ],
      "stateMutability": "view",
      "type": "function"
    }
  ],
  "transactionHash": "0xeb4befeb5367a82d0a1903482bbc0c2bf36af376c473cefe5a5346397abfb929",
  "args": [],
  "numDeployments": 1,
  "solcInputHash": "f775cf71cf3afe8bafbf3e3b34605380",
  "bytecode": "0x608060405234801561001057600080fd5b50611905806100206000396000f3fe608060405234801561001057600080fd5b506004361061007d5760003560e01c8063d0a931731161005b578063d0a931731461010f578063d29be0471461012f578063dbf1333314610142578063dc13fea61461015557600080fd5b80631792acb214610082578063485cc955146100af578063cf58879a146100c4575b600080fd5b61009561009036600461144b565b610168565b604080519283526020830191909152015b60405180910390f35b6100c26100bd366004611468565b6103c9565b005b6000546100ea9062010000900473ffffffffffffffffffffffffffffffffffffffff1681565b60405173ffffffffffffffffffffffffffffffffffffffff90911681526020016100a6565b6001546100ea9073ffffffffffffffffffffffffffffffffffffffff1681565b61009561013d36600461144b565b610567565b61009561015036600461144b565b610895565b61009561016336600461144b565b6109da565b600080546040517fa4063dbc00000000000000000000000000000000000000000000000000000000815273ffffffffffffffffffffffffffffffffffffffff808516600483015283928592620100009091049091169063a4063dbc9060240160206040518083038186803b1580156101df57600080fd5b505afa1580156101f3573d6000803e3d6000fd5b505050506040513d601f19601f8201168201806040525081019061021791906114a1565b61024d576040517f6f61f64100000000000000000000000000000000000000000000000000000000815260040160405180910390fd5b60008061025986610895565b9150915060008673ffffffffffffffffffffffffffffffffffffffff166354cf2aeb6040518163ffffffff1660e01b815260040160206040518083038186803b1580156102a557600080fd5b505afa1580156102b9573d6000803e3d6000fd5b505050506040513d601f19601f820116820180604052508101906102dd91906114c3565b62ffffff16905060008773ffffffffffffffffffffffffffffffffffffffff1663b0e21e8a6040518163ffffffff1660e01b815260040160206040518083038186803b15801561032c57600080fd5b505afa158015610340573d6000803e3d6000fd5b505050506040513d601f19601f8201168201806040525081019061036491906114e8565b905060006103808361037884612710611530565b612710610af6565b90506103a961039386620f424084610af6565b6103a085620f4240611530565b620f4240610af6565b97506103bc61039385620f424084610af6565b9650505050505050915091565b600054610100900460ff166103e45760005460ff16156103e8565b303b155b610478576040517f08c379a000000000000000000000000000000000000000000000000000000000815260206004820152602e60248201527f496e697469616c697a61626c653a20636f6e747261637420697320616c72656160448201527f647920696e697469616c697a6564000000000000000000000000000000000000606482015260840160405180910390fd5b600054610100900460ff161580156104b757600080547fffffffffffffffffffffffffffffffffffffffffffffffffffffffffffff0000166101011790555b600080547fffffffffffffffffffff0000000000000000000000000000000000000000ffff166201000073ffffffffffffffffffffffffffffffffffffffff8681169190910291909117909155600180547fffffffffffffffffffffffff000000000000000000000000000000000000000016918416919091179055801561056257600080547fffffffffffffffffffffffffffffffffffffffffffffffffffffffffffff00ff1690555b505050565b600080546040517fa4063dbc00000000000000000000000000000000000000000000000000000000815273ffffffffffffffffffffffffffffffffffffffff808516600483015283928592620100009091049091169063a4063dbc9060240160206040518083038186803b1580156105de57600080fd5b505afa1580156105f2573d6000803e3d6000fd5b505050506040513d601f19601f8201168201806040525081019061061691906114a1565b61064c576040517f6f61f64100000000000000000000000000000000000000000000000000000000815260040160405180910390fd5b6001546040517fc0dcb4d200000000000000000000000000000000000000000000000000000000815273ffffffffffffffffffffffffffffffffffffffff8681166004830152600092169063c0dcb4d29060240160206040518083038186803b1580156106b857600080fd5b505afa1580156106cc573d6000803e3d6000fd5b505050506040513d601f19601f820116820180604052508101906106f091906114e8565b905060005b8181101561088d576001546040517fb9fc53fd00000000000000000000000000000000000000000000000000000000815273ffffffffffffffffffffffffffffffffffffffff888116600483015260248201849052600092169063b9fc53fd9060440160606040518083038186803b15801561077057600080fd5b505afa158015610784573d6000803e3d6000fd5b505050506040513d601f19601f820116820180604052508101906107a89190611547565b905042816040015162093a806107be91906115ca565b10156107e95780516107d090876115ca565b95508060200151856107e291906115ca565b945061087a565b6000816040015142116107fd57600061080c565b604082015161080c9042611530565b905062093a80811061083d57815161082490886115ca565b965081602001518661083691906115ca565b9550610878565b815161084d908262093a80610af6565b61085790886115ca565b965061086b82602001518262093a80610af6565b61087590876115ca565b95505b505b5080610885816115e2565b9150506106f5565b505050915091565b600080546040517fa4063dbc00000000000000000000000000000000000000000000000000000000815273ffffffffffffffffffffffffffffffffffffffff808516600483015283928592620100009091049091169063a4063dbc9060240160206040518083038186803b15801561090c57600080fd5b505afa158015610920573d6000803e3d6000fd5b505050506040513d601f19601f8201168201806040525081019061094491906114a1565b61097a576040517f6f61f64100000000000000000000000000000000000000000000000000000000815260040160405180910390fd5b600080610986866109da565b9150915060008061099688610567565b91509150818410156109a95760006109b3565b6109b38285611530565b9650808310156109c45760006109ce565b6109ce8184611530565b95505050505050915091565b600080546040517fa4063dbc00000000000000000000000000000000000000000000000000000000815273ffffffffffffffffffffffffffffffffffffffff808516600483015283928592620100009091049091169063a4063dbc9060240160206040518083038186803b158015610a5157600080fd5b505afa158015610a65573d6000803e3d6000fd5b505050506040513d601f19601f82011682018060405250810190610a8991906114a1565b610abf576040517f6f61f64100000000000000000000000000000000000000000000000000000000815260040160405180910390fd5b600080610acb86610bc8565b91509150600080610adb88610f9f565b9092509050610aea82856115ca565b96506109ce81846115ca565b600080807fffffffffffffffffffffffffffffffffffffffffffffffffffffffffffffffff8587098587029250828110838203039150508060001415610b4e5760008411610b4357600080fd5b508290049050610bc1565b808411610b5a57600080fd5b6000848688096000868103871696879004966002600389028118808a02820302808a02820302808a02820302808a02820302808a02820302808a02909103029181900381900460010186841190950394909402919094039290920491909117919091029150505b9392505050565b60008060008373ffffffffffffffffffffffffffffffffffffffff1663a00e8f296040518163ffffffff1660e01b815260040160206040518083038186803b158015610c1357600080fd5b505afa158015610c27573d6000803e3d6000fd5b505050506040513d601f19601f82011682018060405250810190610c4b9190611632565b905060008473ffffffffffffffffffffffffffffffffffffffff16631a6865026040518163ffffffff1660e01b815260040160206040518083038186803b158015610c9557600080fd5b505afa158015610ca9573d6000803e3d6000fd5b505050506040513d601f19601f82011682018060405250810190610ccd919061166d565b905060008573ffffffffffffffffffffffffffffffffffffffff1663d0c93a7c6040518163ffffffff1660e01b815260040160206040518083038186803b158015610d1757600080fd5b505afa158015610d2b573d6000803e3d6000fd5b505050506040513d601f19601f82011682018060405250810190610d4f91906114c3565b90505b600283900b7ffffffffffffffffffffffffffffffffffffffffffffffffffffffffffff276181461088d576040517ff30dba93000000000000000000000000000000000000000000000000000000008152600284900b600482015260009073ffffffffffffffffffffffffffffffffffffffff88169063f30dba939060240160c06040518083038186803b158015610de957600080fd5b505afa158015610dfd573d6000803e3d6000fd5b505050506040513d601f19601f82011682018060405250810190610e219190611688565b90506002610e2f8386611771565b610e3991906117e5565b60020b610e56576040810151610e4f9084611807565b9250610e68565b6040810151610e659084611838565b92505b80516040517facfe88f8000000000000000000000000000000000000000000000000000000008152600291820b60048201529085900b6024820152600090819073ffffffffffffffffffffffffffffffffffffffff8a169063acfe88f890604401604080518083038186803b158015610ee057600080fd5b505afa158015610ef4573d6000803e3d6000fd5b505050506040513d601f19601f82011682018060405250810190610f18919061186c565b91509150610f4a856fffffffffffffffffffffffffffffffff1683700100000000000000000000000000000000610af6565b610f5490896115ca565b9750610f84856fffffffffffffffffffffffffffffffff1682700100000000000000000000000000000000610af6565b610f8e90886115ca565b965082600001519550505050610d52565b60008060008373ffffffffffffffffffffffffffffffffffffffff1663a00e8f296040518163ffffffff1660e01b815260040160206040518083038186803b158015610fea57600080fd5b505afa158015610ffe573d6000803e3d6000fd5b505050506040513d601f19601f820116820180604052508101906110229190611632565b905060008473ffffffffffffffffffffffffffffffffffffffff16631a6865026040518163ffffffff1660e01b815260040160206040518083038186803b15801561106c57600080fd5b505afa158015611080573d6000803e3d6000fd5b505050506040513d601f19601f820116820180604052508101906110a4919061166d565b905060008573ffffffffffffffffffffffffffffffffffffffff1663d0c93a7c6040518163ffffffff1660e01b815260040160206040518083038186803b1580156110ee57600080fd5b505afa158015611102573d6000803e3d6000fd5b505050506040513d601f19601f8201168201806040525081019061112691906114c3565b90505b6111527ffffffffffffffffffffffffffffffffffffffffffffffffffffffffffff27618611890565b60020b8360020b1461088d576040517ff30dba93000000000000000000000000000000000000000000000000000000008152600284900b600482015260009073ffffffffffffffffffffffffffffffffffffffff88169063f30dba939060240160c06040518083038186803b1580156111ca57600080fd5b505afa1580156111de573d6000803e3d6000fd5b505050506040513d601f19601f820116820180604052508101906112029190611688565b60208101516040517facfe88f8000000000000000000000000000000000000000000000000000000008152600287810b60048301529190910b6024820152909150600090819073ffffffffffffffffffffffffffffffffffffffff8a169063acfe88f890604401604080518083038186803b15801561128057600080fd5b505afa158015611294573d6000803e3d6000fd5b505050506040513d601f19601f820116820180604052508101906112b8919061186c565b915091506112ea856fffffffffffffffffffffffffffffffff1683700100000000000000000000000000000000610af6565b6112f490896115ca565b9750611324856fffffffffffffffffffffffffffffffff1682700100000000000000000000000000000000610af6565b61132e90886115ca565b60208401516040517ff30dba93000000000000000000000000000000000000000000000000000000008152600282900b6004820152919850965060009073ffffffffffffffffffffffffffffffffffffffff8b169063f30dba939060240160c06040518083038186803b1580156113a457600080fd5b505afa1580156113b8573d6000803e3d6000fd5b505050506040513d601f19601f820116820180604052508101906113dc9190611688565b60400151905060026113ee8689611771565b6113f891906117e5565b60020b611410576114098187611838565b955061141d565b61141a8187611807565b95505b50505050611129565b73ffffffffffffffffffffffffffffffffffffffff8116811461144857600080fd5b50565b60006020828403121561145d57600080fd5b8135610bc181611426565b6000806040838503121561147b57600080fd5b823561148681611426565b9150602083013561149681611426565b809150509250929050565b6000602082840312156114b357600080fd5b81518015158114610bc157600080fd5b6000602082840312156114d557600080fd5b815162ffffff81168114610bc157600080fd5b6000602082840312156114fa57600080fd5b5051919050565b7f4e487b7100000000000000000000000000000000000000000000000000000000600052601160045260246000fd5b60008282101561154257611542611501565b500390565b60006060828403121561155957600080fd5b6040516060810181811067ffffffffffffffff821117156115a3577f4e487b7100000000000000000000000000000000000000000000000000000000600052604160045260246000fd5b80604052508251815260208301516020820152604083015160408201528091505092915050565b600082198211156115dd576115dd611501565b500190565b60007fffffffffffffffffffffffffffffffffffffffffffffffffffffffffffffffff82141561161457611614611501565b5060010190565b8051600281900b811461162d57600080fd5b919050565b60006020828403121561164457600080fd5b610bc18261161b565b80516fffffffffffffffffffffffffffffffff8116811461162d57600080fd5b60006020828403121561167f57600080fd5b610bc18261164d565b600060c0828403121561169a57600080fd5b60405160c0810181811067ffffffffffffffff821117156116e4577f4e487b7100000000000000000000000000000000000000000000000000000000600052604160045260246000fd5b6040526116f08361161b565b81526116fe6020840161161b565b602082015261170f6040840161164d565b6040820152606083015160608201526080830151608082015260a083015161173681611426565b60a08201529392505050565b7f4e487b7100000000000000000000000000000000000000000000000000000000600052601260045260246000fd5b60008160020b8360020b8061178857611788611742565b7fffffffffffffffffffffffffffffffffffffffffffffffffffffffffffffffff81147fffffffffffffffffffffffffffffffffffffffffffffffffffffffffff800000831416156117dc576117dc611501565b90059392505050565b60008260020b806117f8576117f8611742565b808360020b0791505092915050565b60006fffffffffffffffffffffffffffffffff8381169083168181101561183057611830611501565b039392505050565b60006fffffffffffffffffffffffffffffffff80831681851680830382111561186357611863611501565b01949350505050565b6000806040838503121561187f57600080fd5b505080516020909101519092909150565b60008160020b7fffffffffffffffffffffffffffffffffffffffffffffffffffffffffff8000008114156118c6576118c6611501565b6000039291505056fea2646970667358221220acf36253f3aaf2712182dd8d01721fd05f9eccc5082b5853a13b6e36995c1a5564736f6c63430008090033",
  "devdoc": {
    "kind": "dev",
    "methods": {
      "cumulativeAirdrop(address)": {
        "details": "undistributed and deposited volumes are excluded"
      },
      "cumulativeFees(address)": {
        "details": "fee = swap Fee + flash Fee + airdrop Reward"
      },
      "cumulativeTradingFees(address)": {
        "details": "trading fee = swap Fee + flash Fee"
      },
      "cumulativeTradingVolume(address)": {
        "details": "The trading volume is calculated based on the swap output, not swap input"
      }
    },
    "version": 1
  },
  "userdoc": {
    "kind": "user",
    "methods": {
      "cumulativeAirdrop(address)": {
        "notice": "returns total airdrop earned so far from the pool"
      },
      "cumulativeFees(address)": {
        "notice": "returns cumulative fees earned so far from the pool"
      },
      "cumulativeTradingFees(address)": {
        "notice": "returns cumulative fees except airdrop earned so far from the pool"
      },
      "cumulativeTradingVolume(address)": {
        "notice": "returns cumulative trading volume from cumulative fees"
      }
    },
    "version": 1
  },
  "storageLayout": {
    "storage": [
      {
        "astId": 130,
        "contract": "contracts/dashboard/PoolDashboard.sol:PoolDashboard",
        "label": "_initialized",
        "offset": 0,
        "slot": "0",
        "type": "t_bool"
      },
      {
        "astId": 133,
        "contract": "contracts/dashboard/PoolDashboard.sol:PoolDashboard",
        "label": "_initializing",
        "offset": 1,
        "slot": "0",
        "type": "t_bool"
      },
      {
        "astId": 4270,
        "contract": "contracts/dashboard/PoolDashboard.sol:PoolDashboard",
        "label": "masterDeployer",
        "offset": 2,
        "slot": "0",
        "type": "t_contract(IMasterDeployer)6572"
      },
      {
        "astId": 4273,
        "contract": "contracts/dashboard/PoolDashboard.sol:PoolDashboard",
        "label": "airdropDistributor",
        "offset": 0,
        "slot": "1",
        "type": "t_contract(IAirdropDistributor)5885"
      }
    ],
    "types": {
      "t_bool": {
        "encoding": "inplace",
        "label": "bool",
        "numberOfBytes": "1"
      },
      "t_contract(IAirdropDistributor)5885": {
        "encoding": "inplace",
        "label": "contract IAirdropDistributor",
        "numberOfBytes": "20"
      },
      "t_contract(IMasterDeployer)6572": {
        "encoding": "inplace",
        "label": "contract IMasterDeployer",
        "numberOfBytes": "20"
      }
    }
  }
}