{
  "address": "0x205f1095A77D9DDb8C4e708D11D126781506868e",
  "abi": [
    {
      "inputs": [],
      "name": "InvalidPool",
      "type": "error"
    },
    {
      "inputs": [],
      "name": "PermitFailed",
      "type": "error"
    },
    {
      "inputs": [],
      "name": "TickOutOfBounds",
      "type": "error"
    },
    {
      "inputs": [],
      "name": "TooLittleAmountIn",
      "type": "error"
    },
    {
      "inputs": [],
      "name": "TooLittleReceived",
      "type": "error"
    },
    {
      "inputs": [
        {
          "components": [
            {
              "internalType": "address",
              "name": "tokenIn",
              "type": "address"
            },
            {
              "internalType": "uint256",
              "name": "amountIn",
              "type": "uint256"
            },
            {
              "internalType": "uint256",
              "name": "amountOutMinimum",
              "type": "uint256"
            },
            {
              "internalType": "address[]",
              "name": "path",
              "type": "address[]"
            },
            {
              "internalType": "address",
              "name": "to",
              "type": "address"
            },
            {
              "internalType": "bool",
              "name": "unwrap",
              "type": "bool"
            }
          ],
          "internalType": "struct IPoolRouter.ExactInputParams",
          "name": "params",
          "type": "tuple"
        }
      ],
      "name": "exactInput",
      "outputs": [
        {
          "internalType": "uint256",
          "name": "amountOut",
          "type": "uint256"
        }
      ],
      "stateMutability": "payable",
      "type": "function"
    },
    {
      "inputs": [
        {
          "components": [
            {
              "internalType": "address",
              "name": "tokenIn",
              "type": "address"
            },
            {
              "internalType": "uint256",
              "name": "amountIn",
              "type": "uint256"
            },
            {
              "internalType": "uint256",
              "name": "amountOutMinimum",
              "type": "uint256"
            },
            {
              "internalType": "address",
              "name": "pool",
              "type": "address"
            },
            {
              "internalType": "address",
              "name": "to",
              "type": "address"
            },
            {
              "internalType": "bool",
              "name": "unwrap",
              "type": "bool"
            }
          ],
          "internalType": "struct IPoolRouter.ExactInputSingleParams",
          "name": "params",
          "type": "tuple"
        }
      ],
      "name": "exactInputSingle",
      "outputs": [
        {
          "internalType": "uint256",
          "name": "amountOut",
          "type": "uint256"
        }
      ],
      "stateMutability": "payable",
      "type": "function"
    },
    {
      "inputs": [
        {
          "components": [
            {
              "internalType": "address",
              "name": "tokenIn",
              "type": "address"
            },
            {
              "internalType": "uint256",
              "name": "amountOut",
              "type": "uint256"
            },
            {
              "internalType": "uint256",
              "name": "amountInMaximum",
              "type": "uint256"
            },
            {
              "internalType": "address[]",
              "name": "path",
              "type": "address[]"
            },
            {
              "internalType": "address",
              "name": "to",
              "type": "address"
            },
            {
              "internalType": "bool",
              "name": "unwrap",
              "type": "bool"
            }
          ],
          "internalType": "struct IPoolRouter.ExactOutputParams",
          "name": "params",
          "type": "tuple"
        }
      ],
      "name": "exactOutput",
      "outputs": [
        {
          "internalType": "uint256",
          "name": "amountIn",
          "type": "uint256"
        }
      ],
      "stateMutability": "payable",
      "type": "function"
    },
    {
      "inputs": [
        {
          "components": [
            {
              "internalType": "address",
              "name": "tokenIn",
              "type": "address"
            },
            {
              "internalType": "uint256",
              "name": "amountOut",
              "type": "uint256"
            },
            {
              "internalType": "uint256",
              "name": "amountInMaximum",
              "type": "uint256"
            },
            {
              "internalType": "address",
              "name": "pool",
              "type": "address"
            },
            {
              "internalType": "address",
              "name": "to",
              "type": "address"
            },
            {
              "internalType": "bool",
              "name": "unwrap",
              "type": "bool"
            }
          ],
          "internalType": "struct IPoolRouter.ExactOutputSingleParams",
          "name": "params",
          "type": "tuple"
        }
      ],
      "name": "exactOutputSingle",
      "outputs": [
        {
          "internalType": "uint256",
          "name": "amountIn",
          "type": "uint256"
        }
      ],
      "stateMutability": "payable",
      "type": "function"
    },
    {
      "inputs": [
        {
          "internalType": "address",
          "name": "_masterDeployer",
          "type": "address"
        },
        {
          "internalType": "address",
          "name": "_wETH",
          "type": "address"
        }
      ],
      "name": "initialize",
      "outputs": [],
      "stateMutability": "nonpayable",
      "type": "function"
    },
    {
      "inputs": [],
      "name": "masterDeployer",
      "outputs": [
        {
          "internalType": "contract IMasterDeployer",
          "name": "",
          "type": "address"
        }
      ],
      "stateMutability": "view",
      "type": "function"
    },
    {
      "inputs": [
        {
          "internalType": "bytes[]",
          "name": "data",
          "type": "bytes[]"
        }
      ],
      "name": "multicall",
      "outputs": [
        {
          "internalType": "bytes[]",
          "name": "results",
          "type": "bytes[]"
        }
      ],
      "stateMutability": "payable",
      "type": "function"
    },
    {
      "inputs": [
        {
          "internalType": "address",
          "name": "token",
          "type": "address"
        },
        {
          "internalType": "uint256",
          "name": "amount",
          "type": "uint256"
        },
        {
          "internalType": "uint256",
          "name": "deadline",
          "type": "uint256"
        },
        {
          "internalType": "uint8",
          "name": "v",
          "type": "uint8"
        },
        {
          "internalType": "bytes32",
          "name": "r",
          "type": "bytes32"
        },
        {
          "internalType": "bytes32",
          "name": "s",
          "type": "bytes32"
        }
      ],
      "name": "permitThis",
      "outputs": [],
      "stateMutability": "nonpayable",
      "type": "function"
    },
    {
      "inputs": [
        {
          "internalType": "address",
          "name": "token",
          "type": "address"
        },
        {
          "internalType": "uint256",
          "name": "nonce",
          "type": "uint256"
        },
        {
          "internalType": "uint256",
          "name": "expiry",
          "type": "uint256"
        },
        {
          "internalType": "uint8",
          "name": "v",
          "type": "uint8"
        },
        {
          "internalType": "bytes32",
          "name": "r",
          "type": "bytes32"
        },
        {
          "internalType": "bytes32",
          "name": "s",
          "type": "bytes32"
        }
      ],
      "name": "permitThisAllowed",
      "outputs": [],
      "stateMutability": "nonpayable",
      "type": "function"
    },
    {
      "inputs": [
        {
          "internalType": "address",
          "name": "token",
          "type": "address"
        },
        {
          "internalType": "uint256",
          "name": "amount",
          "type": "uint256"
        },
        {
          "internalType": "address",
          "name": "recipient",
          "type": "address"
        }
      ],
      "name": "sweep",
      "outputs": [],
      "stateMutability": "payable",
      "type": "function"
    }
  ],
  "transactionHash": "0x4da26f4a718bdb08dad11955cb142f9e1b70b06c57c01ac5c60fc4c7ac5b2b31",
  "args": [],
  "numDeployments": 1,
  "solcInputHash": "f01f79503de73c61bcff4c4c934e6fda",
  "bytecode": "0x608060405234801561001057600080fd5b50614828806100206000396000f3fe6080604052600436106100b15760003560e01c8063ac9650d811610069578063c07f5c321161004e578063c07f5c3214610184578063cf58879a14610197578063dc2c256f146101ef57600080fd5b8063ac9650d814610151578063bee20e051461017157600080fd5b806354c1b6501161009a57806354c1b650146100fe5780637763198114610111578063a9b62c231461013157600080fd5b8063363a9dba146100b6578063485cc955146100dc575b600080fd5b6100c96100c4366004613f0c565b610202565b6040519081526020015b60405180910390f35b3480156100e857600080fd5b506100fc6100f7366004613f63565b61097f565b005b6100c961010c366004613f9c565b610b1e565b34801561011d57600080fd5b506100fc61012c366004613fb8565b61106b565b34801561013d57600080fd5b506100fc61014c366004613fb8565b6111a1565b61016461015f36600461401a565b6111ff565b6040516100d39190614105565b6100c961017f366004613f0c565b611371565b6100c9610192366004613f9c565b611ba5565b3480156101a357600080fd5b506000546101ca9062010000900473ffffffffffffffffffffffffffffffffffffffff1681565b60405173ffffffffffffffffffffffffffffffffffffffff90911681526020016100d3565b6100fc6101fd366004614185565b611f9f565b600061025261021460208401846141c7565b3361022260608601866141e4565b600081811061023357610233614253565b905060200201602081019061024891906141c7565b8560200135612067565b60008061026260208501856141c7565b73ffffffffffffffffffffffffffffffffffffffff161461028f5761028a60208401846141c7565b6102a9565b60015473ffffffffffffffffffffffffffffffffffffffff165b905060006102ba60608501856141e4565b9050905060008060005b6102cf6001856142b1565b8110156105d7576102e360608801886141e4565b828181106102f3576102f3614253565b905060200201602081019061030891906141c7565b925061031383612136565b8473ffffffffffffffffffffffffffffffffffffffff168373ffffffffffffffffffffffffffffffffffffffff16630dfe16816040518163ffffffff1660e01b815260040160206040518083038186803b15801561037057600080fd5b505afa158015610384573d6000803e3d6000fd5b505050506040513d601f19601f820116820180604052508101906103a891906142c8565b73ffffffffffffffffffffffffffffffffffffffff161491508273ffffffffffffffffffffffffffffffffffffffff1663627dd56a838980606001906103ee91906141e4565b6103f98660016142e5565b81811061040857610408614253565b905060200201602081019061041d91906141c7565b60408051921515602084015273ffffffffffffffffffffffffffffffffffffffff909116908201526060016040516020818303038152906040526040518263ffffffff1660e01b815260040161047391906142fd565b602060405180830381600087803b15801561048d57600080fd5b505af11580156104a1573d6000803e3d6000fd5b505050506040513d601f19601f820116820180604052508101906104c59190614310565b95508161054f578273ffffffffffffffffffffffffffffffffffffffff16630dfe16816040518163ffffffff1660e01b815260040160206040518083038186803b15801561051257600080fd5b505afa158015610526573d6000803e3d6000fd5b505050506040513d601f19601f8201168201806040525081019061054a91906142c8565b6105cd565b8273ffffffffffffffffffffffffffffffffffffffff1663d21220a76040518163ffffffff1660e01b815260040160206040518083038186803b15801561059557600080fd5b505afa1580156105a9573d6000803e3d6000fd5b505050506040513d601f19601f820116820180604052508101906105cd91906142c8565b94506001016102c4565b506105e560608701876141e4565b6105f06001866142b1565b8181106105ff576105ff614253565b905060200201602081019061061491906141c7565b915061061f82612136565b8373ffffffffffffffffffffffffffffffffffffffff168273ffffffffffffffffffffffffffffffffffffffff16630dfe16816040518163ffffffff1660e01b815260040160206040518083038186803b15801561067c57600080fd5b505afa158015610690573d6000803e3d6000fd5b505050506040513d601f19601f820116820180604052508101906106b491906142c8565b73ffffffffffffffffffffffffffffffffffffffff161490506106dd60c0870160a08801614337565b1561086057604080518215156020820152308183015281518082038301815260608201928390527f627dd56a0000000000000000000000000000000000000000000000000000000090925273ffffffffffffffffffffffffffffffffffffffff84169163627dd56a9161075391906064016142fd565b602060405180830381600087803b15801561076d57600080fd5b505af1158015610781573d6000803e3d6000fd5b505050506040513d601f19601f820116820180604052508101906107a59190614310565b60015490955073ffffffffffffffffffffffffffffffffffffffff1663205c28786107d660a0890160808a016141c7565b6040517fffffffff0000000000000000000000000000000000000000000000000000000060e084901b16815273ffffffffffffffffffffffffffffffffffffffff909116600482015260248101889052604401600060405180830381600087803b15801561084357600080fd5b505af1158015610857573d6000803e3d6000fd5b50505050610938565b73ffffffffffffffffffffffffffffffffffffffff821663627dd56a8261088d60a08a0160808b016141c7565b60408051921515602084015273ffffffffffffffffffffffffffffffffffffffff909116908201526060016040516020818303038152906040526040518263ffffffff1660e01b81526004016108e391906142fd565b602060405180830381600087803b1580156108fd57600080fd5b505af1158015610911573d6000803e3d6000fd5b505050506040513d601f19601f820116820180604052508101906109359190614310565b94505b8560400135851015610976576040517fc9f52c7100000000000000000000000000000000000000000000000000000000815260040160405180910390fd5b50505050919050565b600054610100900460ff1661099a5760005460ff161561099e565b303b155b610a2f576040517f08c379a000000000000000000000000000000000000000000000000000000000815260206004820152602e60248201527f496e697469616c697a61626c653a20636f6e747261637420697320616c72656160448201527f647920696e697469616c697a656400000000000000000000000000000000000060648201526084015b60405180910390fd5b600054610100900460ff16158015610a6e57600080547fffffffffffffffffffffffffffffffffffffffffffffffffffffffffffff0000166101011790555b600080547fffffffffffffffffffff0000000000000000000000000000000000000000ffff166201000073ffffffffffffffffffffffffffffffffffffffff8681169190910291909117909155600180547fffffffffffffffffffffffff0000000000000000000000000000000000000000169184169190911790558015610b1957600080547fffffffffffffffffffffffffffffffffffffffffffffffffffffffffffff00ff1690555b505050565b60008080610b2f60208501856141c7565b73ffffffffffffffffffffffffffffffffffffffff1614610b5c57610b5760208401846141c7565b610b76565b60015473ffffffffffffffffffffffffffffffffffffffff165b9050610b96610b8b60808501606086016141c7565b828560200135612295565b5091506040830135821115610bd7576040517f197464f400000000000000000000000000000000000000000000000000000000815260040160405180910390fd5b6000610be660208501856141c7565b73ffffffffffffffffffffffffffffffffffffffff161415610ccc5781341015610c3c576040517f197464f400000000000000000000000000000000000000000000000000000000815260040160405180910390fd5b60015473ffffffffffffffffffffffffffffffffffffffff1663b760faf9610c6484346142b1565b6040517fffffffff0000000000000000000000000000000000000000000000000000000060e084901b1681523360048201526024016000604051808303818588803b158015610cb257600080fd5b505af1158015610cc6573d6000803e3d6000fd5b50505050505b610cf3610cdc60208501856141c7565b33610ced60808701606088016141c7565b85612067565b6000610d0560808501606086016141c7565b9050610d1081612136565b60008273ffffffffffffffffffffffffffffffffffffffff168273ffffffffffffffffffffffffffffffffffffffff16630dfe16816040518163ffffffff1660e01b815260040160206040518083038186803b158015610d6f57600080fd5b505afa158015610d83573d6000803e3d6000fd5b505050506040513d601f19601f82011682018060405250810190610da791906142c8565b73ffffffffffffffffffffffffffffffffffffffff161490506000610dd260c0870160a08801614337565b15610f5557604080518315156020820152308183015281518082038301815260608201928390527f627dd56a0000000000000000000000000000000000000000000000000000000090925273ffffffffffffffffffffffffffffffffffffffff85169163627dd56a91610e4891906064016142fd565b602060405180830381600087803b158015610e6257600080fd5b505af1158015610e76573d6000803e3d6000fd5b505050506040513d601f19601f82011682018060405250810190610e9a9190614310565b60015490915073ffffffffffffffffffffffffffffffffffffffff1663205c2878610ecb60a0890160808a016141c7565b6040517fffffffff0000000000000000000000000000000000000000000000000000000060e084901b16815273ffffffffffffffffffffffffffffffffffffffff909116600482015260248101849052604401600060405180830381600087803b158015610f3857600080fd5b505af1158015610f4c573d6000803e3d6000fd5b5050505061102d565b73ffffffffffffffffffffffffffffffffffffffff831663627dd56a83610f8260a08a0160808b016141c7565b60408051921515602084015273ffffffffffffffffffffffffffffffffffffffff909116908201526060016040516020818303038152906040526040518263ffffffff1660e01b8152600401610fd891906142fd565b602060405180830381600087803b158015610ff257600080fd5b505af1158015611006573d6000803e3d6000fd5b505050506040513d601f19601f8201168201806040525081019061102a9190614310565b90505b8560200135811015610976576040517fc9f52c7100000000000000000000000000000000000000000000000000000000815260040160405180910390fd5b6040513360248201523060448201526064810186905260848101859052600160a482015260ff841660c482015260e48101839052610104810182905260009073ffffffffffffffffffffffffffffffffffffffff881690638fcbaf0c90610124015b6040516020818303038152906040529060e01b6020820180517bffffffffffffffffffffffffffffffffffffffffffffffffffffffff838183161783525050505060405161111b9190614354565b6000604051808303816000865af19150503d8060008114611158576040519150601f19603f3d011682016040523d82523d6000602084013e61115d565b606091505b5050905080611198576040517fb78cb0dd00000000000000000000000000000000000000000000000000000000815260040160405180910390fd5b50505050505050565b604051336024820152306044820152606481018690526084810185905260ff841660a482015260c4810183905260e4810182905260009073ffffffffffffffffffffffffffffffffffffffff88169063d505accf90610104016110cd565b60608167ffffffffffffffff81111561121a5761121a614370565b60405190808252806020026020018201604052801561124d57816020015b60608152602001906001900390816112385790505b50905060005b8281101561136a576000803086868581811061127157611271614253565b9050602002810190611283919061439f565b604051611291929190614404565b600060405180830381855af49150503d80600081146112cc576040519150601f19603f3d011682016040523d82523d6000602084013e6112d1565b606091505b509150915081611337576044815110156112ea57600080fd5b600481019050808060200190518101906113049190614414565b6040517f08c379a0000000000000000000000000000000000000000000000000000000008152600401610a2691906142fd565b8084848151811061134a5761134a614253565b602002602001018190525050508080611362906144d4565b915050611253565b5092915050565b600061139a61138360608401846141e4565b61139060208601866141c7565b8560200135612a2c565b905080826040013510156113da576040517f197464f400000000000000000000000000000000000000000000000000000000815260040160405180910390fd5b6000806113ea60208501856141c7565b73ffffffffffffffffffffffffffffffffffffffff1614905080156114565781341015611443576040517f197464f400000000000000000000000000000000000000000000000000000000815260040160405180910390fd5b6114563361145184346142b1565b612c58565b61149a61146660208501856141c7565b3361147460608701876141e4565b600081811061148557611485614253565b9050602002016020810190610ced91906141c7565b6000816114b3576114ae60208501856141c7565b6114cd565b60015473ffffffffffffffffffffffffffffffffffffffff165b905060006114de60608601866141e4565b9150600090508080805b6114f36001866142b1565b8110156117fb5761150760608a018a6141e4565b8281811061151757611517614253565b905060200201602081019061152c91906141c7565b915061153782612136565b8573ffffffffffffffffffffffffffffffffffffffff168273ffffffffffffffffffffffffffffffffffffffff16630dfe16816040518163ffffffff1660e01b815260040160206040518083038186803b15801561159457600080fd5b505afa1580156115a8573d6000803e3d6000fd5b505050506040513d601f19601f820116820180604052508101906115cc91906142c8565b73ffffffffffffffffffffffffffffffffffffffff161492508173ffffffffffffffffffffffffffffffffffffffff1663627dd56a848b806060019061161291906141e4565b61161d8660016142e5565b81811061162c5761162c614253565b905060200201602081019061164191906141c7565b60408051921515602084015273ffffffffffffffffffffffffffffffffffffffff909116908201526060016040516020818303038152906040526040518263ffffffff1660e01b815260040161169791906142fd565b602060405180830381600087803b1580156116b157600080fd5b505af11580156116c5573d6000803e3d6000fd5b505050506040513d601f19601f820116820180604052508101906116e99190614310565b935082611773578173ffffffffffffffffffffffffffffffffffffffff16630dfe16816040518163ffffffff1660e01b815260040160206040518083038186803b15801561173657600080fd5b505afa15801561174a573d6000803e3d6000fd5b505050506040513d601f19601f8201168201806040525081019061176e91906142c8565b6117f1565b8173ffffffffffffffffffffffffffffffffffffffff1663d21220a76040518163ffffffff1660e01b815260040160206040518083038186803b1580156117b957600080fd5b505afa1580156117cd573d6000803e3d6000fd5b505050506040513d601f19601f820116820180604052508101906117f191906142c8565b95506001016114e8565b5061180960608901896141e4565b6118146001876142b1565b81811061182357611823614253565b905060200201602081019061183891906141c7565b905061184381612136565b8473ffffffffffffffffffffffffffffffffffffffff168173ffffffffffffffffffffffffffffffffffffffff16630dfe16816040518163ffffffff1660e01b815260040160206040518083038186803b1580156118a057600080fd5b505afa1580156118b4573d6000803e3d6000fd5b505050506040513d601f19601f820116820180604052508101906118d891906142c8565b73ffffffffffffffffffffffffffffffffffffffff1614915061190160c0890160a08a01614337565b15611a8457604080518315156020820152308183015281518082038301815260608201928390527f627dd56a0000000000000000000000000000000000000000000000000000000090925273ffffffffffffffffffffffffffffffffffffffff83169163627dd56a9161197791906064016142fd565b602060405180830381600087803b15801561199157600080fd5b505af11580156119a5573d6000803e3d6000fd5b505050506040513d601f19601f820116820180604052508101906119c99190614310565b60015490935073ffffffffffffffffffffffffffffffffffffffff1663205c28786119fa60a08b0160808c016141c7565b6040517fffffffff0000000000000000000000000000000000000000000000000000000060e084901b16815273ffffffffffffffffffffffffffffffffffffffff909116600482015260248101869052604401600060405180830381600087803b158015611a6757600080fd5b505af1158015611a7b573d6000803e3d6000fd5b50505050611b5c565b73ffffffffffffffffffffffffffffffffffffffff811663627dd56a83611ab160a08c0160808d016141c7565b60408051921515602084015273ffffffffffffffffffffffffffffffffffffffff909116908201526060016040516020818303038152906040526040518263ffffffff1660e01b8152600401611b0791906142fd565b602060405180830381600087803b158015611b2157600080fd5b505af1158015611b35573d6000803e3d6000fd5b505050506040513d601f19601f82011682018060405250810190611b599190614310565b92505b8760200135831015611b9a576040517fc9f52c7100000000000000000000000000000000000000000000000000000000815260040160405180910390fd5b505050505050919050565b6000611bc8611bb760208401846141c7565b3361024860808601606087016141c7565b6000611bda60808401606085016141c7565b9050611be581612136565b600080611bf560208601866141c7565b73ffffffffffffffffffffffffffffffffffffffff1614611c2257611c1d60208501856141c7565b611c3c565b60015473ffffffffffffffffffffffffffffffffffffffff165b905060008173ffffffffffffffffffffffffffffffffffffffff168373ffffffffffffffffffffffffffffffffffffffff16630dfe16816040518163ffffffff1660e01b815260040160206040518083038186803b158015611c9d57600080fd5b505afa158015611cb1573d6000803e3d6000fd5b505050506040513d601f19601f82011682018060405250810190611cd591906142c8565b73ffffffffffffffffffffffffffffffffffffffff16149050611cfe60c0860160a08701614337565b15611e8157604080518215156020820152308183015281518082038301815260608201928390527f627dd56a0000000000000000000000000000000000000000000000000000000090925273ffffffffffffffffffffffffffffffffffffffff85169163627dd56a91611d7491906064016142fd565b602060405180830381600087803b158015611d8e57600080fd5b505af1158015611da2573d6000803e3d6000fd5b505050506040513d601f19601f82011682018060405250810190611dc69190614310565b60015490945073ffffffffffffffffffffffffffffffffffffffff1663205c2878611df760a08801608089016141c7565b6040517fffffffff0000000000000000000000000000000000000000000000000000000060e084901b16815273ffffffffffffffffffffffffffffffffffffffff909116600482015260248101879052604401600060405180830381600087803b158015611e6457600080fd5b505af1158015611e78573d6000803e3d6000fd5b50505050611f59565b73ffffffffffffffffffffffffffffffffffffffff831663627dd56a82611eae60a0890160808a016141c7565b60408051921515602084015273ffffffffffffffffffffffffffffffffffffffff909116908201526060016040516020818303038152906040526040518263ffffffff1660e01b8152600401611f0491906142fd565b602060405180830381600087803b158015611f1e57600080fd5b505af1158015611f32573d6000803e3d6000fd5b505050506040513d601f19601f82011682018060405250810190611f569190614310565b93505b8460400135841015611f97576040517fc9f52c7100000000000000000000000000000000000000000000000000000000815260040160405180910390fd5b505050919050565b73ffffffffffffffffffffffffffffffffffffffff8316612046576001546040517fb760faf900000000000000000000000000000000000000000000000000000000815273ffffffffffffffffffffffffffffffffffffffff83811660048301529091169063b760faf99084906024016000604051808303818588803b15801561202857600080fd5b505af115801561203c573d6000803e3d6000fd5b5050505050505050565b610b1973ffffffffffffffffffffffffffffffffffffffff84168284612d2b565b73ffffffffffffffffffffffffffffffffffffffff841661210e576001546040517fb760faf900000000000000000000000000000000000000000000000000000000815273ffffffffffffffffffffffffffffffffffffffff84811660048301529091169063b760faf99083906024016000604051808303818588803b1580156120f057600080fd5b505af1158015612104573d6000803e3d6000fd5b5050505050612130565b61213073ffffffffffffffffffffffffffffffffffffffff8516848484612dff565b50505050565b73ffffffffffffffffffffffffffffffffffffffff811660009081526002602052604090205460ff16612292576000546040517fa4063dbc00000000000000000000000000000000000000000000000000000000815273ffffffffffffffffffffffffffffffffffffffff8381166004830152620100009092049091169063a4063dbc9060240160206040518083038186803b1580156121d557600080fd5b505afa1580156121e9573d6000803e3d6000fd5b505050506040513d601f19601f8201168201806040525081019061220d919061450d565b612243576040517f2083cd4000000000000000000000000000000000000000000000000000000000815260040160405180910390fd5b73ffffffffffffffffffffffffffffffffffffffff8116600090815260026020526040902080547fffffffffffffffffffffffffffffffffffffffffffffffffffffffffffffff001660011790555b50565b60008060006122a48686612e5d565b905060008673ffffffffffffffffffffffffffffffffffffffff166354cf2aeb6040518163ffffffff1660e01b815260040160206040518083038186803b1580156122ee57600080fd5b505afa158015612302573d6000803e3d6000fd5b505050506040513d601f19601f82011682018060405250810190612326919061452a565b905060008773ffffffffffffffffffffffffffffffffffffffff1663d0c93a7c6040518163ffffffff1660e01b815260040160206040518083038186803b15801561237057600080fd5b505afa158015612384573d6000803e3d6000fd5b505050506040513d601f19601f820116820180604052508101906123a8919061452a565b90506123df6040518060a0016040528060008152602001600081526020016000815260200160008152602001600060020b81525090565b6000808a73ffffffffffffffffffffffffffffffffffffffff16638c347f9b6040518163ffffffff1660e01b8152600401604080518083038186803b15801561242757600080fd5b505afa15801561243b573d6000803e3d6000fd5b505050506040513d601f19601f8201168201806040525081019061245f9190614566565b915091506040518060a001604052808373ffffffffffffffffffffffffffffffffffffffff1681526020018c73ffffffffffffffffffffffffffffffffffffffff16631a6865026040518163ffffffff1660e01b815260040160206040518083038186803b1580156124d057600080fd5b505afa1580156124e4573d6000803e3d6000fd5b505050506040513d601f19601f8201168201806040525081019061250891906145bb565b6fffffffffffffffffffffffffffffffff168152602001600081526020018a8152602001876125db576040517ff30dba93000000000000000000000000000000000000000000000000000000008152600284900b600482015273ffffffffffffffffffffffffffffffffffffffff8e169063f30dba939060240160c06040518083038186803b15801561259a57600080fd5b505afa1580156125ae573d6000803e3d6000fd5b505050506040513d601f19601f820116820180604052508101906125d291906145d6565b602001516125dd565b825b60020b815250925050506125f081612f12565b156126055751600095509350612a2492505050565b6060810151156129ae57600061261e8260800151612f93565b73ffffffffffffffffffffffffffffffffffffffff169050600080861561271157600061266461265986602001518688600001516000613326565b8862ffffff16613374565b9050808560600151116126d55760006126a161268987606001518a62ffffff16613395565b6c0100000000000000000000000088602001516133a9565b86516126ad91906142b1565b90506126c486602001518288600001516001613404565b90865260006060870152925061270b565b6126ea85602001518587600001516000613404565b84865260608601805191945082916127039083906142b1565b905250600191505b5061284b565b600061272b61265986602001518760000151876000613404565b905080856060015111612813576000606060ff168660200151901b905060006127818288600001516127668a606001518d62ffffff16613395565b8a516127729190614669565b61277c90866142b1565b6133a9565b90508087600001511115801561279657508581105b6127eb576127d2826127b189606001518c62ffffff16613395565b89516127bd90866146d5565b6127c791906142b1565b808204910615150190565b73ffffffffffffffffffffffffffffffffffffffff1690505b61280087602001518860000151836001613326565b9087526000606088015293506128499050565b61282885602001518660000151866000613326565b84865260608601805191945082916128419083906142b1565b905250600191505b505b612855828a6142e5565b985080156129a6576128698c85878a613455565b60020b6080860152602085018190526129a6576128a57ffffffffffffffffffffffffffffffffffffffffffffffffffffffffffff27618614710565b60020b846080015160020b14806128e25750608084015160020b7ffffffffffffffffffffffffffffffffffffffffffffffffffffffffffff27618145b1561296757861561291157835161290a906128ff906001906142b1565b6401000276a361394c565b845261295f565b835161295c906129229060016142e5565b612941600173fffd8963efd1fc6a506488495d951d5263988d2661474f565b73ffffffffffffffffffffffffffffffffffffffff16613963565b84525b5050506129ae565b6129748460800151612f93565b73ffffffffffffffffffffffffffffffffffffffff1684526129988c85878a613455565b60020b608086015260208501525b505050612605565b8051606082015190955015612a1f576040517f08c379a000000000000000000000000000000000000000000000000000000000815260206004820152601360248201527f494e53554646494349454e54204f5554505554000000000000000000000000006044820152606401610a26565b505050505b935093915050565b600080612a3a868686613972565b90506000855b8015612c4c578787612a536001846142b1565b818110612a6257612a62614253565b9050602002016020810190612a7791906141c7565b91508273ffffffffffffffffffffffffffffffffffffffff168273ffffffffffffffffffffffffffffffffffffffff16630dfe16816040518163ffffffff1660e01b815260040160206040518083038186803b158015612ad657600080fd5b505afa158015612aea573d6000803e3d6000fd5b505050506040513d601f19601f82011682018060405250810190612b0e91906142c8565b73ffffffffffffffffffffffffffffffffffffffff1614612bac578173ffffffffffffffffffffffffffffffffffffffff16630dfe16816040518163ffffffff1660e01b815260040160206040518083038186803b158015612b6f57600080fd5b505afa158015612b83573d6000803e3d6000fd5b505050506040513d601f19601f82011682018060405250810190612ba791906142c8565b612c2a565b8173ffffffffffffffffffffffffffffffffffffffff1663d21220a76040518163ffffffff1660e01b815260040160206040518083038186803b158015612bf257600080fd5b505afa158015612c06573d6000803e3d6000fd5b505050506040513d601f19601f82011682018060405250810190612c2a91906142c8565b9250612c37828487612295565b50945080612c4481614784565b915050612a40565b50929695505050505050565b80612c61575050565b60008273ffffffffffffffffffffffffffffffffffffffff168260405160006040518083038185875af1925050503d8060008114612cbb576040519150601f19603f3d011682016040523d82523d6000602084013e612cc0565b606091505b5050905080610b19576040517f08c379a000000000000000000000000000000000000000000000000000000000815260206004820152601360248201527f4554485f5452414e534645525f4641494c4544000000000000000000000000006044820152606401610a26565b60405173ffffffffffffffffffffffffffffffffffffffff8316602482015260448101829052610b199084907fa9059cbb00000000000000000000000000000000000000000000000000000000906064015b604080517fffffffffffffffffffffffffffffffffffffffffffffffffffffffffffffffe08184030181529190526020810180517bffffffffffffffffffffffffffffffffffffffffffffffffffffffff167fffffffff0000000000000000000000000000000000000000000000000000000090931692909217909152613bb5565b60405173ffffffffffffffffffffffffffffffffffffffff808516602483015283166044820152606481018290526121309085907f23b872dd0000000000000000000000000000000000000000000000000000000090608401612d7d565b60008173ffffffffffffffffffffffffffffffffffffffff168373ffffffffffffffffffffffffffffffffffffffff16630dfe16816040518163ffffffff1660e01b815260040160206040518083038186803b158015612ebc57600080fd5b505afa158015612ed0573d6000803e3d6000fd5b505050506040513d601f19601f82011682018060405250810190612ef491906142c8565b73ffffffffffffffffffffffffffffffffffffffff16149392505050565b602081015160009015612f2757506000919050565b608082015160020b7ffffffffffffffffffffffffffffffffffffffffffffffffffffffffffff276181480612f8d5750612f807ffffffffffffffffffffffffffffffffffffffffffffffffffffffffffff27618614710565b60020b826080015160020b145b92915050565b60008060008360020b12612faa578260020b612fb7565b8260020b612fb7906147b9565b9050612fe27ffffffffffffffffffffffffffffffffffffffffffffffffffffffffffff27618614710565b62ffffff16811115613020576040517ff87dc40c00000000000000000000000000000000000000000000000000000000815260040160405180910390fd5b60006001821661304157700100000000000000000000000000000000613053565b6ffffcb933bd6fad37aa2d162d1a5940015b70ffffffffffffffffffffffffffffffffff1690506002821615613087576ffff97272373d413259a46990580e213a0260801c5b60048216156130a6576ffff2e50f5f656932ef12357cf3c7fdcc0260801c5b60088216156130c5576fffe5caca7e10e4e61c3624eaa0941cd00260801c5b60108216156130e4576fffcb9843d60f6159c9db58835c9266440260801c5b6020821615613103576fff973b41fa98c081472e6896dfb254c00260801c5b6040821615613122576fff2ea16466c96a3843ec78b326b528610260801c5b6080821615613141576ffe5dee046a99a2a811c461f1969c30530260801c5b610100821615613161576ffcbe86c7900a88aedcffc83b479aa3a40260801c5b610200821615613181576ff987a7253ac413176f2b074cf7815e540260801c5b6104008216156131a1576ff3392b0822b70005940c7a398e4b70f30260801c5b6108008216156131c1576fe7159475a2c29b7443b29c7fa6e889d90260801c5b6110008216156131e1576fd097f3bdfd2022b8845ad8f792aa58250260801c5b612000821615613201576fa9f746462d870fdf8a65dc1f90e061e50260801c5b614000821615613221576f70d869a156d2a1b890bb3df62baf32f70260801c5b618000821615613241576f31be135f97d08fd981231505542fcfa60260801c5b62010000821615613262576f09aa508b5b7a84e1c677de54f3e99bc90260801c5b62020000821615613282576e5d6af8dedb81196699c329225ee6040260801c5b620400008216156132a1576d2216e584f5fa1ea926041bedfe980260801c5b620800008216156132be576b048a170391f7dc42444e8fa20260801c5b60008460020b13156132fd57807fffffffffffffffffffffffffffffffffffffffffffffffffffffffffffffffff816132f9576132f96146a6565b0490505b640100000000810615613311576001613314565b60005b60ff16602082901c0192505050919050565b6000811561334f57613348858585036c010000000000000000000000006133a9565b905061336c565b613369858585036c01000000000000000000000000613cc1565b90505b949350505050565b60006133848383620f42406133a9565b61338e90846142b1565b9392505050565b600061338e83620f424061277c85826142b1565b60006133b6848484613cc1565b905081806133c6576133c66146a6565b8385091561338e577fffffffffffffffffffffffffffffffffffffffffffffffffffffffffffffffff81106133fa57600080fd5b6001019392505050565b6000811561342c57613348613420606087901b868603866133a9565b85808204910615150190565b8361343e606087901b82860386613cc1565b8161344b5761344b6146a6565b0495945050505050565b60008082156136d15760028460020b866080015160020b81613479576134796146a6565b0560020b8161348a5761348a6146a6565b0760020b61355c5760808501516040517ff30dba9300000000000000000000000000000000000000000000000000000000815260029190910b600482015273ffffffffffffffffffffffffffffffffffffffff87169063f30dba939060240160c06040518083038186803b15801561350157600080fd5b505afa158015613515573d6000803e3d6000fd5b505050506040513d601f19601f8201168201806040525081019061353991906145d6565b604001516fffffffffffffffffffffffffffffffff168560200151039150613622565b60808501516040517ff30dba9300000000000000000000000000000000000000000000000000000000815260029190910b600482015273ffffffffffffffffffffffffffffffffffffffff87169063f30dba939060240160c06040518083038186803b1580156135cb57600080fd5b505afa1580156135df573d6000803e3d6000fd5b505050506040513d601f19601f8201168201806040525081019061360391906145d6565b604001516fffffffffffffffffffffffffffffffff1685602001510191505b60808501516040517ff30dba9300000000000000000000000000000000000000000000000000000000815260029190910b600482015273ffffffffffffffffffffffffffffffffffffffff87169063f30dba939060240160c06040518083038186803b15801561369157600080fd5b505afa1580156136a5573d6000803e3d6000fd5b505050506040513d601f19601f820116820180604052508101906136c991906145d6565b519050613943565b60028460020b866080015160020b816136ec576136ec6146a6565b0560020b816136fd576136fd6146a6565b0760020b6137cf5760808501516040517ff30dba9300000000000000000000000000000000000000000000000000000000815260029190910b600482015273ffffffffffffffffffffffffffffffffffffffff87169063f30dba939060240160c06040518083038186803b15801561377457600080fd5b505afa158015613788573d6000803e3d6000fd5b505050506040513d601f19601f820116820180604052508101906137ac91906145d6565b604001516fffffffffffffffffffffffffffffffff168560200151019150613895565b60808501516040517ff30dba9300000000000000000000000000000000000000000000000000000000815260029190910b600482015273ffffffffffffffffffffffffffffffffffffffff87169063f30dba939060240160c06040518083038186803b15801561383e57600080fd5b505afa158015613852573d6000803e3d6000fd5b505050506040513d601f19601f8201168201806040525081019061387691906145d6565b604001516fffffffffffffffffffffffffffffffff1685602001510391505b60808501516040517ff30dba9300000000000000000000000000000000000000000000000000000000815260029190910b600482015273ffffffffffffffffffffffffffffffffffffffff87169063f30dba939060240160c06040518083038186803b15801561390457600080fd5b505afa158015613918573d6000803e3d6000fd5b505050506040513d601f19601f8201168201806040525081019061393c91906145d6565b6020015190505b94509492505050565b60008183101561395c578161338e565b5090919050565b600081831061395c578161338e565b600073ffffffffffffffffffffffffffffffffffffffff82161561399657816139b0565b60015473ffffffffffffffffffffffffffffffffffffffff165b90506000805b84811015613bac578585828181106139d0576139d0614253565b90506020020160208101906139e591906141c7565b91508273ffffffffffffffffffffffffffffffffffffffff168273ffffffffffffffffffffffffffffffffffffffff16630dfe16816040518163ffffffff1660e01b815260040160206040518083038186803b158015613a4457600080fd5b505afa158015613a58573d6000803e3d6000fd5b505050506040513d601f19601f82011682018060405250810190613a7c91906142c8565b73ffffffffffffffffffffffffffffffffffffffff1614613b1a578173ffffffffffffffffffffffffffffffffffffffff16630dfe16816040518163ffffffff1660e01b815260040160206040518083038186803b158015613add57600080fd5b505afa158015613af1573d6000803e3d6000fd5b505050506040513d601f19601f82011682018060405250810190613b1591906142c8565b613b98565b8173ffffffffffffffffffffffffffffffffffffffff1663d21220a76040518163ffffffff1660e01b815260040160206040518083038186803b158015613b6057600080fd5b505afa158015613b74573d6000803e3d6000fd5b505050506040513d601f19601f82011682018060405250810190613b9891906142c8565b925080613ba4816144d4565b9150506139b6565b50509392505050565b6000613c17826040518060400160405280602081526020017f5361666545524332303a206c6f772d6c6576656c2063616c6c206661696c65648152508573ffffffffffffffffffffffffffffffffffffffff16613d929092919063ffffffff16565b805190915015610b195780806020019051810190613c35919061450d565b610b19576040517f08c379a000000000000000000000000000000000000000000000000000000000815260206004820152602a60248201527f5361666545524332303a204552433230206f7065726174696f6e20646964206e60448201527f6f742073756363656564000000000000000000000000000000000000000000006064820152608401610a26565b600080807fffffffffffffffffffffffffffffffffffffffffffffffffffffffffffffffff8587098587029250828110838203039150508060001415613d195760008411613d0e57600080fd5b50829004905061338e565b808411613d2557600080fd5b6000848688096000868103871696879004966002600389028118808a02820302808a02820302808a02820302808a02820302808a02820302808a02909103029181900381900460010186841190950394909402919094039290920491909117919091029150509392505050565b606061336c84846000858573ffffffffffffffffffffffffffffffffffffffff85163b613e1b576040517f08c379a000000000000000000000000000000000000000000000000000000000815260206004820152601d60248201527f416464726573733a2063616c6c20746f206e6f6e2d636f6e74726163740000006044820152606401610a26565b6000808673ffffffffffffffffffffffffffffffffffffffff168587604051613e449190614354565b60006040518083038185875af1925050503d8060008114613e81576040519150601f19603f3d011682016040523d82523d6000602084013e613e86565b606091505b5091509150613e96828286613ea1565b979650505050505050565b60608315613eb057508161338e565b825115613ec05782518084602001fd5b816040517f08c379a0000000000000000000000000000000000000000000000000000000008152600401610a2691906142fd565b600060c08284031215613f0657600080fd5b50919050565b600060208284031215613f1e57600080fd5b813567ffffffffffffffff811115613f3557600080fd5b61336c84828501613ef4565b73ffffffffffffffffffffffffffffffffffffffff8116811461229257600080fd5b60008060408385031215613f7657600080fd5b8235613f8181613f41565b91506020830135613f9181613f41565b809150509250929050565b600060c08284031215613fae57600080fd5b61338e8383613ef4565b60008060008060008060c08789031215613fd157600080fd5b8635613fdc81613f41565b95506020870135945060408701359350606087013560ff8116811461400057600080fd5b9598949750929560808101359460a0909101359350915050565b6000806020838503121561402d57600080fd5b823567ffffffffffffffff8082111561404557600080fd5b818501915085601f83011261405957600080fd5b81358181111561406857600080fd5b8660208260051b850101111561407d57600080fd5b60209290920196919550909350505050565b60005b838110156140aa578181015183820152602001614092565b838111156121305750506000910152565b600081518084526140d381602086016020860161408f565b601f017fffffffffffffffffffffffffffffffffffffffffffffffffffffffffffffffe0169290920160200192915050565b6000602080830181845280855180835260408601915060408160051b870101925083870160005b82811015614178577fffffffffffffffffffffffffffffffffffffffffffffffffffffffffffffffc08886030184526141668583516140bb565b9450928501929085019060010161412c565b5092979650505050505050565b60008060006060848603121561419a57600080fd5b83356141a581613f41565b92506020840135915060408401356141bc81613f41565b809150509250925092565b6000602082840312156141d957600080fd5b813561338e81613f41565b60008083357fffffffffffffffffffffffffffffffffffffffffffffffffffffffffffffffe184360301811261421957600080fd5b83018035915067ffffffffffffffff82111561423457600080fd5b6020019150600581901b360382131561424c57600080fd5b9250929050565b7f4e487b7100000000000000000000000000000000000000000000000000000000600052603260045260246000fd5b7f4e487b7100000000000000000000000000000000000000000000000000000000600052601160045260246000fd5b6000828210156142c3576142c3614282565b500390565b6000602082840312156142da57600080fd5b815161338e81613f41565b600082198211156142f8576142f8614282565b500190565b60208152600061338e60208301846140bb565b60006020828403121561432257600080fd5b5051919050565b801515811461229257600080fd5b60006020828403121561434957600080fd5b813561338e81614329565b6000825161436681846020870161408f565b9190910192915050565b7f4e487b7100000000000000000000000000000000000000000000000000000000600052604160045260246000fd5b60008083357fffffffffffffffffffffffffffffffffffffffffffffffffffffffffffffffe18436030181126143d457600080fd5b83018035915067ffffffffffffffff8211156143ef57600080fd5b60200191503681900382131561424c57600080fd5b8183823760009101908152919050565b60006020828403121561442657600080fd5b815167ffffffffffffffff8082111561443e57600080fd5b818401915084601f83011261445257600080fd5b81518181111561446457614464614370565b604051601f82017fffffffffffffffffffffffffffffffffffffffffffffffffffffffffffffffe0908116603f011681019083821181831017156144aa576144aa614370565b816040528281528760208487010111156144c357600080fd5b613e9683602083016020880161408f565b60007fffffffffffffffffffffffffffffffffffffffffffffffffffffffffffffffff82141561450657614506614282565b5060010190565b60006020828403121561451f57600080fd5b815161338e81614329565b60006020828403121561453c57600080fd5b815162ffffff8116811461338e57600080fd5b8051600281900b811461456157600080fd5b919050565b6000806040838503121561457957600080fd5b825161458481613f41565b91506145926020840161454f565b90509250929050565b80516fffffffffffffffffffffffffffffffff8116811461456157600080fd5b6000602082840312156145cd57600080fd5b61338e8261459b565b600060c082840312156145e857600080fd5b60405160c0810181811067ffffffffffffffff8211171561460b5761460b614370565b6040526146178361454f565b81526146256020840161454f565b60208201526146366040840161459b565b6040820152606083015160608201526080830151608082015260a083015161465d81613f41565b60a08201529392505050565b6000817fffffffffffffffffffffffffffffffffffffffffffffffffffffffffffffffff04831182151516156146a1576146a1614282565b500290565b7f4e487b7100000000000000000000000000000000000000000000000000000000600052601260045260246000fd5b60008261470b577f4e487b7100000000000000000000000000000000000000000000000000000000600052601260045260246000fd5b500490565b60008160020b7fffffffffffffffffffffffffffffffffffffffffffffffffffffffffff80000081141561474657614746614282565b60000392915050565b600073ffffffffffffffffffffffffffffffffffffffff8381169083168181101561477c5761477c614282565b039392505050565b60008161479357614793614282565b507fffffffffffffffffffffffffffffffffffffffffffffffffffffffffffffffff0190565b60007f80000000000000000000000000000000000000000000000000000000000000008214156147eb576147eb614282565b506000039056fea2646970667358221220c0d6888d5a65000985f5113825481f32e48be8baaedcd2cac0453ad0a47c50ea64736f6c63430008090033",
  "devdoc": {
    "kind": "dev",
    "methods": {
      "exactInput((address,uint256,uint256,address[],address,bool))": {
        "params": {
          "params": "(uint256 amountIn,uint256 amountOutMinimum, address[] path, address tokenIn, address to, bool unwrap)"
        }
      },
      "exactInputSingle((address,uint256,uint256,address,address,bool))": {
        "params": {
          "params": "(uint256 amountIn,uint256 amountOutMinimum, address pool, address tokenIn, address to, bool unwrap)"
        }
      },
      "exactOutput((address,uint256,uint256,address[],address,bool))": {
        "params": {
          "params": "The parameters necessary for the swap, encoded as ExactOutputSingleParams in calldata"
        }
      },
      "exactOutputSingle((address,uint256,uint256,address,address,bool))": {
        "params": {
          "params": "The parameters necessary for the swap, encoded as ExactOutputSingleParams in calldata"
        }
      },
      "multicall(bytes[])": {
        "details": "The `msg.value` should not be trusted for any method callable from this function.",
        "params": {
          "data": "ABI-encoded params for each of the calls to make to this contract."
        },
        "returns": {
          "results": "The results from each of the calls passed in via `data`."
        }
      },
      "permitThis(address,uint256,uint256,uint8,bytes32,bytes32)": {
        "params": {
          "amount": "Token amount to grant spending right over.",
          "deadline": "Termination for signed approval (UTC timestamp in seconds).",
          "r": "Half of the ECDSA signature pair.",
          "s": "Half of the ECDSA signature pair.",
          "token": "Address of ERC-20 token.",
          "v": "The recovery byte of the signature."
        }
      },
      "permitThisAllowed(address,uint256,uint256,uint8,bytes32,bytes32)": {
        "params": {
          "expiry": "Termination for signed approval - UTC timestamp in seconds.",
          "nonce": "Token owner's nonce - increases at each call to {permit}.",
          "r": "Half of the ECDSA signature pair.",
          "s": "Half of the ECDSA signature pair.",
          "token": "Address of ERC-20 token.",
          "v": "The recovery byte of the signature."
        }
      }
    },
    "version": 1
  },
  "userdoc": {
    "kind": "user",
    "methods": {
      "exactInput((address,uint256,uint256,address[],address,bool))": {
        "notice": "Swaps token A to token B indirectly by using multiple hops."
      },
      "exactInputSingle((address,uint256,uint256,address,address,bool))": {
        "notice": "Swaps amountIn of one token for as much as possible of another token"
      },
      "exactOutput((address,uint256,uint256,address[],address,bool))": {
        "notice": "Swaps as little as possible of one token for `amountOut` of another token"
      },
      "exactOutputSingle((address,uint256,uint256,address,address,bool))": {
        "notice": "Swaps as little as possible of one token for `amountOut` of another token"
      },
      "masterDeployer()": {
        "notice": "master deployer contract."
      },
      "multicall(bytes[])": {
        "notice": "Provides batch function calls for this contract and returns the data from all of them if they all succeed. Adapted from https://github.com/Uniswap/uniswap-v3-periphery/blob/main/contracts/base/Multicall.sol, License-Identifier: GPL-2.0-or-later."
      },
      "permitThis(address,uint256,uint256,uint8,bytes32,bytes32)": {
        "notice": "Provides EIP-2612 signed approval for this contract to spend user tokens."
      },
      "permitThisAllowed(address,uint256,uint256,uint8,bytes32,bytes32)": {
        "notice": "Provides DAI-derived signed approval for this contract to spend user tokens."
      },
      "sweep(address,uint256,address)": {
        "notice": "Recover mistakenly sent tokens."
      }
    },
    "notice": "Router contract that helps in swapping across pools.",
    "version": 1
  },
  "storageLayout": {
    "storage": [
      {
        "astId": 130,
        "contract": "contracts/pool/PoolRouter.sol:PoolRouter",
        "label": "_initialized",
        "offset": 0,
        "slot": "0",
        "type": "t_bool"
      },
      {
        "astId": 133,
        "contract": "contracts/pool/PoolRouter.sol:PoolRouter",
        "label": "_initializing",
        "offset": 1,
        "slot": "0",
        "type": "t_bool"
      },
      {
        "astId": 16442,
        "contract": "contracts/pool/PoolRouter.sol:PoolRouter",
        "label": "masterDeployer",
        "offset": 2,
        "slot": "0",
        "type": "t_contract(IMasterDeployer)6584"
      },
      {
        "astId": 16445,
        "contract": "contracts/pool/PoolRouter.sol:PoolRouter",
        "label": "wETH",
        "offset": 0,
        "slot": "1",
        "type": "t_address_payable"
      },
      {
        "astId": 16456,
        "contract": "contracts/pool/PoolRouter.sol:PoolRouter",
        "label": "whitelistedPools",
        "offset": 0,
        "slot": "2",
        "type": "t_mapping(t_address,t_bool)"
      }
    ],
    "types": {
      "t_address": {
        "encoding": "inplace",
        "label": "address",
        "numberOfBytes": "20"
      },
      "t_address_payable": {
        "encoding": "inplace",
        "label": "address payable",
        "numberOfBytes": "20"
      },
      "t_bool": {
        "encoding": "inplace",
        "label": "bool",
        "numberOfBytes": "1"
      },
      "t_contract(IMasterDeployer)6584": {
        "encoding": "inplace",
        "label": "contract IMasterDeployer",
        "numberOfBytes": "20"
      },
      "t_mapping(t_address,t_bool)": {
        "encoding": "mapping",
        "key": "t_address",
        "label": "mapping(address => bool)",
        "numberOfBytes": "32",
        "value": "t_bool"
      }
    }
  }
}