{
  "address": "0x9E2fFC3414e0b98d3c985924dE51c6a35D47795E",
  "abi": [
    {
      "inputs": [
        {
          "internalType": "address",
          "name": "_wETH",
          "type": "address"
        }
      ],
      "stateMutability": "nonpayable",
      "type": "constructor"
    },
    {
      "inputs": [],
      "name": "TickOutOfBounds",
      "type": "error"
    },
    {
      "inputs": [
        {
          "internalType": "address[]",
          "name": "path",
          "type": "address[]"
        },
        {
          "internalType": "address",
          "name": "tokenIn",
          "type": "address"
        },
        {
          "internalType": "uint256",
          "name": "exactAmountIn",
          "type": "uint256"
        }
      ],
      "name": "calculateExactInput",
      "outputs": [
        {
          "internalType": "uint256",
          "name": "amountOut",
          "type": "uint256"
        },
        {
          "internalType": "uint256",
          "name": "price",
          "type": "uint256"
        }
      ],
      "stateMutability": "view",
      "type": "function"
    },
    {
      "inputs": [
        {
          "internalType": "address",
          "name": "pool",
          "type": "address"
        },
        {
          "internalType": "address",
          "name": "tokenIn",
          "type": "address"
        },
        {
          "internalType": "uint256",
          "name": "exactAmountIn",
          "type": "uint256"
        }
      ],
      "name": "calculateExactInputSingle",
      "outputs": [
        {
          "internalType": "uint256",
          "name": "amountOut",
          "type": "uint256"
        },
        {
          "internalType": "uint256",
          "name": "price",
          "type": "uint256"
        }
      ],
      "stateMutability": "view",
      "type": "function"
    },
    {
      "inputs": [
        {
          "internalType": "address[]",
          "name": "path",
          "type": "address[]"
        },
        {
          "internalType": "address",
          "name": "tokenIn",
          "type": "address"
        },
        {
          "internalType": "uint256",
          "name": "exactAmountOut",
          "type": "uint256"
        }
      ],
      "name": "calculateExactOutput",
      "outputs": [
        {
          "internalType": "uint256",
          "name": "amountIn",
          "type": "uint256"
        },
        {
          "internalType": "uint256",
          "name": "price",
          "type": "uint256"
        }
      ],
      "stateMutability": "view",
      "type": "function"
    },
    {
      "inputs": [
        {
          "internalType": "address",
          "name": "pool",
          "type": "address"
        },
        {
          "internalType": "address",
          "name": "tokenIn",
          "type": "address"
        },
        {
          "internalType": "uint256",
          "name": "exactAmountOut",
          "type": "uint256"
        }
      ],
      "name": "calculateExactOutputSingle",
      "outputs": [
        {
          "internalType": "uint256",
          "name": "amountIn",
          "type": "uint256"
        },
        {
          "internalType": "uint256",
          "name": "price",
          "type": "uint256"
        }
      ],
      "stateMutability": "view",
      "type": "function"
    },
    {
      "inputs": [],
      "name": "wETH",
      "outputs": [
        {
          "internalType": "address",
          "name": "",
          "type": "address"
        }
      ],
      "stateMutability": "view",
      "type": "function"
    }
  ],
  "transactionHash": "0x084ba56ce4f13830ac8360605901f055422ac54b1bf7c1ea83dffc9d44ce432c",
  "args": [
    "0x3e825cbA8d59Eb0E62A24Db1A8F85158d30A26c3"
  ],
  "numDeployments": 1,
  "solcInputHash": "f775cf71cf3afe8bafbf3e3b34605380",
  "bytecode": "0x60806040523480156200001157600080fd5b506040516200285d3803806200285d83398101604081905262000034916200005a565b600080546001600160a01b0319166001600160a01b03929092169190911790556200008c565b6000602082840312156200006d57600080fd5b81516001600160a01b03811681146200008557600080fd5b9392505050565b6127c1806200009c6000396000f3fe608060405234801561001057600080fd5b50600436106100675760003560e01c806375a844a01161005057806375a844a0146100ac578063beba5d3f146100bf578063f2428621146100d257600080fd5b80635213f13b1461006c5780636ecc579414610099575b600080fd5b61007f61007a3660046122c6565b610117565b604080519283526020830191909152015b60405180910390f35b61007f6100a7366004612352565b610375565b61007f6100ba3660046122c6565b6103cb565b61007f6100cd366004612352565b6105ff565b6000546100f29073ffffffffffffffffffffffffffffffffffffffff1681565b60405173ffffffffffffffffffffffffffffffffffffffff9091168152602001610090565b60008073ffffffffffffffffffffffffffffffffffffffff84161561013c5783610156565b60005473ffffffffffffffffffffffffffffffffffffffff165b935082915060005b8581101561036b57600087878381811061017a5761017a612393565b905060200201602081019061018f91906123c2565b905061019c818786610644565b80945081955050508573ffffffffffffffffffffffffffffffffffffffff168173ffffffffffffffffffffffffffffffffffffffff16630dfe16816040518163ffffffff1660e01b815260040160206040518083038186803b15801561020157600080fd5b505afa158015610215573d6000803e3d6000fd5b505050506040513d601f19601f8201168201806040525081019061023991906123df565b73ffffffffffffffffffffffffffffffffffffffff16146102d7578073ffffffffffffffffffffffffffffffffffffffff16630dfe16816040518163ffffffff1660e01b815260040160206040518083038186803b15801561029a57600080fd5b505afa1580156102ae573d6000803e3d6000fd5b505050506040513d601f19601f820116820180604052508101906102d291906123df565b610355565b8073ffffffffffffffffffffffffffffffffffffffff1663d21220a76040518163ffffffff1660e01b815260040160206040518083038186803b15801561031d57600080fd5b505afa158015610331573d6000803e3d6000fd5b505050506040513d601f19601f8201168201806040525081019061035591906123df565b95505080806103639061242b565b91505061015e565b5094509492505050565b6000806103be8573ffffffffffffffffffffffffffffffffffffffff86161561039e57856103b8565b60005473ffffffffffffffffffffffffffffffffffffffff165b85610d39565b915091505b935093915050565b60008060006103db87878761147e565b905083865b80156105f157600089896103f5600185612464565b81811061040457610404612393565b905060200201602081019061041991906123c2565b90508373ffffffffffffffffffffffffffffffffffffffff168173ffffffffffffffffffffffffffffffffffffffff16630dfe16816040518163ffffffff1660e01b815260040160206040518083038186803b15801561047857600080fd5b505afa15801561048c573d6000803e3d6000fd5b505050506040513d601f19601f820116820180604052508101906104b091906123df565b73ffffffffffffffffffffffffffffffffffffffff161461054e578073ffffffffffffffffffffffffffffffffffffffff16630dfe16816040518163ffffffff1660e01b815260040160206040518083038186803b15801561051157600080fd5b505afa158015610525573d6000803e3d6000fd5b505050506040513d601f19601f8201168201806040525081019061054991906123df565b6105cc565b8073ffffffffffffffffffffffffffffffffffffffff1663d21220a76040518163ffffffff1660e01b815260040160206040518083038186803b15801561059457600080fd5b505afa1580156105a8573d6000803e3d6000fd5b505050506040513d601f19601f820116820180604052508101906105cc91906123df565b93506105d9818585610d39565b955092508190506105e98161247b565b9150506103e0565b509791965090945050505050565b6000806103be8573ffffffffffffffffffffffffffffffffffffffff8616156106285785610642565b60005473ffffffffffffffffffffffffffffffffffffffff165b855b600080600061065386866116c2565b905060008673ffffffffffffffffffffffffffffffffffffffff166354cf2aeb6040518163ffffffff1660e01b815260040160206040518083038186803b15801561069d57600080fd5b505afa1580156106b1573d6000803e3d6000fd5b505050506040513d601f19601f820116820180604052508101906106d591906124b0565b905060008773ffffffffffffffffffffffffffffffffffffffff1663d0c93a7c6040518163ffffffff1660e01b815260040160206040518083038186803b15801561071f57600080fd5b505afa158015610733573d6000803e3d6000fd5b505050506040513d601f19601f8201168201806040525081019061075791906124b0565b905061078e6040518060a0016040528060008152602001600081526020016000815260200160008152602001600060020b81525090565b6000808a73ffffffffffffffffffffffffffffffffffffffff16638c347f9b6040518163ffffffff1660e01b8152600401604080518083038186803b1580156107d657600080fd5b505afa1580156107ea573d6000803e3d6000fd5b505050506040513d601f19601f8201168201806040525081019061080e91906124f7565b915091506040518060a001604052808373ffffffffffffffffffffffffffffffffffffffff1681526020018c73ffffffffffffffffffffffffffffffffffffffff16631a6865026040518163ffffffff1660e01b815260040160206040518083038186803b15801561087f57600080fd5b505afa158015610893573d6000803e3d6000fd5b505050506040513d601f19601f820116820180604052508101906108b7919061254c565b6fffffffffffffffffffffffffffffffff1681526020018a8152602001600081526020018761098a576040517ff30dba93000000000000000000000000000000000000000000000000000000008152600284900b600482015273ffffffffffffffffffffffffffffffffffffffff8e169063f30dba939060240160c06040518083038186803b15801561094957600080fd5b505afa15801561095d573d6000803e3d6000fd5b505050506040513d601f19601f820116820180604052508101906109819190612567565b6020015161098c565b825b60020b8152509250505061099f81611777565b156109b457516000955093506103c392505050565b604081015115610d2b5760006109cd82608001516117f8565b73ffffffffffffffffffffffffffffffffffffffff1690506000808615610b07576000610a0585602001518587600001516000611b8b565b905080856040015111610acb5760208501518551604087015160609290921b91600091610a4891849190610a39908261261f565b610a43908661265c565b611be5565b9050808611158015610a5a5750865181105b610aa35760408701518751610a8a918491610a7590836126a3565b610a7f919061265c565b808204910615150190565b73ffffffffffffffffffffffffffffffffffffffff1690505b610ab887602001518289600001516000611c40565b908752600060408801529350610b019050565b610ae085602001518587600001516000611c40565b848652604086018051919450600193508291610afd908390612464565b9052505b50610bb9565b6000610b1e85602001518660000151866000611c40565b905080856040015111610b81576000610b4d86604001516c010000000000000000000000008860200151611c85565b8651610b59919061265c565b9050610b7086602001518760000151836000611b8b565b908652600060408701529250610bb7565b610b9685602001518660000151866000611b8b565b848652604086018051919450600193508291610bb3908390612464565b9052505b505b610bc8828762ffffff16611d56565b610bd2908a61265c565b98508015610d2357610be68c85878a611d70565b60020b608086015260208501819052610d2357610c227ffffffffffffffffffffffffffffffffffffffffffffffffffffffffffff276186126de565b60020b846080015160020b1480610c5f5750608084015160020b7ffffffffffffffffffffffffffffffffffffffffffffffffffffffffffff27618145b15610ce4578615610c8e578351610c8790610c7c90600190612464565b6401000276a3612267565b8452610cdc565b8351610cd990610c9f90600161265c565b610cbe600173fffd8963efd1fc6a506488495d951d5263988d2661271d565b73ffffffffffffffffffffffffffffffffffffffff1661227e565b84525b505050610d2b565b610cf184608001516117f8565b73ffffffffffffffffffffffffffffffffffffffff168452610d158c85878a611d70565b60020b608086015260208501525b5050506109b4565b519350505050935093915050565b6000806000610d4886866116c2565b905060008673ffffffffffffffffffffffffffffffffffffffff166354cf2aeb6040518163ffffffff1660e01b815260040160206040518083038186803b158015610d9257600080fd5b505afa158015610da6573d6000803e3d6000fd5b505050506040513d601f19601f82011682018060405250810190610dca91906124b0565b905060008773ffffffffffffffffffffffffffffffffffffffff1663d0c93a7c6040518163ffffffff1660e01b815260040160206040518083038186803b158015610e1457600080fd5b505afa158015610e28573d6000803e3d6000fd5b505050506040513d601f19601f82011682018060405250810190610e4c91906124b0565b9050610e836040518060a0016040528060008152602001600081526020016000815260200160008152602001600060020b81525090565b6000808a73ffffffffffffffffffffffffffffffffffffffff16638c347f9b6040518163ffffffff1660e01b8152600401604080518083038186803b158015610ecb57600080fd5b505afa158015610edf573d6000803e3d6000fd5b505050506040513d601f19601f82011682018060405250810190610f0391906124f7565b915091506040518060a001604052808373ffffffffffffffffffffffffffffffffffffffff1681526020018c73ffffffffffffffffffffffffffffffffffffffff16631a6865026040518163ffffffff1660e01b815260040160206040518083038186803b158015610f7457600080fd5b505afa158015610f88573d6000803e3d6000fd5b505050506040513d601f19601f82011682018060405250810190610fac919061254c565b6fffffffffffffffffffffffffffffffff168152602001600081526020018a81526020018761107f576040517ff30dba93000000000000000000000000000000000000000000000000000000008152600284900b600482015273ffffffffffffffffffffffffffffffffffffffff8e169063f30dba939060240160c06040518083038186803b15801561103e57600080fd5b505afa158015611052573d6000803e3d6000fd5b505050506040513d601f19601f820116820180604052508101906110769190612567565b60200151611081565b825b60020b8152509250505061109481611777565b156110a957516000955093506103c392505050565b6060810151156113fd5760006110c282608001516117f8565b73ffffffffffffffffffffffffffffffffffffffff16905060008086156111b55760006111086110fd86602001518688600001516000611c40565b8862ffffff16611d56565b90508085606001511161117957600061114561112d87606001518a62ffffff1661228d565b6c010000000000000000000000008860200151611be5565b86516111519190612464565b905061116886602001518288600001516001611b8b565b9086526000606087015292506111af565b61118e85602001518587600001516000611b8b565b84865260608601805191945082916111a7908390612464565b905250600191505b506112df565b60006111cf6110fd86602001518760000151876000611b8b565b9050808560600151116112a7576000606060ff168660200151901b9050600061122082886000015161120a8a606001518d62ffffff1661228d565b8a51611216919061261f565b610a439086612464565b90508087600001511115801561123557508581105b61127f576112668261125089606001518c62ffffff1661228d565b895161125c90866126a3565b610a7f9190612464565b73ffffffffffffffffffffffffffffffffffffffff1690505b61129487602001518860000151836001611c40565b9087526000606088015293506112dd9050565b6112bc85602001518660000151866000611c40565b84865260608601805191945082916112d5908390612464565b905250600191505b505b6112e9828a61265c565b985080156113f5576112fd8c85878a611d70565b60020b6080860152602085018190526113f5576113397ffffffffffffffffffffffffffffffffffffffffffffffffffffffffffff276186126de565b60020b846080015160020b14806113765750608084015160020b7ffffffffffffffffffffffffffffffffffffffffffffffffffffffffffff27618145b156113b657861561139a57835161139390610c7c90600190612464565b84526113ae565b83516113ab90610c9f90600161265c565b84525b5050506113fd565b6113c384608001516117f8565b73ffffffffffffffffffffffffffffffffffffffff1684526113e78c85878a611d70565b60020b608086015260208501525b5050506110a9565b8051606082015190955015611472576040517f08c379a000000000000000000000000000000000000000000000000000000000815260206004820152601360248201527f494e53554646494349454e54204f555450555400000000000000000000000000604482015260640160405180910390fd5b50505050935093915050565b600073ffffffffffffffffffffffffffffffffffffffff8216156114a257816114bc565b60005473ffffffffffffffffffffffffffffffffffffffff165b90506000805b848110156116b8578585828181106114dc576114dc612393565b90506020020160208101906114f191906123c2565b91508273ffffffffffffffffffffffffffffffffffffffff168273ffffffffffffffffffffffffffffffffffffffff16630dfe16816040518163ffffffff1660e01b815260040160206040518083038186803b15801561155057600080fd5b505afa158015611564573d6000803e3d6000fd5b505050506040513d601f19601f8201168201806040525081019061158891906123df565b73ffffffffffffffffffffffffffffffffffffffff1614611626578173ffffffffffffffffffffffffffffffffffffffff16630dfe16816040518163ffffffff1660e01b815260040160206040518083038186803b1580156115e957600080fd5b505afa1580156115fd573d6000803e3d6000fd5b505050506040513d601f19601f8201168201806040525081019061162191906123df565b6116a4565b8173ffffffffffffffffffffffffffffffffffffffff1663d21220a76040518163ffffffff1660e01b815260040160206040518083038186803b15801561166c57600080fd5b505afa158015611680573d6000803e3d6000fd5b505050506040513d601f19601f820116820180604052508101906116a491906123df565b9250806116b08161242b565b9150506114c2565b50505b9392505050565b60008173ffffffffffffffffffffffffffffffffffffffff168373ffffffffffffffffffffffffffffffffffffffff16630dfe16816040518163ffffffff1660e01b815260040160206040518083038186803b15801561172157600080fd5b505afa158015611735573d6000803e3d6000fd5b505050506040513d601f19601f8201168201806040525081019061175991906123df565b73ffffffffffffffffffffffffffffffffffffffff16149392505050565b60208101516000901561178c57506000919050565b608082015160020b7ffffffffffffffffffffffffffffffffffffffffffffffffffffffffffff2761814806117f257506117e57ffffffffffffffffffffffffffffffffffffffffffffffffffffffffffff276186126de565b60020b826080015160020b145b92915050565b60008060008360020b1261180f578260020b61181c565b8260020b61181c90612752565b90506118477ffffffffffffffffffffffffffffffffffffffffffffffffffffffffffff276186126de565b62ffffff16811115611885576040517ff87dc40c00000000000000000000000000000000000000000000000000000000815260040160405180910390fd5b6000600182166118a6577001000000000000000000000000000000006118b8565b6ffffcb933bd6fad37aa2d162d1a5940015b70ffffffffffffffffffffffffffffffffff16905060028216156118ec576ffff97272373d413259a46990580e213a0260801c5b600482161561190b576ffff2e50f5f656932ef12357cf3c7fdcc0260801c5b600882161561192a576fffe5caca7e10e4e61c3624eaa0941cd00260801c5b6010821615611949576fffcb9843d60f6159c9db58835c9266440260801c5b6020821615611968576fff973b41fa98c081472e6896dfb254c00260801c5b6040821615611987576fff2ea16466c96a3843ec78b326b528610260801c5b60808216156119a6576ffe5dee046a99a2a811c461f1969c30530260801c5b6101008216156119c6576ffcbe86c7900a88aedcffc83b479aa3a40260801c5b6102008216156119e6576ff987a7253ac413176f2b074cf7815e540260801c5b610400821615611a06576ff3392b0822b70005940c7a398e4b70f30260801c5b610800821615611a26576fe7159475a2c29b7443b29c7fa6e889d90260801c5b611000821615611a46576fd097f3bdfd2022b8845ad8f792aa58250260801c5b612000821615611a66576fa9f746462d870fdf8a65dc1f90e061e50260801c5b614000821615611a86576f70d869a156d2a1b890bb3df62baf32f70260801c5b618000821615611aa6576f31be135f97d08fd981231505542fcfa60260801c5b62010000821615611ac7576f09aa508b5b7a84e1c677de54f3e99bc90260801c5b62020000821615611ae7576e5d6af8dedb81196699c329225ee6040260801c5b62040000821615611b06576d2216e584f5fa1ea926041bedfe980260801c5b62080000821615611b23576b048a170391f7dc42444e8fa20260801c5b60008460020b1315611b6257807fffffffffffffffffffffffffffffffffffffffffffffffffffffffffffffffff81611b5e57611b5e612674565b0490505b640100000000810615611b76576001611b79565b60005b60ff16602082901c0192505050919050565b60008115611bba57611bb3611ba7606087901b86860386611be5565b85808204910615150190565b9050611bdd565b83611bcc606087901b82860386611c85565b81611bd957611bd9612674565b0490505b949350505050565b6000611bf2848484611c85565b90508180611c0257611c02612674565b838509156116bb577fffffffffffffffffffffffffffffffffffffffffffffffffffffffffffffffff8110611c3657600080fd5b6001019392505050565b60008115611c6257611bb3858585036c01000000000000000000000000611be5565b611c7c858585036c01000000000000000000000000611c85565b95945050505050565b600080807fffffffffffffffffffffffffffffffffffffffffffffffffffffffffffffffff8587098587029250828110838203039150508060001415611cdd5760008411611cd257600080fd5b5082900490506116bb565b808411611ce957600080fd5b6000848688096000868103871696879004966002600389028118808a02820302808a02820302808a02820302808a02820302808a02820302808a02909103029181900381900460010186841190950394909402919094039290920491909117919091029150509392505050565b6000611d668383620f4240611be5565b6116bb9084612464565b6000808215611fec5760028460020b866080015160020b81611d9457611d94612674565b0560020b81611da557611da5612674565b0760020b611e775760808501516040517ff30dba9300000000000000000000000000000000000000000000000000000000815260029190910b600482015273ffffffffffffffffffffffffffffffffffffffff87169063f30dba939060240160c06040518083038186803b158015611e1c57600080fd5b505afa158015611e30573d6000803e3d6000fd5b505050506040513d601f19601f82011682018060405250810190611e549190612567565b604001516fffffffffffffffffffffffffffffffff168560200151039150611f3d565b60808501516040517ff30dba9300000000000000000000000000000000000000000000000000000000815260029190910b600482015273ffffffffffffffffffffffffffffffffffffffff87169063f30dba939060240160c06040518083038186803b158015611ee657600080fd5b505afa158015611efa573d6000803e3d6000fd5b505050506040513d601f19601f82011682018060405250810190611f1e9190612567565b604001516fffffffffffffffffffffffffffffffff1685602001510191505b60808501516040517ff30dba9300000000000000000000000000000000000000000000000000000000815260029190910b600482015273ffffffffffffffffffffffffffffffffffffffff87169063f30dba939060240160c06040518083038186803b158015611fac57600080fd5b505afa158015611fc0573d6000803e3d6000fd5b505050506040513d601f19601f82011682018060405250810190611fe49190612567565b51905061225e565b60028460020b866080015160020b8161200757612007612674565b0560020b8161201857612018612674565b0760020b6120ea5760808501516040517ff30dba9300000000000000000000000000000000000000000000000000000000815260029190910b600482015273ffffffffffffffffffffffffffffffffffffffff87169063f30dba939060240160c06040518083038186803b15801561208f57600080fd5b505afa1580156120a3573d6000803e3d6000fd5b505050506040513d601f19601f820116820180604052508101906120c79190612567565b604001516fffffffffffffffffffffffffffffffff1685602001510191506121b0565b60808501516040517ff30dba9300000000000000000000000000000000000000000000000000000000815260029190910b600482015273ffffffffffffffffffffffffffffffffffffffff87169063f30dba939060240160c06040518083038186803b15801561215957600080fd5b505afa15801561216d573d6000803e3d6000fd5b505050506040513d601f19601f820116820180604052508101906121919190612567565b604001516fffffffffffffffffffffffffffffffff1685602001510391505b60808501516040517ff30dba9300000000000000000000000000000000000000000000000000000000815260029190910b600482015273ffffffffffffffffffffffffffffffffffffffff87169063f30dba939060240160c06040518083038186803b15801561221f57600080fd5b505afa158015612233573d6000803e3d6000fd5b505050506040513d601f19601f820116820180604052508101906122579190612567565b6020015190505b94509492505050565b60008183101561227757816116bb565b5090919050565b600081831061227757816116bb565b60006116bb83620f4240610a438582612464565b73ffffffffffffffffffffffffffffffffffffffff811681146122c357600080fd5b50565b600080600080606085870312156122dc57600080fd5b843567ffffffffffffffff808211156122f457600080fd5b818701915087601f83011261230857600080fd5b81358181111561231757600080fd5b8860208260051b850101111561232c57600080fd5b60209283019650945050850135612342816122a1565b9396929550929360400135925050565b60008060006060848603121561236757600080fd5b8335612372816122a1565b92506020840135612382816122a1565b929592945050506040919091013590565b7f4e487b7100000000000000000000000000000000000000000000000000000000600052603260045260246000fd5b6000602082840312156123d457600080fd5b81356116bb816122a1565b6000602082840312156123f157600080fd5b81516116bb816122a1565b7f4e487b7100000000000000000000000000000000000000000000000000000000600052601160045260246000fd5b60007fffffffffffffffffffffffffffffffffffffffffffffffffffffffffffffffff82141561245d5761245d6123fc565b5060010190565b600082821015612476576124766123fc565b500390565b60008161248a5761248a6123fc565b507fffffffffffffffffffffffffffffffffffffffffffffffffffffffffffffffff0190565b6000602082840312156124c257600080fd5b815162ffffff811681146116bb57600080fd5b80516124e0816122a1565b919050565b8051600281900b81146124e057600080fd5b6000806040838503121561250a57600080fd5b8251612515816122a1565b9150612523602084016124e5565b90509250929050565b80516fffffffffffffffffffffffffffffffff811681146124e057600080fd5b60006020828403121561255e57600080fd5b6116bb8261252c565b600060c0828403121561257957600080fd5b60405160c0810181811067ffffffffffffffff821117156125c3577f4e487b7100000000000000000000000000000000000000000000000000000000600052604160045260246000fd5b6040526125cf836124e5565b81526125dd602084016124e5565b60208201526125ee6040840161252c565b6040820152606083015160608201526080830151608082015261261360a084016124d5565b60a08201529392505050565b6000817fffffffffffffffffffffffffffffffffffffffffffffffffffffffffffffffff0483118215151615612657576126576123fc565b500290565b6000821982111561266f5761266f6123fc565b500190565b7f4e487b7100000000000000000000000000000000000000000000000000000000600052601260045260246000fd5b6000826126d9577f4e487b7100000000000000000000000000000000000000000000000000000000600052601260045260246000fd5b500490565b60008160020b7fffffffffffffffffffffffffffffffffffffffffffffffffffffffffff800000811415612714576127146123fc565b60000392915050565b600073ffffffffffffffffffffffffffffffffffffffff8381169083168181101561274a5761274a6123fc565b039392505050565b60007f8000000000000000000000000000000000000000000000000000000000000000821415612784576127846123fc565b506000039056fea2646970667358221220502cd937f8622156aae0a202352e9ceb8ce911582f6ea958318dffa7b142676864736f6c63430008090033",
  "devdoc": {
    "kind": "dev",
    "methods": {},
    "version": 1
  },
  "userdoc": {
    "kind": "user",
    "methods": {},
    "version": 1
  },
  "storageLayout": {
    "storage": [
      {
        "astId": 10958,
        "contract": "contracts/misc/SwapHelper.sol:SwapHelper",
        "label": "wETH",
        "offset": 0,
        "slot": "0",
        "type": "t_address"
      }
    ],
    "types": {
      "t_address": {
        "encoding": "inplace",
        "label": "address",
        "numberOfBytes": "20"
      }
    }
  }
}