{
  "address": "0x0339d5Eb6D195Ba90B13ed1BCeAa97EbD198b106",
  "abi": [
    {
      "inputs": [],
      "stateMutability": "nonpayable",
      "type": "constructor"
    },
    {
      "anonymous": false,
      "inputs": [
        {
          "indexed": true,
          "internalType": "address",
          "name": "owner",
          "type": "address"
        },
        {
          "indexed": true,
          "internalType": "address",
          "name": "spender",
          "type": "address"
        },
        {
          "indexed": false,
          "internalType": "uint256",
          "name": "value",
          "type": "uint256"
        }
      ],
      "name": "Approval",
      "type": "event"
    },
    {
      "anonymous": false,
      "inputs": [
        {
          "indexed": true,
          "internalType": "address",
          "name": "from",
          "type": "address"
        },
        {
          "indexed": true,
          "internalType": "address",
          "name": "to",
          "type": "address"
        },
        {
          "indexed": false,
          "internalType": "uint256",
          "name": "value",
          "type": "uint256"
        }
      ],
      "name": "Transfer",
      "type": "event"
    },
    {
      "inputs": [],
      "name": "CALLBACK_SUCCESS",
      "outputs": [
        {
          "internalType": "bytes32",
          "name": "",
          "type": "bytes32"
        }
      ],
      "stateMutability": "view",
      "type": "function"
    },
    {
      "inputs": [],
      "name": "DOMAIN_SEPARATOR",
      "outputs": [
        {
          "internalType": "bytes32",
          "name": "",
          "type": "bytes32"
        }
      ],
      "stateMutability": "view",
      "type": "function"
    },
    {
      "inputs": [],
      "name": "PERMIT_TYPEHASH",
      "outputs": [
        {
          "internalType": "bytes32",
          "name": "",
          "type": "bytes32"
        }
      ],
      "stateMutability": "view",
      "type": "function"
    },
    {
      "inputs": [
        {
          "internalType": "address",
          "name": "",
          "type": "address"
        },
        {
          "internalType": "address",
          "name": "",
          "type": "address"
        }
      ],
      "name": "allowance",
      "outputs": [
        {
          "internalType": "uint256",
          "name": "",
          "type": "uint256"
        }
      ],
      "stateMutability": "view",
      "type": "function"
    },
    {
      "inputs": [
        {
          "internalType": "address",
          "name": "spender",
          "type": "address"
        },
        {
          "internalType": "uint256",
          "name": "value",
          "type": "uint256"
        }
      ],
      "name": "approve",
      "outputs": [
        {
          "internalType": "bool",
          "name": "",
          "type": "bool"
        }
      ],
      "stateMutability": "nonpayable",
      "type": "function"
    },
    {
      "inputs": [
        {
          "internalType": "address",
          "name": "spender",
          "type": "address"
        },
        {
          "internalType": "uint256",
          "name": "value",
          "type": "uint256"
        },
        {
          "internalType": "bytes",
          "name": "data",
          "type": "bytes"
        }
      ],
      "name": "approveAndCall",
      "outputs": [
        {
          "internalType": "bool",
          "name": "",
          "type": "bool"
        }
      ],
      "stateMutability": "nonpayable",
      "type": "function"
    },
    {
      "inputs": [
        {
          "internalType": "address",
          "name": "",
          "type": "address"
        }
      ],
      "name": "balanceOf",
      "outputs": [
        {
          "internalType": "uint256",
          "name": "",
          "type": "uint256"
        }
      ],
      "stateMutability": "view",
      "type": "function"
    },
    {
      "inputs": [],
      "name": "decimals",
      "outputs": [
        {
          "internalType": "uint8",
          "name": "",
          "type": "uint8"
        }
      ],
      "stateMutability": "view",
      "type": "function"
    },
    {
      "inputs": [],
      "name": "deploymentChainId",
      "outputs": [
        {
          "internalType": "uint256",
          "name": "",
          "type": "uint256"
        }
      ],
      "stateMutability": "view",
      "type": "function"
    },
    {
      "inputs": [],
      "name": "deposit",
      "outputs": [],
      "stateMutability": "payable",
      "type": "function"
    },
    {
      "inputs": [
        {
          "internalType": "address",
          "name": "to",
          "type": "address"
        }
      ],
      "name": "depositTo",
      "outputs": [],
      "stateMutability": "payable",
      "type": "function"
    },
    {
      "inputs": [
        {
          "internalType": "address",
          "name": "to",
          "type": "address"
        },
        {
          "internalType": "bytes",
          "name": "data",
          "type": "bytes"
        }
      ],
      "name": "depositToAndCall",
      "outputs": [
        {
          "internalType": "bool",
          "name": "success",
          "type": "bool"
        }
      ],
      "stateMutability": "payable",
      "type": "function"
    },
    {
      "inputs": [
        {
          "internalType": "address",
          "name": "token",
          "type": "address"
        },
        {
          "internalType": "uint256",
          "name": "",
          "type": "uint256"
        }
      ],
      "name": "flashFee",
      "outputs": [
        {
          "internalType": "uint256",
          "name": "",
          "type": "uint256"
        }
      ],
      "stateMutability": "view",
      "type": "function"
    },
    {
      "inputs": [
        {
          "internalType": "contract IERC3156FlashBorrower",
          "name": "receiver",
          "type": "address"
        },
        {
          "internalType": "address",
          "name": "token",
          "type": "address"
        },
        {
          "internalType": "uint256",
          "name": "value",
          "type": "uint256"
        },
        {
          "internalType": "bytes",
          "name": "data",
          "type": "bytes"
        }
      ],
      "name": "flashLoan",
      "outputs": [
        {
          "internalType": "bool",
          "name": "",
          "type": "bool"
        }
      ],
      "stateMutability": "nonpayable",
      "type": "function"
    },
    {
      "inputs": [],
      "name": "flashMinted",
      "outputs": [
        {
          "internalType": "uint256",
          "name": "",
          "type": "uint256"
        }
      ],
      "stateMutability": "view",
      "type": "function"
    },
    {
      "inputs": [
        {
          "internalType": "address",
          "name": "token",
          "type": "address"
        }
      ],
      "name": "maxFlashLoan",
      "outputs": [
        {
          "internalType": "uint256",
          "name": "",
          "type": "uint256"
        }
      ],
      "stateMutability": "view",
      "type": "function"
    },
    {
      "inputs": [],
      "name": "name",
      "outputs": [
        {
          "internalType": "string",
          "name": "",
          "type": "string"
        }
      ],
      "stateMutability": "view",
      "type": "function"
    },
    {
      "inputs": [
        {
          "internalType": "address",
          "name": "",
          "type": "address"
        }
      ],
      "name": "nonces",
      "outputs": [
        {
          "internalType": "uint256",
          "name": "",
          "type": "uint256"
        }
      ],
      "stateMutability": "view",
      "type": "function"
    },
    {
      "inputs": [
        {
          "internalType": "address",
          "name": "owner",
          "type": "address"
        },
        {
          "internalType": "address",
          "name": "spender",
          "type": "address"
        },
        {
          "internalType": "uint256",
          "name": "value",
          "type": "uint256"
        },
        {
          "internalType": "uint256",
          "name": "deadline",
          "type": "uint256"
        },
        {
          "internalType": "uint8",
          "name": "v",
          "type": "uint8"
        },
        {
          "internalType": "bytes32",
          "name": "r",
          "type": "bytes32"
        },
        {
          "internalType": "bytes32",
          "name": "s",
          "type": "bytes32"
        }
      ],
      "name": "permit",
      "outputs": [],
      "stateMutability": "nonpayable",
      "type": "function"
    },
    {
      "inputs": [],
      "name": "symbol",
      "outputs": [
        {
          "internalType": "string",
          "name": "",
          "type": "string"
        }
      ],
      "stateMutability": "view",
      "type": "function"
    },
    {
      "inputs": [],
      "name": "totalSupply",
      "outputs": [
        {
          "internalType": "uint256",
          "name": "",
          "type": "uint256"
        }
      ],
      "stateMutability": "view",
      "type": "function"
    },
    {
      "inputs": [
        {
          "internalType": "address",
          "name": "to",
          "type": "address"
        },
        {
          "internalType": "uint256",
          "name": "value",
          "type": "uint256"
        }
      ],
      "name": "transfer",
      "outputs": [
        {
          "internalType": "bool",
          "name": "",
          "type": "bool"
        }
      ],
      "stateMutability": "nonpayable",
      "type": "function"
    },
    {
      "inputs": [
        {
          "internalType": "address",
          "name": "to",
          "type": "address"
        },
        {
          "internalType": "uint256",
          "name": "value",
          "type": "uint256"
        },
        {
          "internalType": "bytes",
          "name": "data",
          "type": "bytes"
        }
      ],
      "name": "transferAndCall",
      "outputs": [
        {
          "internalType": "bool",
          "name": "",
          "type": "bool"
        }
      ],
      "stateMutability": "nonpayable",
      "type": "function"
    },
    {
      "inputs": [
        {
          "internalType": "address",
          "name": "from",
          "type": "address"
        },
        {
          "internalType": "address",
          "name": "to",
          "type": "address"
        },
        {
          "internalType": "uint256",
          "name": "value",
          "type": "uint256"
        }
      ],
      "name": "transferFrom",
      "outputs": [
        {
          "internalType": "bool",
          "name": "",
          "type": "bool"
        }
      ],
      "stateMutability": "nonpayable",
      "type": "function"
    },
    {
      "inputs": [
        {
          "internalType": "uint256",
          "name": "value",
          "type": "uint256"
        }
      ],
      "name": "withdraw",
      "outputs": [],
      "stateMutability": "nonpayable",
      "type": "function"
    },
    {
      "inputs": [
        {
          "internalType": "address",
          "name": "from",
          "type": "address"
        },
        {
          "internalType": "address payable",
          "name": "to",
          "type": "address"
        },
        {
          "internalType": "uint256",
          "name": "value",
          "type": "uint256"
        }
      ],
      "name": "withdrawFrom",
      "outputs": [],
      "stateMutability": "nonpayable",
      "type": "function"
    },
    {
      "inputs": [
        {
          "internalType": "address payable",
          "name": "to",
          "type": "address"
        },
        {
          "internalType": "uint256",
          "name": "value",
          "type": "uint256"
        }
      ],
      "name": "withdrawTo",
      "outputs": [],
      "stateMutability": "nonpayable",
      "type": "function"
    },
    {
      "stateMutability": "payable",
      "type": "receive"
    }
  ],
  "transactionHash": "0xcdf001572f1b6c2025d3923101b1ded9338b3a19898005b750f754587602d80c",
  "args": [],
  "numDeployments": 1,
  "solcInputHash": "f01f79503de73c61bcff4c4c934e6fda",
  "bytecode": "0x6101006040527f439148f0bbc682ca079e46d6e2c2f0c1e3b820f1a291b069d8882abf8cf18dd96080527f6e71edae12b1b97f4d1f60370fef10105fa2faae0126114a169c64845d6126c960a05234801561005957600080fd5b504660c0818152604080518082018252601081526f057726170706564204b4c4159207631360841b6020918201528151808301835260018152603160f81b9082015281517f8b73c3c69bb8fe3d512ecc4cf759cc79239f7b179b0ffacaa9a75d522b39400f818301527f6ba9313af671398349b7f8716558a1ca76220a96b6163172d2cd209ab689868b818401527fc89efdaa54c0f20c7adf612882df0950f5a951637e0307cdcb4c672f298b8bc66060820152608081018590523060a080830191909152835180830390910181529301909152815191012060e0525060805160a05160c05160e051612db26101926000396000818161101501526125ab01526000818161058101528181610eeb015261248101526000818161033e01526123ec01526000818161047b015261164b0152612db26000f3fe6080604052600436106101b05760003560e01c806370a08231116100ec578063b760faf91161008a578063d0e30db011610064578063d0e30db0146105a3578063d505accf146105ab578063d9d98ce4146105cb578063dd62ed3e146105eb57600080fd5b8063b760faf91461053c578063cae9ca511461054f578063cd0d00961461056f57600080fd5b80638b28d32f116100c65780638b28d32f1461049d5780639555a942146104b357806395d89b41146104d3578063a9059cbb1461051c57600080fd5b806370a082311461040f5780637ecebe001461043c5780638237e5381461046957600080fd5b806330adf81f116101595780634000aea0116101335780634000aea01461039c5780635cffe9de146103bc5780635ddb7d7e146103dc578063613255ab146103ef57600080fd5b806330adf81f1461032c578063313ce567146103605780633644e5151461038757600080fd5b8063205c28781161018a578063205c2878146102ca57806323b872dd146102ec5780632e1a7d4d1461030c57600080fd5b806306fdde0314610218578063095ea7b31461027757806318160ddd146102a757600080fd5b366102135733600090815260208190526040812080543492906101d490849061289f565b909155505060405134815233906000907fddf252ad1be2c89b69c2b068fc378daa952ba7f163c4a11628f55a4df523b3ef9060200160405180910390a3005b600080fd5b34801561022457600080fd5b506102616040518060400160405280601081526020017f57726170706564204b4c4159207631300000000000000000000000000000000081525081565b60405161026e91906128b7565b60405180910390f35b34801561028357600080fd5b5061029761029236600461294f565b610623565b604051901515815260200161026e565b3480156102b357600080fd5b506102bc61069c565b60405190815260200161026e565b3480156102d657600080fd5b506102ea6102e536600461294f565b6106b1565b005b3480156102f857600080fd5b5061029761030736600461297b565b610876565b34801561031857600080fd5b506102ea6103273660046129bc565b610d3f565b34801561033857600080fd5b506102bc7f000000000000000000000000000000000000000000000000000000000000000081565b34801561036c57600080fd5b50610375601281565b60405160ff909116815260200161026e565b34801561039357600080fd5b506102bc610ee6565b3480156103a857600080fd5b506102976103b7366004612a1e565b61103b565b3480156103c857600080fd5b506102976103d7366004612a7a565b6113f3565b6102976103ea366004612aed565b6119d0565b3480156103fb57600080fd5b506102bc61040a366004612b42565b611b0c565b34801561041b57600080fd5b506102bc61042a366004612b42565b60006020819052908152604090205481565b34801561044857600080fd5b506102bc610457366004612b42565b60016020526000908152604090205481565b34801561047557600080fd5b506102bc7f000000000000000000000000000000000000000000000000000000000000000081565b3480156104a957600080fd5b506102bc60035481565b3480156104bf57600080fd5b506102ea6104ce36600461297b565b611b53565b3480156104df57600080fd5b506102616040518060400160405280600581526020017f574b4c415900000000000000000000000000000000000000000000000000000081525081565b34801561052857600080fd5b5061029761053736600461294f565b611e99565b6102ea61054a366004612b42565b6121a7565b34801561055b57600080fd5b5061029761056a366004612a1e565b612232565b34801561057b57600080fd5b506102bc7f000000000000000000000000000000000000000000000000000000000000000081565b6102ea6122f8565b3480156105b757600080fd5b506102ea6105c6366004612b66565b612356565b3480156105d757600080fd5b506102bc6105e636600461294f565b6127e6565b3480156105f757600080fd5b506102bc610606366004612bdd565b600260209081526000928352604080842090915290825290205481565b33600081815260026020908152604080832073ffffffffffffffffffffffffffffffffffffffff8716808552925280832085905551919290917f8c5be1e5ebec7d5bd14f71427d1e84f3dd0314c0f7b2291e5b200ac8c7c3b9259061068b9086815260200190565b60405180910390a350600192915050565b6000600354476106ac919061289f565b905090565b3360009081526020819052604090205481811015610756576040517f08c379a000000000000000000000000000000000000000000000000000000000815260206004820152602160248201527f574554483a206275726e20616d6f756e7420657863656564732062616c616e6360448201527f650000000000000000000000000000000000000000000000000000000000000060648201526084015b60405180910390fd5b6107608282612c16565b3360008181526020818152604080832094909455925185815290927fddf252ad1be2c89b69c2b068fc378daa952ba7f163c4a11628f55a4df523b3ef910160405180910390a360008373ffffffffffffffffffffffffffffffffffffffff168360405160006040518083038185875af1925050503d8060008114610800576040519150601f19603f3d011682016040523d82523d6000602084013e610805565b606091505b5050905080610870576040517f08c379a000000000000000000000000000000000000000000000000000000000815260206004820152601960248201527f574554483a20455448207472616e73666572206661696c656400000000000000604482015260640161074d565b50505050565b600073ffffffffffffffffffffffffffffffffffffffff841633146109d15773ffffffffffffffffffffffffffffffffffffffff841660009081526002602090815260408083203384529091529020547fffffffffffffffffffffffffffffffffffffffffffffffffffffffffffffffff81146109cf5782811015610957576040517f08c379a000000000000000000000000000000000000000000000000000000000815260206004820152601f60248201527f574554483a2072657175657374206578636565647320616c6c6f77616e636500604482015260640161074d565b60006109638483612c16565b73ffffffffffffffffffffffffffffffffffffffff8716600081815260026020908152604080832033808552908352928190208590555184815293945090927f8c5be1e5ebec7d5bd14f71427d1e84f3dd0314c0f7b2291e5b200ac8c7c3b925910160405180910390a3505b505b73ffffffffffffffffffffffffffffffffffffffff831615610b645773ffffffffffffffffffffffffffffffffffffffff841660009081526020819052604090205482811015610aa3576040517f08c379a000000000000000000000000000000000000000000000000000000000815260206004820152602560248201527f574554483a207472616e7366657220616d6f756e74206578636565647320626160448201527f6c616e6365000000000000000000000000000000000000000000000000000000606482015260840161074d565b610aad8382612c16565b73ffffffffffffffffffffffffffffffffffffffff8087166000908152602081905260408082209390935590861681529081208054859290610af090849061289f565b925050819055508373ffffffffffffffffffffffffffffffffffffffff168573ffffffffffffffffffffffffffffffffffffffff167fddf252ad1be2c89b69c2b068fc378daa952ba7f163c4a11628f55a4df523b3ef85604051610b5691815260200190565b60405180910390a350610d35565b73ffffffffffffffffffffffffffffffffffffffff841660009081526020819052604090205482811015610c1a576040517f08c379a000000000000000000000000000000000000000000000000000000000815260206004820152602160248201527f574554483a206275726e20616d6f756e7420657863656564732062616c616e6360448201527f6500000000000000000000000000000000000000000000000000000000000000606482015260840161074d565b610c248382612c16565b73ffffffffffffffffffffffffffffffffffffffff861660008181526020818152604080832094909455925186815290927fddf252ad1be2c89b69c2b068fc378daa952ba7f163c4a11628f55a4df523b3ef910160405180910390a3604051600090339085908381818185875af1925050503d8060008114610cc2576040519150601f19603f3d011682016040523d82523d6000602084013e610cc7565b606091505b5050905080610d32576040517f08c379a000000000000000000000000000000000000000000000000000000000815260206004820152601960248201527f574554483a20455448207472616e73666572206661696c656400000000000000604482015260640161074d565b50505b5060019392505050565b3360009081526020819052604090205481811015610ddf576040517f08c379a000000000000000000000000000000000000000000000000000000000815260206004820152602160248201527f574554483a206275726e20616d6f756e7420657863656564732062616c616e6360448201527f6500000000000000000000000000000000000000000000000000000000000000606482015260840161074d565b610de98282612c16565b3360008181526020818152604080832094909455925185815290927fddf252ad1be2c89b69c2b068fc378daa952ba7f163c4a11628f55a4df523b3ef910160405180910390a3604051600090339084908381818185875af1925050503d8060008114610e71576040519150601f19603f3d011682016040523d82523d6000602084013e610e76565b606091505b5050905080610ee1576040517f08c379a000000000000000000000000000000000000000000000000000000000815260206004820152601960248201527f574554483a20455448207472616e73666572206661696c656400000000000000604482015260640161074d565b505050565b6000467f0000000000000000000000000000000000000000000000000000000000000000811461101357604080518082018252601081527f57726170706564204b4c4159207631300000000000000000000000000000000060209182015281518083018352600181527f31000000000000000000000000000000000000000000000000000000000000009082015281517f8b73c3c69bb8fe3d512ecc4cf759cc79239f7b179b0ffacaa9a75d522b39400f818301527f6ba9313af671398349b7f8716558a1ca76220a96b6163172d2cd209ab689868b818401527fc89efdaa54c0f20c7adf612882df0950f5a951637e0307cdcb4c672f298b8bc66060820152608081018490523060a0808301919091528351808303909101815260c09091019092528151910120611035565b7f00000000000000000000000000000000000000000000000000000000000000005b91505090565b600073ffffffffffffffffffffffffffffffffffffffff85161561119b5733600090815260208190526040902054848110156110f9576040517f08c379a000000000000000000000000000000000000000000000000000000000815260206004820152602560248201527f574554483a207472616e7366657220616d6f756e74206578636565647320626160448201527f6c616e6365000000000000000000000000000000000000000000000000000000606482015260840161074d565b6111038582612c16565b336000908152602081905260408082209290925573ffffffffffffffffffffffffffffffffffffffff88168152908120805487929061114390849061289f565b909155505060405185815273ffffffffffffffffffffffffffffffffffffffff87169033907fddf252ad1be2c89b69c2b068fc378daa952ba7f163c4a11628f55a4df523b3ef9060200160405180910390a350611340565b336000908152602081905260409020548481101561123b576040517f08c379a000000000000000000000000000000000000000000000000000000000815260206004820152602160248201527f574554483a206275726e20616d6f756e7420657863656564732062616c616e6360448201527f6500000000000000000000000000000000000000000000000000000000000000606482015260840161074d565b6112458582612c16565b3360008181526020818152604080832094909455925188815290927fddf252ad1be2c89b69c2b068fc378daa952ba7f163c4a11628f55a4df523b3ef910160405180910390a3604051600090339087908381818185875af1925050503d80600081146112cd576040519150601f19603f3d011682016040523d82523d6000602084013e6112d2565b606091505b505090508061133d576040517f08c379a000000000000000000000000000000000000000000000000000000000815260206004820152601960248201527f574554483a20455448207472616e73666572206661696c656400000000000000604482015260640161074d565b50505b6040517fa4c0ed3600000000000000000000000000000000000000000000000000000000815273ffffffffffffffffffffffffffffffffffffffff86169063a4c0ed3690611398903390889088908890600401612c76565b602060405180830381600087803b1580156113b257600080fd5b505af11580156113c6573d6000803e3d6000fd5b505050506040513d601f19601f820116820180604052508101906113ea9190612cb6565b95945050505050565b600073ffffffffffffffffffffffffffffffffffffffff85163014611474576040517f08c379a000000000000000000000000000000000000000000000000000000000815260206004820152601c60248201527f574554483a20666c617368206d696e74206f6e6c792057455448313000000000604482015260640161074d565b6dffffffffffffffffffffffffffff841115611511576040517f08c379a0000000000000000000000000000000000000000000000000000000008152602060048201526024808201527f574554483a20696e646976696475616c206c6f616e206c696d6974206578636560448201527f6564656400000000000000000000000000000000000000000000000000000000606482015260840161074d565b8360035461151f919061289f565b60038190556dffffffffffffffffffffffffffff101561159b576040517f08c379a000000000000000000000000000000000000000000000000000000000815260206004820152601f60248201527f574554483a20746f74616c206c6f616e206c696d697420657863656564656400604482015260640161074d565b73ffffffffffffffffffffffffffffffffffffffff8616600090815260208190526040812080548692906115d090849061289f565b909155505060405184815273ffffffffffffffffffffffffffffffffffffffff8716906000907fddf252ad1be2c89b69c2b068fc378daa952ba7f163c4a11628f55a4df523b3ef9060200160405180910390a36040517f23e30c8b0000000000000000000000000000000000000000000000000000000081527f00000000000000000000000000000000000000000000000000000000000000009073ffffffffffffffffffffffffffffffffffffffff8816906323e30c8b906116a290339030908a906000908b908b90600401612cd8565b602060405180830381600087803b1580156116bc57600080fd5b505af11580156116d0573d6000803e3d6000fd5b505050506040513d601f19601f820116820180604052508101906116f49190612d2a565b1461175b576040517f08c379a000000000000000000000000000000000000000000000000000000000815260206004820152601760248201527f574554483a20666c617368206c6f616e206661696c6564000000000000000000604482015260640161074d565b73ffffffffffffffffffffffffffffffffffffffff861660009081526002602090815260408083203084529091529020547fffffffffffffffffffffffffffffffffffffffffffffffffffffffffffffffff8114611895578481101561181d576040517f08c379a000000000000000000000000000000000000000000000000000000000815260206004820152601f60248201527f574554483a2072657175657374206578636565647320616c6c6f77616e636500604482015260640161074d565b60006118298683612c16565b73ffffffffffffffffffffffffffffffffffffffff8916600081815260026020908152604080832030808552908352928190208590555184815293945090927f8c5be1e5ebec7d5bd14f71427d1e84f3dd0314c0f7b2291e5b200ac8c7c3b925910160405180910390a3505b73ffffffffffffffffffffffffffffffffffffffff87166000908152602081905260409020548581101561194b576040517f08c379a000000000000000000000000000000000000000000000000000000000815260206004820152602160248201527f574554483a206275726e20616d6f756e7420657863656564732062616c616e6360448201527f6500000000000000000000000000000000000000000000000000000000000000606482015260840161074d565b6119558682612c16565b73ffffffffffffffffffffffffffffffffffffffff891660008181526020818152604080832094909455925189815290927fddf252ad1be2c89b69c2b068fc378daa952ba7f163c4a11628f55a4df523b3ef910160405180910390a3856003546119bf9190612c16565b600355506001979650505050505050565b73ffffffffffffffffffffffffffffffffffffffff8316600090815260208190526040812080543491908390611a0790849061289f565b909155505060405134815273ffffffffffffffffffffffffffffffffffffffff8516906000907fddf252ad1be2c89b69c2b068fc378daa952ba7f163c4a11628f55a4df523b3ef9060200160405180910390a36040517fa4c0ed3600000000000000000000000000000000000000000000000000000000815273ffffffffffffffffffffffffffffffffffffffff85169063a4c0ed3690611ab2903390349088908890600401612c76565b602060405180830381600087803b158015611acc57600080fd5b505af1158015611ae0573d6000803e3d6000fd5b505050506040513d601f19601f82011682018060405250810190611b049190612cb6565b949350505050565b600073ffffffffffffffffffffffffffffffffffffffff82163014611b32576000611b4d565b600354611b4d906dffffffffffffffffffffffffffff612c16565b92915050565b73ffffffffffffffffffffffffffffffffffffffff83163314611cac5773ffffffffffffffffffffffffffffffffffffffff831660009081526002602090815260408083203384529091529020547fffffffffffffffffffffffffffffffffffffffffffffffffffffffffffffffff8114611caa5781811015611c32576040517f08c379a000000000000000000000000000000000000000000000000000000000815260206004820152601f60248201527f574554483a2072657175657374206578636565647320616c6c6f77616e636500604482015260640161074d565b6000611c3e8383612c16565b73ffffffffffffffffffffffffffffffffffffffff8616600081815260026020908152604080832033808552908352928190208590555184815293945090927f8c5be1e5ebec7d5bd14f71427d1e84f3dd0314c0f7b2291e5b200ac8c7c3b925910160405180910390a3505b505b73ffffffffffffffffffffffffffffffffffffffff831660009081526020819052604090205481811015611d62576040517f08c379a000000000000000000000000000000000000000000000000000000000815260206004820152602160248201527f574554483a206275726e20616d6f756e7420657863656564732062616c616e6360448201527f6500000000000000000000000000000000000000000000000000000000000000606482015260840161074d565b611d6c8282612c16565b73ffffffffffffffffffffffffffffffffffffffff851660008181526020818152604080832094909455925185815290927fddf252ad1be2c89b69c2b068fc378daa952ba7f163c4a11628f55a4df523b3ef910160405180910390a360008373ffffffffffffffffffffffffffffffffffffffff168360405160006040518083038185875af1925050503d8060008114611e22576040519150601f19603f3d011682016040523d82523d6000602084013e611e27565b606091505b5050905080611e92576040517f08c379a000000000000000000000000000000000000000000000000000000000815260206004820152601b60248201527f574554483a204574686572207472616e73666572206661696c65640000000000604482015260640161074d565b5050505050565b600073ffffffffffffffffffffffffffffffffffffffff831615611ff9573360009081526020819052604090205482811015611f57576040517f08c379a000000000000000000000000000000000000000000000000000000000815260206004820152602560248201527f574554483a207472616e7366657220616d6f756e74206578636565647320626160448201527f6c616e6365000000000000000000000000000000000000000000000000000000606482015260840161074d565b611f618382612c16565b336000908152602081905260408082209290925573ffffffffffffffffffffffffffffffffffffffff861681529081208054859290611fa190849061289f565b909155505060405183815273ffffffffffffffffffffffffffffffffffffffff85169033907fddf252ad1be2c89b69c2b068fc378daa952ba7f163c4a11628f55a4df523b3ef9060200160405180910390a35061219e565b3360009081526020819052604090205482811015612099576040517f08c379a000000000000000000000000000000000000000000000000000000000815260206004820152602160248201527f574554483a206275726e20616d6f756e7420657863656564732062616c616e6360448201527f6500000000000000000000000000000000000000000000000000000000000000606482015260840161074d565b6120a38382612c16565b3360008181526020818152604080832094909455925186815290927fddf252ad1be2c89b69c2b068fc378daa952ba7f163c4a11628f55a4df523b3ef910160405180910390a3604051600090339085908381818185875af1925050503d806000811461212b576040519150601f19603f3d011682016040523d82523d6000602084013e612130565b606091505b505090508061219b576040517f08c379a000000000000000000000000000000000000000000000000000000000815260206004820152601960248201527f574554483a20455448207472616e73666572206661696c656400000000000000604482015260640161074d565b50505b50600192915050565b73ffffffffffffffffffffffffffffffffffffffff8116600090815260208190526040812080543492906121dc90849061289f565b909155505060405134815273ffffffffffffffffffffffffffffffffffffffff8216906000907fddf252ad1be2c89b69c2b068fc378daa952ba7f163c4a11628f55a4df523b3ef9060200160405180910390a350565b33600081815260026020908152604080832073ffffffffffffffffffffffffffffffffffffffff8916808552925280832087905551919290917f8c5be1e5ebec7d5bd14f71427d1e84f3dd0314c0f7b2291e5b200ac8c7c3b9259061229a9088815260200190565b60405180910390a36040517eba451f00000000000000000000000000000000000000000000000000000000815273ffffffffffffffffffffffffffffffffffffffff86169062ba451f90611398903390889088908890600401612c76565b336000908152602081905260408120805434929061231790849061289f565b909155505060405134815233906000907fddf252ad1be2c89b69c2b068fc378daa952ba7f163c4a11628f55a4df523b3ef9060200160405180910390a3565b834211156123c0576040517f08c379a000000000000000000000000000000000000000000000000000000000815260206004820152601460248201527f574554483a2045787069726564207065726d6974000000000000000000000000604482015260640161074d565b73ffffffffffffffffffffffffffffffffffffffff8716600090815260016020526040812080544692917f0000000000000000000000000000000000000000000000000000000000000000918b918b918b918661241c83612d43565b9091555060408051602081019690965273ffffffffffffffffffffffffffffffffffffffff94851690860152929091166060840152608083015260a082015260c0810187905260e00160405160208183030381529060405280519060200120905060007f000000000000000000000000000000000000000000000000000000000000000083146125a957604080518082018252601081527f57726170706564204b4c4159207631300000000000000000000000000000000060209182015281518083018352600181527f31000000000000000000000000000000000000000000000000000000000000009082015281517f8b73c3c69bb8fe3d512ecc4cf759cc79239f7b179b0ffacaa9a75d522b39400f818301527f6ba9313af671398349b7f8716558a1ca76220a96b6163172d2cd209ab689868b818401527fc89efdaa54c0f20c7adf612882df0950f5a951637e0307cdcb4c672f298b8bc66060820152608081018690523060a0808301919091528351808303909101815260c090910190925281519101206125cb565b7f00000000000000000000000000000000000000000000000000000000000000005b6040517f19010000000000000000000000000000000000000000000000000000000000006020820152602281019190915260428101839052606201604080517fffffffffffffffffffffffffffffffffffffffffffffffffffffffffffffffe08184030181528282528051602091820120600080855291840180845281905260ff8a169284019290925260608301889052608083018790529092509060019060a0016020604051602081039080840390855afa15801561268f573d6000803e3d6000fd5b50506040517fffffffffffffffffffffffffffffffffffffffffffffffffffffffffffffffe0015191505073ffffffffffffffffffffffffffffffffffffffff81161580159061270a57508a73ffffffffffffffffffffffffffffffffffffffff168173ffffffffffffffffffffffffffffffffffffffff16145b612770576040517f08c379a000000000000000000000000000000000000000000000000000000000815260206004820152601460248201527f574554483a20696e76616c6964207065726d6974000000000000000000000000604482015260640161074d565b73ffffffffffffffffffffffffffffffffffffffff8b81166000818152600260209081526040808320948f16808452948252918290208d905590518c81527f8c5be1e5ebec7d5bd14f71427d1e84f3dd0314c0f7b2291e5b200ac8c7c3b925910160405180910390a35050505050505050505050565b600073ffffffffffffffffffffffffffffffffffffffff83163014612867576040517f08c379a000000000000000000000000000000000000000000000000000000000815260206004820152601c60248201527f574554483a20666c617368206d696e74206f6e6c792057455448313000000000604482015260640161074d565b50600092915050565b7f4e487b7100000000000000000000000000000000000000000000000000000000600052601160045260246000fd5b600082198211156128b2576128b2612870565b500190565b600060208083528351808285015260005b818110156128e4578581018301518582016040015282016128c8565b818111156128f6576000604083870101525b50601f017fffffffffffffffffffffffffffffffffffffffffffffffffffffffffffffffe016929092016040019392505050565b73ffffffffffffffffffffffffffffffffffffffff8116811461294c57600080fd5b50565b6000806040838503121561296257600080fd5b823561296d8161292a565b946020939093013593505050565b60008060006060848603121561299057600080fd5b833561299b8161292a565b925060208401356129ab8161292a565b929592945050506040919091013590565b6000602082840312156129ce57600080fd5b5035919050565b60008083601f8401126129e757600080fd5b50813567ffffffffffffffff8111156129ff57600080fd5b602083019150836020828501011115612a1757600080fd5b9250929050565b60008060008060608587031215612a3457600080fd5b8435612a3f8161292a565b935060208501359250604085013567ffffffffffffffff811115612a6257600080fd5b612a6e878288016129d5565b95989497509550505050565b600080600080600060808688031215612a9257600080fd5b8535612a9d8161292a565b94506020860135612aad8161292a565b935060408601359250606086013567ffffffffffffffff811115612ad057600080fd5b612adc888289016129d5565b969995985093965092949392505050565b600080600060408486031215612b0257600080fd5b8335612b0d8161292a565b9250602084013567ffffffffffffffff811115612b2957600080fd5b612b35868287016129d5565b9497909650939450505050565b600060208284031215612b5457600080fd5b8135612b5f8161292a565b9392505050565b600080600080600080600060e0888a031215612b8157600080fd5b8735612b8c8161292a565b96506020880135612b9c8161292a565b95506040880135945060608801359350608088013560ff81168114612bc057600080fd5b9699959850939692959460a0840135945060c09093013592915050565b60008060408385031215612bf057600080fd5b8235612bfb8161292a565b91506020830135612c0b8161292a565b809150509250929050565b600082821015612c2857612c28612870565b500390565b8183528181602085013750600060208284010152600060207fffffffffffffffffffffffffffffffffffffffffffffffffffffffffffffffe0601f840116840101905092915050565b73ffffffffffffffffffffffffffffffffffffffff85168152836020820152606060408201526000612cac606083018486612c2d565b9695505050505050565b600060208284031215612cc857600080fd5b81518015158114612b5f57600080fd5b600073ffffffffffffffffffffffffffffffffffffffff808916835280881660208401525085604083015284606083015260a06080830152612d1e60a083018486612c2d565b98975050505050505050565b600060208284031215612d3c57600080fd5b5051919050565b60007fffffffffffffffffffffffffffffffffffffffffffffffffffffffffffffffff821415612d7557612d75612870565b506001019056fea26469706673582212209d8b151ccb3a487b62b7a2a3dd31ea8ab7de680cd9eca43c6946cea2c8d2eb1864736f6c63430008090033",
  "devdoc": {
    "details": "Wrapped Ether v10 (WETH10) is an Ether (ETH) ERC-20 wrapper. You can `deposit` ETH and obtain a WETH10 balance which can then be operated as an ERC-20 token. You can `withdraw` ETH from WETH10, which will then burn WETH10 token in your wallet. The amount of WETH10 token in any wallet is always identical to the balance of ETH deposited minus the ETH withdrawn with that specific wallet.",
    "kind": "dev",
    "methods": {
      "DOMAIN_SEPARATOR()": {
        "details": "Return the DOMAIN_SEPARATOR."
      },
      "approve(address,uint256)": {
        "details": "Sets `value` as allowance of `spender` account over caller account's WETH10 token. Emits {Approval} event. Returns boolean value indicating whether operation succeeded."
      },
      "approveAndCall(address,uint256,bytes)": {
        "details": "Sets `value` as allowance of `spender` account over caller account's WETH10 token, after which a call is executed to an ERC677-compliant contract with the `data` parameter. Emits {Approval} event. Returns boolean value indicating whether operation succeeded. For more information on {approveAndCall} format, see https://github.com/ethereum/EIPs/issues/677."
      },
      "deposit()": {
        "details": "`msg.value` of ETH sent to this contract grants caller account a matching increase in WETH10 token balance. Emits {Transfer} event to reflect WETH10 token mint of `msg.value` from `address(0)` to caller account."
      },
      "depositTo(address)": {
        "details": "`msg.value` of ETH sent to this contract grants `to` account a matching increase in WETH10 token balance. Emits {Transfer} event to reflect WETH10 token mint of `msg.value` from `address(0)` to `to` account."
      },
      "depositToAndCall(address,bytes)": {
        "details": "`msg.value` of ETH sent to this contract grants `to` account a matching increase in WETH10 token balance, after which a call is executed to an ERC677-compliant contract with the `data` parameter. Emits {Transfer} event. Returns boolean value indicating whether operation succeeded. For more information on {transferAndCall} format, see https://github.com/ethereum/EIPs/issues/677."
      },
      "flashFee(address,uint256)": {
        "details": "Return the fee (zero) for flash lending an amount of WETH10 token."
      },
      "flashLoan(address,address,uint256,bytes)": {
        "details": "Flash lends `value` WETH10 token to the receiver address. By the end of the transaction, `value` WETH10 token will be burned from the receiver. The flash-minted WETH10 token is not backed by real ETH, but can be withdrawn as such up to the ETH balance of this contract. Arbitrary data can be passed as a bytes calldata parameter. Emits {Approval} event to reflect reduced allowance `value` for this contract to spend from receiver account (`receiver`), unless allowance is set to `type(uint256).max` Emits two {Transfer} events for minting and burning of the flash-minted amount. Returns boolean value indicating whether operation succeeded. Requirements:   - `value` must be less or equal to type(uint112).max.   - The total of all flash loans in a tx must be less or equal to type(uint112).max."
      },
      "maxFlashLoan(address)": {
        "details": "Return the amount of WETH10 token that can be flash-lent."
      },
      "permit(address,address,uint256,uint256,uint8,bytes32,bytes32)": {
        "details": "Sets `value` as allowance of `spender` account over `owner` account's WETH10 token, given `owner` account's signed approval. Emits {Approval} event. Requirements:   - `deadline` must be timestamp in future.   - `v`, `r` and `s` must be valid `secp256k1` signature from `owner` account over EIP712-formatted function arguments.   - the signature must use `owner` account's current nonce (see {nonces}).   - the signer cannot be `address(0)` and must be `owner` account. For more information on signature format, see https://eips.ethereum.org/EIPS/eip-2612#specification[relevant EIP section]. WETH10 token implementation adapted from https://github.com/albertocuestacanada/ERC20Permit/blob/master/contracts/ERC20Permit.sol."
      },
      "totalSupply()": {
        "details": "Returns the total supply of WETH10 token as the ETH held in this contract."
      },
      "transfer(address,uint256)": {
        "details": "Moves `value` WETH10 token from caller's account to account (`to`). A transfer to `address(0)` triggers an ETH withdraw matching the sent WETH10 token in favor of caller. Emits {Transfer} event. Returns boolean value indicating whether operation succeeded. Requirements:   - caller account must have at least `value` WETH10 token."
      },
      "transferAndCall(address,uint256,bytes)": {
        "details": "Moves `value` WETH10 token from caller's account to account (`to`), after which a call is executed to an ERC677-compliant contract with the `data` parameter. A transfer to `address(0)` triggers an ETH withdraw matching the sent WETH10 token in favor of caller. Emits {Transfer} event. Returns boolean value indicating whether operation succeeded. Requirements:   - caller account must have at least `value` WETH10 token. For more information on {transferAndCall} format, see https://github.com/ethereum/EIPs/issues/677."
      },
      "transferFrom(address,address,uint256)": {
        "details": "Moves `value` WETH10 token from account (`from`) to account (`to`) using allowance mechanism. `value` is then deducted from caller account's allowance, unless set to `type(uint256).max`. A transfer to `address(0)` triggers an ETH withdraw matching the sent WETH10 token in favor of caller. Emits {Approval} event to reflect reduced allowance `value` for caller account to spend from account (`from`), unless allowance is set to `type(uint256).max` Emits {Transfer} event. Returns boolean value indicating whether operation succeeded. Requirements:   - `from` account must have at least `value` balance of WETH10 token.   - `from` account must have approved caller to spend at least `value` of WETH10 token, unless `from` and caller are the same account."
      },
      "withdraw(uint256)": {
        "details": "Burn `value` WETH10 token from caller account and withdraw matching ETH to the same. Emits {Transfer} event to reflect WETH10 token burn of `value` to `address(0)` from caller account. Requirements:   - caller account must have at least `value` balance of WETH10 token."
      },
      "withdrawFrom(address,address,uint256)": {
        "details": "Burn `value` WETH10 token from account (`from`) and withdraw matching ETH to account (`to`). Emits {Approval} event to reflect reduced allowance `value` for caller account to spend from account (`from`), unless allowance is set to `type(uint256).max` Emits {Transfer} event to reflect WETH10 token burn of `value` to `address(0)` from account (`from`). Requirements:   - `from` account must have at least `value` balance of WETH10 token.   - `from` account must have approved caller to spend at least `value` of WETH10 token, unless `from` and caller are the same account."
      },
      "withdrawTo(address,uint256)": {
        "details": "Burn `value` WETH10 token from caller account and withdraw matching ETH to account (`to`). Emits {Transfer} event to reflect WETH10 token burn of `value` to `address(0)` from caller account. Requirements:   - caller account must have at least `value` balance of WETH10 token."
      }
    },
    "stateVariables": {
      "allowance": {
        "details": "Records number of WETH10 token that account (second) will be allowed to spend on behalf of another account (first) through {transferFrom}."
      },
      "balanceOf": {
        "details": "Records amount of WETH10 token owned by account."
      },
      "flashMinted": {
        "details": "Current amount of flash-minted WETH10 token."
      },
      "nonces": {
        "details": "Records current ERC2612 nonce for account. This value must be included whenever signature is generated for {permit}. Every successful call to {permit} increases account's nonce by one. This prevents signature from being used multiple times."
      }
    },
    "version": 1
  },
  "userdoc": {
    "kind": "user",
    "methods": {},
    "version": 1
  },
  "storageLayout": {
    "storage": [
      {
        "astId": 11329,
        "contract": "contracts/misc/WETH/WETH10.sol:WETH10",
        "label": "balanceOf",
        "offset": 0,
        "slot": "0",
        "type": "t_mapping(t_address,t_uint256)"
      },
      {
        "astId": 11335,
        "contract": "contracts/misc/WETH/WETH10.sol:WETH10",
        "label": "nonces",
        "offset": 0,
        "slot": "1",
        "type": "t_mapping(t_address,t_uint256)"
      },
      {
        "astId": 11343,
        "contract": "contracts/misc/WETH/WETH10.sol:WETH10",
        "label": "allowance",
        "offset": 0,
        "slot": "2",
        "type": "t_mapping(t_address,t_mapping(t_address,t_uint256))"
      },
      {
        "astId": 11347,
        "contract": "contracts/misc/WETH/WETH10.sol:WETH10",
        "label": "flashMinted",
        "offset": 0,
        "slot": "3",
        "type": "t_uint256"
      }
    ],
    "types": {
      "t_address": {
        "encoding": "inplace",
        "label": "address",
        "numberOfBytes": "20"
      },
      "t_mapping(t_address,t_mapping(t_address,t_uint256))": {
        "encoding": "mapping",
        "key": "t_address",
        "label": "mapping(address => mapping(address => uint256))",
        "numberOfBytes": "32",
        "value": "t_mapping(t_address,t_uint256)"
      },
      "t_mapping(t_address,t_uint256)": {
        "encoding": "mapping",
        "key": "t_address",
        "label": "mapping(address => uint256)",
        "numberOfBytes": "32",
        "value": "t_uint256"
      },
      "t_uint256": {
        "encoding": "inplace",
        "label": "uint256",
        "numberOfBytes": "32"
      }
    }
  }
}