{
  "address": "0xB07e1744188D123F7D869F2049046763922198Dd",
  "abi": [
    {
      "inputs": [],
      "name": "AlreadyPriceInitialized",
      "type": "error"
    },
    {
      "inputs": [],
      "name": "InvalidParam",
      "type": "error"
    },
    {
      "inputs": [],
      "name": "InvalidSwapFee",
      "type": "error"
    },
    {
      "inputs": [],
      "name": "InvalidTick",
      "type": "error"
    },
    {
      "inputs": [],
      "name": "LiquidityInsufficient",
      "type": "error"
    },
    {
      "inputs": [],
      "name": "LiquidityOverflow",
      "type": "error"
    },
    {
      "inputs": [],
      "name": "LiquidityZero",
      "type": "error"
    },
    {
      "inputs": [],
      "name": "Locked",
      "type": "error"
    },
    {
      "inputs": [],
      "name": "LowerEven",
      "type": "error"
    },
    {
      "inputs": [],
      "name": "NotAuthorized",
      "type": "error"
    },
    {
      "inputs": [],
      "name": "Overflow",
      "type": "error"
    },
    {
      "inputs": [],
      "name": "PriceOutOfBounds",
      "type": "error"
    },
    {
      "inputs": [],
      "name": "TickOutOfBounds",
      "type": "error"
    },
    {
      "inputs": [],
      "name": "Token0Missing",
      "type": "error"
    },
    {
      "inputs": [],
      "name": "Token1Missing",
      "type": "error"
    },
    {
      "inputs": [],
      "name": "UpperOdd",
      "type": "error"
    },
    {
      "inputs": [],
      "name": "ZeroAddress",
      "type": "error"
    },
    {
      "anonymous": false,
      "inputs": [
        {
          "indexed": false,
          "internalType": "address",
          "name": "token",
          "type": "address"
        },
        {
          "indexed": false,
          "internalType": "uint256",
          "name": "amount",
          "type": "uint256"
        },
        {
          "indexed": false,
          "internalType": "uint256",
          "name": "startTime",
          "type": "uint256"
        },
        {
          "indexed": false,
          "internalType": "uint256",
          "name": "period",
          "type": "uint256"
        }
      ],
      "name": "DistributeReward",
      "type": "event"
    },
    {
      "inputs": [],
      "name": "accumulativeYield",
      "outputs": [
        {
          "internalType": "uint256",
          "name": "",
          "type": "uint256"
        }
      ],
      "stateMutability": "view",
      "type": "function"
    },
    {
      "inputs": [],
      "name": "airdrop0PerSecond",
      "outputs": [
        {
          "internalType": "uint256",
          "name": "",
          "type": "uint256"
        }
      ],
      "stateMutability": "view",
      "type": "function"
    },
    {
      "inputs": [],
      "name": "airdrop1PerSecond",
      "outputs": [
        {
          "internalType": "uint256",
          "name": "",
          "type": "uint256"
        }
      ],
      "stateMutability": "view",
      "type": "function"
    },
    {
      "inputs": [],
      "name": "airdropPeriod",
      "outputs": [
        {
          "internalType": "uint256",
          "name": "",
          "type": "uint256"
        }
      ],
      "stateMutability": "view",
      "type": "function"
    },
    {
      "inputs": [],
      "name": "airdropStartTime",
      "outputs": [
        {
          "internalType": "uint256",
          "name": "",
          "type": "uint256"
        }
      ],
      "stateMutability": "view",
      "type": "function"
    },
    {
      "inputs": [
        {
          "internalType": "int24",
          "name": "lower",
          "type": "int24"
        },
        {
          "internalType": "int24",
          "name": "upper",
          "type": "int24"
        },
        {
          "internalType": "uint128",
          "name": "amount",
          "type": "uint128"
        }
      ],
      "name": "burn",
      "outputs": [
        {
          "internalType": "uint256",
          "name": "token0Amount",
          "type": "uint256"
        },
        {
          "internalType": "uint256",
          "name": "token1Amount",
          "type": "uint256"
        }
      ],
      "stateMutability": "nonpayable",
      "type": "function"
    },
    {
      "inputs": [
        {
          "internalType": "int24",
          "name": "lower",
          "type": "int24"
        },
        {
          "internalType": "int24",
          "name": "upper",
          "type": "int24"
        },
        {
          "internalType": "uint256",
          "name": "desiredToken0Fees",
          "type": "uint256"
        },
        {
          "internalType": "uint256",
          "name": "desiredToken1Fees",
          "type": "uint256"
        }
      ],
      "name": "collect",
      "outputs": [
        {
          "internalType": "uint256",
          "name": "token0Fees",
          "type": "uint256"
        },
        {
          "internalType": "uint256",
          "name": "token1Fees",
          "type": "uint256"
        }
      ],
      "stateMutability": "nonpayable",
      "type": "function"
    },
    {
      "inputs": [],
      "name": "collectProtocolFee",
      "outputs": [
        {
          "internalType": "uint128",
          "name": "amount0",
          "type": "uint128"
        },
        {
          "internalType": "uint128",
          "name": "amount1",
          "type": "uint128"
        }
      ],
      "stateMutability": "nonpayable",
      "type": "function"
    },
    {
      "inputs": [
        {
          "internalType": "int24",
          "name": "lower",
          "type": "int24"
        },
        {
          "internalType": "int24",
          "name": "upper",
          "type": "int24"
        },
        {
          "internalType": "uint256",
          "name": "desiredReward",
          "type": "uint256"
        }
      ],
      "name": "collectReward",
      "outputs": [
        {
          "internalType": "uint256",
          "name": "rewardAmount",
          "type": "uint256"
        }
      ],
      "stateMutability": "nonpayable",
      "type": "function"
    },
    {
      "inputs": [],
      "name": "createdBlockNumber",
      "outputs": [
        {
          "internalType": "uint256",
          "name": "",
          "type": "uint256"
        }
      ],
      "stateMutability": "view",
      "type": "function"
    },
    {
      "inputs": [],
      "name": "createdTime",
      "outputs": [
        {
          "internalType": "uint256",
          "name": "",
          "type": "uint256"
        }
      ],
      "stateMutability": "view",
      "type": "function"
    },
    {
      "inputs": [
        {
          "internalType": "uint128",
          "name": "airdrop0",
          "type": "uint128"
        },
        {
          "internalType": "uint128",
          "name": "airdrop1",
          "type": "uint128"
        },
        {
          "internalType": "uint256",
          "name": "startTime",
          "type": "uint256"
        },
        {
          "internalType": "uint256",
          "name": "period",
          "type": "uint256"
        }
      ],
      "name": "depositAirdrop",
      "outputs": [],
      "stateMutability": "nonpayable",
      "type": "function"
    },
    {
      "inputs": [
        {
          "internalType": "uint128",
          "name": "amount",
          "type": "uint128"
        }
      ],
      "name": "depositReward",
      "outputs": [],
      "stateMutability": "nonpayable",
      "type": "function"
    },
    {
      "inputs": [],
      "name": "depositedReward",
      "outputs": [
        {
          "internalType": "uint128",
          "name": "",
          "type": "uint128"
        }
      ],
      "stateMutability": "view",
      "type": "function"
    },
    {
      "inputs": [],
      "name": "factory",
      "outputs": [
        {
          "internalType": "address",
          "name": "",
          "type": "address"
        }
      ],
      "stateMutability": "view",
      "type": "function"
    },
    {
      "inputs": [],
      "name": "feeGrowthGlobal0",
      "outputs": [
        {
          "internalType": "uint256",
          "name": "",
          "type": "uint256"
        }
      ],
      "stateMutability": "view",
      "type": "function"
    },
    {
      "inputs": [],
      "name": "feeGrowthGlobal1",
      "outputs": [
        {
          "internalType": "uint256",
          "name": "",
          "type": "uint256"
        }
      ],
      "stateMutability": "view",
      "type": "function"
    },
    {
      "inputs": [
        {
          "internalType": "address",
          "name": "recipient",
          "type": "address"
        },
        {
          "internalType": "uint256",
          "name": "amount0",
          "type": "uint256"
        },
        {
          "internalType": "uint256",
          "name": "amount1",
          "type": "uint256"
        },
        {
          "internalType": "bytes",
          "name": "data",
          "type": "bytes"
        }
      ],
      "name": "flash",
      "outputs": [],
      "stateMutability": "nonpayable",
      "type": "function"
    },
    {
      "inputs": [],
      "name": "getAssets",
      "outputs": [
        {
          "internalType": "address[]",
          "name": "assets",
          "type": "address[]"
        }
      ],
      "stateMutability": "view",
      "type": "function"
    },
    {
      "inputs": [],
      "name": "getImmutables",
      "outputs": [
        {
          "internalType": "uint128",
          "name": "_MAX_TICK_LIQUIDITY",
          "type": "uint128"
        },
        {
          "internalType": "uint24",
          "name": "_tickSpacing",
          "type": "uint24"
        },
        {
          "internalType": "uint24",
          "name": "_swapFee",
          "type": "uint24"
        },
        {
          "internalType": "address",
          "name": "_factory",
          "type": "address"
        },
        {
          "internalType": "address",
          "name": "_masterDeployer",
          "type": "address"
        },
        {
          "internalType": "address",
          "name": "_token0",
          "type": "address"
        },
        {
          "internalType": "address",
          "name": "_token1",
          "type": "address"
        }
      ],
      "stateMutability": "view",
      "type": "function"
    },
    {
      "inputs": [],
      "name": "getPriceAndNearestTicks",
      "outputs": [
        {
          "internalType": "uint160",
          "name": "_price",
          "type": "uint160"
        },
        {
          "internalType": "int24",
          "name": "_nearestTick",
          "type": "int24"
        }
      ],
      "stateMutability": "view",
      "type": "function"
    },
    {
      "inputs": [],
      "name": "getReserves",
      "outputs": [
        {
          "internalType": "uint128",
          "name": "_reserve0",
          "type": "uint128"
        },
        {
          "internalType": "uint128",
          "name": "_reserve1",
          "type": "uint128"
        }
      ],
      "stateMutability": "view",
      "type": "function"
    },
    {
      "inputs": [],
      "name": "getSecondsGrowthAndLastObservation",
      "outputs": [
        {
          "internalType": "uint160",
          "name": "_secondsGrowthGlobal",
          "type": "uint160"
        },
        {
          "internalType": "uint32",
          "name": "_lastObservation",
          "type": "uint32"
        }
      ],
      "stateMutability": "view",
      "type": "function"
    },
    {
      "inputs": [],
      "name": "getTokenProtocolFees",
      "outputs": [
        {
          "internalType": "uint128",
          "name": "_token0ProtocolFee",
          "type": "uint128"
        },
        {
          "internalType": "uint128",
          "name": "_token1ProtocolFee",
          "type": "uint128"
        }
      ],
      "stateMutability": "view",
      "type": "function"
    },
    {
      "inputs": [
        {
          "internalType": "bytes",
          "name": "_deployData",
          "type": "bytes"
        },
        {
          "internalType": "address",
          "name": "_masterDeployer",
          "type": "address"
        }
      ],
      "name": "initialize",
      "outputs": [],
      "stateMutability": "nonpayable",
      "type": "function"
    },
    {
      "inputs": [],
      "name": "liquidity",
      "outputs": [
        {
          "internalType": "uint128",
          "name": "",
          "type": "uint128"
        }
      ],
      "stateMutability": "view",
      "type": "function"
    },
    {
      "inputs": [
        {
          "components": [
            {
              "internalType": "int24",
              "name": "lowerOld",
              "type": "int24"
            },
            {
              "internalType": "int24",
              "name": "lower",
              "type": "int24"
            },
            {
              "internalType": "int24",
              "name": "upperOld",
              "type": "int24"
            },
            {
              "internalType": "int24",
              "name": "upper",
              "type": "int24"
            },
            {
              "internalType": "uint128",
              "name": "amount0Desired",
              "type": "uint128"
            },
            {
              "internalType": "uint128",
              "name": "amount1Desired",
              "type": "uint128"
            }
          ],
          "internalType": "struct IConcentratedLiquidityPoolStruct.MintParams",
          "name": "mintParams",
          "type": "tuple"
        }
      ],
      "name": "mint",
      "outputs": [
        {
          "internalType": "uint256",
          "name": "liquidityMinted",
          "type": "uint256"
        }
      ],
      "stateMutability": "nonpayable",
      "type": "function"
    },
    {
      "inputs": [],
      "name": "nearestTick",
      "outputs": [
        {
          "internalType": "int24",
          "name": "",
          "type": "int24"
        }
      ],
      "stateMutability": "view",
      "type": "function"
    },
    {
      "inputs": [
        {
          "internalType": "address",
          "name": "",
          "type": "address"
        },
        {
          "internalType": "int24",
          "name": "",
          "type": "int24"
        },
        {
          "internalType": "int24",
          "name": "",
          "type": "int24"
        }
      ],
      "name": "positionRewards",
      "outputs": [
        {
          "internalType": "uint256",
          "name": "rewardGrowthInsideLast",
          "type": "uint256"
        },
        {
          "internalType": "uint128",
          "name": "rewardOwed",
          "type": "uint128"
        }
      ],
      "stateMutability": "view",
      "type": "function"
    },
    {
      "inputs": [
        {
          "internalType": "address",
          "name": "",
          "type": "address"
        },
        {
          "internalType": "int24",
          "name": "",
          "type": "int24"
        },
        {
          "internalType": "int24",
          "name": "",
          "type": "int24"
        }
      ],
      "name": "positions",
      "outputs": [
        {
          "internalType": "uint128",
          "name": "liquidity",
          "type": "uint128"
        },
        {
          "internalType": "uint256",
          "name": "feeGrowthInside0Last",
          "type": "uint256"
        },
        {
          "internalType": "uint256",
          "name": "feeGrowthInside1Last",
          "type": "uint256"
        },
        {
          "internalType": "uint128",
          "name": "feeOwed0",
          "type": "uint128"
        },
        {
          "internalType": "uint128",
          "name": "feeOwed1",
          "type": "uint128"
        }
      ],
      "stateMutability": "view",
      "type": "function"
    },
    {
      "inputs": [],
      "name": "price",
      "outputs": [
        {
          "internalType": "uint160",
          "name": "",
          "type": "uint160"
        }
      ],
      "stateMutability": "view",
      "type": "function"
    },
    {
      "inputs": [],
      "name": "protocolFee",
      "outputs": [
        {
          "internalType": "uint256",
          "name": "",
          "type": "uint256"
        }
      ],
      "stateMutability": "view",
      "type": "function"
    },
    {
      "inputs": [
        {
          "internalType": "int24",
          "name": "lowerTick",
          "type": "int24"
        },
        {
          "internalType": "int24",
          "name": "upperTick",
          "type": "int24"
        }
      ],
      "name": "rangeFeeGrowth",
      "outputs": [
        {
          "internalType": "uint256",
          "name": "feeGrowthInside0",
          "type": "uint256"
        },
        {
          "internalType": "uint256",
          "name": "feeGrowthInside1",
          "type": "uint256"
        }
      ],
      "stateMutability": "view",
      "type": "function"
    },
    {
      "inputs": [
        {
          "internalType": "int24",
          "name": "lowerTick",
          "type": "int24"
        },
        {
          "internalType": "int24",
          "name": "upperTick",
          "type": "int24"
        }
      ],
      "name": "rangeRewardGrowth",
      "outputs": [
        {
          "internalType": "uint256",
          "name": "rewardGrowthInside",
          "type": "uint256"
        }
      ],
      "stateMutability": "view",
      "type": "function"
    },
    {
      "inputs": [
        {
          "internalType": "address",
          "name": "_logger",
          "type": "address"
        }
      ],
      "name": "registerLogger",
      "outputs": [],
      "stateMutability": "nonpayable",
      "type": "function"
    },
    {
      "inputs": [],
      "name": "rewardGrowthGlobal",
      "outputs": [
        {
          "internalType": "uint256",
          "name": "",
          "type": "uint256"
        }
      ],
      "stateMutability": "view",
      "type": "function"
    },
    {
      "inputs": [
        {
          "internalType": "int24",
          "name": "",
          "type": "int24"
        }
      ],
      "name": "rewardGrowthOutsidePerTicks",
      "outputs": [
        {
          "internalType": "uint256",
          "name": "",
          "type": "uint256"
        }
      ],
      "stateMutability": "view",
      "type": "function"
    },
    {
      "inputs": [],
      "name": "rewardPerSecond",
      "outputs": [
        {
          "internalType": "uint256",
          "name": "",
          "type": "uint256"
        }
      ],
      "stateMutability": "view",
      "type": "function"
    },
    {
      "inputs": [],
      "name": "rewardToken",
      "outputs": [
        {
          "internalType": "address",
          "name": "",
          "type": "address"
        }
      ],
      "stateMutability": "view",
      "type": "function"
    },
    {
      "inputs": [
        {
          "internalType": "uint160",
          "name": "_price",
          "type": "uint160"
        }
      ],
      "name": "setPrice",
      "outputs": [],
      "stateMutability": "nonpayable",
      "type": "function"
    },
    {
      "inputs": [
        {
          "internalType": "bytes",
          "name": "data",
          "type": "bytes"
        }
      ],
      "name": "swap",
      "outputs": [
        {
          "internalType": "uint256",
          "name": "amountOut",
          "type": "uint256"
        }
      ],
      "stateMutability": "nonpayable",
      "type": "function"
    },
    {
      "inputs": [],
      "name": "swapFee",
      "outputs": [
        {
          "internalType": "uint24",
          "name": "",
          "type": "uint24"
        }
      ],
      "stateMutability": "view",
      "type": "function"
    },
    {
      "inputs": [],
      "name": "swapFeeGrowthGlobal0",
      "outputs": [
        {
          "internalType": "uint256",
          "name": "",
          "type": "uint256"
        }
      ],
      "stateMutability": "view",
      "type": "function"
    },
    {
      "inputs": [],
      "name": "swapFeeGrowthGlobal1",
      "outputs": [
        {
          "internalType": "uint256",
          "name": "",
          "type": "uint256"
        }
      ],
      "stateMutability": "view",
      "type": "function"
    },
    {
      "inputs": [],
      "name": "tickSpacing",
      "outputs": [
        {
          "internalType": "uint24",
          "name": "",
          "type": "uint24"
        }
      ],
      "stateMutability": "view",
      "type": "function"
    },
    {
      "inputs": [
        {
          "internalType": "int24",
          "name": "",
          "type": "int24"
        }
      ],
      "name": "ticks",
      "outputs": [
        {
          "internalType": "int24",
          "name": "previousTick",
          "type": "int24"
        },
        {
          "internalType": "int24",
          "name": "nextTick",
          "type": "int24"
        },
        {
          "internalType": "uint128",
          "name": "liquidity",
          "type": "uint128"
        },
        {
          "internalType": "uint256",
          "name": "feeGrowthOutside0",
          "type": "uint256"
        },
        {
          "internalType": "uint256",
          "name": "feeGrowthOutside1",
          "type": "uint256"
        },
        {
          "internalType": "uint160",
          "name": "secondsGrowthOutside",
          "type": "uint160"
        }
      ],
      "stateMutability": "view",
      "type": "function"
    },
    {
      "inputs": [],
      "name": "token0",
      "outputs": [
        {
          "internalType": "address",
          "name": "",
          "type": "address"
        }
      ],
      "stateMutability": "view",
      "type": "function"
    },
    {
      "inputs": [],
      "name": "token1",
      "outputs": [
        {
          "internalType": "address",
          "name": "",
          "type": "address"
        }
      ],
      "stateMutability": "view",
      "type": "function"
    },
    {
      "inputs": [],
      "name": "totalTicks",
      "outputs": [
        {
          "internalType": "uint256",
          "name": "",
          "type": "uint256"
        }
      ],
      "stateMutability": "view",
      "type": "function"
    },
    {
      "inputs": [],
      "name": "yieldGrowthGlobal",
      "outputs": [
        {
          "internalType": "uint256",
          "name": "",
          "type": "uint256"
        }
      ],
      "stateMutability": "view",
      "type": "function"
    }
  ],
  "transactionHash": "0xc080adc79cc9604ac57b28672687955f42dce1bfdeafa7e410f6a971ef828144",
  "args": [],
  "numDeployments": 1,
  "solcInputHash": "81762f8797e9a359c9580ba85347e7ad",
  "bytecode": "0x608060405234801561001057600080fd5b50615e4680620000216000396000f3fe608060405234801561001057600080fd5b50600436106103365760003560e01c8063a035b1fe116101b2578063cce2df03116100f9578063e5ff7f46116100a2578063f7c618c11161007c578063f7c618c1146108f0578063f949e8b714610903578063fa1a169c1461090b578063fb5d80b31461091457600080fd5b8063e5ff7f46146107d7578063f30dba93146107ea578063f719dac61461089257600080fd5b8063d21220a7116100d3578063d21220a714610791578063d5514792146107a4578063d90bda4e146107c457600080fd5b8063cce2df0314610761578063cf78756b14610774578063d0c93a7c1461077c57600080fd5b8063bcdb4dad1161015b578063c45a015511610135578063c45a01551461073e578063c993642014610751578063caa4b46a1461075957600080fd5b8063bcdb4dad1461066d578063bd7d1eea14610718578063c03c25141461072b57600080fd5b8063acfe88f81161018c578063acfe88f814610648578063b0e21e8a1461065b578063b2f4bdb01461066457600080fd5b8063a035b1fe14610590578063a34123a7146105a3578063aaca1b4d146105b657600080fd5b806366f657c5116102815780638ba310a21161022a578063956afe4511610204578063956afe45146105455780639a2f9ccc1461054e5780639da1209614610561578063a00e8f291461056957600080fd5b80638ba310a21461050b5780638c347f9b146105135780638f10369a1461053c57600080fd5b806370ed1b861161025b57806370ed1b86146104f0578063735541d1146104f957806384e020171461050257600080fd5b806366f657c5146104a657806367e4ac2c146104af5780636d59d802146104c457600080fd5b80631a686502116102e3578063490e6cbc116102bd578063490e6cbc1461045457806354cf2aeb14610467578063627dd56a1461049357600080fd5b80631a686502146103f85780632df94b0f1461042357806340306fb61461044b57600080fd5b80630ae9ba8a116103145780630ae9ba8a146103b15780630dfe1681146103c4578063111ba27d146103ef57600080fd5b806306f912f31461033b57806308136e03146103615780630902f1ac14610376575b600080fd5b61034e610349366004615406565b610933565b6040519081526020015b60405180910390f35b61037461036f36600461545e565b61099b565b005b6014546015546001600160801b03600160801b909204821691165b604080516001600160801b03938416815292909116602083015201610358565b61034e6103bf36600461548f565b610a1f565b6003546103d7906001600160a01b031681565b6040516001600160a01b039091168152602001610358565b61034e60215481565b60065461040b906001600160801b031681565b6040516001600160801b039091168152602001610358565b610436610431366004615536565b610fa4565b60408051928352602083019190915201610358565b61034e600e5481565b610374610462366004615591565b61112a565b60005461047f9065010000000000900462ffffff1681565b60405162ffffff9091168152602001610358565b61034e6104a13660046156b4565b6115ab565b61034e600c5481565b6104b7611c6d565b604051610358919061572d565b600754604080516001600160a01b0383168152600160a01b90920463ffffffff16602083015201610358565b61034e60095481565b61034e601b5481565b61034e600d5481565b61034e611d01565b601954604080516001600160a01b0383168152600160a01b90920460020b602083015201610358565b61034e60125481565b61034e600f5481565b61037461055c366004615740565b611da2565b61034e612160565b60195461057d90600160a01b900460020b81565b60405160029190910b8152602001610358565b6019546103d7906001600160a01b031681565b6104366105b136600461576d565b6121a8565b6106126105c43660046157b4565b601e60209081526000938452604080852082529284528284209052825290208054600182015460028301546003909301546001600160801b0392831693919281811691600160801b90041685565b604080516001600160801b039687168152602081019590955284019290925283166060830152909116608082015260a001610358565b6104366106563660046157ff565b612562565b61034e6103e881565b61034e60205481565b6106c36000546005546001546003546004546001600160801b03680100000000000000008604169562ffffff62010000870481169665010000000000900416946001600160a01b03908116948116938116921690565b604080516001600160801b03909816885262ffffff968716602089015295909416948601949094526001600160a01b0391821660608601528116608085015291821660a08401521660c082015260e001610358565b610374610726366004615838565b6128c7565b61034e6107393660046157ff565b612914565b6005546103d7906001600160a01b031681565b61034e612a1f565b610391612b28565b61037461076f366004615855565b612ec2565b61034e6133df565b60005461047f9062010000900462ffffff1681565b6004546103d7906001600160a01b031681565b61034e6107b236600461589c565b601d6020526000908152604090205481565b6103746107d2366004615838565b613418565b60135461040b906001600160801b031681565b6108476107f836600461589c565b601c6020526000908152604090208054600182015460028084015460039094015483820b946301000000850490920b93600160301b90046001600160801b03169291906001600160a01b031686565b60408051600297880b81529590960b60208601526001600160801b0390931694840194909452606083015260808201929092526001600160a01b0390911660a082015260c001610358565b6108d36108a03660046157b4565b601f602090815260009384526040808520825292845282842090528252902080546001909101546001600160801b031682565b604080519283526001600160801b03909116602083015201610358565b6010546103d7906001600160a01b031681565b61034e613498565b61034e60085481565b6013546014546001600160801b03600160801b90920482169116610391565b6000601a5460021415610959576040516303cb96db60e21b815260040160405180910390fd5b6002601a556109693385856134af565b6109753385858561358d565b60105490915061098f906001600160a01b03168233613627565b6001601a559392505050565b601554600160801b900460ff166109b18161363b565b6010546109d0906001600160a01b03166001600160801b038416613889565b601380548391906000906109ee9084906001600160801b03166158cf565b92506101000a8154816001600160801b0302191690836001600160801b03160217905550610a1b8161389e565b5050565b6000601a5460021415610a45576040516303cb96db60e21b815260040160405180910390fd5b6002601a55601554600160801b900460ff16610a608161363b565b610a7283602001518460600151613961565b6000610a818460200151613a5e565b6001600160a01b031690506000610a9b8560600151613a5e565b60195460a087015160808801516001600160a01b0393841694509190921691610ad6918591859185916001600160801b039081169116613d91565b94506f7fffffffffffffffffffffffffffffff851115610b0957604051631a93c68960e11b815260040160405180910390fd5b84610b27576040516320fb348960e21b815260040160405180910390fd5b610b2f613e25565b6000601c73fF8E5bDf54D5ab74D2E56CA0E575348A52B95B3d63825c72999091601d6040518060800160405280600a54600854610b6c91906158fa565b8152602001600b54600954610b8191906158fa565b81526020016011548152602001600760009054906101000a90046001600160a01b03166001600160a01b03168152508b600001518c602001518d604001518e606001518e601960149054906101000a900460020b8c6040518b63ffffffff1660e01b8152600401610bfb9a99989796959493929190615912565b604080518083038186803b158015610c1257600080fd5b505af4158015610c26573d6000803e3d6000fd5b505050506040513d601f19601f82011682018060405250810190610c4a91906159cf565b6019805462ffffff909316600160a01b0262ffffff60a01b1990931692909217909155601b80549192508291600090610c849084906158fa565b9250508190555050610ca0338760200151886060015188613f3a565b808311158015610caf57508181105b15610cf75760068054869190600090610cd29084906001600160801b03166158cf565b92506101000a8154816001600160801b0302191690836001600160801b031602179055505b600080610d088585858a6001613f62565b60035460048054604051632f8b294d60e11b81526001600160a01b03938416928101929092529190911660248201526001600160801b0380841660448301528216606482015291935091503390635f16529a90608401600060405180830381600087803b158015610d7857600080fd5b505af1158015610d8c573d6000803e3d6000fd5b50505050816001600160801b0316600014610e395781601460108282829054906101000a90046001600160801b0316610dc591906158cf565b92506101000a8154816001600160801b0302191690836001600160801b03160217905550610e07600360009054906101000a90046001600160a01b0316613fcc565b601454600160801b90046001600160801b03161115610e395760405163420231d560e11b815260040160405180910390fd5b6001600160801b03811615610ed35760158054829190600090610e669084906001600160801b03166158cf565b92506101000a8154816001600160801b0302191690836001600160801b03160217905550610ea8600460009054906101000a90046001600160a01b0316613fcc565b6015546001600160801b03161115610ed357604051637218102160e11b815260040160405180910390fd5b600280546040805160a08101825260208c810151850b82526060808e0151860b9183019182526001600160801b03888116848601908152908816918401918252608084018e8152945163fbad739160e01b81529351870b6004850152915190950b6024830152516044820152925160648401525160848301526001600160a01b03169063fbad73919060a401600060405180830381600087803b158015610f7957600080fd5b505af1925050508015610f8a575060015b505050505050610f998161389e565b506001601a55919050565b600080601a5460021415610fcb576040516303cb96db60e21b815260040160405180910390fd5b6002601a55601554600160801b900460ff16610fe68161363b565b610ff133888861409c565b610ffe33888888886141cb565b601480549295509093508491601090611028908490600160801b90046001600160801b03166159fd565b92506101000a8154816001600160801b0302191690836001600160801b0316021790555081601560008282829054906101000a90046001600160801b031661107091906159fd565b92506101000a8154816001600160801b0302191690836001600160801b0316021790555061109f3384846142d6565b600254604080518082018252858152602081018581529151631228c47f60e01b815290516004820152905160248201526001600160a01b0390911690631228c47f90604401600060405180830381600087803b1580156110fe57600080fd5b505af192505050801561110f575060015b506111198161389e565b506001601a55909590945092505050565b601a546002141561114e576040516303cb96db60e21b815260040160405180910390fd5b6002601a55601554600160801b900460ff166111698161363b565b6111a96040518060e00160405280600081526020016000815260200160008152602001600081526020016000815260200160008152602001600081525090565b6000806111c88888600060059054906101000a900462ffffff16614304565b6040805160e0810182528b8152602081018b90526014546001600160801b03600160801b90910481169282019290925260155482166060820152608081019390935260a08301919091526006541660c08201819052909350151591506112439050576040516320fb348960e21b815260040160405180910390fd5b61124e8787876142d6565b608081015160a08201516040516361c9276b60e11b8152339263c3924ed69261127d9289908990600401615a25565b600060405180830381600087803b15801561129757600080fd5b505af11580156112ab573d6000803e3d6000fd5b50506003546000925082915081906112cb906001600160a01b0316613fcc565b6004549091506000906112e6906001600160a01b0316613fcc565b905081856080015186604001516112fd91906158fa565b111561131c5760405163420231d560e11b815260040160405180910390fd5b808560a00151866060015161133191906158fa565b111561135057604051637218102160e11b815260040160405180910390fd5b61135982614339565b601480546001600160801b03928316600160801b02921691909117905561137f81614339565b601580546001600160801b0319166001600160801b039290921691909117905560408501516113ae9083615a62565b93508460600151816113c09190615a62565b92506103e891505082156114665760006113dd8483612710614354565b905080601360108282829054906101000a90046001600160801b031661140391906158cf565b92506101000a8154816001600160801b0302191690836001600160801b0316021790555061144e816001600160801b03168561143f9190615a62565b600160801b8760c00151614392565b6008600082825461145f91906158fa565b9091555050505b81156114ef57600061147b8383612710614354565b60148054919250829160009061149b9084906001600160801b03166158cf565b92506101000a8154816001600160801b0302191690836001600160801b031602179055506114d7816001600160801b03168461143f9190615a62565b600960008282546114e891906158fa565b9091555050505b6002546040805160a0810182523381528651602080830191825288015182840190815260608301888152608084018881529451630a61fef360e21b815293516001600160a01b039081166004860152925160248501529051604484015251606483015291516084820152911690632987fbcc9060a401600060405180830381600087803b15801561157f57600080fd5b505af1925050508015611590575060015b505050505061159e8161389e565b50506001601a5550505050565b6000601a54600214156115d1576040516303cb96db60e21b815260040160405180910390fd5b6002601a55601554600160801b900460ff166115ec8161363b565b600080848060200190518101906116039190615a89565b9150915060008261161f576015546001600160801b0316611633565b601454600160801b90046001600160801b03165b6001600160801b031661166684611655576004546001600160a01b0316613fcc565b6003546001600160a01b0316613fcc565b6116709190615a62565b90506000604051806101200160405280600081526020016000815260200160008152602001856116a2576008546116a6565b6009545b8152602001856116b8576009546116bc565b6008545b81526019546001600160a01b031660208201526006546001600160801b03166040820152606081018490526080018561171b57601954600160a01b9004600290810b6000908152601c602052604090205463010000009004900b611729565b601954600160a01b900460020b5b60020b90529050611738613e25565b60115461174482614445565b60e082015115611ad757600061175e836101000151613a5e565b6001600160a01b03169050600080871561188f5760006117898660c00151858860a0015160006144a3565b9050808660e001511161184f5760c086015160a087015160e088015160609290921b916000916117cf918491906117c09082615ab5565b6117ca90866158fa565b614354565b90508086111580156117e457508760a0015181105b61182257611816828960e001518a60a00151856118019190615aea565b61180b91906158fa565b808204910615150190565b6001600160a01b031690505b6118378860c00151828a60a0015160006144fb565b60a0890191909152600060e089015293506118899050565b6118648660c00151858860a0015160006144fb565b60a0870185905260e087018051919450600193508291611885908390615a62565b9052505b50611944565b60006118a68660c001518760a001518660006144fb565b9050808660e00151116119085760006118cc8760e00151600160601b8960c00151614392565b8760a001516118db91906158fa565b90506118f28760c001518860a001518360006144a3565b60a0880191909152600060e08801529250611942565b61191d8660c001518760a001518660006144a3565b60a0870185905260e08701805191945060019350829161193e908390615a62565b9052505b505b60c0850151156119965761198182600060059054906101000a900462ffffff166103e88860c0015189602001518f8b604001518c60600151614525565b60608901526040880152602087019190915299505b8015611acf576119a785858a6145bd565b60c0850151611acf5761010085015160020b620d89e71914806119e057506119d2620d89e719615afe565b60020b85610100015160020b145b15611aa8578715611a3357611a0a60018660a001516119ff9190615a62565b6401000276a3614675565b60a086015261010085018051600290810b6000908152601c6020526040902054900b9052611aa0565b611a748560a001516001611a4791906158fa565b611a66600173fffd8963efd1fc6a506488495d951d5263988d26615b21565b6001600160a01b031661468c565b60a086015261010085018051600290810b6000908152601c602052604090205463010000009004900b90525b505050611ad7565b611ab6856101000151613a5e565b6001600160a01b031660a0860152611acf85858a6145bd565b505050611744565b60a0820151601980546001600160a01b0319166001600160a01b03909216919091179055600085611b2357610100830151600290810b6000908152601c6020526040902054900b611b2a565b8261010001515b601954909150600282810b600160a01b909204900b14611b85576019805462ffffff60a01b1916600160a01b62ffffff84160217905560c0830151600680546001600160801b0319166001600160801b039092169190911790555b611b9086858a61469b565b611ba386846060015185604001516147d7565b8515611bc557600454611bc0906001600160a01b03168987613627565b611bdc565b600354611bdc906001600160a01b03168987613627565b600254604080516060810182528815158152602081018781528183018c815292516391accd5f60e01b8152915115156004830152516024820152905160448201526001600160a01b03909116906391accd5f90606401600060405180830381600087803b158015611c4c57600080fd5b505af1925050508015611c5d575060015b50505050505050610f998161389e565b6040805160028082526060808301845292602083019080368337505060035482519293506001600160a01b031691839150600090611cad57611cad615b41565b6001600160a01b039283166020918202929092010152600454825191169082906001908110611cde57611cde615b41565b60200260200101906001600160a01b031690816001600160a01b03168152505090565b601554600090600160801b900460ff1681611d1b82614853565b9050600082611d35576015546001600160801b0316611d49565b601454600160801b90046001600160801b03165b9050806001600160801b0316826001600160801b031611611d6f57601754935050505090565b806001600160801b0316826001600160801b0316601754611d9091906158fa565b611d9a9190615a62565b935050505090565b601a5460021415611dc6576040516303cb96db60e21b815260040160405180910390fd5b6002601a55601554600160801b900460ff16611de18161363b565b6001546040805163d0a9317360e01b8152905133926001600160a01b03169163d0a931739160048083019260209291908290030181600087803b158015611e2757600080fd5b505af1158015611e3b573d6000803e3d6000fd5b505050506040513d601f19601f82011682018060405250810190611e5f9190615b57565b6001600160a01b031614611e865760405163ea8e4eb560e01b815260040160405180910390fd5b42611e9183856158fa565b11611eaf57604051633494a40d60e21b815260040160405180910390fd5b601380546001600160801b031981169091556001600160801b03168015611f2d57601054604080516001600160a01b0390921682526001600160801b03831660208301528101859052606081018490527f891de4aee0b667a0bddf1d07a815a893c17366a034433e6760b9fc4cb2a40b789060800160405180910390a15b600e54600f54600090611f4090836158fa565b905085811115611f6357604051633494a40d60e21b815260040160405180910390fd5b6001600160801b03881615611fda57600354611f91906001600160a01b03166001600160801b038a16613889565b87601460108282829054906101000a90046001600160801b0316611fb591906158cf565b92506101000a8154816001600160801b0302191690836001600160801b031602179055505b6001600160801b0387161561204b57600454612008906001600160a01b03166001600160801b038916613889565b601580548891906000906120269084906001600160801b03166158cf565b92506101000a8154816001600160801b0302191690836001600160801b031602179055505b6000612055614900565b11156120ed57612063613e25565b600754600160a01b900463ffffffff16818110156120eb5760006120878285614675565b6120919084615a62565b90506120a76120a2600c548361495e565b614339565b6120b1908b6158cf565b99506120c26120a2600d548361495e565b6120cc908a6158cf565b98506120dd6120a26012548361495e565b6120e790866158cf565b9450505b505b612105886001600160801b0316600160801b87614392565b600c556121206001600160801b038816600160801b87614392565b600d5561213b6001600160801b038416600160801b87614392565b601255505050600e839055600f8290556121548161389e565b50506001601a55505050565b6015546000908190600160801b900460ff1661217d576000612185565b612185612a1f565b9050612198600854600a54600c5461496f565b6121a290826158fa565b91505090565b600080601a54600214156121cf576040516303cb96db60e21b815260040160405180910390fd5b6002601a55601554600160801b900460ff166121ea8161363b565b60006121f587613a5e565b9050600061220287613a5e565b6019549091506001600160a01b0316612219613e25565b806001600160a01b0316836001600160a01b03161115801561224c5750816001600160a01b0316816001600160a01b0316105b1561227457600680546001600160801b038082168a9003166001600160801b03199091161790555b6122a6836001600160a01b0316836001600160a01b0316836001600160a01b03168a6001600160801b03166000613f62565b6001600160801b039182169750811695506f7fffffffffffffffffffffffffffffff90881611156122ea57604051631a93c68960e11b815260040160405180910390fd5b6122fe338a8a6122f98b615b74565b613f3a565b85601460108282829054906101000a90046001600160801b031661232291906159fd565b92506101000a8154816001600160801b0302191690836001600160801b0316021790555084601560008282829054906101000a90046001600160801b031661236a91906159fd565b92506101000a8154816001600160801b0302191690836001600160801b031602179055506123993387876142d6565b601954604051630f92397360e31b8152601c6004820152601d602482015260028b810b60448301528a810b60648301526001600160801b038a166084830152600160a01b90920490910b60a482015260009073fF8E5bDf54D5ab74D2E56CA0E575348A52B95B3d90637c91cb989060c401604080518083038186803b15801561242157600080fd5b505af4158015612435573d6000803e3d6000fd5b505050506040513d601f19601f8201168201806040525081019061245991906159cf565b6019805462ffffff909316600160a01b0262ffffff60a01b1990931692909217909155601b80549192508291600090612493908490615a62565b9091555050600280546040805160a0810182528d840b81528c840b602082019081528183018c8152606083018c81526001600160801b038f16608085019081529451637e4a416960e11b81529351870b6004850152915190950b602483015293516044820152925160648401525160848301526001600160a01b0316915063fc9482d29060a401600060405180830381600087803b15801561253457600080fd5b505af1925050508015612545575060015b505050506125528161389e565b506001601a559094909350915050565b6019546000908190819061257e906001600160a01b03166149cf565b90506000601c60008760020b60020b81526020019081526020016000206040518060c00160405290816000820160009054906101000a900460020b60020b60020b81526020016000820160039054906101000a900460020b60020b60020b81526020016000820160069054906101000a90046001600160801b03166001600160801b03166001600160801b0316815260200160018201548152602001600282015481526020016003820160009054906101000a90046001600160a01b03166001600160a01b03166001600160a01b03168152505090506000601c60008760020b60020b81526020019081526020016000206040518060c00160405290816000820160009054906101000a900460020b60020b60020b81526020016000820160039054906101000a900460020b60020b60020b81526020016000820160069054906101000a90046001600160801b03166001600160801b03166001600160801b0316815260200160018201548152602001600282015481526020016003820160009054906101000a90046001600160a01b03166001600160a01b03166001600160a01b0316815250509050600080600080612755600660009054906101000a90046001600160801b03166001600160801b0316614ce2565b9150915081600a5460085461276a91906158fa565b61277491906158fa565b935080600b5460095461278791906158fa565b61279191906158fa565b92505050601560109054906101000a900460ff16156127c3576127b2612a1f565b6127bc90836158fa565b91506127d8565b6127cb612a1f565b6127d590826158fa565b90505b6000808660020b8b60020b136128105760608601516127f790836158fa565b915085608001518161280991906158fa565b9050612848565b606086015161281f9085615a62565b61282990836158fa565b915085608001518361283b9190615a62565b61284590826158fa565b90505b8960020b8760020b121561287e57606085015161286590836158fa565b915084608001518161287791906158fa565b90506128b6565b606085015161288d9085615a62565b61289790836158fa565b91508460800151836128a99190615a62565b6128b390826158fa565b90505b920399919003975095505050505050565b6005546001600160a01b031633146128f25760405163ea8e4eb560e01b815260040160405180910390fd5b600280546001600160a01b0319166001600160a01b0392909216919091179055565b601954600090819061292e906001600160a01b03166149cf565b600654909150600090612949906001600160801b0316614d25565b60115461295691906158fa565b905060008260020b8660020b1361298c57600286900b6000908152601d602052604090205461298590826158fa565b90506129b7565b600286900b6000908152601d60205260409020546129aa9083615a62565b6129b490826158fa565b90505b8460020b8360020b12156129ea57600285900b6000908152601d60205260409020546129e390826158fa565b9050612a15565b600285900b6000908152601d6020526040902054612a089083615a62565b612a1290826158fa565b90505b9003949350505050565b601554600090600160801b900460ff1681612a3982614853565b9050600082612a53576015546001600160801b0316612a67565b601454600160801b90046001600160801b03165b6001600160801b0316905080826001600160801b031611612a8d57601754935050505090565b6006546001600160801b031680612aaa5760175494505050505090565b6016546000906001600160801b03600160801b909104811690612ad09085908716615a62565b612ada91906158fa565b90506000612aed826103e8612710614354565b9050612b10612b056001600160801b03831684615a62565b600160801b85614392565b601754612b1d91906158fa565b965050505050505090565b600080601a5460021415612b4f576040516303cb96db60e21b815260040160405180910390fd5b6002601a55601554600160801b900460ff16612b6a8161363b565b6001546040805163779b492960e11b815290516000926001600160a01b03169163ef369252916004808301926020929190829003018186803b158015612baf57600080fd5b505afa158015612bc3573d6000803e3d6000fd5b505050506040513d601f19601f82011682018060405250810190612be79190615b57565b604080516002808252606082018352929350600092909160208301908036833750506040805160028082526060820183529394506000939092509060208301908036833701905050601354909150600160801b90046001600160801b031615612d3b57601380546001600160801b0380821690925560148054600160801b928390048416995089939192601092612c829286929004166159fd565b92506101000a8154816001600160801b0302191690836001600160801b03160217905550612ccf600360009054906101000a90046001600160a01b0316876001600160801b031685613627565b60035482516001600160a01b03909116908390600090612cf157612cf1615b41565b60200260200101906001600160a01b031690816001600160a01b031681525050856001600160801b031681600081518110612d2e57612d2e615b41565b6020026020010181815250505b6014546001600160801b031615612e3b57601480546001600160801b03198116909155601580546001600160801b0392831697508792600091612d80918591166159fd565b92506101000a8154816001600160801b0302191690836001600160801b03160217905550612dcd600460009054906101000a90046001600160a01b0316866001600160801b031685613627565b60045482516001600160a01b039091169083906001908110612df157612df1615b41565b60200260200101906001600160a01b031690816001600160a01b031681525050846001600160801b031681600181518110612e2e57612e2e615b41565b6020026020010181815250505b6001600160a01b0383163b15612eac57604051630f03328360e41b81526001600160a01b0384169063f033283090612e799085908590600401615b9b565b600060405180830381600087803b158015612e9357600080fd5b505af1158015612ea7573d6000803e3d6000fd5b505050505b505050612eb88161389e565b506001601a559091565b600054610100900460ff16612edd5760005460ff1615612ee1565b303b155b612f585760405162461bcd60e51b815260206004820152602e60248201527f496e697469616c697a61626c653a20636f6e747261637420697320616c72656160448201527f647920696e697469616c697a656400000000000000000000000000000000000060648201526084015b60405180910390fd5b600054610100900460ff16158015612f7a576000805461ffff19166101011790555b60008060008060008088806020019051810190612f979190615c05565b95509550955095509550955085600360006101000a8154816001600160a01b0302191690836001600160a01b0316021790555084600460006101000a8154816001600160a01b0302191690836001600160a01b0316021790555083601060006101000a8154816001600160a01b0302191690836001600160a01b0316021790555082600060056101000a81548162ffffff021916908362ffffff16021790555081600060026101000a81548162ffffff021916908362ffffff16021790555033600560006101000a8154816001600160a01b0302191690836001600160a01b0316021790555087600160006101000a8154816001600160a01b0302191690836001600160a01b0316021790555080601560106101000a81548160ff0219169083151502179055506130c782614d4d565b600060086101000a8154816001600160801b0302191690836001600160801b031602179055506040518060c00160405280620d89e71960020b8152602001620d89e71961311390615afe565b60020b815260006020808301829052604080840183905260608085018490526080948501849052620d89e71993849052601c835285517f312e29fa10e2dff7af4afff8ca91ba272d48aceeec966ecfff784af0b0aa924c805488860151898601516001600160801b0316600160301b0275ffffffffffffffffffffffffffffffff0000000000001962ffffff92831663010000000265ffffffffffff19909416929095169190911791909117929092169190911790558501517f312e29fa10e2dff7af4afff8ca91ba272d48aceeec966ecfff784af0b0aa924d55928401517f312e29fa10e2dff7af4afff8ca91ba272d48aceeec966ecfff784af0b0aa924e5560a0909301517f312e29fa10e2dff7af4afff8ca91ba272d48aceeec966ecfff784af0b0aa924f80546001600160a01b03929092166001600160a01b0319909216919091179055815160c08101909252808252909182019061327590615afe565b60020b815260200160006001600160801b03168152602001600081526020016000815260200160006001600160a01b0316815250601c6000620d89e7196132bb90615afe565b600290810b825260208083019390935260409182016000208451815486860151948701516001600160801b0316600160301b0275ffffffffffffffffffffffffffffffff0000000000001962ffffff96871663010000000265ffffffffffff1990931696909316959095171716929092178255606084015160018084019190915560808501518383015560a090940151600390920180546001600160a01b039093166001600160a01b03199093169290921790915560198054621e4ec360a31b62ffffff60a01b19909116179055601a929092556007805463ffffffff42908116600160a01b0263ffffffff60a01b1990921691909117909155601b92909255555050436021555050821591506133da9050576000805461ff00191690555b505050565b6015546000908190600160801b900460ff16613402576133fd612a1f565b613405565b60005b9050612198600954600b54600d5461496f565b6005546001600160a01b031633146134435760405163ea8e4eb560e01b815260040160405180910390fd5b6019546001600160a01b03161561346d57604051630bca0b1b60e21b815260040160405180910390fd5b61347681614d8d565b601980546001600160a01b0319166001600160a01b0392909216919091179055565b60006134aa600060115460125461496f565b905090565b6001600160a01b0383166000908152601f60209081526040808320600286810b85529083528184209085900b84529091528120906134ed8484612914565b82546001600160a01b0387166000908152601e6020908152604080832060028a810b85529083528184209089900b84529091528120549293509161353c918403906001600160801b031661495e565b82845560018401805491925082916000906135619084906001600160801b03166158cf565b92506101000a8154816001600160801b0302191690836001600160801b03160217905550505050505050565b6001600160a01b0384166000908152601f60209081526040808320600287810b85529083528184209086900b8452909152812060018101546135d8906001600160801b03168461468c565b60018201805491935083916000906135fa9084906001600160801b03166159fd565b92506101000a8154816001600160801b0302191690836001600160801b0316021790555050949350505050565b6133da6001600160a01b0384168284614de4565b600061364682614853565b9050600082613660576015546001600160801b0316613674565b601454600160801b90046001600160801b03165b9050806001600160801b0316826001600160801b03161161369457505050565b82156136b957601480546001600160801b03808516600160801b0291161790556136d5565b601580546001600160801b0319166001600160801b0384161790555b60006136e182846159fd565b6006549091506001600160801b0316806137445781601660108282829054906101000a90046001600160801b031661371991906158cf565b92506101000a8154816001600160801b0302191690836001600160801b031602179055505050505050565b601654600160801b90046001600160801b031680156137795761376781846158cf565b601680546001600160801b0316905592505b6000613793846001600160801b03166103e8612710614354565b905086156137e85780601360108282829054906101000a90046001600160801b03166137bf91906158cf565b92506101000a8154816001600160801b0302191690836001600160801b0316021790555061382b565b601480548291906000906138069084906001600160801b03166158cf565b92506101000a8154816001600160801b0302191690836001600160801b031602179055505b61385561383882866159fd565b6001600160801b0316600160801b856001600160801b0316614392565b6017600082825461386691906158fa565b9091555050601880546001600160801b0390951694909401909355505050505050565b610a1b6001600160a01b038316333084614e5f565b6000816138b6576004546001600160a01b03166138c3565b6003546001600160a01b03165b604051633d7ad0b760e21b81523060048201529091506001600160a01b0382169063f5eb42dc9060240160206040518083038186803b15801561390557600080fd5b505afa158015613919573d6000803e3d6000fd5b505050506040513d601f19601f8201168201806040525081019061393d9190615c81565b601680546001600160801b0319166001600160801b03929092169190911790555050565b6000546139799062010000900462ffffff1683615c9a565b60020b1561399a576040516333a3bdff60e21b815260040160405180910390fd5b6000546002906139b59062010000900462ffffff1684615cbc565b6139bf9190615c9a565b60020b156139e057604051637ef8a10160e11b815260040160405180910390fd5b6000546139f89062010000900462ffffff1682615c9a565b60020b15613a19576040516333a3bdff60e21b815260040160405180910390fd5b600054600290613a349062010000900462ffffff1683615cbc565b613a3e9190615c9a565b60020b610a1b5760405163a9778c6360e01b815260040160405180910390fd5b60008060008360020b12613a75578260020b613a82565b8260020b613a8290615cf6565b9050613a91620d89e719615afe565b62ffffff16811115613ab657604051633e1f710360e21b815260040160405180910390fd5b600060018216613aca57600160801b613adc565b6ffffcb933bd6fad37aa2d162d1a5940015b70ffffffffffffffffffffffffffffffffff1690506002821615613b10576ffff97272373d413259a46990580e213a0260801c5b6004821615613b2f576ffff2e50f5f656932ef12357cf3c7fdcc0260801c5b6008821615613b4e576fffe5caca7e10e4e61c3624eaa0941cd00260801c5b6010821615613b6d576fffcb9843d60f6159c9db58835c9266440260801c5b6020821615613b8c576fff973b41fa98c081472e6896dfb254c00260801c5b6040821615613bab576fff2ea16466c96a3843ec78b326b528610260801c5b6080821615613bca576ffe5dee046a99a2a811c461f1969c30530260801c5b610100821615613bea576ffcbe86c7900a88aedcffc83b479aa3a40260801c5b610200821615613c0a576ff987a7253ac413176f2b074cf7815e540260801c5b610400821615613c2a576ff3392b0822b70005940c7a398e4b70f30260801c5b610800821615613c4a576fe7159475a2c29b7443b29c7fa6e889d90260801c5b611000821615613c6a576fd097f3bdfd2022b8845ad8f792aa58250260801c5b612000821615613c8a576fa9f746462d870fdf8a65dc1f90e061e50260801c5b614000821615613caa576f70d869a156d2a1b890bb3df62baf32f70260801c5b618000821615613cca576f31be135f97d08fd981231505542fcfa60260801c5b62010000821615613ceb576f09aa508b5b7a84e1c677de54f3e99bc90260801c5b62020000821615613d0b576e5d6af8dedb81196699c329225ee6040260801c5b62040000821615613d2a576d2216e584f5fa1ea926041bedfe980260801c5b62080000821615613d47576b048a170391f7dc42444e8fa20260801c5b60008460020b1315613d68578060001981613d6457613d64615ad4565b0490505b640100000000810615613d7c576001613d7f565b60005b60ff16602082901c0192505050919050565b6000838511613db257613dab83600160601b888803614392565b9050613e1c565b858411613dd457613dab82613dcc8888600160601b614392565b888803614392565b6000613df183613de98888600160601b614392565b878903614392565b90506000613e0685600160601b8a8903614392565b9050808210613e155780613e17565b815b925050505b95945050505050565b6006546001600160801b031680613e395750565b600754600160a01b900463ffffffff16428110613e54575050565b6000613e5e614900565b90508015613ed257613e73600c548285614392565b600a6000828254613e8491906158fa565b9091555050600d54613e97908285614392565b600b6000828254613ea891906158fa565b9091555050601254613ebb908285614392565b60116000828254613ecc91906158fa565b90915550505b6007805463ffffffff42908116600160a01b0263ffffffff60a01b1990921691909117909155839083900360801b81613f0d57613f0d615ad4565b600780546001600160a01b03198116939092046001600160a01b0392831601909116919091179055505050565b613f4584848461409c565b613f508484846134af565b613f5c84848484614e97565b50505050565b600080848611613f8257613f7b6120a2858989876144fb565b9050613fc2565b868511613f9f57613f986120a2858989876144a3565b9150613fc2565b613fae6120a2858789876144a3565b9150613fbf6120a2858988876144fb565b90505b9550959350505050565b604080513060248083019190915282518083039091018152604490910182526020810180516001600160e01b03166370a0823160e01b1790529051600091829182916001600160a01b038616916140239190615d3f565b600060405180830381855afa9150503d806000811461405e576040519150601f19603f3d011682016040523d82523d6000602084013e614063565b606091505b509150915081801561407757506020815110155b61408057600080fd5b808060200190518101906140949190615c81565b949350505050565b6001600160a01b0383166000908152601e60209081526040808320600286810b85529083528184209085900b8452909152812090806140db8585612562565b60018501548554929450909250600091829161410391908603906001600160801b031661495e565b6002860154865491935061412391908503906001600160801b031661495e565b600186018590556002860184905560038601805491925083916000906141539084906001600160801b03166158cf565b92506101000a8154816001600160801b0302191690836001600160801b03160217905550808560030160108282829054906101000a90046001600160801b031661419d91906158cf565b92506101000a8154816001600160801b0302191690836001600160801b031602179055505050505050505050565b6001600160a01b0385166000908152601e60209081526040808320600288810b85529083528184209087900b845290915281206003810154829190614219906001600160801b03168661468c565b600382015490935061423b90600160801b90046001600160801b03168561468c565b600382018054919350849160009061425d9084906001600160801b03166159fd565b92506101000a8154816001600160801b0302191690836001600160801b03160217905550818160030160108282829054906101000a90046001600160801b03166142a791906159fd565b92506101000a8154816001600160801b0302191690836001600160801b03160217905550509550959350505050565b6003546142ed906001600160a01b03168385613627565b6004546133da906001600160a01b03168285613627565b60008061431a858462ffffff16620f4240614354565b915061432f848462ffffff16620f4240614354565b9050935093915050565b806001600160801b038116811461434f57600080fd5b919050565b6000614361848484614392565b9050818061437157614371615ad4565b8385091561438b57600019811061438757600080fd5b6001015b9392505050565b6000808060001985870985870292508281108382030391505080600014156143cc57600084116143c157600080fd5b50829004905061438b565b8084116143d857600080fd5b6000848688096000868103871696879004966002600389028118808a02820302808a02820302808a02820302808a02820302808a02820302808a02909103029181900381900460010186841190950394909402919094039290920491909117919091029150509392505050565b60c0810151156144525750565b61010081015160020b620d89e71914806144825750614474620d89e719615afe565b60020b81610100015160020b145b156144a05760405163035d2ccd60e51b815260040160405180910390fd5b50565b600081156144d2576144cb6144bf606087901b86860386614354565b85808204910615150190565b9050614094565b836144e4606087901b82860386614392565b816144f1576144f1615ad4565b0495945050505050565b60008115614514576144cb85858503600160601b614354565b613e1c85858503600160601b614392565b60008060008060006145408d8d62ffffff16620f4240614354565b905061454c818a6158fa565b9850614558818e615a62565b61456290896158fa565b97506000614573828d612710614354565b905061457f81896158fa565b975061458b8183615a62565b915061459c82600160801b8d614392565b6145a690886158fa565b999e989d50969b5097995095975050505050505050565b61465f601d846101000151600760009054906101000a90046001600160a01b03168660c00151856145ff57600a5488606001516145fa91906158fa565b614611565b600b54886060015161461191906158fa565b8661462d57600b54896080015161462891906158fa565b61463f565b600a54896080015161463f91906158fa565b600054601c969594939291908a908a9062010000900462ffffff16614f8b565b60020b61010085015260c0909301929092525050565b600081831015614685578161438b565b5090919050565b6000818310614685578161438b565b821561473a576003546000906146b9906001600160a01b0316613fcc565b6014549091506000906146dd908590600160801b90046001600160801b03166158cf565b905081816001600160801b031611156147095760405163420231d560e11b815260040160405180910390fd5b601480546001600160801b03908116600160801b8483160217909155601580548592600091613719918591166159fd565b600454600090614752906001600160a01b0316613fcc565b60155490915060009061476f9085906001600160801b03166158cf565b905081816001600160801b0316111561479b57604051637218102160e11b815260040160405180910390fd5b601580546001600160801b0319166001600160801b0383811691909117909155601480548592601091613719918591600160801b9004166159fd565b8215614829576009829055601480548291906000906148009084906001600160801b03166158cf565b92506101000a8154816001600160801b0302191690836001600160801b03160217905550505050565b600882905560138054829190601090614800908490600160801b90046001600160801b03166158cf565b6000808261486c576004546001600160a01b0316614879565b6003546001600160a01b03165b601654604051632cc7243560e21b81526001600160801b0390911660048201529091506001600160a01b0382169063b31c90d49060240160206040518083038186803b1580156148c857600080fd5b505afa1580156148dc573d6000803e3d6000fd5b505050506040513d601f19601f8201168201806040525081019061438b9190615c81565b600e5460009042811061491557600091505090565b600754600f54600160a01b90910463ffffffff169060009061493790846158fa565b905081811161494a576000935050505090565b6149548284614675565b611d90428361468c565b600061438b8383600160801b614392565b60008061497a614900565b6006549091506001600160801b031681158015906149985750600081115b156149c5576149a8848383614392565b6149b286886158fa565b6149bc91906158fa565b9250505061438b565b6149bc85876158fa565b60006401000276a36001600160a01b0383161080614a0a575073fffd8963efd1fc6a506488495d951d5263988d266001600160a01b03831610155b15614a2857604051636e4ba61d60e01b815260040160405180910390fd5b77ffffffffffffffffffffffffffffffffffffffff00000000602083901b166001600160801b03811160071b81811c67ffffffffffffffff811160061b90811c63ffffffff811160051b90811c61ffff811160041b90811c60ff8111600390811b91821c600f811160021b90811c918211600190811b92831c97908811961790941790921717909117171760808110614ac957607f810383901c9150614ad3565b80607f0383901b91505b908002607f81811c60ff83811c9190911c800280831c81831c1c800280841c81841c1c800280851c81851c1c800280861c81861c1c800280871c81871c1c800280881c81881c1c800280891c81891c1c8002808a1c818a1c1c8002808b1c818b1c1c8002808c1c818c1c1c8002808d1c818d1c1c8002808e1c9c81901c9c909c1c80029c8d901c9e9d607f198f0160401b60c09190911c678000000000000000161760c19b909b1c674000000000000000169a909a1760c29990991c672000000000000000169890981760c39790971c671000000000000000169690961760c49590951c670800000000000000169490941760c59390931c670400000000000000169290921760c69190911c670200000000000000161760c79190911c670100000000000000161760c89190911c6680000000000000161760c99190911c6640000000000000161760ca9190911c6620000000000000161760cb9190911c6610000000000000161760cc9190911c6608000000000000161760cd9190911c66040000000000001617693627a301d71055774c8581026f028f6481ab7f045a5af012a19d003aa9198101608090811d906fdb2df09e81959a81455e260799a0632f8301901d600281810b9083900b14614cd357886001600160a01b0316614cb882613a5e565b6001600160a01b03161115614ccd5781614cd5565b80614cd5565b815b9998505050505050505050565b60008082614cf557506000928392509050565b6000614cff614900565b9050614d0e600c548286614392565b9250614d1d600d548286614392565b915050915091565b600081614d3457506000919050565b6000614d3e614900565b905061438b6012548285614392565b6000614d5a826002615d5b565b614d67620d89e719615afe565b614d719190615d86565b614d879062ffffff166001600160801b03615da8565b92915050565b6401000276a36001600160a01b0382161080614dc6575073fffd8963efd1fc6a506488495d951d5263988d266001600160a01b03821610155b156144a057604051636e4ba61d60e01b815260040160405180910390fd5b6040516001600160a01b0383166024820152604481018290526133da90849063a9059cbb60e01b906064015b60408051601f198184030181529190526020810180516001600160e01b03167fffffffff0000000000000000000000000000000000000000000000000000000090931692909217909152615211565b6040516001600160a01b0380851660248301528316604482015260648101829052613f5c9085906323b872dd60e01b90608401614e10565b80600f0b60001415614ea857613f5c565b6001600160a01b0384166000908152601e60209081526040808320600287810b85529083528184209086900b8452909152812090600f83900b1315614f6057805482908290600090614f049084906001600160801b03166158cf565b82546101009290920a6001600160801b038181021990931691831602179091556000548354680100000000000000009091048216911611159050614f5b5760405163581a12d760e11b815260040160405180910390fd5b614f84565b614f6982615b74565b815482906000906137199084906001600160801b03166159fd565b5050505050565b600288900b600090815260208b905260408120600301548190614fb7906001600160a01b03168a615b21565b60028b900b600090815260208e8152604080832060030180546001600160a01b0319166001600160a01b0395909516949094179093558d90522054614ffc9086615a62565b60028b900b600090815260208d9052604090205583156151095760028360020b8b60020b8161502d5761502d615ad4565b0560020b8161503e5761503e615ad4565b0760020b6150735760028a900b600090815260208d90526040902054600160301b90046001600160801b03169097039661509d565b60028a900b600090815260208d90526040902054600160301b90046001600160801b031697909701965b60028a900b600090815260208d905260409020600101546150be9087615a62565b60028b810b600090815260208f905260409020600181019290925501546150e59088615a62565b60029a8b0b600090815260208e905260409020808c01919091555490990b986151ff565b60028360020b8b60020b8161512057615120615ad4565b0560020b8161513157615131615ad4565b0760020b6151675760028a900b600090815260208d90526040902054600160301b90046001600160801b03169790970196615190565b60028a900b600090815260208d90526040902054600160301b90046001600160801b0316909703965b60028a810b600090815260208e90526040902001546151af9087615a62565b60028b810b600090815260208f90526040902090810191909155600101546151d79088615a62565b60029a8b0b600090815260208e9052604090206001810191909155546301000000900490990b985b50959a97995096975050505050505050565b6000615266826040518060400160405280602081526020017f5361666545524332303a206c6f772d6c6576656c2063616c6c206661696c6564815250856001600160a01b03166152e39092919063ffffffff16565b8051909150156133da57808060200190518101906152849190615dc2565b6133da5760405162461bcd60e51b815260206004820152602a60248201527f5361666545524332303a204552433230206f7065726174696f6e20646964206e6044820152691bdd081cdd58d8d9595960b21b6064820152608401612f4f565b60606140948484600085856001600160a01b0385163b6153455760405162461bcd60e51b815260206004820152601d60248201527f416464726573733a2063616c6c20746f206e6f6e2d636f6e74726163740000006044820152606401612f4f565b600080866001600160a01b031685876040516153619190615d3f565b60006040518083038185875af1925050503d806000811461539e576040519150601f19603f3d011682016040523d82523d6000602084013e6153a3565b606091505b50915091506153b38282866153be565b979650505050505050565b606083156153cd57508161438b565b8251156153dd5782518084602001fd5b8160405162461bcd60e51b8152600401612f4f9190615ddd565b8060020b81146144a057600080fd5b60008060006060848603121561541b57600080fd5b8335615426816153f7565b92506020840135615436816153f7565b929592945050506040919091013590565b80356001600160801b038116811461434f57600080fd5b60006020828403121561547057600080fd5b61438b82615447565b634e487b7160e01b600052604160045260246000fd5b600060c082840312156154a157600080fd5b60405160c0810181811067ffffffffffffffff821117156154c4576154c4615479565b60405282356154d2816153f7565b815260208301356154e2816153f7565b602082015260408301356154f5816153f7565b60408201526060830135615508816153f7565b606082015261551960808401615447565b608082015261552a60a08401615447565b60a08201529392505050565b6000806000806080858703121561554c57600080fd5b8435615557816153f7565b93506020850135615567816153f7565b93969395505050506040820135916060013590565b6001600160a01b03811681146144a057600080fd5b6000806000806000608086880312156155a957600080fd5b85356155b48161557c565b94506020860135935060408601359250606086013567ffffffffffffffff808211156155df57600080fd5b818801915088601f8301126155f357600080fd5b81358181111561560257600080fd5b89602082850101111561561457600080fd5b9699959850939650602001949392505050565b600082601f83011261563857600080fd5b813567ffffffffffffffff8082111561565357615653615479565b604051601f8301601f19908116603f0116810190828211818310171561567b5761567b615479565b8160405283815286602085880101111561569457600080fd5b836020870160208301376000602085830101528094505050505092915050565b6000602082840312156156c657600080fd5b813567ffffffffffffffff8111156156dd57600080fd5b61409484828501615627565b600081518084526020808501945080840160005b838110156157225781516001600160a01b0316875295820195908201906001016156fd565b509495945050505050565b60208152600061438b60208301846156e9565b6000806000806080858703121561575657600080fd5b61575f85615447565b935061556760208601615447565b60008060006060848603121561578257600080fd5b833561578d816153f7565b9250602084013561579d816153f7565b91506157ab60408501615447565b90509250925092565b6000806000606084860312156157c957600080fd5b83356157d48161557c565b925060208401356157e4816153f7565b915060408401356157f4816153f7565b809150509250925092565b6000806040838503121561581257600080fd5b823561581d816153f7565b9150602083013561582d816153f7565b809150509250929050565b60006020828403121561584a57600080fd5b813561438b8161557c565b6000806040838503121561586857600080fd5b823567ffffffffffffffff81111561587f57600080fd5b61588b85828601615627565b925050602083013561582d8161557c565b6000602082840312156158ae57600080fd5b813561438b816153f7565b634e487b7160e01b600052601160045260246000fd5b60006001600160801b038083168185168083038211156158f1576158f16158b9565b01949350505050565b6000821982111561590d5761590d6158b9565b500190565b60006101a0820190508b82528a60208301528951604083015260208a0151606083015260408a015160808301526001600160a01b0360608b01511660a083015261596160c083018a60020b9052565b61597060e083018960020b9052565b61598061010083018860020b9052565b61599061012083018760020b9052565b6001600160801b0385166101408301526159b061016083018560020b9052565b6001600160a01b0383166101808301529b9a5050505050505050505050565b600080604083850312156159e257600080fd5b82516159ed816153f7565b6020939093015192949293505050565b60006001600160801b0383811690831681811015615a1d57615a1d6158b9565b039392505050565b84815283602082015260606040820152816060820152818360808301376000818301608090810191909152601f909201601f191601019392505050565b600082821015615a7457615a746158b9565b500390565b8051801515811461434f57600080fd5b60008060408385031215615a9c57600080fd5b615aa583615a79565b9150602083015161582d8161557c565b6000816000190483118215151615615acf57615acf6158b9565b500290565b634e487b7160e01b600052601260045260246000fd5b600082615af957615af9615ad4565b500490565b60008160020b627fffff19811415615b1857615b186158b9565b60000392915050565b60006001600160a01b0383811690831681811015615a1d57615a1d6158b9565b634e487b7160e01b600052603260045260246000fd5b600060208284031215615b6957600080fd5b815161438b8161557c565b600081600f0b6f7fffffffffffffffffffffffffffffff19811415615b1857615b186158b9565b604081526000615bae60408301856156e9565b82810360208481019190915284518083528582019282019060005b81811015615be557845183529383019391830191600101615bc9565b5090979650505050505050565b805162ffffff8116811461434f57600080fd5b60008060008060008060c08789031215615c1e57600080fd5b8651615c298161557c565b6020880151909650615c3a8161557c565b6040880151909550615c4b8161557c565b9350615c5960608801615bf2565b9250615c6760808801615bf2565b9150615c7560a08801615a79565b90509295509295509295565b600060208284031215615c9357600080fd5b5051919050565b60008260020b80615cad57615cad615ad4565b808360020b0791505092915050565b60008160020b8360020b80615cd357615cd3615ad4565b627fffff19821460001982141615615ced57615ced6158b9565b90059392505050565b6000600160ff1b821415615d0c57615d0c6158b9565b5060000390565b60005b83811015615d2e578181015183820152602001615d16565b83811115613f5c5750506000910152565b60008251615d51818460208701615d13565b9190910192915050565b600062ffffff80831681851681830481118215151615615d7d57615d7d6158b9565b02949350505050565b600062ffffff80841680615d9c57615d9c615ad4565b92169190910492915050565b60006001600160801b0380841680615d9c57615d9c615ad4565b600060208284031215615dd457600080fd5b61438b82615a79565b6020815260008251806020840152615dfc816040850160208701615d13565b601f01601f1916919091016040019291505056fea2646970667358221220e4f1b44fbefee4f7154912256e1ee12d6633613e5df655e10c4b8b61c406949164736f6c63430008090033",
  "deployedBytecode": "0x608060405234801561001057600080fd5b50600436106103365760003560e01c8063a035b1fe116101b2578063cce2df03116100f9578063e5ff7f46116100a2578063f7c618c11161007c578063f7c618c1146108f0578063f949e8b714610903578063fa1a169c1461090b578063fb5d80b31461091457600080fd5b8063e5ff7f46146107d7578063f30dba93146107ea578063f719dac61461089257600080fd5b8063d21220a7116100d3578063d21220a714610791578063d5514792146107a4578063d90bda4e146107c457600080fd5b8063cce2df0314610761578063cf78756b14610774578063d0c93a7c1461077c57600080fd5b8063bcdb4dad1161015b578063c45a015511610135578063c45a01551461073e578063c993642014610751578063caa4b46a1461075957600080fd5b8063bcdb4dad1461066d578063bd7d1eea14610718578063c03c25141461072b57600080fd5b8063acfe88f81161018c578063acfe88f814610648578063b0e21e8a1461065b578063b2f4bdb01461066457600080fd5b8063a035b1fe14610590578063a34123a7146105a3578063aaca1b4d146105b657600080fd5b806366f657c5116102815780638ba310a21161022a578063956afe4511610204578063956afe45146105455780639a2f9ccc1461054e5780639da1209614610561578063a00e8f291461056957600080fd5b80638ba310a21461050b5780638c347f9b146105135780638f10369a1461053c57600080fd5b806370ed1b861161025b57806370ed1b86146104f0578063735541d1146104f957806384e020171461050257600080fd5b806366f657c5146104a657806367e4ac2c146104af5780636d59d802146104c457600080fd5b80631a686502116102e3578063490e6cbc116102bd578063490e6cbc1461045457806354cf2aeb14610467578063627dd56a1461049357600080fd5b80631a686502146103f85780632df94b0f1461042357806340306fb61461044b57600080fd5b80630ae9ba8a116103145780630ae9ba8a146103b15780630dfe1681146103c4578063111ba27d146103ef57600080fd5b806306f912f31461033b57806308136e03146103615780630902f1ac14610376575b600080fd5b61034e610349366004615406565b610933565b6040519081526020015b60405180910390f35b61037461036f36600461545e565b61099b565b005b6014546015546001600160801b03600160801b909204821691165b604080516001600160801b03938416815292909116602083015201610358565b61034e6103bf36600461548f565b610a1f565b6003546103d7906001600160a01b031681565b6040516001600160a01b039091168152602001610358565b61034e60215481565b60065461040b906001600160801b031681565b6040516001600160801b039091168152602001610358565b610436610431366004615536565b610fa4565b60408051928352602083019190915201610358565b61034e600e5481565b610374610462366004615591565b61112a565b60005461047f9065010000000000900462ffffff1681565b60405162ffffff9091168152602001610358565b61034e6104a13660046156b4565b6115ab565b61034e600c5481565b6104b7611c6d565b604051610358919061572d565b600754604080516001600160a01b0383168152600160a01b90920463ffffffff16602083015201610358565b61034e60095481565b61034e601b5481565b61034e600d5481565b61034e611d01565b601954604080516001600160a01b0383168152600160a01b90920460020b602083015201610358565b61034e60125481565b61034e600f5481565b61037461055c366004615740565b611da2565b61034e612160565b60195461057d90600160a01b900460020b81565b60405160029190910b8152602001610358565b6019546103d7906001600160a01b031681565b6104366105b136600461576d565b6121a8565b6106126105c43660046157b4565b601e60209081526000938452604080852082529284528284209052825290208054600182015460028301546003909301546001600160801b0392831693919281811691600160801b90041685565b604080516001600160801b039687168152602081019590955284019290925283166060830152909116608082015260a001610358565b6104366106563660046157ff565b612562565b61034e6103e881565b61034e60205481565b6106c36000546005546001546003546004546001600160801b03680100000000000000008604169562ffffff62010000870481169665010000000000900416946001600160a01b03908116948116938116921690565b604080516001600160801b03909816885262ffffff968716602089015295909416948601949094526001600160a01b0391821660608601528116608085015291821660a08401521660c082015260e001610358565b610374610726366004615838565b6128c7565b61034e6107393660046157ff565b612914565b6005546103d7906001600160a01b031681565b61034e612a1f565b610391612b28565b61037461076f366004615855565b612ec2565b61034e6133df565b60005461047f9062010000900462ffffff1681565b6004546103d7906001600160a01b031681565b61034e6107b236600461589c565b601d6020526000908152604090205481565b6103746107d2366004615838565b613418565b60135461040b906001600160801b031681565b6108476107f836600461589c565b601c6020526000908152604090208054600182015460028084015460039094015483820b946301000000850490920b93600160301b90046001600160801b03169291906001600160a01b031686565b60408051600297880b81529590960b60208601526001600160801b0390931694840194909452606083015260808201929092526001600160a01b0390911660a082015260c001610358565b6108d36108a03660046157b4565b601f602090815260009384526040808520825292845282842090528252902080546001909101546001600160801b031682565b604080519283526001600160801b03909116602083015201610358565b6010546103d7906001600160a01b031681565b61034e613498565b61034e60085481565b6013546014546001600160801b03600160801b90920482169116610391565b6000601a5460021415610959576040516303cb96db60e21b815260040160405180910390fd5b6002601a556109693385856134af565b6109753385858561358d565b60105490915061098f906001600160a01b03168233613627565b6001601a559392505050565b601554600160801b900460ff166109b18161363b565b6010546109d0906001600160a01b03166001600160801b038416613889565b601380548391906000906109ee9084906001600160801b03166158cf565b92506101000a8154816001600160801b0302191690836001600160801b03160217905550610a1b8161389e565b5050565b6000601a5460021415610a45576040516303cb96db60e21b815260040160405180910390fd5b6002601a55601554600160801b900460ff16610a608161363b565b610a7283602001518460600151613961565b6000610a818460200151613a5e565b6001600160a01b031690506000610a9b8560600151613a5e565b60195460a087015160808801516001600160a01b0393841694509190921691610ad6918591859185916001600160801b039081169116613d91565b94506f7fffffffffffffffffffffffffffffff851115610b0957604051631a93c68960e11b815260040160405180910390fd5b84610b27576040516320fb348960e21b815260040160405180910390fd5b610b2f613e25565b6000601c73__$5c5207d55745a34649a0c7f595c6a505bf$__63825c72999091601d6040518060800160405280600a54600854610b6c91906158fa565b8152602001600b54600954610b8191906158fa565b81526020016011548152602001600760009054906101000a90046001600160a01b03166001600160a01b03168152508b600001518c602001518d604001518e606001518e601960149054906101000a900460020b8c6040518b63ffffffff1660e01b8152600401610bfb9a99989796959493929190615912565b604080518083038186803b158015610c1257600080fd5b505af4158015610c26573d6000803e3d6000fd5b505050506040513d601f19601f82011682018060405250810190610c4a91906159cf565b6019805462ffffff909316600160a01b0262ffffff60a01b1990931692909217909155601b80549192508291600090610c849084906158fa565b9250508190555050610ca0338760200151886060015188613f3a565b808311158015610caf57508181105b15610cf75760068054869190600090610cd29084906001600160801b03166158cf565b92506101000a8154816001600160801b0302191690836001600160801b031602179055505b600080610d088585858a6001613f62565b60035460048054604051632f8b294d60e11b81526001600160a01b03938416928101929092529190911660248201526001600160801b0380841660448301528216606482015291935091503390635f16529a90608401600060405180830381600087803b158015610d7857600080fd5b505af1158015610d8c573d6000803e3d6000fd5b50505050816001600160801b0316600014610e395781601460108282829054906101000a90046001600160801b0316610dc591906158cf565b92506101000a8154816001600160801b0302191690836001600160801b03160217905550610e07600360009054906101000a90046001600160a01b0316613fcc565b601454600160801b90046001600160801b03161115610e395760405163420231d560e11b815260040160405180910390fd5b6001600160801b03811615610ed35760158054829190600090610e669084906001600160801b03166158cf565b92506101000a8154816001600160801b0302191690836001600160801b03160217905550610ea8600460009054906101000a90046001600160a01b0316613fcc565b6015546001600160801b03161115610ed357604051637218102160e11b815260040160405180910390fd5b600280546040805160a08101825260208c810151850b82526060808e0151860b9183019182526001600160801b03888116848601908152908816918401918252608084018e8152945163fbad739160e01b81529351870b6004850152915190950b6024830152516044820152925160648401525160848301526001600160a01b03169063fbad73919060a401600060405180830381600087803b158015610f7957600080fd5b505af1925050508015610f8a575060015b505050505050610f998161389e565b506001601a55919050565b600080601a5460021415610fcb576040516303cb96db60e21b815260040160405180910390fd5b6002601a55601554600160801b900460ff16610fe68161363b565b610ff133888861409c565b610ffe33888888886141cb565b601480549295509093508491601090611028908490600160801b90046001600160801b03166159fd565b92506101000a8154816001600160801b0302191690836001600160801b0316021790555081601560008282829054906101000a90046001600160801b031661107091906159fd565b92506101000a8154816001600160801b0302191690836001600160801b0316021790555061109f3384846142d6565b600254604080518082018252858152602081018581529151631228c47f60e01b815290516004820152905160248201526001600160a01b0390911690631228c47f90604401600060405180830381600087803b1580156110fe57600080fd5b505af192505050801561110f575060015b506111198161389e565b506001601a55909590945092505050565b601a546002141561114e576040516303cb96db60e21b815260040160405180910390fd5b6002601a55601554600160801b900460ff166111698161363b565b6111a96040518060e00160405280600081526020016000815260200160008152602001600081526020016000815260200160008152602001600081525090565b6000806111c88888600060059054906101000a900462ffffff16614304565b6040805160e0810182528b8152602081018b90526014546001600160801b03600160801b90910481169282019290925260155482166060820152608081019390935260a08301919091526006541660c08201819052909350151591506112439050576040516320fb348960e21b815260040160405180910390fd5b61124e8787876142d6565b608081015160a08201516040516361c9276b60e11b8152339263c3924ed69261127d9289908990600401615a25565b600060405180830381600087803b15801561129757600080fd5b505af11580156112ab573d6000803e3d6000fd5b50506003546000925082915081906112cb906001600160a01b0316613fcc565b6004549091506000906112e6906001600160a01b0316613fcc565b905081856080015186604001516112fd91906158fa565b111561131c5760405163420231d560e11b815260040160405180910390fd5b808560a00151866060015161133191906158fa565b111561135057604051637218102160e11b815260040160405180910390fd5b61135982614339565b601480546001600160801b03928316600160801b02921691909117905561137f81614339565b601580546001600160801b0319166001600160801b039290921691909117905560408501516113ae9083615a62565b93508460600151816113c09190615a62565b92506103e891505082156114665760006113dd8483612710614354565b905080601360108282829054906101000a90046001600160801b031661140391906158cf565b92506101000a8154816001600160801b0302191690836001600160801b0316021790555061144e816001600160801b03168561143f9190615a62565b600160801b8760c00151614392565b6008600082825461145f91906158fa565b9091555050505b81156114ef57600061147b8383612710614354565b60148054919250829160009061149b9084906001600160801b03166158cf565b92506101000a8154816001600160801b0302191690836001600160801b031602179055506114d7816001600160801b03168461143f9190615a62565b600960008282546114e891906158fa565b9091555050505b6002546040805160a0810182523381528651602080830191825288015182840190815260608301888152608084018881529451630a61fef360e21b815293516001600160a01b039081166004860152925160248501529051604484015251606483015291516084820152911690632987fbcc9060a401600060405180830381600087803b15801561157f57600080fd5b505af1925050508015611590575060015b505050505061159e8161389e565b50506001601a5550505050565b6000601a54600214156115d1576040516303cb96db60e21b815260040160405180910390fd5b6002601a55601554600160801b900460ff166115ec8161363b565b600080848060200190518101906116039190615a89565b9150915060008261161f576015546001600160801b0316611633565b601454600160801b90046001600160801b03165b6001600160801b031661166684611655576004546001600160a01b0316613fcc565b6003546001600160a01b0316613fcc565b6116709190615a62565b90506000604051806101200160405280600081526020016000815260200160008152602001856116a2576008546116a6565b6009545b8152602001856116b8576009546116bc565b6008545b81526019546001600160a01b031660208201526006546001600160801b03166040820152606081018490526080018561171b57601954600160a01b9004600290810b6000908152601c602052604090205463010000009004900b611729565b601954600160a01b900460020b5b60020b90529050611738613e25565b60115461174482614445565b60e082015115611ad757600061175e836101000151613a5e565b6001600160a01b03169050600080871561188f5760006117898660c00151858860a0015160006144a3565b9050808660e001511161184f5760c086015160a087015160e088015160609290921b916000916117cf918491906117c09082615ab5565b6117ca90866158fa565b614354565b90508086111580156117e457508760a0015181105b61182257611816828960e001518a60a00151856118019190615aea565b61180b91906158fa565b808204910615150190565b6001600160a01b031690505b6118378860c00151828a60a0015160006144fb565b60a0890191909152600060e089015293506118899050565b6118648660c00151858860a0015160006144fb565b60a0870185905260e087018051919450600193508291611885908390615a62565b9052505b50611944565b60006118a68660c001518760a001518660006144fb565b9050808660e00151116119085760006118cc8760e00151600160601b8960c00151614392565b8760a001516118db91906158fa565b90506118f28760c001518860a001518360006144a3565b60a0880191909152600060e08801529250611942565b61191d8660c001518760a001518660006144a3565b60a0870185905260e08701805191945060019350829161193e908390615a62565b9052505b505b60c0850151156119965761198182600060059054906101000a900462ffffff166103e88860c0015189602001518f8b604001518c60600151614525565b60608901526040880152602087019190915299505b8015611acf576119a785858a6145bd565b60c0850151611acf5761010085015160020b620d89e71914806119e057506119d2620d89e719615afe565b60020b85610100015160020b145b15611aa8578715611a3357611a0a60018660a001516119ff9190615a62565b6401000276a3614675565b60a086015261010085018051600290810b6000908152601c6020526040902054900b9052611aa0565b611a748560a001516001611a4791906158fa565b611a66600173fffd8963efd1fc6a506488495d951d5263988d26615b21565b6001600160a01b031661468c565b60a086015261010085018051600290810b6000908152601c602052604090205463010000009004900b90525b505050611ad7565b611ab6856101000151613a5e565b6001600160a01b031660a0860152611acf85858a6145bd565b505050611744565b60a0820151601980546001600160a01b0319166001600160a01b03909216919091179055600085611b2357610100830151600290810b6000908152601c6020526040902054900b611b2a565b8261010001515b601954909150600282810b600160a01b909204900b14611b85576019805462ffffff60a01b1916600160a01b62ffffff84160217905560c0830151600680546001600160801b0319166001600160801b039092169190911790555b611b9086858a61469b565b611ba386846060015185604001516147d7565b8515611bc557600454611bc0906001600160a01b03168987613627565b611bdc565b600354611bdc906001600160a01b03168987613627565b600254604080516060810182528815158152602081018781528183018c815292516391accd5f60e01b8152915115156004830152516024820152905160448201526001600160a01b03909116906391accd5f90606401600060405180830381600087803b158015611c4c57600080fd5b505af1925050508015611c5d575060015b50505050505050610f998161389e565b6040805160028082526060808301845292602083019080368337505060035482519293506001600160a01b031691839150600090611cad57611cad615b41565b6001600160a01b039283166020918202929092010152600454825191169082906001908110611cde57611cde615b41565b60200260200101906001600160a01b031690816001600160a01b03168152505090565b601554600090600160801b900460ff1681611d1b82614853565b9050600082611d35576015546001600160801b0316611d49565b601454600160801b90046001600160801b03165b9050806001600160801b0316826001600160801b031611611d6f57601754935050505090565b806001600160801b0316826001600160801b0316601754611d9091906158fa565b611d9a9190615a62565b935050505090565b601a5460021415611dc6576040516303cb96db60e21b815260040160405180910390fd5b6002601a55601554600160801b900460ff16611de18161363b565b6001546040805163d0a9317360e01b8152905133926001600160a01b03169163d0a931739160048083019260209291908290030181600087803b158015611e2757600080fd5b505af1158015611e3b573d6000803e3d6000fd5b505050506040513d601f19601f82011682018060405250810190611e5f9190615b57565b6001600160a01b031614611e865760405163ea8e4eb560e01b815260040160405180910390fd5b42611e9183856158fa565b11611eaf57604051633494a40d60e21b815260040160405180910390fd5b601380546001600160801b031981169091556001600160801b03168015611f2d57601054604080516001600160a01b0390921682526001600160801b03831660208301528101859052606081018490527f891de4aee0b667a0bddf1d07a815a893c17366a034433e6760b9fc4cb2a40b789060800160405180910390a15b600e54600f54600090611f4090836158fa565b905085811115611f6357604051633494a40d60e21b815260040160405180910390fd5b6001600160801b03881615611fda57600354611f91906001600160a01b03166001600160801b038a16613889565b87601460108282829054906101000a90046001600160801b0316611fb591906158cf565b92506101000a8154816001600160801b0302191690836001600160801b031602179055505b6001600160801b0387161561204b57600454612008906001600160a01b03166001600160801b038916613889565b601580548891906000906120269084906001600160801b03166158cf565b92506101000a8154816001600160801b0302191690836001600160801b031602179055505b6000612055614900565b11156120ed57612063613e25565b600754600160a01b900463ffffffff16818110156120eb5760006120878285614675565b6120919084615a62565b90506120a76120a2600c548361495e565b614339565b6120b1908b6158cf565b99506120c26120a2600d548361495e565b6120cc908a6158cf565b98506120dd6120a26012548361495e565b6120e790866158cf565b9450505b505b612105886001600160801b0316600160801b87614392565b600c556121206001600160801b038816600160801b87614392565b600d5561213b6001600160801b038416600160801b87614392565b601255505050600e839055600f8290556121548161389e565b50506001601a55505050565b6015546000908190600160801b900460ff1661217d576000612185565b612185612a1f565b9050612198600854600a54600c5461496f565b6121a290826158fa565b91505090565b600080601a54600214156121cf576040516303cb96db60e21b815260040160405180910390fd5b6002601a55601554600160801b900460ff166121ea8161363b565b60006121f587613a5e565b9050600061220287613a5e565b6019549091506001600160a01b0316612219613e25565b806001600160a01b0316836001600160a01b03161115801561224c5750816001600160a01b0316816001600160a01b0316105b1561227457600680546001600160801b038082168a9003166001600160801b03199091161790555b6122a6836001600160a01b0316836001600160a01b0316836001600160a01b03168a6001600160801b03166000613f62565b6001600160801b039182169750811695506f7fffffffffffffffffffffffffffffff90881611156122ea57604051631a93c68960e11b815260040160405180910390fd5b6122fe338a8a6122f98b615b74565b613f3a565b85601460108282829054906101000a90046001600160801b031661232291906159fd565b92506101000a8154816001600160801b0302191690836001600160801b0316021790555084601560008282829054906101000a90046001600160801b031661236a91906159fd565b92506101000a8154816001600160801b0302191690836001600160801b031602179055506123993387876142d6565b601954604051630f92397360e31b8152601c6004820152601d602482015260028b810b60448301528a810b60648301526001600160801b038a166084830152600160a01b90920490910b60a482015260009073__$5c5207d55745a34649a0c7f595c6a505bf$__90637c91cb989060c401604080518083038186803b15801561242157600080fd5b505af4158015612435573d6000803e3d6000fd5b505050506040513d601f19601f8201168201806040525081019061245991906159cf565b6019805462ffffff909316600160a01b0262ffffff60a01b1990931692909217909155601b80549192508291600090612493908490615a62565b9091555050600280546040805160a0810182528d840b81528c840b602082019081528183018c8152606083018c81526001600160801b038f16608085019081529451637e4a416960e11b81529351870b6004850152915190950b602483015293516044820152925160648401525160848301526001600160a01b0316915063fc9482d29060a401600060405180830381600087803b15801561253457600080fd5b505af1925050508015612545575060015b505050506125528161389e565b506001601a559094909350915050565b6019546000908190819061257e906001600160a01b03166149cf565b90506000601c60008760020b60020b81526020019081526020016000206040518060c00160405290816000820160009054906101000a900460020b60020b60020b81526020016000820160039054906101000a900460020b60020b60020b81526020016000820160069054906101000a90046001600160801b03166001600160801b03166001600160801b0316815260200160018201548152602001600282015481526020016003820160009054906101000a90046001600160a01b03166001600160a01b03166001600160a01b03168152505090506000601c60008760020b60020b81526020019081526020016000206040518060c00160405290816000820160009054906101000a900460020b60020b60020b81526020016000820160039054906101000a900460020b60020b60020b81526020016000820160069054906101000a90046001600160801b03166001600160801b03166001600160801b0316815260200160018201548152602001600282015481526020016003820160009054906101000a90046001600160a01b03166001600160a01b03166001600160a01b0316815250509050600080600080612755600660009054906101000a90046001600160801b03166001600160801b0316614ce2565b9150915081600a5460085461276a91906158fa565b61277491906158fa565b935080600b5460095461278791906158fa565b61279191906158fa565b92505050601560109054906101000a900460ff16156127c3576127b2612a1f565b6127bc90836158fa565b91506127d8565b6127cb612a1f565b6127d590826158fa565b90505b6000808660020b8b60020b136128105760608601516127f790836158fa565b915085608001518161280991906158fa565b9050612848565b606086015161281f9085615a62565b61282990836158fa565b915085608001518361283b9190615a62565b61284590826158fa565b90505b8960020b8760020b121561287e57606085015161286590836158fa565b915084608001518161287791906158fa565b90506128b6565b606085015161288d9085615a62565b61289790836158fa565b91508460800151836128a99190615a62565b6128b390826158fa565b90505b920399919003975095505050505050565b6005546001600160a01b031633146128f25760405163ea8e4eb560e01b815260040160405180910390fd5b600280546001600160a01b0319166001600160a01b0392909216919091179055565b601954600090819061292e906001600160a01b03166149cf565b600654909150600090612949906001600160801b0316614d25565b60115461295691906158fa565b905060008260020b8660020b1361298c57600286900b6000908152601d602052604090205461298590826158fa565b90506129b7565b600286900b6000908152601d60205260409020546129aa9083615a62565b6129b490826158fa565b90505b8460020b8360020b12156129ea57600285900b6000908152601d60205260409020546129e390826158fa565b9050612a15565b600285900b6000908152601d6020526040902054612a089083615a62565b612a1290826158fa565b90505b9003949350505050565b601554600090600160801b900460ff1681612a3982614853565b9050600082612a53576015546001600160801b0316612a67565b601454600160801b90046001600160801b03165b6001600160801b0316905080826001600160801b031611612a8d57601754935050505090565b6006546001600160801b031680612aaa5760175494505050505090565b6016546000906001600160801b03600160801b909104811690612ad09085908716615a62565b612ada91906158fa565b90506000612aed826103e8612710614354565b9050612b10612b056001600160801b03831684615a62565b600160801b85614392565b601754612b1d91906158fa565b965050505050505090565b600080601a5460021415612b4f576040516303cb96db60e21b815260040160405180910390fd5b6002601a55601554600160801b900460ff16612b6a8161363b565b6001546040805163779b492960e11b815290516000926001600160a01b03169163ef369252916004808301926020929190829003018186803b158015612baf57600080fd5b505afa158015612bc3573d6000803e3d6000fd5b505050506040513d601f19601f82011682018060405250810190612be79190615b57565b604080516002808252606082018352929350600092909160208301908036833750506040805160028082526060820183529394506000939092509060208301908036833701905050601354909150600160801b90046001600160801b031615612d3b57601380546001600160801b0380821690925560148054600160801b928390048416995089939192601092612c829286929004166159fd565b92506101000a8154816001600160801b0302191690836001600160801b03160217905550612ccf600360009054906101000a90046001600160a01b0316876001600160801b031685613627565b60035482516001600160a01b03909116908390600090612cf157612cf1615b41565b60200260200101906001600160a01b031690816001600160a01b031681525050856001600160801b031681600081518110612d2e57612d2e615b41565b6020026020010181815250505b6014546001600160801b031615612e3b57601480546001600160801b03198116909155601580546001600160801b0392831697508792600091612d80918591166159fd565b92506101000a8154816001600160801b0302191690836001600160801b03160217905550612dcd600460009054906101000a90046001600160a01b0316866001600160801b031685613627565b60045482516001600160a01b039091169083906001908110612df157612df1615b41565b60200260200101906001600160a01b031690816001600160a01b031681525050846001600160801b031681600181518110612e2e57612e2e615b41565b6020026020010181815250505b6001600160a01b0383163b15612eac57604051630f03328360e41b81526001600160a01b0384169063f033283090612e799085908590600401615b9b565b600060405180830381600087803b158015612e9357600080fd5b505af1158015612ea7573d6000803e3d6000fd5b505050505b505050612eb88161389e565b506001601a559091565b600054610100900460ff16612edd5760005460ff1615612ee1565b303b155b612f585760405162461bcd60e51b815260206004820152602e60248201527f496e697469616c697a61626c653a20636f6e747261637420697320616c72656160448201527f647920696e697469616c697a656400000000000000000000000000000000000060648201526084015b60405180910390fd5b600054610100900460ff16158015612f7a576000805461ffff19166101011790555b60008060008060008088806020019051810190612f979190615c05565b95509550955095509550955085600360006101000a8154816001600160a01b0302191690836001600160a01b0316021790555084600460006101000a8154816001600160a01b0302191690836001600160a01b0316021790555083601060006101000a8154816001600160a01b0302191690836001600160a01b0316021790555082600060056101000a81548162ffffff021916908362ffffff16021790555081600060026101000a81548162ffffff021916908362ffffff16021790555033600560006101000a8154816001600160a01b0302191690836001600160a01b0316021790555087600160006101000a8154816001600160a01b0302191690836001600160a01b0316021790555080601560106101000a81548160ff0219169083151502179055506130c782614d4d565b600060086101000a8154816001600160801b0302191690836001600160801b031602179055506040518060c00160405280620d89e71960020b8152602001620d89e71961311390615afe565b60020b815260006020808301829052604080840183905260608085018490526080948501849052620d89e71993849052601c835285517f312e29fa10e2dff7af4afff8ca91ba272d48aceeec966ecfff784af0b0aa924c805488860151898601516001600160801b0316600160301b0275ffffffffffffffffffffffffffffffff0000000000001962ffffff92831663010000000265ffffffffffff19909416929095169190911791909117929092169190911790558501517f312e29fa10e2dff7af4afff8ca91ba272d48aceeec966ecfff784af0b0aa924d55928401517f312e29fa10e2dff7af4afff8ca91ba272d48aceeec966ecfff784af0b0aa924e5560a0909301517f312e29fa10e2dff7af4afff8ca91ba272d48aceeec966ecfff784af0b0aa924f80546001600160a01b03929092166001600160a01b0319909216919091179055815160c08101909252808252909182019061327590615afe565b60020b815260200160006001600160801b03168152602001600081526020016000815260200160006001600160a01b0316815250601c6000620d89e7196132bb90615afe565b600290810b825260208083019390935260409182016000208451815486860151948701516001600160801b0316600160301b0275ffffffffffffffffffffffffffffffff0000000000001962ffffff96871663010000000265ffffffffffff1990931696909316959095171716929092178255606084015160018084019190915560808501518383015560a090940151600390920180546001600160a01b039093166001600160a01b03199093169290921790915560198054621e4ec360a31b62ffffff60a01b19909116179055601a929092556007805463ffffffff42908116600160a01b0263ffffffff60a01b1990921691909117909155601b92909255555050436021555050821591506133da9050576000805461ff00191690555b505050565b6015546000908190600160801b900460ff16613402576133fd612a1f565b613405565b60005b9050612198600954600b54600d5461496f565b6005546001600160a01b031633146134435760405163ea8e4eb560e01b815260040160405180910390fd5b6019546001600160a01b03161561346d57604051630bca0b1b60e21b815260040160405180910390fd5b61347681614d8d565b601980546001600160a01b0319166001600160a01b0392909216919091179055565b60006134aa600060115460125461496f565b905090565b6001600160a01b0383166000908152601f60209081526040808320600286810b85529083528184209085900b84529091528120906134ed8484612914565b82546001600160a01b0387166000908152601e6020908152604080832060028a810b85529083528184209089900b84529091528120549293509161353c918403906001600160801b031661495e565b82845560018401805491925082916000906135619084906001600160801b03166158cf565b92506101000a8154816001600160801b0302191690836001600160801b03160217905550505050505050565b6001600160a01b0384166000908152601f60209081526040808320600287810b85529083528184209086900b8452909152812060018101546135d8906001600160801b03168461468c565b60018201805491935083916000906135fa9084906001600160801b03166159fd565b92506101000a8154816001600160801b0302191690836001600160801b0316021790555050949350505050565b6133da6001600160a01b0384168284614de4565b600061364682614853565b9050600082613660576015546001600160801b0316613674565b601454600160801b90046001600160801b03165b9050806001600160801b0316826001600160801b03161161369457505050565b82156136b957601480546001600160801b03808516600160801b0291161790556136d5565b601580546001600160801b0319166001600160801b0384161790555b60006136e182846159fd565b6006549091506001600160801b0316806137445781601660108282829054906101000a90046001600160801b031661371991906158cf565b92506101000a8154816001600160801b0302191690836001600160801b031602179055505050505050565b601654600160801b90046001600160801b031680156137795761376781846158cf565b601680546001600160801b0316905592505b6000613793846001600160801b03166103e8612710614354565b905086156137e85780601360108282829054906101000a90046001600160801b03166137bf91906158cf565b92506101000a8154816001600160801b0302191690836001600160801b0316021790555061382b565b601480548291906000906138069084906001600160801b03166158cf565b92506101000a8154816001600160801b0302191690836001600160801b031602179055505b61385561383882866159fd565b6001600160801b0316600160801b856001600160801b0316614392565b6017600082825461386691906158fa565b9091555050601880546001600160801b0390951694909401909355505050505050565b610a1b6001600160a01b038316333084614e5f565b6000816138b6576004546001600160a01b03166138c3565b6003546001600160a01b03165b604051633d7ad0b760e21b81523060048201529091506001600160a01b0382169063f5eb42dc9060240160206040518083038186803b15801561390557600080fd5b505afa158015613919573d6000803e3d6000fd5b505050506040513d601f19601f8201168201806040525081019061393d9190615c81565b601680546001600160801b0319166001600160801b03929092169190911790555050565b6000546139799062010000900462ffffff1683615c9a565b60020b1561399a576040516333a3bdff60e21b815260040160405180910390fd5b6000546002906139b59062010000900462ffffff1684615cbc565b6139bf9190615c9a565b60020b156139e057604051637ef8a10160e11b815260040160405180910390fd5b6000546139f89062010000900462ffffff1682615c9a565b60020b15613a19576040516333a3bdff60e21b815260040160405180910390fd5b600054600290613a349062010000900462ffffff1683615cbc565b613a3e9190615c9a565b60020b610a1b5760405163a9778c6360e01b815260040160405180910390fd5b60008060008360020b12613a75578260020b613a82565b8260020b613a8290615cf6565b9050613a91620d89e719615afe565b62ffffff16811115613ab657604051633e1f710360e21b815260040160405180910390fd5b600060018216613aca57600160801b613adc565b6ffffcb933bd6fad37aa2d162d1a5940015b70ffffffffffffffffffffffffffffffffff1690506002821615613b10576ffff97272373d413259a46990580e213a0260801c5b6004821615613b2f576ffff2e50f5f656932ef12357cf3c7fdcc0260801c5b6008821615613b4e576fffe5caca7e10e4e61c3624eaa0941cd00260801c5b6010821615613b6d576fffcb9843d60f6159c9db58835c9266440260801c5b6020821615613b8c576fff973b41fa98c081472e6896dfb254c00260801c5b6040821615613bab576fff2ea16466c96a3843ec78b326b528610260801c5b6080821615613bca576ffe5dee046a99a2a811c461f1969c30530260801c5b610100821615613bea576ffcbe86c7900a88aedcffc83b479aa3a40260801c5b610200821615613c0a576ff987a7253ac413176f2b074cf7815e540260801c5b610400821615613c2a576ff3392b0822b70005940c7a398e4b70f30260801c5b610800821615613c4a576fe7159475a2c29b7443b29c7fa6e889d90260801c5b611000821615613c6a576fd097f3bdfd2022b8845ad8f792aa58250260801c5b612000821615613c8a576fa9f746462d870fdf8a65dc1f90e061e50260801c5b614000821615613caa576f70d869a156d2a1b890bb3df62baf32f70260801c5b618000821615613cca576f31be135f97d08fd981231505542fcfa60260801c5b62010000821615613ceb576f09aa508b5b7a84e1c677de54f3e99bc90260801c5b62020000821615613d0b576e5d6af8dedb81196699c329225ee6040260801c5b62040000821615613d2a576d2216e584f5fa1ea926041bedfe980260801c5b62080000821615613d47576b048a170391f7dc42444e8fa20260801c5b60008460020b1315613d68578060001981613d6457613d64615ad4565b0490505b640100000000810615613d7c576001613d7f565b60005b60ff16602082901c0192505050919050565b6000838511613db257613dab83600160601b888803614392565b9050613e1c565b858411613dd457613dab82613dcc8888600160601b614392565b888803614392565b6000613df183613de98888600160601b614392565b878903614392565b90506000613e0685600160601b8a8903614392565b9050808210613e155780613e17565b815b925050505b95945050505050565b6006546001600160801b031680613e395750565b600754600160a01b900463ffffffff16428110613e54575050565b6000613e5e614900565b90508015613ed257613e73600c548285614392565b600a6000828254613e8491906158fa565b9091555050600d54613e97908285614392565b600b6000828254613ea891906158fa565b9091555050601254613ebb908285614392565b60116000828254613ecc91906158fa565b90915550505b6007805463ffffffff42908116600160a01b0263ffffffff60a01b1990921691909117909155839083900360801b81613f0d57613f0d615ad4565b600780546001600160a01b03198116939092046001600160a01b0392831601909116919091179055505050565b613f4584848461409c565b613f508484846134af565b613f5c84848484614e97565b50505050565b600080848611613f8257613f7b6120a2858989876144fb565b9050613fc2565b868511613f9f57613f986120a2858989876144a3565b9150613fc2565b613fae6120a2858789876144a3565b9150613fbf6120a2858988876144fb565b90505b9550959350505050565b604080513060248083019190915282518083039091018152604490910182526020810180516001600160e01b03166370a0823160e01b1790529051600091829182916001600160a01b038616916140239190615d3f565b600060405180830381855afa9150503d806000811461405e576040519150601f19603f3d011682016040523d82523d6000602084013e614063565b606091505b509150915081801561407757506020815110155b61408057600080fd5b808060200190518101906140949190615c81565b949350505050565b6001600160a01b0383166000908152601e60209081526040808320600286810b85529083528184209085900b8452909152812090806140db8585612562565b60018501548554929450909250600091829161410391908603906001600160801b031661495e565b6002860154865491935061412391908503906001600160801b031661495e565b600186018590556002860184905560038601805491925083916000906141539084906001600160801b03166158cf565b92506101000a8154816001600160801b0302191690836001600160801b03160217905550808560030160108282829054906101000a90046001600160801b031661419d91906158cf565b92506101000a8154816001600160801b0302191690836001600160801b031602179055505050505050505050565b6001600160a01b0385166000908152601e60209081526040808320600288810b85529083528184209087900b845290915281206003810154829190614219906001600160801b03168661468c565b600382015490935061423b90600160801b90046001600160801b03168561468c565b600382018054919350849160009061425d9084906001600160801b03166159fd565b92506101000a8154816001600160801b0302191690836001600160801b03160217905550818160030160108282829054906101000a90046001600160801b03166142a791906159fd565b92506101000a8154816001600160801b0302191690836001600160801b03160217905550509550959350505050565b6003546142ed906001600160a01b03168385613627565b6004546133da906001600160a01b03168285613627565b60008061431a858462ffffff16620f4240614354565b915061432f848462ffffff16620f4240614354565b9050935093915050565b806001600160801b038116811461434f57600080fd5b919050565b6000614361848484614392565b9050818061437157614371615ad4565b8385091561438b57600019811061438757600080fd5b6001015b9392505050565b6000808060001985870985870292508281108382030391505080600014156143cc57600084116143c157600080fd5b50829004905061438b565b8084116143d857600080fd5b6000848688096000868103871696879004966002600389028118808a02820302808a02820302808a02820302808a02820302808a02820302808a02909103029181900381900460010186841190950394909402919094039290920491909117919091029150509392505050565b60c0810151156144525750565b61010081015160020b620d89e71914806144825750614474620d89e719615afe565b60020b81610100015160020b145b156144a05760405163035d2ccd60e51b815260040160405180910390fd5b50565b600081156144d2576144cb6144bf606087901b86860386614354565b85808204910615150190565b9050614094565b836144e4606087901b82860386614392565b816144f1576144f1615ad4565b0495945050505050565b60008115614514576144cb85858503600160601b614354565b613e1c85858503600160601b614392565b60008060008060006145408d8d62ffffff16620f4240614354565b905061454c818a6158fa565b9850614558818e615a62565b61456290896158fa565b97506000614573828d612710614354565b905061457f81896158fa565b975061458b8183615a62565b915061459c82600160801b8d614392565b6145a690886158fa565b999e989d50969b5097995095975050505050505050565b61465f601d846101000151600760009054906101000a90046001600160a01b03168660c00151856145ff57600a5488606001516145fa91906158fa565b614611565b600b54886060015161461191906158fa565b8661462d57600b54896080015161462891906158fa565b61463f565b600a54896080015161463f91906158fa565b600054601c969594939291908a908a9062010000900462ffffff16614f8b565b60020b61010085015260c0909301929092525050565b600081831015614685578161438b565b5090919050565b6000818310614685578161438b565b821561473a576003546000906146b9906001600160a01b0316613fcc565b6014549091506000906146dd908590600160801b90046001600160801b03166158cf565b905081816001600160801b031611156147095760405163420231d560e11b815260040160405180910390fd5b601480546001600160801b03908116600160801b8483160217909155601580548592600091613719918591166159fd565b600454600090614752906001600160a01b0316613fcc565b60155490915060009061476f9085906001600160801b03166158cf565b905081816001600160801b0316111561479b57604051637218102160e11b815260040160405180910390fd5b601580546001600160801b0319166001600160801b0383811691909117909155601480548592601091613719918591600160801b9004166159fd565b8215614829576009829055601480548291906000906148009084906001600160801b03166158cf565b92506101000a8154816001600160801b0302191690836001600160801b03160217905550505050565b600882905560138054829190601090614800908490600160801b90046001600160801b03166158cf565b6000808261486c576004546001600160a01b0316614879565b6003546001600160a01b03165b601654604051632cc7243560e21b81526001600160801b0390911660048201529091506001600160a01b0382169063b31c90d49060240160206040518083038186803b1580156148c857600080fd5b505afa1580156148dc573d6000803e3d6000fd5b505050506040513d601f19601f8201168201806040525081019061438b9190615c81565b600e5460009042811061491557600091505090565b600754600f54600160a01b90910463ffffffff169060009061493790846158fa565b905081811161494a576000935050505090565b6149548284614675565b611d90428361468c565b600061438b8383600160801b614392565b60008061497a614900565b6006549091506001600160801b031681158015906149985750600081115b156149c5576149a8848383614392565b6149b286886158fa565b6149bc91906158fa565b9250505061438b565b6149bc85876158fa565b60006401000276a36001600160a01b0383161080614a0a575073fffd8963efd1fc6a506488495d951d5263988d266001600160a01b03831610155b15614a2857604051636e4ba61d60e01b815260040160405180910390fd5b77ffffffffffffffffffffffffffffffffffffffff00000000602083901b166001600160801b03811160071b81811c67ffffffffffffffff811160061b90811c63ffffffff811160051b90811c61ffff811160041b90811c60ff8111600390811b91821c600f811160021b90811c918211600190811b92831c97908811961790941790921717909117171760808110614ac957607f810383901c9150614ad3565b80607f0383901b91505b908002607f81811c60ff83811c9190911c800280831c81831c1c800280841c81841c1c800280851c81851c1c800280861c81861c1c800280871c81871c1c800280881c81881c1c800280891c81891c1c8002808a1c818a1c1c8002808b1c818b1c1c8002808c1c818c1c1c8002808d1c818d1c1c8002808e1c9c81901c9c909c1c80029c8d901c9e9d607f198f0160401b60c09190911c678000000000000000161760c19b909b1c674000000000000000169a909a1760c29990991c672000000000000000169890981760c39790971c671000000000000000169690961760c49590951c670800000000000000169490941760c59390931c670400000000000000169290921760c69190911c670200000000000000161760c79190911c670100000000000000161760c89190911c6680000000000000161760c99190911c6640000000000000161760ca9190911c6620000000000000161760cb9190911c6610000000000000161760cc9190911c6608000000000000161760cd9190911c66040000000000001617693627a301d71055774c8581026f028f6481ab7f045a5af012a19d003aa9198101608090811d906fdb2df09e81959a81455e260799a0632f8301901d600281810b9083900b14614cd357886001600160a01b0316614cb882613a5e565b6001600160a01b03161115614ccd5781614cd5565b80614cd5565b815b9998505050505050505050565b60008082614cf557506000928392509050565b6000614cff614900565b9050614d0e600c548286614392565b9250614d1d600d548286614392565b915050915091565b600081614d3457506000919050565b6000614d3e614900565b905061438b6012548285614392565b6000614d5a826002615d5b565b614d67620d89e719615afe565b614d719190615d86565b614d879062ffffff166001600160801b03615da8565b92915050565b6401000276a36001600160a01b0382161080614dc6575073fffd8963efd1fc6a506488495d951d5263988d266001600160a01b03821610155b156144a057604051636e4ba61d60e01b815260040160405180910390fd5b6040516001600160a01b0383166024820152604481018290526133da90849063a9059cbb60e01b906064015b60408051601f198184030181529190526020810180516001600160e01b03167fffffffff0000000000000000000000000000000000000000000000000000000090931692909217909152615211565b6040516001600160a01b0380851660248301528316604482015260648101829052613f5c9085906323b872dd60e01b90608401614e10565b80600f0b60001415614ea857613f5c565b6001600160a01b0384166000908152601e60209081526040808320600287810b85529083528184209086900b8452909152812090600f83900b1315614f6057805482908290600090614f049084906001600160801b03166158cf565b82546101009290920a6001600160801b038181021990931691831602179091556000548354680100000000000000009091048216911611159050614f5b5760405163581a12d760e11b815260040160405180910390fd5b614f84565b614f6982615b74565b815482906000906137199084906001600160801b03166159fd565b5050505050565b600288900b600090815260208b905260408120600301548190614fb7906001600160a01b03168a615b21565b60028b900b600090815260208e8152604080832060030180546001600160a01b0319166001600160a01b0395909516949094179093558d90522054614ffc9086615a62565b60028b900b600090815260208d9052604090205583156151095760028360020b8b60020b8161502d5761502d615ad4565b0560020b8161503e5761503e615ad4565b0760020b6150735760028a900b600090815260208d90526040902054600160301b90046001600160801b03169097039661509d565b60028a900b600090815260208d90526040902054600160301b90046001600160801b031697909701965b60028a900b600090815260208d905260409020600101546150be9087615a62565b60028b810b600090815260208f905260409020600181019290925501546150e59088615a62565b60029a8b0b600090815260208e905260409020808c01919091555490990b986151ff565b60028360020b8b60020b8161512057615120615ad4565b0560020b8161513157615131615ad4565b0760020b6151675760028a900b600090815260208d90526040902054600160301b90046001600160801b03169790970196615190565b60028a900b600090815260208d90526040902054600160301b90046001600160801b0316909703965b60028a810b600090815260208e90526040902001546151af9087615a62565b60028b810b600090815260208f90526040902090810191909155600101546151d79088615a62565b60029a8b0b600090815260208e9052604090206001810191909155546301000000900490990b985b50959a97995096975050505050505050565b6000615266826040518060400160405280602081526020017f5361666545524332303a206c6f772d6c6576656c2063616c6c206661696c6564815250856001600160a01b03166152e39092919063ffffffff16565b8051909150156133da57808060200190518101906152849190615dc2565b6133da5760405162461bcd60e51b815260206004820152602a60248201527f5361666545524332303a204552433230206f7065726174696f6e20646964206e6044820152691bdd081cdd58d8d9595960b21b6064820152608401612f4f565b60606140948484600085856001600160a01b0385163b6153455760405162461bcd60e51b815260206004820152601d60248201527f416464726573733a2063616c6c20746f206e6f6e2d636f6e74726163740000006044820152606401612f4f565b600080866001600160a01b031685876040516153619190615d3f565b60006040518083038185875af1925050503d806000811461539e576040519150601f19603f3d011682016040523d82523d6000602084013e6153a3565b606091505b50915091506153b38282866153be565b979650505050505050565b606083156153cd57508161438b565b8251156153dd5782518084602001fd5b8160405162461bcd60e51b8152600401612f4f9190615ddd565b8060020b81146144a057600080fd5b60008060006060848603121561541b57600080fd5b8335615426816153f7565b92506020840135615436816153f7565b929592945050506040919091013590565b80356001600160801b038116811461434f57600080fd5b60006020828403121561547057600080fd5b61438b82615447565b634e487b7160e01b600052604160045260246000fd5b600060c082840312156154a157600080fd5b60405160c0810181811067ffffffffffffffff821117156154c4576154c4615479565b60405282356154d2816153f7565b815260208301356154e2816153f7565b602082015260408301356154f5816153f7565b60408201526060830135615508816153f7565b606082015261551960808401615447565b608082015261552a60a08401615447565b60a08201529392505050565b6000806000806080858703121561554c57600080fd5b8435615557816153f7565b93506020850135615567816153f7565b93969395505050506040820135916060013590565b6001600160a01b03811681146144a057600080fd5b6000806000806000608086880312156155a957600080fd5b85356155b48161557c565b94506020860135935060408601359250606086013567ffffffffffffffff808211156155df57600080fd5b818801915088601f8301126155f357600080fd5b81358181111561560257600080fd5b89602082850101111561561457600080fd5b9699959850939650602001949392505050565b600082601f83011261563857600080fd5b813567ffffffffffffffff8082111561565357615653615479565b604051601f8301601f19908116603f0116810190828211818310171561567b5761567b615479565b8160405283815286602085880101111561569457600080fd5b836020870160208301376000602085830101528094505050505092915050565b6000602082840312156156c657600080fd5b813567ffffffffffffffff8111156156dd57600080fd5b61409484828501615627565b600081518084526020808501945080840160005b838110156157225781516001600160a01b0316875295820195908201906001016156fd565b509495945050505050565b60208152600061438b60208301846156e9565b6000806000806080858703121561575657600080fd5b61575f85615447565b935061556760208601615447565b60008060006060848603121561578257600080fd5b833561578d816153f7565b9250602084013561579d816153f7565b91506157ab60408501615447565b90509250925092565b6000806000606084860312156157c957600080fd5b83356157d48161557c565b925060208401356157e4816153f7565b915060408401356157f4816153f7565b809150509250925092565b6000806040838503121561581257600080fd5b823561581d816153f7565b9150602083013561582d816153f7565b809150509250929050565b60006020828403121561584a57600080fd5b813561438b8161557c565b6000806040838503121561586857600080fd5b823567ffffffffffffffff81111561587f57600080fd5b61588b85828601615627565b925050602083013561582d8161557c565b6000602082840312156158ae57600080fd5b813561438b816153f7565b634e487b7160e01b600052601160045260246000fd5b60006001600160801b038083168185168083038211156158f1576158f16158b9565b01949350505050565b6000821982111561590d5761590d6158b9565b500190565b60006101a0820190508b82528a60208301528951604083015260208a0151606083015260408a015160808301526001600160a01b0360608b01511660a083015261596160c083018a60020b9052565b61597060e083018960020b9052565b61598061010083018860020b9052565b61599061012083018760020b9052565b6001600160801b0385166101408301526159b061016083018560020b9052565b6001600160a01b0383166101808301529b9a5050505050505050505050565b600080604083850312156159e257600080fd5b82516159ed816153f7565b6020939093015192949293505050565b60006001600160801b0383811690831681811015615a1d57615a1d6158b9565b039392505050565b84815283602082015260606040820152816060820152818360808301376000818301608090810191909152601f909201601f191601019392505050565b600082821015615a7457615a746158b9565b500390565b8051801515811461434f57600080fd5b60008060408385031215615a9c57600080fd5b615aa583615a79565b9150602083015161582d8161557c565b6000816000190483118215151615615acf57615acf6158b9565b500290565b634e487b7160e01b600052601260045260246000fd5b600082615af957615af9615ad4565b500490565b60008160020b627fffff19811415615b1857615b186158b9565b60000392915050565b60006001600160a01b0383811690831681811015615a1d57615a1d6158b9565b634e487b7160e01b600052603260045260246000fd5b600060208284031215615b6957600080fd5b815161438b8161557c565b600081600f0b6f7fffffffffffffffffffffffffffffff19811415615b1857615b186158b9565b604081526000615bae60408301856156e9565b82810360208481019190915284518083528582019282019060005b81811015615be557845183529383019391830191600101615bc9565b5090979650505050505050565b805162ffffff8116811461434f57600080fd5b60008060008060008060c08789031215615c1e57600080fd5b8651615c298161557c565b6020880151909650615c3a8161557c565b6040880151909550615c4b8161557c565b9350615c5960608801615bf2565b9250615c6760808801615bf2565b9150615c7560a08801615a79565b90509295509295509295565b600060208284031215615c9357600080fd5b5051919050565b60008260020b80615cad57615cad615ad4565b808360020b0791505092915050565b60008160020b8360020b80615cd357615cd3615ad4565b627fffff19821460001982141615615ced57615ced6158b9565b90059392505050565b6000600160ff1b821415615d0c57615d0c6158b9565b5060000390565b60005b83811015615d2e578181015183820152602001615d16565b83811115613f5c5750506000910152565b60008251615d51818460208701615d13565b9190910192915050565b600062ffffff80831681851681830481118215151615615d7d57615d7d6158b9565b02949350505050565b600062ffffff80841680615d9c57615d9c615ad4565b92169190910492915050565b60006001600160801b0380841680615d9c57615d9c615ad4565b600060208284031215615dd457600080fd5b61438b82615a79565b6020815260008251806020840152615dfc816040850160208701615d13565b601f01601f1916919091016040019291505056fea2646970667358221220e4f1b44fbefee4f7154912256e1ee12d6633613e5df655e10c4b8b61c406949164736f6c63430008090033",
  "libraries": {
    "RewardTicks": "0xfF8E5bDf54D5ab74D2E56CA0E575348A52B95B3d"
  }
}