{
  "address": "0xa93D3E591ae58701E7e619C6f92a5D88C7EF7EC9",
  "abi": [
    {
      "inputs": [],
      "name": "AlreadyPriceInitialized",
      "type": "error"
    },
    {
      "inputs": [],
      "name": "InvalidParam",
      "type": "error"
    },
    {
      "inputs": [],
      "name": "InvalidSwapFee",
      "type": "error"
    },
    {
      "inputs": [],
      "name": "InvalidTick",
      "type": "error"
    },
    {
      "inputs": [],
      "name": "LiquidityInsufficient",
      "type": "error"
    },
    {
      "inputs": [],
      "name": "LiquidityOverflow",
      "type": "error"
    },
    {
      "inputs": [],
      "name": "LiquidityZero",
      "type": "error"
    },
    {
      "inputs": [],
      "name": "Locked",
      "type": "error"
    },
    {
      "inputs": [],
      "name": "LowerEven",
      "type": "error"
    },
    {
      "inputs": [],
      "name": "NotAuthorized",
      "type": "error"
    },
    {
      "inputs": [],
      "name": "Overflow",
      "type": "error"
    },
    {
      "inputs": [],
      "name": "PriceOutOfBounds",
      "type": "error"
    },
    {
      "inputs": [],
      "name": "TickOutOfBounds",
      "type": "error"
    },
    {
      "inputs": [],
      "name": "Token0Missing",
      "type": "error"
    },
    {
      "inputs": [],
      "name": "Token1Missing",
      "type": "error"
    },
    {
      "inputs": [],
      "name": "UpperOdd",
      "type": "error"
    },
    {
      "inputs": [],
      "name": "ZeroAddress",
      "type": "error"
    },
    {
      "anonymous": false,
      "inputs": [
        {
          "indexed": false,
          "internalType": "address",
          "name": "token",
          "type": "address"
        },
        {
          "indexed": false,
          "internalType": "uint256",
          "name": "amount",
          "type": "uint256"
        },
        {
          "indexed": false,
          "internalType": "uint256",
          "name": "startTime",
          "type": "uint256"
        },
        {
          "indexed": false,
          "internalType": "uint256",
          "name": "period",
          "type": "uint256"
        }
      ],
      "name": "DistributeReward",
      "type": "event"
    },
    {
      "inputs": [],
      "name": "accumulativeYield",
      "outputs": [
        {
          "internalType": "uint256",
          "name": "",
          "type": "uint256"
        }
      ],
      "stateMutability": "view",
      "type": "function"
    },
    {
      "inputs": [],
      "name": "airdrop0PerSecond",
      "outputs": [
        {
          "internalType": "uint256",
          "name": "",
          "type": "uint256"
        }
      ],
      "stateMutability": "view",
      "type": "function"
    },
    {
      "inputs": [],
      "name": "airdrop1PerSecond",
      "outputs": [
        {
          "internalType": "uint256",
          "name": "",
          "type": "uint256"
        }
      ],
      "stateMutability": "view",
      "type": "function"
    },
    {
      "inputs": [],
      "name": "airdropPeriod",
      "outputs": [
        {
          "internalType": "uint256",
          "name": "",
          "type": "uint256"
        }
      ],
      "stateMutability": "view",
      "type": "function"
    },
    {
      "inputs": [],
      "name": "airdropStartTime",
      "outputs": [
        {
          "internalType": "uint256",
          "name": "",
          "type": "uint256"
        }
      ],
      "stateMutability": "view",
      "type": "function"
    },
    {
      "inputs": [
        {
          "internalType": "int24",
          "name": "lower",
          "type": "int24"
        },
        {
          "internalType": "int24",
          "name": "upper",
          "type": "int24"
        },
        {
          "internalType": "uint128",
          "name": "amount",
          "type": "uint128"
        }
      ],
      "name": "burn",
      "outputs": [
        {
          "internalType": "uint256",
          "name": "token0Amount",
          "type": "uint256"
        },
        {
          "internalType": "uint256",
          "name": "token1Amount",
          "type": "uint256"
        }
      ],
      "stateMutability": "nonpayable",
      "type": "function"
    },
    {
      "inputs": [
        {
          "internalType": "int24",
          "name": "lower",
          "type": "int24"
        },
        {
          "internalType": "int24",
          "name": "upper",
          "type": "int24"
        },
        {
          "internalType": "uint256",
          "name": "desiredToken0Fees",
          "type": "uint256"
        },
        {
          "internalType": "uint256",
          "name": "desiredToken1Fees",
          "type": "uint256"
        }
      ],
      "name": "collect",
      "outputs": [
        {
          "internalType": "uint256",
          "name": "token0Fees",
          "type": "uint256"
        },
        {
          "internalType": "uint256",
          "name": "token1Fees",
          "type": "uint256"
        }
      ],
      "stateMutability": "nonpayable",
      "type": "function"
    },
    {
      "inputs": [],
      "name": "collectProtocolFee",
      "outputs": [
        {
          "internalType": "uint128",
          "name": "amount0",
          "type": "uint128"
        },
        {
          "internalType": "uint128",
          "name": "amount1",
          "type": "uint128"
        }
      ],
      "stateMutability": "nonpayable",
      "type": "function"
    },
    {
      "inputs": [
        {
          "internalType": "int24",
          "name": "lower",
          "type": "int24"
        },
        {
          "internalType": "int24",
          "name": "upper",
          "type": "int24"
        },
        {
          "internalType": "uint256",
          "name": "desiredReward",
          "type": "uint256"
        }
      ],
      "name": "collectReward",
      "outputs": [
        {
          "internalType": "uint256",
          "name": "rewardAmount",
          "type": "uint256"
        }
      ],
      "stateMutability": "nonpayable",
      "type": "function"
    },
    {
      "inputs": [],
      "name": "createdBlockNumber",
      "outputs": [
        {
          "internalType": "uint256",
          "name": "",
          "type": "uint256"
        }
      ],
      "stateMutability": "view",
      "type": "function"
    },
    {
      "inputs": [],
      "name": "createdTime",
      "outputs": [
        {
          "internalType": "uint256",
          "name": "",
          "type": "uint256"
        }
      ],
      "stateMutability": "view",
      "type": "function"
    },
    {
      "inputs": [
        {
          "internalType": "uint128",
          "name": "airdrop0",
          "type": "uint128"
        },
        {
          "internalType": "uint128",
          "name": "airdrop1",
          "type": "uint128"
        },
        {
          "internalType": "uint128",
          "name": "reward",
          "type": "uint128"
        },
        {
          "internalType": "uint256",
          "name": "startTime",
          "type": "uint256"
        },
        {
          "internalType": "uint256",
          "name": "period",
          "type": "uint256"
        }
      ],
      "name": "depositAirdropAndReward",
      "outputs": [],
      "stateMutability": "nonpayable",
      "type": "function"
    },
    {
      "inputs": [],
      "name": "depositedReward",
      "outputs": [
        {
          "internalType": "uint128",
          "name": "",
          "type": "uint128"
        }
      ],
      "stateMutability": "view",
      "type": "function"
    },
    {
      "inputs": [],
      "name": "factory",
      "outputs": [
        {
          "internalType": "address",
          "name": "",
          "type": "address"
        }
      ],
      "stateMutability": "view",
      "type": "function"
    },
    {
      "inputs": [],
      "name": "feeGrowthGlobal0",
      "outputs": [
        {
          "internalType": "uint256",
          "name": "",
          "type": "uint256"
        }
      ],
      "stateMutability": "view",
      "type": "function"
    },
    {
      "inputs": [],
      "name": "feeGrowthGlobal1",
      "outputs": [
        {
          "internalType": "uint256",
          "name": "",
          "type": "uint256"
        }
      ],
      "stateMutability": "view",
      "type": "function"
    },
    {
      "inputs": [
        {
          "internalType": "address",
          "name": "recipient",
          "type": "address"
        },
        {
          "internalType": "uint256",
          "name": "amount0",
          "type": "uint256"
        },
        {
          "internalType": "uint256",
          "name": "amount1",
          "type": "uint256"
        },
        {
          "internalType": "bytes",
          "name": "data",
          "type": "bytes"
        }
      ],
      "name": "flash",
      "outputs": [],
      "stateMutability": "nonpayable",
      "type": "function"
    },
    {
      "inputs": [],
      "name": "getAssets",
      "outputs": [
        {
          "internalType": "address[]",
          "name": "assets",
          "type": "address[]"
        }
      ],
      "stateMutability": "view",
      "type": "function"
    },
    {
      "inputs": [],
      "name": "getImmutables",
      "outputs": [
        {
          "internalType": "uint128",
          "name": "_MAX_TICK_LIQUIDITY",
          "type": "uint128"
        },
        {
          "internalType": "uint24",
          "name": "_tickSpacing",
          "type": "uint24"
        },
        {
          "internalType": "uint24",
          "name": "_swapFee",
          "type": "uint24"
        },
        {
          "internalType": "address",
          "name": "_factory",
          "type": "address"
        },
        {
          "internalType": "address",
          "name": "_masterDeployer",
          "type": "address"
        },
        {
          "internalType": "address",
          "name": "_token0",
          "type": "address"
        },
        {
          "internalType": "address",
          "name": "_token1",
          "type": "address"
        }
      ],
      "stateMutability": "view",
      "type": "function"
    },
    {
      "inputs": [],
      "name": "getPriceAndNearestTicks",
      "outputs": [
        {
          "internalType": "uint160",
          "name": "_price",
          "type": "uint160"
        },
        {
          "internalType": "int24",
          "name": "_nearestTick",
          "type": "int24"
        }
      ],
      "stateMutability": "view",
      "type": "function"
    },
    {
      "inputs": [],
      "name": "getReserves",
      "outputs": [
        {
          "internalType": "uint128",
          "name": "_reserve0",
          "type": "uint128"
        },
        {
          "internalType": "uint128",
          "name": "_reserve1",
          "type": "uint128"
        }
      ],
      "stateMutability": "view",
      "type": "function"
    },
    {
      "inputs": [],
      "name": "getSecondsGrowthAndLastObservation",
      "outputs": [
        {
          "internalType": "uint160",
          "name": "_secondsGrowthGlobal",
          "type": "uint160"
        },
        {
          "internalType": "uint32",
          "name": "_lastObservation",
          "type": "uint32"
        }
      ],
      "stateMutability": "view",
      "type": "function"
    },
    {
      "inputs": [],
      "name": "getTokenProtocolFees",
      "outputs": [
        {
          "internalType": "uint128",
          "name": "_token0ProtocolFee",
          "type": "uint128"
        },
        {
          "internalType": "uint128",
          "name": "_token1ProtocolFee",
          "type": "uint128"
        }
      ],
      "stateMutability": "view",
      "type": "function"
    },
    {
      "inputs": [
        {
          "internalType": "bytes",
          "name": "_deployData",
          "type": "bytes"
        },
        {
          "internalType": "address",
          "name": "_masterDeployer",
          "type": "address"
        }
      ],
      "name": "initialize",
      "outputs": [],
      "stateMutability": "nonpayable",
      "type": "function"
    },
    {
      "inputs": [],
      "name": "liquidity",
      "outputs": [
        {
          "internalType": "uint128",
          "name": "",
          "type": "uint128"
        }
      ],
      "stateMutability": "view",
      "type": "function"
    },
    {
      "inputs": [
        {
          "components": [
            {
              "internalType": "int24",
              "name": "lowerOld",
              "type": "int24"
            },
            {
              "internalType": "int24",
              "name": "lower",
              "type": "int24"
            },
            {
              "internalType": "int24",
              "name": "upperOld",
              "type": "int24"
            },
            {
              "internalType": "int24",
              "name": "upper",
              "type": "int24"
            },
            {
              "internalType": "uint128",
              "name": "amount0Desired",
              "type": "uint128"
            },
            {
              "internalType": "uint128",
              "name": "amount1Desired",
              "type": "uint128"
            }
          ],
          "internalType": "struct IConcentratedLiquidityPoolStruct.MintParams",
          "name": "mintParams",
          "type": "tuple"
        }
      ],
      "name": "mint",
      "outputs": [
        {
          "internalType": "uint256",
          "name": "liquidityMinted",
          "type": "uint256"
        }
      ],
      "stateMutability": "nonpayable",
      "type": "function"
    },
    {
      "inputs": [],
      "name": "nearestTick",
      "outputs": [
        {
          "internalType": "int24",
          "name": "",
          "type": "int24"
        }
      ],
      "stateMutability": "view",
      "type": "function"
    },
    {
      "inputs": [
        {
          "internalType": "address",
          "name": "",
          "type": "address"
        },
        {
          "internalType": "int24",
          "name": "",
          "type": "int24"
        },
        {
          "internalType": "int24",
          "name": "",
          "type": "int24"
        }
      ],
      "name": "positionRewards",
      "outputs": [
        {
          "internalType": "uint256",
          "name": "rewardGrowthInsideLast",
          "type": "uint256"
        },
        {
          "internalType": "uint128",
          "name": "rewardOwed",
          "type": "uint128"
        }
      ],
      "stateMutability": "view",
      "type": "function"
    },
    {
      "inputs": [
        {
          "internalType": "address",
          "name": "",
          "type": "address"
        },
        {
          "internalType": "int24",
          "name": "",
          "type": "int24"
        },
        {
          "internalType": "int24",
          "name": "",
          "type": "int24"
        }
      ],
      "name": "positions",
      "outputs": [
        {
          "internalType": "uint128",
          "name": "liquidity",
          "type": "uint128"
        },
        {
          "internalType": "uint256",
          "name": "feeGrowthInside0Last",
          "type": "uint256"
        },
        {
          "internalType": "uint256",
          "name": "feeGrowthInside1Last",
          "type": "uint256"
        },
        {
          "internalType": "uint128",
          "name": "feeOwed0",
          "type": "uint128"
        },
        {
          "internalType": "uint128",
          "name": "feeOwed1",
          "type": "uint128"
        }
      ],
      "stateMutability": "view",
      "type": "function"
    },
    {
      "inputs": [],
      "name": "price",
      "outputs": [
        {
          "internalType": "uint160",
          "name": "",
          "type": "uint160"
        }
      ],
      "stateMutability": "view",
      "type": "function"
    },
    {
      "inputs": [],
      "name": "protocolFee",
      "outputs": [
        {
          "internalType": "uint256",
          "name": "",
          "type": "uint256"
        }
      ],
      "stateMutability": "view",
      "type": "function"
    },
    {
      "inputs": [
        {
          "internalType": "int24",
          "name": "lowerTick",
          "type": "int24"
        },
        {
          "internalType": "int24",
          "name": "upperTick",
          "type": "int24"
        }
      ],
      "name": "rangeFeeGrowth",
      "outputs": [
        {
          "internalType": "uint256",
          "name": "feeGrowthInside0",
          "type": "uint256"
        },
        {
          "internalType": "uint256",
          "name": "feeGrowthInside1",
          "type": "uint256"
        }
      ],
      "stateMutability": "view",
      "type": "function"
    },
    {
      "inputs": [
        {
          "internalType": "int24",
          "name": "lowerTick",
          "type": "int24"
        },
        {
          "internalType": "int24",
          "name": "upperTick",
          "type": "int24"
        }
      ],
      "name": "rangeRewardGrowth",
      "outputs": [
        {
          "internalType": "uint256",
          "name": "rewardGrowthInside",
          "type": "uint256"
        }
      ],
      "stateMutability": "view",
      "type": "function"
    },
    {
      "inputs": [
        {
          "internalType": "address",
          "name": "_logger",
          "type": "address"
        }
      ],
      "name": "registerLogger",
      "outputs": [],
      "stateMutability": "nonpayable",
      "type": "function"
    },
    {
      "inputs": [],
      "name": "rewardGrowthGlobal",
      "outputs": [
        {
          "internalType": "uint256",
          "name": "",
          "type": "uint256"
        }
      ],
      "stateMutability": "view",
      "type": "function"
    },
    {
      "inputs": [
        {
          "internalType": "int24",
          "name": "",
          "type": "int24"
        }
      ],
      "name": "rewardGrowthOutsidePerTicks",
      "outputs": [
        {
          "internalType": "uint256",
          "name": "",
          "type": "uint256"
        }
      ],
      "stateMutability": "view",
      "type": "function"
    },
    {
      "inputs": [],
      "name": "rewardPerSecond",
      "outputs": [
        {
          "internalType": "uint256",
          "name": "",
          "type": "uint256"
        }
      ],
      "stateMutability": "view",
      "type": "function"
    },
    {
      "inputs": [],
      "name": "rewardToken",
      "outputs": [
        {
          "internalType": "address",
          "name": "",
          "type": "address"
        }
      ],
      "stateMutability": "view",
      "type": "function"
    },
    {
      "inputs": [
        {
          "internalType": "uint160",
          "name": "_price",
          "type": "uint160"
        }
      ],
      "name": "setPrice",
      "outputs": [],
      "stateMutability": "nonpayable",
      "type": "function"
    },
    {
      "inputs": [
        {
          "internalType": "uint256",
          "name": "_protocolFee",
          "type": "uint256"
        }
      ],
      "name": "setProtocolFee",
      "outputs": [],
      "stateMutability": "nonpayable",
      "type": "function"
    },
    {
      "inputs": [
        {
          "internalType": "bytes",
          "name": "data",
          "type": "bytes"
        }
      ],
      "name": "swap",
      "outputs": [
        {
          "internalType": "uint256",
          "name": "amountOut",
          "type": "uint256"
        }
      ],
      "stateMutability": "nonpayable",
      "type": "function"
    },
    {
      "inputs": [],
      "name": "swapFee",
      "outputs": [
        {
          "internalType": "uint24",
          "name": "",
          "type": "uint24"
        }
      ],
      "stateMutability": "view",
      "type": "function"
    },
    {
      "inputs": [],
      "name": "swapFeeGrowthGlobal0",
      "outputs": [
        {
          "internalType": "uint256",
          "name": "",
          "type": "uint256"
        }
      ],
      "stateMutability": "view",
      "type": "function"
    },
    {
      "inputs": [],
      "name": "swapFeeGrowthGlobal1",
      "outputs": [
        {
          "internalType": "uint256",
          "name": "",
          "type": "uint256"
        }
      ],
      "stateMutability": "view",
      "type": "function"
    },
    {
      "inputs": [],
      "name": "tickSpacing",
      "outputs": [
        {
          "internalType": "uint24",
          "name": "",
          "type": "uint24"
        }
      ],
      "stateMutability": "view",
      "type": "function"
    },
    {
      "inputs": [
        {
          "internalType": "int24",
          "name": "",
          "type": "int24"
        }
      ],
      "name": "ticks",
      "outputs": [
        {
          "internalType": "int24",
          "name": "previousTick",
          "type": "int24"
        },
        {
          "internalType": "int24",
          "name": "nextTick",
          "type": "int24"
        },
        {
          "internalType": "uint128",
          "name": "liquidity",
          "type": "uint128"
        },
        {
          "internalType": "uint256",
          "name": "feeGrowthOutside0",
          "type": "uint256"
        },
        {
          "internalType": "uint256",
          "name": "feeGrowthOutside1",
          "type": "uint256"
        },
        {
          "internalType": "uint160",
          "name": "secondsGrowthOutside",
          "type": "uint160"
        }
      ],
      "stateMutability": "view",
      "type": "function"
    },
    {
      "inputs": [],
      "name": "token0",
      "outputs": [
        {
          "internalType": "address",
          "name": "",
          "type": "address"
        }
      ],
      "stateMutability": "view",
      "type": "function"
    },
    {
      "inputs": [],
      "name": "token1",
      "outputs": [
        {
          "internalType": "address",
          "name": "",
          "type": "address"
        }
      ],
      "stateMutability": "view",
      "type": "function"
    },
    {
      "inputs": [],
      "name": "totalTicks",
      "outputs": [
        {
          "internalType": "uint256",
          "name": "",
          "type": "uint256"
        }
      ],
      "stateMutability": "view",
      "type": "function"
    },
    {
      "inputs": [],
      "name": "yieldGrowthGlobal",
      "outputs": [
        {
          "internalType": "uint256",
          "name": "",
          "type": "uint256"
        }
      ],
      "stateMutability": "view",
      "type": "function"
    }
  ],
  "transactionHash": "0x591e7c2e29ee605f8511e8495886a82291adc24a9d0ecd6f0861c5994b41d9b3",
  "args": [],
  "numDeployments": 2,
  "solcInputHash": "b5ffd7fe1fdd56c84d11ce514d54965b",
  "bytecode": "0x608060405234801561001057600080fd5b50615f8b80620000216000396000f3fe608060405234801561001057600080fd5b50600436106102b65760003560e01c8063a34123a711610172578063cf543153116100d9578063e5ff7f4611610092578063e5ff7f4614610740578063f30dba9314610753578063f719dac6146107fb578063f7c618c114610859578063f949e8b71461086c578063fa1a169c14610874578063fb5d80b31461087d57600080fd5b8063cf543153146106ca578063cf78756b146106dd578063d0c93a7c146106e5578063d21220a7146106fa578063d55147921461070d578063d90bda4e1461072d57600080fd5b8063bd7d1eea1161012b578063bd7d1eea1461066e578063c03c251414610681578063c45a015514610694578063c9936420146106a7578063caa4b46a146106af578063cce2df03146106b757600080fd5b8063a34123a714610500578063aaca1b4d14610513578063acfe88f8146105a5578063b0e21e8a146105b8578063b2f4bdb0146105c1578063bcdb4dad146105ca57600080fd5b806367e4ac2c116102215780638ba310a2116101da5780638ba310a21461047c5780638c347f9b146104845780638f10369a146104ad578063956afe45146104b55780639da12096146104be578063a00e8f29146104c6578063a035b1fe146104ed57600080fd5b806367e4ac2c1461040e5780636d59d8021461042357806370ed1b861461044f578063735541d114610458578063787dce3d1461046157806384e020171461047457600080fd5b80632df94b0f116102735780632df94b0f1461038357806340306fb6146103ab578063490e6cbc146103b457806354cf2aeb146103c9578063627dd56a146103f357806366f657c51461040657600080fd5b806306f912f3146102bb5780630902f1ac146102e15780630ae9ba8a1461031c5780630dfe16811461032f578063111ba27d1461034f5780631a68650214610358575b600080fd5b6102ce6102c93660046154da565b61089c565b6040519081526020015b60405180910390f35b6014546015546001600160801b03600160801b909204821691165b604080516001600160801b039384168152929091166020830152016102d8565b6102ce61032a366004615548565b610904565b600354610342906001600160a01b031681565b6040516102d891906155ef565b6102ce60215481565b60065461036b906001600160801b031681565b6040516001600160801b0390911681526020016102d8565b610396610391366004615603565b610e62565b604080519283526020830191909152016102d8565b6102ce600e5481565b6103c76103c236600461565e565b610fe8565b005b6000546103df90600160281b900462ffffff1681565b60405162ffffff90911681526020016102d8565b6102ce610401366004615781565b61146a565b6102ce611c5e565b610416611c7b565b6040516102d891906157fa565b600754604080516001600160a01b0383168152600160a01b90920463ffffffff166020830152016102d8565b6102ce60095481565b6102ce601b5481565b6103c761046f36600461580d565b611d0f565b6102ce611d62565b6102ce611d7d565b601954604080516001600160a01b0383168152600160a01b90920460020b6020830152016102d8565b6102ce611e47565b6102ce600f5481565b6102ce611e62565b6019546104da90600160a01b900460020b81565b60405160029190910b81526020016102d8565b601954610342906001600160a01b031681565b61039661050e366004615826565b611eaa565b61056f61052136600461586d565b601e60209081526000938452604080852082529284528284209052825290208054600182015460028301546003909301546001600160801b0392831693919281811691600160801b90041685565b604080516001600160801b039687168152602081019590955284019290925283166060830152909116608082015260a0016102d8565b6103966105b33660046158b8565b61223b565b6102ce60225481565b6102ce60205481565b6106196000546005546001546003546004546001600160801b03600160401b8604169562ffffff620100008704811696600160281b900416946001600160a01b03908116948116938116921690565b604080516001600160801b03909816885262ffffff968716602089015295909416948601949094526001600160a01b0391821660608601528116608085015291821660a08401521660c082015260e0016102d8565b6103c761067c3660046158f1565b6125a0565b6102ce61068f3660046158b8565b6125ed565b600554610342906001600160a01b031681565b6102ce6126f8565b6102fc612801565b6103c76106c536600461590e565b612b9b565b6103c76106d8366004615955565b613091565b6102ce6133f2565b6000546103df9062010000900462ffffff1681565b600454610342906001600160a01b031681565b6102ce61071b3660046159aa565b601d6020526000908152604090205481565b6103c761073b3660046158f1565b61342b565b60135461036b906001600160801b031681565b6107b06107613660046159aa565b601c6020526000908152604090208054600182015460028084015460039094015483820b946301000000850490920b93600160301b90046001600160801b03169291906001600160a01b031686565b60408051600297880b81529590960b60208601526001600160801b0390931694840194909452606083015260808201929092526001600160a01b0390911660a082015260c0016102d8565b61083c61080936600461586d565b601f602090815260009384526040808520825292845282842090528252902080546001909101546001600160801b031682565b604080519283526001600160801b039091166020830152016102d8565b601054610342906001600160a01b031681565b6102ce6134ab565b6102ce60085481565b6013546014546001600160801b03600160801b909204821691166102fc565b6000601a54600214156108c2576040516303cb96db60e21b815260040160405180910390fd5b6002601a556108d23385856134bd565b6108de3385858561359b565b6010549091506108f8906001600160a01b03168233613635565b6001601a559392505050565b6000601a546002141561092a576040516303cb96db60e21b815260040160405180910390fd5b6002601a55601554600160801b900460ff1661094581613649565b61095783602001518460600151613897565b60006109668460200151613998565b6001600160a01b0316905060006109808560600151613998565b60195460a087015160808801516001600160a01b03938416945091909216916109bb918591859185916001600160801b039081169116613cc1565b945060016001607f1b038511156109e557604051631a93c68960e11b815260040160405180910390fd5b84610a03576040516320fb348960e21b815260040160405180910390fd5b610a0b613d55565b6000601c73fF8E5bDf54D5ab74D2E56CA0E575348A52B95B3d63825c72999091601d6040518060800160405280600a54600854610a4891906159dd565b8152602001600b54600954610a5d91906159dd565b81526020016011548152602001600760009054906101000a90046001600160a01b03166001600160a01b03168152508b600001518c602001518d604001518e606001518e601960149054906101000a900460020b8c6040518b63ffffffff1660e01b8152600401610ad79a999897969594939291906159f5565b604080518083038186803b158015610aee57600080fd5b505af4158015610b02573d6000803e3d6000fd5b505050506040513d601f19601f82011682018060405250810190610b269190615ab1565b6019805462ffffff909316600160a01b0262ffffff60a01b1990931692909217909155601b80549192508291600090610b609084906159dd565b9250508190555050610b7c338760200151886060015188613e6a565b808311158015610b8b57508181105b15610bd35760068054869190600090610bae9084906001600160801b0316615adf565b92506101000a8154816001600160801b0302191690836001600160801b031602179055505b600080610be48585858a6001613e92565b60035460048054604051632f8b294d60e11b81526001600160a01b03938416928101929092529190911660248201526001600160801b0380841660448301528216606482015291935091503390635f16529a90608401600060405180830381600087803b158015610c5457600080fd5b505af1158015610c68573d6000803e3d6000fd5b50505050816001600160801b0316600014610d155781601460108282829054906101000a90046001600160801b0316610ca19190615adf565b92506101000a8154816001600160801b0302191690836001600160801b03160217905550610ce3600360009054906101000a90046001600160a01b0316613efc565b601454600160801b90046001600160801b03161115610d155760405163420231d560e11b815260040160405180910390fd5b6001600160801b03811615610daf5760158054829190600090610d429084906001600160801b0316615adf565b92506101000a8154816001600160801b0302191690836001600160801b03160217905550610d84600460009054906101000a90046001600160a01b0316613efc565b6015546001600160801b03161115610daf57604051637218102160e11b815260040160405180910390fd5b600280546040805160a0810182526020808d0151850b82526060808e015190950b908201526001600160801b0380871682840152851693810193909352608083018a90525163fbad739160e01b81526001600160a01b039091169163fbad739191610e1d9190600401615b0a565b600060405180830381600087803b158015610e3757600080fd5b505af1925050508015610e48575060015b505050505050610e5781613fdb565b506001601a55919050565b600080601a5460021415610e89576040516303cb96db60e21b815260040160405180910390fd5b6002601a55601554600160801b900460ff16610ea481613649565b610eaf3388886140a3565b610ebc33888888886141d2565b601480549295509093508491601090610ee6908490600160801b90046001600160801b0316615b4a565b92506101000a8154816001600160801b0302191690836001600160801b0316021790555081601560008282829054906101000a90046001600160801b0316610f2e9190615b4a565b92506101000a8154816001600160801b0302191690836001600160801b03160217905550610f5d3384846142dd565b600254604080518082018252858152602081018581529151631228c47f60e01b815290516004820152905160248201526001600160a01b0390911690631228c47f90604401600060405180830381600087803b158015610fbc57600080fd5b505af1925050508015610fcd575060015b50610fd781613fdb565b506001601a55909590945092505050565b601a546002141561100c576040516303cb96db60e21b815260040160405180910390fd5b6002601a55601554600160801b900460ff1661102781613649565b6110676040518060e00160405280600081526020016000815260200160008152602001600081526020016000815260200160008152602001600081525090565b6000806110868888600060059054906101000a900462ffffff1661430b565b6040805160e0810182528b8152602081018b90526014546001600160801b03600160801b90910481169282019290925260155482166060820152608081019390935260a08301919091526006541660c08201819052909350151591506111019050576040516320fb348960e21b815260040160405180910390fd5b61110c8787876142dd565b608081015160a08201516040516361c9276b60e11b8152339263c3924ed69261113b9289908990600401615b72565b600060405180830381600087803b15801561115557600080fd5b505af1158015611169573d6000803e3d6000fd5b5050600354600092508291508190611189906001600160a01b0316613efc565b6004549091506000906111a4906001600160a01b0316613efc565b905081856080015186604001516111bb91906159dd565b11156111da5760405163420231d560e11b815260040160405180910390fd5b808560a0015186606001516111ef91906159dd565b111561120e57604051637218102160e11b815260040160405180910390fd5b61121782614340565b601480546001600160801b03928316600160801b02921691909117905561123d81614340565b601580546001600160801b0319166001600160801b0392909216919091179055604085015161126c9083615baf565b935084606001518161127e9190615baf565b602254909350915050821561132557600061129c848361271061435b565b905080601360108282829054906101000a90046001600160801b03166112c29190615adf565b92506101000a8154816001600160801b0302191690836001600160801b0316021790555061130d816001600160801b0316856112fe9190615baf565b600160801b8760c00151614399565b6008600082825461131e91906159dd565b9091555050505b81156113ae57600061133a838361271061435b565b60148054919250829160009061135a9084906001600160801b0316615adf565b92506101000a8154816001600160801b0302191690836001600160801b03160217905550611396816001600160801b0316846112fe9190615baf565b600960008282546113a791906159dd565b9091555050505b6002546040805160a0810182523381528651602080830191825288015182840190815260608301888152608084018881529451630a61fef360e21b815293516001600160a01b039081166004860152925160248501529051604484015251606483015291516084820152911690632987fbcc9060a401600060405180830381600087803b15801561143e57600080fd5b505af192505050801561144f575060015b505050505061145d81613fdb565b50506001601a5550505050565b6000601a5460021415611490576040516303cb96db60e21b815260040160405180910390fd5b6002601a55601554600160801b900460ff166114ab81613649565b600080848060200190518101906114c29190615bd6565b915091506000826114de576015546001600160801b03166114f2565b601454600160801b90046001600160801b03165b6001600160801b031661152584611514576004546001600160a01b0316613efc565b6003546001600160a01b0316613efc565b61152f9190615baf565b905060006040518061012001604052806000815260200160008152602001600081526020018561156157600854611565565b6009545b8152602001856115775760095461157b565b6008545b81526019546001600160a01b031660208201526006546001600160801b0316604082015260608101849052608001856115da57601954600160a01b9004600290810b6000908152601c602052604090205463010000009004900b6115e8565b601954600160a01b900460020b5b60020b905290506115f7613d55565b6011546116038261444c565b60e08201511561199657600061161d836101000151613998565b6001600160a01b03169050600080871561174e5760006116488660c00151858860a0015160006144a7565b9050808660e001511161170e5760c086015160a087015160e088015160609290921b9160009161168e9184919061167f9082615c02565b61168990866159dd565b61435b565b90508086111580156116a357508760a0015181105b6116e1576116d5828960e001518a60a00151856116c09190615c37565b6116ca91906159dd565b808204910615150190565b6001600160a01b031690505b6116f68860c00151828a60a0015160006144ff565b60a0890191909152600060e089015293506117489050565b6117238660c00151858860a0015160006144ff565b60a0870185905260e087018051919450600193508291611744908390615baf565b9052505b50611803565b60006117658660c001518760a001518660006144ff565b9050808660e00151116117c757600061178b8760e00151600160601b8960c00151614399565b8760a0015161179a91906159dd565b90506117b18760c001518860a001518360006144a7565b60a0880191909152600060e08801529250611801565b6117dc8660c001518760a001518660006144a7565b60a0870185905260e0870180519194506001935082916117fd908390615baf565b9052505b505b60c0850151156118555761184082600060059054906101000a900462ffffff166022548860c0015189602001518f8b604001518c60600151614529565b60608901526040880152602087019190915299505b801561198e5761186685858a6145c1565b60c085015161198e5761010085015160020b620d89e719148061189f5750611891620d89e719615c4b565b60020b85610100015160020b145b156119675787156118f2576118c960018660a001516118be9190615baf565b6401000276a36146e5565b60a086015261010085018051600290810b6000908152601c6020526040902054900b905261195f565b6119338560a00151600161190691906159dd565b611925600173fffd8963efd1fc6a506488495d951d5263988d26615c6e565b6001600160a01b03166146fc565b60a086015261010085018051600290810b6000908152601c602052604090205463010000009004900b90525b505050611996565b611975856101000151613998565b6001600160a01b031660a086015261198e85858a6145c1565b505050611603565b60a0820151601980546001600160a01b0319166001600160a01b039092169190911790556000856119e257610100830151600290810b6000908152601c6020526040902054900b6119e9565b8261010001515b601954909150600282810b600160a01b909204900b14611a44576019805462ffffff60a01b1916600160a01b62ffffff84160217905560c0830151600680546001600160801b0319166001600160801b039092169190911790555b611a4f86858a61470b565b611a628684606001518560400151614847565b60e083015115611b9457600086611ab657601c60008181611a86620d89e719615c4b565b600290810b8252602080830193909352604091820160009081205490910b84529183019390935291019020611af1565b601c6020527f312e29fa10e2dff7af4afff8ca91ba272d48aceeec966ecfff784af0b0aa924c546301000000900460020b6000908152604090205b60e08501518154919250600091611b1e9190600160801b90600160301b90046001600160801b0316614399565b90508715611b5e5780826001016000828254611b3a91906159dd565b925050819055508060086000828254611b5391906159dd565b90915550611b919050565b80826002016000828254611b7291906159dd565b925050819055508060096000828254611b8b91906159dd565b90915550505b50505b8515611bb657600454611bb1906001600160a01b03168987613635565b611bcd565b600354611bcd906001600160a01b03168987613635565b600254604080516060810182528815158152602081018781528183018c815292516391accd5f60e01b8152915115156004830152516024820152905160448201526001600160a01b03909116906391accd5f90606401600060405180830381600087803b158015611c3d57600080fd5b505af1925050508015611c4e575060015b50505050505050610e5781613fdb565b6000611c686148c3565b611c725750600090565b600c545b905090565b6040805160028082526060808301845292602083019080368337505060035482519293506001600160a01b031691839150600090611cbb57611cbb615c8e565b6001600160a01b039283166020918202929092010152600454825191169082906001908110611cec57611cec615c8e565b60200260200101906001600160a01b031690816001600160a01b03168152505090565b6005546001600160a01b03163314611d3a5760405163ea8e4eb560e01b815260040160405180910390fd5b612710811115611d5d57604051633494a40d60e21b815260040160405180910390fd5b602255565b6000611d6c6148c3565b611d765750600090565b50600d5490565b601554600090600160801b900460ff1681611d97826148dd565b9050600082611db1576015546001600160801b0316611dc5565b601454600160801b90046001600160801b03165b9050806001600160801b0316826001600160801b031611611e0857601654601854611e0091600160801b90046001600160801b0316906159dd565b935050505090565b6016546018546001600160801b038084169285821692611e3392600160801b909204909116906159dd565b611e3d91906159dd565b611e009190615baf565b6000611e516148c3565b611e5b5750600090565b5060125490565b6015546000908190600160801b900460ff16611e7f576000611e87565b611e876126f8565b9050611e9a600854600a54600c5461498a565b611ea490826159dd565b91505090565b600080601a5460021415611ed1576040516303cb96db60e21b815260040160405180910390fd5b6002601a55601554600160801b900460ff16611eec81613649565b6000611ef787613998565b90506000611f0487613998565b6019549091506001600160a01b0316611f1b613d55565b806001600160a01b0316836001600160a01b031611158015611f4e5750816001600160a01b0316816001600160a01b0316105b15611f7657600680546001600160801b038082168a9003166001600160801b03199091161790555b611fa8836001600160a01b0316836001600160a01b0316836001600160a01b03168a6001600160801b03166000613e92565b6001600160801b0391821697508116955060016001607f1b039088161115611fe357604051631a93c68960e11b815260040160405180910390fd5b611ff7338a8a611ff28b615ca4565b613e6a565b85601460108282829054906101000a90046001600160801b031661201b9190615b4a565b92506101000a8154816001600160801b0302191690836001600160801b0316021790555084601560008282829054906101000a90046001600160801b03166120639190615b4a565b92506101000a8154816001600160801b0302191690836001600160801b031602179055506120923387876142dd565b601954604051630f92397360e31b8152601c6004820152601d602482015260028b810b60448301528a810b60648301526001600160801b038a166084830152600160a01b90920490910b60a482015260009073fF8E5bDf54D5ab74D2E56CA0E575348A52B95B3d90637c91cb989060c401604080518083038186803b15801561211a57600080fd5b505af415801561212e573d6000803e3d6000fd5b505050506040513d601f19601f820116820180604052508101906121529190615ab1565b6019805462ffffff909316600160a01b0262ffffff60a01b1990931692909217909155601b8054919250829160009061218c908490615baf565b9091555050600280546040805160a0810182528d840b8152928c900b60208401528281018a9052606083018990526001600160801b038b16608084015251637e4a416960e11b81526001600160a01b03909116925063fc9482d2916121f391600401615b0a565b600060405180830381600087803b15801561220d57600080fd5b505af192505050801561221e575060015b5050505061222b81613fdb565b506001601a559094909350915050565b60195460009081908190612257906001600160a01b03166149ea565b90506000601c60008760020b60020b81526020019081526020016000206040518060c00160405290816000820160009054906101000a900460020b60020b60020b81526020016000820160039054906101000a900460020b60020b60020b81526020016000820160069054906101000a90046001600160801b03166001600160801b03166001600160801b0316815260200160018201548152602001600282015481526020016003820160009054906101000a90046001600160a01b03166001600160a01b03166001600160a01b03168152505090506000601c60008760020b60020b81526020019081526020016000206040518060c00160405290816000820160009054906101000a900460020b60020b60020b81526020016000820160039054906101000a900460020b60020b60020b81526020016000820160069054906101000a90046001600160801b03166001600160801b03166001600160801b0316815260200160018201548152602001600282015481526020016003820160009054906101000a90046001600160a01b03166001600160a01b03166001600160a01b031681525050905060008060008061242e600660009054906101000a90046001600160801b03166001600160801b0316614cd0565b9150915081600a5460085461244391906159dd565b61244d91906159dd565b935080600b5460095461246091906159dd565b61246a91906159dd565b92505050601560109054906101000a900460ff161561249c5761248b6126f8565b61249590836159dd565b91506124b1565b6124a46126f8565b6124ae90826159dd565b90505b6000808660020b8b60020b136124e95760608601516124d090836159dd565b91508560800151816124e291906159dd565b9050612521565b60608601516124f89085615baf565b61250290836159dd565b91508560800151836125149190615baf565b61251e90826159dd565b90505b8960020b8760020b121561255757606085015161253e90836159dd565b915084608001518161255091906159dd565b905061258f565b60608501516125669085615baf565b61257090836159dd565b91508460800151836125829190615baf565b61258c90826159dd565b90505b920399919003975095505050505050565b6005546001600160a01b031633146125cb5760405163ea8e4eb560e01b815260040160405180910390fd5b600280546001600160a01b0319166001600160a01b0392909216919091179055565b6019546000908190612607906001600160a01b03166149ea565b600654909150600090612622906001600160801b0316614d13565b60115461262f91906159dd565b905060008260020b8660020b1361266557600286900b6000908152601d602052604090205461265e90826159dd565b9050612690565b600286900b6000908152601d60205260409020546126839083615baf565b61268d90826159dd565b90505b8460020b8360020b12156126c357600285900b6000908152601d60205260409020546126bc90826159dd565b90506126ee565b600285900b6000908152601d60205260409020546126e19083615baf565b6126eb90826159dd565b90505b9003949350505050565b601554600090600160801b900460ff1681612712826148dd565b905060008261272c576015546001600160801b0316612740565b601454600160801b90046001600160801b03165b6001600160801b0316905080826001600160801b03161161276657601754935050505090565b6006546001600160801b0316806127835760175494505050505090565b6016546000906001600160801b03600160801b9091048116906127a99085908716615baf565b6127b391906159dd565b905060006127c68260225461271061435b565b90506127e96127de6001600160801b03831684615baf565b600160801b85614399565b6017546127f691906159dd565b965050505050505090565b600080601a5460021415612828576040516303cb96db60e21b815260040160405180910390fd5b6002601a55601554600160801b900460ff1661284381613649565b6001546040805163779b492960e11b815290516000926001600160a01b03169163ef369252916004808301926020929190829003018186803b15801561288857600080fd5b505afa15801561289c573d6000803e3d6000fd5b505050506040513d601f19601f820116820180604052508101906128c09190615cc3565b604080516002808252606082018352929350600092909160208301908036833750506040805160028082526060820183529394506000939092509060208301908036833701905050601354909150600160801b90046001600160801b031615612a1457601380546001600160801b0380821690925560148054600160801b92839004841699508993919260109261295b928692900416615b4a565b92506101000a8154816001600160801b0302191690836001600160801b031602179055506129a8600360009054906101000a90046001600160a01b0316876001600160801b031685613635565b60035482516001600160a01b039091169083906000906129ca576129ca615c8e565b60200260200101906001600160a01b031690816001600160a01b031681525050856001600160801b031681600081518110612a0757612a07615c8e565b6020026020010181815250505b6014546001600160801b031615612b1457601480546001600160801b03198116909155601580546001600160801b0392831697508792600091612a5991859116615b4a565b92506101000a8154816001600160801b0302191690836001600160801b03160217905550612aa6600460009054906101000a90046001600160a01b0316866001600160801b031685613635565b60045482516001600160a01b039091169083906001908110612aca57612aca615c8e565b60200260200101906001600160a01b031690816001600160a01b031681525050846001600160801b031681600181518110612b0757612b07615c8e565b6020026020010181815250505b6001600160a01b0383163b15612b8557604051630f03328360e41b81526001600160a01b0384169063f033283090612b529085908590600401615ce0565b600060405180830381600087803b158015612b6c57600080fd5b505af1158015612b80573d6000803e3d6000fd5b505050505b505050612b9181613fdb565b506001601a559091565b600054610100900460ff16612bb65760005460ff1615612bba565b303b155b612c225760405162461bcd60e51b815260206004820152602e60248201527f496e697469616c697a61626c653a20636f6e747261637420697320616c72656160448201526d191e481a5b9a5d1a585b1a5e995960921b60648201526084015b60405180910390fd5b600054610100900460ff16158015612c44576000805461ffff19166101011790555b60008060008060008088806020019051810190612c619190615d4a565b95509550955095509550955085600360006101000a8154816001600160a01b0302191690836001600160a01b0316021790555084600460006101000a8154816001600160a01b0302191690836001600160a01b0316021790555083601060006101000a8154816001600160a01b0302191690836001600160a01b0316021790555082600060056101000a81548162ffffff021916908362ffffff16021790555081600060026101000a81548162ffffff021916908362ffffff16021790555033600560006101000a8154816001600160a01b0302191690836001600160a01b0316021790555087600160006101000a8154816001600160a01b0302191690836001600160a01b0316021790555080601560106101000a81548160ff021916908315150217905550612d9182614d3b565b600060086101000a8154816001600160801b0302191690836001600160801b031602179055506040518060c00160405280620d89e71960020b8152602001620d89e719612ddd90615c4b565b60020b815260006020808301829052604080840183905260608085018490526080948501849052620d89e71993849052601c835285517f312e29fa10e2dff7af4afff8ca91ba272d48aceeec966ecfff784af0b0aa924c805488860151898601516001600160801b0316600160301b02600160301b600160b01b031962ffffff92831663010000000265ffffffffffff19909416929095169190911791909117929092169190911790558501517f312e29fa10e2dff7af4afff8ca91ba272d48aceeec966ecfff784af0b0aa924d55928401517f312e29fa10e2dff7af4afff8ca91ba272d48aceeec966ecfff784af0b0aa924e5560a0909301517f312e29fa10e2dff7af4afff8ca91ba272d48aceeec966ecfff784af0b0aa924f80546001600160a01b03929092166001600160a01b0319909216919091179055815160c081019092528082529091820190612f3390615c4b565b60020b815260200160006001600160801b03168152602001600081526020016000815260200160006001600160a01b0316815250601c6000620d89e719612f7990615c4b565b600290810b825260208083019390935260409182016000208451815486860151948701516001600160801b0316600160301b02600160301b600160b01b031962ffffff96871663010000000265ffffffffffff1990931696909316959095171716929092178255606084015160018084019190915560808501518383015560a090940151600390920180546001600160a01b039093166001600160a01b03199093169290921790915560198054621e4ec360a31b62ffffff60a01b19909116179055601a929092556007805463ffffffff42908116600160a01b0263ffffffff60a01b1990921691909117909155601b929092555550504360215550508215915061308c9050576000805461ff00191690555b505050565b601a54600214156130b5576040516303cb96db60e21b815260040160405180910390fd5b6002601a55601554600160801b900460ff166130d081613649565b6001546040805163d0a9317360e01b8152905133926001600160a01b03169163d0a931739160048083019260209291908290030181600087803b15801561311657600080fd5b505af115801561312a573d6000803e3d6000fd5b505050506040513d601f19601f8201168201806040525081019061314e9190615cc3565b6001600160a01b0316146131755760405163ea8e4eb560e01b815260040160405180910390fd5b4261318083856159dd565b1161319e57604051633494a40d60e21b815260040160405180910390fd5b600e54600f546000906131b190836159dd565b9050848111156131d457604051633494a40d60e21b815260040160405180910390fd5b6001600160801b0388161561324b57600354613202906001600160a01b03166001600160801b038a16614d7b565b87601460108282829054906101000a90046001600160801b03166132269190615adf565b92506101000a8154816001600160801b0302191690836001600160801b031602179055505b6001600160801b038716156132bc57600454613279906001600160a01b03166001600160801b038916614d7b565b601580548891906000906132979084906001600160801b0316615adf565b92506101000a8154816001600160801b0302191690836001600160801b031602179055505b6001600160801b038616156132ea576010546132ea906001600160a01b03166001600160801b038816614d7b565b60006132f4614d90565b111561338c57613302613d55565b600754600160a01b900463ffffffff168181101561338a57600061332682856146e5565b6133309084615baf565b9050613346613341600c5483614dee565b614340565b613350908b615adf565b9950613361613341600d5483614dee565b61336b908a615adf565b985061337c61334160125483614dee565b6133869089615adf565b9750505b505b6133a4886001600160801b0316600160801b86614399565b600c556133bf6001600160801b038816600160801b86614399565b600d556133da6001600160801b038716600160801b86614399565b6012555050600e839055600f82905561145d81613fdb565b6015546000908190600160801b900460ff16613415576134106126f8565b613418565b60005b9050611e9a600954600b54600d5461498a565b6005546001600160a01b031633146134565760405163ea8e4eb560e01b815260040160405180910390fd5b6019546001600160a01b03161561348057604051630bca0b1b60e21b815260040160405180910390fd5b61348981614dff565b601980546001600160a01b0319166001600160a01b0392909216919091179055565b6000611c76600060115460125461498a565b6001600160a01b0383166000908152601f60209081526040808320600286810b85529083528184209085900b84529091528120906134fb84846125ed565b82546001600160a01b0387166000908152601e6020908152604080832060028a810b85529083528184209089900b84529091528120549293509161354a918403906001600160801b0316614dee565b828455600184018054919250829160009061356f9084906001600160801b0316615adf565b92506101000a8154816001600160801b0302191690836001600160801b03160217905550505050505050565b6001600160a01b0384166000908152601f60209081526040808320600287810b85529083528184209086900b8452909152812060018101546135e6906001600160801b0316846146fc565b60018201805491935083916000906136089084906001600160801b0316615b4a565b92506101000a8154816001600160801b0302191690836001600160801b0316021790555050949350505050565b61308c6001600160a01b0384168284614e56565b6000613654826148dd565b905060008261366e576015546001600160801b0316613682565b601454600160801b90046001600160801b03165b9050806001600160801b0316826001600160801b0316116136a257505050565b82156136c757601480546001600160801b03808516600160801b0291161790556136e3565b601580546001600160801b0319166001600160801b0384161790555b60006136ef8284615b4a565b6006549091506001600160801b0316806137525781601660108282829054906101000a90046001600160801b03166137279190615adf565b92506101000a8154816001600160801b0302191690836001600160801b031602179055505050505050565b601654600160801b90046001600160801b03168015613787576137758184615adf565b601680546001600160801b0316905592505b60006137a1846001600160801b031660225461271061435b565b905086156137f65780601360108282829054906101000a90046001600160801b03166137cd9190615adf565b92506101000a8154816001600160801b0302191690836001600160801b03160217905550613839565b601480548291906000906138149084906001600160801b0316615adf565b92506101000a8154816001600160801b0302191690836001600160801b031602179055505b6138636138468286615b4a565b6001600160801b0316600160801b856001600160801b0316614399565b6017600082825461387491906159dd565b9091555050601880546001600160801b0390951694909401909355505050505050565b6000546138af9062010000900462ffffff1683615dc6565b60020b156138d0576040516333a3bdff60e21b815260040160405180910390fd5b6000546002906138eb9062010000900462ffffff1684615de8565b6138f59190615dc6565b60020b1561391657604051637ef8a10160e11b815260040160405180910390fd5b60005461392e9062010000900462ffffff1682615dc6565b60020b1561394f576040516333a3bdff60e21b815260040160405180910390fd5b60005460029061396a9062010000900462ffffff1683615de8565b6139749190615dc6565b60020b6139945760405163a9778c6360e01b815260040160405180910390fd5b5050565b60008060008360020b126139af578260020b6139bc565b8260020b6139bc90615e22565b90506139cb620d89e719615c4b565b62ffffff168111156139f057604051633e1f710360e21b815260040160405180910390fd5b600060018216613a0457600160801b613a16565b6ffffcb933bd6fad37aa2d162d1a5940015b6001600160881b031690506002821615613a40576ffff97272373d413259a46990580e213a0260801c5b6004821615613a5f576ffff2e50f5f656932ef12357cf3c7fdcc0260801c5b6008821615613a7e576fffe5caca7e10e4e61c3624eaa0941cd00260801c5b6010821615613a9d576fffcb9843d60f6159c9db58835c9266440260801c5b6020821615613abc576fff973b41fa98c081472e6896dfb254c00260801c5b6040821615613adb576fff2ea16466c96a3843ec78b326b528610260801c5b6080821615613afa576ffe5dee046a99a2a811c461f1969c30530260801c5b610100821615613b1a576ffcbe86c7900a88aedcffc83b479aa3a40260801c5b610200821615613b3a576ff987a7253ac413176f2b074cf7815e540260801c5b610400821615613b5a576ff3392b0822b70005940c7a398e4b70f30260801c5b610800821615613b7a576fe7159475a2c29b7443b29c7fa6e889d90260801c5b611000821615613b9a576fd097f3bdfd2022b8845ad8f792aa58250260801c5b612000821615613bba576fa9f746462d870fdf8a65dc1f90e061e50260801c5b614000821615613bda576f70d869a156d2a1b890bb3df62baf32f70260801c5b618000821615613bfa576f31be135f97d08fd981231505542fcfa60260801c5b62010000821615613c1b576f09aa508b5b7a84e1c677de54f3e99bc90260801c5b62020000821615613c3b576e5d6af8dedb81196699c329225ee6040260801c5b62040000821615613c5a576d2216e584f5fa1ea926041bedfe980260801c5b62080000821615613c77576b048a170391f7dc42444e8fa20260801c5b60008460020b1315613c98578060001981613c9457613c94615c21565b0490505b640100000000810615613cac576001613caf565b60005b60ff16602082901c0192505050919050565b6000838511613ce257613cdb83600160601b888803614399565b9050613d4c565b858411613d0457613cdb82613cfc8888600160601b614399565b888803614399565b6000613d2183613d198888600160601b614399565b878903614399565b90506000613d3685600160601b8a8903614399565b9050808210613d455780613d47565b815b925050505b95945050505050565b6006546001600160801b031680613d695750565b600754600160a01b900463ffffffff16428110613d84575050565b6000613d8e614d90565b90508015613e0257613da3600c548285614399565b600a6000828254613db491906159dd565b9091555050600d54613dc7908285614399565b600b6000828254613dd891906159dd565b9091555050601254613deb908285614399565b60116000828254613dfc91906159dd565b90915550505b6007805463ffffffff42908116600160a01b0263ffffffff60a01b1990921691909117909155839083900360801b81613e3d57613e3d615c21565b600780546001600160a01b03198116939092046001600160a01b0392831601909116919091179055505050565b613e758484846140a3565b613e808484846134bd565b613e8c84848484614eb9565b50505050565b600080848611613eb257613eab613341858989876144ff565b9050613ef2565b868511613ecf57613ec8613341858989876144a7565b9150613ef2565b613ede613341858789876144a7565b9150613eef613341858988876144ff565b90505b9550959350505050565b6000806000836001600160a01b03166370a0823160e01b30604051602401613f2491906155ef565b60408051601f198184030181529181526020820180516001600160e01b03166001600160e01b0319909416939093179092529051613f629190615e6b565b600060405180830381855afa9150503d8060008114613f9d576040519150601f19603f3d011682016040523d82523d6000602084013e613fa2565b606091505b5091509150818015613fb657506020815110155b613fbf57600080fd5b80806020019051810190613fd39190615e87565b949350505050565b8015614040576003546001600160a01b0316613ff681614fa8565b601680546001600160801b0319166001600160801b039290921691909117905561401f81613efc565b601480546001600160801b03928316600160801b0292169190911790555050565b6004546001600160a01b031661405581614fa8565b601680546001600160801b0319166001600160801b039290921691909117905561407e81613efc565b601580546001600160801b0319166001600160801b0392909216919091179055505b50565b6001600160a01b0383166000908152601e60209081526040808320600286810b85529083528184209085900b8452909152812090806140e2858561223b565b60018501548554929450909250600091829161410a91908603906001600160801b0316614dee565b6002860154865491935061412a91908503906001600160801b0316614dee565b6001860185905560028601849055600386018054919250839160009061415a9084906001600160801b0316615adf565b92506101000a8154816001600160801b0302191690836001600160801b03160217905550808560030160108282829054906101000a90046001600160801b03166141a49190615adf565b92506101000a8154816001600160801b0302191690836001600160801b031602179055505050505050505050565b6001600160a01b0385166000908152601e60209081526040808320600288810b85529083528184209087900b845290915281206003810154829190614220906001600160801b0316866146fc565b600382015490935061424290600160801b90046001600160801b0316856146fc565b60038201805491935084916000906142649084906001600160801b0316615b4a565b92506101000a8154816001600160801b0302191690836001600160801b03160217905550818160030160108282829054906101000a90046001600160801b03166142ae9190615b4a565b92506101000a8154816001600160801b0302191690836001600160801b03160217905550509550959350505050565b6003546142f4906001600160a01b03168385613635565b60045461308c906001600160a01b03168285613635565b600080614321858462ffffff16620f424061435b565b9150614336848462ffffff16620f424061435b565b9050935093915050565b806001600160801b038116811461435657600080fd5b919050565b6000614368848484614399565b9050818061437857614378615c21565b8385091561439257600019811061438e57600080fd5b6001015b9392505050565b6000808060001985870985870292508281108382030391505080600014156143d357600084116143c857600080fd5b508290049050614392565b8084116143df57600080fd5b6000848688096000868103871696879004966002600389028118808a02820302808a02820302808a02820302808a02820302808a02820302808a02909103029181900381900460010186841190950394909402919094039290920491909117919091029150509392505050565b60c0810151156144595750565b61010081015160020b620d89e7191480614489575061447b620d89e719615c4b565b60020b81610100015160020b145b156140a05760405163035d2ccd60e51b815260040160405180910390fd5b600081156144d6576144cf6144c3606087901b8686038661435b565b85808204910615150190565b9050613fd3565b836144e8606087901b82860386614399565b816144f5576144f5615c21565b0495945050505050565b60008115614518576144cf85858503600160601b61435b565b613d4c85858503600160601b614399565b60008060008060006145448d8d62ffffff16620f424061435b565b9050614550818a6159dd565b985061455c818e615baf565b61456690896159dd565b97506000614577828d61271061435b565b905061458381896159dd565b975061458f8183615baf565b91506145a082600160801b8d614399565b6145aa90886159dd565b999e989d50969b5097995095975050505050505050565b601554600090600160801b900460ff166145dc5760006145e0565b6017545b601554909150600090600160801b900460ff166145ff57601754614602565b60005b61010086015160075460c08801519293506146cd92601d92916001600160a01b0316908761464c5786600a548b6060015161463d91906159dd565b61464791906159dd565b614669565b85600b548b6060015161465f91906159dd565b61466991906159dd565b886146905786600b548c6080015161468191906159dd565b61468b91906159dd565b6146ad565b87600a548c608001516146a391906159dd565b6146ad91906159dd565b600054601c969594939291908c908c9062010000900462ffffff16615027565b60020b61010087015260c09095019490945250505050565b6000818310156146f55781614392565b5090919050565b60008183106146f55781614392565b82156147aa57600354600090614729906001600160a01b0316613efc565b60145490915060009061474d908590600160801b90046001600160801b0316615adf565b905081816001600160801b031611156147795760405163420231d560e11b815260040160405180910390fd5b601480546001600160801b03908116600160801b848316021790915560158054859260009161372791859116615b4a565b6004546000906147c2906001600160a01b0316613efc565b6015549091506000906147df9085906001600160801b0316615adf565b905081816001600160801b0316111561480b57604051637218102160e11b815260040160405180910390fd5b601580546001600160801b0319166001600160801b0383811691909117909155601480548592601091613727918591600160801b900416615b4a565b8215614899576009829055601480548291906000906148709084906001600160801b0316615adf565b92506101000a8154816001600160801b0302191690836001600160801b03160217905550505050565b600882905560138054829190601090614870908490600160801b90046001600160801b0316615adf565b6000600f54600e546148d591906159dd565b421115905090565b600080826148f6576004546001600160a01b0316614903565b6003546001600160a01b03165b601654604051632cc7243560e21b81526001600160801b0390911660048201529091506001600160a01b0382169063b31c90d49060240160206040518083038186803b15801561495257600080fd5b505afa158015614966573d6000803e3d6000fd5b505050506040513d601f19601f820116820180604052508101906143929190615e87565b600080614995614d90565b6006549091506001600160801b031681158015906149b35750600081115b156149e0576149c3848383614399565b6149cd86886159dd565b6149d791906159dd565b92505050614392565b6149d785876159dd565b60006401000276a36001600160a01b0383161080614a25575073fffd8963efd1fc6a506488495d951d5263988d266001600160a01b03831610155b15614a4357604051636e4ba61d60e01b815260040160405180910390fd5b640100000000600160c01b03602083901b166001600160801b03811160071b81811c67ffffffffffffffff811160061b90811c63ffffffff811160051b90811c61ffff811160041b90811c60ff8111600390811b91821c600f811160021b90811c918211600190811b92831c97908811961790941790921717909117171760808110614ad757607f810383901c9150614ae1565b80607f0383901b91505b908002607f81811c60ff83811c9190911c800280831c81831c1c800280841c81841c1c800280851c81851c1c800280861c81861c1c800280871c81871c1c800280881c81881c1c800280891c81891c1c8002808a1c818a1c1c8002808b1c818b1c1c8002808c1c818c1c1c8002808d1c818d1c1c8002808e1c9c81901c9c909c1c80029c8d901c9e9d607f198f0160401b60c09190911c6001603f1b161760c19b909b1c6001603e1b169a909a1760c29990991c6001603d1b169890981760c39790971c6001603c1b169690961760c49590951c6001603b1b169490941760c59390931c6001603a1b169290921760c69190911c600160391b161760c79190911c600160381b161760c89190911c6680000000000000161760c99190911c6640000000000000161760ca9190911c6620000000000000161760cb9190911c6610000000000000161760cc9190911c6608000000000000161760cd9190911c66040000000000001617693627a301d71055774c8581026f028f6481ab7f045a5af012a19d003aa9198101608090811d906fdb2df09e81959a81455e260799a0632f8301901d600281810b9083900b14614cc157886001600160a01b0316614ca682613998565b6001600160a01b03161115614cbb5781614cc3565b80614cc3565b815b9998505050505050505050565b60008082614ce357506000928392509050565b6000614ced614d90565b9050614cfc600c548286614399565b9250614d0b600d548286614399565b915050915091565b600081614d2257506000919050565b6000614d2c614d90565b90506143926012548285614399565b6000614d48826002615ea0565b614d55620d89e719615c4b565b614d5f9190615ecb565b614d759062ffffff166001600160801b03615eed565b92915050565b6139946001600160a01b0383163330846152ad565b600e54600090428110614da557600091505090565b600754600f54600160a01b90910463ffffffff1690600090614dc790846159dd565b9050818111614dda576000935050505090565b614de482846146e5565b611e3d42836146fc565b60006143928383600160801b614399565b6401000276a36001600160a01b0382161080614e38575073fffd8963efd1fc6a506488495d951d5263988d266001600160a01b03821610155b156140a057604051636e4ba61d60e01b815260040160405180910390fd5b6040516001600160a01b03831660248201526044810182905261308c90849063a9059cbb60e01b906064015b60408051601f198184030181529190526020810180516001600160e01b03166001600160e01b0319909316929092179091526152e5565b80600f0b60001415614eca57613e8c565b6001600160a01b0384166000908152601e60209081526040808320600287810b85529083528184209086900b8452909152812090600f83900b1315614f7d57805482908290600090614f269084906001600160801b0316615adf565b82546101009290920a6001600160801b038181021990931691831602179091556000548354600160401b9091048216911611159050614f785760405163581a12d760e11b815260040160405180910390fd5b614fa1565b614f8682615ca4565b815482906000906137279084906001600160801b0316615b4a565b5050505050565b604051633d7ad0b760e21b81526000906001600160a01b0383169063f5eb42dc90614fd79030906004016155ef565b60206040518083038186803b158015614fef57600080fd5b505afa158015615003573d6000803e3d6000fd5b505050506040513d601f19601f82011682018060405250810190614d759190615e87565b600288900b600090815260208b905260408120600301548190615053906001600160a01b03168a615c6e565b60028b900b600090815260208e8152604080832060030180546001600160a01b0319166001600160a01b0395909516949094179093558d905220546150989086615baf565b60028b900b600090815260208d9052604090205583156151a55760028360020b8b60020b816150c9576150c9615c21565b0560020b816150da576150da615c21565b0760020b61510f5760028a900b600090815260208d90526040902054600160301b90046001600160801b031690970396615139565b60028a900b600090815260208d90526040902054600160301b90046001600160801b031697909701965b60028a900b600090815260208d9052604090206001015461515a9087615baf565b60028b810b600090815260208f905260409020600181019290925501546151819088615baf565b60029a8b0b600090815260208e905260409020808c01919091555490990b9861529b565b60028360020b8b60020b816151bc576151bc615c21565b0560020b816151cd576151cd615c21565b0760020b6152035760028a900b600090815260208d90526040902054600160301b90046001600160801b0316979097019661522c565b60028a900b600090815260208d90526040902054600160301b90046001600160801b0316909703965b60028a810b600090815260208e905260409020015461524b9087615baf565b60028b810b600090815260208f90526040902090810191909155600101546152739088615baf565b60029a8b0b600090815260208e9052604090206001810191909155546301000000900490990b985b50959a97995096975050505050505050565b6040516001600160a01b0380851660248301528316604482015260648101829052613e8c9085906323b872dd60e01b90608401614e82565b600061533a826040518060400160405280602081526020017f5361666545524332303a206c6f772d6c6576656c2063616c6c206661696c6564815250856001600160a01b03166153b79092919063ffffffff16565b80519091501561308c57808060200190518101906153589190615f07565b61308c5760405162461bcd60e51b815260206004820152602a60248201527f5361666545524332303a204552433230206f7065726174696f6e20646964206e6044820152691bdd081cdd58d8d9595960b21b6064820152608401612c19565b6060613fd38484600085856001600160a01b0385163b6154195760405162461bcd60e51b815260206004820152601d60248201527f416464726573733a2063616c6c20746f206e6f6e2d636f6e74726163740000006044820152606401612c19565b600080866001600160a01b031685876040516154359190615e6b565b60006040518083038185875af1925050503d8060008114615472576040519150601f19603f3d011682016040523d82523d6000602084013e615477565b606091505b5091509150615487828286615492565b979650505050505050565b606083156154a1575081614392565b8251156154b15782518084602001fd5b8160405162461bcd60e51b8152600401612c199190615f22565b8060020b81146140a057600080fd5b6000806000606084860312156154ef57600080fd5b83356154fa816154cb565b9250602084013561550a816154cb565b929592945050506040919091013590565b634e487b7160e01b600052604160045260246000fd5b80356001600160801b038116811461435657600080fd5b600060c0828403121561555a57600080fd5b60405160c0810181811067ffffffffffffffff8211171561557d5761557d61551b565b604052823561558b816154cb565b8152602083013561559b816154cb565b602082015260408301356155ae816154cb565b604082015260608301356155c1816154cb565b60608201526155d260808401615531565b60808201526155e360a08401615531565b60a08201529392505050565b6001600160a01b0391909116815260200190565b6000806000806080858703121561561957600080fd5b8435615624816154cb565b93506020850135615634816154cb565b93969395505050506040820135916060013590565b6001600160a01b03811681146140a057600080fd5b60008060008060006080868803121561567657600080fd5b853561568181615649565b94506020860135935060408601359250606086013567ffffffffffffffff808211156156ac57600080fd5b818801915088601f8301126156c057600080fd5b8135818111156156cf57600080fd5b8960208285010111156156e157600080fd5b9699959850939650602001949392505050565b600082601f83011261570557600080fd5b813567ffffffffffffffff808211156157205761572061551b565b604051601f8301601f19908116603f011681019082821181831017156157485761574861551b565b8160405283815286602085880101111561576157600080fd5b836020870160208301376000602085830101528094505050505092915050565b60006020828403121561579357600080fd5b813567ffffffffffffffff8111156157aa57600080fd5b613fd3848285016156f4565b600081518084526020808501945080840160005b838110156157ef5781516001600160a01b0316875295820195908201906001016157ca565b509495945050505050565b60208152600061439260208301846157b6565b60006020828403121561581f57600080fd5b5035919050565b60008060006060848603121561583b57600080fd5b8335615846816154cb565b92506020840135615856816154cb565b915061586460408501615531565b90509250925092565b60008060006060848603121561588257600080fd5b833561588d81615649565b9250602084013561589d816154cb565b915060408401356158ad816154cb565b809150509250925092565b600080604083850312156158cb57600080fd5b82356158d6816154cb565b915060208301356158e6816154cb565b809150509250929050565b60006020828403121561590357600080fd5b813561439281615649565b6000806040838503121561592157600080fd5b823567ffffffffffffffff81111561593857600080fd5b615944858286016156f4565b92505060208301356158e681615649565b600080600080600060a0868803121561596d57600080fd5b61597686615531565b945061598460208701615531565b935061599260408701615531565b94979396509394606081013594506080013592915050565b6000602082840312156159bc57600080fd5b8135614392816154cb565b634e487b7160e01b600052601160045260246000fd5b600082198211156159f0576159f06159c7565b500190565b60006101a0820190508b82528a60208301528951604083015260208a0151606083015260408a0151608083015260018060a01b0360608b01511660a0830152615a4360c083018a60020b9052565b615a5260e083018960020b9052565b615a6261010083018860020b9052565b615a7261012083018760020b9052565b6001600160801b038516610140830152615a9261016083018560020b9052565b6001600160a01b0383166101808301529b9a5050505050505050505050565b60008060408385031215615ac457600080fd5b8251615acf816154cb565b6020939093015192949293505050565b60006001600160801b03828116848216808303821115615b0157615b016159c7565b01949350505050565b600060a082019050825160020b8252602083015160020b602083015260408301516040830152606083015160608301526080830151608083015292915050565b60006001600160801b0383811690831681811015615b6a57615b6a6159c7565b039392505050565b84815283602082015260606040820152816060820152818360808301376000818301608090810191909152601f909201601f191601019392505050565b600082821015615bc157615bc16159c7565b500390565b8051801515811461435657600080fd5b60008060408385031215615be957600080fd5b615bf283615bc6565b915060208301516158e681615649565b6000816000190483118215151615615c1c57615c1c6159c7565b500290565b634e487b7160e01b600052601260045260246000fd5b600082615c4657615c46615c21565b500490565b60008160020b627fffff19811415615c6557615c656159c7565b60000392915050565b60006001600160a01b0383811690831681811015615b6a57615b6a6159c7565b634e487b7160e01b600052603260045260246000fd5b6000600f82900b60016001607f1b0319811415615c6557615c656159c7565b600060208284031215615cd557600080fd5b815161439281615649565b604081526000615cf360408301856157b6565b82810360208481019190915284518083528582019282019060005b81811015615d2a57845183529383019391830191600101615d0e565b5090979650505050505050565b805162ffffff8116811461435657600080fd5b60008060008060008060c08789031215615d6357600080fd5b8651615d6e81615649565b6020880151909650615d7f81615649565b6040880151909550615d9081615649565b9350615d9e60608801615d37565b9250615dac60808801615d37565b9150615dba60a08801615bc6565b90509295509295509295565b60008260020b80615dd957615dd9615c21565b808360020b0791505092915050565b60008160020b8360020b80615dff57615dff615c21565b627fffff19821460001982141615615e1957615e196159c7565b90059392505050565b6000600160ff1b821415615e3857615e386159c7565b5060000390565b60005b83811015615e5a578181015183820152602001615e42565b83811115613e8c5750506000910152565b60008251615e7d818460208701615e3f565b9190910192915050565b600060208284031215615e9957600080fd5b5051919050565b600062ffffff80831681851681830481118215151615615ec257615ec26159c7565b02949350505050565b600062ffffff80841680615ee157615ee1615c21565b92169190910492915050565b60006001600160801b0383811680615ee157615ee1615c21565b600060208284031215615f1957600080fd5b61439282615bc6565b6020815260008251806020840152615f41816040850160208701615e3f565b601f01601f1916919091016040019291505056fea26469706673582212208d8fb412e9d931a868d39ac3dc927fb9aa4bdba59ddb7288cbcaee271bb4e47564736f6c63430008090033",
  "deployedBytecode": "0x608060405234801561001057600080fd5b50600436106102b65760003560e01c8063a34123a711610172578063cf543153116100d9578063e5ff7f4611610092578063e5ff7f4614610740578063f30dba9314610753578063f719dac6146107fb578063f7c618c114610859578063f949e8b71461086c578063fa1a169c14610874578063fb5d80b31461087d57600080fd5b8063cf543153146106ca578063cf78756b146106dd578063d0c93a7c146106e5578063d21220a7146106fa578063d55147921461070d578063d90bda4e1461072d57600080fd5b8063bd7d1eea1161012b578063bd7d1eea1461066e578063c03c251414610681578063c45a015514610694578063c9936420146106a7578063caa4b46a146106af578063cce2df03146106b757600080fd5b8063a34123a714610500578063aaca1b4d14610513578063acfe88f8146105a5578063b0e21e8a146105b8578063b2f4bdb0146105c1578063bcdb4dad146105ca57600080fd5b806367e4ac2c116102215780638ba310a2116101da5780638ba310a21461047c5780638c347f9b146104845780638f10369a146104ad578063956afe45146104b55780639da12096146104be578063a00e8f29146104c6578063a035b1fe146104ed57600080fd5b806367e4ac2c1461040e5780636d59d8021461042357806370ed1b861461044f578063735541d114610458578063787dce3d1461046157806384e020171461047457600080fd5b80632df94b0f116102735780632df94b0f1461038357806340306fb6146103ab578063490e6cbc146103b457806354cf2aeb146103c9578063627dd56a146103f357806366f657c51461040657600080fd5b806306f912f3146102bb5780630902f1ac146102e15780630ae9ba8a1461031c5780630dfe16811461032f578063111ba27d1461034f5780631a68650214610358575b600080fd5b6102ce6102c93660046154da565b61089c565b6040519081526020015b60405180910390f35b6014546015546001600160801b03600160801b909204821691165b604080516001600160801b039384168152929091166020830152016102d8565b6102ce61032a366004615548565b610904565b600354610342906001600160a01b031681565b6040516102d891906155ef565b6102ce60215481565b60065461036b906001600160801b031681565b6040516001600160801b0390911681526020016102d8565b610396610391366004615603565b610e62565b604080519283526020830191909152016102d8565b6102ce600e5481565b6103c76103c236600461565e565b610fe8565b005b6000546103df90600160281b900462ffffff1681565b60405162ffffff90911681526020016102d8565b6102ce610401366004615781565b61146a565b6102ce611c5e565b610416611c7b565b6040516102d891906157fa565b600754604080516001600160a01b0383168152600160a01b90920463ffffffff166020830152016102d8565b6102ce60095481565b6102ce601b5481565b6103c761046f36600461580d565b611d0f565b6102ce611d62565b6102ce611d7d565b601954604080516001600160a01b0383168152600160a01b90920460020b6020830152016102d8565b6102ce611e47565b6102ce600f5481565b6102ce611e62565b6019546104da90600160a01b900460020b81565b60405160029190910b81526020016102d8565b601954610342906001600160a01b031681565b61039661050e366004615826565b611eaa565b61056f61052136600461586d565b601e60209081526000938452604080852082529284528284209052825290208054600182015460028301546003909301546001600160801b0392831693919281811691600160801b90041685565b604080516001600160801b039687168152602081019590955284019290925283166060830152909116608082015260a0016102d8565b6103966105b33660046158b8565b61223b565b6102ce60225481565b6102ce60205481565b6106196000546005546001546003546004546001600160801b03600160401b8604169562ffffff620100008704811696600160281b900416946001600160a01b03908116948116938116921690565b604080516001600160801b03909816885262ffffff968716602089015295909416948601949094526001600160a01b0391821660608601528116608085015291821660a08401521660c082015260e0016102d8565b6103c761067c3660046158f1565b6125a0565b6102ce61068f3660046158b8565b6125ed565b600554610342906001600160a01b031681565b6102ce6126f8565b6102fc612801565b6103c76106c536600461590e565b612b9b565b6103c76106d8366004615955565b613091565b6102ce6133f2565b6000546103df9062010000900462ffffff1681565b600454610342906001600160a01b031681565b6102ce61071b3660046159aa565b601d6020526000908152604090205481565b6103c761073b3660046158f1565b61342b565b60135461036b906001600160801b031681565b6107b06107613660046159aa565b601c6020526000908152604090208054600182015460028084015460039094015483820b946301000000850490920b93600160301b90046001600160801b03169291906001600160a01b031686565b60408051600297880b81529590960b60208601526001600160801b0390931694840194909452606083015260808201929092526001600160a01b0390911660a082015260c0016102d8565b61083c61080936600461586d565b601f602090815260009384526040808520825292845282842090528252902080546001909101546001600160801b031682565b604080519283526001600160801b039091166020830152016102d8565b601054610342906001600160a01b031681565b6102ce6134ab565b6102ce60085481565b6013546014546001600160801b03600160801b909204821691166102fc565b6000601a54600214156108c2576040516303cb96db60e21b815260040160405180910390fd5b6002601a556108d23385856134bd565b6108de3385858561359b565b6010549091506108f8906001600160a01b03168233613635565b6001601a559392505050565b6000601a546002141561092a576040516303cb96db60e21b815260040160405180910390fd5b6002601a55601554600160801b900460ff1661094581613649565b61095783602001518460600151613897565b60006109668460200151613998565b6001600160a01b0316905060006109808560600151613998565b60195460a087015160808801516001600160a01b03938416945091909216916109bb918591859185916001600160801b039081169116613cc1565b945060016001607f1b038511156109e557604051631a93c68960e11b815260040160405180910390fd5b84610a03576040516320fb348960e21b815260040160405180910390fd5b610a0b613d55565b6000601c73__$5c5207d55745a34649a0c7f595c6a505bf$__63825c72999091601d6040518060800160405280600a54600854610a4891906159dd565b8152602001600b54600954610a5d91906159dd565b81526020016011548152602001600760009054906101000a90046001600160a01b03166001600160a01b03168152508b600001518c602001518d604001518e606001518e601960149054906101000a900460020b8c6040518b63ffffffff1660e01b8152600401610ad79a999897969594939291906159f5565b604080518083038186803b158015610aee57600080fd5b505af4158015610b02573d6000803e3d6000fd5b505050506040513d601f19601f82011682018060405250810190610b269190615ab1565b6019805462ffffff909316600160a01b0262ffffff60a01b1990931692909217909155601b80549192508291600090610b609084906159dd565b9250508190555050610b7c338760200151886060015188613e6a565b808311158015610b8b57508181105b15610bd35760068054869190600090610bae9084906001600160801b0316615adf565b92506101000a8154816001600160801b0302191690836001600160801b031602179055505b600080610be48585858a6001613e92565b60035460048054604051632f8b294d60e11b81526001600160a01b03938416928101929092529190911660248201526001600160801b0380841660448301528216606482015291935091503390635f16529a90608401600060405180830381600087803b158015610c5457600080fd5b505af1158015610c68573d6000803e3d6000fd5b50505050816001600160801b0316600014610d155781601460108282829054906101000a90046001600160801b0316610ca19190615adf565b92506101000a8154816001600160801b0302191690836001600160801b03160217905550610ce3600360009054906101000a90046001600160a01b0316613efc565b601454600160801b90046001600160801b03161115610d155760405163420231d560e11b815260040160405180910390fd5b6001600160801b03811615610daf5760158054829190600090610d429084906001600160801b0316615adf565b92506101000a8154816001600160801b0302191690836001600160801b03160217905550610d84600460009054906101000a90046001600160a01b0316613efc565b6015546001600160801b03161115610daf57604051637218102160e11b815260040160405180910390fd5b600280546040805160a0810182526020808d0151850b82526060808e015190950b908201526001600160801b0380871682840152851693810193909352608083018a90525163fbad739160e01b81526001600160a01b039091169163fbad739191610e1d9190600401615b0a565b600060405180830381600087803b158015610e3757600080fd5b505af1925050508015610e48575060015b505050505050610e5781613fdb565b506001601a55919050565b600080601a5460021415610e89576040516303cb96db60e21b815260040160405180910390fd5b6002601a55601554600160801b900460ff16610ea481613649565b610eaf3388886140a3565b610ebc33888888886141d2565b601480549295509093508491601090610ee6908490600160801b90046001600160801b0316615b4a565b92506101000a8154816001600160801b0302191690836001600160801b0316021790555081601560008282829054906101000a90046001600160801b0316610f2e9190615b4a565b92506101000a8154816001600160801b0302191690836001600160801b03160217905550610f5d3384846142dd565b600254604080518082018252858152602081018581529151631228c47f60e01b815290516004820152905160248201526001600160a01b0390911690631228c47f90604401600060405180830381600087803b158015610fbc57600080fd5b505af1925050508015610fcd575060015b50610fd781613fdb565b506001601a55909590945092505050565b601a546002141561100c576040516303cb96db60e21b815260040160405180910390fd5b6002601a55601554600160801b900460ff1661102781613649565b6110676040518060e00160405280600081526020016000815260200160008152602001600081526020016000815260200160008152602001600081525090565b6000806110868888600060059054906101000a900462ffffff1661430b565b6040805160e0810182528b8152602081018b90526014546001600160801b03600160801b90910481169282019290925260155482166060820152608081019390935260a08301919091526006541660c08201819052909350151591506111019050576040516320fb348960e21b815260040160405180910390fd5b61110c8787876142dd565b608081015160a08201516040516361c9276b60e11b8152339263c3924ed69261113b9289908990600401615b72565b600060405180830381600087803b15801561115557600080fd5b505af1158015611169573d6000803e3d6000fd5b5050600354600092508291508190611189906001600160a01b0316613efc565b6004549091506000906111a4906001600160a01b0316613efc565b905081856080015186604001516111bb91906159dd565b11156111da5760405163420231d560e11b815260040160405180910390fd5b808560a0015186606001516111ef91906159dd565b111561120e57604051637218102160e11b815260040160405180910390fd5b61121782614340565b601480546001600160801b03928316600160801b02921691909117905561123d81614340565b601580546001600160801b0319166001600160801b0392909216919091179055604085015161126c9083615baf565b935084606001518161127e9190615baf565b602254909350915050821561132557600061129c848361271061435b565b905080601360108282829054906101000a90046001600160801b03166112c29190615adf565b92506101000a8154816001600160801b0302191690836001600160801b0316021790555061130d816001600160801b0316856112fe9190615baf565b600160801b8760c00151614399565b6008600082825461131e91906159dd565b9091555050505b81156113ae57600061133a838361271061435b565b60148054919250829160009061135a9084906001600160801b0316615adf565b92506101000a8154816001600160801b0302191690836001600160801b03160217905550611396816001600160801b0316846112fe9190615baf565b600960008282546113a791906159dd565b9091555050505b6002546040805160a0810182523381528651602080830191825288015182840190815260608301888152608084018881529451630a61fef360e21b815293516001600160a01b039081166004860152925160248501529051604484015251606483015291516084820152911690632987fbcc9060a401600060405180830381600087803b15801561143e57600080fd5b505af192505050801561144f575060015b505050505061145d81613fdb565b50506001601a5550505050565b6000601a5460021415611490576040516303cb96db60e21b815260040160405180910390fd5b6002601a55601554600160801b900460ff166114ab81613649565b600080848060200190518101906114c29190615bd6565b915091506000826114de576015546001600160801b03166114f2565b601454600160801b90046001600160801b03165b6001600160801b031661152584611514576004546001600160a01b0316613efc565b6003546001600160a01b0316613efc565b61152f9190615baf565b905060006040518061012001604052806000815260200160008152602001600081526020018561156157600854611565565b6009545b8152602001856115775760095461157b565b6008545b81526019546001600160a01b031660208201526006546001600160801b0316604082015260608101849052608001856115da57601954600160a01b9004600290810b6000908152601c602052604090205463010000009004900b6115e8565b601954600160a01b900460020b5b60020b905290506115f7613d55565b6011546116038261444c565b60e08201511561199657600061161d836101000151613998565b6001600160a01b03169050600080871561174e5760006116488660c00151858860a0015160006144a7565b9050808660e001511161170e5760c086015160a087015160e088015160609290921b9160009161168e9184919061167f9082615c02565b61168990866159dd565b61435b565b90508086111580156116a357508760a0015181105b6116e1576116d5828960e001518a60a00151856116c09190615c37565b6116ca91906159dd565b808204910615150190565b6001600160a01b031690505b6116f68860c00151828a60a0015160006144ff565b60a0890191909152600060e089015293506117489050565b6117238660c00151858860a0015160006144ff565b60a0870185905260e087018051919450600193508291611744908390615baf565b9052505b50611803565b60006117658660c001518760a001518660006144ff565b9050808660e00151116117c757600061178b8760e00151600160601b8960c00151614399565b8760a0015161179a91906159dd565b90506117b18760c001518860a001518360006144a7565b60a0880191909152600060e08801529250611801565b6117dc8660c001518760a001518660006144a7565b60a0870185905260e0870180519194506001935082916117fd908390615baf565b9052505b505b60c0850151156118555761184082600060059054906101000a900462ffffff166022548860c0015189602001518f8b604001518c60600151614529565b60608901526040880152602087019190915299505b801561198e5761186685858a6145c1565b60c085015161198e5761010085015160020b620d89e719148061189f5750611891620d89e719615c4b565b60020b85610100015160020b145b156119675787156118f2576118c960018660a001516118be9190615baf565b6401000276a36146e5565b60a086015261010085018051600290810b6000908152601c6020526040902054900b905261195f565b6119338560a00151600161190691906159dd565b611925600173fffd8963efd1fc6a506488495d951d5263988d26615c6e565b6001600160a01b03166146fc565b60a086015261010085018051600290810b6000908152601c602052604090205463010000009004900b90525b505050611996565b611975856101000151613998565b6001600160a01b031660a086015261198e85858a6145c1565b505050611603565b60a0820151601980546001600160a01b0319166001600160a01b039092169190911790556000856119e257610100830151600290810b6000908152601c6020526040902054900b6119e9565b8261010001515b601954909150600282810b600160a01b909204900b14611a44576019805462ffffff60a01b1916600160a01b62ffffff84160217905560c0830151600680546001600160801b0319166001600160801b039092169190911790555b611a4f86858a61470b565b611a628684606001518560400151614847565b60e083015115611b9457600086611ab657601c60008181611a86620d89e719615c4b565b600290810b8252602080830193909352604091820160009081205490910b84529183019390935291019020611af1565b601c6020527f312e29fa10e2dff7af4afff8ca91ba272d48aceeec966ecfff784af0b0aa924c546301000000900460020b6000908152604090205b60e08501518154919250600091611b1e9190600160801b90600160301b90046001600160801b0316614399565b90508715611b5e5780826001016000828254611b3a91906159dd565b925050819055508060086000828254611b5391906159dd565b90915550611b919050565b80826002016000828254611b7291906159dd565b925050819055508060096000828254611b8b91906159dd565b90915550505b50505b8515611bb657600454611bb1906001600160a01b03168987613635565b611bcd565b600354611bcd906001600160a01b03168987613635565b600254604080516060810182528815158152602081018781528183018c815292516391accd5f60e01b8152915115156004830152516024820152905160448201526001600160a01b03909116906391accd5f90606401600060405180830381600087803b158015611c3d57600080fd5b505af1925050508015611c4e575060015b50505050505050610e5781613fdb565b6000611c686148c3565b611c725750600090565b600c545b905090565b6040805160028082526060808301845292602083019080368337505060035482519293506001600160a01b031691839150600090611cbb57611cbb615c8e565b6001600160a01b039283166020918202929092010152600454825191169082906001908110611cec57611cec615c8e565b60200260200101906001600160a01b031690816001600160a01b03168152505090565b6005546001600160a01b03163314611d3a5760405163ea8e4eb560e01b815260040160405180910390fd5b612710811115611d5d57604051633494a40d60e21b815260040160405180910390fd5b602255565b6000611d6c6148c3565b611d765750600090565b50600d5490565b601554600090600160801b900460ff1681611d97826148dd565b9050600082611db1576015546001600160801b0316611dc5565b601454600160801b90046001600160801b03165b9050806001600160801b0316826001600160801b031611611e0857601654601854611e0091600160801b90046001600160801b0316906159dd565b935050505090565b6016546018546001600160801b038084169285821692611e3392600160801b909204909116906159dd565b611e3d91906159dd565b611e009190615baf565b6000611e516148c3565b611e5b5750600090565b5060125490565b6015546000908190600160801b900460ff16611e7f576000611e87565b611e876126f8565b9050611e9a600854600a54600c5461498a565b611ea490826159dd565b91505090565b600080601a5460021415611ed1576040516303cb96db60e21b815260040160405180910390fd5b6002601a55601554600160801b900460ff16611eec81613649565b6000611ef787613998565b90506000611f0487613998565b6019549091506001600160a01b0316611f1b613d55565b806001600160a01b0316836001600160a01b031611158015611f4e5750816001600160a01b0316816001600160a01b0316105b15611f7657600680546001600160801b038082168a9003166001600160801b03199091161790555b611fa8836001600160a01b0316836001600160a01b0316836001600160a01b03168a6001600160801b03166000613e92565b6001600160801b0391821697508116955060016001607f1b039088161115611fe357604051631a93c68960e11b815260040160405180910390fd5b611ff7338a8a611ff28b615ca4565b613e6a565b85601460108282829054906101000a90046001600160801b031661201b9190615b4a565b92506101000a8154816001600160801b0302191690836001600160801b0316021790555084601560008282829054906101000a90046001600160801b03166120639190615b4a565b92506101000a8154816001600160801b0302191690836001600160801b031602179055506120923387876142dd565b601954604051630f92397360e31b8152601c6004820152601d602482015260028b810b60448301528a810b60648301526001600160801b038a166084830152600160a01b90920490910b60a482015260009073__$5c5207d55745a34649a0c7f595c6a505bf$__90637c91cb989060c401604080518083038186803b15801561211a57600080fd5b505af415801561212e573d6000803e3d6000fd5b505050506040513d601f19601f820116820180604052508101906121529190615ab1565b6019805462ffffff909316600160a01b0262ffffff60a01b1990931692909217909155601b8054919250829160009061218c908490615baf565b9091555050600280546040805160a0810182528d840b8152928c900b60208401528281018a9052606083018990526001600160801b038b16608084015251637e4a416960e11b81526001600160a01b03909116925063fc9482d2916121f391600401615b0a565b600060405180830381600087803b15801561220d57600080fd5b505af192505050801561221e575060015b5050505061222b81613fdb565b506001601a559094909350915050565b60195460009081908190612257906001600160a01b03166149ea565b90506000601c60008760020b60020b81526020019081526020016000206040518060c00160405290816000820160009054906101000a900460020b60020b60020b81526020016000820160039054906101000a900460020b60020b60020b81526020016000820160069054906101000a90046001600160801b03166001600160801b03166001600160801b0316815260200160018201548152602001600282015481526020016003820160009054906101000a90046001600160a01b03166001600160a01b03166001600160a01b03168152505090506000601c60008760020b60020b81526020019081526020016000206040518060c00160405290816000820160009054906101000a900460020b60020b60020b81526020016000820160039054906101000a900460020b60020b60020b81526020016000820160069054906101000a90046001600160801b03166001600160801b03166001600160801b0316815260200160018201548152602001600282015481526020016003820160009054906101000a90046001600160a01b03166001600160a01b03166001600160a01b031681525050905060008060008061242e600660009054906101000a90046001600160801b03166001600160801b0316614cd0565b9150915081600a5460085461244391906159dd565b61244d91906159dd565b935080600b5460095461246091906159dd565b61246a91906159dd565b92505050601560109054906101000a900460ff161561249c5761248b6126f8565b61249590836159dd565b91506124b1565b6124a46126f8565b6124ae90826159dd565b90505b6000808660020b8b60020b136124e95760608601516124d090836159dd565b91508560800151816124e291906159dd565b9050612521565b60608601516124f89085615baf565b61250290836159dd565b91508560800151836125149190615baf565b61251e90826159dd565b90505b8960020b8760020b121561255757606085015161253e90836159dd565b915084608001518161255091906159dd565b905061258f565b60608501516125669085615baf565b61257090836159dd565b91508460800151836125829190615baf565b61258c90826159dd565b90505b920399919003975095505050505050565b6005546001600160a01b031633146125cb5760405163ea8e4eb560e01b815260040160405180910390fd5b600280546001600160a01b0319166001600160a01b0392909216919091179055565b6019546000908190612607906001600160a01b03166149ea565b600654909150600090612622906001600160801b0316614d13565b60115461262f91906159dd565b905060008260020b8660020b1361266557600286900b6000908152601d602052604090205461265e90826159dd565b9050612690565b600286900b6000908152601d60205260409020546126839083615baf565b61268d90826159dd565b90505b8460020b8360020b12156126c357600285900b6000908152601d60205260409020546126bc90826159dd565b90506126ee565b600285900b6000908152601d60205260409020546126e19083615baf565b6126eb90826159dd565b90505b9003949350505050565b601554600090600160801b900460ff1681612712826148dd565b905060008261272c576015546001600160801b0316612740565b601454600160801b90046001600160801b03165b6001600160801b0316905080826001600160801b03161161276657601754935050505090565b6006546001600160801b0316806127835760175494505050505090565b6016546000906001600160801b03600160801b9091048116906127a99085908716615baf565b6127b391906159dd565b905060006127c68260225461271061435b565b90506127e96127de6001600160801b03831684615baf565b600160801b85614399565b6017546127f691906159dd565b965050505050505090565b600080601a5460021415612828576040516303cb96db60e21b815260040160405180910390fd5b6002601a55601554600160801b900460ff1661284381613649565b6001546040805163779b492960e11b815290516000926001600160a01b03169163ef369252916004808301926020929190829003018186803b15801561288857600080fd5b505afa15801561289c573d6000803e3d6000fd5b505050506040513d601f19601f820116820180604052508101906128c09190615cc3565b604080516002808252606082018352929350600092909160208301908036833750506040805160028082526060820183529394506000939092509060208301908036833701905050601354909150600160801b90046001600160801b031615612a1457601380546001600160801b0380821690925560148054600160801b92839004841699508993919260109261295b928692900416615b4a565b92506101000a8154816001600160801b0302191690836001600160801b031602179055506129a8600360009054906101000a90046001600160a01b0316876001600160801b031685613635565b60035482516001600160a01b039091169083906000906129ca576129ca615c8e565b60200260200101906001600160a01b031690816001600160a01b031681525050856001600160801b031681600081518110612a0757612a07615c8e565b6020026020010181815250505b6014546001600160801b031615612b1457601480546001600160801b03198116909155601580546001600160801b0392831697508792600091612a5991859116615b4a565b92506101000a8154816001600160801b0302191690836001600160801b03160217905550612aa6600460009054906101000a90046001600160a01b0316866001600160801b031685613635565b60045482516001600160a01b039091169083906001908110612aca57612aca615c8e565b60200260200101906001600160a01b031690816001600160a01b031681525050846001600160801b031681600181518110612b0757612b07615c8e565b6020026020010181815250505b6001600160a01b0383163b15612b8557604051630f03328360e41b81526001600160a01b0384169063f033283090612b529085908590600401615ce0565b600060405180830381600087803b158015612b6c57600080fd5b505af1158015612b80573d6000803e3d6000fd5b505050505b505050612b9181613fdb565b506001601a559091565b600054610100900460ff16612bb65760005460ff1615612bba565b303b155b612c225760405162461bcd60e51b815260206004820152602e60248201527f496e697469616c697a61626c653a20636f6e747261637420697320616c72656160448201526d191e481a5b9a5d1a585b1a5e995960921b60648201526084015b60405180910390fd5b600054610100900460ff16158015612c44576000805461ffff19166101011790555b60008060008060008088806020019051810190612c619190615d4a565b95509550955095509550955085600360006101000a8154816001600160a01b0302191690836001600160a01b0316021790555084600460006101000a8154816001600160a01b0302191690836001600160a01b0316021790555083601060006101000a8154816001600160a01b0302191690836001600160a01b0316021790555082600060056101000a81548162ffffff021916908362ffffff16021790555081600060026101000a81548162ffffff021916908362ffffff16021790555033600560006101000a8154816001600160a01b0302191690836001600160a01b0316021790555087600160006101000a8154816001600160a01b0302191690836001600160a01b0316021790555080601560106101000a81548160ff021916908315150217905550612d9182614d3b565b600060086101000a8154816001600160801b0302191690836001600160801b031602179055506040518060c00160405280620d89e71960020b8152602001620d89e719612ddd90615c4b565b60020b815260006020808301829052604080840183905260608085018490526080948501849052620d89e71993849052601c835285517f312e29fa10e2dff7af4afff8ca91ba272d48aceeec966ecfff784af0b0aa924c805488860151898601516001600160801b0316600160301b02600160301b600160b01b031962ffffff92831663010000000265ffffffffffff19909416929095169190911791909117929092169190911790558501517f312e29fa10e2dff7af4afff8ca91ba272d48aceeec966ecfff784af0b0aa924d55928401517f312e29fa10e2dff7af4afff8ca91ba272d48aceeec966ecfff784af0b0aa924e5560a0909301517f312e29fa10e2dff7af4afff8ca91ba272d48aceeec966ecfff784af0b0aa924f80546001600160a01b03929092166001600160a01b0319909216919091179055815160c081019092528082529091820190612f3390615c4b565b60020b815260200160006001600160801b03168152602001600081526020016000815260200160006001600160a01b0316815250601c6000620d89e719612f7990615c4b565b600290810b825260208083019390935260409182016000208451815486860151948701516001600160801b0316600160301b02600160301b600160b01b031962ffffff96871663010000000265ffffffffffff1990931696909316959095171716929092178255606084015160018084019190915560808501518383015560a090940151600390920180546001600160a01b039093166001600160a01b03199093169290921790915560198054621e4ec360a31b62ffffff60a01b19909116179055601a929092556007805463ffffffff42908116600160a01b0263ffffffff60a01b1990921691909117909155601b929092555550504360215550508215915061308c9050576000805461ff00191690555b505050565b601a54600214156130b5576040516303cb96db60e21b815260040160405180910390fd5b6002601a55601554600160801b900460ff166130d081613649565b6001546040805163d0a9317360e01b8152905133926001600160a01b03169163d0a931739160048083019260209291908290030181600087803b15801561311657600080fd5b505af115801561312a573d6000803e3d6000fd5b505050506040513d601f19601f8201168201806040525081019061314e9190615cc3565b6001600160a01b0316146131755760405163ea8e4eb560e01b815260040160405180910390fd5b4261318083856159dd565b1161319e57604051633494a40d60e21b815260040160405180910390fd5b600e54600f546000906131b190836159dd565b9050848111156131d457604051633494a40d60e21b815260040160405180910390fd5b6001600160801b0388161561324b57600354613202906001600160a01b03166001600160801b038a16614d7b565b87601460108282829054906101000a90046001600160801b03166132269190615adf565b92506101000a8154816001600160801b0302191690836001600160801b031602179055505b6001600160801b038716156132bc57600454613279906001600160a01b03166001600160801b038916614d7b565b601580548891906000906132979084906001600160801b0316615adf565b92506101000a8154816001600160801b0302191690836001600160801b031602179055505b6001600160801b038616156132ea576010546132ea906001600160a01b03166001600160801b038816614d7b565b60006132f4614d90565b111561338c57613302613d55565b600754600160a01b900463ffffffff168181101561338a57600061332682856146e5565b6133309084615baf565b9050613346613341600c5483614dee565b614340565b613350908b615adf565b9950613361613341600d5483614dee565b61336b908a615adf565b985061337c61334160125483614dee565b6133869089615adf565b9750505b505b6133a4886001600160801b0316600160801b86614399565b600c556133bf6001600160801b038816600160801b86614399565b600d556133da6001600160801b038716600160801b86614399565b6012555050600e839055600f82905561145d81613fdb565b6015546000908190600160801b900460ff16613415576134106126f8565b613418565b60005b9050611e9a600954600b54600d5461498a565b6005546001600160a01b031633146134565760405163ea8e4eb560e01b815260040160405180910390fd5b6019546001600160a01b03161561348057604051630bca0b1b60e21b815260040160405180910390fd5b61348981614dff565b601980546001600160a01b0319166001600160a01b0392909216919091179055565b6000611c76600060115460125461498a565b6001600160a01b0383166000908152601f60209081526040808320600286810b85529083528184209085900b84529091528120906134fb84846125ed565b82546001600160a01b0387166000908152601e6020908152604080832060028a810b85529083528184209089900b84529091528120549293509161354a918403906001600160801b0316614dee565b828455600184018054919250829160009061356f9084906001600160801b0316615adf565b92506101000a8154816001600160801b0302191690836001600160801b03160217905550505050505050565b6001600160a01b0384166000908152601f60209081526040808320600287810b85529083528184209086900b8452909152812060018101546135e6906001600160801b0316846146fc565b60018201805491935083916000906136089084906001600160801b0316615b4a565b92506101000a8154816001600160801b0302191690836001600160801b0316021790555050949350505050565b61308c6001600160a01b0384168284614e56565b6000613654826148dd565b905060008261366e576015546001600160801b0316613682565b601454600160801b90046001600160801b03165b9050806001600160801b0316826001600160801b0316116136a257505050565b82156136c757601480546001600160801b03808516600160801b0291161790556136e3565b601580546001600160801b0319166001600160801b0384161790555b60006136ef8284615b4a565b6006549091506001600160801b0316806137525781601660108282829054906101000a90046001600160801b03166137279190615adf565b92506101000a8154816001600160801b0302191690836001600160801b031602179055505050505050565b601654600160801b90046001600160801b03168015613787576137758184615adf565b601680546001600160801b0316905592505b60006137a1846001600160801b031660225461271061435b565b905086156137f65780601360108282829054906101000a90046001600160801b03166137cd9190615adf565b92506101000a8154816001600160801b0302191690836001600160801b03160217905550613839565b601480548291906000906138149084906001600160801b0316615adf565b92506101000a8154816001600160801b0302191690836001600160801b031602179055505b6138636138468286615b4a565b6001600160801b0316600160801b856001600160801b0316614399565b6017600082825461387491906159dd565b9091555050601880546001600160801b0390951694909401909355505050505050565b6000546138af9062010000900462ffffff1683615dc6565b60020b156138d0576040516333a3bdff60e21b815260040160405180910390fd5b6000546002906138eb9062010000900462ffffff1684615de8565b6138f59190615dc6565b60020b1561391657604051637ef8a10160e11b815260040160405180910390fd5b60005461392e9062010000900462ffffff1682615dc6565b60020b1561394f576040516333a3bdff60e21b815260040160405180910390fd5b60005460029061396a9062010000900462ffffff1683615de8565b6139749190615dc6565b60020b6139945760405163a9778c6360e01b815260040160405180910390fd5b5050565b60008060008360020b126139af578260020b6139bc565b8260020b6139bc90615e22565b90506139cb620d89e719615c4b565b62ffffff168111156139f057604051633e1f710360e21b815260040160405180910390fd5b600060018216613a0457600160801b613a16565b6ffffcb933bd6fad37aa2d162d1a5940015b6001600160881b031690506002821615613a40576ffff97272373d413259a46990580e213a0260801c5b6004821615613a5f576ffff2e50f5f656932ef12357cf3c7fdcc0260801c5b6008821615613a7e576fffe5caca7e10e4e61c3624eaa0941cd00260801c5b6010821615613a9d576fffcb9843d60f6159c9db58835c9266440260801c5b6020821615613abc576fff973b41fa98c081472e6896dfb254c00260801c5b6040821615613adb576fff2ea16466c96a3843ec78b326b528610260801c5b6080821615613afa576ffe5dee046a99a2a811c461f1969c30530260801c5b610100821615613b1a576ffcbe86c7900a88aedcffc83b479aa3a40260801c5b610200821615613b3a576ff987a7253ac413176f2b074cf7815e540260801c5b610400821615613b5a576ff3392b0822b70005940c7a398e4b70f30260801c5b610800821615613b7a576fe7159475a2c29b7443b29c7fa6e889d90260801c5b611000821615613b9a576fd097f3bdfd2022b8845ad8f792aa58250260801c5b612000821615613bba576fa9f746462d870fdf8a65dc1f90e061e50260801c5b614000821615613bda576f70d869a156d2a1b890bb3df62baf32f70260801c5b618000821615613bfa576f31be135f97d08fd981231505542fcfa60260801c5b62010000821615613c1b576f09aa508b5b7a84e1c677de54f3e99bc90260801c5b62020000821615613c3b576e5d6af8dedb81196699c329225ee6040260801c5b62040000821615613c5a576d2216e584f5fa1ea926041bedfe980260801c5b62080000821615613c77576b048a170391f7dc42444e8fa20260801c5b60008460020b1315613c98578060001981613c9457613c94615c21565b0490505b640100000000810615613cac576001613caf565b60005b60ff16602082901c0192505050919050565b6000838511613ce257613cdb83600160601b888803614399565b9050613d4c565b858411613d0457613cdb82613cfc8888600160601b614399565b888803614399565b6000613d2183613d198888600160601b614399565b878903614399565b90506000613d3685600160601b8a8903614399565b9050808210613d455780613d47565b815b925050505b95945050505050565b6006546001600160801b031680613d695750565b600754600160a01b900463ffffffff16428110613d84575050565b6000613d8e614d90565b90508015613e0257613da3600c548285614399565b600a6000828254613db491906159dd565b9091555050600d54613dc7908285614399565b600b6000828254613dd891906159dd565b9091555050601254613deb908285614399565b60116000828254613dfc91906159dd565b90915550505b6007805463ffffffff42908116600160a01b0263ffffffff60a01b1990921691909117909155839083900360801b81613e3d57613e3d615c21565b600780546001600160a01b03198116939092046001600160a01b0392831601909116919091179055505050565b613e758484846140a3565b613e808484846134bd565b613e8c84848484614eb9565b50505050565b600080848611613eb257613eab613341858989876144ff565b9050613ef2565b868511613ecf57613ec8613341858989876144a7565b9150613ef2565b613ede613341858789876144a7565b9150613eef613341858988876144ff565b90505b9550959350505050565b6000806000836001600160a01b03166370a0823160e01b30604051602401613f2491906155ef565b60408051601f198184030181529181526020820180516001600160e01b03166001600160e01b0319909416939093179092529051613f629190615e6b565b600060405180830381855afa9150503d8060008114613f9d576040519150601f19603f3d011682016040523d82523d6000602084013e613fa2565b606091505b5091509150818015613fb657506020815110155b613fbf57600080fd5b80806020019051810190613fd39190615e87565b949350505050565b8015614040576003546001600160a01b0316613ff681614fa8565b601680546001600160801b0319166001600160801b039290921691909117905561401f81613efc565b601480546001600160801b03928316600160801b0292169190911790555050565b6004546001600160a01b031661405581614fa8565b601680546001600160801b0319166001600160801b039290921691909117905561407e81613efc565b601580546001600160801b0319166001600160801b0392909216919091179055505b50565b6001600160a01b0383166000908152601e60209081526040808320600286810b85529083528184209085900b8452909152812090806140e2858561223b565b60018501548554929450909250600091829161410a91908603906001600160801b0316614dee565b6002860154865491935061412a91908503906001600160801b0316614dee565b6001860185905560028601849055600386018054919250839160009061415a9084906001600160801b0316615adf565b92506101000a8154816001600160801b0302191690836001600160801b03160217905550808560030160108282829054906101000a90046001600160801b03166141a49190615adf565b92506101000a8154816001600160801b0302191690836001600160801b031602179055505050505050505050565b6001600160a01b0385166000908152601e60209081526040808320600288810b85529083528184209087900b845290915281206003810154829190614220906001600160801b0316866146fc565b600382015490935061424290600160801b90046001600160801b0316856146fc565b60038201805491935084916000906142649084906001600160801b0316615b4a565b92506101000a8154816001600160801b0302191690836001600160801b03160217905550818160030160108282829054906101000a90046001600160801b03166142ae9190615b4a565b92506101000a8154816001600160801b0302191690836001600160801b03160217905550509550959350505050565b6003546142f4906001600160a01b03168385613635565b60045461308c906001600160a01b03168285613635565b600080614321858462ffffff16620f424061435b565b9150614336848462ffffff16620f424061435b565b9050935093915050565b806001600160801b038116811461435657600080fd5b919050565b6000614368848484614399565b9050818061437857614378615c21565b8385091561439257600019811061438e57600080fd5b6001015b9392505050565b6000808060001985870985870292508281108382030391505080600014156143d357600084116143c857600080fd5b508290049050614392565b8084116143df57600080fd5b6000848688096000868103871696879004966002600389028118808a02820302808a02820302808a02820302808a02820302808a02820302808a02909103029181900381900460010186841190950394909402919094039290920491909117919091029150509392505050565b60c0810151156144595750565b61010081015160020b620d89e7191480614489575061447b620d89e719615c4b565b60020b81610100015160020b145b156140a05760405163035d2ccd60e51b815260040160405180910390fd5b600081156144d6576144cf6144c3606087901b8686038661435b565b85808204910615150190565b9050613fd3565b836144e8606087901b82860386614399565b816144f5576144f5615c21565b0495945050505050565b60008115614518576144cf85858503600160601b61435b565b613d4c85858503600160601b614399565b60008060008060006145448d8d62ffffff16620f424061435b565b9050614550818a6159dd565b985061455c818e615baf565b61456690896159dd565b97506000614577828d61271061435b565b905061458381896159dd565b975061458f8183615baf565b91506145a082600160801b8d614399565b6145aa90886159dd565b999e989d50969b5097995095975050505050505050565b601554600090600160801b900460ff166145dc5760006145e0565b6017545b601554909150600090600160801b900460ff166145ff57601754614602565b60005b61010086015160075460c08801519293506146cd92601d92916001600160a01b0316908761464c5786600a548b6060015161463d91906159dd565b61464791906159dd565b614669565b85600b548b6060015161465f91906159dd565b61466991906159dd565b886146905786600b548c6080015161468191906159dd565b61468b91906159dd565b6146ad565b87600a548c608001516146a391906159dd565b6146ad91906159dd565b600054601c969594939291908c908c9062010000900462ffffff16615027565b60020b61010087015260c09095019490945250505050565b6000818310156146f55781614392565b5090919050565b60008183106146f55781614392565b82156147aa57600354600090614729906001600160a01b0316613efc565b60145490915060009061474d908590600160801b90046001600160801b0316615adf565b905081816001600160801b031611156147795760405163420231d560e11b815260040160405180910390fd5b601480546001600160801b03908116600160801b848316021790915560158054859260009161372791859116615b4a565b6004546000906147c2906001600160a01b0316613efc565b6015549091506000906147df9085906001600160801b0316615adf565b905081816001600160801b0316111561480b57604051637218102160e11b815260040160405180910390fd5b601580546001600160801b0319166001600160801b0383811691909117909155601480548592601091613727918591600160801b900416615b4a565b8215614899576009829055601480548291906000906148709084906001600160801b0316615adf565b92506101000a8154816001600160801b0302191690836001600160801b03160217905550505050565b600882905560138054829190601090614870908490600160801b90046001600160801b0316615adf565b6000600f54600e546148d591906159dd565b421115905090565b600080826148f6576004546001600160a01b0316614903565b6003546001600160a01b03165b601654604051632cc7243560e21b81526001600160801b0390911660048201529091506001600160a01b0382169063b31c90d49060240160206040518083038186803b15801561495257600080fd5b505afa158015614966573d6000803e3d6000fd5b505050506040513d601f19601f820116820180604052508101906143929190615e87565b600080614995614d90565b6006549091506001600160801b031681158015906149b35750600081115b156149e0576149c3848383614399565b6149cd86886159dd565b6149d791906159dd565b92505050614392565b6149d785876159dd565b60006401000276a36001600160a01b0383161080614a25575073fffd8963efd1fc6a506488495d951d5263988d266001600160a01b03831610155b15614a4357604051636e4ba61d60e01b815260040160405180910390fd5b640100000000600160c01b03602083901b166001600160801b03811160071b81811c67ffffffffffffffff811160061b90811c63ffffffff811160051b90811c61ffff811160041b90811c60ff8111600390811b91821c600f811160021b90811c918211600190811b92831c97908811961790941790921717909117171760808110614ad757607f810383901c9150614ae1565b80607f0383901b91505b908002607f81811c60ff83811c9190911c800280831c81831c1c800280841c81841c1c800280851c81851c1c800280861c81861c1c800280871c81871c1c800280881c81881c1c800280891c81891c1c8002808a1c818a1c1c8002808b1c818b1c1c8002808c1c818c1c1c8002808d1c818d1c1c8002808e1c9c81901c9c909c1c80029c8d901c9e9d607f198f0160401b60c09190911c6001603f1b161760c19b909b1c6001603e1b169a909a1760c29990991c6001603d1b169890981760c39790971c6001603c1b169690961760c49590951c6001603b1b169490941760c59390931c6001603a1b169290921760c69190911c600160391b161760c79190911c600160381b161760c89190911c6680000000000000161760c99190911c6640000000000000161760ca9190911c6620000000000000161760cb9190911c6610000000000000161760cc9190911c6608000000000000161760cd9190911c66040000000000001617693627a301d71055774c8581026f028f6481ab7f045a5af012a19d003aa9198101608090811d906fdb2df09e81959a81455e260799a0632f8301901d600281810b9083900b14614cc157886001600160a01b0316614ca682613998565b6001600160a01b03161115614cbb5781614cc3565b80614cc3565b815b9998505050505050505050565b60008082614ce357506000928392509050565b6000614ced614d90565b9050614cfc600c548286614399565b9250614d0b600d548286614399565b915050915091565b600081614d2257506000919050565b6000614d2c614d90565b90506143926012548285614399565b6000614d48826002615ea0565b614d55620d89e719615c4b565b614d5f9190615ecb565b614d759062ffffff166001600160801b03615eed565b92915050565b6139946001600160a01b0383163330846152ad565b600e54600090428110614da557600091505090565b600754600f54600160a01b90910463ffffffff1690600090614dc790846159dd565b9050818111614dda576000935050505090565b614de482846146e5565b611e3d42836146fc565b60006143928383600160801b614399565b6401000276a36001600160a01b0382161080614e38575073fffd8963efd1fc6a506488495d951d5263988d266001600160a01b03821610155b156140a057604051636e4ba61d60e01b815260040160405180910390fd5b6040516001600160a01b03831660248201526044810182905261308c90849063a9059cbb60e01b906064015b60408051601f198184030181529190526020810180516001600160e01b03166001600160e01b0319909316929092179091526152e5565b80600f0b60001415614eca57613e8c565b6001600160a01b0384166000908152601e60209081526040808320600287810b85529083528184209086900b8452909152812090600f83900b1315614f7d57805482908290600090614f269084906001600160801b0316615adf565b82546101009290920a6001600160801b038181021990931691831602179091556000548354600160401b9091048216911611159050614f785760405163581a12d760e11b815260040160405180910390fd5b614fa1565b614f8682615ca4565b815482906000906137279084906001600160801b0316615b4a565b5050505050565b604051633d7ad0b760e21b81526000906001600160a01b0383169063f5eb42dc90614fd79030906004016155ef565b60206040518083038186803b158015614fef57600080fd5b505afa158015615003573d6000803e3d6000fd5b505050506040513d601f19601f82011682018060405250810190614d759190615e87565b600288900b600090815260208b905260408120600301548190615053906001600160a01b03168a615c6e565b60028b900b600090815260208e8152604080832060030180546001600160a01b0319166001600160a01b0395909516949094179093558d905220546150989086615baf565b60028b900b600090815260208d9052604090205583156151a55760028360020b8b60020b816150c9576150c9615c21565b0560020b816150da576150da615c21565b0760020b61510f5760028a900b600090815260208d90526040902054600160301b90046001600160801b031690970396615139565b60028a900b600090815260208d90526040902054600160301b90046001600160801b031697909701965b60028a900b600090815260208d9052604090206001015461515a9087615baf565b60028b810b600090815260208f905260409020600181019290925501546151819088615baf565b60029a8b0b600090815260208e905260409020808c01919091555490990b9861529b565b60028360020b8b60020b816151bc576151bc615c21565b0560020b816151cd576151cd615c21565b0760020b6152035760028a900b600090815260208d90526040902054600160301b90046001600160801b0316979097019661522c565b60028a900b600090815260208d90526040902054600160301b90046001600160801b0316909703965b60028a810b600090815260208e905260409020015461524b9087615baf565b60028b810b600090815260208f90526040902090810191909155600101546152739088615baf565b60029a8b0b600090815260208e9052604090206001810191909155546301000000900490990b985b50959a97995096975050505050505050565b6040516001600160a01b0380851660248301528316604482015260648101829052613e8c9085906323b872dd60e01b90608401614e82565b600061533a826040518060400160405280602081526020017f5361666545524332303a206c6f772d6c6576656c2063616c6c206661696c6564815250856001600160a01b03166153b79092919063ffffffff16565b80519091501561308c57808060200190518101906153589190615f07565b61308c5760405162461bcd60e51b815260206004820152602a60248201527f5361666545524332303a204552433230206f7065726174696f6e20646964206e6044820152691bdd081cdd58d8d9595960b21b6064820152608401612c19565b6060613fd38484600085856001600160a01b0385163b6154195760405162461bcd60e51b815260206004820152601d60248201527f416464726573733a2063616c6c20746f206e6f6e2d636f6e74726163740000006044820152606401612c19565b600080866001600160a01b031685876040516154359190615e6b565b60006040518083038185875af1925050503d8060008114615472576040519150601f19603f3d011682016040523d82523d6000602084013e615477565b606091505b5091509150615487828286615492565b979650505050505050565b606083156154a1575081614392565b8251156154b15782518084602001fd5b8160405162461bcd60e51b8152600401612c199190615f22565b8060020b81146140a057600080fd5b6000806000606084860312156154ef57600080fd5b83356154fa816154cb565b9250602084013561550a816154cb565b929592945050506040919091013590565b634e487b7160e01b600052604160045260246000fd5b80356001600160801b038116811461435657600080fd5b600060c0828403121561555a57600080fd5b60405160c0810181811067ffffffffffffffff8211171561557d5761557d61551b565b604052823561558b816154cb565b8152602083013561559b816154cb565b602082015260408301356155ae816154cb565b604082015260608301356155c1816154cb565b60608201526155d260808401615531565b60808201526155e360a08401615531565b60a08201529392505050565b6001600160a01b0391909116815260200190565b6000806000806080858703121561561957600080fd5b8435615624816154cb565b93506020850135615634816154cb565b93969395505050506040820135916060013590565b6001600160a01b03811681146140a057600080fd5b60008060008060006080868803121561567657600080fd5b853561568181615649565b94506020860135935060408601359250606086013567ffffffffffffffff808211156156ac57600080fd5b818801915088601f8301126156c057600080fd5b8135818111156156cf57600080fd5b8960208285010111156156e157600080fd5b9699959850939650602001949392505050565b600082601f83011261570557600080fd5b813567ffffffffffffffff808211156157205761572061551b565b604051601f8301601f19908116603f011681019082821181831017156157485761574861551b565b8160405283815286602085880101111561576157600080fd5b836020870160208301376000602085830101528094505050505092915050565b60006020828403121561579357600080fd5b813567ffffffffffffffff8111156157aa57600080fd5b613fd3848285016156f4565b600081518084526020808501945080840160005b838110156157ef5781516001600160a01b0316875295820195908201906001016157ca565b509495945050505050565b60208152600061439260208301846157b6565b60006020828403121561581f57600080fd5b5035919050565b60008060006060848603121561583b57600080fd5b8335615846816154cb565b92506020840135615856816154cb565b915061586460408501615531565b90509250925092565b60008060006060848603121561588257600080fd5b833561588d81615649565b9250602084013561589d816154cb565b915060408401356158ad816154cb565b809150509250925092565b600080604083850312156158cb57600080fd5b82356158d6816154cb565b915060208301356158e6816154cb565b809150509250929050565b60006020828403121561590357600080fd5b813561439281615649565b6000806040838503121561592157600080fd5b823567ffffffffffffffff81111561593857600080fd5b615944858286016156f4565b92505060208301356158e681615649565b600080600080600060a0868803121561596d57600080fd5b61597686615531565b945061598460208701615531565b935061599260408701615531565b94979396509394606081013594506080013592915050565b6000602082840312156159bc57600080fd5b8135614392816154cb565b634e487b7160e01b600052601160045260246000fd5b600082198211156159f0576159f06159c7565b500190565b60006101a0820190508b82528a60208301528951604083015260208a0151606083015260408a0151608083015260018060a01b0360608b01511660a0830152615a4360c083018a60020b9052565b615a5260e083018960020b9052565b615a6261010083018860020b9052565b615a7261012083018760020b9052565b6001600160801b038516610140830152615a9261016083018560020b9052565b6001600160a01b0383166101808301529b9a5050505050505050505050565b60008060408385031215615ac457600080fd5b8251615acf816154cb565b6020939093015192949293505050565b60006001600160801b03828116848216808303821115615b0157615b016159c7565b01949350505050565b600060a082019050825160020b8252602083015160020b602083015260408301516040830152606083015160608301526080830151608083015292915050565b60006001600160801b0383811690831681811015615b6a57615b6a6159c7565b039392505050565b84815283602082015260606040820152816060820152818360808301376000818301608090810191909152601f909201601f191601019392505050565b600082821015615bc157615bc16159c7565b500390565b8051801515811461435657600080fd5b60008060408385031215615be957600080fd5b615bf283615bc6565b915060208301516158e681615649565b6000816000190483118215151615615c1c57615c1c6159c7565b500290565b634e487b7160e01b600052601260045260246000fd5b600082615c4657615c46615c21565b500490565b60008160020b627fffff19811415615c6557615c656159c7565b60000392915050565b60006001600160a01b0383811690831681811015615b6a57615b6a6159c7565b634e487b7160e01b600052603260045260246000fd5b6000600f82900b60016001607f1b0319811415615c6557615c656159c7565b600060208284031215615cd557600080fd5b815161439281615649565b604081526000615cf360408301856157b6565b82810360208481019190915284518083528582019282019060005b81811015615d2a57845183529383019391830191600101615d0e565b5090979650505050505050565b805162ffffff8116811461435657600080fd5b60008060008060008060c08789031215615d6357600080fd5b8651615d6e81615649565b6020880151909650615d7f81615649565b6040880151909550615d9081615649565b9350615d9e60608801615d37565b9250615dac60808801615d37565b9150615dba60a08801615bc6565b90509295509295509295565b60008260020b80615dd957615dd9615c21565b808360020b0791505092915050565b60008160020b8360020b80615dff57615dff615c21565b627fffff19821460001982141615615e1957615e196159c7565b90059392505050565b6000600160ff1b821415615e3857615e386159c7565b5060000390565b60005b83811015615e5a578181015183820152602001615e42565b83811115613e8c5750506000910152565b60008251615e7d818460208701615e3f565b9190910192915050565b600060208284031215615e9957600080fd5b5051919050565b600062ffffff80831681851681830481118215151615615ec257615ec26159c7565b02949350505050565b600062ffffff80841680615ee157615ee1615c21565b92169190910492915050565b60006001600160801b0383811680615ee157615ee1615c21565b600060208284031215615f1957600080fd5b61439282615bc6565b6020815260008251806020840152615f41816040850160208701615e3f565b601f01601f1916919091016040019291505056fea26469706673582212208d8fb412e9d931a868d39ac3dc927fb9aa4bdba59ddb7288cbcaee271bb4e47564736f6c63430008090033",
  "libraries": {
    "RewardTicks": "0xfF8E5bDf54D5ab74D2E56CA0E575348A52B95B3d"
  }
}