{
  "address": "0xEA0e2b9B7283D6dD86c093e783292B17B1D42780",
  "abi": [
    {
      "inputs": [],
      "name": "TickOutOfBounds",
      "type": "error"
    },
    {
      "inputs": [
        {
          "internalType": "address",
          "name": "pool",
          "type": "address"
        },
        {
          "internalType": "uint160",
          "name": "targetPrice",
          "type": "uint160"
        }
      ],
      "name": "expectAmount",
      "outputs": [
        {
          "internalType": "bool",
          "name": "zeroForOne",
          "type": "bool"
        },
        {
          "internalType": "uint256",
          "name": "amount0",
          "type": "uint256"
        },
        {
          "internalType": "uint256",
          "name": "amount1",
          "type": "uint256"
        }
      ],
      "stateMutability": "view",
      "type": "function"
    }
  ],
  "transactionHash": "0x204dba7dab946af969404d1c7b2de1a4b4aa72cf7c89aa0768ab96c85a4b93f1",
  "args": [],
  "numDeployments": 1,
  "solcInputHash": "ce2f266e969af56bfe859898a5fae8b5",
  "bytecode": "0x608060405234801561001057600080fd5b5061154c806100206000396000f3fe608060405234801561001057600080fd5b506004361061002b5760003560e01c8063b585299714610030575b600080fd5b61004361003e366004611234565b610064565b60408051931515845260208401929092529082015260600160405180910390f35b600080600061009e6040518060a0016040528060008152602001600081526020016000815260200160008152602001600060020b81525090565b6000808773ffffffffffffffffffffffffffffffffffffffff16638c347f9b6040518163ffffffff1660e01b8152600401604080518083038186803b1580156100e657600080fd5b505afa1580156100fa573d6000803e3d6000fd5b505050506040513d601f19601f8201168201806040525081019061011e919061128f565b915091508673ffffffffffffffffffffffffffffffffffffffff168273ffffffffffffffffffffffffffffffffffffffff161195506040518060a001604052808373ffffffffffffffffffffffffffffffffffffffff1681526020018973ffffffffffffffffffffffffffffffffffffffff16631a6865026040518163ffffffff1660e01b815260040160206040518083038186803b1580156101c057600080fd5b505afa1580156101d4573d6000803e3d6000fd5b505050506040513d601f19601f820116820180604052508101906101f891906112e4565b6fffffffffffffffffffffffffffffffff1681526020016000815260200160008152602001876102cc576040517ff30dba93000000000000000000000000000000000000000000000000000000008152600284900b600482015273ffffffffffffffffffffffffffffffffffffffff8b169063f30dba939060240160c06040518083038186803b15801561028b57600080fd5b505afa15801561029f573d6000803e3d6000fd5b505050506040513d601f19601f820116820180604052508101906102c391906112ff565b602001516102ce565b825b60020b815250925050506102e1816106f2565b156102f35750600091508190506106eb565b60008673ffffffffffffffffffffffffffffffffffffffff166354cf2aeb6040518163ffffffff1660e01b815260040160206040518083038186803b15801561033b57600080fd5b505afa15801561034f573d6000803e3d6000fd5b505050506040513d601f19601f8201168201806040525081019061037391906113b7565b905060008773ffffffffffffffffffffffffffffffffffffffff1663d0c93a7c6040518163ffffffff1660e01b815260040160206040518083038186803b1580156103bd57600080fd5b505afa1580156103d1573d6000803e3d6000fd5b505050506040513d601f19601f820116820180604052508101906103f591906113b7565b905060009450600093505b600061040f8460800151610773565b73ffffffffffffffffffffffffffffffffffffffff169050600087156104e85760008973ffffffffffffffffffffffffffffffffffffffff16831115610455578261046d565b8973ffffffffffffffffffffffffffffffffffffffff165b905061048486602001518288600001516001610b06565b61048e908961140b565b97506104b36104a887602001518389600001516000610b60565b8662ffffff16610ba5565b6104bd908861140b565b96508973ffffffffffffffffffffffffffffffffffffffff168311156104e257600191505b50610592565b60008973ffffffffffffffffffffffffffffffffffffffff1683101561050e5782610526565b8973ffffffffffffffffffffffffffffffffffffffff165b905061053d86602001518760000151836000610b60565b610547908861140b565b96506105616104a887602001518860000151846000610b06565b61056b908961140b565b97508973ffffffffffffffffffffffffffffffffffffffff1683101561059057600191505b505b801561069a576105a48a86858b610bc6565b60020b6080870152602086018190526106e0576105e07ffffffffffffffffffffffffffffffffffffffffffffffffffffffffffff27618611423565b60020b856080015160020b148061061d5750608085015160020b7ffffffffffffffffffffffffffffffffffffffffffffffffffffffffffff27618145b156106a157871561064c5784516106459061063a90600190611462565b6401000276a36110bd565b855261069a565b84516106979061065d90600161140b565b61067c600173fffd8963efd1fc6a506488495d951d5263988d26611479565b73ffffffffffffffffffffffffffffffffffffffff166110d4565b85525b50506106e7565b6106ae8560800151610773565b73ffffffffffffffffffffffffffffffffffffffff1685526106d28a86858b610bc6565b60020b608087015260208601525b5050610400565b5050505b9250925092565b60208101516000901561070757506000919050565b608082015160020b7ffffffffffffffffffffffffffffffffffffffffffffffffffffffffffff27618148061076d57506107607ffffffffffffffffffffffffffffffffffffffffffffffffffffffffffff27618611423565b60020b826080015160020b145b92915050565b60008060008360020b1261078a578260020b610797565b8260020b610797906114ae565b90506107c27ffffffffffffffffffffffffffffffffffffffffffffffffffffffffffff27618611423565b62ffffff16811115610800576040517ff87dc40c00000000000000000000000000000000000000000000000000000000815260040160405180910390fd5b60006001821661082157700100000000000000000000000000000000610833565b6ffffcb933bd6fad37aa2d162d1a5940015b70ffffffffffffffffffffffffffffffffff1690506002821615610867576ffff97272373d413259a46990580e213a0260801c5b6004821615610886576ffff2e50f5f656932ef12357cf3c7fdcc0260801c5b60088216156108a5576fffe5caca7e10e4e61c3624eaa0941cd00260801c5b60108216156108c4576fffcb9843d60f6159c9db58835c9266440260801c5b60208216156108e3576fff973b41fa98c081472e6896dfb254c00260801c5b6040821615610902576fff2ea16466c96a3843ec78b326b528610260801c5b6080821615610921576ffe5dee046a99a2a811c461f1969c30530260801c5b610100821615610941576ffcbe86c7900a88aedcffc83b479aa3a40260801c5b610200821615610961576ff987a7253ac413176f2b074cf7815e540260801c5b610400821615610981576ff3392b0822b70005940c7a398e4b70f30260801c5b6108008216156109a1576fe7159475a2c29b7443b29c7fa6e889d90260801c5b6110008216156109c1576fd097f3bdfd2022b8845ad8f792aa58250260801c5b6120008216156109e1576fa9f746462d870fdf8a65dc1f90e061e50260801c5b614000821615610a01576f70d869a156d2a1b890bb3df62baf32f70260801c5b618000821615610a21576f31be135f97d08fd981231505542fcfa60260801c5b62010000821615610a42576f09aa508b5b7a84e1c677de54f3e99bc90260801c5b62020000821615610a62576e5d6af8dedb81196699c329225ee6040260801c5b62040000821615610a81576d2216e584f5fa1ea926041bedfe980260801c5b62080000821615610a9e576b048a170391f7dc42444e8fa20260801c5b60008460020b1315610add57807fffffffffffffffffffffffffffffffffffffffffffffffffffffffffffffffff81610ad957610ad96114e7565b0490505b640100000000810615610af1576001610af4565b60005b60ff16602082901c0192505050919050565b60008115610b3557610b2e610b22606087901b868603866110e3565b85808204910615150190565b9050610b58565b83610b47606087901b8286038661113e565b81610b5457610b546114e7565b0490505b949350505050565b60008115610b8257610b2e858585036c010000000000000000000000006110e3565b610b9c858585036c0100000000000000000000000061113e565b95945050505050565b6000610bb58383620f42406110e3565b610bbf9084611462565b9392505050565b6000808215610e425760028460020b866080015160020b81610bea57610bea6114e7565b0560020b81610bfb57610bfb6114e7565b0760020b610ccd5760808501516040517ff30dba9300000000000000000000000000000000000000000000000000000000815260029190910b600482015273ffffffffffffffffffffffffffffffffffffffff87169063f30dba939060240160c06040518083038186803b158015610c7257600080fd5b505afa158015610c86573d6000803e3d6000fd5b505050506040513d601f19601f82011682018060405250810190610caa91906112ff565b604001516fffffffffffffffffffffffffffffffff168560200151039150610d93565b60808501516040517ff30dba9300000000000000000000000000000000000000000000000000000000815260029190910b600482015273ffffffffffffffffffffffffffffffffffffffff87169063f30dba939060240160c06040518083038186803b158015610d3c57600080fd5b505afa158015610d50573d6000803e3d6000fd5b505050506040513d601f19601f82011682018060405250810190610d7491906112ff565b604001516fffffffffffffffffffffffffffffffff1685602001510191505b60808501516040517ff30dba9300000000000000000000000000000000000000000000000000000000815260029190910b600482015273ffffffffffffffffffffffffffffffffffffffff87169063f30dba939060240160c06040518083038186803b158015610e0257600080fd5b505afa158015610e16573d6000803e3d6000fd5b505050506040513d601f19601f82011682018060405250810190610e3a91906112ff565b5190506110b4565b60028460020b866080015160020b81610e5d57610e5d6114e7565b0560020b81610e6e57610e6e6114e7565b0760020b610f405760808501516040517ff30dba9300000000000000000000000000000000000000000000000000000000815260029190910b600482015273ffffffffffffffffffffffffffffffffffffffff87169063f30dba939060240160c06040518083038186803b158015610ee557600080fd5b505afa158015610ef9573d6000803e3d6000fd5b505050506040513d601f19601f82011682018060405250810190610f1d91906112ff565b604001516fffffffffffffffffffffffffffffffff168560200151019150611006565b60808501516040517ff30dba9300000000000000000000000000000000000000000000000000000000815260029190910b600482015273ffffffffffffffffffffffffffffffffffffffff87169063f30dba939060240160c06040518083038186803b158015610faf57600080fd5b505afa158015610fc3573d6000803e3d6000fd5b505050506040513d601f19601f82011682018060405250810190610fe791906112ff565b604001516fffffffffffffffffffffffffffffffff1685602001510391505b60808501516040517ff30dba9300000000000000000000000000000000000000000000000000000000815260029190910b600482015273ffffffffffffffffffffffffffffffffffffffff87169063f30dba939060240160c06040518083038186803b15801561107557600080fd5b505afa158015611089573d6000803e3d6000fd5b505050506040513d601f19601f820116820180604052508101906110ad91906112ff565b6020015190505b94509492505050565b6000818310156110cd5781610bbf565b5090919050565b60008183106110cd5781610bbf565b60006110f084848461113e565b90508180611100576111006114e7565b83850915610bbf577fffffffffffffffffffffffffffffffffffffffffffffffffffffffffffffffff811061113457600080fd5b6001019392505050565b600080807fffffffffffffffffffffffffffffffffffffffffffffffffffffffffffffffff8587098587029250828110838203039150508060001415611196576000841161118b57600080fd5b508290049050610bbf565b8084116111a257600080fd5b6000848688096000868103871696879004966002600389028118808a02820302808a02820302808a02820302808a02820302808a02820302808a02909103029181900381900460010186841190950394909402919094039290920491909117919091029150509392505050565b73ffffffffffffffffffffffffffffffffffffffff8116811461123157600080fd5b50565b6000806040838503121561124757600080fd5b82356112528161120f565b915060208301356112628161120f565b809150509250929050565b80516112788161120f565b919050565b8051600281900b811461127857600080fd5b600080604083850312156112a257600080fd5b82516112ad8161120f565b91506112bb6020840161127d565b90509250929050565b80516fffffffffffffffffffffffffffffffff8116811461127857600080fd5b6000602082840312156112f657600080fd5b610bbf826112c4565b600060c0828403121561131157600080fd5b60405160c0810181811067ffffffffffffffff8211171561135b577f4e487b7100000000000000000000000000000000000000000000000000000000600052604160045260246000fd5b6040526113678361127d565b81526113756020840161127d565b6020820152611386604084016112c4565b604082015260608301516060820152608083015160808201526113ab60a0840161126d565b60a08201529392505050565b6000602082840312156113c957600080fd5b815162ffffff81168114610bbf57600080fd5b7f4e487b7100000000000000000000000000000000000000000000000000000000600052601160045260246000fd5b6000821982111561141e5761141e6113dc565b500190565b60008160020b7fffffffffffffffffffffffffffffffffffffffffffffffffffffffffff800000811415611459576114596113dc565b60000392915050565b600082821015611474576114746113dc565b500390565b600073ffffffffffffffffffffffffffffffffffffffff838116908316818110156114a6576114a66113dc565b039392505050565b60007f80000000000000000000000000000000000000000000000000000000000000008214156114e0576114e06113dc565b5060000390565b7f4e487b7100000000000000000000000000000000000000000000000000000000600052601260045260246000fdfea2646970667358221220bb987996c51aeab721fcc9a6d28392f21f57835bda57e4d8231c87232526308864736f6c63430008090033",
  "devdoc": {
    "kind": "dev",
    "methods": {},
    "version": 1
  },
  "userdoc": {
    "kind": "user",
    "methods": {},
    "notice": "Calculate the Price Impact Size",
    "version": 1
  },
  "storageLayout": {
    "storage": [],
    "types": null
  }
}